{
  "abi": [
    {
      "inputs": [
        {
          "internalType": "contract IMangrove",
          "name": "_mgv",
          "type": "address"
        },
        {
          "internalType": "address",
          "name": "_addressesProvider",
          "type": "address"
        },
        {
          "internalType": "address",
          "name": "deployer",
          "type": "address"
        }
      ],
      "stateMutability": "nonpayable",
      "type": "constructor"
    },
    {
      "anonymous": false,
      "inputs": [
        {
          "indexed": false,
          "internalType": "contract IMangrove",
          "name": "mangrove",
          "type": "address"
        },
        {
          "indexed": true,
          "internalType": "contract IERC20",
          "name": "outbound_tkn",
          "type": "address"
        },
        {
          "indexed": true,
          "internalType": "contract IERC20",
          "name": "inbound_tkn",
          "type": "address"
        },
        {
          "indexed": true,
          "internalType": "uint256",
          "name": "offerId",
          "type": "uint256"
        },
        {
          "indexed": false,
          "internalType": "bytes32",
          "name": "reason",
          "type": "bytes32"
        }
      ],
      "name": "LogIncident",
      "type": "event"
    },
    {
      "anonymous": false,
      "inputs": [
        {
          "indexed": false,
          "internalType": "uint256",
          "name": "",
          "type": "uint256"
        }
      ],
      "name": "SetGasreq",
      "type": "event"
    },
    {
      "anonymous": false,
      "inputs": [
        {
          "indexed": false,
          "internalType": "contract AbstractRouter",
          "name": "",
          "type": "address"
        }
      ],
      "name": "SetRouter",
      "type": "event"
    },
    {
      "inputs": [],
      "name": "MGV",
      "outputs": [
        {
          "internalType": "contract IMangrove",
          "name": "",
          "type": "address"
        }
      ],
      "stateMutability": "view",
      "type": "function"
    },
    {
      "inputs": [],
      "name": "admin",
      "outputs": [
        {
          "internalType": "address",
          "name": "",
          "type": "address"
        }
      ],
      "stateMutability": "view",
      "type": "function"
    },
    {
      "inputs": [
        {
          "internalType": "contract IERC20",
          "name": "outbound_tkn",
          "type": "address"
        },
        {
          "internalType": "uint256",
          "name": "amount",
          "type": "uint256"
        }
      ],
      "name": "approveMangrove",
      "outputs": [],
      "stateMutability": "nonpayable",
      "type": "function"
    },
    {
      "inputs": [
        {
          "internalType": "contract IERC20",
          "name": "token",
          "type": "address"
        }
      ],
      "name": "approveRouter",
      "outputs": [],
      "stateMutability": "nonpayable",
      "type": "function"
    },
    {
      "inputs": [
        {
          "internalType": "contract IERC20",
          "name": "outbound_tkn",
          "type": "address"
        },
        {
          "internalType": "contract IERC20",
          "name": "inbound_tkn",
          "type": "address"
        },
        {
          "internalType": "uint256",
          "name": "gasreq",
          "type": "uint256"
        },
        {
          "internalType": "uint256",
          "name": "gasprice",
          "type": "uint256"
        },
        {
          "internalType": "uint256",
          "name": "offerId",
          "type": "uint256"
        }
      ],
      "name": "getMissingProvision",
      "outputs": [
        {
          "internalType": "uint256",
          "name": "",
          "type": "uint256"
        }
      ],
      "stateMutability": "view",
      "type": "function"
    },
    {
      "inputs": [],
      "name": "has_router",
      "outputs": [
        {
          "internalType": "bool",
          "name": "",
          "type": "bool"
        }
      ],
      "stateMutability": "view",
      "type": "function"
    },
    {
      "inputs": [
        {
          "components": [
            {
              "internalType": "address",
              "name": "outbound_tkn",
              "type": "address"
            },
            {
              "internalType": "address",
              "name": "inbound_tkn",
              "type": "address"
            },
            {
              "internalType": "uint256",
              "name": "offerId",
              "type": "uint256"
            },
            {
              "internalType": "t",
              "name": "offer",
              "type": "uint256"
            },
            {
              "internalType": "uint256",
              "name": "wants",
              "type": "uint256"
            },
            {
              "internalType": "uint256",
              "name": "gives",
              "type": "uint256"
            },
            {
              "internalType": "t",
              "name": "offerDetail",
              "type": "uint256"
            },
            {
              "internalType": "t",
              "name": "global",
              "type": "uint256"
            },
            {
              "internalType": "t",
              "name": "local",
              "type": "uint256"
            }
          ],
          "internalType": "struct MgvLib.SingleOrder",
          "name": "order",
          "type": "tuple"
        }
      ],
      "name": "makerExecute",
      "outputs": [
        {
          "internalType": "bytes32",
          "name": "ret",
          "type": "bytes32"
        }
      ],
      "stateMutability": "nonpayable",
      "type": "function"
    },
    {
      "inputs": [
        {
          "components": [
            {
              "internalType": "address",
              "name": "outbound_tkn",
              "type": "address"
            },
            {
              "internalType": "address",
              "name": "inbound_tkn",
              "type": "address"
            },
            {
              "internalType": "uint256",
              "name": "offerId",
              "type": "uint256"
            },
            {
              "internalType": "t",
              "name": "offer",
              "type": "uint256"
            },
            {
              "internalType": "uint256",
              "name": "wants",
              "type": "uint256"
            },
            {
              "internalType": "uint256",
              "name": "gives",
              "type": "uint256"
            },
            {
              "internalType": "t",
              "name": "offerDetail",
              "type": "uint256"
            },
            {
              "internalType": "t",
              "name": "global",
              "type": "uint256"
            },
            {
              "internalType": "t",
              "name": "local",
              "type": "uint256"
            }
          ],
          "internalType": "struct MgvLib.SingleOrder",
          "name": "order",
          "type": "tuple"
        },
        {
          "components": [
            {
              "internalType": "bytes32",
              "name": "makerData",
              "type": "bytes32"
            },
            {
              "internalType": "bytes32",
              "name": "mgvData",
              "type": "bytes32"
            }
          ],
          "internalType": "struct MgvLib.OrderResult",
          "name": "result",
          "type": "tuple"
        }
      ],
      "name": "makerPosthook",
      "outputs": [],
      "stateMutability": "nonpayable",
      "type": "function"
    },
    {
      "inputs": [
        {
          "components": [
            {
              "internalType": "contract IERC20",
              "name": "outbound_tkn",
              "type": "address"
            },
            {
              "internalType": "contract IERC20",
              "name": "inbound_tkn",
              "type": "address"
            },
            {
              "internalType": "uint256",
              "name": "wants",
              "type": "uint256"
            },
            {
              "internalType": "uint256",
              "name": "gives",
              "type": "uint256"
            },
            {
              "internalType": "uint256",
              "name": "gasreq",
              "type": "uint256"
            },
            {
              "internalType": "uint256",
              "name": "gasprice",
              "type": "uint256"
            },
            {
              "internalType": "uint256",
              "name": "pivotId",
              "type": "uint256"
            },
            {
              "internalType": "uint256",
              "name": "offerId",
              "type": "uint256"
            }
          ],
          "internalType": "struct IOfferLogic.MakerOrder",
          "name": "mko",
          "type": "tuple"
        }
      ],
      "name": "newOffer",
      "outputs": [
        {
          "internalType": "uint256",
          "name": "",
          "type": "uint256"
        }
      ],
      "stateMutability": "payable",
      "type": "function"
    },
    {
      "inputs": [],
      "name": "ofr_gasreq",
      "outputs": [
        {
          "internalType": "uint256",
          "name": "",
          "type": "uint256"
        }
      ],
      "stateMutability": "view",
      "type": "function"
    },
    {
      "inputs": [],
      "name": "reserve",
      "outputs": [
        {
          "internalType": "address",
          "name": "",
          "type": "address"
        }
      ],
      "stateMutability": "view",
      "type": "function"
    },
    {
      "inputs": [
        {
          "internalType": "contract IERC20",
          "name": "outbound_tkn",
          "type": "address"
        },
        {
          "internalType": "contract IERC20",
          "name": "inbound_tkn",
          "type": "address"
        },
        {
          "internalType": "uint256",
          "name": "offerId",
          "type": "uint256"
        },
        {
          "internalType": "bool",
          "name": "deprovision",
          "type": "bool"
        }
      ],
      "name": "retractOffer",
      "outputs": [
        {
          "internalType": "uint256",
          "name": "",
          "type": "uint256"
        }
      ],
      "stateMutability": "nonpayable",
      "type": "function"
    },
    {
      "inputs": [],
      "name": "router",
      "outputs": [
        {
          "internalType": "contract AbstractRouter",
          "name": "",
          "type": "address"
        }
      ],
      "stateMutability": "view",
      "type": "function"
    },
    {
      "inputs": [
        {
          "internalType": "address",
          "name": "_admin",
          "type": "address"
        }
      ],
      "name": "setAdmin",
      "outputs": [],
      "stateMutability": "nonpayable",
      "type": "function"
    },
    {
      "inputs": [
        {
          "internalType": "uint256",
          "name": "gasreq",
          "type": "uint256"
        }
      ],
      "name": "set_gasreq",
      "outputs": [],
      "stateMutability": "nonpayable",
      "type": "function"
    },
    {
      "inputs": [
        {
          "internalType": "address",
          "name": "_reserve",
          "type": "address"
        }
      ],
      "name": "set_reserve",
      "outputs": [],
      "stateMutability": "nonpayable",
      "type": "function"
    },
    {
      "inputs": [
        {
          "internalType": "contract AbstractRouter",
          "name": "router_",
          "type": "address"
        }
      ],
      "name": "set_router",
      "outputs": [],
      "stateMutability": "nonpayable",
      "type": "function"
    },
    {
      "inputs": [
        {
          "internalType": "contract IERC20",
          "name": "token",
          "type": "address"
        }
      ],
      "name": "tokenBalance",
      "outputs": [
        {
          "internalType": "uint256",
          "name": "",
          "type": "uint256"
        }
      ],
      "stateMutability": "view",
      "type": "function"
    },
    {
      "inputs": [
        {
          "components": [
            {
              "internalType": "contract IERC20",
              "name": "outbound_tkn",
              "type": "address"
            },
            {
              "internalType": "contract IERC20",
              "name": "inbound_tkn",
              "type": "address"
            },
            {
              "internalType": "uint256",
              "name": "wants",
              "type": "uint256"
            },
            {
              "internalType": "uint256",
              "name": "gives",
              "type": "uint256"
            },
            {
              "internalType": "uint256",
              "name": "gasreq",
              "type": "uint256"
            },
            {
              "internalType": "uint256",
              "name": "gasprice",
              "type": "uint256"
            },
            {
              "internalType": "uint256",
              "name": "pivotId",
              "type": "uint256"
            },
            {
              "internalType": "uint256",
              "name": "offerId",
              "type": "uint256"
            }
          ],
          "internalType": "struct IOfferLogic.MakerOrder",
          "name": "mko",
          "type": "tuple"
        }
      ],
      "name": "updateOffer",
      "outputs": [],
      "stateMutability": "payable",
      "type": "function"
    },
    {
      "inputs": [
        {
          "internalType": "uint256",
          "name": "amount",
          "type": "uint256"
        },
        {
          "internalType": "address",
          "name": "receiver",
          "type": "address"
        }
      ],
      "name": "withdrawFromMangrove",
      "outputs": [],
      "stateMutability": "nonpayable",
      "type": "function"
    },
    {
      "inputs": [
        {
          "internalType": "contract IERC20",
          "name": "token",
          "type": "address"
        },
        {
          "internalType": "address",
          "name": "receiver",
          "type": "address"
        },
        {
          "internalType": "uint256",
          "name": "amount",
          "type": "uint256"
        }
      ],
      "name": "withdrawToken",
      "outputs": [
        {
          "internalType": "bool",
          "name": "success",
          "type": "bool"
        }
      ],
      "stateMutability": "nonpayable",
      "type": "function"
    },
    {
      "stateMutability": "payable",
      "type": "receive"
    }
  ],
  "bytecode": {
    "object": "0x60a06040523480156200001157600080fd5b5060405162006d4b38038062006d4b8339810160408190526200003491620006f4565b8261753083600060026040516200004b90620006cd565b6001600160a01b03909316835260208301919091526040820152606001604051809103906000f08015801562000085573d6000803e3d6000fd5b5082828282823380620000df5760405162461bcd60e51b815260206004820152601860248201527f616363657373436f6e74726f6c6c65642f307841646d696e000000000000000060448201526064015b60405180910390fd5b80620000f56200026160201b620019db1760201c565b80546001600160a01b0319166001600160a01b03929092169190911790555062ffffff811681146200016a5760405162461bcd60e51b815260206004820152601b60248201527f4d616e67726f76654f666665722f676173726571546f6f4869676800000000006044820152606401620000d6565b6001600160a01b038216608052806200018e62000285602090811b620019ff17901c565b5550506001600160a01b038116620001b157620001ab30620002a9565b620001c7565b620001bc81620002a9565b620001c781620003b2565b505050505050620001dd6200054b60201b60201c565b604051633825b60160e11b81526001600160a01b038381166004830152919091169063704b6c0290602401600060405180830381600087803b1580156200022357600080fd5b505af115801562000238573d6000803e3d6000fd5b505050506001600160a01b038116331462000258576200025881620005ba565b50505062000748565b7f7d382ebca3e46505071795e192d28166a3d4bd0685585591bc6c5b8df6769fd290565b7fae7e31c3220e851db9f204a28b279dfe52b973600b0a456991089c220ae7222490565b620002b362000683565b6001600160a01b0316336001600160a01b03161480620002e657506080516001600160a01b0316336001600160a01b0316145b620003235760405162461bcd60e51b8152602060048201526018602482015260008051602062006d2b8339815191526044820152606401620000d6565b6001600160a01b0381166200037b5760405162461bcd60e51b815260206004820152601460248201527f53696e676c65557365722f3078526573657276650000000000000000000000006044820152606401620000d6565b8062000391620006a960201b62001a231760201c565b80546001600160a01b0319166001600160a01b039290921691909117905550565b620003bc62000683565b6001600160a01b0316336001600160a01b03161480620003ef57506080516001600160a01b0316336001600160a01b0316145b6200042c5760405162461bcd60e51b8152602060048201526018602482015260008051602062006d2b8339815191526044820152606401620000d6565b6001600160a01b038116620004845760405162461bcd60e51b815260206004820152601c60248201527f6d67764f666665722f7365745f726f757465722f3078526f75746572000000006044820152606401620000d6565b806200049a6200028560201b620019ff1760201c565b60010180546001600160a01b0319166001600160a01b039283161790556040516381bac14f60e01b8152306004820152908216906381bac14f90602401600060405180830381600087803b158015620004f257600080fd5b505af115801562000507573d6000803e3d6000fd5b50506040516001600160a01b03841681527f6de4326a8b9054d72d9dbab97d27bc4edffadee7d966f5af9cc4eafdaf8e54559250602001905060405180910390a150565b600080620005636200028560201b620019ff1760201c565b600101546001600160a01b0316905080620005b55760405162461bcd60e51b815260206004820152601160248201527036b3bb27b33332b917983c2937baba32b960791b6044820152606401620000d6565b919050565b620005c462000683565b6001600160a01b0316336001600160a01b031614620006155760405162461bcd60e51b8152602060048201526018602482015260008051602062006d2b8339815191526044820152606401620000d6565b6001600160a01b0381166200066d5760405162461bcd60e51b815260206004820152601860248201527f416363657373436f6e74726f6c6c65642f307841646d696e00000000000000006044820152606401620000d6565b80620003916200026160201b620019db1760201c565b60006200069a6200026160201b620019db1760201c565b546001600160a01b0316919050565b7f7bccd2960a07f28b1420615e9ead32d6e77e21d42f4a6c1a1fe785dae226653290565b613f0f8062002e1c83390190565b6001600160a01b0381168114620006f157600080fd5b50565b6000806000606084860312156200070a57600080fd5b83516200071781620006db565b60208501519093506200072a81620006db565b60408501519092506200073d81620006db565b809150509250925092565b608051612625620007f76000396000818161026c015281816105800152818161064e0152818161070c015281816107a201528181610893015281816109a701528181610b8601528181610be201528181610c7401528181610ece01528181610f4201528181610fe50152818161103a015281816111e601528181611341015281816113de015281816115540152818161176a0152818161190f01528181611b7e0152611cf301526126256000f3fe60806040526004361061012e5760003560e01c8063ad97db1b116100ab578063e4c34f841161006f578063e4c34f8414610330578063eedc966a14610350578063f259cd2714610370578063f851a44014610390578063f887ea40146103a5578063fc488a38146103ba57600080fd5b8063ad97db1b146102a6578063aefe8403146102c6578063cd3293de146102e6578063d1baa1ef146102fb578063db11851e1461031057600080fd5b80636c49c32c116100f25780636c49c32c146101e5578063704b6c02146102055780637144df241461022557806384b627f91461024557806399fa5e2d1461025a57600080fd5b806301e336671461013a57806310aded601461016f5780633d3d130d146101845780633d77fcde146101a45780635486c95f146101c457600080fd5b3661013557005b600080fd5b34801561014657600080fd5b5061015a610155366004612164565b6103da565b60405190151581526020015b60405180910390f35b61018261017d3660046121a5565b610546565b005b34801561019057600080fd5b5061018261019f366004612264565b61064c565b3480156101b057600080fd5b506101826101bf3660046122a7565b610775565b6101d76101d23660046121a5565b610857565b604051908152602001610166565b3480156101f157600080fd5b506101d76102003660046122c4565b6109a3565b34801561021157600080fd5b506101826102203660046122a7565b610ac2565b34801561023157600080fd5b506101826102403660046122e1565b610b59565b34801561025157600080fd5b5061015a610e80565b34801561026657600080fd5b5061028e7f000000000000000000000000000000000000000000000000000000000000000081565b6040516001600160a01b039091168152602001610166565b3480156102b257600080fd5b506101d76102c136600461231f565b610e9f565b3480156102d257600080fd5b506101826102e1366004612372565b610fb8565b3480156102f257600080fd5b5061028e611102565b34801561030757600080fd5b506101d761111b565b34801561031c57600080fd5b5061018261032b3660046122a7565b6111b9565b34801561033c57600080fd5b506101d761034b36600461239e565b611333565b34801561035c57600080fd5b506101d761036b3660046122a7565b6115f6565b34801561037c57600080fd5b5061018261038b3660046122a7565b61173d565b34801561039c57600080fd5b5061028e61187d565b3480156103b157600080fd5b5061028e611887565b3480156103c657600080fd5b506101826103d53660046123ef565b6118e2565b60006103e461187d565b6001600160a01b0316336001600160a01b03161461041d5760405162461bcd60e51b815260040161041490612408565b60405180910390fd5b6001600160a01b03831661047f5760405162461bcd60e51b815260206004820152602360248201527f53696e676c65557365722f7769746864726177546f6b656e2f307852656365696044820152623b32b960e91b6064820152608401610414565b610487610e80565b61049d57610496848484611a47565b905061053f565b6104a5611887565b6001600160a01b03166321754d9e856104bc611102565b6040516001600160e01b031960e085901b1681526001600160a01b03928316600482015290821660248201529086166044820152606481018590526084016020604051808303816000875af1158015610519573d6000803e3d6000fd5b505050506040513d601f19601f8201168201806040525081019061053d919061243f565b505b9392505050565b61054e61187d565b6001600160a01b0316336001600160a01b03161461057e5760405162461bcd60e51b815260040161041490612408565b7f00000000000000000000000000000000000000000000000000000000000000006001600160a01b0316636a4f769134836000015184602001518560400151866060015162ffffff80168860800151116105dc5787608001516105e4565b6105e461111b565b8860a001518960c001518a60e001516040518a63ffffffff1660e01b815260040161061698979695949392919061245c565b6000604051808303818588803b15801561062f57600080fd5b505af1158015610643573d6000803e3d6000fd5b50505050505b50565b7f00000000000000000000000000000000000000000000000000000000000000006001600160a01b038116158061068b5750336001600160a01b038216145b6106a75760405162461bcd60e51b815260040161041490612408565b81602001356f6d67762f74726164655375636365737360801b036106d4576106ce83611b3d565b50505050565b604083018035906106e890602086016122a7565b6001600160a01b03166106fe60208601866122a7565b604080516001600160a01b037f0000000000000000000000000000000000000000000000000000000000000000811682528735602083015292909216917f736a3993b9f8b1c5603896c76376792887f376b1fe7fc981e09a16530bf1e4e0910160405180910390a46106ce8383611d72565b505050565b61077d61187d565b6001600160a01b0316336001600160a01b031614806107c45750336001600160a01b037f000000000000000000000000000000000000000000000000000000000000000016145b6107e05760405162461bcd60e51b815260040161041490612408565b6001600160a01b03811661082d5760405162461bcd60e51b815260206004820152601460248201527353696e676c65557365722f30785265736572766560601b6044820152606401610414565b80610836611a23565b80546001600160a01b0319166001600160a01b039290921691909117905550565b600061086161187d565b6001600160a01b0316336001600160a01b0316146108915760405162461bcd60e51b815260040161041490612408565b7f00000000000000000000000000000000000000000000000000000000000000006001600160a01b03166349f6d2dc34846000015185602001518660400151876060015162ffffff8016896080015110156108f05788608001516108f8565b6108f861111b565b60a08a015160c08b01516040516001600160e01b031960e08b901b1681526001600160a01b03978816600482015296909516602487015260448601939093526064850191909152608484015260a483015260c482015260e40160206040518083038185885af115801561096f573d6000803e3d6000fd5b50505050506040513d601f19601f8201168201806040525081019061099491906124a0565b60e0830181905290505b919050565b60007f00000000000000000000000000000000000000000000000000000000000000006001600160a01b03811615806109e45750336001600160a01b038216145b610a005760405162461bcd60e51b815260040161041490612408565b6000610a108460a0013585611d7b565b1115610a5e5760405162461bcd60e51b815260206004820152601860248201527f6d67764f666665722f61626f72742f7075744661696c656400000000000000006044820152606401610414565b6000610a6e846080013585611d9f565b1115610abc5760405162461bcd60e51b815260206004820152601860248201527f6d67764f666665722f61626f72742f6765744661696c656400000000000000006044820152606401610414565b50919050565b610aca61187d565b6001600160a01b0316336001600160a01b031614610afa5760405162461bcd60e51b815260040161041490612408565b6001600160a01b038116610b505760405162461bcd60e51b815260206004820152601860248201527f416363657373436f6e74726f6c6c65642f307841646d696e00000000000000006044820152606401610414565b806108366119db565b610b6161187d565b6001600160a01b0316336001600160a01b03161480610ba85750336001600160a01b037f000000000000000000000000000000000000000000000000000000000000000016145b610bc45760405162461bcd60e51b815260040161041490612408565b6000198203610c5e576040516370a0823160e01b81523060048201527f00000000000000000000000000000000000000000000000000000000000000006001600160a01b0316906370a0823190602401602060405180830381865afa158015610c31573d6000803e3d6000fd5b505050506040513d601f19601f82011682018060405250810190610c5591906124a0565b91508115610e7c575b604051632e1a7d4d60e01b8152600481018390527f00000000000000000000000000000000000000000000000000000000000000006001600160a01b031690632e1a7d4d906024016020604051808303816000875af1158015610cc5573d6000803e3d6000fd5b505050506040513d601f19601f82011682018060405250810190610ce9919061243f565b610d435760405162461bcd60e51b815260206004820152602560248201527f6d67764f666665722f776974686472617746726f6d4d67762f776974686472616044820152641dd1985a5b60da1b6064820152608401610414565b610d4b610e80565b15610dc857610d58611887565b604051631af82a7560e31b81526001600160a01b038381166004830152919091169063d7c153a890849060240160206040518083038185885af1158015610da3573d6000803e3d6000fd5b50505050506040513d601f19601f82011682018060405250810190610770919061243f565b6000816001600160a01b03168360405160006040518083038185875af1925050503d8060008114610e15576040519150601f19603f3d011682016040523d82523d6000602084013e610e1a565b606091505b50509050806107705760405162461bcd60e51b815260206004820152602860248201527f6d67764f666665722f776974686472617746726f6d4d67762f70617961626c6560448201526710d85b1b11985a5b60c21b6064820152608401610414565b5050565b600080610e8b6119ff565b600101546001600160a01b03161415919050565b6000610ea961187d565b6001600160a01b0316336001600160a01b03161480610ef05750336001600160a01b037f000000000000000000000000000000000000000000000000000000000000000016145b610f0c5760405162461bcd60e51b815260040161041490612408565b60405163ad97db1b60e01b81526001600160a01b03868116600483015285811660248301526044820185905283151560648301527f0000000000000000000000000000000000000000000000000000000000000000169063ad97db1b906084016020604051808303816000875af1158015610f8b573d6000803e3d6000fd5b505050506040513d601f19601f82011682018060405250810190610faf91906124a0565b95945050505050565b610fc061187d565b6001600160a01b0316336001600160a01b031614806110075750336001600160a01b037f000000000000000000000000000000000000000000000000000000000000000016145b6110235760405162461bcd60e51b815260040161041490612408565b60405163095ea7b360e01b81526001600160a01b037f0000000000000000000000000000000000000000000000000000000000000000811660048301526024820183905283169063095ea7b3906044016020604051808303816000875af1158015611092573d6000803e3d6000fd5b505050506040513d601f19601f820116820180604052508101906110b6919061243f565b610e7c5760405162461bcd60e51b815260206004820152601d60248201527f6d67764f666665722f617070726f76654d616e67726f76652f4661696c0000006044820152606401610414565b600061110c611a23565b546001600160a01b0316919050565b6000611125610e80565b156111ab57611132611887565b6001600160a01b0316630417ffda6040518163ffffffff1660e01b8152600401602060405180830381865afa15801561116f573d6000803e3d6000fd5b505050506040513d601f19601f8201168201806040525081019061119391906124a0565b61119b6119ff565b546111a691906124cf565b905090565b6111b36119ff565b54919050565b6111c161187d565b6001600160a01b0316336001600160a01b031614806112085750336001600160a01b037f000000000000000000000000000000000000000000000000000000000000000016145b6112245760405162461bcd60e51b815260040161041490612408565b6001600160a01b03811661127a5760405162461bcd60e51b815260206004820152601c60248201527f6d67764f666665722f7365745f726f757465722f3078526f75746572000000006044820152606401610414565b806112836119ff565b60010180546001600160a01b0319166001600160a01b039283161790556040516381bac14f60e01b8152306004820152908216906381bac14f90602401600060405180830381600087803b1580156112da57600080fd5b505af11580156112ee573d6000803e3d6000fd5b50506040516001600160a01b03841681527f6de4326a8b9054d72d9dbab97d27bc4edffadee7d966f5af9cc4eafdaf8e5455925060200190505b60405180910390a150565b600080806001600160a01b037f00000000000000000000000000000000000000000000000000000000000000001663cbf75c9a89896040516001600160e01b031960e085901b1681526001600160a01b039283166004820152911660248201526044016040805180830381865afa1580156113b2573d6000803e3d6000fd5b505050506040513d601f19601f820116820180604052508101906113d691906124e7565b9150915060007f00000000000000000000000000000000000000000000000000000000000000006001600160a01b0316635722647b6114128b90565b8a6040516001600160e01b031960e085901b1681526001600160a01b0392831660048201529116602482015260448101889052606401602060405180830381865afa158015611465573d6000803e3d6000fd5b505050506040513d601f19601f8201168201806040525081019061148991906124a0565b9050600086604085901c61ffff1611156114ac575061ffff604084901c166114af565b50855b62ffffff88106114c4576114c161111b565b97505b6000816114da62ffffff606087901c168b6124cf565b6114e4919061250b565b6114f290633b9aca0061250b565b9050600061ffff602085901c1661151962ffffff603087901c811690604888901c166124cf565b611523919061250b565b61153190633b9aca0061250b565b6040516370a0823160e01b81523060048201529091506000906001600160a01b037f000000000000000000000000000000000000000000000000000000000000000016906370a0823190602401602060405180830381865afa15801561159b573d6000803e3d6000fd5b505050506040513d601f19601f820116820180604052508101906115bf91906124a0565b6115c990836124cf565b9050828110156115e2576115dd818461252a565b6115e5565b60005b9d9c50505050505050505050505050565b6000806116016119ff565b600101546001600160a01b03908116915060009084166370a08231611624611102565b6040516001600160e01b031960e084901b1681526001600160a01b039091166004820152602401602060405180830381865afa158015611668573d6000803e3d6000fd5b505050506040513d601f19601f8201168201806040525081019061168c91906124a0565b90506001600160a01b0382161561173357816001600160a01b03166305684fde856116b5611102565b6040516001600160e01b031960e085901b1681526001600160a01b03928316600482015291166024820152604401602060405180830381865afa158015611700573d6000803e3d6000fd5b505050506040513d601f19601f8201168201806040525081019061172491906124a0565b61172e90826124cf565b611735565b805b949350505050565b61174561187d565b6001600160a01b0316336001600160a01b0316148061178c5750336001600160a01b037f000000000000000000000000000000000000000000000000000000000000000016145b6117a85760405162461bcd60e51b815260040161041490612408565b806001600160a01b031663095ea7b36117bf611887565b6040516001600160e01b031960e084901b1681526001600160a01b03909116600482015260001960248201526044016020604051808303816000875af115801561180d573d6000803e3d6000fd5b505050506040513d601f19601f82011682018060405250810190611831919061243f565b6106495760405162461bcd60e51b815260206004820152601b60248201527f6d67764f666665722f617070726f7665526f757465722f4661696c00000000006044820152606401610414565b600061110c6119db565b6000806118926119ff565b600101546001600160a01b031690508061099e5760405162461bcd60e51b815260206004820152601160248201527036b3bb27b33332b917983c2937baba32b960791b6044820152606401610414565b6118ea61187d565b6001600160a01b0316336001600160a01b031614806119315750336001600160a01b037f000000000000000000000000000000000000000000000000000000000000000016145b61194d5760405162461bcd60e51b815260040161041490612408565b808162ffffff16146119a15760405162461bcd60e51b815260206004820152601860248201527f6d67764f666665722f6761737265712f6f766572666c6f7700000000000000006044820152606401610414565b806119aa6119ff565b556040518181527fafef3ad374c0b972e3c793be825735801fa05cc4c67157d98d9a111b4027988d90602001611328565b7f7d382ebca3e46505071795e192d28166a3d4bd0685585591bc6c5b8df6769fd290565b7fae7e31c3220e851db9f204a28b279dfe52b973600b0a456991089c220ae7222490565b7f7bccd2960a07f28b1420615e9ead32d6e77e21d42f4a6c1a1fe785dae226653290565b6000811580611a5e57506001600160a01b03831630145b15611a6b5750600161053f565b604080516001600160a01b038581166024830152604480830186905283518084039091018152606490920183526020820180516001600160e01b031663a9059cbb60e01b1790529151600092839290881691611ac79190612541565b6000604051808303816000865af19150503d8060008114611b04576040519150601f19603f3d011682016040523d82523d6000602084013e611b09565b606091505b5091509150818015611b33575080511580611b33575080806020019051810190611b33919061243f565b9695505050505050565b6000611b4882611e6b565b506000611b5483611f1c565b905080600003611b675750600192915050565b6000611b7284611f41565b90506001600160a01b037f000000000000000000000000000000000000000000000000000000000000000016636a4f7691611bb060208701876122a7565b611bc060408801602089016122a7565b848660c08a013560481c62ffffff1660c08b013560201c61ffff1660608c013560c01c63ffffffff168c604001356040518963ffffffff1660e01b8152600401611c1198979695949392919061245c565b600060405180830381600087803b158015611c2b57600080fd5b505af1925050508015611c3c575060015b611d68573d808015611c6a576040519150601f19603f3d011682016040523d82523d6000602084013e611c6f565b606091505b50805160208201207fc5fc8c2459087ad4f0e957e465df485864a3b1a379c2653ffe7c554981ede67001611d5d5760408501803590611cb190602088016122a7565b6001600160a01b0316611cc760208801886122a7565b6001600160a01b03167f736a3993b9f8b1c5603896c76376792887f376b1fe7fc981e09a16530bf1e4e07f0000000000000000000000000000000000000000000000000000000000000000604051611d5491906001600160a01b039190911681527f50657273697374656e742f686f6f6b2f6f75744f6650726f766973696f6e0000602082015260400190565b60405180910390a45b506000949350505050565b5060019392505050565b60015b92915050565b6000611d96611d9060408401602085016122a7565b84611f63565b50600092915050565b600080611dba611db260208501856122a7565b85600061200a565b9050838110611dcd576000915050611d75565b6000611ddc60208501856122a7565b6040516370a0823160e01b81523060048201526001600160a01b0391909116906370a0823190602401602060405180830381865afa158015611e22573d6000803e3d6000fd5b505050506040513d601f19601f82011682018060405250810190611e4691906124a0565b905084811015611e5f57611e5a818661252a565b611e62565b60005b92505050611d75565b60408051600280825260608201835260009283929190602083019080368337019050509050611e9d60208401846122a7565b81600081518110611eb057611eb061257c565b6001600160a01b03909216602092830291909101820152611ed790604085019085016122a7565b81600181518110611eea57611eea61257c565b60200260200101906001600160a01b031690816001600160a01b031681525050611f13816120d3565b50600192915050565b600060808201356bffffffffffffffffffffffff6060840135165b611d75919061252a565b600060a0820135606080840135901c6bffffffffffffffffffffffff16611f37565b6000611f6d6119ff565b600101546001600160a01b0316905080611f8657505050565b806001600160a01b03166326e8eda284611f9e611102565b6040516001600160e01b031960e085901b1681526001600160a01b0392831660048201529116602482015260448101859052606401600060405180830381600087803b158015611fed57600080fd5b505af1158015612001573d6000803e3d6000fd5b50505050505050565b6000806120156119ff565b600101546001600160a01b031690508061203357600091505061053f565b806001600160a01b031663333dbb0d8661204b611102565b6040516001600160e01b031960e085901b1681526001600160a01b039283166004820152911660248201526044810187905285151560648201526084016020604051808303816000875af11580156120a7573d6000803e3d6000fd5b505050506040513d601f19601f820116820180604052508101906120cb91906124a0565b91505061053f565b60006120dd6119ff565b600101546001600160a01b03169050806120f5575050565b806001600160a01b031663f850a81c8361210d611102565b6040518363ffffffff1660e01b815260040161212a929190612592565b600060405180830381600087803b15801561062f57600080fd5b6001600160a01b038116811461064957600080fd5b803561099e81612144565b60008060006060848603121561217957600080fd5b833561218481612144565b9250602084013561219481612144565b929592945050506040919091013590565b60006101008083850312156121b957600080fd5b6040519081019067ffffffffffffffff821181831017156121ea57634e487b7160e01b600052604160045260246000fd5b816040526121f784612159565b815261220560208501612159565b602082015260408401356040820152606084013560608201526080840135608082015260a084013560a082015260c084013560c082015260e084013560e0820152809250505092915050565b60006101208284031215610abc57600080fd5b60008082840361016081121561227957600080fd5b6122838585612251565b9250604061011f198201121561229857600080fd5b50610120830190509250929050565b6000602082840312156122b957600080fd5b813561053f81612144565b600061012082840312156122d757600080fd5b61053f8383612251565b600080604083850312156122f457600080fd5b82359150602083013561230681612144565b809150509250929050565b801515811461064957600080fd5b6000806000806080858703121561233557600080fd5b843561234081612144565b9350602085013561235081612144565b925060408501359150606085013561236781612311565b939692955090935050565b6000806040838503121561238557600080fd5b823561239081612144565b946020939093013593505050565b600080600080600060a086880312156123b657600080fd5b85356123c181612144565b945060208601356123d181612144565b94979496505050506040830135926060810135926080909101359150565b60006020828403121561240157600080fd5b5035919050565b60208082526018908201527f416363657373436f6e74726f6c6c65642f496e76616c69640000000000000000604082015260600190565b60006020828403121561245157600080fd5b815161053f81612311565b6001600160a01b03988916815296909716602087015260408601949094526060850192909252608084015260a083015260c082015260e08101919091526101000190565b6000602082840312156124b257600080fd5b5051919050565b634e487b7160e01b600052601160045260246000fd5b600082198211156124e2576124e26124b9565b500190565b600080604083850312156124fa57600080fd5b505080516020909101519092909150565b6000816000190483118215151615612525576125256124b9565b500290565b60008282101561253c5761253c6124b9565b500390565b6000825160005b818110156125625760208186018101518583015201612548565b81811115612571576000828501525b509190910192915050565b634e487b7160e01b600052603260045260246000fd5b604080825283519082018190526000906020906060840190828701845b828110156125d45781516001600160a01b0316845292840192908401906001016125af565b5050506001600160a01b03949094169201919091525091905056fea2646970667358221220d3638e62744054769058e6318bc5a5bc3b4d4148cf21fbc841d1a27a560f8e9164736f6c634300080e00336101206040523480156200001257600080fd5b5060405162003f0f38038062003f0f8339810160408190526200003591620003a3565b828282828282620aae603380620000935760405162461bcd60e51b815260206004820152601860248201527f616363657373436f6e74726f6c6c65642f307841646d696e000000000000000060448201526064015b60405180910390fd5b80620000a96200035460201b620011fe1760201c565b80546001600160a01b0319166001600160a01b03929092169190911790555062ffffff811681146200011e5760405162461bcd60e51b815260206004820152601e60248201527f4162737472616374526f757465722f6f76657268656164546f6f48696768000060448201526064016200008a565b60015561ffff82166101005260e08190526040516321f8a72160e01b81526b50524943455f4f5241434c4560a01b60048201526000906001600160a01b038516906321f8a72190602401602060405180830381865afa15801562000186573d6000803e3d6000fd5b505050506040513d601f19601f82011682018060405250810190620001ac9190620003db565b90506000846001600160a01b031663026b1d5f6040518163ffffffff1660e01b8152600401602060405180830381865afa158015620001ef573d6000803e3d6000fd5b505050506040513d601f19601f82011682018060405250810190620002159190620003db565b90506001600160a01b0382166200026f5760405162461bcd60e51b815260206004820152601860248201527f416176654d6f64756c652f307850726963654f7261636c65000000000000000060448201526064016200008a565b6001600160a01b038116620002bb5760405162461bcd60e51b815260206004820152601160248201527010585d99535bd91d5b194bcc1e141bdbdb607a1b60448201526064016200008a565b6001600160a01b0380821660a052821660c05260405181908390620002e09062000378565b6001600160a01b03928316815291166020820152604001604051809103906000f08015801562000314573d6000803e3d6000fd5b506001600160a01b031660805250506001805462055730975090955060009450620003459350869250905062000400565b90915550620004279350505050565b7f7d382ebca3e46505071795e192d28166a3d4bd0685585591bc6c5b8df6769fd290565b61140f8062002b0083390190565b80516001600160a01b03811681146200039e57600080fd5b919050565b600080600060608486031215620003b957600080fd5b620003c48462000386565b925060208401519150604084015190509250925092565b600060208284031215620003ee57600080fd5b620003f98262000386565b9392505050565b600082198211156200042257634e487b7160e01b600052601160045260246000fd5b500190565b60805160a05160c05160e05161010051612608620004f860003960008181610331015281816116260152818161182f01528181611a160152611b410152600081816104b0015281816109570152818161153d01528181611806015281816119f00152611b18015260006103a801526000818161045c015281816105f20152818161099c01528181610a3101528181610dfe0152818161156b0152818161164d015281816116c60152818161185e01526119bb015260008181610ba901528181611a920152611bd001526126086000f3fe60806040526004361061019c5760003560e01c806352da17a4116100ec578063b0a02abe1161008a578063d7c153a811610064578063d7c153a814610552578063e5cd487f14610565578063f850a81c14610585578063f851a440146105a557600080fd5b8063b0a02abe146104f2578063ca34f9ec14610512578063cf5e7bd31461053257600080fd5b80637535d246116100c65780637535d2461461044a57806381bac14f1461047e57806383008bd91461049e5780638faf5531146104d257600080fd5b806352da17a4146103ea5780635a3e96181461040a578063704b6c021461042a57600080fd5b806326e8eda2116101595780633583849a116101335780633583849a1461031f578063362aecb11461036657806338013f0214610396578063492fffc7146103ca57600080fd5b806326e8eda2146102b557806332563bc7146102d7578063333dbb0d146102ff57600080fd5b80630417ffda146101a157806305684fde146101ca5780630efc8fd2146101ea5780632026ffa31461022257806321754d9e146102505780632197c31e14610280575b600080fd5b3480156101ad57600080fd5b506101b760015481565b6040519081526020015b60405180910390f35b3480156101d657600080fd5b506101b76101e5366004611c8c565b6105ba565b3480156101f657600080fd5b5061020a610205366004611cc5565b6105d0565b6040516001600160a01b0390911681526020016101c1565b34801561022e57600080fd5b5061024261023d366004611d2e565b61066b565b6040516101c1929190611d83565b34801561025c57600080fd5b5061027061026b366004611e07565b6106c7565b60405190151581526020016101c1565b34801561028c57600080fd5b506102a061029b366004611e66565b61070d565b604080519283526020830191909152016101c1565b3480156102c157600080fd5b506102d56102d0366004611eb1565b61084f565b005b3480156102e357600080fd5b506101b76102f2366004611cc5565b6001600160a01b03163190565b34801561030b57600080fd5b506101b761031a366004611ef2565b61088f565b34801561032b57600080fd5b506103537f000000000000000000000000000000000000000000000000000000000000000081565b60405161ffff90911681526020016101c1565b34801561037257600080fd5b50610270610381366004611cc5565b60006020819052908152604090205460ff1681565b3480156103a257600080fd5b5061020a7f000000000000000000000000000000000000000000000000000000000000000081565b3480156103d657600080fd5b5061020a6103e5366004611cc5565b610953565b3480156103f657600080fd5b506102d5610405366004611f45565b610aa9565b34801561041657600080fd5b506102d5610425366004611f8d565b610b55565b34801561043657600080fd5b506102d5610445366004611cc5565b610c3b565b34801561045657600080fd5b5061020a7f000000000000000000000000000000000000000000000000000000000000000081565b34801561048a57600080fd5b506102d5610499366004611cc5565b610cf3565b3480156104aa57600080fd5b506101b77f000000000000000000000000000000000000000000000000000000000000000081565b3480156104de57600080fd5b506102d56104ed366004611f45565b610d69565b3480156104fe57600080fd5b506101b761050d366004611c8c565b610dda565b34801561051e57600080fd5b506102d561052d366004611cc5565b610f71565b34801561053e57600080fd5b506102d561054d366004611cc5565b610f80565b610270610560366004611cc5565b610ff3565b34801561057157600080fd5b506102d5610580366004611f45565b611031565b34801561059157600080fd5b506102d56105a0366004611fff565b6110cb565b3480156105b157600080fd5b5061020a6111e5565b60006105c88360008461070d565b509392505050565b6040516335ea6a7560e01b81526001600160a01b0382811660048301526000917f0000000000000000000000000000000000000000000000000000000000000000909116906335ea6a75906024016101e060405180830381865afa15801561063c573d6000803e3d6000fd5b505050506040513d601f19601f820116820180604052508101906106609190612150565b610100015192915050565b6060806106766111e5565b6001600160a01b0316336001600160a01b0316146106af5760405162461bcd60e51b81526004016106a690612273565b60405180910390fd5b6106ba858585611222565b915091505b935093915050565b3360009081526020819052604081205460ff166106f65760405162461bcd60e51b81526004016106a6906122aa565b610702858585856112a6565b90505b949350505050565b6040516001600160a01b0384811660248301528315156044830152821660648201526000908190819081903090630b47d2c360e31b9063fd8c045160e01b9060840160408051601f198184030181529181526020820180516001600160e01b03166001600160e01b03199094169390931790925290516107909190602401612303565b60408051601f198184030181529181526020820180516001600160e01b03166001600160e01b03199094169390931790925290516107ce9190612336565b600060405180830381855afa9150503d8060008114610809576040519150601f19603f3d011682016040523d82523d6000602084013e61080e565b606091505b509150915081610826576108218161133c565b610845565b8080602001905181019061083a9190612352565b9350935050506106bf565b5050935093915050565b3360009081526020819052604090205460ff1661087e5760405162461bcd60e51b81526004016106a6906122aa565b61088a83833384611395565b505050565b3360009081526020819052604081205460ff166108be5760405162461bcd60e51b81526004016106a6906122aa565b6040516370a0823160e01b81523360048201526000906001600160a01b038716906370a0823190602401602060405180830381865afa158015610905573d6000803e3d6000fd5b505050506040513d601f19601f820116820180604052508101906109299190612376565b905083811061093c576000915050610705565b61094986863387876113f8565b9695505050505050565b60007f0000000000000000000000000000000000000000000000000000000000000000600114610a12576040516335ea6a7560e01b81526001600160a01b0383811660048301527f000000000000000000000000000000000000000000000000000000000000000016906335ea6a75906024016101e060405180830381865afa1580156109e4573d6000803e3d6000fd5b505050506040513d601f19601f82011682018060405250810190610a089190612150565b6101400151610aa3565b6040516335ea6a7560e01b81526001600160a01b0383811660048301527f000000000000000000000000000000000000000000000000000000000000000016906335ea6a75906024016101e060405180830381865afa158015610a79573d6000803e3d6000fd5b505050506040513d601f19601f82011682018060405250810190610a9d9190612150565b61012001515b92915050565b610ab16111e5565b6001600160a01b0316336001600160a01b031614610ae15760405162461bcd60e51b81526004016106a690612273565b610aed84828585611407565b610b435760405162461bcd60e51b815260206004820152602160248201527f41617665526f757465722f72657061792f7472616e7366657246726f6d4661696044820152601b60fa1b60648201526084016106a6565b610b4e84838561150f565b5050505050565b333014610ba45760405162461bcd60e51b815260206004820152601760248201527f416176654d6f64756c652f696e7465726e616c4f6e6c7900000000000000000060448201526064016106a6565b6000807f00000000000000000000000000000000000000000000000000000000000000006001600160a01b03168484604051610be192919061238f565b600060405180830381855af49150503d8060008114610c1c576040519150601f19603f3d011682016040523d82523d6000602084013e610c21565b606091505b509150915081610c3457610c348161133c565b3d60208201f35b610c436111e5565b6001600160a01b0316336001600160a01b031614610c735760405162461bcd60e51b81526004016106a690612273565b6001600160a01b038116610cc95760405162461bcd60e51b815260206004820152601860248201527f416363657373436f6e74726f6c6c65642f307841646d696e000000000000000060448201526064016106a6565b80610cd26111fe565b80546001600160a01b0319166001600160a01b039290921691909117905550565b610cfb6111e5565b6001600160a01b0316336001600160a01b03161480610d2957503360009081526020819052604090205460ff165b610d455760405162461bcd60e51b81526004016106a6906122aa565b6001600160a01b03166000908152602081905260409020805460ff19166001179055565b610d716111e5565b6001600160a01b0316336001600160a01b031614610da15760405162461bcd60e51b81526004016106a690612273565b610dad84828585611407565b610dc95760405162461bcd60e51b81526004016106a69061239f565b610dd48483856115e8565b50505050565b6040516335ea6a7560e01b81526001600160a01b03838116600483015260009182917f000000000000000000000000000000000000000000000000000000000000000016906335ea6a75906024016101e060405180830381865afa158015610e46573d6000803e3d6000fd5b505050506040513d601f19601f82011682018060405250810190610e6a9190612150565b6101408101516040516370a0823160e01b81526001600160a01b038681166004830152929350600092909116906370a0823190602401602060405180830381865afa158015610ebd573d6000803e3d6000fd5b505050506040513d601f19601f82011682018060405250810190610ee19190612376565b6101208301516040516370a0823160e01b81526001600160a01b038781166004830152929350600092909116906370a0823190602401602060405180830381865afa158015610f34573d6000803e3d6000fd5b505050506040513d601f19601f82011682018060405250810190610f589190612376565b905081811015610f685781610949565b95945050505050565b610f7d816000196116af565b50565b610f886111e5565b6001600160a01b0316336001600160a01b03161480610fb657503360009081526020819052604090205460ff165b610fd25760405162461bcd60e51b81526004016106a6906122aa565b6001600160a01b03166000908152602081905260409020805460ff19169055565b3360009081526020819052604081205460ff166110225760405162461bcd60e51b81526004016106a6906122aa565b610aa38234611742565b919050565b6110396111e5565b6001600160a01b0316336001600160a01b0316146110695760405162461bcd60e51b81526004016106a690612273565b6110748483856117e0565b61107f84828461188d565b610dd45760405162461bcd60e51b815260206004820152601e60248201527f41617665526f757465722f626f72726f772f7472616e736665724661696c000060448201526064016106a6565b3360009081526020819052604090205460ff166110fa5760405162461bcd60e51b81526004016106a6906122aa565b60005b82811015610dd4576000848483818110611119576111196123e1565b905060200201602081019061112e9190611cc5565b6040516370a0823160e01b81523360048201526001600160a01b0391909116906370a0823190602401602060405180830381865afa158015611174573d6000803e3d6000fd5b505050506040513d601f19601f820116820180604052508101906111989190612376565b905080156111d2576111d28585848181106111b5576111b56123e1565b90506020020160208101906111ca9190611cc5565b843384611395565b50806111dd816123f7565b9150506110fd565b60006111ef6111fe565b546001600160a01b0316919050565b7f7d382ebca3e46505071795e192d28166a3d4bd0685585591bc6c5b8df6769fd290565b606080846001600160a01b031663bf90f63a85856040518363ffffffff1660e01b815260040161125392919061241e565b6000604051808303816000875af1158015611272573d6000803e3d6000fd5b505050506040513d6000823e601f3d908101601f1916820160405261129a91908101906124f0565b90969095509350505050565b60006112bc6112b4866105d0565b853085611407565b6112d85760405162461bcd60e51b81526004016106a69061239f565b816112e4868486611985565b146113315760405162461bcd60e51b815260206004820152601d60248201527f41617665526f757465722f7769746864726177546f6b656e2f4661696c00000060448201526064016106a6565b506001949350505050565b805160000361138d5760405162461bcd60e51b815260206004820181905260248201527f416176654d6f64756c6553746f726167652f7265766572744e6f526561736f6e60448201526064016106a6565b805160208201fd5b6113a184833084611407565b6113ed5760405162461bcd60e51b815260206004820152601c60248201527f41617665526f757465722f707573682f7472616e736665724661696c0000000060448201526064016106a6565b610dd48484836119ea565b60006109498686858588611b12565b60008115806114275750826001600160a01b0316846001600160a01b0316145b1561143457506001610705565b604080516001600160a01b0386811660248301528581166044830152606480830186905283518084039091018152608490920183526020820180516001600160e01b03166323b872dd60e01b17905291516000928392908916916114989190612336565b6000604051808303816000865af19150503d80600081146114d5576040519150601f19603f3d011682016040523d82523d6000602084013e6114da565b606091505b509150915081801561150457508051158061150457508080602001905181019061150491906125b5565b979650505050505050565b600082156115de5760405163573ade8160e01b81526001600160a01b038581166004830152602482018590527f0000000000000000000000000000000000000000000000000000000000000000604483015283811660648301527f0000000000000000000000000000000000000000000000000000000000000000169063573ade81906084015b6020604051808303816000875af11580156115b5573d6000803e3d6000fd5b505050506040513d601f19601f820116820180604052508101906115d99190612376565b610705565b6000949350505050565b816000036115f557505050565b60405163617ba03760e01b81526001600160a01b03848116600483015260248201849052828116604483015261ffff7f00000000000000000000000000000000000000000000000000000000000000001660648301527f0000000000000000000000000000000000000000000000000000000000000000169063617ba037906084015b600060405180830381600087803b15801561169257600080fd5b505af11580156116a6573d6000803e3d6000fd5b50505050505050565b60405163095ea7b360e01b81526001600160a01b037f0000000000000000000000000000000000000000000000000000000000000000811660048301526024820183905283169063095ea7b3906044016020604051808303816000875af115801561171e573d6000803e3d6000fd5b505050506040513d601f19601f8201168201806040525081019061088a91906125b5565b6000826001600160a01b03168260405160006040518083038185875af1925050503d806000811461178f576040519150601f19603f3d011682016040523d82523d6000602084013e611794565b606091505b50508091505080610aa35760405162461bcd60e51b81526020600482015260166024820152751b59dd93dc99195c8bdb5bcbdc99599d5b9911985a5b60521b60448201526064016106a6565b60405163a415bcad60e01b81526001600160a01b038481166004830152602482018490527f0000000000000000000000000000000000000000000000000000000000000000604483015261ffff7f000000000000000000000000000000000000000000000000000000000000000016606483015282811660848301527f0000000000000000000000000000000000000000000000000000000000000000169063a415bcad9060a401611678565b60008115806118a457506001600160a01b03831630145b156118b15750600161197e565b604080516001600160a01b038581166024830152604480830186905283518084039091018152606490920183526020820180516001600160e01b031663a9059cbb60e01b179052915160009283929088169161190d9190612336565b6000604051808303816000865af19150503d806000811461194a576040519150601f19603f3d011682016040523d82523d6000602084013e61194f565b606091505b509150915081801561197957508051158061197957508080602001905181019061197991906125b5565b925050505b9392505050565b600082156115de57604051631a4ca37b60e21b81526001600160a01b0385811660048301526024820185905283811660448301527f000000000000000000000000000000000000000000000000000000000000000016906369328dec90606401611596565b604080517f000000000000000000000000000000000000000000000000000000000000000060248201527f000000000000000000000000000000000000000000000000000000000000000061ffff1660448201526001600160a01b038581166064830152848116608483015260a48083018590528351808403909101815260c490920183526020820180516001600160e01b03166301c77dc560e11b179052915160009283927f000000000000000000000000000000000000000000000000000000000000000090911691611abf9190612336565b600060405180830381855af49150503d8060008114611afa576040519150601f19603f3d011682016040523d82523d6000602084013e611aff565b606091505b509150915081610b4e57610b4e8161133c565b604080517f0000000000000000000000000000000000000000000000000000000000000000602482015261ffff7f00000000000000000000000000000000000000000000000000000000000000001660448201526001600160a01b038781166064830152868116608483015260a4820186905284151560c483015283811660e4808401919091528351808403909101815261010490920183526020820180516001600160e01b0316634882dc1d60e11b1790529151600092839283927f000000000000000000000000000000000000000000000000000000000000000090921691611bfd9190612336565b600060405180830381855af49150503d8060008114611c38576040519150601f19603f3d011682016040523d82523d6000602084013e611c3d565b606091505b50915091508115611c635780806020019051810190611c5c9190612376565b9250611c6c565b611c6c8161133c565b505095945050505050565b6001600160a01b0381168114610f7d57600080fd5b60008060408385031215611c9f57600080fd5b8235611caa81611c77565b91506020830135611cba81611c77565b809150509250929050565b600060208284031215611cd757600080fd5b813561197e81611c77565b60008083601f840112611cf457600080fd5b50813567ffffffffffffffff811115611d0c57600080fd5b6020830191508360208260051b8501011115611d2757600080fd5b9250929050565b600080600060408486031215611d4357600080fd5b8335611d4e81611c77565b9250602084013567ffffffffffffffff811115611d6a57600080fd5b611d7686828701611ce2565b9497909650939450505050565b604080825283519082018190526000906020906060840190828701845b82811015611dc55781516001600160a01b031684529284019290840190600101611da0565b5050508381038285015284518082528583019183019060005b81811015611dfa57835183529284019291840191600101611dde565b5090979650505050505050565b60008060008060808587031215611e1d57600080fd5b8435611e2881611c77565b93506020850135611e3881611c77565b92506040850135611e4881611c77565b9396929550929360600135925050565b8015158114610f7d57600080fd5b600080600060608486031215611e7b57600080fd5b8335611e8681611c77565b92506020840135611e9681611e58565b91506040840135611ea681611c77565b809150509250925092565b600080600060608486031215611ec657600080fd5b8335611ed181611c77565b92506020840135611ee181611c77565b929592945050506040919091013590565b60008060008060808587031215611f0857600080fd5b8435611f1381611c77565b93506020850135611f2381611c77565b9250604085013591506060850135611f3a81611e58565b939692955090935050565b60008060008060808587031215611f5b57600080fd5b8435611f6681611c77565b93506020850135611f7681611c77565b9250604085013591506060850135611f3a81611c77565b60008060208385031215611fa057600080fd5b823567ffffffffffffffff80821115611fb857600080fd5b818501915085601f830112611fcc57600080fd5b813581811115611fdb57600080fd5b866020828501011115611fed57600080fd5b60209290920196919550909350505050565b60008060006040848603121561201457600080fd5b833567ffffffffffffffff81111561202b57600080fd5b61203786828701611ce2565b9094509250506020840135611ea681611c77565b634e487b7160e01b600052604160045260246000fd5b6040516101e0810167ffffffffffffffff811182821017156120855761208561204b565b60405290565b604051601f8201601f1916810167ffffffffffffffff811182821017156120b4576120b461204b565b604052919050565b6000602082840312156120ce57600080fd5b6040516020810181811067ffffffffffffffff821117156120f1576120f161204b565b6040529151825250919050565b80516fffffffffffffffffffffffffffffffff8116811461102c57600080fd5b805164ffffffffff8116811461102c57600080fd5b805161ffff8116811461102c57600080fd5b805161102c81611c77565b60006101e0828403121561216357600080fd5b61216b612061565b61217584846120bc565b8152612183602084016120fe565b6020820152612194604084016120fe565b60408201526121a5606084016120fe565b60608201526121b6608084016120fe565b60808201526121c760a084016120fe565b60a08201526121d860c0840161211e565b60c08201526121e960e08401612133565b60e08201526101006121fc818501612145565b9082015261012061220e848201612145565b90820152610140612220848201612145565b90820152610160612232848201612145565b908201526101806122448482016120fe565b908201526101a06122568482016120fe565b908201526101c06122688482016120fe565b908201529392505050565b60208082526018908201527f416363657373436f6e74726f6c6c65642f496e76616c69640000000000000000604082015260600190565b602080825260139082015272149bdd5d195c8bdd5b985d5d1a1bdc9a5e9959606a1b604082015260600190565b60005b838110156122f25781810151838201526020016122da565b83811115610dd45750506000910152565b60208152600082518060208401526123228160408501602087016122d7565b601f01601f19169190910160400192915050565b600082516123488184602087016122d7565b9190910192915050565b6000806040838503121561236557600080fd5b505080516020909101519092909150565b60006020828403121561238857600080fd5b5051919050565b8183823760009101908152919050565b60208082526022908201527f41617665526f757465722f737570706c792f7472616e7366657246726f6d46616040820152611a5b60f21b606082015260800190565b634e487b7160e01b600052603260045260246000fd5b60006001820161241757634e487b7160e01b600052601160045260246000fd5b5060010190565b60208082528181018390526000908460408401835b8681101561246157823561244681611c77565b6001600160a01b031682529183019190830190600101612433565b509695505050505050565b600067ffffffffffffffff8211156124865761248661204b565b5060051b60200190565b600082601f8301126124a157600080fd5b815160206124b66124b18361246c565b61208b565b82815260059290921b840181019181810190868411156124d557600080fd5b8286015b8481101561246157805183529183019183016124d9565b6000806040838503121561250357600080fd5b825167ffffffffffffffff8082111561251b57600080fd5b818501915085601f83011261252f57600080fd5b8151602061253f6124b18361246c565b82815260059290921b8401810191818101908984111561255e57600080fd5b948201945b8386101561258557855161257681611c77565b82529482019490820190612563565b9188015191965090935050508082111561259e57600080fd5b506125ab85828601612490565b9150509250929050565b6000602082840312156125c757600080fd5b815161197e81611e5856fea26469706673582212205add0ee8adfdad45bf1fc0eb74dc3510032ebf0378d2850492d02322cbaad5de64736f6c634300080e003360c060405234801561001057600080fd5b5060405161140f38038061140f83398101604081905261002f9161005e565b6001600160a01b039182166080521660a052610098565b6001600160a01b038116811461005b57600080fd5b50565b6000806040838503121561007157600080fd5b825161007c81610046565b602084015190925061008d81610046565b809150509250929050565b60805160a0516113156100fa60003960008181607601526109bf01526000818160ba0152818161014f015281816102f3015281816103b40152818161046b0152818161058001528181610666015281816107de015261088c01526113156000f3fe608060405234801561001057600080fd5b50600436106100575760003560e01c8063038efb8a1461005c57806338013f02146100715780637535d246146100b55780639105b83a146100dc578063fd8c0451146100fd575b600080fd5b61006f61006a366004610d84565b610125565b005b6100987f000000000000000000000000000000000000000000000000000000000000000081565b6040516001600160a01b0390911681526020015b60405180910390f35b6100987f000000000000000000000000000000000000000000000000000000000000000081565b6100ef6100ea366004610de4565b61041b565b6040519081526020016100ac565b61011061010b366004610e5f565b610749565b604080519283526020830191909152016100ac565b8015610414576040516335ea6a7560e01b81526001600160a01b03848116600483015260009182917f000000000000000000000000000000000000000000000000000000000000000016906335ea6a75906024016101e060405180830381865afa158015610197573d6000803e3d6000fd5b505050506040513d601f19601f820116820180604052508101906101bb9190610f89565b90508660010361023b576101208101516040516370a0823160e01b81523060048201526001600160a01b03909116906370a0823190602401602060405180830381865afa158015610210573d6000803e3d6000fd5b505050506040513d601f19601f8201168201806040525081019061023491906110ac565b91506102ad565b6101408101516040516370a0823160e01b81523060048201526001600160a01b03909116906370a0823190602401602060405180830381865afa158015610286573d6000803e3d6000fd5b505050506040513d601f19601f820116820180604052508101906102aa91906110ac565b91505b8260008390036102be57508261037c565b60405163573ade8160e01b81526001600160a01b03878116600483015260248201869052604482018a905286811660648301527f0000000000000000000000000000000000000000000000000000000000000000169063573ade81906084016020604051808303816000875af1925050508015610358575060408051601f3d908101601f19168201909252610355918101906110ac565b60015b1561037c5761036781836110db565b91508160000361037a5750505050610414565b505b60405163617ba03760e01b81526001600160a01b03878116600483015260248201839052868116604483015261ffff891660648301527f0000000000000000000000000000000000000000000000000000000000000000169063617ba03790608401600060405180830381600087803b1580156103f857600080fd5b505af115801561040c573d6000803e3d6000fd5b505050505050505b5050505050565b600080600061042c88600189610749565b915091508415610448578582106104435785610445565b815b91505b6040516335ea6a7560e01b81526001600160a01b0389811660048301526104e6917f0000000000000000000000000000000000000000000000000000000000000000909116906335ea6a75906024016101e060405180830381865afa1580156104b5573d6000803e3d6000fd5b505050506040513d601f19601f820116820180604052508101906104d99190610f89565b6101000151883085610b6a565b61054c5760405162461bcd60e51b815260206004820152602c60248201527f416176654d6f64756c652f72656465656d5468656e426f72726f772f61546b6e60448201526b151c985b9cd9995c91985a5b60a21b60648201526084015b60405180910390fd5b81156105ef57604051631a4ca37b60e21b81526001600160a01b0389811660048301526024820184905285811660448301527f000000000000000000000000000000000000000000000000000000000000000016906369328dec906064016020604051808303816000875af11580156105c9573d6000803e3d6000fd5b505050506040513d601f19601f820116820180604052508101906105ed91906110ac565b505b85821015806105fc575080155b156106095750905061073e565b61061382876110db565b95508581116106225780610624565b855b60405163a415bcad60e01b81526001600160a01b038a8116600483015260248201839052604482018d905261ffff8c16606483015289811660848301529192507f00000000000000000000000000000000000000000000000000000000000000009091169063a415bcad9060a401600060405180830381600087803b1580156106ac57600080fd5b505af11580156106c0573d6000803e3d6000fd5b505050506106cf888583610c74565b61072f5760405162461bcd60e51b815260206004820152602b60248201527f416176654d6f64756c652f72656465656d5468656e426f72726f772f546b6e5460448201526a1c985b9cd9995c91985a5b60aa1b6064820152608401610543565b61073981836110f2565b925050505b979650505050505050565b6000806107776040518060800160405280600081526020016000815260200160008152602001600081525090565b6107bf60405180610100016040528060008152602001600081526020016000815260200160008152602001600081526020016000815260200160008152602001600081525090565b604051632fe4a15f60e21b81526001600160a01b0386811660048301527f0000000000000000000000000000000000000000000000000000000000000000169063bf92857c9060240160c060405180830381865afa158015610825573d6000803e3d6000fd5b505050506040513d601f19601f82011682018060405250810190610849919061110a565b60c0870152608086015260a08501526040808501919091526020840191909152908252516335ea6a7560e01b81526001600160a01b0388811660048301526000917f0000000000000000000000000000000000000000000000000000000000000000909116906335ea6a75906024016101e060405180830381865afa1580156108d6573d6000803e3d6000fd5b505050506040513d601f19601f820116820180604052508101906108fa9190610f89565b80515160ff603082901c1660408681019190915261ffff601083901c81166020808901919091529216865261010083015181516370a0823160e01b81526001600160a01b038b8116600483015292519495509116926370a08231926024808401939192918290030181865afa158015610977573d6000803e3d6000fd5b505050506040513d601f19601f8201168201806040525081019061099b91906110ac565b60e083015260405163b3596f0760e01b81526001600160a01b0389811660048301527f0000000000000000000000000000000000000000000000000000000000000000169063b3596f0790602401602060405180830381865afa158015610a06573d6000803e3d6000fd5b505050506040513d601f19601f82011682018060405250810190610a2a91906110ac565b60608401526020820151825160a084015161271091610a4891611154565b610a529190611173565b610a5c91906110db565b6060808401919091528301516020840151600091610a7991611154565b6040850151610a8990600a61127b565b8460600151610a989190611154565b610aa490612710611154565b610aae9190611173565b90508260e001518110610ac5578260e00151610ac7565b805b905087610add57945060009350610b6292505050565b835160009061271090610af09084611154565b610afa9190611173565b9050600085606001518660400151600a610b14919061127b565b8660400151610b239190611154565b610b2d9190611173565b905080821115610b495782600097509750505050505050610b62565b6000610b5583836110db565b9398509296505050505050505b935093915050565b6000811580610b8a5750826001600160a01b0316846001600160a01b0316145b15610b9757506001610c6c565b604080516001600160a01b0386811660248301528581166044830152606480830186905283518084039091018152608490920183526020820180516001600160e01b03166323b872dd60e01b1790529151600092839290891691610bfb9190611287565b6000604051808303816000865af19150503d8060008114610c38576040519150601f19603f3d011682016040523d82523d6000602084013e610c3d565b606091505b5091509150818015610c67575080511580610c67575080806020019051810190610c6791906112c2565b925050505b949350505050565b6000811580610c8b57506001600160a01b03831630145b15610c9857506001610d65565b604080516001600160a01b038581166024830152604480830186905283518084039091018152606490920183526020820180516001600160e01b031663a9059cbb60e01b1790529151600092839290881691610cf49190611287565b6000604051808303816000865af19150503d8060008114610d31576040519150601f19603f3d011682016040523d82523d6000602084013e610d36565b606091505b5091509150818015610d60575080511580610d60575080806020019051810190610d6091906112c2565b925050505b9392505050565b6001600160a01b0381168114610d8157600080fd5b50565b600080600080600060a08688031215610d9c57600080fd5b85359450602086013593506040860135610db581610d6c565b92506060860135610dc581610d6c565b949793965091946080013592915050565b8015158114610d8157600080fd5b600080600080600080600060e0888a031215610dff57600080fd5b87359650602088013595506040880135610e1881610d6c565b94506060880135610e2881610d6c565b93506080880135925060a0880135610e3f81610dd6565b915060c0880135610e4f81610d6c565b8091505092959891949750929550565b600080600060608486031215610e7457600080fd5b8335610e7f81610d6c565b92506020840135610e8f81610dd6565b91506040840135610e9f81610d6c565b809150509250925092565b6040516101e0810167ffffffffffffffff81118282101715610edc57634e487b7160e01b600052604160045260246000fd5b60405290565b600060208284031215610ef457600080fd5b6040516020810181811067ffffffffffffffff82111715610f2557634e487b7160e01b600052604160045260246000fd5b6040529151825250919050565b80516fffffffffffffffffffffffffffffffff81168114610f5257600080fd5b919050565b805164ffffffffff81168114610f5257600080fd5b805161ffff81168114610f5257600080fd5b8051610f5281610d6c565b60006101e08284031215610f9c57600080fd5b610fa4610eaa565b610fae8484610ee2565b8152610fbc60208401610f32565b6020820152610fcd60408401610f32565b6040820152610fde60608401610f32565b6060820152610fef60808401610f32565b608082015261100060a08401610f32565b60a082015261101160c08401610f57565b60c082015261102260e08401610f6c565b60e0820152610100611035818501610f7e565b90820152610120611047848201610f7e565b90820152610140611059848201610f7e565b9082015261016061106b848201610f7e565b9082015261018061107d848201610f32565b908201526101a061108f848201610f32565b908201526101c06110a1848201610f32565b908201529392505050565b6000602082840312156110be57600080fd5b5051919050565b634e487b7160e01b600052601160045260246000fd5b6000828210156110ed576110ed6110c5565b500390565b60008219821115611105576111056110c5565b500190565b60008060008060008060c0878903121561112357600080fd5b865195506020870151945060408701519350606087015192506080870151915060a087015190509295509295509295565b600081600019048311821515161561116e5761116e6110c5565b500290565b60008261119057634e487b7160e01b600052601260045260246000fd5b500490565b600181815b808511156111d05781600019048211156111b6576111b66110c5565b808516156111c357918102915b93841c939080029061119a565b509250929050565b6000826111e757506001611275565b816111f457506000611275565b816001811461120a576002811461121457611230565b6001915050611275565b60ff841115611225576112256110c5565b50506001821b611275565b5060208310610133831016604e8410600b8410161715611253575081810a611275565b61125d8383611195565b8060001904821115611271576112716110c5565b0290505b92915050565b6000610d6583836111d8565b6000825160005b818110156112a8576020818601810151858301520161128e565b818111156112b7576000828501525b509190910192915050565b6000602082840312156112d457600080fd5b8151610d6581610dd656fea264697066735822122005e29a5e8a5ebeef1b1e2c87a110cc05b1aae95afef52eaf4e7fc2ca9a507af364736f6c634300080e0033416363657373436f6e74726f6c6c65642f496e76616c69640000000000000000",
    "linkReferences": {}
  },
  "methodIdentifiers": {
    "MGV()": "99fa5e2d",
    "admin()": "f851a440",
    "approveMangrove(address,uint256)": "aefe8403",
    "approveRouter(address)": "f259cd27",
    "getMissingProvision(address,address,uint256,uint256,uint256)": "e4c34f84",
    "has_router()": "84b627f9",
    "makerExecute((address,address,uint256,uint256,uint256,uint256,uint256,uint256,uint256))": "6c49c32c",
    "makerPosthook((address,address,uint256,uint256,uint256,uint256,uint256,uint256,uint256),(bytes32,bytes32))": "3d3d130d",
    "newOffer((address,address,uint256,uint256,uint256,uint256,uint256,uint256))": "5486c95f",
    "ofr_gasreq()": "d1baa1ef",
    "reserve()": "cd3293de",
    "retractOffer(address,address,uint256,bool)": "ad97db1b",
    "router()": "f887ea40",
    "setAdmin(address)": "704b6c02",
    "set_gasreq(uint256)": "fc488a38",
    "set_reserve(address)": "3d77fcde",
    "set_router(address)": "db11851e",
    "tokenBalance(address)": "eedc966a",
    "updateOffer((address,address,uint256,uint256,uint256,uint256,uint256,uint256))": "10aded60",
    "withdrawFromMangrove(uint256,address)": "7144df24",
    "withdrawToken(address,address,uint256)": "01e33667"
  },
  "id": 98
}