{
  "abi": [
    {
      "inputs": [
        {
          "internalType": "address",
          "name": "_base",
          "type": "address"
        },
        {
          "internalType": "address",
          "name": "admin",
          "type": "address"
        }
      ],
      "stateMutability": "nonpayable",
      "type": "constructor"
    },
    {
      "inputs": [],
      "name": "admin",
      "outputs": [
        {
          "internalType": "address",
          "name": "",
          "type": "address"
        }
      ],
      "stateMutability": "view",
      "type": "function"
    },
    {
      "inputs": [],
      "name": "base_token",
      "outputs": [
        {
          "internalType": "contract IERC20",
          "name": "",
          "type": "address"
        }
      ],
      "stateMutability": "view",
      "type": "function"
    },
    {
      "inputs": [],
      "name": "decimals",
      "outputs": [
        {
          "internalType": "uint8",
          "name": "",
          "type": "uint8"
        }
      ],
      "stateMutability": "view",
      "type": "function"
    },
    {
      "inputs": [
        {
          "internalType": "address",
          "name": "token",
          "type": "address"
        }
      ],
      "name": "getPrice",
      "outputs": [
        {
          "internalType": "uint96",
          "name": "price",
          "type": "uint96"
        }
      ],
      "stateMutability": "view",
      "type": "function"
    },
    {
      "inputs": [
        {
          "internalType": "address",
          "name": "_admin",
          "type": "address"
        }
      ],
      "name": "setAdmin",
      "outputs": [],
      "stateMutability": "nonpayable",
      "type": "function"
    },
    {
      "inputs": [
        {
          "internalType": "address",
          "name": "token",
          "type": "address"
        },
        {
          "internalType": "uint256",
          "name": "price",
          "type": "uint256"
        }
      ],
      "name": "setPrice",
      "outputs": [],
      "stateMutability": "nonpayable",
      "type": "function"
    },
    {
      "inputs": [
        {
          "internalType": "address",
          "name": "_reader",
          "type": "address"
        }
      ],
      "name": "setReader",
      "outputs": [],
      "stateMutability": "nonpayable",
      "type": "function"
    }
  ],
  "bytecode": {
    "object": "0x60a060405234801561001057600080fd5b5060405161082438038061082483398101604081905261002f91610215565b806001600160a01b03811661008b5760405162461bcd60e51b815260206004820152601860248201527f616363657373436f6e74726f6c6c65642f307841646d696e000000000000000060448201526064015b60405180910390fd5b8061009e6101d560201b6104751760201c565b80546001600160a01b0319166001600160a01b039283161790556040805163313ce56760e01b81529051918516925063313ce5679160048083019260209291908290030181865afa925050508015610113575060408051601f3d908101601f1916820190925261011091810190610248565b60015b61015f5760405162461bcd60e51b815260206004820152601b60248201527f496e76616c6964204f7261636c652062617365206164647265737300000000006044820152606401610082565b8060ff166000036101c25760405162461bcd60e51b815260206004820152602760248201527f496e76616c696420646563696d616c73206e756d62657220666f72204f7261636044820152666c65206261736560c81b6064820152608401610082565b50506001600160a01b0316608052610272565b7f7d382ebca3e46505071795e192d28166a3d4bd0685585591bc6c5b8df6769fd290565b80516001600160a01b038116811461021057600080fd5b919050565b6000806040838503121561022857600080fd5b610231836101f9565b915061023f602084016101f9565b90509250929050565b60006020828403121561025a57600080fd5b815160ff8116811461026b57600080fd5b9392505050565b6080516105916102936000396000818160f8015261021901526105916000f3fe608060405234801561001057600080fd5b506004361061007c5760003560e01c8063704b6c021161005b578063704b6c02146100e057806375ce738e146100f35780639598da7f14610132578063f851a4401461014557600080fd5b8062e4768b14610081578063313ce5671461009657806341976e09146100b5575b600080fd5b61009461008f3660046104b5565b61014d565b005b61009e610215565b60405160ff90911681526020015b60405180910390f35b6100c86100c33660046104df565b61029e565b6040516001600160601b0390911681526020016100ac565b6100946100ee3660046104df565b61034a565b61011a7f000000000000000000000000000000000000000000000000000000000000000081565b6040516001600160a01b0390911681526020016100ac565b6100946101403660046104df565b610402565b61011a61045c565b61015561045c565b6001600160a01b0316336001600160a01b03161461018e5760405162461bcd60e51b815260040161018590610501565b60405180910390fd5b80816001600160601b0316146101d75760405162461bcd60e51b815260206004820152600e60248201526d7072696365206f766572666c6f7760901b6044820152606401610185565b6001600160a01b0391909116600090815260016020526040902080546bffffffffffffffffffffffff19166001600160601b03909216919091179055565b60007f00000000000000000000000000000000000000000000000000000000000000006001600160a01b031663313ce5676040518163ffffffff1660e01b8152600401602060405180830381865afa158015610275573d6000803e3d6000fd5b505050506040513d601f19601f820116820180604052508101906102999190610538565b905090565b600080546001600160a01b03168015806102c05750336001600160a01b038216145b6102dc5760405162461bcd60e51b815260040161018590610501565b6001600160a01b0383166000908152600160205260408120546001600160601b031692508290036103445760405162461bcd60e51b81526020600482015260126024820152716d697373696e67207072696365206461746160701b6044820152606401610185565b50919050565b61035261045c565b6001600160a01b0316336001600160a01b0316146103825760405162461bcd60e51b815260040161018590610501565b6001600160a01b0381166103d85760405162461bcd60e51b815260206004820152601860248201527f416363657373436f6e74726f6c6c65642f307841646d696e00000000000000006044820152606401610185565b806103e1610475565b80546001600160a01b0319166001600160a01b039290921691909117905550565b61040a61045c565b6001600160a01b0316336001600160a01b03161461043a5760405162461bcd60e51b815260040161018590610501565b600080546001600160a01b0319166001600160a01b0392909216919091179055565b6000610466610475565b546001600160a01b0316919050565b7f7d382ebca3e46505071795e192d28166a3d4bd0685585591bc6c5b8df6769fd290565b80356001600160a01b03811681146104b057600080fd5b919050565b600080604083850312156104c857600080fd5b6104d183610499565b946020939093013593505050565b6000602082840312156104f157600080fd5b6104fa82610499565b9392505050565b60208082526018908201527f416363657373436f6e74726f6c6c65642f496e76616c69640000000000000000604082015260600190565b60006020828403121561054a57600080fd5b815160ff811681146104fa57600080fdfea26469706673582212201ebd785529f1a170b6c3801a483a2bfa1317248ba0ad236c790d32b5096cb66764736f6c634300080e0033",
    "linkReferences": {}
  },
  "methodIdentifiers": {
    "admin()": "f851a440",
    "base_token()": "75ce738e",
    "decimals()": "313ce567",
    "getPrice(address)": "41976e09",
    "setAdmin(address)": "704b6c02",
    "setPrice(address,uint256)": "00e4768b",
    "setReader(address)": "9598da7f"
  },
  "id": 100
}