{
  "abi": [
    {
      "inputs": [
        {
          "internalType": "address",
          "name": "admin_",
          "type": "address"
        }
      ],
      "stateMutability": "nonpayable",
      "type": "constructor"
    },
    {
      "inputs": [],
      "name": "admin",
      "outputs": [
        {
          "internalType": "address",
          "name": "",
          "type": "address"
        }
      ],
      "stateMutability": "view",
      "type": "function"
    },
    {
      "inputs": [
        {
          "internalType": "address",
          "name": "_admin",
          "type": "address"
        }
      ],
      "name": "setAdmin",
      "outputs": [],
      "stateMutability": "nonpayable",
      "type": "function"
    }
  ],
  "bytecode": {
    "object": "0x608060405234801561001057600080fd5b5060405161032738038061032783398101604081905261002f916100e4565b6001600160a01b0381166100895760405162461bcd60e51b815260206004820152601860248201527f616363657373436f6e74726f6c6c65642f307841646d696e0000000000000000604482015260640160405180910390fd5b8061009c6100c060201b61017a1760201c565b80546001600160a01b0319166001600160a01b039290921691909117905550610114565b7f7d382ebca3e46505071795e192d28166a3d4bd0685585591bc6c5b8df6769fd290565b6000602082840312156100f657600080fd5b81516001600160a01b038116811461010d57600080fd5b9392505050565b610204806101236000396000f3fe608060405234801561001057600080fd5b50600436106100365760003560e01c8063704b6c021461003b578063f851a44014610050575b600080fd5b61004e61004936600461019e565b610074565b005b610058610161565b6040516001600160a01b03909116815260200160405180910390f35b61007c610161565b6001600160a01b0316336001600160a01b0316146100e15760405162461bcd60e51b815260206004820152601860248201527f416363657373436f6e74726f6c6c65642f496e76616c6964000000000000000060448201526064015b60405180910390fd5b6001600160a01b0381166101375760405162461bcd60e51b815260206004820152601860248201527f416363657373436f6e74726f6c6c65642f307841646d696e000000000000000060448201526064016100d8565b8061014061017a565b80546001600160a01b0319166001600160a01b039290921691909117905550565b600061016b61017a565b546001600160a01b0316919050565b7f7d382ebca3e46505071795e192d28166a3d4bd0685585591bc6c5b8df6769fd290565b6000602082840312156101b057600080fd5b81356001600160a01b03811681146101c757600080fd5b939250505056fea2646970667358221220c28eba0679d9cf64bcd89e9e4d8b93c948a9749f6650b4ed4751ce9cd469709964736f6c634300080e0033",
    "linkReferences": {}
  },
  "methodIdentifiers": {
    "admin()": "f851a440",
    "setAdmin(address)": "704b6c02"
  },
  "id": 47
}