{
  "abi": [
    {
      "inputs": [
        {
          "internalType": "address",
          "name": "_governance",
          "type": "address"
        },
        {
          "internalType": "uint256",
          "name": "_gasprice",
          "type": "uint256"
        },
        {
          "internalType": "uint256",
          "name": "gasmax",
          "type": "uint256"
        }
      ],
      "stateMutability": "nonpayable",
      "type": "constructor"
    },
    {
      "anonymous": false,
      "inputs": [
        {
          "indexed": true,
          "internalType": "address",
          "name": "outbound_tkn",
          "type": "address"
        },
        {
          "indexed": true,
          "internalType": "address",
          "name": "inbound_tkn",
          "type": "address"
        },
        {
          "indexed": false,
          "internalType": "address",
          "name": "owner",
          "type": "address"
        },
        {
          "indexed": false,
          "internalType": "address",
          "name": "spender",
          "type": "address"
        },
        {
          "indexed": false,
          "internalType": "uint256",
          "name": "value",
          "type": "uint256"
        }
      ],
      "name": "Approval",
      "type": "event"
    },
    {
      "anonymous": false,
      "inputs": [
        {
          "indexed": true,
          "internalType": "address",
          "name": "maker",
          "type": "address"
        },
        {
          "indexed": false,
          "internalType": "uint256",
          "name": "amount",
          "type": "uint256"
        }
      ],
      "name": "Credit",
      "type": "event"
    },
    {
      "anonymous": false,
      "inputs": [
        {
          "indexed": true,
          "internalType": "address",
          "name": "maker",
          "type": "address"
        },
        {
          "indexed": false,
          "internalType": "uint256",
          "name": "amount",
          "type": "uint256"
        }
      ],
      "name": "Debit",
      "type": "event"
    },
    {
      "anonymous": false,
      "inputs": [],
      "name": "Kill",
      "type": "event"
    },
    {
      "anonymous": false,
      "inputs": [],
      "name": "NewMgv",
      "type": "event"
    },
    {
      "anonymous": false,
      "inputs": [
        {
          "indexed": true,
          "internalType": "address",
          "name": "outbound_tkn",
          "type": "address"
        },
        {
          "indexed": true,
          "internalType": "address",
          "name": "inbound_tkn",
          "type": "address"
        },
        {
          "indexed": false,
          "internalType": "uint256",
          "name": "id",
          "type": "uint256"
        },
        {
          "indexed": false,
          "internalType": "address",
          "name": "taker",
          "type": "address"
        },
        {
          "indexed": false,
          "internalType": "uint256",
          "name": "takerWants",
          "type": "uint256"
        },
        {
          "indexed": false,
          "internalType": "uint256",
          "name": "takerGives",
          "type": "uint256"
        },
        {
          "indexed": false,
          "internalType": "bytes32",
          "name": "mgvData",
          "type": "bytes32"
        }
      ],
      "name": "OfferFail",
      "type": "event"
    },
    {
      "anonymous": false,
      "inputs": [
        {
          "indexed": true,
          "internalType": "address",
          "name": "outbound_tkn",
          "type": "address"
        },
        {
          "indexed": true,
          "internalType": "address",
          "name": "inbound_tkn",
          "type": "address"
        },
        {
          "indexed": false,
          "internalType": "uint256",
          "name": "id",
          "type": "uint256"
        }
      ],
      "name": "OfferRetract",
      "type": "event"
    },
    {
      "anonymous": false,
      "inputs": [
        {
          "indexed": true,
          "internalType": "address",
          "name": "outbound_tkn",
          "type": "address"
        },
        {
          "indexed": true,
          "internalType": "address",
          "name": "inbound_tkn",
          "type": "address"
        },
        {
          "indexed": false,
          "internalType": "uint256",
          "name": "id",
          "type": "uint256"
        },
        {
          "indexed": false,
          "internalType": "address",
          "name": "taker",
          "type": "address"
        },
        {
          "indexed": false,
          "internalType": "uint256",
          "name": "takerWants",
          "type": "uint256"
        },
        {
          "indexed": false,
          "internalType": "uint256",
          "name": "takerGives",
          "type": "uint256"
        }
      ],
      "name": "OfferSuccess",
      "type": "event"
    },
    {
      "anonymous": false,
      "inputs": [
        {
          "indexed": true,
          "internalType": "address",
          "name": "outbound_tkn",
          "type": "address"
        },
        {
          "indexed": true,
          "internalType": "address",
          "name": "inbound_tkn",
          "type": "address"
        },
        {
          "indexed": false,
          "internalType": "address",
          "name": "maker",
          "type": "address"
        },
        {
          "indexed": false,
          "internalType": "uint256",
          "name": "wants",
          "type": "uint256"
        },
        {
          "indexed": false,
          "internalType": "uint256",
          "name": "gives",
          "type": "uint256"
        },
        {
          "indexed": false,
          "internalType": "uint256",
          "name": "gasprice",
          "type": "uint256"
        },
        {
          "indexed": false,
          "internalType": "uint256",
          "name": "gasreq",
          "type": "uint256"
        },
        {
          "indexed": false,
          "internalType": "uint256",
          "name": "id",
          "type": "uint256"
        },
        {
          "indexed": false,
          "internalType": "uint256",
          "name": "prev",
          "type": "uint256"
        }
      ],
      "name": "OfferWrite",
      "type": "event"
    },
    {
      "anonymous": false,
      "inputs": [
        {
          "indexed": true,
          "internalType": "address",
          "name": "outbound_tkn",
          "type": "address"
        },
        {
          "indexed": true,
          "internalType": "address",
          "name": "inbound_tkn",
          "type": "address"
        },
        {
          "indexed": true,
          "internalType": "address",
          "name": "taker",
          "type": "address"
        },
        {
          "indexed": false,
          "internalType": "uint256",
          "name": "takerGot",
          "type": "uint256"
        },
        {
          "indexed": false,
          "internalType": "uint256",
          "name": "takerGave",
          "type": "uint256"
        },
        {
          "indexed": false,
          "internalType": "uint256",
          "name": "penalty",
          "type": "uint256"
        },
        {
          "indexed": false,
          "internalType": "uint256",
          "name": "feePaid",
          "type": "uint256"
        }
      ],
      "name": "OrderComplete",
      "type": "event"
    },
    {
      "anonymous": false,
      "inputs": [],
      "name": "OrderStart",
      "type": "event"
    },
    {
      "anonymous": false,
      "inputs": [
        {
          "indexed": true,
          "internalType": "address",
          "name": "outbound_tkn",
          "type": "address"
        },
        {
          "indexed": true,
          "internalType": "address",
          "name": "inbound_tkn",
          "type": "address"
        },
        {
          "indexed": false,
          "internalType": "uint256",
          "name": "offerId",
          "type": "uint256"
        },
        {
          "indexed": false,
          "internalType": "bytes32",
          "name": "posthookData",
          "type": "bytes32"
        }
      ],
      "name": "PosthookFail",
      "type": "event"
    },
    {
      "anonymous": false,
      "inputs": [
        {
          "indexed": true,
          "internalType": "address",
          "name": "outbound_tkn",
          "type": "address"
        },
        {
          "indexed": true,
          "internalType": "address",
          "name": "inbound_tkn",
          "type": "address"
        },
        {
          "indexed": false,
          "internalType": "bool",
          "name": "value",
          "type": "bool"
        }
      ],
      "name": "SetActive",
      "type": "event"
    },
    {
      "anonymous": false,
      "inputs": [
        {
          "indexed": true,
          "internalType": "address",
          "name": "outbound_tkn",
          "type": "address"
        },
        {
          "indexed": true,
          "internalType": "address",
          "name": "inbound_tkn",
          "type": "address"
        },
        {
          "indexed": false,
          "internalType": "uint256",
          "name": "value",
          "type": "uint256"
        }
      ],
      "name": "SetDensity",
      "type": "event"
    },
    {
      "anonymous": false,
      "inputs": [
        {
          "indexed": true,
          "internalType": "address",
          "name": "outbound_tkn",
          "type": "address"
        },
        {
          "indexed": true,
          "internalType": "address",
          "name": "inbound_tkn",
          "type": "address"
        },
        {
          "indexed": false,
          "internalType": "uint256",
          "name": "value",
          "type": "uint256"
        }
      ],
      "name": "SetFee",
      "type": "event"
    },
    {
      "anonymous": false,
      "inputs": [
        {
          "indexed": true,
          "internalType": "address",
          "name": "outbound_tkn",
          "type": "address"
        },
        {
          "indexed": true,
          "internalType": "address",
          "name": "inbound_tkn",
          "type": "address"
        },
        {
          "indexed": false,
          "internalType": "uint256",
          "name": "offer_gasbase",
          "type": "uint256"
        }
      ],
      "name": "SetGasbase",
      "type": "event"
    },
    {
      "anonymous": false,
      "inputs": [
        {
          "indexed": false,
          "internalType": "uint256",
          "name": "value",
          "type": "uint256"
        }
      ],
      "name": "SetGasmax",
      "type": "event"
    },
    {
      "anonymous": false,
      "inputs": [
        {
          "indexed": false,
          "internalType": "uint256",
          "name": "value",
          "type": "uint256"
        }
      ],
      "name": "SetGasprice",
      "type": "event"
    },
    {
      "anonymous": false,
      "inputs": [
        {
          "indexed": false,
          "internalType": "address",
          "name": "value",
          "type": "address"
        }
      ],
      "name": "SetGovernance",
      "type": "event"
    },
    {
      "anonymous": false,
      "inputs": [
        {
          "indexed": false,
          "internalType": "address",
          "name": "value",
          "type": "address"
        }
      ],
      "name": "SetMonitor",
      "type": "event"
    },
    {
      "anonymous": false,
      "inputs": [
        {
          "indexed": false,
          "internalType": "bool",
          "name": "value",
          "type": "bool"
        }
      ],
      "name": "SetNotify",
      "type": "event"
    },
    {
      "anonymous": false,
      "inputs": [
        {
          "indexed": false,
          "internalType": "bool",
          "name": "value",
          "type": "bool"
        }
      ],
      "name": "SetUseOracle",
      "type": "event"
    },
    {
      "anonymous": false,
      "inputs": [
        {
          "indexed": false,
          "internalType": "address",
          "name": "value",
          "type": "address"
        }
      ],
      "name": "SetVault",
      "type": "event"
    },
    {
      "inputs": [
        {
          "internalType": "address",
          "name": "outbound_tkn",
          "type": "address"
        },
        {
          "internalType": "address",
          "name": "inbound_tkn",
          "type": "address"
        },
        {
          "internalType": "uint256",
          "name": "fee",
          "type": "uint256"
        },
        {
          "internalType": "uint256",
          "name": "density",
          "type": "uint256"
        },
        {
          "internalType": "uint256",
          "name": "offer_gasbase",
          "type": "uint256"
        }
      ],
      "name": "activate",
      "outputs": [],
      "stateMutability": "nonpayable",
      "type": "function"
    },
    {
      "inputs": [
        {
          "internalType": "address",
          "name": "outbound_tkn",
          "type": "address"
        },
        {
          "internalType": "address",
          "name": "inbound_tkn",
          "type": "address"
        }
      ],
      "name": "config",
      "outputs": [
        {
          "internalType": "t",
          "name": "_global",
          "type": "uint256"
        },
        {
          "internalType": "t",
          "name": "_local",
          "type": "uint256"
        }
      ],
      "stateMutability": "view",
      "type": "function"
    },
    {
      "inputs": [
        {
          "internalType": "address",
          "name": "outbound_tkn",
          "type": "address"
        },
        {
          "internalType": "address",
          "name": "inbound_tkn",
          "type": "address"
        }
      ],
      "name": "configInfo",
      "outputs": [
        {
          "components": [
            {
              "internalType": "address",
              "name": "monitor",
              "type": "address"
            },
            {
              "internalType": "bool",
              "name": "useOracle",
              "type": "bool"
            },
            {
              "internalType": "bool",
              "name": "notify",
              "type": "bool"
            },
            {
              "internalType": "uint256",
              "name": "gasprice",
              "type": "uint256"
            },
            {
              "internalType": "uint256",
              "name": "gasmax",
              "type": "uint256"
            },
            {
              "internalType": "bool",
              "name": "dead",
              "type": "bool"
            }
          ],
          "internalType": "struct GlobalStruct",
          "name": "global",
          "type": "tuple"
        },
        {
          "components": [
            {
              "internalType": "bool",
              "name": "active",
              "type": "bool"
            },
            {
              "internalType": "uint256",
              "name": "fee",
              "type": "uint256"
            },
            {
              "internalType": "uint256",
              "name": "density",
              "type": "uint256"
            },
            {
              "internalType": "uint256",
              "name": "offer_gasbase",
              "type": "uint256"
            },
            {
              "internalType": "bool",
              "name": "lock",
              "type": "bool"
            },
            {
              "internalType": "uint256",
              "name": "best",
              "type": "uint256"
            },
            {
              "internalType": "uint256",
              "name": "last",
              "type": "uint256"
            }
          ],
          "internalType": "struct LocalStruct",
          "name": "local",
          "type": "tuple"
        }
      ],
      "stateMutability": "view",
      "type": "function"
    },
    {
      "inputs": [
        {
          "internalType": "address",
          "name": "outbound_tkn",
          "type": "address"
        },
        {
          "internalType": "address",
          "name": "inbound_tkn",
          "type": "address"
        }
      ],
      "name": "deactivate",
      "outputs": [],
      "stateMutability": "nonpayable",
      "type": "function"
    },
    {
      "inputs": [],
      "name": "governance",
      "outputs": [
        {
          "internalType": "address",
          "name": "",
          "type": "address"
        }
      ],
      "stateMutability": "view",
      "type": "function"
    },
    {
      "inputs": [],
      "name": "kill",
      "outputs": [],
      "stateMutability": "nonpayable",
      "type": "function"
    },
    {
      "inputs": [
        {
          "internalType": "address",
          "name": "outbound_tkn",
          "type": "address"
        },
        {
          "internalType": "address",
          "name": "inbound_tkn",
          "type": "address"
        }
      ],
      "name": "locked",
      "outputs": [
        {
          "internalType": "bool",
          "name": "",
          "type": "bool"
        }
      ],
      "stateMutability": "view",
      "type": "function"
    },
    {
      "inputs": [
        {
          "internalType": "address",
          "name": "outbound_tkn",
          "type": "address"
        },
        {
          "internalType": "address",
          "name": "inbound_tkn",
          "type": "address"
        },
        {
          "internalType": "uint256",
          "name": "density",
          "type": "uint256"
        }
      ],
      "name": "setDensity",
      "outputs": [],
      "stateMutability": "nonpayable",
      "type": "function"
    },
    {
      "inputs": [
        {
          "internalType": "address",
          "name": "outbound_tkn",
          "type": "address"
        },
        {
          "internalType": "address",
          "name": "inbound_tkn",
          "type": "address"
        },
        {
          "internalType": "uint256",
          "name": "fee",
          "type": "uint256"
        }
      ],
      "name": "setFee",
      "outputs": [],
      "stateMutability": "nonpayable",
      "type": "function"
    },
    {
      "inputs": [
        {
          "internalType": "address",
          "name": "outbound_tkn",
          "type": "address"
        },
        {
          "internalType": "address",
          "name": "inbound_tkn",
          "type": "address"
        },
        {
          "internalType": "uint256",
          "name": "offer_gasbase",
          "type": "uint256"
        }
      ],
      "name": "setGasbase",
      "outputs": [],
      "stateMutability": "nonpayable",
      "type": "function"
    },
    {
      "inputs": [
        {
          "internalType": "uint256",
          "name": "gasmax",
          "type": "uint256"
        }
      ],
      "name": "setGasmax",
      "outputs": [],
      "stateMutability": "nonpayable",
      "type": "function"
    },
    {
      "inputs": [
        {
          "internalType": "uint256",
          "name": "gasprice",
          "type": "uint256"
        }
      ],
      "name": "setGasprice",
      "outputs": [],
      "stateMutability": "nonpayable",
      "type": "function"
    },
    {
      "inputs": [
        {
          "internalType": "address",
          "name": "governanceAddress",
          "type": "address"
        }
      ],
      "name": "setGovernance",
      "outputs": [],
      "stateMutability": "nonpayable",
      "type": "function"
    },
    {
      "inputs": [
        {
          "internalType": "address",
          "name": "monitor",
          "type": "address"
        }
      ],
      "name": "setMonitor",
      "outputs": [],
      "stateMutability": "nonpayable",
      "type": "function"
    },
    {
      "inputs": [
        {
          "internalType": "bool",
          "name": "notify",
          "type": "bool"
        }
      ],
      "name": "setNotify",
      "outputs": [],
      "stateMutability": "nonpayable",
      "type": "function"
    },
    {
      "inputs": [
        {
          "internalType": "bool",
          "name": "useOracle",
          "type": "bool"
        }
      ],
      "name": "setUseOracle",
      "outputs": [],
      "stateMutability": "nonpayable",
      "type": "function"
    },
    {
      "inputs": [
        {
          "internalType": "address",
          "name": "vaultAddress",
          "type": "address"
        }
      ],
      "name": "setVault",
      "outputs": [],
      "stateMutability": "nonpayable",
      "type": "function"
    },
    {
      "inputs": [],
      "name": "vault",
      "outputs": [
        {
          "internalType": "address",
          "name": "",
          "type": "address"
        }
      ],
      "stateMutability": "view",
      "type": "function"
    }
  ],
  "bytecode": {
    "object": "0x60806040523480156200001157600080fd5b50604051620013b7380380620013b78339810160408190526200003491620003b1565b6040517f72201d073f249840099a96530e189c4291c1852040b1e96ff1f606db656be4ff90600090a1620000688362000092565b6200007382620000f1565b6200007e81620001a4565b620000898362000254565b505050620003f6565b6200009c62000305565b600080546001600160a01b0319166001600160a01b0383169081179091556040519081527fd459c7242e23d490831b5676a611c4342d899d28f342d89ae80793e56a930f30906020015b60405180910390a150565b620000fb62000305565b61ffff81168114620001545760405162461bcd60e51b815260206004820152601a60248201527f6d67762f636f6e6669672f67617370726963652f31366269747300000000000060448201526064015b60405180910390fd5b62000170816001546200037660201b62000c941790919060201c565b6001556040518181527fdbebd814ae648f654dcc50c734aa76e55a32e96b7d85303a08e2ddf11874a0dd90602001620000e6565b620001ae62000305565b808162ffffff1614620002045760405162461bcd60e51b815260206004820152601860248201527f6d67762f636f6e6669672f6761736d61782f323462697473000000000000000060448201526064016200014b565b62000220816001546200039460201b62000cb71790919060201c565b6001556040518181527f8cdff0cd5ed2543bcdf7eb93d8ec1c23626e579925f4531beeef15d84cf78d1890602001620000e6565b6200025e62000305565b6001600160a01b038116620002b65760405162461bcd60e51b815260206004820152601360248201527f6d67762f636f6e6669672f676f762f6e6f74300000000000000000000000000060448201526064016200014b565b600380546001600160a01b0319166001600160a01b0383169081179091556040519081527f24a8c4807b324a269a51827c3446b8ac1cc13810d7d0c0ca1efafabddd7b621990602001620000e6565b6003546001600160a01b03163314806200031e57503330145b806200033357506003546001600160a01b0316155b620003745760405162461bcd60e51b815260206004820152601060248201526f1b59dd8bdd5b985d5d1a1bdc9a5e995960821b60448201526064016200014b565b565b60401b69ffff00000000000000001661ffff60401b19919091161790565b60281b67ffffff00000000001662ffffff60281b19919091161790565b600080600060608486031215620003c757600080fd5b83516001600160a01b0381168114620003df57600080fd5b602085015160409095015190969495509392505050565b610fb180620004066000396000f3fe608060405234801561001057600080fd5b50600436106101165760003560e01c806395999ee3116100a2578063db20266f11610071578063db20266f146102d2578063dc7e98df14610323578063fbb6691014610336578063fbfa77cf14610349578063fcaa7e2e1461035c57600080fd5b806395999ee314610271578063ab033ea914610284578063cbf75c9a14610297578063d0ee5099146102bf57600080fd5b80635aa6e675116100e95780635aa6e6751461015e5780635cd823901461018e578063644e6703146101a15780636804f6131461024b5780636817031b1461025e57600080fd5b80630b73a18f1461011b57806327d097c61461013057806341c0e1b5146101435780635a611f4e1461014b575b600080fd5b61012e610129366004610e3e565b61036f565b005b61012e61013e366004610e8b565b61040d565b61012e6104e8565b61012e610159366004610ec7565b610530565b600354610171906001600160a01b031681565b6040516001600160a01b0390911681526020015b60405180910390f35b61012e61019c366004610ef0565b61058a565b6101b46101af366004610f0b565b6105f4565b6040805183516001600160a01b0316815260208085015115158183015284830151151582840152606080860151818401526080808701518185015260a0968701511515878501528551151560c0808601919091529286015160e0850152938501516101008401528401516101208301529183015115156101408201529282015161016084015201516101808201526101a001610185565b61012e610259366004610ec7565b6106f7565b61012e61026c366004610ef0565b61074a565b61012e61027f366004610f3e565b6107a0565b61012e610292366004610ef0565b61083c565b6102aa6102a5366004610f0b565b6108de565b60408051928352602083019190915201610185565b61012e6102cd366004610f0b565b6109db565b6103136102e0366004610f0b565b6001600160a01b03918216600090815260026020908152604080832093909416825291909152205460581c60ff16151590565b6040519015158152602001610185565b61012e610331366004610e8b565b610a4c565b61012e610344366004610e8b565b610b0c565b600054610171906001600160a01b031681565b61012e61036a366004610f3e565b610bf9565b610377610cd6565b6001600160a01b0385811660008181526002602090815260408083209489168084529482529182902080546001600160f81b0316600160f81b17905581516001815291517fc4ad6e84469caa93e473acfa6c029fcf9d3757d8e268e6233c150771e9f88da69281900390910190a36103f0858585610a4c565b6103fb858584610b0c565b61040685858361040d565b5050505050565b610415610cd6565b808162ffffff161461046e5760405162461bcd60e51b815260206004820152601f60248201527f6d67762f636f6e6669672f6f666665725f676173626173652f3234626974730060448201526064015b60405180910390fd5b6001600160a01b03838116600081815260026020908152604080832094871680845294825291829020805462ffffff60601b191662ffffff60601b606088901b1617905590518481527fc5859916e5f3fc1ed4d2cfb8c7a6cf709580f228fa0c9d9e0fa468744c7e4a9191015b60405180910390a3505050565b6104f0610cd6565b60015464ff000000001916640100000000176001556040517fbe26733c2bf6ff3ea5ba8cfe744422bd49052ff9ed5685c9e81e6f9321dbaddd90600090a1565b610538610cd6565b60015460ff60501b191660ff60501b605083901b161760015560405181151581527f9b84fe4d9ffc14a6f7ec50c18884ee0d4bb8165aa718a28558df12ab4bd32b14906020015b60405180910390a150565b610592610cd6565b6001546bffffffffffffffffffffffff166bffffffffffffffffffffffff19606083901b16176001556040516001600160a01b03821681527ff592e42c32883b35bebfbf9d9b801570a25d5ccbba452310746ad2cfd20d548f9060200161057f565b6040805160c081018252600080825260208201819052918101829052606081018290526080810182905260a081019190915261066a6040518060e0016040528060001515815260200160008152602001600081526020016000815260200160001515815260200160008152602001600081525090565b60008061067786866108de565b915091506106e1826040805160c081018252606083811c8252605884901c60ff9081161515602080850191909152605086901c82161515848601529385901c61ffff1691830191909152602884901c62ffffff1660808301529290911c909116151560a082015290565b93506106ec81610d43565b925050509250929050565b6106ff610cd6565b60015460ff60581b191660ff60581b605883901b161760015560405181151581527fbf39fbfab835c119637f4dbc4fb0f428c559c210200405d1ec25ddb50a93f9d49060200161057f565b610752610cd6565b600080546001600160a01b0319166001600160a01b0383169081179091556040519081527fd459c7242e23d490831b5676a611c4342d899d28f342d89ae80793e56a930f309060200161057f565b6107a8610cd6565b808162ffffff16146107fc5760405162461bcd60e51b815260206004820152601860248201527f6d67762f636f6e6669672f6761736d61782f32346269747300000000000000006044820152606401610465565b6001546108099082610cb7565b6001556040518181527f8cdff0cd5ed2543bcdf7eb93d8ec1c23626e579925f4531beeef15d84cf78d189060200161057f565b610844610cd6565b6001600160a01b0381166108905760405162461bcd60e51b815260206004820152601360248201527206d67762f636f6e6669672f676f762f6e6f743606c1b6044820152606401610465565b600380546001600160a01b0319166001600160a01b0383169081179091556040519081527f24a8c4807b324a269a51827c3446b8ac1cc13810d7d0c0ca1efafabddd7b62199060200161057f565b6001546001600160a01b03838116600090815260026020908152604080832093861683529290522054605882901c60ff16156109d4576000806109218460601c90565b604051636968abd360e01b81526001600160a01b03888116600483015287811660248301529190911690636968abd3906044016040805180830381865afa158015610970573d6000803e3d6000fd5b505050506040513d601f19601f820116820180604052508101906109949190610f57565b915091506109a58261ffff81161490565b156109b7576109b48483610c94565b93505b6001600160701b03811681036109d1576106ec8382610df1565b50505b9250929050565b6109e3610cd6565b6001600160a01b03828116600081815260026020908152604080832094861680845294825280832080546001600160f81b031690558051928352517fc4ad6e84469caa93e473acfa6c029fcf9d3757d8e268e6233c150771e9f88da69281900390910190a35050565b610a54610cd6565b6101f4811115610a9d5760405162461bcd60e51b815260206004820152601460248201527306d67762f636f6e6669672f6665652f3c3d3530360641b6044820152606401610465565b6001600160a01b03838116600081815260026020908152604080832094871680845294825291829020805461ffff60e81b191661ffff60e81b60e888901b1617905590518481527f44a6d70a601a6f8a85c075467e9d7245897140cbf6dd505c9d9d764459f5fb6491016104db565b610b14610cd6565b6001600160701b0381168114610b6c5760405162461bcd60e51b815260206004820152601a60248201527f6d67762f636f6e6669672f64656e736974792f313132626974730000000000006044820152606401610465565b6001600160a01b03808416600090815260026020908152604080832093861683529290522054610b9c9082610df1565b6001600160a01b038481166000818152600260209081526040808320948816808452948252918290209490945551848152919290917f95f1a495c6d9d1a215995408f6ad898c2b33798d6eb3cf3220b4c6cc8b61b06491016104db565b610c01610cd6565b61ffff81168114610c545760405162461bcd60e51b815260206004820152601a60248201527f6d67762f636f6e6669672f67617370726963652f3136626974730000000000006044820152606401610465565b600154610c619082610c94565b6001556040518181527fdbebd814ae648f654dcc50c734aa76e55a32e96b7d85303a08e2ddf11874a0dd9060200161057f565b60401b69ffff00000000000000001669ffff000000000000000019919091161790565b60281b67ffffff00000000001667ffffff000000000019919091161790565b6003546001600160a01b0316331480610cee57503330145b80610d0257506003546001600160a01b0316155b610d415760405162461bcd60e51b815260206004820152601060248201526f1b59dd8bdd5b985d5d1a1bdc9a5e995960821b6044820152606401610465565b565b610d876040518060e0016040528060001515815260200160008152602001600081526020016000815260200160001515815260200160008152602001600081525090565b60f882901c1515815260e882901c61ffff166020820152607882901c6001600160701b03166040820152606082811c62ffffff1690820152605882901c60ff1615156080820152603882901c63ffffffff90811660a083015260189290921c90911660c082015290565b60781b6dffffffffffffffffffffffffffff60781b166dffffffffffffffffffffffffffff60781b19919091161790565b80356001600160a01b0381168114610e3957600080fd5b919050565b600080600080600060a08688031215610e5657600080fd5b610e5f86610e22565b9450610e6d60208701610e22565b94979496505050506040830135926060810135926080909101359150565b600080600060608486031215610ea057600080fd5b610ea984610e22565b9250610eb760208501610e22565b9150604084013590509250925092565b600060208284031215610ed957600080fd5b81358015158114610ee957600080fd5b9392505050565b600060208284031215610f0257600080fd5b610ee982610e22565b60008060408385031215610f1e57600080fd5b610f2783610e22565b9150610f3560208401610e22565b90509250929050565b600060208284031215610f5057600080fd5b5035919050565b60008060408385031215610f6a57600080fd5b50508051602090910151909290915056fea2646970667358221220922eeb3baa7c54691dce7578988d5e000a10af43d77a6dcb9e4967e39f1d736864736f6c634300080e0033",
    "linkReferences": {}
  },
  "methodIdentifiers": {
    "activate(address,address,uint256,uint256,uint256)": "0b73a18f",
    "config(address,address)": "cbf75c9a",
    "configInfo(address,address)": "644e6703",
    "deactivate(address,address)": "d0ee5099",
    "governance()": "5aa6e675",
    "kill()": "41c0e1b5",
    "locked(address,address)": "db20266f",
    "setDensity(address,address,uint256)": "fbb66910",
    "setFee(address,address,uint256)": "dc7e98df",
    "setGasbase(address,address,uint256)": "27d097c6",
    "setGasmax(uint256)": "95999ee3",
    "setGasprice(uint256)": "fcaa7e2e",
    "setGovernance(address)": "ab033ea9",
    "setMonitor(address)": "5cd82390",
    "setNotify(bool)": "5a611f4e",
    "setUseOracle(bool)": "6804f613",
    "setVault(address)": "6817031b",
    "vault()": "fbfa77cf"
  },
  "id": 4
}