{
  "abi": [
    {
      "inputs": [
        {
          "internalType": "contract AbstractMangrove",
          "name": "_mgv",
          "type": "address"
        },
        {
          "internalType": "address",
          "name": "_base",
          "type": "address"
        },
        {
          "internalType": "address",
          "name": "_quote",
          "type": "address"
        }
      ],
      "stateMutability": "nonpayable",
      "type": "constructor"
    },
    {
      "inputs": [
        {
          "internalType": "uint256",
          "name": "k",
          "type": "uint256"
        }
      ],
      "name": "deploy",
      "outputs": [],
      "stateMutability": "nonpayable",
      "type": "function"
    },
    {
      "inputs": [],
      "name": "dispatch",
      "outputs": [],
      "stateMutability": "nonpayable",
      "type": "function"
    },
    {
      "inputs": [
        {
          "internalType": "uint256",
          "name": "i",
          "type": "uint256"
        }
      ],
      "name": "getMaker",
      "outputs": [
        {
          "internalType": "contract TestMaker",
          "name": "",
          "type": "address"
        }
      ],
      "stateMutability": "view",
      "type": "function"
    },
    {
      "inputs": [],
      "name": "length",
      "outputs": [
        {
          "internalType": "uint256",
          "name": "",
          "type": "uint256"
        }
      ],
      "stateMutability": "view",
      "type": "function"
    }
  ],
  "bytecode": {
    "object": "0x608060405234801561001057600080fd5b5060405161452138038061452183398101604081905261002f91610092565b600180546001600160a01b0394851661010002610100600160a81b0319909116179055600280549284166001600160a01b0319938416179055600380549190931691161790556100df565b6001600160a01b038116811461008f57600080fd5b50565b6000806000606084860312156100a757600080fd5b83516100b28161007a565b60208501519093506100c38161007a565b60408501519092506100d48161007a565b809150509250925092565b614433806100ee6000396000f3fe608060405234801561001057600080fd5b506004361061004c5760003560e01c80631f7b6d32146100515780635686153214610067578063a5e3875114610092578063e9c4a3ac146100a7575b600080fd5b6000546040519081526020015b60405180910390f35b61007a61007536600461047a565b6100af565b6040516001600160a01b03909116815260200161005e565b6100a56100a036600461047a565b6100de565b005b6100a5610320565b60008082815481106100c3576100c3610493565b6000918252602090912001546001600160a01b031692915050565b60015460ff16610311578067ffffffffffffffff811115610101576101016104a9565b60405190808252806020026020018201604052801561012a578160200160208202803683370190505b50805161013f916000916020909101906103f3565b5060005b8181101561030f576001546002546003546040516101009093046001600160a01b03908116939281169291169061017990610458565b6001600160a01b03938416815291831660208301529091166040820152606001604051809103906000f0801580156101b5573d6000803e3d6000fd5b50600082815481106101c9576101c9610493565b9060005260206000200160006101000a8154816001600160a01b0302191690836001600160a01b031602179055506000818154811061020a5761020a610493565b60009182526020909120015460025460405163a3cfe14d60e01b81526001600160a01b039182166004820152678ac7230489e80000602482015291169063a3cfe14d90604401600060405180830381600087803b15801561026a57600080fd5b505af115801561027e573d6000803e3d6000fd5b505050506000818154811061029557610295610493565b600091825260209091200154604051635239cafb60e11b8152821560048201526001600160a01b039091169063a47395f690602401600060405180830381600087803b1580156102e457600080fd5b505af11580156102f8573d6000803e3d6000fd5b505050508080610307906104bf565b915050610143565b505b506001805460ff191681179055565b600080549061032f82476104e6565b90506000811161037b5760405162461bcd60e51b8152602060048201526013602482015272181032ba3432b9103a37903a3930b739b332b960691b604482015260640160405180910390fd5b60005b828110156103ee57600080828154811061039a5761039a610493565b60009182526020822001546040516001600160a01b039091169250829085156108fc0290869084818181858888f193505050509050806103d957600080fd5b505080806103e6906104bf565b91505061037e565b505050565b828054828255906000526020600020908101928215610448579160200282015b8281111561044857825182546001600160a01b0319166001600160a01b03909116178255602090920191600190910190610413565b50610454929150610465565b5090565b613ef58061050983390190565b5b808211156104545760008155600101610466565b60006020828403121561048c57600080fd5b5035919050565b634e487b7160e01b600052603260045260246000fd5b634e487b7160e01b600052604160045260246000fd5b6000600182016104df57634e487b7160e01b600052601160045260246000fd5b5060010190565b60008261050357634e487b7160e01b600052601260045260246000fd5b50049056fe60806040526000805462ff00ff1916620100011790553480156200002257600080fd5b5060405162003ef538038062003ef58339810160408190526200004591620000a1565b600880546001600160a01b039485166001600160a01b0319918216179091556009805493851693821693909317909255600a8054919093169116179055620000f5565b6001600160a01b03811681146200009e57600080fd5b50565b600080600060608486031215620000b757600080fd5b8351620000c48162000088565b6020850151909350620000d78162000088565b6040850151909250620000ea8162000088565b809150509250925092565b613df080620001056000396000f3fe60806040526004361061026b5760003560e01c8063a3cfe14d11610144578063d3845fea116100b6578063f5537ede1161007a578063f5537ede146107b9578063f8ccbf47146107d9578063fa7626d4146107f9578063fc3816c814610813578063fc8349f214610833578063ffae399e1461085357600080fd5b8063d3845fea14610719578063d82555f114610739578063e67ecda114610759578063e923c65114610779578063e9a79a7b1461079957600080fd5b8063c4c6c87d11610108578063c4c6c87d14610659578063c88a5e6d14610679578063cafffca814610699578063ccfbf94d146106b9578063cda30c3b146106d9578063d06d8229146106f957600080fd5b8063a3cfe14d1461059b578063a47395f6146105bb578063af9bbe5f146105f4578063b9c071b414610614578063ba414fa61461063457600080fd5b806353e575ac116101dd5780636f597075116101a15780636f597075146104cd5780637a943a37146104ed5780637ec95ff3146105265780638b0af9bb1461054657806397754ae91461055b5780639a8325a01461057b57600080fd5b806353e575ac146103f8578063557f49c3146104265780635a4924e81461045f5780636bce989b1461048d5780636c49c32c146104ad57600080fd5b806329ce9dde1161022f57806329ce9dde146103195780632d6c17a31461035657806333ac5efd146103765780633a768463146103965780633bf82db1146103b85780633d3d130d146103d857600080fd5b80630cc9d65614610277578063108554f214610299578063233240ee146102b95780632644c05c146102d957806329a9e300146102f957600080fd5b3661027257005b600080fd5b34801561028357600080fd5b5061029761029236600461333e565b61088c565b005b3480156102a557600080fd5b506102976102b43660046133a3565b6108d5565b3480156102c557600080fd5b506102976102d43660046133cf565b6109a6565b3480156102e557600080fd5b506102976102f43660046133f3565b610a7a565b34801561030557600080fd5b5061029761031436600461342e565b610afb565b34801561032557600080fd5b50610339610334366004613534565b610ba6565b6040516001600160a01b0390911681526020015b60405180910390f35b34801561036257600080fd5b506102976103713660046135ac565b610ccd565b34801561038257600080fd5b506102976103913660046135c5565b610d09565b3480156103a257600080fd5b50610339600080516020613d7b83398151915281565b3480156103c457600080fd5b506102976103d3366004613608565b610d8c565b3480156103e457600080fd5b506102976103f336600461365c565b610e66565b34801561040457600080fd5b506104186104133660046133f3565b610fa2565b60405190815260200161034d565b34801561043257600080fd5b506102976104413660046136ad565b600a8054911515600160a81b0260ff60a81b19909216919091179055565b34801561046b57600080fd5b5061029761047a3660046136ad565b600c805460ff1916911515919091179055565b34801561049957600080fd5b506102976104a8366004613608565b61103a565b3480156104b957600080fd5b506104186104c83660046136ca565b61104c565b3480156104d957600080fd5b506102976104e83660046133cf565b6111b0565b3480156104f957600080fd5b506102976105083660046136ad565b600a8054911515600160b81b0260ff60b81b19909216919091179055565b34801561053257600080fd5b506104186105413660046135c5565b611253565b34801561055257600080fd5b506104186112ec565b34801561056757600080fd5b506102976105763660046136e7565b61135e565b34801561058757600080fd5b5061033961059636600461373a565b61157e565b3480156105a757600080fd5b506102976105b63660046133a3565b611678565b3480156105c757600080fd5b506102976105d63660046136ad565b600a8054911515600160a01b0260ff60a01b19909216919091179055565b34801561060057600080fd5b5061029761060f366004613608565b6116ef565b34801561062057600080fd5b5061029761062f3660046135ac565b611796565b34801561064057600080fd5b506106496117b4565b604051901515815260200161034d565b34801561066557600080fd5b506104186106743660046135ac565b6118d7565b34801561068557600080fd5b506102976106943660046133a3565b61196e565b3480156106a557600080fd5b506104186106b43660046135ac565b6119a1565b3480156106c557600080fd5b506104186106d4366004613777565b6119f3565b3480156106e557600080fd5b506104186106f43660046137d0565b611a73565b34801561070557600080fd5b5061029761071436600461342e565b611b06565b34801561072557600080fd5b506102976107343660046135ac565b611bb1565b34801561074557600080fd5b50610297610754366004613608565b611bf7565b34801561076557600080fd5b506102976107743660046135ac565b600b55565b34801561078557600080fd5b506104186107943660046133f3565b611ce8565b3480156107a557600080fd5b506102976107b43660046133a3565b611d72565b3480156107c557600080fd5b506102976107d4366004613608565b611e11565b3480156107e557600080fd5b506000546106499062010000900460ff1681565b34801561080557600080fd5b506000546106499060ff1681565b34801561081f57600080fd5b5061041861082e366004613802565b611e88565b34801561083f57600080fd5b5061064961084e3660046135ac565b611f16565b34801561085f57600080fd5b5061029761086e3660046136ad565b600a8054911515600160b01b0260ff60b01b19909216919091179055565b7f1d40f406e1d1d9e4f71d0e95a7eaf3dc4b8636e5fa6479de475eaebd4f15c0c28686868686866040516108c596959493929190613864565b60405180910390a1505050505050565b60405163c88a5e6d60e01b8152600080516020613d7b8339815191529063c88a5e6d90610908908590859060040161389d565b600060405180830381600087803b15801561092257600080fd5b505af1158015610936573d6000803e3d6000fd5b50506040516303223eab60e11b81526001600160a01b0385166004820152600080516020613d7b83398151915292506306447d5691506024015b600060405180830381600087803b15801561098a57600080fd5b505af115801561099e573d6000803e3d6000fd5b505050505050565b60405163c88a5e6d60e01b8152600080516020613d7b8339815191529063c88a5e6d906109dd908490600160801b9060040161389d565b600060405180830381600087803b1580156109f757600080fd5b505af1158015610a0b573d6000803e3d6000fd5b505060405163ca669fa760e01b81526001600160a01b0384166004820152600080516020613d7b833981519152925063ca669fa791506024015b600060405180830381600087803b158015610a5f57600080fd5b505af1158015610a73573d6000803e3d6000fd5b5050505050565b600854600954600a54604051636a4f769160e01b81526001600160a01b0393841693636a4f769193610ac293908216929116908a908a908a906000908b908b906004016138b6565b600060405180830381600087803b158015610adc57600080fd5b505af1158015610af0573d6000803e3d6000fd5b505050505050505050565b60405163c88a5e6d60e01b8152600080516020613d7b8339815191529063c88a5e6d90610b32908590600160801b9060040161389d565b600060405180830381600087803b158015610b4c57600080fd5b505af1158015610b60573d6000803e3d6000fd5b50506040516323f2866760e11b81526001600160a01b03808616600483015284166024820152600080516020613d7b83398151915292506347e50cce9150604401610970565b604051638d1cc92560e01b81526000908190600080516020613d7b83398151915290638d1cc92590610bdc908790600401613952565b6000604051808303816000875af1158015610bfb573d6000803e3d6000fd5b505050506040513d6000823e601f3d908101601f19168201604052610c239190810190613965565b83604051602001610c359291906139d3565b60405160208183030381529060405290508051602082016000f091506001600160a01b038216610cc65760405162461bcd60e51b815260206004820152603160248201527f54657374206465706c6f79436f646528737472696e672c6279746573293a204460448201527032b83637bcb6b2b73a103330b4b632b21760791b60648201526084015b60405180910390fd5b5092915050565b600080516020613d7b83398151915263e5d6bf02610ceb8342613a18565b6040518263ffffffff1660e01b8152600401610a4591815260200190565b600854600954600a54604051636a4f769160e01b81526001600160a01b0393841693636a4f7691938693610d52939183169216908c908c908c906000908d908d906004016138b6565b6000604051808303818588803b158015610d6b57600080fd5b505af1158015610d7f573d6000803e3d6000fd5b5050505050505050505050565b60405163c88a5e6d60e01b8152600080516020613d7b8339815191529063c88a5e6d90610dbf908690859060040161389d565b600060405180830381600087803b158015610dd957600080fd5b505af1158015610ded573d6000803e3d6000fd5b50506040516308b6ac0f60e31b81526001600160a01b03808716600483015285166024820152600080516020613d7b83398151915292506345b5607891506044015b600060405180830381600087803b158015610e4957600080fd5b505af1158015610e5d573d6000803e3d6000fd5b50505050505050565b600c5460ff1615610ea85760405162461bcd60e51b815260206004820152600c60248201526b1c1bdcdd1a1bdbdad1985a5b60a21b6044820152606401610cbd565b600b5415610ef657610ef68160200135600b546040518060400160405280601881526020017f496e636f727265637420737461747573206d6573736167650000000000000000815250611f86565b600a54600160b81b900460ff1615610f9e576008546001600160a01b0316636a4f7691610f2660208501856133cf565b610f3660408601602087016133cf565b606080870135901c6bffffffffffffffffffffffff166bffffffffffffffffffffffff60608801351660c088013560481c62ffffff16600060608a013560e01c8a604001356040518963ffffffff1660e01b81526004016109709897969594939291906138b6565b5050565b600854600954600a5460405163127db4b760e21b81526000936001600160a01b03908116936349f6d2dc938793610fed9392831692909116908c908c908c908a908d90600401613a2f565b60206040518083038185885af115801561100b573d6000803e3d6000fd5b50505050506040513d601f19601f820116820180604052508101906110309190613a6d565b9695505050505050565b611047838383600061135e565b505050565b600a54600090600160b01b900460ff1615611087576040805160208082019092526f1d195cdd13585ad95c8bdc995d995c9d60821b81529081fd5b7f1d40f406e1d1d9e4f71d0e95a7eaf3dc4b8636e5fa6479de475eaebd4f15c0c2336110b660208501856133cf565b6110c660408601602087016133cf565b856040013586608001358760a001356040516110e796959493929190613864565b60405180910390a1600a54600160a01b900460ff16156111875761110e60208301836133cf565b60085460405163095ea7b360e01b81526001600160a01b039283169263095ea7b3926111429291169060009060040161389d565b6020604051808303816000875af1158015611161573d6000803e3d6000fd5b505050506040513d601f19601f820116820180604052508101906111859190613a86565b505b600a54600160a81b900460ff16156111a857506418589bdc9d60da1b919050565b506000919050565b60405163c88a5e6d60e01b8152600080516020613d7b8339815191529063c88a5e6d906111e7908490600160801b9060040161389d565b600060405180830381600087803b15801561120157600080fd5b505af1158015611215573d6000803e3d6000fd5b50506040516303223eab60e11b81526001600160a01b0384166004820152600080516020613d7b83398151915292506306447d569150602401610a45565b600854600954600a5460405163127db4b760e21b81526000936001600160a01b03908116936349f6d2dc93879361129e9392831692909116908d908d908d908d908d90600401613a2f565b60206040518083038185885af11580156112bc573d6000803e3d6000fd5b50505050506040513d601f19601f820116820180604052508101906112e19190613a6d565b979650505050505050565b6008546040516370a0823160e01b81523060048201526000916001600160a01b0316906370a0823190602401602060405180830381865afa158015611335573d6000803e3d6000fd5b505050506040513d601f19601f820116820180604052508101906113599190613a6d565b905090565b604080516001600160a01b0385811660248084019190915283518084039091018152604490920183526020820180516001600160e01b03166370a0823160e01b17905291516000928716916113b291613aa3565b6000604051808303816000865af19150503d80600081146113ef576040519150601f19603f3d011682016040523d82523d6000602084013e6113f4565b606091505b5091505060008180602001905181019061140e9190613a6d565b905061147a846114748761144b6370a0823160e01b61142e60018d611fce565b9060038201805463ffffffff191660e09290921c91909117905590565b90600282018054600181018255600091825260209091206001600160a01b039290921691015590565b90611ff3565b821561099e5760408051600481526024810182526020810180516001600160e01b03166318160ddd60e01b17905290516000916001600160a01b038916916114c29190613aa3565b6000604051808303816000865af19150503d80600081146114ff576040519150601f19603f3d011682016040523d82523d6000602084013e611504565b606091505b5091505060008180602001905181019061151e9190613a6d565b905082861015611543576115328684613a18565b61153c9082613a18565b905061155a565b61154d8387613a18565b6115579082613abf565b90505b611574816114746318160ddd60e01b61142e60018d611fce565b5050505050505050565b604051638d1cc92560e01b81526000908190600080516020613d7b83398151915290638d1cc925906115b4908690600401613952565b6000604051808303816000875af11580156115d3573d6000803e3d6000fd5b505050506040513d6000823e601f3d908101601f191682016040526115fb9190810190613965565b90508051602082016000f091506001600160a01b0382166116725760405162461bcd60e51b815260206004820152602b60248201527f54657374206465706c6f79436f646528737472696e67293a204465706c6f796d60448201526a32b73a103330b4b632b21760a91b6064820152608401610cbd565b50919050565b60085460405163095ea7b360e01b81526001600160a01b038481169263095ea7b3926116ac9290911690859060040161389d565b6020604051808303816000875af11580156116cb573d6000803e3d6000fd5b505050506040513d601f19601f820116820180604052508101906110479190613a86565b60405163c88a5e6d60e01b8152600080516020613d7b8339815191529063c88a5e6d90611722908690859060040161389d565b600060405180830381600087803b15801561173c57600080fd5b505af1158015611750573d6000803e3d6000fd5b50506040516323f2866760e11b81526001600160a01b03808716600483015285166024820152600080516020613d7b83398151915292506347e50cce9150604401610e2f565b600080516020613d7b83398151915263e5d6bf02610ceb8342613abf565b60008054610100900460ff16156117d45750600054610100900460ff1690565b6000600080516020613d7b8339815191523b156118d257604051600090600080516020613d7b833981519152907f667f9d70ca411d70ead50d8d5c22070dafc36ad75f3dcf5e7237b22ade9aecc49061183c9083906519985a5b195960d21b9060200161389d565b60408051601f198184030181529082905261185a9291602001613ad7565b60408051601f198184030181529082905261187491613aa3565b6000604051808303816000865af19150503d80600081146118b1576040519150601f19603f3d011682016040523d82523d6000602084013e6118b6565b606091505b50915050808060200190518101906118ce9190613a86565b9150505b919050565b600854600954600a5460405163ad97db1b60e01b81526001600160a01b03928316600482015290821660248201526044810184905260006064820181905292919091169063ad97db1b906084015b6020604051808303816000875af1158015611944573d6000803e3d6000fd5b505050506040513d601f19601f820116820180604052508101906119689190613a6d565b92915050565b60405163c88a5e6d60e01b8152600080516020613d7b8339815191529063c88a5e6d90610970908590859060040161389d565b600854600954600a5460405163ad97db1b60e01b81526001600160a01b03928316600482015290821660248201526044810184905260016064820152600092919091169063ad97db1b90608401611925565b60085460405163127db4b760e21b81526000916001600160a01b0316906349f6d2dc90611a30908a908a908a908a908a9089908b90600401613a2f565b6020604051808303816000875af1158015611a4f573d6000803e3d6000fd5b505050506040513d601f19601f820116820180604052508101906112e19190613a6d565b600854600954600a5460405163127db4b760e21b81526000936001600160a01b03908116936349f6d2dc93611aba939183169216908a908a908a9089908b90600401613a2f565b6020604051808303816000875af1158015611ad9573d6000803e3d6000fd5b505050506040513d601f19601f82011682018060405250810190611afd9190613a6d565b95945050505050565b60405163c88a5e6d60e01b8152600080516020613d7b8339815191529063c88a5e6d90611b3d908590600160801b9060040161389d565b600060405180830381600087803b158015611b5757600080fd5b505af1158015611b6b573d6000803e3d6000fd5b50506040516308b6ac0f60e31b81526001600160a01b03808616600483015284166024820152600080516020613d7b83398151915292506345b560789150604401610970565b600854604051630460488160e31b81523060048201526001600160a01b039091169063230244089083906024016000604051808303818588803b15801561098a57600080fd5b7f280f4446b28a1372417dda658d30b95b2992b12ac9c7f378535f29a97acf3583604051611cc2906040808252600790820152665741524e494e4760c81b6060820152608060208201819052605e908201527f546573742074697028616464726573732c616464726573732c75696e7432353660a08201527f293a2054686520607469706020737464636865617420686173206265656e206460c08201527f6570726563617465642e2055736520606465616c6020696e73746561642e000060e08201526101000190565b60405180910390a1611047816114748461144b6370a0823160e01b61142e60018a611fce565b600854600954600a5460405163127db4b760e21b81526000936001600160a01b03908116936349f6d2dc93611d2f939183169216908b908b908b908b908b90600401613a2f565b6020604051808303816000875af1158015611d4e573d6000803e3d6000fd5b505050506040513d601f19601f820116820180604052508101906110309190613a6d565b60405163c88a5e6d60e01b8152600080516020613d7b8339815191529063c88a5e6d90611da5908590859060040161389d565b600060405180830381600087803b158015611dbf57600080fd5b505af1158015611dd3573d6000803e3d6000fd5b505060405163ca669fa760e01b81526001600160a01b0385166004820152600080516020613d7b833981519152925063ca669fa79150602401610970565b60405163a9059cbb60e01b81526001600160a01b0384169063a9059cbb90611e3f908590859060040161389d565b6020604051808303816000875af1158015611e5e573d6000803e3d6000fd5b505050506040513d601f19601f82011682018060405250810190611e829190613a86565b50505050565b60085460405163127db4b760e21b81526000916001600160a01b0316906349f6d2dc908490611ec7908c908c908c908c908c908a908d90600401613a2f565b60206040518083038185885af1158015611ee5573d6000803e3d6000fd5b50505050506040513d601f19601f82011682018060405250810190611f0a9190613a6d565b98975050505050505050565b600854604051632e1a7d4d60e01b8152600481018390526000916001600160a01b031690632e1a7d4d906024016020604051808303816000875af1158015611f62573d6000803e3d6000fd5b505050506040513d601f19601f820116820180604052508101906119689190613a86565b818314611047577f280f4446b28a1372417dda658d30b95b2992b12ac9c7f378535f29a97acf358381604051611fbc9190613b08565b60405180910390a16110478383611ffd565b6005820180546001600160a01b0319166001600160a01b039290921691909117905590565b610f9e8282612127565b808214610f9e577f41304facd9323d75b11bcdd609cb38effffdb05710f7caf0e9b16c6d9d709f506040516120719060208082526025908201527f4572726f723a2061203d3d2062206e6f7420736174697366696564205b627974604082015264657333325d60d81b606082015260800190565b60405180910390a160408051818152600a81830152690808115e1c1958dd195960b21b60608201526020810183905290517fafb795c9c61e4fe7468c386f925d7a5429ecad9c0495ddb8d38d690614d32f999181900360800190a160408051818152600a8183015269080808081058dd1d585b60b21b60608201526020810184905290517fafb795c9c61e4fe7468c386f925d7a5429ecad9c0495ddb8d38d690614d32f999181900360800190a1610f9e61246b565b600582015460038301546004840154600285018054604080516020808402820181019092528281526001600160a01b039096169560e09590951b946000939092909183018282801561219857602002820191906000526020600020905b815481526020019060010190808311612184575b505050505090506000836121ab83612564565b6040516020016121bc929190613ad7565b60408051601f198184030181528282526001600160a01b038816600090815260018b0160209081528382206001600160e01b03198a16835281529281209194509092909161220e918691889101613b37565b60408051601f198184030181529181528151602092830120835290820192909252016000205460ff166122465761224487612604565b505b6001600160a01b0385166000908152602088815260408083206001600160e01b0319881684528252808320905190918391612285918791899101613b37565b6040516020818303038152906040528051906020012081526020019081526020016000205460001b9050600080876001600160a01b0316846040516122ca9190613aa3565b600060405180830381855afa9150503d8060008114612305576040519150601f19603f3d011682016040523d82523d6000602084013e61230a565b606091505b50915061232390508161231e886020613b71565b613272565b604051630667f9d760e41b815290925060009150600080516020613d7b8339815191529063667f9d709061235d908b90879060040161389d565b6020604051808303816000875af115801561237c573d6000803e3d6000fd5b505050506040513d601f19601f820116820180604052508101906123a09190613a6d565b90508082146123c15760405162461bcd60e51b8152600401610cbd90613b90565b6040516370ca10bb60e01b8152600080516020613d7b833981519152906370ca10bb906123f6908b9087908e90600401613c2b565b600060405180830381600087803b15801561241057600080fd5b505af1158015612424573d6000803e3d6000fd5b50505060058b0180546001600160a01b03191690555060038a01805463ffffffff1916905561245760028b0160006132ef565b896004016000905550505050505050505050565b600080516020613d7b8339815191523b1561255357604051600090600080516020613d7b833981519152907f70ca10bbd0dbfd9020a9f4b13402c16cb120705e0d1c0aeab10fa353ae586fc4906124d49083906519985a5b195960d21b90600190602001613c2b565b60408051601f19818403018152908290526124f29291602001613ad7565b60408051601f198184030181529082905261250c91613aa3565b6000604051808303816000865af19150503d8060008114612549576040519150601f19603f3d011682016040523d82523d6000602084013e61254e565b606091505b505050505b6000805461ff001916610100179055565b60606000825160206125769190613b71565b67ffffffffffffffff81111561258e5761258e613467565b6040519080825280601f01601f1916602001820160405280156125b8576020820181803683370190505b50905060005b8351811015610cc65760008482815181106125db576125db613c4c565b6020026020010151905080826020026020018401525080806125fc90613c62565b9150506125be565b600581015460038201546004830154600284018054604080516020808402820181019092528281526000966001600160a01b03169560e01b94938793919290919083018282801561267457602002820191906000526020600020905b815481526020019060010190808311612660575b5050506001600160a01b038716600090815260018a01602090815260408083206001600160e01b03198a16845282528083209051959650949193506126be92508591879101613b37565b60408051601f198184030181529181528151602092830120835290820192909252016000205460ff161561275a576001600160a01b0384166000908152602087815260408083206001600160e01b0319871684528252808320905190929161272a918591879101613b37565b60405160208183030381529060405280519060200120815260200190815260200160002054945050505050919050565b60008361276683612564565b604051602001612777929190613ad7565b6040516020818303038152906040529050600080516020613d9b83398151915260001c6001600160a01b031663266cf1096040518163ffffffff1660e01b8152600401600060405180830381600087803b1580156127d457600080fd5b505af11580156127e8573d6000803e3d6000fd5b50505050600080866001600160a01b0316836040516128079190613aa3565b600060405180830381855afa9150503d8060008114612842576040519150601f19603f3d011682016040523d82523d6000602084013e612847565b606091505b50915061285b90508161231e876020613b71565b6040516365bc948160e01b81526001600160a01b038916600482015290925060009150600080516020613d7b833981519152906365bc9481906024016000604051808303816000875af11580156128b6573d6000803e3d6000fd5b505050506040513d6000823e601f3d908101601f191682016040526128de9190810190613cf0565b5090508051600103612b85576000600080516020613d9b83398151915260001c6001600160a01b031663667f9d70898460008151811061292057612920613c4c565b60200260200101516040518363ffffffff1660e01b815260040161294592919061389d565b6020604051808303816000875af1158015612964573d6000803e3d6000fd5b505050506040513d601f19601f820116820180604052508101906129889190613a6d565b9050806129e6577f080fc4a96620c4462e705b23f346413fe3796bb63c6f8d8591baec0e231577a588836000815181106129c4576129c4613c4c565b602002602001015160001c6040516129dd92919061389d565b60405180910390a15b808314612a055760405162461bcd60e51b8152600401610cbd90613b90565b7f9c9555b1e3102e3cf48f427d79cb678f5d9bd1ed0ad574389461e255f95170ed88888789604051602001612a3b929190613b37565b6040516020818303038152906040528051906020012085600081518110612a6457612a64613c4c565b602002602001015160001c604051612a7f9493929190613d4a565b60405180910390a181600081518110612a9a57612a9a613c4c565b6020908102919091018101516001600160a01b038a1660009081528c835260408082206001600160e01b03198c1683528452808220905192939092612ae3918a918c9101613b37565b60408051601f1981840301815291815281516020928301208352828201939093529082016000908120939093556001600160a01b038b16835260018d810182528284206001600160e01b03198c16855282528284209251909391612b4b918a918c9101613b37565b60408051808303601f19018152918152815160209283012083529082019290925201600020805460ff1916911515919091179055506130fd565b60018151111561308d5760005b8151811015613087576000600080516020613d9b83398151915260001c6001600160a01b031663667f9d708a858581518110612bd057612bd0613c4c565b60200260200101516040518363ffffffff1660e01b8152600401612bf592919061389d565b6020604051808303816000875af1158015612c14573d6000803e3d6000fd5b505050506040513d601f19601f82011682018060405250810190612c389190613a6d565b905080612c95577f080fc4a96620c4462e705b23f346413fe3796bb63c6f8d8591baec0e231577a589848481518110612c7357612c73613c4c565b602002602001015160001c604051612c8c92919061389d565b60405180910390a15b600080516020613d9b83398151915260001c6001600160a01b03166370ca10bb8a858581518110612cc857612cc8613c4c565b602002602001015161133760f01b6040518463ffffffff1660e01b8152600401612cf493929190613c2b565b600060405180830381600087803b158015612d0e57600080fd5b505af1158015612d22573d6000803e3d6000fd5b50505050600060608a6001600160a01b031687604051612d429190613aa3565b600060405180830381855afa9150503d8060008114612d7d576040519150601f19603f3d011682016040523d82523d6000602084013e612d82565b606091505b509092509050612d978161231e8b6020613b71565b9550818015612daa575061133760f01b86145b15612fe5577f9c9555b1e3102e3cf48f427d79cb678f5d9bd1ed0ad574389461e255f95170ed8b8b8a8c604051602001612de5929190613b37565b60405160208183030381529060405280519060200120888881518110612e0d57612e0d613c4c565b602002602001015160001c604051612e289493929190613d4a565b60405180910390a1848481518110612e4257612e42613c4c565b6020908102919091018101516001600160a01b038d1660009081528f835260408082206001600160e01b03198f1683528452808220905192939092612e8b918d918f9101613b37565b6040516020818303038152906040528051906020012081526020019081526020016000208190555060018d60010160008d6001600160a01b03166001600160a01b0316815260200190815260200160002060008c6001600160e01b0319166001600160e01b031916815260200190815260200160002060008a8c604051602001612f16929190613b37565b60405160208183030381529060405280519060200120815260200190815260200160002060006101000a81548160ff021916908315150217905550600080516020613d9b83398151915260001c6001600160a01b03166370ca10bb8c878781518110612f8457612f84613c4c565b6020026020010151866040518463ffffffff1660e01b8152600401612fab93929190613c2b565b600060405180830381600087803b158015612fc557600080fd5b505af1158015612fd9573d6000803e3d6000fd5b50505050505050613087565b600080516020613d9b83398151915260001c6001600160a01b03166370ca10bb8c87878151811061301857613018613c4c565b6020026020010151866040518463ffffffff1660e01b815260040161303f93929190613c2b565b600060405180830381600087803b15801561305957600080fd5b505af115801561306d573d6000803e3d6000fd5b50505050505050808061307f90613c62565b915050612b92565b506130fd565b6040805162461bcd60e51b81526020600482015260248101919091527f73746453746f726167652066696e642853746453746f72616765293a204e6f2060448201527f73746f726167652075736520646574656374656420666f72207461726765742e6064820152608401610cbd565b6001600160a01b038716600090815260018a01602090815260408083206001600160e01b03198a1684528252808320905190929161313f9188918a9101613b37565b60408051601f198184030181529181528151602092830120835290820192909252016000205460ff166131cc5760405162461bcd60e51b815260206004820152602f60248201527f73746453746f726167652066696e642853746453746f72616765293a20536c6f60448201526e3a143994903737ba103337bab7321760891b6064820152608401610cbd565b6005890180546001600160a01b031916905560038901805463ffffffff191690556131fb60028a0160006132ef565b600060048a018190556001600160a01b038816815260208a815260408083206001600160e01b03198a1684528252808320905190929161323f9188918a9101613b37565b60405160208183030381529060405280519060200120815260200190815260200160002054975050505050505050919050565b6000806000602085511161328757845161328a565b60205b905060005b818110156132e5576132a2816008613b71565b866132ad8388613abf565b815181106132bd576132bd613c4c565b01602001516001600160f81b031916901c9290921791806132dd81613c62565b91505061328f565b5090949350505050565b508054600082559060005260206000209081019061330d9190613310565b50565b5b808211156133255760008155600101613311565b5090565b6001600160a01b038116811461330d57600080fd5b60008060008060008060c0878903121561335757600080fd5b863561336281613329565b9550602087013561337281613329565b9450604087013561338281613329565b959894975094956060810135955060808101359460a0909101359350915050565b600080604083850312156133b657600080fd5b82356133c181613329565b946020939093013593505050565b6000602082840312156133e157600080fd5b81356133ec81613329565b9392505050565b600080600080600060a0868803121561340b57600080fd5b505083359560208501359550604085013594606081013594506080013592509050565b6000806040838503121561344157600080fd5b823561344c81613329565b9150602083013561345c81613329565b809150509250929050565b634e487b7160e01b600052604160045260246000fd5b604051601f8201601f1916810167ffffffffffffffff811182821017156134a6576134a6613467565b604052919050565b600067ffffffffffffffff8211156134c8576134c8613467565b50601f01601f191660200190565b60006134e96134e4846134ae565b61347d565b90508281528383830111156134fd57600080fd5b828260208301376000602084830101529392505050565b600082601f83011261352557600080fd5b6133ec838335602085016134d6565b6000806040838503121561354757600080fd5b823567ffffffffffffffff8082111561355f57600080fd5b61356b86838701613514565b9350602085013591508082111561358157600080fd5b508301601f8101851361359357600080fd5b6135a2858235602084016134d6565b9150509250929050565b6000602082840312156135be57600080fd5b5035919050565b60008060008060008060c087890312156135de57600080fd5b505084359660208601359650604086013595606081013595506080810135945060a0013592509050565b60008060006060848603121561361d57600080fd5b833561362881613329565b9250602084013561363881613329565b929592945050506040919091013590565b6000610120828403121561167257600080fd5b60008082840361016081121561367157600080fd5b61367b8585613649565b9250604061011f198201121561369057600080fd5b50610120830190509250929050565b801515811461330d57600080fd5b6000602082840312156136bf57600080fd5b81356133ec8161369f565b600061012082840312156136dd57600080fd5b6133ec8383613649565b600080600080608085870312156136fd57600080fd5b843561370881613329565b9350602085013561371881613329565b925060408501359150606085013561372f8161369f565b939692955090935050565b60006020828403121561374c57600080fd5b813567ffffffffffffffff81111561376357600080fd5b61376f84828501613514565b949350505050565b60008060008060008060c0878903121561379057600080fd5b863561379b81613329565b955060208701356137ab81613329565b95989597505050506040840135936060810135936080820135935060a0909101359150565b600080600080608085870312156137e657600080fd5b5050823594602084013594506040840135936060013592509050565b600080600080600080600060e0888a03121561381d57600080fd5b873561382881613329565b9650602088013561383881613329565b96999698505050506040850135946060810135946080820135945060a0820135935060c0909101359150565b6001600160a01b03968716815294861660208601529290941660408401526060830152608082019290925260a081019190915260c00190565b6001600160a01b03929092168252602082015260400190565b6001600160a01b03988916815296909716602087015260408601949094526060850192909252608084015260a083015260c082015260e08101919091526101000190565b60005b838110156139155781810151838201526020016138fd565b83811115611e825750506000910152565b6000815180845261393e8160208601602086016138fa565b601f01601f19169290920160200192915050565b6020815260006133ec6020830184613926565b60006020828403121561397757600080fd5b815167ffffffffffffffff81111561398e57600080fd5b8201601f8101841361399f57600080fd5b80516139ad6134e4826134ae565b8181528560208385010111156139c257600080fd5b611afd8260208301602086016138fa565b600083516139e58184602088016138fa565b8351908301906139f98183602088016138fa565b01949350505050565b634e487b7160e01b600052601160045260246000fd5b600082821015613a2a57613a2a613a02565b500390565b6001600160a01b03978816815295909616602086015260408501939093526060840191909152608083015260a082015260c081019190915260e00190565b600060208284031215613a7f57600080fd5b5051919050565b600060208284031215613a9857600080fd5b81516133ec8161369f565b60008251613ab58184602087016138fa565b9190910192915050565b60008219821115613ad257613ad2613a02565b500190565b6001600160e01b0319831681528151600090613afa8160048501602087016138fa565b919091016004019392505050565b60408152600560408201526422b93937b960d91b60608201526080602082015260006133ec6080830184613926565b825160009082906020808701845b83811015613b6157815185529382019390820190600101613b45565b5050948252509092019392505050565b6000816000190483118215151615613b8b57613b8b613a02565b500290565b6020808252606f908201527f73746453746f726167652066696e642853746453746f72616765293a2050616360408201527f6b656420736c6f742e205468697320776f756c642063617573652064616e676560608201527f726f7573206f76657277726974696e6720616e642063757272656e746c79206960808201526e39b713ba1039bab83837b93a32b21760891b60a082015260c00190565b6001600160a01b039390931683526020830191909152604082015260600190565b634e487b7160e01b600052603260045260246000fd5b600060018201613c7457613c74613a02565b5060010190565b600082601f830112613c8c57600080fd5b8151602067ffffffffffffffff821115613ca857613ca8613467565b8160051b613cb782820161347d565b9283528481018201928281019087851115613cd157600080fd5b83870192505b848310156112e157825182529183019190830190613cd7565b60008060408385031215613d0357600080fd5b825167ffffffffffffffff80821115613d1b57600080fd5b613d2786838701613c7b565b93506020850151915080821115613d3d57600080fd5b506135a285828601613c7b565b6001600160a01b039490941684526001600160e01b0319929092166020840152604083015260608201526080019056fe0000000000000000000000007109709ecfa91a80626ff3989d68f67f5b1dd12d885cb69240a935d632d79c317109709ecfa91a80626ff3989d68f67f5b1dd12da2646970667358221220f9422ffe2dc0cea5614cee05acbced5148d638eb509e3a6adff8d2274a16877b64736f6c634300080e0033a264697066735822122015d66ca0797b173b00ee5f4ef88a00f3037e9384fb101d577dd391797849ef3964736f6c634300080e0033",
    "linkReferences": {}
  },
  "methodIdentifiers": {
    "deploy(uint256)": "a5e38751",
    "dispatch()": "e9c4a3ac",
    "getMaker(uint256)": "56861532",
    "length()": "1f7b6d32"
  },
  "id": 79
}