{
  "abi": [
    {
      "inputs": [
        {
          "internalType": "contract IMangrove",
          "name": "_MGV",
          "type": "address"
        },
        {
          "internalType": "address",
          "name": "deployer",
          "type": "address"
        }
      ],
      "stateMutability": "nonpayable",
      "type": "constructor"
    },
    {
      "anonymous": false,
      "inputs": [
        {
          "indexed": true,
          "internalType": "contract IMangrove",
          "name": "mangrove",
          "type": "address"
        },
        {
          "indexed": true,
          "internalType": "address",
          "name": "user",
          "type": "address"
        },
        {
          "indexed": false,
          "internalType": "uint256",
          "name": "amount",
          "type": "uint256"
        }
      ],
      "name": "CreditMgvUser",
      "type": "event"
    },
    {
      "anonymous": false,
      "inputs": [
        {
          "indexed": true,
          "internalType": "contract IMangrove",
          "name": "mangrove",
          "type": "address"
        },
        {
          "indexed": true,
          "internalType": "address",
          "name": "user",
          "type": "address"
        },
        {
          "indexed": false,
          "internalType": "uint256",
          "name": "amount",
          "type": "uint256"
        }
      ],
      "name": "DebitMgvUser",
      "type": "event"
    },
    {
      "anonymous": false,
      "inputs": [
        {
          "indexed": false,
          "internalType": "contract IMangrove",
          "name": "mangrove",
          "type": "address"
        },
        {
          "indexed": true,
          "internalType": "contract IERC20",
          "name": "outbound_tkn",
          "type": "address"
        },
        {
          "indexed": true,
          "internalType": "contract IERC20",
          "name": "inbound_tkn",
          "type": "address"
        },
        {
          "indexed": true,
          "internalType": "uint256",
          "name": "offerId",
          "type": "uint256"
        },
        {
          "indexed": false,
          "internalType": "bytes32",
          "name": "reason",
          "type": "bytes32"
        }
      ],
      "name": "LogIncident",
      "type": "event"
    },
    {
      "anonymous": false,
      "inputs": [
        {
          "indexed": false,
          "internalType": "contract IMangrove",
          "name": "mangrove",
          "type": "address"
        },
        {
          "indexed": true,
          "internalType": "contract IERC20",
          "name": "outbound_tkn",
          "type": "address"
        },
        {
          "indexed": true,
          "internalType": "contract IERC20",
          "name": "inbound_tkn",
          "type": "address"
        },
        {
          "indexed": true,
          "internalType": "uint256",
          "name": "offerId",
          "type": "uint256"
        },
        {
          "indexed": false,
          "internalType": "address",
          "name": "owner",
          "type": "address"
        }
      ],
      "name": "NewOwnedOffer",
      "type": "event"
    },
    {
      "anonymous": false,
      "inputs": [
        {
          "indexed": false,
          "internalType": "uint256",
          "name": "",
          "type": "uint256"
        }
      ],
      "name": "SetGasreq",
      "type": "event"
    },
    {
      "anonymous": false,
      "inputs": [
        {
          "indexed": false,
          "internalType": "contract AbstractRouter",
          "name": "",
          "type": "address"
        }
      ],
      "name": "SetRouter",
      "type": "event"
    },
    {
      "inputs": [],
      "name": "MGV",
      "outputs": [
        {
          "internalType": "contract IMangrove",
          "name": "",
          "type": "address"
        }
      ],
      "stateMutability": "view",
      "type": "function"
    },
    {
      "inputs": [
        {
          "internalType": "contract IERC20[]",
          "name": "tokens",
          "type": "address[]"
        }
      ],
      "name": "activate",
      "outputs": [],
      "stateMutability": "nonpayable",
      "type": "function"
    },
    {
      "inputs": [],
      "name": "admin",
      "outputs": [
        {
          "internalType": "address",
          "name": "",
          "type": "address"
        }
      ],
      "stateMutability": "view",
      "type": "function"
    },
    {
      "inputs": [
        {
          "internalType": "contract IERC20",
          "name": "outbound_tkn",
          "type": "address"
        }
      ],
      "name": "approveMangrove",
      "outputs": [],
      "stateMutability": "nonpayable",
      "type": "function"
    },
    {
      "inputs": [
        {
          "internalType": "contract IERC20",
          "name": "token",
          "type": "address"
        }
      ],
      "name": "approveRouter",
      "outputs": [],
      "stateMutability": "nonpayable",
      "type": "function"
    },
    {
      "inputs": [
        {
          "internalType": "contract IERC20[]",
          "name": "tokens",
          "type": "address[]"
        }
      ],
      "name": "checkList",
      "outputs": [],
      "stateMutability": "view",
      "type": "function"
    },
    {
      "inputs": [
        {
          "internalType": "contract IERC20",
          "name": "outbound_tkn",
          "type": "address"
        },
        {
          "internalType": "contract IERC20",
          "name": "inbound_tkn",
          "type": "address"
        },
        {
          "internalType": "uint256",
          "name": "gasreq",
          "type": "uint256"
        },
        {
          "internalType": "uint256",
          "name": "gasprice",
          "type": "uint256"
        },
        {
          "internalType": "uint256",
          "name": "offerId",
          "type": "uint256"
        }
      ],
      "name": "getMissingProvision",
      "outputs": [
        {
          "internalType": "uint256",
          "name": "",
          "type": "uint256"
        }
      ],
      "stateMutability": "view",
      "type": "function"
    },
    {
      "inputs": [],
      "name": "has_router",
      "outputs": [
        {
          "internalType": "bool",
          "name": "",
          "type": "bool"
        }
      ],
      "stateMutability": "view",
      "type": "function"
    },
    {
      "inputs": [
        {
          "components": [
            {
              "internalType": "address",
              "name": "outbound_tkn",
              "type": "address"
            },
            {
              "internalType": "address",
              "name": "inbound_tkn",
              "type": "address"
            },
            {
              "internalType": "uint256",
              "name": "offerId",
              "type": "uint256"
            },
            {
              "internalType": "t",
              "name": "offer",
              "type": "uint256"
            },
            {
              "internalType": "uint256",
              "name": "wants",
              "type": "uint256"
            },
            {
              "internalType": "uint256",
              "name": "gives",
              "type": "uint256"
            },
            {
              "internalType": "t",
              "name": "offerDetail",
              "type": "uint256"
            },
            {
              "internalType": "t",
              "name": "global",
              "type": "uint256"
            },
            {
              "internalType": "t",
              "name": "local",
              "type": "uint256"
            }
          ],
          "internalType": "struct MgvLib.SingleOrder",
          "name": "order",
          "type": "tuple"
        }
      ],
      "name": "makerExecute",
      "outputs": [
        {
          "internalType": "bytes32",
          "name": "ret",
          "type": "bytes32"
        }
      ],
      "stateMutability": "nonpayable",
      "type": "function"
    },
    {
      "inputs": [
        {
          "components": [
            {
              "internalType": "address",
              "name": "outbound_tkn",
              "type": "address"
            },
            {
              "internalType": "address",
              "name": "inbound_tkn",
              "type": "address"
            },
            {
              "internalType": "uint256",
              "name": "offerId",
              "type": "uint256"
            },
            {
              "internalType": "t",
              "name": "offer",
              "type": "uint256"
            },
            {
              "internalType": "uint256",
              "name": "wants",
              "type": "uint256"
            },
            {
              "internalType": "uint256",
              "name": "gives",
              "type": "uint256"
            },
            {
              "internalType": "t",
              "name": "offerDetail",
              "type": "uint256"
            },
            {
              "internalType": "t",
              "name": "global",
              "type": "uint256"
            },
            {
              "internalType": "t",
              "name": "local",
              "type": "uint256"
            }
          ],
          "internalType": "struct MgvLib.SingleOrder",
          "name": "order",
          "type": "tuple"
        },
        {
          "components": [
            {
              "internalType": "bytes32",
              "name": "makerData",
              "type": "bytes32"
            },
            {
              "internalType": "bytes32",
              "name": "mgvData",
              "type": "bytes32"
            }
          ],
          "internalType": "struct MgvLib.OrderResult",
          "name": "result",
          "type": "tuple"
        }
      ],
      "name": "makerPosthook",
      "outputs": [],
      "stateMutability": "nonpayable",
      "type": "function"
    },
    {
      "inputs": [
        {
          "components": [
            {
              "internalType": "contract IERC20",
              "name": "outbound_tkn",
              "type": "address"
            },
            {
              "internalType": "contract IERC20",
              "name": "inbound_tkn",
              "type": "address"
            },
            {
              "internalType": "uint256",
              "name": "wants",
              "type": "uint256"
            },
            {
              "internalType": "uint256",
              "name": "gives",
              "type": "uint256"
            },
            {
              "internalType": "uint256",
              "name": "gasreq",
              "type": "uint256"
            },
            {
              "internalType": "uint256",
              "name": "gasprice",
              "type": "uint256"
            },
            {
              "internalType": "uint256",
              "name": "pivotId",
              "type": "uint256"
            },
            {
              "internalType": "uint256",
              "name": "offerId",
              "type": "uint256"
            }
          ],
          "internalType": "struct IOfferLogic.MakerOrder",
          "name": "mko",
          "type": "tuple"
        }
      ],
      "name": "newOffer",
      "outputs": [
        {
          "internalType": "uint256",
          "name": "offerId",
          "type": "uint256"
        }
      ],
      "stateMutability": "payable",
      "type": "function"
    },
    {
      "inputs": [
        {
          "internalType": "contract IERC20",
          "name": "outbound_tkn",
          "type": "address"
        },
        {
          "internalType": "contract IERC20",
          "name": "inbound_tkn",
          "type": "address"
        },
        {
          "internalType": "uint256[]",
          "name": "offerIds",
          "type": "uint256[]"
        }
      ],
      "name": "offerOwners",
      "outputs": [
        {
          "internalType": "address[]",
          "name": "_offerOwners",
          "type": "address[]"
        }
      ],
      "stateMutability": "view",
      "type": "function"
    },
    {
      "inputs": [],
      "name": "ofr_gasreq",
      "outputs": [
        {
          "internalType": "uint256",
          "name": "",
          "type": "uint256"
        }
      ],
      "stateMutability": "view",
      "type": "function"
    },
    {
      "inputs": [
        {
          "internalType": "contract IERC20",
          "name": "outbound_tkn",
          "type": "address"
        },
        {
          "internalType": "contract IERC20",
          "name": "inbound_tkn",
          "type": "address"
        },
        {
          "internalType": "uint256",
          "name": "offerId",
          "type": "uint256"
        }
      ],
      "name": "ownerOf",
      "outputs": [
        {
          "internalType": "address",
          "name": "owner",
          "type": "address"
        }
      ],
      "stateMutability": "view",
      "type": "function"
    },
    {
      "inputs": [],
      "name": "reserve",
      "outputs": [
        {
          "internalType": "address",
          "name": "",
          "type": "address"
        }
      ],
      "stateMutability": "view",
      "type": "function"
    },
    {
      "inputs": [
        {
          "internalType": "contract IERC20",
          "name": "outbound_tkn",
          "type": "address"
        },
        {
          "internalType": "contract IERC20",
          "name": "inbound_tkn",
          "type": "address"
        },
        {
          "internalType": "uint256",
          "name": "offerId",
          "type": "uint256"
        },
        {
          "internalType": "bool",
          "name": "deprovision",
          "type": "bool"
        }
      ],
      "name": "retractOffer",
      "outputs": [
        {
          "internalType": "uint256",
          "name": "free_wei",
          "type": "uint256"
        }
      ],
      "stateMutability": "nonpayable",
      "type": "function"
    },
    {
      "inputs": [],
      "name": "router",
      "outputs": [
        {
          "internalType": "contract AbstractRouter",
          "name": "",
          "type": "address"
        }
      ],
      "stateMutability": "view",
      "type": "function"
    },
    {
      "inputs": [
        {
          "internalType": "address",
          "name": "_admin",
          "type": "address"
        }
      ],
      "name": "set_admin",
      "outputs": [],
      "stateMutability": "nonpayable",
      "type": "function"
    },
    {
      "inputs": [
        {
          "internalType": "uint256",
          "name": "gasreq",
          "type": "uint256"
        }
      ],
      "name": "set_gasreq",
      "outputs": [],
      "stateMutability": "nonpayable",
      "type": "function"
    },
    {
      "inputs": [
        {
          "internalType": "address",
          "name": "__reserve",
          "type": "address"
        }
      ],
      "name": "set_reserve",
      "outputs": [],
      "stateMutability": "nonpayable",
      "type": "function"
    },
    {
      "inputs": [
        {
          "internalType": "contract AbstractRouter",
          "name": "router_",
          "type": "address"
        }
      ],
      "name": "set_router",
      "outputs": [],
      "stateMutability": "nonpayable",
      "type": "function"
    },
    {
      "inputs": [
        {
          "internalType": "contract IERC20",
          "name": "token",
          "type": "address"
        }
      ],
      "name": "tokenBalance",
      "outputs": [
        {
          "internalType": "uint256",
          "name": "",
          "type": "uint256"
        }
      ],
      "stateMutability": "view",
      "type": "function"
    },
    {
      "inputs": [
        {
          "components": [
            {
              "internalType": "contract IERC20",
              "name": "outbound_tkn",
              "type": "address"
            },
            {
              "internalType": "contract IERC20",
              "name": "inbound_tkn",
              "type": "address"
            },
            {
              "internalType": "uint256",
              "name": "wants",
              "type": "uint256"
            },
            {
              "internalType": "uint256",
              "name": "gives",
              "type": "uint256"
            },
            {
              "internalType": "uint256",
              "name": "gasreq",
              "type": "uint256"
            },
            {
              "internalType": "uint256",
              "name": "gasprice",
              "type": "uint256"
            },
            {
              "internalType": "uint256",
              "name": "pivotId",
              "type": "uint256"
            },
            {
              "internalType": "uint256",
              "name": "offerId",
              "type": "uint256"
            }
          ],
          "internalType": "struct IOfferLogic.MakerOrder",
          "name": "mko",
          "type": "tuple"
        }
      ],
      "name": "updateOffer",
      "outputs": [],
      "stateMutability": "payable",
      "type": "function"
    },
    {
      "inputs": [
        {
          "internalType": "uint256",
          "name": "amount",
          "type": "uint256"
        },
        {
          "internalType": "address payable",
          "name": "receiver",
          "type": "address"
        }
      ],
      "name": "withdrawFromMangrove",
      "outputs": [],
      "stateMutability": "nonpayable",
      "type": "function"
    },
    {
      "inputs": [
        {
          "internalType": "contract IERC20",
          "name": "token",
          "type": "address"
        },
        {
          "internalType": "address",
          "name": "receiver",
          "type": "address"
        },
        {
          "internalType": "uint256",
          "name": "amount",
          "type": "uint256"
        }
      ],
      "name": "withdrawToken",
      "outputs": [
        {
          "internalType": "bool",
          "name": "success",
          "type": "bool"
        }
      ],
      "stateMutability": "nonpayable",
      "type": "function"
    },
    {
      "stateMutability": "payable",
      "type": "receive"
    }
  ],
  "bytecode": {
    "object": "0x60a06040523480156200001157600080fd5b50604051620047cb380380620047cb83398101604081905262000034916200060d565b816040516200004390620005e6565b604051809103906000f08015801562000060573d6000803e3d6000fd5b5061753082828282813380620000bd5760405162461bcd60e51b815260206004820152601860248201527f616363657373436f6e74726f6c6c65642f307841646d696e000000000000000060448201526064015b60405180910390fd5b80620000d36200026460201b620019f91760201c565b80546001600160a01b0319166001600160a01b03929092169190911790555062ffffff81168114620001485760405162461bcd60e51b815260206004820152601b60248201527f4d616e67726f76654f666665722f676173726571546f6f4869676800000000006044820152606401620000b4565b6001600160a01b038216608052806200016c62000288602090811b62001a1d17901c565b5550506001600160a01b038216620001bc5760405162461bcd60e51b815260206004820152601260248201527126bab63a34aab9b2b917983c2937baba32b960711b6044820152606401620000b4565b620001c782620002ac565b505050505050336001600160a01b0316816001600160a01b0316146200025c57620001f28162000456565b620001fc62000551565b60405163e9333fab60e01b81526001600160a01b038381166004830152919091169063e9333fab90602401600060405180830381600087803b1580156200024257600080fd5b505af115801562000257573d6000803e3d6000fd5b505050505b50506200064c565b7f7d382ebca3e46505071795e192d28166a3d4bd0685585591bc6c5b8df6769fd290565b7fae7e31c3220e851db9f204a28b279dfe52b973600b0a456991089c220ae7222490565b620002b6620005c0565b6001600160a01b0316336001600160a01b03161480620002e957506080516001600160a01b0316336001600160a01b0316145b620003375760405162461bcd60e51b815260206004820152601860248201527f416363657373436f6e74726f6c6c65642f496e76616c696400000000000000006044820152606401620000b4565b6001600160a01b0381166200038f5760405162461bcd60e51b815260206004820152601c60248201527f6d67764f666665722f7365745f726f757465722f3078526f75746572000000006044820152606401620000b4565b80620003a56200028860201b62001a1d1760201c565b60010180546001600160a01b0319166001600160a01b039283161790556040516381bac14f60e01b8152306004820152908216906381bac14f90602401600060405180830381600087803b158015620003fd57600080fd5b505af115801562000412573d6000803e3d6000fd5b50506040516001600160a01b03841681527f6de4326a8b9054d72d9dbab97d27bc4edffadee7d966f5af9cc4eafdaf8e54559250602001905060405180910390a150565b62000460620005c0565b6001600160a01b0316336001600160a01b031614620004c25760405162461bcd60e51b815260206004820152601860248201527f416363657373436f6e74726f6c6c65642f496e76616c696400000000000000006044820152606401620000b4565b6001600160a01b0381166200051a5760405162461bcd60e51b815260206004820152601860248201527f416363657373436f6e74726f6c6c65642f307841646d696e00000000000000006044820152606401620000b4565b80620005306200026460201b620019f91760201c565b80546001600160a01b0319166001600160a01b039290921691909117905550565b600080620005696200028860201b62001a1d1760201c565b600101546001600160a01b0316905080620005bb5760405162461bcd60e51b815260206004820152601160248201527036b3bb27b33332b917983c2937baba32b960791b6044820152606401620000b4565b919050565b6000620005d76200026460201b620019f91760201c565b546001600160a01b0316919050565b61100480620037c783390190565b6001600160a01b03811681146200060a57600080fd5b50565b600080604083850312156200062157600080fd5b82516200062e81620005f4565b60208401519092506200064181620005f4565b809150509250929050565b6080516130be62000709600039600081816102c80152818161066f0152818161072d01528181610844015281816109b501528181610a4701528181610c0401528181610d2c01528181610de201528181610ea80152818161115801528181611364015281816113f0015281816115660152818161192d01528181611b4c01528181611bf201528181611c7001528181611ef9015281816121510152818161246d0152818161258f015281816128d50152612afe01526130be6000f3fe60806040526004361061016a5760003560e01c8063ad97db1b116100d1578063e9333fab1161008a578063f851a44011610064578063f851a44014610439578063f887ea401461044e578063f92495e514610463578063fc488a381461048357600080fd5b8063e9333fab146103d9578063eedc966a146103f9578063f259cd271461041957600080fd5b8063ad97db1b14610322578063cd3293de14610342578063d1baa1ef14610357578063db11851e1461036c578063dec8c86b1461038c578063e4c34f84146103b957600080fd5b80635486c95f116101235780635486c95f146102405780636c49c32c146102615780637144df241461028157806384b627f9146102a157806399fa5e2d146102b65780639f2211cb1461030257600080fd5b806301e336671461017657806303eb17e2146101ab57806310aded60146101cd5780633d3d130d146101e05780633d77fcde146102005780635293840d1461022057600080fd5b3661017157005b600080fd5b34801561018257600080fd5b50610196610191366004612b53565b6104a3565b60405190151581526020015b60405180910390f35b3480156101b757600080fd5b506101cb6101c6366004612be0565b6105b5565b005b6101cb6101db366004612c22565b610606565b3480156101ec57600080fd5b506101cb6101fb366004612c48565b61066d565b34801561020c57600080fd5b506101cb61021b366004612c8b565b610791565b34801561022c57600080fd5b506101cb61023b366004612be0565b61079b565b61025361024e366004612c22565b61081f565b6040519081526020016101a2565b34801561026d57600080fd5b5061025361027c366004612ca8565b610840565b34801561028d57600080fd5b506101cb61029c366004612cc5565b61095f565b3480156102ad57600080fd5b50610196610bce565b3480156102c257600080fd5b506102ea7f000000000000000000000000000000000000000000000000000000000000000081565b6040516001600160a01b0390911681526020016101a2565b34801561030e57600080fd5b506101cb61031d366004612c8b565b610bed565b34801561032e57600080fd5b5061025361033d366004612d03565b610ccd565b34801561034e57600080fd5b506102ea611062565b34801561036357600080fd5b5061025361108d565b34801561037857600080fd5b506101cb610387366004612c8b565b61112b565b34801561039857600080fd5b506103ac6103a7366004612d56565b6112a5565b6040516101a29190612dbb565b3480156103c557600080fd5b506102536103d4366004612e08565b611356565b3480156103e557600080fd5b506101cb6103f4366004612c8b565b611608565b34801561040557600080fd5b50610253610414366004612c8b565b6116c0565b34801561042557600080fd5b506101cb610434366004612c8b565b61173f565b34801561044557600080fd5b506102ea611814565b34801561045a57600080fd5b506102ea61182d565b34801561046f57600080fd5b506102ea61047e366004612b53565b61188d565b34801561048f57600080fd5b506101cb61049e366004612e59565b611900565b60006001600160a01b03831661050b5760405162461bcd60e51b815260206004820152602260248201527f4d756c7469557365722f7769746864726177546f6b656e2f307852656365697660448201526132b960f11b60648201526084015b60405180910390fd5b61051361182d565b6001600160a01b03166321754d9e8561052a611062565b6040516001600160e01b031960e085901b1681526001600160a01b03928316600482015290821660248201529086166044820152606481018590526084016020604051808303816000875af1158015610587573d6000803e3d6000fd5b505050506040513d601f19601f820116820180604052508101906105ab9190612e72565b90505b9392505050565b60005b81811015610601576105ef8383838181106105d5576105d5612e8f565b90506020020160208101906105ea9190612c8b565b611a41565b806105f981612ebb565b9150506105b8565b505050565b61061e61061836839003830183612eea565b34611ab6565b61066a5760405162461bcd60e51b815260206004820152601960248201527f4d756c7469557365722f7570646174654f666665724661696c000000000000006044820152606401610502565b50565b7f00000000000000000000000000000000000000000000000000000000000000006001600160a01b03811615806106ac5750336001600160a01b038216145b6106c85760405162461bcd60e51b815260040161050290612f96565b81602001356f6d67762f74726164655375636365737360801b036106f5576106ef83611ffc565b50505050565b604083018035906107099060208601612c8b565b6001600160a01b031661071f6020860186612c8b565b604080516001600160a01b037f0000000000000000000000000000000000000000000000000000000000000000811682528735602083015292909216917f736a3993b9f8b1c5603896c76376792887f376b1fe7fc981e09a16530bf1e4e0910160405180910390a46106ef83836120d3565b61066a3382612337565b6107a3611814565b6001600160a01b0316336001600160a01b0316146107d35760405162461bcd60e51b815260040161050290612f96565b60005b818110156106015761080d8383838181106107f3576107f3612e8f565b90506020020160208101906108089190612c8b565b6123c1565b8061081781612ebb565b9150506107d6565b600061083a61083336849003840184612eea565b3334612448565b92915050565b60007f00000000000000000000000000000000000000000000000000000000000000006001600160a01b03811615806108815750336001600160a01b038216145b61089d5760405162461bcd60e51b815260040161050290612f96565b60006108ad8460a00135856126ab565b11156108fb5760405162461bcd60e51b815260206004820152601860248201527f6d67764f666665722f61626f72742f7075744661696c656400000000000000006044820152606401610502565b600061090b846080013585612764565b11156109595760405162461bcd60e51b815260206004820152601860248201527f6d67764f666665722f61626f72742f6765744661696c656400000000000000006044820152606401610502565b50919050565b610967611814565b6001600160a01b0316336001600160a01b0316146109975760405162461bcd60e51b815260040161050290612f96565b6000198203610a31576040516370a0823160e01b81523060048201527f00000000000000000000000000000000000000000000000000000000000000006001600160a01b0316906370a0823190602401602060405180830381865afa158015610a04573d6000803e3d6000fd5b505050506040513d601f19601f82011682018060405250810190610a289190612fcd565b91508115610bca575b604051632e1a7d4d60e01b8152600481018390527f00000000000000000000000000000000000000000000000000000000000000006001600160a01b031690632e1a7d4d906024016020604051808303816000875af1158015610a98573d6000803e3d6000fd5b505050506040513d601f19601f82011682018060405250810190610abc9190612e72565b610b165760405162461bcd60e51b815260206004820152602560248201527f6d67764f666665722f776974686472617746726f6d4d67762f776974686472616044820152641dd1985a5b60da1b6064820152608401610502565b6000816001600160a01b03168360405160006040518083038185875af1925050503d8060008114610b63576040519150601f19603f3d011682016040523d82523d6000602084013e610b68565b606091505b50509050806106015760405162461bcd60e51b815260206004820152602860248201527f6d67764f666665722f776974686472617746726f6d4d67762f70617961626c6560448201526710d85b1b11985a5b60c21b6064820152608401610502565b5050565b600080610bd9611a1d565b600101546001600160a01b03161415919050565b60405163095ea7b360e01b81526001600160a01b037f000000000000000000000000000000000000000000000000000000000000000081166004830152600019602483015282169063095ea7b3906044016020604051808303816000875af1158015610c5d573d6000803e3d6000fd5b505050506040513d601f19601f82011682018060405250810190610c819190612e72565b61066a5760405162461bcd60e51b815260206004820152601d60248201527f6d67764f666665722f617070726f76654d616e67726f76652f4661696c0000006044820152606401610502565b6001600160a01b03848116600090815260208181526040808320878516845282528083208684528252808320815180830190925254938416808252600160a01b9094046001600160601b0316918101919091529091331480610d5757507f00000000000000000000000000000000000000000000000000000000000000006001600160a01b031633145b610da35760405162461bcd60e51b815260206004820152601f60248201527f4d756c74692f726574726163744f666665722f756e617574686f72697a6564006044820152606401610502565b60208101516001600160601b031615610dd85782610dc2576000610dc8565b80602001515b6001600160601b03169150610e8c565b6001600160a01b037f00000000000000000000000000000000000000000000000000000000000000001663ad97db1b87876040516001600160e01b031960e085901b1681526001600160a01b039283166004820152911660248201526044810187905285151560648201526084016020604051808303816000875af1158015610e65573d6000803e3d6000fd5b505050506040513d601f19601f82011682018060405250810190610e899190612fcd565b91505b811561105957604051632e1a7d4d60e01b8152600481018390527f00000000000000000000000000000000000000000000000000000000000000006001600160a01b031690632e1a7d4d906024016020604051808303816000875af1158015610ef9573d6000803e3d6000fd5b505050506040513d601f19601f82011682018060405250810190610f1d9190612e72565b610f625760405162461bcd60e51b8152602060048201526016602482015275135d5b1d1a555cd95c8bddda5d1a191c985dd1985a5b60521b6044820152606401610502565b60408051808201825282516001600160a01b039081168252600060208084018281528b841683528282528583208b8516845282528583208a8452909152848220935190516001600160601b0316600160a01b0292169190911790915590513390849060006040518083038185875af1925050503d8060008114611001576040519150601f19603f3d011682016040523d82523d6000602084013e611006565b606091505b50509050806110575760405162461bcd60e51b815260206004820152601960248201527f4d756c7469557365722f7765695472616e736665724661696c000000000000006044820152606401610502565b505b50949350505050565b60008061106e3361287c565b90506001600160a01b038116156110855780611087565b335b91505090565b6000611097610bce565b1561111d576110a461182d565b6001600160a01b0316630417ffda6040518163ffffffff1660e01b8152600401602060405180830381865afa1580156110e1573d6000803e3d6000fd5b505050506040513d601f19601f820116820180604052508101906111059190612fcd565b61110d611a1d565b546111189190612fe6565b905090565b611125611a1d565b54919050565b611133611814565b6001600160a01b0316336001600160a01b0316148061117a5750336001600160a01b037f000000000000000000000000000000000000000000000000000000000000000016145b6111965760405162461bcd60e51b815260040161050290612f96565b6001600160a01b0381166111ec5760405162461bcd60e51b815260206004820152601c60248201527f6d67764f666665722f7365745f726f757465722f3078526f75746572000000006044820152606401610502565b806111f5611a1d565b60010180546001600160a01b0319166001600160a01b039283161790556040516381bac14f60e01b8152306004820152908216906381bac14f90602401600060405180830381600087803b15801561124c57600080fd5b505af1158015611260573d6000803e3d6000fd5b50506040516001600160a01b03841681527f6de4326a8b9054d72d9dbab97d27bc4edffadee7d966f5af9cc4eafdaf8e5455925060200190505b60405180910390a150565b60608167ffffffffffffffff8111156112c0576112c0612ed4565b6040519080825280602002602001820160405280156112e9578160200160208202803683370190505b50905060005b828110156110595761131a868686868581811061130e5761130e612e8f565b9050602002013561188d565b82828151811061132c5761132c612e8f565b6001600160a01b03909216602092830291909101909101528061134e81612ebb565b9150506112ef565b600080806001600160a01b037f00000000000000000000000000000000000000000000000000000000000000001663cbf75c9a89896040518363ffffffff1660e01b81526004016113a8929190612ffe565b6040805180830381865afa1580156113c4573d6000803e3d6000fd5b505050506040513d601f19601f820116820180604052508101906113e89190613018565b9150915060007f00000000000000000000000000000000000000000000000000000000000000006001600160a01b0316635722647b6114248b90565b8a6040516001600160e01b031960e085901b1681526001600160a01b0392831660048201529116602482015260448101889052606401602060405180830381865afa158015611477573d6000803e3d6000fd5b505050506040513d601f19601f8201168201806040525081019061149b9190612fcd565b9050600086604085901c61ffff1611156114be575061ffff604084901c166114c1565b50855b62ffffff88106114d6576114d361108d565b97505b6000816114ec62ffffff606087901c168b612fe6565b6114f6919061303c565b61150490633b9aca0061303c565b9050600061ffff602085901c1661152b62ffffff603087901c811690604888901c16612fe6565b611535919061303c565b61154390633b9aca0061303c565b6040516370a0823160e01b81523060048201529091506000906001600160a01b037f000000000000000000000000000000000000000000000000000000000000000016906370a0823190602401602060405180830381865afa1580156115ad573d6000803e3d6000fd5b505050506040513d601f19601f820116820180604052508101906115d19190612fcd565b6115db9083612fe6565b9050828110156115f4576115ef818461305b565b6115f7565b60005b9d9c50505050505050505050505050565b611610611814565b6001600160a01b0316336001600160a01b0316146116405760405162461bcd60e51b815260040161050290612f96565b6001600160a01b0381166116965760405162461bcd60e51b815260206004820152601860248201527f416363657373436f6e74726f6c6c65642f307841646d696e00000000000000006044820152606401610502565b8061169f6119f9565b80546001600160a01b0319166001600160a01b039290921691909117905550565b60006116ca61182d565b6001600160a01b03166305684fde836116e1611062565b6040518363ffffffff1660e01b81526004016116fe929190612ffe565b602060405180830381865afa15801561171b573d6000803e3d6000fd5b505050506040513d601f19601f8201168201806040525081019061083a9190612fcd565b806001600160a01b031663095ea7b361175661182d565b6040516001600160e01b031960e084901b1681526001600160a01b03909116600482015260001960248201526044016020604051808303816000875af11580156117a4573d6000803e3d6000fd5b505050506040513d601f19601f820116820180604052508101906117c89190612e72565b61066a5760405162461bcd60e51b815260206004820152601b60248201527f6d67764f666665722f617070726f7665526f757465722f4661696c00000000006044820152606401610502565b600061181e6119f9565b546001600160a01b0316919050565b600080611838611a1d565b600101546001600160a01b03169050806118885760405162461bcd60e51b815260206004820152601160248201527036b3bb27b33332b917983c2937baba32b960791b6044820152606401610502565b919050565b6001600160a01b038084166000908152602081815260408083208685168452825280832085845290915290205416806105ae5760405162461bcd60e51b815260206004820152601560248201527436bab63a34aab9b2b917bab735b7bbb727b33332b960591b6044820152606401610502565b611908611814565b6001600160a01b0316336001600160a01b0316148061194f5750336001600160a01b037f000000000000000000000000000000000000000000000000000000000000000016145b61196b5760405162461bcd60e51b815260040161050290612f96565b808162ffffff16146119bf5760405162461bcd60e51b815260206004820152601860248201527f6d67764f666665722f6761737265712f6f766572666c6f7700000000000000006044820152606401610502565b806119c8611a1d565b556040518181527fafef3ad374c0b972e3c793be825735801fa05cc4c67157d98d9a111b4027988d9060200161129a565b7f7d382ebca3e46505071795e192d28166a3d4bd0685585591bc6c5b8df6769fd290565b7fae7e31c3220e851db9f204a28b279dfe52b973600b0a456991089c220ae7222490565b611a4961182d565b6001600160a01b031663a01dccd882611a60611062565b6040518363ffffffff1660e01b8152600401611a7d929190612ffe565b60006040518083038186803b158015611a9557600080fd5b505afa158015611aa9573d6000803e3d6000fd5b5050505061066a816128ac565b81516001600160a01b039081166000908152602081815260408083208287015185168452825280832060e0870151845282528083208151808301835290549485168152600160a01b9094046001600160601b031684830152805160808101825283815291820183905281018290526060810182905290919081516001600160a01b0316331480611b6e5750336001600160a01b037f000000000000000000000000000000000000000000000000000000000000000016145b611bba5760405162461bcd60e51b815260206004820152601e60248201527f4d756c74692f7570646174654f666665722f756e617574686f72697a656400006044820152606401610502565b8451602086015160e0870151604051635722647b60e01b81526001600160a01b039384166004820152918316602483015260448201527f000000000000000000000000000000000000000000000000000000000000000090911690635722647b90606401602060405180830381865afa158015611c3b573d6000803e3d6000fd5b505050506040513d601f19601f82011682018060405250810190611c5f9190612fcd565b604082015284516001600160a01b037f0000000000000000000000000000000000000000000000000000000000000000169063cbf75c9a9060208801516040518363ffffffff1660e01b8152600401611cb9929190612ffe565b6040805180830381865afa158015611cd5573d6000803e3d6000fd5b505050506040513d601f19601f82011682018060405250810190611cf99190613018565b6020830152815260608101849052608085015162ffffff10611d1f578460800151611d27565b611d2761108d565b6080860152604081015160201c61ffff1660a08601819052600003611e095760208201516001600160601b031615611ddf5781602001516001600160601b031681606001818151611d789190612fe6565b90525060408051808201825283516001600160a01b039081168252600060208084018281528a51841683528282528583208b83015185168452825285832060e08c01518452909152939020915192516001600160601b0316600160a01b0292169190911790555b60808501516060808301516020840151611dff93921c62ffffff1661299a565b60a0860152611e8a565b8315611e8a57602081015160601c62ffffff16604082015160481c62ffffff16611e339190612fe6565b60a0860151611e4690633b9aca0061303c565b611e50919061303c565b81606001818151611e619190612fe6565b90525060808501516060808301516020840151611e8493921c62ffffff1661299a565b60a08601525b805160401c61ffff168560a001511015611ef75760405162461bcd60e51b815260206004820152602860248201527f4d756c7469557365722f7570646174654f666665722f4e6f74456e6f756768506044820152673937bb34b9b4b7b760c11b6064820152608401610502565b7f00000000000000000000000000000000000000000000000000000000000000006001600160a01b0316636a4f769185611f32886000015190565b602089015189604001518a606001518b608001518c60a001518d60c001518e60e001516040518a63ffffffff1660e01b8152600401611fb79897969594939291906001600160a01b03988916815296909716602087015260408601949094526060850192909252608084015260a083015260c082015260e08101919091526101000190565b6000604051808303818588803b158015611fd057600080fd5b505af193505050508015611fe2575060015b611ff15760009250505061083a565b506001949350505050565b60008061200883612a35565b9050600061201584612a55565b905081600003612029575060019392505050565b6040805161010081019091526120cb90806120476020880188612c8b565b6001600160a01b031681526020018660200160208101906120689190612c8b565b6001600160a01b03168152602081018490526040810185905260600160c087013560481c62ffffff16815260209081019060c0880135901c61ffff168152602001606087013560c01c63ffffffff16815260200186604001358152506000611ab6565b949350505050565b6000806120e36020850185612c8b565b905060006120f76040860160208701612c8b565b6001600160a01b03838116600090815260208181526040808320858516845282528083208a820135845282528083208151808301909252548085168252600160a01b90046001600160601b031681830152939450909182917f00000000000000000000000000000000000000000000000000000000000000009091169063cbf75c9a90612186908b018b612c8b565b61219660408c0160208d01612c8b565b6040518363ffffffff1660e01b81526004016121b3929190612ffe565b6040805180830381865afa1580156121cf573d6000803e3d6000fd5b505050506040513d601f19601f820116820180604052508101906121f39190613018565b9092509050600061221061ffff604085901c16633b9aca0061303c565b9050600060c08a013560301c62ffffff1660c08b013560481c62ffffff166122389190612fe6565b61225161ffff60c08d013560201c16633b9aca0061303c565b61225b919061303c565b9050600082606085901c62ffffff165a60c08e013560481c62ffffff16612282919061305b565b61228e90610bb8612fe6565b6122989190612fe6565b6122a2919061303c565b90506000828210156122bd576122b8828461305b565b6122c0565b60005b60408051808201825298516001600160a01b039081168a526001600160601b039283166020808c019182529c82166000908152808e528381209c831681529b8d52828c209f8301358c529e909b5290982096519b51909716600160a01b029a90971699909917909355506001979650505050505050565b6001600160a01b0381166123845760405162461bcd60e51b815260206004820152601460248201527353696e676c65557365722f30785265736572766560601b6044820152606401610502565b8061238d611a1d565b6001600160a01b0393841660009081526002919091016020526040902080546001600160a01b031916919093161790915550565b6123ca81610bed565b6123d2610bce565b1561066a576123e08161173f565b6123e861182d565b604051630716a76760e21b81526001600160a01b0383811660048301529190911690631c5a9d9c90602401600060405180830381600087803b15801561242d57600080fd5b505af1158015612441573d6000803e3d6000fd5b5050505050565b825160208401516040516365fbae4d60e11b8152600092839283926001600160a01b037f0000000000000000000000000000000000000000000000000000000000000000169263cbf75c9a926124a092600401612ffe565b6040805180830381865afa1580156124bc573d6000803e3d6000fd5b505050506040513d601f19601f820116820180604052508101906124e09190613018565b9150915062ffffff80168660800151116124fe578560800151612506565b61250661108d565b608087018190526125219085606084901c62ffffff1661299a565b60a0870181905261ffff604084901c16111561258d5760405162461bcd60e51b815260206004820152602560248201527f4d756c7469557365722f6e65774f666665722f4e6f74456e6f75676850726f7660448201526434b9b4b7b760d91b6064820152608401610502565b7f00000000000000000000000000000000000000000000000000000000000000006001600160a01b03166349f6d2dc856125c8896000015190565b60208a01518a604001518b606001518c608001518d60a001518e60c001516040518963ffffffff1660e01b815260040161264197969594939291906001600160a01b03978816815295909616602086015260408501939093526060840191909152608083015260a082015260c081019190915260e00190565b60206040518083038185885af115801561265f573d6000803e3d6000fd5b50505050506040513d601f19601f820116820180604052508101906126849190612fcd565b60e087018190528651602088015161269c9288612a72565b50505060e08301519392505050565b6000806126bb6020840184612c8b565b905060006126cf6040850160208601612c8b565b905060006126e28383876040013561188d565b90506126ec61182d565b60405163137476d160e11b81526001600160a01b03848116600483015283811660248301526044820189905291909116906326e8eda290606401600060405180830381600087803b15801561274057600080fd5b505af1158015612754573d6000803e3d6000fd5b5060009998505050505050505050565b6000806127746020840184612c8b565b905060006127886040850160208601612c8b565b9050600061279b8383876040013561188d565b905060006127a88261287c565b905060006127b461182d565b6001600160a01b031663333dbb0d8660006001600160a01b0316856001600160a01b0316146127e357846127e5565b855b6040516001600160e01b031960e085901b1681526001600160a01b03928316600482015291166024820152604481018b9052600160648201526084016020604051808303816000875af1158015612840573d6000803e3d6000fd5b505050506040513d601f19601f820116820180604052508101906128649190612fcd565b9050612870818961305b565b98975050505050505050565b6000612886611a1d565b6001600160a01b0392831660009081526002919091016020526040902054909116919050565b604051636eb1769f60e11b81526000906001600160a01b0383169063dd62ed3e906128fd9030907f000000000000000000000000000000000000000000000000000000000000000090600401612ffe565b602060405180830381865afa15801561291a573d6000803e3d6000fd5b505050506040513d601f19601f8201168201806040525081019061293e9190612fcd565b1161066a5760405162461bcd60e51b815260206004820152602660248201527f4d616e67726f76654f666665722f41646d696e4d757374417070726f76654d616044820152656e67726f766560d01b6064820152608401610502565b6000806129a78584612fe6565b6129b590633b9aca0061303c565b905080841015612a1c5760405162461bcd60e51b815260206004820152602c60248201527f4d756c7469557365722f6465726976655f67617370726963652f4e6f74456e6f60448201526b3ab3b4283937bb34b9b4b7b760a11b6064820152608401610502565b808481612a2b57612a2b613072565b0495945050505050565b600060808201356001600160601b036060840135165b61083a919061305b565b600060a0820135606080840135901c6001600160601b0316612a4b565b6040805180820182526001600160a01b038084168252600060208084018281528984168084528383528684208a86168086529084528785208a865290935292869020945190516001600160601b0316600160a01b029316929092179092559151849291907f460a431c86ecaea27134277388c72021356689d9eb62c3b25a5e4a97da7a8a1490612b25907f0000000000000000000000000000000000000000000000000000000000000000908790612ffe565b60405180910390a450505050565b6001600160a01b038116811461066a57600080fd5b803561188881612b33565b600080600060608486031215612b6857600080fd5b8335612b7381612b33565b92506020840135612b8381612b33565b929592945050506040919091013590565b60008083601f840112612ba657600080fd5b50813567ffffffffffffffff811115612bbe57600080fd5b6020830191508360208260051b8501011115612bd957600080fd5b9250929050565b60008060208385031215612bf357600080fd5b823567ffffffffffffffff811115612c0a57600080fd5b612c1685828601612b94565b90969095509350505050565b6000610100828403121561095957600080fd5b6000610120828403121561095957600080fd5b600080828403610160811215612c5d57600080fd5b612c678585612c35565b9250604061011f1982011215612c7c57600080fd5b50610120830190509250929050565b600060208284031215612c9d57600080fd5b81356105ae81612b33565b60006101208284031215612cbb57600080fd5b6105ae8383612c35565b60008060408385031215612cd857600080fd5b823591506020830135612cea81612b33565b809150509250929050565b801515811461066a57600080fd5b60008060008060808587031215612d1957600080fd5b8435612d2481612b33565b93506020850135612d3481612b33565b9250604085013591506060850135612d4b81612cf5565b939692955090935050565b60008060008060608587031215612d6c57600080fd5b8435612d7781612b33565b93506020850135612d8781612b33565b9250604085013567ffffffffffffffff811115612da357600080fd5b612daf87828801612b94565b95989497509550505050565b6020808252825182820181905260009190848201906040850190845b81811015612dfc5783516001600160a01b031683529284019291840191600101612dd7565b50909695505050505050565b600080600080600060a08688031215612e2057600080fd5b8535612e2b81612b33565b94506020860135612e3b81612b33565b94979496505050506040830135926060810135926080909101359150565b600060208284031215612e6b57600080fd5b5035919050565b600060208284031215612e8457600080fd5b81516105ae81612cf5565b634e487b7160e01b600052603260045260246000fd5b634e487b7160e01b600052601160045260246000fd5b600060018201612ecd57612ecd612ea5565b5060010190565b634e487b7160e01b600052604160045260246000fd5b6000610100808385031215612efe57600080fd5b6040519081019067ffffffffffffffff82118183101715612f2f57634e487b7160e01b600052604160045260246000fd5b81604052612f3c84612b48565b8152612f4a60208501612b48565b602082015260408401356040820152606084013560608201526080840135608082015260a084013560a082015260c084013560c082015260e084013560e0820152809250505092915050565b60208082526018908201527f416363657373436f6e74726f6c6c65642f496e76616c69640000000000000000604082015260600190565b600060208284031215612fdf57600080fd5b5051919050565b60008219821115612ff957612ff9612ea5565b500190565b6001600160a01b0392831681529116602082015260400190565b6000806040838503121561302b57600080fd5b505080516020909101519092909150565b600081600019048311821515161561305657613056612ea5565b500290565b60008282101561306d5761306d612ea5565b500390565b634e487b7160e01b600052601260045260246000fdfea2646970667358221220d419704dc6c13c5e29cc5fb1b0b41161c952405ada527de9ea0601ec5ca3f30b64736f6c634300080e0033608060405234801561001057600080fd5b5061c35033806100675760405162461bcd60e51b815260206004820152601860248201527f616363657373436f6e74726f6c6c65642f307841646d696e000000000000000060448201526064015b60405180910390fd5b8061007a61010a60201b6107e51760201c565b80546001600160a01b0319166001600160a01b03929092169190911790555062ffffff811681146100ed5760405162461bcd60e51b815260206004820152601660248201527f526f757465722f6f76657268656164546f6f4869676800000000000000000000604482015260640161005e565b8061010061012e60201b6108091760201c565b6001015550610152565b7f7d382ebca3e46505071795e192d28166a3d4bd0685585591bc6c5b8df6769fd290565b7ff2910982afb88211fa9894801aaf0314409ca240a0a8904897b9f5ba323ca53390565b610ea3806101616000396000f3fe608060405234801561001057600080fd5b50600436106100cf5760003560e01c8063362aecb11161008c578063cf5e7bd311610066578063cf5e7bd314610199578063e9333fab146101ac578063f850a81c146101bf578063f851a440146101d257600080fd5b8063362aecb11461016057806381bac14f14610173578063a01dccd81461018657600080fd5b80630417ffda146100d457806305684fde146100ef5780631c5a9d9c1461010257806321754d9e1461011757806326e8eda21461013a578063333dbb0d1461014d575b600080fd5b6100dc6101f2565b6040519081526020015b60405180910390f35b6100dc6100fd366004610bc3565b610205565b610115610110366004610bfc565b61027a565b005b61012a610125366004610c19565b6102cd565b60405190151581526020016100e6565b610115610148366004610c6a565b61030b565b6100dc61015b366004610cb9565b610341565b61012a61016e366004610bfc565b6103fd565b610115610181366004610bfc565b610429565b610115610194366004610bc3565b6104a7565b6101156101a7366004610bfc565b61057d565b6101156101ba366004610bfc565b6105ce565b6101156101cd366004610d0c565b6106b6565b6101da6107cc565b6040516001600160a01b0390911681526020016100e6565b60006101fc610809565b60010154905090565b6040516370a0823160e01b81526001600160a01b038281166004830152600091908416906370a0823190602401602060405180830381865afa15801561024f573d6000803e3d6000fd5b505050506040513d601f19601f820116820180604052508101906102739190610d92565b9392505050565b6102826107cc565b6001600160a01b0316336001600160a01b031614806102a557506102a5336103fd565b6102ca5760405162461bcd60e51b81526004016102c190610dab565b60405180910390fd5b50565b60006102d8336103fd565b6102f45760405162461bcd60e51b81526004016102c190610dab565b6103008585858561082d565b90505b949350505050565b610314336103fd565b6103305760405162461bcd60e51b81526004016102c190610dab565b61033c8383338461083b565b505050565b600061034c336103fd565b6103685760405162461bcd60e51b81526004016102c190610dab565b6040516370a0823160e01b81523360048201526000906001600160a01b038716906370a0823190602401602060405180830381865afa1580156103af573d6000803e3d6000fd5b505050506040513d601f19601f820116820180604052508101906103d39190610d92565b90508381106103e6576000915050610303565b6103f38686338787610893565b9695505050505050565b6000610407610809565b6001600160a01b03909216600090815260209290925250604090205460ff1690565b6104316107cc565b6001600160a01b0316336001600160a01b031614806104545750610454336103fd565b6104705760405162461bcd60e51b81526004016102c190610dab565b600161047a610809565b6001600160a01b039290921660009081526020929092526040909120805460ff1916911515919091179055565b604051636eb1769f60e11b81523360048201523060248201526000906001600160a01b0384169063dd62ed3e90604401602060405180830381865afa1580156104f4573d6000803e3d6000fd5b505050506040513d601f19601f820116820180604052508101906105189190610d92565b1161056f5760405162461bcd60e51b815260206004820152602160248201527f526f757465722f4e6f74417070726f76656442794d616b6572436f6e747261636044820152601d60fa1b60648201526084016102c1565b61057982826108ba565b5050565b6105856107cc565b6001600160a01b0316336001600160a01b031614806105a857506105a8336103fd565b6105c45760405162461bcd60e51b81526004016102c190610dab565b600061047a610809565b6105d66107cc565b6001600160a01b0316336001600160a01b0316146106365760405162461bcd60e51b815260206004820152601860248201527f416363657373436f6e74726f6c6c65642f496e76616c6964000000000000000060448201526064016102c1565b6001600160a01b03811661068c5760405162461bcd60e51b815260206004820152601860248201527f416363657373436f6e74726f6c6c65642f307841646d696e000000000000000060448201526064016102c1565b806106956107e5565b80546001600160a01b0319166001600160a01b039290921691909117905550565b6106bf336103fd565b6106db5760405162461bcd60e51b81526004016102c190610dab565b60005b828110156107c65760008484838181106106fa576106fa610dd8565b905060200201602081019061070f9190610bfc565b6040516370a0823160e01b81523360048201526001600160a01b0391909116906370a0823190602401602060405180830381865afa158015610755573d6000803e3d6000fd5b505050506040513d601f19601f820116820180604052508101906107799190610d92565b905080156107b3576107b385858481811061079657610796610dd8565b90506020020160208101906107ab9190610bfc565b84338461083b565b50806107be81610dee565b9150506106de565b50505050565b60006107d66107e5565b546001600160a01b0316919050565b7f7d382ebca3e46505071795e192d28166a3d4bd0685585591bc6c5b8df6769fd290565b7ff2910982afb88211fa9894801aaf0314409ca240a0a8904897b9f5ba323ca53390565b600061030085858585610998565b61084784838584610998565b6107c65760405162461bcd60e51b815260206004820152601e60248201527f53696d706c65526f757465722f707573682f7472616e736665724661696c000060448201526064016102c1565b60006108a186868686610998565b156108ad5750816108b1565b5060005b95945050505050565b6001600160a01b0381163014806109425750604051636eb1769f60e11b81526001600160a01b0382811660048301523060248301526000919084169063dd62ed3e90604401602060405180830381865afa15801561091c573d6000803e3d6000fd5b505050506040513d601f19601f820116820180604052508101906109409190610d92565b115b6105795760405162461bcd60e51b815260206004820152602160248201527f53696d706c65526f757465722f4e6f74417070726f76656442795265736572766044820152606560f81b60648201526084016102c1565b60008115806109b85750826001600160a01b0316846001600160a01b0316145b156109c557506001610303565b306001600160a01b038516036109e7576109e0858484610ac2565b9050610303565b604080516001600160a01b0386811660248301528581166044830152606480830186905283518084039091018152608490920183526020820180516001600160e01b03166323b872dd60e01b1790529151600092839290891691610a4b9190610e15565b6000604051808303816000865af19150503d8060008114610a88576040519150601f19603f3d011682016040523d82523d6000602084013e610a8d565b606091505b5091509150818015610ab7575080511580610ab7575080806020019051810190610ab79190610e50565b979650505050505050565b6000811580610ad957506001600160a01b03831630145b15610ae657506001610273565b604080516001600160a01b038581166024830152604480830186905283518084039091018152606490920183526020820180516001600160e01b031663a9059cbb60e01b1790529151600092839290881691610b429190610e15565b6000604051808303816000865af19150503d8060008114610b7f576040519150601f19603f3d011682016040523d82523d6000602084013e610b84565b606091505b50915091508180156103f35750805115806103f35750808060200190518101906103f39190610e50565b6001600160a01b03811681146102ca57600080fd5b60008060408385031215610bd657600080fd5b8235610be181610bae565b91506020830135610bf181610bae565b809150509250929050565b600060208284031215610c0e57600080fd5b813561027381610bae565b60008060008060808587031215610c2f57600080fd5b8435610c3a81610bae565b93506020850135610c4a81610bae565b92506040850135610c5a81610bae565b9396929550929360600135925050565b600080600060608486031215610c7f57600080fd5b8335610c8a81610bae565b92506020840135610c9a81610bae565b929592945050506040919091013590565b80151581146102ca57600080fd5b60008060008060808587031215610ccf57600080fd5b8435610cda81610bae565b93506020850135610cea81610bae565b9250604085013591506060850135610d0181610cab565b939692955090935050565b600080600060408486031215610d2157600080fd5b833567ffffffffffffffff80821115610d3957600080fd5b818601915086601f830112610d4d57600080fd5b813581811115610d5c57600080fd5b8760208260051b8501011115610d7157600080fd5b60209283019550935050840135610d8781610bae565b809150509250925092565b600060208284031215610da457600080fd5b5051919050565b602080825260139082015272149bdd5d195c8bdd5b985d5d1a1bdc9a5e9959606a1b604082015260600190565b634e487b7160e01b600052603260045260246000fd5b600060018201610e0e57634e487b7160e01b600052601160045260246000fd5b5060010190565b6000825160005b81811015610e365760208186018101518583015201610e1c565b81811115610e45576000828501525b509190910192915050565b600060208284031215610e6257600080fd5b815161027381610cab56fea26469706673582212201a5909cf162cba146fb1ddb06cb563c76c816c7430eb8e8f45d62b5cb8ea878a64736f6c634300080e0033",
    "linkReferences": {}
  },
  "methodIdentifiers": {
    "MGV()": "99fa5e2d",
    "activate(address[])": "5293840d",
    "admin()": "f851a440",
    "approveMangrove(address)": "9f2211cb",
    "approveRouter(address)": "f259cd27",
    "checkList(address[])": "03eb17e2",
    "getMissingProvision(address,address,uint256,uint256,uint256)": "e4c34f84",
    "has_router()": "84b627f9",
    "makerExecute((address,address,uint256,uint256,uint256,uint256,uint256,uint256,uint256))": "6c49c32c",
    "makerPosthook((address,address,uint256,uint256,uint256,uint256,uint256,uint256,uint256),(bytes32,bytes32))": "3d3d130d",
    "newOffer((address,address,uint256,uint256,uint256,uint256,uint256,uint256))": "5486c95f",
    "offerOwners(address,address,uint256[])": "dec8c86b",
    "ofr_gasreq()": "d1baa1ef",
    "ownerOf(address,address,uint256)": "f92495e5",
    "reserve()": "cd3293de",
    "retractOffer(address,address,uint256,bool)": "ad97db1b",
    "router()": "f887ea40",
    "set_admin(address)": "e9333fab",
    "set_gasreq(uint256)": "fc488a38",
    "set_reserve(address)": "3d77fcde",
    "set_router(address)": "db11851e",
    "tokenBalance(address)": "eedc966a",
    "updateOffer((address,address,uint256,uint256,uint256,uint256,uint256,uint256))": "10aded60",
    "withdrawFromMangrove(uint256,address)": "7144df24",
    "withdrawToken(address,address,uint256)": "01e33667"
  },
  "id": 82
}