{
  "abi": [
    {
      "inputs": [
        {
          "internalType": "address",
          "name": "_addressesProvider",
          "type": "address"
        },
        {
          "internalType": "contract IMangrove",
          "name": "_MGV",
          "type": "address"
        },
        {
          "internalType": "address",
          "name": "deployer",
          "type": "address"
        }
      ],
      "stateMutability": "nonpayable",
      "type": "constructor"
    },
    {
      "anonymous": false,
      "inputs": [
        {
          "indexed": true,
          "internalType": "contract IMangrove",
          "name": "mangrove",
          "type": "address"
        },
        {
          "indexed": true,
          "internalType": "address",
          "name": "user",
          "type": "address"
        },
        {
          "indexed": false,
          "internalType": "uint256",
          "name": "amount",
          "type": "uint256"
        }
      ],
      "name": "CreditMgvUser",
      "type": "event"
    },
    {
      "anonymous": false,
      "inputs": [
        {
          "indexed": true,
          "internalType": "contract IMangrove",
          "name": "mangrove",
          "type": "address"
        },
        {
          "indexed": true,
          "internalType": "address",
          "name": "user",
          "type": "address"
        },
        {
          "indexed": false,
          "internalType": "uint256",
          "name": "amount",
          "type": "uint256"
        }
      ],
      "name": "DebitMgvUser",
      "type": "event"
    },
    {
      "anonymous": false,
      "inputs": [
        {
          "indexed": false,
          "internalType": "contract IMangrove",
          "name": "mangrove",
          "type": "address"
        },
        {
          "indexed": true,
          "internalType": "contract IERC20",
          "name": "outbound_tkn",
          "type": "address"
        },
        {
          "indexed": true,
          "internalType": "contract IERC20",
          "name": "inbound_tkn",
          "type": "address"
        },
        {
          "indexed": true,
          "internalType": "uint256",
          "name": "offerId",
          "type": "uint256"
        },
        {
          "indexed": false,
          "internalType": "bytes32",
          "name": "reason",
          "type": "bytes32"
        }
      ],
      "name": "LogIncident",
      "type": "event"
    },
    {
      "anonymous": false,
      "inputs": [
        {
          "indexed": false,
          "internalType": "contract IMangrove",
          "name": "mangrove",
          "type": "address"
        },
        {
          "indexed": true,
          "internalType": "contract IERC20",
          "name": "outbound_tkn",
          "type": "address"
        },
        {
          "indexed": true,
          "internalType": "contract IERC20",
          "name": "inbound_tkn",
          "type": "address"
        },
        {
          "indexed": true,
          "internalType": "uint256",
          "name": "offerId",
          "type": "uint256"
        },
        {
          "indexed": false,
          "internalType": "address",
          "name": "owner",
          "type": "address"
        }
      ],
      "name": "NewOwnedOffer",
      "type": "event"
    },
    {
      "anonymous": false,
      "inputs": [
        {
          "indexed": false,
          "internalType": "uint256",
          "name": "",
          "type": "uint256"
        }
      ],
      "name": "SetGasreq",
      "type": "event"
    },
    {
      "anonymous": false,
      "inputs": [
        {
          "indexed": false,
          "internalType": "contract AbstractRouter",
          "name": "",
          "type": "address"
        }
      ],
      "name": "SetRouter",
      "type": "event"
    },
    {
      "inputs": [],
      "name": "MGV",
      "outputs": [
        {
          "internalType": "contract IMangrove",
          "name": "",
          "type": "address"
        }
      ],
      "stateMutability": "view",
      "type": "function"
    },
    {
      "inputs": [
        {
          "internalType": "contract IERC20[]",
          "name": "tokens",
          "type": "address[]"
        }
      ],
      "name": "activate",
      "outputs": [],
      "stateMutability": "nonpayable",
      "type": "function"
    },
    {
      "inputs": [],
      "name": "admin",
      "outputs": [
        {
          "internalType": "address",
          "name": "",
          "type": "address"
        }
      ],
      "stateMutability": "view",
      "type": "function"
    },
    {
      "inputs": [
        {
          "internalType": "contract IERC20",
          "name": "outbound_tkn",
          "type": "address"
        }
      ],
      "name": "approveMangrove",
      "outputs": [],
      "stateMutability": "nonpayable",
      "type": "function"
    },
    {
      "inputs": [
        {
          "internalType": "contract IERC20",
          "name": "token",
          "type": "address"
        }
      ],
      "name": "approveRouter",
      "outputs": [],
      "stateMutability": "nonpayable",
      "type": "function"
    },
    {
      "inputs": [
        {
          "internalType": "contract IERC20[]",
          "name": "tokens",
          "type": "address[]"
        }
      ],
      "name": "checkList",
      "outputs": [],
      "stateMutability": "view",
      "type": "function"
    },
    {
      "inputs": [
        {
          "internalType": "contract IERC20",
          "name": "outbound_tkn",
          "type": "address"
        },
        {
          "internalType": "contract IERC20",
          "name": "inbound_tkn",
          "type": "address"
        },
        {
          "internalType": "uint256",
          "name": "gasreq",
          "type": "uint256"
        },
        {
          "internalType": "uint256",
          "name": "gasprice",
          "type": "uint256"
        },
        {
          "internalType": "uint256",
          "name": "offerId",
          "type": "uint256"
        }
      ],
      "name": "getMissingProvision",
      "outputs": [
        {
          "internalType": "uint256",
          "name": "",
          "type": "uint256"
        }
      ],
      "stateMutability": "view",
      "type": "function"
    },
    {
      "inputs": [],
      "name": "has_router",
      "outputs": [
        {
          "internalType": "bool",
          "name": "",
          "type": "bool"
        }
      ],
      "stateMutability": "view",
      "type": "function"
    },
    {
      "inputs": [
        {
          "components": [
            {
              "internalType": "address",
              "name": "outbound_tkn",
              "type": "address"
            },
            {
              "internalType": "address",
              "name": "inbound_tkn",
              "type": "address"
            },
            {
              "internalType": "uint256",
              "name": "offerId",
              "type": "uint256"
            },
            {
              "internalType": "t",
              "name": "offer",
              "type": "uint256"
            },
            {
              "internalType": "uint256",
              "name": "wants",
              "type": "uint256"
            },
            {
              "internalType": "uint256",
              "name": "gives",
              "type": "uint256"
            },
            {
              "internalType": "t",
              "name": "offerDetail",
              "type": "uint256"
            },
            {
              "internalType": "t",
              "name": "global",
              "type": "uint256"
            },
            {
              "internalType": "t",
              "name": "local",
              "type": "uint256"
            }
          ],
          "internalType": "struct MgvLib.SingleOrder",
          "name": "order",
          "type": "tuple"
        }
      ],
      "name": "makerExecute",
      "outputs": [
        {
          "internalType": "bytes32",
          "name": "ret",
          "type": "bytes32"
        }
      ],
      "stateMutability": "nonpayable",
      "type": "function"
    },
    {
      "inputs": [
        {
          "components": [
            {
              "internalType": "address",
              "name": "outbound_tkn",
              "type": "address"
            },
            {
              "internalType": "address",
              "name": "inbound_tkn",
              "type": "address"
            },
            {
              "internalType": "uint256",
              "name": "offerId",
              "type": "uint256"
            },
            {
              "internalType": "t",
              "name": "offer",
              "type": "uint256"
            },
            {
              "internalType": "uint256",
              "name": "wants",
              "type": "uint256"
            },
            {
              "internalType": "uint256",
              "name": "gives",
              "type": "uint256"
            },
            {
              "internalType": "t",
              "name": "offerDetail",
              "type": "uint256"
            },
            {
              "internalType": "t",
              "name": "global",
              "type": "uint256"
            },
            {
              "internalType": "t",
              "name": "local",
              "type": "uint256"
            }
          ],
          "internalType": "struct MgvLib.SingleOrder",
          "name": "order",
          "type": "tuple"
        },
        {
          "components": [
            {
              "internalType": "bytes32",
              "name": "makerData",
              "type": "bytes32"
            },
            {
              "internalType": "bytes32",
              "name": "mgvData",
              "type": "bytes32"
            }
          ],
          "internalType": "struct MgvLib.OrderResult",
          "name": "result",
          "type": "tuple"
        }
      ],
      "name": "makerPosthook",
      "outputs": [],
      "stateMutability": "nonpayable",
      "type": "function"
    },
    {
      "inputs": [
        {
          "components": [
            {
              "internalType": "contract IERC20",
              "name": "outbound_tkn",
              "type": "address"
            },
            {
              "internalType": "contract IERC20",
              "name": "inbound_tkn",
              "type": "address"
            },
            {
              "internalType": "uint256",
              "name": "wants",
              "type": "uint256"
            },
            {
              "internalType": "uint256",
              "name": "gives",
              "type": "uint256"
            },
            {
              "internalType": "uint256",
              "name": "gasreq",
              "type": "uint256"
            },
            {
              "internalType": "uint256",
              "name": "gasprice",
              "type": "uint256"
            },
            {
              "internalType": "uint256",
              "name": "pivotId",
              "type": "uint256"
            },
            {
              "internalType": "uint256",
              "name": "offerId",
              "type": "uint256"
            }
          ],
          "internalType": "struct IOfferLogic.MakerOrder",
          "name": "mko",
          "type": "tuple"
        }
      ],
      "name": "newOffer",
      "outputs": [
        {
          "internalType": "uint256",
          "name": "offerId",
          "type": "uint256"
        }
      ],
      "stateMutability": "payable",
      "type": "function"
    },
    {
      "inputs": [
        {
          "internalType": "contract IERC20",
          "name": "outbound_tkn",
          "type": "address"
        },
        {
          "internalType": "contract IERC20",
          "name": "inbound_tkn",
          "type": "address"
        },
        {
          "internalType": "uint256[]",
          "name": "offerIds",
          "type": "uint256[]"
        }
      ],
      "name": "offerOwners",
      "outputs": [
        {
          "internalType": "address[]",
          "name": "_offerOwners",
          "type": "address[]"
        }
      ],
      "stateMutability": "view",
      "type": "function"
    },
    {
      "inputs": [],
      "name": "ofr_gasreq",
      "outputs": [
        {
          "internalType": "uint256",
          "name": "",
          "type": "uint256"
        }
      ],
      "stateMutability": "view",
      "type": "function"
    },
    {
      "inputs": [
        {
          "internalType": "contract IERC20",
          "name": "outbound_tkn",
          "type": "address"
        },
        {
          "internalType": "contract IERC20",
          "name": "inbound_tkn",
          "type": "address"
        },
        {
          "internalType": "uint256",
          "name": "offerId",
          "type": "uint256"
        }
      ],
      "name": "ownerOf",
      "outputs": [
        {
          "internalType": "address",
          "name": "owner",
          "type": "address"
        }
      ],
      "stateMutability": "view",
      "type": "function"
    },
    {
      "inputs": [],
      "name": "reserve",
      "outputs": [
        {
          "internalType": "address",
          "name": "",
          "type": "address"
        }
      ],
      "stateMutability": "view",
      "type": "function"
    },
    {
      "inputs": [
        {
          "internalType": "contract IERC20",
          "name": "outbound_tkn",
          "type": "address"
        },
        {
          "internalType": "contract IERC20",
          "name": "inbound_tkn",
          "type": "address"
        },
        {
          "internalType": "uint256",
          "name": "offerId",
          "type": "uint256"
        },
        {
          "internalType": "bool",
          "name": "deprovision",
          "type": "bool"
        }
      ],
      "name": "retractOffer",
      "outputs": [
        {
          "internalType": "uint256",
          "name": "free_wei",
          "type": "uint256"
        }
      ],
      "stateMutability": "nonpayable",
      "type": "function"
    },
    {
      "inputs": [],
      "name": "router",
      "outputs": [
        {
          "internalType": "contract AbstractRouter",
          "name": "",
          "type": "address"
        }
      ],
      "stateMutability": "view",
      "type": "function"
    },
    {
      "inputs": [
        {
          "internalType": "address",
          "name": "_admin",
          "type": "address"
        }
      ],
      "name": "set_admin",
      "outputs": [],
      "stateMutability": "nonpayable",
      "type": "function"
    },
    {
      "inputs": [
        {
          "internalType": "uint256",
          "name": "gasreq",
          "type": "uint256"
        }
      ],
      "name": "set_gasreq",
      "outputs": [],
      "stateMutability": "nonpayable",
      "type": "function"
    },
    {
      "inputs": [
        {
          "internalType": "address",
          "name": "__reserve",
          "type": "address"
        }
      ],
      "name": "set_reserve",
      "outputs": [],
      "stateMutability": "nonpayable",
      "type": "function"
    },
    {
      "inputs": [
        {
          "internalType": "contract AbstractRouter",
          "name": "router_",
          "type": "address"
        }
      ],
      "name": "set_router",
      "outputs": [],
      "stateMutability": "nonpayable",
      "type": "function"
    },
    {
      "inputs": [
        {
          "internalType": "contract IERC20",
          "name": "token",
          "type": "address"
        }
      ],
      "name": "tokenBalance",
      "outputs": [
        {
          "internalType": "uint256",
          "name": "",
          "type": "uint256"
        }
      ],
      "stateMutability": "view",
      "type": "function"
    },
    {
      "inputs": [
        {
          "components": [
            {
              "internalType": "contract IERC20",
              "name": "outbound_tkn",
              "type": "address"
            },
            {
              "internalType": "contract IERC20",
              "name": "inbound_tkn",
              "type": "address"
            },
            {
              "internalType": "uint256",
              "name": "wants",
              "type": "uint256"
            },
            {
              "internalType": "uint256",
              "name": "gives",
              "type": "uint256"
            },
            {
              "internalType": "uint256",
              "name": "gasreq",
              "type": "uint256"
            },
            {
              "internalType": "uint256",
              "name": "gasprice",
              "type": "uint256"
            },
            {
              "internalType": "uint256",
              "name": "pivotId",
              "type": "uint256"
            },
            {
              "internalType": "uint256",
              "name": "offerId",
              "type": "uint256"
            }
          ],
          "internalType": "struct IOfferLogic.MakerOrder",
          "name": "mko",
          "type": "tuple"
        }
      ],
      "name": "updateOffer",
      "outputs": [],
      "stateMutability": "payable",
      "type": "function"
    },
    {
      "inputs": [
        {
          "internalType": "uint256",
          "name": "amount",
          "type": "uint256"
        },
        {
          "internalType": "address payable",
          "name": "receiver",
          "type": "address"
        }
      ],
      "name": "withdrawFromMangrove",
      "outputs": [],
      "stateMutability": "nonpayable",
      "type": "function"
    },
    {
      "inputs": [
        {
          "internalType": "contract IERC20",
          "name": "token",
          "type": "address"
        },
        {
          "internalType": "address",
          "name": "receiver",
          "type": "address"
        },
        {
          "internalType": "uint256",
          "name": "amount",
          "type": "uint256"
        }
      ],
      "name": "withdrawToken",
      "outputs": [
        {
          "internalType": "bool",
          "name": "success",
          "type": "bool"
        }
      ],
      "stateMutability": "nonpayable",
      "type": "function"
    },
    {
      "stateMutability": "payable",
      "type": "receive"
    }
  ],
  "bytecode": {
    "object": "0x60a06040523480156200001157600080fd5b506040516200783d3803806200783d83398101604081905262000034916200062c565b818360006002604051620000489062000605565b6001600160a01b03909316835260208301919091526040820152606001604051809103906000f08015801562000082573d6000803e3d6000fd5b5061c35082828282813380620000df5760405162461bcd60e51b815260206004820152601860248201527f616363657373436f6e74726f6c6c65642f307841646d696e000000000000000060448201526064015b60405180910390fd5b80620000f56200028360201b620019f91760201c565b80546001600160a01b0319166001600160a01b03929092169190911790555062ffffff811681146200016a5760405162461bcd60e51b815260206004820152601b60248201527f4d616e67726f76654f666665722f676173726571546f6f4869676800000000006044820152606401620000d6565b6001600160a01b038216608052806200018e620002a7602090811b62001a1d17901c565b5550506001600160a01b038216620001de5760405162461bcd60e51b815260206004820152601260248201527126bab63a34aab9b2b917983c2937baba32b960711b6044820152606401620000d6565b620001e982620002cb565b505050505050620001ff6200047560201b60201c565b60405163e9333fab60e01b81526001600160a01b038381166004830152919091169063e9333fab90602401600060405180830381600087803b1580156200024557600080fd5b505af11580156200025a573d6000803e3d6000fd5b505050506001600160a01b03811633146200027a576200027a81620004e4565b50505062000680565b7f7d382ebca3e46505071795e192d28166a3d4bd0685585591bc6c5b8df6769fd290565b7fae7e31c3220e851db9f204a28b279dfe52b973600b0a456991089c220ae7222490565b620002d5620005df565b6001600160a01b0316336001600160a01b031614806200030857506080516001600160a01b0316336001600160a01b0316145b620003565760405162461bcd60e51b815260206004820152601860248201527f416363657373436f6e74726f6c6c65642f496e76616c696400000000000000006044820152606401620000d6565b6001600160a01b038116620003ae5760405162461bcd60e51b815260206004820152601c60248201527f6d67764f666665722f7365745f726f757465722f3078526f75746572000000006044820152606401620000d6565b80620003c4620002a760201b62001a1d1760201c565b60010180546001600160a01b0319166001600160a01b039283161790556040516381bac14f60e01b8152306004820152908216906381bac14f90602401600060405180830381600087803b1580156200041c57600080fd5b505af115801562000431573d6000803e3d6000fd5b50506040516001600160a01b03841681527f6de4326a8b9054d72d9dbab97d27bc4edffadee7d966f5af9cc4eafdaf8e54559250602001905060405180910390a150565b6000806200048d620002a760201b62001a1d1760201c565b600101546001600160a01b0316905080620004df5760405162461bcd60e51b815260206004820152601160248201527036b3bb27b33332b917983c2937baba32b960791b6044820152606401620000d6565b919050565b620004ee620005df565b6001600160a01b0316336001600160a01b031614620005505760405162461bcd60e51b815260206004820152601860248201527f416363657373436f6e74726f6c6c65642f496e76616c696400000000000000006044820152606401620000d6565b6001600160a01b038116620005a85760405162461bcd60e51b815260206004820152601860248201527f416363657373436f6e74726f6c6c65642f307841646d696e00000000000000006044820152606401620000d6565b80620005be6200028360201b620019f91760201c565b80546001600160a01b0319166001600160a01b039290921691909117905550565b6000620005f66200028360201b620019f91760201c565b546001600160a01b0316919050565b61404280620037fb83390190565b6001600160a01b03811681146200062957600080fd5b50565b6000806000606084860312156200064257600080fd5b83516200064f8162000613565b6020850151909350620006628162000613565b6040850151909250620006758162000613565b809150509250925092565b6080516130be6200073d600039600081816102c80152818161066f0152818161072d01528181610844015281816109b501528181610a4701528181610c0401528181610d2c01528181610de201528181610ea80152818161115801528181611364015281816113f0015281816115660152818161192d01528181611b4c01528181611bf201528181611c7001528181611ef9015281816121510152818161246d0152818161258f015281816128d50152612afe01526130be6000f3fe60806040526004361061016a5760003560e01c8063ad97db1b116100d1578063e9333fab1161008a578063f851a44011610064578063f851a44014610439578063f887ea401461044e578063f92495e514610463578063fc488a381461048357600080fd5b8063e9333fab146103d9578063eedc966a146103f9578063f259cd271461041957600080fd5b8063ad97db1b14610322578063cd3293de14610342578063d1baa1ef14610357578063db11851e1461036c578063dec8c86b1461038c578063e4c34f84146103b957600080fd5b80635486c95f116101235780635486c95f146102405780636c49c32c146102615780637144df241461028157806384b627f9146102a157806399fa5e2d146102b65780639f2211cb1461030257600080fd5b806301e336671461017657806303eb17e2146101ab57806310aded60146101cd5780633d3d130d146101e05780633d77fcde146102005780635293840d1461022057600080fd5b3661017157005b600080fd5b34801561018257600080fd5b50610196610191366004612b53565b6104a3565b60405190151581526020015b60405180910390f35b3480156101b757600080fd5b506101cb6101c6366004612be0565b6105b5565b005b6101cb6101db366004612c22565b610606565b3480156101ec57600080fd5b506101cb6101fb366004612c48565b61066d565b34801561020c57600080fd5b506101cb61021b366004612c8b565b610791565b34801561022c57600080fd5b506101cb61023b366004612be0565b61079b565b61025361024e366004612c22565b61081f565b6040519081526020016101a2565b34801561026d57600080fd5b5061025361027c366004612ca8565b610840565b34801561028d57600080fd5b506101cb61029c366004612cc5565b61095f565b3480156102ad57600080fd5b50610196610bce565b3480156102c257600080fd5b506102ea7f000000000000000000000000000000000000000000000000000000000000000081565b6040516001600160a01b0390911681526020016101a2565b34801561030e57600080fd5b506101cb61031d366004612c8b565b610bed565b34801561032e57600080fd5b5061025361033d366004612d03565b610ccd565b34801561034e57600080fd5b506102ea611062565b34801561036357600080fd5b5061025361108d565b34801561037857600080fd5b506101cb610387366004612c8b565b61112b565b34801561039857600080fd5b506103ac6103a7366004612d56565b6112a5565b6040516101a29190612dbb565b3480156103c557600080fd5b506102536103d4366004612e08565b611356565b3480156103e557600080fd5b506101cb6103f4366004612c8b565b611608565b34801561040557600080fd5b50610253610414366004612c8b565b6116c0565b34801561042557600080fd5b506101cb610434366004612c8b565b61173f565b34801561044557600080fd5b506102ea611814565b34801561045a57600080fd5b506102ea61182d565b34801561046f57600080fd5b506102ea61047e366004612b53565b61188d565b34801561048f57600080fd5b506101cb61049e366004612e59565b611900565b60006001600160a01b03831661050b5760405162461bcd60e51b815260206004820152602260248201527f4d756c7469557365722f7769746864726177546f6b656e2f307852656365697660448201526132b960f11b60648201526084015b60405180910390fd5b61051361182d565b6001600160a01b03166321754d9e8561052a611062565b6040516001600160e01b031960e085901b1681526001600160a01b03928316600482015290821660248201529086166044820152606481018590526084016020604051808303816000875af1158015610587573d6000803e3d6000fd5b505050506040513d601f19601f820116820180604052508101906105ab9190612e72565b90505b9392505050565b60005b81811015610601576105ef8383838181106105d5576105d5612e8f565b90506020020160208101906105ea9190612c8b565b611a41565b806105f981612ebb565b9150506105b8565b505050565b61061e61061836839003830183612eea565b34611ab6565b61066a5760405162461bcd60e51b815260206004820152601960248201527f4d756c7469557365722f7570646174654f666665724661696c000000000000006044820152606401610502565b50565b7f00000000000000000000000000000000000000000000000000000000000000006001600160a01b03811615806106ac5750336001600160a01b038216145b6106c85760405162461bcd60e51b815260040161050290612f96565b81602001356f6d67762f74726164655375636365737360801b036106f5576106ef83611ffc565b50505050565b604083018035906107099060208601612c8b565b6001600160a01b031661071f6020860186612c8b565b604080516001600160a01b037f0000000000000000000000000000000000000000000000000000000000000000811682528735602083015292909216917f736a3993b9f8b1c5603896c76376792887f376b1fe7fc981e09a16530bf1e4e0910160405180910390a46106ef83836120d3565b61066a3382612337565b6107a3611814565b6001600160a01b0316336001600160a01b0316146107d35760405162461bcd60e51b815260040161050290612f96565b60005b818110156106015761080d8383838181106107f3576107f3612e8f565b90506020020160208101906108089190612c8b565b6123c1565b8061081781612ebb565b9150506107d6565b600061083a61083336849003840184612eea565b3334612448565b92915050565b60007f00000000000000000000000000000000000000000000000000000000000000006001600160a01b03811615806108815750336001600160a01b038216145b61089d5760405162461bcd60e51b815260040161050290612f96565b60006108ad8460a00135856126ab565b11156108fb5760405162461bcd60e51b815260206004820152601860248201527f6d67764f666665722f61626f72742f7075744661696c656400000000000000006044820152606401610502565b600061090b846080013585612764565b11156109595760405162461bcd60e51b815260206004820152601860248201527f6d67764f666665722f61626f72742f6765744661696c656400000000000000006044820152606401610502565b50919050565b610967611814565b6001600160a01b0316336001600160a01b0316146109975760405162461bcd60e51b815260040161050290612f96565b6000198203610a31576040516370a0823160e01b81523060048201527f00000000000000000000000000000000000000000000000000000000000000006001600160a01b0316906370a0823190602401602060405180830381865afa158015610a04573d6000803e3d6000fd5b505050506040513d601f19601f82011682018060405250810190610a289190612fcd565b91508115610bca575b604051632e1a7d4d60e01b8152600481018390527f00000000000000000000000000000000000000000000000000000000000000006001600160a01b031690632e1a7d4d906024016020604051808303816000875af1158015610a98573d6000803e3d6000fd5b505050506040513d601f19601f82011682018060405250810190610abc9190612e72565b610b165760405162461bcd60e51b815260206004820152602560248201527f6d67764f666665722f776974686472617746726f6d4d67762f776974686472616044820152641dd1985a5b60da1b6064820152608401610502565b6000816001600160a01b03168360405160006040518083038185875af1925050503d8060008114610b63576040519150601f19603f3d011682016040523d82523d6000602084013e610b68565b606091505b50509050806106015760405162461bcd60e51b815260206004820152602860248201527f6d67764f666665722f776974686472617746726f6d4d67762f70617961626c6560448201526710d85b1b11985a5b60c21b6064820152608401610502565b5050565b600080610bd9611a1d565b600101546001600160a01b03161415919050565b60405163095ea7b360e01b81526001600160a01b037f000000000000000000000000000000000000000000000000000000000000000081166004830152600019602483015282169063095ea7b3906044016020604051808303816000875af1158015610c5d573d6000803e3d6000fd5b505050506040513d601f19601f82011682018060405250810190610c819190612e72565b61066a5760405162461bcd60e51b815260206004820152601d60248201527f6d67764f666665722f617070726f76654d616e67726f76652f4661696c0000006044820152606401610502565b6001600160a01b03848116600090815260208181526040808320878516845282528083208684528252808320815180830190925254938416808252600160a01b9094046001600160601b0316918101919091529091331480610d5757507f00000000000000000000000000000000000000000000000000000000000000006001600160a01b031633145b610da35760405162461bcd60e51b815260206004820152601f60248201527f4d756c74692f726574726163744f666665722f756e617574686f72697a6564006044820152606401610502565b60208101516001600160601b031615610dd85782610dc2576000610dc8565b80602001515b6001600160601b03169150610e8c565b6001600160a01b037f00000000000000000000000000000000000000000000000000000000000000001663ad97db1b87876040516001600160e01b031960e085901b1681526001600160a01b039283166004820152911660248201526044810187905285151560648201526084016020604051808303816000875af1158015610e65573d6000803e3d6000fd5b505050506040513d601f19601f82011682018060405250810190610e899190612fcd565b91505b811561105957604051632e1a7d4d60e01b8152600481018390527f00000000000000000000000000000000000000000000000000000000000000006001600160a01b031690632e1a7d4d906024016020604051808303816000875af1158015610ef9573d6000803e3d6000fd5b505050506040513d601f19601f82011682018060405250810190610f1d9190612e72565b610f625760405162461bcd60e51b8152602060048201526016602482015275135d5b1d1a555cd95c8bddda5d1a191c985dd1985a5b60521b6044820152606401610502565b60408051808201825282516001600160a01b039081168252600060208084018281528b841683528282528583208b8516845282528583208a8452909152848220935190516001600160601b0316600160a01b0292169190911790915590513390849060006040518083038185875af1925050503d8060008114611001576040519150601f19603f3d011682016040523d82523d6000602084013e611006565b606091505b50509050806110575760405162461bcd60e51b815260206004820152601960248201527f4d756c7469557365722f7765695472616e736665724661696c000000000000006044820152606401610502565b505b50949350505050565b60008061106e3361287c565b90506001600160a01b038116156110855780611087565b335b91505090565b6000611097610bce565b1561111d576110a461182d565b6001600160a01b0316630417ffda6040518163ffffffff1660e01b8152600401602060405180830381865afa1580156110e1573d6000803e3d6000fd5b505050506040513d601f19601f820116820180604052508101906111059190612fcd565b61110d611a1d565b546111189190612fe6565b905090565b611125611a1d565b54919050565b611133611814565b6001600160a01b0316336001600160a01b0316148061117a5750336001600160a01b037f000000000000000000000000000000000000000000000000000000000000000016145b6111965760405162461bcd60e51b815260040161050290612f96565b6001600160a01b0381166111ec5760405162461bcd60e51b815260206004820152601c60248201527f6d67764f666665722f7365745f726f757465722f3078526f75746572000000006044820152606401610502565b806111f5611a1d565b60010180546001600160a01b0319166001600160a01b039283161790556040516381bac14f60e01b8152306004820152908216906381bac14f90602401600060405180830381600087803b15801561124c57600080fd5b505af1158015611260573d6000803e3d6000fd5b50506040516001600160a01b03841681527f6de4326a8b9054d72d9dbab97d27bc4edffadee7d966f5af9cc4eafdaf8e5455925060200190505b60405180910390a150565b60608167ffffffffffffffff8111156112c0576112c0612ed4565b6040519080825280602002602001820160405280156112e9578160200160208202803683370190505b50905060005b828110156110595761131a868686868581811061130e5761130e612e8f565b9050602002013561188d565b82828151811061132c5761132c612e8f565b6001600160a01b03909216602092830291909101909101528061134e81612ebb565b9150506112ef565b600080806001600160a01b037f00000000000000000000000000000000000000000000000000000000000000001663cbf75c9a89896040518363ffffffff1660e01b81526004016113a8929190612ffe565b6040805180830381865afa1580156113c4573d6000803e3d6000fd5b505050506040513d601f19601f820116820180604052508101906113e89190613018565b9150915060007f00000000000000000000000000000000000000000000000000000000000000006001600160a01b0316635722647b6114248b90565b8a6040516001600160e01b031960e085901b1681526001600160a01b0392831660048201529116602482015260448101889052606401602060405180830381865afa158015611477573d6000803e3d6000fd5b505050506040513d601f19601f8201168201806040525081019061149b9190612fcd565b9050600086604085901c61ffff1611156114be575061ffff604084901c166114c1565b50855b62ffffff88106114d6576114d361108d565b97505b6000816114ec62ffffff606087901c168b612fe6565b6114f6919061303c565b61150490633b9aca0061303c565b9050600061ffff602085901c1661152b62ffffff603087901c811690604888901c16612fe6565b611535919061303c565b61154390633b9aca0061303c565b6040516370a0823160e01b81523060048201529091506000906001600160a01b037f000000000000000000000000000000000000000000000000000000000000000016906370a0823190602401602060405180830381865afa1580156115ad573d6000803e3d6000fd5b505050506040513d601f19601f820116820180604052508101906115d19190612fcd565b6115db9083612fe6565b9050828110156115f4576115ef818461305b565b6115f7565b60005b9d9c50505050505050505050505050565b611610611814565b6001600160a01b0316336001600160a01b0316146116405760405162461bcd60e51b815260040161050290612f96565b6001600160a01b0381166116965760405162461bcd60e51b815260206004820152601860248201527f416363657373436f6e74726f6c6c65642f307841646d696e00000000000000006044820152606401610502565b8061169f6119f9565b80546001600160a01b0319166001600160a01b039290921691909117905550565b60006116ca61182d565b6001600160a01b03166305684fde836116e1611062565b6040518363ffffffff1660e01b81526004016116fe929190612ffe565b602060405180830381865afa15801561171b573d6000803e3d6000fd5b505050506040513d601f19601f8201168201806040525081019061083a9190612fcd565b806001600160a01b031663095ea7b361175661182d565b6040516001600160e01b031960e084901b1681526001600160a01b03909116600482015260001960248201526044016020604051808303816000875af11580156117a4573d6000803e3d6000fd5b505050506040513d601f19601f820116820180604052508101906117c89190612e72565b61066a5760405162461bcd60e51b815260206004820152601b60248201527f6d67764f666665722f617070726f7665526f757465722f4661696c00000000006044820152606401610502565b600061181e6119f9565b546001600160a01b0316919050565b600080611838611a1d565b600101546001600160a01b03169050806118885760405162461bcd60e51b815260206004820152601160248201527036b3bb27b33332b917983c2937baba32b960791b6044820152606401610502565b919050565b6001600160a01b038084166000908152602081815260408083208685168452825280832085845290915290205416806105ae5760405162461bcd60e51b815260206004820152601560248201527436bab63a34aab9b2b917bab735b7bbb727b33332b960591b6044820152606401610502565b611908611814565b6001600160a01b0316336001600160a01b0316148061194f5750336001600160a01b037f000000000000000000000000000000000000000000000000000000000000000016145b61196b5760405162461bcd60e51b815260040161050290612f96565b808162ffffff16146119bf5760405162461bcd60e51b815260206004820152601860248201527f6d67764f666665722f6761737265712f6f766572666c6f7700000000000000006044820152606401610502565b806119c8611a1d565b556040518181527fafef3ad374c0b972e3c793be825735801fa05cc4c67157d98d9a111b4027988d9060200161129a565b7f7d382ebca3e46505071795e192d28166a3d4bd0685585591bc6c5b8df6769fd290565b7fae7e31c3220e851db9f204a28b279dfe52b973600b0a456991089c220ae7222490565b611a4961182d565b6001600160a01b031663a01dccd882611a60611062565b6040518363ffffffff1660e01b8152600401611a7d929190612ffe565b60006040518083038186803b158015611a9557600080fd5b505afa158015611aa9573d6000803e3d6000fd5b5050505061066a816128ac565b81516001600160a01b039081166000908152602081815260408083208287015185168452825280832060e0870151845282528083208151808301835290549485168152600160a01b9094046001600160601b031684830152805160808101825283815291820183905281018290526060810182905290919081516001600160a01b0316331480611b6e5750336001600160a01b037f000000000000000000000000000000000000000000000000000000000000000016145b611bba5760405162461bcd60e51b815260206004820152601e60248201527f4d756c74692f7570646174654f666665722f756e617574686f72697a656400006044820152606401610502565b8451602086015160e0870151604051635722647b60e01b81526001600160a01b039384166004820152918316602483015260448201527f000000000000000000000000000000000000000000000000000000000000000090911690635722647b90606401602060405180830381865afa158015611c3b573d6000803e3d6000fd5b505050506040513d601f19601f82011682018060405250810190611c5f9190612fcd565b604082015284516001600160a01b037f0000000000000000000000000000000000000000000000000000000000000000169063cbf75c9a9060208801516040518363ffffffff1660e01b8152600401611cb9929190612ffe565b6040805180830381865afa158015611cd5573d6000803e3d6000fd5b505050506040513d601f19601f82011682018060405250810190611cf99190613018565b6020830152815260608101849052608085015162ffffff10611d1f578460800151611d27565b611d2761108d565b6080860152604081015160201c61ffff1660a08601819052600003611e095760208201516001600160601b031615611ddf5781602001516001600160601b031681606001818151611d789190612fe6565b90525060408051808201825283516001600160a01b039081168252600060208084018281528a51841683528282528583208b83015185168452825285832060e08c01518452909152939020915192516001600160601b0316600160a01b0292169190911790555b60808501516060808301516020840151611dff93921c62ffffff1661299a565b60a0860152611e8a565b8315611e8a57602081015160601c62ffffff16604082015160481c62ffffff16611e339190612fe6565b60a0860151611e4690633b9aca0061303c565b611e50919061303c565b81606001818151611e619190612fe6565b90525060808501516060808301516020840151611e8493921c62ffffff1661299a565b60a08601525b805160401c61ffff168560a001511015611ef75760405162461bcd60e51b815260206004820152602860248201527f4d756c7469557365722f7570646174654f666665722f4e6f74456e6f756768506044820152673937bb34b9b4b7b760c11b6064820152608401610502565b7f00000000000000000000000000000000000000000000000000000000000000006001600160a01b0316636a4f769185611f32886000015190565b602089015189604001518a606001518b608001518c60a001518d60c001518e60e001516040518a63ffffffff1660e01b8152600401611fb79897969594939291906001600160a01b03988916815296909716602087015260408601949094526060850192909252608084015260a083015260c082015260e08101919091526101000190565b6000604051808303818588803b158015611fd057600080fd5b505af193505050508015611fe2575060015b611ff15760009250505061083a565b506001949350505050565b60008061200883612a35565b9050600061201584612a55565b905081600003612029575060019392505050565b6040805161010081019091526120cb90806120476020880188612c8b565b6001600160a01b031681526020018660200160208101906120689190612c8b565b6001600160a01b03168152602081018490526040810185905260600160c087013560481c62ffffff16815260209081019060c0880135901c61ffff168152602001606087013560c01c63ffffffff16815260200186604001358152506000611ab6565b949350505050565b6000806120e36020850185612c8b565b905060006120f76040860160208701612c8b565b6001600160a01b03838116600090815260208181526040808320858516845282528083208a820135845282528083208151808301909252548085168252600160a01b90046001600160601b031681830152939450909182917f00000000000000000000000000000000000000000000000000000000000000009091169063cbf75c9a90612186908b018b612c8b565b61219660408c0160208d01612c8b565b6040518363ffffffff1660e01b81526004016121b3929190612ffe565b6040805180830381865afa1580156121cf573d6000803e3d6000fd5b505050506040513d601f19601f820116820180604052508101906121f39190613018565b9092509050600061221061ffff604085901c16633b9aca0061303c565b9050600060c08a013560301c62ffffff1660c08b013560481c62ffffff166122389190612fe6565b61225161ffff60c08d013560201c16633b9aca0061303c565b61225b919061303c565b9050600082606085901c62ffffff165a60c08e013560481c62ffffff16612282919061305b565b61228e90610bb8612fe6565b6122989190612fe6565b6122a2919061303c565b90506000828210156122bd576122b8828461305b565b6122c0565b60005b60408051808201825298516001600160a01b039081168a526001600160601b039283166020808c019182529c82166000908152808e528381209c831681529b8d52828c209f8301358c529e909b5290982096519b51909716600160a01b029a90971699909917909355506001979650505050505050565b6001600160a01b0381166123845760405162461bcd60e51b815260206004820152601460248201527353696e676c65557365722f30785265736572766560601b6044820152606401610502565b8061238d611a1d565b6001600160a01b0393841660009081526002919091016020526040902080546001600160a01b031916919093161790915550565b6123ca81610bed565b6123d2610bce565b1561066a576123e08161173f565b6123e861182d565b604051630716a76760e21b81526001600160a01b0383811660048301529190911690631c5a9d9c90602401600060405180830381600087803b15801561242d57600080fd5b505af1158015612441573d6000803e3d6000fd5b5050505050565b825160208401516040516365fbae4d60e11b8152600092839283926001600160a01b037f0000000000000000000000000000000000000000000000000000000000000000169263cbf75c9a926124a092600401612ffe565b6040805180830381865afa1580156124bc573d6000803e3d6000fd5b505050506040513d601f19601f820116820180604052508101906124e09190613018565b9150915062ffffff80168660800151116124fe578560800151612506565b61250661108d565b608087018190526125219085606084901c62ffffff1661299a565b60a0870181905261ffff604084901c16111561258d5760405162461bcd60e51b815260206004820152602560248201527f4d756c7469557365722f6e65774f666665722f4e6f74456e6f75676850726f7660448201526434b9b4b7b760d91b6064820152608401610502565b7f00000000000000000000000000000000000000000000000000000000000000006001600160a01b03166349f6d2dc856125c8896000015190565b60208a01518a604001518b606001518c608001518d60a001518e60c001516040518963ffffffff1660e01b815260040161264197969594939291906001600160a01b03978816815295909616602086015260408501939093526060840191909152608083015260a082015260c081019190915260e00190565b60206040518083038185885af115801561265f573d6000803e3d6000fd5b50505050506040513d601f19601f820116820180604052508101906126849190612fcd565b60e087018190528651602088015161269c9288612a72565b50505060e08301519392505050565b6000806126bb6020840184612c8b565b905060006126cf6040850160208601612c8b565b905060006126e28383876040013561188d565b90506126ec61182d565b60405163137476d160e11b81526001600160a01b03848116600483015283811660248301526044820189905291909116906326e8eda290606401600060405180830381600087803b15801561274057600080fd5b505af1158015612754573d6000803e3d6000fd5b5060009998505050505050505050565b6000806127746020840184612c8b565b905060006127886040850160208601612c8b565b9050600061279b8383876040013561188d565b905060006127a88261287c565b905060006127b461182d565b6001600160a01b031663333dbb0d8660006001600160a01b0316856001600160a01b0316146127e357846127e5565b855b6040516001600160e01b031960e085901b1681526001600160a01b03928316600482015291166024820152604481018b9052600160648201526084016020604051808303816000875af1158015612840573d6000803e3d6000fd5b505050506040513d601f19601f820116820180604052508101906128649190612fcd565b9050612870818961305b565b98975050505050505050565b6000612886611a1d565b6001600160a01b0392831660009081526002919091016020526040902054909116919050565b604051636eb1769f60e11b81526000906001600160a01b0383169063dd62ed3e906128fd9030907f000000000000000000000000000000000000000000000000000000000000000090600401612ffe565b602060405180830381865afa15801561291a573d6000803e3d6000fd5b505050506040513d601f19601f8201168201806040525081019061293e9190612fcd565b1161066a5760405162461bcd60e51b815260206004820152602660248201527f4d616e67726f76654f666665722f41646d696e4d757374417070726f76654d616044820152656e67726f766560d01b6064820152608401610502565b6000806129a78584612fe6565b6129b590633b9aca0061303c565b905080841015612a1c5760405162461bcd60e51b815260206004820152602c60248201527f4d756c7469557365722f6465726976655f67617370726963652f4e6f74456e6f60448201526b3ab3b4283937bb34b9b4b7b760a11b6064820152608401610502565b808481612a2b57612a2b613072565b0495945050505050565b600060808201356001600160601b036060840135165b61083a919061305b565b600060a0820135606080840135901c6001600160601b0316612a4b565b6040805180820182526001600160a01b038084168252600060208084018281528984168084528383528684208a86168086529084528785208a865290935292869020945190516001600160601b0316600160a01b029316929092179092559151849291907f460a431c86ecaea27134277388c72021356689d9eb62c3b25a5e4a97da7a8a1490612b25907f0000000000000000000000000000000000000000000000000000000000000000908790612ffe565b60405180910390a450505050565b6001600160a01b038116811461066a57600080fd5b803561188881612b33565b600080600060608486031215612b6857600080fd5b8335612b7381612b33565b92506020840135612b8381612b33565b929592945050506040919091013590565b60008083601f840112612ba657600080fd5b50813567ffffffffffffffff811115612bbe57600080fd5b6020830191508360208260051b8501011115612bd957600080fd5b9250929050565b60008060208385031215612bf357600080fd5b823567ffffffffffffffff811115612c0a57600080fd5b612c1685828601612b94565b90969095509350505050565b6000610100828403121561095957600080fd5b6000610120828403121561095957600080fd5b600080828403610160811215612c5d57600080fd5b612c678585612c35565b9250604061011f1982011215612c7c57600080fd5b50610120830190509250929050565b600060208284031215612c9d57600080fd5b81356105ae81612b33565b60006101208284031215612cbb57600080fd5b6105ae8383612c35565b60008060408385031215612cd857600080fd5b823591506020830135612cea81612b33565b809150509250929050565b801515811461066a57600080fd5b60008060008060808587031215612d1957600080fd5b8435612d2481612b33565b93506020850135612d3481612b33565b9250604085013591506060850135612d4b81612cf5565b939692955090935050565b60008060008060608587031215612d6c57600080fd5b8435612d7781612b33565b93506020850135612d8781612b33565b9250604085013567ffffffffffffffff811115612da357600080fd5b612daf87828801612b94565b95989497509550505050565b6020808252825182820181905260009190848201906040850190845b81811015612dfc5783516001600160a01b031683529284019291840191600101612dd7565b50909695505050505050565b600080600080600060a08688031215612e2057600080fd5b8535612e2b81612b33565b94506020860135612e3b81612b33565b94979496505050506040830135926060810135926080909101359150565b600060208284031215612e6b57600080fd5b5035919050565b600060208284031215612e8457600080fd5b81516105ae81612cf5565b634e487b7160e01b600052603260045260246000fd5b634e487b7160e01b600052601160045260246000fd5b600060018201612ecd57612ecd612ea5565b5060010190565b634e487b7160e01b600052604160045260246000fd5b6000610100808385031215612efe57600080fd5b6040519081019067ffffffffffffffff82118183101715612f2f57634e487b7160e01b600052604160045260246000fd5b81604052612f3c84612b48565b8152612f4a60208501612b48565b602082015260408401356040820152606084013560608201526080840135608082015260a084013560a082015260c084013560c082015260e084013560e0820152809250505092915050565b60208082526018908201527f416363657373436f6e74726f6c6c65642f496e76616c69640000000000000000604082015260600190565b600060208284031215612fdf57600080fd5b5051919050565b60008219821115612ff957612ff9612ea5565b500190565b6001600160a01b0392831681529116602082015260400190565b6000806040838503121561302b57600080fd5b505080516020909101519092909150565b600081600019048311821515161561305657613056612ea5565b500290565b60008282101561306d5761306d612ea5565b500390565b634e487b7160e01b600052601260045260246000fdfea26469706673582212205ba392bbce022abe6935295d2fcf8a3eb7882edfda32c5e452d1042c286188f364736f6c634300080e00336101206040523480156200001257600080fd5b5060405162004042380380620040428339810160408190526200003591620003fd565b828282828282620aae603380620000935760405162461bcd60e51b815260206004820152601860248201527f616363657373436f6e74726f6c6c65642f307841646d696e000000000000000060448201526064015b60405180910390fd5b80620000a96200038a60201b620011cb1760201c565b80546001600160a01b0319166001600160a01b03929092169190911790555062ffffff811681146200011e5760405162461bcd60e51b815260206004820152601660248201527f526f757465722f6f76657268656164546f6f486967680000000000000000000060448201526064016200008a565b8062000134620003ae60201b620011ef1760201c565b600101555061ffff82166101005260e08190526040516321f8a72160e01b81526b50524943455f4f5241434c4560a01b60048201526000906001600160a01b038516906321f8a72190602401602060405180830381865afa1580156200019e573d6000803e3d6000fd5b505050506040513d601f19601f82011682018060405250810190620001c4919062000435565b90506000846001600160a01b031663026b1d5f6040518163ffffffff1660e01b8152600401602060405180830381865afa15801562000207573d6000803e3d6000fd5b505050506040513d601f19601f820116820180604052508101906200022d919062000435565b90506001600160a01b038216620002875760405162461bcd60e51b815260206004820152601860248201527f416176654d6f64756c652f307850726963654f7261636c65000000000000000060448201526064016200008a565b6001600160a01b038116620002d35760405162461bcd60e51b815260206004820152601160248201527010585d99535bd91d5b194bcc1e141bdbdb607a1b60448201526064016200008a565b6001600160a01b0380821660a052821660c05260405181908390620002f890620003d2565b6001600160a01b03928316815291166020820152604001604051809103906000f0801580156200032c573d6000803e3d6000fd5b506001600160a01b03166080816001600160a01b03168152505050505050505050506205573062000367620003ae60201b620011ef1760201c565b60010160008282546200037b91906200045a565b90915550620004819350505050565b7f7d382ebca3e46505071795e192d28166a3d4bd0685585591bc6c5b8df6769fd290565b7ff2910982afb88211fa9894801aaf0314409ca240a0a8904897b9f5ba323ca53390565b6112978062002dab83390190565b80516001600160a01b0381168114620003f857600080fd5b919050565b6000806000606084860312156200041357600080fd5b6200041e84620003e0565b925060208401519150604084015190509250925092565b6000602082840312156200044857600080fd5b6200045382620003e0565b9392505050565b600082198211156200047c57634e487b7160e01b600052601160045260246000fd5b500190565b60805160a05160c05160e0516101005161284b62000560600039600081816102ce015281816116390152818161189b01528181611a820152611bad0152600081816103dc015281816108b3015281816115500152818161187201528181611a5c0152611b840152600061031b0152600081816103a2015281816104e9015281816108f80152818161098d01528181610d800152818161157e01528181611660015281816117d0015281816118ca01528181611a270152611df101526000818161034201528181610b0501528181611afe0152611c3c015261284b6000f3fe608060405234801561001057600080fd5b50600436106101c45760003560e01c806352da17a4116100f9578063b0a02abe11610097578063e5cd487f11610071578063e5cd487f1461045d578063e9333fab14610470578063f850a81c14610483578063f851a4401461049657600080fd5b8063b0a02abe14610424578063ca34f9ec14610437578063cf5e7bd31461044a57600080fd5b806381bac14f116100d357806381bac14f146103c457806383008bd9146103d75780638faf5531146103fe578063a01dccd81461041157600080fd5b806352da17a4146103775780635a3e96181461038a5780637535d2461461039d57600080fd5b806326e8eda211610166578063362aecb111610140578063362aecb11461030357806338013f02146103165780633a4741bd1461033d578063492fffc71461036457600080fd5b806326e8eda2146102a3578063333dbb0d146102b65780633583849a146102c957600080fd5b80631c5a9d9c116101a25780631c5a9d9c146102225780632026ffa31461023757806321754d9e146102585780632197c31e1461027b57600080fd5b80630417ffda146101c957806305684fde146101e45780630efc8fd2146101f7575b600080fd5b6101d161049e565b6040519081526020015b60405180910390f35b6101d16101f2366004611eca565b6104b1565b61020a610205366004611f03565b6104c7565b6040516001600160a01b0390911681526020016101db565b610235610230366004611f03565b610562565b005b61024a610245366004611f6c565b6105be565b6040516101db929190611fc1565b61026b610266366004612045565b610611565b60405190151581526020016101db565b61028e6102893660046120a4565b61064f565b604080519283526020830191909152016101db565b6102356102b13660046120ef565b610791565b6101d16102c4366004612130565b6107c7565b6102f07f000000000000000000000000000000000000000000000000000000000000000081565b60405161ffff90911681526020016101db565b61026b610311366004611f03565b610883565b61020a7f000000000000000000000000000000000000000000000000000000000000000081565b61020a7f000000000000000000000000000000000000000000000000000000000000000081565b61020a610372366004611f03565b6108af565b610235610385366004612183565b610a05565b6102356103983660046121cb565b610ab1565b61020a7f000000000000000000000000000000000000000000000000000000000000000081565b6102356103d2366004611f03565b610b97565b6101d17f000000000000000000000000000000000000000000000000000000000000000081565b61023561040c366004612183565b610c15565b61023561041f366004611eca565b610c86565b6101d1610432366004611eca565b610d5c565b610235610445366004611f03565b610ef3565b610235610458366004611f03565b610eff565b61023561046b366004612183565b610f50565b61023561047e366004611f03565b610fea565b61023561049136600461223d565b6110a2565b61020a6111b2565b60006104a86111ef565b60010154905090565b60006104bf8360008461064f565b509392505050565b6040516335ea6a7560e01b81526001600160a01b0382811660048301526000917f0000000000000000000000000000000000000000000000000000000000000000909116906335ea6a75906024016101e060405180830381865afa158015610533573d6000803e3d6000fd5b505050506040513d601f19601f820116820180604052508101906105579190612393565b610100015192915050565b61056a6111b2565b6001600160a01b0316336001600160a01b0316148061058d575061058d33610883565b6105b25760405162461bcd60e51b81526004016105a9906124b6565b60405180910390fd5b6105bb81610ef3565b50565b6060806105c96111b2565b6001600160a01b0316336001600160a01b0316146105f95760405162461bcd60e51b81526004016105a9906124e3565b610604858585611213565b915091505b935093915050565b600061061c33610883565b6106385760405162461bcd60e51b81526004016105a9906124b6565b61064485858585611297565b90505b949350505050565b6040516001600160a01b0384811660248301528315156044830152821660648201526000908190819081903090630b47d2c360e31b9063fd8c045160e01b9060840160408051601f198184030181529181526020820180516001600160e01b03166001600160e01b03199094169390931790925290516106d29190602401612546565b60408051601f198184030181529181526020820180516001600160e01b03166001600160e01b03199094169390931790925290516107109190612579565b600060405180830381855afa9150503d806000811461074b576040519150601f19603f3d011682016040523d82523d6000602084013e610750565b606091505b509150915081610768576107638161132d565b610787565b8080602001905181019061077c9190612595565b935093505050610609565b5050935093915050565b61079a33610883565b6107b65760405162461bcd60e51b81526004016105a9906124b6565b6107c283833384611386565b505050565b60006107d233610883565b6107ee5760405162461bcd60e51b81526004016105a9906124b6565b6040516370a0823160e01b81523360048201526000906001600160a01b038716906370a0823190602401602060405180830381865afa158015610835573d6000803e3d6000fd5b505050506040513d601f19601f8201168201806040525081019061085991906125b9565b905083811061086c576000915050610647565b61087986863387876113e9565b9695505050505050565b600061088d6111ef565b6001600160a01b03909216600090815260209290925250604090205460ff1690565b60007f000000000000000000000000000000000000000000000000000000000000000060011461096e576040516335ea6a7560e01b81526001600160a01b0383811660048301527f000000000000000000000000000000000000000000000000000000000000000016906335ea6a75906024016101e060405180830381865afa158015610940573d6000803e3d6000fd5b505050506040513d601f19601f820116820180604052508101906109649190612393565b61014001516109ff565b6040516335ea6a7560e01b81526001600160a01b0383811660048301527f000000000000000000000000000000000000000000000000000000000000000016906335ea6a75906024016101e060405180830381865afa1580156109d5573d6000803e3d6000fd5b505050506040513d601f19601f820116820180604052508101906109f99190612393565b61012001515b92915050565b610a0d6111b2565b6001600160a01b0316336001600160a01b031614610a3d5760405162461bcd60e51b81526004016105a9906124e3565b610a49848285856113f8565b610a9f5760405162461bcd60e51b815260206004820152602160248201527f41617665526f757465722f72657061792f7472616e7366657246726f6d4661696044820152601b60fa1b60648201526084016105a9565b610aaa848385611522565b5050505050565b333014610b005760405162461bcd60e51b815260206004820152601760248201527f416176654d6f64756c652f696e7465726e616c4f6e6c7900000000000000000060448201526064016105a9565b6000807f00000000000000000000000000000000000000000000000000000000000000006001600160a01b03168484604051610b3d9291906125d2565b600060405180830381855af49150503d8060008114610b78576040519150601f19603f3d011682016040523d82523d6000602084013e610b7d565b606091505b509150915081610b9057610b908161132d565b3d60208201f35b610b9f6111b2565b6001600160a01b0316336001600160a01b03161480610bc25750610bc233610883565b610bde5760405162461bcd60e51b81526004016105a9906124b6565b6001610be86111ef565b6001600160a01b039290921660009081526020929092526040909120805460ff1916911515919091179055565b610c1d6111b2565b6001600160a01b0316336001600160a01b031614610c4d5760405162461bcd60e51b81526004016105a9906124e3565b610c59848285856113f8565b610c755760405162461bcd60e51b81526004016105a9906125e2565b610c808483856115fb565b50505050565b604051636eb1769f60e11b81523360048201523060248201526000906001600160a01b0384169063dd62ed3e90604401602060405180830381865afa158015610cd3573d6000803e3d6000fd5b505050506040513d601f19601f82011682018060405250810190610cf791906125b9565b11610d4e5760405162461bcd60e51b815260206004820152602160248201527f526f757465722f4e6f74417070726f76656442794d616b6572436f6e747261636044820152601d60fa1b60648201526084016105a9565b610d5882826116c2565b5050565b6040516335ea6a7560e01b81526001600160a01b03838116600483015260009182917f000000000000000000000000000000000000000000000000000000000000000016906335ea6a75906024016101e060405180830381865afa158015610dc8573d6000803e3d6000fd5b505050506040513d601f19601f82011682018060405250810190610dec9190612393565b6101408101516040516370a0823160e01b81526001600160a01b038681166004830152929350600092909116906370a0823190602401602060405180830381865afa158015610e3f573d6000803e3d6000fd5b505050506040513d601f19601f82011682018060405250810190610e6391906125b9565b6101208301516040516370a0823160e01b81526001600160a01b038781166004830152929350600092909116906370a0823190602401602060405180830381865afa158015610eb6573d6000803e3d6000fd5b505050506040513d601f19601f82011682018060405250810190610eda91906125b9565b905081811015610eea5781610879565b95945050505050565b6105bb816000196117b9565b610f076111b2565b6001600160a01b0316336001600160a01b03161480610f2a5750610f2a33610883565b610f465760405162461bcd60e51b81526004016105a9906124b6565b6000610be86111ef565b610f586111b2565b6001600160a01b0316336001600160a01b031614610f885760405162461bcd60e51b81526004016105a9906124e3565b610f9384838561184c565b610f9e8482846118f9565b610c805760405162461bcd60e51b815260206004820152601e60248201527f41617665526f757465722f626f72726f772f7472616e736665724661696c000060448201526064016105a9565b610ff26111b2565b6001600160a01b0316336001600160a01b0316146110225760405162461bcd60e51b81526004016105a9906124e3565b6001600160a01b0381166110785760405162461bcd60e51b815260206004820152601860248201527f416363657373436f6e74726f6c6c65642f307841646d696e000000000000000060448201526064016105a9565b806110816111cb565b80546001600160a01b0319166001600160a01b039290921691909117905550565b6110ab33610883565b6110c75760405162461bcd60e51b81526004016105a9906124b6565b60005b82811015610c805760008484838181106110e6576110e6612624565b90506020020160208101906110fb9190611f03565b6040516370a0823160e01b81523360048201526001600160a01b0391909116906370a0823190602401602060405180830381865afa158015611141573d6000803e3d6000fd5b505050506040513d601f19601f8201168201806040525081019061116591906125b9565b9050801561119f5761119f85858481811061118257611182612624565b90506020020160208101906111979190611f03565b843384611386565b50806111aa8161263a565b9150506110ca565b60006111bc6111cb565b546001600160a01b0316919050565b7f7d382ebca3e46505071795e192d28166a3d4bd0685585591bc6c5b8df6769fd290565b7ff2910982afb88211fa9894801aaf0314409ca240a0a8904897b9f5ba323ca53390565b606080846001600160a01b031663bf90f63a85856040518363ffffffff1660e01b8152600401611244929190612661565b6000604051808303816000875af1158015611263573d6000803e3d6000fd5b505050506040513d6000823e601f3d908101601f1916820160405261128b9190810190612733565b90969095509350505050565b60006112ad6112a5866104c7565b8530856113f8565b6112c95760405162461bcd60e51b81526004016105a9906125e2565b816112d58684866119f1565b146113225760405162461bcd60e51b815260206004820152601d60248201527f41617665526f757465722f7769746864726177546f6b656e2f4661696c00000060448201526064016105a9565b506001949350505050565b805160000361137e5760405162461bcd60e51b815260206004820181905260248201527f416176654d6f64756c6553746f726167652f7265766572744e6f526561736f6e60448201526064016105a9565b805160208201fd5b611392848330846113f8565b6113de5760405162461bcd60e51b815260206004820152601c60248201527f41617665526f757465722f707573682f7472616e736665724661696c0000000060448201526064016105a9565b610c80848483611a56565b60006108798686858588611b7e565b60008115806114185750826001600160a01b0316846001600160a01b0316145b1561142557506001610647565b306001600160a01b03851603611447576114408584846118f9565b9050610647565b604080516001600160a01b0386811660248301528581166044830152606480830186905283518084039091018152608490920183526020820180516001600160e01b03166323b872dd60e01b17905291516000928392908916916114ab9190612579565b6000604051808303816000865af19150503d80600081146114e8576040519150601f19603f3d011682016040523d82523d6000602084013e6114ed565b606091505b509150915081801561151757508051158061151757508080602001905181019061151791906127f8565b979650505050505050565b600082156115f15760405163573ade8160e01b81526001600160a01b038581166004830152602482018590527f0000000000000000000000000000000000000000000000000000000000000000604483015283811660648301527f0000000000000000000000000000000000000000000000000000000000000000169063573ade81906084015b6020604051808303816000875af11580156115c8573d6000803e3d6000fd5b505050506040513d601f19601f820116820180604052508101906115ec91906125b9565b610647565b6000949350505050565b8160000361160857505050565b60405163617ba03760e01b81526001600160a01b03848116600483015260248201849052828116604483015261ffff7f00000000000000000000000000000000000000000000000000000000000000001660648301527f0000000000000000000000000000000000000000000000000000000000000000169063617ba037906084015b600060405180830381600087803b1580156116a557600080fd5b505af11580156116b9573d6000803e3d6000fd5b50505050505050565b60006116cd836108af565b90506001600160a01b0382163014806117575750604051631af5db4960e21b81526001600160a01b03838116600483015230602483015260009190831690636bd76d2490604401602060405180830381865afa158015611731573d6000803e3d6000fd5b505050506040513d601f19601f8201168201806040525081019061175591906125b9565b115b6117af5760405162461bcd60e51b8152602060048201526024808201527f4161766544656570526f757465722f4e6f7444656c65676174656442795265736044820152636572766560e01b60648201526084016105a9565b6107c28383611ce3565b60405163095ea7b360e01b81526001600160a01b037f0000000000000000000000000000000000000000000000000000000000000000811660048301526024820183905283169063095ea7b3906044016020604051808303816000875af1158015611828573d6000803e3d6000fd5b505050506040513d601f19601f820116820180604052508101906107c291906127f8565b60405163a415bcad60e01b81526001600160a01b038481166004830152602482018490527f0000000000000000000000000000000000000000000000000000000000000000604483015261ffff7f000000000000000000000000000000000000000000000000000000000000000016606483015282811660848301527f0000000000000000000000000000000000000000000000000000000000000000169063a415bcad9060a40161168b565b600081158061191057506001600160a01b03831630145b1561191d575060016119ea565b604080516001600160a01b038581166024830152604480830186905283518084039091018152606490920183526020820180516001600160e01b031663a9059cbb60e01b17905291516000928392908816916119799190612579565b6000604051808303816000865af19150503d80600081146119b6576040519150601f19603f3d011682016040523d82523d6000602084013e6119bb565b606091505b50915091508180156119e55750805115806119e55750808060200190518101906119e591906127f8565b925050505b9392505050565b600082156115f157604051631a4ca37b60e21b81526001600160a01b0385811660048301526024820185905283811660448301527f000000000000000000000000000000000000000000000000000000000000000016906369328dec906064016115a9565b604080517f000000000000000000000000000000000000000000000000000000000000000060248201527f000000000000000000000000000000000000000000000000000000000000000061ffff1660448201526001600160a01b038581166064830152848116608483015260a48083018590528351808403909101815260c490920183526020820180516001600160e01b03166301c77dc560e11b179052915160009283927f000000000000000000000000000000000000000000000000000000000000000090911691611b2b9190612579565b600060405180830381855af49150503d8060008114611b66576040519150601f19603f3d011682016040523d82523d6000602084013e611b6b565b606091505b509150915081610aaa57610aaa8161132d565b604080517f0000000000000000000000000000000000000000000000000000000000000000602482015261ffff7f00000000000000000000000000000000000000000000000000000000000000001660448201526001600160a01b038781166064830152868116608483015260a4820186905284151560c483015283811660e4808401919091528351808403909101815261010490920183526020820180516001600160e01b0316634882dc1d60e11b1790529151600092839283927f000000000000000000000000000000000000000000000000000000000000000090921691611c699190612579565b600060405180830381855af49150503d8060008114611ca4576040519150601f19603f3d011682016040523d82523d6000602084013e611ca9565b606091505b50915091508115611ccf5780806020019051810190611cc891906125b9565b9250611cd8565b611cd88161132d565b505095945050505050565b6001600160a01b038116301480611d7457506000611d00836104c7565b604051636eb1769f60e11b81526001600160a01b038481166004830152306024830152919091169063dd62ed3e90604401602060405180830381865afa158015611d4e573d6000803e3d6000fd5b505050506040513d601f19601f82011682018060405250810190611d7291906125b9565b115b611dd45760405162461bcd60e51b815260206004820152602b60248201527f61617665526f757465722f4e6f74417070726f7665644279526573657276654660448201526a6f724f7665726c79696e6760a81b60648201526084016105a9565b604051636eb1769f60e11b81523060048201526001600160a01b037f0000000000000000000000000000000000000000000000000000000000000000811660248301526000919084169063dd62ed3e90604401602060405180830381865afa158015611e44573d6000803e3d6000fd5b505050506040513d601f19601f82011682018060405250810190611e6891906125b9565b11610d585760405162461bcd60e51b815260206004820152601d60248201527f61617665526f757465722f6861734e6f74417070726f766564506f6f6c00000060448201526064016105a9565b6001600160a01b03811681146105bb57600080fd5b60008060408385031215611edd57600080fd5b8235611ee881611eb5565b91506020830135611ef881611eb5565b809150509250929050565b600060208284031215611f1557600080fd5b81356119ea81611eb5565b60008083601f840112611f3257600080fd5b50813567ffffffffffffffff811115611f4a57600080fd5b6020830191508360208260051b8501011115611f6557600080fd5b9250929050565b600080600060408486031215611f8157600080fd5b8335611f8c81611eb5565b9250602084013567ffffffffffffffff811115611fa857600080fd5b611fb486828701611f20565b9497909650939450505050565b604080825283519082018190526000906020906060840190828701845b828110156120035781516001600160a01b031684529284019290840190600101611fde565b5050508381038285015284518082528583019183019060005b818110156120385783518352928401929184019160010161201c565b5090979650505050505050565b6000806000806080858703121561205b57600080fd5b843561206681611eb5565b9350602085013561207681611eb5565b9250604085013561208681611eb5565b9396929550929360600135925050565b80151581146105bb57600080fd5b6000806000606084860312156120b957600080fd5b83356120c481611eb5565b925060208401356120d481612096565b915060408401356120e481611eb5565b809150509250925092565b60008060006060848603121561210457600080fd5b833561210f81611eb5565b9250602084013561211f81611eb5565b929592945050506040919091013590565b6000806000806080858703121561214657600080fd5b843561215181611eb5565b9350602085013561216181611eb5565b925060408501359150606085013561217881612096565b939692955090935050565b6000806000806080858703121561219957600080fd5b84356121a481611eb5565b935060208501356121b481611eb5565b925060408501359150606085013561217881611eb5565b600080602083850312156121de57600080fd5b823567ffffffffffffffff808211156121f657600080fd5b818501915085601f83011261220a57600080fd5b81358181111561221957600080fd5b86602082850101111561222b57600080fd5b60209290920196919550909350505050565b60008060006040848603121561225257600080fd5b833567ffffffffffffffff81111561226957600080fd5b61227586828701611f20565b90945092505060208401356120e481611eb5565b634e487b7160e01b600052604160045260246000fd5b6040516101e0810167ffffffffffffffff811182821017156122c3576122c3612289565b60405290565b604051601f8201601f1916810167ffffffffffffffff811182821017156122f2576122f2612289565b604052919050565b60006020828403121561230c57600080fd5b6040516020810181811067ffffffffffffffff8211171561232f5761232f612289565b6040529151825250919050565b80516fffffffffffffffffffffffffffffffff8116811461235c57600080fd5b919050565b805164ffffffffff8116811461235c57600080fd5b805161ffff8116811461235c57600080fd5b805161235c81611eb5565b60006101e082840312156123a657600080fd5b6123ae61229f565b6123b884846122fa565b81526123c66020840161233c565b60208201526123d76040840161233c565b60408201526123e86060840161233c565b60608201526123f96080840161233c565b608082015261240a60a0840161233c565b60a082015261241b60c08401612361565b60c082015261242c60e08401612376565b60e082015261010061243f818501612388565b90820152610120612451848201612388565b90820152610140612463848201612388565b90820152610160612475848201612388565b9082015261018061248784820161233c565b908201526101a061249984820161233c565b908201526101c06124ab84820161233c565b908201529392505050565b602080825260139082015272149bdd5d195c8bdd5b985d5d1a1bdc9a5e9959606a1b604082015260600190565b60208082526018908201527f416363657373436f6e74726f6c6c65642f496e76616c69640000000000000000604082015260600190565b60005b8381101561253557818101518382015260200161251d565b83811115610c805750506000910152565b602081526000825180602084015261256581604085016020870161251a565b601f01601f19169190910160400192915050565b6000825161258b81846020870161251a565b9190910192915050565b600080604083850312156125a857600080fd5b505080516020909101519092909150565b6000602082840312156125cb57600080fd5b5051919050565b8183823760009101908152919050565b60208082526022908201527f41617665526f757465722f737570706c792f7472616e7366657246726f6d46616040820152611a5b60f21b606082015260800190565b634e487b7160e01b600052603260045260246000fd5b60006001820161265a57634e487b7160e01b600052601160045260246000fd5b5060010190565b60208082528181018390526000908460408401835b868110156126a457823561268981611eb5565b6001600160a01b031682529183019190830190600101612676565b509695505050505050565b600067ffffffffffffffff8211156126c9576126c9612289565b5060051b60200190565b600082601f8301126126e457600080fd5b815160206126f96126f4836126af565b6122c9565b82815260059290921b8401810191818101908684111561271857600080fd5b8286015b848110156126a4578051835291830191830161271c565b6000806040838503121561274657600080fd5b825167ffffffffffffffff8082111561275e57600080fd5b818501915085601f83011261277257600080fd5b815160206127826126f4836126af565b82815260059290921b840181019181810190898411156127a157600080fd5b948201945b838610156127c85785516127b981611eb5565b825294820194908201906127a6565b918801519196509093505050808211156127e157600080fd5b506127ee858286016126d3565b9150509250929050565b60006020828403121561280a57600080fd5b81516119ea8161209656fea264697066735822122025940ff181a844f52d868c927cb9d8dc932f1dc9d1203cbe208dfab825df457764736f6c634300080e003360c060405234801561001057600080fd5b5060405161129738038061129783398101604081905261002f9161005e565b6001600160a01b039182166080521660a052610098565b6001600160a01b038116811461005b57600080fd5b50565b6000806040838503121561007157600080fd5b825161007c81610046565b602084015190925061008d81610046565b809150509250929050565b60805160a0516111a46100f3600039600081816076015261082c01526000818160ba0152818161016201528181610223015281816102d8015281816103ed015281816104d30152818161064b01526106f901526111a46000f3fe608060405234801561001057600080fd5b50600436106100575760003560e01c8063038efb8a1461005c57806338013f02146100715780637535d246146100b55780639105b83a146100dc578063fd8c0451146100fd575b600080fd5b61006f61006a366004610c13565b610125565b005b6100987f000000000000000000000000000000000000000000000000000000000000000081565b6040516001600160a01b0390911681526020015b60405180910390f35b6100987f000000000000000000000000000000000000000000000000000000000000000081565b6100ef6100ea366004610c73565b610288565b6040519081526020016100ac565b61011061010b366004610cee565b6105b6565b604080519283526020830191909152016100ac565b80156102815760405163573ade8160e01b81526001600160a01b0384811660048301526024820183905260448201879052838116606483015282917f00000000000000000000000000000000000000000000000000000000000000009091169063573ade81906084016020604051808303816000875af19250505080156101c9575060408051601f3d908101601f191682019092526101c691810190610d39565b60015b156101eb576101d88183610d68565b9150816000036101e9575050610281565b505b60405163617ba03760e01b81526001600160a01b03858116600483015260248201839052848116604483015261ffff871660648301527f0000000000000000000000000000000000000000000000000000000000000000169063617ba03790608401600060405180830381600087803b15801561026757600080fd5b505af115801561027b573d6000803e3d6000fd5b50505050505b5050505050565b6000806000610299886001896105b6565b9150915084156102b5578582106102b057856102b2565b815b91505b6040516335ea6a7560e01b81526001600160a01b038981166004830152610353917f0000000000000000000000000000000000000000000000000000000000000000909116906335ea6a75906024016101e060405180830381865afa158015610322573d6000803e3d6000fd5b505050506040513d601f19601f820116820180604052508101906103469190610e5e565b61010001518830856109d7565b6103b95760405162461bcd60e51b815260206004820152602c60248201527f416176654d6f64756c652f72656465656d5468656e426f72726f772f61546b6e60448201526b151c985b9cd9995c91985a5b60a21b60648201526084015b60405180910390fd5b811561045c57604051631a4ca37b60e21b81526001600160a01b0389811660048301526024820184905285811660448301527f000000000000000000000000000000000000000000000000000000000000000016906369328dec906064016020604051808303816000875af1158015610436573d6000803e3d6000fd5b505050506040513d601f19601f8201168201806040525081019061045a9190610d39565b505b8582101580610469575080155b15610476575090506105ab565b6104808287610d68565b955085811161048f5780610491565b855b60405163a415bcad60e01b81526001600160a01b038a8116600483015260248201839052604482018d905261ffff8c16606483015289811660848301529192507f00000000000000000000000000000000000000000000000000000000000000009091169063a415bcad9060a401600060405180830381600087803b15801561051957600080fd5b505af115801561052d573d6000803e3d6000fd5b5050505061053c888583610b03565b61059c5760405162461bcd60e51b815260206004820152602b60248201527f416176654d6f64756c652f72656465656d5468656e426f72726f772f546b6e5460448201526a1c985b9cd9995c91985a5b60aa1b60648201526084016103b0565b6105a68183610f81565b925050505b979650505050505050565b6000806105e46040518060800160405280600081526020016000815260200160008152602001600081525090565b61062c60405180610100016040528060008152602001600081526020016000815260200160008152602001600081526020016000815260200160008152602001600081525090565b604051632fe4a15f60e21b81526001600160a01b0386811660048301527f0000000000000000000000000000000000000000000000000000000000000000169063bf92857c9060240160c060405180830381865afa158015610692573d6000803e3d6000fd5b505050506040513d601f19601f820116820180604052508101906106b69190610f99565b60c0870152608086015260a08501526040808501919091526020840191909152908252516335ea6a7560e01b81526001600160a01b0388811660048301526000917f0000000000000000000000000000000000000000000000000000000000000000909116906335ea6a75906024016101e060405180830381865afa158015610743573d6000803e3d6000fd5b505050506040513d601f19601f820116820180604052508101906107679190610e5e565b80515160ff603082901c1660408681019190915261ffff601083901c81166020808901919091529216865261010083015181516370a0823160e01b81526001600160a01b038b8116600483015292519495509116926370a08231926024808401939192918290030181865afa1580156107e4573d6000803e3d6000fd5b505050506040513d601f19601f820116820180604052508101906108089190610d39565b60e083015260405163b3596f0760e01b81526001600160a01b0389811660048301527f0000000000000000000000000000000000000000000000000000000000000000169063b3596f0790602401602060405180830381865afa158015610873573d6000803e3d6000fd5b505050506040513d601f19601f820116820180604052508101906108979190610d39565b60608401526020820151825160a0840151612710916108b591610fe3565b6108bf9190611002565b6108c99190610d68565b60608084019190915283015160208401516000916108e691610fe3565b60408501516108f690600a61110a565b84606001516109059190610fe3565b61091190612710610fe3565b61091b9190611002565b90508260e001518110610932578260e00151610934565b805b90508761094a579450600093506109cf92505050565b83516000906127109061095d9084610fe3565b6109679190611002565b9050600085606001518660400151600a610981919061110a565b86604001516109909190610fe3565b61099a9190611002565b9050808211156109b657826000975097505050505050506109cf565b60006109c28383610d68565b9398509296505050505050505b935093915050565b60008115806109f75750826001600160a01b0316846001600160a01b0316145b15610a0457506001610afb565b306001600160a01b03851603610a2657610a1f858484610b03565b9050610afb565b604080516001600160a01b0386811660248301528581166044830152606480830186905283518084039091018152608490920183526020820180516001600160e01b03166323b872dd60e01b1790529151600092839290891691610a8a9190611116565b6000604051808303816000865af19150503d8060008114610ac7576040519150601f19603f3d011682016040523d82523d6000602084013e610acc565b606091505b5091509150818015610af6575080511580610af6575080806020019051810190610af69190611151565b925050505b949350505050565b6000811580610b1a57506001600160a01b03831630145b15610b2757506001610bf4565b604080516001600160a01b038581166024830152604480830186905283518084039091018152606490920183526020820180516001600160e01b031663a9059cbb60e01b1790529151600092839290881691610b839190611116565b6000604051808303816000865af19150503d8060008114610bc0576040519150601f19603f3d011682016040523d82523d6000602084013e610bc5565b606091505b5091509150818015610bef575080511580610bef575080806020019051810190610bef9190611151565b925050505b9392505050565b6001600160a01b0381168114610c1057600080fd5b50565b600080600080600060a08688031215610c2b57600080fd5b85359450602086013593506040860135610c4481610bfb565b92506060860135610c5481610bfb565b949793965091946080013592915050565b8015158114610c1057600080fd5b600080600080600080600060e0888a031215610c8e57600080fd5b87359650602088013595506040880135610ca781610bfb565b94506060880135610cb781610bfb565b93506080880135925060a0880135610cce81610c65565b915060c0880135610cde81610bfb565b8091505092959891949750929550565b600080600060608486031215610d0357600080fd5b8335610d0e81610bfb565b92506020840135610d1e81610c65565b91506040840135610d2e81610bfb565b809150509250925092565b600060208284031215610d4b57600080fd5b5051919050565b634e487b7160e01b600052601160045260246000fd5b600082821015610d7a57610d7a610d52565b500390565b6040516101e0810167ffffffffffffffff81118282101715610db157634e487b7160e01b600052604160045260246000fd5b60405290565b600060208284031215610dc957600080fd5b6040516020810181811067ffffffffffffffff82111715610dfa57634e487b7160e01b600052604160045260246000fd5b6040529151825250919050565b80516fffffffffffffffffffffffffffffffff81168114610e2757600080fd5b919050565b805164ffffffffff81168114610e2757600080fd5b805161ffff81168114610e2757600080fd5b8051610e2781610bfb565b60006101e08284031215610e7157600080fd5b610e79610d7f565b610e838484610db7565b8152610e9160208401610e07565b6020820152610ea260408401610e07565b6040820152610eb360608401610e07565b6060820152610ec460808401610e07565b6080820152610ed560a08401610e07565b60a0820152610ee660c08401610e2c565b60c0820152610ef760e08401610e41565b60e0820152610100610f0a818501610e53565b90820152610120610f1c848201610e53565b90820152610140610f2e848201610e53565b90820152610160610f40848201610e53565b90820152610180610f52848201610e07565b908201526101a0610f64848201610e07565b908201526101c0610f76848201610e07565b908201529392505050565b60008219821115610f9457610f94610d52565b500190565b60008060008060008060c08789031215610fb257600080fd5b865195506020870151945060408701519350606087015192506080870151915060a087015190509295509295509295565b6000816000190483118215151615610ffd57610ffd610d52565b500290565b60008261101f57634e487b7160e01b600052601260045260246000fd5b500490565b600181815b8085111561105f57816000190482111561104557611045610d52565b8085161561105257918102915b93841c9390800290611029565b509250929050565b60008261107657506001611104565b8161108357506000611104565b816001811461109957600281146110a3576110bf565b6001915050611104565b60ff8411156110b4576110b4610d52565b50506001821b611104565b5060208310610133831016604e8410600b84101617156110e2575081810a611104565b6110ec8383611024565b806000190482111561110057611100610d52565b0290505b92915050565b6000610bf48383611067565b6000825160005b81811015611137576020818601810151858301520161111d565b81811115611146576000828501525b509190910192915050565b60006020828403121561116357600080fd5b8151610bf481610c6556fea264697066735822122087b8445b6397a89bdd581b1c0b7ce3adb6789523937da63db6865733c98b000664736f6c634300080e0033",
    "linkReferences": {}
  },
  "methodIdentifiers": {
    "MGV()": "99fa5e2d",
    "activate(address[])": "5293840d",
    "admin()": "f851a440",
    "approveMangrove(address)": "9f2211cb",
    "approveRouter(address)": "f259cd27",
    "checkList(address[])": "03eb17e2",
    "getMissingProvision(address,address,uint256,uint256,uint256)": "e4c34f84",
    "has_router()": "84b627f9",
    "makerExecute((address,address,uint256,uint256,uint256,uint256,uint256,uint256,uint256))": "6c49c32c",
    "makerPosthook((address,address,uint256,uint256,uint256,uint256,uint256,uint256,uint256),(bytes32,bytes32))": "3d3d130d",
    "newOffer((address,address,uint256,uint256,uint256,uint256,uint256,uint256))": "5486c95f",
    "offerOwners(address,address,uint256[])": "dec8c86b",
    "ofr_gasreq()": "d1baa1ef",
    "ownerOf(address,address,uint256)": "f92495e5",
    "reserve()": "cd3293de",
    "retractOffer(address,address,uint256,bool)": "ad97db1b",
    "router()": "f887ea40",
    "set_admin(address)": "e9333fab",
    "set_gasreq(uint256)": "fc488a38",
    "set_reserve(address)": "3d77fcde",
    "set_router(address)": "db11851e",
    "tokenBalance(address)": "eedc966a",
    "updateOffer((address,address,uint256,uint256,uint256,uint256,uint256,uint256))": "10aded60",
    "withdrawFromMangrove(uint256,address)": "7144df24",
    "withdrawToken(address,address,uint256)": "01e33667"
  },
  "id": 83
}