{
  "_format": "hh-sol-artifact-1",
  "contractName": "MgvMultiOrder",
  "sourceName": "contracts/MgvMultiOrder.sol",
  "abi": [
    {
      "anonymous": false,
      "inputs": [
        {
          "indexed": true,
          "internalType": "address",
          "name": "previousOwner",
          "type": "address"
        },
        {
          "indexed": true,
          "internalType": "address",
          "name": "newOwner",
          "type": "address"
        }
      ],
      "name": "OwnershipTransferred",
      "type": "event"
    },
    {
      "inputs": [],
      "name": "owner",
      "outputs": [
        {
          "internalType": "address",
          "name": "",
          "type": "address"
        }
      ],
      "stateMutability": "view",
      "type": "function"
    },
    {
      "inputs": [],
      "name": "renounceOwnership",
      "outputs": [],
      "stateMutability": "nonpayable",
      "type": "function"
    },
    {
      "inputs": [
        {
          "internalType": "address",
          "name": "_mgvAddress",
          "type": "address"
        }
      ],
      "name": "setMangrove",
      "outputs": [],
      "stateMutability": "nonpayable",
      "type": "function"
    },
    {
      "inputs": [
        {
          "internalType": "address",
          "name": "newOwner",
          "type": "address"
        }
      ],
      "name": "transferOwnership",
      "outputs": [],
      "stateMutability": "nonpayable",
      "type": "function"
    },
    {
      "inputs": [
        {
          "components": [
            {
              "internalType": "address",
              "name": "outbound_tkn",
              "type": "address"
            },
            {
              "internalType": "address",
              "name": "inbound_tkn",
              "type": "address"
            },
            {
              "internalType": "uint256[4][]",
              "name": "targets",
              "type": "uint256[4][]"
            },
            {
              "internalType": "bool",
              "name": "fillWants",
              "type": "bool"
            }
          ],
          "internalType": "struct MgvMultiOrder.snipeOrder",
          "name": "_buyOrder",
          "type": "tuple"
        },
        {
          "components": [
            {
              "internalType": "address",
              "name": "outbound_tkn",
              "type": "address"
            },
            {
              "internalType": "address",
              "name": "inbound_tkn",
              "type": "address"
            },
            {
              "internalType": "uint256[4][]",
              "name": "targets",
              "type": "uint256[4][]"
            },
            {
              "internalType": "bool",
              "name": "fillWants",
              "type": "bool"
            }
          ],
          "internalType": "struct MgvMultiOrder.snipeOrder",
          "name": "_sellOrder",
          "type": "tuple"
        }
      ],
      "name": "twoOrders",
      "outputs": [],
      "stateMutability": "nonpayable",
      "type": "function"
    },
    {
      "stateMutability": "payable",
      "type": "receive"
    }
  ],
  "bytecode": "0x608060405234801561001057600080fd5b5061001a3361001f565b61006f565b600080546001600160a01b038381166001600160a01b0319831681178455604051919092169283917f8be0079c531659141344cd1fd0a4f28419497f9722a3daafe3b4186f6b6457e09190a35050565b6114358061007e6000396000f3fe60806040526004361061005e5760003560e01c8063715018a611610043578063715018a61461010f5780638da5cb5b14610124578063f2fde38b1461015d57600080fd5b806307e2b8b7146100cd578063610aff0e146100ef57600080fd5b366100c857600354604051479173ffffffffffffffffffffffffffffffffffffffff16908290600081818185875af1925050503d80600081146100bd576040519150601f19603f3d011682016040523d82523d6000602084013e6100c2565b606091505b50505050005b600080fd5b3480156100d957600080fd5b506100ed6100e836600461110a565b61017d565b005b3480156100fb57600080fd5b506100ed61010a36600461116e565b610c9f565b34801561011b57600080fd5b506100ed610d7d565b34801561013057600080fd5b506000546040805173ffffffffffffffffffffffffffffffffffffffff9092168252519081900360200190f35b34801561016957600080fd5b506100ed61017836600461116e565b610e0a565b60005473ffffffffffffffffffffffffffffffffffffffff163314610203576040517f08c379a000000000000000000000000000000000000000000000000000000000815260206004820181905260248201527f4f776e61626c653a2063616c6c6572206973206e6f7420746865206f776e657260448201526064015b60405180910390fd5b6102546040518060400160405280600781526020017f6275794f7574200000000000000000000000000000000000000000000000000081525083600001602081019061024f919061116e565b610f3a565b6103356040518060400160405280600e81526020017f6275794f757442616c616e6365200000000000000000000000000000000000008152508360000160208101906102a0919061116e565b6040517f70a0823100000000000000000000000000000000000000000000000000000000815233600482015273ffffffffffffffffffffffffffffffffffffffff91909116906370a0823190602401602060405180830381865afa15801561030c573d6000803e3d6000fd5b505050506040513d601f19601f8201168201806040525081019061033091906111ab565b610fcb565b6103816040518060400160405280600681526020017f627579496e20000000000000000000000000000000000000000000000000000081525083602001602081019061024f919061116e565b6103cd6040518060400160405280600d81526020017f627579496e42616c616e636520000000000000000000000000000000000000008152508360200160208101906102a0919061116e565b60015460009081908190819073ffffffffffffffffffffffffffffffffffffffff1663b2b12057610401602089018961116e565b61041160408a0160208b0161116e565b61041e60408b018b6111c4565b61042e60808d0160608e01611233565b336040518763ffffffff1660e01b815260040161045096959493929190611255565b6080604051808303816000875af115801561046f573d6000803e3d6000fd5b505050506040513d601f19601f8201168201806040525081019061049391906112d5565b93509350935093506105176040518060400160405280600781526020017f62757920696420000000000000000000000000000000000000000000000000008152508780604001906104e491906111c4565b60008181106104f5576104f561130b565b90506080020160006004811061050d5761050d61130b565b6020020135610fcb565b604080518082018252600f81527f6275792074616b657277616e747320000000000000000000000000000000000060208201526105839161055a908901896111c4565b600081811061056b5761056b61130b565b90506080020160016004811061050d5761050d61130b565b604080518082018252600f81527f6275792074616b6572676976657320000000000000000000000000000000000060208201526105ef916105c6908901896111c4565b60008181106105d7576105d761130b565b90506080020160026004811061050d5761050d61130b565b61062e6040518060400160405280600e81526020017f627579207375636365737365732000000000000000000000000000000000000081525085610fcb565b61066d6040518060400160405280600d81526020017f6275792074616b6572676f74200000000000000000000000000000000000000081525084610fcb565b6106ac6040518060400160405280600e81526020017f6275792074616b6572676176652000000000000000000000000000000000000081525083610fcb565b6106eb6040518060400160405280600b81526020017f62757920626f756e74792000000000000000000000000000000000000000000081525082610fcb565b801561074457604051479033908290600081818185875af1925050503d8060008114610733576040519150601f19603f3d011682016040523d82523d6000602084013e610738565b606091505b50505050505050505050565b8261075260408801886111c4565b60008181106107635761076361130b565b90506080020160016004811061077b5761077b61130b565b60200201351461080d576040517f08c379a000000000000000000000000000000000000000000000000000000000815260206004820152603260248201527f6d6776417262426f742f74776f4f72646572732f6275794661696c2074616b6560448201527f72476f7420213d2074616b657257616e7473000000000000000000000000000060648201526084016101fa565b60015473ffffffffffffffffffffffffffffffffffffffff1663b2b12057610838602088018861116e565b6108486040890160208a0161116e565b61085560408a018a6111c4565b61086560808c0160608d01611233565b336040518763ffffffff1660e01b815260040161088796959493929190611255565b6080604051808303816000875af11580156108a6573d6000803e3d6000fd5b505050506040513d601f19601f820116820180604052508101906108ca91906112d5565b604080518082018252600881527f73656c6c206964200000000000000000000000000000000000000000000000006020820152949850929650909450925061091991906104e4908801886111c4565b604080518082018252601081527f73656c6c2074616b657277616e74732000000000000000000000000000000000602082015261095c9161055a908801886111c4565b604080518082018252601081527f73656c6c2074616b657267697665732000000000000000000000000000000000602082015261099f916105c6908801886111c4565b6109de6040518060400160405280600f81526020017f73656c6c2073756363657373657320000000000000000000000000000000000081525085610fcb565b610a1d6040518060400160405280600e81526020017f73656c6c2074616b6572676f742000000000000000000000000000000000000081525084610fcb565b610a5c6040518060400160405280600f81526020017f73656c6c2074616b65726761766520000000000000000000000000000000000081525083610fcb565b610a9b6040518060400160405280600c81526020017f73656c6c20626f756e747920000000000000000000000000000000000000000081525082610fcb565b8015610b29576040517f08c379a000000000000000000000000000000000000000000000000000000000815260206004820152602560248201527f6d6776417262426f742f74776f4f72646572732f73656c6c4661696c476f744260448201527f6f756e747900000000000000000000000000000000000000000000000000000060648201526084016101fa565b610b3660408601866111c4565b6000818110610b4757610b4761130b565b905060800201600160048110610b5f57610b5f61130b565b6020020135831015610bf3576040517f08c379a000000000000000000000000000000000000000000000000000000000815260206004820152603060248201527f6d6776417262426f742f74776f4f72646572732f73656c6c4661696c54616b6560448201527f72476f744c5454616b657257616e74730000000000000000000000000000000060648201526084016101fa565b610c0060408701876111c4565b6000818110610c1157610c1161130b565b905060800201600260048110610c2957610c2961130b565b60200201358311610c96576040517f08c379a000000000000000000000000000000000000000000000000000000000815260206004820152601c60248201527f6d6776417262426f742f74776f4f72646572732f6e6f50726f6669740000000060448201526064016101fa565b505050505b5050565b60005473ffffffffffffffffffffffffffffffffffffffff163314610d20576040517f08c379a000000000000000000000000000000000000000000000000000000000815260206004820181905260248201527f4f776e61626c653a2063616c6c6572206973206e6f7420746865206f776e657260448201526064016101fa565b6001805473ffffffffffffffffffffffffffffffffffffffff9092167fffffffffffffffffffffffff0000000000000000000000000000000000000000928316811790915560028054831690911790556003805490911633179055565b60005473ffffffffffffffffffffffffffffffffffffffff163314610dfe576040517f08c379a000000000000000000000000000000000000000000000000000000000815260206004820181905260248201527f4f776e61626c653a2063616c6c6572206973206e6f7420746865206f776e657260448201526064016101fa565b610e08600061105c565b565b60005473ffffffffffffffffffffffffffffffffffffffff163314610e8b576040517f08c379a000000000000000000000000000000000000000000000000000000000815260206004820181905260248201527f4f776e61626c653a2063616c6c6572206973206e6f7420746865206f776e657260448201526064016101fa565b73ffffffffffffffffffffffffffffffffffffffff8116610f2e576040517f08c379a000000000000000000000000000000000000000000000000000000000815260206004820152602660248201527f4f776e61626c653a206e6577206f776e657220697320746865207a65726f206160448201527f646472657373000000000000000000000000000000000000000000000000000060648201526084016101fa565b610f378161105c565b50565b610c9b8282604051602401610f509291906113a5565b604080517fffffffffffffffffffffffffffffffffffffffffffffffffffffffffffffffe08184030181529190526020810180517bffffffffffffffffffffffffffffffffffffffffffffffffffffffff167f319af333000000000000000000000000000000000000000000000000000000001790526110d1565b610c9b8282604051602401610fe19291906113dd565b604080517fffffffffffffffffffffffffffffffffffffffffffffffffffffffffffffffe08184030181529190526020810180517bffffffffffffffffffffffffffffffffffffffffffffffffffffffff167f9710a9d0000000000000000000000000000000000000000000000000000000001790526110d1565b6000805473ffffffffffffffffffffffffffffffffffffffff8381167fffffffffffffffffffffffff0000000000000000000000000000000000000000831681178455604051919092169283917f8be0079c531659141344cd1fd0a4f28419497f9722a3daafe3b4186f6b6457e09190a35050565b80516a636f6e736f6c652e6c6f67602083016000808483855afa5050505050565b60006080828403121561110457600080fd5b50919050565b6000806040838503121561111d57600080fd5b823567ffffffffffffffff8082111561113557600080fd5b611141868387016110f2565b9350602085013591508082111561115757600080fd5b50611164858286016110f2565b9150509250929050565b60006020828403121561118057600080fd5b813573ffffffffffffffffffffffffffffffffffffffff811681146111a457600080fd5b9392505050565b6000602082840312156111bd57600080fd5b5051919050565b60008083357fffffffffffffffffffffffffffffffffffffffffffffffffffffffffffffffe18436030181126111f957600080fd5b83018035915067ffffffffffffffff82111561121457600080fd5b6020019150600781901b360382131561122c57600080fd5b9250929050565b60006020828403121561124557600080fd5b813580151581146111a457600080fd5b73ffffffffffffffffffffffffffffffffffffffff8781168252868116602083015260a0604083018190528201859052600090869060c0840183805b898110156112b357608080868537928301828152949092019391600101611291565b5050951515606085015293909316608090920191909152509095945050505050565b600080600080608085870312156112eb57600080fd5b505082516020840151604085015160609095015191969095509092509050565b7f4e487b7100000000000000000000000000000000000000000000000000000000600052603260045260246000fd5b6000815180845260005b8181101561136057602081850181015186830182015201611344565b81811115611372576000602083870101525b50601f017fffffffffffffffffffffffffffffffffffffffffffffffffffffffffffffffe0169290920160200192915050565b6040815260006113b8604083018561133a565b905073ffffffffffffffffffffffffffffffffffffffff831660208301529392505050565b6040815260006113f0604083018561133a565b9050826020830152939250505056fea2646970667358221220bab1f238dae249ccfae96c20dda573588dd3b0e1bff3e6682b5b4f15f230dcc264736f6c634300080a0033",
  "linkReferences": {},
  "deployedLinkReferences": {}
}