{
  "abi": [
    {
      "inputs": [
        {
          "internalType": "address",
          "name": "_MGV",
          "type": "address"
        }
      ],
      "stateMutability": "nonpayable",
      "type": "constructor"
    },
    {
      "inputs": [
        {
          "internalType": "address",
          "name": "outbound_tkn",
          "type": "address"
        },
        {
          "internalType": "address",
          "name": "inbound_tkn",
          "type": "address"
        },
        {
          "internalType": "uint256[4][]",
          "name": "targets",
          "type": "uint256[4][]"
        },
        {
          "internalType": "bool",
          "name": "fillWants",
          "type": "bool"
        }
      ],
      "name": "collect",
      "outputs": [
        {
          "internalType": "uint256",
          "name": "bal",
          "type": "uint256"
        }
      ],
      "stateMutability": "nonpayable",
      "type": "function"
    },
    {
      "stateMutability": "payable",
      "type": "receive"
    }
  ],
  "bytecode": {
    "object": "0x60a060405234801561001057600080fd5b506040516103e43803806103e483398101604081905261002f91610040565b6001600160a01b0316608052610070565b60006020828403121561005257600080fd5b81516001600160a01b038116811461006957600080fd5b9392505050565b60805161035a61008a60003960006065015261035a6000f3fe6080604052600436106100225760003560e01c8063d6607cfb1461002e57600080fd5b3661002957005b600080fd5b34801561003a57600080fd5b5061004e6100493660046101ca565b610060565b60405190815260200160405180910390f35b6000807f00000000000000000000000000000000000000000000000000000000000000006001600160a01b031663b2b120578888888888336040518763ffffffff1660e01b81526004016100b99695949392919061027b565b6080604051808303816000875af11580156100d8573d6000803e3d6000fd5b505050506040513d601f19601f820116820180604052508101906100fc91906102ee565b5050509050806000146101555760405162461bcd60e51b815260206004820152601c60248201527f6d6776436c65616e65722f616e4f666665724469644e6f744661696c00000000604482015260640160405180910390fd5b604051479250600090339084908381818185875af1925050503d806000811461019a576040519150601f19603f3d011682016040523d82523d6000602084013e61019f565b606091505b50939998505050505050505050565b80356001600160a01b03811681146101c557600080fd5b919050565b6000806000806000608086880312156101e257600080fd5b6101eb866101ae565b94506101f9602087016101ae565b9350604086013567ffffffffffffffff8082111561021657600080fd5b818801915088601f83011261022a57600080fd5b81358181111561023957600080fd5b8960208260071b850101111561024e57600080fd5b6020830195508094505050506060860135801515811461026d57600080fd5b809150509295509295909350565b6001600160a01b038781168252868116602083015260a0604083018190528201859052600090869060c0840183805b898110156102cc576080808685379283018281529490920193916001016102aa565b5050951515606085015293909316608090920191909152509095945050505050565b6000806000806080858703121561030457600080fd5b50508251602084015160408501516060909501519196909550909250905056fea2646970667358221220b931c0540b3d7283d0cc25a83f001c64a66ca893a9cb5c1d9466f279c2f0f4af64736f6c634300080e0033",
    "linkReferences": {}
  },
  "methodIdentifiers": {
    "collect(address,address,uint256[4][],bool)": "d6607cfb"
  },
  "id": 13
}