{
  "abi": [
    {
      "inputs": [
        {
          "internalType": "contract IMangrove",
          "name": "mgv",
          "type": "address"
        },
        {
          "internalType": "contract IERC20",
          "name": "base",
          "type": "address"
        },
        {
          "internalType": "contract IERC20",
          "name": "quote",
          "type": "address"
        },
        {
          "internalType": "uint96",
          "name": "base_0",
          "type": "uint96"
        },
        {
          "internalType": "uint96",
          "name": "quote_0",
          "type": "uint96"
        },
        {
          "internalType": "uint256",
          "name": "nslots",
          "type": "uint256"
        }
      ],
      "stateMutability": "nonpayable",
      "type": "constructor"
    },
    {
      "anonymous": false,
      "inputs": [],
      "name": "AskAtMinPosition",
      "type": "event"
    },
    {
      "anonymous": false,
      "inputs": [],
      "name": "BidAtMaxPosition",
      "type": "event"
    },
    {
      "inputs": [
        {
          "internalType": "bool",
          "name": "liveOnly",
          "type": "bool"
        }
      ],
      "name": "$get_offers",
      "outputs": [
        {
          "internalType": "uint256[][2]",
          "name": "offers",
          "type": "uint256[][2]"
        }
      ],
      "stateMutability": "view",
      "type": "function"
    },
    {
      "inputs": [
        {
          "internalType": "bool",
          "name": "reset",
          "type": "bool"
        },
        {
          "internalType": "uint256",
          "name": "lastBidPosition",
          "type": "uint256"
        },
        {
          "internalType": "uint256",
          "name": "from",
          "type": "uint256"
        },
        {
          "internalType": "uint256",
          "name": "to",
          "type": "uint256"
        },
        {
          "internalType": "uint256[][2]",
          "name": "pivotIds",
          "type": "uint256[][2]"
        },
        {
          "internalType": "uint256[]",
          "name": "tokenAmounts",
          "type": "uint256[]"
        },
        {
          "internalType": "uint256",
          "name": "gasreq",
          "type": "uint256"
        }
      ],
      "name": "$initialize",
      "outputs": [],
      "stateMutability": "nonpayable",
      "type": "function"
    },
    {
      "inputs": [
        {
          "components": [
            {
              "internalType": "address",
              "name": "outbound_tkn",
              "type": "address"
            },
            {
              "internalType": "address",
              "name": "inbound_tkn",
              "type": "address"
            },
            {
              "internalType": "uint256",
              "name": "offerId",
              "type": "uint256"
            },
            {
              "internalType": "t",
              "name": "offer",
              "type": "uint256"
            },
            {
              "internalType": "uint256",
              "name": "wants",
              "type": "uint256"
            },
            {
              "internalType": "uint256",
              "name": "gives",
              "type": "uint256"
            },
            {
              "internalType": "t",
              "name": "offerDetail",
              "type": "uint256"
            },
            {
              "internalType": "t",
              "name": "global",
              "type": "uint256"
            },
            {
              "internalType": "t",
              "name": "local",
              "type": "uint256"
            }
          ],
          "internalType": "struct MgvLib.SingleOrder",
          "name": "order",
          "type": "tuple"
        },
        {
          "internalType": "uint256",
          "name": "gasreq",
          "type": "uint256"
        }
      ],
      "name": "$postDualOffer",
      "outputs": [
        {
          "internalType": "bool",
          "name": "success",
          "type": "bool"
        }
      ],
      "stateMutability": "nonpayable",
      "type": "function"
    },
    {
      "inputs": [
        {
          "components": [
            {
              "internalType": "address",
              "name": "outbound_tkn",
              "type": "address"
            },
            {
              "internalType": "address",
              "name": "inbound_tkn",
              "type": "address"
            },
            {
              "internalType": "uint256",
              "name": "offerId",
              "type": "uint256"
            },
            {
              "internalType": "t",
              "name": "offer",
              "type": "uint256"
            },
            {
              "internalType": "uint256",
              "name": "wants",
              "type": "uint256"
            },
            {
              "internalType": "uint256",
              "name": "gives",
              "type": "uint256"
            },
            {
              "internalType": "t",
              "name": "offerDetail",
              "type": "uint256"
            },
            {
              "internalType": "t",
              "name": "global",
              "type": "uint256"
            },
            {
              "internalType": "t",
              "name": "local",
              "type": "uint256"
            }
          ],
          "internalType": "struct MgvLib.SingleOrder",
          "name": "order",
          "type": "tuple"
        },
        {
          "internalType": "uint256",
          "name": "residual",
          "type": "uint256"
        }
      ],
      "name": "$residualWants",
      "outputs": [
        {
          "internalType": "uint256",
          "name": "",
          "type": "uint256"
        }
      ],
      "stateMutability": "view",
      "type": "function"
    },
    {
      "inputs": [
        {
          "internalType": "int256",
          "name": "s",
          "type": "int256"
        },
        {
          "internalType": "bool",
          "name": "withBase",
          "type": "bool"
        },
        {
          "internalType": "uint256[]",
          "name": "amounts",
          "type": "uint256[]"
        },
        {
          "internalType": "uint256",
          "name": "gasreq",
          "type": "uint256"
        }
      ],
      "name": "$set_shift",
      "outputs": [],
      "stateMutability": "nonpayable",
      "type": "function"
    }
  ],
  "bytecode": {
    "object": "0x6101606040523480156200001257600080fd5b5060405162002d1938038062002d198339810160408190526200003591620000ab565b6001600160a01b039586166101405293851660e05291909316610100526080919091526001600160601b0391821660a0521660c05233610120526200012b565b6001600160a01b03811681146200008b57600080fd5b50565b80516001600160601b0381168114620000a657600080fd5b919050565b60008060008060008060c08789031215620000c557600080fd5b8651620000d28162000075565b6020880151909650620000e58162000075565b6040880151909550620000f88162000075565b935062000108606088016200008e565b925062000118608088016200008e565b915060a087015190509295509295509295565b60805160a05160c05160e0516101005161012051610140516129d46200034560003960008181610735015281816108f101528181610b7201528181610cb201528181610f1f01528181611140015281816114cf0152818161180201528181611c1701528181611d7101528181611e7301528181611fb7015281816120f401526121f601526000818160fa0152818161044c0152610dc50152600081816107850152818161092001528181610ba101528181610d0201528181610f4e015281816110f2015281816111900152818161151f015281816116640152818161183101528181611c6701528181611dc101528181611ec301528181611fe6015281816121230152612225015260008181610151015281816103a9015281816107640152818161094101528181610bc201528181610ce101528181610f6f0152818161116f0152818161130e015281816114fe015281816118520152818161197f01528181611a2701528181611c4601528181611da001528181611ea201528181612007015281816121440152612246015260006122ee01526000818161133c01526113a1015260008181610293015281816102e9015281816104e90152818161051d01528181610553015281816105e201528181610a2001528181610a8501528181610af001528181610ec2015281816113d80152818161145b0152818161168f0152818161172f01528181611b710152611ba901526129d46000f3fe608060405234801561001057600080fd5b50600436106100575760003560e01c806311b102591461005c5780631f92a319146100845780633234fdc0146100a5578063663d2e0c146100ba578063b61dce59146100da575b600080fd5b61006f61006a3660046123a3565b6100ed565b60405190151581526020015b60405180910390f35b6100976100923660046123a3565b610396565b60405190815260200161007b565b6100b86100b3366004612436565b610441565b005b6100cd6100c83660046124de565b610a07565b60405161007b91906124f9565b6100b86100e836600461256e565b610dba565b6000306001600160a01b037f000000000000000000000000000000000000000000000000000000000000000016146101405760405162461bcd60e51b8152600401610137906125d0565b60405180910390fd5b60008051602061297f8339815191527f00000000000000000000000000000000000000000000000000000000000000006001600160a01b03166101866020860186612607565b6001600160a01b03160361026a5760408085013560009081526005830160205290812054906101b482610e9e565b9050801561022c576101e16101d26101cd600184612646565b610ee6565b60008860a00135600089610f08565b60088301546101f1600183612646565b11610220576040517f5ac608c951fb4eeda3d62e6a244a32d697d994fdcdf2ff4ca1ff1b5dde368a0d90600090a15b60019350505050610390565b60405162461bcd60e51b81526020600482015260136024820152724d616e676f2f4269644f75744f6652616e676560681b6044820152606401610137565b604080850135600090815260048301602052908120549061028a82610e9e565b90506102b760017f0000000000000000000000000000000000000000000000000000000000000000612646565b811015610352576102de6102cf6101cd83600161265d565b60008860a00135600089611129565b600883015461030d907f0000000000000000000000000000000000000000000000000000000000000000612646565b61031882600161265d565b10610220576040517f3c8e6c8b637216f202e5b335b54c0abfc6c1b6952a8a2511de149d2f3e5e7e9290600090a160019350505050610390565b60405162461bcd60e51b81526020600482015260136024820152724d616e676f2f41736b4f75744f6652616e676560681b6044820152606401610137565b92915050565b600060008051602061297f8339815191527f00000000000000000000000000000000000000000000000000000000000000006001600160a01b03166103de6020860186612607565b6001600160a01b03160361041b57604080850135600090815260058301602052205461041261040c82610e9e565b85611338565b92505050610390565b604080850135600090815260048301602052205461041261043b82610e9e565b85611389565b306001600160a01b037f000000000000000000000000000000000000000000000000000000000000000016146104895760405162461bcd60e51b8152600401610137906125d0565b60008051602061297f8339815191528686116104e75760405162461bcd60e51b815260206004820152601d60248201527f4d616e676f2f696e697469616c697a652f696e76616c6964536c6963650000006044820152606401610137565b7f000000000000000000000000000000000000000000000000000000000000000083148015610514575060015b801561054a57507f0000000000000000000000000000000000000000000000000000000000000000610546868061268b565b9050145b801561058357507f000000000000000000000000000000000000000000000000000000000000000061057f602087018761268b565b9050145b6105db5760405162461bcd60e51b815260206004820152602360248201527f4d616e676f2f696e697469616c697a652f696e76616c696441727261794c656e6044820152620cee8d60eb1b6064820152608401610137565b61060660017f0000000000000000000000000000000000000000000000000000000000000000612646565b88106106545760405162461bcd60e51b815260206004820152601e60248201527f4d616e676f2f696e697469616c697a652f4e6f536c6f74466f7241736b7300006044820152606401610137565b865b868110156109fb57600061066982610ee6565b905089821161083057600061067e888061268b565b8481811061068e5761068e612675565b905060200201359050600081116106e257600083116106ae5760006106e4565b836001016106c26001856101cd9190612646565b815481106106d2576106d2612675565b90600052602060002001546106e4565b805b905061070b828d8989878181106106fd576106fd612675565b905060200201358489610f08565b600084600001838154811061072257610722612675565b9060005260206000200154111561082a577f00000000000000000000000000000000000000000000000000000000000000006001600160a01b031663ad97db1b7f00000000000000000000000000000000000000000000000000000000000000007f00000000000000000000000000000000000000000000000000000000000000008760000186815481106107b9576107b9612675565b906000526020600020015460006040518563ffffffff1660e01b81526004016107e594939291906126d5565b6020604051808303816000875af1158015610804573d6000803e3d6000fd5b505050506040513d601f19601f8201168201806040525081019061082891906126fe565b505b506109e8565b600061083f602089018961268b565b8481811061084f5761084f612675565b9050602002013590506000811161089e576000831161086f5760006108a0565b8361087e6101cd600186612646565b8154811061088e5761088e612675565b90600052602060002001546108a0565b805b90506108c7828d8989878181106108b9576108b9612675565b905060200201358489611129565b60008460010183815481106108de576108de612675565b906000526020600020015411156109e6577f00000000000000000000000000000000000000000000000000000000000000006001600160a01b031663ad97db1b7f00000000000000000000000000000000000000000000000000000000000000007f000000000000000000000000000000000000000000000000000000000000000087600101868154811061097557610975612675565b906000526020600020015460006040518563ffffffff1660e01b81526004016109a194939291906126d5565b6020604051808303816000875af11580156109c0573d6000803e3d6000fd5b505050506040513d601f19601f820116820180604052508101906109e491906126fe565b505b505b50806109f381612717565b915050610656565b50505050505050505050565b610a0f61237c565b60008051602061297f8339815191527f000000000000000000000000000000000000000000000000000000000000000067ffffffffffffffff811115610a5757610a57612730565b604051908082528060200260200182016040528015610a80578160200160208202803683370190505b5082527f000000000000000000000000000000000000000000000000000000000000000067ffffffffffffffff811115610abc57610abc612730565b604051908082528060200260200182016040528015610ae5578160200160208202803683370190505b50602083015260005b7f0000000000000000000000000000000000000000000000000000000000000000811015610db357600082610b2283610ee6565b81548110610b3257610b32612675565b90600052602060002001549050600083600101610b4e84610ee6565b81548110610b5e57610b5e612675565b906000526020600020015490506000610c4d7f00000000000000000000000000000000000000000000000000000000000000006001600160a01b03166368c13d6b7f00000000000000000000000000000000000000000000000000000000000000007f0000000000000000000000000000000000000000000000000000000000000000866040518463ffffffff1660e01b8152600401610c0093929190612746565b602060405180830381865afa158015610c1d573d6000803e3d6000fd5b505050506040513d601f19601f82011682018060405250810190610c4191906126fe565b6001600160601b031690565b1180610c57575085155b610c62576000610c8b565b83600101610c6f84610ee6565b81548110610c7f57610c7f612675565b90600052602060002001545b8551805185908110610c9f57610c9f612675565b6020026020010181815250506000610d407f00000000000000000000000000000000000000000000000000000000000000006001600160a01b03166368c13d6b7f00000000000000000000000000000000000000000000000000000000000000007f0000000000000000000000000000000000000000000000000000000000000000876040518463ffffffff1660e01b8152600401610c0093929190612746565b1180610d4a575085155b610d55576000610d7b565b83610d5f84610ee6565b81548110610d6f57610d6f612675565b90600052602060002001545b6020860151805185908110610d9257610d92612675565b60200260200101818152505050508080610dab90612717565b915050610aee565b5050919050565b306001600160a01b037f00000000000000000000000000000000000000000000000000000000000000001614610e025760405162461bcd60e51b8152600401610137906125d0565b60008512610e105784610e19565b610e198561276a565b8214610e675760405162461bcd60e51b815260206004820181905260248201527f4d616e676f2f7365745f73686966742f6e6f74456e6f756768416d6f756e74736044820152606401610137565b6000851215610e8a57610e85610e7c8661276a565b858585856113c7565b610e97565b610e97858585858561171e565b5050505050565b600061039060008051602061297f83398151915260060154610ec09084612786565b7f00000000000000000000000000000000000000000000000000000000000000006119e0565b600061039060008051602061297f83398151915260060154610ec090846127c5565b600060008051602061297f833981519152905060007f00000000000000000000000000000000000000000000000000000000000000006001600160a01b03166368c13d6b7f00000000000000000000000000000000000000000000000000000000000000007f0000000000000000000000000000000000000000000000000000000000000000856001018b81548110610fa357610fa3612675565b90600052602060002001546040518463ffffffff1660e01b8152600401610fcc93929190612746565b602060405180830381865afa158015610fe9573d6000803e3d6000fd5b505050506040513d601f19601f8201168201806040525081019061100d91906126fe565b9050600061101a88610e9e565b905060008761104a57600384015461103b6001600160601b0385168961265d565b611045919061265d565b61104c565b865b9050600061105a8383611389565b905060006001600160601b0385166000036110c957871561107c5750866110ec565b83156110b857856001016110966001866101cd9190612646565b815481106110a6576110a6612675565b906000526020600020015490506110ec565b6110c28560e01c90565b90506110ec565b856001018b815481106110de576110de612675565b906000526020600020015490505b61111c8b7f000000000000000000000000000000000000000000000000000000000000000084868b8f1587611a0e565b5050505050505050505050565b600060008051602061297f833981519152905060007f00000000000000000000000000000000000000000000000000000000000000006001600160a01b03166368c13d6b7f00000000000000000000000000000000000000000000000000000000000000007f0000000000000000000000000000000000000000000000000000000000000000856000018b815481106111c4576111c4612675565b90600052602060002001546040518463ffffffff1660e01b81526004016111ed93929190612746565b602060405180830381865afa15801561120a573d6000803e3d6000fd5b505050506040513d601f19601f8201168201806040525081019061122e91906126fe565b9050600061123b88610e9e565b905060008761126b57600284015461125c6001600160601b0385168961265d565b611266919061265d565b61126d565b865b9050600061127b8383611338565b905060006001600160601b0385166000036112e557871561129d575086611308565b83156112d457856112b26101cd600187612646565b815481106112c2576112c2612675565b90600052602060002001549050611308565b6112de8560e01c90565b9050611308565b856000018b815481106112fa576112fa612675565b906000526020600020015490505b61111c8b7f000000000000000000000000000000000000000000000000000000000000000084868b8f1587611a0e565b60007f00000000000000000000000000000000000000000000000000000000000000006001600160601b03168261136e85611b3b565b6113789190612806565b611382919061283b565b9392505050565b600061139483611b3b565b6113786001600160601b037f00000000000000000000000000000000000000000000000000000000000000001684612806565b60008051602061297f8339815191527f0000000000000000000000000000000000000000000000000000000000000000861061144f5760405162461bcd60e51b815260206004820152602160248201527f4d616e676f2f73686966742f4e656761746976655368696674546f6f4c6172676044820152606560f81b6064820152608401610137565b600061147f6101cd60017f0000000000000000000000000000000000000000000000000000000000000000612646565b9050868260060160008282546114959190612786565b90915550600090505b87811015611714578260000182815481106114bb576114bb612675565b90600052602060002001546000146115c4577f00000000000000000000000000000000000000000000000000000000000000006001600160a01b031663ad97db1b7f00000000000000000000000000000000000000000000000000000000000000007f000000000000000000000000000000000000000000000000000000000000000086600001868154811061155357611553612675565b906000526020600020015460006040518563ffffffff1660e01b815260040161157f94939291906126d5565b6020604051808303816000875af115801561159e573d6000803e3d6000fd5b505050506040513d601f19601f820116820180604052508101906115c291906126fe565b505b60006115cf83610e9e565b9050600080891561161e578888858181106115ec576115ec612675565b905060200201359050611617838a8a8781811061160b5761160b612675565b90506020020135611338565b915061165e565b611640838a8a8781811061163457611634612675565b90506020020135611389565b905088888581811061165457611654612675565b9050602002013591505b6116f4857f000000000000000000000000000000000000000000000000000000000000000083858b60006116b360017f0000000000000000000000000000000000000000000000000000000000000000612646565b8a106116c0576000611a0e565b8c6001016116d48b60016101cd919061265d565b815481106116e4576116e4612675565b9060005260206000200154611a0e565b836116fe81612717565b94505061170a85611b61565b945050505061149e565b5050505050505050565b60008051602061297f8339815191527f000000000000000000000000000000000000000000000000000000000000000086106117a65760405162461bcd60e51b815260206004820152602160248201527f4d616e676f2f73686966742f706f7369746976655368696674546f6f4c6172676044820152606560f81b6064820152608401610137565b60006117b26000610ee6565b9050868260060160008282546117c891906127c5565b90915550600090505b87811015611714578260010182815481106117ee576117ee612675565b90600052602060002001546000146118f7577f00000000000000000000000000000000000000000000000000000000000000006001600160a01b031663ad97db1b7f00000000000000000000000000000000000000000000000000000000000000007f000000000000000000000000000000000000000000000000000000000000000086600101868154811061188657611886612675565b906000526020600020015460006040518563ffffffff1660e01b81526004016118b294939291906126d5565b6020604051808303816000875af11580156118d1573d6000803e3d6000fd5b505050506040513d601f19601f820116820180604052508101906118f591906126fe565b505b600061190283610e9e565b905060008089156119455788888581811061191f5761191f612675565b90506020020135915061193e838a8a8781811061160b5761160b612675565b9050611979565b88888581811061195757611957612675565b905060200201359050611976838a8a8781811061163457611634612675565b91505b6119c0857f000000000000000000000000000000000000000000000000000000000000000083858b6000808a116119b1576000611a0e565b8c6116d46101cd60018d612646565b836119ca81612717565b9450506119d685611ba5565b94505050506117d1565b60008083126119fa576119f3828461284f565b9050610390565b611a048284612863565b6119f390836127c5565b60008051602061297f8339815191526001600160a01b037f0000000000000000000000000000000000000000000000000000000000000000811690881603611ac3576000611a816040518060a001604052808b815260200189815260200188815260200187815260200185815250611bdd565b90508015611aaf5783611aa357808260020154611a9e919061265d565b611aa5565b805b6002830155611abd565b8315611abd57600060028301555b50611714565b6000611af46040518060a001604052808b815260200189815260200188815260200187815260200185815250611f5c565b90508015611b225783611b1657808260030154611b11919061265d565b611b18565b805b6003830155611b30565b8315611b3057600060038301555b505050505050505050565b600061039060008051602061297f8339815191526007015483611b5c61227e565b612365565b6000808211611b9a57611b9560017f0000000000000000000000000000000000000000000000000000000000000000612646565b610390565b610390600183612646565b60007f0000000000000000000000000000000000000000000000000000000000000000611bd383600161265d565b610390919061284f565b805160008051602061297f833981519152805460009282918110611c0357611c03612675565b9060005260206000200154600003611d6f577f00000000000000000000000000000000000000000000000000000000000000006001600160a01b03166349f6d2dc7f00000000000000000000000000000000000000000000000000000000000000007f000000000000000000000000000000000000000000000000000000000000000086602001518760400151886060015160008a608001516040518863ffffffff1660e01b8152600401611cbe9796959493929190612877565b6020604051808303816000875af1925050508015611cf9575060408051601f3d908101601f19168201909252611cf6918101906126fe565b60015b611d065750506040015190565b83518254829184918110611d1c57611d1c612675565b60009182526020822001919091558451835490916005850191859084908110611d4757611d47612675565b9060005260206000200154815260200190815260200160002081905550600092505050919050565b7f00000000000000000000000000000000000000000000000000000000000000006001600160a01b0316636a4f76917f00000000000000000000000000000000000000000000000000000000000000007f000000000000000000000000000000000000000000000000000000000000000086602001518760400151886060015160008a60800151896000018c6000015181548110611e0f57611e0f612675565b90600052602060002001546040518963ffffffff1660e01b8152600401611e3d9897969594939291906128b5565b600060405180830381600087803b158015611e5757600080fd5b505af1925050508015611e68575060015b611f53576000611f247f00000000000000000000000000000000000000000000000000000000000000006001600160a01b03166368c13d6b7f00000000000000000000000000000000000000000000000000000000000000007f000000000000000000000000000000000000000000000000000000000000000086600001896000015181548110611efb57611efb612675565b90600052602060002001546040518463ffffffff1660e01b8152600401610c0093929190612746565b905080846040015111611f3b578360400151611f4b565b808460400151611f4b9190612646565b949350505050565b50600092915050565b80517f416b48c48a967c2245e6ba6bc6efa281932950b502fea671117e4dfd7d3dfb82805460009260008051602061297f83398151915292918110611fa357611fa3612675565b90600052602060002001546000036120f2577f00000000000000000000000000000000000000000000000000000000000000006001600160a01b03166349f6d2dc7f00000000000000000000000000000000000000000000000000000000000000007f000000000000000000000000000000000000000000000000000000000000000086602001518760400151886060015160008a608001516040518863ffffffff1660e01b815260040161205e9796959493929190612877565b6020604051808303816000875af1925050508015612099575060408051601f3d908101601f19168201909252612096918101906126fe565b60015b6120a65750506040015190565b80826001018560000151815481106120c0576120c0612675565b9060005260206000200181905550836000015182600401600084600101876000015181548110611d4757611d47612675565b7f00000000000000000000000000000000000000000000000000000000000000006001600160a01b0316636a4f76917f00000000000000000000000000000000000000000000000000000000000000007f000000000000000000000000000000000000000000000000000000000000000086602001518760400151886060015160008a60800151896001018c600001518154811061219257612192612675565b90600052602060002001546040518963ffffffff1660e01b81526004016121c09897969594939291906128b5565b600060405180830381600087803b1580156121da57600080fd5b505af19250505080156121eb575060015b611f53576000611f247f00000000000000000000000000000000000000000000000000000000000000006001600160a01b03166368c13d6b7f00000000000000000000000000000000000000000000000000000000000000007f000000000000000000000000000000000000000000000000000000000000000086600101896000015181548110611efb57611efb612675565b7f416b48c48a967c2245e6ba6bc6efa281932950b502fea671117e4dfd7d3dfb88547f416b48c48a967c2245e6ba6bc6efa281932950b502fea671117e4dfd7d3dfb875460009160008051602061297f8339815191529183916122e0916128f9565b612313906001600160601b037f0000000000000000000000000000000000000000000000000000000000000000166127c5565b9050600081136103905760405162461bcd60e51b815260206004820152601e60248201527f4d616e676f2f71756f74655f6d696e2f5368696674556e646572666c6f7700006044820152606401610137565b6000816123728486612806565b611f4b919061265d565b60405180604001604052806002905b606081526020019060019003908161238b5790505090565b6000808284036101408112156123b857600080fd5b610120808212156123c857600080fd5b9395938601359450505050565b803580151581146123e557600080fd5b919050565b60008083601f8401126123fc57600080fd5b50813567ffffffffffffffff81111561241457600080fd5b6020830191508360208260051b850101111561242f57600080fd5b9250929050565b60008060008060008060008060e0898b03121561245257600080fd5b61245b896123d5565b9750602089013596506040890135955060608901359450608089013567ffffffffffffffff8082111561248d57600080fd5b818b0191508b6040830111156124a257600080fd5b90945060a08a013590808211156124b857600080fd5b506124c58b828c016123ea565b999c989b50969995989497949560c00135949350505050565b6000602082840312156124f057600080fd5b611382826123d5565b6020808252600090606083018382018584805b600281101561256157878503601f19018452825180518087529087019087870190845b8181101561254b5783518352928901929189019160010161252f565b509096505050928501929185019160010161250c565b5092979650505050505050565b60008060008060006080868803121561258657600080fd5b85359450612596602087016123d5565b9350604086013567ffffffffffffffff8111156125b257600080fd5b6125be888289016123ea565b96999598509660600135949350505050565b6020808252601f908201527f4d616e676f496d706c656d656e746174696f6e2f696e76616c696443616c6c00604082015260600190565b60006020828403121561261957600080fd5b81356001600160a01b038116811461138257600080fd5b634e487b7160e01b600052601160045260246000fd5b60008282101561265857612658612630565b500390565b6000821982111561267057612670612630565b500190565b634e487b7160e01b600052603260045260246000fd5b6000808335601e198436030181126126a257600080fd5b83018035915067ffffffffffffffff8211156126bd57600080fd5b6020019150600581901b360382131561242f57600080fd5b6001600160a01b0394851681529290931660208301526040820152901515606082015260800190565b60006020828403121561271057600080fd5b5051919050565b60006001820161272957612729612630565b5060010190565b634e487b7160e01b600052604160045260246000fd5b6001600160a01b039384168152919092166020820152604081019190915260600190565b6000600160ff1b820161277f5761277f612630565b5060000390565b60008083128015600160ff1b8501841216156127a4576127a4612630565b6001600160ff1b03840183138116156127bf576127bf612630565b50500390565b600080821280156001600160ff1b03849003851316156127e7576127e7612630565b600160ff1b839003841281161561280057612800612630565b50500190565b600081600019048311821515161561282057612820612630565b500290565b634e487b7160e01b600052601260045260246000fd5b60008261284a5761284a612825565b500490565b60008261285e5761285e612825565b500690565b60008261287257612872612825565b500790565b6001600160a01b03978816815295909616602086015260408501939093526060840191909152608083015260a082015260c081019190915260e00190565b6001600160a01b03988916815296909716602087015260408601949094526060850192909252608084015260a083015260c082015260e08101919091526101000190565b60006001600160ff1b038184138284138082168684048611161561291f5761291f612630565b600160ff1b600087128281168783058912161561293e5761293e612630565b6000871292508782058712848416161561295a5761295a612630565b8785058712818416161561297057612970612630565b50505092909302939250505056fe416b48c48a967c2245e6ba6bc6efa281932950b502fea671117e4dfd7d3dfb81a26469706673582212204805650d72dd5d373acfe22a70c407af43e35403f616d987c257084ef74b618b64736f6c634300080e0033",
    "linkReferences": {}
  },
  "methodIdentifiers": {
    "$get_offers(bool)": "663d2e0c",
    "$initialize(bool,uint256,uint256,uint256,uint256[][2],uint256[],uint256)": "3234fdc0",
    "$postDualOffer((address,address,uint256,uint256,uint256,uint256,uint256,uint256,uint256),uint256)": "11b10259",
    "$residualWants((address,address,uint256,uint256,uint256,uint256,uint256,uint256,uint256),uint256)": "1f92a319",
    "$set_shift(int256,bool,uint256[],uint256)": "b61dce59"
  },
  "id": 61
}