{
  "abi": [
    {
      "inputs": [
        {
          "internalType": "contract IMangrove",
          "name": "_MGV",
          "type": "address"
        },
        {
          "internalType": "address",
          "name": "deployer",
          "type": "address"
        }
      ],
      "stateMutability": "nonpayable",
      "type": "constructor"
    },
    {
      "anonymous": false,
      "inputs": [
        {
          "indexed": false,
          "internalType": "contract IMangrove",
          "name": "mangrove",
          "type": "address"
        },
        {
          "indexed": true,
          "internalType": "contract IERC20",
          "name": "outbound_tkn",
          "type": "address"
        },
        {
          "indexed": true,
          "internalType": "contract IERC20",
          "name": "inbound_tkn",
          "type": "address"
        },
        {
          "indexed": true,
          "internalType": "uint256",
          "name": "offerId",
          "type": "uint256"
        },
        {
          "indexed": false,
          "internalType": "bytes32",
          "name": "reason",
          "type": "bytes32"
        }
      ],
      "name": "LogIncident",
      "type": "event"
    },
    {
      "anonymous": false,
      "inputs": [
        {
          "indexed": false,
          "internalType": "uint256",
          "name": "",
          "type": "uint256"
        }
      ],
      "name": "SetGasreq",
      "type": "event"
    },
    {
      "anonymous": false,
      "inputs": [
        {
          "indexed": false,
          "internalType": "contract AbstractRouter",
          "name": "",
          "type": "address"
        }
      ],
      "name": "SetRouter",
      "type": "event"
    },
    {
      "inputs": [],
      "name": "MGV",
      "outputs": [
        {
          "internalType": "contract IMangrove",
          "name": "",
          "type": "address"
        }
      ],
      "stateMutability": "view",
      "type": "function"
    },
    {
      "inputs": [
        {
          "internalType": "contract IERC20[]",
          "name": "tokens",
          "type": "address[]"
        }
      ],
      "name": "activate",
      "outputs": [],
      "stateMutability": "nonpayable",
      "type": "function"
    },
    {
      "inputs": [],
      "name": "admin",
      "outputs": [
        {
          "internalType": "address",
          "name": "",
          "type": "address"
        }
      ],
      "stateMutability": "view",
      "type": "function"
    },
    {
      "inputs": [
        {
          "internalType": "contract IERC20",
          "name": "outbound_tkn",
          "type": "address"
        }
      ],
      "name": "approveMangrove",
      "outputs": [],
      "stateMutability": "nonpayable",
      "type": "function"
    },
    {
      "inputs": [
        {
          "internalType": "contract IERC20",
          "name": "token",
          "type": "address"
        }
      ],
      "name": "approveRouter",
      "outputs": [],
      "stateMutability": "nonpayable",
      "type": "function"
    },
    {
      "inputs": [
        {
          "internalType": "contract IERC20[]",
          "name": "tokens",
          "type": "address[]"
        }
      ],
      "name": "checkList",
      "outputs": [],
      "stateMutability": "view",
      "type": "function"
    },
    {
      "inputs": [
        {
          "internalType": "contract IERC20",
          "name": "outbound_tkn",
          "type": "address"
        },
        {
          "internalType": "contract IERC20",
          "name": "inbound_tkn",
          "type": "address"
        },
        {
          "internalType": "uint256",
          "name": "gasreq",
          "type": "uint256"
        },
        {
          "internalType": "uint256",
          "name": "gasprice",
          "type": "uint256"
        },
        {
          "internalType": "uint256",
          "name": "offerId",
          "type": "uint256"
        }
      ],
      "name": "getMissingProvision",
      "outputs": [
        {
          "internalType": "uint256",
          "name": "",
          "type": "uint256"
        }
      ],
      "stateMutability": "view",
      "type": "function"
    },
    {
      "inputs": [],
      "name": "has_router",
      "outputs": [
        {
          "internalType": "bool",
          "name": "",
          "type": "bool"
        }
      ],
      "stateMutability": "view",
      "type": "function"
    },
    {
      "inputs": [
        {
          "components": [
            {
              "internalType": "address",
              "name": "outbound_tkn",
              "type": "address"
            },
            {
              "internalType": "address",
              "name": "inbound_tkn",
              "type": "address"
            },
            {
              "internalType": "uint256",
              "name": "offerId",
              "type": "uint256"
            },
            {
              "internalType": "t",
              "name": "offer",
              "type": "uint256"
            },
            {
              "internalType": "uint256",
              "name": "wants",
              "type": "uint256"
            },
            {
              "internalType": "uint256",
              "name": "gives",
              "type": "uint256"
            },
            {
              "internalType": "t",
              "name": "offerDetail",
              "type": "uint256"
            },
            {
              "internalType": "t",
              "name": "global",
              "type": "uint256"
            },
            {
              "internalType": "t",
              "name": "local",
              "type": "uint256"
            }
          ],
          "internalType": "struct MgvLib.SingleOrder",
          "name": "order",
          "type": "tuple"
        }
      ],
      "name": "makerExecute",
      "outputs": [
        {
          "internalType": "bytes32",
          "name": "ret",
          "type": "bytes32"
        }
      ],
      "stateMutability": "nonpayable",
      "type": "function"
    },
    {
      "inputs": [
        {
          "components": [
            {
              "internalType": "address",
              "name": "outbound_tkn",
              "type": "address"
            },
            {
              "internalType": "address",
              "name": "inbound_tkn",
              "type": "address"
            },
            {
              "internalType": "uint256",
              "name": "offerId",
              "type": "uint256"
            },
            {
              "internalType": "t",
              "name": "offer",
              "type": "uint256"
            },
            {
              "internalType": "uint256",
              "name": "wants",
              "type": "uint256"
            },
            {
              "internalType": "uint256",
              "name": "gives",
              "type": "uint256"
            },
            {
              "internalType": "t",
              "name": "offerDetail",
              "type": "uint256"
            },
            {
              "internalType": "t",
              "name": "global",
              "type": "uint256"
            },
            {
              "internalType": "t",
              "name": "local",
              "type": "uint256"
            }
          ],
          "internalType": "struct MgvLib.SingleOrder",
          "name": "order",
          "type": "tuple"
        },
        {
          "components": [
            {
              "internalType": "bytes32",
              "name": "makerData",
              "type": "bytes32"
            },
            {
              "internalType": "bytes32",
              "name": "mgvData",
              "type": "bytes32"
            }
          ],
          "internalType": "struct MgvLib.OrderResult",
          "name": "result",
          "type": "tuple"
        }
      ],
      "name": "makerPosthook",
      "outputs": [],
      "stateMutability": "nonpayable",
      "type": "function"
    },
    {
      "inputs": [
        {
          "components": [
            {
              "internalType": "contract IERC20",
              "name": "outbound_tkn",
              "type": "address"
            },
            {
              "internalType": "contract IERC20",
              "name": "inbound_tkn",
              "type": "address"
            },
            {
              "internalType": "uint256",
              "name": "wants",
              "type": "uint256"
            },
            {
              "internalType": "uint256",
              "name": "gives",
              "type": "uint256"
            },
            {
              "internalType": "uint256",
              "name": "gasreq",
              "type": "uint256"
            },
            {
              "internalType": "uint256",
              "name": "gasprice",
              "type": "uint256"
            },
            {
              "internalType": "uint256",
              "name": "pivotId",
              "type": "uint256"
            },
            {
              "internalType": "uint256",
              "name": "offerId",
              "type": "uint256"
            }
          ],
          "internalType": "struct IOfferLogic.MakerOrder",
          "name": "mko",
          "type": "tuple"
        }
      ],
      "name": "newOffer",
      "outputs": [
        {
          "internalType": "uint256",
          "name": "",
          "type": "uint256"
        }
      ],
      "stateMutability": "payable",
      "type": "function"
    },
    {
      "inputs": [],
      "name": "ofr_gasreq",
      "outputs": [
        {
          "internalType": "uint256",
          "name": "",
          "type": "uint256"
        }
      ],
      "stateMutability": "view",
      "type": "function"
    },
    {
      "inputs": [],
      "name": "reserve",
      "outputs": [
        {
          "internalType": "address",
          "name": "",
          "type": "address"
        }
      ],
      "stateMutability": "view",
      "type": "function"
    },
    {
      "inputs": [
        {
          "internalType": "contract IERC20",
          "name": "outbound_tkn",
          "type": "address"
        },
        {
          "internalType": "contract IERC20",
          "name": "inbound_tkn",
          "type": "address"
        },
        {
          "internalType": "uint256",
          "name": "offerId",
          "type": "uint256"
        },
        {
          "internalType": "bool",
          "name": "deprovision",
          "type": "bool"
        }
      ],
      "name": "retractOffer",
      "outputs": [
        {
          "internalType": "uint256",
          "name": "free_wei",
          "type": "uint256"
        }
      ],
      "stateMutability": "nonpayable",
      "type": "function"
    },
    {
      "inputs": [],
      "name": "router",
      "outputs": [
        {
          "internalType": "contract AbstractRouter",
          "name": "",
          "type": "address"
        }
      ],
      "stateMutability": "view",
      "type": "function"
    },
    {
      "inputs": [
        {
          "internalType": "address",
          "name": "_admin",
          "type": "address"
        }
      ],
      "name": "set_admin",
      "outputs": [],
      "stateMutability": "nonpayable",
      "type": "function"
    },
    {
      "inputs": [
        {
          "internalType": "uint256",
          "name": "gasreq",
          "type": "uint256"
        }
      ],
      "name": "set_gasreq",
      "outputs": [],
      "stateMutability": "nonpayable",
      "type": "function"
    },
    {
      "inputs": [
        {
          "internalType": "address",
          "name": "__reserve",
          "type": "address"
        }
      ],
      "name": "set_reserve",
      "outputs": [],
      "stateMutability": "nonpayable",
      "type": "function"
    },
    {
      "inputs": [
        {
          "internalType": "contract AbstractRouter",
          "name": "router_",
          "type": "address"
        }
      ],
      "name": "set_router",
      "outputs": [],
      "stateMutability": "nonpayable",
      "type": "function"
    },
    {
      "inputs": [
        {
          "internalType": "contract IERC20",
          "name": "token",
          "type": "address"
        }
      ],
      "name": "tokenBalance",
      "outputs": [
        {
          "internalType": "uint256",
          "name": "",
          "type": "uint256"
        }
      ],
      "stateMutability": "view",
      "type": "function"
    },
    {
      "inputs": [
        {
          "components": [
            {
              "internalType": "contract IERC20",
              "name": "outbound_tkn",
              "type": "address"
            },
            {
              "internalType": "contract IERC20",
              "name": "inbound_tkn",
              "type": "address"
            },
            {
              "internalType": "uint256",
              "name": "wants",
              "type": "uint256"
            },
            {
              "internalType": "uint256",
              "name": "gives",
              "type": "uint256"
            },
            {
              "internalType": "uint256",
              "name": "gasreq",
              "type": "uint256"
            },
            {
              "internalType": "uint256",
              "name": "gasprice",
              "type": "uint256"
            },
            {
              "internalType": "uint256",
              "name": "pivotId",
              "type": "uint256"
            },
            {
              "internalType": "uint256",
              "name": "offerId",
              "type": "uint256"
            }
          ],
          "internalType": "struct IOfferLogic.MakerOrder",
          "name": "mko",
          "type": "tuple"
        }
      ],
      "name": "updateOffer",
      "outputs": [],
      "stateMutability": "payable",
      "type": "function"
    },
    {
      "inputs": [
        {
          "internalType": "uint256",
          "name": "amount",
          "type": "uint256"
        },
        {
          "internalType": "address payable",
          "name": "receiver",
          "type": "address"
        }
      ],
      "name": "withdrawFromMangrove",
      "outputs": [],
      "stateMutability": "nonpayable",
      "type": "function"
    },
    {
      "inputs": [
        {
          "internalType": "contract IERC20",
          "name": "token",
          "type": "address"
        },
        {
          "internalType": "address",
          "name": "receiver",
          "type": "address"
        },
        {
          "internalType": "uint256",
          "name": "amount",
          "type": "uint256"
        }
      ],
      "name": "withdrawToken",
      "outputs": [
        {
          "internalType": "bool",
          "name": "success",
          "type": "bool"
        }
      ],
      "stateMutability": "nonpayable",
      "type": "function"
    },
    {
      "stateMutability": "payable",
      "type": "receive"
    }
  ],
  "bytecode": {
    "object": "0x60a06040523480156200001157600080fd5b5060405162002c9a38038062002c9a8339810160408190526200003491620005b2565b8161c350600082823380620000905760405162461bcd60e51b815260206004820152601860248201527f616363657373436f6e74726f6c6c65642f307841646d696e000000000000000060448201526064015b60405180910390fd5b80620000a66200019f60201b62001a341760201c565b80546001600160a01b0319166001600160a01b03929092169190911790555062ffffff811681146200011b5760405162461bcd60e51b815260206004820152601b60248201527f4d616e67726f76654f666665722f676173726571546f6f486967680000000000604482015260640162000087565b6001600160a01b038216608052806200013f620001c3602090811b62001a5817901c565b5550506001600160a01b03811662000162576200015c30620001e7565b62000178565b6200016d81620001e7565b620001788162000251565b5050506001600160a01b038116331462000197576200019781620003ea565b5050620005f1565b7f7d382ebca3e46505071795e192d28166a3d4bd0685585591bc6c5b8df6769fd290565b7fae7e31c3220e851db9f204a28b279dfe52b973600b0a456991089c220ae7222490565b620001f1620004d4565b6001600160a01b0316336001600160a01b031614620002425760405162461bcd60e51b8152602060048201526018602482015260008051602062002c7a833981519152604482015260640162000087565b6200024e3082620004fa565b50565b6200025b620004d4565b6001600160a01b0316336001600160a01b031614806200028e57506080516001600160a01b0316336001600160a01b0316145b620002cb5760405162461bcd60e51b8152602060048201526018602482015260008051602062002c7a833981519152604482015260640162000087565b6001600160a01b038116620003235760405162461bcd60e51b815260206004820152601c60248201527f6d67764f666665722f7365745f726f757465722f3078526f7574657200000000604482015260640162000087565b8062000339620001c360201b62001a581760201c565b60010180546001600160a01b0319166001600160a01b039283161790556040516381bac14f60e01b8152306004820152908216906381bac14f90602401600060405180830381600087803b1580156200039157600080fd5b505af1158015620003a6573d6000803e3d6000fd5b50506040516001600160a01b03841681527f6de4326a8b9054d72d9dbab97d27bc4edffadee7d966f5af9cc4eafdaf8e54559250602001905060405180910390a150565b620003f4620004d4565b6001600160a01b0316336001600160a01b031614620004455760405162461bcd60e51b8152602060048201526018602482015260008051602062002c7a833981519152604482015260640162000087565b6001600160a01b0381166200049d5760405162461bcd60e51b815260206004820152601860248201527f416363657373436f6e74726f6c6c65642f307841646d696e0000000000000000604482015260640162000087565b80620004b36200019f60201b62001a341760201c565b80546001600160a01b0319166001600160a01b039290921691909117905550565b6000620004eb6200019f60201b62001a341760201c565b546001600160a01b0316919050565b6001600160a01b038116620005525760405162461bcd60e51b815260206004820152601460248201527f53696e676c65557365722f307852657365727665000000000000000000000000604482015260640162000087565b8062000568620001c360201b62001a581760201c565b6001600160a01b0393841660009081526002919091016020526040902080546001600160a01b031916919093161790915550565b6001600160a01b03811681146200024e57600080fd5b60008060408385031215620005c657600080fd5b8251620005d3816200059c565b6020840151909250620005e6816200059c565b809150509250929050565b6080516125f662000684600039600081816102a20152818161062501528181610725015281816107e30152818161094901528181610a5d01528181610b7001528181610c0201528181610dbf01528181610eb701528181610f2b01528181610fb6015281816111ff0152818161135a015281816113f70152818161156d015281816119680152611eea01526125f66000f3fe6080604052600436106101445760003560e01c80639f2211cb116100b6578063e9333fab1161006f578063e9333fab14610386578063eedc966a146103a6578063f259cd27146103c6578063f851a440146103e6578063f887ea40146103fb578063fc488a381461041057600080fd5b80639f2211cb146102dc578063ad97db1b146102fc578063cd3293de1461031c578063d1baa1ef14610331578063db11851e14610346578063e4c34f841461036657600080fd5b80635293840d116101085780635293840d146101fa5780635486c95f1461021a5780636c49c32c1461023b5780637144df241461025b57806384b627f91461027b57806399fa5e2d1461029057600080fd5b806301e336671461015057806303eb17e21461018557806310aded60146101a75780633d3d130d146101ba5780633d77fcde146101da57600080fd5b3661014b57005b600080fd5b34801561015c57600080fd5b5061017061016b366004612117565b610430565b60405190151581526020015b60405180910390f35b34801561019157600080fd5b506101a56101a0366004612158565b61059a565b005b6101a56101b53660046121cd565b6105eb565b3480156101c657600080fd5b506101a56101d536600461228c565b610723565b3480156101e657600080fd5b506101a56101f53660046122cf565b610847565b34801561020657600080fd5b506101a5610215366004612158565b610889565b61022d6102283660046121cd565b61090d565b60405190815260200161017c565b34801561024757600080fd5b5061022d6102563660046122ec565b610a59565b34801561026757600080fd5b506101a5610276366004612309565b610b1a565b34801561028757600080fd5b50610170610d89565b34801561029c57600080fd5b506102c47f000000000000000000000000000000000000000000000000000000000000000081565b6040516001600160a01b03909116815260200161017c565b3480156102e857600080fd5b506101a56102f73660046122cf565b610da8565b34801561030857600080fd5b5061022d610317366004612347565b610e88565b34801561032857600080fd5b506102c4611129565b34801561033d57600080fd5b5061022d611139565b34801561035257600080fd5b506101a56103613660046122cf565b6111d2565b34801561037257600080fd5b5061022d61038136600461239a565b61134c565b34801561039257600080fd5b506101a56103a13660046122cf565b61160f565b3480156103b257600080fd5b5061022d6103c13660046122cf565b6116c7565b3480156103d257600080fd5b506101a56103e13660046122cf565b6117f2565b3480156103f257600080fd5b506102c46118c7565b34801561040757600080fd5b506102c46118e0565b34801561041c57600080fd5b506101a561042b3660046123eb565b61193b565b600061043a6118c7565b6001600160a01b0316336001600160a01b0316146104735760405162461bcd60e51b815260040161046a90612404565b60405180910390fd5b6001600160a01b0383166104d55760405162461bcd60e51b815260206004820152602360248201527f53696e676c65557365722f7769746864726177546f6b656e2f307852656365696044820152623b32b960e91b606482015260840161046a565b6104dd610d89565b6104f3576104ec848484611a7c565b9050610593565b6104fb6118e0565b6001600160a01b03166321754d9e85610512611129565b6040516001600160e01b031960e085901b1681526001600160a01b03928316600482015290821660248201529086166044820152606481018590526084016020604051808303816000875af115801561056f573d6000803e3d6000fd5b505050506040513d601f19601f820116820180604052508101906104ec919061243b565b9392505050565b60005b818110156105e6576105d48383838181106105ba576105ba612458565b90506020020160208101906105cf91906122cf565b611b72565b806105de81612484565b91505061059d565b505050565b6105f36118c7565b6001600160a01b0316336001600160a01b0316146106235760405162461bcd60e51b815260040161046a90612404565b7f00000000000000000000000000000000000000000000000000000000000000006001600160a01b0316636a4f769134836000015184602001518560400151866060015162ffffff8016886080015111610681578760800151610689565b610689611139565b60a089015160c08a015160e0808c0151604051918b901b6001600160e01b03191682526001600160a01b03988916600483015296909716602488015260448701949094526064860192909252608485015260a484015260c483015260e4820152610104016000604051808303818588803b15801561070657600080fd5b505af115801561071a573d6000803e3d6000fd5b50505050505b50565b7f00000000000000000000000000000000000000000000000000000000000000006001600160a01b03811615806107625750336001600160a01b038216145b61077e5760405162461bcd60e51b815260040161046a90612404565b81602001356f6d67762f74726164655375636365737360801b036107ab576107a583611c06565b50505050565b604083018035906107bf90602086016122cf565b6001600160a01b03166107d560208601866122cf565b604080516001600160a01b037f0000000000000000000000000000000000000000000000000000000000000000811682528735602083015292909216917f736a3993b9f8b1c5603896c76376792887f376b1fe7fc981e09a16530bf1e4e0910160405180910390a46107a58383611cb7565b61084f6118c7565b6001600160a01b0316336001600160a01b03161461087f5760405162461bcd60e51b815260040161046a90612404565b6107203082611cc0565b6108916118c7565b6001600160a01b0316336001600160a01b0316146108c15760405162461bcd60e51b815260040161046a90612404565b60005b818110156105e6576108fb8383838181106108e1576108e1612458565b90506020020160208101906108f691906122cf565b611d4a565b8061090581612484565b9150506108c4565b60006109176118c7565b6001600160a01b0316336001600160a01b0316146109475760405162461bcd60e51b815260040161046a90612404565b7f00000000000000000000000000000000000000000000000000000000000000006001600160a01b03166349f6d2dc34846000015185602001518660400151876060015162ffffff8016896080015110156109a65788608001516109ae565b6109ae611139565b60a08a015160c08b01516040516001600160e01b031960e08b901b1681526001600160a01b03978816600482015296909516602487015260448601939093526064850191909152608484015260a483015260c482015260e40160206040518083038185885af1158015610a25573d6000803e3d6000fd5b50505050506040513d601f19601f82011682018060405250810190610a4a919061249d565b60e0830181905290505b919050565b60007f00000000000000000000000000000000000000000000000000000000000000006001600160a01b0381161580610a9a5750336001600160a01b038216145b610ab65760405162461bcd60e51b815260040161046a90612404565b6000610ac6846080013585611dd1565b1115610b145760405162461bcd60e51b815260206004820152601860248201527f6d67764f666665722f61626f72742f6765744661696c65640000000000000000604482015260640161046a565b50919050565b610b226118c7565b6001600160a01b0316336001600160a01b031614610b525760405162461bcd60e51b815260040161046a90612404565b6000198203610bec576040516370a0823160e01b81523060048201527f00000000000000000000000000000000000000000000000000000000000000006001600160a01b0316906370a0823190602401602060405180830381865afa158015610bbf573d6000803e3d6000fd5b505050506040513d601f19601f82011682018060405250810190610be3919061249d565b91508115610d85575b604051632e1a7d4d60e01b8152600481018390527f00000000000000000000000000000000000000000000000000000000000000006001600160a01b031690632e1a7d4d906024016020604051808303816000875af1158015610c53573d6000803e3d6000fd5b505050506040513d601f19601f82011682018060405250810190610c77919061243b565b610cd15760405162461bcd60e51b815260206004820152602560248201527f6d67764f666665722f776974686472617746726f6d4d67762f776974686472616044820152641dd1985a5b60da1b606482015260840161046a565b6000816001600160a01b03168360405160006040518083038185875af1925050503d8060008114610d1e576040519150601f19603f3d011682016040523d82523d6000602084013e610d23565b606091505b50509050806105e65760405162461bcd60e51b815260206004820152602860248201527f6d67764f666665722f776974686472617746726f6d4d67762f70617961626c6560448201526710d85b1b11985a5b60c21b606482015260840161046a565b5050565b600080610d94611a58565b600101546001600160a01b03161415919050565b60405163095ea7b360e01b81526001600160a01b037f000000000000000000000000000000000000000000000000000000000000000081166004830152600019602483015282169063095ea7b3906044016020604051808303816000875af1158015610e18573d6000803e3d6000fd5b505050506040513d601f19601f82011682018060405250810190610e3c919061243b565b6107205760405162461bcd60e51b815260206004820152601d60248201527f6d67764f666665722f617070726f76654d616e67726f76652f4661696c000000604482015260640161046a565b6000610e926118c7565b6001600160a01b0316336001600160a01b03161480610ed95750336001600160a01b037f000000000000000000000000000000000000000000000000000000000000000016145b610ef55760405162461bcd60e51b815260040161046a90612404565b60405163ad97db1b60e01b81526001600160a01b03868116600483015285811660248301526044820185905283151560648301527f0000000000000000000000000000000000000000000000000000000000000000169063ad97db1b906084016020604051808303816000875af1158015610f74573d6000803e3d6000fd5b505050506040513d601f19601f82011682018060405250810190610f98919061249d565b9050801561112157604051632e1a7d4d60e01b8152600481018290527f00000000000000000000000000000000000000000000000000000000000000006001600160a01b031690632e1a7d4d906024016020604051808303816000875af1158015611007573d6000803e3d6000fd5b505050506040513d601f19601f8201168201806040525081019061102b919061243b565b6110875760405162461bcd60e51b815260206004820152602760248201527f53696e676c65557365722f776974686472617746726f6d4d67762f77697468646044820152661c985dd1985a5b60ca1b606482015260840161046a565b604051600090339083908381818185875af1925050503d80600081146110c9576040519150601f19603f3d011682016040523d82523d6000602084013e6110ce565b606091505b505090508061111f5760405162461bcd60e51b815260206004820152601a60248201527f53696e676c65557365722f7765695472616e736665724661696c000000000000604482015260640161046a565b505b949350505050565b600061113430611e9d565b905090565b6000611143610d89565b156111c4576111506118e0565b6001600160a01b0316630417ffda6040518163ffffffff1660e01b8152600401602060405180830381865afa15801561118d573d6000803e3d6000fd5b505050506040513d601f19601f820116820180604052508101906111b1919061249d565b6111b9611a58565b5461113491906124b6565b6111cc611a58565b54919050565b6111da6118c7565b6001600160a01b0316336001600160a01b031614806112215750336001600160a01b037f000000000000000000000000000000000000000000000000000000000000000016145b61123d5760405162461bcd60e51b815260040161046a90612404565b6001600160a01b0381166112935760405162461bcd60e51b815260206004820152601c60248201527f6d67764f666665722f7365745f726f757465722f3078526f7574657200000000604482015260640161046a565b8061129c611a58565b60010180546001600160a01b0319166001600160a01b039283161790556040516381bac14f60e01b8152306004820152908216906381bac14f90602401600060405180830381600087803b1580156112f357600080fd5b505af1158015611307573d6000803e3d6000fd5b50506040516001600160a01b03841681527f6de4326a8b9054d72d9dbab97d27bc4edffadee7d966f5af9cc4eafdaf8e5455925060200190505b60405180910390a150565b600080806001600160a01b037f00000000000000000000000000000000000000000000000000000000000000001663cbf75c9a89896040516001600160e01b031960e085901b1681526001600160a01b039283166004820152911660248201526044016040805180830381865afa1580156113cb573d6000803e3d6000fd5b505050506040513d601f19601f820116820180604052508101906113ef91906124ce565b9150915060007f00000000000000000000000000000000000000000000000000000000000000006001600160a01b0316635722647b61142b8b90565b8a6040516001600160e01b031960e085901b1681526001600160a01b0392831660048201529116602482015260448101889052606401602060405180830381865afa15801561147e573d6000803e3d6000fd5b505050506040513d601f19601f820116820180604052508101906114a2919061249d565b9050600086604085901c61ffff1611156114c5575061ffff604084901c166114c8565b50855b62ffffff88106114dd576114da611139565b97505b6000816114f362ffffff606087901c168b6124b6565b6114fd91906124f2565b61150b90633b9aca006124f2565b9050600061ffff602085901c1661153262ffffff603087901c811690604888901c166124b6565b61153c91906124f2565b61154a90633b9aca006124f2565b6040516370a0823160e01b81523060048201529091506000906001600160a01b037f000000000000000000000000000000000000000000000000000000000000000016906370a0823190602401602060405180830381865afa1580156115b4573d6000803e3d6000fd5b505050506040513d601f19601f820116820180604052508101906115d8919061249d565b6115e290836124b6565b9050828110156115fb576115f68184612511565b6115fe565b60005b9d9c50505050505050505050505050565b6116176118c7565b6001600160a01b0316336001600160a01b0316146116475760405162461bcd60e51b815260040161046a90612404565b6001600160a01b03811661169d5760405162461bcd60e51b815260206004820152601860248201527f416363657373436f6e74726f6c6c65642f307841646d696e0000000000000000604482015260640161046a565b806116a6611a34565b80546001600160a01b0319166001600160a01b039290921691909117905550565b6000806116d2611a58565b600101546001600160a01b03169050801561177357806001600160a01b03166305684fde846116ff611129565b6040516001600160e01b031960e085901b1681526001600160a01b03928316600482015291166024820152604401602060405180830381865afa15801561174a573d6000803e3d6000fd5b505050506040513d601f19601f8201168201806040525081019061176e919061249d565b610593565b826001600160a01b03166370a0823161178a611129565b6040516001600160e01b031960e084901b1681526001600160a01b039091166004820152602401602060405180830381865afa1580156117ce573d6000803e3d6000fd5b505050506040513d601f19601f82011682018060405250810190610593919061249d565b806001600160a01b031663095ea7b36118096118e0565b6040516001600160e01b031960e084901b1681526001600160a01b03909116600482015260001960248201526044016020604051808303816000875af1158015611857573d6000803e3d6000fd5b505050506040513d601f19601f8201168201806040525081019061187b919061243b565b6107205760405162461bcd60e51b815260206004820152601b60248201527f6d67764f666665722f617070726f7665526f757465722f4661696c0000000000604482015260640161046a565b60006118d1611a34565b546001600160a01b0316919050565b6000806118eb611a58565b600101546001600160a01b0316905080610a545760405162461bcd60e51b815260206004820152601160248201527036b3bb27b33332b917983c2937baba32b960791b604482015260640161046a565b6119436118c7565b6001600160a01b0316336001600160a01b0316148061198a5750336001600160a01b037f000000000000000000000000000000000000000000000000000000000000000016145b6119a65760405162461bcd60e51b815260040161046a90612404565b808162ffffff16146119fa5760405162461bcd60e51b815260206004820152601860248201527f6d67764f666665722f6761737265712f6f766572666c6f770000000000000000604482015260640161046a565b80611a03611a58565b556040518181527fafef3ad374c0b972e3c793be825735801fa05cc4c67157d98d9a111b4027988d90602001611341565b7f7d382ebca3e46505071795e192d28166a3d4bd0685585591bc6c5b8df6769fd290565b7fae7e31c3220e851db9f204a28b279dfe52b973600b0a456991089c220ae7222490565b6000811580611a9357506001600160a01b03831630145b15611aa057506001610593565b604080516001600160a01b038581166024830152604480830186905283518084039091018152606490920183526020820180516001600160e01b031663a9059cbb60e01b1790529151600092839290881691611afc9190612528565b6000604051808303816000865af19150503d8060008114611b39576040519150601f19603f3d011682016040523d82523d6000602084013e611b3e565b606091505b5091509150818015611b68575080511580611b68575080806020019051810190611b68919061243b565b9695505050505050565b611b7a610d89565b15611bfd57611b876118e0565b6001600160a01b031663a01dccd882611b9e611129565b6040516001600160e01b031960e085901b1681526001600160a01b0392831660048201529116602482015260440160006040518083038186803b158015611be457600080fd5b505afa158015611bf8573d6000803e3d6000fd5b505050505b61072081611ecd565b60408051600280825260608201835260009283929190602083019080368337019050509050611c3860208401846122cf565b81600081518110611c4b57611c4b612458565b6001600160a01b03909216602092830291909101820152611c7290604085019085016122cf565b81600181518110611c8557611c85612458565b60200260200101906001600160a01b031690816001600160a01b031681525050611cae81611fbd565b50600192915050565b60015b92915050565b6001600160a01b038116611d0d5760405162461bcd60e51b815260206004820152601460248201527353696e676c65557365722f30785265736572766560601b604482015260640161046a565b80611d16611a58565b6001600160a01b0393841660009081526002919091016020526040902080546001600160a01b031916919093161790915550565b611d5381610da8565b611d5b610d89565b1561072057611d69816117f2565b611d716118e0565b604051630716a76760e21b81526001600160a01b0383811660048301529190911690631c5a9d9c90602401600060405180830381600087803b158015611db657600080fd5b505af1158015611dca573d6000803e3d6000fd5b5050505050565b600080611dec611de460208501856122cf565b85600061202e565b9050838110611dff576000915050611cba565b6000611e0e60208501856122cf565b6040516370a0823160e01b81523060048201526001600160a01b0391909116906370a0823190602401602060405180830381865afa158015611e54573d6000803e3d6000fd5b505050506040513d601f19601f82011682018060405250810190611e78919061249d565b905084811015611e9157611e8c8186612511565b611e94565b60005b92505050611cba565b6000611ea7611a58565b6001600160a01b0392831660009081526002919091016020526040902054909116919050565b604051636eb1769f60e11b81523060048201526001600160a01b037f0000000000000000000000000000000000000000000000000000000000000000811660248301526000919083169063dd62ed3e90604401602060405180830381865afa158015611f3d573d6000803e3d6000fd5b505050506040513d601f19601f82011682018060405250810190611f61919061249d565b116107205760405162461bcd60e51b815260206004820152602660248201527f4d616e67726f76654f666665722f41646d696e4d757374417070726f76654d616044820152656e67726f766560d01b606482015260840161046a565b6000611fc7611a58565b600101546001600160a01b0316905080611fdf575050565b806001600160a01b031663f850a81c83611ff7611129565b6040518363ffffffff1660e01b8152600401612014929190612563565b600060405180830381600087803b15801561070657600080fd5b600080612039611a58565b600101546001600160a01b0316905080612057576000915050610593565b806001600160a01b031663333dbb0d8661206f611129565b6040516001600160e01b031960e085901b1681526001600160a01b039283166004820152911660248201526044810187905285151560648201526084016020604051808303816000875af11580156120cb573d6000803e3d6000fd5b505050506040513d601f19601f820116820180604052508101906120ef919061249d565b915050610593565b6001600160a01b038116811461072057600080fd5b8035610a54816120f7565b60008060006060848603121561212c57600080fd5b8335612137816120f7565b92506020840135612147816120f7565b929592945050506040919091013590565b6000806020838503121561216b57600080fd5b823567ffffffffffffffff8082111561218357600080fd5b818501915085601f83011261219757600080fd5b8135818111156121a657600080fd5b8660208260051b85010111156121bb57600080fd5b60209290920196919550909350505050565b60006101008083850312156121e157600080fd5b6040519081019067ffffffffffffffff8211818310171561221257634e487b7160e01b600052604160045260246000fd5b8160405261221f8461210c565b815261222d6020850161210c565b602082015260408401356040820152606084013560608201526080840135608082015260a084013560a082015260c084013560c082015260e084013560e0820152809250505092915050565b60006101208284031215610b1457600080fd5b6000808284036101608112156122a157600080fd5b6122ab8585612279565b9250604061011f19820112156122c057600080fd5b50610120830190509250929050565b6000602082840312156122e157600080fd5b8135610593816120f7565b600061012082840312156122ff57600080fd5b6105938383612279565b6000806040838503121561231c57600080fd5b82359150602083013561232e816120f7565b809150509250929050565b801515811461072057600080fd5b6000806000806080858703121561235d57600080fd5b8435612368816120f7565b93506020850135612378816120f7565b925060408501359150606085013561238f81612339565b939692955090935050565b600080600080600060a086880312156123b257600080fd5b85356123bd816120f7565b945060208601356123cd816120f7565b94979496505050506040830135926060810135926080909101359150565b6000602082840312156123fd57600080fd5b5035919050565b60208082526018908201527f416363657373436f6e74726f6c6c65642f496e76616c69640000000000000000604082015260600190565b60006020828403121561244d57600080fd5b815161059381612339565b634e487b7160e01b600052603260045260246000fd5b634e487b7160e01b600052601160045260246000fd5b6000600182016124965761249661246e565b5060010190565b6000602082840312156124af57600080fd5b5051919050565b600082198211156124c9576124c961246e565b500190565b600080604083850312156124e157600080fd5b505080516020909101519092909150565b600081600019048311821515161561250c5761250c61246e565b500290565b6000828210156125235761252361246e565b500390565b6000825160005b81811015612549576020818601810151858301520161252f565b81811115612558576000828501525b509190910192915050565b604080825283519082018190526000906020906060840190828701845b828110156125a55781516001600160a01b031684529284019290840190600101612580565b5050506001600160a01b03949094169201919091525091905056fea2646970667358221220da46f31bd341232b7265816d53346db50c1388a0064f2665f933b1a3d7ad3a8164736f6c634300080e0033416363657373436f6e74726f6c6c65642f496e76616c69640000000000000000",
    "linkReferences": {}
  },
  "methodIdentifiers": {
    "MGV()": "99fa5e2d",
    "activate(address[])": "5293840d",
    "admin()": "f851a440",
    "approveMangrove(address)": "9f2211cb",
    "approveRouter(address)": "f259cd27",
    "checkList(address[])": "03eb17e2",
    "getMissingProvision(address,address,uint256,uint256,uint256)": "e4c34f84",
    "has_router()": "84b627f9",
    "makerExecute((address,address,uint256,uint256,uint256,uint256,uint256,uint256,uint256))": "6c49c32c",
    "makerPosthook((address,address,uint256,uint256,uint256,uint256,uint256,uint256,uint256),(bytes32,bytes32))": "3d3d130d",
    "newOffer((address,address,uint256,uint256,uint256,uint256,uint256,uint256))": "5486c95f",
    "ofr_gasreq()": "d1baa1ef",
    "reserve()": "cd3293de",
    "retractOffer(address,address,uint256,bool)": "ad97db1b",
    "router()": "f887ea40",
    "set_admin(address)": "e9333fab",
    "set_gasreq(uint256)": "fc488a38",
    "set_reserve(address)": "3d77fcde",
    "set_router(address)": "db11851e",
    "tokenBalance(address)": "eedc966a",
    "updateOffer((address,address,uint256,uint256,uint256,uint256,uint256,uint256))": "10aded60",
    "withdrawFromMangrove(uint256,address)": "7144df24",
    "withdrawToken(address,address,uint256)": "01e33667"
  },
  "id": 57
}