{
  "abi": [
    {
      "inputs": [
        {
          "internalType": "contract IMangrove",
          "name": "_MGV",
          "type": "address"
        },
        {
          "internalType": "address",
          "name": "deployer",
          "type": "address"
        }
      ],
      "stateMutability": "nonpayable",
      "type": "constructor"
    },
    {
      "anonymous": false,
      "inputs": [
        {
          "indexed": true,
          "internalType": "contract IMangrove",
          "name": "mangrove",
          "type": "address"
        },
        {
          "indexed": true,
          "internalType": "address",
          "name": "user",
          "type": "address"
        },
        {
          "indexed": false,
          "internalType": "uint256",
          "name": "amount",
          "type": "uint256"
        }
      ],
      "name": "CreditMgvUser",
      "type": "event"
    },
    {
      "anonymous": false,
      "inputs": [
        {
          "indexed": true,
          "internalType": "contract IMangrove",
          "name": "mangrove",
          "type": "address"
        },
        {
          "indexed": true,
          "internalType": "address",
          "name": "user",
          "type": "address"
        },
        {
          "indexed": false,
          "internalType": "uint256",
          "name": "amount",
          "type": "uint256"
        }
      ],
      "name": "DebitMgvUser",
      "type": "event"
    },
    {
      "anonymous": false,
      "inputs": [
        {
          "indexed": false,
          "internalType": "contract IMangrove",
          "name": "mangrove",
          "type": "address"
        },
        {
          "indexed": true,
          "internalType": "contract IERC20",
          "name": "outbound_tkn",
          "type": "address"
        },
        {
          "indexed": true,
          "internalType": "contract IERC20",
          "name": "inbound_tkn",
          "type": "address"
        },
        {
          "indexed": true,
          "internalType": "uint256",
          "name": "offerId",
          "type": "uint256"
        },
        {
          "indexed": false,
          "internalType": "bytes32",
          "name": "reason",
          "type": "bytes32"
        }
      ],
      "name": "LogIncident",
      "type": "event"
    },
    {
      "anonymous": false,
      "inputs": [
        {
          "indexed": false,
          "internalType": "contract IMangrove",
          "name": "mangrove",
          "type": "address"
        },
        {
          "indexed": true,
          "internalType": "contract IERC20",
          "name": "outbound_tkn",
          "type": "address"
        },
        {
          "indexed": true,
          "internalType": "contract IERC20",
          "name": "inbound_tkn",
          "type": "address"
        },
        {
          "indexed": true,
          "internalType": "uint256",
          "name": "offerId",
          "type": "uint256"
        },
        {
          "indexed": false,
          "internalType": "address",
          "name": "owner",
          "type": "address"
        }
      ],
      "name": "NewOwnedOffer",
      "type": "event"
    },
    {
      "anonymous": false,
      "inputs": [
        {
          "indexed": false,
          "internalType": "contract IMangrove",
          "name": "mangrove",
          "type": "address"
        },
        {
          "indexed": true,
          "internalType": "contract IERC20",
          "name": "base",
          "type": "address"
        },
        {
          "indexed": true,
          "internalType": "contract IERC20",
          "name": "quote",
          "type": "address"
        },
        {
          "indexed": true,
          "internalType": "address",
          "name": "taker",
          "type": "address"
        },
        {
          "indexed": false,
          "internalType": "bool",
          "name": "selling",
          "type": "bool"
        },
        {
          "indexed": false,
          "internalType": "uint256",
          "name": "takerGot",
          "type": "uint256"
        },
        {
          "indexed": false,
          "internalType": "uint256",
          "name": "takerGave",
          "type": "uint256"
        },
        {
          "indexed": false,
          "internalType": "uint256",
          "name": "penalty",
          "type": "uint256"
        },
        {
          "indexed": false,
          "internalType": "uint256",
          "name": "restingOrderId",
          "type": "uint256"
        }
      ],
      "name": "OrderSummary",
      "type": "event"
    },
    {
      "anonymous": false,
      "inputs": [
        {
          "indexed": false,
          "internalType": "uint256",
          "name": "",
          "type": "uint256"
        }
      ],
      "name": "SetGasreq",
      "type": "event"
    },
    {
      "anonymous": false,
      "inputs": [
        {
          "indexed": false,
          "internalType": "contract AbstractRouter",
          "name": "",
          "type": "address"
        }
      ],
      "name": "SetRouter",
      "type": "event"
    },
    {
      "inputs": [],
      "name": "MGV",
      "outputs": [
        {
          "internalType": "contract IMangrove",
          "name": "",
          "type": "address"
        }
      ],
      "stateMutability": "view",
      "type": "function"
    },
    {
      "inputs": [
        {
          "internalType": "contract IERC20[]",
          "name": "tokens",
          "type": "address[]"
        }
      ],
      "name": "activate",
      "outputs": [],
      "stateMutability": "nonpayable",
      "type": "function"
    },
    {
      "inputs": [],
      "name": "admin",
      "outputs": [
        {
          "internalType": "address",
          "name": "",
          "type": "address"
        }
      ],
      "stateMutability": "view",
      "type": "function"
    },
    {
      "inputs": [
        {
          "internalType": "contract IERC20",
          "name": "outbound_tkn",
          "type": "address"
        }
      ],
      "name": "approveMangrove",
      "outputs": [],
      "stateMutability": "nonpayable",
      "type": "function"
    },
    {
      "inputs": [
        {
          "internalType": "contract IERC20",
          "name": "token",
          "type": "address"
        }
      ],
      "name": "approveRouter",
      "outputs": [],
      "stateMutability": "nonpayable",
      "type": "function"
    },
    {
      "inputs": [
        {
          "internalType": "contract IERC20[]",
          "name": "tokens",
          "type": "address[]"
        }
      ],
      "name": "checkList",
      "outputs": [],
      "stateMutability": "view",
      "type": "function"
    },
    {
      "inputs": [
        {
          "internalType": "contract IERC20",
          "name": "",
          "type": "address"
        },
        {
          "internalType": "contract IERC20",
          "name": "",
          "type": "address"
        },
        {
          "internalType": "uint256",
          "name": "",
          "type": "uint256"
        }
      ],
      "name": "expiring",
      "outputs": [
        {
          "internalType": "uint256",
          "name": "",
          "type": "uint256"
        }
      ],
      "stateMutability": "view",
      "type": "function"
    },
    {
      "inputs": [
        {
          "internalType": "contract IERC20",
          "name": "outbound_tkn",
          "type": "address"
        },
        {
          "internalType": "contract IERC20",
          "name": "inbound_tkn",
          "type": "address"
        },
        {
          "internalType": "uint256",
          "name": "gasreq",
          "type": "uint256"
        },
        {
          "internalType": "uint256",
          "name": "gasprice",
          "type": "uint256"
        },
        {
          "internalType": "uint256",
          "name": "offerId",
          "type": "uint256"
        }
      ],
      "name": "getMissingProvision",
      "outputs": [
        {
          "internalType": "uint256",
          "name": "",
          "type": "uint256"
        }
      ],
      "stateMutability": "view",
      "type": "function"
    },
    {
      "inputs": [],
      "name": "has_router",
      "outputs": [
        {
          "internalType": "bool",
          "name": "",
          "type": "bool"
        }
      ],
      "stateMutability": "view",
      "type": "function"
    },
    {
      "inputs": [
        {
          "components": [
            {
              "internalType": "address",
              "name": "outbound_tkn",
              "type": "address"
            },
            {
              "internalType": "address",
              "name": "inbound_tkn",
              "type": "address"
            },
            {
              "internalType": "uint256",
              "name": "offerId",
              "type": "uint256"
            },
            {
              "internalType": "t",
              "name": "offer",
              "type": "uint256"
            },
            {
              "internalType": "uint256",
              "name": "wants",
              "type": "uint256"
            },
            {
              "internalType": "uint256",
              "name": "gives",
              "type": "uint256"
            },
            {
              "internalType": "t",
              "name": "offerDetail",
              "type": "uint256"
            },
            {
              "internalType": "t",
              "name": "global",
              "type": "uint256"
            },
            {
              "internalType": "t",
              "name": "local",
              "type": "uint256"
            }
          ],
          "internalType": "struct MgvLib.SingleOrder",
          "name": "order",
          "type": "tuple"
        }
      ],
      "name": "makerExecute",
      "outputs": [
        {
          "internalType": "bytes32",
          "name": "ret",
          "type": "bytes32"
        }
      ],
      "stateMutability": "nonpayable",
      "type": "function"
    },
    {
      "inputs": [
        {
          "components": [
            {
              "internalType": "address",
              "name": "outbound_tkn",
              "type": "address"
            },
            {
              "internalType": "address",
              "name": "inbound_tkn",
              "type": "address"
            },
            {
              "internalType": "uint256",
              "name": "offerId",
              "type": "uint256"
            },
            {
              "internalType": "t",
              "name": "offer",
              "type": "uint256"
            },
            {
              "internalType": "uint256",
              "name": "wants",
              "type": "uint256"
            },
            {
              "internalType": "uint256",
              "name": "gives",
              "type": "uint256"
            },
            {
              "internalType": "t",
              "name": "offerDetail",
              "type": "uint256"
            },
            {
              "internalType": "t",
              "name": "global",
              "type": "uint256"
            },
            {
              "internalType": "t",
              "name": "local",
              "type": "uint256"
            }
          ],
          "internalType": "struct MgvLib.SingleOrder",
          "name": "order",
          "type": "tuple"
        },
        {
          "components": [
            {
              "internalType": "bytes32",
              "name": "makerData",
              "type": "bytes32"
            },
            {
              "internalType": "bytes32",
              "name": "mgvData",
              "type": "bytes32"
            }
          ],
          "internalType": "struct MgvLib.OrderResult",
          "name": "result",
          "type": "tuple"
        }
      ],
      "name": "makerPosthook",
      "outputs": [],
      "stateMutability": "nonpayable",
      "type": "function"
    },
    {
      "inputs": [
        {
          "components": [
            {
              "internalType": "contract IERC20",
              "name": "outbound_tkn",
              "type": "address"
            },
            {
              "internalType": "contract IERC20",
              "name": "inbound_tkn",
              "type": "address"
            },
            {
              "internalType": "uint256",
              "name": "wants",
              "type": "uint256"
            },
            {
              "internalType": "uint256",
              "name": "gives",
              "type": "uint256"
            },
            {
              "internalType": "uint256",
              "name": "gasreq",
              "type": "uint256"
            },
            {
              "internalType": "uint256",
              "name": "gasprice",
              "type": "uint256"
            },
            {
              "internalType": "uint256",
              "name": "pivotId",
              "type": "uint256"
            },
            {
              "internalType": "uint256",
              "name": "offerId",
              "type": "uint256"
            }
          ],
          "internalType": "struct IOfferLogic.MakerOrder",
          "name": "mko",
          "type": "tuple"
        }
      ],
      "name": "newOffer",
      "outputs": [
        {
          "internalType": "uint256",
          "name": "offerId",
          "type": "uint256"
        }
      ],
      "stateMutability": "payable",
      "type": "function"
    },
    {
      "inputs": [
        {
          "internalType": "contract IERC20",
          "name": "outbound_tkn",
          "type": "address"
        },
        {
          "internalType": "contract IERC20",
          "name": "inbound_tkn",
          "type": "address"
        },
        {
          "internalType": "uint256[]",
          "name": "offerIds",
          "type": "uint256[]"
        }
      ],
      "name": "offerOwners",
      "outputs": [
        {
          "internalType": "address[]",
          "name": "_offerOwners",
          "type": "address[]"
        }
      ],
      "stateMutability": "view",
      "type": "function"
    },
    {
      "inputs": [
        {
          "internalType": "address",
          "name": "owner",
          "type": "address"
        },
        {
          "internalType": "contract IERC20",
          "name": "outbound_tkn",
          "type": "address"
        },
        {
          "internalType": "contract IERC20",
          "name": "inbound_tkn",
          "type": "address"
        }
      ],
      "name": "offersOfOwner",
      "outputs": [
        {
          "internalType": "uint256[]",
          "name": "live",
          "type": "uint256[]"
        },
        {
          "internalType": "uint256[]",
          "name": "dead",
          "type": "uint256[]"
        }
      ],
      "stateMutability": "view",
      "type": "function"
    },
    {
      "inputs": [],
      "name": "ofr_gasreq",
      "outputs": [
        {
          "internalType": "uint256",
          "name": "",
          "type": "uint256"
        }
      ],
      "stateMutability": "view",
      "type": "function"
    },
    {
      "inputs": [
        {
          "internalType": "contract IERC20",
          "name": "outbound_tkn",
          "type": "address"
        },
        {
          "internalType": "contract IERC20",
          "name": "inbound_tkn",
          "type": "address"
        },
        {
          "internalType": "uint256",
          "name": "offerId",
          "type": "uint256"
        }
      ],
      "name": "ownerOf",
      "outputs": [
        {
          "internalType": "address",
          "name": "owner",
          "type": "address"
        }
      ],
      "stateMutability": "view",
      "type": "function"
    },
    {
      "inputs": [],
      "name": "reserve",
      "outputs": [
        {
          "internalType": "address",
          "name": "",
          "type": "address"
        }
      ],
      "stateMutability": "view",
      "type": "function"
    },
    {
      "inputs": [
        {
          "internalType": "contract IERC20",
          "name": "outbound_tkn",
          "type": "address"
        },
        {
          "internalType": "contract IERC20",
          "name": "inbound_tkn",
          "type": "address"
        },
        {
          "internalType": "uint256",
          "name": "offerId",
          "type": "uint256"
        },
        {
          "internalType": "bool",
          "name": "deprovision",
          "type": "bool"
        }
      ],
      "name": "retractOffer",
      "outputs": [
        {
          "internalType": "uint256",
          "name": "free_wei",
          "type": "uint256"
        }
      ],
      "stateMutability": "nonpayable",
      "type": "function"
    },
    {
      "inputs": [],
      "name": "router",
      "outputs": [
        {
          "internalType": "contract AbstractRouter",
          "name": "",
          "type": "address"
        }
      ],
      "stateMutability": "view",
      "type": "function"
    },
    {
      "inputs": [
        {
          "internalType": "address",
          "name": "_admin",
          "type": "address"
        }
      ],
      "name": "set_admin",
      "outputs": [],
      "stateMutability": "nonpayable",
      "type": "function"
    },
    {
      "inputs": [
        {
          "internalType": "uint256",
          "name": "gasreq",
          "type": "uint256"
        }
      ],
      "name": "set_gasreq",
      "outputs": [],
      "stateMutability": "nonpayable",
      "type": "function"
    },
    {
      "inputs": [
        {
          "internalType": "address",
          "name": "__reserve",
          "type": "address"
        }
      ],
      "name": "set_reserve",
      "outputs": [],
      "stateMutability": "nonpayable",
      "type": "function"
    },
    {
      "inputs": [
        {
          "internalType": "contract AbstractRouter",
          "name": "router_",
          "type": "address"
        }
      ],
      "name": "set_router",
      "outputs": [],
      "stateMutability": "nonpayable",
      "type": "function"
    },
    {
      "inputs": [
        {
          "components": [
            {
              "internalType": "contract IERC20",
              "name": "base",
              "type": "address"
            },
            {
              "internalType": "contract IERC20",
              "name": "quote",
              "type": "address"
            },
            {
              "internalType": "bool",
              "name": "partialFillNotAllowed",
              "type": "bool"
            },
            {
              "internalType": "bool",
              "name": "selling",
              "type": "bool"
            },
            {
              "internalType": "uint256",
              "name": "wants",
              "type": "uint256"
            },
            {
              "internalType": "uint256",
              "name": "makerWants",
              "type": "uint256"
            },
            {
              "internalType": "uint256",
              "name": "gives",
              "type": "uint256"
            },
            {
              "internalType": "uint256",
              "name": "makerGives",
              "type": "uint256"
            },
            {
              "internalType": "bool",
              "name": "restingOrder",
              "type": "bool"
            },
            {
              "internalType": "uint256",
              "name": "retryNumber",
              "type": "uint256"
            },
            {
              "internalType": "uint256",
              "name": "gasForMarketOrder",
              "type": "uint256"
            },
            {
              "internalType": "uint256",
              "name": "blocksToLiveForRestingOrder",
              "type": "uint256"
            }
          ],
          "internalType": "struct IOrderLogic.TakerOrder",
          "name": "tko",
          "type": "tuple"
        }
      ],
      "name": "take",
      "outputs": [
        {
          "components": [
            {
              "internalType": "uint256",
              "name": "takerGot",
              "type": "uint256"
            },
            {
              "internalType": "uint256",
              "name": "takerGave",
              "type": "uint256"
            },
            {
              "internalType": "uint256",
              "name": "bounty",
              "type": "uint256"
            },
            {
              "internalType": "uint256",
              "name": "fee",
              "type": "uint256"
            },
            {
              "internalType": "uint256",
              "name": "offerId",
              "type": "uint256"
            }
          ],
          "internalType": "struct IOrderLogic.TakerOrderResult",
          "name": "res",
          "type": "tuple"
        }
      ],
      "stateMutability": "payable",
      "type": "function"
    },
    {
      "inputs": [
        {
          "internalType": "contract IERC20",
          "name": "token",
          "type": "address"
        }
      ],
      "name": "tokenBalance",
      "outputs": [
        {
          "internalType": "uint256",
          "name": "",
          "type": "uint256"
        }
      ],
      "stateMutability": "view",
      "type": "function"
    },
    {
      "inputs": [
        {
          "components": [
            {
              "internalType": "contract IERC20",
              "name": "outbound_tkn",
              "type": "address"
            },
            {
              "internalType": "contract IERC20",
              "name": "inbound_tkn",
              "type": "address"
            },
            {
              "internalType": "uint256",
              "name": "wants",
              "type": "uint256"
            },
            {
              "internalType": "uint256",
              "name": "gives",
              "type": "uint256"
            },
            {
              "internalType": "uint256",
              "name": "gasreq",
              "type": "uint256"
            },
            {
              "internalType": "uint256",
              "name": "gasprice",
              "type": "uint256"
            },
            {
              "internalType": "uint256",
              "name": "pivotId",
              "type": "uint256"
            },
            {
              "internalType": "uint256",
              "name": "offerId",
              "type": "uint256"
            }
          ],
          "internalType": "struct IOfferLogic.MakerOrder",
          "name": "mko",
          "type": "tuple"
        }
      ],
      "name": "updateOffer",
      "outputs": [],
      "stateMutability": "payable",
      "type": "function"
    },
    {
      "inputs": [
        {
          "internalType": "uint256",
          "name": "amount",
          "type": "uint256"
        },
        {
          "internalType": "address payable",
          "name": "receiver",
          "type": "address"
        }
      ],
      "name": "withdrawFromMangrove",
      "outputs": [],
      "stateMutability": "nonpayable",
      "type": "function"
    },
    {
      "inputs": [
        {
          "internalType": "contract IERC20",
          "name": "token",
          "type": "address"
        },
        {
          "internalType": "address",
          "name": "receiver",
          "type": "address"
        },
        {
          "internalType": "uint256",
          "name": "amount",
          "type": "uint256"
        }
      ],
      "name": "withdrawToken",
      "outputs": [
        {
          "internalType": "bool",
          "name": "success",
          "type": "bool"
        }
      ],
      "stateMutability": "nonpayable",
      "type": "function"
    },
    {
      "stateMutability": "payable",
      "type": "receive"
    }
  ],
  "bytecode": {
    "object": "0x60a06040523480156200001157600080fd5b5060405162005b1c38038062005b1c833981016040819052620000349162000612565b8181816040516200004590620005eb565b604051809103906000f08015801562000062573d6000803e3d6000fd5b5062015f9082828282813380620000c05760405162461bcd60e51b815260206004820152601860248201527f616363657373436f6e74726f6c6c65642f307841646d696e000000000000000060448201526064015b60405180910390fd5b80620000d66200026960201b6200292b1760201c565b80546001600160a01b0319166001600160a01b03929092169190911790555062ffffff811681146200014b5760405162461bcd60e51b815260206004820152601b60248201527f4d616e67726f76654f666665722f676173726571546f6f4869676800000000006044820152606401620000b7565b6001600160a01b038216608052806200016f6200028d602090811b6200294f17901c565b5550506001600160a01b038216620001bf5760405162461bcd60e51b815260206004820152601260248201527126bab63a34aab9b2b917983c2937baba32b960711b6044820152606401620000b7565b620001ca82620002b1565b505050505050336001600160a01b0316816001600160a01b0316146200025f57620001f5816200045b565b620001ff62000556565b60405163e9333fab60e01b81526001600160a01b038381166004830152919091169063e9333fab90602401600060405180830381600087803b1580156200024557600080fd5b505af11580156200025a573d6000803e3d6000fd5b505050505b5050505062000651565b7f7d382ebca3e46505071795e192d28166a3d4bd0685585591bc6c5b8df6769fd290565b7fae7e31c3220e851db9f204a28b279dfe52b973600b0a456991089c220ae7222490565b620002bb620005c5565b6001600160a01b0316336001600160a01b03161480620002ee57506080516001600160a01b0316336001600160a01b0316145b6200033c5760405162461bcd60e51b815260206004820152601860248201527f416363657373436f6e74726f6c6c65642f496e76616c696400000000000000006044820152606401620000b7565b6001600160a01b038116620003945760405162461bcd60e51b815260206004820152601c60248201527f6d67764f666665722f7365745f726f757465722f3078526f75746572000000006044820152606401620000b7565b80620003aa6200028d60201b6200294f1760201c565b60010180546001600160a01b0319166001600160a01b039283161790556040516381bac14f60e01b8152306004820152908216906381bac14f90602401600060405180830381600087803b1580156200040257600080fd5b505af115801562000417573d6000803e3d6000fd5b50506040516001600160a01b03841681527f6de4326a8b9054d72d9dbab97d27bc4edffadee7d966f5af9cc4eafdaf8e54559250602001905060405180910390a150565b62000465620005c5565b6001600160a01b0316336001600160a01b031614620004c75760405162461bcd60e51b815260206004820152601860248201527f416363657373436f6e74726f6c6c65642f496e76616c696400000000000000006044820152606401620000b7565b6001600160a01b0381166200051f5760405162461bcd60e51b815260206004820152601860248201527f416363657373436f6e74726f6c6c65642f307841646d696e00000000000000006044820152606401620000b7565b80620005356200026960201b6200292b1760201c565b80546001600160a01b0319166001600160a01b039290921691909117905550565b6000806200056e6200028d60201b6200294f1760201c565b600101546001600160a01b0316905080620005c05760405162461bcd60e51b815260206004820152601160248201527036b3bb27b33332b917983c2937baba32b960791b6044820152606401620000b7565b919050565b6000620005dc6200026960201b6200292b1760201c565b546001600160a01b0316919050565b6110048062004b1883390190565b6001600160a01b03811681146200060f57600080fd5b50565b600080604083850312156200062657600080fd5b82516200063381620005f9565b60208401519092506200064681620005f9565b809150509250929050565b6080516143e762000731600039600081816103da015281816107cb015281816109c401528181610b6701528181610c2501528181610ee10152818161125c015281816116d40152818161175a01528181611919015281816119ab01528181611b6801528181611c9001528181611d4b01528181611df0015281816120a0015281816122ac01528181612338015281816124980152818161285f01528181612a7e01528181612b0701528181612b9901528181612e2201528181612fe1015281816132fd0152818161341f015281816139850152613c4801526143e76000f3fe6080604052600436106101bb5760003560e01c80639f2211cb116100ec578063e9333fab1161008a578063f851a44011610064578063f851a4401461054b578063f887ea4014610560578063f92495e514610575578063fc488a381461059557600080fd5b8063e9333fab146104eb578063eedc966a1461050b578063f259cd271461052b57600080fd5b8063d1baa1ef116100c6578063d1baa1ef14610469578063db11851e1461047e578063dec8c86b1461049e578063e4c34f84146104cb57600080fd5b80639f2211cb14610414578063ad97db1b14610434578063cd3293de1461045457600080fd5b80635293840d116101595780636c49c32c116101335780636c49c32c146103735780637144df241461039357806384b627f9146103b357806399fa5e2d146103c857600080fd5b80635293840d146102eb5780635486c95f1461030b5780636a1c7d051461031e57600080fd5b806337b966bf1161019557806337b966bf146102315780633d3d130d1461025f5780633d77fcde1461027f5780634e7effa81461029f57600080fd5b806301e33667146101c757806303eb17e2146101fc57806310aded601461021e57600080fd5b366101c257005b600080fd5b3480156101d357600080fd5b506101e76101e2366004613cda565b6105b5565b60405190151581526020015b60405180910390f35b34801561020857600080fd5b5061021c610217366004613d67565b6106c7565b005b61021c61022c366004613da9565b610718565b34801561023d57600080fd5b5061025161024c366004613dbc565b61077f565b6040516101f3929190613e42565b34801561026b57600080fd5b5061021c61027a366004613e83565b610b65565b34801561028b57600080fd5b5061021c61029a366004613ec6565b610c89565b3480156102ab57600080fd5b506102dd6102ba366004613cda565b600160209081526000938452604080852082529284528284209052825290205481565b6040519081526020016101f3565b3480156102f757600080fd5b5061021c610306366004613d67565b610c93565b6102dd610319366004613da9565b610d17565b61033161032c366004613ee3565b610d38565b6040516101f39190600060a082019050825182526020830151602083015260408301516040830152606083015160608301526080830151608083015292915050565b34801561037f57600080fd5b506102dd61038e366004613ef6565b611756565b34801561039f57600080fd5b5061021c6103ae366004613f13565b6118c3565b3480156103bf57600080fd5b506101e7611b32565b3480156103d457600080fd5b506103fc7f000000000000000000000000000000000000000000000000000000000000000081565b6040516001600160a01b0390911681526020016101f3565b34801561042057600080fd5b5061021c61042f366004613ec6565b611b51565b34801561044057600080fd5b506102dd61044f366004613f51565b611c31565b34801561046057600080fd5b506103fc611faa565b34801561047557600080fd5b506102dd611fd5565b34801561048a57600080fd5b5061021c610499366004613ec6565b612073565b3480156104aa57600080fd5b506104be6104b9366004613fa4565b6121ed565b6040516101f39190614009565b3480156104d757600080fd5b506102dd6104e6366004614056565b61229e565b3480156104f757600080fd5b5061021c610506366004613ec6565b61253a565b34801561051757600080fd5b506102dd610526366004613ec6565b6125f2565b34801561053757600080fd5b5061021c610546366004613ec6565b612671565b34801561055757600080fd5b506103fc612746565b34801561056c57600080fd5b506103fc61275f565b34801561058157600080fd5b506103fc610590366004613cda565b6127bf565b3480156105a157600080fd5b5061021c6105b03660046140a7565b612832565b60006001600160a01b03831661061d5760405162461bcd60e51b815260206004820152602260248201527f4d756c7469557365722f7769746864726177546f6b656e2f307852656365697660448201526132b960f11b60648201526084015b60405180910390fd5b61062561275f565b6001600160a01b03166321754d9e8561063c611faa565b6040516001600160e01b031960e085901b1681526001600160a01b03928316600482015290821660248201529086166044820152606481018590526084016020604051808303816000875af1158015610699573d6000803e3d6000fd5b505050506040513d601f19601f820116820180604052508101906106bd91906140c0565b90505b9392505050565b60005b81811015610713576107018383838181106106e7576106e76140dd565b90506020020160208101906106fc9190613ec6565b612973565b8061070b81614109565b9150506106ca565b505050565b61073061072a36839003830183614138565b346129e8565b61077c5760405162461bcd60e51b815260206004820152601960248201527f4d756c7469557365722f7570646174654f666665724661696c000000000000006044820152606401610614565b50565b6001600160a01b0380831660009081526002602090815260408083208585168452825280832093871683529281528282208280529052908120546060918291908190805b8215610926577f00000000000000000000000000000000000000000000000000000000000000006001600160a01b03166327507458816368c13d6b8b8b886040518463ffffffff1660e01b815260040161081f939291906141e4565b602060405180830381865afa15801561083c573d6000803e3d6000fd5b505050506040513d601f19601f820116820180604052508101906108609190614208565b6040518263ffffffff1660e01b815260040161087e91815260200190565b602060405180830381865afa15801561089b573d6000803e3d6000fd5b505050506040513d601f19601f820116820180604052508101906108bf91906140c0565b156108d657816108ce81614109565b9250506108e4565b806108e081614109565b9150505b6001600160a01b0380891660009081526002602090815260408083208b851684528252808320938d1683529281528282209582529490945290922054916107c3565b8167ffffffffffffffff81111561093f5761093f614122565b604051908082528060200260200182016040528015610968578160200160208202803683370190505b5095508067ffffffffffffffff81111561098457610984614122565b6040519080825280602002602001820160405280156109ad578160200160208202803683370190505b50945083925060009150600090505b8215610b59577f00000000000000000000000000000000000000000000000000000000000000006001600160a01b03166327507458816368c13d6b8b8b886040518463ffffffff1660e01b8152600401610a18939291906141e4565b602060405180830381865afa158015610a35573d6000803e3d6000fd5b505050506040513d601f19601f82011682018060405250810190610a599190614208565b6040518263ffffffff1660e01b8152600401610a7791815260200190565b602060405180830381865afa158015610a94573d6000803e3d6000fd5b505050506040513d601f19601f82011682018060405250810190610ab891906140c0565b15610aec57828683610ac981614109565b945081518110610adb57610adb6140dd565b602002602001018181525050610b17565b828582610af881614109565b935081518110610b0a57610b0a6140dd565b6020026020010181815250505b6001600160a01b0380891660009081526002602090815260408083208b851684528252808320938d1683529281528282209582529490945290922054916109bc565b50505050935093915050565b7f00000000000000000000000000000000000000000000000000000000000000006001600160a01b0381161580610ba45750336001600160a01b038216145b610bc05760405162461bcd60e51b815260040161061490614221565b81602001356f6d67762f74726164655375636365737360801b03610bed57610be783612f25565b50505050565b60408301803590610c019060208601613ec6565b6001600160a01b0316610c176020860186613ec6565b604080516001600160a01b037f0000000000000000000000000000000000000000000000000000000000000000811682528735602083015292909216917f736a3993b9f8b1c5603896c76376792887f376b1fe7fc981e09a16530bf1e4e0910160405180910390a4610be78383612f63565b61077c33826131c7565b610c9b612746565b6001600160a01b0316336001600160a01b031614610ccb5760405162461bcd60e51b815260040161061490614221565b60005b8181101561071357610d05838383818110610ceb57610ceb6140dd565b9050602002016020810190610d009190613ec6565b613251565b80610d0f81614109565b915050610cce565b6000610d32610d2b36849003840184614138565b33346132d8565b92915050565b610d6a6040518060a0016040528060008152602001600081526020016000815260200160008152602001600081525090565b600080610d7d6080850160608601614258565b610da357610d8e6020850185613ec6565b610d9e6040860160208701613ec6565b610dc0565b610db36040850160208601613ec6565b610dc06020860186613ec6565b915091506000610dce61275f565b6001600160a01b031663333dbb0d83338860c0013560016040518563ffffffff1660e01b8152600401610e049493929190614275565b6020604051808303816000875af1158015610e23573d6000803e3d6000fd5b505050506040513d601f19601f82011682018060405250810190610e479190614208565b90508460c001358114610e9c5760405162461bcd60e51b815260206004820152601a60248201527f6d67764f726465722f6d6f2f7472616e73666572496e4661696c0000000000006044820152606401610614565b60005b610eaf610120870135600161429e565b81101561104d5761014086013515801590610ece57508561014001355a105b61104d5760008080806001600160a01b037f00000000000000000000000000000000000000000000000000000000000000001663fbffe5fd89898d608001358e60c001358f6060016020810190610f259190614258565b610f30576001610f33565b60005b6040516001600160e01b031960e088901b1681526001600160a01b039586166004820152949093166024850152604484019190915260648301521515608482015260a4016080604051808303816000875af1158015610f96573d6000803e3d6000fd5b505050506040513d601f19601f82011682018060405250810190610fba91906142b6565b93509350935093508389600001818151610fd4919061429e565b905250602089018051849190610feb90839061429e565b90525060408901805183919061100290839061429e565b90525060608901805182919061101990839061429e565b90525083158015611028575081155b15611036575050505061104d565b50505050808061104590614109565b915050610e9f565b50600061105a868661353b565b905061106c6060870160408801614258565b15806110755750805b8061108d575061108d61012087016101008801614258565b6110d55760405162461bcd60e51b81526020600482015260196024820152781b59dd93dc99195c8bdb5bcbdb9bd4185c9d1a585b119a5b1b603a1b6044820152606401610614565b845115611149576110e461275f565b855160405163137476d160e11b81526001600160a01b0392909216916326e8eda29161111691889133916004016141e4565b600060405180830381600087803b15801561113057600080fd5b505af1158015611144573d6000803e3d6000fd5b505050505b61115b61012087016101008801614258565b8015611165575080155b1561154c5760408051610100810182526001600160a01b03808616825286166020820152606087015187516111f3938301916111a09161429e565b6111ae9060a08b01356142ec565b815260200187602001518960e001356111c791906142ec565b81526020016111d4611fd5565b81526020016000815260200160008152602001600081525033346132d8565b6080860181905261120990339085908790613584565b3361121a6040880160208901613ec6565b6001600160a01b03166112306020890189613ec6565b6001600160a01b03167f587734843819064f2153f96c808d1aeacaceccfa595ec4b9ed484c4bff687f7c7f000000000000000000000000000000000000000000000000000000000000000061128b60808c0160608d01614258565b8a5160208c01516040808e015160808f015191516112db9695949392906001600160a01b03969096168652931515602086015260408501929092526060840152608083015260a082015260c00190565b60405180910390a4846080015160000361147b576112ff6060870160408801614258565b156113485760405162461bcd60e51b81526020600482015260196024820152781b59dd93dc99195c8bdb5bcbdb9bd4185c9d1a585b119a5b1b603a1b6044820152606401610614565b611366833387602001518960c0013561136191906142ec565b613605565b6113b25760405162461bcd60e51b815260206004820152601a60248201527f6d67764f726465722f6d6f2f7472616e73666572496e4661696c0000000000006044820152606401610614565b60008560400151346113c4919061429e565b111561147257604085015160009033906113de903461429e565b604051600081818185875af1925050503d806000811461141a576040519150601f19603f3d011682016040523d82523d6000602084013e61141f565b606091505b50509050806114705760405162461bcd60e51b815260206004820152601f60248201527f6d67764f726465722f6d6f2f726566756e6450726f766973696f6e4661696c006044820152606401610614565b505b50505050919050565b61148361275f565b6001600160a01b03166326e8eda2843388602001518a60c001356114a791906142ec565b6040518463ffffffff1660e01b81526004016114c5939291906141e4565b600060405180830381600087803b1580156114df57600080fd5b505af11580156114f3573d6000803e3d6000fd5b5050505061016086013515611472576115116101608701354361429e565b6001600160a01b038085166000908152600160209081526040808320938916835292815282822060808a015183529052205550505050919050565b61155461275f565b6001600160a01b03166326e8eda2843388602001518a60c0013561157891906142ec565b6040518463ffffffff1660e01b8152600401611596939291906141e4565b600060405180830381600087803b1580156115b057600080fd5b505af11580156115c4573d6000803e3d6000fd5b5050505060008560400151346115da919061429e565b111561168157604085015160009033906115f4903461429e565b604051600081818185875af1925050503d8060008114611630576040519150601f19603f3d011682016040523d82523d6000602084013e611635565b606091505b505090508061167f5760405162461bcd60e51b81526020600482015260166024820152751b59dd93dc99195c8bdb5bcbdc99599d5b9911985a5b60521b6044820152606401610614565b505b336116926040880160208901613ec6565b6001600160a01b03166116a86020890189613ec6565b6001600160a01b03167f587734843819064f2153f96c808d1aeacaceccfa595ec4b9ed484c4bff687f7c7f000000000000000000000000000000000000000000000000000000000000000061170360808c0160608d01614258565b8a516020808d01516040808f015181516001600160a01b039097168752941515928601929092529084019190915260608301526080820152600060a082015260c00160405180910390a450505050919050565b60007f00000000000000000000000000000000000000000000000000000000000000006001600160a01b03811615806117975750336001600160a01b038216145b6117b35760405162461bcd60e51b815260040161061490614221565b6117bc836136fb565b6118015760405162461bcd60e51b81526020600482015260166024820152751b59dd93d999995c8bd8589bdc9d0bdc995b9959d95960521b6044820152606401610614565b60006118118460a0013585613780565b111561185f5760405162461bcd60e51b815260206004820152601860248201527f6d67764f666665722f61626f72742f7075744661696c656400000000000000006044820152606401610614565b600061186f84608001358561382e565b11156118bd5760405162461bcd60e51b815260206004820152601860248201527f6d67764f666665722f61626f72742f6765744661696c656400000000000000006044820152606401610614565b50919050565b6118cb612746565b6001600160a01b0316336001600160a01b0316146118fb5760405162461bcd60e51b815260040161061490614221565b6000198203611995576040516370a0823160e01b81523060048201527f00000000000000000000000000000000000000000000000000000000000000006001600160a01b0316906370a0823190602401602060405180830381865afa158015611968573d6000803e3d6000fd5b505050506040513d601f19601f8201168201806040525081019061198c9190614208565b91508115611b2e575b604051632e1a7d4d60e01b8152600481018390527f00000000000000000000000000000000000000000000000000000000000000006001600160a01b031690632e1a7d4d906024016020604051808303816000875af11580156119fc573d6000803e3d6000fd5b505050506040513d601f19601f82011682018060405250810190611a2091906140c0565b611a7a5760405162461bcd60e51b815260206004820152602560248201527f6d67764f666665722f776974686472617746726f6d4d67762f776974686472616044820152641dd1985a5b60da1b6064820152608401610614565b6000816001600160a01b03168360405160006040518083038185875af1925050503d8060008114611ac7576040519150601f19603f3d011682016040523d82523d6000602084013e611acc565b606091505b50509050806107135760405162461bcd60e51b815260206004820152602860248201527f6d67764f666665722f776974686472617746726f6d4d67762f70617961626c6560448201526710d85b1b11985a5b60c21b6064820152608401610614565b5050565b600080611b3d61294f565b600101546001600160a01b03161415919050565b60405163095ea7b360e01b81526001600160a01b037f000000000000000000000000000000000000000000000000000000000000000081166004830152600019602483015282169063095ea7b3906044016020604051808303816000875af1158015611bc1573d6000803e3d6000fd5b505050506040513d601f19601f82011682018060405250810190611be591906140c0565b61077c5760405162461bcd60e51b815260206004820152601d60248201527f6d67764f666665722f617070726f76654d616e67726f76652f4661696c0000006044820152606401610614565b6001600160a01b03848116600090815260208181526040808320878516845282528083208684528252808320815180830190925254938416808252600160a01b9094046001600160601b0316918101919091529091331480611cbb57507f00000000000000000000000000000000000000000000000000000000000000006001600160a01b031633145b611d075760405162461bcd60e51b815260206004820152601f60248201527f4d756c74692f726574726163744f666665722f756e617574686f72697a6564006044820152606401610614565b60208101516001600160601b031615611d3c5782611d26576000611d2c565b80602001515b6001600160601b03169150611dd4565b60405163ad97db1b60e01b81527f00000000000000000000000000000000000000000000000000000000000000006001600160a01b03169063ad97db1b90611d8e908990899089908990600401614275565b6020604051808303816000875af1158015611dad573d6000803e3d6000fd5b505050506040513d601f19601f82011682018060405250810190611dd19190614208565b91505b8115611fa157604051632e1a7d4d60e01b8152600481018390527f00000000000000000000000000000000000000000000000000000000000000006001600160a01b031690632e1a7d4d906024016020604051808303816000875af1158015611e41573d6000803e3d6000fd5b505050506040513d601f19601f82011682018060405250810190611e6591906140c0565b611eaa5760405162461bcd60e51b8152602060048201526016602482015275135d5b1d1a555cd95c8bddda5d1a191c985dd1985a5b60521b6044820152606401610614565b60408051808201825282516001600160a01b039081168252600060208084018281528b841683528282528583208b8516845282528583208a8452909152848220935190516001600160601b0316600160a01b0292169190911790915590513390849060006040518083038185875af1925050503d8060008114611f49576040519150601f19603f3d011682016040523d82523d6000602084013e611f4e565b606091505b5050905080611f9f5760405162461bcd60e51b815260206004820152601960248201527f4d756c7469557365722f7765695472616e736665724661696c000000000000006044820152606401610614565b505b50949350505050565b600080611fb63361392c565b90506001600160a01b03811615611fcd5780611fcf565b335b91505090565b6000611fdf611b32565b1561206557611fec61275f565b6001600160a01b0316630417ffda6040518163ffffffff1660e01b8152600401602060405180830381865afa158015612029573d6000803e3d6000fd5b505050506040513d601f19601f8201168201806040525081019061204d9190614208565b61205561294f565b54612060919061429e565b905090565b61206d61294f565b54919050565b61207b612746565b6001600160a01b0316336001600160a01b031614806120c25750336001600160a01b037f000000000000000000000000000000000000000000000000000000000000000016145b6120de5760405162461bcd60e51b815260040161061490614221565b6001600160a01b0381166121345760405162461bcd60e51b815260206004820152601c60248201527f6d67764f666665722f7365745f726f757465722f3078526f75746572000000006044820152606401610614565b8061213d61294f565b60010180546001600160a01b0319166001600160a01b039283161790556040516381bac14f60e01b8152306004820152908216906381bac14f90602401600060405180830381600087803b15801561219457600080fd5b505af11580156121a8573d6000803e3d6000fd5b50506040516001600160a01b03841681527f6de4326a8b9054d72d9dbab97d27bc4edffadee7d966f5af9cc4eafdaf8e5455925060200190505b60405180910390a150565b60608167ffffffffffffffff81111561220857612208614122565b604051908082528060200260200182016040528015612231578160200160208202803683370190505b50905060005b82811015611fa1576122628686868685818110612256576122566140dd565b905060200201356127bf565b828281518110612274576122746140dd565b6001600160a01b03909216602092830291909101909101528061229681614109565b915050612237565b600080806001600160a01b037f00000000000000000000000000000000000000000000000000000000000000001663cbf75c9a89896040518363ffffffff1660e01b81526004016122f0929190614303565b6040805180830381865afa15801561230c573d6000803e3d6000fd5b505050506040513d601f19601f82011682018060405250810190612330919061431d565b9150915060007f00000000000000000000000000000000000000000000000000000000000000006001600160a01b0316635722647b61236c8b90565b8a886040518463ffffffff1660e01b815260040161238c939291906141e4565b602060405180830381865afa1580156123a9573d6000803e3d6000fd5b505050506040513d601f19601f820116820180604052508101906123cd9190614208565b9050600086604085901c61ffff1611156123f0575061ffff604084901c166123f3565b50855b62ffffff881061240857612405611fd5565b97505b60008161241e62ffffff606087901c168b61429e565b6124289190614341565b61243690633b9aca00614341565b9050600061ffff602085901c1661245d62ffffff603087901c811690604888901c1661429e565b6124679190614341565b61247590633b9aca00614341565b6040516370a0823160e01b81523060048201529091506000906001600160a01b037f000000000000000000000000000000000000000000000000000000000000000016906370a0823190602401602060405180830381865afa1580156124df573d6000803e3d6000fd5b505050506040513d601f19601f820116820180604052508101906125039190614208565b61250d908361429e565b9050828110156125265761252181846142ec565b612529565b60005b9d9c50505050505050505050505050565b612542612746565b6001600160a01b0316336001600160a01b0316146125725760405162461bcd60e51b815260040161061490614221565b6001600160a01b0381166125c85760405162461bcd60e51b815260206004820152601860248201527f416363657373436f6e74726f6c6c65642f307841646d696e00000000000000006044820152606401610614565b806125d161292b565b80546001600160a01b0319166001600160a01b039290921691909117905550565b60006125fc61275f565b6001600160a01b03166305684fde83612613611faa565b6040518363ffffffff1660e01b8152600401612630929190614303565b602060405180830381865afa15801561264d573d6000803e3d6000fd5b505050506040513d601f19601f82011682018060405250810190610d329190614208565b806001600160a01b031663095ea7b361268861275f565b6040516001600160e01b031960e084901b1681526001600160a01b03909116600482015260001960248201526044016020604051808303816000875af11580156126d6573d6000803e3d6000fd5b505050506040513d601f19601f820116820180604052508101906126fa91906140c0565b61077c5760405162461bcd60e51b815260206004820152601b60248201527f6d67764f666665722f617070726f7665526f757465722f4661696c00000000006044820152606401610614565b600061275061292b565b546001600160a01b0316919050565b60008061276a61294f565b600101546001600160a01b03169050806127ba5760405162461bcd60e51b815260206004820152601160248201527036b3bb27b33332b917983c2937baba32b960791b6044820152606401610614565b919050565b6001600160a01b038084166000908152602081815260408083208685168452825280832085845290915290205416806106c05760405162461bcd60e51b815260206004820152601560248201527436bab63a34aab9b2b917bab735b7bbb727b33332b960591b6044820152606401610614565b61283a612746565b6001600160a01b0316336001600160a01b031614806128815750336001600160a01b037f000000000000000000000000000000000000000000000000000000000000000016145b61289d5760405162461bcd60e51b815260040161061490614221565b808162ffffff16146128f15760405162461bcd60e51b815260206004820152601860248201527f6d67764f666665722f6761737265712f6f766572666c6f7700000000000000006044820152606401610614565b806128fa61294f565b556040518181527fafef3ad374c0b972e3c793be825735801fa05cc4c67157d98d9a111b4027988d906020016121e2565b7f7d382ebca3e46505071795e192d28166a3d4bd0685585591bc6c5b8df6769fd290565b7fae7e31c3220e851db9f204a28b279dfe52b973600b0a456991089c220ae7222490565b61297b61275f565b6001600160a01b031663a01dccd882612992611faa565b6040518363ffffffff1660e01b81526004016129af929190614303565b60006040518083038186803b1580156129c757600080fd5b505afa1580156129db573d6000803e3d6000fd5b5050505061077c8161395c565b81516001600160a01b039081166000908152602081815260408083208287015185168452825280832060e0870151845282528083208151808301835290549485168152600160a01b9094046001600160601b031684830152805160808101825283815291820183905281018290526060810182905290919081516001600160a01b0316331480612aa05750336001600160a01b037f000000000000000000000000000000000000000000000000000000000000000016145b612aec5760405162461bcd60e51b815260206004820152601e60248201527f4d756c74692f7570646174654f666665722f756e617574686f72697a656400006044820152606401610614565b8451602086015160e0870151604051635722647b60e01b81527f00000000000000000000000000000000000000000000000000000000000000006001600160a01b031693635722647b93612b479391929091906004016141e4565b602060405180830381865afa158015612b64573d6000803e3d6000fd5b505050506040513d601f19601f82011682018060405250810190612b889190614208565b604082015284516001600160a01b037f0000000000000000000000000000000000000000000000000000000000000000169063cbf75c9a9060208801516040518363ffffffff1660e01b8152600401612be2929190614303565b6040805180830381865afa158015612bfe573d6000803e3d6000fd5b505050506040513d601f19601f82011682018060405250810190612c22919061431d565b6020830152815260608101849052608085015162ffffff10612c48578460800151612c50565b612c50611fd5565b6080860152604081015160201c61ffff1660a08601819052600003612d325760208201516001600160601b031615612d085781602001516001600160601b031681606001818151612ca1919061429e565b90525060408051808201825283516001600160a01b039081168252600060208084018281528a51841683528282528583208b83015185168452825285832060e08c01518452909152939020915192516001600160601b0316600160a01b0292169190911790555b60808501516060808301516020840151612d2893921c62ffffff16613a4a565b60a0860152612db3565b8315612db357602081015160601c62ffffff16604082015160481c62ffffff16612d5c919061429e565b60a0860151612d6f90633b9aca00614341565b612d799190614341565b81606001818151612d8a919061429e565b90525060808501516060808301516020840151612dad93921c62ffffff16613a4a565b60a08601525b805160401c61ffff168560a001511015612e205760405162461bcd60e51b815260206004820152602860248201527f4d756c7469557365722f7570646174654f666665722f4e6f74456e6f756768506044820152673937bb34b9b4b7b760c11b6064820152608401610614565b7f00000000000000000000000000000000000000000000000000000000000000006001600160a01b0316636a4f769185612e5b886000015190565b602089015189604001518a606001518b608001518c60a001518d60c001518e60e001516040518a63ffffffff1660e01b8152600401612ee09897969594939291906001600160a01b03988916815296909716602087015260408601949094526060850192909252608084015260a083015260c082015260e08101919091526101000190565b6000604051808303818588803b158015612ef957600080fd5b505af193505050508015612f0b575060015b612f1a57600092505050610d32565b506001949350505050565b6000612f3082613ae5565b9050806127ba576118bd612f476020840184613ec6565b612f576040850160208601613ec6565b84604001356001611c31565b600080612f736020850185613ec6565b90506000612f876040860160208701613ec6565b6001600160a01b03838116600090815260208181526040808320858516845282528083208a820135845282528083208151808301909252548085168252600160a01b90046001600160601b031681830152939450909182917f00000000000000000000000000000000000000000000000000000000000000009091169063cbf75c9a90613016908b018b613ec6565b61302660408c0160208d01613ec6565b6040518363ffffffff1660e01b8152600401613043929190614303565b6040805180830381865afa15801561305f573d6000803e3d6000fd5b505050506040513d601f19601f82011682018060405250810190613083919061431d565b909250905060006130a061ffff604085901c16633b9aca00614341565b9050600060c08a013560301c62ffffff1660c08b013560481c62ffffff166130c8919061429e565b6130e161ffff60c08d013560201c16633b9aca00614341565b6130eb9190614341565b9050600082606085901c62ffffff165a60c08e013560481c62ffffff1661311291906142ec565b61311e90610bb861429e565b613128919061429e565b6131329190614341565b905060008282101561314d5761314882846142ec565b613150565b60005b60408051808201825298516001600160a01b039081168a526001600160601b039283166020808c019182529c82166000908152808e528381209c831681529b8d52828c209f8301358c529e909b5290982096519b51909716600160a01b029a90971699909917909355506001979650505050505050565b6001600160a01b0381166132145760405162461bcd60e51b815260206004820152601460248201527353696e676c65557365722f30785265736572766560601b6044820152606401610614565b8061321d61294f565b6001600160a01b0393841660009081526002919091016020526040902080546001600160a01b031916919093161790915550565b61325a81611b51565b613262611b32565b1561077c5761327081612671565b61327861275f565b604051630716a76760e21b81526001600160a01b0383811660048301529190911690631c5a9d9c90602401600060405180830381600087803b1580156132bd57600080fd5b505af11580156132d1573d6000803e3d6000fd5b5050505050565b825160208401516040516365fbae4d60e11b8152600092839283926001600160a01b037f0000000000000000000000000000000000000000000000000000000000000000169263cbf75c9a9261333092600401614303565b6040805180830381865afa15801561334c573d6000803e3d6000fd5b505050506040513d601f19601f82011682018060405250810190613370919061431d565b9150915062ffffff801686608001511161338e578560800151613396565b613396611fd5565b608087018190526133b19085606084901c62ffffff16613a4a565b60a0870181905261ffff604084901c16111561341d5760405162461bcd60e51b815260206004820152602560248201527f4d756c7469557365722f6e65774f666665722f4e6f74456e6f75676850726f7660448201526434b9b4b7b760d91b6064820152608401610614565b7f00000000000000000000000000000000000000000000000000000000000000006001600160a01b03166349f6d2dc85613458896000015190565b60208a01518a604001518b606001518c608001518d60a001518e60c001516040518963ffffffff1660e01b81526004016134d197969594939291906001600160a01b03978816815295909616602086015260408501939093526060840191909152608083015260a082015260c081019190915260e00190565b60206040518083038185885af11580156134ef573d6000803e3d6000fd5b50505050506040513d601f19601f820116820180604052508101906135149190614208565b60e087018190528651602088015161352c9288613bbc565b50505060e08301519392505050565b600061354d6080840160608501614258565b15613565578260c00135826020015110159050610d32565b6060820151825160808501359161357b9161429e565b10159050610d32565b6001600160a01b03838116600090815260026020908152604080832086851684528252808320938816835292815282822082805290522080549082905580156132d1576001600160a01b0393841660009081526002602090815260408083209587168352948152848220969095168152948452828520918552925290912055565b600081158061361c57506001600160a01b03831630145b15613629575060016106c0565b604080516001600160a01b038581166024830152604480830186905283518084039091018152606490920183526020820180516001600160e01b031663a9059cbb60e01b17905291516000928392908816916136859190614360565b6000604051808303816000865af19150503d80600081146136c2576040519150601f19603f3d011682016040523d82523d6000602084013e6136c7565b606091505b50915091508180156136f15750805115806136f15750808060200190518101906136f191906140c0565b9695505050505050565b60008060018161370e6020860186613ec6565b6001600160a01b03166001600160a01b0316815260200190815260200160002060008460200160208101906137439190613ec6565b6001600160a01b031681526020808201929092526040908101600090812086830135825290925290205490508015806106c0575043111592915050565b6000806137906020840184613ec6565b905060006137a46040850160208601613ec6565b905060006137b7838387604001356127bf565b90506137c161275f565b6001600160a01b03166326e8eda28383896040518463ffffffff1660e01b81526004016137f0939291906141e4565b600060405180830381600087803b15801561380a57600080fd5b505af115801561381e573d6000803e3d6000fd5b5060009998505050505050505050565b60008061383e6020840184613ec6565b905060006138526040850160208601613ec6565b90506000613865838387604001356127bf565b905060006138728261392c565b9050600061387e61275f565b6001600160a01b031663333dbb0d8660006001600160a01b0316856001600160a01b0316146138ad57846138af565b855b8b60016040518563ffffffff1660e01b81526004016138d19493929190614275565b6020604051808303816000875af11580156138f0573d6000803e3d6000fd5b505050506040513d601f19601f820116820180604052508101906139149190614208565b905061392081896142ec565b98975050505050505050565b600061393661294f565b6001600160a01b0392831660009081526002919091016020526040902054909116919050565b604051636eb1769f60e11b81526000906001600160a01b0383169063dd62ed3e906139ad9030907f000000000000000000000000000000000000000000000000000000000000000090600401614303565b602060405180830381865afa1580156139ca573d6000803e3d6000fd5b505050506040513d601f19601f820116820180604052508101906139ee9190614208565b1161077c5760405162461bcd60e51b815260206004820152602660248201527f4d616e67726f76654f666665722f41646d696e4d757374417070726f76654d616044820152656e67726f766560d01b6064820152608401610614565b600080613a57858461429e565b613a6590633b9aca00614341565b905080841015613acc5760405162461bcd60e51b815260206004820152602c60248201527f4d756c7469557365722f6465726976655f67617370726963652f4e6f74456e6f60448201526b3ab3b4283937bb34b9b4b7b760a11b6064820152608401610614565b808481613adb57613adb61439b565b0495945050505050565b600080613af183613c7d565b90506000613afe84613c9d565b905081600003613b12575060019392505050565b604080516101008101909152613bb49080613b306020880188613ec6565b6001600160a01b03168152602001866020016020810190613b519190613ec6565b6001600160a01b03168152602081018490526040810185905260600160c087013560481c62ffffff16815260209081019060c0880135901c61ffff168152602001606087013560c01c63ffffffff168152602001866040013581525060006129e8565b949350505050565b6040805180820182526001600160a01b038084168252600060208084018281528984168084528383528684208a86168086529084528785208a865290935292869020945190516001600160601b0316600160a01b029316929092179092559151849291907f460a431c86ecaea27134277388c72021356689d9eb62c3b25a5e4a97da7a8a1490613c6f907f0000000000000000000000000000000000000000000000000000000000000000908790614303565b60405180910390a450505050565b600060808201356001600160601b036060840135165b610d3291906142ec565b600060a0820135606080840135901c6001600160601b0316613c93565b6001600160a01b038116811461077c57600080fd5b80356127ba81613cba565b600080600060608486031215613cef57600080fd5b8335613cfa81613cba565b92506020840135613d0a81613cba565b929592945050506040919091013590565b60008083601f840112613d2d57600080fd5b50813567ffffffffffffffff811115613d4557600080fd5b6020830191508360208260051b8501011115613d6057600080fd5b9250929050565b60008060208385031215613d7a57600080fd5b823567ffffffffffffffff811115613d9157600080fd5b613d9d85828601613d1b565b90969095509350505050565b600061010082840312156118bd57600080fd5b600080600060608486031215613dd157600080fd5b8335613ddc81613cba565b92506020840135613dec81613cba565b91506040840135613dfc81613cba565b809150509250925092565b600081518084526020808501945080840160005b83811015613e3757815187529582019590820190600101613e1b565b509495945050505050565b604081526000613e556040830185613e07565b8281036020840152613e678185613e07565b95945050505050565b600061012082840312156118bd57600080fd5b600080828403610160811215613e9857600080fd5b613ea28585613e70565b9250604061011f1982011215613eb757600080fd5b50610120830190509250929050565b600060208284031215613ed857600080fd5b81356106c081613cba565b600061018082840312156118bd57600080fd5b60006101208284031215613f0957600080fd5b6106c08383613e70565b60008060408385031215613f2657600080fd5b823591506020830135613f3881613cba565b809150509250929050565b801515811461077c57600080fd5b60008060008060808587031215613f6757600080fd5b8435613f7281613cba565b93506020850135613f8281613cba565b9250604085013591506060850135613f9981613f43565b939692955090935050565b60008060008060608587031215613fba57600080fd5b8435613fc581613cba565b93506020850135613fd581613cba565b9250604085013567ffffffffffffffff811115613ff157600080fd5b613ffd87828801613d1b565b95989497509550505050565b6020808252825182820181905260009190848201906040850190845b8181101561404a5783516001600160a01b031683529284019291840191600101614025565b50909695505050505050565b600080600080600060a0868803121561406e57600080fd5b853561407981613cba565b9450602086013561408981613cba565b94979496505050506040830135926060810135926080909101359150565b6000602082840312156140b957600080fd5b5035919050565b6000602082840312156140d257600080fd5b81516106c081613f43565b634e487b7160e01b600052603260045260246000fd5b634e487b7160e01b600052601160045260246000fd5b60006001820161411b5761411b6140f3565b5060010190565b634e487b7160e01b600052604160045260246000fd5b600061010080838503121561414c57600080fd5b6040519081019067ffffffffffffffff8211818310171561417d57634e487b7160e01b600052604160045260246000fd5b8160405261418a84613ccf565b815261419860208501613ccf565b602082015260408401356040820152606084013560608201526080840135608082015260a084013560a082015260c084013560c082015260e084013560e0820152809250505092915050565b6001600160a01b039384168152919092166020820152604081019190915260600190565b60006020828403121561421a57600080fd5b5051919050565b60208082526018908201527f416363657373436f6e74726f6c6c65642f496e76616c69640000000000000000604082015260600190565b60006020828403121561426a57600080fd5b81356106c081613f43565b6001600160a01b0394851681529290931660208301526040820152901515606082015260800190565b600082198211156142b1576142b16140f3565b500190565b600080600080608085870312156142cc57600080fd5b505082516020840151604085015160609095015191969095509092509050565b6000828210156142fe576142fe6140f3565b500390565b6001600160a01b0392831681529116602082015260400190565b6000806040838503121561433057600080fd5b505080516020909101519092909150565b600081600019048311821515161561435b5761435b6140f3565b500290565b6000825160005b818110156143815760208186018101518583015201614367565b81811115614390576000828501525b509190910192915050565b634e487b7160e01b600052601260045260246000fdfea26469706673582212201694372ebbc4f8919b0d241e46ec9bdaa1572265a4954ade8a5c7e2e743d1f1f64736f6c634300080e0033608060405234801561001057600080fd5b5061c35033806100675760405162461bcd60e51b815260206004820152601860248201527f616363657373436f6e74726f6c6c65642f307841646d696e000000000000000060448201526064015b60405180910390fd5b8061007a61010a60201b6107e51760201c565b80546001600160a01b0319166001600160a01b03929092169190911790555062ffffff811681146100ed5760405162461bcd60e51b815260206004820152601660248201527f526f757465722f6f76657268656164546f6f4869676800000000000000000000604482015260640161005e565b8061010061012e60201b6108091760201c565b6001015550610152565b7f7d382ebca3e46505071795e192d28166a3d4bd0685585591bc6c5b8df6769fd290565b7ff2910982afb88211fa9894801aaf0314409ca240a0a8904897b9f5ba323ca53390565b610ea3806101616000396000f3fe608060405234801561001057600080fd5b50600436106100cf5760003560e01c8063362aecb11161008c578063cf5e7bd311610066578063cf5e7bd314610199578063e9333fab146101ac578063f850a81c146101bf578063f851a440146101d257600080fd5b8063362aecb11461016057806381bac14f14610173578063a01dccd81461018657600080fd5b80630417ffda146100d457806305684fde146100ef5780631c5a9d9c1461010257806321754d9e1461011757806326e8eda21461013a578063333dbb0d1461014d575b600080fd5b6100dc6101f2565b6040519081526020015b60405180910390f35b6100dc6100fd366004610bc3565b610205565b610115610110366004610bfc565b61027a565b005b61012a610125366004610c19565b6102cd565b60405190151581526020016100e6565b610115610148366004610c6a565b61030b565b6100dc61015b366004610cb9565b610341565b61012a61016e366004610bfc565b6103fd565b610115610181366004610bfc565b610429565b610115610194366004610bc3565b6104a7565b6101156101a7366004610bfc565b61057d565b6101156101ba366004610bfc565b6105ce565b6101156101cd366004610d0c565b6106b6565b6101da6107cc565b6040516001600160a01b0390911681526020016100e6565b60006101fc610809565b60010154905090565b6040516370a0823160e01b81526001600160a01b038281166004830152600091908416906370a0823190602401602060405180830381865afa15801561024f573d6000803e3d6000fd5b505050506040513d601f19601f820116820180604052508101906102739190610d92565b9392505050565b6102826107cc565b6001600160a01b0316336001600160a01b031614806102a557506102a5336103fd565b6102ca5760405162461bcd60e51b81526004016102c190610dab565b60405180910390fd5b50565b60006102d8336103fd565b6102f45760405162461bcd60e51b81526004016102c190610dab565b6103008585858561082d565b90505b949350505050565b610314336103fd565b6103305760405162461bcd60e51b81526004016102c190610dab565b61033c8383338461083b565b505050565b600061034c336103fd565b6103685760405162461bcd60e51b81526004016102c190610dab565b6040516370a0823160e01b81523360048201526000906001600160a01b038716906370a0823190602401602060405180830381865afa1580156103af573d6000803e3d6000fd5b505050506040513d601f19601f820116820180604052508101906103d39190610d92565b90508381106103e6576000915050610303565b6103f38686338787610893565b9695505050505050565b6000610407610809565b6001600160a01b03909216600090815260209290925250604090205460ff1690565b6104316107cc565b6001600160a01b0316336001600160a01b031614806104545750610454336103fd565b6104705760405162461bcd60e51b81526004016102c190610dab565b600161047a610809565b6001600160a01b039290921660009081526020929092526040909120805460ff1916911515919091179055565b604051636eb1769f60e11b81523360048201523060248201526000906001600160a01b0384169063dd62ed3e90604401602060405180830381865afa1580156104f4573d6000803e3d6000fd5b505050506040513d601f19601f820116820180604052508101906105189190610d92565b1161056f5760405162461bcd60e51b815260206004820152602160248201527f526f757465722f4e6f74417070726f76656442794d616b6572436f6e747261636044820152601d60fa1b60648201526084016102c1565b61057982826108ba565b5050565b6105856107cc565b6001600160a01b0316336001600160a01b031614806105a857506105a8336103fd565b6105c45760405162461bcd60e51b81526004016102c190610dab565b600061047a610809565b6105d66107cc565b6001600160a01b0316336001600160a01b0316146106365760405162461bcd60e51b815260206004820152601860248201527f416363657373436f6e74726f6c6c65642f496e76616c6964000000000000000060448201526064016102c1565b6001600160a01b03811661068c5760405162461bcd60e51b815260206004820152601860248201527f416363657373436f6e74726f6c6c65642f307841646d696e000000000000000060448201526064016102c1565b806106956107e5565b80546001600160a01b0319166001600160a01b039290921691909117905550565b6106bf336103fd565b6106db5760405162461bcd60e51b81526004016102c190610dab565b60005b828110156107c65760008484838181106106fa576106fa610dd8565b905060200201602081019061070f9190610bfc565b6040516370a0823160e01b81523360048201526001600160a01b0391909116906370a0823190602401602060405180830381865afa158015610755573d6000803e3d6000fd5b505050506040513d601f19601f820116820180604052508101906107799190610d92565b905080156107b3576107b385858481811061079657610796610dd8565b90506020020160208101906107ab9190610bfc565b84338461083b565b50806107be81610dee565b9150506106de565b50505050565b60006107d66107e5565b546001600160a01b0316919050565b7f7d382ebca3e46505071795e192d28166a3d4bd0685585591bc6c5b8df6769fd290565b7ff2910982afb88211fa9894801aaf0314409ca240a0a8904897b9f5ba323ca53390565b600061030085858585610998565b61084784838584610998565b6107c65760405162461bcd60e51b815260206004820152601e60248201527f53696d706c65526f757465722f707573682f7472616e736665724661696c000060448201526064016102c1565b60006108a186868686610998565b156108ad5750816108b1565b5060005b95945050505050565b6001600160a01b0381163014806109425750604051636eb1769f60e11b81526001600160a01b0382811660048301523060248301526000919084169063dd62ed3e90604401602060405180830381865afa15801561091c573d6000803e3d6000fd5b505050506040513d601f19601f820116820180604052508101906109409190610d92565b115b6105795760405162461bcd60e51b815260206004820152602160248201527f53696d706c65526f757465722f4e6f74417070726f76656442795265736572766044820152606560f81b60648201526084016102c1565b60008115806109b85750826001600160a01b0316846001600160a01b0316145b156109c557506001610303565b306001600160a01b038516036109e7576109e0858484610ac2565b9050610303565b604080516001600160a01b0386811660248301528581166044830152606480830186905283518084039091018152608490920183526020820180516001600160e01b03166323b872dd60e01b1790529151600092839290891691610a4b9190610e15565b6000604051808303816000865af19150503d8060008114610a88576040519150601f19603f3d011682016040523d82523d6000602084013e610a8d565b606091505b5091509150818015610ab7575080511580610ab7575080806020019051810190610ab79190610e50565b979650505050505050565b6000811580610ad957506001600160a01b03831630145b15610ae657506001610273565b604080516001600160a01b038581166024830152604480830186905283518084039091018152606490920183526020820180516001600160e01b031663a9059cbb60e01b1790529151600092839290881691610b429190610e15565b6000604051808303816000865af19150503d8060008114610b7f576040519150601f19603f3d011682016040523d82523d6000602084013e610b84565b606091505b50915091508180156103f35750805115806103f35750808060200190518101906103f39190610e50565b6001600160a01b03811681146102ca57600080fd5b60008060408385031215610bd657600080fd5b8235610be181610bae565b91506020830135610bf181610bae565b809150509250929050565b600060208284031215610c0e57600080fd5b813561027381610bae565b60008060008060808587031215610c2f57600080fd5b8435610c3a81610bae565b93506020850135610c4a81610bae565b92506040850135610c5a81610bae565b9396929550929360600135925050565b600080600060608486031215610c7f57600080fd5b8335610c8a81610bae565b92506020840135610c9a81610bae565b929592945050506040919091013590565b80151581146102ca57600080fd5b60008060008060808587031215610ccf57600080fd5b8435610cda81610bae565b93506020850135610cea81610bae565b9250604085013591506060850135610d0181610cab565b939692955090935050565b600080600060408486031215610d2157600080fd5b833567ffffffffffffffff80821115610d3957600080fd5b818601915086601f830112610d4d57600080fd5b813581811115610d5c57600080fd5b8760208260051b8501011115610d7157600080fd5b60209283019550935050840135610d8781610bae565b809150509250925092565b600060208284031215610da457600080fd5b5051919050565b602080825260139082015272149bdd5d195c8bdd5b985d5d1a1bdc9a5e9959606a1b604082015260600190565b634e487b7160e01b600052603260045260246000fd5b600060018201610e0e57634e487b7160e01b600052601160045260246000fd5b5060010190565b6000825160005b81811015610e365760208186018101518583015201610e1c565b81811115610e45576000828501525b509190910192915050565b600060208284031215610e6257600080fd5b815161027381610cab56fea26469706673582212201a5909cf162cba146fb1ddb06cb563c76c816c7430eb8e8f45d62b5cb8ea878a64736f6c634300080e0033",
    "linkReferences": {}
  },
  "methodIdentifiers": {
    "MGV()": "99fa5e2d",
    "activate(address[])": "5293840d",
    "admin()": "f851a440",
    "approveMangrove(address)": "9f2211cb",
    "approveRouter(address)": "f259cd27",
    "checkList(address[])": "03eb17e2",
    "expiring(address,address,uint256)": "4e7effa8",
    "getMissingProvision(address,address,uint256,uint256,uint256)": "e4c34f84",
    "has_router()": "84b627f9",
    "makerExecute((address,address,uint256,uint256,uint256,uint256,uint256,uint256,uint256))": "6c49c32c",
    "makerPosthook((address,address,uint256,uint256,uint256,uint256,uint256,uint256,uint256),(bytes32,bytes32))": "3d3d130d",
    "newOffer((address,address,uint256,uint256,uint256,uint256,uint256,uint256))": "5486c95f",
    "offerOwners(address,address,uint256[])": "dec8c86b",
    "offersOfOwner(address,address,address)": "37b966bf",
    "ofr_gasreq()": "d1baa1ef",
    "ownerOf(address,address,uint256)": "f92495e5",
    "reserve()": "cd3293de",
    "retractOffer(address,address,uint256,bool)": "ad97db1b",
    "router()": "f887ea40",
    "set_admin(address)": "e9333fab",
    "set_gasreq(uint256)": "fc488a38",
    "set_reserve(address)": "3d77fcde",
    "set_router(address)": "db11851e",
    "take((address,address,bool,bool,uint256,uint256,uint256,uint256,bool,uint256,uint256,uint256))": "6a1c7d05",
    "tokenBalance(address)": "eedc966a",
    "updateOffer((address,address,uint256,uint256,uint256,uint256,uint256,uint256))": "10aded60",
    "withdrawFromMangrove(uint256,address)": "7144df24",
    "withdrawToken(address,address,uint256)": "01e33667"
  },
  "id": 28
}