{
  "abi": [
    {
      "inputs": [
        {
          "internalType": "address",
          "name": "_addressesProvider",
          "type": "address"
        },
        {
          "internalType": "contract IMangrove",
          "name": "_MGV",
          "type": "address"
        },
        {
          "internalType": "address",
          "name": "deployer",
          "type": "address"
        }
      ],
      "stateMutability": "nonpayable",
      "type": "constructor"
    },
    {
      "anonymous": false,
      "inputs": [
        {
          "indexed": true,
          "internalType": "contract IMangrove",
          "name": "mangrove",
          "type": "address"
        },
        {
          "indexed": true,
          "internalType": "address",
          "name": "user",
          "type": "address"
        },
        {
          "indexed": false,
          "internalType": "uint256",
          "name": "amount",
          "type": "uint256"
        }
      ],
      "name": "CreditMgvUser",
      "type": "event"
    },
    {
      "anonymous": false,
      "inputs": [
        {
          "indexed": true,
          "internalType": "contract IMangrove",
          "name": "mangrove",
          "type": "address"
        },
        {
          "indexed": true,
          "internalType": "address",
          "name": "user",
          "type": "address"
        },
        {
          "indexed": false,
          "internalType": "uint256",
          "name": "amount",
          "type": "uint256"
        }
      ],
      "name": "DebitMgvUser",
      "type": "event"
    },
    {
      "anonymous": false,
      "inputs": [
        {
          "indexed": false,
          "internalType": "contract IMangrove",
          "name": "mangrove",
          "type": "address"
        },
        {
          "indexed": true,
          "internalType": "contract IERC20",
          "name": "outbound_tkn",
          "type": "address"
        },
        {
          "indexed": true,
          "internalType": "contract IERC20",
          "name": "inbound_tkn",
          "type": "address"
        },
        {
          "indexed": true,
          "internalType": "uint256",
          "name": "offerId",
          "type": "uint256"
        },
        {
          "indexed": false,
          "internalType": "bytes32",
          "name": "reason",
          "type": "bytes32"
        }
      ],
      "name": "LogIncident",
      "type": "event"
    },
    {
      "anonymous": false,
      "inputs": [
        {
          "indexed": false,
          "internalType": "contract IMangrove",
          "name": "mangrove",
          "type": "address"
        },
        {
          "indexed": true,
          "internalType": "contract IERC20",
          "name": "outbound_tkn",
          "type": "address"
        },
        {
          "indexed": true,
          "internalType": "contract IERC20",
          "name": "inbound_tkn",
          "type": "address"
        },
        {
          "indexed": true,
          "internalType": "uint256",
          "name": "offerId",
          "type": "uint256"
        },
        {
          "indexed": false,
          "internalType": "address",
          "name": "owner",
          "type": "address"
        }
      ],
      "name": "NewOwnedOffer",
      "type": "event"
    },
    {
      "anonymous": false,
      "inputs": [
        {
          "indexed": false,
          "internalType": "uint256",
          "name": "",
          "type": "uint256"
        }
      ],
      "name": "SetGasreq",
      "type": "event"
    },
    {
      "anonymous": false,
      "inputs": [
        {
          "indexed": false,
          "internalType": "contract AbstractRouter",
          "name": "",
          "type": "address"
        }
      ],
      "name": "SetRouter",
      "type": "event"
    },
    {
      "inputs": [],
      "name": "MGV",
      "outputs": [
        {
          "internalType": "contract IMangrove",
          "name": "",
          "type": "address"
        }
      ],
      "stateMutability": "view",
      "type": "function"
    },
    {
      "inputs": [],
      "name": "admin",
      "outputs": [
        {
          "internalType": "address",
          "name": "",
          "type": "address"
        }
      ],
      "stateMutability": "view",
      "type": "function"
    },
    {
      "inputs": [
        {
          "internalType": "contract IERC20",
          "name": "outbound_tkn",
          "type": "address"
        },
        {
          "internalType": "uint256",
          "name": "amount",
          "type": "uint256"
        }
      ],
      "name": "approveMangrove",
      "outputs": [],
      "stateMutability": "nonpayable",
      "type": "function"
    },
    {
      "inputs": [
        {
          "internalType": "contract IERC20",
          "name": "token",
          "type": "address"
        }
      ],
      "name": "approveRouter",
      "outputs": [],
      "stateMutability": "nonpayable",
      "type": "function"
    },
    {
      "inputs": [
        {
          "internalType": "contract IERC20",
          "name": "outbound_tkn",
          "type": "address"
        },
        {
          "internalType": "contract IERC20",
          "name": "inbound_tkn",
          "type": "address"
        },
        {
          "internalType": "uint256",
          "name": "gasreq",
          "type": "uint256"
        },
        {
          "internalType": "uint256",
          "name": "gasprice",
          "type": "uint256"
        },
        {
          "internalType": "uint256",
          "name": "offerId",
          "type": "uint256"
        }
      ],
      "name": "getMissingProvision",
      "outputs": [
        {
          "internalType": "uint256",
          "name": "",
          "type": "uint256"
        }
      ],
      "stateMutability": "view",
      "type": "function"
    },
    {
      "inputs": [],
      "name": "has_router",
      "outputs": [
        {
          "internalType": "bool",
          "name": "",
          "type": "bool"
        }
      ],
      "stateMutability": "view",
      "type": "function"
    },
    {
      "inputs": [
        {
          "components": [
            {
              "internalType": "address",
              "name": "outbound_tkn",
              "type": "address"
            },
            {
              "internalType": "address",
              "name": "inbound_tkn",
              "type": "address"
            },
            {
              "internalType": "uint256",
              "name": "offerId",
              "type": "uint256"
            },
            {
              "internalType": "t",
              "name": "offer",
              "type": "uint256"
            },
            {
              "internalType": "uint256",
              "name": "wants",
              "type": "uint256"
            },
            {
              "internalType": "uint256",
              "name": "gives",
              "type": "uint256"
            },
            {
              "internalType": "t",
              "name": "offerDetail",
              "type": "uint256"
            },
            {
              "internalType": "t",
              "name": "global",
              "type": "uint256"
            },
            {
              "internalType": "t",
              "name": "local",
              "type": "uint256"
            }
          ],
          "internalType": "struct MgvLib.SingleOrder",
          "name": "order",
          "type": "tuple"
        }
      ],
      "name": "makerExecute",
      "outputs": [
        {
          "internalType": "bytes32",
          "name": "ret",
          "type": "bytes32"
        }
      ],
      "stateMutability": "nonpayable",
      "type": "function"
    },
    {
      "inputs": [
        {
          "components": [
            {
              "internalType": "address",
              "name": "outbound_tkn",
              "type": "address"
            },
            {
              "internalType": "address",
              "name": "inbound_tkn",
              "type": "address"
            },
            {
              "internalType": "uint256",
              "name": "offerId",
              "type": "uint256"
            },
            {
              "internalType": "t",
              "name": "offer",
              "type": "uint256"
            },
            {
              "internalType": "uint256",
              "name": "wants",
              "type": "uint256"
            },
            {
              "internalType": "uint256",
              "name": "gives",
              "type": "uint256"
            },
            {
              "internalType": "t",
              "name": "offerDetail",
              "type": "uint256"
            },
            {
              "internalType": "t",
              "name": "global",
              "type": "uint256"
            },
            {
              "internalType": "t",
              "name": "local",
              "type": "uint256"
            }
          ],
          "internalType": "struct MgvLib.SingleOrder",
          "name": "order",
          "type": "tuple"
        },
        {
          "components": [
            {
              "internalType": "bytes32",
              "name": "makerData",
              "type": "bytes32"
            },
            {
              "internalType": "bytes32",
              "name": "mgvData",
              "type": "bytes32"
            }
          ],
          "internalType": "struct MgvLib.OrderResult",
          "name": "result",
          "type": "tuple"
        }
      ],
      "name": "makerPosthook",
      "outputs": [],
      "stateMutability": "nonpayable",
      "type": "function"
    },
    {
      "inputs": [
        {
          "components": [
            {
              "internalType": "contract IERC20",
              "name": "outbound_tkn",
              "type": "address"
            },
            {
              "internalType": "contract IERC20",
              "name": "inbound_tkn",
              "type": "address"
            },
            {
              "internalType": "uint256",
              "name": "wants",
              "type": "uint256"
            },
            {
              "internalType": "uint256",
              "name": "gives",
              "type": "uint256"
            },
            {
              "internalType": "uint256",
              "name": "gasreq",
              "type": "uint256"
            },
            {
              "internalType": "uint256",
              "name": "gasprice",
              "type": "uint256"
            },
            {
              "internalType": "uint256",
              "name": "pivotId",
              "type": "uint256"
            },
            {
              "internalType": "uint256",
              "name": "offerId",
              "type": "uint256"
            }
          ],
          "internalType": "struct IOfferLogic.MakerOrder",
          "name": "mko",
          "type": "tuple"
        }
      ],
      "name": "newOffer",
      "outputs": [
        {
          "internalType": "uint256",
          "name": "offerId",
          "type": "uint256"
        }
      ],
      "stateMutability": "payable",
      "type": "function"
    },
    {
      "inputs": [
        {
          "internalType": "contract IERC20",
          "name": "outbound_tkn",
          "type": "address"
        },
        {
          "internalType": "contract IERC20",
          "name": "inbound_tkn",
          "type": "address"
        },
        {
          "internalType": "uint256[]",
          "name": "offerIds",
          "type": "uint256[]"
        }
      ],
      "name": "offerOwners",
      "outputs": [
        {
          "internalType": "address[]",
          "name": "_offerOwners",
          "type": "address[]"
        }
      ],
      "stateMutability": "view",
      "type": "function"
    },
    {
      "inputs": [],
      "name": "ofr_gasreq",
      "outputs": [
        {
          "internalType": "uint256",
          "name": "",
          "type": "uint256"
        }
      ],
      "stateMutability": "view",
      "type": "function"
    },
    {
      "inputs": [
        {
          "internalType": "contract IERC20",
          "name": "outbound_tkn",
          "type": "address"
        },
        {
          "internalType": "contract IERC20",
          "name": "inbound_tkn",
          "type": "address"
        },
        {
          "internalType": "uint256",
          "name": "offerId",
          "type": "uint256"
        }
      ],
      "name": "ownerOf",
      "outputs": [
        {
          "internalType": "address",
          "name": "owner",
          "type": "address"
        }
      ],
      "stateMutability": "view",
      "type": "function"
    },
    {
      "inputs": [
        {
          "internalType": "contract IERC20",
          "name": "outbound_tkn",
          "type": "address"
        },
        {
          "internalType": "contract IERC20",
          "name": "inbound_tkn",
          "type": "address"
        },
        {
          "internalType": "uint256",
          "name": "offerId",
          "type": "uint256"
        },
        {
          "internalType": "bool",
          "name": "deprovision",
          "type": "bool"
        }
      ],
      "name": "retractOffer",
      "outputs": [
        {
          "internalType": "uint256",
          "name": "free_wei",
          "type": "uint256"
        }
      ],
      "stateMutability": "nonpayable",
      "type": "function"
    },
    {
      "inputs": [],
      "name": "router",
      "outputs": [
        {
          "internalType": "contract AbstractRouter",
          "name": "",
          "type": "address"
        }
      ],
      "stateMutability": "view",
      "type": "function"
    },
    {
      "inputs": [
        {
          "internalType": "address",
          "name": "_admin",
          "type": "address"
        }
      ],
      "name": "setAdmin",
      "outputs": [],
      "stateMutability": "nonpayable",
      "type": "function"
    },
    {
      "inputs": [
        {
          "internalType": "uint256",
          "name": "gasreq",
          "type": "uint256"
        }
      ],
      "name": "set_gasreq",
      "outputs": [],
      "stateMutability": "nonpayable",
      "type": "function"
    },
    {
      "inputs": [
        {
          "internalType": "contract AbstractRouter",
          "name": "router_",
          "type": "address"
        }
      ],
      "name": "set_router",
      "outputs": [],
      "stateMutability": "nonpayable",
      "type": "function"
    },
    {
      "inputs": [
        {
          "internalType": "contract IERC20",
          "name": "token",
          "type": "address"
        }
      ],
      "name": "tokenBalance",
      "outputs": [
        {
          "internalType": "uint256",
          "name": "",
          "type": "uint256"
        }
      ],
      "stateMutability": "view",
      "type": "function"
    },
    {
      "inputs": [
        {
          "components": [
            {
              "internalType": "contract IERC20",
              "name": "outbound_tkn",
              "type": "address"
            },
            {
              "internalType": "contract IERC20",
              "name": "inbound_tkn",
              "type": "address"
            },
            {
              "internalType": "uint256",
              "name": "wants",
              "type": "uint256"
            },
            {
              "internalType": "uint256",
              "name": "gives",
              "type": "uint256"
            },
            {
              "internalType": "uint256",
              "name": "gasreq",
              "type": "uint256"
            },
            {
              "internalType": "uint256",
              "name": "gasprice",
              "type": "uint256"
            },
            {
              "internalType": "uint256",
              "name": "pivotId",
              "type": "uint256"
            },
            {
              "internalType": "uint256",
              "name": "offerId",
              "type": "uint256"
            }
          ],
          "internalType": "struct IOfferLogic.MakerOrder",
          "name": "mko",
          "type": "tuple"
        }
      ],
      "name": "updateOffer",
      "outputs": [],
      "stateMutability": "payable",
      "type": "function"
    },
    {
      "inputs": [
        {
          "internalType": "uint256",
          "name": "amount",
          "type": "uint256"
        },
        {
          "internalType": "address",
          "name": "receiver",
          "type": "address"
        }
      ],
      "name": "withdrawFromMangrove",
      "outputs": [],
      "stateMutability": "nonpayable",
      "type": "function"
    },
    {
      "inputs": [
        {
          "internalType": "contract IERC20",
          "name": "token",
          "type": "address"
        },
        {
          "internalType": "address",
          "name": "receiver",
          "type": "address"
        },
        {
          "internalType": "uint256",
          "name": "amount",
          "type": "uint256"
        }
      ],
      "name": "withdrawToken",
      "outputs": [
        {
          "internalType": "bool",
          "name": "success",
          "type": "bool"
        }
      ],
      "stateMutability": "nonpayable",
      "type": "function"
    },
    {
      "stateMutability": "payable",
      "type": "receive"
    }
  ],
  "bytecode": {
    "object": "0x60a06040523480156200001157600080fd5b50604051620073a5380380620073a583398101604081905262000034916200062b565b8183600080604051620000479062000604565b6001600160a01b03909316835260208301919091526040820152606001604051809103906000f08015801562000081573d6000803e3d6000fd5b5061c35082828282813380620000de5760405162461bcd60e51b815260206004820152601860248201527f616363657373436f6e74726f6c6c65642f307841646d696e000000000000000060448201526064015b60405180910390fd5b80620000f46200028260201b620019a51760201c565b80546001600160a01b0319166001600160a01b03929092169190911790555062ffffff81168114620001695760405162461bcd60e51b815260206004820152601b60248201527f4d616e67726f76654f666665722f676173726571546f6f4869676800000000006044820152606401620000d5565b6001600160a01b038216608052806200018d620002a6602090811b620019c917901c565b5550506001600160a01b038216620001dd5760405162461bcd60e51b815260206004820152601260248201527126bab63a34aab9b2b917983c2937baba32b960711b6044820152606401620000d5565b620001e882620002ca565b505050505050620001fe6200047460201b60201c565b604051633825b60160e11b81526001600160a01b038381166004830152919091169063704b6c0290602401600060405180830381600087803b1580156200024457600080fd5b505af115801562000259573d6000803e3d6000fd5b505050506001600160a01b038116331462000279576200027981620004e3565b5050506200067f565b7f7d382ebca3e46505071795e192d28166a3d4bd0685585591bc6c5b8df6769fd290565b7fae7e31c3220e851db9f204a28b279dfe52b973600b0a456991089c220ae7222490565b620002d4620005de565b6001600160a01b0316336001600160a01b031614806200030757506080516001600160a01b0316336001600160a01b0316145b620003555760405162461bcd60e51b815260206004820152601860248201527f416363657373436f6e74726f6c6c65642f496e76616c696400000000000000006044820152606401620000d5565b6001600160a01b038116620003ad5760405162461bcd60e51b815260206004820152601c60248201527f6d67764f666665722f7365745f726f757465722f3078526f75746572000000006044820152606401620000d5565b80620003c3620002a660201b620019c91760201c565b60010180546001600160a01b0319166001600160a01b039283161790556040516381bac14f60e01b8152306004820152908216906381bac14f90602401600060405180830381600087803b1580156200041b57600080fd5b505af115801562000430573d6000803e3d6000fd5b50506040516001600160a01b03841681527f6de4326a8b9054d72d9dbab97d27bc4edffadee7d966f5af9cc4eafdaf8e54559250602001905060405180910390a150565b6000806200048c620002a660201b620019c91760201c565b600101546001600160a01b0316905080620004de5760405162461bcd60e51b815260206004820152601160248201527036b3bb27b33332b917983c2937baba32b960791b6044820152606401620000d5565b919050565b620004ed620005de565b6001600160a01b0316336001600160a01b0316146200054f5760405162461bcd60e51b815260206004820152601860248201527f416363657373436f6e74726f6c6c65642f496e76616c696400000000000000006044820152606401620000d5565b6001600160a01b038116620005a75760405162461bcd60e51b815260206004820152601860248201527f416363657373436f6e74726f6c6c65642f307841646d696e00000000000000006044820152606401620000d5565b80620005bd6200028260201b620019a51760201c565b80546001600160a01b0319166001600160a01b039290921691909117905550565b6000620005f56200028260201b620019a51760201c565b546001600160a01b0316919050565b613d87806200361e83390190565b6001600160a01b03811681146200062857600080fd5b50565b6000806000606084860312156200064157600080fd5b83516200064e8162000612565b6020850151909350620006618162000612565b6040850151909250620006748162000612565b809150509250925092565b608051612ecd620007516000396000818161024c0152818161055801528181610616015281816106a4015281816108a4015281816109000152818161099201528181610c1c01528181610cd201528181610d9801528181610f5b01528181610fb0015281816111430152818161134f015281816113ec01528181611562015281816116ad015281816118d901528181611a8301528181611b2901528181611ba701528181611e41015281816120ac015281816121eb015281816124140152818161252d01526129440152612ecd6000f3fe60806040526004361061012e5760003560e01c8063aefe8403116100ab578063eedc966a1161006f578063eedc966a14610348578063f259cd2714610368578063f851a44014610388578063f887ea401461039d578063f92495e5146103b2578063fc488a38146103d257600080fd5b8063aefe8403146102a6578063d1baa1ef146102c6578063db11851e146102db578063dec8c86b146102fb578063e4c34f841461032857600080fd5b8063704b6c02116100f2578063704b6c02146101e55780637144df241461020557806384b627f91461022557806399fa5e2d1461023a578063ad97db1b1461028657600080fd5b806301e336671461013a57806310aded601461016f5780633d3d130d146101845780635486c95f146101a45780636c49c32c146101c557600080fd5b3661013557005b600080fd5b34801561014657600080fd5b5061015a6101553660046129ae565b6103f2565b60405190151581526020015b60405180910390f35b61018261017d3660046129ef565b6104ef565b005b34801561019057600080fd5b5061018261019f366004612a15565b610556565b6101b76101b23660046129ef565b61067f565b604051908152602001610166565b3480156101d157600080fd5b506101b76101e0366004612a58565b6106a0565b3480156101f157600080fd5b50610182610200366004612a75565b6107bf565b34801561021157600080fd5b50610182610220366004612a92565b610877565b34801561023157600080fd5b5061015a610b9e565b34801561024657600080fd5b5061026e7f000000000000000000000000000000000000000000000000000000000000000081565b6040516001600160a01b039091168152602001610166565b34801561029257600080fd5b506101b76102a1366004612ad0565b610bbd565b3480156102b257600080fd5b506101826102c1366004612b23565b610f2e565b3480156102d257600080fd5b506101b7611078565b3480156102e757600080fd5b506101826102f6366004612a75565b611116565b34801561030757600080fd5b5061031b610316366004612b4f565b611290565b6040516101669190612be4565b34801561033457600080fd5b506101b7610343366004612c31565b611341565b34801561035457600080fd5b506101b7610363366004612a75565b611604565b34801561037457600080fd5b50610182610383366004612a75565b611680565b34801561039457600080fd5b5061026e6117c0565b3480156103a957600080fd5b5061026e6117d9565b3480156103be57600080fd5b5061026e6103cd3660046129ae565b611839565b3480156103de57600080fd5b506101826103ed366004612c82565b6118ac565b60006001600160a01b03831661045a5760405162461bcd60e51b815260206004820152602260248201527f4d756c7469557365722f7769746864726177546f6b656e2f307852656365697660448201526132b960f11b60648201526084015b60405180910390fd5b6104626117d9565b6040516310baa6cf60e11b81526001600160a01b03868116600483015233602483015285811660448301526064820185905291909116906321754d9e906084016020604051808303816000875af11580156104c1573d6000803e3d6000fd5b505050506040513d601f19601f820116820180604052508101906104e59190612c9b565b90505b9392505050565b61050761050136839003830183612cce565b346119ed565b6105535760405162461bcd60e51b815260206004820152601960248201527f4d756c7469557365722f7570646174654f666665724661696c000000000000006044820152606401610451565b50565b7f00000000000000000000000000000000000000000000000000000000000000006001600160a01b03811615806105955750336001600160a01b038216145b6105b15760405162461bcd60e51b815260040161045190612d7a565b81602001356f6d67762f74726164655375636365737360801b036105de576105d883611f44565b50505050565b604083018035906105f29060208601612a75565b6001600160a01b03166106086020860186612a75565b604080516001600160a01b037f0000000000000000000000000000000000000000000000000000000000000000811682528735602083015292909216917f736a3993b9f8b1c5603896c76376792887f376b1fe7fc981e09a16530bf1e4e0910160405180910390a46105d8838361201b565b505050565b600061069a61069336849003840184612cce565b33346123df565b92915050565b60007f00000000000000000000000000000000000000000000000000000000000000006001600160a01b03811615806106e15750336001600160a01b038216145b6106fd5760405162461bcd60e51b815260040161045190612d7a565b600061070d8460a0013585612649565b111561075b5760405162461bcd60e51b815260206004820152601860248201527f6d67764f666665722f61626f72742f7075744661696c656400000000000000006044820152606401610451565b600061076b846080013585612702565b11156107b95760405162461bcd60e51b815260206004820152601860248201527f6d67764f666665722f61626f72742f6765744661696c656400000000000000006044820152606401610451565b50919050565b6107c76117c0565b6001600160a01b0316336001600160a01b0316146107f75760405162461bcd60e51b815260040161045190612d7a565b6001600160a01b03811661084d5760405162461bcd60e51b815260206004820152601860248201527f416363657373436f6e74726f6c6c65642f307841646d696e00000000000000006044820152606401610451565b806108566119a5565b80546001600160a01b0319166001600160a01b039290921691909117905550565b61087f6117c0565b6001600160a01b0316336001600160a01b031614806108c65750336001600160a01b037f000000000000000000000000000000000000000000000000000000000000000016145b6108e25760405162461bcd60e51b815260040161045190612d7a565b600019820361097c576040516370a0823160e01b81523060048201527f00000000000000000000000000000000000000000000000000000000000000006001600160a01b0316906370a0823190602401602060405180830381865afa15801561094f573d6000803e3d6000fd5b505050506040513d601f19601f820116820180604052508101906109739190612db1565b91508115610b9a575b604051632e1a7d4d60e01b8152600481018390527f00000000000000000000000000000000000000000000000000000000000000006001600160a01b031690632e1a7d4d906024016020604051808303816000875af11580156109e3573d6000803e3d6000fd5b505050506040513d601f19601f82011682018060405250810190610a079190612c9b565b610a615760405162461bcd60e51b815260206004820152602560248201527f6d67764f666665722f776974686472617746726f6d4d67762f776974686472616044820152641dd1985a5b60da1b6064820152608401610451565b610a69610b9e565b15610ae657610a766117d9565b604051631af82a7560e31b81526001600160a01b038381166004830152919091169063d7c153a890849060240160206040518083038185885af1158015610ac1573d6000803e3d6000fd5b50505050506040513d601f19601f8201168201806040525081019061067a9190612c9b565b6000816001600160a01b03168360405160006040518083038185875af1925050503d8060008114610b33576040519150601f19603f3d011682016040523d82523d6000602084013e610b38565b606091505b505090508061067a5760405162461bcd60e51b815260206004820152602860248201527f6d67764f666665722f776974686472617746726f6d4d67762f70617961626c6560448201526710d85b1b11985a5b60c21b6064820152608401610451565b5050565b600080610ba96119c9565b600101546001600160a01b03161415919050565b6001600160a01b03848116600090815260208181526040808320878516845282528083208684528252808320815180830190925254938416808252600160a01b9094046001600160601b0316918101919091529091331480610c4757507f00000000000000000000000000000000000000000000000000000000000000006001600160a01b031633145b610c935760405162461bcd60e51b815260206004820152601f60248201527f4d756c74692f726574726163744f666665722f756e617574686f72697a6564006044820152606401610451565b60208101516001600160601b031615610cc85782610cb2576000610cb8565b80602001515b6001600160601b03169150610d7c565b6001600160a01b037f00000000000000000000000000000000000000000000000000000000000000001663ad97db1b87876040516001600160e01b031960e085901b1681526001600160a01b039283166004820152911660248201526044810187905285151560648201526084016020604051808303816000875af1158015610d55573d6000803e3d6000fd5b505050506040513d601f19601f82011682018060405250810190610d799190612db1565b91505b8115610f2557604051632e1a7d4d60e01b8152600481018390527f00000000000000000000000000000000000000000000000000000000000000006001600160a01b031690632e1a7d4d906024016020604051808303816000875af1158015610de9573d6000803e3d6000fd5b505050506040513d601f19601f82011682018060405250810190610e0d9190612c9b565b610e525760405162461bcd60e51b8152602060048201526016602482015275135d5b1d1a555cd95c8bddda5d1a191c985dd1985a5b60521b6044820152606401610451565b60408051808201825282516001600160a01b039081168252600060208084018281528b841683528282528583208b8516845282528583208a8452909152939020915192516001600160601b0316600160a01b029216919091179055610eb56117d9565b604051631af82a7560e31b81523360048201526001600160a01b03919091169063d7c153a890849060240160206040518083038185885af1158015610efe573d6000803e3d6000fd5b50505050506040513d601f19601f82011682018060405250810190610f239190612c9b565b505b50949350505050565b610f366117c0565b6001600160a01b0316336001600160a01b03161480610f7d5750336001600160a01b037f000000000000000000000000000000000000000000000000000000000000000016145b610f995760405162461bcd60e51b815260040161045190612d7a565b60405163095ea7b360e01b81526001600160a01b037f0000000000000000000000000000000000000000000000000000000000000000811660048301526024820183905283169063095ea7b3906044016020604051808303816000875af1158015611008573d6000803e3d6000fd5b505050506040513d601f19601f8201168201806040525081019061102c9190612c9b565b610b9a5760405162461bcd60e51b815260206004820152601d60248201527f6d67764f666665722f617070726f76654d616e67726f76652f4661696c0000006044820152606401610451565b6000611082610b9e565b156111085761108f6117d9565b6001600160a01b0316630417ffda6040518163ffffffff1660e01b8152600401602060405180830381865afa1580156110cc573d6000803e3d6000fd5b505050506040513d601f19601f820116820180604052508101906110f09190612db1565b6110f86119c9565b546111039190612de0565b905090565b6111106119c9565b54919050565b61111e6117c0565b6001600160a01b0316336001600160a01b031614806111655750336001600160a01b037f000000000000000000000000000000000000000000000000000000000000000016145b6111815760405162461bcd60e51b815260040161045190612d7a565b6001600160a01b0381166111d75760405162461bcd60e51b815260206004820152601c60248201527f6d67764f666665722f7365745f726f757465722f3078526f75746572000000006044820152606401610451565b806111e06119c9565b60010180546001600160a01b0319166001600160a01b039283161790556040516381bac14f60e01b8152306004820152908216906381bac14f90602401600060405180830381600087803b15801561123757600080fd5b505af115801561124b573d6000803e3d6000fd5b50506040516001600160a01b03841681527f6de4326a8b9054d72d9dbab97d27bc4edffadee7d966f5af9cc4eafdaf8e5455925060200190505b60405180910390a150565b60608167ffffffffffffffff8111156112ab576112ab612cb8565b6040519080825280602002602001820160405280156112d4578160200160208202803683370190505b50905060005b82811015610f255761130586868686858181106112f9576112f9612df8565b90506020020135611839565b82828151811061131757611317612df8565b6001600160a01b03909216602092830291909101909101528061133981612e0e565b9150506112da565b600080806001600160a01b037f00000000000000000000000000000000000000000000000000000000000000001663cbf75c9a89896040516001600160e01b031960e085901b1681526001600160a01b039283166004820152911660248201526044016040805180830381865afa1580156113c0573d6000803e3d6000fd5b505050506040513d601f19601f820116820180604052508101906113e49190612e27565b9150915060007f00000000000000000000000000000000000000000000000000000000000000006001600160a01b0316635722647b6114208b90565b8a6040516001600160e01b031960e085901b1681526001600160a01b0392831660048201529116602482015260448101889052606401602060405180830381865afa158015611473573d6000803e3d6000fd5b505050506040513d601f19601f820116820180604052508101906114979190612db1565b9050600086604085901c61ffff1611156114ba575061ffff604084901c166114bd565b50855b62ffffff88106114d2576114cf611078565b97505b6000816114e862ffffff606087901c168b612de0565b6114f29190612e4b565b61150090633b9aca00612e4b565b9050600061ffff602085901c1661152762ffffff603087901c811690604888901c16612de0565b6115319190612e4b565b61153f90633b9aca00612e4b565b6040516370a0823160e01b81523060048201529091506000906001600160a01b037f000000000000000000000000000000000000000000000000000000000000000016906370a0823190602401602060405180830381865afa1580156115a9573d6000803e3d6000fd5b505050506040513d601f19601f820116820180604052508101906115cd9190612db1565b6115d79083612de0565b9050828110156115f0576115eb8184612e6a565b6115f3565b60005b9d9c50505050505050505050505050565b600061160e6117d9565b6040516302b427ef60e11b81526001600160a01b03848116600483015233602483015291909116906305684fde90604401602060405180830381865afa15801561165c573d6000803e3d6000fd5b505050506040513d601f19601f8201168201806040525081019061069a9190612db1565b6116886117c0565b6001600160a01b0316336001600160a01b031614806116cf5750336001600160a01b037f000000000000000000000000000000000000000000000000000000000000000016145b6116eb5760405162461bcd60e51b815260040161045190612d7a565b806001600160a01b031663095ea7b36117026117d9565b6040516001600160e01b031960e084901b1681526001600160a01b03909116600482015260001960248201526044016020604051808303816000875af1158015611750573d6000803e3d6000fd5b505050506040513d601f19601f820116820180604052508101906117749190612c9b565b6105535760405162461bcd60e51b815260206004820152601b60248201527f6d67764f666665722f617070726f7665526f757465722f4661696c00000000006044820152606401610451565b60006117ca6119a5565b546001600160a01b0316919050565b6000806117e46119c9565b600101546001600160a01b03169050806118345760405162461bcd60e51b815260206004820152601160248201527036b3bb27b33332b917983c2937baba32b960791b6044820152606401610451565b919050565b6001600160a01b038084166000908152602081815260408083208685168452825280832085845290915290205416806104e85760405162461bcd60e51b815260206004820152601560248201527436bab63a34aab9b2b917bab735b7bbb727b33332b960591b6044820152606401610451565b6118b46117c0565b6001600160a01b0316336001600160a01b031614806118fb5750336001600160a01b037f000000000000000000000000000000000000000000000000000000000000000016145b6119175760405162461bcd60e51b815260040161045190612d7a565b808162ffffff161461196b5760405162461bcd60e51b815260206004820152601860248201527f6d67764f666665722f6761737265712f6f766572666c6f7700000000000000006044820152606401610451565b806119746119c9565b556040518181527fafef3ad374c0b972e3c793be825735801fa05cc4c67157d98d9a111b4027988d90602001611285565b7f7d382ebca3e46505071795e192d28166a3d4bd0685585591bc6c5b8df6769fd290565b7fae7e31c3220e851db9f204a28b279dfe52b973600b0a456991089c220ae7222490565b81516001600160a01b039081166000908152602081815260408083208287015185168452825280832060e0870151845282528083208151808301835290549485168152600160a01b9094046001600160601b031684830152805160808101825283815291820183905281018290526060810182905290919081516001600160a01b0316331480611aa55750336001600160a01b037f000000000000000000000000000000000000000000000000000000000000000016145b611af15760405162461bcd60e51b815260206004820152601e60248201527f4d756c74692f7570646174654f666665722f756e617574686f72697a656400006044820152606401610451565b8451602086015160e0870151604051635722647b60e01b81526001600160a01b039384166004820152918316602483015260448201527f000000000000000000000000000000000000000000000000000000000000000090911690635722647b90606401602060405180830381865afa158015611b72573d6000803e3d6000fd5b505050506040513d601f19601f82011682018060405250810190611b969190612db1565b604082015284516001600160a01b037f0000000000000000000000000000000000000000000000000000000000000000169063cbf75c9a9060208801516040516001600160e01b031960e085901b1681526001600160a01b039283166004820152911660248201526044016040805180830381865afa158015611c1d573d6000803e3d6000fd5b505050506040513d601f19601f82011682018060405250810190611c419190612e27565b6020830152815260608101849052608085015162ffffff10611c67578460800151611c6f565b611c6f611078565b6080860152604081015160201c61ffff1660a08601819052600003611d515760208201516001600160601b031615611d275781602001516001600160601b031681606001818151611cc09190612de0565b90525060408051808201825283516001600160a01b039081168252600060208084018281528a51841683528282528583208b83015185168452825285832060e08c01518452909152939020915192516001600160601b0316600160a01b0292169190911790555b60808501516060808301516020840151611d4793921c62ffffff166127e0565b60a0860152611dd2565b8315611dd257602081015160601c62ffffff16604082015160481c62ffffff16611d7b9190612de0565b60a0860151611d8e90633b9aca00612e4b565b611d989190612e4b565b81606001818151611da99190612de0565b90525060808501516060808301516020840151611dcc93921c62ffffff166127e0565b60a08601525b805160401c61ffff168560a001511015611e3f5760405162461bcd60e51b815260206004820152602860248201527f4d756c7469557365722f7570646174654f666665722f4e6f74456e6f756768506044820152673937bb34b9b4b7b760c11b6064820152608401610451565b7f00000000000000000000000000000000000000000000000000000000000000006001600160a01b0316636a4f769185611e7a886000015190565b602089015189604001518a606001518b608001518c60a001518d60c001518e60e001516040518a63ffffffff1660e01b8152600401611eff9897969594939291906001600160a01b03988916815296909716602087015260408601949094526060850192909252608084015260a083015260c082015260e08101919091526101000190565b6000604051808303818588803b158015611f1857600080fd5b505af193505050508015611f2a575060015b611f395760009250505061069a565b506001949350505050565b600080611f508361287b565b90506000611f5d8461289b565b905081600003611f71575060019392505050565b6040805161010081019091526120139080611f8f6020880188612a75565b6001600160a01b03168152602001866020016020810190611fb09190612a75565b6001600160a01b03168152602081018490526040810185905260600160c087013560481c62ffffff16815260209081019060c0880135901c61ffff168152602001606087013560c01c63ffffffff168152602001866040013581525060006119ed565b949350505050565b60008061202b6020850185612a75565b9050600061203f6040860160208701612a75565b6001600160a01b03838116600090815260208181526040808320858516845282528083208a82013584528252918290208251808401845290548085168252600160a01b90046001600160601b03169181019190915290516370a0823160e01b8152306004820152929350917f000000000000000000000000000000000000000000000000000000000000000090911690632e1a7d4d9082906370a0823190602401602060405180830381865afa1580156120fd573d6000803e3d6000fd5b505050506040513d601f19601f820116820180604052508101906121219190612db1565b6040518263ffffffff1660e01b815260040161213f91815260200190565b6020604051808303816000875af115801561215e573d6000803e3d6000fd5b505050506040513d601f19601f820116820180604052508101906121829190612c9b565b6121de5760405162461bcd60e51b815260206004820152602760248201527f4d756c7469557365722f706f7374686f6f6b46616c6c6261636b2f77697468646044820152661c985dd1985a5b60ca1b6064820152608401610451565b6000806001600160a01b037f00000000000000000000000000000000000000000000000000000000000000001663cbf75c9a61221d60208b018b612a75565b61222d60408c0160208d01612a75565b6040516001600160e01b031960e085901b1681526001600160a01b039283166004820152911660248201526044016040805180830381865afa158015612277573d6000803e3d6000fd5b505050506040513d601f19601f8201168201806040525081019061229b9190612e27565b909250905060006122b861ffff604085901c16633b9aca00612e4b565b9050600060c08a013560301c62ffffff1660c08b013560481c62ffffff166122e09190612de0565b6122f961ffff60c08d013560201c16633b9aca00612e4b565b6123039190612e4b565b9050600082606085901c62ffffff165a60c08e013560481c62ffffff1661232a9190612e6a565b61233690610bb8612de0565b6123409190612de0565b61234a9190612e4b565b9050600082821015612365576123608284612e6a565b612368565b60005b60408051808201825298516001600160a01b039081168a526001600160601b039283166020808c019182529c82166000908152808e528381209c831681529b8d52828c209f8301358c529e909b5290982096519b51909716600160a01b029a90971699909917909355506001979650505050505050565b825160208401516040516365fbae4d60e11b81526001600160a01b0392831660048201529082166024820152600091829182917f0000000000000000000000000000000000000000000000000000000000000000169063cbf75c9a906044016040805180830381865afa15801561245a573d6000803e3d6000fd5b505050506040513d601f19601f8201168201806040525081019061247e9190612e27565b9150915062ffffff801686608001511161249c5785608001516124a4565b6124a4611078565b608087018190526124bf9085606084901c62ffffff166127e0565b60a0870181905261ffff604084901c16111561252b5760405162461bcd60e51b815260206004820152602560248201527f4d756c7469557365722f6e65774f666665722f4e6f74456e6f75676850726f7660448201526434b9b4b7b760d91b6064820152608401610451565b7f00000000000000000000000000000000000000000000000000000000000000006001600160a01b03166349f6d2dc85612566896000015190565b60208a01518a604001518b606001518c608001518d60a001518e60c001516040518963ffffffff1660e01b81526004016125df97969594939291906001600160a01b03978816815295909616602086015260408501939093526060840191909152608083015260a082015260c081019190915260e00190565b60206040518083038185885af11580156125fd573d6000803e3d6000fd5b50505050506040513d601f19601f820116820180604052508101906126229190612db1565b60e087018190528651602088015161263a92886128b8565b50505060e08301519392505050565b6000806126596020840184612a75565b9050600061266d6040850160208601612a75565b9050600061268083838760400135611839565b905061268a6117d9565b60405163137476d160e11b81526001600160a01b03848116600483015283811660248301526044820189905291909116906326e8eda290606401600060405180830381600087803b1580156126de57600080fd5b505af11580156126f2573d6000803e3d6000fd5b5060009998505050505050505050565b6000806127126020840184612a75565b905060006127266040850160208601612a75565b9050600061273983838760400135611839565b905060006127456117d9565b60405163333dbb0d60e01b81526001600160a01b0386811660048301528481166024830152604482018a905260016064830152919091169063333dbb0d906084016020604051808303816000875af11580156127a5573d6000803e3d6000fd5b505050506040513d601f19601f820116820180604052508101906127c99190612db1565b90506127d58188612e6a565b979650505050505050565b6000806127ed8584612de0565b6127fb90633b9aca00612e4b565b9050808410156128625760405162461bcd60e51b815260206004820152602c60248201527f4d756c7469557365722f6465726976655f67617370726963652f4e6f74456e6f60448201526b3ab3b4283937bb34b9b4b7b760a11b6064820152608401610451565b80848161287157612871612e81565b0495945050505050565b600060808201356001600160601b036060840135165b61069a9190612e6a565b600060a0820135606080840135901c6001600160601b0316612891565b6040805180820182526001600160a01b038084168252600060208084018281528984168084528383528684208a86168086529084528785208a865290935292869020945190516001600160601b0316600160a01b029316929092179092559151849291907f460a431c86ecaea27134277388c72021356689d9eb62c3b25a5e4a97da7a8a1490612980907f00000000000000000000000000000000000000000000000000000000000000009087906001600160a01b0392831681529116602082015260400190565b60405180910390a450505050565b6001600160a01b038116811461055357600080fd5b80356118348161298e565b6000806000606084860312156129c357600080fd5b83356129ce8161298e565b925060208401356129de8161298e565b929592945050506040919091013590565b600061010082840312156107b957600080fd5b600061012082840312156107b957600080fd5b600080828403610160811215612a2a57600080fd5b612a348585612a02565b9250604061011f1982011215612a4957600080fd5b50610120830190509250929050565b60006101208284031215612a6b57600080fd5b6104e88383612a02565b600060208284031215612a8757600080fd5b81356104e88161298e565b60008060408385031215612aa557600080fd5b823591506020830135612ab78161298e565b809150509250929050565b801515811461055357600080fd5b60008060008060808587031215612ae657600080fd5b8435612af18161298e565b93506020850135612b018161298e565b9250604085013591506060850135612b1881612ac2565b939692955090935050565b60008060408385031215612b3657600080fd5b8235612b418161298e565b946020939093013593505050565b60008060008060608587031215612b6557600080fd5b8435612b708161298e565b93506020850135612b808161298e565b9250604085013567ffffffffffffffff80821115612b9d57600080fd5b818701915087601f830112612bb157600080fd5b813581811115612bc057600080fd5b8860208260051b8501011115612bd557600080fd5b95989497505060200194505050565b6020808252825182820181905260009190848201906040850190845b81811015612c255783516001600160a01b031683529284019291840191600101612c00565b50909695505050505050565b600080600080600060a08688031215612c4957600080fd5b8535612c548161298e565b94506020860135612c648161298e565b94979496505050506040830135926060810135926080909101359150565b600060208284031215612c9457600080fd5b5035919050565b600060208284031215612cad57600080fd5b81516104e881612ac2565b634e487b7160e01b600052604160045260246000fd5b6000610100808385031215612ce257600080fd5b6040519081019067ffffffffffffffff82118183101715612d1357634e487b7160e01b600052604160045260246000fd5b81604052612d20846129a3565b8152612d2e602085016129a3565b602082015260408401356040820152606084013560608201526080840135608082015260a084013560a082015260c084013560c082015260e084013560e0820152809250505092915050565b60208082526018908201527f416363657373436f6e74726f6c6c65642f496e76616c69640000000000000000604082015260600190565b600060208284031215612dc357600080fd5b5051919050565b634e487b7160e01b600052601160045260246000fd5b60008219821115612df357612df3612dca565b500190565b634e487b7160e01b600052603260045260246000fd5b600060018201612e2057612e20612dca565b5060010190565b60008060408385031215612e3a57600080fd5b505080516020909101519092909150565b6000816000190483118215151615612e6557612e65612dca565b500290565b600082821015612e7c57612e7c612dca565b500390565b634e487b7160e01b600052601260045260246000fdfea26469706673582212203d026d5a09316918330bfdd55595d1e46c5781ca9bf982fac7d5d8819e2c076964736f6c634300080e00336101206040523480156200001257600080fd5b5060405162003d8738038062003d8783398101604081905262000035916200037c565b828282620aae603380620000905760405162461bcd60e51b815260206004820152601860248201527f616363657373436f6e74726f6c6c65642f307841646d696e000000000000000060448201526064015b60405180910390fd5b80620000a66200032d60201b620011fe1760201c565b80546001600160a01b0319166001600160a01b03929092169190911790555062ffffff811681146200011b5760405162461bcd60e51b815260206004820152601e60248201527f4162737472616374526f757465722f6f76657268656164546f6f486967680000604482015260640162000087565b60015561ffff82166101005260e08190526040516321f8a72160e01b81526b50524943455f4f5241434c4560a01b60048201526000906001600160a01b038516906321f8a72190602401602060405180830381865afa15801562000183573d6000803e3d6000fd5b505050506040513d601f19601f82011682018060405250810190620001a99190620003b4565b90506000846001600160a01b031663026b1d5f6040518163ffffffff1660e01b8152600401602060405180830381865afa158015620001ec573d6000803e3d6000fd5b505050506040513d601f19601f82011682018060405250810190620002129190620003b4565b90506001600160a01b0382166200026c5760405162461bcd60e51b815260206004820152601860248201527f416176654d6f64756c652f307850726963654f7261636c650000000000000000604482015260640162000087565b6001600160a01b038116620002b85760405162461bcd60e51b815260206004820152601160248201527010585d99535bd91d5b194bcc1e141bdbdb607a1b604482015260640162000087565b6001600160a01b0380821660a052821660c05260405181908390620002dd9062000351565b6001600160a01b03928316815291166020820152604001604051809103906000f08015801562000311573d6000803e3d6000fd5b506001600160a01b031660805250620003d99650505050505050565b7f7d382ebca3e46505071795e192d28166a3d4bd0685585591bc6c5b8df6769fd290565b61140f806200297883390190565b80516001600160a01b03811681146200037757600080fd5b919050565b6000806000606084860312156200039257600080fd5b6200039d846200035f565b925060208401519150604084015190509250925092565b600060208284031215620003c757600080fd5b620003d2826200035f565b9392505050565b60805160a05160c05160e051610100516124e36200049560003960008181610331015281816116660152818161186f0152611a560152600081816104b0015281816109570152818161157d015281816118460152611a30015260006103a801526000818161045c015281816105f20152818161099c01528181610a3101528181610dfe015281816115ab0152818161168d015281816117060152818161189e01526119fb015260008181610ba90152611ad201526124e36000f3fe60806040526004361061019c5760003560e01c806352da17a4116100ec578063b0a02abe1161008a578063d7c153a811610064578063d7c153a814610552578063e5cd487f14610565578063f850a81c14610585578063f851a440146105a557600080fd5b8063b0a02abe146104f2578063ca34f9ec14610512578063cf5e7bd31461053257600080fd5b80637535d246116100c65780637535d2461461044a57806381bac14f1461047e57806383008bd91461049e5780638faf5531146104d257600080fd5b806352da17a4146103ea5780635a3e96181461040a578063704b6c021461042a57600080fd5b806326e8eda2116101595780633583849a116101335780633583849a1461031f578063362aecb11461036657806338013f0214610396578063492fffc7146103ca57600080fd5b806326e8eda2146102b557806332563bc7146102d7578063333dbb0d146102ff57600080fd5b80630417ffda146101a157806305684fde146101ca5780630efc8fd2146101ea5780632026ffa31461022257806321754d9e146102505780632197c31e14610280575b600080fd5b3480156101ad57600080fd5b506101b760015481565b6040519081526020015b60405180910390f35b3480156101d657600080fd5b506101b76101e5366004611b67565b6105ba565b3480156101f657600080fd5b5061020a610205366004611ba0565b6105d0565b6040516001600160a01b0390911681526020016101c1565b34801561022e57600080fd5b5061024261023d366004611c09565b61066b565b6040516101c1929190611c5e565b34801561025c57600080fd5b5061027061026b366004611ce2565b6106c7565b60405190151581526020016101c1565b34801561028c57600080fd5b506102a061029b366004611d41565b61070d565b604080519283526020830191909152016101c1565b3480156102c157600080fd5b506102d56102d0366004611d8c565b61084f565b005b3480156102e357600080fd5b506101b76102f2366004611ba0565b6001600160a01b03163190565b34801561030b57600080fd5b506101b761031a366004611dcd565b61088f565b34801561032b57600080fd5b506103537f000000000000000000000000000000000000000000000000000000000000000081565b60405161ffff90911681526020016101c1565b34801561037257600080fd5b50610270610381366004611ba0565b60006020819052908152604090205460ff1681565b3480156103a257600080fd5b5061020a7f000000000000000000000000000000000000000000000000000000000000000081565b3480156103d657600080fd5b5061020a6103e5366004611ba0565b610953565b3480156103f657600080fd5b506102d5610405366004611e20565b610aa9565b34801561041657600080fd5b506102d5610425366004611e68565b610b55565b34801561043657600080fd5b506102d5610445366004611ba0565b610c3b565b34801561045657600080fd5b5061020a7f000000000000000000000000000000000000000000000000000000000000000081565b34801561048a57600080fd5b506102d5610499366004611ba0565b610cf3565b3480156104aa57600080fd5b506101b77f000000000000000000000000000000000000000000000000000000000000000081565b3480156104de57600080fd5b506102d56104ed366004611e20565b610d69565b3480156104fe57600080fd5b506101b761050d366004611b67565b610dda565b34801561051e57600080fd5b506102d561052d366004611ba0565b610f71565b34801561053e57600080fd5b506102d561054d366004611ba0565b610f80565b610270610560366004611ba0565b610ff3565b34801561057157600080fd5b506102d5610580366004611e20565b611031565b34801561059157600080fd5b506102d56105a0366004611eda565b6110cb565b3480156105b157600080fd5b5061020a6111e5565b60006105c88360008461070d565b509392505050565b6040516335ea6a7560e01b81526001600160a01b0382811660048301526000917f0000000000000000000000000000000000000000000000000000000000000000909116906335ea6a75906024016101e060405180830381865afa15801561063c573d6000803e3d6000fd5b505050506040513d601f19601f82011682018060405250810190610660919061202b565b610100015192915050565b6060806106766111e5565b6001600160a01b0316336001600160a01b0316146106af5760405162461bcd60e51b81526004016106a69061214e565b60405180910390fd5b6106ba858585611222565b915091505b935093915050565b3360009081526020819052604081205460ff166106f65760405162461bcd60e51b81526004016106a690612185565b610702858585856112a6565b90505b949350505050565b6040516001600160a01b0384811660248301528315156044830152821660648201526000908190819081903090630b47d2c360e31b9063fd8c045160e01b9060840160408051601f198184030181529181526020820180516001600160e01b03166001600160e01b031990941693909317909252905161079091906024016121de565b60408051601f198184030181529181526020820180516001600160e01b03166001600160e01b03199094169390931790925290516107ce9190612211565b600060405180830381855afa9150503d8060008114610809576040519150601f19603f3d011682016040523d82523d6000602084013e61080e565b606091505b509150915081610826576108218161133c565b610845565b8080602001905181019061083a919061222d565b9350935050506106bf565b5050935093915050565b3360009081526020819052604090205460ff1661087e5760405162461bcd60e51b81526004016106a690612185565b61088a83833384611395565b505050565b3360009081526020819052604081205460ff166108be5760405162461bcd60e51b81526004016106a690612185565b6040516370a0823160e01b81523360048201526000906001600160a01b038716906370a0823190602401602060405180830381865afa158015610905573d6000803e3d6000fd5b505050506040513d601f19601f820116820180604052508101906109299190612251565b905083811061093c576000915050610705565b61094986863387876113f8565b9695505050505050565b60007f0000000000000000000000000000000000000000000000000000000000000000600114610a12576040516335ea6a7560e01b81526001600160a01b0383811660048301527f000000000000000000000000000000000000000000000000000000000000000016906335ea6a75906024016101e060405180830381865afa1580156109e4573d6000803e3d6000fd5b505050506040513d601f19601f82011682018060405250810190610a08919061202b565b6101400151610aa3565b6040516335ea6a7560e01b81526001600160a01b0383811660048301527f000000000000000000000000000000000000000000000000000000000000000016906335ea6a75906024016101e060405180830381865afa158015610a79573d6000803e3d6000fd5b505050506040513d601f19601f82011682018060405250810190610a9d919061202b565b61012001515b92915050565b610ab16111e5565b6001600160a01b0316336001600160a01b031614610ae15760405162461bcd60e51b81526004016106a69061214e565b610aed84828585611452565b610b435760405162461bcd60e51b815260206004820152602160248201527f41617665526f757465722f72657061792f7472616e7366657246726f6d4661696044820152601b60fa1b60648201526084016106a6565b610b4e84838561154f565b5050505050565b333014610ba45760405162461bcd60e51b815260206004820152601760248201527f416176654d6f64756c652f696e7465726e616c4f6e6c7900000000000000000060448201526064016106a6565b6000807f00000000000000000000000000000000000000000000000000000000000000006001600160a01b03168484604051610be192919061226a565b600060405180830381855af49150503d8060008114610c1c576040519150601f19603f3d011682016040523d82523d6000602084013e610c21565b606091505b509150915081610c3457610c348161133c565b3d60208201f35b610c436111e5565b6001600160a01b0316336001600160a01b031614610c735760405162461bcd60e51b81526004016106a69061214e565b6001600160a01b038116610cc95760405162461bcd60e51b815260206004820152601860248201527f416363657373436f6e74726f6c6c65642f307841646d696e000000000000000060448201526064016106a6565b80610cd26111fe565b80546001600160a01b0319166001600160a01b039290921691909117905550565b610cfb6111e5565b6001600160a01b0316336001600160a01b03161480610d2957503360009081526020819052604090205460ff165b610d455760405162461bcd60e51b81526004016106a690612185565b6001600160a01b03166000908152602081905260409020805460ff19166001179055565b610d716111e5565b6001600160a01b0316336001600160a01b031614610da15760405162461bcd60e51b81526004016106a69061214e565b610dad84828585611452565b610dc95760405162461bcd60e51b81526004016106a69061227a565b610dd4848385611628565b50505050565b6040516335ea6a7560e01b81526001600160a01b03838116600483015260009182917f000000000000000000000000000000000000000000000000000000000000000016906335ea6a75906024016101e060405180830381865afa158015610e46573d6000803e3d6000fd5b505050506040513d601f19601f82011682018060405250810190610e6a919061202b565b6101408101516040516370a0823160e01b81526001600160a01b038681166004830152929350600092909116906370a0823190602401602060405180830381865afa158015610ebd573d6000803e3d6000fd5b505050506040513d601f19601f82011682018060405250810190610ee19190612251565b6101208301516040516370a0823160e01b81526001600160a01b038781166004830152929350600092909116906370a0823190602401602060405180830381865afa158015610f34573d6000803e3d6000fd5b505050506040513d601f19601f82011682018060405250810190610f589190612251565b905081811015610f685781610949565b95945050505050565b610f7d816000196116ef565b50565b610f886111e5565b6001600160a01b0316336001600160a01b03161480610fb657503360009081526020819052604090205460ff165b610fd25760405162461bcd60e51b81526004016106a690612185565b6001600160a01b03166000908152602081905260409020805460ff19169055565b3360009081526020819052604081205460ff166110225760405162461bcd60e51b81526004016106a690612185565b610aa38234611782565b919050565b6110396111e5565b6001600160a01b0316336001600160a01b0316146110695760405162461bcd60e51b81526004016106a69061214e565b611074848385611820565b61107f8482846118cd565b610dd45760405162461bcd60e51b815260206004820152601e60248201527f41617665526f757465722f626f72726f772f7472616e736665724661696c000060448201526064016106a6565b3360009081526020819052604090205460ff166110fa5760405162461bcd60e51b81526004016106a690612185565b60005b82811015610dd4576000848483818110611119576111196122bc565b905060200201602081019061112e9190611ba0565b6040516370a0823160e01b81523360048201526001600160a01b0391909116906370a0823190602401602060405180830381865afa158015611174573d6000803e3d6000fd5b505050506040513d601f19601f820116820180604052508101906111989190612251565b905080156111d2576111d28585848181106111b5576111b56122bc565b90506020020160208101906111ca9190611ba0565b843384611395565b50806111dd816122d2565b9150506110fd565b60006111ef6111fe565b546001600160a01b0316919050565b7f7d382ebca3e46505071795e192d28166a3d4bd0685585591bc6c5b8df6769fd290565b606080846001600160a01b031663bf90f63a85856040518363ffffffff1660e01b81526004016112539291906122f9565b6000604051808303816000875af1158015611272573d6000803e3d6000fd5b505050506040513d6000823e601f3d908101601f1916820160405261129a91908101906123cb565b90969095509350505050565b60006112bc6112b4866105d0565b853085611452565b6112d85760405162461bcd60e51b81526004016106a69061227a565b816112e48684866119c5565b146113315760405162461bcd60e51b815260206004820152601d60248201527f41617665526f757465722f7769746864726177546f6b656e2f4661696c00000060448201526064016106a6565b506001949350505050565b805160000361138d5760405162461bcd60e51b815260206004820181905260248201527f416176654d6f64756c6553746f726167652f7265766572744e6f526561736f6e60448201526064016106a6565b805160208201fd5b6113a184833084611452565b6113ed5760405162461bcd60e51b815260206004820152601c60248201527f41617665526f757465722f707573682f7472616e736665724661696c0000000060448201526064016106a6565b610dd4848483611a2a565b60008061140587876105ba565b905082156114235780841061141a578061141c565b835b9350611427565b8093505b61143b611433886105d0565b873087611452565b506114478785876119c5565b979650505050505050565b60008115806114725750826001600160a01b0316846001600160a01b0316145b1561147f57506001610705565b604080516001600160a01b0386811660248301528581166044830152606480830186905283518084039091018152608490920183526020820180516001600160e01b03166323b872dd60e01b17905291516000928392908916916114e39190612211565b6000604051808303816000865af19150503d8060008114611520576040519150601f19603f3d011682016040523d82523d6000602084013e611525565b606091505b50915091508180156114475750805115806114475750808060200190518101906114479190612490565b6000821561161e5760405163573ade8160e01b81526001600160a01b038581166004830152602482018590527f0000000000000000000000000000000000000000000000000000000000000000604483015283811660648301527f0000000000000000000000000000000000000000000000000000000000000000169063573ade81906084015b6020604051808303816000875af11580156115f5573d6000803e3d6000fd5b505050506040513d601f19601f820116820180604052508101906116199190612251565b610705565b6000949350505050565b8160000361163557505050565b60405163617ba03760e01b81526001600160a01b03848116600483015260248201849052828116604483015261ffff7f00000000000000000000000000000000000000000000000000000000000000001660648301527f0000000000000000000000000000000000000000000000000000000000000000169063617ba037906084015b600060405180830381600087803b1580156116d257600080fd5b505af11580156116e6573d6000803e3d6000fd5b50505050505050565b60405163095ea7b360e01b81526001600160a01b037f0000000000000000000000000000000000000000000000000000000000000000811660048301526024820183905283169063095ea7b3906044016020604051808303816000875af115801561175e573d6000803e3d6000fd5b505050506040513d601f19601f8201168201806040525081019061088a9190612490565b6000826001600160a01b03168260405160006040518083038185875af1925050503d80600081146117cf576040519150601f19603f3d011682016040523d82523d6000602084013e6117d4565b606091505b50508091505080610aa35760405162461bcd60e51b81526020600482015260166024820152751b59dd93dc99195c8bdb5bcbdc99599d5b9911985a5b60521b60448201526064016106a6565b60405163a415bcad60e01b81526001600160a01b038481166004830152602482018490527f0000000000000000000000000000000000000000000000000000000000000000604483015261ffff7f000000000000000000000000000000000000000000000000000000000000000016606483015282811660848301527f0000000000000000000000000000000000000000000000000000000000000000169063a415bcad9060a4016116b8565b60008115806118e457506001600160a01b03831630145b156118f1575060016119be565b604080516001600160a01b038581166024830152604480830186905283518084039091018152606490920183526020820180516001600160e01b031663a9059cbb60e01b179052915160009283929088169161194d9190612211565b6000604051808303816000865af19150503d806000811461198a576040519150601f19603f3d011682016040523d82523d6000602084013e61198f565b606091505b50915091508180156119b95750805115806119b95750808060200190518101906119b99190612490565b925050505b9392505050565b6000821561161e57604051631a4ca37b60e21b81526001600160a01b0385811660048301526024820185905283811660448301527f000000000000000000000000000000000000000000000000000000000000000016906369328dec906064016115d6565b604080517f000000000000000000000000000000000000000000000000000000000000000060248201527f000000000000000000000000000000000000000000000000000000000000000061ffff1660448201526001600160a01b038581166064830152848116608483015260a48083018590528351808403909101815260c490920183526020820180516001600160e01b03166301c77dc560e11b179052915160009283927f000000000000000000000000000000000000000000000000000000000000000090911691611aff9190612211565b600060405180830381855af49150503d8060008114611b3a576040519150601f19603f3d011682016040523d82523d6000602084013e611b3f565b606091505b509150915081610b4e57610b4e8161133c565b6001600160a01b0381168114610f7d57600080fd5b60008060408385031215611b7a57600080fd5b8235611b8581611b52565b91506020830135611b9581611b52565b809150509250929050565b600060208284031215611bb257600080fd5b81356119be81611b52565b60008083601f840112611bcf57600080fd5b50813567ffffffffffffffff811115611be757600080fd5b6020830191508360208260051b8501011115611c0257600080fd5b9250929050565b600080600060408486031215611c1e57600080fd5b8335611c2981611b52565b9250602084013567ffffffffffffffff811115611c4557600080fd5b611c5186828701611bbd565b9497909650939450505050565b604080825283519082018190526000906020906060840190828701845b82811015611ca05781516001600160a01b031684529284019290840190600101611c7b565b5050508381038285015284518082528583019183019060005b81811015611cd557835183529284019291840191600101611cb9565b5090979650505050505050565b60008060008060808587031215611cf857600080fd5b8435611d0381611b52565b93506020850135611d1381611b52565b92506040850135611d2381611b52565b9396929550929360600135925050565b8015158114610f7d57600080fd5b600080600060608486031215611d5657600080fd5b8335611d6181611b52565b92506020840135611d7181611d33565b91506040840135611d8181611b52565b809150509250925092565b600080600060608486031215611da157600080fd5b8335611dac81611b52565b92506020840135611dbc81611b52565b929592945050506040919091013590565b60008060008060808587031215611de357600080fd5b8435611dee81611b52565b93506020850135611dfe81611b52565b9250604085013591506060850135611e1581611d33565b939692955090935050565b60008060008060808587031215611e3657600080fd5b8435611e4181611b52565b93506020850135611e5181611b52565b9250604085013591506060850135611e1581611b52565b60008060208385031215611e7b57600080fd5b823567ffffffffffffffff80821115611e9357600080fd5b818501915085601f830112611ea757600080fd5b813581811115611eb657600080fd5b866020828501011115611ec857600080fd5b60209290920196919550909350505050565b600080600060408486031215611eef57600080fd5b833567ffffffffffffffff811115611f0657600080fd5b611f1286828701611bbd565b9094509250506020840135611d8181611b52565b634e487b7160e01b600052604160045260246000fd5b6040516101e0810167ffffffffffffffff81118282101715611f6057611f60611f26565b60405290565b604051601f8201601f1916810167ffffffffffffffff81118282101715611f8f57611f8f611f26565b604052919050565b600060208284031215611fa957600080fd5b6040516020810181811067ffffffffffffffff82111715611fcc57611fcc611f26565b6040529151825250919050565b80516fffffffffffffffffffffffffffffffff8116811461102c57600080fd5b805164ffffffffff8116811461102c57600080fd5b805161ffff8116811461102c57600080fd5b805161102c81611b52565b60006101e0828403121561203e57600080fd5b612046611f3c565b6120508484611f97565b815261205e60208401611fd9565b602082015261206f60408401611fd9565b604082015261208060608401611fd9565b606082015261209160808401611fd9565b60808201526120a260a08401611fd9565b60a08201526120b360c08401611ff9565b60c08201526120c460e0840161200e565b60e08201526101006120d7818501612020565b908201526101206120e9848201612020565b908201526101406120fb848201612020565b9082015261016061210d848201612020565b9082015261018061211f848201611fd9565b908201526101a0612131848201611fd9565b908201526101c0612143848201611fd9565b908201529392505050565b60208082526018908201527f416363657373436f6e74726f6c6c65642f496e76616c69640000000000000000604082015260600190565b602080825260139082015272149bdd5d195c8bdd5b985d5d1a1bdc9a5e9959606a1b604082015260600190565b60005b838110156121cd5781810151838201526020016121b5565b83811115610dd45750506000910152565b60208152600082518060208401526121fd8160408501602087016121b2565b601f01601f19169190910160400192915050565b600082516122238184602087016121b2565b9190910192915050565b6000806040838503121561224057600080fd5b505080516020909101519092909150565b60006020828403121561226357600080fd5b5051919050565b8183823760009101908152919050565b60208082526022908201527f41617665526f757465722f737570706c792f7472616e7366657246726f6d46616040820152611a5b60f21b606082015260800190565b634e487b7160e01b600052603260045260246000fd5b6000600182016122f257634e487b7160e01b600052601160045260246000fd5b5060010190565b60208082528181018390526000908460408401835b8681101561233c57823561232181611b52565b6001600160a01b03168252918301919083019060010161230e565b509695505050505050565b600067ffffffffffffffff82111561236157612361611f26565b5060051b60200190565b600082601f83011261237c57600080fd5b8151602061239161238c83612347565b611f66565b82815260059290921b840181019181810190868411156123b057600080fd5b8286015b8481101561233c57805183529183019183016123b4565b600080604083850312156123de57600080fd5b825167ffffffffffffffff808211156123f657600080fd5b818501915085601f83011261240a57600080fd5b8151602061241a61238c83612347565b82815260059290921b8401810191818101908984111561243957600080fd5b948201945b8386101561246057855161245181611b52565b8252948201949082019061243e565b9188015191965090935050508082111561247957600080fd5b506124868582860161236b565b9150509250929050565b6000602082840312156124a257600080fd5b81516119be81611d3356fea2646970667358221220898f2cce0ce8b743f7f0e1651e4dd938b12ce63a5b56abe5a75fdb75c384d59364736f6c634300080e003360c060405234801561001057600080fd5b5060405161140f38038061140f83398101604081905261002f9161005e565b6001600160a01b039182166080521660a052610098565b6001600160a01b038116811461005b57600080fd5b50565b6000806040838503121561007157600080fd5b825161007c81610046565b602084015190925061008d81610046565b809150509250929050565b60805160a0516113156100fa60003960008181607601526109bf01526000818160ba0152818161014f015281816102f3015281816103b40152818161046b0152818161058001528181610666015281816107de015261088c01526113156000f3fe608060405234801561001057600080fd5b50600436106100575760003560e01c8063038efb8a1461005c57806338013f02146100715780637535d246146100b55780639105b83a146100dc578063fd8c0451146100fd575b600080fd5b61006f61006a366004610d84565b610125565b005b6100987f000000000000000000000000000000000000000000000000000000000000000081565b6040516001600160a01b0390911681526020015b60405180910390f35b6100987f000000000000000000000000000000000000000000000000000000000000000081565b6100ef6100ea366004610de4565b61041b565b6040519081526020016100ac565b61011061010b366004610e5f565b610749565b604080519283526020830191909152016100ac565b8015610414576040516335ea6a7560e01b81526001600160a01b03848116600483015260009182917f000000000000000000000000000000000000000000000000000000000000000016906335ea6a75906024016101e060405180830381865afa158015610197573d6000803e3d6000fd5b505050506040513d601f19601f820116820180604052508101906101bb9190610f89565b90508660010361023b576101208101516040516370a0823160e01b81523060048201526001600160a01b03909116906370a0823190602401602060405180830381865afa158015610210573d6000803e3d6000fd5b505050506040513d601f19601f8201168201806040525081019061023491906110ac565b91506102ad565b6101408101516040516370a0823160e01b81523060048201526001600160a01b03909116906370a0823190602401602060405180830381865afa158015610286573d6000803e3d6000fd5b505050506040513d601f19601f820116820180604052508101906102aa91906110ac565b91505b8260008390036102be57508261037c565b60405163573ade8160e01b81526001600160a01b03878116600483015260248201869052604482018a905286811660648301527f0000000000000000000000000000000000000000000000000000000000000000169063573ade81906084016020604051808303816000875af1925050508015610358575060408051601f3d908101601f19168201909252610355918101906110ac565b60015b1561037c5761036781836110db565b91508160000361037a5750505050610414565b505b60405163617ba03760e01b81526001600160a01b03878116600483015260248201839052868116604483015261ffff891660648301527f0000000000000000000000000000000000000000000000000000000000000000169063617ba03790608401600060405180830381600087803b1580156103f857600080fd5b505af115801561040c573d6000803e3d6000fd5b505050505050505b5050505050565b600080600061042c88600189610749565b915091508415610448578582106104435785610445565b815b91505b6040516335ea6a7560e01b81526001600160a01b0389811660048301526104e6917f0000000000000000000000000000000000000000000000000000000000000000909116906335ea6a75906024016101e060405180830381865afa1580156104b5573d6000803e3d6000fd5b505050506040513d601f19601f820116820180604052508101906104d99190610f89565b6101000151883085610b6a565b61054c5760405162461bcd60e51b815260206004820152602c60248201527f416176654d6f64756c652f72656465656d5468656e426f72726f772f61546b6e60448201526b151c985b9cd9995c91985a5b60a21b60648201526084015b60405180910390fd5b81156105ef57604051631a4ca37b60e21b81526001600160a01b0389811660048301526024820184905285811660448301527f000000000000000000000000000000000000000000000000000000000000000016906369328dec906064016020604051808303816000875af11580156105c9573d6000803e3d6000fd5b505050506040513d601f19601f820116820180604052508101906105ed91906110ac565b505b85821015806105fc575080155b156106095750905061073e565b61061382876110db565b95508581116106225780610624565b855b60405163a415bcad60e01b81526001600160a01b038a8116600483015260248201839052604482018d905261ffff8c16606483015289811660848301529192507f00000000000000000000000000000000000000000000000000000000000000009091169063a415bcad9060a401600060405180830381600087803b1580156106ac57600080fd5b505af11580156106c0573d6000803e3d6000fd5b505050506106cf888583610c74565b61072f5760405162461bcd60e51b815260206004820152602b60248201527f416176654d6f64756c652f72656465656d5468656e426f72726f772f546b6e5460448201526a1c985b9cd9995c91985a5b60aa1b6064820152608401610543565b61073981836110f2565b925050505b979650505050505050565b6000806107776040518060800160405280600081526020016000815260200160008152602001600081525090565b6107bf60405180610100016040528060008152602001600081526020016000815260200160008152602001600081526020016000815260200160008152602001600081525090565b604051632fe4a15f60e21b81526001600160a01b0386811660048301527f0000000000000000000000000000000000000000000000000000000000000000169063bf92857c9060240160c060405180830381865afa158015610825573d6000803e3d6000fd5b505050506040513d601f19601f82011682018060405250810190610849919061110a565b60c0870152608086015260a08501526040808501919091526020840191909152908252516335ea6a7560e01b81526001600160a01b0388811660048301526000917f0000000000000000000000000000000000000000000000000000000000000000909116906335ea6a75906024016101e060405180830381865afa1580156108d6573d6000803e3d6000fd5b505050506040513d601f19601f820116820180604052508101906108fa9190610f89565b80515160ff603082901c1660408681019190915261ffff601083901c81166020808901919091529216865261010083015181516370a0823160e01b81526001600160a01b038b8116600483015292519495509116926370a08231926024808401939192918290030181865afa158015610977573d6000803e3d6000fd5b505050506040513d601f19601f8201168201806040525081019061099b91906110ac565b60e083015260405163b3596f0760e01b81526001600160a01b0389811660048301527f0000000000000000000000000000000000000000000000000000000000000000169063b3596f0790602401602060405180830381865afa158015610a06573d6000803e3d6000fd5b505050506040513d601f19601f82011682018060405250810190610a2a91906110ac565b60608401526020820151825160a084015161271091610a4891611154565b610a529190611173565b610a5c91906110db565b6060808401919091528301516020840151600091610a7991611154565b6040850151610a8990600a61127b565b8460600151610a989190611154565b610aa490612710611154565b610aae9190611173565b90508260e001518110610ac5578260e00151610ac7565b805b905087610add57945060009350610b6292505050565b835160009061271090610af09084611154565b610afa9190611173565b9050600085606001518660400151600a610b14919061127b565b8660400151610b239190611154565b610b2d9190611173565b905080821115610b495782600097509750505050505050610b62565b6000610b5583836110db565b9398509296505050505050505b935093915050565b6000811580610b8a5750826001600160a01b0316846001600160a01b0316145b15610b9757506001610c6c565b604080516001600160a01b0386811660248301528581166044830152606480830186905283518084039091018152608490920183526020820180516001600160e01b03166323b872dd60e01b1790529151600092839290891691610bfb9190611287565b6000604051808303816000865af19150503d8060008114610c38576040519150601f19603f3d011682016040523d82523d6000602084013e610c3d565b606091505b5091509150818015610c67575080511580610c67575080806020019051810190610c6791906112c2565b925050505b949350505050565b6000811580610c8b57506001600160a01b03831630145b15610c9857506001610d65565b604080516001600160a01b038581166024830152604480830186905283518084039091018152606490920183526020820180516001600160e01b031663a9059cbb60e01b1790529151600092839290881691610cf49190611287565b6000604051808303816000865af19150503d8060008114610d31576040519150601f19603f3d011682016040523d82523d6000602084013e610d36565b606091505b5091509150818015610d60575080511580610d60575080806020019051810190610d6091906112c2565b925050505b9392505050565b6001600160a01b0381168114610d8157600080fd5b50565b600080600080600060a08688031215610d9c57600080fd5b85359450602086013593506040860135610db581610d6c565b92506060860135610dc581610d6c565b949793965091946080013592915050565b8015158114610d8157600080fd5b600080600080600080600060e0888a031215610dff57600080fd5b87359650602088013595506040880135610e1881610d6c565b94506060880135610e2881610d6c565b93506080880135925060a0880135610e3f81610dd6565b915060c0880135610e4f81610d6c565b8091505092959891949750929550565b600080600060608486031215610e7457600080fd5b8335610e7f81610d6c565b92506020840135610e8f81610dd6565b91506040840135610e9f81610d6c565b809150509250925092565b6040516101e0810167ffffffffffffffff81118282101715610edc57634e487b7160e01b600052604160045260246000fd5b60405290565b600060208284031215610ef457600080fd5b6040516020810181811067ffffffffffffffff82111715610f2557634e487b7160e01b600052604160045260246000fd5b6040529151825250919050565b80516fffffffffffffffffffffffffffffffff81168114610f5257600080fd5b919050565b805164ffffffffff81168114610f5257600080fd5b805161ffff81168114610f5257600080fd5b8051610f5281610d6c565b60006101e08284031215610f9c57600080fd5b610fa4610eaa565b610fae8484610ee2565b8152610fbc60208401610f32565b6020820152610fcd60408401610f32565b6040820152610fde60608401610f32565b6060820152610fef60808401610f32565b608082015261100060a08401610f32565b60a082015261101160c08401610f57565b60c082015261102260e08401610f6c565b60e0820152610100611035818501610f7e565b90820152610120611047848201610f7e565b90820152610140611059848201610f7e565b9082015261016061106b848201610f7e565b9082015261018061107d848201610f32565b908201526101a061108f848201610f32565b908201526101c06110a1848201610f32565b908201529392505050565b6000602082840312156110be57600080fd5b5051919050565b634e487b7160e01b600052601160045260246000fd5b6000828210156110ed576110ed6110c5565b500390565b60008219821115611105576111056110c5565b500190565b60008060008060008060c0878903121561112357600080fd5b865195506020870151945060408701519350606087015192506080870151915060a087015190509295509295509295565b600081600019048311821515161561116e5761116e6110c5565b500290565b60008261119057634e487b7160e01b600052601260045260246000fd5b500490565b600181815b808511156111d05781600019048211156111b6576111b66110c5565b808516156111c357918102915b93841c939080029061119a565b509250929050565b6000826111e757506001611275565b816111f457506000611275565b816001811461120a576002811461121457611230565b6001915050611275565b60ff841115611225576112256110c5565b50506001821b611275565b5060208310610133831016604e8410600b8410161715611253575081810a611275565b61125d8383611195565b8060001904821115611271576112716110c5565b0290505b92915050565b6000610d6583836111d8565b6000825160005b818110156112a8576020818601810151858301520161128e565b818111156112b7576000828501525b509190910192915050565b6000602082840312156112d457600080fd5b8151610d6581610dd656fea264697066735822122005e29a5e8a5ebeef1b1e2c87a110cc05b1aae95afef52eaf4e7fc2ca9a507af364736f6c634300080e0033",
    "linkReferences": {}
  },
  "methodIdentifiers": {
    "MGV()": "99fa5e2d",
    "admin()": "f851a440",
    "approveMangrove(address,uint256)": "aefe8403",
    "approveRouter(address)": "f259cd27",
    "getMissingProvision(address,address,uint256,uint256,uint256)": "e4c34f84",
    "has_router()": "84b627f9",
    "makerExecute((address,address,uint256,uint256,uint256,uint256,uint256,uint256,uint256))": "6c49c32c",
    "makerPosthook((address,address,uint256,uint256,uint256,uint256,uint256,uint256,uint256),(bytes32,bytes32))": "3d3d130d",
    "newOffer((address,address,uint256,uint256,uint256,uint256,uint256,uint256))": "5486c95f",
    "offerOwners(address,address,uint256[])": "dec8c86b",
    "ofr_gasreq()": "d1baa1ef",
    "ownerOf(address,address,uint256)": "f92495e5",
    "retractOffer(address,address,uint256,bool)": "ad97db1b",
    "router()": "f887ea40",
    "setAdmin(address)": "704b6c02",
    "set_gasreq(uint256)": "fc488a38",
    "set_router(address)": "db11851e",
    "tokenBalance(address)": "eedc966a",
    "updateOffer((address,address,uint256,uint256,uint256,uint256,uint256,uint256))": "10aded60",
    "withdrawFromMangrove(uint256,address)": "7144df24",
    "withdrawToken(address,address,uint256)": "01e33667"
  },
  "id": 95
}