{
  "abi": [
    {
      "inputs": [
        {
          "internalType": "address",
          "name": "_addressesProvider",
          "type": "address"
        },
        {
          "internalType": "uint256",
          "name": "_referralCode",
          "type": "uint256"
        },
        {
          "internalType": "uint256",
          "name": "_interestRateMode",
          "type": "uint256"
        }
      ],
      "stateMutability": "nonpayable",
      "type": "constructor"
    },
    {
      "inputs": [],
      "name": "INTEREST_RATE_MODE",
      "outputs": [
        {
          "internalType": "uint256",
          "name": "",
          "type": "uint256"
        }
      ],
      "stateMutability": "view",
      "type": "function"
    },
    {
      "inputs": [],
      "name": "ORACLE",
      "outputs": [
        {
          "internalType": "contract IPriceOracleGetter",
          "name": "",
          "type": "address"
        }
      ],
      "stateMutability": "view",
      "type": "function"
    },
    {
      "inputs": [],
      "name": "POOL",
      "outputs": [
        {
          "internalType": "contract IPool",
          "name": "",
          "type": "address"
        }
      ],
      "stateMutability": "view",
      "type": "function"
    },
    {
      "inputs": [],
      "name": "REFERRAL_CODE",
      "outputs": [
        {
          "internalType": "uint16",
          "name": "",
          "type": "uint16"
        }
      ],
      "stateMutability": "view",
      "type": "function"
    },
    {
      "inputs": [
        {
          "internalType": "bytes",
          "name": "data",
          "type": "bytes"
        }
      ],
      "name": "_staticdelegatecall",
      "outputs": [],
      "stateMutability": "nonpayable",
      "type": "function"
    },
    {
      "inputs": [],
      "name": "admin",
      "outputs": [
        {
          "internalType": "address",
          "name": "",
          "type": "address"
        }
      ],
      "stateMutability": "view",
      "type": "function"
    },
    {
      "inputs": [
        {
          "internalType": "contract IERC20",
          "name": "token",
          "type": "address"
        }
      ],
      "name": "approveLender",
      "outputs": [],
      "stateMutability": "nonpayable",
      "type": "function"
    },
    {
      "inputs": [
        {
          "internalType": "address",
          "name": "maker",
          "type": "address"
        }
      ],
      "name": "bind",
      "outputs": [],
      "stateMutability": "nonpayable",
      "type": "function"
    },
    {
      "inputs": [
        {
          "internalType": "contract IERC20",
          "name": "token",
          "type": "address"
        },
        {
          "internalType": "address",
          "name": "reserve",
          "type": "address"
        },
        {
          "internalType": "uint256",
          "name": "amount",
          "type": "uint256"
        },
        {
          "internalType": "address",
          "name": "to",
          "type": "address"
        }
      ],
      "name": "borrow",
      "outputs": [],
      "stateMutability": "nonpayable",
      "type": "function"
    },
    {
      "inputs": [
        {
          "internalType": "address",
          "name": "underlying",
          "type": "address"
        },
        {
          "internalType": "address",
          "name": "account",
          "type": "address"
        }
      ],
      "name": "borrowed",
      "outputs": [
        {
          "internalType": "uint256",
          "name": "",
          "type": "uint256"
        }
      ],
      "stateMutability": "view",
      "type": "function"
    },
    {
      "inputs": [
        {
          "internalType": "contract IRewardsControllerIsh",
          "name": "rewardsController",
          "type": "address"
        },
        {
          "internalType": "address[]",
          "name": "assets",
          "type": "address[]"
        }
      ],
      "name": "claimRewards",
      "outputs": [
        {
          "internalType": "address[]",
          "name": "rewardsList",
          "type": "address[]"
        },
        {
          "internalType": "uint256[]",
          "name": "claimedAmounts",
          "type": "uint256[]"
        }
      ],
      "stateMutability": "nonpayable",
      "type": "function"
    },
    {
      "inputs": [
        {
          "internalType": "contract IERC20",
          "name": "asset",
          "type": "address"
        }
      ],
      "name": "debtToken",
      "outputs": [
        {
          "internalType": "contract ICreditDelegationToken",
          "name": "debtTkn",
          "type": "address"
        }
      ],
      "stateMutability": "view",
      "type": "function"
    },
    {
      "inputs": [
        {
          "internalType": "contract IERC20[]",
          "name": "tokens",
          "type": "address[]"
        },
        {
          "internalType": "address",
          "name": "reserve",
          "type": "address"
        }
      ],
      "name": "flush",
      "outputs": [],
      "stateMutability": "nonpayable",
      "type": "function"
    },
    {
      "inputs": [],
      "name": "gas_overhead",
      "outputs": [
        {
          "internalType": "uint256",
          "name": "",
          "type": "uint256"
        }
      ],
      "stateMutability": "view",
      "type": "function"
    },
    {
      "inputs": [
        {
          "internalType": "address",
          "name": "",
          "type": "address"
        }
      ],
      "name": "makers",
      "outputs": [
        {
          "internalType": "bool",
          "name": "",
          "type": "bool"
        }
      ],
      "stateMutability": "view",
      "type": "function"
    },
    {
      "inputs": [
        {
          "internalType": "contract IERC20",
          "name": "asset",
          "type": "address"
        },
        {
          "internalType": "bool",
          "name": "tryBorrow",
          "type": "bool"
        },
        {
          "internalType": "address",
          "name": "onBehalf",
          "type": "address"
        }
      ],
      "name": "maxGettableUnderlying",
      "outputs": [
        {
          "internalType": "uint256",
          "name": "maxRedeemableUnderlying",
          "type": "uint256"
        },
        {
          "internalType": "uint256",
          "name": "maxBorrowAfterRedeemInUnderlying",
          "type": "uint256"
        }
      ],
      "stateMutability": "view",
      "type": "function"
    },
    {
      "inputs": [
        {
          "internalType": "contract IERC20",
          "name": "asset",
          "type": "address"
        }
      ],
      "name": "overlying",
      "outputs": [
        {
          "internalType": "contract IERC20",
          "name": "aToken",
          "type": "address"
        }
      ],
      "stateMutability": "view",
      "type": "function"
    },
    {
      "inputs": [
        {
          "internalType": "contract IERC20",
          "name": "token",
          "type": "address"
        },
        {
          "internalType": "address",
          "name": "reserve",
          "type": "address"
        },
        {
          "internalType": "uint256",
          "name": "amount",
          "type": "uint256"
        },
        {
          "internalType": "bool",
          "name": "strict",
          "type": "bool"
        }
      ],
      "name": "pull",
      "outputs": [
        {
          "internalType": "uint256",
          "name": "pulled",
          "type": "uint256"
        }
      ],
      "stateMutability": "nonpayable",
      "type": "function"
    },
    {
      "inputs": [
        {
          "internalType": "contract IERC20",
          "name": "token",
          "type": "address"
        },
        {
          "internalType": "address",
          "name": "reserve",
          "type": "address"
        },
        {
          "internalType": "uint256",
          "name": "amount",
          "type": "uint256"
        }
      ],
      "name": "push",
      "outputs": [],
      "stateMutability": "nonpayable",
      "type": "function"
    },
    {
      "inputs": [
        {
          "internalType": "address",
          "name": "reserve",
          "type": "address"
        }
      ],
      "name": "push_native",
      "outputs": [
        {
          "internalType": "bool",
          "name": "",
          "type": "bool"
        }
      ],
      "stateMutability": "payable",
      "type": "function"
    },
    {
      "inputs": [
        {
          "internalType": "contract IERC20",
          "name": "token",
          "type": "address"
        },
        {
          "internalType": "address",
          "name": "reserve",
          "type": "address"
        },
        {
          "internalType": "uint256",
          "name": "amount",
          "type": "uint256"
        },
        {
          "internalType": "address",
          "name": "from",
          "type": "address"
        }
      ],
      "name": "repay",
      "outputs": [],
      "stateMutability": "nonpayable",
      "type": "function"
    },
    {
      "inputs": [
        {
          "internalType": "contract IERC20",
          "name": "token",
          "type": "address"
        },
        {
          "internalType": "address",
          "name": "reserve",
          "type": "address"
        }
      ],
      "name": "reserveBalance",
      "outputs": [
        {
          "internalType": "uint256",
          "name": "available",
          "type": "uint256"
        }
      ],
      "stateMutability": "view",
      "type": "function"
    },
    {
      "inputs": [
        {
          "internalType": "address",
          "name": "reserve",
          "type": "address"
        }
      ],
      "name": "reserveNativeBalance",
      "outputs": [
        {
          "internalType": "uint256",
          "name": "",
          "type": "uint256"
        }
      ],
      "stateMutability": "view",
      "type": "function"
    },
    {
      "inputs": [
        {
          "internalType": "address",
          "name": "_admin",
          "type": "address"
        }
      ],
      "name": "setAdmin",
      "outputs": [],
      "stateMutability": "nonpayable",
      "type": "function"
    },
    {
      "inputs": [
        {
          "internalType": "contract IERC20",
          "name": "token",
          "type": "address"
        },
        {
          "internalType": "address",
          "name": "reserve",
          "type": "address"
        },
        {
          "internalType": "uint256",
          "name": "amount",
          "type": "uint256"
        },
        {
          "internalType": "address",
          "name": "from",
          "type": "address"
        }
      ],
      "name": "supply",
      "outputs": [],
      "stateMutability": "nonpayable",
      "type": "function"
    },
    {
      "inputs": [
        {
          "internalType": "address",
          "name": "maker",
          "type": "address"
        }
      ],
      "name": "unbind",
      "outputs": [],
      "stateMutability": "nonpayable",
      "type": "function"
    },
    {
      "inputs": [
        {
          "internalType": "contract IERC20",
          "name": "token",
          "type": "address"
        },
        {
          "internalType": "address",
          "name": "reserve",
          "type": "address"
        },
        {
          "internalType": "address",
          "name": "recipient",
          "type": "address"
        },
        {
          "internalType": "uint256",
          "name": "amount",
          "type": "uint256"
        }
      ],
      "name": "withdrawToken",
      "outputs": [
        {
          "internalType": "bool",
          "name": "",
          "type": "bool"
        }
      ],
      "stateMutability": "nonpayable",
      "type": "function"
    }
  ],
  "bytecode": {
    "object": "0x6101206040523480156200001257600080fd5b5060405162003d8738038062003d8783398101604081905262000035916200037c565b828282620aae603380620000905760405162461bcd60e51b815260206004820152601860248201527f616363657373436f6e74726f6c6c65642f307841646d696e000000000000000060448201526064015b60405180910390fd5b80620000a66200032d60201b620011fe1760201c565b80546001600160a01b0319166001600160a01b03929092169190911790555062ffffff811681146200011b5760405162461bcd60e51b815260206004820152601e60248201527f4162737472616374526f757465722f6f76657268656164546f6f486967680000604482015260640162000087565b60015561ffff82166101005260e08190526040516321f8a72160e01b81526b50524943455f4f5241434c4560a01b60048201526000906001600160a01b038516906321f8a72190602401602060405180830381865afa15801562000183573d6000803e3d6000fd5b505050506040513d601f19601f82011682018060405250810190620001a99190620003b4565b90506000846001600160a01b031663026b1d5f6040518163ffffffff1660e01b8152600401602060405180830381865afa158015620001ec573d6000803e3d6000fd5b505050506040513d601f19601f82011682018060405250810190620002129190620003b4565b90506001600160a01b0382166200026c5760405162461bcd60e51b815260206004820152601860248201527f416176654d6f64756c652f307850726963654f7261636c650000000000000000604482015260640162000087565b6001600160a01b038116620002b85760405162461bcd60e51b815260206004820152601160248201527010585d99535bd91d5b194bcc1e141bdbdb607a1b604482015260640162000087565b6001600160a01b0380821660a052821660c05260405181908390620002dd9062000351565b6001600160a01b03928316815291166020820152604001604051809103906000f08015801562000311573d6000803e3d6000fd5b506001600160a01b031660805250620003d99650505050505050565b7f7d382ebca3e46505071795e192d28166a3d4bd0685585591bc6c5b8df6769fd290565b61140f806200297883390190565b80516001600160a01b03811681146200037757600080fd5b919050565b6000806000606084860312156200039257600080fd5b6200039d846200035f565b925060208401519150604084015190509250925092565b600060208284031215620003c757600080fd5b620003d2826200035f565b9392505050565b60805160a05160c05160e051610100516124e36200049560003960008181610331015281816116660152818161186f0152611a560152600081816104b0015281816109570152818161157d015281816118460152611a30015260006103a801526000818161045c015281816105f20152818161099c01528181610a3101528181610dfe015281816115ab0152818161168d015281816117060152818161189e01526119fb015260008181610ba90152611ad201526124e36000f3fe60806040526004361061019c5760003560e01c806352da17a4116100ec578063b0a02abe1161008a578063d7c153a811610064578063d7c153a814610552578063e5cd487f14610565578063f850a81c14610585578063f851a440146105a557600080fd5b8063b0a02abe146104f2578063ca34f9ec14610512578063cf5e7bd31461053257600080fd5b80637535d246116100c65780637535d2461461044a57806381bac14f1461047e57806383008bd91461049e5780638faf5531146104d257600080fd5b806352da17a4146103ea5780635a3e96181461040a578063704b6c021461042a57600080fd5b806326e8eda2116101595780633583849a116101335780633583849a1461031f578063362aecb11461036657806338013f0214610396578063492fffc7146103ca57600080fd5b806326e8eda2146102b557806332563bc7146102d7578063333dbb0d146102ff57600080fd5b80630417ffda146101a157806305684fde146101ca5780630efc8fd2146101ea5780632026ffa31461022257806321754d9e146102505780632197c31e14610280575b600080fd5b3480156101ad57600080fd5b506101b760015481565b6040519081526020015b60405180910390f35b3480156101d657600080fd5b506101b76101e5366004611b67565b6105ba565b3480156101f657600080fd5b5061020a610205366004611ba0565b6105d0565b6040516001600160a01b0390911681526020016101c1565b34801561022e57600080fd5b5061024261023d366004611c09565b61066b565b6040516101c1929190611c5e565b34801561025c57600080fd5b5061027061026b366004611ce2565b6106c7565b60405190151581526020016101c1565b34801561028c57600080fd5b506102a061029b366004611d41565b61070d565b604080519283526020830191909152016101c1565b3480156102c157600080fd5b506102d56102d0366004611d8c565b61084f565b005b3480156102e357600080fd5b506101b76102f2366004611ba0565b6001600160a01b03163190565b34801561030b57600080fd5b506101b761031a366004611dcd565b61088f565b34801561032b57600080fd5b506103537f000000000000000000000000000000000000000000000000000000000000000081565b60405161ffff90911681526020016101c1565b34801561037257600080fd5b50610270610381366004611ba0565b60006020819052908152604090205460ff1681565b3480156103a257600080fd5b5061020a7f000000000000000000000000000000000000000000000000000000000000000081565b3480156103d657600080fd5b5061020a6103e5366004611ba0565b610953565b3480156103f657600080fd5b506102d5610405366004611e20565b610aa9565b34801561041657600080fd5b506102d5610425366004611e68565b610b55565b34801561043657600080fd5b506102d5610445366004611ba0565b610c3b565b34801561045657600080fd5b5061020a7f000000000000000000000000000000000000000000000000000000000000000081565b34801561048a57600080fd5b506102d5610499366004611ba0565b610cf3565b3480156104aa57600080fd5b506101b77f000000000000000000000000000000000000000000000000000000000000000081565b3480156104de57600080fd5b506102d56104ed366004611e20565b610d69565b3480156104fe57600080fd5b506101b761050d366004611b67565b610dda565b34801561051e57600080fd5b506102d561052d366004611ba0565b610f71565b34801561053e57600080fd5b506102d561054d366004611ba0565b610f80565b610270610560366004611ba0565b610ff3565b34801561057157600080fd5b506102d5610580366004611e20565b611031565b34801561059157600080fd5b506102d56105a0366004611eda565b6110cb565b3480156105b157600080fd5b5061020a6111e5565b60006105c88360008461070d565b509392505050565b6040516335ea6a7560e01b81526001600160a01b0382811660048301526000917f0000000000000000000000000000000000000000000000000000000000000000909116906335ea6a75906024016101e060405180830381865afa15801561063c573d6000803e3d6000fd5b505050506040513d601f19601f82011682018060405250810190610660919061202b565b610100015192915050565b6060806106766111e5565b6001600160a01b0316336001600160a01b0316146106af5760405162461bcd60e51b81526004016106a69061214e565b60405180910390fd5b6106ba858585611222565b915091505b935093915050565b3360009081526020819052604081205460ff166106f65760405162461bcd60e51b81526004016106a690612185565b610702858585856112a6565b90505b949350505050565b6040516001600160a01b0384811660248301528315156044830152821660648201526000908190819081903090630b47d2c360e31b9063fd8c045160e01b9060840160408051601f198184030181529181526020820180516001600160e01b03166001600160e01b031990941693909317909252905161079091906024016121de565b60408051601f198184030181529181526020820180516001600160e01b03166001600160e01b03199094169390931790925290516107ce9190612211565b600060405180830381855afa9150503d8060008114610809576040519150601f19603f3d011682016040523d82523d6000602084013e61080e565b606091505b509150915081610826576108218161133c565b610845565b8080602001905181019061083a919061222d565b9350935050506106bf565b5050935093915050565b3360009081526020819052604090205460ff1661087e5760405162461bcd60e51b81526004016106a690612185565b61088a83833384611395565b505050565b3360009081526020819052604081205460ff166108be5760405162461bcd60e51b81526004016106a690612185565b6040516370a0823160e01b81523360048201526000906001600160a01b038716906370a0823190602401602060405180830381865afa158015610905573d6000803e3d6000fd5b505050506040513d601f19601f820116820180604052508101906109299190612251565b905083811061093c576000915050610705565b61094986863387876113f8565b9695505050505050565b60007f0000000000000000000000000000000000000000000000000000000000000000600114610a12576040516335ea6a7560e01b81526001600160a01b0383811660048301527f000000000000000000000000000000000000000000000000000000000000000016906335ea6a75906024016101e060405180830381865afa1580156109e4573d6000803e3d6000fd5b505050506040513d601f19601f82011682018060405250810190610a08919061202b565b6101400151610aa3565b6040516335ea6a7560e01b81526001600160a01b0383811660048301527f000000000000000000000000000000000000000000000000000000000000000016906335ea6a75906024016101e060405180830381865afa158015610a79573d6000803e3d6000fd5b505050506040513d601f19601f82011682018060405250810190610a9d919061202b565b61012001515b92915050565b610ab16111e5565b6001600160a01b0316336001600160a01b031614610ae15760405162461bcd60e51b81526004016106a69061214e565b610aed84828585611452565b610b435760405162461bcd60e51b815260206004820152602160248201527f41617665526f757465722f72657061792f7472616e7366657246726f6d4661696044820152601b60fa1b60648201526084016106a6565b610b4e84838561154f565b5050505050565b333014610ba45760405162461bcd60e51b815260206004820152601760248201527f416176654d6f64756c652f696e7465726e616c4f6e6c7900000000000000000060448201526064016106a6565b6000807f00000000000000000000000000000000000000000000000000000000000000006001600160a01b03168484604051610be192919061226a565b600060405180830381855af49150503d8060008114610c1c576040519150601f19603f3d011682016040523d82523d6000602084013e610c21565b606091505b509150915081610c3457610c348161133c565b3d60208201f35b610c436111e5565b6001600160a01b0316336001600160a01b031614610c735760405162461bcd60e51b81526004016106a69061214e565b6001600160a01b038116610cc95760405162461bcd60e51b815260206004820152601860248201527f416363657373436f6e74726f6c6c65642f307841646d696e000000000000000060448201526064016106a6565b80610cd26111fe565b80546001600160a01b0319166001600160a01b039290921691909117905550565b610cfb6111e5565b6001600160a01b0316336001600160a01b03161480610d2957503360009081526020819052604090205460ff165b610d455760405162461bcd60e51b81526004016106a690612185565b6001600160a01b03166000908152602081905260409020805460ff19166001179055565b610d716111e5565b6001600160a01b0316336001600160a01b031614610da15760405162461bcd60e51b81526004016106a69061214e565b610dad84828585611452565b610dc95760405162461bcd60e51b81526004016106a69061227a565b610dd4848385611628565b50505050565b6040516335ea6a7560e01b81526001600160a01b03838116600483015260009182917f000000000000000000000000000000000000000000000000000000000000000016906335ea6a75906024016101e060405180830381865afa158015610e46573d6000803e3d6000fd5b505050506040513d601f19601f82011682018060405250810190610e6a919061202b565b6101408101516040516370a0823160e01b81526001600160a01b038681166004830152929350600092909116906370a0823190602401602060405180830381865afa158015610ebd573d6000803e3d6000fd5b505050506040513d601f19601f82011682018060405250810190610ee19190612251565b6101208301516040516370a0823160e01b81526001600160a01b038781166004830152929350600092909116906370a0823190602401602060405180830381865afa158015610f34573d6000803e3d6000fd5b505050506040513d601f19601f82011682018060405250810190610f589190612251565b905081811015610f685781610949565b95945050505050565b610f7d816000196116ef565b50565b610f886111e5565b6001600160a01b0316336001600160a01b03161480610fb657503360009081526020819052604090205460ff165b610fd25760405162461bcd60e51b81526004016106a690612185565b6001600160a01b03166000908152602081905260409020805460ff19169055565b3360009081526020819052604081205460ff166110225760405162461bcd60e51b81526004016106a690612185565b610aa38234611782565b919050565b6110396111e5565b6001600160a01b0316336001600160a01b0316146110695760405162461bcd60e51b81526004016106a69061214e565b611074848385611820565b61107f8482846118cd565b610dd45760405162461bcd60e51b815260206004820152601e60248201527f41617665526f757465722f626f72726f772f7472616e736665724661696c000060448201526064016106a6565b3360009081526020819052604090205460ff166110fa5760405162461bcd60e51b81526004016106a690612185565b60005b82811015610dd4576000848483818110611119576111196122bc565b905060200201602081019061112e9190611ba0565b6040516370a0823160e01b81523360048201526001600160a01b0391909116906370a0823190602401602060405180830381865afa158015611174573d6000803e3d6000fd5b505050506040513d601f19601f820116820180604052508101906111989190612251565b905080156111d2576111d28585848181106111b5576111b56122bc565b90506020020160208101906111ca9190611ba0565b843384611395565b50806111dd816122d2565b9150506110fd565b60006111ef6111fe565b546001600160a01b0316919050565b7f7d382ebca3e46505071795e192d28166a3d4bd0685585591bc6c5b8df6769fd290565b606080846001600160a01b031663bf90f63a85856040518363ffffffff1660e01b81526004016112539291906122f9565b6000604051808303816000875af1158015611272573d6000803e3d6000fd5b505050506040513d6000823e601f3d908101601f1916820160405261129a91908101906123cb565b90969095509350505050565b60006112bc6112b4866105d0565b853085611452565b6112d85760405162461bcd60e51b81526004016106a69061227a565b816112e48684866119c5565b146113315760405162461bcd60e51b815260206004820152601d60248201527f41617665526f757465722f7769746864726177546f6b656e2f4661696c00000060448201526064016106a6565b506001949350505050565b805160000361138d5760405162461bcd60e51b815260206004820181905260248201527f416176654d6f64756c6553746f726167652f7265766572744e6f526561736f6e60448201526064016106a6565b805160208201fd5b6113a184833084611452565b6113ed5760405162461bcd60e51b815260206004820152601c60248201527f41617665526f757465722f707573682f7472616e736665724661696c0000000060448201526064016106a6565b610dd4848483611a2a565b60008061140587876105ba565b905082156114235780841061141a578061141c565b835b9350611427565b8093505b61143b611433886105d0565b873087611452565b506114478785876119c5565b979650505050505050565b60008115806114725750826001600160a01b0316846001600160a01b0316145b1561147f57506001610705565b604080516001600160a01b0386811660248301528581166044830152606480830186905283518084039091018152608490920183526020820180516001600160e01b03166323b872dd60e01b17905291516000928392908916916114e39190612211565b6000604051808303816000865af19150503d8060008114611520576040519150601f19603f3d011682016040523d82523d6000602084013e611525565b606091505b50915091508180156114475750805115806114475750808060200190518101906114479190612490565b6000821561161e5760405163573ade8160e01b81526001600160a01b038581166004830152602482018590527f0000000000000000000000000000000000000000000000000000000000000000604483015283811660648301527f0000000000000000000000000000000000000000000000000000000000000000169063573ade81906084015b6020604051808303816000875af11580156115f5573d6000803e3d6000fd5b505050506040513d601f19601f820116820180604052508101906116199190612251565b610705565b6000949350505050565b8160000361163557505050565b60405163617ba03760e01b81526001600160a01b03848116600483015260248201849052828116604483015261ffff7f00000000000000000000000000000000000000000000000000000000000000001660648301527f0000000000000000000000000000000000000000000000000000000000000000169063617ba037906084015b600060405180830381600087803b1580156116d257600080fd5b505af11580156116e6573d6000803e3d6000fd5b50505050505050565b60405163095ea7b360e01b81526001600160a01b037f0000000000000000000000000000000000000000000000000000000000000000811660048301526024820183905283169063095ea7b3906044016020604051808303816000875af115801561175e573d6000803e3d6000fd5b505050506040513d601f19601f8201168201806040525081019061088a9190612490565b6000826001600160a01b03168260405160006040518083038185875af1925050503d80600081146117cf576040519150601f19603f3d011682016040523d82523d6000602084013e6117d4565b606091505b50508091505080610aa35760405162461bcd60e51b81526020600482015260166024820152751b59dd93dc99195c8bdb5bcbdc99599d5b9911985a5b60521b60448201526064016106a6565b60405163a415bcad60e01b81526001600160a01b038481166004830152602482018490527f0000000000000000000000000000000000000000000000000000000000000000604483015261ffff7f000000000000000000000000000000000000000000000000000000000000000016606483015282811660848301527f0000000000000000000000000000000000000000000000000000000000000000169063a415bcad9060a4016116b8565b60008115806118e457506001600160a01b03831630145b156118f1575060016119be565b604080516001600160a01b038581166024830152604480830186905283518084039091018152606490920183526020820180516001600160e01b031663a9059cbb60e01b179052915160009283929088169161194d9190612211565b6000604051808303816000865af19150503d806000811461198a576040519150601f19603f3d011682016040523d82523d6000602084013e61198f565b606091505b50915091508180156119b95750805115806119b95750808060200190518101906119b99190612490565b925050505b9392505050565b6000821561161e57604051631a4ca37b60e21b81526001600160a01b0385811660048301526024820185905283811660448301527f000000000000000000000000000000000000000000000000000000000000000016906369328dec906064016115d6565b604080517f000000000000000000000000000000000000000000000000000000000000000060248201527f000000000000000000000000000000000000000000000000000000000000000061ffff1660448201526001600160a01b038581166064830152848116608483015260a48083018590528351808403909101815260c490920183526020820180516001600160e01b03166301c77dc560e11b179052915160009283927f000000000000000000000000000000000000000000000000000000000000000090911691611aff9190612211565b600060405180830381855af49150503d8060008114611b3a576040519150601f19603f3d011682016040523d82523d6000602084013e611b3f565b606091505b509150915081610b4e57610b4e8161133c565b6001600160a01b0381168114610f7d57600080fd5b60008060408385031215611b7a57600080fd5b8235611b8581611b52565b91506020830135611b9581611b52565b809150509250929050565b600060208284031215611bb257600080fd5b81356119be81611b52565b60008083601f840112611bcf57600080fd5b50813567ffffffffffffffff811115611be757600080fd5b6020830191508360208260051b8501011115611c0257600080fd5b9250929050565b600080600060408486031215611c1e57600080fd5b8335611c2981611b52565b9250602084013567ffffffffffffffff811115611c4557600080fd5b611c5186828701611bbd565b9497909650939450505050565b604080825283519082018190526000906020906060840190828701845b82811015611ca05781516001600160a01b031684529284019290840190600101611c7b565b5050508381038285015284518082528583019183019060005b81811015611cd557835183529284019291840191600101611cb9565b5090979650505050505050565b60008060008060808587031215611cf857600080fd5b8435611d0381611b52565b93506020850135611d1381611b52565b92506040850135611d2381611b52565b9396929550929360600135925050565b8015158114610f7d57600080fd5b600080600060608486031215611d5657600080fd5b8335611d6181611b52565b92506020840135611d7181611d33565b91506040840135611d8181611b52565b809150509250925092565b600080600060608486031215611da157600080fd5b8335611dac81611b52565b92506020840135611dbc81611b52565b929592945050506040919091013590565b60008060008060808587031215611de357600080fd5b8435611dee81611b52565b93506020850135611dfe81611b52565b9250604085013591506060850135611e1581611d33565b939692955090935050565b60008060008060808587031215611e3657600080fd5b8435611e4181611b52565b93506020850135611e5181611b52565b9250604085013591506060850135611e1581611b52565b60008060208385031215611e7b57600080fd5b823567ffffffffffffffff80821115611e9357600080fd5b818501915085601f830112611ea757600080fd5b813581811115611eb657600080fd5b866020828501011115611ec857600080fd5b60209290920196919550909350505050565b600080600060408486031215611eef57600080fd5b833567ffffffffffffffff811115611f0657600080fd5b611f1286828701611bbd565b9094509250506020840135611d8181611b52565b634e487b7160e01b600052604160045260246000fd5b6040516101e0810167ffffffffffffffff81118282101715611f6057611f60611f26565b60405290565b604051601f8201601f1916810167ffffffffffffffff81118282101715611f8f57611f8f611f26565b604052919050565b600060208284031215611fa957600080fd5b6040516020810181811067ffffffffffffffff82111715611fcc57611fcc611f26565b6040529151825250919050565b80516fffffffffffffffffffffffffffffffff8116811461102c57600080fd5b805164ffffffffff8116811461102c57600080fd5b805161ffff8116811461102c57600080fd5b805161102c81611b52565b60006101e0828403121561203e57600080fd5b612046611f3c565b6120508484611f97565b815261205e60208401611fd9565b602082015261206f60408401611fd9565b604082015261208060608401611fd9565b606082015261209160808401611fd9565b60808201526120a260a08401611fd9565b60a08201526120b360c08401611ff9565b60c08201526120c460e0840161200e565b60e08201526101006120d7818501612020565b908201526101206120e9848201612020565b908201526101406120fb848201612020565b9082015261016061210d848201612020565b9082015261018061211f848201611fd9565b908201526101a0612131848201611fd9565b908201526101c0612143848201611fd9565b908201529392505050565b60208082526018908201527f416363657373436f6e74726f6c6c65642f496e76616c69640000000000000000604082015260600190565b602080825260139082015272149bdd5d195c8bdd5b985d5d1a1bdc9a5e9959606a1b604082015260600190565b60005b838110156121cd5781810151838201526020016121b5565b83811115610dd45750506000910152565b60208152600082518060208401526121fd8160408501602087016121b2565b601f01601f19169190910160400192915050565b600082516122238184602087016121b2565b9190910192915050565b6000806040838503121561224057600080fd5b505080516020909101519092909150565b60006020828403121561226357600080fd5b5051919050565b8183823760009101908152919050565b60208082526022908201527f41617665526f757465722f737570706c792f7472616e7366657246726f6d46616040820152611a5b60f21b606082015260800190565b634e487b7160e01b600052603260045260246000fd5b6000600182016122f257634e487b7160e01b600052601160045260246000fd5b5060010190565b60208082528181018390526000908460408401835b8681101561233c57823561232181611b52565b6001600160a01b03168252918301919083019060010161230e565b509695505050505050565b600067ffffffffffffffff82111561236157612361611f26565b5060051b60200190565b600082601f83011261237c57600080fd5b8151602061239161238c83612347565b611f66565b82815260059290921b840181019181810190868411156123b057600080fd5b8286015b8481101561233c57805183529183019183016123b4565b600080604083850312156123de57600080fd5b825167ffffffffffffffff808211156123f657600080fd5b818501915085601f83011261240a57600080fd5b8151602061241a61238c83612347565b82815260059290921b8401810191818101908984111561243957600080fd5b948201945b8386101561246057855161245181611b52565b8252948201949082019061243e565b9188015191965090935050508082111561247957600080fd5b506124868582860161236b565b9150509250929050565b6000602082840312156124a257600080fd5b81516119be81611d3356fea2646970667358221220898f2cce0ce8b743f7f0e1651e4dd938b12ce63a5b56abe5a75fdb75c384d59364736f6c634300080e003360c060405234801561001057600080fd5b5060405161140f38038061140f83398101604081905261002f9161005e565b6001600160a01b039182166080521660a052610098565b6001600160a01b038116811461005b57600080fd5b50565b6000806040838503121561007157600080fd5b825161007c81610046565b602084015190925061008d81610046565b809150509250929050565b60805160a0516113156100fa60003960008181607601526109bf01526000818160ba0152818161014f015281816102f3015281816103b40152818161046b0152818161058001528181610666015281816107de015261088c01526113156000f3fe608060405234801561001057600080fd5b50600436106100575760003560e01c8063038efb8a1461005c57806338013f02146100715780637535d246146100b55780639105b83a146100dc578063fd8c0451146100fd575b600080fd5b61006f61006a366004610d84565b610125565b005b6100987f000000000000000000000000000000000000000000000000000000000000000081565b6040516001600160a01b0390911681526020015b60405180910390f35b6100987f000000000000000000000000000000000000000000000000000000000000000081565b6100ef6100ea366004610de4565b61041b565b6040519081526020016100ac565b61011061010b366004610e5f565b610749565b604080519283526020830191909152016100ac565b8015610414576040516335ea6a7560e01b81526001600160a01b03848116600483015260009182917f000000000000000000000000000000000000000000000000000000000000000016906335ea6a75906024016101e060405180830381865afa158015610197573d6000803e3d6000fd5b505050506040513d601f19601f820116820180604052508101906101bb9190610f89565b90508660010361023b576101208101516040516370a0823160e01b81523060048201526001600160a01b03909116906370a0823190602401602060405180830381865afa158015610210573d6000803e3d6000fd5b505050506040513d601f19601f8201168201806040525081019061023491906110ac565b91506102ad565b6101408101516040516370a0823160e01b81523060048201526001600160a01b03909116906370a0823190602401602060405180830381865afa158015610286573d6000803e3d6000fd5b505050506040513d601f19601f820116820180604052508101906102aa91906110ac565b91505b8260008390036102be57508261037c565b60405163573ade8160e01b81526001600160a01b03878116600483015260248201869052604482018a905286811660648301527f0000000000000000000000000000000000000000000000000000000000000000169063573ade81906084016020604051808303816000875af1925050508015610358575060408051601f3d908101601f19168201909252610355918101906110ac565b60015b1561037c5761036781836110db565b91508160000361037a5750505050610414565b505b60405163617ba03760e01b81526001600160a01b03878116600483015260248201839052868116604483015261ffff891660648301527f0000000000000000000000000000000000000000000000000000000000000000169063617ba03790608401600060405180830381600087803b1580156103f857600080fd5b505af115801561040c573d6000803e3d6000fd5b505050505050505b5050505050565b600080600061042c88600189610749565b915091508415610448578582106104435785610445565b815b91505b6040516335ea6a7560e01b81526001600160a01b0389811660048301526104e6917f0000000000000000000000000000000000000000000000000000000000000000909116906335ea6a75906024016101e060405180830381865afa1580156104b5573d6000803e3d6000fd5b505050506040513d601f19601f820116820180604052508101906104d99190610f89565b6101000151883085610b6a565b61054c5760405162461bcd60e51b815260206004820152602c60248201527f416176654d6f64756c652f72656465656d5468656e426f72726f772f61546b6e60448201526b151c985b9cd9995c91985a5b60a21b60648201526084015b60405180910390fd5b81156105ef57604051631a4ca37b60e21b81526001600160a01b0389811660048301526024820184905285811660448301527f000000000000000000000000000000000000000000000000000000000000000016906369328dec906064016020604051808303816000875af11580156105c9573d6000803e3d6000fd5b505050506040513d601f19601f820116820180604052508101906105ed91906110ac565b505b85821015806105fc575080155b156106095750905061073e565b61061382876110db565b95508581116106225780610624565b855b60405163a415bcad60e01b81526001600160a01b038a8116600483015260248201839052604482018d905261ffff8c16606483015289811660848301529192507f00000000000000000000000000000000000000000000000000000000000000009091169063a415bcad9060a401600060405180830381600087803b1580156106ac57600080fd5b505af11580156106c0573d6000803e3d6000fd5b505050506106cf888583610c74565b61072f5760405162461bcd60e51b815260206004820152602b60248201527f416176654d6f64756c652f72656465656d5468656e426f72726f772f546b6e5460448201526a1c985b9cd9995c91985a5b60aa1b6064820152608401610543565b61073981836110f2565b925050505b979650505050505050565b6000806107776040518060800160405280600081526020016000815260200160008152602001600081525090565b6107bf60405180610100016040528060008152602001600081526020016000815260200160008152602001600081526020016000815260200160008152602001600081525090565b604051632fe4a15f60e21b81526001600160a01b0386811660048301527f0000000000000000000000000000000000000000000000000000000000000000169063bf92857c9060240160c060405180830381865afa158015610825573d6000803e3d6000fd5b505050506040513d601f19601f82011682018060405250810190610849919061110a565b60c0870152608086015260a08501526040808501919091526020840191909152908252516335ea6a7560e01b81526001600160a01b0388811660048301526000917f0000000000000000000000000000000000000000000000000000000000000000909116906335ea6a75906024016101e060405180830381865afa1580156108d6573d6000803e3d6000fd5b505050506040513d601f19601f820116820180604052508101906108fa9190610f89565b80515160ff603082901c1660408681019190915261ffff601083901c81166020808901919091529216865261010083015181516370a0823160e01b81526001600160a01b038b8116600483015292519495509116926370a08231926024808401939192918290030181865afa158015610977573d6000803e3d6000fd5b505050506040513d601f19601f8201168201806040525081019061099b91906110ac565b60e083015260405163b3596f0760e01b81526001600160a01b0389811660048301527f0000000000000000000000000000000000000000000000000000000000000000169063b3596f0790602401602060405180830381865afa158015610a06573d6000803e3d6000fd5b505050506040513d601f19601f82011682018060405250810190610a2a91906110ac565b60608401526020820151825160a084015161271091610a4891611154565b610a529190611173565b610a5c91906110db565b6060808401919091528301516020840151600091610a7991611154565b6040850151610a8990600a61127b565b8460600151610a989190611154565b610aa490612710611154565b610aae9190611173565b90508260e001518110610ac5578260e00151610ac7565b805b905087610add57945060009350610b6292505050565b835160009061271090610af09084611154565b610afa9190611173565b9050600085606001518660400151600a610b14919061127b565b8660400151610b239190611154565b610b2d9190611173565b905080821115610b495782600097509750505050505050610b62565b6000610b5583836110db565b9398509296505050505050505b935093915050565b6000811580610b8a5750826001600160a01b0316846001600160a01b0316145b15610b9757506001610c6c565b604080516001600160a01b0386811660248301528581166044830152606480830186905283518084039091018152608490920183526020820180516001600160e01b03166323b872dd60e01b1790529151600092839290891691610bfb9190611287565b6000604051808303816000865af19150503d8060008114610c38576040519150601f19603f3d011682016040523d82523d6000602084013e610c3d565b606091505b5091509150818015610c67575080511580610c67575080806020019051810190610c6791906112c2565b925050505b949350505050565b6000811580610c8b57506001600160a01b03831630145b15610c9857506001610d65565b604080516001600160a01b038581166024830152604480830186905283518084039091018152606490920183526020820180516001600160e01b031663a9059cbb60e01b1790529151600092839290881691610cf49190611287565b6000604051808303816000865af19150503d8060008114610d31576040519150601f19603f3d011682016040523d82523d6000602084013e610d36565b606091505b5091509150818015610d60575080511580610d60575080806020019051810190610d6091906112c2565b925050505b9392505050565b6001600160a01b0381168114610d8157600080fd5b50565b600080600080600060a08688031215610d9c57600080fd5b85359450602086013593506040860135610db581610d6c565b92506060860135610dc581610d6c565b949793965091946080013592915050565b8015158114610d8157600080fd5b600080600080600080600060e0888a031215610dff57600080fd5b87359650602088013595506040880135610e1881610d6c565b94506060880135610e2881610d6c565b93506080880135925060a0880135610e3f81610dd6565b915060c0880135610e4f81610d6c565b8091505092959891949750929550565b600080600060608486031215610e7457600080fd5b8335610e7f81610d6c565b92506020840135610e8f81610dd6565b91506040840135610e9f81610d6c565b809150509250925092565b6040516101e0810167ffffffffffffffff81118282101715610edc57634e487b7160e01b600052604160045260246000fd5b60405290565b600060208284031215610ef457600080fd5b6040516020810181811067ffffffffffffffff82111715610f2557634e487b7160e01b600052604160045260246000fd5b6040529151825250919050565b80516fffffffffffffffffffffffffffffffff81168114610f5257600080fd5b919050565b805164ffffffffff81168114610f5257600080fd5b805161ffff81168114610f5257600080fd5b8051610f5281610d6c565b60006101e08284031215610f9c57600080fd5b610fa4610eaa565b610fae8484610ee2565b8152610fbc60208401610f32565b6020820152610fcd60408401610f32565b6040820152610fde60608401610f32565b6060820152610fef60808401610f32565b608082015261100060a08401610f32565b60a082015261101160c08401610f57565b60c082015261102260e08401610f6c565b60e0820152610100611035818501610f7e565b90820152610120611047848201610f7e565b90820152610140611059848201610f7e565b9082015261016061106b848201610f7e565b9082015261018061107d848201610f32565b908201526101a061108f848201610f32565b908201526101c06110a1848201610f32565b908201529392505050565b6000602082840312156110be57600080fd5b5051919050565b634e487b7160e01b600052601160045260246000fd5b6000828210156110ed576110ed6110c5565b500390565b60008219821115611105576111056110c5565b500190565b60008060008060008060c0878903121561112357600080fd5b865195506020870151945060408701519350606087015192506080870151915060a087015190509295509295509295565b600081600019048311821515161561116e5761116e6110c5565b500290565b60008261119057634e487b7160e01b600052601260045260246000fd5b500490565b600181815b808511156111d05781600019048211156111b6576111b66110c5565b808516156111c357918102915b93841c939080029061119a565b509250929050565b6000826111e757506001611275565b816111f457506000611275565b816001811461120a576002811461121457611230565b6001915050611275565b60ff841115611225576112256110c5565b50506001821b611275565b5060208310610133831016604e8410600b8410161715611253575081810a611275565b61125d8383611195565b8060001904821115611271576112716110c5565b0290505b92915050565b6000610d6583836111d8565b6000825160005b818110156112a8576020818601810151858301520161128e565b818111156112b7576000828501525b509190910192915050565b6000602082840312156112d457600080fd5b8151610d6581610dd656fea264697066735822122005e29a5e8a5ebeef1b1e2c87a110cc05b1aae95afef52eaf4e7fc2ca9a507af364736f6c634300080e0033",
    "linkReferences": {}
  },
  "methodIdentifiers": {
    "INTEREST_RATE_MODE()": "83008bd9",
    "ORACLE()": "38013f02",
    "POOL()": "7535d246",
    "REFERRAL_CODE()": "3583849a",
    "_staticdelegatecall(bytes)": "5a3e9618",
    "admin()": "f851a440",
    "approveLender(address)": "ca34f9ec",
    "bind(address)": "81bac14f",
    "borrow(address,address,uint256,address)": "e5cd487f",
    "borrowed(address,address)": "b0a02abe",
    "claimRewards(address,address[])": "2026ffa3",
    "debtToken(address)": "492fffc7",
    "flush(address[],address)": "f850a81c",
    "gas_overhead()": "0417ffda",
    "makers(address)": "362aecb1",
    "maxGettableUnderlying(address,bool,address)": "2197c31e",
    "overlying(address)": "0efc8fd2",
    "pull(address,address,uint256,bool)": "333dbb0d",
    "push(address,address,uint256)": "26e8eda2",
    "push_native(address)": "d7c153a8",
    "repay(address,address,uint256,address)": "52da17a4",
    "reserveBalance(address,address)": "05684fde",
    "reserveNativeBalance(address)": "32563bc7",
    "setAdmin(address)": "704b6c02",
    "supply(address,address,uint256,address)": "8faf5531",
    "unbind(address)": "cf5e7bd3",
    "withdrawToken(address,address,address,uint256)": "21754d9e"
  },
  "id": 37
}