{
  "abi": [
    {
      "inputs": [
        {
          "internalType": "address",
          "name": "governance",
          "type": "address"
        },
        {
          "internalType": "uint256",
          "name": "gasprice",
          "type": "uint256"
        },
        {
          "internalType": "uint256",
          "name": "gasmax",
          "type": "uint256"
        }
      ],
      "stateMutability": "nonpayable",
      "type": "constructor"
    },
    {
      "anonymous": false,
      "inputs": [
        {
          "indexed": true,
          "internalType": "address",
          "name": "outbound_tkn",
          "type": "address"
        },
        {
          "indexed": true,
          "internalType": "address",
          "name": "inbound_tkn",
          "type": "address"
        },
        {
          "indexed": false,
          "internalType": "address",
          "name": "owner",
          "type": "address"
        },
        {
          "indexed": false,
          "internalType": "address",
          "name": "spender",
          "type": "address"
        },
        {
          "indexed": false,
          "internalType": "uint256",
          "name": "value",
          "type": "uint256"
        }
      ],
      "name": "Approval",
      "type": "event"
    },
    {
      "anonymous": false,
      "inputs": [
        {
          "indexed": true,
          "internalType": "address",
          "name": "maker",
          "type": "address"
        },
        {
          "indexed": false,
          "internalType": "uint256",
          "name": "amount",
          "type": "uint256"
        }
      ],
      "name": "Credit",
      "type": "event"
    },
    {
      "anonymous": false,
      "inputs": [
        {
          "indexed": true,
          "internalType": "address",
          "name": "maker",
          "type": "address"
        },
        {
          "indexed": false,
          "internalType": "uint256",
          "name": "amount",
          "type": "uint256"
        }
      ],
      "name": "Debit",
      "type": "event"
    },
    {
      "anonymous": false,
      "inputs": [],
      "name": "Kill",
      "type": "event"
    },
    {
      "anonymous": false,
      "inputs": [],
      "name": "NewMgv",
      "type": "event"
    },
    {
      "anonymous": false,
      "inputs": [
        {
          "indexed": true,
          "internalType": "address",
          "name": "outbound_tkn",
          "type": "address"
        },
        {
          "indexed": true,
          "internalType": "address",
          "name": "inbound_tkn",
          "type": "address"
        },
        {
          "indexed": false,
          "internalType": "uint256",
          "name": "id",
          "type": "uint256"
        },
        {
          "indexed": false,
          "internalType": "address",
          "name": "taker",
          "type": "address"
        },
        {
          "indexed": false,
          "internalType": "uint256",
          "name": "takerWants",
          "type": "uint256"
        },
        {
          "indexed": false,
          "internalType": "uint256",
          "name": "takerGives",
          "type": "uint256"
        },
        {
          "indexed": false,
          "internalType": "bytes32",
          "name": "mgvData",
          "type": "bytes32"
        }
      ],
      "name": "OfferFail",
      "type": "event"
    },
    {
      "anonymous": false,
      "inputs": [
        {
          "indexed": true,
          "internalType": "address",
          "name": "outbound_tkn",
          "type": "address"
        },
        {
          "indexed": true,
          "internalType": "address",
          "name": "inbound_tkn",
          "type": "address"
        },
        {
          "indexed": false,
          "internalType": "uint256",
          "name": "id",
          "type": "uint256"
        }
      ],
      "name": "OfferRetract",
      "type": "event"
    },
    {
      "anonymous": false,
      "inputs": [
        {
          "indexed": true,
          "internalType": "address",
          "name": "outbound_tkn",
          "type": "address"
        },
        {
          "indexed": true,
          "internalType": "address",
          "name": "inbound_tkn",
          "type": "address"
        },
        {
          "indexed": false,
          "internalType": "uint256",
          "name": "id",
          "type": "uint256"
        },
        {
          "indexed": false,
          "internalType": "address",
          "name": "taker",
          "type": "address"
        },
        {
          "indexed": false,
          "internalType": "uint256",
          "name": "takerWants",
          "type": "uint256"
        },
        {
          "indexed": false,
          "internalType": "uint256",
          "name": "takerGives",
          "type": "uint256"
        }
      ],
      "name": "OfferSuccess",
      "type": "event"
    },
    {
      "anonymous": false,
      "inputs": [
        {
          "indexed": true,
          "internalType": "address",
          "name": "outbound_tkn",
          "type": "address"
        },
        {
          "indexed": true,
          "internalType": "address",
          "name": "inbound_tkn",
          "type": "address"
        },
        {
          "indexed": false,
          "internalType": "address",
          "name": "maker",
          "type": "address"
        },
        {
          "indexed": false,
          "internalType": "uint256",
          "name": "wants",
          "type": "uint256"
        },
        {
          "indexed": false,
          "internalType": "uint256",
          "name": "gives",
          "type": "uint256"
        },
        {
          "indexed": false,
          "internalType": "uint256",
          "name": "gasprice",
          "type": "uint256"
        },
        {
          "indexed": false,
          "internalType": "uint256",
          "name": "gasreq",
          "type": "uint256"
        },
        {
          "indexed": false,
          "internalType": "uint256",
          "name": "id",
          "type": "uint256"
        },
        {
          "indexed": false,
          "internalType": "uint256",
          "name": "prev",
          "type": "uint256"
        }
      ],
      "name": "OfferWrite",
      "type": "event"
    },
    {
      "anonymous": false,
      "inputs": [
        {
          "indexed": true,
          "internalType": "address",
          "name": "outbound_tkn",
          "type": "address"
        },
        {
          "indexed": true,
          "internalType": "address",
          "name": "inbound_tkn",
          "type": "address"
        },
        {
          "indexed": true,
          "internalType": "address",
          "name": "taker",
          "type": "address"
        },
        {
          "indexed": false,
          "internalType": "uint256",
          "name": "takerGot",
          "type": "uint256"
        },
        {
          "indexed": false,
          "internalType": "uint256",
          "name": "takerGave",
          "type": "uint256"
        },
        {
          "indexed": false,
          "internalType": "uint256",
          "name": "penalty",
          "type": "uint256"
        },
        {
          "indexed": false,
          "internalType": "uint256",
          "name": "feePaid",
          "type": "uint256"
        }
      ],
      "name": "OrderComplete",
      "type": "event"
    },
    {
      "anonymous": false,
      "inputs": [],
      "name": "OrderStart",
      "type": "event"
    },
    {
      "anonymous": false,
      "inputs": [
        {
          "indexed": true,
          "internalType": "address",
          "name": "outbound_tkn",
          "type": "address"
        },
        {
          "indexed": true,
          "internalType": "address",
          "name": "inbound_tkn",
          "type": "address"
        },
        {
          "indexed": false,
          "internalType": "uint256",
          "name": "offerId",
          "type": "uint256"
        },
        {
          "indexed": false,
          "internalType": "bytes32",
          "name": "posthookData",
          "type": "bytes32"
        }
      ],
      "name": "PosthookFail",
      "type": "event"
    },
    {
      "anonymous": false,
      "inputs": [
        {
          "indexed": true,
          "internalType": "address",
          "name": "outbound_tkn",
          "type": "address"
        },
        {
          "indexed": true,
          "internalType": "address",
          "name": "inbound_tkn",
          "type": "address"
        },
        {
          "indexed": false,
          "internalType": "bool",
          "name": "value",
          "type": "bool"
        }
      ],
      "name": "SetActive",
      "type": "event"
    },
    {
      "anonymous": false,
      "inputs": [
        {
          "indexed": true,
          "internalType": "address",
          "name": "outbound_tkn",
          "type": "address"
        },
        {
          "indexed": true,
          "internalType": "address",
          "name": "inbound_tkn",
          "type": "address"
        },
        {
          "indexed": false,
          "internalType": "uint256",
          "name": "value",
          "type": "uint256"
        }
      ],
      "name": "SetDensity",
      "type": "event"
    },
    {
      "anonymous": false,
      "inputs": [
        {
          "indexed": true,
          "internalType": "address",
          "name": "outbound_tkn",
          "type": "address"
        },
        {
          "indexed": true,
          "internalType": "address",
          "name": "inbound_tkn",
          "type": "address"
        },
        {
          "indexed": false,
          "internalType": "uint256",
          "name": "value",
          "type": "uint256"
        }
      ],
      "name": "SetFee",
      "type": "event"
    },
    {
      "anonymous": false,
      "inputs": [
        {
          "indexed": true,
          "internalType": "address",
          "name": "outbound_tkn",
          "type": "address"
        },
        {
          "indexed": true,
          "internalType": "address",
          "name": "inbound_tkn",
          "type": "address"
        },
        {
          "indexed": false,
          "internalType": "uint256",
          "name": "offer_gasbase",
          "type": "uint256"
        }
      ],
      "name": "SetGasbase",
      "type": "event"
    },
    {
      "anonymous": false,
      "inputs": [
        {
          "indexed": false,
          "internalType": "uint256",
          "name": "value",
          "type": "uint256"
        }
      ],
      "name": "SetGasmax",
      "type": "event"
    },
    {
      "anonymous": false,
      "inputs": [
        {
          "indexed": false,
          "internalType": "uint256",
          "name": "value",
          "type": "uint256"
        }
      ],
      "name": "SetGasprice",
      "type": "event"
    },
    {
      "anonymous": false,
      "inputs": [
        {
          "indexed": false,
          "internalType": "address",
          "name": "value",
          "type": "address"
        }
      ],
      "name": "SetGovernance",
      "type": "event"
    },
    {
      "anonymous": false,
      "inputs": [
        {
          "indexed": false,
          "internalType": "address",
          "name": "value",
          "type": "address"
        }
      ],
      "name": "SetMonitor",
      "type": "event"
    },
    {
      "anonymous": false,
      "inputs": [
        {
          "indexed": false,
          "internalType": "bool",
          "name": "value",
          "type": "bool"
        }
      ],
      "name": "SetNotify",
      "type": "event"
    },
    {
      "anonymous": false,
      "inputs": [
        {
          "indexed": false,
          "internalType": "bool",
          "name": "value",
          "type": "bool"
        }
      ],
      "name": "SetUseOracle",
      "type": "event"
    },
    {
      "anonymous": false,
      "inputs": [
        {
          "indexed": false,
          "internalType": "address",
          "name": "value",
          "type": "address"
        }
      ],
      "name": "SetVault",
      "type": "event"
    },
    {
      "inputs": [],
      "name": "DOMAIN_SEPARATOR",
      "outputs": [
        {
          "internalType": "bytes32",
          "name": "",
          "type": "bytes32"
        }
      ],
      "stateMutability": "view",
      "type": "function"
    },
    {
      "inputs": [],
      "name": "PERMIT_TYPEHASH",
      "outputs": [
        {
          "internalType": "bytes32",
          "name": "",
          "type": "bytes32"
        }
      ],
      "stateMutability": "view",
      "type": "function"
    },
    {
      "inputs": [
        {
          "internalType": "address",
          "name": "outbound_tkn",
          "type": "address"
        },
        {
          "internalType": "address",
          "name": "inbound_tkn",
          "type": "address"
        },
        {
          "internalType": "uint256",
          "name": "fee",
          "type": "uint256"
        },
        {
          "internalType": "uint256",
          "name": "density",
          "type": "uint256"
        },
        {
          "internalType": "uint256",
          "name": "offer_gasbase",
          "type": "uint256"
        }
      ],
      "name": "activate",
      "outputs": [],
      "stateMutability": "nonpayable",
      "type": "function"
    },
    {
      "inputs": [
        {
          "internalType": "address",
          "name": "",
          "type": "address"
        },
        {
          "internalType": "address",
          "name": "",
          "type": "address"
        },
        {
          "internalType": "address",
          "name": "",
          "type": "address"
        },
        {
          "internalType": "address",
          "name": "",
          "type": "address"
        }
      ],
      "name": "allowances",
      "outputs": [
        {
          "internalType": "uint256",
          "name": "",
          "type": "uint256"
        }
      ],
      "stateMutability": "view",
      "type": "function"
    },
    {
      "inputs": [
        {
          "internalType": "address",
          "name": "outbound_tkn",
          "type": "address"
        },
        {
          "internalType": "address",
          "name": "inbound_tkn",
          "type": "address"
        },
        {
          "internalType": "address",
          "name": "spender",
          "type": "address"
        },
        {
          "internalType": "uint256",
          "name": "value",
          "type": "uint256"
        }
      ],
      "name": "approve",
      "outputs": [
        {
          "internalType": "bool",
          "name": "",
          "type": "bool"
        }
      ],
      "stateMutability": "nonpayable",
      "type": "function"
    },
    {
      "inputs": [
        {
          "internalType": "address",
          "name": "",
          "type": "address"
        }
      ],
      "name": "balanceOf",
      "outputs": [
        {
          "internalType": "uint256",
          "name": "",
          "type": "uint256"
        }
      ],
      "stateMutability": "view",
      "type": "function"
    },
    {
      "inputs": [
        {
          "internalType": "address",
          "name": "outbound_tkn",
          "type": "address"
        },
        {
          "internalType": "address",
          "name": "inbound_tkn",
          "type": "address"
        }
      ],
      "name": "best",
      "outputs": [
        {
          "internalType": "uint256",
          "name": "",
          "type": "uint256"
        }
      ],
      "stateMutability": "view",
      "type": "function"
    },
    {
      "inputs": [
        {
          "internalType": "address",
          "name": "outbound_tkn",
          "type": "address"
        },
        {
          "internalType": "address",
          "name": "inbound_tkn",
          "type": "address"
        }
      ],
      "name": "config",
      "outputs": [
        {
          "internalType": "t",
          "name": "_global",
          "type": "uint256"
        },
        {
          "internalType": "t",
          "name": "_local",
          "type": "uint256"
        }
      ],
      "stateMutability": "view",
      "type": "function"
    },
    {
      "inputs": [
        {
          "internalType": "address",
          "name": "outbound_tkn",
          "type": "address"
        },
        {
          "internalType": "address",
          "name": "inbound_tkn",
          "type": "address"
        }
      ],
      "name": "configInfo",
      "outputs": [
        {
          "components": [
            {
              "internalType": "address",
              "name": "monitor",
              "type": "address"
            },
            {
              "internalType": "bool",
              "name": "useOracle",
              "type": "bool"
            },
            {
              "internalType": "bool",
              "name": "notify",
              "type": "bool"
            },
            {
              "internalType": "uint256",
              "name": "gasprice",
              "type": "uint256"
            },
            {
              "internalType": "uint256",
              "name": "gasmax",
              "type": "uint256"
            },
            {
              "internalType": "bool",
              "name": "dead",
              "type": "bool"
            }
          ],
          "internalType": "struct GlobalStruct",
          "name": "global",
          "type": "tuple"
        },
        {
          "components": [
            {
              "internalType": "bool",
              "name": "active",
              "type": "bool"
            },
            {
              "internalType": "uint256",
              "name": "fee",
              "type": "uint256"
            },
            {
              "internalType": "uint256",
              "name": "density",
              "type": "uint256"
            },
            {
              "internalType": "uint256",
              "name": "offer_gasbase",
              "type": "uint256"
            },
            {
              "internalType": "bool",
              "name": "lock",
              "type": "bool"
            },
            {
              "internalType": "uint256",
              "name": "best",
              "type": "uint256"
            },
            {
              "internalType": "uint256",
              "name": "last",
              "type": "uint256"
            }
          ],
          "internalType": "struct LocalStruct",
          "name": "local",
          "type": "tuple"
        }
      ],
      "stateMutability": "view",
      "type": "function"
    },
    {
      "inputs": [
        {
          "internalType": "address",
          "name": "outbound_tkn",
          "type": "address"
        },
        {
          "internalType": "address",
          "name": "inbound_tkn",
          "type": "address"
        }
      ],
      "name": "deactivate",
      "outputs": [],
      "stateMutability": "nonpayable",
      "type": "function"
    },
    {
      "inputs": [
        {
          "components": [
            {
              "internalType": "address",
              "name": "outbound_tkn",
              "type": "address"
            },
            {
              "internalType": "address",
              "name": "inbound_tkn",
              "type": "address"
            },
            {
              "internalType": "uint256",
              "name": "offerId",
              "type": "uint256"
            },
            {
              "internalType": "t",
              "name": "offer",
              "type": "uint256"
            },
            {
              "internalType": "uint256",
              "name": "wants",
              "type": "uint256"
            },
            {
              "internalType": "uint256",
              "name": "gives",
              "type": "uint256"
            },
            {
              "internalType": "t",
              "name": "offerDetail",
              "type": "uint256"
            },
            {
              "internalType": "t",
              "name": "global",
              "type": "uint256"
            },
            {
              "internalType": "t",
              "name": "local",
              "type": "uint256"
            }
          ],
          "internalType": "struct MgvLib.SingleOrder",
          "name": "sor",
          "type": "tuple"
        },
        {
          "internalType": "address",
          "name": "",
          "type": "address"
        }
      ],
      "name": "flashloan",
      "outputs": [
        {
          "internalType": "uint256",
          "name": "gasused",
          "type": "uint256"
        }
      ],
      "stateMutability": "nonpayable",
      "type": "function"
    },
    {
      "inputs": [
        {
          "internalType": "address",
          "name": "maker",
          "type": "address"
        }
      ],
      "name": "fund",
      "outputs": [],
      "stateMutability": "payable",
      "type": "function"
    },
    {
      "inputs": [],
      "name": "fund",
      "outputs": [],
      "stateMutability": "payable",
      "type": "function"
    },
    {
      "inputs": [],
      "name": "governance",
      "outputs": [
        {
          "internalType": "address",
          "name": "",
          "type": "address"
        }
      ],
      "stateMutability": "view",
      "type": "function"
    },
    {
      "inputs": [
        {
          "internalType": "t",
          "name": "offer",
          "type": "uint256"
        }
      ],
      "name": "isLive",
      "outputs": [
        {
          "internalType": "bool",
          "name": "",
          "type": "bool"
        }
      ],
      "stateMutability": "pure",
      "type": "function"
    },
    {
      "inputs": [],
      "name": "kill",
      "outputs": [],
      "stateMutability": "nonpayable",
      "type": "function"
    },
    {
      "inputs": [
        {
          "internalType": "address",
          "name": "outbound_tkn",
          "type": "address"
        },
        {
          "internalType": "address",
          "name": "inbound_tkn",
          "type": "address"
        }
      ],
      "name": "locked",
      "outputs": [
        {
          "internalType": "bool",
          "name": "",
          "type": "bool"
        }
      ],
      "stateMutability": "view",
      "type": "function"
    },
    {
      "inputs": [
        {
          "internalType": "address",
          "name": "outbound_tkn",
          "type": "address"
        },
        {
          "internalType": "address",
          "name": "inbound_tkn",
          "type": "address"
        },
        {
          "internalType": "uint256",
          "name": "takerWants",
          "type": "uint256"
        },
        {
          "internalType": "uint256",
          "name": "takerGives",
          "type": "uint256"
        },
        {
          "internalType": "bool",
          "name": "fillWants",
          "type": "bool"
        }
      ],
      "name": "marketOrder",
      "outputs": [
        {
          "internalType": "uint256",
          "name": "",
          "type": "uint256"
        },
        {
          "internalType": "uint256",
          "name": "",
          "type": "uint256"
        },
        {
          "internalType": "uint256",
          "name": "",
          "type": "uint256"
        },
        {
          "internalType": "uint256",
          "name": "",
          "type": "uint256"
        }
      ],
      "stateMutability": "nonpayable",
      "type": "function"
    },
    {
      "inputs": [
        {
          "internalType": "address",
          "name": "outbound_tkn",
          "type": "address"
        },
        {
          "internalType": "address",
          "name": "inbound_tkn",
          "type": "address"
        },
        {
          "internalType": "uint256",
          "name": "takerWants",
          "type": "uint256"
        },
        {
          "internalType": "uint256",
          "name": "takerGives",
          "type": "uint256"
        },
        {
          "internalType": "bool",
          "name": "fillWants",
          "type": "bool"
        },
        {
          "internalType": "address",
          "name": "taker",
          "type": "address"
        }
      ],
      "name": "marketOrderFor",
      "outputs": [
        {
          "internalType": "uint256",
          "name": "takerGot",
          "type": "uint256"
        },
        {
          "internalType": "uint256",
          "name": "takerGave",
          "type": "uint256"
        },
        {
          "internalType": "uint256",
          "name": "bounty",
          "type": "uint256"
        },
        {
          "internalType": "uint256",
          "name": "feePaid",
          "type": "uint256"
        }
      ],
      "stateMutability": "nonpayable",
      "type": "function"
    },
    {
      "inputs": [
        {
          "internalType": "address",
          "name": "outbound_tkn",
          "type": "address"
        },
        {
          "internalType": "address",
          "name": "inbound_tkn",
          "type": "address"
        },
        {
          "internalType": "uint256",
          "name": "wants",
          "type": "uint256"
        },
        {
          "internalType": "uint256",
          "name": "gives",
          "type": "uint256"
        },
        {
          "internalType": "uint256",
          "name": "gasreq",
          "type": "uint256"
        },
        {
          "internalType": "uint256",
          "name": "gasprice",
          "type": "uint256"
        },
        {
          "internalType": "uint256",
          "name": "pivotId",
          "type": "uint256"
        }
      ],
      "name": "newOffer",
      "outputs": [
        {
          "internalType": "uint256",
          "name": "",
          "type": "uint256"
        }
      ],
      "stateMutability": "payable",
      "type": "function"
    },
    {
      "inputs": [
        {
          "internalType": "address",
          "name": "",
          "type": "address"
        }
      ],
      "name": "nonces",
      "outputs": [
        {
          "internalType": "uint256",
          "name": "",
          "type": "uint256"
        }
      ],
      "stateMutability": "view",
      "type": "function"
    },
    {
      "inputs": [
        {
          "internalType": "address",
          "name": "",
          "type": "address"
        },
        {
          "internalType": "address",
          "name": "",
          "type": "address"
        },
        {
          "internalType": "uint256",
          "name": "",
          "type": "uint256"
        }
      ],
      "name": "offerDetails",
      "outputs": [
        {
          "internalType": "t",
          "name": "",
          "type": "uint256"
        }
      ],
      "stateMutability": "view",
      "type": "function"
    },
    {
      "inputs": [
        {
          "internalType": "address",
          "name": "outbound_tkn",
          "type": "address"
        },
        {
          "internalType": "address",
          "name": "inbound_tkn",
          "type": "address"
        },
        {
          "internalType": "uint256",
          "name": "offerId",
          "type": "uint256"
        }
      ],
      "name": "offerInfo",
      "outputs": [
        {
          "components": [
            {
              "internalType": "uint256",
              "name": "prev",
              "type": "uint256"
            },
            {
              "internalType": "uint256",
              "name": "next",
              "type": "uint256"
            },
            {
              "internalType": "uint256",
              "name": "wants",
              "type": "uint256"
            },
            {
              "internalType": "uint256",
              "name": "gives",
              "type": "uint256"
            }
          ],
          "internalType": "struct OfferStruct",
          "name": "offer",
          "type": "tuple"
        },
        {
          "components": [
            {
              "internalType": "address",
              "name": "maker",
              "type": "address"
            },
            {
              "internalType": "uint256",
              "name": "gasreq",
              "type": "uint256"
            },
            {
              "internalType": "uint256",
              "name": "offer_gasbase",
              "type": "uint256"
            },
            {
              "internalType": "uint256",
              "name": "gasprice",
              "type": "uint256"
            }
          ],
          "internalType": "struct OfferDetailStruct",
          "name": "offerDetail",
          "type": "tuple"
        }
      ],
      "stateMutability": "view",
      "type": "function"
    },
    {
      "inputs": [
        {
          "internalType": "address",
          "name": "",
          "type": "address"
        },
        {
          "internalType": "address",
          "name": "",
          "type": "address"
        },
        {
          "internalType": "uint256",
          "name": "",
          "type": "uint256"
        }
      ],
      "name": "offers",
      "outputs": [
        {
          "internalType": "t",
          "name": "",
          "type": "uint256"
        }
      ],
      "stateMutability": "view",
      "type": "function"
    },
    {
      "inputs": [
        {
          "internalType": "address",
          "name": "outbound_tkn",
          "type": "address"
        },
        {
          "internalType": "address",
          "name": "inbound_tkn",
          "type": "address"
        },
        {
          "internalType": "address",
          "name": "owner",
          "type": "address"
        },
        {
          "internalType": "address",
          "name": "spender",
          "type": "address"
        },
        {
          "internalType": "uint256",
          "name": "value",
          "type": "uint256"
        },
        {
          "internalType": "uint256",
          "name": "deadline",
          "type": "uint256"
        },
        {
          "internalType": "uint8",
          "name": "v",
          "type": "uint8"
        },
        {
          "internalType": "bytes32",
          "name": "r",
          "type": "bytes32"
        },
        {
          "internalType": "bytes32",
          "name": "s",
          "type": "bytes32"
        }
      ],
      "name": "permit",
      "outputs": [],
      "stateMutability": "nonpayable",
      "type": "function"
    },
    {
      "inputs": [
        {
          "internalType": "address",
          "name": "outbound_tkn",
          "type": "address"
        },
        {
          "internalType": "address",
          "name": "inbound_tkn",
          "type": "address"
        },
        {
          "internalType": "uint256",
          "name": "offerId",
          "type": "uint256"
        },
        {
          "internalType": "bool",
          "name": "deprovision",
          "type": "bool"
        }
      ],
      "name": "retractOffer",
      "outputs": [
        {
          "internalType": "uint256",
          "name": "provision",
          "type": "uint256"
        }
      ],
      "stateMutability": "nonpayable",
      "type": "function"
    },
    {
      "inputs": [
        {
          "internalType": "address",
          "name": "outbound_tkn",
          "type": "address"
        },
        {
          "internalType": "address",
          "name": "inbound_tkn",
          "type": "address"
        },
        {
          "internalType": "uint256",
          "name": "density",
          "type": "uint256"
        }
      ],
      "name": "setDensity",
      "outputs": [],
      "stateMutability": "nonpayable",
      "type": "function"
    },
    {
      "inputs": [
        {
          "internalType": "address",
          "name": "outbound_tkn",
          "type": "address"
        },
        {
          "internalType": "address",
          "name": "inbound_tkn",
          "type": "address"
        },
        {
          "internalType": "uint256",
          "name": "fee",
          "type": "uint256"
        }
      ],
      "name": "setFee",
      "outputs": [],
      "stateMutability": "nonpayable",
      "type": "function"
    },
    {
      "inputs": [
        {
          "internalType": "address",
          "name": "outbound_tkn",
          "type": "address"
        },
        {
          "internalType": "address",
          "name": "inbound_tkn",
          "type": "address"
        },
        {
          "internalType": "uint256",
          "name": "offer_gasbase",
          "type": "uint256"
        }
      ],
      "name": "setGasbase",
      "outputs": [],
      "stateMutability": "nonpayable",
      "type": "function"
    },
    {
      "inputs": [
        {
          "internalType": "uint256",
          "name": "gasmax",
          "type": "uint256"
        }
      ],
      "name": "setGasmax",
      "outputs": [],
      "stateMutability": "nonpayable",
      "type": "function"
    },
    {
      "inputs": [
        {
          "internalType": "uint256",
          "name": "gasprice",
          "type": "uint256"
        }
      ],
      "name": "setGasprice",
      "outputs": [],
      "stateMutability": "nonpayable",
      "type": "function"
    },
    {
      "inputs": [
        {
          "internalType": "address",
          "name": "governanceAddress",
          "type": "address"
        }
      ],
      "name": "setGovernance",
      "outputs": [],
      "stateMutability": "nonpayable",
      "type": "function"
    },
    {
      "inputs": [
        {
          "internalType": "address",
          "name": "monitor",
          "type": "address"
        }
      ],
      "name": "setMonitor",
      "outputs": [],
      "stateMutability": "nonpayable",
      "type": "function"
    },
    {
      "inputs": [
        {
          "internalType": "bool",
          "name": "notify",
          "type": "bool"
        }
      ],
      "name": "setNotify",
      "outputs": [],
      "stateMutability": "nonpayable",
      "type": "function"
    },
    {
      "inputs": [
        {
          "internalType": "bool",
          "name": "useOracle",
          "type": "bool"
        }
      ],
      "name": "setUseOracle",
      "outputs": [],
      "stateMutability": "nonpayable",
      "type": "function"
    },
    {
      "inputs": [
        {
          "internalType": "address",
          "name": "vaultAddress",
          "type": "address"
        }
      ],
      "name": "setVault",
      "outputs": [],
      "stateMutability": "nonpayable",
      "type": "function"
    },
    {
      "inputs": [
        {
          "internalType": "address",
          "name": "outbound_tkn",
          "type": "address"
        },
        {
          "internalType": "address",
          "name": "inbound_tkn",
          "type": "address"
        },
        {
          "internalType": "uint256[4][]",
          "name": "targets",
          "type": "uint256[4][]"
        },
        {
          "internalType": "bool",
          "name": "fillWants",
          "type": "bool"
        }
      ],
      "name": "snipes",
      "outputs": [
        {
          "internalType": "uint256",
          "name": "",
          "type": "uint256"
        },
        {
          "internalType": "uint256",
          "name": "",
          "type": "uint256"
        },
        {
          "internalType": "uint256",
          "name": "",
          "type": "uint256"
        },
        {
          "internalType": "uint256",
          "name": "",
          "type": "uint256"
        },
        {
          "internalType": "uint256",
          "name": "",
          "type": "uint256"
        }
      ],
      "stateMutability": "nonpayable",
      "type": "function"
    },
    {
      "inputs": [
        {
          "internalType": "address",
          "name": "outbound_tkn",
          "type": "address"
        },
        {
          "internalType": "address",
          "name": "inbound_tkn",
          "type": "address"
        },
        {
          "internalType": "uint256[4][]",
          "name": "targets",
          "type": "uint256[4][]"
        },
        {
          "internalType": "bool",
          "name": "fillWants",
          "type": "bool"
        },
        {
          "internalType": "address",
          "name": "taker",
          "type": "address"
        }
      ],
      "name": "snipesFor",
      "outputs": [
        {
          "internalType": "uint256",
          "name": "successes",
          "type": "uint256"
        },
        {
          "internalType": "uint256",
          "name": "takerGot",
          "type": "uint256"
        },
        {
          "internalType": "uint256",
          "name": "takerGave",
          "type": "uint256"
        },
        {
          "internalType": "uint256",
          "name": "bounty",
          "type": "uint256"
        },
        {
          "internalType": "uint256",
          "name": "feePaid",
          "type": "uint256"
        }
      ],
      "stateMutability": "nonpayable",
      "type": "function"
    },
    {
      "inputs": [
        {
          "internalType": "address",
          "name": "outbound_tkn",
          "type": "address"
        },
        {
          "internalType": "address",
          "name": "inbound_tkn",
          "type": "address"
        },
        {
          "internalType": "uint256",
          "name": "wants",
          "type": "uint256"
        },
        {
          "internalType": "uint256",
          "name": "gives",
          "type": "uint256"
        },
        {
          "internalType": "uint256",
          "name": "gasreq",
          "type": "uint256"
        },
        {
          "internalType": "uint256",
          "name": "gasprice",
          "type": "uint256"
        },
        {
          "internalType": "uint256",
          "name": "pivotId",
          "type": "uint256"
        },
        {
          "internalType": "uint256",
          "name": "offerId",
          "type": "uint256"
        }
      ],
      "name": "updateOffer",
      "outputs": [],
      "stateMutability": "payable",
      "type": "function"
    },
    {
      "inputs": [],
      "name": "vault",
      "outputs": [
        {
          "internalType": "address",
          "name": "",
          "type": "address"
        }
      ],
      "stateMutability": "view",
      "type": "function"
    },
    {
      "inputs": [
        {
          "internalType": "uint256",
          "name": "amount",
          "type": "uint256"
        }
      ],
      "name": "withdraw",
      "outputs": [
        {
          "internalType": "bool",
          "name": "noRevert",
          "type": "bool"
        }
      ],
      "stateMutability": "nonpayable",
      "type": "function"
    },
    {
      "stateMutability": "payable",
      "type": "receive"
    }
  ],
  "bytecode": {
    "object": "0x60a06040523480156200001157600080fd5b506040516200567e3803806200567e83398101604081905262000034916200048c565b8282826040518060400160405280601081526020016f496e7665727465644d616e67726f766560801b815250808484847f72201d073f249840099a96530e189c4291c1852040b1e96ff1f606db656be4ff60405160405180910390a16200009b836200016d565b620000a682620001cc565b620000b1816200027f565b620000bc836200032f565b5050815160208084019190912060408051808201825260018152603160f81b9084015280517f8b73c3c69bb8fe3d512ecc4cf759cc79239f7b179b0ffacaa9a75d522b39400f938101939093528201527fc89efdaa54c0f20c7adf612882df0950f5a951637e0307cdcb4c672f298b8bc660608201524660808201523060a082015260c001905060408051601f19818403018152919052805160209091012060805250620004d19650505050505050565b62000177620003e0565b600080546001600160a01b0319166001600160a01b0383169081179091556040519081527fd459c7242e23d490831b5676a611c4342d899d28f342d89ae80793e56a930f30906020015b60405180910390a150565b620001d6620003e0565b61ffff811681146200022f5760405162461bcd60e51b815260206004820152601a60248201527f6d67762f636f6e6669672f67617370726963652f31366269747300000000000060448201526064015b60405180910390fd5b6200024b816001546200045160201b62001d4e1790919060201c565b6001556040518181527fdbebd814ae648f654dcc50c734aa76e55a32e96b7d85303a08e2ddf11874a0dd90602001620001c1565b62000289620003e0565b808162ffffff1614620002df5760405162461bcd60e51b815260206004820152601860248201527f6d67762f636f6e6669672f6761736d61782f3234626974730000000000000000604482015260640162000226565b620002fb816001546200046f60201b62001d711790919060201c565b6001556040518181527f8cdff0cd5ed2543bcdf7eb93d8ec1c23626e579925f4531beeef15d84cf78d1890602001620001c1565b62000339620003e0565b6001600160a01b038116620003915760405162461bcd60e51b815260206004820152601360248201527f6d67762f636f6e6669672f676f762f6e6f743000000000000000000000000000604482015260640162000226565b600380546001600160a01b0319166001600160a01b0383169081179091556040519081527f24a8c4807b324a269a51827c3446b8ac1cc13810d7d0c0ca1efafabddd7b621990602001620001c1565b6003546001600160a01b0316331480620003f957503330145b806200040e57506003546001600160a01b0316155b6200044f5760405162461bcd60e51b815260206004820152601060248201526f1b59dd8bdd5b985d5d1a1bdc9a5e995960821b604482015260640162000226565b565b60401b69ffff00000000000000001661ffff60401b19919091161790565b60281b67ffffff00000000001662ffffff60281b19919091161790565b600080600060608486031215620004a257600080fd5b83516001600160a01b0381168114620004ba57600080fd5b602085015160409095015190969495509392505050565b60805161518a620004f46000396000818161036401526116aa015261518a6000f3fe60806040526004361061024a5760003560e01c80636d27de6711610139578063b60d4288116100b6578063dc7e98df1161007a578063dc7e98df146108a8578063def5ddaa146108c8578063fbb66910146108e8578063fbfa77cf14610908578063fbffe5fd14610928578063fcaa7e2e1461094857600080fd5b8063b60d4288146107e4578063c7bb25d0146107ec578063cbf75c9a14610833578063d0ee509914610868578063db20266f1461088857600080fd5b8063aa4dd282116100fd578063aa4dd28214610744578063ab033ea914610764578063ad97db1b14610784578063b09d2a16146107a4578063b2b12057146107c457600080fd5b80636d27de671461061457806370a08231146106545780637ecebe00146106815780638c66715c146106ae57806395999ee31461072457600080fd5b80635722647b116101c7578063644e67031161018b578063644e6703146104cc5780636804f613146105835780636817031b146105a357806368c13d6b146105c35780636a4f76911461060157600080fd5b80635722647b146103f657806359eba454146104345780635a611f4e146104545780635aa6e675146104745780635cd82390146104ac57600080fd5b806330adf81f1161020e57806330adf81f146103105780633644e5151461035257806341c0e1b51461038657806346e142fa1461039b57806349f6d2dc146103e357600080fd5b80630b73a18f1461025f578063230244081461027f578063275074581461029257806327d097c6146102d05780632e1a7d4d146102f057600080fd5b3661025a5761025833610968565b005b600080fd5b34801561026b57600080fd5b5061025861027a3660046149b8565b61098f565b61025861028d366004614a05565b610968565b34801561029e57600080fd5b506102bb6102ad366004614a20565b6001600160601b0316151590565b60405190151581526020015b60405180910390f35b3480156102dc57600080fd5b506102586102eb366004614a39565b610a2d565b3480156102fc57600080fd5b506102bb61030b366004614a20565b610b08565b34801561031c57600080fd5b506103447fb7bf278e51ab1478b10530c0300f911d9ed3562fc93ab5e6593368fe23c077a281565b6040519081526020016102c7565b34801561035e57600080fd5b506103447f000000000000000000000000000000000000000000000000000000000000000081565b34801561039257600080fd5b50610258610b62565b3480156103a757600080fd5b506103bb6103b6366004614ac8565b610baa565b604080519586526020860194909452928401919091526060830152608082015260a0016102c7565b6103446103f1366004614b41565b610bd6565b34801561040257600080fd5b50610344610411366004614a39565b600560209081526000938452604080852082529284528284209052825290205481565b34801561044057600080fd5b506102bb61044f366004614b9f565b610d41565b34801561046057600080fd5b5061025861046f366004614bea565b610dca565b34801561048057600080fd5b50600354610494906001600160a01b031681565b6040516001600160a01b0390911681526020016102c7565b3480156104b857600080fd5b506102586104c7366004614a05565b610e24565b3480156104d857600080fd5b506104ec6104e7366004614c07565b610e84565b6040805183516001600160a01b0316815260208085015115158183015284830151151582840152606080860151818401526080808701518185015260a0968701511515878501528551151560c0808601919091529286015160e0850152938501516101008401528401516101208301529183015115156101408201529282015161016084015201516101808201526101a0016102c7565b34801561058f57600080fd5b5061025861059e366004614bea565b610f87565b3480156105af57600080fd5b506102586105be366004614a05565b610fd1565b3480156105cf57600080fd5b506103446105de366004614a39565b600460209081526000938452604080852082529284528284209052825290205481565b61025861060f366004614c3a565b611027565b34801561062057600080fd5b5061063461062f366004614ca1565b61113a565b6040805194855260208501939093529183015260608201526080016102c7565b34801561066057600080fd5b5061034461066f366004614a05565b60066020526000908152604090205481565b34801561068d57600080fd5b5061034461069c366004614a05565b60086020526000908152604090205481565b3480156106ba57600080fd5b506106ce6106c9366004614a39565b611171565b60408051835181526020808501518183015284830151828401526060948501518583015283516001600160a01b0316608083015283015160a08201529082015160c082015291015160e0820152610100016102c7565b34801561073057600080fd5b5061025861073f366004614a20565b61124d565b34801561075057600080fd5b5061034461075f366004614d09565b6112e9565b34801561077057600080fd5b5061025861077f366004614a05565b61134a565b34801561079057600080fd5b5061034461079f366004614d3c565b6113ec565b3480156107b057600080fd5b506102586107bf366004614d8b565b6115be565b3480156107d057600080fd5b506103bb6107df366004614e21565b6118b7565b6102586118f3565b3480156107f857600080fd5b50610344610807366004614e9b565b600760209081526000948552604080862082529385528385208152918452828420909152825290205481565b34801561083f57600080fd5b5061085361084e366004614c07565b6118fe565b604080519283526020830191909152016102c7565b34801561087457600080fd5b50610258610883366004614c07565b6119fb565b34801561089457600080fd5b506102bb6108a3366004614c07565b611a6c565b3480156108b457600080fd5b506102586108c3366004614a39565b611aa7565b3480156108d457600080fd5b506103446108e3366004614c07565b611b67565b3480156108f457600080fd5b50610258610903366004614a39565b611b9f565b34801561091457600080fd5b50600054610494906001600160a01b031681565b34801561093457600080fd5b50610634610943366004614eef565b611c8c565b34801561095457600080fd5b50610258610963366004614a20565b611cb3565b60006109756000806118fe565b50905061098181611d90565b61098b8234611dd3565b5050565b610997611e2f565b6001600160a01b0385811660008181526002602090815260408083209489168084529482529182902080546001600160f81b0316600160f81b17905581516001815291517fc4ad6e84469caa93e473acfa6c029fcf9d3757d8e268e6233c150771e9f88da69281900390910190a3610a10858585611aa7565b610a1b858584611b9f565b610a26858583610a2d565b5050505050565b610a35611e2f565b808162ffffff1614610a8e5760405162461bcd60e51b815260206004820152601f60248201527f6d67762f636f6e6669672f6f666665725f676173626173652f3234626974730060448201526064015b60405180910390fd5b6001600160a01b03838116600081815260026020908152604080832094871680845294825291829020805462ffffff60601b191662ffffff60601b606088901b1617905590518481527fc5859916e5f3fc1ed4d2cfb8c7a6cf709580f228fa0c9d9e0fa468744c7e4a9191015b60405180910390a3505050565b6000610b143383611e9a565b60405133908390600081818185875af1925050503d8060008114610b54576040519150601f19603f3d011682016040523d82523d6000602084013e610b59565b606091505b50909392505050565b610b6a611e2f565b60015464ff000000001916640100000000176001556040517fbe26733c2bf6ff3ea5ba8cfe744422bd49052ff9ed5685c9e81e6f9321dbaddd90600090a1565b6000806000806000610bc08a8a8a8a8a33611f5f565b939e929d50909b50995090975095505050505050565b6000610be0614864565b610bea89896118fe565b6101208301819052610100830191909152610c04906120ac565b610c188161010001518261012001516120f8565b3415610c2857610c283334611dd3565b61012081015160181c63ffffffff166001016080820181905263ffffffff811614610c8b5760405162461bcd60e51b81526020600482015260136024820152726d67762f6f6666657249644f766572666c6f7760681b6044820152606401610a85565b6080810151610120820151610cb79160181b66ffffffff0000001666ffffffff00000019919091161790565b6101208201526001600160a01b03808a16825288166020820152604081018790526060810186905260a0810185905260c0810184905260e08101839052610cff816000612148565b61012081015181516001600160a01b03908116600090815260026020908152604080832082870151909416835292905220556080015198975050505050505050565b6001600160a01b038085166000818152600760209081526040808320888616808552908352818420338086529084528285209689168552959092528083208690555191939092917f6e791f456e6f5034d4928b936c32bf7e650d8228543ce7985d632ab03934837d91610db79188908890614f3c565b60405180910390a3506001949350505050565b610dd2611e2f565b60015460ff60501b191660ff60501b605083901b161760015560405181151581527f9b84fe4d9ffc14a6f7ec50c18884ee0d4bb8165aa718a28558df12ab4bd32b14906020015b60405180910390a150565b610e2c611e2f565b6001546001600160601b03166001600160601b0319606083901b16176001556040516001600160a01b03821681527ff592e42c32883b35bebfbf9d9b801570a25d5ccbba452310746ad2cfd20d548f90602001610e19565b6040805160c081018252600080825260208201819052918101829052606081018290526080810182905260a0810191909152610efa6040518060e0016040528060001515815260200160008152602001600081526020016000815260200160001515815260200160008152602001600081525090565b600080610f0786866118fe565b91509150610f71826040805160c081018252606083811c8252605884901c60ff9081161515602080850191909152605086901c82161515848601529385901c61ffff1691830191909152602884901c62ffffff1660808301529290911c909116151560a082015290565b9350610f7c816128c5565b925050509250929050565b610f8f611e2f565b600154610f9c9082612973565b60015560405181151581527fbf39fbfab835c119637f4dbc4fb0f428c559c210200405d1ec25ddb50a93f9d490602001610e19565b610fd9611e2f565b600080546001600160a01b0319166001600160a01b0383169081179091556040519081527fd459c7242e23d490831b5676a611c4342d899d28f342d89ae80793e56a930f3090602001610e19565b61102f614864565b61103989896118fe565b6101208301819052610100830191909152611053906120ac565b6110678161010001518261012001516120f8565b3415611077576110773334611dd3565b6001600160a01b03808a16808352908916602080840182905260408085018b9052606085018a90526080850186905260a0850189905260c0850188905260e0850187905260009384526004825280842092845291815281832085845290529020546101408201526101208101516110ef826001612148565b610120820151811461112e5761012082015182516001600160a01b03908116600090815260026020908152604080832082880151909416835292905220555b50505050505050505050565b60008060008061114e8a8a8a8a8a8a61298a565b929650909450925090506111648a8a8786612c72565b9650965096509692505050565b61119c6040518060800160405280600081526020016000815260200160008152602001600081525090565b6111d0604051806080016040528060006001600160a01b031681526020016000815260200160008152602001600081525090565b6001600160a01b03808616600090815260046020908152604080832093881683529281528282208683529052205461120781612d72565b6001600160a01b038088166000908152600560209081526040808320938a1683529281528282208883529052205490935061124181612dd4565b92505050935093915050565b611255611e2f565b808162ffffff16146112a95760405162461bcd60e51b815260206004820152601860248201527f6d67762f636f6e6669672f6761736d61782f32346269747300000000000000006044820152606401610a85565b6001546112b69082611d71565b6001556040518181527f8cdff0cd5ed2543bcdf7eb93d8ec1c23626e579925f4531beeef15d84cf78d1890602001610e19565b600033301461133a5760405162461bcd60e51b815260206004820152601f60248201527f6d67762f696e766572746564466c6173686c6f616e2f70726f746563746564006044820152606401610a85565b61134383612e43565b9392505050565b611352611e2f565b6001600160a01b03811661139e5760405162461bcd60e51b815260206004820152601360248201527206d67762f636f6e6669672f676f762f6e6f743606c1b6044820152606401610a85565b600380546001600160a01b0319166001600160a01b0383169081179091556040519081527f24a8c4807b324a269a51827c3446b8ac1cc13810d7d0c0ca1efafabddd7b621990602001610e19565b6000806113f986866118fe565b915050611405816120ac565b6001600160a01b038087166000818152600460209081526040808320948a16808452948252808320898452825280832054938352600582528083209483529381528382208883529052919091205461145d8160601c90565b6001600160a01b0316336001600160a01b0316146114bd5760405162461bcd60e51b815260206004820152601d60248201527f6d67762f726574726163744f666665722f756e617574686f72697a65640000006044820152606401610a85565b6001600160601b0382161561152157826114ed89896114dc8660e01c90565b60c087901c63ffffffff1688612fc4565b935080841461151f576001600160a01b03808a166000908152600260209081526040808320938c168352929052208490555b505b61152f88888885858a6130a4565b841561156657603081901c62ffffff16604882901c62ffffff1601602082901c61ffff16633b9aca00020293506115663385611dd3565b866001600160a01b0316886001600160a01b03167fe2ce51fba856682424155a2d89b2ad1d2adde6ea0a9e3115b4b474cd6cb1798b886040516115ab91815260200190565b60405180910390a3505050949350505050565b428410156116035760405162461bcd60e51b81526020600482015260126024820152711b59dd8bdc195c9b5a5d0bd95e1c1a5c995960721b6044820152606401610a85565b6001600160a01b03878116600081815260086020908152604080832080546001810190915581517fb7bf278e51ab1478b10530c0300f911d9ed3562fc93ab5e6593368fe23c077a2818501528f8716818401528e871660608201526080810195909552948b1660a085015260c084018a905260e084018590526101008085018a9052815180860390910181526101208501909152805191012061190160f01b6101408401527f0000000000000000000000000000000000000000000000000000000000000000610142840152610162830152906101820160408051601f198184030181528282528051602091820120600080855291840180845281905260ff89169284019290925260608301879052608083018690529092509060019060a0016020604051602081039080840390855afa158015611745573d6000803e3d6000fd5b5050604051601f1901519150506001600160a01b0381161580159061177b5750896001600160a01b0316816001600160a01b0316145b6117c75760405162461bcd60e51b815260206004820152601b60248201527f6d67762f7065726d69742f696e76616c69645369676e617475726500000000006044820152606401610a85565b87600760008e6001600160a01b03166001600160a01b0316815260200190815260200160002060008d6001600160a01b03166001600160a01b0316815260200190815260200160002060008c6001600160a01b03166001600160a01b0316815260200190815260200160002060008b6001600160a01b03166001600160a01b03168152602001908152602001600020819055508a6001600160a01b03168c6001600160a01b03167f6e791f456e6f5034d4928b936c32bf7e650d8228543ce7985d632ab03934837d8c8c8c6040516118a193929190614f3c565b60405180910390a3505050505050505050505050565b60008060008060006118cd8b8b8b8b8b8b611f5f565b9398509196509450925090506118e58b8b8886612c72565b965096509650965096915050565b6118fc33610968565b565b6001546001600160a01b03838116600090815260026020908152604080832093861683529290522054605882901c60ff16156119f4576000806119418460601c90565b604051636968abd360e01b81526001600160a01b03888116600483015287811660248301529190911690636968abd3906044016040805180830381865afa158015611990573d6000803e3d6000fd5b505050506040513d601f19601f820116820180604052508101906119b49190614f60565b915091506119c58261ffff81161490565b156119d7576119d48483611d4e565b93505b6001600160701b03811681036119f157610f7c8382613119565b50505b9250929050565b611a03611e2f565b6001600160a01b03828116600081815260026020908152604080832094861680845294825280832080546001600160f81b031690558051928352517fc4ad6e84469caa93e473acfa6c029fcf9d3757d8e268e6233c150771e9f88da69281900390910190a35050565b6001600160a01b038281166000908152600260209081526040808320938516835292905290812054605881901c60ff1615155b949350505050565b611aaf611e2f565b6101f4811115611af85760405162461bcd60e51b815260206004820152601460248201527306d67762f636f6e6669672f6665652f3c3d3530360641b6044820152606401610a85565b6001600160a01b03838116600081815260026020908152604080832094871680845294825291829020805461ffff60e81b191661ffff60e81b60e888901b1617905590518481527f44a6d70a601a6f8a85c075467e9d7245897140cbf6dd505c9d9d764459f5fb649101610afb565b6001600160a01b038281166000908152600260209081526040808320938516835292905290812054603881901c63ffffffff16611a9f565b611ba7611e2f565b6001600160701b0381168114611bff5760405162461bcd60e51b815260206004820152601a60248201527f6d67762f636f6e6669672f64656e736974792f313132626974730000000000006044820152606401610a85565b6001600160a01b03808416600090815260026020908152604080832093861683529290522054611c2f9082613119565b6001600160a01b038481166000818152600260209081526040808320948816808452948252918290209490945551848152919290917f95f1a495c6d9d1a215995408f6ad898c2b33798d6eb3cf3220b4c6cc8b61b0649101610afb565b600080600080611ca089898989893361298a565b929c919b50995090975095505050505050565b611cbb611e2f565b61ffff81168114611d0e5760405162461bcd60e51b815260206004820152601a60248201527f6d67762f636f6e6669672f67617370726963652f3136626974730000000000006044820152606401610a85565b600154611d1b9082611d4e565b6001556040518181527fdbebd814ae648f654dcc50c734aa76e55a32e96b7d85303a08e2ddf11874a0dd90602001610e19565b60401b69ffff00000000000000001669ffff000000000000000019919091161790565b60281b67ffffff00000000001667ffffff000000000019919091161790565b602081901c60ff1615611dd05760405162461bcd60e51b81526020600482015260086024820152671b59dd8bd919585960c21b6044820152606401610a85565b50565b6001600160a01b03821660008181526006602052604090819020805484019055517f1bbf55d483639f8103dc4e035af71a4fbdb16c80be740fa3eef81198acefa09490611e239084815260200190565b60405180910390a25050565b6003546001600160a01b0316331480611e4757503330145b80611e5b57506003546001600160a01b0316155b6118fc5760405162461bcd60e51b815260206004820152601060248201526f1b59dd8bdd5b985d5d1a1bdc9a5e995960821b6044820152606401610a85565b6001600160a01b03821660009081526006602052604090205481811015611f035760405162461bcd60e51b815260206004820152601960248201527f6d67762f696e73756666696369656e7450726f766973696f6e000000000000006044820152606401610a85565b6001600160a01b038316600081815260066020526040908190208484039055517f59c79d79be0fadf59fe689b6952b7ebe90201a3a1f00d4a31982377890bc604690611f529085815260200190565b60405180910390a2505050565b6000806000806000611f6f6148d0565b6001600160a01b03808d1682528b166020820152611f8d8c8c6118fe565b61010083015260e0820152611fa061492e565b6001600160a01b03881660a082015288151560c082015260e0820151610100830151611fcc91906120f8565b611fda8261010001516120ac565b6040517fbc01c241b6c13c2ee496b5103c73ba7c02e7d4bbc77ee637862cc2b152f068b990600090a161200f81838d8d61314a565b60808401519299509097509550612025906135d9565b602080830151835160808085015160e0860151604080518d81529687018c905286019190915260608501526001600160a01b03808d1694938116939216917ff906db58b0529ffcfdb9bf545bfdbace7ca86906a716bfd1b65f62ff07cdec47910160405180910390a4806080015193508060e0015192505050965096509650965096915050565b605881901c60ff1615611dd05760405162461bcd60e51b81526020600482015260146024820152731b59dd8bdc99595b9d1c985b98de531bd8dad95960621b6044820152606401610a85565b61210182611d90565b61210d8160f81c151590565b61098b5760405162461bcd60e51b815260206004820152600c60248201526b6d67762f696e61637469766560a01b6044820152606401610a85565b60c082015161ffff81161461219f5760405162461bcd60e51b815260206004820152601e60248201527f6d67762f77726974654f666665722f67617370726963652f31366269747300006044820152606401610a85565b61010082015160401c61ffff168260c0015110156121ca5761010082015160401c61ffff1660c08301525b61010082015160281c62ffffff168260a00151111561222b5760405162461bcd60e51b815260206004820152601d60248201527f6d67762f77726974654f666665722f6761737265712f746f6f486967680000006044820152606401610a85565b600082606001511161227f5760405162461bcd60e51b815260206004820152601b60248201527f6d67762f77726974654f666665722f67697665732f746f6f4c6f7700000000006044820152606401610a85565b61012082015160781c6001600160701b031661012083015160601c62ffffff168360a001510102826060015110156122f95760405162461bcd60e51b815260206004820152601d60248201527f6d67762f77726974654f666665722f64656e736974792f746f6f4c6f770000006044820152606401610a85565b60608201516001600160601b038116146123555760405162461bcd60e51b815260206004820152601b60248201527f6d67762f77726974654f666665722f67697665732f39366269747300000000006044820152606401610a85565b60408201516001600160601b038116146123b15760405162461bcd60e51b815260206004820152601b60248201527f6d67762f77726974654f666665722f77616e74732f39366269747300000000006044820152606401610a85565b6000806123bd84613677565b9150915083602001516001600160a01b031684600001516001600160a01b03167f2b101f9ef8ca2761d91bea55ab50a4d051e9248088ff7314ddb8826839544c2a33876040015188606001518960c001518a60a001518b608001518a60405161246297969594939291906001600160a01b03979097168752602087019590955260408601939093526060850191909152608084015260a083015260c082015260e00190565b60405180910390a383516001600160a01b03908116600090815260056020908152604080832082890151909416835292815282822060808801518352905290812054841561253c576124b48160601c90565b6001600160a01b0316336001600160a01b0316146125145760405162461bcd60e51b815260206004820152601c60248201527f6d67762f7570646174654f666665722f756e617574686f72697a6564000000006044820152606401610a85565b603081901c62ffffff16604882901c62ffffff1601602082901c61ffff16633b9aca00020291505b841580612556575060a0860151604882901c62ffffff1614155b8061256d575060c0860151602082901c61ffff1614155b8061258e575061012086015160601c62ffffff16603082901c62ffffff1614155b156126385761012086015160009060601c62ffffff1690506125fe338860a00151838a60c0015160201b65ffff000000001660309190911b68ffffff0000000000001660489290921b6bffffff0000000000000000001660609390931b6001600160601b03191692909217171790565b87516001600160a01b039081166000908152600560209081526040808320828d0151909416835292815282822060808c0151835290522055505b5060c08501516101208601516000919060601c62ffffff168760a001510102633b9aca00029050818111156126785761267333838303611e9a565b61268c565b8181101561268c5761268c33828403611dd3565b506101408501516001600160601b031615806126b0575061014085015160e01c8314155b1561283c57821561273657608085015185516001600160a01b039081166000908152600460209081526040808320828b01519094168352928152828220878352905220546126fd916138a3565b85516001600160a01b039081166000908152600460209081526040808320828b0151909416835292815282822087835290522055612769565b60808501516101208601516127629160381b63ffffffff60381b1663ffffffff60381b19919091161790565b6101208601525b81156127e057608085015185516001600160a01b039081166000908152600460208181526040808420828c018051871686529083528185208986528352818520548c518716865293835281852090519095168452938152838320878452905291902060e09290921b6001600160e01b039091161790555b8380156127fa57506101408501516001600160601b031615155b1561283c576128358560000151866020015161281b88610140015160e01c90565b61014089015160c01c63ffffffff16896101200151612fc4565b6101208601525b60408501516060808701516000926001600160601b03909116911b6bffffffffffffffffffffffff60601b1660c085901b63ffffffff60c01b1660e087901b17171786516001600160a01b039081166000908152600460209081526040808320828c015190941683529281528282206080909a0151825298909852909620959095555050505050565b6129096040518060e0016040528060001515815260200160008152602001600081526020016000815260200160001515815260200160008152602001600081525090565b60f882901c1515815260e882901c61ffff166020820152607882901c6001600160701b03166040820152606082811c62ffffff1690820152605882901c60ff1615156080820152603882901c63ffffffff90811660a083015260189290921c90911660c082015290565b60581b60ff60581b1660ff60581b19919091161790565b60008060008087886001600160a01b0316146129e85760405162461bcd60e51b815260206004820152601d60248201527f6d67762f6d4f726465722f74616b657257616e74732f313630626974730000006044820152606401610a85565b86876001600160a01b031614612a405760405162461bcd60e51b815260206004820152601d60248201527f6d67762f6d4f726465722f74616b657247697665732f313630626974730000006044820152606401610a85565b612a486148d0565b6001600160a01b03808c1682528a166020820152612a668b8b6118fe565b610100830181905260e083019190915260381c63ffffffff1660408083019182526001600160a01b03808e16600090815260046020908152838220928f1682529182528281209351815292905290205460608201526080810189905260a08101889052612ad161492e565b898152602081018990526001600160a01b03871660a082015287151560c082015260e0820151610100830151612b0791906120f8565b612b158261010001516120ac565b610100820151612b26906001612973565b82610100018181525050816101000151600260008e6001600160a01b03166001600160a01b0316815260200190815260200160002060008d6001600160a01b03166001600160a01b03168152602001908152602001600020819055507fbc01c241b6c13c2ee496b5103c73ba7c02e7d4bbc77ee637862cc2b152f068b960405160405180910390a1612bba818360016138c0565b612bc781608001516135d9565b866001600160a01b03168b6001600160a01b03168d6001600160a01b03167ff906db58b0529ffcfdb9bf545bfdbace7ca86906a716bfd1b65f62ff07cdec478460400151856060015186608001518760e00151604051612c40949392919093845260208401929092526040830152606082015260800190565b60405180910390a460408101516060820151608083015160e090930151919e909d50919b509950975050505050505050565b6001600160a01b0380851660009081526007602090815260408083208785168452825280832093861683529281528282203383529052205481811015612ced5760405162461bcd60e51b815260206004820152601060248201526f6d67762f6c6f77416c6c6f77616e636560801b6044820152606401610a85565b6001600160a01b0380861660008181526007602090815260408083208986168085529083528184209589168452948252808320338085529252918290208686039081905591517f6e791f456e6f5034d4928b936c32bf7e650d8228543ce7985d632ab03934837d92612d63928992909190614f3c565b60405180910390a35050505050565b612d9d6040518060800160405280600081526020016000815260200160008152602001600081525090565b60e082901c815263ffffffff60c083901c1660208201526001600160601b03606083811c8216604084015292169181019190915290565b612e08604051806080016040528060006001600160a01b031681526020016000815260200160008152602001600081525090565b606082811c8252604883901c62ffffff908116602080850191909152603085901c90911660408401529290921c61ffff169181019190915290565b600080636c49c32c60e01b83604051602401612e5f9190614f84565b60408051808303601f190181529190526020810180516001600160e01b0319939093166001600160e01b0390931692909217909152905060c0830135604881901c62ffffff169060601c60005a9050826040820482031015612f0157604080516060810182527f6d67762f6e6f74456e6f756768476173466f724d616b65725472616465000000815260006020820181905291810191909152612f0190606081fd5b600080612f0f848688613b32565b915091505a8303965081612f5557612f5560405180606001604052806e1b59dd8bdb585ad95c94995d995c9d608a1b81526020018960001b815260200183815250606081fd5b6000612f73612f6760208b018b614a05565b86308c60800135613b60565b905080612fb857612fb86040518060600160405280741b59dd8bdb585ad95c951c985b9cd9995c91985a5b605a1b81526020018a60001b815260200184815250606081fd5b50505050505050919050565b60008315613037576001600160a01b03808716600090815260046020908152604080832093891683529281528282208783529052205461300490846138a3565b6001600160a01b038088166000908152600460209081526040808320938a16835292815282822088835290522055613054565b63ffffffff60381b19821663ffffffff60381b603885901b161791505b821561309b576001600160a01b038681166000908152600460209081526040808320938916835292815282822086835290522080546001600160e01b031660e086901b1790555b50949350505050565b6001600160601b03198316925080156130c45765ffff0000000019821691505b506001600160a01b039485166000818152600460209081526040808320979098168083529681528782208683528152878220949094559081526005835285812094815293825284842092845291905291902055565b60781b6dffffffffffffffffffffffffffff60781b166dffffffffffffffffffffffffffff60781b19919091161790565b60008080805b848110156135ce57600060408901819052606089015285858281811061317857613178615016565b90506080020160006004811061319057613190615016565b60209081029190910135604089810191825289516001600160a01b039081166000908152600485528281208c86018051841683529086528382208551835286528382205460608e019081528d518416835260058752848320915190931682528552828120935181529290935290205460c0890152516001600160601b0316158061325c575085858281811061322757613227615016565b90506080020160036004811061323f5761323f615016565b602002013561325a8860c0015162ffffff60489190911c1690565b115b6135c65785858281811061327257613272615016565b90506080020160016004811061328a5761328a615016565b60200201358686838181106132a1576132a1615016565b9050608002016001600481106132b9576132b9615016565b60200201356001600160601b0316146133145760405162461bcd60e51b815260206004820152601c60248201527f6d67762f736e697065732f74616b657257616e74732f393662697473000000006044820152606401610a85565b85858281811061332657613326615016565b90506080020160026004811061333e5761333e615016565b602002013586868381811061335557613355615016565b90506080020160026004811061336d5761336d615016565b60200201356001600160601b0316146133c85760405162461bcd60e51b815260206004820152601c60248201527f6d67762f736e697065732f74616b657247697665732f393662697473000000006044820152606401610a85565b8585828181106133da576133da615016565b9050608002016001600481106133f2576133f2615016565b6020020135608088015285858281811061340e5761340e615016565b90506080020160026004811061342657613426615016565b602002013560a0880152610100870151613441906001612973565b610100880181905287516001600160a01b039081166000908152600260209081526040808320828d015190941683529290529081209190915580806134868b8b613c48565b925092509250806f6d67762f74726164655375636365737360801b036134ad576001870196505b806e1b59dd8bdb9bdd115e1958dd5d1959608a1b14613501576134fa8a600001518b602001516134e18d6060015160e01c90565b60608e015160c01c63ffffffff168e6101000151612fc4565b6101008b01525b6101008a0151613512906000612973565b8a610100018181525050896101000151600260008c600001516001600160a01b03166001600160a01b0316815260200190815260200160002060008c602001516001600160a01b03166001600160a01b03168152602001908152602001600020819055506135808b8b614248565b61358a8b8b61434a565b806e1b59dd8bdb9bdd115e1958dd5d1959608a1b146135b0576135b08b8b858585614436565b8a60400151860195508a60600151850194505050505b600101613150565b509450945094915050565b8015611dd057604051600090339083908381818185875af1925050503d8060008114613621576040519150601f19603f3d011682016040523d82523d6000602084013e613626565b606091505b505090508061098b5760405162461bcd60e51b815260206004820152601760248201527f6d67762f73656e6450656e616c747952657665727465640000000000000000006044820152606401610a85565b60008060008060008560e0015190506000866080015182146136cc5786516001600160a01b039081166000908152600460209081526040808320828c01519094168352928152828220858352905220546136d3565b8661014001515b90506001600160601b03811661372c5761012087015160381c63ffffffff1687516001600160a01b039081166000908152600460209081526040808320828d015190941683529281528282208483529052205490925090505b6137378782846144bc565b156137d15760005b60c082901c63ffffffff16156137b9575086516001600160a01b039081166000908152600460209081526040808320828c0151909416835292815282822063ffffffff60c086901c168084529152919020549061379d8983836144bc565b156137ad578093508192506137b3565b506137b9565b5061373f565b8260c083901c63ffffffff16909550935061385a9050565b60005b6137de8260e01c90565b156138475760006137ef8360e01c90565b89516001600160a01b039081166000908152600460209081526040808320828f0151909416835292815282822084835290522054925090506138328983836144bc565b1561383d5750613847565b92509050806137d4565b6138518260e01c90565b94509192508291505b8660800151841461386b5783613875565b61014087015160e01c5b876080015184146138865783613896565b61014088015160c01c63ffffffff165b9550955050505050915091565b60c01b63ffffffff60c01b1663ffffffff60c01b19919091161790565b8080156138e757508260c001516138de5760008260a00151116138e7565b60008260800151115b80156138f7575060008260400151115b15613ab35781516001600160a01b03908116600090815260056020908152604080832082870151909416835292815282822083860151835290529081205460c084015280806139468686613c48565b608088015160a089015160408a015160608b015160c08c015196995094975092955090939092906e1b59dd8bdb9bdd115e1958dd5d1959608a1b8614613a3d5760408b01518b51116139995760006139a2565b60408b01518b51035b60808b015260608b81015160208d01510360a08c01528a015160c01c63ffffffff168a6040018181525050600460008b600001516001600160a01b03166001600160a01b0316815260200190815260200160002060008b602001516001600160a01b03166001600160a01b0316815260200190815260200160002060008b604001518152602001908152602001600020548a60600181815250505b613a5d8b8b886e1b59dd8bdb9bdd115e1958dd5d1959608a1b14156138c0565b60408a0183905260808a0185905260a08a0184905260608a0182905260c08a018190526e1b59dd8bdb9bdd115e1958dd5d1959608a1b8614613aa657613aa68b8b8a8a8a614436565b5050505050505050505050565b613ad28260000151836020015160008560400151866101000151612fc4565b6101008301819052613ae5906000612973565b610100830181905282516001600160a01b0390811660009081526002602090815260408083208288015190941683529290522055613b238383614248565b613b2d838361434a565b505050565b600080613b3d61497e565b60648185516020870160008a8af192508060448415020151915050935093915050565b6000806323b872dd60e01b858585604051602401613b8093929190614f3c565b604051602081830303815290604052906001600160e01b0319166020820180516001600160e01b0383818316178352505050509050600080876001600160a01b031683604051613bd0919061502c565b6000604051808303816000865af19150503d8060008114613c0d576040519150601f19603f3d011682016040523d82523d6000602084013e613c12565b606091505b5091509150818015613c3c575080511580613c3c575080806020019051810190613c3c9190615067565b98975050505050505050565b600080600080613c6885606001516001600160601b0360609190911c1690565b90506000613c8086606001516001600160601b031690565b608087015160a0880151919250908083028483021115613cc05750600095508594506e1b59dd8bdb9bdd115e1958dd5d1959608a1b935061424192505050565b8860c001518015613cd057508183105b80613ce757508860c00151158015613ce757508084105b15613cff576080880183905260a08801849052613d76565b8860c0015115613d4a57838202838181613d1b57613d1b615000565b0615613d28576001613d2b565b60005b60ff16848281613d3d57613d3d615000565b040160a08a015250613d76565b83600003613d5e5760808801839052613d76565b8381840281613d6f57613d6f615000565b0460808901525b50505050600080306001600160a01b031663aa4dd28260e01b878960a00151604051602401613da69291906150ea565b60408051601f198184030181529181526020820180516001600160e01b03166001600160e01b0319909416939093179092529051613de4919061502c565b6000604051808303816000865af19150503d8060008114613e21576040519150601f19603f3d011682016040523d82523d6000602084013e613e26565b606091505b50915091508115613f805780806020019051810190613e459190615112565b94506f6d67762f74726164655375636365737360801b925085602001516001600160a01b031686600001516001600160a01b03167f1d81940ff2c3ac549c8acefd7c1b2ffb24aacc8b3cfa309c22abc3de79727f9d88604001518a60a001518a608001518b60a00151604051613edd94939291909384526001600160a01b039290921660208401526040830152606082015260800190565b60405180910390a360e086015160501c60ff1615613f5b5760e086015160a088015160405163cac1827160e01b815260609290921c9163cac1827191613f28918a91906004016150ea565b600060405180830381600087803b158015613f4257600080fd5b505af1158015613f56573d6000803e3d6000fd5b505050505b6080860151604088018051909101905260a08601516060880180519091019052614206565b602081015160408201516060830151909650945092506e1b59dd8bdb585ad95c94995d995c9d608a1b831480613fcd575082741b59dd8bdb585ad95c951c985b9cd9995c91985a5b605a1b145b80613fee575082731b59dd8bdb585ad95c949958d95a5d9951985a5b60621b145b156141005785602001516001600160a01b031686600001516001600160a01b03167f1d59c048edb5397821854bd12cbe02242b82101c677f949d076d14eb7bd8343688604001518a60a001518a608001518b60a001518960405161407d9594939291909485526001600160a01b0393909316602085015260408401919091526060830152608082015260a00190565b60405180910390a360e086015160501c60ff16156140fb5760e086015160a0880151604051631159507360e01b815260609290921c916311595073916140c8918a91906004016150ea565b600060405180830381600087803b1580156140e257600080fd5b505af11580156140f6573d6000803e3d6000fd5b505050505b614206565b827f6d67762f6e6f74456e6f756768476173466f724d616b657254726164650000000361416f5760405162461bcd60e51b815260206004820152601d60248201527f6d67762f6e6f74456e6f756768476173466f724d616b657254726164650000006044820152606401610a85565b82741b59dd8bdd185ad95c951c985b9cd9995c91985a5b605a1b036141ce5760405162461bcd60e51b81526020600482015260156024820152741b59dd8bdd185ad95c951c985b9cd9995c91985a5b605a1b6044820152606401610a85565b60405162461bcd60e51b815260206004820152600d60248201526c36b3bb17b9bbb0b822b93937b960991b6044820152606401610a85565b61423e86600001518760200151886040015189606001518a60c00151886f6d67762f74726164655375636365737360801b14156130a4565b50505b9250925092565b6101008101516000906127109060e81c61ffff168460400151028161426f5761426f615000565b04905080156142e557604083018051829003905260e0830181905281516000546142a391906001600160a01b031683614562565b6142e55760405162461bcd60e51b81526020600482015260136024820152721b59dd8bd99959551c985b9cd9995c91985a5b606a1b6044820152606401610a85565b604083015115613b2d5761430682600001518460a001518560400151614562565b613b2d5760405162461bcd60e51b815260206004820152601560248201527436b3bb17a6b3bb2330b4b62a37a830bcaa30b5b2b960591b6044820152606401610a85565b60a08201518151602083015160408086015160608701519151631154020b60e01b81526001600160a01b039485166004820152928416602484015260448301526064820152911690631154020b90608401600060405180830381600087803b1580156143b557600080fd5b505af11580156143c9573d6000803e3d6000fd5b5050505060006143e782602001518460a00151308660600151613b60565b905080613b2d5760405162461bcd60e51b815260206004820152601760248201527f6d67762f74616b65724661696c546f506179546f74616c0000000000000000006044820152606401610a85565b806f6d67762f74726164655375636365737360801b036144595761445984614637565b60c084015160481c62ffffff1680841115614472578093505b61448085858303858561467c565b84019350816f6d67762f74726164655375636365737360801b146144b4576144a885856147d2565b60808701805190910190525b505050505050565b6000816000036144ce57506001611343565b60408401516060858101516001600160601b039186901c82169291861691908084028284028082036145555789516001600160a01b039081166000908152600560209081526040808320828f015190941683529281528282208b835290529081205460481c62ffffff1660a08c015194029590930294909410159550611343945050505050565b1194506113439350505050565b604080516001600160a01b038481166024830152604480830185905283518084039091018152606490920183526020820180516001600160e01b031663a9059cbb60e01b1790529151600092839182918816906145c090859061502c565b6000604051808303816000865af19150503d80600081146145fd576040519150601f19603f3d011682016040523d82523d6000602084013e614602565b606091505b509150915081801561462c57508051158061462c57508080602001905181019061462c9190615067565b979650505050505050565b614657816020015161464d8360c0015160601c90565b8360a00151614562565b611dd057602081015160005460a083015161098b92916001600160a01b031690614562565b600080633d3d130d60e01b866040518060400160405280878152602001868152506040516024016146ae92919061512b565b60408051601f198184030181529190526020810180516001600160e01b03166001600160e01b0319939093169290921790915260c087015190915060601c60005a90508660408204820310156147465760405162461bcd60e51b815260206004820181905260248201527f6d67762f6e6f74456e6f756768476173466f724d616b6572506f7374686f6f6b6044820152606401610a85565b600080614754848a87613b32565b915091505a83039550816147c55789602001516001600160a01b03168a600001516001600160a01b03167f51d5a3ecf332626d83c8207fe9bd22f38801f578c7eb222e2d811cd1b4c629a58c60400151846040516147bc929190918252602082015260400190565b60405180910390a35b5050505050949350505050565b60c082015160009062ffffff604882901c81169161ffff602082901c1660309190911c909116820102633b9aca00028184111561480d578193505b61010085015160009060601c62ffffff1660e08701519086019060401c61ffff16633b9aca0002029050818111156148425750805b61485b6148538760c0015160601c90565b828403611dd3565b95945050505050565b60405180610160016040528060006001600160a01b0316815260200160006001600160a01b031681526020016000815260200160008152602001600081526020016000815260200160008152602001600081526020016000815260200160008152602001600081525090565b60405180610120016040528060006001600160a01b0316815260200160006001600160a01b03168152602001600081526020016000815260200160008152602001600081526020016000815260200160008152602001600081525090565b604051806101000160405280600081526020016000815260200160008152602001600081526020016000815260200160006001600160a01b03168152602001600015158152602001600081525090565b60405180608001604052806004906020820280368337509192915050565b80356001600160a01b03811681146149b357600080fd5b919050565b600080600080600060a086880312156149d057600080fd5b6149d98661499c565b94506149e76020870161499c565b94979496505050506040830135926060810135926080909101359150565b600060208284031215614a1757600080fd5b6113438261499c565b600060208284031215614a3257600080fd5b5035919050565b600080600060608486031215614a4e57600080fd5b614a578461499c565b9250614a656020850161499c565b9150604084013590509250925092565b60008083601f840112614a8757600080fd5b50813567ffffffffffffffff811115614a9f57600080fd5b6020830191508360208260071b85010111156119f457600080fd5b8015158114611dd057600080fd5b600080600080600060808688031215614ae057600080fd5b614ae98661499c565b9450614af76020870161499c565b9350604086013567ffffffffffffffff811115614b1357600080fd5b614b1f88828901614a75565b9094509250506060860135614b3381614aba565b809150509295509295909350565b600080600080600080600060e0888a031215614b5c57600080fd5b614b658861499c565b9650614b736020890161499c565b96999698505050506040850135946060810135946080820135945060a0820135935060c0909101359150565b60008060008060808587031215614bb557600080fd5b614bbe8561499c565b9350614bcc6020860161499c565b9250614bda6040860161499c565b9396929550929360600135925050565b600060208284031215614bfc57600080fd5b813561134381614aba565b60008060408385031215614c1a57600080fd5b614c238361499c565b9150614c316020840161499c565b90509250929050565b600080600080600080600080610100898b031215614c5757600080fd5b614c608961499c565b9750614c6e60208a0161499c565b979a9799505050506040860135956060810135956080820135955060a0820135945060c0820135935060e0909101359150565b60008060008060008060c08789031215614cba57600080fd5b614cc38761499c565b9550614cd16020880161499c565b945060408701359350606087013592506080870135614cef81614aba565b9150614cfd60a0880161499c565b90509295509295509295565b600080828403610140811215614d1e57600080fd5b61012080821215614d2e57600080fd5b849350610f7c81860161499c565b60008060008060808587031215614d5257600080fd5b614d5b8561499c565b9350614d696020860161499c565b9250604085013591506060850135614d8081614aba565b939692955090935050565b60008060008060008060008060006101208a8c031215614daa57600080fd5b614db38a61499c565b9850614dc160208b0161499c565b9750614dcf60408b0161499c565b9650614ddd60608b0161499c565b955060808a0135945060a08a0135935060c08a013560ff81168114614e0157600080fd5b8093505060e08a013591506101008a013590509295985092959850929598565b60008060008060008060a08789031215614e3a57600080fd5b614e438761499c565b9550614e516020880161499c565b9450604087013567ffffffffffffffff811115614e6d57600080fd5b614e7989828a01614a75565b9095509350506060870135614e8d81614aba565b9150614cfd6080880161499c565b60008060008060808587031215614eb157600080fd5b614eba8561499c565b9350614ec86020860161499c565b9250614ed66040860161499c565b9150614ee46060860161499c565b905092959194509250565b600080600080600060a08688031215614f0757600080fd5b614f108661499c565b9450614f1e6020870161499c565b935060408601359250606086013591506080860135614b3381614aba565b6001600160a01b039384168152919092166020820152604081019190915260600190565b60008060408385031215614f7357600080fd5b505080516020909101519092909150565b61012081016001600160a01b0380614f9b8561499c565b16835280614fab6020860161499c565b1660208401525060408301356040830152606083013560608301526080830135608083015260a083013560a083015260c083013560c083015260e083013560e083015261010080840135818401525092915050565b634e487b7160e01b600052601260045260246000fd5b634e487b7160e01b600052603260045260246000fd5b6000825160005b8181101561504d5760208186018101518583015201615033565b8181111561505c576000828501525b509190910192915050565b60006020828403121561507957600080fd5b815161134381614aba565b60018060a01b038082511683528060208301511660208401525060408101516040830152606081015160608301526080810151608083015260a081015160a083015260c081015160c083015260e081015160e08301526101008082015181840152505050565b61014081016150f98285615084565b6001600160a01b03929092166101209190910152919050565b60006020828403121561512457600080fd5b5051919050565b610160810161513a8285615084565b82516101208301526020830151610140830152939250505056fea26469706673582212209a27c46efe9a049a0c8d78cb7362a0c516bbb9784d448b972f2886aca3b09ff464736f6c634300080e0033",
    "linkReferences": {}
  },
  "methodIdentifiers": {
    "DOMAIN_SEPARATOR()": "3644e515",
    "PERMIT_TYPEHASH()": "30adf81f",
    "activate(address,address,uint256,uint256,uint256)": "0b73a18f",
    "allowances(address,address,address,address)": "c7bb25d0",
    "approve(address,address,address,uint256)": "59eba454",
    "balanceOf(address)": "70a08231",
    "best(address,address)": "def5ddaa",
    "config(address,address)": "cbf75c9a",
    "configInfo(address,address)": "644e6703",
    "deactivate(address,address)": "d0ee5099",
    "flashloan((address,address,uint256,uint256,uint256,uint256,uint256,uint256,uint256),address)": "aa4dd282",
    "fund()": "b60d4288",
    "fund(address)": "23024408",
    "governance()": "5aa6e675",
    "isLive(uint256)": "27507458",
    "kill()": "41c0e1b5",
    "locked(address,address)": "db20266f",
    "marketOrder(address,address,uint256,uint256,bool)": "fbffe5fd",
    "marketOrderFor(address,address,uint256,uint256,bool,address)": "6d27de67",
    "newOffer(address,address,uint256,uint256,uint256,uint256,uint256)": "49f6d2dc",
    "nonces(address)": "7ecebe00",
    "offerDetails(address,address,uint256)": "5722647b",
    "offerInfo(address,address,uint256)": "8c66715c",
    "offers(address,address,uint256)": "68c13d6b",
    "permit(address,address,address,address,uint256,uint256,uint8,bytes32,bytes32)": "b09d2a16",
    "retractOffer(address,address,uint256,bool)": "ad97db1b",
    "setDensity(address,address,uint256)": "fbb66910",
    "setFee(address,address,uint256)": "dc7e98df",
    "setGasbase(address,address,uint256)": "27d097c6",
    "setGasmax(uint256)": "95999ee3",
    "setGasprice(uint256)": "fcaa7e2e",
    "setGovernance(address)": "ab033ea9",
    "setMonitor(address)": "5cd82390",
    "setNotify(bool)": "5a611f4e",
    "setUseOracle(bool)": "6804f613",
    "setVault(address)": "6817031b",
    "snipes(address,address,uint256[4][],bool)": "46e142fa",
    "snipesFor(address,address,uint256[4][],bool,address)": "b2b12057",
    "updateOffer(address,address,uint256,uint256,uint256,uint256,uint256,uint256)": "6a4f7691",
    "vault()": "fbfa77cf",
    "withdraw(uint256)": "2e1a7d4d"
  },
  "id": 2
}