{
  "abi": [
    {
      "inputs": [
        {
          "internalType": "contract IMangrove",
          "name": "mgv",
          "type": "address"
        },
        {
          "internalType": "contract IERC20",
          "name": "base",
          "type": "address"
        },
        {
          "internalType": "contract IERC20",
          "name": "quote",
          "type": "address"
        },
        {
          "internalType": "uint256",
          "name": "base_0",
          "type": "uint256"
        },
        {
          "internalType": "uint256",
          "name": "quote_0",
          "type": "uint256"
        },
        {
          "internalType": "uint256",
          "name": "nslots",
          "type": "uint256"
        },
        {
          "internalType": "uint256",
          "name": "price_incr",
          "type": "uint256"
        },
        {
          "internalType": "address",
          "name": "deployer",
          "type": "address"
        }
      ],
      "stateMutability": "nonpayable",
      "type": "constructor"
    },
    {
      "anonymous": false,
      "inputs": [
        {
          "indexed": false,
          "internalType": "uint256",
          "name": "from",
          "type": "uint256"
        },
        {
          "indexed": false,
          "internalType": "uint256",
          "name": "to",
          "type": "uint256"
        }
      ],
      "name": "Initialized",
      "type": "event"
    },
    {
      "anonymous": false,
      "inputs": [
        {
          "indexed": false,
          "internalType": "contract IMangrove",
          "name": "mangrove",
          "type": "address"
        },
        {
          "indexed": true,
          "internalType": "contract IERC20",
          "name": "outbound_tkn",
          "type": "address"
        },
        {
          "indexed": true,
          "internalType": "contract IERC20",
          "name": "inbound_tkn",
          "type": "address"
        },
        {
          "indexed": true,
          "internalType": "uint256",
          "name": "offerId",
          "type": "uint256"
        },
        {
          "indexed": false,
          "internalType": "bytes32",
          "name": "reason",
          "type": "bytes32"
        }
      ],
      "name": "LogIncident",
      "type": "event"
    },
    {
      "anonymous": false,
      "inputs": [
        {
          "indexed": false,
          "internalType": "uint256",
          "name": "",
          "type": "uint256"
        }
      ],
      "name": "SetGasreq",
      "type": "event"
    },
    {
      "anonymous": false,
      "inputs": [
        {
          "indexed": false,
          "internalType": "contract AbstractRouter",
          "name": "",
          "type": "address"
        }
      ],
      "name": "SetRouter",
      "type": "event"
    },
    {
      "inputs": [],
      "name": "BASE",
      "outputs": [
        {
          "internalType": "contract IERC20",
          "name": "",
          "type": "address"
        }
      ],
      "stateMutability": "view",
      "type": "function"
    },
    {
      "inputs": [],
      "name": "MGV",
      "outputs": [
        {
          "internalType": "contract IMangrove",
          "name": "",
          "type": "address"
        }
      ],
      "stateMutability": "view",
      "type": "function"
    },
    {
      "inputs": [],
      "name": "NSLOTS",
      "outputs": [
        {
          "internalType": "uint256",
          "name": "",
          "type": "uint256"
        }
      ],
      "stateMutability": "view",
      "type": "function"
    },
    {
      "inputs": [],
      "name": "QUOTE",
      "outputs": [
        {
          "internalType": "contract IERC20",
          "name": "",
          "type": "address"
        }
      ],
      "stateMutability": "view",
      "type": "function"
    },
    {
      "inputs": [
        {
          "internalType": "bytes",
          "name": "data",
          "type": "bytes"
        }
      ],
      "name": "_staticdelegatecall",
      "outputs": [],
      "stateMutability": "nonpayable",
      "type": "function"
    },
    {
      "inputs": [],
      "name": "admin",
      "outputs": [
        {
          "internalType": "address",
          "name": "",
          "type": "address"
        }
      ],
      "stateMutability": "view",
      "type": "function"
    },
    {
      "inputs": [
        {
          "internalType": "contract IERC20",
          "name": "outbound_tkn",
          "type": "address"
        },
        {
          "internalType": "uint256",
          "name": "amount",
          "type": "uint256"
        }
      ],
      "name": "approveMangrove",
      "outputs": [],
      "stateMutability": "nonpayable",
      "type": "function"
    },
    {
      "inputs": [
        {
          "internalType": "contract IERC20",
          "name": "token",
          "type": "address"
        }
      ],
      "name": "approveRouter",
      "outputs": [],
      "stateMutability": "nonpayable",
      "type": "function"
    },
    {
      "inputs": [],
      "name": "delta",
      "outputs": [
        {
          "internalType": "uint256",
          "name": "",
          "type": "uint256"
        }
      ],
      "stateMutability": "view",
      "type": "function"
    },
    {
      "inputs": [
        {
          "internalType": "contract IERC20",
          "name": "outbound_tkn",
          "type": "address"
        },
        {
          "internalType": "contract IERC20",
          "name": "inbound_tkn",
          "type": "address"
        },
        {
          "internalType": "uint256",
          "name": "gasreq",
          "type": "uint256"
        },
        {
          "internalType": "uint256",
          "name": "gasprice",
          "type": "uint256"
        },
        {
          "internalType": "uint256",
          "name": "offerId",
          "type": "uint256"
        }
      ],
      "name": "getMissingProvision",
      "outputs": [
        {
          "internalType": "uint256",
          "name": "",
          "type": "uint256"
        }
      ],
      "stateMutability": "view",
      "type": "function"
    },
    {
      "inputs": [
        {
          "internalType": "bool",
          "name": "liveOnly",
          "type": "bool"
        }
      ],
      "name": "get_offers",
      "outputs": [
        {
          "internalType": "uint256[][2]",
          "name": "offers",
          "type": "uint256[][2]"
        }
      ],
      "stateMutability": "view",
      "type": "function"
    },
    {
      "inputs": [],
      "name": "has_router",
      "outputs": [
        {
          "internalType": "bool",
          "name": "",
          "type": "bool"
        }
      ],
      "stateMutability": "view",
      "type": "function"
    },
    {
      "inputs": [
        {
          "internalType": "bool",
          "name": "reset",
          "type": "bool"
        },
        {
          "internalType": "uint256",
          "name": "lastBidPosition",
          "type": "uint256"
        },
        {
          "internalType": "uint256",
          "name": "from",
          "type": "uint256"
        },
        {
          "internalType": "uint256",
          "name": "to",
          "type": "uint256"
        },
        {
          "internalType": "uint256[][2]",
          "name": "pivotIds",
          "type": "uint256[][2]"
        },
        {
          "internalType": "uint256[]",
          "name": "tokenAmounts",
          "type": "uint256[]"
        }
      ],
      "name": "initialize",
      "outputs": [],
      "stateMutability": "nonpayable",
      "type": "function"
    },
    {
      "inputs": [],
      "name": "is_paused",
      "outputs": [
        {
          "internalType": "bool",
          "name": "",
          "type": "bool"
        }
      ],
      "stateMutability": "view",
      "type": "function"
    },
    {
      "inputs": [
        {
          "components": [
            {
              "internalType": "address",
              "name": "outbound_tkn",
              "type": "address"
            },
            {
              "internalType": "address",
              "name": "inbound_tkn",
              "type": "address"
            },
            {
              "internalType": "uint256",
              "name": "offerId",
              "type": "uint256"
            },
            {
              "internalType": "t",
              "name": "offer",
              "type": "uint256"
            },
            {
              "internalType": "uint256",
              "name": "wants",
              "type": "uint256"
            },
            {
              "internalType": "uint256",
              "name": "gives",
              "type": "uint256"
            },
            {
              "internalType": "t",
              "name": "offerDetail",
              "type": "uint256"
            },
            {
              "internalType": "t",
              "name": "global",
              "type": "uint256"
            },
            {
              "internalType": "t",
              "name": "local",
              "type": "uint256"
            }
          ],
          "internalType": "struct MgvLib.SingleOrder",
          "name": "order",
          "type": "tuple"
        }
      ],
      "name": "makerExecute",
      "outputs": [
        {
          "internalType": "bytes32",
          "name": "ret",
          "type": "bytes32"
        }
      ],
      "stateMutability": "nonpayable",
      "type": "function"
    },
    {
      "inputs": [
        {
          "components": [
            {
              "internalType": "address",
              "name": "outbound_tkn",
              "type": "address"
            },
            {
              "internalType": "address",
              "name": "inbound_tkn",
              "type": "address"
            },
            {
              "internalType": "uint256",
              "name": "offerId",
              "type": "uint256"
            },
            {
              "internalType": "t",
              "name": "offer",
              "type": "uint256"
            },
            {
              "internalType": "uint256",
              "name": "wants",
              "type": "uint256"
            },
            {
              "internalType": "uint256",
              "name": "gives",
              "type": "uint256"
            },
            {
              "internalType": "t",
              "name": "offerDetail",
              "type": "uint256"
            },
            {
              "internalType": "t",
              "name": "global",
              "type": "uint256"
            },
            {
              "internalType": "t",
              "name": "local",
              "type": "uint256"
            }
          ],
          "internalType": "struct MgvLib.SingleOrder",
          "name": "order",
          "type": "tuple"
        },
        {
          "components": [
            {
              "internalType": "bytes32",
              "name": "makerData",
              "type": "bytes32"
            },
            {
              "internalType": "bytes32",
              "name": "mgvData",
              "type": "bytes32"
            }
          ],
          "internalType": "struct MgvLib.OrderResult",
          "name": "result",
          "type": "tuple"
        }
      ],
      "name": "makerPosthook",
      "outputs": [],
      "stateMutability": "nonpayable",
      "type": "function"
    },
    {
      "inputs": [
        {
          "components": [
            {
              "internalType": "contract IERC20",
              "name": "outbound_tkn",
              "type": "address"
            },
            {
              "internalType": "contract IERC20",
              "name": "inbound_tkn",
              "type": "address"
            },
            {
              "internalType": "uint256",
              "name": "wants",
              "type": "uint256"
            },
            {
              "internalType": "uint256",
              "name": "gives",
              "type": "uint256"
            },
            {
              "internalType": "uint256",
              "name": "gasreq",
              "type": "uint256"
            },
            {
              "internalType": "uint256",
              "name": "gasprice",
              "type": "uint256"
            },
            {
              "internalType": "uint256",
              "name": "pivotId",
              "type": "uint256"
            },
            {
              "internalType": "uint256",
              "name": "offerId",
              "type": "uint256"
            }
          ],
          "internalType": "struct IOfferLogic.MakerOrder",
          "name": "mko",
          "type": "tuple"
        }
      ],
      "name": "newOffer",
      "outputs": [
        {
          "internalType": "uint256",
          "name": "",
          "type": "uint256"
        }
      ],
      "stateMutability": "payable",
      "type": "function"
    },
    {
      "inputs": [],
      "name": "ofr_gasreq",
      "outputs": [
        {
          "internalType": "uint256",
          "name": "",
          "type": "uint256"
        }
      ],
      "stateMutability": "view",
      "type": "function"
    },
    {
      "inputs": [],
      "name": "pause",
      "outputs": [],
      "stateMutability": "nonpayable",
      "type": "function"
    },
    {
      "inputs": [],
      "name": "pending",
      "outputs": [
        {
          "internalType": "uint256[2]",
          "name": "",
          "type": "uint256[2]"
        }
      ],
      "stateMutability": "view",
      "type": "function"
    },
    {
      "inputs": [],
      "name": "reserve",
      "outputs": [
        {
          "internalType": "address",
          "name": "",
          "type": "address"
        }
      ],
      "stateMutability": "view",
      "type": "function"
    },
    {
      "inputs": [],
      "name": "reset_pending",
      "outputs": [],
      "stateMutability": "nonpayable",
      "type": "function"
    },
    {
      "inputs": [],
      "name": "restart",
      "outputs": [],
      "stateMutability": "nonpayable",
      "type": "function"
    },
    {
      "inputs": [
        {
          "internalType": "contract IERC20",
          "name": "outbound_tkn",
          "type": "address"
        },
        {
          "internalType": "contract IERC20",
          "name": "inbound_tkn",
          "type": "address"
        },
        {
          "internalType": "uint256",
          "name": "offerId",
          "type": "uint256"
        },
        {
          "internalType": "bool",
          "name": "deprovision",
          "type": "bool"
        }
      ],
      "name": "retractOffer",
      "outputs": [
        {
          "internalType": "uint256",
          "name": "",
          "type": "uint256"
        }
      ],
      "stateMutability": "nonpayable",
      "type": "function"
    },
    {
      "inputs": [
        {
          "internalType": "uint256",
          "name": "ba",
          "type": "uint256"
        },
        {
          "internalType": "uint256",
          "name": "from",
          "type": "uint256"
        },
        {
          "internalType": "uint256",
          "name": "to",
          "type": "uint256"
        }
      ],
      "name": "retractOffers",
      "outputs": [
        {
          "internalType": "uint256",
          "name": "collected",
          "type": "uint256"
        }
      ],
      "stateMutability": "nonpayable",
      "type": "function"
    },
    {
      "inputs": [],
      "name": "router",
      "outputs": [
        {
          "internalType": "contract AbstractRouter",
          "name": "",
          "type": "address"
        }
      ],
      "stateMutability": "view",
      "type": "function"
    },
    {
      "inputs": [
        {
          "internalType": "address",
          "name": "_admin",
          "type": "address"
        }
      ],
      "name": "setAdmin",
      "outputs": [],
      "stateMutability": "nonpayable",
      "type": "function"
    },
    {
      "inputs": [
        {
          "internalType": "uint256",
          "name": "_delta",
          "type": "uint256"
        }
      ],
      "name": "set_delta",
      "outputs": [],
      "stateMutability": "nonpayable",
      "type": "function"
    },
    {
      "inputs": [
        {
          "internalType": "uint256",
          "name": "gasreq",
          "type": "uint256"
        }
      ],
      "name": "set_gasreq",
      "outputs": [],
      "stateMutability": "nonpayable",
      "type": "function"
    },
    {
      "inputs": [
        {
          "internalType": "uint256",
          "name": "m",
          "type": "uint256"
        }
      ],
      "name": "set_min_offer_type",
      "outputs": [],
      "stateMutability": "nonpayable",
      "type": "function"
    },
    {
      "inputs": [
        {
          "internalType": "address",
          "name": "_reserve",
          "type": "address"
        }
      ],
      "name": "set_reserve",
      "outputs": [],
      "stateMutability": "nonpayable",
      "type": "function"
    },
    {
      "inputs": [
        {
          "internalType": "contract AbstractRouter",
          "name": "router_",
          "type": "address"
        }
      ],
      "name": "set_router",
      "outputs": [],
      "stateMutability": "nonpayable",
      "type": "function"
    },
    {
      "inputs": [
        {
          "internalType": "int256",
          "name": "s",
          "type": "int256"
        },
        {
          "internalType": "bool",
          "name": "withBase",
          "type": "bool"
        },
        {
          "internalType": "uint256[]",
          "name": "amounts",
          "type": "uint256[]"
        }
      ],
      "name": "set_shift",
      "outputs": [],
      "stateMutability": "nonpayable",
      "type": "function"
    },
    {
      "inputs": [],
      "name": "shift",
      "outputs": [
        {
          "internalType": "int256",
          "name": "",
          "type": "int256"
        }
      ],
      "stateMutability": "view",
      "type": "function"
    },
    {
      "inputs": [
        {
          "internalType": "contract IERC20",
          "name": "token",
          "type": "address"
        }
      ],
      "name": "tokenBalance",
      "outputs": [
        {
          "internalType": "uint256",
          "name": "",
          "type": "uint256"
        }
      ],
      "stateMutability": "view",
      "type": "function"
    },
    {
      "inputs": [
        {
          "components": [
            {
              "internalType": "contract IERC20",
              "name": "outbound_tkn",
              "type": "address"
            },
            {
              "internalType": "contract IERC20",
              "name": "inbound_tkn",
              "type": "address"
            },
            {
              "internalType": "uint256",
              "name": "wants",
              "type": "uint256"
            },
            {
              "internalType": "uint256",
              "name": "gives",
              "type": "uint256"
            },
            {
              "internalType": "uint256",
              "name": "gasreq",
              "type": "uint256"
            },
            {
              "internalType": "uint256",
              "name": "gasprice",
              "type": "uint256"
            },
            {
              "internalType": "uint256",
              "name": "pivotId",
              "type": "uint256"
            },
            {
              "internalType": "uint256",
              "name": "offerId",
              "type": "uint256"
            }
          ],
          "internalType": "struct IOfferLogic.MakerOrder",
          "name": "mko",
          "type": "tuple"
        }
      ],
      "name": "updateOffer",
      "outputs": [],
      "stateMutability": "payable",
      "type": "function"
    },
    {
      "inputs": [
        {
          "internalType": "uint256",
          "name": "amount",
          "type": "uint256"
        },
        {
          "internalType": "address",
          "name": "receiver",
          "type": "address"
        }
      ],
      "name": "withdrawFromMangrove",
      "outputs": [],
      "stateMutability": "nonpayable",
      "type": "function"
    },
    {
      "inputs": [
        {
          "internalType": "contract IERC20",
          "name": "token",
          "type": "address"
        },
        {
          "internalType": "address",
          "name": "receiver",
          "type": "address"
        },
        {
          "internalType": "uint256",
          "name": "amount",
          "type": "uint256"
        }
      ],
      "name": "withdrawToken",
      "outputs": [
        {
          "internalType": "bool",
          "name": "success",
          "type": "bool"
        }
      ],
      "stateMutability": "nonpayable",
      "type": "function"
    },
    {
      "stateMutability": "payable",
      "type": "receive"
    }
  ],
  "bytecode": {
    "object": "0x6101206040523480156200001257600080fd5b506040516200ad273803806200ad27833981016040819052620000359162000c67565b876203d090604051620000489062000bce565b604051809103906000f08015801562000065573d6000803e3d6000fd5b5082828282823380620000bf5760405162461bcd60e51b815260206004820152601860248201527f616363657373436f6e74726f6c6c65642f307841646d696e000000000000000060448201526064015b60405180910390fd5b80620000d56200049f60201b6200263d1760201c565b80546001600160a01b0319166001600160a01b03929092169190911790555062ffffff811681146200014a5760405162461bcd60e51b815260206004820152601b60248201527f4d616e67726f76654f666665722f676173726571546f6f4869676800000000006044820152606401620000b6565b6001600160a01b038216608052806200016e620004c3602090811b6200266117901c565b5550506001600160a01b03811662000191576200018b30620004e7565b620001a7565b6200019c81620004e7565b620001a781620005f0565b5050505050506000620001c46200078960201b620026851760201c565b9050600084118015620001df57506001600160a01b03891615155b8015620001ef5750838461ffff16145b801562000204575085866001600160601b0316145b801562000219575084856001600160601b0316145b620002725760405162461bcd60e51b815260206004820152602260248201527f4d616e676f2f636f6e7374727563746f722f696e76616c6964417267756d656e604482015261747360f01b6064820152608401620000b6565b8360c081815250508888888888886040516200028e9062000bdc565b6001600160a01b03968716815294861660208601529490921660408401526001600160601b03908116606084015216608082015260a081019190915260c001604051809103906000f080158015620002ea573d6000803e3d6000fd5b506001600160a01b0390811660a05288811660e052871661010052836001600160401b0381111562000320576200032062000cf9565b6040519080825280602002602001820160405280156200034a578160200160208202803683370190505b5080516200036091839160209091019062000bea565b50836001600160401b038111156200037c576200037c62000cf9565b604051908082528060200260200182016040528015620003a6578160200160208202803683370190505b508051620003bf91600184019160209091019062000bea565b506007810183905560016008820155620003dc87600019620007ad565b620003ea88600019620007ad565b620003f587620008f3565b6200040088620008f3565b6200040b82620004e7565b6200041562000a4c565b604051633825b60160e11b81526001600160a01b038481166004830152919091169063704b6c0290602401600060405180830381600087803b1580156200045b57600080fd5b505af115801562000470573d6000803e3d6000fd5b505050506001600160a01b03821633146200049057620004908262000abb565b50505050505050505062000d3a565b7f7d382ebca3e46505071795e192d28166a3d4bd0685585591bc6c5b8df6769fd290565b7fae7e31c3220e851db9f204a28b279dfe52b973600b0a456991089c220ae7222490565b620004f162000b84565b6001600160a01b0316336001600160a01b031614806200052457506080516001600160a01b0316336001600160a01b0316145b620005615760405162461bcd60e51b815260206004820152601860248201526000805160206200ad078339815191526044820152606401620000b6565b6001600160a01b038116620005b95760405162461bcd60e51b815260206004820152601460248201527f53696e676c65557365722f3078526573657276650000000000000000000000006044820152606401620000b6565b80620005cf62000baa60201b620026a91760201c565b80546001600160a01b0319166001600160a01b039290921691909117905550565b620005fa62000b84565b6001600160a01b0316336001600160a01b031614806200062d57506080516001600160a01b0316336001600160a01b0316145b6200066a5760405162461bcd60e51b815260206004820152601860248201526000805160206200ad078339815191526044820152606401620000b6565b6001600160a01b038116620006c25760405162461bcd60e51b815260206004820152601c60248201527f6d67764f666665722f7365745f726f757465722f3078526f75746572000000006044820152606401620000b6565b80620006d8620004c360201b620026611760201c565b60010180546001600160a01b0319166001600160a01b039283161790556040516381bac14f60e01b8152306004820152908216906381bac14f90602401600060405180830381600087803b1580156200073057600080fd5b505af115801562000745573d6000803e3d6000fd5b50506040516001600160a01b03841681527f6de4326a8b9054d72d9dbab97d27bc4edffadee7d966f5af9cc4eafdaf8e54559250602001905060405180910390a150565b7f416b48c48a967c2245e6ba6bc6efa281932950b502fea671117e4dfd7d3dfb8190565b620007b762000b84565b6001600160a01b0316336001600160a01b03161480620007ea57506080516001600160a01b0316336001600160a01b0316145b620008275760405162461bcd60e51b815260206004820152601860248201526000805160206200ad078339815191526044820152606401620000b6565b60805160405163095ea7b360e01b81526001600160a01b039182166004820152602481018390529083169063095ea7b3906044016020604051808303816000875af11580156200087b573d6000803e3d6000fd5b505050506040513d601f19601f82011682018060405250810190620008a1919062000d0f565b620008ef5760405162461bcd60e51b815260206004820152601d60248201527f6d67764f666665722f617070726f76654d616e67726f76652f4661696c0000006044820152606401620000b6565b5050565b620008fd62000b84565b6001600160a01b0316336001600160a01b031614806200093057506080516001600160a01b0316336001600160a01b0316145b6200096d5760405162461bcd60e51b815260206004820152601860248201526000805160206200ad078339815191526044820152606401620000b6565b6001600160a01b03811663095ea7b36200098662000a4c565b6040516001600160e01b031960e084901b1681526001600160a01b03909116600482015260001960248201526044016020604051808303816000875af1158015620009d5573d6000803e3d6000fd5b505050506040513d601f19601f82011682018060405250810190620009fb919062000d0f565b62000a495760405162461bcd60e51b815260206004820152601b60248201527f6d67764f666665722f617070726f7665526f757465722f4661696c00000000006044820152606401620000b6565b50565b60008062000a64620004c360201b620026611760201c565b600101546001600160a01b031690508062000ab65760405162461bcd60e51b815260206004820152601160248201527036b3bb27b33332b917983c2937baba32b960791b6044820152606401620000b6565b919050565b62000ac562000b84565b6001600160a01b0316336001600160a01b03161462000b165760405162461bcd60e51b815260206004820152601860248201526000805160206200ad078339815191526044820152606401620000b6565b6001600160a01b03811662000b6e5760405162461bcd60e51b815260206004820152601860248201527f416363657373436f6e74726f6c6c65642f307841646d696e00000000000000006044820152606401620000b6565b80620005cf6200049f60201b6200263d1760201c565b600062000b9b6200049f60201b6200263d1760201c565b546001600160a01b0316919050565b7f7bccd2960a07f28b1420615e9ead32d6e77e21d42f4a6c1a1fe785dae226653290565b610e25806200437f83390190565b615b6380620051a483390190565b82805482825590600052602060002090810192821562000c28579160200282015b8281111562000c2857825182559160200191906001019062000c0b565b5062000c3692915062000c3a565b5090565b5b8082111562000c36576000815560010162000c3b565b6001600160a01b038116811462000a4957600080fd5b600080600080600080600080610100898b03121562000c8557600080fd5b885162000c928162000c51565b60208a015190985062000ca58162000c51565b60408a015190975062000cb88162000c51565b80965050606089015194506080890151935060a0890151925060c0890151915060e089015162000ce88162000c51565b809150509295985092959890939650565b634e487b7160e01b600052604160045260246000fd5b60006020828403121562000d2257600080fd5b8151801515811462000d3357600080fd5b9392505050565b60805160a05160c05160e0516101005161353c62000e43600039600061049401526000610652015260006105a7015260008181610f6d015281816110cc0152818161169b01528181611bfe0152612823015260008181610448015281816108a401528181610ba801528181610c6601528181610cfc01528181610ded01528181610f2a01528181611162015281816113310152818161138d0152818161141f01528181611658015281816117a001528181611834015281816118c70152818161193b015281816119de01528181611a3301528181611b2801528181611de601528181611fad0152818161204a015281816121c0015281816123cc0152612571015261353c6000f3fe6080604052600436106102295760003560e01c80639d4ddea211610123578063d5c39721116100ab578063eedc966a1161006f578063eedc966a14610674578063f259cd2714610694578063f851a440146106b4578063f887ea40146106c9578063fc488a38146106de57600080fd5b8063d5c39721146105c9578063db11851e146105de578063e20ccec3146105fe578063e4c34f8414610620578063ec342ad01461064057600080fd5b8063c5dbec38116100f2578063c5dbec381461052b578063ccbbcfc21461054b578063cd3293de1461056b578063d1baa1ef14610580578063d4a1da081461059557600080fd5b80639d4ddea2146104b65780639d4f8aa9146104d6578063ad97db1b146104eb578063aefe84031461050b57600080fd5b8063553e9f32116101b1578063815502671161017557806381550267146103ec5780638456cb591461040c57806384b627f91461042157806399fa5e2d146104365780639c5798391461048257600080fd5b8063553e9f321461034c5780635a3e96181461036c5780636c49c32c1461038c578063704b6c02146103ac5780637144df24146103cc57600080fd5b80631ef3755d116101f85780631ef3755d146102b75780631efa880b146102cc5780633d3d130d146102f95780633d77fcde146103195780635486c95f1461033957600080fd5b806301e336671461023557806310aded601461026a57806312b495a81461027f57806312fc41ca146102a257600080fd5b3661023057005b600080fd5b34801561024157600080fd5b50610255610250366004612b24565b6106fe565b60405190151581526020015b60405180910390f35b61027d610278366004612bd5565b61086a565b005b34801561028b57600080fd5b506102946109a2565b604051908152602001610261565b3480156102ae57600080fd5b506102946109ed565b3480156102c357600080fd5b5061027d610a38565b3480156102d857600080fd5b506102ec6102e7366004612c86565b610a8e565b6040516102619190612ca3565b34801561030557600080fd5b5061027d610314366004612d2b565b610ba6565b34801561032557600080fd5b5061027d610334366004612d6e565b610ccf565b610294610347366004612bd5565b610db1565b34801561035857600080fd5b5061027d610367366004612dd7565b610efd565b34801561037857600080fd5b5061027d610387366004612e7a565b611095565b34801561039857600080fd5b506102946103a7366004612eec565b61115e565b3480156103b857600080fd5b5061027d6103c7366004612d6e565b61126d565b3480156103d857600080fd5b5061027d6103e7366004612f09565b611304565b3480156103f857600080fd5b5061027d610407366004612f39565b61162b565b34801561041857600080fd5b5061027d611773565b34801561042d57600080fd5b506102556117e8565b34801561044257600080fd5b5061046a7f000000000000000000000000000000000000000000000000000000000000000081565b6040516001600160a01b039091168152602001610261565b34801561048e57600080fd5b5061046a7f000000000000000000000000000000000000000000000000000000000000000081565b3480156104c257600080fd5b5061027d6104d1366004612f95565b611807565b3480156104e257600080fd5b50610255611882565b3480156104f757600080fd5b50610294610506366004612fae565b611898565b34801561051757600080fd5b5061027d610526366004613001565b6119b1565b34801561053757600080fd5b5061027d610546366004612f95565b611afb565b34801561055757600080fd5b5061029461056636600461302d565b611b76565b34801561057757600080fd5b5061046a611cae565b34801561058c57600080fd5b50610294611cc7565b3480156105a157600080fd5b506102947f000000000000000000000000000000000000000000000000000000000000000081565b3480156105d557600080fd5b5061027d611d65565b3480156105ea57600080fd5b5061027d6105f9366004612d6e565b611db9565b34801561060a57600080fd5b50610613611f33565b6040516102619190613059565b34801561062c57600080fd5b5061029461063b36600461308a565b611f9f565b34801561064c57600080fd5b5061046a7f000000000000000000000000000000000000000000000000000000000000000081565b34801561068057600080fd5b5061029461068f366004612d6e565b612262565b3480156106a057600080fd5b5061027d6106af366004612d6e565b61239f565b3480156106c057600080fd5b5061046a6124df565b3480156106d557600080fd5b5061046a6124e9565b3480156106ea57600080fd5b5061027d6106f9366004612f95565b612544565b60006107086124df565b6001600160a01b0316336001600160a01b0316146107415760405162461bcd60e51b8152600401610738906130db565b60405180910390fd5b6001600160a01b0383166107a35760405162461bcd60e51b815260206004820152602360248201527f53696e676c65557365722f7769746864726177546f6b656e2f307852656365696044820152623b32b960e91b6064820152608401610738565b6107ab6117e8565b6107c1576107ba8484846126cd565b9050610863565b6107c96124e9565b6001600160a01b03166321754d9e856107e0611cae565b6040516001600160e01b031960e085901b1681526001600160a01b03928316600482015290821660248201529086166044820152606481018590526084016020604051808303816000875af115801561083d573d6000803e3d6000fd5b505050506040513d601f19601f820116820180604052508101906108619190613112565b505b9392505050565b6108726124df565b6001600160a01b0316336001600160a01b0316146108a25760405162461bcd60e51b8152600401610738906130db565b7f00000000000000000000000000000000000000000000000000000000000000006001600160a01b0316636a4f769134836000015184602001518560400151866060015162ffffff8016886080015111610900578760800151610908565b610908611cc7565b60a089015160c08a015160e0808c0151604051918b901b6001600160e01b03191682526001600160a01b03988916600483015296909716602488015260448701949094526064860192909252608485015260a484015260c483015260e4820152610104016000604051808303818588803b15801561098557600080fd5b505af1158015610999573d6000803e3d6000fd5b50505050505b50565b60006109ac6124df565b6001600160a01b0316336001600160a01b0316146109dc5760405162461bcd60e51b8152600401610738906130db565b6109e4612685565b60070154905090565b60006109f76124df565b6001600160a01b0316336001600160a01b031614610a275760405162461bcd60e51b8152600401610738906130db565b610a2f612685565b60060154905090565b610a406124df565b6001600160a01b0316336001600160a01b031614610a705760405162461bcd60e51b8152600401610738906130db565b6000610a7a612685565b600901805460ff1916911515919091179055565b610a96612abf565b60408051831515602480830191909152825180830382018152604490920183526020820180516001600160e01b031663198f4b8360e21b179052915160009283923092630b47d2c360e31b92610aed92910161315b565b60408051601f198184030181529181526020820180516001600160e01b03166001600160e01b0319909416939093179092529051610b2b919061318e565b600060405180830381855afa9150503d8060008114610b66576040519150601f19603f3d011682016040523d82523d6000602084013e610b6b565b606091505b509150915081610b8357610b7e816127c3565b610b9f565b80806020019051810190610b9791906131aa565b949350505050565b5050919050565b7f00000000000000000000000000000000000000000000000000000000000000006001600160a01b0381161580610be55750336001600160a01b038216145b610c015760405162461bcd60e51b8152600401610738906130db565b81602001356f6d67762f74726164655375636365737360801b03610c2e57610c288361281c565b50505050565b60408301803590610c429060208601612d6e565b6001600160a01b0316610c586020860186612d6e565b604080516001600160a01b037f0000000000000000000000000000000000000000000000000000000000000000811682528735602083015292909216917f736a3993b9f8b1c5603896c76376792887f376b1fe7fc981e09a16530bf1e4e0910160405180910390a4610c288383612909565b505050565b610cd76124df565b6001600160a01b0316336001600160a01b03161480610d1e5750336001600160a01b037f000000000000000000000000000000000000000000000000000000000000000016145b610d3a5760405162461bcd60e51b8152600401610738906130db565b6001600160a01b038116610d875760405162461bcd60e51b815260206004820152601460248201527353696e676c65557365722f30785265736572766560601b6044820152606401610738565b80610d906126a9565b80546001600160a01b0319166001600160a01b039290921691909117905550565b6000610dbb6124df565b6001600160a01b0316336001600160a01b031614610deb5760405162461bcd60e51b8152600401610738906130db565b7f00000000000000000000000000000000000000000000000000000000000000006001600160a01b03166349f6d2dc34846000015185602001518660400151876060015162ffffff801689608001511015610e4a578860800151610e52565b610e52611cc7565b60a08a015160c08b01516040516001600160e01b031960e08b901b1681526001600160a01b03978816600482015296909516602487015260448601939093526064850191909152608484015260a483015260c482015260e40160206040518083038185885af1158015610ec9573d6000803e3d6000fd5b50505050506040513d601f19601f82011682018060405250810190610eee91906132ab565b60e0830181905290505b919050565b610f056124df565b6001600160a01b0316336001600160a01b03161480610f4c5750336001600160a01b037f000000000000000000000000000000000000000000000000000000000000000016145b610f685760405162461bcd60e51b8152600401610738906130db565b6000807f00000000000000000000000000000000000000000000000000000000000000006001600160a01b031663def850ac60e01b8a8a8a8a8a8a8a604051602401610fba97969594939291906132fa565b60408051601f198184030181529181526020820180516001600160e01b03166001600160e01b0319909416939093179092529051610ff8919061318e565b600060405180830381855af49150503d8060008114611033576040519150601f19603f3d011682016040523d82523d6000602084013e611038565b606091505b5091509150816110505761104b816127c3565b61108a565b60408051888152602081018890527f997896709b4e932ee42750e2e14ed1f7ab6c60bd911ff567aa2485cf0b20051b910160405180910390a15b505050505050505050565b308015806110ab5750336001600160a01b038216145b6110c75760405162461bcd60e51b8152600401610738906130db565b6000807f00000000000000000000000000000000000000000000000000000000000000006001600160a01b031685856040516111049291906133c7565b600060405180830381855af49150503d806000811461113f576040519150601f19603f3d011682016040523d82523d6000602084013e611144565b606091505b50915091508161115757611157816127c3565b3d60208201f35b60007f00000000000000000000000000000000000000000000000000000000000000006001600160a01b038116158061119f5750336001600160a01b038216145b6111bb5760405162461bcd60e51b8152600401610738906130db565b6111c483612912565b6112095760405162461bcd60e51b81526020600482015260166024820152751b59dd93d999995c8bd8589bdc9d0bdc995b9959d95960521b6044820152606401610738565b600061121984608001358561292a565b11156112675760405162461bcd60e51b815260206004820152601860248201527f6d67764f666665722f61626f72742f6765744661696c656400000000000000006044820152606401610738565b50919050565b6112756124df565b6001600160a01b0316336001600160a01b0316146112a55760405162461bcd60e51b8152600401610738906130db565b6001600160a01b0381166112fb5760405162461bcd60e51b815260206004820152601860248201527f416363657373436f6e74726f6c6c65642f307841646d696e00000000000000006044820152606401610738565b80610d9061263d565b61130c6124df565b6001600160a01b0316336001600160a01b031614806113535750336001600160a01b037f000000000000000000000000000000000000000000000000000000000000000016145b61136f5760405162461bcd60e51b8152600401610738906130db565b6000198203611409576040516370a0823160e01b81523060048201527f00000000000000000000000000000000000000000000000000000000000000006001600160a01b0316906370a0823190602401602060405180830381865afa1580156113dc573d6000803e3d6000fd5b505050506040513d601f19601f8201168201806040525081019061140091906132ab565b91508115611627575b604051632e1a7d4d60e01b8152600481018390527f00000000000000000000000000000000000000000000000000000000000000006001600160a01b031690632e1a7d4d906024016020604051808303816000875af1158015611470573d6000803e3d6000fd5b505050506040513d601f19601f820116820180604052508101906114949190613112565b6114ee5760405162461bcd60e51b815260206004820152602560248201527f6d67764f666665722f776974686472617746726f6d4d67762f776974686472616044820152641dd1985a5b60da1b6064820152608401610738565b6114f66117e8565b15611573576115036124e9565b604051631af82a7560e31b81526001600160a01b038381166004830152919091169063d7c153a890849060240160206040518083038185885af115801561154e573d6000803e3d6000fd5b50505050506040513d601f19601f82011682018060405250810190610cca9190613112565b6000816001600160a01b03168360405160006040518083038185875af1925050503d80600081146115c0576040519150601f19603f3d011682016040523d82523d6000602084013e6115c5565b606091505b5050905080610cca5760405162461bcd60e51b815260206004820152602860248201527f6d67764f666665722f776974686472617746726f6d4d67762f70617961626c6560448201526710d85b1b11985a5b60c21b6064820152608401610738565b5050565b6116336124df565b6001600160a01b0316336001600160a01b0316148061167a5750336001600160a01b037f000000000000000000000000000000000000000000000000000000000000000016145b6116965760405162461bcd60e51b8152600401610738906130db565b6000807f00000000000000000000000000000000000000000000000000000000000000006001600160a01b031663ac54d25a60e01b878787876040516024016116e294939291906133d7565b60408051601f198184030181529181526020820180516001600160e01b03166001600160e01b0319909416939093179092529051611720919061318e565b600060405180830381855af49150503d806000811461175b576040519150601f19603f3d011682016040523d82523d6000602084013e611760565b606091505b50915091508161099957610999816127c3565b61177b6124df565b6001600160a01b0316336001600160a01b031614806117c25750336001600160a01b037f000000000000000000000000000000000000000000000000000000000000000016145b6117de5760405162461bcd60e51b8152600401610738906130db565b6001610a7a612685565b6000806117f3612661565b600101546001600160a01b03161415919050565b61180f6124df565b6001600160a01b0316336001600160a01b031614806118565750336001600160a01b037f000000000000000000000000000000000000000000000000000000000000000016145b6118725760405162461bcd60e51b8152600401610738906130db565b8061187b612685565b6008015550565b600061188c612685565b6009015460ff16919050565b60006118a26124df565b6001600160a01b0316336001600160a01b031614806118e95750336001600160a01b037f000000000000000000000000000000000000000000000000000000000000000016145b6119055760405162461bcd60e51b8152600401610738906130db565b60405163ad97db1b60e01b81526001600160a01b03868116600483015285811660248301526044820185905283151560648301527f0000000000000000000000000000000000000000000000000000000000000000169063ad97db1b906084016020604051808303816000875af1158015611984573d6000803e3d6000fd5b505050506040513d601f19601f820116820180604052508101906119a891906132ab565b95945050505050565b6119b96124df565b6001600160a01b0316336001600160a01b03161480611a005750336001600160a01b037f000000000000000000000000000000000000000000000000000000000000000016145b611a1c5760405162461bcd60e51b8152600401610738906130db565b60405163095ea7b360e01b81526001600160a01b037f0000000000000000000000000000000000000000000000000000000000000000811660048301526024820183905283169063095ea7b3906044016020604051808303816000875af1158015611a8b573d6000803e3d6000fd5b505050506040513d601f19601f82011682018060405250810190611aaf9190613112565b6116275760405162461bcd60e51b815260206004820152601d60248201527f6d67764f666665722f617070726f76654d616e67726f76652f4661696c0000006044820152606401610738565b611b036124df565b6001600160a01b0316336001600160a01b03161480611b4a5750336001600160a01b037f000000000000000000000000000000000000000000000000000000000000000016145b611b665760405162461bcd60e51b8152600401610738906130db565b80611b6f612685565b6007015550565b6000611b806124df565b6001600160a01b0316336001600160a01b031614611bb05760405162461bcd60e51b8152600401610738906130db565b604080516024810186905260448101859052606480820185905282518083039091018152608490910182526020810180516001600160e01b031663a7964d4960e01b179052905160009182917f00000000000000000000000000000000000000000000000000000000000000006001600160a01b031691611c309161318e565b600060405180830381855af49150503d8060008114611c6b576040519150601f19603f3d011682016040523d82523d6000602084013e611c70565b606091505b509150915081611c8857611c83816127c3565b611ca5565b80806020019051810190611c9c91906132ab565b92505050610863565b50509392505050565b6000611cb86126a9565b546001600160a01b0316919050565b6000611cd16117e8565b15611d5757611cde6124e9565b6001600160a01b0316630417ffda6040518163ffffffff1660e01b8152600401602060405180830381865afa158015611d1b573d6000803e3d6000fd5b505050506040513d601f19601f82011682018060405250810190611d3f91906132ab565b611d47612661565b54611d52919061340f565b905090565b611d5f612661565b54919050565b611d6d6124df565b6001600160a01b0316336001600160a01b031614611d9d5760405162461bcd60e51b8152600401610738906130db565b6000611da7612685565b60006002820181905560039091015550565b611dc16124df565b6001600160a01b0316336001600160a01b03161480611e085750336001600160a01b037f000000000000000000000000000000000000000000000000000000000000000016145b611e245760405162461bcd60e51b8152600401610738906130db565b6001600160a01b038116611e7a5760405162461bcd60e51b815260206004820152601c60248201527f6d67764f666665722f7365745f726f757465722f3078526f75746572000000006044820152606401610738565b80611e83612661565b60010180546001600160a01b0319166001600160a01b039283161790556040516381bac14f60e01b8152306004820152908216906381bac14f90602401600060405180830381600087803b158015611eda57600080fd5b505af1158015611eee573d6000803e3d6000fd5b50506040516001600160a01b03841681527f6de4326a8b9054d72d9dbab97d27bc4edffadee7d966f5af9cc4eafdaf8e5455925060200190505b60405180910390a150565b611f3b612ae6565b611f436124df565b6001600160a01b0316336001600160a01b031614611f735760405162461bcd60e51b8152600401610738906130db565b6000611f7d612685565b6040805180820190915260028201548152600390910154602082015291505090565b600080806001600160a01b037f00000000000000000000000000000000000000000000000000000000000000001663cbf75c9a89896040516001600160e01b031960e085901b1681526001600160a01b039283166004820152911660248201526044016040805180830381865afa15801561201e573d6000803e3d6000fd5b505050506040513d601f19601f820116820180604052508101906120429190613427565b9150915060007f00000000000000000000000000000000000000000000000000000000000000006001600160a01b0316635722647b61207e8b90565b8a6040516001600160e01b031960e085901b1681526001600160a01b0392831660048201529116602482015260448101889052606401602060405180830381865afa1580156120d1573d6000803e3d6000fd5b505050506040513d601f19601f820116820180604052508101906120f591906132ab565b9050600086604085901c61ffff161115612118575061ffff604084901c1661211b565b50855b62ffffff88106121305761212d611cc7565b97505b60008161214662ffffff606087901c168b61340f565b612150919061344b565b61215e90633b9aca0061344b565b9050600061ffff602085901c1661218562ffffff603087901c811690604888901c1661340f565b61218f919061344b565b61219d90633b9aca0061344b565b6040516370a0823160e01b81523060048201529091506000906001600160a01b037f000000000000000000000000000000000000000000000000000000000000000016906370a0823190602401602060405180830381865afa158015612207573d6000803e3d6000fd5b505050506040513d601f19601f8201168201806040525081019061222b91906132ab565b612235908361340f565b90508281101561224e57612249818461346a565b612251565b60005b9d9c50505050505050505050505050565b60008061226d612661565b600101546001600160a01b03908116915060009084166370a08231612290611cae565b6040516001600160e01b031960e084901b1681526001600160a01b039091166004820152602401602060405180830381865afa1580156122d4573d6000803e3d6000fd5b505050506040513d601f19601f820116820180604052508101906122f891906132ab565b90506001600160a01b0382161561086357816001600160a01b03166305684fde85612321611cae565b6040516001600160e01b031960e085901b1681526001600160a01b03928316600482015291166024820152604401602060405180830381865afa15801561236c573d6000803e3d6000fd5b505050506040513d601f19601f8201168201806040525081019061239091906132ab565b61239a908261340f565b610b97565b6123a76124df565b6001600160a01b0316336001600160a01b031614806123ee5750336001600160a01b037f000000000000000000000000000000000000000000000000000000000000000016145b61240a5760405162461bcd60e51b8152600401610738906130db565b806001600160a01b031663095ea7b36124216124e9565b6040516001600160e01b031960e084901b1681526001600160a01b03909116600482015260001960248201526044016020604051808303816000875af115801561246f573d6000803e3d6000fd5b505050506040513d601f19601f820116820180604052508101906124939190613112565b61099f5760405162461bcd60e51b815260206004820152601b60248201527f6d67764f666665722f617070726f7665526f757465722f4661696c00000000006044820152606401610738565b6000611cb861263d565b6000806124f4612661565b600101546001600160a01b0316905080610ef85760405162461bcd60e51b815260206004820152601160248201527036b3bb27b33332b917983c2937baba32b960791b6044820152606401610738565b61254c6124df565b6001600160a01b0316336001600160a01b031614806125935750336001600160a01b037f000000000000000000000000000000000000000000000000000000000000000016145b6125af5760405162461bcd60e51b8152600401610738906130db565b808162ffffff16146126035760405162461bcd60e51b815260206004820152601860248201527f6d67764f666665722f6761737265712f6f766572666c6f7700000000000000006044820152606401610738565b8061260c612661565b556040518181527fafef3ad374c0b972e3c793be825735801fa05cc4c67157d98d9a111b4027988d90602001611f28565b7f7d382ebca3e46505071795e192d28166a3d4bd0685585591bc6c5b8df6769fd290565b7fae7e31c3220e851db9f204a28b279dfe52b973600b0a456991089c220ae7222490565b7f416b48c48a967c2245e6ba6bc6efa281932950b502fea671117e4dfd7d3dfb8190565b7f7bccd2960a07f28b1420615e9ead32d6e77e21d42f4a6c1a1fe785dae226653290565b60008115806126e457506001600160a01b03831630145b156126f157506001610863565b604080516001600160a01b038581166024830152604480830186905283518084039091018152606490920183526020820180516001600160e01b031663a9059cbb60e01b179052915160009283929088169161274d919061318e565b6000604051808303816000865af19150503d806000811461278a576040519150601f19603f3d011682016040523d82523d6000602084013e61278f565b606091505b50915091508180156127b95750805115806127b95750808060200190518101906127b99190613112565b9695505050505050565b80516000036128145760405162461bcd60e51b815260206004820152601b60248201527f4d616e676f53746f726167652f7265766572744e6f526561736f6e00000000006044820152606401610738565b805160208201fd5b60008060007f00000000000000000000000000000000000000000000000000000000000000006001600160a01b0316632fa9b19060e01b856040516024016128649190613481565b60408051601f198184030181529181526020820180516001600160e01b03166001600160e01b03199094169390931790925290516128a2919061318e565b600060405180830381855af49150503d80600081146128dd576040519150601f19603f3d011682016040523d82523d6000602084013e6128e2565b606091505b5091509150816128f557610b7e816127c3565b80806020019051810190610b979190613112565b60015b92915050565b600061291c612685565b6009015460ff161592915050565b60008061294561293d6020850185612d6e565b8560006129f6565b905083811061295857600091505061290c565b60006129676020850185612d6e565b6040516370a0823160e01b81523060048201526001600160a01b0391909116906370a0823190602401602060405180830381865afa1580156129ad573d6000803e3d6000fd5b505050506040513d601f19601f820116820180604052508101906129d191906132ab565b9050848110156129ea576129e5818661346a565b6129ed565b60005b9250505061290c565b600080612a01612661565b600101546001600160a01b0316905080612a1f576000915050610863565b806001600160a01b031663333dbb0d86612a37611cae565b6040516001600160e01b031960e085901b1681526001600160a01b039283166004820152911660248201526044810187905285151560648201526084016020604051808303816000875af1158015612a93573d6000803e3d6000fd5b505050506040513d601f19601f82011682018060405250810190612ab791906132ab565b915050610863565b60405180604001604052806002905b6060815260200190600190039081612ace5790505090565b60405180604001604052806002906020820280368337509192915050565b6001600160a01b038116811461099f57600080fd5b8035610ef881612b04565b600080600060608486031215612b3957600080fd5b8335612b4481612b04565b92506020840135612b5481612b04565b929592945050506040919091013590565b634e487b7160e01b600052604160045260246000fd5b6040805190810167ffffffffffffffff81118282101715612b9e57612b9e612b65565b60405290565b604051601f8201601f1916810167ffffffffffffffff81118282101715612bcd57612bcd612b65565b604052919050565b6000610100808385031215612be957600080fd5b6040519081019067ffffffffffffffff82118183101715612c0c57612c0c612b65565b8160405283359150612c1d82612b04565b818152612c2c60208501612b19565b602082015260408401356040820152606084013560608201526080840135608082015260a084013560a082015260c084013560c082015260e084013560e0820152809250505092915050565b801515811461099f57600080fd5b600060208284031215612c9857600080fd5b813561086381612c78565b6020808252600090606083018382018584805b6002811015612d0b57878503601f19018452825180518087529087019087870190845b81811015612cf557835183529289019291890191600101612cd9565b5090965050509285019291850191600101612cb6565b5092979650505050505050565b6000610120828403121561126757600080fd5b600080828403610160811215612d4057600080fd5b612d4a8585612d18565b9250604061011f1982011215612d5f57600080fd5b50610120830190509250929050565b600060208284031215612d8057600080fd5b813561086381612b04565b60008083601f840112612d9d57600080fd5b50813567ffffffffffffffff811115612db557600080fd5b6020830191508360208260051b8501011115612dd057600080fd5b9250929050565b600080600080600080600060c0888a031215612df257600080fd5b8735612dfd81612c78565b9650602088013595506040880135945060608801359350608088013567ffffffffffffffff80821115612e2f57600080fd5b818a0191508a604083011115612e4457600080fd5b90935060a08901359080821115612e5a57600080fd5b50612e678a828b01612d8b565b989b979a50959850939692959293505050565b60008060208385031215612e8d57600080fd5b823567ffffffffffffffff80821115612ea557600080fd5b818501915085601f830112612eb957600080fd5b813581811115612ec857600080fd5b866020828501011115612eda57600080fd5b60209290920196919550909350505050565b60006101208284031215612eff57600080fd5b6108638383612d18565b60008060408385031215612f1c57600080fd5b823591506020830135612f2e81612b04565b809150509250929050565b60008060008060608587031215612f4f57600080fd5b843593506020850135612f6181612c78565b9250604085013567ffffffffffffffff811115612f7d57600080fd5b612f8987828801612d8b565b95989497509550505050565b600060208284031215612fa757600080fd5b5035919050565b60008060008060808587031215612fc457600080fd5b8435612fcf81612b04565b93506020850135612fdf81612b04565b9250604085013591506060850135612ff681612c78565b939692955090935050565b6000806040838503121561301457600080fd5b823561301f81612b04565b946020939093013593505050565b60008060006060848603121561304257600080fd5b505081359360208301359350604090920135919050565b60408101818360005b6002811015613081578151835260209283019290910190600101613062565b50505092915050565b600080600080600060a086880312156130a257600080fd5b85356130ad81612b04565b945060208601356130bd81612b04565b94979496505050506040830135926060810135926080909101359150565b60208082526018908201527f416363657373436f6e74726f6c6c65642f496e76616c69640000000000000000604082015260600190565b60006020828403121561312457600080fd5b815161086381612c78565b60005b8381101561314a578181015183820152602001613132565b83811115610c285750506000910152565b602081526000825180602084015261317a81604085016020870161312f565b601f01601f19169190910160400192915050565b600082516131a081846020870161312f565b9190910192915050565b600060208083850312156131bd57600080fd5b825167ffffffffffffffff808211156131d557600080fd5b8185019150601f86818401126131ea57600080fd5b6131f2612b7b565b80604085018981111561320457600080fd5b855b8181101561329c5780518681111561321e5760008081fd5b87018581018c1361322f5760008081fd5b80518781111561324157613241612b65565b8060051b6132508b8201612ba4565b9182528281018b01918b8101908f84111561326d57600092508283fd5b938c01935b8385101561328b5784518252938c0193908c0190613272565b885250505093880193508701613206565b50909998505050505050505050565b6000602082840312156132bd57600080fd5b5051919050565b81835260006001600160fb1b038311156132dd57600080fd5b8260051b8083602087013760009401602001938452509192915050565b600060c0820189151583526020898185015288604085015287606085015260c0608085015281829050610100850192508760005b60028110156133a25786850360bf190183528135368b9003601e1901811261335557600080fd5b8a01848101903567ffffffffffffffff81111561337157600080fd5b8060051b360382131561338357600080fd5b61338e8782846132c4565b96505050918301919083019060010161332e565b5050505082810360a08401526133b98185876132c4565b9a9950505050505050505050565b8183823760009101908152919050565b84815283151560208201526060604082015260006127b96060830184866132c4565b634e487b7160e01b600052601160045260246000fd5b60008219821115613422576134226133f9565b500190565b6000806040838503121561343a57600080fd5b505080516020909101519092909150565b6000816000190483118215151615613465576134656133f9565b500290565b60008282101561347c5761347c6133f9565b500390565b6101208101823561349181612b04565b6001600160a01b031682526134a860208401612b19565b6001600160a01b03811660208401525060408301356040830152606083013560608301526080830135608083015260a083013560a083015260c083013560c083015260e083013560e08301526101008084013581840152509291505056fea2646970667358221220eba78fadb372b456b0b54c20de7a4a9d36b62a8d1394545c31717e0d018f55c764736f6c634300080e0033608060405234801561001057600080fd5b5061c35033806100675760405162461bcd60e51b815260206004820152601860248201527f616363657373436f6e74726f6c6c65642f307841646d696e000000000000000060448201526064015b60405180910390fd5b8061007a6100f560201b6107a71760201c565b80546001600160a01b0319166001600160a01b03929092169190911790555062ffffff811681146100ed5760405162461bcd60e51b815260206004820152601e60248201527f4162737472616374526f757465722f6f76657268656164546f6f486967680000604482015260640161005e565b600155610119565b7f7d382ebca3e46505071795e192d28166a3d4bd0685585591bc6c5b8df6769fd290565b610cfd806101286000396000f3fe6080604052600436106100c25760003560e01c8063362aecb11161007f578063cf5e7bd311610059578063cf5e7bd31461021a578063d7c153a81461023a578063f850a81c1461024d578063f851a4401461026d57600080fd5b8063362aecb1146101aa578063704b6c02146101da57806381bac14f146101fa57600080fd5b80630417ffda146100c757806305684fde146100f057806321754d9e1461011057806326e8eda21461014057806332563bc714610162578063333dbb0d1461018a575b600080fd5b3480156100d357600080fd5b506100dd60015481565b6040519081526020015b60405180910390f35b3480156100fc57600080fd5b506100dd61010b366004610a16565b61029a565b34801561011c57600080fd5b5061013061012b366004610a4f565b610311565b60405190151581526020016100e7565b34801561014c57600080fd5b5061016061015b366004610aa0565b610360565b005b34801561016e57600080fd5b506100dd61017d366004610ae1565b6001600160a01b03163190565b34801561019657600080fd5b506100dd6101a5366004610b13565b6103a0565b3480156101b657600080fd5b506101306101c5366004610ae1565b60006020819052908152604090205460ff1681565b3480156101e657600080fd5b506101606101f5366004610ae1565b610464565b34801561020657600080fd5b50610160610215366004610ae1565b61054c565b34801561022657600080fd5b50610160610235366004610ae1565b6105c2565b610130610248366004610ae1565b610635565b34801561025957600080fd5b50610160610268366004610b66565b61066e565b34801561027957600080fd5b5061028261078e565b6040516001600160a01b0390911681526020016100e7565b6040516370a0823160e01b81526001600160a01b038281166004830152600091908416906370a0823190602401602060405180830381865afa1580156102e4573d6000803e3d6000fd5b505050506040513d601f19601f820116820180604052508101906103089190610bec565b90505b92915050565b3360009081526020819052604081205460ff166103495760405162461bcd60e51b815260040161034090610c05565b60405180910390fd5b610355858585856107cb565b90505b949350505050565b3360009081526020819052604090205460ff1661038f5760405162461bcd60e51b815260040161034090610c05565b61039b838333846107d9565b505050565b3360009081526020819052604081205460ff166103cf5760405162461bcd60e51b815260040161034090610c05565b6040516370a0823160e01b81523360048201526000906001600160a01b038716906370a0823190602401602060405180830381865afa158015610416573d6000803e3d6000fd5b505050506040513d601f19601f8201168201806040525081019061043a9190610bec565b905083811061044d576000915050610358565b61045a8686338787610831565b9695505050505050565b61046c61078e565b6001600160a01b0316336001600160a01b0316146104cc5760405162461bcd60e51b815260206004820152601860248201527f416363657373436f6e74726f6c6c65642f496e76616c696400000000000000006044820152606401610340565b6001600160a01b0381166105225760405162461bcd60e51b815260206004820152601860248201527f416363657373436f6e74726f6c6c65642f307841646d696e00000000000000006044820152606401610340565b8061052b6107a7565b80546001600160a01b0319166001600160a01b039290921691909117905550565b61055461078e565b6001600160a01b0316336001600160a01b0316148061058257503360009081526020819052604090205460ff165b61059e5760405162461bcd60e51b815260040161034090610c05565b6001600160a01b03166000908152602081905260409020805460ff19166001179055565b6105ca61078e565b6001600160a01b0316336001600160a01b031614806105f857503360009081526020819052604090205460ff165b6106145760405162461bcd60e51b815260040161034090610c05565b6001600160a01b03166000908152602081905260409020805460ff19169055565b3360009081526020819052604081205460ff166106645760405162461bcd60e51b815260040161034090610c05565b61030b8234610858565b3360009081526020819052604090205460ff1661069d5760405162461bcd60e51b815260040161034090610c05565b60005b828110156107885760008484838181106106bc576106bc610c32565b90506020020160208101906106d19190610ae1565b6040516370a0823160e01b81523360048201526001600160a01b0391909116906370a0823190602401602060405180830381865afa158015610717573d6000803e3d6000fd5b505050506040513d601f19601f8201168201806040525081019061073b9190610bec565b905080156107755761077585858481811061075857610758610c32565b905060200201602081019061076d9190610ae1565b8433846107d9565b508061078081610c48565b9150506106a0565b50505050565b60006107986107a7565b546001600160a01b0316919050565b7f7d382ebca3e46505071795e192d28166a3d4bd0685585591bc6c5b8df6769fd290565b6000610355858585856108f6565b6107e5848385846108f6565b6107885760405162461bcd60e51b815260206004820152601e60248201527f53696d706c65526f757465722f707573682f7472616e736665724661696c00006044820152606401610340565b600061083f868686866108f6565b1561084b57508161084f565b5060005b95945050505050565b6000826001600160a01b03168260405160006040518083038185875af1925050503d80600081146108a5576040519150601f19603f3d011682016040523d82523d6000602084013e6108aa565b606091505b5050809150508061030b5760405162461bcd60e51b81526020600482015260166024820152751b59dd93dc99195c8bdb5bcbdc99599d5b9911985a5b60521b6044820152606401610340565b60008115806109165750826001600160a01b0316846001600160a01b0316145b1561092357506001610358565b604080516001600160a01b0386811660248301528581166044830152606480830186905283518084039091018152608490920183526020820180516001600160e01b03166323b872dd60e01b17905291516000928392908916916109879190610c6f565b6000604051808303816000865af19150503d80600081146109c4576040519150601f19603f3d011682016040523d82523d6000602084013e6109c9565b606091505b50915091508180156109f35750805115806109f35750808060200190518101906109f39190610caa565b979650505050505050565b6001600160a01b0381168114610a1357600080fd5b50565b60008060408385031215610a2957600080fd5b8235610a34816109fe565b91506020830135610a44816109fe565b809150509250929050565b60008060008060808587031215610a6557600080fd5b8435610a70816109fe565b93506020850135610a80816109fe565b92506040850135610a90816109fe565b9396929550929360600135925050565b600080600060608486031215610ab557600080fd5b8335610ac0816109fe565b92506020840135610ad0816109fe565b929592945050506040919091013590565b600060208284031215610af357600080fd5b8135610afe816109fe565b9392505050565b8015158114610a1357600080fd5b60008060008060808587031215610b2957600080fd5b8435610b34816109fe565b93506020850135610b44816109fe565b9250604085013591506060850135610b5b81610b05565b939692955090935050565b600080600060408486031215610b7b57600080fd5b833567ffffffffffffffff80821115610b9357600080fd5b818601915086601f830112610ba757600080fd5b813581811115610bb657600080fd5b8760208260051b8501011115610bcb57600080fd5b60209283019550935050840135610be1816109fe565b809150509250925092565b600060208284031215610bfe57600080fd5b5051919050565b602080825260139082015272149bdd5d195c8bdd5b985d5d1a1bdc9a5e9959606a1b604082015260600190565b634e487b7160e01b600052603260045260246000fd5b600060018201610c6857634e487b7160e01b600052601160045260246000fd5b5060010190565b6000825160005b81811015610c905760208186018101518583015201610c76565b81811115610c9f576000828501525b509190910192915050565b600060208284031215610cbc57600080fd5b8151610afe81610b0556fea264697066735822122032abe7da40276151732235ff38bf2bb6331c01855dd914247ffec73ec2807d6264736f6c634300080e00336101606040523480156200001257600080fd5b5060405162005b6338038062005b63833981016040819052620000359162000547565b8560008082818082813380620000925760405162461bcd60e51b815260206004820152601860248201527f616363657373436f6e74726f6c6c65642f307841646d696e000000000000000060448201526064015b60405180910390fd5b80620000a8620001bb60201b620029281760201c565b80546001600160a01b0319166001600160a01b03929092169190911790555062ffffff811681146200011d5760405162461bcd60e51b815260206004820152601b60248201527f4d616e67726f76654f666665722f676173726571546f6f486967680000000000604482015260640162000089565b6001600160a01b0382166080528062000141620001df602090811b6200294c17901c565b5550506001600160a01b03811662000164576200015e3062000203565b6200017a565b6200016f8162000203565b6200017a816200031d565b5050506001600160a01b0397881661010052505050929093166101205260a0919091526001600160601b0390811660c0521660e052503361014052620005c7565b7f7d382ebca3e46505071795e192d28166a3d4bd0685585591bc6c5b8df6769fd290565b7fae7e31c3220e851db9f204a28b279dfe52b973600b0a456991089c220ae7222490565b6200020d620004c7565b6001600160a01b0316336001600160a01b031614806200024057506080516001600160a01b0316336001600160a01b0316145b6200028e5760405162461bcd60e51b815260206004820152601860248201527f416363657373436f6e74726f6c6c65642f496e76616c69640000000000000000604482015260640162000089565b6001600160a01b038116620002e65760405162461bcd60e51b815260206004820152601460248201527f53696e676c65557365722f307852657365727665000000000000000000000000604482015260640162000089565b80620002fc620004ed60201b620029701760201c565b80546001600160a01b0319166001600160a01b039290921691909117905550565b62000327620004c7565b6001600160a01b0316336001600160a01b031614806200035a57506080516001600160a01b0316336001600160a01b0316145b620003a85760405162461bcd60e51b815260206004820152601860248201527f416363657373436f6e74726f6c6c65642f496e76616c69640000000000000000604482015260640162000089565b6001600160a01b038116620004005760405162461bcd60e51b815260206004820152601c60248201527f6d67764f666665722f7365745f726f757465722f3078526f7574657200000000604482015260640162000089565b8062000416620001df60201b6200294c1760201c565b60010180546001600160a01b0319166001600160a01b039283161790556040516381bac14f60e01b8152306004820152908216906381bac14f90602401600060405180830381600087803b1580156200046e57600080fd5b505af115801562000483573d6000803e3d6000fd5b50506040516001600160a01b03841681527f6de4326a8b9054d72d9dbab97d27bc4edffadee7d966f5af9cc4eafdaf8e54559250602001905060405180910390a150565b6000620004de620001bb60201b620029281760201c565b546001600160a01b0316919050565b7f7bccd2960a07f28b1420615e9ead32d6e77e21d42f4a6c1a1fe785dae226653290565b6001600160a01b03811681146200052757600080fd5b50565b80516001600160601b03811681146200054257600080fd5b919050565b60008060008060008060c087890312156200056157600080fd5b86516200056e8162000511565b6020880151909650620005818162000511565b6040880151909550620005948162000511565b9350620005a4606088016200052a565b9250620005b4608088016200052a565b915060a087015190509295509295509295565b60805160a05160c05160e051610100516101205161014051615277620008ec6000396000818161075d0152818161166b0152818161183b0152611dac01526000818161082301528181610faf0152818161110f0152818161171b015281816117b3015281816121180152818161222901528181612dcd01528181612f710152818161300d015281816133ac015281816134820152818161362101528181613d1e01528181613dfa01528181613f8b01528181614096015281816141ba015281816142cd015281816143f4015281816144ff01528181614655015261472e0152600081816107cf0152818161086f01528181610fd0015281816110ee015281816116fa015281816117d4015281816120f70152818161224a01528181612cb601528181612dee01528181612fec0152818161318b0152818161338b015281816136420152818161370001528181613824015281816139aa01528181613cfd01528181613e2401528181613f6a015281816140c001528181614199015281816142ee015281816143ca015281816145200152818161462b015261474f015260006147f30152600081816139610152613a7b015260008181610a0001528181610a5501528181610e3001528181610e9501528181610f0001528181611ea901528181611edd01528181611f1301528181611fa201528181612d3b0152818161329101528181613314015281816134ac0152818161354b01528181613b900152613bc80152600081816103100152818161068401528181610b0601528181610bc401528181610c4501528181610d3601528181610f88015281816110c7015281816111c401528181611345015281816113a1015281816114330152818161193a015281816119ae01528181611a5301528181611aa801528181611c54015281816122ae0152818161234b015281816124ab015281816126b70152818161285c01528181612acb01528181612c1c01528181612da601528181612fc501528181613cd601528181613e5d01528181613f43015281816140f901528181614172015281816142a60152818161442d015281816144d80152818161468e015261470701526152776000f3fe6080604052600436106101855760003560e01c8063ac54d25a116100d1578063def850ac1161008a578063f259cd2711610064578063f259cd2714610474578063f851a44014610494578063f887ea40146104a9578063fc488a38146104be57600080fd5b8063def850ac14610414578063e4c34f8414610434578063eedc966a1461045457600080fd5b8063ac54d25a1461036a578063ad97db1b1461038a578063aefe8403146103aa578063cd3293de146103ca578063d1baa1ef146103df578063db11851e146103f457600080fd5b8063663d2e0c1161013e5780637144df24116101185780637144df24146102c957806384b627f9146102e957806399fa5e2d146102fe578063a7964d491461034a57600080fd5b8063663d2e0c1461025c5780636c49c32c14610289578063704b6c02146102a957600080fd5b806301e336671461019157806310aded60146101c65780632fa9b190146101db5780633d3d130d146101fb5780633d77fcde1461021b5780635486c95f1461023b57600080fd5b3661018c57005b600080fd5b34801561019d57600080fd5b506101b16101ac3660046148c8565b6104de565b60405190151581526020015b60405180910390f35b6101d96101d436600461491f565b61064a565b005b3480156101e757600080fd5b506101b16101f63660046149de565b610750565b34801561020757600080fd5b506101d96102163660046149fb565b610b04565b34801561022757600080fd5b506101d9610236366004614a3e565b610c18565b61024e61024936600461491f565b610cfa565b6040519081526020016101bd565b34801561026857600080fd5b5061027c610277366004614a69565b610e17565b6040516101bd9190614a86565b34801561029557600080fd5b5061024e6102a43660046149de565b6111c0565b3480156102b557600080fd5b506101d96102c4366004614a3e565b611281565b3480156102d557600080fd5b506101d96102e4366004614afb565b611318565b3480156102f557600080fd5b506101b161163f565b34801561030a57600080fd5b506103327f000000000000000000000000000000000000000000000000000000000000000081565b6040516001600160a01b0390911681526020016101bd565b34801561035657600080fd5b5061024e610365366004614b2b565b61165e565b34801561037657600080fd5b506101d9610385366004614ba3565b611830565b34801561039657600080fd5b5061024e6103a5366004614bff565b61190b565b3480156103b657600080fd5b506101d96103c5366004614c52565b611a26565b3480156103d657600080fd5b50610332611b70565b3480156103eb57600080fd5b5061024e611b89565b34801561040057600080fd5b506101d961040f366004614a3e565b611c27565b34801561042057600080fd5b506101d961042f366004614c7e565b611da1565b34801561044057600080fd5b5061024e61044f366004614d21565b6122a0565b34801561046057600080fd5b5061024e61046f366004614a3e565b61254d565b34801561048057600080fd5b506101d961048f366004614a3e565b61268a565b3480156104a057600080fd5b506103326127ca565b3480156104b557600080fd5b506103326127d4565b3480156104ca57600080fd5b506101d96104d9366004614d72565b61282f565b60006104e86127ca565b6001600160a01b0316336001600160a01b0316146105215760405162461bcd60e51b815260040161051890614d8b565b60405180910390fd5b6001600160a01b0383166105835760405162461bcd60e51b815260206004820152602360248201527f53696e676c65557365722f7769746864726177546f6b656e2f307852656365696044820152623b32b960e91b6064820152608401610518565b61058b61163f565b6105a15761059a848484612994565b9050610643565b6105a96127d4565b6001600160a01b03166321754d9e856105c0611b70565b6040516001600160e01b031960e085901b1681526001600160a01b03928316600482015290821660248201529086166044820152606481018590526084016020604051808303816000875af115801561061d573d6000803e3d6000fd5b505050506040513d601f19601f820116820180604052508101906106419190614dc2565b505b9392505050565b6106526127ca565b6001600160a01b0316336001600160a01b0316146106825760405162461bcd60e51b815260040161051890614d8b565b7f00000000000000000000000000000000000000000000000000000000000000006001600160a01b0316636a4f769134836000015184602001518560400151866060015162ffffff80168860800151116106e05787608001516106e8565b6106e8611b89565b8860a001518960c001518a60e001516040518a63ffffffff1660e01b815260040161071a989796959493929190614ddf565b6000604051808303818588803b15801561073357600080fd5b505af1158015610747573d6000803e3d6000fd5b50505050505b50565b6000306001600160a01b037f0000000000000000000000000000000000000000000000000000000000000000161461079a5760405162461bcd60e51b815260040161051890614e23565b6040805160028082526060820183526000805160206152028339815191529260009291906020830190803683370190505090507f00000000000000000000000000000000000000000000000000000000000000008160008151811061080157610801614e5a565b60200260200101906001600160a01b031690816001600160a01b0316815250507f00000000000000000000000000000000000000000000000000000000000000008160018151811061085557610855614e5a565b6001600160a01b03909216602092830291909101909101527f00000000000000000000000000000000000000000000000000000000000000006001600160a01b03166108a46020860186614a3e565b6001600160a01b0316036109af576108bb84612a8a565b6108d2576108c884612c9b565b60028301556108da565b600060028301555b60408085013560009081526005840160205290812054906108fa82612d17565b9050801561097157610926610918610913600184614e86565b612d65565b60008860a001356000612d87565b6008840154610936600183614e86565b11610965576040517f5ac608c951fb4eeda3d62e6a244a32d697d994fdcdf2ff4ca1ff1b5dde368a0d90600090a15b50600195945050505050565b60405162461bcd60e51b81526020600482015260136024820152724d616e676f2f4269644f75744f6652616e676560681b6044820152606401610518565b6109b884612a8a565b6109cf576109c584612c9b565b60038301556109d7565b600060038301555b60408085013560009081526004840160205290812054906109f782612d17565b9050610a2460017f0000000000000000000000000000000000000000000000000000000000000000614e86565b811015610abe57610a4a610a3c610913836001614e9d565b60008860a001356000612fa6565b6008840154610a79907f0000000000000000000000000000000000000000000000000000000000000000614e86565b610a84826001614e9d565b10610965576040517f3c8e6c8b637216f202e5b335b54c0abfc6c1b6952a8a2511de149d2f3e5e7e9290600090a150600195945050505050565b60405162461bcd60e51b81526020600482015260136024820152724d616e676f2f41736b4f75744f6652616e676560681b6044820152606401610518565b50505b919050565b7f00000000000000000000000000000000000000000000000000000000000000006001600160a01b0381161580610b435750336001600160a01b038216145b610b5f5760405162461bcd60e51b815260040161051890614d8b565b81602001356f6d67762f74726164655375636365737360801b03610b8c57610b8683612a8a565b50505050565b60408301803590610ba09060208601614a3e565b6001600160a01b0316610bb66020860186614a3e565b604080516001600160a01b037f000000000000000000000000000000000000000000000000000000000000000081168252873560208301529290921691600080516020615222833981519152910160405180910390a46001610b86565b505050565b610c206127ca565b6001600160a01b0316336001600160a01b03161480610c675750336001600160a01b037f000000000000000000000000000000000000000000000000000000000000000016145b610c835760405162461bcd60e51b815260040161051890614d8b565b6001600160a01b038116610cd05760405162461bcd60e51b815260206004820152601460248201527353696e676c65557365722f30785265736572766560601b6044820152606401610518565b80610cd9612970565b80546001600160a01b0319166001600160a01b039290921691909117905550565b6000610d046127ca565b6001600160a01b0316336001600160a01b031614610d345760405162461bcd60e51b815260040161051890614d8b565b7f00000000000000000000000000000000000000000000000000000000000000006001600160a01b03166349f6d2dc34846000015185602001518660400151876060015162ffffff801689608001511015610d93578860800151610d9b565b610d9b611b89565b8960a001518a60c001516040518963ffffffff1660e01b8152600401610dc79796959493929190614eb5565b60206040518083038185885af1158015610de5573d6000803e3d6000fd5b50505050506040513d601f19601f82011682018060405250810190610e0a9190614ef3565b60e0929092018290525090565b610e1f614881565b6000805160206152028339815191527f000000000000000000000000000000000000000000000000000000000000000067ffffffffffffffff811115610e6757610e67614909565b604051908082528060200260200182016040528015610e90578160200160208202803683370190505b5082527f000000000000000000000000000000000000000000000000000000000000000067ffffffffffffffff811115610ecc57610ecc614909565b604051908082528060200260200182016040528015610ef5578160200160208202803683370190505b50602083015260005b7f0000000000000000000000000000000000000000000000000000000000000000811015610afc57600082610f3283612d65565b81548110610f4257610f42614e5a565b90600052602060002001549050600083600101610f5e84612d65565b81548110610f6e57610f6e614e5a565b6000918252602082200154915061105b6001600160a01b037f0000000000000000000000000000000000000000000000000000000000000000166368c13d6b7f00000000000000000000000000000000000000000000000000000000000000007f0000000000000000000000000000000000000000000000000000000000000000866040518463ffffffff1660e01b815260040161100e93929190614f0c565b602060405180830381865afa15801561102b573d6000803e3d6000fd5b505050506040513d601f19601f8201168201806040525081019061104f9190614ef3565b6001600160601b031690565b1180611065575085155b611070576000611099565b8360010161107d84612d65565b8154811061108d5761108d614e5a565b90600052602060002001545b85518051859081106110ad576110ad614e5a565b6020908102919091010152600061114d6001600160a01b037f0000000000000000000000000000000000000000000000000000000000000000166368c13d6b7f00000000000000000000000000000000000000000000000000000000000000007f0000000000000000000000000000000000000000000000000000000000000000876040518463ffffffff1660e01b815260040161100e93929190614f0c565b1180611157575085155b611162576000611188565b8361116c84612d65565b8154811061117c5761117c614e5a565b90600052602060002001545b602086015180518590811061119f5761119f614e5a565b602002602001018181525050505080806111b890614f30565b915050610efe565b60007f00000000000000000000000000000000000000000000000000000000000000006001600160a01b03811615806112015750336001600160a01b038216145b61121d5760405162461bcd60e51b815260040161051890614d8b565b600061122d8460800135856131b4565b111561127b5760405162461bcd60e51b815260206004820152601860248201527f6d67764f666665722f61626f72742f6765744661696c656400000000000000006044820152606401610518565b50919050565b6112896127ca565b6001600160a01b0316336001600160a01b0316146112b95760405162461bcd60e51b815260040161051890614d8b565b6001600160a01b03811661130f5760405162461bcd60e51b815260206004820152601860248201527f416363657373436f6e74726f6c6c65642f307841646d696e00000000000000006044820152606401610518565b80610cd9612928565b6113206127ca565b6001600160a01b0316336001600160a01b031614806113675750336001600160a01b037f000000000000000000000000000000000000000000000000000000000000000016145b6113835760405162461bcd60e51b815260040161051890614d8b565b600019820361141d576040516370a0823160e01b81523060048201527f00000000000000000000000000000000000000000000000000000000000000006001600160a01b0316906370a0823190602401602060405180830381865afa1580156113f0573d6000803e3d6000fd5b505050506040513d601f19601f820116820180604052508101906114149190614ef3565b9150811561163b575b604051632e1a7d4d60e01b8152600481018390527f00000000000000000000000000000000000000000000000000000000000000006001600160a01b031690632e1a7d4d906024016020604051808303816000875af1158015611484573d6000803e3d6000fd5b505050506040513d601f19601f820116820180604052508101906114a89190614dc2565b6115025760405162461bcd60e51b815260206004820152602560248201527f6d67764f666665722f776974686472617746726f6d4d67762f776974686472616044820152641dd1985a5b60da1b6064820152608401610518565b61150a61163f565b15611587576115176127d4565b604051631af82a7560e31b81526001600160a01b038381166004830152919091169063d7c153a890849060240160206040518083038185885af1158015611562573d6000803e3d6000fd5b50505050506040513d601f19601f82011682018060405250810190610c139190614dc2565b6000816001600160a01b03168360405160006040518083038185875af1925050503d80600081146115d4576040519150601f19603f3d011682016040523d82523d6000602084013e6115d9565b606091505b5050905080610c135760405162461bcd60e51b815260206004820152602860248201527f6d67764f666665722f776974686472617746726f6d4d67762f70617961626c6560448201526710d85b1b11985a5b60c21b6064820152608401610518565b5050565b60008061164a61294c565b600101546001600160a01b03161415919050565b6000306001600160a01b037f000000000000000000000000000000000000000000000000000000000000000016146116a85760405162461bcd60e51b815260040161051890614e23565b600080516020615202833981519152835b8381101561182757851561176e5760008260000182815481106116de576116de614e5a565b9060005260206000200154116116f5576000611761565b6117617f00000000000000000000000000000000000000000000000000000000000000007f000000000000000000000000000000000000000000000000000000000000000084600001848154811061174f5761174f614e5a565b9060005260206000200154600161190b565b61176b9084614e9d565b92505b85158061177b5750600186115b1561181557600082600101828154811061179757611797614e5a565b9060005260206000200154116117ae576000611808565b6118087f00000000000000000000000000000000000000000000000000000000000000007f000000000000000000000000000000000000000000000000000000000000000084600101848154811061174f5761174f614e5a565b6118129084614e9d565b92505b8061181f81614f30565b9150506116b9565b50509392505050565b306001600160a01b037f000000000000000000000000000000000000000000000000000000000000000016146118785760405162461bcd60e51b815260040161051890614e23565b60008412611886578361188f565b61188f84614f49565b81146118dd5760405162461bcd60e51b815260206004820181905260248201527f4d616e676f2f7365745f73686966742f6e6f74456e6f756768416d6f756e74736044820152606401610518565b60008412156118ff576118fa6118f285614f49565b848484613280565b610b86565b610b868484848461353a565b60006119156127ca565b6001600160a01b0316336001600160a01b0316148061195c5750336001600160a01b037f000000000000000000000000000000000000000000000000000000000000000016145b6119785760405162461bcd60e51b815260040161051890614d8b565b60405163ad97db1b60e01b81526001600160a01b03868116600483015285811660248301526044820185905283151560648301527f0000000000000000000000000000000000000000000000000000000000000000169063ad97db1b906084016020604051808303816000875af11580156119f7573d6000803e3d6000fd5b505050506040513d601f19601f82011682018060405250810190611a1b9190614ef3565b90505b949350505050565b611a2e6127ca565b6001600160a01b0316336001600160a01b03161480611a755750336001600160a01b037f000000000000000000000000000000000000000000000000000000000000000016145b611a915760405162461bcd60e51b815260040161051890614d8b565b60405163095ea7b360e01b81526001600160a01b037f0000000000000000000000000000000000000000000000000000000000000000811660048301526024820183905283169063095ea7b3906044016020604051808303816000875af1158015611b00573d6000803e3d6000fd5b505050506040513d601f19601f82011682018060405250810190611b249190614dc2565b61163b5760405162461bcd60e51b815260206004820152601d60248201527f6d67764f666665722f617070726f76654d616e67726f76652f4661696c0000006044820152606401610518565b6000611b7a612970565b546001600160a01b0316919050565b6000611b9361163f565b15611c1957611ba06127d4565b6001600160a01b0316630417ffda6040518163ffffffff1660e01b8152600401602060405180830381865afa158015611bdd573d6000803e3d6000fd5b505050506040513d601f19601f82011682018060405250810190611c019190614ef3565b611c0961294c565b54611c149190614e9d565b905090565b611c2161294c565b54919050565b611c2f6127ca565b6001600160a01b0316336001600160a01b03161480611c765750336001600160a01b037f000000000000000000000000000000000000000000000000000000000000000016145b611c925760405162461bcd60e51b815260040161051890614d8b565b6001600160a01b038116611ce85760405162461bcd60e51b815260206004820152601c60248201527f6d67764f666665722f7365745f726f757465722f3078526f75746572000000006044820152606401610518565b80611cf161294c565b60010180546001600160a01b0319166001600160a01b039283161790556040516381bac14f60e01b8152306004820152908216906381bac14f90602401600060405180830381600087803b158015611d4857600080fd5b505af1158015611d5c573d6000803e3d6000fd5b50506040516001600160a01b03841681527f6de4326a8b9054d72d9dbab97d27bc4edffadee7d966f5af9cc4eafdaf8e5455925060200190505b60405180910390a150565b306001600160a01b037f00000000000000000000000000000000000000000000000000000000000000001614611de95760405162461bcd60e51b815260040161051890614e23565b6000805160206152028339815191526000611e026127d4565b6001600160a01b031603611e585760405162461bcd60e51b815260206004820152601960248201527f4d616e676f2f696e697469616c697a652f3078526f75746572000000000000006044820152606401610518565b858511611ea75760405162461bcd60e51b815260206004820152601d60248201527f4d616e676f2f696e697469616c697a652f696e76616c6964536c6963650000006044820152606401610518565b7f000000000000000000000000000000000000000000000000000000000000000082148015611ed4575060015b8015611f0a57507f0000000000000000000000000000000000000000000000000000000000000000611f068580614f65565b9050145b8015611f4357507f0000000000000000000000000000000000000000000000000000000000000000611f3f6020860186614f65565b9050145b611f9b5760405162461bcd60e51b815260206004820152602360248201527f4d616e676f2f696e697469616c697a652f696e76616c696441727261794c656e6044820152620cee8d60eb1b6064820152608401610518565b611fc660017f0000000000000000000000000000000000000000000000000000000000000000614e86565b87106120145760405162461bcd60e51b815260206004820152601e60248201527f4d616e676f2f696e697469616c697a652f4e6f536c6f74466f7241736b7300006044820152606401610518565b855b8581101561229557600061202982612d65565b905088821161216657600061203e8780614f65565b8481811061204e5761204e614e5a565b905060200201359050600081116120a2576000831161206e5760006120a4565b836001016120826001856109139190614e86565b8154811061209257612092614e5a565b90600052602060002001546120a4565b805b90506120ca828c8888878181106120bd576120bd614e5a565b9050602002013584612d87565b60008460000183815481106120e1576120e1614e5a565b906000526020600020015411156121605761215e7f00000000000000000000000000000000000000000000000000000000000000007f000000000000000000000000000000000000000000000000000000000000000086600001858154811061214c5761214c614e5a565b9060005260206000200154600061190b565b505b50612282565b60006121756020880188614f65565b8481811061218557612185614e5a565b905060200201359050600081116121d457600083116121a55760006121d6565b836121b4610913600186614e86565b815481106121c4576121c4614e5a565b90600052602060002001546121d6565b805b90506121fc828c8888878181106121ef576121ef614e5a565b9050602002013584612fa6565b600084600101838154811061221357612213614e5a565b906000526020600020015411156122805761227e7f00000000000000000000000000000000000000000000000000000000000000007f000000000000000000000000000000000000000000000000000000000000000086600101858154811061214c5761214c614e5a565b505b505b508061228d81614f30565b915050612016565b505050505050505050565b600080806001600160a01b037f00000000000000000000000000000000000000000000000000000000000000001663cbf75c9a89896040516001600160e01b031960e085901b1681526001600160a01b039283166004820152911660248201526044016040805180830381865afa15801561231f573d6000803e3d6000fd5b505050506040513d601f19601f820116820180604052508101906123439190614faf565b9150915060007f00000000000000000000000000000000000000000000000000000000000000006001600160a01b0316635722647b61237f8b90565b8a886040518463ffffffff1660e01b815260040161239f93929190614f0c565b602060405180830381865afa1580156123bc573d6000803e3d6000fd5b505050506040513d601f19601f820116820180604052508101906123e09190614ef3565b9050600086604085901c61ffff161115612403575061ffff604084901c16612406565b50855b62ffffff881061241b57612418611b89565b97505b60008161243162ffffff606087901c168b614e9d565b61243b9190614fd3565b61244990633b9aca00614fd3565b9050600061ffff602085901c1661247062ffffff603087901c811690604888901c16614e9d565b61247a9190614fd3565b61248890633b9aca00614fd3565b6040516370a0823160e01b81523060048201529091506000906001600160a01b037f000000000000000000000000000000000000000000000000000000000000000016906370a0823190602401602060405180830381865afa1580156124f2573d6000803e3d6000fd5b505050506040513d601f19601f820116820180604052508101906125169190614ef3565b6125209083614e9d565b905082811015612539576125348184614e86565b61253c565b60005b9d9c50505050505050505050505050565b60008061255861294c565b600101546001600160a01b03908116915060009084166370a0823161257b611b70565b6040516001600160e01b031960e084901b1681526001600160a01b039091166004820152602401602060405180830381865afa1580156125bf573d6000803e3d6000fd5b505050506040513d601f19601f820116820180604052508101906125e39190614ef3565b90506001600160a01b0382161561064357816001600160a01b03166305684fde8561260c611b70565b6040516001600160e01b031960e085901b1681526001600160a01b03928316600482015291166024820152604401602060405180830381865afa158015612657573d6000803e3d6000fd5b505050506040513d601f19601f8201168201806040525081019061267b9190614ef3565b6126859082614e9d565b611a1e565b6126926127ca565b6001600160a01b0316336001600160a01b031614806126d95750336001600160a01b037f000000000000000000000000000000000000000000000000000000000000000016145b6126f55760405162461bcd60e51b815260040161051890614d8b565b806001600160a01b031663095ea7b361270c6127d4565b6040516001600160e01b031960e084901b1681526001600160a01b03909116600482015260001960248201526044016020604051808303816000875af115801561275a573d6000803e3d6000fd5b505050506040513d601f19601f8201168201806040525081019061277e9190614dc2565b61074d5760405162461bcd60e51b815260206004820152601b60248201527f6d67764f666665722f617070726f7665526f757465722f4661696c00000000006044820152606401610518565b6000611b7a612928565b6000806127df61294c565b600101546001600160a01b0316905080610aff5760405162461bcd60e51b815260206004820152601160248201527036b3bb27b33332b917983c2937baba32b960791b6044820152606401610518565b6128376127ca565b6001600160a01b0316336001600160a01b0316148061287e5750336001600160a01b037f000000000000000000000000000000000000000000000000000000000000000016145b61289a5760405162461bcd60e51b815260040161051890614d8b565b808162ffffff16146128ee5760405162461bcd60e51b815260206004820152601860248201527f6d67764f666665722f6761737265712f6f766572666c6f7700000000000000006044820152606401610518565b806128f761294c565b556040518181527fafef3ad374c0b972e3c793be825735801fa05cc4c67157d98d9a111b4027988d90602001611d96565b7f7d382ebca3e46505071795e192d28166a3d4bd0685585591bc6c5b8df6769fd290565b7fae7e31c3220e851db9f204a28b279dfe52b973600b0a456991089c220ae7222490565b7f7bccd2960a07f28b1420615e9ead32d6e77e21d42f4a6c1a1fe785dae226653290565b60008115806129ab57506001600160a01b03831630145b156129b857506001610643565b604080516001600160a01b038581166024830152604480830186905283518084039091018152606490920183526020820180516001600160e01b031663a9059cbb60e01b1790529151600092839290881691612a149190614ff2565b6000604051808303816000865af19150503d8060008114612a51576040519150601f19603f3d011682016040523d82523d6000602084013e612a56565b606091505b5091509150818015612a80575080511580612a80575080806020019051810190612a809190614dc2565b9695505050505050565b6000612a9582613760565b506000612aa183612c9b565b905080600003612ab45750600192915050565b6000612abf84613811565b90506001600160a01b037f000000000000000000000000000000000000000000000000000000000000000016636a4f7691612afd6020870187614a3e565b612b0d6040880160208901614a3e565b848660c08a013560481c62ffffff1660c08b013560201c61ffff1660608c013560c01c63ffffffff168c604001356040518963ffffffff1660e01b8152600401612b5e989796959493929190614ddf565b600060405180830381600087803b158015612b7857600080fd5b505af1925050508015612b89575060015b612c91573d808015612bb7576040519150601f19603f3d011682016040523d82523d6000602084013e612bbc565b606091505b50805160208201206000805160206151e283398151915201612c865760408501803590612bec9060208801614a3e565b6001600160a01b0316612c026020880188614a3e565b6001600160a01b03166000805160206152228339815191527f0000000000000000000000000000000000000000000000000000000000000000604051612c7d91906001600160a01b039190911681527f50657273697374656e742f686f6f6b2f6f75744f6650726f766973696f6e0000602082015260400190565b60405180910390a45b506000949350505050565b5060019392505050565b60006000805160206152028339815191526001600160a01b037f000000000000000000000000000000000000000000000000000000000000000016612ce36020850185614a3e565b6001600160a01b031603612d09578060020154612cff846138fe565b6106439190614e9d565b8060030154612cff846138fe565b6000612d5f60008051602061520283398151915260060154612d39908461502d565b7f000000000000000000000000000000000000000000000000000000000000000061391b565b92915050565b6000612d5f60008051602061520283398151915260060154612d39908461506c565b6000600080516020615202833981519152905060006001600160a01b037f0000000000000000000000000000000000000000000000000000000000000000166368c13d6b7f00000000000000000000000000000000000000000000000000000000000000007f0000000000000000000000000000000000000000000000000000000000000000856001018a81548110612e2257612e22614e5a565b90600052602060002001546040518463ffffffff1660e01b8152600401612e4b93929190614f0c565b602060405180830381865afa158015612e68573d6000803e3d6000fd5b505050506040513d601f19601f82011682018060405250810190612e8c9190614ef3565b90506000612e9987612d17565b9050600086612ec9576003840154612eba6001600160601b03851688614e9d565b612ec49190614e9d565b612ecb565b855b90506000612ed98383613949565b905060006001600160601b038516600003612f48578615612efb575085612f6b565b8315612f375785600101612f156001866109139190614e86565b81548110612f2557612f25614e5a565b90600052602060002001549050612f6b565b612f418560e01c90565b9050612f6b565b856001018a81548110612f5d57612f5d614e5a565b906000526020600020015490505b612f9a8a7f000000000000000000000000000000000000000000000000000000000000000084868d1586613991565b50505050505050505050565b6000600080516020615202833981519152905060006001600160a01b037f0000000000000000000000000000000000000000000000000000000000000000166368c13d6b7f00000000000000000000000000000000000000000000000000000000000000007f0000000000000000000000000000000000000000000000000000000000000000856000018a8154811061304157613041614e5a565b90600052602060002001546040518463ffffffff1660e01b815260040161306a93929190614f0c565b602060405180830381865afa158015613087573d6000803e3d6000fd5b505050506040513d601f19601f820116820180604052508101906130ab9190614ef3565b905060006130b887612d17565b90506000866130e85760028401546130d96001600160601b03851688614e9d565b6130e39190614e9d565b6130ea565b855b905060006130f88383613a77565b905060006001600160601b03851660000361316257861561311a575085613185565b8315613151578561312f610913600187614e86565b8154811061313f5761313f614e5a565b90600052602060002001549050613185565b61315b8560e01c90565b9050613185565b856000018a8154811061317757613177614e5a565b906000526020600020015490505b612f9a8a7f000000000000000000000000000000000000000000000000000000000000000084868d1586613991565b6000806131cf6131c76020850185614a3e565b856000613ab7565b90508381106131e2576000915050612d5f565b60006131f16020850185614a3e565b6040516370a0823160e01b81523060048201526001600160a01b0391909116906370a0823190602401602060405180830381865afa158015613237573d6000803e3d6000fd5b505050506040513d601f19601f8201168201806040525081019061325b9190614ef3565b9050848110156132745761326f8186614e86565b613277565b60005b92505050612d5f565b6000805160206152028339815191527f000000000000000000000000000000000000000000000000000000000000000085106133085760405162461bcd60e51b815260206004820152602160248201527f4d616e676f2f73686966742f4e656761746976655368696674546f6f4c6172676044820152606560f81b6064820152608401610518565b600061333861091360017f0000000000000000000000000000000000000000000000000000000000000000614e86565b90508582600601600082825461334e919061502d565b90915550600090505b868110156135315782600001828154811061337457613374614e5a565b90600052602060002001546000146133e2576133e07f00000000000000000000000000000000000000000000000000000000000000007f000000000000000000000000000000000000000000000000000000000000000085600001858154811061214c5761214c614e5a565b505b60006133ed83612d17565b9050600080881561343c5787878581811061340a5761340a614e5a565b9050602002013590506134358389898781811061342957613429614e5a565b90506020020135613a77565b915061347c565b61345e8389898781811061345257613452614e5a565b90506020020135613949565b905087878581811061347257613472614e5a565b9050602002013591505b613511857f0000000000000000000000000000000000000000000000000000000000000000838560006134d060017f0000000000000000000000000000000000000000000000000000000000000000614e86565b89106134dd576000613991565b8b6001016134f18a60016109139190614e9d565b8154811061350157613501614e5a565b9060005260206000200154613991565b8361351b81614f30565b94505061352785613b80565b9450505050613357565b50505050505050565b6000805160206152028339815191527f000000000000000000000000000000000000000000000000000000000000000085106135c25760405162461bcd60e51b815260206004820152602160248201527f4d616e676f2f73686966742f706f7369746976655368696674546f6f4c6172676044820152606560f81b6064820152608401610518565b60006135ce6000612d65565b9050858260060160008282546135e4919061506c565b90915550600090505b868110156135315782600101828154811061360a5761360a614e5a565b9060005260206000200154600014613678576136767f00000000000000000000000000000000000000000000000000000000000000007f000000000000000000000000000000000000000000000000000000000000000085600101858154811061214c5761214c614e5a565b505b600061368383612d17565b905060008088156136c6578787858181106136a0576136a0614e5a565b9050602002013591506136bf8389898781811061342957613429614e5a565b90506136fa565b8787858181106136d8576136d8614e5a565b9050602002013590506136f78389898781811061345257613452614e5a565b91505b613740857f000000000000000000000000000000000000000000000000000000000000000083856000808911613731576000613991565b8b6134f161091360018c614e86565b8361374a81614f30565b94505061375685613bc4565b94505050506135ed565b604080516002808252606082018352600092839291906020830190803683370190505090506137926020840184614a3e565b816000815181106137a5576137a5614e5a565b6001600160a01b039092166020928302919091018201526137cc9060408501908501614a3e565b816001815181106137df576137df614e5a565b60200260200101906001600160a01b031690816001600160a01b03168152505061380881613bfc565b50600192915050565b60006000805160206152028339815191527f00000000000000000000000000000000000000000000000000000000000000006001600160a01b03166138596020850185614a3e565b6001600160a01b0316036138b757604080840135600090815260058301602052908120549061388785612c9b565b90508060000361389c57506000949350505050565b6138ae6138a883612d17565b82613a77565b95945050505050565b60408084013560009081526004830160205290812054906138d785612c9b565b9050806000036138ec57506000949350505050565b6138ae6138f883612d17565b82613949565b6000612d5f608083013560608401356001600160601b0316614e86565b60008083126139355761392e82846150c3565b9050612d5f565b61393f82846150d7565b61392e908361506c565b600061395483613c6d565b6139876001600160601b037f00000000000000000000000000000000000000000000000000000000000000001684614fd3565b61064391906150eb565b6000805160206152028339815191526001600160a01b037f0000000000000000000000000000000000000000000000000000000000000000811690871603613a235760006139e188878786613c93565b90508015613a0f5783613a03578082600201546139fe9190614e9d565b613a05565b805b6002830155613a1d565b8315613a1d57600060028301555b50613531565b6000613a3188878786614244565b90508015613a5f5783613a5357808260030154613a4e9190614e9d565b613a55565b805b6003830155613a6d565b8315613a6d57600060038301555b5050505050505050565b60007f00000000000000000000000000000000000000000000000000000000000000006001600160601b031682613aad85613c6d565b6139879190614fd3565b600080613ac261294c565b600101546001600160a01b0316905080613ae0576000915050610643565b806001600160a01b031663333dbb0d86613af8611b70565b6040516001600160e01b031960e085901b1681526001600160a01b039283166004820152911660248201526044810187905285151560648201526084016020604051808303816000875af1158015613b54573d6000803e3d6000fd5b505050506040513d601f19601f82011682018060405250810190613b789190614ef3565b915050610643565b6000808211613bb957613bb460017f0000000000000000000000000000000000000000000000000000000000000000614e86565b612d5f565b612d5f600183614e86565b60007f0000000000000000000000000000000000000000000000000000000000000000613bf2836001614e9d565b612d5f91906150c3565b6000613c0661294c565b600101546001600160a01b0316905080613c1e575050565b806001600160a01b031663f850a81c83613c36611b70565b6040518363ffffffff1660e01b8152600401613c539291906150ff565b600060405180830381600087803b15801561073357600080fd5b6000612d5f6000805160206152028339815191526007015483613c8e614783565b61486a565b600080516020615202833981519152805460009190819087908110613cba57613cba614e5a565b9060005260206000200154600003613f39576001600160a01b037f0000000000000000000000000000000000000000000000000000000000000000166349f6d2dc7f00000000000000000000000000000000000000000000000000000000000000007f00000000000000000000000000000000000000000000000000000000000000008888613d47611b89565b60008a6040518863ffffffff1660e01b8152600401613d6c9796959493929190614eb5565b6020604051808303816000875af1925050508015613da7575060408051601f3d908101601f19168201909252613da491810190614ef3565b60015b613ed1573d808015613dd5576040519150601f19603f3d011682016040523d82523d6000602084013e613dda565b606091505b50805160208201206000805160206151e283398151915201613ec75760007f00000000000000000000000000000000000000000000000000000000000000006001600160a01b03167f00000000000000000000000000000000000000000000000000000000000000006001600160a01b03166000805160206152228339815191527f0000000000000000000000000000000000000000000000000000000000000000604051613ebe91906001600160a01b039190911681527f4d616e676f2f6e657741736b2f6f75744f6650726f766973696f6e0000000000602082015260400190565b60405180910390a45b8492505050611a1e565b80826000018881548110613ee757613ee7614e5a565b906000526020600020018190555086826005016000846000018a81548110613f1157613f11614e5a565b9060005260206000200154815260200190815260200160002081905550600092505050611a1e565b6001600160a01b037f000000000000000000000000000000000000000000000000000000000000000016636a4f76917f00000000000000000000000000000000000000000000000000000000000000007f00000000000000000000000000000000000000000000000000000000000000008888613fb4611b89565b60008a896000018f81548110613fcc57613fcc614e5a565b90600052602060002001546040518963ffffffff1660e01b8152600401613ffa989796959493929190614ddf565b600060405180830381600087803b15801561401457600080fd5b505af1925050508015614025575060015b61423a573d808015614053576040519150601f19603f3d011682016040523d82523d6000602084013e614058565b606091505b50805160208201206000805160206151e2833981519152016141635781600001878154811061408957614089614e5a565b90600052602060002001547f00000000000000000000000000000000000000000000000000000000000000006001600160a01b03167f00000000000000000000000000000000000000000000000000000000000000006001600160a01b03166000805160206152228339815191527f000000000000000000000000000000000000000000000000000000000000000060405161415a91906001600160a01b039190911681527f4d616e676f2f75706461746541736b2f6f75744f6650726f766973696f6e0000602082015260400190565b60405180910390a45b60006142176001600160a01b037f0000000000000000000000000000000000000000000000000000000000000000166368c13d6b7f00000000000000000000000000000000000000000000000000000000000000007f0000000000000000000000000000000000000000000000000000000000000000876000018d815481106141ee576141ee614e5a565b90600052602060002001546040518463ffffffff1660e01b815260040161100e93929190614f0c565b90508086116142265785614230565b6142308187614e86565b9350505050611a1e565b6000915050611a1e565b7f416b48c48a967c2245e6ba6bc6efa281932950b502fea671117e4dfd7d3dfb828054600091600080516020615202833981519152918790811061428a5761428a614e5a565b90600052602060002001546000036144ce576001600160a01b037f0000000000000000000000000000000000000000000000000000000000000000166349f6d2dc7f00000000000000000000000000000000000000000000000000000000000000007f00000000000000000000000000000000000000000000000000000000000000008888614317611b89565b60008a6040518863ffffffff1660e01b815260040161433c9796959493929190614eb5565b6020604051808303816000875af1925050508015614377575060408051601f3d908101601f1916820190925261437491810190614ef3565b60015b61448e573d8080156143a5576040519150601f19603f3d011682016040523d82523d6000602084013e6143aa565b606091505b50805160208201206000805160206151e283398151915201613ec75760007f00000000000000000000000000000000000000000000000000000000000000006001600160a01b03167f00000000000000000000000000000000000000000000000000000000000000006001600160a01b03166000805160206152228339815191527f0000000000000000000000000000000000000000000000000000000000000000604051613ebe91906001600160a01b039190911681527f4d616e676f2f6e65774269642f6f75744f6650726f766973696f6e0000000000602082015260400190565b808260010188815481106144a4576144a4614e5a565b906000526020600020018190555086826004016000846001018a81548110613f1157613f11614e5a565b6001600160a01b037f000000000000000000000000000000000000000000000000000000000000000016636a4f76917f00000000000000000000000000000000000000000000000000000000000000007f00000000000000000000000000000000000000000000000000000000000000008888614549611b89565b60008a896001018f8154811061456157614561614e5a565b90600052602060002001546040518963ffffffff1660e01b815260040161458f989796959493929190614ddf565b600060405180830381600087803b1580156145a957600080fd5b505af19250505080156145ba575060015b61423a573d8080156145e8576040519150601f19603f3d011682016040523d82523d6000602084013e6145ed565b606091505b50805160208201206000805160206151e2833981519152016146f85781600101878154811061461e5761461e614e5a565b90600052602060002001547f00000000000000000000000000000000000000000000000000000000000000006001600160a01b03167f00000000000000000000000000000000000000000000000000000000000000006001600160a01b03166000805160206152228339815191527f00000000000000000000000000000000000000000000000000000000000000006040516146ef91906001600160a01b039190911681527f4d616e676f2f77726974654269642f7570646174654f666665724661696c0000602082015260400190565b60405180910390a45b60006142176001600160a01b037f0000000000000000000000000000000000000000000000000000000000000000166368c13d6b7f00000000000000000000000000000000000000000000000000000000000000007f0000000000000000000000000000000000000000000000000000000000000000876001018d815481106141ee576141ee614e5a565b7f416b48c48a967c2245e6ba6bc6efa281932950b502fea671117e4dfd7d3dfb88547f416b48c48a967c2245e6ba6bc6efa281932950b502fea671117e4dfd7d3dfb87546000916000805160206152028339815191529183916147e59161515c565b614818906001600160601b037f00000000000000000000000000000000000000000000000000000000000000001661506c565b905060008113612d5f5760405162461bcd60e51b815260206004820152601e60248201527f4d616e676f2f71756f74655f6d696e2f5368696674556e646572666c6f7700006044820152606401610518565b6000816148778486614fd3565b611a1e9190614e9d565b60405180604001604052806002905b60608152602001906001900390816148905790505090565b6001600160a01b038116811461074d57600080fd5b8035610aff816148a8565b6000806000606084860312156148dd57600080fd5b83356148e8816148a8565b925060208401356148f8816148a8565b929592945050506040919091013590565b634e487b7160e01b600052604160045260246000fd5b600061010080838503121561493357600080fd5b6040519081019067ffffffffffffffff8211818310171561496457634e487b7160e01b600052604160045260246000fd5b81604052614971846148bd565b815261497f602085016148bd565b602082015260408401356040820152606084013560608201526080840135608082015260a084013560a082015260c084013560c082015260e084013560e0820152809250505092915050565b6000610120828403121561127b57600080fd5b600061012082840312156149f157600080fd5b61064383836149cb565b600080828403610160811215614a1057600080fd5b614a1a85856149cb565b9250604061011f1982011215614a2f57600080fd5b50610120830190509250929050565b600060208284031215614a5057600080fd5b8135610643816148a8565b801515811461074d57600080fd5b600060208284031215614a7b57600080fd5b813561064381614a5b565b6020808252600090606083018382018584805b6002811015614aee57878503601f19018452825180518087529087019087870190845b81811015614ad857835183529289019291890191600101614abc565b5090965050509285019291850191600101614a99565b5092979650505050505050565b60008060408385031215614b0e57600080fd5b823591506020830135614b20816148a8565b809150509250929050565b600080600060608486031215614b4057600080fd5b505081359360208301359350604090920135919050565b60008083601f840112614b6957600080fd5b50813567ffffffffffffffff811115614b8157600080fd5b6020830191508360208260051b8501011115614b9c57600080fd5b9250929050565b60008060008060608587031215614bb957600080fd5b843593506020850135614bcb81614a5b565b9250604085013567ffffffffffffffff811115614be757600080fd5b614bf387828801614b57565b95989497509550505050565b60008060008060808587031215614c1557600080fd5b8435614c20816148a8565b93506020850135614c30816148a8565b9250604085013591506060850135614c4781614a5b565b939692955090935050565b60008060408385031215614c6557600080fd5b8235614c70816148a8565b946020939093013593505050565b600080600080600080600060c0888a031215614c9957600080fd5b8735614ca481614a5b565b9650602088013595506040880135945060608801359350608088013567ffffffffffffffff80821115614cd657600080fd5b818a0191508a604083011115614ceb57600080fd5b90935060a08901359080821115614d0157600080fd5b50614d0e8a828b01614b57565b989b979a50959850939692959293505050565b600080600080600060a08688031215614d3957600080fd5b8535614d44816148a8565b94506020860135614d54816148a8565b94979496505050506040830135926060810135926080909101359150565b600060208284031215614d8457600080fd5b5035919050565b60208082526018908201527f416363657373436f6e74726f6c6c65642f496e76616c69640000000000000000604082015260600190565b600060208284031215614dd457600080fd5b815161064381614a5b565b6001600160a01b03988916815296909716602087015260408601949094526060850192909252608084015260a083015260c082015260e08101919091526101000190565b6020808252601f908201527f4d616e676f496d706c656d656e746174696f6e2f696e76616c696443616c6c00604082015260600190565b634e487b7160e01b600052603260045260246000fd5b634e487b7160e01b600052601160045260246000fd5b600082821015614e9857614e98614e70565b500390565b60008219821115614eb057614eb0614e70565b500190565b6001600160a01b03978816815295909616602086015260408501939093526060840191909152608083015260a082015260c081019190915260e00190565b600060208284031215614f0557600080fd5b5051919050565b6001600160a01b039384168152919092166020820152604081019190915260600190565b600060018201614f4257614f42614e70565b5060010190565b6000600160ff1b8201614f5e57614f5e614e70565b5060000390565b6000808335601e19843603018112614f7c57600080fd5b83018035915067ffffffffffffffff821115614f9757600080fd5b6020019150600581901b3603821315614b9c57600080fd5b60008060408385031215614fc257600080fd5b505080516020909101519092909150565b6000816000190483118215151615614fed57614fed614e70565b500290565b6000825160005b818110156150135760208186018101518583015201614ff9565b81811115615022576000828501525b509190910192915050565b60008083128015600160ff1b85018412161561504b5761504b614e70565b6001600160ff1b038401831381161561506657615066614e70565b50500390565b600080821280156001600160ff1b038490038513161561508e5761508e614e70565b600160ff1b83900384128116156150a7576150a7614e70565b50500190565b634e487b7160e01b600052601260045260246000fd5b6000826150d2576150d26150ad565b500690565b6000826150e6576150e66150ad565b500790565b6000826150fa576150fa6150ad565b500490565b604080825283519082018190526000906020906060840190828701845b828110156151415781516001600160a01b03168452928401929084019060010161511c565b5050506001600160a01b039490941692019190915250919050565b60006001600160ff1b038184138284138082168684048611161561518257615182614e70565b600160ff1b60008712828116878305891216156151a1576151a1614e70565b600087129250878205871284841616156151bd576151bd614e70565b878505871281841616156151d3576151d3614e70565b50505092909302939250505056fec5fc8c2459087ad4f0e957e465df485864a3b1a379c2653ffe7c554981ede670416b48c48a967c2245e6ba6bc6efa281932950b502fea671117e4dfd7d3dfb81736a3993b9f8b1c5603896c76376792887f376b1fe7fc981e09a16530bf1e4e0a264697066735822122019c092ae31505a48c1dab9c76f57b2630fa912cb2764d9aadca9dad27a5ce4c964736f6c634300080e0033416363657373436f6e74726f6c6c65642f496e76616c69640000000000000000",
    "linkReferences": {}
  },
  "methodIdentifiers": {
    "BASE()": "ec342ad0",
    "MGV()": "99fa5e2d",
    "NSLOTS()": "d4a1da08",
    "QUOTE()": "9c579839",
    "_staticdelegatecall(bytes)": "5a3e9618",
    "admin()": "f851a440",
    "approveMangrove(address,uint256)": "aefe8403",
    "approveRouter(address)": "f259cd27",
    "delta()": "12b495a8",
    "getMissingProvision(address,address,uint256,uint256,uint256)": "e4c34f84",
    "get_offers(bool)": "1efa880b",
    "has_router()": "84b627f9",
    "initialize(bool,uint256,uint256,uint256,uint256[][2],uint256[])": "553e9f32",
    "is_paused()": "9d4f8aa9",
    "makerExecute((address,address,uint256,uint256,uint256,uint256,uint256,uint256,uint256))": "6c49c32c",
    "makerPosthook((address,address,uint256,uint256,uint256,uint256,uint256,uint256,uint256),(bytes32,bytes32))": "3d3d130d",
    "newOffer((address,address,uint256,uint256,uint256,uint256,uint256,uint256))": "5486c95f",
    "ofr_gasreq()": "d1baa1ef",
    "pause()": "8456cb59",
    "pending()": "e20ccec3",
    "reserve()": "cd3293de",
    "reset_pending()": "d5c39721",
    "restart()": "1ef3755d",
    "retractOffer(address,address,uint256,bool)": "ad97db1b",
    "retractOffers(uint256,uint256,uint256)": "ccbbcfc2",
    "router()": "f887ea40",
    "setAdmin(address)": "704b6c02",
    "set_delta(uint256)": "c5dbec38",
    "set_gasreq(uint256)": "fc488a38",
    "set_min_offer_type(uint256)": "9d4ddea2",
    "set_reserve(address)": "3d77fcde",
    "set_router(address)": "db11851e",
    "set_shift(int256,bool,uint256[])": "81550267",
    "shift()": "12fc41ca",
    "tokenBalance(address)": "eedc966a",
    "updateOffer((address,address,uint256,uint256,uint256,uint256,uint256,uint256))": "10aded60",
    "withdrawFromMangrove(uint256,address)": "7144df24",
    "withdrawToken(address,address,uint256)": "01e33667"
  },
  "id": 44
}