{
  "abi": [
    {
      "inputs": [
        {
          "internalType": "contract IPool",
          "name": "pool",
          "type": "address"
        },
        {
          "internalType": "contract IPriceOracleGetter",
          "name": "oracle",
          "type": "address"
        }
      ],
      "stateMutability": "nonpayable",
      "type": "constructor"
    },
    {
      "inputs": [
        {
          "internalType": "address",
          "name": "asset",
          "type": "address"
        },
        {
          "internalType": "bool",
          "name": "tryBorrow",
          "type": "bool"
        },
        {
          "internalType": "address",
          "name": "onBehalf",
          "type": "address"
        }
      ],
      "name": "$maxGettableUnderlying",
      "outputs": [
        {
          "internalType": "uint256",
          "name": "",
          "type": "uint256"
        },
        {
          "internalType": "uint256",
          "name": "",
          "type": "uint256"
        }
      ],
      "stateMutability": "view",
      "type": "function"
    },
    {
      "inputs": [
        {
          "internalType": "uint256",
          "name": "interestRateMode",
          "type": "uint256"
        },
        {
          "internalType": "uint256",
          "name": "referralCode",
          "type": "uint256"
        },
        {
          "internalType": "contract IERC20",
          "name": "token",
          "type": "address"
        },
        {
          "internalType": "address",
          "name": "onBehalfOf",
          "type": "address"
        },
        {
          "internalType": "uint256",
          "name": "amount",
          "type": "uint256"
        },
        {
          "internalType": "bool",
          "name": "strict",
          "type": "bool"
        },
        {
          "internalType": "address",
          "name": "recipient",
          "type": "address"
        }
      ],
      "name": "$redeemThenBorrow",
      "outputs": [
        {
          "internalType": "uint256",
          "name": "",
          "type": "uint256"
        }
      ],
      "stateMutability": "nonpayable",
      "type": "function"
    },
    {
      "inputs": [
        {
          "internalType": "uint256",
          "name": "interestRateMode",
          "type": "uint256"
        },
        {
          "internalType": "uint256",
          "name": "referralCode",
          "type": "uint256"
        },
        {
          "internalType": "contract IERC20",
          "name": "token",
          "type": "address"
        },
        {
          "internalType": "address",
          "name": "onBehalf",
          "type": "address"
        },
        {
          "internalType": "uint256",
          "name": "amount",
          "type": "uint256"
        }
      ],
      "name": "$repayThenDeposit",
      "outputs": [],
      "stateMutability": "nonpayable",
      "type": "function"
    },
    {
      "inputs": [],
      "name": "ORACLE",
      "outputs": [
        {
          "internalType": "contract IPriceOracleGetter",
          "name": "",
          "type": "address"
        }
      ],
      "stateMutability": "view",
      "type": "function"
    },
    {
      "inputs": [],
      "name": "POOL",
      "outputs": [
        {
          "internalType": "contract IPool",
          "name": "",
          "type": "address"
        }
      ],
      "stateMutability": "view",
      "type": "function"
    }
  ],
  "bytecode": {
    "object": "0x60c060405234801561001057600080fd5b5060405161140f38038061140f83398101604081905261002f9161005e565b6001600160a01b039182166080521660a052610098565b6001600160a01b038116811461005b57600080fd5b50565b6000806040838503121561007157600080fd5b825161007c81610046565b602084015190925061008d81610046565b809150509250929050565b60805160a0516113156100fa60003960008181607601526109bf01526000818160ba0152818161014f015281816102f3015281816103b40152818161046b0152818161058001528181610666015281816107de015261088c01526113156000f3fe608060405234801561001057600080fd5b50600436106100575760003560e01c8063038efb8a1461005c57806338013f02146100715780637535d246146100b55780639105b83a146100dc578063fd8c0451146100fd575b600080fd5b61006f61006a366004610d84565b610125565b005b6100987f000000000000000000000000000000000000000000000000000000000000000081565b6040516001600160a01b0390911681526020015b60405180910390f35b6100987f000000000000000000000000000000000000000000000000000000000000000081565b6100ef6100ea366004610de4565b61041b565b6040519081526020016100ac565b61011061010b366004610e5f565b610749565b604080519283526020830191909152016100ac565b8015610414576040516335ea6a7560e01b81526001600160a01b03848116600483015260009182917f000000000000000000000000000000000000000000000000000000000000000016906335ea6a75906024016101e060405180830381865afa158015610197573d6000803e3d6000fd5b505050506040513d601f19601f820116820180604052508101906101bb9190610f89565b90508660010361023b576101208101516040516370a0823160e01b81523060048201526001600160a01b03909116906370a0823190602401602060405180830381865afa158015610210573d6000803e3d6000fd5b505050506040513d601f19601f8201168201806040525081019061023491906110ac565b91506102ad565b6101408101516040516370a0823160e01b81523060048201526001600160a01b03909116906370a0823190602401602060405180830381865afa158015610286573d6000803e3d6000fd5b505050506040513d601f19601f820116820180604052508101906102aa91906110ac565b91505b8260008390036102be57508261037c565b60405163573ade8160e01b81526001600160a01b03878116600483015260248201869052604482018a905286811660648301527f0000000000000000000000000000000000000000000000000000000000000000169063573ade81906084016020604051808303816000875af1925050508015610358575060408051601f3d908101601f19168201909252610355918101906110ac565b60015b1561037c5761036781836110db565b91508160000361037a5750505050610414565b505b60405163617ba03760e01b81526001600160a01b03878116600483015260248201839052868116604483015261ffff891660648301527f0000000000000000000000000000000000000000000000000000000000000000169063617ba03790608401600060405180830381600087803b1580156103f857600080fd5b505af115801561040c573d6000803e3d6000fd5b505050505050505b5050505050565b600080600061042c88600189610749565b915091508415610448578582106104435785610445565b815b91505b6040516335ea6a7560e01b81526001600160a01b0389811660048301526104e6917f0000000000000000000000000000000000000000000000000000000000000000909116906335ea6a75906024016101e060405180830381865afa1580156104b5573d6000803e3d6000fd5b505050506040513d601f19601f820116820180604052508101906104d99190610f89565b6101000151883085610b6a565b61054c5760405162461bcd60e51b815260206004820152602c60248201527f416176654d6f64756c652f72656465656d5468656e426f72726f772f61546b6e60448201526b151c985b9cd9995c91985a5b60a21b60648201526084015b60405180910390fd5b81156105ef57604051631a4ca37b60e21b81526001600160a01b0389811660048301526024820184905285811660448301527f000000000000000000000000000000000000000000000000000000000000000016906369328dec906064016020604051808303816000875af11580156105c9573d6000803e3d6000fd5b505050506040513d601f19601f820116820180604052508101906105ed91906110ac565b505b85821015806105fc575080155b156106095750905061073e565b61061382876110db565b95508581116106225780610624565b855b60405163a415bcad60e01b81526001600160a01b038a8116600483015260248201839052604482018d905261ffff8c16606483015289811660848301529192507f00000000000000000000000000000000000000000000000000000000000000009091169063a415bcad9060a401600060405180830381600087803b1580156106ac57600080fd5b505af11580156106c0573d6000803e3d6000fd5b505050506106cf888583610c74565b61072f5760405162461bcd60e51b815260206004820152602b60248201527f416176654d6f64756c652f72656465656d5468656e426f72726f772f546b6e5460448201526a1c985b9cd9995c91985a5b60aa1b6064820152608401610543565b61073981836110f2565b925050505b979650505050505050565b6000806107776040518060800160405280600081526020016000815260200160008152602001600081525090565b6107bf60405180610100016040528060008152602001600081526020016000815260200160008152602001600081526020016000815260200160008152602001600081525090565b604051632fe4a15f60e21b81526001600160a01b0386811660048301527f0000000000000000000000000000000000000000000000000000000000000000169063bf92857c9060240160c060405180830381865afa158015610825573d6000803e3d6000fd5b505050506040513d601f19601f82011682018060405250810190610849919061110a565b60c0870152608086015260a08501526040808501919091526020840191909152908252516335ea6a7560e01b81526001600160a01b0388811660048301526000917f0000000000000000000000000000000000000000000000000000000000000000909116906335ea6a75906024016101e060405180830381865afa1580156108d6573d6000803e3d6000fd5b505050506040513d601f19601f820116820180604052508101906108fa9190610f89565b80515160ff603082901c1660408681019190915261ffff601083901c81166020808901919091529216865261010083015181516370a0823160e01b81526001600160a01b038b8116600483015292519495509116926370a08231926024808401939192918290030181865afa158015610977573d6000803e3d6000fd5b505050506040513d601f19601f8201168201806040525081019061099b91906110ac565b60e083015260405163b3596f0760e01b81526001600160a01b0389811660048301527f0000000000000000000000000000000000000000000000000000000000000000169063b3596f0790602401602060405180830381865afa158015610a06573d6000803e3d6000fd5b505050506040513d601f19601f82011682018060405250810190610a2a91906110ac565b60608401526020820151825160a084015161271091610a4891611154565b610a529190611173565b610a5c91906110db565b6060808401919091528301516020840151600091610a7991611154565b6040850151610a8990600a61127b565b8460600151610a989190611154565b610aa490612710611154565b610aae9190611173565b90508260e001518110610ac5578260e00151610ac7565b805b905087610add57945060009350610b6292505050565b835160009061271090610af09084611154565b610afa9190611173565b9050600085606001518660400151600a610b14919061127b565b8660400151610b239190611154565b610b2d9190611173565b905080821115610b495782600097509750505050505050610b62565b6000610b5583836110db565b9398509296505050505050505b935093915050565b6000811580610b8a5750826001600160a01b0316846001600160a01b0316145b15610b9757506001610c6c565b604080516001600160a01b0386811660248301528581166044830152606480830186905283518084039091018152608490920183526020820180516001600160e01b03166323b872dd60e01b1790529151600092839290891691610bfb9190611287565b6000604051808303816000865af19150503d8060008114610c38576040519150601f19603f3d011682016040523d82523d6000602084013e610c3d565b606091505b5091509150818015610c67575080511580610c67575080806020019051810190610c6791906112c2565b925050505b949350505050565b6000811580610c8b57506001600160a01b03831630145b15610c9857506001610d65565b604080516001600160a01b038581166024830152604480830186905283518084039091018152606490920183526020820180516001600160e01b031663a9059cbb60e01b1790529151600092839290881691610cf49190611287565b6000604051808303816000865af19150503d8060008114610d31576040519150601f19603f3d011682016040523d82523d6000602084013e610d36565b606091505b5091509150818015610d60575080511580610d60575080806020019051810190610d6091906112c2565b925050505b9392505050565b6001600160a01b0381168114610d8157600080fd5b50565b600080600080600060a08688031215610d9c57600080fd5b85359450602086013593506040860135610db581610d6c565b92506060860135610dc581610d6c565b949793965091946080013592915050565b8015158114610d8157600080fd5b600080600080600080600060e0888a031215610dff57600080fd5b87359650602088013595506040880135610e1881610d6c565b94506060880135610e2881610d6c565b93506080880135925060a0880135610e3f81610dd6565b915060c0880135610e4f81610d6c565b8091505092959891949750929550565b600080600060608486031215610e7457600080fd5b8335610e7f81610d6c565b92506020840135610e8f81610dd6565b91506040840135610e9f81610d6c565b809150509250925092565b6040516101e0810167ffffffffffffffff81118282101715610edc57634e487b7160e01b600052604160045260246000fd5b60405290565b600060208284031215610ef457600080fd5b6040516020810181811067ffffffffffffffff82111715610f2557634e487b7160e01b600052604160045260246000fd5b6040529151825250919050565b80516fffffffffffffffffffffffffffffffff81168114610f5257600080fd5b919050565b805164ffffffffff81168114610f5257600080fd5b805161ffff81168114610f5257600080fd5b8051610f5281610d6c565b60006101e08284031215610f9c57600080fd5b610fa4610eaa565b610fae8484610ee2565b8152610fbc60208401610f32565b6020820152610fcd60408401610f32565b6040820152610fde60608401610f32565b6060820152610fef60808401610f32565b608082015261100060a08401610f32565b60a082015261101160c08401610f57565b60c082015261102260e08401610f6c565b60e0820152610100611035818501610f7e565b90820152610120611047848201610f7e565b90820152610140611059848201610f7e565b9082015261016061106b848201610f7e565b9082015261018061107d848201610f32565b908201526101a061108f848201610f32565b908201526101c06110a1848201610f32565b908201529392505050565b6000602082840312156110be57600080fd5b5051919050565b634e487b7160e01b600052601160045260246000fd5b6000828210156110ed576110ed6110c5565b500390565b60008219821115611105576111056110c5565b500190565b60008060008060008060c0878903121561112357600080fd5b865195506020870151945060408701519350606087015192506080870151915060a087015190509295509295509295565b600081600019048311821515161561116e5761116e6110c5565b500290565b60008261119057634e487b7160e01b600052601260045260246000fd5b500490565b600181815b808511156111d05781600019048211156111b6576111b66110c5565b808516156111c357918102915b93841c939080029061119a565b509250929050565b6000826111e757506001611275565b816111f457506000611275565b816001811461120a576002811461121457611230565b6001915050611275565b60ff841115611225576112256110c5565b50506001821b611275565b5060208310610133831016604e8410600b8410161715611253575081810a611275565b61125d8383611195565b8060001904821115611271576112716110c5565b0290505b92915050565b6000610d6583836111d8565b6000825160005b818110156112a8576020818601810151858301520161128e565b818111156112b7576000828501525b509190910192915050565b6000602082840312156112d457600080fd5b8151610d6581610dd656fea264697066735822122005e29a5e8a5ebeef1b1e2c87a110cc05b1aae95afef52eaf4e7fc2ca9a507af364736f6c634300080e0033",
    "linkReferences": {}
  },
  "methodIdentifiers": {
    "$maxGettableUnderlying(address,bool,address)": "fd8c0451",
    "$redeemThenBorrow(uint256,uint256,address,address,uint256,bool,address)": "9105b83a",
    "$repayThenDeposit(uint256,uint256,address,address,uint256)": "038efb8a",
    "ORACLE()": "38013f02",
    "POOL()": "7535d246"
  },
  "id": 24
}