{
  "abi": [
    {
      "inputs": [],
      "name": "vm",
      "outputs": [
        {
          "internalType": "contract Vm",
          "name": "",
          "type": "Vm"
        }
      ],
      "stateMutability": "view",
      "type": "function"
    }
  ],
  "bytecode": {
    "object": "0x61092961003a600b82828239805160001a60731461002d57634e487b7160e01b600052600060045260246000fd5b30600052607381538281f3fe73000000000000000000000000000000000000000030146080604052600436106100405760003560e01c80630a9254e4146100455780633a7684631461005c575b600080fd5b81801561005157600080fd5b5061005a610093565b005b610077737109709ecfa91a80626ff3989d68f67f5b1dd12d81565b6040516001600160a01b03909116815260200160405180910390f35b4660891461010f576100a56089610703565b604051806040016040528060078152602001662837b63cb3b7b760c91b8152506100ce46610703565b6040516020016100e093929190610810565b60408051601f198184030181529082905262461bcd60e51b825261010691600401610894565b60405180910390fd5b604080516318caf8e360e31b815273a97684ead0e402dc232d5a977953df7ecbab3cdb60048083019190915260248201929092526044810191909152634161766560e01b6064820152737109709ecfa91a80626ff3989d68f67f5b1dd12d9063c657c71890608401600060405180830381600087803b15801561019157600080fd5b505af11580156101a5573d6000803e3d6000fd5b5050604080516318caf8e360e31b815273794a61358d6845594f94dc1db02a252b5b4814ad60048201526024810191909152600960448201526810585d9948141bdbdb60ba1b6064820152737109709ecfa91a80626ff3989d68f67f5b1dd12d925063c657c7189150608401600060405180830381600087803b15801561022b57600080fd5b505af115801561023f573d6000803e3d6000fd5b5050604080516318caf8e360e31b8152737ceb23fd6bc0add59e62ac25578270cff1b9f61960048083019190915260248201929092526044810191909152630ae8aa8960e31b6064820152737109709ecfa91a80626ff3989d68f67f5b1dd12d925063c657c7189150608401600060405180830381600087803b1580156102c557600080fd5b505af11580156102d9573d6000803e3d6000fd5b5050604080516318caf8e360e31b8152732791bca1f2de4661ed88a30c99a7a9449aa8417460048083019190915260248201929092526044810191909152635553444360e01b6064820152737109709ecfa91a80626ff3989d68f67f5b1dd12d925063c657c7189150608401600060405180830381600087803b15801561035f57600080fd5b505af1158015610373573d6000803e3d6000fd5b5050604080516318caf8e360e31b815273e50fa9b3c56ffb159cb0fca61f5c9d750e8128c8600482015260248101919091526005604482015264082ae8aa8960db1b6064820152737109709ecfa91a80626ff3989d68f67f5b1dd12d925063c657c7189150608401600060405180830381600087803b1580156103f557600080fd5b505af1158015610409573d6000803e3d6000fd5b5050604080516318caf8e360e31b8152738f3cf7ad23cd3cadbd9735aff958023239c6a06360048201526024810191909152600360448201526244414960e81b6064820152737109709ecfa91a80626ff3989d68f67f5b1dd12d925063c657c7189150608401600060405180830381600087803b15801561048957600080fd5b505af115801561049d573d6000803e3d6000fd5b5050604080516318caf8e360e31b81527382e64f49ed5ec1bc6e43dad4fc8af9bb3a2312ee60048083019190915260248201929092526044810191909152634144414960e01b6064820152737109709ecfa91a80626ff3989d68f67f5b1dd12d925063c657c7189150608401600060405180830381600087803b15801561052357600080fd5b505af1158015610537573d6000803e3d6000fd5b5050604080516318caf8e360e31b8152734eceddf62277ed78623f9a94995c680f8fd6c00e60048083019190915260248201929092526044810191909152634344414960e01b6064820152737109709ecfa91a80626ff3989d68f67f5b1dd12d925063c657c7189150608401600060405180830381600087803b1580156105bd57600080fd5b505af11580156105d1573d6000803e3d6000fd5b5050604080516318caf8e360e31b81527373cf8c5d14aa0ebc89f18272a568319f5bab6cbd600482015260248101919091526005604482015264435553444360d81b6064820152737109709ecfa91a80626ff3989d68f67f5b1dd12d925063c657c7189150608401600060405180830381600087803b15801561065357600080fd5b505af1158015610667573d6000803e3d6000fd5b5050604080516318caf8e360e31b8152737ef18d0a9c3fb1a716ff6c3ed0edf52a2427f716600482015260248101919091526005604482015264086ae8aa8960db1b6064820152737109709ecfa91a80626ff3989d68f67f5b1dd12d925063c657c7189150608401600060405180830381600087803b1580156106e957600080fd5b505af11580156106fd573d6000803e3d6000fd5b50505050565b60608160000361072a5750506040805180820190915260018152600360fc1b602082015290565b8160005b811561074257600101600a8204915061072e565b60008167ffffffffffffffff81111561075d5761075d6108c7565b6040519080825280601f01601f191660200182016040528015610787576020820181803683370190505b50905060001982015b85156107db57600a860660300160f81b828280600190039350815181106107b9576107b96108dd565b60200101906001600160f81b031916908160001a905350600a86049550610790565b50949350505050565b60005b838110156107ff5781810151838201526020016107e7565b838111156106fd5750506000910152565b72021b430b4b71034b21039b437bab6321031329606d1b81526000845161083e8160138501602089016107e4565b61040560f31b60139184019182015284516108608160158401602089016107e4565b65014961034b9960d51b60159290910191820152835161088781601b8401602088016107e4565b01601b0195945050505050565b60208152600082518060208401526108b38160408501602087016107e4565b601f01601f19169190910160400192915050565b634e487b7160e01b600052604160045260246000fd5b634e487b7160e01b600052603260045260246000fdfea264697066735822122003b498f8a769cbf158f0260b95cf692458c89b4e755d763e6a77060de704a89164736f6c634300080e0033",
    "linkReferences": {}
  },
  "methodIdentifiers": {
    "setUp()": "0a9254e4",
    "vm()": "3a768463"
  },
  "id": 75
}