{
  "address": "0x36Eb4C5702131a10AC0D65bDa0236e3B8A38Bba8",
  "abi": [
    {
      "inputs": [
        {
          "internalType": "address",
          "name": "_token",
          "type": "address"
        },
        {
          "internalType": "string",
          "name": "_name",
          "type": "string"
        },
        {
          "internalType": "uint256",
          "name": "_maxpull",
          "type": "uint256"
        }
      ],
      "stateMutability": "nonpayable",
      "type": "constructor"
    },
    {
      "anonymous": false,
      "inputs": [
        {
          "indexed": true,
          "internalType": "address",
          "name": "authority",
          "type": "address"
        }
      ],
      "name": "LogSetAuthority",
      "type": "event"
    },
    {
      "anonymous": false,
      "inputs": [
        {
          "indexed": true,
          "internalType": "address",
          "name": "owner",
          "type": "address"
        }
      ],
      "name": "LogSetOwner",
      "type": "event"
    },
    {
      "inputs": [],
      "name": "authority",
      "outputs": [
        {
          "internalType": "contract DSAuthority",
          "name": "",
          "type": "address"
        }
      ],
      "stateMutability": "view",
      "type": "function"
    },
    {
      "inputs": [
        {
          "internalType": "address",
          "name": "dest",
          "type": "address"
        },
        {
          "internalType": "uint256",
          "name": "amt",
          "type": "uint256"
        }
      ],
      "name": "drainTo",
      "outputs": [],
      "stateMutability": "nonpayable",
      "type": "function"
    },
    {
      "inputs": [],
      "name": "maxpull",
      "outputs": [
        {
          "internalType": "uint256",
          "name": "",
          "type": "uint256"
        }
      ],
      "stateMutability": "view",
      "type": "function"
    },
    {
      "inputs": [],
      "name": "name",
      "outputs": [
        {
          "internalType": "string",
          "name": "",
          "type": "string"
        }
      ],
      "stateMutability": "view",
      "type": "function"
    },
    {
      "inputs": [],
      "name": "owner",
      "outputs": [
        {
          "internalType": "address",
          "name": "",
          "type": "address"
        }
      ],
      "stateMutability": "view",
      "type": "function"
    },
    {
      "inputs": [
        {
          "internalType": "uint256",
          "name": "amt",
          "type": "uint256"
        }
      ],
      "name": "pull",
      "outputs": [],
      "stateMutability": "nonpayable",
      "type": "function"
    },
    {
      "inputs": [
        {
          "internalType": "address",
          "name": "dest",
          "type": "address"
        },
        {
          "internalType": "uint256",
          "name": "amt",
          "type": "uint256"
        }
      ],
      "name": "pullTo",
      "outputs": [],
      "stateMutability": "nonpayable",
      "type": "function"
    },
    {
      "inputs": [
        {
          "internalType": "contract DSAuthority",
          "name": "authority_",
          "type": "address"
        }
      ],
      "name": "setAuthority",
      "outputs": [],
      "stateMutability": "nonpayable",
      "type": "function"
    },
    {
      "inputs": [
        {
          "internalType": "uint256",
          "name": "_maxpull",
          "type": "uint256"
        }
      ],
      "name": "setMaxpull",
      "outputs": [],
      "stateMutability": "nonpayable",
      "type": "function"
    },
    {
      "inputs": [
        {
          "internalType": "address",
          "name": "owner_",
          "type": "address"
        }
      ],
      "name": "setOwner",
      "outputs": [],
      "stateMutability": "nonpayable",
      "type": "function"
    },
    {
      "inputs": [],
      "name": "token",
      "outputs": [
        {
          "internalType": "contract TokenLike",
          "name": "",
          "type": "address"
        }
      ],
      "stateMutability": "view",
      "type": "function"
    }
  ],
  "transactionHash": "0xc594f682c49f728f1b612b13b1507f0fd5d45633f341715dae7b5160a31dce02",
  "args": [
    "0x3C68CE8504087f89c640D02d133646d98e64ddd9",
    "WETH_Faucet",
    "10000000000000000000000"
  ],
  "solcInputHash": "8a5675ae28d4db3ae99c88e1a45b1323",
  "bytecode": "0x60806040523480156200001157600080fd5b5060405162000cc238038062000cc2833981016040819052620000349162000155565b600180546001600160a01b031916339081179091556040517fce241d7ca1f669fee44b6fc00b8eba2df3bb514eed0f6f668f8f89096e81ed9490600090a2600380546001600160a01b0319166001600160a01b0385161790558151620000a2906004906020850190620000af565b5060025550620002b19050565b828054620000bd906200025e565b90600052602060002090601f016020900481019282620000e157600085556200012c565b82601f10620000fc57805160ff19168380011785556200012c565b828001600101855582156200012c579182015b828111156200012c5782518255916020019190600101906200010f565b506200013a9291506200013e565b5090565b5b808211156200013a57600081556001016200013f565b6000806000606084860312156200016b57600080fd5b83516001600160a01b03811681146200018357600080fd5b602085810151919450906001600160401b0380821115620001a357600080fd5b818701915087601f830112620001b857600080fd5b815181811115620001cd57620001cd6200029b565b604051601f8201601f19908116603f01168101908382118183101715620001f857620001f86200029b565b816040528281528a868487010111156200021157600080fd5b600093505b8284101562000235578484018601518185018701529285019262000216565b82841115620002475760008684830101525b809750505050505050604084015190509250925092565b600181811c908216806200027357607f821691505b602082108114156200029557634e487b7160e01b600052602260045260246000fd5b50919050565b634e487b7160e01b600052604160045260246000fd5b610a0180620002c16000396000f3fe608060405234801561001057600080fd5b50600436106100c95760003560e01c80638954848511610081578063bf7e214f1161005b578063bf7e214f146101a9578063f9781be3146101c9578063fc0c546a146101dc57600080fd5b8063895484851461013a5780638da5cb5b1461015157806392ce0a8b1461019657600080fd5b80634d0392a8116100b25780634d0392a814610101578063737cf876146101145780637a9e5e4b1461012757600080fd5b806306fdde03146100ce57806313af4035146100ec575b600080fd5b6100d66101fc565b6040516100e391906108e2565b60405180910390f35b6100ff6100fa36600461085e565b61028a565b005b6100ff61010f3660046108c9565b610392565b6100ff61012236600461087b565b61039f565b6100ff61013536600461085e565b6103ad565b61014360025481565b6040519081526020016100e3565b6001546101719073ffffffffffffffffffffffffffffffffffffffff1681565b60405173ffffffffffffffffffffffffffffffffffffffff90911681526020016100e3565b6100ff6101a43660046108c9565b6104ae565b6000546101719073ffffffffffffffffffffffffffffffffffffffff1681565b6100ff6101d736600461087b565b610547565b6003546101719073ffffffffffffffffffffffffffffffffffffffff1681565b6004805461020990610955565b80601f016020809104026020016040519081016040528092919081815260200182805461023590610955565b80156102825780601f1061025757610100808354040283529160200191610282565b820191906000526020600020905b81548152906001019060200180831161026557829003601f168201915b505050505081565b6102b8336000357fffffffff000000000000000000000000000000000000000000000000000000001661066c565b610323576040517f08c379a000000000000000000000000000000000000000000000000000000000815260206004820152601460248201527f64732d617574682d756e617574686f72697a656400000000000000000000000060448201526064015b60405180910390fd5b600180547fffffffffffffffffffffffff00000000000000000000000000000000000000001673ffffffffffffffffffffffffffffffffffffffff83169081179091556040517fce241d7ca1f669fee44b6fc00b8eba2df3bb514eed0f6f668f8f89096e81ed9490600090a250565b61039c33826107be565b50565b6103a982826107be565b5050565b6103db336000357fffffffff000000000000000000000000000000000000000000000000000000001661066c565b610441576040517f08c379a000000000000000000000000000000000000000000000000000000000815260206004820152601460248201527f64732d617574682d756e617574686f72697a6564000000000000000000000000604482015260640161031a565b600080547fffffffffffffffffffffffff00000000000000000000000000000000000000001673ffffffffffffffffffffffffffffffffffffffff8316908117825560405190917f1abebea81bfa2637f28358c371278fb15ede7ea8dd28d2e03b112ff6d936ada491a250565b6104dc336000357fffffffff000000000000000000000000000000000000000000000000000000001661066c565b610542576040517f08c379a000000000000000000000000000000000000000000000000000000000815260206004820152601460248201527f64732d617574682d756e617574686f72697a6564000000000000000000000000604482015260640161031a565b600255565b610575336000357fffffffff000000000000000000000000000000000000000000000000000000001661066c565b6105db576040517f08c379a000000000000000000000000000000000000000000000000000000000815260206004820152601460248201527f64732d617574682d756e617574686f72697a6564000000000000000000000000604482015260640161031a565b6003546040517fa9059cbb00000000000000000000000000000000000000000000000000000000815273ffffffffffffffffffffffffffffffffffffffff8481166004830152602482018490529091169063a9059cbb906044015b600060405180830381600087803b15801561065057600080fd5b505af1158015610664573d6000803e3d6000fd5b505050505050565b600073ffffffffffffffffffffffffffffffffffffffff8316301415610694575060016107b8565b60015473ffffffffffffffffffffffffffffffffffffffff848116911614156106bf575060016107b8565b60005473ffffffffffffffffffffffffffffffffffffffff166106e4575060006107b8565b6000546040517fb700961300000000000000000000000000000000000000000000000000000000815273ffffffffffffffffffffffffffffffffffffffff85811660048301523060248301527fffffffff00000000000000000000000000000000000000000000000000000000851660448301529091169063b70096139060640160206040518083038186803b15801561077d57600080fd5b505afa158015610791573d6000803e3d6000fd5b505050506040513d601f19601f820116820180604052508101906107b591906108a7565b90505b92915050565b60035460025473ffffffffffffffffffffffffffffffffffffffff9091169063a9059cbb9084906107f0908590610846565b6040517fffffffff0000000000000000000000000000000000000000000000000000000060e085901b16815273ffffffffffffffffffffffffffffffffffffffff90921660048301526024820152604401610636565b60008183116108555782610857565b815b9392505050565b60006020828403121561087057600080fd5b8135610857816109a9565b6000806040838503121561088e57600080fd5b8235610899816109a9565b946020939093013593505050565b6000602082840312156108b957600080fd5b8151801515811461085757600080fd5b6000602082840312156108db57600080fd5b5035919050565b600060208083528351808285015260005b8181101561090f578581018301518582016040015282016108f3565b81811115610921576000604083870101525b50601f017fffffffffffffffffffffffffffffffffffffffffffffffffffffffffffffffe016929092016040019392505050565b600181811c9082168061096957607f821691505b602082108114156109a3577f4e487b7100000000000000000000000000000000000000000000000000000000600052602260045260246000fd5b50919050565b73ffffffffffffffffffffffffffffffffffffffff8116811461039c57600080fdfea2646970667358221220a7a0f28a17d9fa2c935c443870058e944316deeb7ec437b25042e0014484994264736f6c63430008060033",
  "devdoc": {
    "kind": "dev",
    "methods": {},
    "version": 1
  },
  "userdoc": {
    "kind": "user",
    "methods": {},
    "version": 1
  },
  "storageLayout": {
    "storage": [
      {
        "astId": 27,
        "contract": "contracts/Faucet.sol:Faucet",
        "label": "authority",
        "offset": 0,
        "slot": "0",
        "type": "t_contract(DSAuthority)13"
      },
      {
        "astId": 29,
        "contract": "contracts/Faucet.sol:Faucet",
        "label": "owner",
        "offset": 0,
        "slot": "1",
        "type": "t_address"
      },
      {
        "astId": 156,
        "contract": "contracts/Faucet.sol:Faucet",
        "label": "maxpull",
        "offset": 0,
        "slot": "2",
        "type": "t_uint256"
      },
      {
        "astId": 159,
        "contract": "contracts/Faucet.sol:Faucet",
        "label": "token",
        "offset": 0,
        "slot": "3",
        "type": "t_contract(TokenLike)152"
      },
      {
        "astId": 161,
        "contract": "contracts/Faucet.sol:Faucet",
        "label": "name",
        "offset": 0,
        "slot": "4",
        "type": "t_string_storage"
      }
    ],
    "types": {
      "t_address": {
        "encoding": "inplace",
        "label": "address",
        "numberOfBytes": "20"
      },
      "t_contract(DSAuthority)13": {
        "encoding": "inplace",
        "label": "contract DSAuthority",
        "numberOfBytes": "20"
      },
      "t_contract(TokenLike)152": {
        "encoding": "inplace",
        "label": "contract TokenLike",
        "numberOfBytes": "20"
      },
      "t_string_storage": {
        "encoding": "bytes",
        "label": "string",
        "numberOfBytes": "32"
      },
      "t_uint256": {
        "encoding": "inplace",
        "label": "uint256",
        "numberOfBytes": "32"
      }
    }
  }
}