{
  "abi": [
    {
      "inputs": [],
      "name": "admin",
      "outputs": [
        {
          "internalType": "address",
          "name": "",
          "type": "address"
        }
      ],
      "stateMutability": "view",
      "type": "function"
    },
    {
      "inputs": [
        {
          "internalType": "address",
          "name": "maker",
          "type": "address"
        }
      ],
      "name": "bind",
      "outputs": [],
      "stateMutability": "nonpayable",
      "type": "function"
    },
    {
      "inputs": [
        {
          "internalType": "contract IERC20[]",
          "name": "tokens",
          "type": "address[]"
        },
        {
          "internalType": "address",
          "name": "reserve",
          "type": "address"
        }
      ],
      "name": "flush",
      "outputs": [],
      "stateMutability": "nonpayable",
      "type": "function"
    },
    {
      "inputs": [],
      "name": "gas_overhead",
      "outputs": [
        {
          "internalType": "uint256",
          "name": "",
          "type": "uint256"
        }
      ],
      "stateMutability": "view",
      "type": "function"
    },
    {
      "inputs": [
        {
          "internalType": "address",
          "name": "",
          "type": "address"
        }
      ],
      "name": "makers",
      "outputs": [
        {
          "internalType": "bool",
          "name": "",
          "type": "bool"
        }
      ],
      "stateMutability": "view",
      "type": "function"
    },
    {
      "inputs": [
        {
          "internalType": "contract IERC20",
          "name": "token",
          "type": "address"
        },
        {
          "internalType": "address",
          "name": "reserve",
          "type": "address"
        },
        {
          "internalType": "uint256",
          "name": "amount",
          "type": "uint256"
        },
        {
          "internalType": "bool",
          "name": "strict",
          "type": "bool"
        }
      ],
      "name": "pull",
      "outputs": [
        {
          "internalType": "uint256",
          "name": "pulled",
          "type": "uint256"
        }
      ],
      "stateMutability": "nonpayable",
      "type": "function"
    },
    {
      "inputs": [
        {
          "internalType": "contract IERC20",
          "name": "token",
          "type": "address"
        },
        {
          "internalType": "address",
          "name": "reserve",
          "type": "address"
        },
        {
          "internalType": "uint256",
          "name": "amount",
          "type": "uint256"
        }
      ],
      "name": "push",
      "outputs": [],
      "stateMutability": "nonpayable",
      "type": "function"
    },
    {
      "inputs": [
        {
          "internalType": "address",
          "name": "reserve",
          "type": "address"
        }
      ],
      "name": "push_native",
      "outputs": [
        {
          "internalType": "bool",
          "name": "",
          "type": "bool"
        }
      ],
      "stateMutability": "payable",
      "type": "function"
    },
    {
      "inputs": [
        {
          "internalType": "contract IERC20",
          "name": "token",
          "type": "address"
        },
        {
          "internalType": "address",
          "name": "reserve",
          "type": "address"
        }
      ],
      "name": "reserveBalance",
      "outputs": [
        {
          "internalType": "uint256",
          "name": "",
          "type": "uint256"
        }
      ],
      "stateMutability": "view",
      "type": "function"
    },
    {
      "inputs": [
        {
          "internalType": "address",
          "name": "reserve",
          "type": "address"
        }
      ],
      "name": "reserveNativeBalance",
      "outputs": [
        {
          "internalType": "uint256",
          "name": "",
          "type": "uint256"
        }
      ],
      "stateMutability": "view",
      "type": "function"
    },
    {
      "inputs": [
        {
          "internalType": "address",
          "name": "_admin",
          "type": "address"
        }
      ],
      "name": "setAdmin",
      "outputs": [],
      "stateMutability": "nonpayable",
      "type": "function"
    },
    {
      "inputs": [
        {
          "internalType": "address",
          "name": "maker",
          "type": "address"
        }
      ],
      "name": "unbind",
      "outputs": [],
      "stateMutability": "nonpayable",
      "type": "function"
    },
    {
      "inputs": [
        {
          "internalType": "contract IERC20",
          "name": "token",
          "type": "address"
        },
        {
          "internalType": "address",
          "name": "reserve",
          "type": "address"
        },
        {
          "internalType": "address",
          "name": "recipient",
          "type": "address"
        },
        {
          "internalType": "uint256",
          "name": "amount",
          "type": "uint256"
        }
      ],
      "name": "withdrawToken",
      "outputs": [
        {
          "internalType": "bool",
          "name": "",
          "type": "bool"
        }
      ],
      "stateMutability": "nonpayable",
      "type": "function"
    }
  ],
  "bytecode": {
    "object": "0x608060405234801561001057600080fd5b5061c35033806100675760405162461bcd60e51b815260206004820152601860248201527f616363657373436f6e74726f6c6c65642f307841646d696e000000000000000060448201526064015b60405180910390fd5b8061007a6100f560201b6107a71760201c565b80546001600160a01b0319166001600160a01b03929092169190911790555062ffffff811681146100ed5760405162461bcd60e51b815260206004820152601e60248201527f4162737472616374526f757465722f6f76657268656164546f6f486967680000604482015260640161005e565b600155610119565b7f7d382ebca3e46505071795e192d28166a3d4bd0685585591bc6c5b8df6769fd290565b610cfd806101286000396000f3fe6080604052600436106100c25760003560e01c8063362aecb11161007f578063cf5e7bd311610059578063cf5e7bd31461021a578063d7c153a81461023a578063f850a81c1461024d578063f851a4401461026d57600080fd5b8063362aecb1146101aa578063704b6c02146101da57806381bac14f146101fa57600080fd5b80630417ffda146100c757806305684fde146100f057806321754d9e1461011057806326e8eda21461014057806332563bc714610162578063333dbb0d1461018a575b600080fd5b3480156100d357600080fd5b506100dd60015481565b6040519081526020015b60405180910390f35b3480156100fc57600080fd5b506100dd61010b366004610a16565b61029a565b34801561011c57600080fd5b5061013061012b366004610a4f565b610311565b60405190151581526020016100e7565b34801561014c57600080fd5b5061016061015b366004610aa0565b610360565b005b34801561016e57600080fd5b506100dd61017d366004610ae1565b6001600160a01b03163190565b34801561019657600080fd5b506100dd6101a5366004610b13565b6103a0565b3480156101b657600080fd5b506101306101c5366004610ae1565b60006020819052908152604090205460ff1681565b3480156101e657600080fd5b506101606101f5366004610ae1565b610464565b34801561020657600080fd5b50610160610215366004610ae1565b61054c565b34801561022657600080fd5b50610160610235366004610ae1565b6105c2565b610130610248366004610ae1565b610635565b34801561025957600080fd5b50610160610268366004610b66565b61066e565b34801561027957600080fd5b5061028261078e565b6040516001600160a01b0390911681526020016100e7565b6040516370a0823160e01b81526001600160a01b038281166004830152600091908416906370a0823190602401602060405180830381865afa1580156102e4573d6000803e3d6000fd5b505050506040513d601f19601f820116820180604052508101906103089190610bec565b90505b92915050565b3360009081526020819052604081205460ff166103495760405162461bcd60e51b815260040161034090610c05565b60405180910390fd5b610355858585856107cb565b90505b949350505050565b3360009081526020819052604090205460ff1661038f5760405162461bcd60e51b815260040161034090610c05565b61039b838333846107d9565b505050565b3360009081526020819052604081205460ff166103cf5760405162461bcd60e51b815260040161034090610c05565b6040516370a0823160e01b81523360048201526000906001600160a01b038716906370a0823190602401602060405180830381865afa158015610416573d6000803e3d6000fd5b505050506040513d601f19601f8201168201806040525081019061043a9190610bec565b905083811061044d576000915050610358565b61045a8686338787610831565b9695505050505050565b61046c61078e565b6001600160a01b0316336001600160a01b0316146104cc5760405162461bcd60e51b815260206004820152601860248201527f416363657373436f6e74726f6c6c65642f496e76616c696400000000000000006044820152606401610340565b6001600160a01b0381166105225760405162461bcd60e51b815260206004820152601860248201527f416363657373436f6e74726f6c6c65642f307841646d696e00000000000000006044820152606401610340565b8061052b6107a7565b80546001600160a01b0319166001600160a01b039290921691909117905550565b61055461078e565b6001600160a01b0316336001600160a01b0316148061058257503360009081526020819052604090205460ff165b61059e5760405162461bcd60e51b815260040161034090610c05565b6001600160a01b03166000908152602081905260409020805460ff19166001179055565b6105ca61078e565b6001600160a01b0316336001600160a01b031614806105f857503360009081526020819052604090205460ff165b6106145760405162461bcd60e51b815260040161034090610c05565b6001600160a01b03166000908152602081905260409020805460ff19169055565b3360009081526020819052604081205460ff166106645760405162461bcd60e51b815260040161034090610c05565b61030b8234610858565b3360009081526020819052604090205460ff1661069d5760405162461bcd60e51b815260040161034090610c05565b60005b828110156107885760008484838181106106bc576106bc610c32565b90506020020160208101906106d19190610ae1565b6040516370a0823160e01b81523360048201526001600160a01b0391909116906370a0823190602401602060405180830381865afa158015610717573d6000803e3d6000fd5b505050506040513d601f19601f8201168201806040525081019061073b9190610bec565b905080156107755761077585858481811061075857610758610c32565b905060200201602081019061076d9190610ae1565b8433846107d9565b508061078081610c48565b9150506106a0565b50505050565b60006107986107a7565b546001600160a01b0316919050565b7f7d382ebca3e46505071795e192d28166a3d4bd0685585591bc6c5b8df6769fd290565b6000610355858585856108f6565b6107e5848385846108f6565b6107885760405162461bcd60e51b815260206004820152601e60248201527f53696d706c65526f757465722f707573682f7472616e736665724661696c00006044820152606401610340565b600061083f868686866108f6565b1561084b57508161084f565b5060005b95945050505050565b6000826001600160a01b03168260405160006040518083038185875af1925050503d80600081146108a5576040519150601f19603f3d011682016040523d82523d6000602084013e6108aa565b606091505b5050809150508061030b5760405162461bcd60e51b81526020600482015260166024820152751b59dd93dc99195c8bdb5bcbdc99599d5b9911985a5b60521b6044820152606401610340565b60008115806109165750826001600160a01b0316846001600160a01b0316145b1561092357506001610358565b604080516001600160a01b0386811660248301528581166044830152606480830186905283518084039091018152608490920183526020820180516001600160e01b03166323b872dd60e01b17905291516000928392908916916109879190610c6f565b6000604051808303816000865af19150503d80600081146109c4576040519150601f19603f3d011682016040523d82523d6000602084013e6109c9565b606091505b50915091508180156109f35750805115806109f35750808060200190518101906109f39190610caa565b979650505050505050565b6001600160a01b0381168114610a1357600080fd5b50565b60008060408385031215610a2957600080fd5b8235610a34816109fe565b91506020830135610a44816109fe565b809150509250929050565b60008060008060808587031215610a6557600080fd5b8435610a70816109fe565b93506020850135610a80816109fe565b92506040850135610a90816109fe565b9396929550929360600135925050565b600080600060608486031215610ab557600080fd5b8335610ac0816109fe565b92506020840135610ad0816109fe565b929592945050506040919091013590565b600060208284031215610af357600080fd5b8135610afe816109fe565b9392505050565b8015158114610a1357600080fd5b60008060008060808587031215610b2957600080fd5b8435610b34816109fe565b93506020850135610b44816109fe565b9250604085013591506060850135610b5b81610b05565b939692955090935050565b600080600060408486031215610b7b57600080fd5b833567ffffffffffffffff80821115610b9357600080fd5b818601915086601f830112610ba757600080fd5b813581811115610bb657600080fd5b8760208260051b8501011115610bcb57600080fd5b60209283019550935050840135610be1816109fe565b809150509250925092565b600060208284031215610bfe57600080fd5b5051919050565b602080825260139082015272149bdd5d195c8bdd5b985d5d1a1bdc9a5e9959606a1b604082015260600190565b634e487b7160e01b600052603260045260246000fd5b600060018201610c6857634e487b7160e01b600052601160045260246000fd5b5060010190565b6000825160005b81811015610c905760208186018101518583015201610c76565b81811115610c9f576000828501525b509190910192915050565b600060208284031215610cbc57600080fd5b8151610afe81610b0556fea264697066735822122032abe7da40276151732235ff38bf2bb6331c01855dd914247ffec73ec2807d6264736f6c634300080e0033",
    "linkReferences": {}
  },
  "methodIdentifiers": {
    "admin()": "f851a440",
    "bind(address)": "81bac14f",
    "flush(address[],address)": "f850a81c",
    "gas_overhead()": "0417ffda",
    "makers(address)": "362aecb1",
    "pull(address,address,uint256,bool)": "333dbb0d",
    "push(address,address,uint256)": "26e8eda2",
    "push_native(address)": "d7c153a8",
    "reserveBalance(address,address)": "05684fde",
    "reserveNativeBalance(address)": "32563bc7",
    "setAdmin(address)": "704b6c02",
    "unbind(address)": "cf5e7bd3",
    "withdrawToken(address,address,address,uint256)": "21754d9e"
  },
  "id": 39
}