{
  "abi": [
    {
      "inputs": [
        {
          "internalType": "contract AbstractMangrove",
          "name": "_mgv",
          "type": "address"
        },
        {
          "internalType": "address",
          "name": "_base",
          "type": "address"
        },
        {
          "internalType": "address",
          "name": "_quote",
          "type": "address"
        }
      ],
      "stateMutability": "nonpayable",
      "type": "constructor"
    },
    {
      "inputs": [
        {
          "internalType": "uint256",
          "name": "k",
          "type": "uint256"
        }
      ],
      "name": "deploy",
      "outputs": [],
      "stateMutability": "nonpayable",
      "type": "function"
    },
    {
      "inputs": [],
      "name": "dispatch",
      "outputs": [],
      "stateMutability": "nonpayable",
      "type": "function"
    },
    {
      "inputs": [
        {
          "internalType": "uint256",
          "name": "i",
          "type": "uint256"
        }
      ],
      "name": "getMaker",
      "outputs": [
        {
          "internalType": "contract TestMaker",
          "name": "",
          "type": "address"
        }
      ],
      "stateMutability": "view",
      "type": "function"
    },
    {
      "inputs": [],
      "name": "length",
      "outputs": [
        {
          "internalType": "uint256",
          "name": "",
          "type": "uint256"
        }
      ],
      "stateMutability": "view",
      "type": "function"
    }
  ],
  "bytecode": {
    "object": "0x608060405234801561001057600080fd5b5060405161206d38038061206d83398101604081905261002f91610092565b600180546001600160a01b0394851661010002610100600160a81b0319909116179055600280549284166001600160a01b0319938416179055600380549190931691161790556100df565b6001600160a01b038116811461008f57600080fd5b50565b6000806000606084860312156100a757600080fd5b83516100b28161007a565b60208501519093506100c38161007a565b60408501519092506100d48161007a565b809150509250925092565b611f7f806100ee6000396000f3fe608060405234801561001057600080fd5b506004361061004c5760003560e01c80631f7b6d32146100515780635686153214610067578063a5e3875114610092578063e9c4a3ac146100a7575b600080fd5b6000546040519081526020015b60405180910390f35b61007a61007536600461047a565b6100af565b6040516001600160a01b03909116815260200161005e565b6100a56100a036600461047a565b6100de565b005b6100a5610320565b60008082815481106100c3576100c3610493565b6000918252602090912001546001600160a01b031692915050565b60015460ff16610311578067ffffffffffffffff811115610101576101016104a9565b60405190808252806020026020018201604052801561012a578160200160208202803683370190505b50805161013f916000916020909101906103f3565b5060005b8181101561030f576001546002546003546040516101009093046001600160a01b03908116939281169291169061017990610458565b6001600160a01b03938416815291831660208301529091166040820152606001604051809103906000f0801580156101b5573d6000803e3d6000fd5b50600082815481106101c9576101c9610493565b9060005260206000200160006101000a8154816001600160a01b0302191690836001600160a01b031602179055506000818154811061020a5761020a610493565b60009182526020909120015460025460405163a3cfe14d60e01b81526001600160a01b039182166004820152678ac7230489e80000602482015291169063a3cfe14d90604401600060405180830381600087803b15801561026a57600080fd5b505af115801561027e573d6000803e3d6000fd5b505050506000818154811061029557610295610493565b600091825260209091200154604051635239cafb60e11b8152821560048201526001600160a01b039091169063a47395f690602401600060405180830381600087803b1580156102e457600080fd5b505af11580156102f8573d6000803e3d6000fd5b505050508080610307906104bf565b915050610143565b505b506001805460ff191681179055565b600080549061032f82476104e6565b90506000811161037b5760405162461bcd60e51b8152602060048201526013602482015272181032ba3432b9103a37903a3930b739b332b960691b604482015260640160405180910390fd5b60005b828110156103ee57600080828154811061039a5761039a610493565b60009182526020822001546040516001600160a01b039091169250829085156108fc0290869084818181858888f193505050509050806103d957600080fd5b505080806103e6906104bf565b91505061037e565b505050565b828054828255906000526020600020908101928215610448579160200282015b8281111561044857825182546001600160a01b0319166001600160a01b03909116178255602090920191600190910190610413565b50610454929150610465565b5090565b611a418061050983390190565b5b808211156104545760008155600101610466565b60006020828403121561048c57600080fd5b5035919050565b634e487b7160e01b600052603260045260246000fd5b634e487b7160e01b600052604160045260246000fd5b6000600182016104df57634e487b7160e01b600052601160045260246000fd5b5060010190565b60008261050357634e487b7160e01b600052601260045260246000fd5b50049056fe60806040526004805463ff00ff00191663010001001790553480156200002457600080fd5b5060405162001a4138038062001a418339810160408190526200004791620000a3565b600080546001600160a01b039485166001600160a01b031991821617909155600180549385169382169390931790925560028054919093169116179055620000f7565b6001600160a01b0381168114620000a057600080fd5b50565b600080600060608486031215620000b957600080fd5b8351620000c6816200008a565b6020850151909350620000d9816200008a565b6040850151909250620000ec816200008a565b809150509250925092565b61193a80620001076000396000f3fe6080604052600436106101bb5760003560e01c8063ba414fa6116100ec578063e923c6511161008a578063fa7626d411610064578063fa7626d414610550578063fc3816c81461056f578063fc8349f21461058f578063ffae399e146105af57600080fd5b8063e923c651146104ef578063f5537ede1461050f578063f8ccbf471461052f57600080fd5b8063ccfbf94d116100c6578063ccfbf94d1461046f578063cda30c3b1461048f578063d3845fea146104af578063e67ecda1146104cf57600080fd5b8063ba414fa61461040a578063c4c6c87d1461042f578063cafffca81461044f57600080fd5b80635a4924e8116101595780637ec95ff3116101335780637ec95ff31461037c5780638b0af9bb1461039c578063a3cfe14d146103b1578063a47395f6146103d157600080fd5b80635a4924e8146102f55780636c49c32c146103235780637a943a371461034357600080fd5b80633a768463116101955780633a768463146102295780633d3d130d1461026e57806353e575ac1461028e578063557f49c3146102bc57600080fd5b80630cc9d656146101c75780632644c05c146101e957806333ac5efd1461020957600080fd5b366101c257005b600080fd5b3480156101d357600080fd5b506101e76101e236600461142d565b6105e8565b005b3480156101f557600080fd5b506101e7610204366004611492565b610631565b34801561021557600080fd5b506101e76102243660046114cd565b6106af565b34801561023557600080fd5b50610251737109709ecfa91a80626ff3989d68f67f5b1dd12d81565b6040516001600160a01b0390911681526020015b60405180910390f35b34801561027a57600080fd5b506101e7610289366004611529565b610731565b34801561029a57600080fd5b506102ae6102a9366004611492565b61078d565b604051908152602001610265565b3480156102c857600080fd5b506101e76102d736600461157a565b60028054911515600160a81b0260ff60a81b19909216919091179055565b34801561030157600080fd5b506101e761031036600461157a565b6004805460ff1916911515919091179055565b34801561032f57600080fd5b506102ae61033e36600461159e565b610821565b34801561034f57600080fd5b506101e761035e36600461157a565b60028054911515600160b81b0260ff60b81b19909216919091179055565b34801561038857600080fd5b506102ae6103973660046114cd565b610988565b3480156103a857600080fd5b506102ae610a1d565b3480156103bd57600080fd5b506101e76103cc3660046115bb565b610a8f565b3480156103dd57600080fd5b506101e76103ec36600461157a565b60028054911515600160a01b0260ff60a01b19909216919091179055565b34801561041657600080fd5b5061041f610b0b565b6040519015158152602001610265565b34801561043b57600080fd5b506102ae61044a3660046115e7565b610c3a565b34801561045b57600080fd5b506102ae61046a3660046115e7565b610ccd565b34801561047b57600080fd5b506102ae61048a366004611600565b610d1e565b34801561049b57600080fd5b506102ae6104aa366004611659565b610d9e565b3480156104bb57600080fd5b506101e76104ca3660046115e7565b610e30565b3480156104db57600080fd5b506101e76104ea3660046115e7565b600355565b3480156104fb57600080fd5b506102ae61050a366004611492565b610e92565b34801561051b57600080fd5b506101e761052a36600461168b565b610f1b565b34801561053b57600080fd5b5060045461041f906301000000900460ff1681565b34801561055c57600080fd5b5060045461041f90610100900460ff1681565b34801561057b57600080fd5b506102ae61058a3660046116cc565b610f94565b34801561059b57600080fd5b5061041f6105aa3660046115e7565b611022565b3480156105bb57600080fd5b506101e76105ca36600461157a565b60028054911515600160b01b0260ff60b01b19909216919091179055565b7f1d40f406e1d1d9e4f71d0e95a7eaf3dc4b8636e5fa6479de475eaebd4f15c0c28686868686866040516106219695949392919061172e565b60405180910390a1505050505050565b60008054600154600254604051636a4f769160e01b81526001600160a01b0393841694636a4f7691946106769481169316918b918b918b91908b908b90600401611767565b600060405180830381600087803b15801561069057600080fd5b505af11580156106a4573d6000803e3d6000fd5b505050505050505050565b60008054600154600254604051636a4f769160e01b81526001600160a01b0393841694636a4f76919487946106f794908216939116918d918d918d918d908d90600401611767565b6000604051808303818588803b15801561071057600080fd5b505af1158015610724573d6000803e3d6000fd5b5050505050505050505050565b6003541561077f5761077f81602001356003546040518060400160405280601881526020017f496e636f727265637420737461747573206d6573736167650000000000000000815250611092565b61078982826110da565b5050565b6000805460015460025460405163127db4b760e21b81526001600160a01b03938416936349f6d2dc9387936107d4939183169216908c908c908c908a908d906004016117ab565b60206040518083038185885af11580156107f2573d6000803e3d6000fd5b50505050506040513d601f19601f8201168201806040525081019061081791906117e9565b9695505050505050565b600254600090600160b01b900460ff161561085c576040805160208082019092526f1d195cdd13585ad95c8bdc995d995c9d60821b81529081fd5b7f1d40f406e1d1d9e4f71d0e95a7eaf3dc4b8636e5fa6479de475eaebd4f15c0c23361088b6020850185611802565b61089b6040860160208701611802565b856040013586608001358760a001356040516108bc9695949392919061172e565b60405180910390a1600254600160a01b900460ff161561095f576108e36020830183611802565b6000805460405163095ea7b360e01b81526001600160a01b0391821660048201526024810192909252919091169063095ea7b3906044016020604051808303816000875af1158015610939573d6000803e3d6000fd5b505050506040513d601f19601f8201168201806040525081019061095d919061181f565b505b600254600160a81b900460ff161561098057506418589bdc9d60da1b919050565b506000919050565b6000805460015460025460405163127db4b760e21b81526001600160a01b03938416936349f6d2dc9387936109cf939183169216908d908d908d908d908d906004016117ab565b60206040518083038185885af11580156109ed573d6000803e3d6000fd5b50505050506040513d601f19601f82011682018060405250810190610a1291906117e9565b979650505050505050565b600080546040516370a0823160e01b81523060048201526001600160a01b03909116906370a0823190602401602060405180830381865afa158015610a66573d6000803e3d6000fd5b505050506040513d601f19601f82011682018060405250810190610a8a91906117e9565b905090565b60005460405163095ea7b360e01b81526001600160a01b039182166004820152602481018390529083169063095ea7b3906044016020604051808303816000875af1158015610ae2573d6000803e3d6000fd5b505050506040513d601f19601f82011682018060405250810190610b06919061181f565b505050565b60045460009062010000900460ff1615610b2f575060045462010000900460ff1690565b6000737109709ecfa91a80626ff3989d68f67f5b1dd12d3b15610c355760408051737109709ecfa91a80626ff3989d68f67f5b1dd12d602082018190526519985a5b195960d21b82840152825180830384018152606083019093526000929091610bbd917f667f9d70ca411d70ead50d8d5c22070dafc36ad75f3dcf5e7237b22ade9aecc491608001611868565b60408051601f1981840301815290829052610bd791611899565b6000604051808303816000865af19150503d8060008114610c14576040519150601f19603f3d011682016040523d82523d6000602084013e610c19565b606091505b5091505080806020019051810190610c31919061181f565b9150505b919050565b6000805460015460025460405163ad97db1b60e01b81526001600160a01b0392831660048201529082166024820152604481018590526064810184905291169063ad97db1b906084015b6020604051808303816000875af1158015610ca3573d6000803e3d6000fd5b505050506040513d601f19601f82011682018060405250810190610cc791906117e9565b92915050565b600080546001805460025460405163ad97db1b60e01b81526001600160a01b03928316600482015290821660248201526044810186905260648101929092529091169063ad97db1b90608401610c84565b6000805460405163127db4b760e21b81526001600160a01b03909116906349f6d2dc90610d5b908a908a908a908a908a9089908b906004016117ab565b6020604051808303816000875af1158015610d7a573d6000803e3d6000fd5b505050506040513d601f19601f82011682018060405250810190610a1291906117e9565b6000805460015460025460405163127db4b760e21b81526001600160a01b03938416936349f6d2dc93610de493908216929116908a908a908a9089908b906004016117ab565b6020604051808303816000875af1158015610e03573d6000803e3d6000fd5b505050506040513d601f19601f82011682018060405250810190610e2791906117e9565b95945050505050565b600054604051630460488160e31b81523060048201526001600160a01b039091169063230244089083906024016000604051808303818588803b158015610e7657600080fd5b505af1158015610e8a573d6000803e3d6000fd5b505050505050565b6000805460015460025460405163127db4b760e21b81526001600160a01b03938416936349f6d2dc93610ed893908216929116908b908b908b908b908b906004016117ab565b6020604051808303816000875af1158015610ef7573d6000803e3d6000fd5b505050506040513d601f19601f8201168201806040525081019061081791906117e9565b60405163a9059cbb60e01b81526001600160a01b0383811660048301526024820183905284169063a9059cbb906044016020604051808303816000875af1158015610f6a573d6000803e3d6000fd5b505050506040513d601f19601f82011682018060405250810190610f8e919061181f565b50505050565b6000805460405163127db4b760e21b81526001600160a01b03909116906349f6d2dc908490610fd3908c908c908c908c908c908a908d906004016117ab565b60206040518083038185885af1158015610ff1573d6000803e3d6000fd5b50505050506040513d601f19601f8201168201806040525081019061101691906117e9565b98975050505050505050565b60008054604051632e1a7d4d60e01b8152600481018490526001600160a01b0390911690632e1a7d4d906024016020604051808303816000875af115801561106e573d6000803e3d6000fd5b505050506040513d601f19601f82011682018060405250810190610cc7919061181f565b818314610b06577f280f4446b28a1372417dda658d30b95b2992b12ac9c7f378535f29a97acf3583816040516110c891906118b5565b60405180910390a1610b0683836111e2565b60045460ff16156111205760405162461bcd60e51b815260206004820152600c60248201526b1c1bdcdd1a1bdbdad1985a5b60a21b604482015260640160405180910390fd5b600254600160b81b900460ff1615610789576000546001600160a01b0316636a4f76916111506020850185611802565b6111606040860160208701611802565b606080870135901c6bffffffffffffffffffffffff166bffffffffffffffffffffffff60608801351660c088013560481c62ffffff16600060608a013560e01c8a604001356040518963ffffffff1660e01b81526004016111c8989796959493929190611767565b600060405180830381600087803b158015610e7657600080fd5b808214610789577f41304facd9323d75b11bcdd609cb38effffdb05710f7caf0e9b16c6d9d709f506040516112569060208082526025908201527f4572726f723a2061203d3d2062206e6f7420736174697366696564205b627974604082015264657333325d60d81b606082015260800190565b60405180910390a160408051818152600a81830152690808115e1c1958dd195960b21b60608201526020810183905290517fafb795c9c61e4fe7468c386f925d7a5429ecad9c0495ddb8d38d690614d32f999181900360800190a160408051818152600a8183015269080808081058dd1d585b60b21b60608201526020810184905290517fafb795c9c61e4fe7468c386f925d7a5429ecad9c0495ddb8d38d690614d32f999181900360800190a1610789737109709ecfa91a80626ff3989d68f67f5b1dd12d3b156114025760408051737109709ecfa91a80626ff3989d68f67f5b1dd12d602082018190526519985a5b195960d21b9282019290925260016060820152600091907f70ca10bbd0dbfd9020a9f4b13402c16cb120705e0d1c0aeab10fa353ae586fc49060800160408051601f19818403018152908290526113a19291602001611868565b60408051601f19818403018152908290526113bb91611899565b6000604051808303816000865af19150503d80600081146113f8576040519150601f19603f3d011682016040523d82523d6000602084013e6113fd565b606091505b505050505b6004805462ff0000191662010000179055565b6001600160a01b038116811461142a57600080fd5b50565b60008060008060008060c0878903121561144657600080fd5b863561145181611415565b9550602087013561146181611415565b9450604087013561147181611415565b959894975094956060810135955060808101359460a0909101359350915050565b600080600080600060a086880312156114aa57600080fd5b505083359560208501359550604085013594606081013594506080013592509050565b60008060008060008060c087890312156114e657600080fd5b505084359660208601359650604086013595606081013595506080810135945060a0013592509050565b6000610120828403121561152357600080fd5b50919050565b60008082840361016081121561153e57600080fd5b6115488585611510565b9250604061011f198201121561155d57600080fd5b50610120830190509250929050565b801515811461142a57600080fd5b60006020828403121561158c57600080fd5b81356115978161156c565b9392505050565b600061012082840312156115b157600080fd5b6115978383611510565b600080604083850312156115ce57600080fd5b82356115d981611415565b946020939093013593505050565b6000602082840312156115f957600080fd5b5035919050565b60008060008060008060c0878903121561161957600080fd5b863561162481611415565b9550602087013561163481611415565b95989597505050506040840135936060810135936080820135935060a0909101359150565b6000806000806080858703121561166f57600080fd5b5050823594602084013594506040840135936060013592509050565b6000806000606084860312156116a057600080fd5b83356116ab81611415565b925060208401356116bb81611415565b929592945050506040919091013590565b600080600080600080600060e0888a0312156116e757600080fd5b87356116f281611415565b9650602088013561170281611415565b96999698505050506040850135946060810135946080820135945060a0820135935060c0909101359150565b6001600160a01b03968716815294861660208601529290941660408401526060830152608082019290925260a081019190915260c00190565b6001600160a01b03988916815296909716602087015260408601949094526060850192909252608084015260a083015260c082015260e08101919091526101000190565b6001600160a01b03978816815295909616602086015260408501939093526060840191909152608083015260a082015260c081019190915260e00190565b6000602082840312156117fb57600080fd5b5051919050565b60006020828403121561181457600080fd5b813561159781611415565b60006020828403121561183157600080fd5b81516115978161156c565b60005b8381101561185757818101518382015260200161183f565b83811115610f8e5750506000910152565b6001600160e01b031983168152815160009061188b81600485016020870161183c565b919091016004019392505050565b600082516118ab81846020870161183c565b9190910192915050565b60408152600560408201526422b93937b960d91b606082015260806020820152600082518060808401526118f08160a085016020870161183c565b601f01601f19169190910160a0019291505056fea2646970667358221220363d825a62e7711a222b729367aea22c71c496027732c66afce572665829ed6264736f6c634300080e0033a2646970667358221220bc7d9d438cd5627bd00d066b2f3b1acd90318af6a7a9515bd2a5d7aaffa9dcd064736f6c634300080e0033",
    "linkReferences": {}
  },
  "methodIdentifiers": {
    "deploy(uint256)": "a5e38751",
    "dispatch()": "e9c4a3ac",
    "getMaker(uint256)": "56861532",
    "length()": "1f7b6d32"
  },
  "id": 102
}