{
  "_format": "hh-sol-artifact-1",
  "contractName": "MangroveOrderEnriched",
  "sourceName": "contracts/Strategies/OrderLogics/MangroveOrderEnriched.sol",
  "abi": [
    {
      "inputs": [
        {
          "internalType": "contract IMangrove",
          "name": "_MGV",
          "type": "address"
        },
        {
          "internalType": "address",
          "name": "admin",
          "type": "address"
        }
      ],
      "stateMutability": "nonpayable",
      "type": "constructor"
    },
    {
      "anonymous": false,
      "inputs": [
        {
          "indexed": true,
          "internalType": "address",
          "name": "user",
          "type": "address"
        },
        {
          "indexed": false,
          "internalType": "uint256",
          "name": "amount",
          "type": "uint256"
        }
      ],
      "name": "CreditMgvUser",
      "type": "event"
    },
    {
      "anonymous": false,
      "inputs": [
        {
          "indexed": true,
          "internalType": "address",
          "name": "user",
          "type": "address"
        },
        {
          "indexed": true,
          "internalType": "contract IEIP20",
          "name": "token",
          "type": "address"
        },
        {
          "indexed": false,
          "internalType": "uint256",
          "name": "amount",
          "type": "uint256"
        }
      ],
      "name": "CreditUserTokenBalance",
      "type": "event"
    },
    {
      "anonymous": false,
      "inputs": [
        {
          "indexed": true,
          "internalType": "address",
          "name": "user",
          "type": "address"
        },
        {
          "indexed": false,
          "internalType": "uint256",
          "name": "amount",
          "type": "uint256"
        }
      ],
      "name": "DebitMgvUser",
      "type": "event"
    },
    {
      "anonymous": false,
      "inputs": [
        {
          "indexed": true,
          "internalType": "address",
          "name": "user",
          "type": "address"
        },
        {
          "indexed": true,
          "internalType": "contract IEIP20",
          "name": "token",
          "type": "address"
        },
        {
          "indexed": false,
          "internalType": "uint256",
          "name": "amount",
          "type": "uint256"
        }
      ],
      "name": "DebitUserTokenBalance",
      "type": "event"
    },
    {
      "anonymous": false,
      "inputs": [
        {
          "indexed": true,
          "internalType": "contract IEIP20",
          "name": "outbound_tkn",
          "type": "address"
        },
        {
          "indexed": true,
          "internalType": "contract IEIP20",
          "name": "inbound_tkn",
          "type": "address"
        },
        {
          "indexed": true,
          "internalType": "uint256",
          "name": "offerId",
          "type": "uint256"
        },
        {
          "indexed": false,
          "internalType": "bytes32",
          "name": "reason",
          "type": "bytes32"
        }
      ],
      "name": "LogIncident",
      "type": "event"
    },
    {
      "anonymous": false,
      "inputs": [
        {
          "indexed": true,
          "internalType": "contract IEIP20",
          "name": "outbound_tkn",
          "type": "address"
        },
        {
          "indexed": true,
          "internalType": "contract IEIP20",
          "name": "inbound_tkn",
          "type": "address"
        },
        {
          "indexed": true,
          "internalType": "uint256",
          "name": "offerId",
          "type": "uint256"
        },
        {
          "indexed": false,
          "internalType": "address",
          "name": "owner",
          "type": "address"
        }
      ],
      "name": "NewOwnedOffer",
      "type": "event"
    },
    {
      "anonymous": false,
      "inputs": [
        {
          "indexed": true,
          "internalType": "contract IEIP20",
          "name": "base",
          "type": "address"
        },
        {
          "indexed": true,
          "internalType": "contract IEIP20",
          "name": "quote",
          "type": "address"
        },
        {
          "indexed": true,
          "internalType": "address",
          "name": "taker",
          "type": "address"
        },
        {
          "indexed": false,
          "internalType": "bool",
          "name": "selling",
          "type": "bool"
        },
        {
          "indexed": false,
          "internalType": "uint256",
          "name": "takerGot",
          "type": "uint256"
        },
        {
          "indexed": false,
          "internalType": "uint256",
          "name": "takerGave",
          "type": "uint256"
        },
        {
          "indexed": false,
          "internalType": "uint256",
          "name": "penalty",
          "type": "uint256"
        },
        {
          "indexed": false,
          "internalType": "uint256",
          "name": "restingOrderId",
          "type": "uint256"
        }
      ],
      "name": "OrderSummary",
      "type": "event"
    },
    {
      "inputs": [],
      "name": "MGV",
      "outputs": [
        {
          "internalType": "contract IMangrove",
          "name": "",
          "type": "address"
        }
      ],
      "stateMutability": "view",
      "type": "function"
    },
    {
      "inputs": [],
      "name": "OFR_GASREQ",
      "outputs": [
        {
          "internalType": "uint256",
          "name": "",
          "type": "uint256"
        }
      ],
      "stateMutability": "view",
      "type": "function"
    },
    {
      "inputs": [],
      "name": "admin",
      "outputs": [
        {
          "internalType": "address",
          "name": "",
          "type": "address"
        }
      ],
      "stateMutability": "view",
      "type": "function"
    },
    {
      "inputs": [
        {
          "internalType": "contract IEIP20",
          "name": "outbound_tkn",
          "type": "address"
        },
        {
          "internalType": "uint256",
          "name": "amount",
          "type": "uint256"
        }
      ],
      "name": "approveMangrove",
      "outputs": [],
      "stateMutability": "nonpayable",
      "type": "function"
    },
    {
      "inputs": [
        {
          "internalType": "address",
          "name": "owner",
          "type": "address"
        }
      ],
      "name": "balanceOnMangrove",
      "outputs": [
        {
          "internalType": "uint256",
          "name": "",
          "type": "uint256"
        }
      ],
      "stateMutability": "view",
      "type": "function"
    },
    {
      "inputs": [
        {
          "internalType": "contract IEIP20",
          "name": "token",
          "type": "address"
        },
        {
          "internalType": "uint256",
          "name": "amount",
          "type": "uint256"
        }
      ],
      "name": "depositToken",
      "outputs": [
        {
          "internalType": "bool",
          "name": "success",
          "type": "bool"
        }
      ],
      "stateMutability": "nonpayable",
      "type": "function"
    },
    {
      "inputs": [
        {
          "internalType": "contract IEIP20",
          "name": "",
          "type": "address"
        },
        {
          "internalType": "contract IEIP20",
          "name": "",
          "type": "address"
        },
        {
          "internalType": "uint256",
          "name": "",
          "type": "uint256"
        }
      ],
      "name": "expiring",
      "outputs": [
        {
          "internalType": "uint256",
          "name": "",
          "type": "uint256"
        }
      ],
      "stateMutability": "view",
      "type": "function"
    },
    {
      "inputs": [],
      "name": "fundMangrove",
      "outputs": [],
      "stateMutability": "payable",
      "type": "function"
    },
    {
      "inputs": [
        {
          "internalType": "contract IEIP20",
          "name": "outbound_tkn",
          "type": "address"
        },
        {
          "internalType": "contract IEIP20",
          "name": "inbound_tkn",
          "type": "address"
        },
        {
          "internalType": "uint256",
          "name": "gasreq",
          "type": "uint256"
        },
        {
          "internalType": "uint256",
          "name": "gasprice",
          "type": "uint256"
        },
        {
          "internalType": "uint256",
          "name": "offerId",
          "type": "uint256"
        }
      ],
      "name": "getMissingProvision",
      "outputs": [
        {
          "internalType": "uint256",
          "name": "",
          "type": "uint256"
        }
      ],
      "stateMutability": "view",
      "type": "function"
    },
    {
      "inputs": [
        {
          "components": [
            {
              "internalType": "address",
              "name": "outbound_tkn",
              "type": "address"
            },
            {
              "internalType": "address",
              "name": "inbound_tkn",
              "type": "address"
            },
            {
              "internalType": "uint256",
              "name": "offerId",
              "type": "uint256"
            },
            {
              "internalType": "Offer.t",
              "name": "offer",
              "type": "uint256"
            },
            {
              "internalType": "uint256",
              "name": "wants",
              "type": "uint256"
            },
            {
              "internalType": "uint256",
              "name": "gives",
              "type": "uint256"
            },
            {
              "internalType": "OfferDetail.t",
              "name": "offerDetail",
              "type": "uint256"
            },
            {
              "internalType": "Global.t",
              "name": "global",
              "type": "uint256"
            },
            {
              "internalType": "Local.t",
              "name": "local",
              "type": "uint256"
            }
          ],
          "internalType": "struct MgvLib.SingleOrder",
          "name": "order",
          "type": "tuple"
        }
      ],
      "name": "makerExecute",
      "outputs": [
        {
          "internalType": "bytes32",
          "name": "ret",
          "type": "bytes32"
        }
      ],
      "stateMutability": "nonpayable",
      "type": "function"
    },
    {
      "inputs": [
        {
          "components": [
            {
              "internalType": "address",
              "name": "outbound_tkn",
              "type": "address"
            },
            {
              "internalType": "address",
              "name": "inbound_tkn",
              "type": "address"
            },
            {
              "internalType": "uint256",
              "name": "offerId",
              "type": "uint256"
            },
            {
              "internalType": "Offer.t",
              "name": "offer",
              "type": "uint256"
            },
            {
              "internalType": "uint256",
              "name": "wants",
              "type": "uint256"
            },
            {
              "internalType": "uint256",
              "name": "gives",
              "type": "uint256"
            },
            {
              "internalType": "OfferDetail.t",
              "name": "offerDetail",
              "type": "uint256"
            },
            {
              "internalType": "Global.t",
              "name": "global",
              "type": "uint256"
            },
            {
              "internalType": "Local.t",
              "name": "local",
              "type": "uint256"
            }
          ],
          "internalType": "struct MgvLib.SingleOrder",
          "name": "order",
          "type": "tuple"
        },
        {
          "components": [
            {
              "internalType": "bytes32",
              "name": "makerData",
              "type": "bytes32"
            },
            {
              "internalType": "bytes32",
              "name": "mgvData",
              "type": "bytes32"
            }
          ],
          "internalType": "struct MgvLib.OrderResult",
          "name": "result",
          "type": "tuple"
        }
      ],
      "name": "makerPosthook",
      "outputs": [],
      "stateMutability": "nonpayable",
      "type": "function"
    },
    {
      "inputs": [
        {
          "internalType": "address",
          "name": "",
          "type": "address"
        }
      ],
      "name": "mgvBalance",
      "outputs": [
        {
          "internalType": "uint256",
          "name": "",
          "type": "uint256"
        }
      ],
      "stateMutability": "view",
      "type": "function"
    },
    {
      "inputs": [
        {
          "components": [
            {
              "internalType": "contract IEIP20",
              "name": "outbound_tkn",
              "type": "address"
            },
            {
              "internalType": "contract IEIP20",
              "name": "inbound_tkn",
              "type": "address"
            },
            {
              "internalType": "uint256",
              "name": "wants",
              "type": "uint256"
            },
            {
              "internalType": "uint256",
              "name": "gives",
              "type": "uint256"
            },
            {
              "internalType": "uint256",
              "name": "gasreq",
              "type": "uint256"
            },
            {
              "internalType": "uint256",
              "name": "gasprice",
              "type": "uint256"
            },
            {
              "internalType": "uint256",
              "name": "pivotId",
              "type": "uint256"
            }
          ],
          "internalType": "struct IOfferLogic.MakerOrder",
          "name": "mko",
          "type": "tuple"
        }
      ],
      "name": "newOffer",
      "outputs": [
        {
          "internalType": "uint256",
          "name": "offerId",
          "type": "uint256"
        }
      ],
      "stateMutability": "payable",
      "type": "function"
    },
    {
      "inputs": [
        {
          "internalType": "contract IEIP20",
          "name": "outbound_tkn",
          "type": "address"
        },
        {
          "internalType": "contract IEIP20",
          "name": "inbound_tkn",
          "type": "address"
        },
        {
          "internalType": "uint256[]",
          "name": "offerIds",
          "type": "uint256[]"
        }
      ],
      "name": "offerOwners",
      "outputs": [
        {
          "internalType": "address[]",
          "name": "__offerOwners",
          "type": "address[]"
        }
      ],
      "stateMutability": "view",
      "type": "function"
    },
    {
      "inputs": [
        {
          "internalType": "address",
          "name": "owner",
          "type": "address"
        },
        {
          "internalType": "contract IEIP20",
          "name": "outbound_tkn",
          "type": "address"
        },
        {
          "internalType": "contract IEIP20",
          "name": "inbound_tkn",
          "type": "address"
        }
      ],
      "name": "offersOfOwner",
      "outputs": [
        {
          "internalType": "uint256[]",
          "name": "live",
          "type": "uint256[]"
        },
        {
          "internalType": "uint256[]",
          "name": "dead",
          "type": "uint256[]"
        }
      ],
      "stateMutability": "view",
      "type": "function"
    },
    {
      "inputs": [
        {
          "internalType": "contract IEIP20",
          "name": "outbound_tkn",
          "type": "address"
        },
        {
          "internalType": "contract IEIP20",
          "name": "inbound_tkn",
          "type": "address"
        },
        {
          "internalType": "uint256",
          "name": "offerId",
          "type": "uint256"
        }
      ],
      "name": "ownerOf",
      "outputs": [
        {
          "internalType": "address",
          "name": "owner",
          "type": "address"
        }
      ],
      "stateMutability": "view",
      "type": "function"
    },
    {
      "inputs": [
        {
          "internalType": "contract IEIP20",
          "name": "outbound_tkn",
          "type": "address"
        },
        {
          "internalType": "contract IEIP20",
          "name": "inbound_tkn",
          "type": "address"
        },
        {
          "internalType": "uint256",
          "name": "offerId",
          "type": "uint256"
        },
        {
          "internalType": "bool",
          "name": "deprovision",
          "type": "bool"
        }
      ],
      "name": "retractOffer",
      "outputs": [
        {
          "internalType": "uint256",
          "name": "received",
          "type": "uint256"
        }
      ],
      "stateMutability": "nonpayable",
      "type": "function"
    },
    {
      "inputs": [
        {
          "internalType": "address",
          "name": "_admin",
          "type": "address"
        }
      ],
      "name": "setAdmin",
      "outputs": [],
      "stateMutability": "nonpayable",
      "type": "function"
    },
    {
      "inputs": [
        {
          "internalType": "uint256",
          "name": "gasreq",
          "type": "uint256"
        }
      ],
      "name": "setGasreq",
      "outputs": [],
      "stateMutability": "nonpayable",
      "type": "function"
    },
    {
      "inputs": [
        {
          "components": [
            {
              "internalType": "contract IEIP20",
              "name": "base",
              "type": "address"
            },
            {
              "internalType": "contract IEIP20",
              "name": "quote",
              "type": "address"
            },
            {
              "internalType": "bool",
              "name": "partialFillNotAllowed",
              "type": "bool"
            },
            {
              "internalType": "bool",
              "name": "selling",
              "type": "bool"
            },
            {
              "internalType": "uint256",
              "name": "wants",
              "type": "uint256"
            },
            {
              "internalType": "uint256",
              "name": "makerWants",
              "type": "uint256"
            },
            {
              "internalType": "uint256",
              "name": "gives",
              "type": "uint256"
            },
            {
              "internalType": "uint256",
              "name": "makerGives",
              "type": "uint256"
            },
            {
              "internalType": "bool",
              "name": "restingOrder",
              "type": "bool"
            },
            {
              "internalType": "uint256",
              "name": "retryNumber",
              "type": "uint256"
            },
            {
              "internalType": "uint256",
              "name": "gasForMarketOrder",
              "type": "uint256"
            },
            {
              "internalType": "uint256",
              "name": "blocksToLiveForRestingOrder",
              "type": "uint256"
            }
          ],
          "internalType": "struct IOrderLogic.TakerOrder",
          "name": "tko",
          "type": "tuple"
        }
      ],
      "name": "take",
      "outputs": [
        {
          "components": [
            {
              "internalType": "uint256",
              "name": "takerGot",
              "type": "uint256"
            },
            {
              "internalType": "uint256",
              "name": "takerGave",
              "type": "uint256"
            },
            {
              "internalType": "uint256",
              "name": "bounty",
              "type": "uint256"
            },
            {
              "internalType": "uint256",
              "name": "offerId",
              "type": "uint256"
            }
          ],
          "internalType": "struct IOrderLogic.TakerOrderResult",
          "name": "res",
          "type": "tuple"
        }
      ],
      "stateMutability": "payable",
      "type": "function"
    },
    {
      "inputs": [
        {
          "internalType": "contract IEIP20",
          "name": "token",
          "type": "address"
        },
        {
          "internalType": "address",
          "name": "owner",
          "type": "address"
        }
      ],
      "name": "tokenBalance",
      "outputs": [
        {
          "internalType": "uint256",
          "name": "",
          "type": "uint256"
        }
      ],
      "stateMutability": "view",
      "type": "function"
    },
    {
      "inputs": [
        {
          "internalType": "contract IEIP20",
          "name": "",
          "type": "address"
        },
        {
          "internalType": "address",
          "name": "",
          "type": "address"
        }
      ],
      "name": "tokenBalanceOf",
      "outputs": [
        {
          "internalType": "uint256",
          "name": "",
          "type": "uint256"
        }
      ],
      "stateMutability": "view",
      "type": "function"
    },
    {
      "inputs": [
        {
          "components": [
            {
              "internalType": "contract IEIP20",
              "name": "outbound_tkn",
              "type": "address"
            },
            {
              "internalType": "contract IEIP20",
              "name": "inbound_tkn",
              "type": "address"
            },
            {
              "internalType": "uint256",
              "name": "wants",
              "type": "uint256"
            },
            {
              "internalType": "uint256",
              "name": "gives",
              "type": "uint256"
            },
            {
              "internalType": "uint256",
              "name": "gasreq",
              "type": "uint256"
            },
            {
              "internalType": "uint256",
              "name": "gasprice",
              "type": "uint256"
            },
            {
              "internalType": "uint256",
              "name": "pivotId",
              "type": "uint256"
            }
          ],
          "internalType": "struct IOfferLogic.MakerOrder",
          "name": "mko",
          "type": "tuple"
        },
        {
          "internalType": "uint256",
          "name": "offerId",
          "type": "uint256"
        }
      ],
      "name": "updateOffer",
      "outputs": [],
      "stateMutability": "payable",
      "type": "function"
    },
    {
      "inputs": [
        {
          "internalType": "address payable",
          "name": "receiver",
          "type": "address"
        },
        {
          "internalType": "uint256",
          "name": "amount",
          "type": "uint256"
        }
      ],
      "name": "withdrawFromMangrove",
      "outputs": [
        {
          "internalType": "bool",
          "name": "noRevert",
          "type": "bool"
        }
      ],
      "stateMutability": "nonpayable",
      "type": "function"
    },
    {
      "inputs": [
        {
          "internalType": "contract IEIP20",
          "name": "token",
          "type": "address"
        },
        {
          "internalType": "address",
          "name": "receiver",
          "type": "address"
        },
        {
          "internalType": "uint256",
          "name": "amount",
          "type": "uint256"
        }
      ],
      "name": "withdrawToken",
      "outputs": [
        {
          "internalType": "bool",
          "name": "success",
          "type": "bool"
        }
      ],
      "stateMutability": "nonpayable",
      "type": "function"
    },
    {
      "stateMutability": "payable",
      "type": "receive"
    }
  ],
  "bytecode": "0x60a06040523480156200001157600080fd5b506040516200441738038062004417833981016040819052620000349162000153565b81818181806001600160a01b038116620000945760405162461bcd60e51b815260206004820152601860248201527f616363657373436f6e74726f6c6c65642f307841646d696e0000000000000000604482015260640160405180910390fd5b80620000aa620000f260201b62001f281760201c565b80546001600160a01b0319166001600160a01b0392831617905583166080525062013880620000e462000116602090811b62001f4c17901c565b555062000192945050505050565b7f7d382ebca3e46505071795e192d28166a3d4bd0685585591bc6c5b8df6769fd290565b7fae7e31c3220e851db9f204a28b279dfe52b973600b0a456991089c220ae7222490565b6001600160a01b03811681146200015057600080fd5b50565b600080604083850312156200016757600080fd5b825162000174816200013a565b602084015190925062000187816200013a565b809150509250929050565b6080516141dd6200023a600039600081816104490152818161093301528181610a6501528181610c8c01528181610e5d015281816110cb0152818161185d01528181611bdb01528181611c79015281816121890152818161262b015281816128790152818161292901528181612cfb01528181612d7201528181612f850152818161306401528181613119015281816132dd0152818161338d015261377a01526141dd6000f3fe60806040526004361061019a5760003560e01c8063704b6c02116100e1578063dec8c86b1161008a578063e4c34f8411610064578063e4c34f8414610551578063f851a44014610571578063f92495e5146105ae578063faa030ec146105ce57600080fd5b8063dec8c86b146104c3578063df242667146104f0578063e428204d1461051d57600080fd5b806399fa5e2d116100bb57806399fa5e2d14610437578063ad97db1b14610483578063aefe8403146104a357600080fd5b8063704b6c02146103f15780637ea1a48c146104115780637f84e4941461042457600080fd5b806335d61cb2116101435780634e7effa81161011d5780634e7effa81461034d5780636a1c7d051461038b5780636c49c32c146103d157600080fd5b806335d61cb2146102c957806337b966bf146102ff5780633d3d130d1461032d57600080fd5b80631bea8006116101745780631bea80061461024f578063338b5dea1461028757806334bd8931146102a757600080fd5b806301e33667146101a6578063063df2d2146101db5780631049334f146101fb57600080fd5b366101a157005b600080fd5b3480156101b257600080fd5b506101c66101c13660046138f1565b6105d6565b60405190151581526020015b60405180910390f35b3480156101e757600080fd5b506101c66101f6366004613932565b610677565b34801561020757600080fd5b5061024161021636600461395e565b6001600160a01b03918216600090815260026020908152604080832093909416825291909152205490565b6040519081526020016101d2565b34801561025b57600080fd5b5061024161026a36600461395e565b600260209081526000928352604080842090915290825290205481565b34801561029357600080fd5b506101c66102a2366004613932565b6106eb565b3480156102b357600080fd5b506102c76102c2366004613997565b6108f5565b005b3480156102d557600080fd5b506102416102e43660046139b0565b6001600160a01b031660009081526001602052604090205490565b34801561030b57600080fd5b5061031f61031a3660046139cd565b610a19565b6040516101d2929190613a53565b34801561033957600080fd5b506102c7610348366004613a8b565b610e5b565b34801561035957600080fd5b506102416103683660046138f1565b600360209081526000938452604080852082529284528284209052825290205481565b61039e610399366004613aeb565b610fa0565b6040516101d291908151815260208083015190820152604080830151908201526060918201519181019190915260800190565b3480156103dd57600080fd5b506102416103ec366004613afe565b611859565b3480156103fd57600080fd5b506102c761040c3660046139b0565b6119fd565b61024161041f366004613b2d565b611acf565b6102c7610432366004613b49565b611b3a565b34801561044357600080fd5b5061046b7f000000000000000000000000000000000000000000000000000000000000000081565b6040516001600160a01b0390911681526020016101d2565b34801561048f57600080fd5b5061024161049e366004613b83565b611b85565b3480156104af57600080fd5b506102c76104be366004613932565b611b9d565b3480156104cf57600080fd5b506104e36104de366004613bd6565b611d45565b6040516101d29190613c6b565b3480156104fc57600080fd5b5061024161050b3660046139b0565b60016020526000908152604090205481565b34801561052957600080fd5b507fae7e31c3220e851db9f204a28b279dfe52b973600b0a456991089c220ae7222454610241565b34801561055d57600080fd5b5061024161056c366004613cb8565b611dff565b34801561057d57600080fd5b507f7d382ebca3e46505071795e192d28166a3d4bd0685585591bc6c5b8df6769fd2546001600160a01b031661046b565b3480156105ba57600080fd5b5061046b6105c93660046138f1565b611e4a565b6102c7611ecc565b60006105e3843384611f70565b6040517fa9059cbb0000000000000000000000000000000000000000000000000000000081526001600160a01b0384811660048301526024820184905285169063a9059cbb906044016020604051808303816000875af115801561064b573d6000803e3d6000fd5b505050506040513d601f19601f8201168201806040525081019061066f9190613d09565b949350505050565b6000333014156106ce5760405162461bcd60e51b815260206004820152601260248201527f4d75746c692f6e6f5265656e7472616e6379000000000000000000000000000060448201526064015b60405180910390fd5b6106d8338361207f565b6106e28383612157565b90505b92915050565b6040517f70a0823100000000000000000000000000000000000000000000000000000000815230600482015260009081906001600160a01b038516906370a0823190602401602060405180830381865afa15801561074d573d6000803e3d6000fd5b505050506040513d601f19601f820116820180604052508101906107719190613d26565b6040517f23b872dd000000000000000000000000000000000000000000000000000000008152336004820152306024820152604481018590529091506001600160a01b038516906323b872dd906064016020604051808303816000875af11580156107e0573d6000803e3d6000fd5b505050506040513d601f19601f820116820180604052508101906108049190613d09565b6040517f70a08231000000000000000000000000000000000000000000000000000000008152306004820152909250839082906001600160a01b038716906370a0823190602401602060405180830381865afa158015610868573d6000803e3d6000fd5b505050506040513d601f19601f8201168201806040525081019061088c9190613d26565b6108969190613d6e565b146108e35760405162461bcd60e51b815260206004820152601260248201527f4d756c74692f7472616e736665724661696c000000000000000000000000000060448201526064016106c5565b6108ee8433856122bc565b5092915050565b7f7d382ebca3e46505071795e192d28166a3d4bd0685585591bc6c5b8df6769fd2546001600160a01b03163314806109555750336001600160a01b037f000000000000000000000000000000000000000000000000000000000000000016145b6109a15760405162461bcd60e51b815260206004820152601860248201527f416363657373436f6e74726f6c6c65642f496e76616c6964000000000000000060448201526064016106c5565b808162ffffff16146109f55760405162461bcd60e51b815260206004820152601860248201527f6d67764f666665722f6761737265712f6f766572666c6f77000000000000000060448201526064016106c5565b7fae7e31c3220e851db9f204a28b279dfe52b973600b0a456991089c220ae7222455565b6001600160a01b0380831660009081526004602090815260408083208585168452825280832093871683529281528282208280529052908120546060918291908190805b8215610bee577f00000000000000000000000000000000000000000000000000000000000000006001600160a01b03166327507458816368c13d6b8b8b6040517fffffffff0000000000000000000000000000000000000000000000000000000060e085901b1681526001600160a01b0392831660048201529116602482015260448101889052606401602060405180830381865afa158015610b04573d6000803e3d6000fd5b505050506040513d601f19601f82011682018060405250810190610b289190613d26565b6040518263ffffffff1660e01b8152600401610b4691815260200190565b602060405180830381865afa158015610b63573d6000803e3d6000fd5b505050506040513d601f19601f82011682018060405250810190610b879190613d09565b15610b9e5781610b9681613d85565b925050610bac565b80610ba881613d85565b9150505b6001600160a01b0380891660009081526004602090815260408083208b851684528252808320938d168352928152828220958252949094529092205491610a5d565b8167ffffffffffffffff811115610c0757610c07613dbe565b604051908082528060200260200182016040528015610c30578160200160208202803683370190505b5095508067ffffffffffffffff811115610c4c57610c4c613dbe565b604051908082528060200260200182016040528015610c75578160200160208202803683370190505b50945083925060009150600090505b8215610e4f577f00000000000000000000000000000000000000000000000000000000000000006001600160a01b03166327507458816368c13d6b8b8b6040517fffffffff0000000000000000000000000000000000000000000000000000000060e085901b1681526001600160a01b0392831660048201529116602482015260448101889052606401602060405180830381865afa158015610d2b573d6000803e3d6000fd5b505050506040513d601f19601f82011682018060405250810190610d4f9190613d26565b6040518263ffffffff1660e01b8152600401610d6d91815260200190565b602060405180830381865afa158015610d8a573d6000803e3d6000fd5b505050506040513d601f19601f82011682018060405250810190610dae9190613d09565b15610de257828683610dbf81613d85565b945081518110610dd157610dd1613ded565b602002602001018181525050610e0d565b828582610dee81613d85565b935081518110610e0057610e00613ded565b6020026020010181815250505b6001600160a01b0380891660009081526004602090815260408083208b851684528252808320938d168352928152828220958252949094529092205491610c84565b50505050935093915050565b7f00000000000000000000000000000000000000000000000000000000000000006001600160a01b0381161580610e9a5750336001600160a01b038216145b610ee65760405162461bcd60e51b815260206004820152601860248201527f416363657373436f6e74726f6c6c65642f496e76616c6964000000000000000060448201526064016106c5565b81602001357f6d67762f747261646553756363657373000000000000000000000000000000001415610f2157610f1b8361233f565b50505050565b60408301803590610f3590602086016139b0565b6001600160a01b0316610f4b60208601866139b0565b6001600160a01b03167fd2c3f090769d843e1fc2e6ce65d60572e28f9163a5cfccbd6c1725c6a9263f2f8560000135604051610f8991815260200190565b60405180910390a4610f1b838361247d565b505050565b610fcb6040518060800160405280600081526020016000815260200160008152602001600081525090565b600080610fde6080850160608601613e1c565b61100457610fef60208501856139b0565b610fff60408601602087016139b0565b611021565b61101460408501602086016139b0565b61102160208601866139b0565b915091506110358133308760c001356124b6565b6110815760405162461bcd60e51b815260206004820152601a60248201527f6d67764f726465722f6d6f2f7472616e73666572496e4661696c00000000000060448201526064016106c5565b60005b6110946101208601356001613e39565b81101561123457610140850135158015906110b357508461014001355a105b156110bd57611234565b600080806001600160a01b037f00000000000000000000000000000000000000000000000000000000000000001663fbffe5fd87878b608001358c60c001358d606001602081019061110f9190613e1c565b61111a57600161111d565b60005b6040517fffffffff0000000000000000000000000000000000000000000000000000000060e088901b1681526001600160a01b039586166004820152949093166024850152604484019190915260648301521515608482015260a4016060604051808303816000875af1158015611198573d6000803e3d6000fd5b505050506040513d601f19601f820116820180604052508101906111bc9190613e51565b92509250925082876000018181516111d49190613e39565b9052506020870180518391906111eb908390613e39565b905250604087018051829190611202908390613e39565b90525082158015611211575080155b1561121e57505050611234565b505050808061122c90613d85565b915050611084565b506000611243838387876125e1565b90506112556060860160408701613e1c565b158061125e5750805b80611276575061127661012086016101008701613e1c565b6112c25760405162461bcd60e51b815260206004820152601960248201527f6d67764f726465722f6d6f2f6e6f5061727469616c46696c6c0000000000000060448201526064016106c5565b835115611324576112d88333866000015161271a565b6113245760405162461bcd60e51b815260206004820152601b60248201527f6d67764f726465722f6d6f2f7472616e736665724f75744661696c000000000060448201526064016106c5565b61133661012086016101008701613e1c565b8015611340575080155b15611695576040805160e0810182526001600160a01b0380851682528516602082015285516113d89282019061137a9060a08a0135613d6e565b815260200186602001518860e001356113939190613d6e565b81526020016113c07fae7e31c3220e851db9f204a28b279dfe52b973600b0a456991089c220ae722245490565b8152602001600081526020016000815250333461283e565b606085018190526113ee90339084908690612a50565b336113ff60408701602088016139b0565b6001600160a01b031661141560208801886139b0565b6001600160a01b03167fab3ed3392e9579b676d21e1dda5b7d68388430686d83b9fe1bd66032e1e030ad61144f60808a0160608b01613e1c565b88516020808b01516040808d01516060808f0151835197151588529487019590955285820192909252928401526080830152519081900360a00190a46060840151611623576114a46060860160408701613e1c565b156114f15760405162461bcd60e51b815260206004820152601960248201527f6d67764f726465722f6d6f2f6e6f5061727469616c46696c6c0000000000000060448201526064016106c5565b61150f823386602001518860c0013561150a9190613d6e565b61271a565b61155b5760405162461bcd60e51b815260206004820152601a60248201527f6d67764f726465722f6d6f2f7472616e73666572496e4661696c00000000000060448201526064016106c5565b600084604001513461156d9190613e39565b111561161b57604084015160009033906115879034613e39565b604051600081818185875af1925050503d80600081146115c3576040519150601f19603f3d011682016040523d82523d6000602084013e6115c8565b606091505b50509050806116195760405162461bcd60e51b815260206004820152601f60248201527f6d67764f726465722f6d6f2f726566756e6450726f766973696f6e4661696c0060448201526064016106c5565b505b505050919050565b611641823386602001518860c0013561163c9190613d6e565b6122bc565b6101608501351561161b5761165b61016086013543613e39565b6001600160a01b03808416600090815260036020908152604080832093881683529281528282206060890151835290522055505050919050565b6116ae823386602001518860c0013561150a9190613d6e565b6116fa5760405162461bcd60e51b815260206004820152601a60248201527f6d67764f726465722f6d6f2f7472616e73666572496e4661696c00000000000060448201526064016106c5565b600084604001513461170c9190613e39565b11156117ba57604084015160009033906117269034613e39565b604051600081818185875af1925050503d8060008114611762576040519150601f19603f3d011682016040523d82523d6000602084013e611767565b606091505b50509050806117b85760405162461bcd60e51b815260206004820152601660248201527f6d67764f726465722f6d6f2f726566756e644661696c0000000000000000000060448201526064016106c5565b505b336117cb60408701602088016139b0565b6001600160a01b03166117e160208801886139b0565b6001600160a01b03167fab3ed3392e9579b676d21e1dda5b7d68388430686d83b9fe1bd66032e1e030ad61181b60808a0160608b01613e1c565b88516020808b01516040808d0151815195151586529285019390935283830152606083015260006080830152519081900360a00190a4505050919050565b60007f00000000000000000000000000000000000000000000000000000000000000006001600160a01b038116158061189a5750336001600160a01b038216145b6118e65760405162461bcd60e51b815260206004820152601860248201527f416363657373436f6e74726f6c6c65642f496e76616c6964000000000000000060448201526064016106c5565b6118ef83612ad1565b61193b5760405162461bcd60e51b815260206004820152601660248201527f6d67764f666665722f61626f72742f72656e656765640000000000000000000060448201526064016106c5565b600061194b8460a0013585612b56565b11156119995760405162461bcd60e51b815260206004820152601860248201527f6d67764f666665722f61626f72742f7075744661696c6564000000000000000060448201526064016106c5565b60006119a9846080013585612bb3565b11156119f75760405162461bcd60e51b815260206004820152601860248201527f6d67764f666665722f61626f72742f6765744661696c6564000000000000000060448201526064016106c5565b50919050565b7f7d382ebca3e46505071795e192d28166a3d4bd0685585591bc6c5b8df6769fd2546001600160a01b03163314611a765760405162461bcd60e51b815260206004820152601860248201527f416363657373436f6e74726f6c6c65642f496e76616c6964000000000000000060448201526064016106c5565b7f7d382ebca3e46505071795e192d28166a3d4bd0685585591bc6c5b8df6769fd280547fffffffffffffffffffffffff0000000000000000000000000000000000000000166001600160a01b0392909216919091179055565b600033301415611b215760405162461bcd60e51b815260206004820152601260248201527f4d75746c692f6e6f5265656e7472616e6379000000000000000000000000000060448201526064016106c5565b6106e5611b3336849003840184613ef1565b333461283e565b600080611b57611b4f36869003860186613ef1565b843334612c53565b91509150600082118190611b7e5760405162461bcd60e51b81526004016106c59190613fda565b5050505050565b6000611b948585858533612efa565b95945050505050565b7f7d382ebca3e46505071795e192d28166a3d4bd0685585591bc6c5b8df6769fd2546001600160a01b0316331480611bfd5750336001600160a01b037f000000000000000000000000000000000000000000000000000000000000000016145b611c495760405162461bcd60e51b815260206004820152601860248201527f416363657373436f6e74726f6c6c65642f496e76616c6964000000000000000060448201526064016106c5565b6040517f095ea7b30000000000000000000000000000000000000000000000000000000081526001600160a01b037f0000000000000000000000000000000000000000000000000000000000000000811660048301526024820183905283169063095ea7b3906044016020604051808303816000875af1158015611cd1573d6000803e3d6000fd5b505050506040513d601f19601f82011682018060405250810190611cf59190613d09565b611d415760405162461bcd60e51b815260206004820152601560248201527f6d67764f666665722f617070726f76652f4661696c000000000000000000000060448201526064016106c5565b5050565b60608167ffffffffffffffff811115611d6057611d60613dbe565b604051908082528060200260200182016040528015611d89578160200160208202803683370190505b50905060005b82811015611df657611dba8686868685818110611dae57611dae613ded565b90506020020135611e4a565b828281518110611dcc57611dcc613ded565b6001600160a01b039092166020928302919091019091015280611dee81613d85565b915050611d8f565b50949350505050565b6000808215611e31576000611e15888886611e4a565b6001600160a01b03166000908152600160205260409020549150505b611e3f818888888888613056565b979650505050505050565b6001600160a01b03808416600090815260208181526040808320868516845282528083208584529091529020541680611ec55760405162461bcd60e51b815260206004820152601560248201527f6d756c7469557365722f756e6b6f776e4f66666572000000000000000000000060448201526064016106c5565b9392505050565b33301415611f1c5760405162461bcd60e51b815260206004820152601260248201527f4d75746c692f6e6f5265656e7472616e6379000000000000000000000000000060448201526064016106c5565b611f2633346132db565b565b7f7d382ebca3e46505071795e192d28166a3d4bd0685585591bc6c5b8df6769fd290565b7fae7e31c3220e851db9f204a28b279dfe52b973600b0a456991089c220ae7222490565b80611f7a57505050565b6001600160a01b03808416600090815260026020908152604080832093861683529290522054811115611fef5760405162461bcd60e51b815260206004820152601d60248201527f4d756c74692f6465626974546f6b656e2f696e73756666696369656e7400000060448201526064016106c5565b6001600160a01b03808416600090815260026020908152604080832093861683529290529081208054839290612026908490613d6e565b92505081905550826001600160a01b0316826001600160a01b03167f7a97b405ee1bd89550b225932dbdd0431e30426b7c8f02f05b3cb0e1bdfb84768360405161207291815260200190565b60405180910390a3505050565b6001600160a01b0382166000908152600160205260409020548111156120e75760405162461bcd60e51b815260206004820152601d60248201527f4d756c74692f64656269744f6e4d67762f696e73756666696369656e7400000060448201526064016106c5565b6001600160a01b0382166000908152600160205260408120805483929061210f908490613d6e565b90915550506040518181526001600160a01b038316907fd50b865b3d9d927f026d3b8404e07f25d6beb1d111deab51bdc846bf8d0a860b906020015b60405180910390a25050565b6040517f2e1a7d4d000000000000000000000000000000000000000000000000000000008152600481018290526000907f00000000000000000000000000000000000000000000000000000000000000006001600160a01b031690632e1a7d4d906024016020604051808303816000875af11580156121da573d6000803e3d6000fd5b505050506040513d601f19601f820116820180604052508101906121fe9190613d09565b61224a5760405162461bcd60e51b815260206004820152601e60248201527f6d67764f666665722f77697468647261772f7472616e736665724661696c000060448201526064016106c5565b6001600160a01b03831630146122b3576040516001600160a01b038416908390600081818185875af1925050503d80600081146122a3576040519150601f19603f3d011682016040523d82523d6000602084013e6122a8565b606091505b5050809150506106e5565b50600192915050565b6001600160a01b038084166000908152600260209081526040808320938616835292905290812080548392906122f3908490613e39565b92505081905550826001600160a01b0316826001600160a01b03167fb2b1ec266d1bab793ae1d020eedf03e575cc390e5fb9e370cb099fdf2f61534d8360405161207291815260200190565b60008061234f60208401846139b0565b9050600061236360408501602086016139b0565b905061236e84613359565b1561237d575060019392505050565b600061238e83838760400135611e4a565b905061239a8582613503565b6123a957506000949350505050565b6001600160a01b0381166000908152600160205260409020546123cd90829061207f565b6001600160a01b0381166000908152600160205260409020546123f1908290612157565b612472578460400135826001600160a01b0316846001600160a01b03167fd2c3f090769d843e1fc2e6ce65d60572e28f9163a5cfccbd6c1725c6a9263f2f60405161245f907f6d67764f726465722f706f7374686f6f6b2f7472616e73666572576569000000815260200190565b60405180910390a4506000949350505050565b506001949350505050565b6000806124aa61249060208601866139b0565b6124a060408701602088016139b0565b8660400135611e4a565b905061066f8482613503565b60008115806124d65750826001600160a01b0316846001600160a01b0316145b156124e35750600161066f565b604080516001600160a01b0386811660248301528581166044830152606480830186905283518084039091018152608490920183526020820180517bffffffffffffffffffffffffffffffffffffffffffffffffffffffff167f23b872dd000000000000000000000000000000000000000000000000000000001790529151600092839290891691612575919061402b565b6000604051808303816000865af19150503d80600081146125b2576040519150601f19603f3d011682016040523d82523d6000602084013e6125b7565b606091505b5091509150818015611e3f575080511580611e3f575080806020019051810190611e3f9190613d09565b60006125f36080840160608501613e1c565b1561260b578260c0013582602001511015905061066f565b61261b6080840160608501613e1c565b61066f5760006001600160a01b037f00000000000000000000000000000000000000000000000000000000000000001663cbf75c9a87876040517fffffffff0000000000000000000000000000000000000000000000000000000060e085901b1681526001600160a01b039283166004820152911660248201526044016040805180830381865afa1580156126b4573d6000803e3d6000fd5b505050506040513d601f19601f820116820180604052508101906126d89190614047565b915061271090506126f561ffff60e884901c16608087013561406b565b6126ff91906140a8565b61270d906080860135613d6e565b83511015915061066f9050565b600081158061273157506001600160a01b03831630145b1561273e57506001611ec5565b604080516001600160a01b038581166024830152604480830186905283518084039091018152606490920183526020820180517bffffffffffffffffffffffffffffffffffffffffffffffffffffffff167fa9059cbb0000000000000000000000000000000000000000000000000000000017905291516000928392908816916127c8919061402b565b6000604051808303816000865af19150503d8060008114612805576040519150601f19603f3d011682016040523d82523d6000602084013e61280a565b606091505b50915091508180156128345750805115806128345750808060200190518101906128349190613d09565b9695505050505050565b6040517f70a0823100000000000000000000000000000000000000000000000000000000815230600482015260009081906001600160a01b037f000000000000000000000000000000000000000000000000000000000000000016906370a0823190602401602060405180830381865afa1580156128c0573d6000803e3d6000fd5b505050506040513d601f19601f820116820180604052508101906128e49190613d26565b9050600062ffffff8016866080015111612902578560800151612925565b7fae7e31c3220e851db9f204a28b279dfe52b973600b0a456991089c220ae72224545b90507f00000000000000000000000000000000000000000000000000000000000000006001600160a01b03166349f6d2dc85612962896000015190565b60208a015160408b81015160608d015160a08e015160c08f0151935160e089901b7fffffffff000000000000000000000000000000000000000000000000000000001681526001600160a01b039687166004820152959094166024860152604485019190915260648401526084830187905260a483019190915260c482015260e40160206040518083038185885af1158015612a02573d6000803e3d6000fd5b50505050506040513d601f19601f82011682018060405250810190612a279190613d26565b9250612a3d8660000151876020015185886136b4565b612a478583613749565b50509392505050565b6001600160a01b0383811660009081526004602090815260408083208685168452825280832093881683529281528282208280529052208054908290558015611b7e576001600160a01b0393841660009081526004602090815260408083209587168352948152848220969095168152948452828520918552925290912055565b600080600381612ae460208601866139b0565b6001600160a01b03166001600160a01b031681526020019081526020016000206000846020016020810190612b1991906139b0565b6001600160a01b03168152602080820192909252604090810160009081208683013582529092529020549050801580611ec5575043111592915050565b600080612b83612b6960208501856139b0565b612b7960408601602087016139b0565b8560400135611e4a565b9050612b9f612b9860408501602086016139b0565b828661271a565b612ba9578361066f565b5060009392505050565b600080612bc360208401846139b0565b90506000612bd760408501602086016139b0565b90506000612bea83838760400135611e4a565b6001600160a01b0380851660009081526002602090815260408083209385168352929052205490915086811015612c3b57612c26848383611f70565b612c308188613d6e565b9450505050506106e5565b612c46848389611f70565b60009450505050506106e5565b60006060612c6a8660000151876020015187611e4a565b6001600160a01b0316846001600160a01b031614612cca5760405162461bcd60e51b815260206004820152601e60248201527f4d756c74692f7570646174654f666665722f756e617574686f72697a6564000060448201526064016106c5565b6040517f70a082310000000000000000000000000000000000000000000000000000000081523060048201526000907f00000000000000000000000000000000000000000000000000000000000000006001600160a01b0316906370a0823190602401602060405180830381865afa158015612d4a573d6000803e3d6000fd5b505050506040513d601f19601f82011682018060405250810190612d6e9190613d26565b90507f00000000000000000000000000000000000000000000000000000000000000006001600160a01b0316636a4f769185612dab8a6000015190565b60208b015160408c015160608d015160808e015162ffffff10612dd2578d60800151612df5565b7fae7e31c3220e851db9f204a28b279dfe52b973600b0a456991089c220ae72224545b8e60a001518f60c001518f6040518a63ffffffff1660e01b8152600401612e629897969594939291906001600160a01b03988916815296909716602087015260408601949094526060850192909252608084015260a083015260c082015260e08101919091526101000190565b6000604051808303818588803b158015612e7b57600080fd5b505af193505050508015612e8d575060015b612ed257612e996140e3565b806308c379a01415612ec65750612eae6140ff565b80612eb95750612ec8565b600093509150612ef19050565b505b3d6000803e3d6000fd5b612edc8582613749565b50506040805160208101909152600081528491505b94509492505050565b6001600160a01b03858116600090815260208181526040808320888516845282528083208784529091528120549091838116911614612f7b5760405162461bcd60e51b815260206004820152601f60248201527f4d756c74692f726574726163744f666665722f756e617574686f72697a65640060448201526064016106c5565b6001600160a01b037f00000000000000000000000000000000000000000000000000000000000000001663ad97db1b87876040517fffffffff0000000000000000000000000000000000000000000000000000000060e085901b1681526001600160a01b039283166004820152911660248201526044810187905285151560648201526084016020604051808303816000875af1158015613020573d6000803e3d6000fd5b505050506040513d601f19601f820116820180604052508101906130449190613d26565b90508015611b9457611b94828261382a565b600080806001600160a01b037f00000000000000000000000000000000000000000000000000000000000000001663cbf75c9a89896040517fffffffff0000000000000000000000000000000000000000000000000000000060e085901b1681526001600160a01b039283166004820152911660248201526044016040805180830381865afa1580156130ed573d6000803e3d6000fd5b505050506040513d601f19601f820116820180604052508101906131119190614047565b9150915060007f00000000000000000000000000000000000000000000000000000000000000006001600160a01b0316635722647b61314d8b90565b8a6040517fffffffff0000000000000000000000000000000000000000000000000000000060e085901b1681526001600160a01b0392831660048201529116602482015260448101889052606401602060405180830381865afa1580156131b8573d6000803e3d6000fd5b505050506040513d601f19601f820116820180604052508101906131dc9190613d26565b9050600086604085901c61ffff1611156131ff575061ffff604084901c16613202565b50855b62ffffff881115613232577fae7e31c3220e851db9f204a28b279dfe52b973600b0a456991089c220ae722245497505b60008161324862ffffff606087901c168b613e39565b613252919061406b565b61326090633b9aca0061406b565b9050600061ffff602085901c1661328762ffffff603087901c811690604888901c16613e39565b613291919061406b565b61329f90633b9aca0061406b565b905060006132ad8e83613e39565b9050828110156132c6576132c18184613d6e565b6132c9565b60005b9e9d5050505050505050505050505050565b7f00000000000000000000000000000000000000000000000000000000000000006001600160a01b031663b60d4288826040518263ffffffff1660e01b81526004016000604051808303818588803b15801561333657600080fd5b505af115801561334a573d6000803e3d6000fd5b5050505050611d41828261382a565b60008061336583613892565b90506000613372846138b7565b905081613383575060019392505050565b6001600160a01b037f000000000000000000000000000000000000000000000000000000000000000016636a4f76916133bf60208701876139b0565b6133cf60408801602089016139b0565b848660c08a013560481c62ffffff1660c08b013560201c61ffff1660608c013560c01c63ffffffff16604080517fffffffff0000000000000000000000000000000000000000000000000000000060e08b901b1681526001600160a01b03988916600482015297909616602488015260448701949094526064860192909252608485015260a484015260c483015287013560e482015261010401600060405180830381600087803b15801561348357600080fd5b505af1925050508015613494575060015b6134f9576134ee6134a860208601866139b0565b6134b860408701602088016139b0565b604087013560016134e96134cf60208b018b6139b0565b6134df60408c0160208d016139b0565b8b60400135611e4a565b612efa565b506000949350505050565b5060019392505050565b60008061351360208501856139b0565b9050600061352760408601602087016139b0565b6001600160a01b0380841660009081526002602090815260408083209389168352929052205490915061355b83868361271a565b6135dd578560400135826001600160a01b0316846001600160a01b03167fd2c3f090769d843e1fc2e6ce65d60572e28f9163a5cfccbd6c1725c6a9263f2f6040516135c9907f6d67764f726465722f72656465656d416c6c2f7472616e736665724f75740000815260200190565b60405180910390a4600093505050506106e5565b6135e8838683611f70565b6001600160a01b0380831660009081526002602090815260408083209389168352929052205461361983878361271a565b61369c578660400135836001600160a01b0316856001600160a01b03167fd2c3f090769d843e1fc2e6ce65d60572e28f9163a5cfccbd6c1725c6a9263f2f604051613687907f6d67764f726465722f72656465656d416c6c2f7472616e73666572496e000000815260200190565b60405180910390a460009450505050506106e5565b6136a7838783611f70565b5060019695505050505050565b6001600160a01b0384811660008181526020818152604080832088861680855290835281842088855283529281902080547fffffffffffffffffffffffff00000000000000000000000000000000000000001695871695861790555193845285939192917fabf04a4ce23225c02bd147297da7ffc10e7d29102d8678f1a63fdd2cfd71ff07910160405180910390a450505050565b6040517f70a082310000000000000000000000000000000000000000000000000000000081523060048201526000907f00000000000000000000000000000000000000000000000000000000000000006001600160a01b0316906370a0823190602401602060405180830381865afa1580156137c9573d6000803e3d6000fd5b505050506040513d601f19601f820116820180604052508101906137ed9190613d26565b9050818114156137fc57505050565b8181111561381757610f9b836138128484613d6e565b61382a565b610f9b836138258385613d6e565b61207f565b6001600160a01b03821660009081526001602052604081208054839290613852908490613e39565b90915550506040518181526001600160a01b038316907f2022607feefe24f258126b277628af517f5512dd9499fb3520eeff54cad137039060200161214b565b600060808201356bffffffffffffffffffffffff6060840135165b6106e59190613d6e565b600060a0820135606080840135901c6bffffffffffffffffffffffff166138ad565b6001600160a01b03811681146138ee57600080fd5b50565b60008060006060848603121561390657600080fd5b8335613911816138d9565b92506020840135613921816138d9565b929592945050506040919091013590565b6000806040838503121561394557600080fd5b8235613950816138d9565b946020939093013593505050565b6000806040838503121561397157600080fd5b823561397c816138d9565b9150602083013561398c816138d9565b809150509250929050565b6000602082840312156139a957600080fd5b5035919050565b6000602082840312156139c257600080fd5b8135611ec5816138d9565b6000806000606084860312156139e257600080fd5b83356139ed816138d9565b925060208401356139fd816138d9565b91506040840135613a0d816138d9565b809150509250925092565b600081518084526020808501945080840160005b83811015613a4857815187529582019590820190600101613a2c565b509495945050505050565b604081526000613a666040830185613a18565b8281036020840152611b948185613a18565b600061012082840312156119f757600080fd5b600080828403610160811215613aa057600080fd5b613aaa8585613a78565b925060407ffffffffffffffffffffffffffffffffffffffffffffffffffffffffffffffee082011215613adc57600080fd5b50610120830190509250929050565b600061018082840312156119f757600080fd5b60006101208284031215613b1157600080fd5b6106e28383613a78565b600060e082840312156119f757600080fd5b600060e08284031215613b3f57600080fd5b6106e28383613b1b565b6000806101008385031215613b5d57600080fd5b613b678484613b1b565b9460e0939093013593505050565b80151581146138ee57600080fd5b60008060008060808587031215613b9957600080fd5b8435613ba4816138d9565b93506020850135613bb4816138d9565b9250604085013591506060850135613bcb81613b75565b939692955090935050565b60008060008060608587031215613bec57600080fd5b8435613bf7816138d9565b93506020850135613c07816138d9565b9250604085013567ffffffffffffffff80821115613c2457600080fd5b818701915087601f830112613c3857600080fd5b813581811115613c4757600080fd5b8860208260051b8501011115613c5c57600080fd5b95989497505060200194505050565b6020808252825182820181905260009190848201906040850190845b81811015613cac5783516001600160a01b031683529284019291840191600101613c87565b50909695505050505050565b600080600080600060a08688031215613cd057600080fd5b8535613cdb816138d9565b94506020860135613ceb816138d9565b94979496505050506040830135926060810135926080909101359150565b600060208284031215613d1b57600080fd5b8151611ec581613b75565b600060208284031215613d3857600080fd5b5051919050565b7f4e487b7100000000000000000000000000000000000000000000000000000000600052601160045260246000fd5b600082821015613d8057613d80613d3f565b500390565b60007fffffffffffffffffffffffffffffffffffffffffffffffffffffffffffffffff821415613db757613db7613d3f565b5060010190565b7f4e487b7100000000000000000000000000000000000000000000000000000000600052604160045260246000fd5b7f4e487b7100000000000000000000000000000000000000000000000000000000600052603260045260246000fd5b600060208284031215613e2e57600080fd5b8135611ec581613b75565b60008219821115613e4c57613e4c613d3f565b500190565b600080600060608486031215613e6657600080fd5b8351925060208401519150604084015190509250925092565b7fffffffffffffffffffffffffffffffffffffffffffffffffffffffffffffffe0601f830116810181811067ffffffffffffffff82111715613eea577f4e487b7100000000000000000000000000000000000000000000000000000000600052604160045260246000fd5b6040525050565b600060e08284031215613f0357600080fd5b60405160e0810181811067ffffffffffffffff82111715613f4d577f4e487b7100000000000000000000000000000000000000000000000000000000600052604160045260246000fd5b6040528235613f5b816138d9565b81526020830135613f6b816138d9565b8060208301525060408301356040820152606083013560608201526080830135608082015260a083013560a082015260c083013560c08201528091505092915050565b60005b83811015613fc9578181015183820152602001613fb1565b83811115610f1b5750506000910152565b6020815260008251806020840152613ff9816040850160208701613fae565b601f017fffffffffffffffffffffffffffffffffffffffffffffffffffffffffffffffe0169190910160400192915050565b6000825161403d818460208701613fae565b9190910192915050565b6000806040838503121561405a57600080fd5b505080516020909101519092909150565b6000817fffffffffffffffffffffffffffffffffffffffffffffffffffffffffffffffff04831182151516156140a3576140a3613d3f565b500290565b6000826140de577f4e487b7100000000000000000000000000000000000000000000000000000000600052601260045260246000fd5b500490565b600060033d11156140fc5760046000803e5060005160e01c5b90565b600060443d101561410d5790565b6040517ffffffffffffffffffffffffffffffffffffffffffffffffffffffffffffffffc803d016004833e81513d67ffffffffffffffff816024840111818411171561415b57505050505090565b82850191508151818111156141735750505050505090565b843d870101602082850101111561418d5750505050505090565b61419c60208286010187613e7f565b50909594505050505056fea2646970667358221220900e73e752c378f03813523203fc12a9f76a3cbc4c69d3273e8d46e48fbf13a764736f6c634300080a0033",
  "linkReferences": {},
  "deployedLinkReferences": {}
}