{
  "_format": "hh-sol-artifact-1",
  "contractName": "MangroveOrderEnriched",
  "sourceName": "contracts/Strategies/OrderLogics/MangroveOrderEnriched.sol",
  "abi": [
    {
      "inputs": [
        {
          "internalType": "address payable",
          "name": "_MGV",
          "type": "address"
        },
        {
          "internalType": "address",
          "name": "admin",
          "type": "address"
        }
      ],
      "stateMutability": "nonpayable",
      "type": "constructor"
    },
    {
      "anonymous": false,
      "inputs": [
        {
          "indexed": true,
          "internalType": "address",
          "name": "user",
          "type": "address"
        },
        {
          "indexed": false,
          "internalType": "uint256",
          "name": "amount",
          "type": "uint256"
        }
      ],
      "name": "CreditMgvUser",
      "type": "event"
    },
    {
      "anonymous": false,
      "inputs": [
        {
          "indexed": true,
          "internalType": "address",
          "name": "user",
          "type": "address"
        },
        {
          "indexed": true,
          "internalType": "address",
          "name": "token",
          "type": "address"
        },
        {
          "indexed": false,
          "internalType": "uint256",
          "name": "amount",
          "type": "uint256"
        }
      ],
      "name": "CreditUserTokenBalance",
      "type": "event"
    },
    {
      "anonymous": false,
      "inputs": [
        {
          "indexed": true,
          "internalType": "address",
          "name": "user",
          "type": "address"
        },
        {
          "indexed": false,
          "internalType": "uint256",
          "name": "amount",
          "type": "uint256"
        }
      ],
      "name": "DebitMgvUser",
      "type": "event"
    },
    {
      "anonymous": false,
      "inputs": [
        {
          "indexed": true,
          "internalType": "address",
          "name": "user",
          "type": "address"
        },
        {
          "indexed": true,
          "internalType": "address",
          "name": "token",
          "type": "address"
        },
        {
          "indexed": false,
          "internalType": "uint256",
          "name": "amount",
          "type": "uint256"
        }
      ],
      "name": "DebitUserTokenBalance",
      "type": "event"
    },
    {
      "anonymous": false,
      "inputs": [
        {
          "indexed": true,
          "internalType": "address",
          "name": "outbound_tkn",
          "type": "address"
        },
        {
          "indexed": true,
          "internalType": "address",
          "name": "inbound_tkn",
          "type": "address"
        },
        {
          "indexed": true,
          "internalType": "uint256",
          "name": "offerId",
          "type": "uint256"
        },
        {
          "indexed": false,
          "internalType": "bytes32",
          "name": "reason",
          "type": "bytes32"
        }
      ],
      "name": "LogIncident",
      "type": "event"
    },
    {
      "anonymous": false,
      "inputs": [
        {
          "indexed": true,
          "internalType": "address",
          "name": "outbound_tkn",
          "type": "address"
        },
        {
          "indexed": true,
          "internalType": "address",
          "name": "inbound_tkn",
          "type": "address"
        },
        {
          "indexed": true,
          "internalType": "uint256",
          "name": "offerId",
          "type": "uint256"
        },
        {
          "indexed": false,
          "internalType": "address",
          "name": "owner",
          "type": "address"
        }
      ],
      "name": "NewOwnedOffer",
      "type": "event"
    },
    {
      "anonymous": false,
      "inputs": [
        {
          "indexed": true,
          "internalType": "address",
          "name": "base",
          "type": "address"
        },
        {
          "indexed": true,
          "internalType": "address",
          "name": "quote",
          "type": "address"
        },
        {
          "indexed": true,
          "internalType": "address",
          "name": "taker",
          "type": "address"
        },
        {
          "indexed": false,
          "internalType": "bool",
          "name": "selling",
          "type": "bool"
        },
        {
          "indexed": false,
          "internalType": "uint256",
          "name": "takerGot",
          "type": "uint256"
        },
        {
          "indexed": false,
          "internalType": "uint256",
          "name": "takerGave",
          "type": "uint256"
        },
        {
          "indexed": false,
          "internalType": "uint256",
          "name": "penalty",
          "type": "uint256"
        },
        {
          "indexed": false,
          "internalType": "uint256",
          "name": "restingOrderId",
          "type": "uint256"
        }
      ],
      "name": "OrderSummary",
      "type": "event"
    },
    {
      "inputs": [],
      "name": "MGV",
      "outputs": [
        {
          "internalType": "contract IMangrove",
          "name": "",
          "type": "address"
        }
      ],
      "stateMutability": "view",
      "type": "function"
    },
    {
      "inputs": [],
      "name": "OFR_GASREQ",
      "outputs": [
        {
          "internalType": "uint256",
          "name": "",
          "type": "uint256"
        }
      ],
      "stateMutability": "view",
      "type": "function"
    },
    {
      "inputs": [],
      "name": "OUTOFLIQUIDITY",
      "outputs": [
        {
          "internalType": "bytes32",
          "name": "",
          "type": "bytes32"
        }
      ],
      "stateMutability": "view",
      "type": "function"
    },
    {
      "inputs": [],
      "name": "PUTFAILURE",
      "outputs": [
        {
          "internalType": "bytes32",
          "name": "",
          "type": "bytes32"
        }
      ],
      "stateMutability": "view",
      "type": "function"
    },
    {
      "inputs": [],
      "name": "RENEGED",
      "outputs": [
        {
          "internalType": "bytes32",
          "name": "",
          "type": "bytes32"
        }
      ],
      "stateMutability": "view",
      "type": "function"
    },
    {
      "inputs": [],
      "name": "admin",
      "outputs": [
        {
          "internalType": "address",
          "name": "",
          "type": "address"
        }
      ],
      "stateMutability": "view",
      "type": "function"
    },
    {
      "inputs": [
        {
          "internalType": "address",
          "name": "outbound_tkn",
          "type": "address"
        },
        {
          "internalType": "uint256",
          "name": "amount",
          "type": "uint256"
        }
      ],
      "name": "approveMangrove",
      "outputs": [],
      "stateMutability": "nonpayable",
      "type": "function"
    },
    {
      "inputs": [
        {
          "internalType": "address",
          "name": "owner",
          "type": "address"
        }
      ],
      "name": "balanceOnMangrove",
      "outputs": [
        {
          "internalType": "uint256",
          "name": "",
          "type": "uint256"
        }
      ],
      "stateMutability": "view",
      "type": "function"
    },
    {
      "inputs": [
        {
          "internalType": "address",
          "name": "token",
          "type": "address"
        },
        {
          "internalType": "uint256",
          "name": "amount",
          "type": "uint256"
        }
      ],
      "name": "depositToken",
      "outputs": [
        {
          "internalType": "bool",
          "name": "success",
          "type": "bool"
        }
      ],
      "stateMutability": "nonpayable",
      "type": "function"
    },
    {
      "inputs": [
        {
          "internalType": "address",
          "name": "",
          "type": "address"
        },
        {
          "internalType": "address",
          "name": "",
          "type": "address"
        },
        {
          "internalType": "uint256",
          "name": "",
          "type": "uint256"
        }
      ],
      "name": "expiring",
      "outputs": [
        {
          "internalType": "uint256",
          "name": "",
          "type": "uint256"
        }
      ],
      "stateMutability": "view",
      "type": "function"
    },
    {
      "inputs": [],
      "name": "fundMangrove",
      "outputs": [],
      "stateMutability": "payable",
      "type": "function"
    },
    {
      "inputs": [
        {
          "internalType": "address",
          "name": "outbound_tkn",
          "type": "address"
        },
        {
          "internalType": "address",
          "name": "inbound_tkn",
          "type": "address"
        },
        {
          "internalType": "uint256",
          "name": "gasreq",
          "type": "uint256"
        },
        {
          "internalType": "uint256",
          "name": "gasprice",
          "type": "uint256"
        },
        {
          "internalType": "uint256",
          "name": "offerId",
          "type": "uint256"
        }
      ],
      "name": "getMissingProvision",
      "outputs": [
        {
          "internalType": "uint256",
          "name": "",
          "type": "uint256"
        }
      ],
      "stateMutability": "view",
      "type": "function"
    },
    {
      "inputs": [
        {
          "components": [
            {
              "internalType": "address",
              "name": "outbound_tkn",
              "type": "address"
            },
            {
              "internalType": "address",
              "name": "inbound_tkn",
              "type": "address"
            },
            {
              "internalType": "uint256",
              "name": "offerId",
              "type": "uint256"
            },
            {
              "internalType": "Offer.t",
              "name": "offer",
              "type": "uint256"
            },
            {
              "internalType": "uint256",
              "name": "wants",
              "type": "uint256"
            },
            {
              "internalType": "uint256",
              "name": "gives",
              "type": "uint256"
            },
            {
              "internalType": "OfferDetail.t",
              "name": "offerDetail",
              "type": "uint256"
            },
            {
              "internalType": "Global.t",
              "name": "global",
              "type": "uint256"
            },
            {
              "internalType": "Local.t",
              "name": "local",
              "type": "uint256"
            }
          ],
          "internalType": "struct MgvLib.SingleOrder",
          "name": "order",
          "type": "tuple"
        }
      ],
      "name": "makerExecute",
      "outputs": [
        {
          "internalType": "bytes32",
          "name": "ret",
          "type": "bytes32"
        }
      ],
      "stateMutability": "nonpayable",
      "type": "function"
    },
    {
      "inputs": [
        {
          "components": [
            {
              "internalType": "address",
              "name": "outbound_tkn",
              "type": "address"
            },
            {
              "internalType": "address",
              "name": "inbound_tkn",
              "type": "address"
            },
            {
              "internalType": "uint256",
              "name": "offerId",
              "type": "uint256"
            },
            {
              "internalType": "Offer.t",
              "name": "offer",
              "type": "uint256"
            },
            {
              "internalType": "uint256",
              "name": "wants",
              "type": "uint256"
            },
            {
              "internalType": "uint256",
              "name": "gives",
              "type": "uint256"
            },
            {
              "internalType": "OfferDetail.t",
              "name": "offerDetail",
              "type": "uint256"
            },
            {
              "internalType": "Global.t",
              "name": "global",
              "type": "uint256"
            },
            {
              "internalType": "Local.t",
              "name": "local",
              "type": "uint256"
            }
          ],
          "internalType": "struct MgvLib.SingleOrder",
          "name": "order",
          "type": "tuple"
        },
        {
          "components": [
            {
              "internalType": "bytes32",
              "name": "makerData",
              "type": "bytes32"
            },
            {
              "internalType": "bytes32",
              "name": "mgvData",
              "type": "bytes32"
            }
          ],
          "internalType": "struct MgvLib.OrderResult",
          "name": "result",
          "type": "tuple"
        }
      ],
      "name": "makerPosthook",
      "outputs": [],
      "stateMutability": "nonpayable",
      "type": "function"
    },
    {
      "inputs": [
        {
          "internalType": "address",
          "name": "",
          "type": "address"
        }
      ],
      "name": "mgvBalance",
      "outputs": [
        {
          "internalType": "uint256",
          "name": "",
          "type": "uint256"
        }
      ],
      "stateMutability": "view",
      "type": "function"
    },
    {
      "inputs": [
        {
          "internalType": "address",
          "name": "outbound_tkn",
          "type": "address"
        },
        {
          "internalType": "address",
          "name": "inbound_tkn",
          "type": "address"
        },
        {
          "internalType": "uint256",
          "name": "wants",
          "type": "uint256"
        },
        {
          "internalType": "uint256",
          "name": "gives",
          "type": "uint256"
        },
        {
          "internalType": "uint256",
          "name": "gasreq",
          "type": "uint256"
        },
        {
          "internalType": "uint256",
          "name": "gasprice",
          "type": "uint256"
        },
        {
          "internalType": "uint256",
          "name": "pivotId",
          "type": "uint256"
        }
      ],
      "name": "newOffer",
      "outputs": [
        {
          "internalType": "uint256",
          "name": "offerId",
          "type": "uint256"
        }
      ],
      "stateMutability": "payable",
      "type": "function"
    },
    {
      "inputs": [
        {
          "internalType": "address",
          "name": "reader",
          "type": "address"
        },
        {
          "internalType": "address",
          "name": "outbound_tkn",
          "type": "address"
        },
        {
          "internalType": "address",
          "name": "inbound_tkn",
          "type": "address"
        },
        {
          "internalType": "uint256",
          "name": "fromId",
          "type": "uint256"
        },
        {
          "internalType": "uint256",
          "name": "maxOffers",
          "type": "uint256"
        }
      ],
      "name": "offerOwners",
      "outputs": [
        {
          "internalType": "uint256",
          "name": "nextId",
          "type": "uint256"
        },
        {
          "internalType": "uint256[]",
          "name": "offerIds",
          "type": "uint256[]"
        },
        {
          "internalType": "address[]",
          "name": "__offerOwners",
          "type": "address[]"
        }
      ],
      "stateMutability": "view",
      "type": "function"
    },
    {
      "inputs": [
        {
          "internalType": "address",
          "name": "owner",
          "type": "address"
        },
        {
          "internalType": "address",
          "name": "outbound_tkn",
          "type": "address"
        },
        {
          "internalType": "address",
          "name": "inbound_tkn",
          "type": "address"
        }
      ],
      "name": "offersOfOwner",
      "outputs": [
        {
          "internalType": "uint256[]",
          "name": "live",
          "type": "uint256[]"
        },
        {
          "internalType": "uint256[]",
          "name": "dead",
          "type": "uint256[]"
        }
      ],
      "stateMutability": "view",
      "type": "function"
    },
    {
      "inputs": [
        {
          "internalType": "address",
          "name": "outbound_tkn",
          "type": "address"
        },
        {
          "internalType": "address",
          "name": "inbound_tkn",
          "type": "address"
        },
        {
          "internalType": "uint256",
          "name": "offerId",
          "type": "uint256"
        }
      ],
      "name": "ownerOf",
      "outputs": [
        {
          "internalType": "address",
          "name": "owner",
          "type": "address"
        }
      ],
      "stateMutability": "view",
      "type": "function"
    },
    {
      "inputs": [
        {
          "internalType": "address",
          "name": "token",
          "type": "address"
        },
        {
          "internalType": "address",
          "name": "receiver",
          "type": "address"
        },
        {
          "internalType": "uint256",
          "name": "amount",
          "type": "uint256"
        }
      ],
      "name": "redeemToken",
      "outputs": [
        {
          "internalType": "bool",
          "name": "success",
          "type": "bool"
        }
      ],
      "stateMutability": "nonpayable",
      "type": "function"
    },
    {
      "inputs": [
        {
          "internalType": "address",
          "name": "outbound_tkn",
          "type": "address"
        },
        {
          "internalType": "address",
          "name": "inbound_tkn",
          "type": "address"
        },
        {
          "internalType": "uint256",
          "name": "offerId",
          "type": "uint256"
        },
        {
          "internalType": "bool",
          "name": "deprovision",
          "type": "bool"
        }
      ],
      "name": "retractOffer",
      "outputs": [
        {
          "internalType": "uint256",
          "name": "received",
          "type": "uint256"
        }
      ],
      "stateMutability": "nonpayable",
      "type": "function"
    },
    {
      "inputs": [
        {
          "internalType": "address",
          "name": "_admin",
          "type": "address"
        }
      ],
      "name": "setAdmin",
      "outputs": [],
      "stateMutability": "nonpayable",
      "type": "function"
    },
    {
      "inputs": [
        {
          "internalType": "uint256",
          "name": "gasreq",
          "type": "uint256"
        }
      ],
      "name": "setGasreq",
      "outputs": [],
      "stateMutability": "nonpayable",
      "type": "function"
    },
    {
      "inputs": [
        {
          "components": [
            {
              "internalType": "address",
              "name": "base",
              "type": "address"
            },
            {
              "internalType": "address",
              "name": "quote",
              "type": "address"
            },
            {
              "internalType": "bool",
              "name": "partialFillNotAllowed",
              "type": "bool"
            },
            {
              "internalType": "bool",
              "name": "selling",
              "type": "bool"
            },
            {
              "internalType": "uint256",
              "name": "wants",
              "type": "uint256"
            },
            {
              "internalType": "uint256",
              "name": "gives",
              "type": "uint256"
            },
            {
              "internalType": "bool",
              "name": "restingOrder",
              "type": "bool"
            },
            {
              "internalType": "uint256",
              "name": "retryNumber",
              "type": "uint256"
            },
            {
              "internalType": "uint256",
              "name": "gasForMarketOrder",
              "type": "uint256"
            },
            {
              "internalType": "uint256",
              "name": "blocksToLiveForRestingOrder",
              "type": "uint256"
            }
          ],
          "internalType": "struct IOrderLogic.TakerOrder",
          "name": "tko",
          "type": "tuple"
        }
      ],
      "name": "take",
      "outputs": [
        {
          "components": [
            {
              "internalType": "uint256",
              "name": "takerGot",
              "type": "uint256"
            },
            {
              "internalType": "uint256",
              "name": "takerGave",
              "type": "uint256"
            },
            {
              "internalType": "uint256",
              "name": "bounty",
              "type": "uint256"
            },
            {
              "internalType": "uint256",
              "name": "offerId",
              "type": "uint256"
            }
          ],
          "internalType": "struct IOrderLogic.TakerOrderResult",
          "name": "res",
          "type": "tuple"
        }
      ],
      "stateMutability": "payable",
      "type": "function"
    },
    {
      "inputs": [
        {
          "internalType": "address",
          "name": "token",
          "type": "address"
        },
        {
          "internalType": "address",
          "name": "owner",
          "type": "address"
        }
      ],
      "name": "tokenBalance",
      "outputs": [
        {
          "internalType": "uint256",
          "name": "",
          "type": "uint256"
        }
      ],
      "stateMutability": "view",
      "type": "function"
    },
    {
      "inputs": [
        {
          "internalType": "address",
          "name": "",
          "type": "address"
        },
        {
          "internalType": "address",
          "name": "",
          "type": "address"
        }
      ],
      "name": "tokenBalanceOf",
      "outputs": [
        {
          "internalType": "uint256",
          "name": "",
          "type": "uint256"
        }
      ],
      "stateMutability": "view",
      "type": "function"
    },
    {
      "inputs": [
        {
          "internalType": "address",
          "name": "outbound_tkn",
          "type": "address"
        },
        {
          "internalType": "address",
          "name": "inbound_tkn",
          "type": "address"
        },
        {
          "internalType": "uint256",
          "name": "wants",
          "type": "uint256"
        },
        {
          "internalType": "uint256",
          "name": "gives",
          "type": "uint256"
        },
        {
          "internalType": "uint256",
          "name": "gasreq",
          "type": "uint256"
        },
        {
          "internalType": "uint256",
          "name": "gasprice",
          "type": "uint256"
        },
        {
          "internalType": "uint256",
          "name": "pivotId",
          "type": "uint256"
        },
        {
          "internalType": "uint256",
          "name": "offerId",
          "type": "uint256"
        }
      ],
      "name": "updateOffer",
      "outputs": [],
      "stateMutability": "payable",
      "type": "function"
    },
    {
      "inputs": [
        {
          "internalType": "address payable",
          "name": "receiver",
          "type": "address"
        },
        {
          "internalType": "uint256",
          "name": "amount",
          "type": "uint256"
        }
      ],
      "name": "withdrawFromMangrove",
      "outputs": [
        {
          "internalType": "bool",
          "name": "noRevert",
          "type": "bool"
        }
      ],
      "stateMutability": "nonpayable",
      "type": "function"
    },
    {
      "stateMutability": "payable",
      "type": "receive"
    }
  ],
  "bytecode": "0x6101006040527f6d67764f666665722f61626f72742f72656e65676564000000000000000000006080527f6d67764f666665722f61626f72742f7075744661696c6564000000000000000060a0527f6d67764f666665722f61626f72742f6765744661696c6564000000000000000060c052620186a06001553480156200008557600080fd5b50604051620046cf380380620046cf833981016040819052620000a89162000150565b81818181806001600160a01b038116620001085760405162461bcd60e51b815260206004820152601860248201527f616363657373436f6e74726f6c6c65642f307841646d696e0000000000000000604482015260640160405180910390fd5b600080546001600160a01b0319166001600160a01b039283161790559190911660e052506200018f9350505050565b6001600160a01b03811681146200014d57600080fd5b50565b600080604083850312156200016457600080fd5b8251620001718162000137565b6020840151909250620001848162000137565b809150509250929050565b60805160a05160c05160e05161447a62000255600039600081816104c0015281816109e801528181610b4001528181610d5c01528181610edd015281816110dc01528181611347015281816113e50152818161190c015281816122eb01528181612762015281816128430152818161297801528181612a6801528181612d7401528181612e3a01528181612ef60152818161304301528181613140015281816132a7015261370801526000610458015260006103d10152600061048c015261447a6000f3fe6080604052600436106101bb5760003560e01c8063704b6c02116100ec578063df2426671161008a578063f851a44011610064578063f851a440146105cc578063f92495e5146105ec578063faa030ec1461060c578063ff10c0dc1461061457600080fd5b8063df24266714610569578063e428204d14610596578063e4c34f84146105ac57600080fd5b806399fa5e2d116100c657806399fa5e2d146104ae578063ad97db1b146104fa578063aefe84031461051a578063d19711591461053a57600080fd5b8063704b6c02146104265780637f7a1b991461044657806389dbacfe1461047a57600080fd5b806337b966bf116101595780634e7effa8116101335780634e7effa814610381578063572e59e3146103bf5780636a4f7691146103f35780636c49c32c1461040657600080fd5b806337b966bf146103205780633d3d130d1461034e57806349f6d2dc1461036e57600080fd5b80631bea8006116101955780631bea800614610270578063338b5dea146102a857806334bd8931146102c857806335d61cb2146102ea57600080fd5b8063063df2d2146101c75780630d71bdc3146101fc5780631049334f1461021c57600080fd5b366101c257005b600080fd5b3480156101d357600080fd5b506101e76101e236600461398e565b61065a565b60405190151581526020015b60405180910390f35b34801561020857600080fd5b506101e76102173660046139ba565b6106ce565b34801561022857600080fd5b506102626102373660046139fb565b6001600160a01b03918216600090815260046020908152604080832093909416825291909152205490565b6040519081526020016101f3565b34801561027c57600080fd5b5061026261028b3660046139fb565b600460209081526000928352604080842090915290825290205481565b3480156102b457600080fd5b506101e76102c336600461398e565b6107bf565b3480156102d457600080fd5b506102e86102e3366004613a34565b6109c9565b005b3480156102f657600080fd5b50610262610305366004613a4d565b6001600160a01b031660009081526003602052604090205490565b34801561032c57600080fd5b5061034061033b366004613a6a565b610aaf565b6040516101f3929190613af0565b34801561035a57600080fd5b506102e8610369366004613b28565b610edb565b61026261037c366004613b88565b611020565b34801561038d57600080fd5b5061026261039c3660046139ba565b600560209081526000938452604080852082529284528284209052825290205481565b3480156103cb57600080fd5b506102627f000000000000000000000000000000000000000000000000000000000000000081565b6102e8610401366004613bea565b61108f565b34801561041257600080fd5b50610262610421366004613c55565b6110d8565b34801561043257600080fd5b506102e8610441366004613a4d565b61127c565b34801561045257600080fd5b506102627f000000000000000000000000000000000000000000000000000000000000000081565b34801561048657600080fd5b506102627f000000000000000000000000000000000000000000000000000000000000000081565b3480156104ba57600080fd5b506104e27f000000000000000000000000000000000000000000000000000000000000000081565b6040516001600160a01b0390911681526020016101f3565b34801561050657600080fd5b50610262610515366004613c80565b611310565b34801561052657600080fd5b506102e861053536600461398e565b611328565b34801561054657600080fd5b5061055a610555366004613cd3565b6114b1565b6040516101f393929190613d2e565b34801561057557600080fd5b50610262610584366004613a4d565b60036020526000908152604090205481565b3480156105a257600080fd5b5061026260015481565b3480156105b857600080fd5b506102626105c7366004613d92565b61163a565b3480156105d857600080fd5b506000546104e2906001600160a01b031681565b3480156105f857600080fd5b506104e26106073660046139ba565b611685565b6102e8611709565b610627610622366004613de3565b611765565b6040516101f391908151815260208083015190820152604080830151908201526060918201519181019190915260800190565b6000333014156106b15760405162461bcd60e51b815260206004820152601260248201527f4d75746c692f6e6f5265656e7472616e6379000000000000000000000000000060448201526064015b60405180910390fd5b6106bb33836121e1565b6106c583836122b9565b90505b92915050565b6000333014156107205760405162461bcd60e51b815260206004820152601260248201527f4d75746c692f6e6f5265656e7472616e6379000000000000000000000000000060448201526064016106a8565b61072b84338461241e565b6040517fa9059cbb0000000000000000000000000000000000000000000000000000000081526001600160a01b0384811660048301526024820184905285169063a9059cbb906044016020604051808303816000875af1158015610793573d6000803e3d6000fd5b505050506040513d601f19601f820116820180604052508101906107b79190613df6565b949350505050565b6040517f70a0823100000000000000000000000000000000000000000000000000000000815230600482015260009081906001600160a01b038516906370a0823190602401602060405180830381865afa158015610821573d6000803e3d6000fd5b505050506040513d601f19601f820116820180604052508101906108459190613e13565b6040517f23b872dd000000000000000000000000000000000000000000000000000000008152336004820152306024820152604481018590529091506001600160a01b038516906323b872dd906064016020604051808303816000875af11580156108b4573d6000803e3d6000fd5b505050506040513d601f19601f820116820180604052508101906108d89190613df6565b6040517f70a08231000000000000000000000000000000000000000000000000000000008152306004820152909250839082906001600160a01b038716906370a0823190602401602060405180830381865afa15801561093c573d6000803e3d6000fd5b505050506040513d601f19601f820116820180604052508101906109609190613e13565b61096a9190613e5b565b146109b75760405162461bcd60e51b815260206004820152601260248201527f4d756c74692f7472616e736665724661696c000000000000000000000000000060448201526064016106a8565b6109c284338561252d565b5092915050565b6000546001600160a01b0316331480610a0a5750336001600160a01b037f000000000000000000000000000000000000000000000000000000000000000016145b610a565760405162461bcd60e51b815260206004820152601860248201527f416363657373436f6e74726f6c6c65642f496e76616c6964000000000000000060448201526064016106a8565b808162ffffff1614610aaa5760405162461bcd60e51b815260206004820152601860248201527f6d67764f666665722f6761737265712f6f766572666c6f77000000000000000060448201526064016106a8565b600155565b6001600160a01b0380831660009081526006602090815260408083208585168452825280832093871683529281528282208280529052908120546060918291908190805b8215610c79576040517f68c13d6b0000000000000000000000000000000000000000000000000000000081526001600160a01b0389811660048301528881166024830152604482018590527f0000000000000000000000000000000000000000000000000000000000000000169063275074589082906368c13d6b90606401602060405180830381865afa158015610b8f573d6000803e3d6000fd5b505050506040513d601f19601f82011682018060405250810190610bb39190613e13565b6040518263ffffffff1660e01b8152600401610bd191815260200190565b602060405180830381865afa158015610bee573d6000803e3d6000fd5b505050506040513d601f19601f82011682018060405250810190610c129190613df6565b15610c295781610c2181613e72565b925050610c37565b80610c3381613e72565b9150505b6001600160a01b0380891660009081526006602090815260408083208b851684528252808320938d168352928152828220958252949094529092205491610af3565b8167ffffffffffffffff811115610c9257610c92613eab565b604051908082528060200260200182016040528015610cbb578160200160208202803683370190505b5095508067ffffffffffffffff811115610cd757610cd7613eab565b604051908082528060200260200182016040528015610d00578160200160208202803683370190505b50945083925060009150600090505b8215610ecf576040517f68c13d6b0000000000000000000000000000000000000000000000000000000081526001600160a01b0389811660048301528881166024830152604482018590527f0000000000000000000000000000000000000000000000000000000000000000169063275074589082906368c13d6b90606401602060405180830381865afa158015610dab573d6000803e3d6000fd5b505050506040513d601f19601f82011682018060405250810190610dcf9190613e13565b6040518263ffffffff1660e01b8152600401610ded91815260200190565b602060405180830381865afa158015610e0a573d6000803e3d6000fd5b505050506040513d601f19601f82011682018060405250810190610e2e9190613df6565b15610e6257828683610e3f81613e72565b945081518110610e5157610e51613eda565b602002602001018181525050610e8d565b828582610e6e81613e72565b935081518110610e8057610e80613eda565b6020026020010181815250505b6001600160a01b0380891660009081526006602090815260408083208b851684528252808320938d168352928152828220958252949094529092205491610d0f565b50505050935093915050565b7f00000000000000000000000000000000000000000000000000000000000000006001600160a01b0381161580610f1a5750336001600160a01b038216145b610f665760405162461bcd60e51b815260206004820152601860248201527f416363657373436f6e74726f6c6c65642f496e76616c6964000000000000000060448201526064016106a8565b81602001357f6d67762f747261646553756363657373000000000000000000000000000000001415610fa157610f9b836125b0565b50505050565b60408301803590610fb59060208601613a4d565b6001600160a01b0316610fcb6020860186613a4d565b6001600160a01b03167fd2c3f090769d843e1fc2e6ce65d60572e28f9163a5cfccbd6c1725c6a9263f2f856000013560405161100991815260200190565b60405180910390a4610f9b83836126ee565b505050565b6000333014156110725760405162461bcd60e51b815260206004820152601260248201527f4d75746c692f6e6f5265656e7472616e6379000000000000000000000000000060448201526064016106a8565b611083888888888888883334612727565b98975050505050505050565b6000806110a48a8a8a8a8a8a8a8a33346128d8565b915091506000821181906110cb5760405162461bcd60e51b81526004016106a89190613f35565b5050505050505050505050565b60007f00000000000000000000000000000000000000000000000000000000000000006001600160a01b03811615806111195750336001600160a01b038216145b6111655760405162461bcd60e51b815260206004820152601860248201527f416363657373436f6e74726f6c6c65642f496e76616c6964000000000000000060448201526064016106a8565b61116e83612b33565b6111ba5760405162461bcd60e51b815260206004820152601660248201527f6d67764f666665722f61626f72742f72656e656765640000000000000000000060448201526064016106a8565b60006111ca8460a0013585612bb8565b11156112185760405162461bcd60e51b815260206004820152601860248201527f6d67764f666665722f61626f72742f7075744661696c6564000000000000000060448201526064016106a8565b6000611228846080013585612bfb565b11156112765760405162461bcd60e51b815260206004820152601860248201527f6d67764f666665722f61626f72742f6765744661696c6564000000000000000060448201526064016106a8565b50919050565b6000546001600160a01b031633146112d65760405162461bcd60e51b815260206004820152601860248201527f416363657373436f6e74726f6c6c65642f496e76616c6964000000000000000060448201526064016106a8565b600080547fffffffffffffffffffffffff0000000000000000000000000000000000000000166001600160a01b0392909216919091179055565b600061131f8585858533612ca2565b95945050505050565b6000546001600160a01b03163314806113695750336001600160a01b037f000000000000000000000000000000000000000000000000000000000000000016145b6113b55760405162461bcd60e51b815260206004820152601860248201527f416363657373436f6e74726f6c6c65642f496e76616c6964000000000000000060448201526064016106a8565b6040517f095ea7b30000000000000000000000000000000000000000000000000000000081526001600160a01b037f0000000000000000000000000000000000000000000000000000000000000000811660048301526024820183905283169063095ea7b3906044016020604051808303816000875af115801561143d573d6000803e3d6000fd5b505050506040513d601f19601f820116820180604052508101906114619190613df6565b6114ad5760405162461bcd60e51b815260206004820152601560248201527f6d67764f666665722f617070726f76652f4661696c000000000000000000000060448201526064016106a8565b5050565b6040517f2c7e545f0000000000000000000000000000000000000000000000000000000081526001600160a01b03858116600483015284811660248301526044820184905260648201839052600091606091829190891690632c7e545f90608401600060405180830381865afa15801561152f573d6000803e3d6000fd5b505050506040513d6000823e601f3d9081017fffffffffffffffffffffffffffffffffffffffffffffffffffffffffffffffe01682016040526115759190810190614170565b50508051919450925067ffffffffffffffff81111561159657611596613eab565b6040519080825280602002602001820160405280156115bf578160200160208202803683370190505b50905060005b825181101561162e576115f288888584815181106115e5576115e5613eda565b6020026020010151611685565b82828151811061160457611604613eda565b6001600160a01b03909216602092830291909101909101528061162681613e72565b9150506115c5565b50955095509592505050565b600080821561166c576000611650888886611685565b6001600160a01b03166000908152600360205260409020549150505b61167a818888888888612df3565b979650505050505050565b6001600160a01b0380841660009081526002602090815260408083208685168452825280832085845290915290205416806117025760405162461bcd60e51b815260206004820152601560248201527f6d756c7469557365722f756e6b6f776e4f66666572000000000000000000000060448201526064016106a8565b9392505050565b333014156117595760405162461bcd60e51b815260206004820152601260248201527f4d75746c692f6e6f5265656e7472616e6379000000000000000000000000000060448201526064016106a8565b6117633334613041565b565b6117906040518060800160405280600081526020016000815260200160008152602001600081525090565b6000806117a36080850160608601614265565b6117c9576117b46020850185613a4d565b6117c46040860160208701613a4d565b6117e6565b6117d96040850160208601613a4d565b6117e66020860186613a4d565b6040517f23b872dd00000000000000000000000000000000000000000000000000000000815233600482015230602482015260a0870135604482015291935091506001600160a01b038216906323b872dd906064016020604051808303816000875af115801561185a573d6000803e3d6000fd5b505050506040513d601f19601f8201168201806040525081019061187e9190613df6565b6118ca5760405162461bcd60e51b815260206004820152601a60248201527f6d67764f726465722f6d6f2f7472616e73666572496e4661696c00000000000060448201526064016106a8565b60005b6118dc60e08601356001614282565b811015611a7d57610100850135158015906118fb57508461010001355a105b1561190557611a7d565b60008060007f00000000000000000000000000000000000000000000000000000000000000006001600160a01b031663fbffe5fd87878b608001358c60a001358d60600160208101906119589190614265565b611963576001611966565b60005b6040517fffffffff0000000000000000000000000000000000000000000000000000000060e088901b1681526001600160a01b039586166004820152949093166024850152604484019190915260648301521515608482015260a4016060604051808303816000875af11580156119e1573d6000803e3d6000fd5b505050506040513d601f19601f82011682018060405250810190611a05919061429a565b9250925092508287600001818151611a1d9190614282565b905250602087018051839190611a34908390614282565b905250604087018051829190611a4b908390614282565b90525082158015611a5a575080155b15611a6757505050611a7d565b5050508080611a7590613e72565b9150506118cd565b506000611a8c838387876130bf565b9050611a9e6060860160408701614265565b1580611aa75750805b80611abd5750611abd60e0860160c08701614265565b611b095760405162461bcd60e51b815260206004820152601960248201527f6d67764f726465722f6d6f2f6e6f5061727469616c46696c6c0000000000000060448201526064016106a8565b835115611be95783516040517fa9059cbb00000000000000000000000000000000000000000000000000000000815233600482015260248101919091526001600160a01b0384169063a9059cbb906044016020604051808303816000875af1158015611b79573d6000803e3d6000fd5b505050506040513d601f19601f82011682018060405250810190611b9d9190613df6565b611be95760405162461bcd60e51b815260206004820152601b60248201527f6d67764f726465722f6d6f2f7472616e736665724f75744661696c000000000060448201526064016106a8565b611bf960e0860160c08701614265565b8015611c03575080155b15611f8b57611c41828486600001518860800135611c219190613e5b565b6020880151611c349060a08b0135613e5b565b6001546000803334612727565b60608501819052611c57903390849086906131ee565b33611c686040870160208801613a4d565b6001600160a01b0316611c7e6020880188613a4d565b6001600160a01b03167fab3ed3392e9579b676d21e1dda5b7d68388430686d83b9fe1bd66032e1e030ad611cb860808a0160608b01614265565b88516020808b01516040808d01516060808f0151835197151588529487019590955285820192909252928401526080830152519081900360a00190a46060840151611f1957611d0d6060860160408701614265565b15611d5a5760405162461bcd60e51b815260206004820152601960248201527f6d67764f726465722f6d6f2f6e6f5061727469616c46696c6c0000000000000060448201526064016106a8565b816001600160a01b031663a9059cbb3386602001518860a00135611d7e9190613e5b565b6040517fffffffff0000000000000000000000000000000000000000000000000000000060e085901b1681526001600160a01b03909216600483015260248201526044016020604051808303816000875af1158015611de1573d6000803e3d6000fd5b505050506040513d601f19601f82011682018060405250810190611e059190613df6565b611e515760405162461bcd60e51b815260206004820152601a60248201527f6d67764f726465722f6d6f2f7472616e73666572496e4661696c00000000000060448201526064016106a8565b6000846040015134611e639190614282565b1115611f115760408401516000903390611e7d9034614282565b604051600081818185875af1925050503d8060008114611eb9576040519150601f19603f3d011682016040523d82523d6000602084013e611ebe565b606091505b5050905080611f0f5760405162461bcd60e51b815260206004820152601f60248201527f6d67764f726465722f6d6f2f726566756e6450726f766973696f6e4661696c0060448201526064016106a8565b505b505050919050565b611f37823386602001518860a00135611f329190613e5b565b61252d565b61012085013515611f1157611f5161012086013543614282565b6001600160a01b03808416600090815260056020908152604080832093881683529281528282206060890151835290522055505050919050565b816001600160a01b031663a9059cbb3386602001518860a00135611faf9190613e5b565b6040517fffffffff0000000000000000000000000000000000000000000000000000000060e085901b1681526001600160a01b03909216600483015260248201526044016020604051808303816000875af1158015612012573d6000803e3d6000fd5b505050506040513d601f19601f820116820180604052508101906120369190613df6565b6120825760405162461bcd60e51b815260206004820152601a60248201527f6d67764f726465722f6d6f2f7472616e73666572496e4661696c00000000000060448201526064016106a8565b60008460400151346120949190614282565b111561214257604084015160009033906120ae9034614282565b604051600081818185875af1925050503d80600081146120ea576040519150601f19603f3d011682016040523d82523d6000602084013e6120ef565b606091505b50509050806121405760405162461bcd60e51b815260206004820152601660248201527f6d67764f726465722f6d6f2f726566756e644661696c0000000000000000000060448201526064016106a8565b505b336121536040870160208801613a4d565b6001600160a01b03166121696020880188613a4d565b6001600160a01b03167fab3ed3392e9579b676d21e1dda5b7d68388430686d83b9fe1bd66032e1e030ad6121a360808a0160608b01614265565b88516020808b01516040808d0151815195151586529285019390935283830152606083015260006080830152519081900360a00190a4505050919050565b6001600160a01b0382166000908152600360205260409020548111156122495760405162461bcd60e51b815260206004820152601d60248201527f4d756c74692f64656269744f6e4d67762f696e73756666696369656e7400000060448201526064016106a8565b6001600160a01b03821660009081526003602052604081208054839290612271908490613e5b565b90915550506040518181526001600160a01b038316907fd50b865b3d9d927f026d3b8404e07f25d6beb1d111deab51bdc846bf8d0a860b906020015b60405180910390a25050565b6040517f2e1a7d4d000000000000000000000000000000000000000000000000000000008152600481018290526000907f00000000000000000000000000000000000000000000000000000000000000006001600160a01b031690632e1a7d4d906024016020604051808303816000875af115801561233c573d6000803e3d6000fd5b505050506040513d601f19601f820116820180604052508101906123609190613df6565b6123ac5760405162461bcd60e51b815260206004820152601e60248201527f6d67764f666665722f77697468647261772f7472616e736665724661696c000060448201526064016106a8565b6001600160a01b0383163014612415576040516001600160a01b038416908390600081818185875af1925050503d8060008114612405576040519150601f19603f3d011682016040523d82523d6000602084013e61240a565b606091505b5050809150506106c8565b50600192915050565b8061242857505050565b6001600160a01b0380841660009081526004602090815260408083209386168352929052205481111561249d5760405162461bcd60e51b815260206004820152601d60248201527f4d756c74692f6465626974546f6b656e2f696e73756666696369656e7400000060448201526064016106a8565b6001600160a01b038084166000908152600460209081526040808320938616835292905290812080548392906124d4908490613e5b565b92505081905550826001600160a01b0316826001600160a01b03167f7a97b405ee1bd89550b225932dbdd0431e30426b7c8f02f05b3cb0e1bdfb84768360405161252091815260200190565b60405180910390a3505050565b6001600160a01b03808416600090815260046020908152604080832093861683529290529081208054839290612564908490614282565b92505081905550826001600160a01b0316826001600160a01b03167fb2b1ec266d1bab793ae1d020eedf03e575cc390e5fb9e370cb099fdf2f61534d8360405161252091815260200190565b60006125bb82613273565b156125c857506001919050565b60006125f46125da6020850185613a4d565b6125ea6040860160208701613a4d565b8560400135611685565b9050612600838261341d565b61260d5750600092915050565b6001600160a01b0381166000908152600360205260409020546126319082906121e1565b6001600160a01b0381166000908152600360205260409020546126559082906122b9565b612415576040830180359061266d9060208601613a4d565b6001600160a01b03166126836020860186613a4d565b6001600160a01b03167fd2c3f090769d843e1fc2e6ce65d60572e28f9163a5cfccbd6c1725c6a9263f2f6040516126dd907f6d67764f726465722f706f7374686f6f6b2f7472616e73666572576569000000815260200190565b60405180910390a450600092915050565b60008061271b6127016020860186613a4d565b6127116040870160208801613a4d565b8660400135611685565b90506107b7848261341d565b6040517f70a0823100000000000000000000000000000000000000000000000000000000815230600482015260009081906001600160a01b037f000000000000000000000000000000000000000000000000000000000000000016906370a0823190602401602060405180830381865afa1580156127a9573d6000803e3d6000fd5b505050506040513d601f19601f820116820180604052508101906127cd9190613e13565b905062ffffff8711156127e05760015496505b6040517f49f6d2dc0000000000000000000000000000000000000000000000000000000081526001600160a01b038c811660048301528b81166024830152604482018b9052606482018a90526084820189905260a4820188905260c482018790527f000000000000000000000000000000000000000000000000000000000000000016906349f6d2dc90859060e40160206040518083038185885af115801561288d573d6000803e3d6000fd5b50505050506040513d601f19601f820116820180604052508101906128b29190613e13565b91506128c08b8b8487613640565b6128ca84826136d7565b509998505050505050505050565b600060606128e78c8c87611685565b6001600160a01b0316846001600160a01b0316146129475760405162461bcd60e51b815260206004820152601e60248201527f4d756c74692f7570646174654f666665722f756e617574686f72697a6564000060448201526064016106a8565b6040517f70a082310000000000000000000000000000000000000000000000000000000081523060048201526000907f00000000000000000000000000000000000000000000000000000000000000006001600160a01b0316906370a0823190602401602060405180830381865afa1580156129c7573d6000803e3d6000fd5b505050506040513d601f19601f820116820180604052508101906129eb9190613e13565b905062ffffff8911156129fe5760015498505b6040517f6a4f76910000000000000000000000000000000000000000000000000000000081526001600160a01b038e811660048301528d81166024830152604482018d9052606482018c9052608482018b905260a482018a905260c4820189905260e482018890527f00000000000000000000000000000000000000000000000000000000000000001690636a4f7691908690610104016000604051808303818588803b158015612aae57600080fd5b505af193505050508015612ac0575060015b612b0557612acc6142c8565b806308c379a01415612af95750612ae16142e4565b80612aec5750612afb565b600093509150612b249050565b505b3d6000803e3d6000fd5b612b0f85826136d7565b50506040805160208101909152600081528491505b9a509a98505050505050505050565b600080600581612b466020860186613a4d565b6001600160a01b03166001600160a01b031681526020019081526020016000206000846020016020810190612b7b9190613a4d565b6001600160a01b03168152602080820192909252604090810160009081208683013582529092529020549050801580611702575043111592915050565b600080612bcb6125da6020850185613a4d565b9050612be7612be06040850160208601613a4d565b82866137b8565b612bf157836107b7565b5060009392505050565b600080612c0e6125da6020850185613a4d565b90506000600481612c226020870187613a4d565b6001600160a01b0390811682526020808301939093526040918201600090812091861681529252902054905084811015612c8057612c6d612c666020860186613a4d565b838361241e565b612c778186613e5b565b925050506106c8565b612c97612c906020860186613a4d565b838761241e565b6000925050506106c8565b6001600160a01b038581166000908152600260209081526040808320888516845282528083208784529091528120549091838116911614612d255760405162461bcd60e51b815260206004820152601f60248201527f4d756c74692f726574726163744f666665722f756e617574686f72697a65640060448201526064016106a8565b6040517fad97db1b0000000000000000000000000000000000000000000000000000000081526001600160a01b03878116600483015286811660248301526044820186905284151560648301527f0000000000000000000000000000000000000000000000000000000000000000169063ad97db1b906084016020604051808303816000875af1158015612dbd573d6000803e3d6000fd5b505050506040513d601f19601f82011682018060405250810190612de19190613e13565b9050801561131f5761131f82826138c7565b6040517fcbf75c9a0000000000000000000000000000000000000000000000000000000081526001600160a01b0386811660048301528581166024830152600091829182917f00000000000000000000000000000000000000000000000000000000000000009091169063cbf75c9a906044016040805180830381865afa158015612e82573d6000803e3d6000fd5b505050506040513d601f19601f82011682018060405250810190612ea6919061438c565b6040517f5722647b0000000000000000000000000000000000000000000000000000000081526001600160a01b038b811660048301528a81166024830152604482018890529294509092506000917f00000000000000000000000000000000000000000000000000000000000000001690635722647b90606401602060405180830381865afa158015612f3d573d6000803e3d6000fd5b505050506040513d601f19601f82011682018060405250810190612f619190613e13565b9050600086604085901c61ffff161115612f84575061ffff604084901c16612f87565b50855b62ffffff881115612f985760015497505b600081612fae62ffffff606087901c168b614282565b612fb891906143b0565b612fc690633b9aca006143b0565b9050600061ffff602085901c16612fed62ffffff603087901c811690604888901c16614282565b612ff791906143b0565b61300590633b9aca006143b0565b905060006130138e83614282565b90508281101561302c576130278184613e5b565b61302f565b60005b9e9d5050505050505050505050505050565b7f00000000000000000000000000000000000000000000000000000000000000006001600160a01b031663b60d4288826040518263ffffffff1660e01b81526004016000604051808303818588803b15801561309c57600080fd5b505af11580156130b0573d6000803e3d6000fd5b50505050506114ad82826138c7565b60006130d16080840160608501614265565b156130e9578260a001358260200151101590506107b7565b6130f96080840160608501614265565b6107b7576040517fcbf75c9a0000000000000000000000000000000000000000000000000000000081526001600160a01b03868116600483015285811660248301526000917f00000000000000000000000000000000000000000000000000000000000000009091169063cbf75c9a906044016040805180830381865afa158015613188573d6000803e3d6000fd5b505050506040513d601f19601f820116820180604052508101906131ac919061438c565b915061271090506131c961ffff60e884901c1660808701356143b0565b6131d391906143ed565b6131e1906080860135613e5b565b8351101591506107b79050565b6001600160a01b038381166000908152600660209081526040808320868516845282528083209388168352928152828220828052905220805490829055801561326c576001600160a01b0380851660009081526006602090815260408083208785168452825280832093891683529281528282208583529052208190555b5050505050565b60008061327f8361392f565b9050600061328c84613954565b90508161329d575060019392505050565b6001600160a01b037f000000000000000000000000000000000000000000000000000000000000000016636a4f76916132d96020870187613a4d565b6132e96040880160208901613a4d565b848660c08a013560481c62ffffff1660c08b013560201c61ffff1660608c013560c01c63ffffffff16604080517fffffffff0000000000000000000000000000000000000000000000000000000060e08b901b1681526001600160a01b03988916600482015297909616602488015260448701949094526064860192909252608485015260a484015260c483015287013560e482015261010401600060405180830381600087803b15801561339d57600080fd5b505af19250505080156133ae575060015b613413576134086133c26020860186613a4d565b6133d26040870160208801613a4d565b604087013560016134036133e960208b018b613a4d565b6133f960408c0160208d01613a4d565b8b60400135611685565b612ca2565b506000949350505050565b5060019392505050565b6000806004816134306020870187613a4d565b6001600160a01b039081168252602080830193909352604091820160009081209187168152908352205491506134739061346c90860186613a4d565b84836137b8565b61350d576040840180359061348b9060208701613a4d565b6001600160a01b03166134a16020870187613a4d565b6001600160a01b03167fd2c3f090769d843e1fc2e6ce65d60572e28f9163a5cfccbd6c1725c6a9263f2f6040516134fb907f6d67764f726465722f72656465656d416c6c2f7472616e736665724f75740000815260200190565b60405180910390a460009150506106c8565b61352461351d6020860186613a4d565b848361241e565b60006004816135396040880160208901613a4d565b6001600160a01b03908116825260208083019390935260409182016000908120918816815290835281902054925061358091613579918801908801613a4d565b85836137b8565b61361b57604085018035906135989060208801613a4d565b6001600160a01b03166135ae6020880188613a4d565b6001600160a01b03167fd2c3f090769d843e1fc2e6ce65d60572e28f9163a5cfccbd6c1725c6a9263f2f604051613608907f6d67764f726465722f72656465656d416c6c2f7472616e73666572496e000000815260200190565b60405180910390a46000925050506106c8565b61363561362e6040870160208801613a4d565b858361241e565b506001949350505050565b6001600160a01b03848116600081815260026020908152604080832088861680855290835281842088855283529281902080547fffffffffffffffffffffffff00000000000000000000000000000000000000001695871695861790555193845285939192917fabf04a4ce23225c02bd147297da7ffc10e7d29102d8678f1a63fdd2cfd71ff07910160405180910390a450505050565b6040517f70a082310000000000000000000000000000000000000000000000000000000081523060048201526000907f00000000000000000000000000000000000000000000000000000000000000006001600160a01b0316906370a0823190602401602060405180830381865afa158015613757573d6000803e3d6000fd5b505050506040513d601f19601f8201168201806040525081019061377b9190613e13565b90508181141561378a57505050565b818111156137a55761101b836137a08484613e5b565b6138c7565b61101b836137b38385613e5b565b6121e1565b6000816137c757506001611702565b604080516001600160a01b038581166024830152604480830186905283518084039091018152606490920183526020820180517bffffffffffffffffffffffffffffffffffffffffffffffffffffffff167fa9059cbb0000000000000000000000000000000000000000000000000000000017905291516000928392908816916138519190614428565b6000604051808303816000865af19150503d806000811461388e576040519150601f19603f3d011682016040523d82523d6000602084013e613893565b606091505b50915091508180156138bd5750805115806138bd5750808060200190518101906138bd9190613df6565b9695505050505050565b6001600160a01b038216600090815260036020526040812080548392906138ef908490614282565b90915550506040518181526001600160a01b038316907f2022607feefe24f258126b277628af517f5512dd9499fb3520eeff54cad13703906020016122ad565b600060808201356bffffffffffffffffffffffff6060840135165b6106c89190613e5b565b600060a0820135606080840135901c6bffffffffffffffffffffffff1661394a565b6001600160a01b038116811461398b57600080fd5b50565b600080604083850312156139a157600080fd5b82356139ac81613976565b946020939093013593505050565b6000806000606084860312156139cf57600080fd5b83356139da81613976565b925060208401356139ea81613976565b929592945050506040919091013590565b60008060408385031215613a0e57600080fd5b8235613a1981613976565b91506020830135613a2981613976565b809150509250929050565b600060208284031215613a4657600080fd5b5035919050565b600060208284031215613a5f57600080fd5b813561170281613976565b600080600060608486031215613a7f57600080fd5b8335613a8a81613976565b92506020840135613a9a81613976565b91506040840135613aaa81613976565b809150509250925092565b600081518084526020808501945080840160005b83811015613ae557815187529582019590820190600101613ac9565b509495945050505050565b604081526000613b036040830185613ab5565b828103602084015261131f8185613ab5565b6000610120828403121561127657600080fd5b600080828403610160811215613b3d57600080fd5b613b478585613b15565b925060407ffffffffffffffffffffffffffffffffffffffffffffffffffffffffffffffee082011215613b7957600080fd5b50610120830190509250929050565b600080600080600080600060e0888a031215613ba357600080fd5b8735613bae81613976565b96506020880135613bbe81613976565b96999698505050506040850135946060810135946080820135945060a0820135935060c0909101359150565b600080600080600080600080610100898b031215613c0757600080fd5b8835613c1281613976565b97506020890135613c2281613976565b979a9799505050506040860135956060810135956080820135955060a0820135945060c0820135935060e0909101359150565b60006101208284031215613c6857600080fd5b6106c58383613b15565b801515811461398b57600080fd5b60008060008060808587031215613c9657600080fd5b8435613ca181613976565b93506020850135613cb181613976565b9250604085013591506060850135613cc881613c72565b939692955090935050565b600080600080600060a08688031215613ceb57600080fd5b8535613cf681613976565b94506020860135613d0681613976565b93506040860135613d1681613976565b94979396509394606081013594506080013592915050565b83815260006020606081840152613d486060840186613ab5565b838103604085015284518082528286019183019060005b81811015613d845783516001600160a01b031683529284019291840191600101613d5f565b509098975050505050505050565b600080600080600060a08688031215613daa57600080fd5b8535613db581613976565b94506020860135613dc581613976565b94979496505050506040830135926060810135926080909101359150565b6000610140828403121561127657600080fd5b600060208284031215613e0857600080fd5b815161170281613c72565b600060208284031215613e2557600080fd5b5051919050565b7f4e487b7100000000000000000000000000000000000000000000000000000000600052601160045260246000fd5b600082821015613e6d57613e6d613e2c565b500390565b60007fffffffffffffffffffffffffffffffffffffffffffffffffffffffffffffffff821415613ea457613ea4613e2c565b5060010190565b7f4e487b7100000000000000000000000000000000000000000000000000000000600052604160045260246000fd5b7f4e487b7100000000000000000000000000000000000000000000000000000000600052603260045260246000fd5b60005b83811015613f24578181015183820152602001613f0c565b83811115610f9b5750506000910152565b6020815260008251806020840152613f54816040850160208701613f09565b601f017fffffffffffffffffffffffffffffffffffffffffffffffffffffffffffffffe0169190910160400192915050565b6080810181811067ffffffffffffffff82111715613fa657613fa6613eab565b60405250565b7fffffffffffffffffffffffffffffffffffffffffffffffffffffffffffffffe0601f830116810181811067ffffffffffffffff82111715613ff057613ff0613eab565b6040525050565b600067ffffffffffffffff82111561401157614011613eab565b5060051b60200190565b600082601f83011261402c57600080fd5b8151602061403982613ff7565b604080516140478382613fac565b84815260079490941b860183019383810192508785111561406757600080fd5b8387015b858110156140bb576080818a0312156140845760008081fd5b825161408f81613f86565b81518152858201518682015283820151848201526060808301519082015284529284019260800161406b565b50979650505050505050565b600082601f8301126140d857600080fd5b815160206140e582613ff7565b604080516140f38382613fac565b84815260079490941b860183019383810192508785111561411357600080fd5b8387015b858110156140bb576080818a0312156141305760008081fd5b825161413b81613f86565b815161414681613976565b81528186015186820152838201518482015260608083015190820152845292840192608001614117565b6000806000806080858703121561418657600080fd5b8451935060208086015167ffffffffffffffff808211156141a657600080fd5b818801915088601f8301126141ba57600080fd5b81516141c581613ff7565b6040516141d28282613fac565b82815260059290921b840185019185810191508b8311156141f257600080fd5b938501935b82851015614210578451825293850193908501906141f7565b60408b0151909850945050508083111561422957600080fd5b61423589848a0161401b565b9450606088015192508083111561424b57600080fd5b5050614259878288016140c7565b91505092959194509250565b60006020828403121561427757600080fd5b813561170281613c72565b6000821982111561429557614295613e2c565b500190565b6000806000606084860312156142af57600080fd5b8351925060208401519150604084015190509250925092565b600060033d11156142e15760046000803e5060005160e01c5b90565b600060443d10156142f25790565b6040517ffffffffffffffffffffffffffffffffffffffffffffffffffffffffffffffffc803d016004833e81513d67ffffffffffffffff816024840111818411171561434057505050505090565b82850191508151818111156143585750505050505090565b843d87010160208285010111156143725750505050505090565b61438160208286010187613fac565b509095945050505050565b6000806040838503121561439f57600080fd5b505080516020909101519092909150565b6000817fffffffffffffffffffffffffffffffffffffffffffffffffffffffffffffffff04831182151516156143e8576143e8613e2c565b500290565b600082614423577f4e487b7100000000000000000000000000000000000000000000000000000000600052601260045260246000fd5b500490565b6000825161443a818460208701613f09565b919091019291505056fea2646970667358221220e694eae2af5ab514c55372dca6698f8d1eeef82cdd8776f96696a29e7e2b3e9864736f6c634300080a0033",
  "linkReferences": {},
  "deployedLinkReferences": {}
}