{
  "_format": "hh-sol-artifact-1",
  "contractName": "MangroveOrderEnriched",
  "sourceName": "contracts/Strategies/OrderLogics/MangroveOrderEnriched.sol",
  "abi": [
    {
      "inputs": [
        {
          "internalType": "address payable",
          "name": "_MGV",
          "type": "address"
        },
        {
          "internalType": "address",
          "name": "admin",
          "type": "address"
        }
      ],
      "stateMutability": "nonpayable",
      "type": "constructor"
    },
    {
      "anonymous": false,
      "inputs": [
        {
          "indexed": true,
          "internalType": "address",
          "name": "user",
          "type": "address"
        },
        {
          "indexed": false,
          "internalType": "uint256",
          "name": "amount",
          "type": "uint256"
        }
      ],
      "name": "CreditMgvUser",
      "type": "event"
    },
    {
      "anonymous": false,
      "inputs": [
        {
          "indexed": true,
          "internalType": "address",
          "name": "user",
          "type": "address"
        },
        {
          "indexed": true,
          "internalType": "address",
          "name": "token",
          "type": "address"
        },
        {
          "indexed": false,
          "internalType": "uint256",
          "name": "amount",
          "type": "uint256"
        }
      ],
      "name": "CreditUserTokenBalance",
      "type": "event"
    },
    {
      "anonymous": false,
      "inputs": [
        {
          "indexed": true,
          "internalType": "address",
          "name": "user",
          "type": "address"
        },
        {
          "indexed": false,
          "internalType": "uint256",
          "name": "amount",
          "type": "uint256"
        }
      ],
      "name": "DebitMgvUser",
      "type": "event"
    },
    {
      "anonymous": false,
      "inputs": [
        {
          "indexed": true,
          "internalType": "address",
          "name": "user",
          "type": "address"
        },
        {
          "indexed": true,
          "internalType": "address",
          "name": "token",
          "type": "address"
        },
        {
          "indexed": false,
          "internalType": "uint256",
          "name": "amount",
          "type": "uint256"
        }
      ],
      "name": "DebitUserTokenBalance",
      "type": "event"
    },
    {
      "anonymous": false,
      "inputs": [
        {
          "indexed": true,
          "internalType": "address",
          "name": "outbound_tkn",
          "type": "address"
        },
        {
          "indexed": true,
          "internalType": "address",
          "name": "inbound_tkn",
          "type": "address"
        },
        {
          "indexed": true,
          "internalType": "uint256",
          "name": "offerId",
          "type": "uint256"
        },
        {
          "indexed": false,
          "internalType": "bytes32",
          "name": "reason",
          "type": "bytes32"
        }
      ],
      "name": "LogIncident",
      "type": "event"
    },
    {
      "anonymous": false,
      "inputs": [
        {
          "indexed": true,
          "internalType": "address",
          "name": "outbound_tkn",
          "type": "address"
        },
        {
          "indexed": true,
          "internalType": "address",
          "name": "inbound_tkn",
          "type": "address"
        },
        {
          "indexed": true,
          "internalType": "uint256",
          "name": "offerId",
          "type": "uint256"
        },
        {
          "indexed": false,
          "internalType": "address",
          "name": "owner",
          "type": "address"
        }
      ],
      "name": "NewOwnedOffer",
      "type": "event"
    },
    {
      "anonymous": false,
      "inputs": [
        {
          "indexed": true,
          "internalType": "address",
          "name": "base",
          "type": "address"
        },
        {
          "indexed": true,
          "internalType": "address",
          "name": "quote",
          "type": "address"
        },
        {
          "indexed": true,
          "internalType": "address",
          "name": "taker",
          "type": "address"
        },
        {
          "indexed": false,
          "internalType": "bool",
          "name": "selling",
          "type": "bool"
        },
        {
          "indexed": false,
          "internalType": "uint256",
          "name": "takerGot",
          "type": "uint256"
        },
        {
          "indexed": false,
          "internalType": "uint256",
          "name": "takerGave",
          "type": "uint256"
        },
        {
          "indexed": false,
          "internalType": "uint256",
          "name": "penalty",
          "type": "uint256"
        },
        {
          "indexed": false,
          "internalType": "uint256",
          "name": "restingOrderId",
          "type": "uint256"
        }
      ],
      "name": "OrderSummary",
      "type": "event"
    },
    {
      "inputs": [],
      "name": "MGV",
      "outputs": [
        {
          "internalType": "contract IMangrove",
          "name": "",
          "type": "address"
        }
      ],
      "stateMutability": "view",
      "type": "function"
    },
    {
      "inputs": [],
      "name": "OFR_GASREQ",
      "outputs": [
        {
          "internalType": "uint256",
          "name": "",
          "type": "uint256"
        }
      ],
      "stateMutability": "view",
      "type": "function"
    },
    {
      "inputs": [],
      "name": "OUTOFLIQUIDITY",
      "outputs": [
        {
          "internalType": "bytes32",
          "name": "",
          "type": "bytes32"
        }
      ],
      "stateMutability": "view",
      "type": "function"
    },
    {
      "inputs": [],
      "name": "PUTFAILURE",
      "outputs": [
        {
          "internalType": "bytes32",
          "name": "",
          "type": "bytes32"
        }
      ],
      "stateMutability": "view",
      "type": "function"
    },
    {
      "inputs": [],
      "name": "RENEGED",
      "outputs": [
        {
          "internalType": "bytes32",
          "name": "",
          "type": "bytes32"
        }
      ],
      "stateMutability": "view",
      "type": "function"
    },
    {
      "inputs": [],
      "name": "admin",
      "outputs": [
        {
          "internalType": "address",
          "name": "",
          "type": "address"
        }
      ],
      "stateMutability": "view",
      "type": "function"
    },
    {
      "inputs": [
        {
          "internalType": "address",
          "name": "outbound_tkn",
          "type": "address"
        },
        {
          "internalType": "uint256",
          "name": "amount",
          "type": "uint256"
        }
      ],
      "name": "approveMangrove",
      "outputs": [],
      "stateMutability": "nonpayable",
      "type": "function"
    },
    {
      "inputs": [
        {
          "internalType": "address",
          "name": "owner",
          "type": "address"
        }
      ],
      "name": "balanceOnMangrove",
      "outputs": [
        {
          "internalType": "uint256",
          "name": "",
          "type": "uint256"
        }
      ],
      "stateMutability": "view",
      "type": "function"
    },
    {
      "inputs": [
        {
          "internalType": "address",
          "name": "token",
          "type": "address"
        },
        {
          "internalType": "uint256",
          "name": "amount",
          "type": "uint256"
        }
      ],
      "name": "depositToken",
      "outputs": [
        {
          "internalType": "bool",
          "name": "success",
          "type": "bool"
        }
      ],
      "stateMutability": "nonpayable",
      "type": "function"
    },
    {
      "inputs": [
        {
          "internalType": "address",
          "name": "",
          "type": "address"
        },
        {
          "internalType": "address",
          "name": "",
          "type": "address"
        },
        {
          "internalType": "uint256",
          "name": "",
          "type": "uint256"
        }
      ],
      "name": "expiring",
      "outputs": [
        {
          "internalType": "uint256",
          "name": "",
          "type": "uint256"
        }
      ],
      "stateMutability": "view",
      "type": "function"
    },
    {
      "inputs": [],
      "name": "fundMangrove",
      "outputs": [],
      "stateMutability": "payable",
      "type": "function"
    },
    {
      "inputs": [
        {
          "internalType": "address",
          "name": "outbound_tkn",
          "type": "address"
        },
        {
          "internalType": "address",
          "name": "inbound_tkn",
          "type": "address"
        },
        {
          "internalType": "uint256",
          "name": "gasreq",
          "type": "uint256"
        },
        {
          "internalType": "uint256",
          "name": "gasprice",
          "type": "uint256"
        },
        {
          "internalType": "uint256",
          "name": "offerId",
          "type": "uint256"
        }
      ],
      "name": "getMissingProvision",
      "outputs": [
        {
          "internalType": "uint256",
          "name": "",
          "type": "uint256"
        }
      ],
      "stateMutability": "view",
      "type": "function"
    },
    {
      "inputs": [
        {
          "components": [
            {
              "internalType": "address",
              "name": "outbound_tkn",
              "type": "address"
            },
            {
              "internalType": "address",
              "name": "inbound_tkn",
              "type": "address"
            },
            {
              "internalType": "uint256",
              "name": "offerId",
              "type": "uint256"
            },
            {
              "internalType": "t",
              "name": "offer",
              "type": "uint256"
            },
            {
              "internalType": "uint256",
              "name": "wants",
              "type": "uint256"
            },
            {
              "internalType": "uint256",
              "name": "gives",
              "type": "uint256"
            },
            {
              "internalType": "t",
              "name": "offerDetail",
              "type": "uint256"
            },
            {
              "internalType": "t",
              "name": "global",
              "type": "uint256"
            },
            {
              "internalType": "t",
              "name": "local",
              "type": "uint256"
            }
          ],
          "internalType": "struct MgvLib.SingleOrder",
          "name": "order",
          "type": "tuple"
        }
      ],
      "name": "makerExecute",
      "outputs": [
        {
          "internalType": "bytes32",
          "name": "ret",
          "type": "bytes32"
        }
      ],
      "stateMutability": "nonpayable",
      "type": "function"
    },
    {
      "inputs": [
        {
          "components": [
            {
              "internalType": "address",
              "name": "outbound_tkn",
              "type": "address"
            },
            {
              "internalType": "address",
              "name": "inbound_tkn",
              "type": "address"
            },
            {
              "internalType": "uint256",
              "name": "offerId",
              "type": "uint256"
            },
            {
              "internalType": "t",
              "name": "offer",
              "type": "uint256"
            },
            {
              "internalType": "uint256",
              "name": "wants",
              "type": "uint256"
            },
            {
              "internalType": "uint256",
              "name": "gives",
              "type": "uint256"
            },
            {
              "internalType": "t",
              "name": "offerDetail",
              "type": "uint256"
            },
            {
              "internalType": "t",
              "name": "global",
              "type": "uint256"
            },
            {
              "internalType": "t",
              "name": "local",
              "type": "uint256"
            }
          ],
          "internalType": "struct MgvLib.SingleOrder",
          "name": "order",
          "type": "tuple"
        },
        {
          "components": [
            {
              "internalType": "bytes32",
              "name": "makerData",
              "type": "bytes32"
            },
            {
              "internalType": "bytes32",
              "name": "mgvData",
              "type": "bytes32"
            }
          ],
          "internalType": "struct MgvLib.OrderResult",
          "name": "result",
          "type": "tuple"
        }
      ],
      "name": "makerPosthook",
      "outputs": [],
      "stateMutability": "nonpayable",
      "type": "function"
    },
    {
      "inputs": [
        {
          "internalType": "address",
          "name": "",
          "type": "address"
        }
      ],
      "name": "mgvBalance",
      "outputs": [
        {
          "internalType": "uint256",
          "name": "",
          "type": "uint256"
        }
      ],
      "stateMutability": "view",
      "type": "function"
    },
    {
      "inputs": [
        {
          "internalType": "address",
          "name": "outbound_tkn",
          "type": "address"
        },
        {
          "internalType": "address",
          "name": "inbound_tkn",
          "type": "address"
        },
        {
          "internalType": "uint256",
          "name": "wants",
          "type": "uint256"
        },
        {
          "internalType": "uint256",
          "name": "gives",
          "type": "uint256"
        },
        {
          "internalType": "uint256",
          "name": "gasreq",
          "type": "uint256"
        },
        {
          "internalType": "uint256",
          "name": "gasprice",
          "type": "uint256"
        },
        {
          "internalType": "uint256",
          "name": "pivotId",
          "type": "uint256"
        }
      ],
      "name": "newOffer",
      "outputs": [
        {
          "internalType": "uint256",
          "name": "offerId",
          "type": "uint256"
        }
      ],
      "stateMutability": "payable",
      "type": "function"
    },
    {
      "inputs": [
        {
          "internalType": "address",
          "name": "reader",
          "type": "address"
        },
        {
          "internalType": "address",
          "name": "outbound_tkn",
          "type": "address"
        },
        {
          "internalType": "address",
          "name": "inbound_tkn",
          "type": "address"
        },
        {
          "internalType": "uint256",
          "name": "fromId",
          "type": "uint256"
        },
        {
          "internalType": "uint256",
          "name": "maxOffers",
          "type": "uint256"
        }
      ],
      "name": "offerOwners",
      "outputs": [
        {
          "internalType": "uint256",
          "name": "nextId",
          "type": "uint256"
        },
        {
          "internalType": "uint256[]",
          "name": "offerIds",
          "type": "uint256[]"
        },
        {
          "internalType": "address[]",
          "name": "__offerOwners",
          "type": "address[]"
        }
      ],
      "stateMutability": "view",
      "type": "function"
    },
    {
      "inputs": [
        {
          "internalType": "address",
          "name": "owner",
          "type": "address"
        },
        {
          "internalType": "address",
          "name": "outbound_tkn",
          "type": "address"
        },
        {
          "internalType": "address",
          "name": "inbound_tkn",
          "type": "address"
        }
      ],
      "name": "offersOfOwner",
      "outputs": [
        {
          "internalType": "uint256[]",
          "name": "live",
          "type": "uint256[]"
        },
        {
          "internalType": "uint256[]",
          "name": "dead",
          "type": "uint256[]"
        }
      ],
      "stateMutability": "view",
      "type": "function"
    },
    {
      "inputs": [
        {
          "internalType": "address",
          "name": "outbound_tkn",
          "type": "address"
        },
        {
          "internalType": "address",
          "name": "inbound_tkn",
          "type": "address"
        },
        {
          "internalType": "uint256",
          "name": "offerId",
          "type": "uint256"
        }
      ],
      "name": "ownerOf",
      "outputs": [
        {
          "internalType": "address",
          "name": "owner",
          "type": "address"
        }
      ],
      "stateMutability": "view",
      "type": "function"
    },
    {
      "inputs": [
        {
          "internalType": "address",
          "name": "token",
          "type": "address"
        },
        {
          "internalType": "address",
          "name": "receiver",
          "type": "address"
        },
        {
          "internalType": "uint256",
          "name": "amount",
          "type": "uint256"
        }
      ],
      "name": "redeemToken",
      "outputs": [
        {
          "internalType": "bool",
          "name": "success",
          "type": "bool"
        }
      ],
      "stateMutability": "nonpayable",
      "type": "function"
    },
    {
      "inputs": [
        {
          "internalType": "address",
          "name": "outbound_tkn",
          "type": "address"
        },
        {
          "internalType": "address",
          "name": "inbound_tkn",
          "type": "address"
        },
        {
          "internalType": "uint256",
          "name": "offerId",
          "type": "uint256"
        },
        {
          "internalType": "bool",
          "name": "deprovision",
          "type": "bool"
        }
      ],
      "name": "retractOffer",
      "outputs": [
        {
          "internalType": "uint256",
          "name": "received",
          "type": "uint256"
        }
      ],
      "stateMutability": "nonpayable",
      "type": "function"
    },
    {
      "inputs": [
        {
          "internalType": "address",
          "name": "_admin",
          "type": "address"
        }
      ],
      "name": "setAdmin",
      "outputs": [],
      "stateMutability": "nonpayable",
      "type": "function"
    },
    {
      "inputs": [
        {
          "internalType": "uint256",
          "name": "gasreq",
          "type": "uint256"
        }
      ],
      "name": "setGasreq",
      "outputs": [],
      "stateMutability": "nonpayable",
      "type": "function"
    },
    {
      "inputs": [
        {
          "components": [
            {
              "internalType": "address",
              "name": "base",
              "type": "address"
            },
            {
              "internalType": "address",
              "name": "quote",
              "type": "address"
            },
            {
              "internalType": "bool",
              "name": "partialFillNotAllowed",
              "type": "bool"
            },
            {
              "internalType": "bool",
              "name": "selling",
              "type": "bool"
            },
            {
              "internalType": "uint256",
              "name": "wants",
              "type": "uint256"
            },
            {
              "internalType": "uint256",
              "name": "makerWants",
              "type": "uint256"
            },
            {
              "internalType": "uint256",
              "name": "gives",
              "type": "uint256"
            },
            {
              "internalType": "uint256",
              "name": "makerGives",
              "type": "uint256"
            },
            {
              "internalType": "bool",
              "name": "restingOrder",
              "type": "bool"
            },
            {
              "internalType": "uint256",
              "name": "retryNumber",
              "type": "uint256"
            },
            {
              "internalType": "uint256",
              "name": "gasForMarketOrder",
              "type": "uint256"
            },
            {
              "internalType": "uint256",
              "name": "blocksToLiveForRestingOrder",
              "type": "uint256"
            }
          ],
          "internalType": "struct IOrderLogic.TakerOrder",
          "name": "tko",
          "type": "tuple"
        }
      ],
      "name": "take",
      "outputs": [
        {
          "components": [
            {
              "internalType": "uint256",
              "name": "takerGot",
              "type": "uint256"
            },
            {
              "internalType": "uint256",
              "name": "takerGave",
              "type": "uint256"
            },
            {
              "internalType": "uint256",
              "name": "bounty",
              "type": "uint256"
            },
            {
              "internalType": "uint256",
              "name": "offerId",
              "type": "uint256"
            }
          ],
          "internalType": "struct IOrderLogic.TakerOrderResult",
          "name": "res",
          "type": "tuple"
        }
      ],
      "stateMutability": "payable",
      "type": "function"
    },
    {
      "inputs": [
        {
          "internalType": "address",
          "name": "token",
          "type": "address"
        },
        {
          "internalType": "address",
          "name": "owner",
          "type": "address"
        }
      ],
      "name": "tokenBalance",
      "outputs": [
        {
          "internalType": "uint256",
          "name": "",
          "type": "uint256"
        }
      ],
      "stateMutability": "view",
      "type": "function"
    },
    {
      "inputs": [
        {
          "internalType": "address",
          "name": "",
          "type": "address"
        },
        {
          "internalType": "address",
          "name": "",
          "type": "address"
        }
      ],
      "name": "tokenBalanceOf",
      "outputs": [
        {
          "internalType": "uint256",
          "name": "",
          "type": "uint256"
        }
      ],
      "stateMutability": "view",
      "type": "function"
    },
    {
      "inputs": [
        {
          "internalType": "address",
          "name": "outbound_tkn",
          "type": "address"
        },
        {
          "internalType": "address",
          "name": "inbound_tkn",
          "type": "address"
        },
        {
          "internalType": "uint256",
          "name": "wants",
          "type": "uint256"
        },
        {
          "internalType": "uint256",
          "name": "gives",
          "type": "uint256"
        },
        {
          "internalType": "uint256",
          "name": "gasreq",
          "type": "uint256"
        },
        {
          "internalType": "uint256",
          "name": "gasprice",
          "type": "uint256"
        },
        {
          "internalType": "uint256",
          "name": "pivotId",
          "type": "uint256"
        },
        {
          "internalType": "uint256",
          "name": "offerId",
          "type": "uint256"
        }
      ],
      "name": "updateOffer",
      "outputs": [],
      "stateMutability": "payable",
      "type": "function"
    },
    {
      "inputs": [
        {
          "internalType": "address payable",
          "name": "receiver",
          "type": "address"
        },
        {
          "internalType": "uint256",
          "name": "amount",
          "type": "uint256"
        }
      ],
      "name": "withdrawFromMangrove",
      "outputs": [
        {
          "internalType": "bool",
          "name": "noRevert",
          "type": "bool"
        }
      ],
      "stateMutability": "nonpayable",
      "type": "function"
    },
    {
      "stateMutability": "payable",
      "type": "receive"
    }
  ],
  "bytecode": "0x6101006040527f6d67764f666665722f61626f72742f72656e65676564000000000000000000006080527f6d67764f666665722f61626f72742f7075744661696c6564000000000000000060a0527f6d67764f666665722f61626f72742f6765744661696c6564000000000000000060c052620186a06001553480156200008557600080fd5b50604051620046d2380380620046d2833981016040819052620000a89162000150565b81818181806001600160a01b038116620001085760405162461bcd60e51b815260206004820152601860248201527f616363657373436f6e74726f6c6c65642f307841646d696e0000000000000000604482015260640160405180910390fd5b600080546001600160a01b0319166001600160a01b039283161790559190911660e052506200018f9350505050565b6001600160a01b03811681146200014d57600080fd5b50565b600080604083850312156200016457600080fd5b8251620001718162000137565b6020840151909250620001848162000137565b809150509250929050565b60805160a05160c05160e05161447d6200025560003960008181610506015281816109e601528181610b3e01528181610d5a01528181610edb0152818161122d01528181611b5601528181611dc101528181611e5f015281816122e801528181612762015281816128430152818161295901528181612b2c01528181612c1c01528181612f2701528181612fed015281816130a9015281816131f6015281816132a9015261370a0152600061049e015260006103d1015260006104d2015261447d6000f3fe6080604052600436106101bb5760003560e01c80636c49c32c116100ec578063d19711591161008a578063e4c34f8411610064578063e4c34f84146105f2578063f851a44014610612578063f92495e514610632578063faa030ec1461065257600080fd5b8063d197115914610580578063df242667146105af578063e428204d146105dc57600080fd5b806389dbacfe116100c657806389dbacfe146104c057806399fa5e2d146104f4578063ad97db1b14610540578063aefe84031461056057600080fd5b80636c49c32c1461044c578063704b6c021461046c5780637f7a1b991461048c57600080fd5b806337b966bf116101595780634e7effa8116101335780634e7effa814610381578063572e59e3146103bf5780636a1c7d05146103f35780636a4f76911461043957600080fd5b806337b966bf146103205780633d3d130d1461034e57806349f6d2dc1461036e57600080fd5b80631bea8006116101955780631bea800614610270578063338b5dea146102a857806334bd8931146102c857806335d61cb2146102ea57600080fd5b8063063df2d2146101c75780630d71bdc3146101fc5780631049334f1461021c57600080fd5b366101c257005b600080fd5b3480156101d357600080fd5b506101e76101e2366004613992565b61065a565b60405190151581526020015b60405180910390f35b34801561020857600080fd5b506101e76102173660046139be565b6106cd565b34801561022857600080fd5b506102626102373660046139ff565b6001600160a01b03918216600090815260046020908152604080832093909416825291909152205490565b6040519081526020016101f3565b34801561027c57600080fd5b5061026261028b3660046139ff565b600460209081526000928352604080842090915290825290205481565b3480156102b457600080fd5b506101e76102c3366004613992565b6107bd565b3480156102d457600080fd5b506102e86102e3366004613a38565b6109c7565b005b3480156102f657600080fd5b50610262610305366004613a51565b6001600160a01b031660009081526003602052604090205490565b34801561032c57600080fd5b5061034061033b366004613a6e565b610aad565b6040516101f3929190613af4565b34801561035a57600080fd5b506102e8610369366004613b2c565b610ed9565b61026261037c366004613b8c565b61101d565b34801561038d57600080fd5b5061026261039c3660046139be565b600560209081526000938452604080852082529284528284209052825290205481565b3480156103cb57600080fd5b506102627f000000000000000000000000000000000000000000000000000000000000000081565b610406610401366004613bee565b61108b565b6040516101f391908151815260208083015190820152604080830151908201526060918201519181019190915260800190565b6102e8610447366004613c01565b611b09565b34801561045857600080fd5b50610262610467366004613c6c565b611b52565b34801561047857600080fd5b506102e8610487366004613a51565b611cf6565b34801561049857600080fd5b506102627f000000000000000000000000000000000000000000000000000000000000000081565b3480156104cc57600080fd5b506102627f000000000000000000000000000000000000000000000000000000000000000081565b34801561050057600080fd5b506105287f000000000000000000000000000000000000000000000000000000000000000081565b6040516001600160a01b0390911681526020016101f3565b34801561054c57600080fd5b5061026261055b366004613c97565b611d8a565b34801561056c57600080fd5b506102e861057b366004613992565b611da2565b34801561058c57600080fd5b506105a061059b366004613cea565b611f2b565b6040516101f393929190613d45565b3480156105bb57600080fd5b506102626105ca366004613a51565b60036020526000908152604090205481565b3480156105e857600080fd5b5061026260015481565b3480156105fe57600080fd5b5061026261060d366004613da9565b6120b4565b34801561061e57600080fd5b50600054610528906001600160a01b031681565b34801561063e57600080fd5b5061052861064d3660046139be565b6120ff565b6102e8612183565b60003033036106b05760405162461bcd60e51b815260206004820152601260248201527f4d75746c692f6e6f5265656e7472616e6379000000000000000000000000000060448201526064015b60405180910390fd5b6106ba33836121de565b6106c483836122b6565b90505b92915050565b600030330361071e5760405162461bcd60e51b815260206004820152601260248201527f4d75746c692f6e6f5265656e7472616e6379000000000000000000000000000060448201526064016106a7565b61072984338461241b565b6040517fa9059cbb0000000000000000000000000000000000000000000000000000000081526001600160a01b0384811660048301526024820184905285169063a9059cbb906044016020604051808303816000875af1158015610791573d6000803e3d6000fd5b505050506040513d601f19601f820116820180604052508101906107b59190613dfa565b949350505050565b6040517f70a0823100000000000000000000000000000000000000000000000000000000815230600482015260009081906001600160a01b038516906370a0823190602401602060405180830381865afa15801561081f573d6000803e3d6000fd5b505050506040513d601f19601f820116820180604052508101906108439190613e17565b6040517f23b872dd000000000000000000000000000000000000000000000000000000008152336004820152306024820152604481018590529091506001600160a01b038516906323b872dd906064016020604051808303816000875af11580156108b2573d6000803e3d6000fd5b505050506040513d601f19601f820116820180604052508101906108d69190613dfa565b6040517f70a08231000000000000000000000000000000000000000000000000000000008152306004820152909250839082906001600160a01b038716906370a0823190602401602060405180830381865afa15801561093a573d6000803e3d6000fd5b505050506040513d601f19601f8201168201806040525081019061095e9190613e17565b6109689190613e5f565b146109b55760405162461bcd60e51b815260206004820152601260248201527f4d756c74692f7472616e736665724661696c000000000000000000000000000060448201526064016106a7565b6109c084338561252d565b5092915050565b6000546001600160a01b0316331480610a085750336001600160a01b037f000000000000000000000000000000000000000000000000000000000000000016145b610a545760405162461bcd60e51b815260206004820152601860248201527f416363657373436f6e74726f6c6c65642f496e76616c6964000000000000000060448201526064016106a7565b808162ffffff1614610aa85760405162461bcd60e51b815260206004820152601860248201527f6d67764f666665722f6761737265712f6f766572666c6f77000000000000000060448201526064016106a7565b600155565b6001600160a01b0380831660009081526006602090815260408083208585168452825280832093871683529281528282208280529052908120546060918291908190805b8215610c77576040517f68c13d6b0000000000000000000000000000000000000000000000000000000081526001600160a01b0389811660048301528881166024830152604482018590527f0000000000000000000000000000000000000000000000000000000000000000169063275074589082906368c13d6b90606401602060405180830381865afa158015610b8d573d6000803e3d6000fd5b505050506040513d601f19601f82011682018060405250810190610bb19190613e17565b6040518263ffffffff1660e01b8152600401610bcf91815260200190565b602060405180830381865afa158015610bec573d6000803e3d6000fd5b505050506040513d601f19601f82011682018060405250810190610c109190613dfa565b15610c275781610c1f81613e76565b925050610c35565b80610c3181613e76565b9150505b6001600160a01b0380891660009081526006602090815260408083208b851684528252808320938d168352928152828220958252949094529092205491610af1565b8167ffffffffffffffff811115610c9057610c90613eae565b604051908082528060200260200182016040528015610cb9578160200160208202803683370190505b5095508067ffffffffffffffff811115610cd557610cd5613eae565b604051908082528060200260200182016040528015610cfe578160200160208202803683370190505b50945083925060009150600090505b8215610ecd576040517f68c13d6b0000000000000000000000000000000000000000000000000000000081526001600160a01b0389811660048301528881166024830152604482018590527f0000000000000000000000000000000000000000000000000000000000000000169063275074589082906368c13d6b90606401602060405180830381865afa158015610da9573d6000803e3d6000fd5b505050506040513d601f19601f82011682018060405250810190610dcd9190613e17565b6040518263ffffffff1660e01b8152600401610deb91815260200190565b602060405180830381865afa158015610e08573d6000803e3d6000fd5b505050506040513d601f19601f82011682018060405250810190610e2c9190613dfa565b15610e6057828683610e3d81613e76565b945081518110610e4f57610e4f613edd565b602002602001018181525050610e8b565b828582610e6c81613e76565b935081518110610e7e57610e7e613edd565b6020026020010181815250505b6001600160a01b0380891660009081526006602090815260408083208b851684528252808320938d168352928152828220958252949094529092205491610d0d565b50505050935093915050565b7f00000000000000000000000000000000000000000000000000000000000000006001600160a01b0381161580610f185750336001600160a01b038216145b610f645760405162461bcd60e51b815260206004820152601860248201527f416363657373436f6e74726f6c6c65642f496e76616c6964000000000000000060448201526064016106a7565b81602001357f6d67762f7472616465537563636573730000000000000000000000000000000003610f9e57610f98836125b0565b50505050565b60408301803590610fb29060208601613a51565b6001600160a01b0316610fc86020860186613a51565b6001600160a01b03167fd2c3f090769d843e1fc2e6ce65d60572e28f9163a5cfccbd6c1725c6a9263f2f856000013560405161100691815260200190565b60405180910390a4610f9883836126ee565b505050565b600030330361106e5760405162461bcd60e51b815260206004820152601260248201527f4d75746c692f6e6f5265656e7472616e6379000000000000000000000000000060448201526064016106a7565b61107f888888888888883334612727565b98975050505050505050565b6110b66040518060800160405280600081526020016000815260200160008152602001600081525090565b6000806110c96080850160608601613f0c565b6110ef576110da6020850185613a51565b6110ea6040860160208701613a51565b61110c565b6110ff6040850160208601613a51565b61110c6020860186613a51565b6040517f23b872dd00000000000000000000000000000000000000000000000000000000815233600482015230602482015260c0870135604482015291935091506001600160a01b038216906323b872dd906064016020604051808303816000875af1158015611180573d6000803e3d6000fd5b505050506040513d601f19601f820116820180604052508101906111a49190613dfa565b6111f05760405162461bcd60e51b815260206004820152601a60248201527f6d67764f726465722f6d6f2f7472616e73666572496e4661696c00000000000060448201526064016106a7565b60005b6112036101208601356001613f29565b81101561139e576101408501351580159061122257508461014001355a105b61139e5760008060007f00000000000000000000000000000000000000000000000000000000000000006001600160a01b031663fbffe5fd87878b608001358c60c001358d60600160208101906112799190613f0c565b611284576001611287565b60005b6040517fffffffff0000000000000000000000000000000000000000000000000000000060e088901b1681526001600160a01b039586166004820152949093166024850152604484019190915260648301521515608482015260a4016060604051808303816000875af1158015611302573d6000803e3d6000fd5b505050506040513d601f19601f820116820180604052508101906113269190613f41565b925092509250828760000181815161133e9190613f29565b905250602087018051839190611355908390613f29565b90525060408701805182919061136c908390613f29565b9052508215801561137b575080155b156113885750505061139e565b505050808061139690613e76565b9150506111f3565b5060006113ad838387876128d8565b90506113bf6060860160408701613f0c565b15806113c85750805b806113e057506113e061012086016101008701613f0c565b61142c5760405162461bcd60e51b815260206004820152601960248201527f6d67764f726465722f6d6f2f6e6f5061727469616c46696c6c0000000000000060448201526064016106a7565b83511561150c5783516040517fa9059cbb00000000000000000000000000000000000000000000000000000000815233600482015260248101919091526001600160a01b0384169063a9059cbb906044016020604051808303816000875af115801561149c573d6000803e3d6000fd5b505050506040513d601f19601f820116820180604052508101906114c09190613dfa565b61150c5760405162461bcd60e51b815260206004820152601b60248201527f6d67764f726465722f6d6f2f7472616e736665724f75744661696c000000000060448201526064016106a7565b61151e61012086016101008701613f0c565b8015611528575080155b156118b357611566828486600001518860a001356115469190613e5f565b60208801516115599060e08b0135613e5f565b6001546000803334612727565b6060850181905261157c90339084908690612a07565b3361158d6040870160208801613a51565b6001600160a01b03166115a36020880188613a51565b6001600160a01b03167fab3ed3392e9579b676d21e1dda5b7d68388430686d83b9fe1bd66032e1e030ad6115dd60808a0160608b01613f0c565b88516020808b01516040808d01516060808f0151835197151588529487019590955285820192909252928401526080830152519081900360a00190a48360600151600003611841576116356060860160408701613f0c565b156116825760405162461bcd60e51b815260206004820152601960248201527f6d67764f726465722f6d6f2f6e6f5061727469616c46696c6c0000000000000060448201526064016106a7565b816001600160a01b031663a9059cbb3386602001518860c001356116a69190613e5f565b6040517fffffffff0000000000000000000000000000000000000000000000000000000060e085901b1681526001600160a01b03909216600483015260248201526044016020604051808303816000875af1158015611709573d6000803e3d6000fd5b505050506040513d601f19601f8201168201806040525081019061172d9190613dfa565b6117795760405162461bcd60e51b815260206004820152601a60248201527f6d67764f726465722f6d6f2f7472616e73666572496e4661696c00000000000060448201526064016106a7565b600084604001513461178b9190613f29565b111561183957604084015160009033906117a59034613f29565b604051600081818185875af1925050503d80600081146117e1576040519150601f19603f3d011682016040523d82523d6000602084013e6117e6565b606091505b50509050806118375760405162461bcd60e51b815260206004820152601f60248201527f6d67764f726465722f6d6f2f726566756e6450726f766973696f6e4661696c0060448201526064016106a7565b505b505050919050565b61185f823386602001518860c0013561185a9190613e5f565b61252d565b610160850135156118395761187961016086013543613f29565b6001600160a01b03808416600090815260056020908152604080832093881683529281528282206060890151835290522055505050919050565b816001600160a01b031663a9059cbb3386602001518860c001356118d79190613e5f565b6040517fffffffff0000000000000000000000000000000000000000000000000000000060e085901b1681526001600160a01b03909216600483015260248201526044016020604051808303816000875af115801561193a573d6000803e3d6000fd5b505050506040513d601f19601f8201168201806040525081019061195e9190613dfa565b6119aa5760405162461bcd60e51b815260206004820152601a60248201527f6d67764f726465722f6d6f2f7472616e73666572496e4661696c00000000000060448201526064016106a7565b60008460400151346119bc9190613f29565b1115611a6a57604084015160009033906119d69034613f29565b604051600081818185875af1925050503d8060008114611a12576040519150601f19603f3d011682016040523d82523d6000602084013e611a17565b606091505b5050905080611a685760405162461bcd60e51b815260206004820152601660248201527f6d67764f726465722f6d6f2f726566756e644661696c0000000000000000000060448201526064016106a7565b505b33611a7b6040870160208801613a51565b6001600160a01b0316611a916020880188613a51565b6001600160a01b03167fab3ed3392e9579b676d21e1dda5b7d68388430686d83b9fe1bd66032e1e030ad611acb60808a0160608b01613f0c565b88516020808b01516040808d0151815195151586529285019390935283830152606083015260006080830152519081900360a00190a4505050919050565b600080611b1e8a8a8a8a8a8a8a8a3334612a8c565b91509150600082118190611b455760405162461bcd60e51b81526004016106a79190613f9b565b5050505050505050505050565b60007f00000000000000000000000000000000000000000000000000000000000000006001600160a01b0381161580611b935750336001600160a01b038216145b611bdf5760405162461bcd60e51b815260206004820152601860248201527f416363657373436f6e74726f6c6c65642f496e76616c6964000000000000000060448201526064016106a7565b611be883612ce6565b611c345760405162461bcd60e51b815260206004820152601660248201527f6d67764f666665722f61626f72742f72656e656765640000000000000000000060448201526064016106a7565b6000611c448460a0013585612d6b565b1115611c925760405162461bcd60e51b815260206004820152601860248201527f6d67764f666665722f61626f72742f7075744661696c6564000000000000000060448201526064016106a7565b6000611ca2846080013585612dae565b1115611cf05760405162461bcd60e51b815260206004820152601860248201527f6d67764f666665722f61626f72742f6765744661696c6564000000000000000060448201526064016106a7565b50919050565b6000546001600160a01b03163314611d505760405162461bcd60e51b815260206004820152601860248201527f416363657373436f6e74726f6c6c65642f496e76616c6964000000000000000060448201526064016106a7565b600080547fffffffffffffffffffffffff0000000000000000000000000000000000000000166001600160a01b0392909216919091179055565b6000611d998585858533612e55565b95945050505050565b6000546001600160a01b0316331480611de35750336001600160a01b037f000000000000000000000000000000000000000000000000000000000000000016145b611e2f5760405162461bcd60e51b815260206004820152601860248201527f416363657373436f6e74726f6c6c65642f496e76616c6964000000000000000060448201526064016106a7565b6040517f095ea7b30000000000000000000000000000000000000000000000000000000081526001600160a01b037f0000000000000000000000000000000000000000000000000000000000000000811660048301526024820183905283169063095ea7b3906044016020604051808303816000875af1158015611eb7573d6000803e3d6000fd5b505050506040513d601f19601f82011682018060405250810190611edb9190613dfa565b611f275760405162461bcd60e51b815260206004820152601560248201527f6d67764f666665722f617070726f76652f4661696c000000000000000000000060448201526064016106a7565b5050565b6040517f2c7e545f0000000000000000000000000000000000000000000000000000000081526001600160a01b03858116600483015284811660248301526044820184905260648201839052600091606091829190891690632c7e545f90608401600060405180830381865afa158015611fa9573d6000803e3d6000fd5b505050506040513d6000823e601f3d9081017fffffffffffffffffffffffffffffffffffffffffffffffffffffffffffffffe0168201604052611fef91908101906141d6565b50508051919450925067ffffffffffffffff81111561201057612010613eae565b604051908082528060200260200182016040528015612039578160200160208202803683370190505b50905060005b82518110156120a85761206c888885848151811061205f5761205f613edd565b60200260200101516120ff565b82828151811061207e5761207e613edd565b6001600160a01b0390921660209283029190910190910152806120a081613e76565b91505061203f565b50955095509592505050565b60008082156120e65760006120ca8888866120ff565b6001600160a01b03166000908152600360205260409020549150505b6120f4818888888888612fa6565b979650505050505050565b6001600160a01b03808416600090815260026020908152604080832086851684528252808320858452909152902054168061217c5760405162461bcd60e51b815260206004820152601560248201527f6d756c7469557365722f756e6b6f776e4f66666572000000000000000000000060448201526064016106a7565b9392505050565b3033036121d25760405162461bcd60e51b815260206004820152601260248201527f4d75746c692f6e6f5265656e7472616e6379000000000000000000000000000060448201526064016106a7565b6121dc33346131f4565b565b6001600160a01b0382166000908152600360205260409020548111156122465760405162461bcd60e51b815260206004820152601d60248201527f4d756c74692f64656269744f6e4d67762f696e73756666696369656e7400000060448201526064016106a7565b6001600160a01b0382166000908152600360205260408120805483929061226e908490613e5f565b90915550506040518181526001600160a01b038316907fd50b865b3d9d927f026d3b8404e07f25d6beb1d111deab51bdc846bf8d0a860b906020015b60405180910390a25050565b6040517f2e1a7d4d000000000000000000000000000000000000000000000000000000008152600481018290526000907f00000000000000000000000000000000000000000000000000000000000000006001600160a01b031690632e1a7d4d906024016020604051808303816000875af1158015612339573d6000803e3d6000fd5b505050506040513d601f19601f8201168201806040525081019061235d9190613dfa565b6123a95760405162461bcd60e51b815260206004820152601e60248201527f6d67764f666665722f77697468647261772f7472616e736665724661696c000060448201526064016106a7565b6001600160a01b0383163014612412576040516001600160a01b038416908390600081818185875af1925050503d8060008114612402576040519150601f19603f3d011682016040523d82523d6000602084013e612407565b606091505b5050809150506106c7565b50600192915050565b8060000361242857505050565b6001600160a01b0380841660009081526004602090815260408083209386168352929052205481111561249d5760405162461bcd60e51b815260206004820152601d60248201527f4d756c74692f6465626974546f6b656e2f696e73756666696369656e7400000060448201526064016106a7565b6001600160a01b038084166000908152600460209081526040808320938616835292905290812080548392906124d4908490613e5f565b92505081905550826001600160a01b0316826001600160a01b03167f7a97b405ee1bd89550b225932dbdd0431e30426b7c8f02f05b3cb0e1bdfb84768360405161252091815260200190565b60405180910390a3505050565b6001600160a01b03808416600090815260046020908152604080832093861683529290529081208054839290612564908490613f29565b92505081905550826001600160a01b0316826001600160a01b03167fb2b1ec266d1bab793ae1d020eedf03e575cc390e5fb9e370cb099fdf2f61534d8360405161252091815260200190565b60006125bb82613272565b156125c857506001919050565b60006125f46125da6020850185613a51565b6125ea6040860160208701613a51565b85604001356120ff565b9050612600838261341f565b61260d5750600092915050565b6001600160a01b0381166000908152600360205260409020546126319082906121de565b6001600160a01b0381166000908152600360205260409020546126559082906122b6565b612412576040830180359061266d9060208601613a51565b6001600160a01b03166126836020860186613a51565b6001600160a01b03167fd2c3f090769d843e1fc2e6ce65d60572e28f9163a5cfccbd6c1725c6a9263f2f6040516126dd907f6d67764f726465722f706f7374686f6f6b2f7472616e73666572576569000000815260200190565b60405180910390a450600092915050565b60008061271b6127016020860186613a51565b6127116040870160208801613a51565b86604001356120ff565b90506107b5848261341f565b6040517f70a0823100000000000000000000000000000000000000000000000000000000815230600482015260009081906001600160a01b037f000000000000000000000000000000000000000000000000000000000000000016906370a0823190602401602060405180830381865afa1580156127a9573d6000803e3d6000fd5b505050506040513d601f19601f820116820180604052508101906127cd9190613e17565b905062ffffff8711156127e05760015496505b6040517f49f6d2dc0000000000000000000000000000000000000000000000000000000081526001600160a01b038c811660048301528b81166024830152604482018b9052606482018a90526084820189905260a4820188905260c482018790527f000000000000000000000000000000000000000000000000000000000000000016906349f6d2dc90859060e40160206040518083038185885af115801561288d573d6000803e3d6000fd5b50505050506040513d601f19601f820116820180604052508101906128b29190613e17565b91506128c08b8b8487613642565b6128ca84826136d9565b509998505050505050505050565b60006128ea6080840160608501613f0c565b15612902578260c001358260200151101590506107b5565b6129126080840160608501613f0c565b6107b5576040517fcbf75c9a0000000000000000000000000000000000000000000000000000000081526001600160a01b03868116600483015285811660248301526000917f00000000000000000000000000000000000000000000000000000000000000009091169063cbf75c9a906044016040805180830381865afa1580156129a1573d6000803e3d6000fd5b505050506040513d601f19601f820116820180604052508101906129c591906142cb565b915061271090506129e261ffff60e884901c1660808701356142ef565b6129ec919061432c565b6129fa906080860135613e5f565b8351101591506107b59050565b6001600160a01b0383811660009081526006602090815260408083208685168452825280832093881683529281528282208280529052208054908290558015612a85576001600160a01b0380851660009081526006602090815260408083208785168452825280832093891683529281528282208583529052208190555b5050505050565b60006060612a9b8c8c876120ff565b6001600160a01b0316846001600160a01b031614612afb5760405162461bcd60e51b815260206004820152601e60248201527f4d756c74692f7570646174654f666665722f756e617574686f72697a6564000060448201526064016106a7565b6040517f70a082310000000000000000000000000000000000000000000000000000000081523060048201526000907f00000000000000000000000000000000000000000000000000000000000000006001600160a01b0316906370a0823190602401602060405180830381865afa158015612b7b573d6000803e3d6000fd5b505050506040513d601f19601f82011682018060405250810190612b9f9190613e17565b905062ffffff891115612bb25760015498505b6040517f6a4f76910000000000000000000000000000000000000000000000000000000081526001600160a01b038e811660048301528d81166024830152604482018d9052606482018c9052608482018b905260a482018a905260c4820189905260e482018890527f00000000000000000000000000000000000000000000000000000000000000001690636a4f7691908690610104016000604051808303818588803b158015612c6257600080fd5b505af193505050508015612c74575060015b612cb857612c80614367565b806308c379a003612cac5750612c94614383565b80612c9f5750612cae565b600093509150612cd79050565b505b3d6000803e3d6000fd5b612cc285826136d9565b50506040805160208101909152600081528491505b9a509a98505050505050505050565b600080600581612cf96020860186613a51565b6001600160a01b03166001600160a01b031681526020019081526020016000206000846020016020810190612d2e9190613a51565b6001600160a01b0316815260208082019290925260409081016000908120868301358252909252902054905080158061217c575043111592915050565b600080612d7e6125da6020850185613a51565b9050612d9a612d936040850160208601613a51565b82866137b9565b612da457836107b5565b5060009392505050565b600080612dc16125da6020850185613a51565b90506000600481612dd56020870187613a51565b6001600160a01b0390811682526020808301939093526040918201600090812091861681529252902054905084811015612e3357612e20612e196020860186613a51565b838361241b565b612e2a8186613e5f565b925050506106c7565b612e4a612e436020860186613a51565b838761241b565b6000925050506106c7565b6001600160a01b038581166000908152600260209081526040808320888516845282528083208784529091528120549091838116911614612ed85760405162461bcd60e51b815260206004820152601f60248201527f4d756c74692f726574726163744f666665722f756e617574686f72697a65640060448201526064016106a7565b6040517fad97db1b0000000000000000000000000000000000000000000000000000000081526001600160a01b03878116600483015286811660248301526044820186905284151560648301527f0000000000000000000000000000000000000000000000000000000000000000169063ad97db1b906084016020604051808303816000875af1158015612f70573d6000803e3d6000fd5b505050506040513d601f19601f82011682018060405250810190612f949190613e17565b90508015611d9957611d9982826138cb565b6040517fcbf75c9a0000000000000000000000000000000000000000000000000000000081526001600160a01b0386811660048301528581166024830152600091829182917f00000000000000000000000000000000000000000000000000000000000000009091169063cbf75c9a906044016040805180830381865afa158015613035573d6000803e3d6000fd5b505050506040513d601f19601f8201168201806040525081019061305991906142cb565b6040517f5722647b0000000000000000000000000000000000000000000000000000000081526001600160a01b038b811660048301528a81166024830152604482018890529294509092506000917f00000000000000000000000000000000000000000000000000000000000000001690635722647b90606401602060405180830381865afa1580156130f0573d6000803e3d6000fd5b505050506040513d601f19601f820116820180604052508101906131149190613e17565b9050600086604085901c61ffff161115613137575061ffff604084901c1661313a565b50855b62ffffff88111561314b5760015497505b60008161316162ffffff606087901c168b613f29565b61316b91906142ef565b61317990633b9aca006142ef565b9050600061ffff602085901c166131a062ffffff603087901c811690604888901c16613f29565b6131aa91906142ef565b6131b890633b9aca006142ef565b905060006131c68e83613f29565b9050828110156131df576131da8184613e5f565b6131e2565b60005b9e9d5050505050505050505050505050565b7f00000000000000000000000000000000000000000000000000000000000000006001600160a01b031663b60d4288826040518263ffffffff1660e01b81526004016000604051808303818588803b15801561324f57600080fd5b505af1158015613263573d6000803e3d6000fd5b5050505050611f2782826138cb565b60008061327e83613933565b9050600061328b84613958565b90508160000361329f575060019392505050565b6001600160a01b037f000000000000000000000000000000000000000000000000000000000000000016636a4f76916132db6020870187613a51565b6132eb6040880160208901613a51565b848660c08a013560481c62ffffff1660c08b013560201c61ffff1660608c013560c01c63ffffffff16604080517fffffffff0000000000000000000000000000000000000000000000000000000060e08b901b1681526001600160a01b03988916600482015297909616602488015260448701949094526064860192909252608485015260a484015260c483015287013560e482015261010401600060405180830381600087803b15801561339f57600080fd5b505af19250505080156133b0575060015b6134155761340a6133c46020860186613a51565b6133d46040870160208801613a51565b604087013560016134056133eb60208b018b613a51565b6133fb60408c0160208d01613a51565b8b604001356120ff565b612e55565b506000949350505050565b5060019392505050565b6000806004816134326020870187613a51565b6001600160a01b039081168252602080830193909352604091820160009081209187168152908352205491506134759061346e90860186613a51565b84836137b9565b61350f576040840180359061348d9060208701613a51565b6001600160a01b03166134a36020870187613a51565b6001600160a01b03167fd2c3f090769d843e1fc2e6ce65d60572e28f9163a5cfccbd6c1725c6a9263f2f6040516134fd907f6d67764f726465722f72656465656d416c6c2f7472616e736665724f75740000815260200190565b60405180910390a460009150506106c7565b61352661351f6020860186613a51565b848361241b565b600060048161353b6040880160208901613a51565b6001600160a01b0390811682526020808301939093526040918201600090812091881681529083528190205492506135829161357b918801908801613a51565b85836137b9565b61361d576040850180359061359a9060208801613a51565b6001600160a01b03166135b06020880188613a51565b6001600160a01b03167fd2c3f090769d843e1fc2e6ce65d60572e28f9163a5cfccbd6c1725c6a9263f2f60405161360a907f6d67764f726465722f72656465656d416c6c2f7472616e73666572496e000000815260200190565b60405180910390a46000925050506106c7565b6136376136306040870160208801613a51565b858361241b565b506001949350505050565b6001600160a01b03848116600081815260026020908152604080832088861680855290835281842088855283529281902080547fffffffffffffffffffffffff00000000000000000000000000000000000000001695871695861790555193845285939192917fabf04a4ce23225c02bd147297da7ffc10e7d29102d8678f1a63fdd2cfd71ff07910160405180910390a450505050565b6040517f70a082310000000000000000000000000000000000000000000000000000000081523060048201526000907f00000000000000000000000000000000000000000000000000000000000000006001600160a01b0316906370a0823190602401602060405180830381865afa158015613759573d6000803e3d6000fd5b505050506040513d601f19601f8201168201806040525081019061377d9190613e17565b905081810361378b57505050565b818111156137a657611018836137a18484613e5f565b6138cb565b611018836137b48385613e5f565b6121de565b6000816000036137cb5750600161217c565b604080516001600160a01b038581166024830152604480830186905283518084039091018152606490920183526020820180517bffffffffffffffffffffffffffffffffffffffffffffffffffffffff167fa9059cbb000000000000000000000000000000000000000000000000000000001790529151600092839290881691613855919061442b565b6000604051808303816000865af19150503d8060008114613892576040519150601f19603f3d011682016040523d82523d6000602084013e613897565b606091505b50915091508180156138c15750805115806138c15750808060200190518101906138c19190613dfa565b9695505050505050565b6001600160a01b038216600090815260036020526040812080548392906138f3908490613f29565b90915550506040518181526001600160a01b038316907f2022607feefe24f258126b277628af517f5512dd9499fb3520eeff54cad13703906020016122aa565b600060808201356bffffffffffffffffffffffff6060840135165b6106c79190613e5f565b600060a0820135606080840135901c6bffffffffffffffffffffffff1661394e565b6001600160a01b038116811461398f57600080fd5b50565b600080604083850312156139a557600080fd5b82356139b08161397a565b946020939093013593505050565b6000806000606084860312156139d357600080fd5b83356139de8161397a565b925060208401356139ee8161397a565b929592945050506040919091013590565b60008060408385031215613a1257600080fd5b8235613a1d8161397a565b91506020830135613a2d8161397a565b809150509250929050565b600060208284031215613a4a57600080fd5b5035919050565b600060208284031215613a6357600080fd5b813561217c8161397a565b600080600060608486031215613a8357600080fd5b8335613a8e8161397a565b92506020840135613a9e8161397a565b91506040840135613aae8161397a565b809150509250925092565b600081518084526020808501945080840160005b83811015613ae957815187529582019590820190600101613acd565b509495945050505050565b604081526000613b076040830185613ab9565b8281036020840152611d998185613ab9565b60006101208284031215611cf057600080fd5b600080828403610160811215613b4157600080fd5b613b4b8585613b19565b925060407ffffffffffffffffffffffffffffffffffffffffffffffffffffffffffffffee082011215613b7d57600080fd5b50610120830190509250929050565b600080600080600080600060e0888a031215613ba757600080fd5b8735613bb28161397a565b96506020880135613bc28161397a565b96999698505050506040850135946060810135946080820135945060a0820135935060c0909101359150565b60006101808284031215611cf057600080fd5b600080600080600080600080610100898b031215613c1e57600080fd5b8835613c298161397a565b97506020890135613c398161397a565b979a9799505050506040860135956060810135956080820135955060a0820135945060c0820135935060e0909101359150565b60006101208284031215613c7f57600080fd5b6106c48383613b19565b801515811461398f57600080fd5b60008060008060808587031215613cad57600080fd5b8435613cb88161397a565b93506020850135613cc88161397a565b9250604085013591506060850135613cdf81613c89565b939692955090935050565b600080600080600060a08688031215613d0257600080fd5b8535613d0d8161397a565b94506020860135613d1d8161397a565b93506040860135613d2d8161397a565b94979396509394606081013594506080013592915050565b83815260006020606081840152613d5f6060840186613ab9565b838103604085015284518082528286019183019060005b81811015613d9b5783516001600160a01b031683529284019291840191600101613d76565b509098975050505050505050565b600080600080600060a08688031215613dc157600080fd5b8535613dcc8161397a565b94506020860135613ddc8161397a565b94979496505050506040830135926060810135926080909101359150565b600060208284031215613e0c57600080fd5b815161217c81613c89565b600060208284031215613e2957600080fd5b5051919050565b7f4e487b7100000000000000000000000000000000000000000000000000000000600052601160045260246000fd5b600082821015613e7157613e71613e30565b500390565b60007fffffffffffffffffffffffffffffffffffffffffffffffffffffffffffffffff8203613ea757613ea7613e30565b5060010190565b7f4e487b7100000000000000000000000000000000000000000000000000000000600052604160045260246000fd5b7f4e487b7100000000000000000000000000000000000000000000000000000000600052603260045260246000fd5b600060208284031215613f1e57600080fd5b813561217c81613c89565b60008219821115613f3c57613f3c613e30565b500190565b600080600060608486031215613f5657600080fd5b8351925060208401519150604084015190509250925092565b60005b83811015613f8a578181015183820152602001613f72565b83811115610f985750506000910152565b6020815260008251806020840152613fba816040850160208701613f6f565b601f017fffffffffffffffffffffffffffffffffffffffffffffffffffffffffffffffe0169190910160400192915050565b6080810181811067ffffffffffffffff8211171561400c5761400c613eae565b60405250565b7fffffffffffffffffffffffffffffffffffffffffffffffffffffffffffffffe0601f830116810181811067ffffffffffffffff8211171561405657614056613eae565b6040525050565b600067ffffffffffffffff82111561407757614077613eae565b5060051b60200190565b600082601f83011261409257600080fd5b8151602061409f8261405d565b604080516140ad8382614012565b84815260079490941b86018301938381019250878511156140cd57600080fd5b8387015b85811015614121576080818a0312156140ea5760008081fd5b82516140f581613fec565b8151815285820151868201528382015184820152606080830151908201528452928401926080016140d1565b50979650505050505050565b600082601f83011261413e57600080fd5b8151602061414b8261405d565b604080516141598382614012565b84815260079490941b860183019383810192508785111561417957600080fd5b8387015b85811015614121576080818a0312156141965760008081fd5b82516141a181613fec565b81516141ac8161397a565b8152818601518682015283820151848201526060808301519082015284529284019260800161417d565b600080600080608085870312156141ec57600080fd5b8451935060208086015167ffffffffffffffff8082111561420c57600080fd5b818801915088601f83011261422057600080fd5b815161422b8161405d565b6040516142388282614012565b82815260059290921b840185019185810191508b83111561425857600080fd5b938501935b828510156142765784518252938501939085019061425d565b60408b0151909850945050508083111561428f57600080fd5b61429b89848a01614081565b945060608801519250808311156142b157600080fd5b50506142bf8782880161412d565b91505092959194509250565b600080604083850312156142de57600080fd5b505080516020909101519092909150565b6000817fffffffffffffffffffffffffffffffffffffffffffffffffffffffffffffffff048311821515161561432757614327613e30565b500290565b600082614362577f4e487b7100000000000000000000000000000000000000000000000000000000600052601260045260246000fd5b500490565b600060033d11156143805760046000803e5060005160e01c5b90565b600060443d10156143915790565b6040517ffffffffffffffffffffffffffffffffffffffffffffffffffffffffffffffffc803d016004833e81513d67ffffffffffffffff81602484011181841117156143df57505050505090565b82850191508151818111156143f75750505050505090565b843d87010160208285010111156144115750505050505090565b61442060208286010187614012565b509095945050505050565b6000825161443d818460208701613f6f565b919091019291505056fea26469706673582212204a9cdb82fc0cbeac4cc08918a85ad033e995754de0df109af65d148f54aa0ca264736f6c634300080e0033",
  "linkReferences": {},
  "deployedLinkReferences": {}
}