{
  "_format": "hh-sol-artifact-1",
  "contractName": "MangroveOrderEnriched",
  "sourceName": "contracts/Strategies/OrderLogics/MangroveOrderEnriched.sol",
  "abi": [
    {
      "inputs": [
        {
          "internalType": "address payable",
          "name": "_MGV",
          "type": "address"
        },
        {
          "internalType": "address",
          "name": "admin",
          "type": "address"
        }
      ],
      "stateMutability": "nonpayable",
      "type": "constructor"
    },
    {
      "anonymous": false,
      "inputs": [
        {
          "indexed": true,
          "internalType": "address",
          "name": "user",
          "type": "address"
        },
        {
          "indexed": false,
          "internalType": "uint256",
          "name": "amount",
          "type": "uint256"
        }
      ],
      "name": "CreditMgvUser",
      "type": "event"
    },
    {
      "anonymous": false,
      "inputs": [
        {
          "indexed": true,
          "internalType": "address",
          "name": "user",
          "type": "address"
        },
        {
          "indexed": true,
          "internalType": "address",
          "name": "token",
          "type": "address"
        },
        {
          "indexed": false,
          "internalType": "uint256",
          "name": "amount",
          "type": "uint256"
        }
      ],
      "name": "CreditUserTokenBalance",
      "type": "event"
    },
    {
      "anonymous": false,
      "inputs": [
        {
          "indexed": true,
          "internalType": "address",
          "name": "user",
          "type": "address"
        },
        {
          "indexed": false,
          "internalType": "uint256",
          "name": "amount",
          "type": "uint256"
        }
      ],
      "name": "DebitMgvUser",
      "type": "event"
    },
    {
      "anonymous": false,
      "inputs": [
        {
          "indexed": true,
          "internalType": "address",
          "name": "user",
          "type": "address"
        },
        {
          "indexed": true,
          "internalType": "address",
          "name": "token",
          "type": "address"
        },
        {
          "indexed": false,
          "internalType": "uint256",
          "name": "amount",
          "type": "uint256"
        }
      ],
      "name": "DebitUserTokenBalance",
      "type": "event"
    },
    {
      "anonymous": false,
      "inputs": [
        {
          "indexed": true,
          "internalType": "address",
          "name": "outbound_tkn",
          "type": "address"
        },
        {
          "indexed": true,
          "internalType": "address",
          "name": "inbound_tkn",
          "type": "address"
        },
        {
          "indexed": true,
          "internalType": "uint256",
          "name": "offerId",
          "type": "uint256"
        },
        {
          "indexed": false,
          "internalType": "bytes32",
          "name": "reason",
          "type": "bytes32"
        }
      ],
      "name": "LogIncident",
      "type": "event"
    },
    {
      "anonymous": false,
      "inputs": [
        {
          "indexed": true,
          "internalType": "address",
          "name": "outbound_tkn",
          "type": "address"
        },
        {
          "indexed": true,
          "internalType": "address",
          "name": "inbound_tkn",
          "type": "address"
        },
        {
          "indexed": true,
          "internalType": "uint256",
          "name": "offerId",
          "type": "uint256"
        },
        {
          "indexed": false,
          "internalType": "address",
          "name": "owner",
          "type": "address"
        }
      ],
      "name": "NewOwnedOffer",
      "type": "event"
    },
    {
      "anonymous": false,
      "inputs": [
        {
          "indexed": true,
          "internalType": "address",
          "name": "base",
          "type": "address"
        },
        {
          "indexed": true,
          "internalType": "address",
          "name": "quote",
          "type": "address"
        },
        {
          "indexed": true,
          "internalType": "address",
          "name": "taker",
          "type": "address"
        },
        {
          "indexed": false,
          "internalType": "bool",
          "name": "selling",
          "type": "bool"
        },
        {
          "indexed": false,
          "internalType": "uint256",
          "name": "takerGot",
          "type": "uint256"
        },
        {
          "indexed": false,
          "internalType": "uint256",
          "name": "takerGave",
          "type": "uint256"
        },
        {
          "indexed": false,
          "internalType": "uint256",
          "name": "penalty",
          "type": "uint256"
        },
        {
          "indexed": false,
          "internalType": "uint256",
          "name": "restingOrderId",
          "type": "uint256"
        }
      ],
      "name": "OrderSummary",
      "type": "event"
    },
    {
      "inputs": [],
      "name": "MGV",
      "outputs": [
        {
          "internalType": "contract IMangrove",
          "name": "",
          "type": "address"
        }
      ],
      "stateMutability": "view",
      "type": "function"
    },
    {
      "inputs": [],
      "name": "OFR_GASREQ",
      "outputs": [
        {
          "internalType": "uint256",
          "name": "",
          "type": "uint256"
        }
      ],
      "stateMutability": "view",
      "type": "function"
    },
    {
      "inputs": [],
      "name": "admin",
      "outputs": [
        {
          "internalType": "address",
          "name": "",
          "type": "address"
        }
      ],
      "stateMutability": "view",
      "type": "function"
    },
    {
      "inputs": [
        {
          "internalType": "address",
          "name": "outbound_tkn",
          "type": "address"
        },
        {
          "internalType": "uint256",
          "name": "amount",
          "type": "uint256"
        }
      ],
      "name": "approveMangrove",
      "outputs": [],
      "stateMutability": "nonpayable",
      "type": "function"
    },
    {
      "inputs": [
        {
          "internalType": "address",
          "name": "owner",
          "type": "address"
        }
      ],
      "name": "balanceOnMangrove",
      "outputs": [
        {
          "internalType": "uint256",
          "name": "",
          "type": "uint256"
        }
      ],
      "stateMutability": "view",
      "type": "function"
    },
    {
      "inputs": [
        {
          "internalType": "address",
          "name": "token",
          "type": "address"
        },
        {
          "internalType": "uint256",
          "name": "amount",
          "type": "uint256"
        }
      ],
      "name": "depositToken",
      "outputs": [
        {
          "internalType": "bool",
          "name": "success",
          "type": "bool"
        }
      ],
      "stateMutability": "nonpayable",
      "type": "function"
    },
    {
      "inputs": [
        {
          "internalType": "address",
          "name": "",
          "type": "address"
        },
        {
          "internalType": "address",
          "name": "",
          "type": "address"
        },
        {
          "internalType": "uint256",
          "name": "",
          "type": "uint256"
        }
      ],
      "name": "expiring",
      "outputs": [
        {
          "internalType": "uint256",
          "name": "",
          "type": "uint256"
        }
      ],
      "stateMutability": "view",
      "type": "function"
    },
    {
      "inputs": [],
      "name": "fundMangrove",
      "outputs": [],
      "stateMutability": "payable",
      "type": "function"
    },
    {
      "inputs": [
        {
          "internalType": "address",
          "name": "outbound_tkn",
          "type": "address"
        },
        {
          "internalType": "address",
          "name": "inbound_tkn",
          "type": "address"
        },
        {
          "internalType": "uint256",
          "name": "gasreq",
          "type": "uint256"
        },
        {
          "internalType": "uint256",
          "name": "gasprice",
          "type": "uint256"
        },
        {
          "internalType": "uint256",
          "name": "offerId",
          "type": "uint256"
        }
      ],
      "name": "getMissingProvision",
      "outputs": [
        {
          "internalType": "uint256",
          "name": "",
          "type": "uint256"
        }
      ],
      "stateMutability": "view",
      "type": "function"
    },
    {
      "inputs": [
        {
          "components": [
            {
              "internalType": "address",
              "name": "outbound_tkn",
              "type": "address"
            },
            {
              "internalType": "address",
              "name": "inbound_tkn",
              "type": "address"
            },
            {
              "internalType": "uint256",
              "name": "offerId",
              "type": "uint256"
            },
            {
              "internalType": "Offer.t",
              "name": "offer",
              "type": "uint256"
            },
            {
              "internalType": "uint256",
              "name": "wants",
              "type": "uint256"
            },
            {
              "internalType": "uint256",
              "name": "gives",
              "type": "uint256"
            },
            {
              "internalType": "OfferDetail.t",
              "name": "offerDetail",
              "type": "uint256"
            },
            {
              "internalType": "Global.t",
              "name": "global",
              "type": "uint256"
            },
            {
              "internalType": "Local.t",
              "name": "local",
              "type": "uint256"
            }
          ],
          "internalType": "struct MgvLib.SingleOrder",
          "name": "order",
          "type": "tuple"
        }
      ],
      "name": "makerExecute",
      "outputs": [
        {
          "internalType": "bytes32",
          "name": "ret",
          "type": "bytes32"
        }
      ],
      "stateMutability": "nonpayable",
      "type": "function"
    },
    {
      "inputs": [
        {
          "components": [
            {
              "internalType": "address",
              "name": "outbound_tkn",
              "type": "address"
            },
            {
              "internalType": "address",
              "name": "inbound_tkn",
              "type": "address"
            },
            {
              "internalType": "uint256",
              "name": "offerId",
              "type": "uint256"
            },
            {
              "internalType": "Offer.t",
              "name": "offer",
              "type": "uint256"
            },
            {
              "internalType": "uint256",
              "name": "wants",
              "type": "uint256"
            },
            {
              "internalType": "uint256",
              "name": "gives",
              "type": "uint256"
            },
            {
              "internalType": "OfferDetail.t",
              "name": "offerDetail",
              "type": "uint256"
            },
            {
              "internalType": "Global.t",
              "name": "global",
              "type": "uint256"
            },
            {
              "internalType": "Local.t",
              "name": "local",
              "type": "uint256"
            }
          ],
          "internalType": "struct MgvLib.SingleOrder",
          "name": "order",
          "type": "tuple"
        },
        {
          "components": [
            {
              "internalType": "bytes32",
              "name": "makerData",
              "type": "bytes32"
            },
            {
              "internalType": "bytes32",
              "name": "mgvData",
              "type": "bytes32"
            }
          ],
          "internalType": "struct MgvLib.OrderResult",
          "name": "result",
          "type": "tuple"
        }
      ],
      "name": "makerPosthook",
      "outputs": [],
      "stateMutability": "nonpayable",
      "type": "function"
    },
    {
      "inputs": [
        {
          "internalType": "address",
          "name": "",
          "type": "address"
        }
      ],
      "name": "mgvBalance",
      "outputs": [
        {
          "internalType": "uint256",
          "name": "",
          "type": "uint256"
        }
      ],
      "stateMutability": "view",
      "type": "function"
    },
    {
      "inputs": [
        {
          "internalType": "address",
          "name": "outbound_tkn",
          "type": "address"
        },
        {
          "internalType": "address",
          "name": "inbound_tkn",
          "type": "address"
        },
        {
          "internalType": "uint256",
          "name": "wants",
          "type": "uint256"
        },
        {
          "internalType": "uint256",
          "name": "gives",
          "type": "uint256"
        },
        {
          "internalType": "uint256",
          "name": "gasreq",
          "type": "uint256"
        },
        {
          "internalType": "uint256",
          "name": "gasprice",
          "type": "uint256"
        },
        {
          "internalType": "uint256",
          "name": "pivotId",
          "type": "uint256"
        }
      ],
      "name": "newOffer",
      "outputs": [
        {
          "internalType": "uint256",
          "name": "offerId",
          "type": "uint256"
        }
      ],
      "stateMutability": "payable",
      "type": "function"
    },
    {
      "inputs": [
        {
          "internalType": "address",
          "name": "outbound_tkn",
          "type": "address"
        },
        {
          "internalType": "address",
          "name": "inbound_tkn",
          "type": "address"
        },
        {
          "internalType": "uint256[]",
          "name": "offerIds",
          "type": "uint256[]"
        }
      ],
      "name": "offerOwners",
      "outputs": [
        {
          "internalType": "address[]",
          "name": "__offerOwners",
          "type": "address[]"
        }
      ],
      "stateMutability": "view",
      "type": "function"
    },
    {
      "inputs": [
        {
          "internalType": "address",
          "name": "owner",
          "type": "address"
        },
        {
          "internalType": "address",
          "name": "outbound_tkn",
          "type": "address"
        },
        {
          "internalType": "address",
          "name": "inbound_tkn",
          "type": "address"
        }
      ],
      "name": "offersOfOwner",
      "outputs": [
        {
          "internalType": "uint256[]",
          "name": "live",
          "type": "uint256[]"
        },
        {
          "internalType": "uint256[]",
          "name": "dead",
          "type": "uint256[]"
        }
      ],
      "stateMutability": "view",
      "type": "function"
    },
    {
      "inputs": [
        {
          "internalType": "address",
          "name": "outbound_tkn",
          "type": "address"
        },
        {
          "internalType": "address",
          "name": "inbound_tkn",
          "type": "address"
        },
        {
          "internalType": "uint256",
          "name": "offerId",
          "type": "uint256"
        }
      ],
      "name": "ownerOf",
      "outputs": [
        {
          "internalType": "address",
          "name": "owner",
          "type": "address"
        }
      ],
      "stateMutability": "view",
      "type": "function"
    },
    {
      "inputs": [
        {
          "internalType": "address",
          "name": "token",
          "type": "address"
        },
        {
          "internalType": "address",
          "name": "receiver",
          "type": "address"
        },
        {
          "internalType": "uint256",
          "name": "amount",
          "type": "uint256"
        }
      ],
      "name": "redeemToken",
      "outputs": [
        {
          "internalType": "bool",
          "name": "success",
          "type": "bool"
        }
      ],
      "stateMutability": "nonpayable",
      "type": "function"
    },
    {
      "inputs": [
        {
          "internalType": "address",
          "name": "outbound_tkn",
          "type": "address"
        },
        {
          "internalType": "address",
          "name": "inbound_tkn",
          "type": "address"
        },
        {
          "internalType": "uint256",
          "name": "offerId",
          "type": "uint256"
        },
        {
          "internalType": "bool",
          "name": "deprovision",
          "type": "bool"
        }
      ],
      "name": "retractOffer",
      "outputs": [
        {
          "internalType": "uint256",
          "name": "received",
          "type": "uint256"
        }
      ],
      "stateMutability": "nonpayable",
      "type": "function"
    },
    {
      "inputs": [
        {
          "internalType": "address",
          "name": "_admin",
          "type": "address"
        }
      ],
      "name": "setAdmin",
      "outputs": [],
      "stateMutability": "nonpayable",
      "type": "function"
    },
    {
      "inputs": [
        {
          "internalType": "uint256",
          "name": "gasreq",
          "type": "uint256"
        }
      ],
      "name": "setGasreq",
      "outputs": [],
      "stateMutability": "nonpayable",
      "type": "function"
    },
    {
      "inputs": [
        {
          "components": [
            {
              "internalType": "address",
              "name": "base",
              "type": "address"
            },
            {
              "internalType": "address",
              "name": "quote",
              "type": "address"
            },
            {
              "internalType": "bool",
              "name": "partialFillNotAllowed",
              "type": "bool"
            },
            {
              "internalType": "bool",
              "name": "selling",
              "type": "bool"
            },
            {
              "internalType": "uint256",
              "name": "wants",
              "type": "uint256"
            },
            {
              "internalType": "uint256",
              "name": "makerWants",
              "type": "uint256"
            },
            {
              "internalType": "uint256",
              "name": "gives",
              "type": "uint256"
            },
            {
              "internalType": "uint256",
              "name": "makerGives",
              "type": "uint256"
            },
            {
              "internalType": "bool",
              "name": "restingOrder",
              "type": "bool"
            },
            {
              "internalType": "uint256",
              "name": "retryNumber",
              "type": "uint256"
            },
            {
              "internalType": "uint256",
              "name": "gasForMarketOrder",
              "type": "uint256"
            },
            {
              "internalType": "uint256",
              "name": "blocksToLiveForRestingOrder",
              "type": "uint256"
            }
          ],
          "internalType": "struct IOrderLogic.TakerOrder",
          "name": "tko",
          "type": "tuple"
        }
      ],
      "name": "take",
      "outputs": [
        {
          "components": [
            {
              "internalType": "uint256",
              "name": "takerGot",
              "type": "uint256"
            },
            {
              "internalType": "uint256",
              "name": "takerGave",
              "type": "uint256"
            },
            {
              "internalType": "uint256",
              "name": "bounty",
              "type": "uint256"
            },
            {
              "internalType": "uint256",
              "name": "offerId",
              "type": "uint256"
            }
          ],
          "internalType": "struct IOrderLogic.TakerOrderResult",
          "name": "res",
          "type": "tuple"
        }
      ],
      "stateMutability": "payable",
      "type": "function"
    },
    {
      "inputs": [
        {
          "internalType": "address",
          "name": "token",
          "type": "address"
        },
        {
          "internalType": "address",
          "name": "owner",
          "type": "address"
        }
      ],
      "name": "tokenBalance",
      "outputs": [
        {
          "internalType": "uint256",
          "name": "",
          "type": "uint256"
        }
      ],
      "stateMutability": "view",
      "type": "function"
    },
    {
      "inputs": [
        {
          "internalType": "address",
          "name": "",
          "type": "address"
        },
        {
          "internalType": "address",
          "name": "",
          "type": "address"
        }
      ],
      "name": "tokenBalanceOf",
      "outputs": [
        {
          "internalType": "uint256",
          "name": "",
          "type": "uint256"
        }
      ],
      "stateMutability": "view",
      "type": "function"
    },
    {
      "inputs": [
        {
          "internalType": "address",
          "name": "outbound_tkn",
          "type": "address"
        },
        {
          "internalType": "address",
          "name": "inbound_tkn",
          "type": "address"
        },
        {
          "internalType": "uint256",
          "name": "wants",
          "type": "uint256"
        },
        {
          "internalType": "uint256",
          "name": "gives",
          "type": "uint256"
        },
        {
          "internalType": "uint256",
          "name": "gasreq",
          "type": "uint256"
        },
        {
          "internalType": "uint256",
          "name": "gasprice",
          "type": "uint256"
        },
        {
          "internalType": "uint256",
          "name": "pivotId",
          "type": "uint256"
        },
        {
          "internalType": "uint256",
          "name": "offerId",
          "type": "uint256"
        }
      ],
      "name": "updateOffer",
      "outputs": [],
      "stateMutability": "payable",
      "type": "function"
    },
    {
      "inputs": [
        {
          "internalType": "address payable",
          "name": "receiver",
          "type": "address"
        },
        {
          "internalType": "uint256",
          "name": "amount",
          "type": "uint256"
        }
      ],
      "name": "withdrawFromMangrove",
      "outputs": [
        {
          "internalType": "bool",
          "name": "noRevert",
          "type": "bool"
        }
      ],
      "stateMutability": "nonpayable",
      "type": "function"
    },
    {
      "stateMutability": "payable",
      "type": "receive"
    }
  ],
  "bytecode": "0x60a06040523480156200001157600080fd5b50604051620047cc380380620047cc833981016040819052620000349162000153565b81818181806001600160a01b038116620000945760405162461bcd60e51b815260206004820152601860248201527f616363657373436f6e74726f6c6c65642f307841646d696e0000000000000000604482015260640160405180910390fd5b80620000aa620000f260201b620020fe1760201c565b80546001600160a01b0319166001600160a01b0392831617905583166080525062013880620000e462000116602090811b6200212217901c565b555062000192945050505050565b7f7d382ebca3e46505071795e192d28166a3d4bd0685585591bc6c5b8df6769fd290565b7fae7e31c3220e851db9f204a28b279dfe52b973600b0a456991089c220ae7222490565b6001600160a01b03811681146200015057600080fd5b50565b600080604083850312156200016757600080fd5b825162000174816200013a565b602084015190925062000187816200013a565b809150509250929050565b6080516145926200023a6000396000818161046301528181610a0501528181610b9601528181610dcc01528181610f5a0152818161126401528181611a6701528181611d7d01528181611e2801528181612277015281816127b1015281816128be01528181612afb01528181612e1e01528181612f470152818161329f015281816133720152818161343b015281816135a7015281816136710152613b3801526145926000f3fe60806040526004361061019a5760003560e01c80636a4f7691116100e1578063dec8c86b1161008a578063e4c34f8411610064578063e4c34f8414610578578063f851a44014610598578063f92495e5146105e2578063faa030ec1461060257600080fd5b8063dec8c86b146104ea578063df24266714610517578063e428204d1461054457600080fd5b806399fa5e2d116100bb57806399fa5e2d14610451578063ad97db1b146104aa578063aefe8403146104ca57600080fd5b80636a4f7691146103fe5780636c49c32c14610411578063704b6c021461043157600080fd5b806335d61cb21161014357806349f6d2dc1161011d57806349f6d2dc146103675780634e7effa81461037a5780636a1c7d05146103b857600080fd5b806335d61cb2146102d657806337b966bf146103195780633d3d130d1461034757600080fd5b80631bea8006116101745780631bea80061461025c578063338b5dea1461029457806334bd8931146102b457600080fd5b8063063df2d2146101a65780630d71bdc3146101db5780631049334f146101fb57600080fd5b366101a157005b600080fd5b3480156101b257600080fd5b506101c66101c1366004613ce3565b61060a565b60405190151581526020015b60405180910390f35b3480156101e757600080fd5b506101c66101f6366004613d0f565b61067e565b34801561020757600080fd5b5061024e610216366004613d50565b73ffffffffffffffffffffffffffffffffffffffff918216600090815260026020908152604080832093909416825291909152205490565b6040519081526020016101d2565b34801561026857600080fd5b5061024e610277366004613d50565b600260209081526000928352604080842090915290825290205481565b3480156102a057600080fd5b506101c66102af366004613ce3565b61077c565b3480156102c057600080fd5b506102d46102cf366004613d89565b6109ad565b005b3480156102e257600080fd5b5061024e6102f1366004613da2565b73ffffffffffffffffffffffffffffffffffffffff1660009081526001602052604090205490565b34801561032557600080fd5b50610339610334366004613dbf565b610aeb565b6040516101d2929190613e45565b34801561035357600080fd5b506102d4610362366004613e7d565b610f58565b61024e610375366004613edd565b6110d1565b34801561038657600080fd5b5061024e610395366004613d0f565b600360209081526000938452604080852082529284528284209052825290205481565b6103cb6103c6366004613f3f565b611140565b6040516101d291908151815260208083015190820152604080830151908201526060918201519181019190915260800190565b6102d461040c366004613f52565b611a1a565b34801561041d57600080fd5b5061024e61042c366004613fbd565b611a63565b34801561043d57600080fd5b506102d461044c366004613da2565b611c21565b34801561045d57600080fd5b506104857f000000000000000000000000000000000000000000000000000000000000000081565b60405173ffffffffffffffffffffffffffffffffffffffff90911681526020016101d2565b3480156104b657600080fd5b5061024e6104c5366004613fe8565b611d0d565b3480156104d657600080fd5b506102d46104e5366004613ce3565b611d25565b3480156104f657600080fd5b5061050a61050536600461403b565b611ef4565b6040516101d291906140d0565b34801561052357600080fd5b5061024e610532366004613da2565b60016020526000908152604090205481565b34801561055057600080fd5b507fae7e31c3220e851db9f204a28b279dfe52b973600b0a456991089c220ae722245461024e565b34801561058457600080fd5b5061024e61059336600461412a565b611fbb565b3480156105a457600080fd5b507f7d382ebca3e46505071795e192d28166a3d4bd0685585591bc6c5b8df6769fd25473ffffffffffffffffffffffffffffffffffffffff16610485565b3480156105ee57600080fd5b506104856105fd366004613d0f565b612013565b6102d46120a2565b6000333014156106615760405162461bcd60e51b815260206004820152601260248201527f4d75746c692f6e6f5265656e7472616e6379000000000000000000000000000060448201526064015b60405180910390fd5b61066b3383612146565b6106758383612245565b90505b92915050565b6000333014156106d05760405162461bcd60e51b815260206004820152601260248201527f4d75746c692f6e6f5265656e7472616e637900000000000000000000000000006044820152606401610658565b6106db8433846123d1565b6040517fa9059cbb00000000000000000000000000000000000000000000000000000000815273ffffffffffffffffffffffffffffffffffffffff84811660048301526024820184905285169063a9059cbb906044016020604051808303816000875af1158015610750573d6000803e3d6000fd5b505050506040513d601f19601f82011682018060405250810190610774919061417b565b949350505050565b6040517f70a08231000000000000000000000000000000000000000000000000000000008152306004820152600090819073ffffffffffffffffffffffffffffffffffffffff8516906370a0823190602401602060405180830381865afa1580156107eb573d6000803e3d6000fd5b505050506040513d601f19601f8201168201806040525081019061080f9190614198565b6040517f23b872dd0000000000000000000000000000000000000000000000000000000081523360048201523060248201526044810185905290915073ffffffffffffffffffffffffffffffffffffffff8516906323b872dd906064016020604051808303816000875af115801561088b573d6000803e3d6000fd5b505050506040513d601f19601f820116820180604052508101906108af919061417b565b6040517f70a082310000000000000000000000000000000000000000000000000000000081523060048201529092508390829073ffffffffffffffffffffffffffffffffffffffff8716906370a0823190602401602060405180830381865afa158015610920573d6000803e3d6000fd5b505050506040513d601f19601f820116820180604052508101906109449190614198565b61094e91906141e0565b1461099b5760405162461bcd60e51b815260206004820152601260248201527f4d756c74692f7472616e736665724661696c00000000000000000000000000006044820152606401610658565b6109a6843385612514565b5092915050565b7f7d382ebca3e46505071795e192d28166a3d4bd0685585591bc6c5b8df6769fd25473ffffffffffffffffffffffffffffffffffffffff16331480610a2757503373ffffffffffffffffffffffffffffffffffffffff7f000000000000000000000000000000000000000000000000000000000000000016145b610a735760405162461bcd60e51b815260206004820152601860248201527f416363657373436f6e74726f6c6c65642f496e76616c696400000000000000006044820152606401610658565b808162ffffff1614610ac75760405162461bcd60e51b815260206004820152601860248201527f6d67764f666665722f6761737265712f6f766572666c6f7700000000000000006044820152606401610658565b7fae7e31c3220e851db9f204a28b279dfe52b973600b0a456991089c220ae7222455565b73ffffffffffffffffffffffffffffffffffffffff80831660009081526004602090815260408083208585168452825280832093871683529281528282208280529052908120546060918291908190805b8215610cdc576040517f68c13d6b00000000000000000000000000000000000000000000000000000000815273ffffffffffffffffffffffffffffffffffffffff89811660048301528881166024830152604482018590527f0000000000000000000000000000000000000000000000000000000000000000169063275074589082906368c13d6b90606401602060405180830381865afa158015610be5573d6000803e3d6000fd5b505050506040513d601f19601f82011682018060405250810190610c099190614198565b6040518263ffffffff1660e01b8152600401610c2791815260200190565b602060405180830381865afa158015610c44573d6000803e3d6000fd5b505050506040513d601f19601f82011682018060405250810190610c68919061417b565b15610c7f5781610c77816141f7565b925050610c8d565b80610c89816141f7565b9150505b73ffffffffffffffffffffffffffffffffffffffff80891660009081526004602090815260408083208b851684528252808320938d168352928152828220958252949094529092205491610b3c565b8167ffffffffffffffff811115610cf557610cf5614230565b604051908082528060200260200182016040528015610d1e578160200160208202803683370190505b5095508067ffffffffffffffff811115610d3a57610d3a614230565b604051908082528060200260200182016040528015610d63578160200160208202803683370190505b50945083925060009150600090505b8215610f4c576040517f68c13d6b00000000000000000000000000000000000000000000000000000000815273ffffffffffffffffffffffffffffffffffffffff89811660048301528881166024830152604482018590527f0000000000000000000000000000000000000000000000000000000000000000169063275074589082906368c13d6b90606401602060405180830381865afa158015610e1b573d6000803e3d6000fd5b505050506040513d601f19601f82011682018060405250810190610e3f9190614198565b6040518263ffffffff1660e01b8152600401610e5d91815260200190565b602060405180830381865afa158015610e7a573d6000803e3d6000fd5b505050506040513d601f19601f82011682018060405250810190610e9e919061417b565b15610ed257828683610eaf816141f7565b945081518110610ec157610ec161425f565b602002602001018181525050610efd565b828582610ede816141f7565b935081518110610ef057610ef061425f565b6020026020010181815250505b73ffffffffffffffffffffffffffffffffffffffff80891660009081526004602090815260408083208b851684528252808320938d168352928152828220958252949094529092205491610d72565b50505050935093915050565b7f000000000000000000000000000000000000000000000000000000000000000073ffffffffffffffffffffffffffffffffffffffff81161580610fb157503373ffffffffffffffffffffffffffffffffffffffff8216145b610ffd5760405162461bcd60e51b815260206004820152601860248201527f416363657373436f6e74726f6c6c65642f496e76616c696400000000000000006044820152606401610658565b81602001357f6d67762f74726164655375636365737300000000000000000000000000000000141561103857611032836125be565b50505050565b6040830180359061104c9060208601613da2565b73ffffffffffffffffffffffffffffffffffffffff1661106f6020860186613da2565b73ffffffffffffffffffffffffffffffffffffffff167fd2c3f090769d843e1fc2e6ce65d60572e28f9163a5cfccbd6c1725c6a9263f2f85600001356040516110ba91815260200190565b60405180910390a46110328383612730565b505050565b6000333014156111235760405162461bcd60e51b815260206004820152601260248201527f4d75746c692f6e6f5265656e7472616e637900000000000000000000000000006044820152606401610658565b611134888888888888883334612769565b98975050505050505050565b61116b6040518060800160405280600081526020016000815260200160008152602001600081525090565b60008061117e608085016060860161428e565b6111a45761118f6020850185613da2565b61119f6040860160208701613da2565b6111c1565b6111b46040850160208601613da2565b6111c16020860186613da2565b915091506111d58133308760c00135612953565b6112215760405162461bcd60e51b815260206004820152601a60248201527f6d67764f726465722f6d6f2f7472616e73666572496e4661696c0000000000006044820152606401610658565b60005b61123461012086013560016142ab565b8110156113ef576101408501351580159061125357508461014001355a105b1561125d576113ef565b60008060007f000000000000000000000000000000000000000000000000000000000000000073ffffffffffffffffffffffffffffffffffffffff1663fbffe5fd87878b608001358c60c001358d60600160208101906112bd919061428e565b6112c85760016112cb565b60005b6040517fffffffff0000000000000000000000000000000000000000000000000000000060e088901b16815273ffffffffffffffffffffffffffffffffffffffff9586166004820152949093166024850152604484019190915260648301521515608482015260a4016060604051808303816000875af1158015611353573d6000803e3d6000fd5b505050506040513d601f19601f8201168201806040525081019061137791906142c3565b925092509250828760000181815161138f91906142ab565b9052506020870180518391906113a69083906142ab565b9052506040870180518291906113bd9083906142ab565b905250821580156113cc575080155b156113d9575050506113ef565b50505080806113e7906141f7565b915050611224565b5060006113fe83838787612a6d565b9050611410606086016040870161428e565b15806114195750805b8061143157506114316101208601610100870161428e565b61147d5760405162461bcd60e51b815260206004820152601960248201527f6d67764f726465722f6d6f2f6e6f5061727469616c46696c6c000000000000006044820152606401610658565b8351156114df5761149383338660000151612ba9565b6114df5760405162461bcd60e51b815260206004820152601b60248201527f6d67764f726465722f6d6f2f7472616e736665724f75744661696c00000000006044820152606401610658565b6114f16101208601610100870161428e565b80156114fb575080155b1561183c57611558828486600001518860a0013561151991906141e0565b602088015161152c9060e08b01356141e0565b7fae7e31c3220e851db9f204a28b279dfe52b973600b0a456991089c220ae72224546000803334612769565b6060850181905261156e90339084908690612cc5565b3361157f6040870160208801613da2565b73ffffffffffffffffffffffffffffffffffffffff166115a26020880188613da2565b73ffffffffffffffffffffffffffffffffffffffff167fab3ed3392e9579b676d21e1dda5b7d68388430686d83b9fe1bd66032e1e030ad6115e960808a0160608b0161428e565b88516020808b01516040808d01516060808f0151835197151588529487019590955285820192909252928401526080830152519081900360a00190a460608401516117bd5761163e606086016040870161428e565b1561168b5760405162461bcd60e51b815260206004820152601960248201527f6d67764f726465722f6d6f2f6e6f5061727469616c46696c6c000000000000006044820152606401610658565b6116a9823386602001518860c001356116a491906141e0565b612ba9565b6116f55760405162461bcd60e51b815260206004820152601a60248201527f6d67764f726465722f6d6f2f7472616e73666572496e4661696c0000000000006044820152606401610658565b600084604001513461170791906142ab565b11156117b5576040840151600090339061172190346142ab565b604051600081818185875af1925050503d806000811461175d576040519150601f19603f3d011682016040523d82523d6000602084013e611762565b606091505b50509050806117b35760405162461bcd60e51b815260206004820152601f60248201527f6d67764f726465722f6d6f2f726566756e6450726f766973696f6e4661696c006044820152606401610658565b505b505050919050565b6117db823386602001518860c001356117d691906141e0565b612514565b610160850135156117b5576117f5610160860135436142ab565b73ffffffffffffffffffffffffffffffffffffffff808416600090815260036020908152604080832093881683529281528282206060890151835290522055505050919050565b611855823386602001518860c001356116a491906141e0565b6118a15760405162461bcd60e51b815260206004820152601a60248201527f6d67764f726465722f6d6f2f7472616e73666572496e4661696c0000000000006044820152606401610658565b60008460400151346118b391906142ab565b111561196157604084015160009033906118cd90346142ab565b604051600081818185875af1925050503d8060008114611909576040519150601f19603f3d011682016040523d82523d6000602084013e61190e565b606091505b505090508061195f5760405162461bcd60e51b815260206004820152601660248201527f6d67764f726465722f6d6f2f726566756e644661696c000000000000000000006044820152606401610658565b505b336119726040870160208801613da2565b73ffffffffffffffffffffffffffffffffffffffff166119956020880188613da2565b73ffffffffffffffffffffffffffffffffffffffff167fab3ed3392e9579b676d21e1dda5b7d68388430686d83b9fe1bd66032e1e030ad6119dc60808a0160608b0161428e565b88516020808b01516040808d0151815195151586529285019390935283830152606083015260006080830152519081900360a00190a4505050919050565b600080611a2f8a8a8a8a8a8a8a8a3334612d64565b91509150600082118190611a565760405162461bcd60e51b8152600401610658919061431d565b5050505050505050505050565b60007f000000000000000000000000000000000000000000000000000000000000000073ffffffffffffffffffffffffffffffffffffffff81161580611abe57503373ffffffffffffffffffffffffffffffffffffffff8216145b611b0a5760405162461bcd60e51b815260206004820152601860248201527f416363657373436f6e74726f6c6c65642f496e76616c696400000000000000006044820152606401610658565b611b1383613012565b611b5f5760405162461bcd60e51b815260206004820152601660248201527f6d67764f666665722f61626f72742f72656e65676564000000000000000000006044820152606401610658565b6000611b6f8460a00135856130be565b1115611bbd5760405162461bcd60e51b815260206004820152601860248201527f6d67764f666665722f61626f72742f7075744661696c656400000000000000006044820152606401610658565b6000611bcd846080013585613101565b1115611c1b5760405162461bcd60e51b815260206004820152601860248201527f6d67764f666665722f61626f72742f6765744661696c656400000000000000006044820152606401610658565b50919050565b7f7d382ebca3e46505071795e192d28166a3d4bd0685585591bc6c5b8df6769fd25473ffffffffffffffffffffffffffffffffffffffff163314611ca75760405162461bcd60e51b815260206004820152601860248201527f416363657373436f6e74726f6c6c65642f496e76616c696400000000000000006044820152606401610658565b7f7d382ebca3e46505071795e192d28166a3d4bd0685585591bc6c5b8df6769fd280547fffffffffffffffffffffffff00000000000000000000000000000000000000001673ffffffffffffffffffffffffffffffffffffffff92909216919091179055565b6000611d1c85858585336131b5565b95945050505050565b7f7d382ebca3e46505071795e192d28166a3d4bd0685585591bc6c5b8df6769fd25473ffffffffffffffffffffffffffffffffffffffff16331480611d9f57503373ffffffffffffffffffffffffffffffffffffffff7f000000000000000000000000000000000000000000000000000000000000000016145b611deb5760405162461bcd60e51b815260206004820152601860248201527f416363657373436f6e74726f6c6c65642f496e76616c696400000000000000006044820152606401610658565b6040517f095ea7b300000000000000000000000000000000000000000000000000000000815273ffffffffffffffffffffffffffffffffffffffff7f0000000000000000000000000000000000000000000000000000000000000000811660048301526024820183905283169063095ea7b3906044016020604051808303816000875af1158015611e80573d6000803e3d6000fd5b505050506040513d601f19601f82011682018060405250810190611ea4919061417b565b611ef05760405162461bcd60e51b815260206004820152601560248201527f6d67764f666665722f617070726f76652f4661696c00000000000000000000006044820152606401610658565b5050565b60608167ffffffffffffffff811115611f0f57611f0f614230565b604051908082528060200260200182016040528015611f38578160200160208202803683370190505b50905060005b82811015611fb257611f698686868685818110611f5d57611f5d61425f565b90506020020135612013565b828281518110611f7b57611f7b61425f565b73ffffffffffffffffffffffffffffffffffffffff9092166020928302919091019091015280611faa816141f7565b915050611f3e565b50949350505050565b6000808215611ffa576000611fd1888886612013565b73ffffffffffffffffffffffffffffffffffffffff166000908152600160205260409020549150505b61200881888888888861331e565b979650505050505050565b73ffffffffffffffffffffffffffffffffffffffff80841660009081526020818152604080832086851684528252808320858452909152902054168061209b5760405162461bcd60e51b815260206004820152601560248201527f6d756c7469557365722f756e6b6f776e4f6666657200000000000000000000006044820152606401610658565b9392505050565b333014156120f25760405162461bcd60e51b815260206004820152601260248201527f4d75746c692f6e6f5265656e7472616e637900000000000000000000000000006044820152606401610658565b6120fc33346135a5565b565b7f7d382ebca3e46505071795e192d28166a3d4bd0685585591bc6c5b8df6769fd290565b7fae7e31c3220e851db9f204a28b279dfe52b973600b0a456991089c220ae7222490565b73ffffffffffffffffffffffffffffffffffffffff82166000908152600160205260409020548111156121bb5760405162461bcd60e51b815260206004820152601d60248201527f4d756c74692f64656269744f6e4d67762f696e73756666696369656e740000006044820152606401610658565b73ffffffffffffffffffffffffffffffffffffffff8216600090815260016020526040812080548392906121f09084906141e0565b909155505060405181815273ffffffffffffffffffffffffffffffffffffffff8316907fd50b865b3d9d927f026d3b8404e07f25d6beb1d111deab51bdc846bf8d0a860b906020015b60405180910390a25050565b6040517f2e1a7d4d000000000000000000000000000000000000000000000000000000008152600481018290526000907f000000000000000000000000000000000000000000000000000000000000000073ffffffffffffffffffffffffffffffffffffffff1690632e1a7d4d906024016020604051808303816000875af11580156122d5573d6000803e3d6000fd5b505050506040513d601f19601f820116820180604052508101906122f9919061417b565b6123455760405162461bcd60e51b815260206004820152601e60248201527f6d67764f666665722f77697468647261772f7472616e736665724661696c00006044820152606401610658565b73ffffffffffffffffffffffffffffffffffffffff831630146123c85760405173ffffffffffffffffffffffffffffffffffffffff8416908390600081818185875af1925050503d80600081146123b8576040519150601f19603f3d011682016040523d82523d6000602084013e6123bd565b606091505b505080915050610678565b50600192915050565b806123db57505050565b73ffffffffffffffffffffffffffffffffffffffff80841660009081526002602090815260408083209386168352929052205481111561245d5760405162461bcd60e51b815260206004820152601d60248201527f4d756c74692f6465626974546f6b656e2f696e73756666696369656e740000006044820152606401610658565b73ffffffffffffffffffffffffffffffffffffffff8084166000908152600260209081526040808320938616835292905290812080548392906124a19084906141e0565b925050819055508273ffffffffffffffffffffffffffffffffffffffff168273ffffffffffffffffffffffffffffffffffffffff167f7a97b405ee1bd89550b225932dbdd0431e30426b7c8f02f05b3cb0e1bdfb84768360405161250791815260200190565b60405180910390a3505050565b73ffffffffffffffffffffffffffffffffffffffff8084166000908152600260209081526040808320938616835292905290812080548392906125589084906142ab565b925050819055508273ffffffffffffffffffffffffffffffffffffffff168273ffffffffffffffffffffffffffffffffffffffff167fb2b1ec266d1bab793ae1d020eedf03e575cc390e5fb9e370cb099fdf2f61534d8360405161250791815260200190565b60006125c982613630565b156125d657506001919050565b60006126026125e86020850185613da2565b6125f86040860160208701613da2565b8560400135612013565b905061260e83826137f4565b61261b5750600092915050565b73ffffffffffffffffffffffffffffffffffffffff811660009081526001602052604090205461264c908290612146565b73ffffffffffffffffffffffffffffffffffffffff811660009081526001602052604090205461267d908290612245565b6123c857604083018035906126959060208601613da2565b73ffffffffffffffffffffffffffffffffffffffff166126b86020860186613da2565b73ffffffffffffffffffffffffffffffffffffffff167fd2c3f090769d843e1fc2e6ce65d60572e28f9163a5cfccbd6c1725c6a9263f2f60405161271f907f6d67764f726465722f706f7374686f6f6b2f7472616e73666572576569000000815260200190565b60405180910390a450600092915050565b60008061275d6127436020860186613da2565b6127536040870160208801613da2565b8660400135612013565b905061077484826137f4565b6040517f70a08231000000000000000000000000000000000000000000000000000000008152306004820152600090819073ffffffffffffffffffffffffffffffffffffffff7f000000000000000000000000000000000000000000000000000000000000000016906370a0823190602401602060405180830381865afa1580156127f8573d6000803e3d6000fd5b505050506040513d601f19601f8201168201806040525081019061281c9190614198565b905062ffffff87111561284e577fae7e31c3220e851db9f204a28b279dfe52b973600b0a456991089c220ae722245496505b6040517f49f6d2dc00000000000000000000000000000000000000000000000000000000815273ffffffffffffffffffffffffffffffffffffffff8c811660048301528b81166024830152604482018b9052606482018a90526084820189905260a4820188905260c482018790527f000000000000000000000000000000000000000000000000000000000000000016906349f6d2dc90859060e40160206040518083038185885af1158015612908573d6000803e3d6000fd5b50505050506040513d601f19601f8201168201806040525081019061292d9190614198565b915061293b8b8b8487613a65565b6129458482613b07565b509998505050505050505050565b60008161296257506001610774565b6040805173ffffffffffffffffffffffffffffffffffffffff86811660248301528581166044830152606480830186905283518084039091018152608490920183526020820180517bffffffffffffffffffffffffffffffffffffffffffffffffffffffff167f23b872dd000000000000000000000000000000000000000000000000000000001790529151600092839290891691612a01919061436e565b6000604051808303816000865af19150503d8060008114612a3e576040519150601f19603f3d011682016040523d82523d6000602084013e612a43565b606091505b5091509150818015612008575080511580612008575080806020019051810190612008919061417b565b6000612a7f608084016060850161428e565b15612a97578260c00135826020015110159050610774565b612aa7608084016060850161428e565b610774576040517fcbf75c9a00000000000000000000000000000000000000000000000000000000815273ffffffffffffffffffffffffffffffffffffffff868116600483015285811660248301526000917f00000000000000000000000000000000000000000000000000000000000000009091169063cbf75c9a906044016040805180830381865afa158015612b43573d6000803e3d6000fd5b505050506040513d601f19601f82011682018060405250810190612b67919061438a565b91506127109050612b8461ffff60e884901c1660808701356143ae565b612b8e91906143eb565b612b9c9060808601356141e0565b8351101591506107749050565b600081612bb85750600161209b565b6040805173ffffffffffffffffffffffffffffffffffffffff8581166024830152604480830186905283518084039091018152606490920183526020820180517bffffffffffffffffffffffffffffffffffffffffffffffffffffffff167fa9059cbb000000000000000000000000000000000000000000000000000000001790529151600092839290881691612c4f919061436e565b6000604051808303816000865af19150503d8060008114612c8c576040519150601f19603f3d011682016040523d82523d6000602084013e612c91565b606091505b5091509150818015612cbb575080511580612cbb575080806020019051810190612cbb919061417b565b9695505050505050565b73ffffffffffffffffffffffffffffffffffffffff83811660009081526004602090815260408083208685168452825280832093881683529281528282208280529052208054908290558015612d5d5773ffffffffffffffffffffffffffffffffffffffff80851660009081526004602090815260408083208785168452825280832093891683529281528282208583529052208190555b5050505050565b60006060612d738c8c87612013565b73ffffffffffffffffffffffffffffffffffffffff168473ffffffffffffffffffffffffffffffffffffffff1614612ded5760405162461bcd60e51b815260206004820152601e60248201527f4d756c74692f7570646174654f666665722f756e617574686f72697a656400006044820152606401610658565b6040517f70a082310000000000000000000000000000000000000000000000000000000081523060048201526000907f000000000000000000000000000000000000000000000000000000000000000073ffffffffffffffffffffffffffffffffffffffff16906370a0823190602401602060405180830381865afa158015612e7a573d6000803e3d6000fd5b505050506040513d601f19601f82011682018060405250810190612e9e9190614198565b905062ffffff891115612ed0577fae7e31c3220e851db9f204a28b279dfe52b973600b0a456991089c220ae722245498505b6040517f6a4f769100000000000000000000000000000000000000000000000000000000815273ffffffffffffffffffffffffffffffffffffffff8e811660048301528d81166024830152604482018d9052606482018c9052608482018b905260a482018a905260c4820189905260e482018890527f00000000000000000000000000000000000000000000000000000000000000001690636a4f7691908690610104016000604051808303818588803b158015612f8d57600080fd5b505af193505050508015612f9f575060015b612fe457612fab614426565b806308c379a01415612fd85750612fc06144b4565b80612fcb5750612fda565b6000935091506130039050565b505b3d6000803e3d6000fd5b612fee8582613b07565b50506040805160208101909152600081528491505b9a509a98505050505050505050565b6000806003816130256020860186613da2565b73ffffffffffffffffffffffffffffffffffffffff1673ffffffffffffffffffffffffffffffffffffffff16815260200190815260200160002060008460200160208101906130749190613da2565b73ffffffffffffffffffffffffffffffffffffffff16815260208082019290925260409081016000908120868301358252909252902054905080158061209b575043111592915050565b6000806130d16125e86020850185613da2565b90506130ed6130e66040850160208601613da2565b8286612ba9565b6130f75783610774565b5060009392505050565b6000806131146125e86020850185613da2565b905060006002816131286020870187613da2565b73ffffffffffffffffffffffffffffffffffffffff90811682526020808301939093526040918201600090812091861681529252902054905084811015613193576131806131796020860186613da2565b83836123d1565b61318a81866141e0565b92505050610678565b6131aa6131a36020860186613da2565b83876123d1565b600092505050610678565b73ffffffffffffffffffffffffffffffffffffffff8581166000908152602081815260408083208885168452825280832087845290915281205490918381169116146132435760405162461bcd60e51b815260206004820152601f60248201527f4d756c74692f726574726163744f666665722f756e617574686f72697a6564006044820152606401610658565b6040517fad97db1b00000000000000000000000000000000000000000000000000000000815273ffffffffffffffffffffffffffffffffffffffff878116600483015286811660248301526044820186905284151560648301527f0000000000000000000000000000000000000000000000000000000000000000169063ad97db1b906084016020604051808303816000875af11580156132e8573d6000803e3d6000fd5b505050506040513d601f19601f8201168201806040525081019061330c9190614198565b90508015611d1c57611d1c8282613bf5565b6040517fcbf75c9a00000000000000000000000000000000000000000000000000000000815273ffffffffffffffffffffffffffffffffffffffff86811660048301528581166024830152600091829182917f00000000000000000000000000000000000000000000000000000000000000009091169063cbf75c9a906044016040805180830381865afa1580156133ba573d6000803e3d6000fd5b505050506040513d601f19601f820116820180604052508101906133de919061438a565b6040517f5722647b00000000000000000000000000000000000000000000000000000000815273ffffffffffffffffffffffffffffffffffffffff8b811660048301528a81166024830152604482018890529294509092506000917f00000000000000000000000000000000000000000000000000000000000000001690635722647b90606401602060405180830381865afa158015613482573d6000803e3d6000fd5b505050506040513d601f19601f820116820180604052508101906134a69190614198565b9050600086604085901c61ffff1611156134c9575061ffff604084901c166134cc565b50855b62ffffff8811156134fc577fae7e31c3220e851db9f204a28b279dfe52b973600b0a456991089c220ae722245497505b60008161351262ffffff606087901c168b6142ab565b61351c91906143ae565b61352a90633b9aca006143ae565b9050600061ffff602085901c1661355162ffffff603087901c811690604888901c166142ab565b61355b91906143ae565b61356990633b9aca006143ae565b905060006135778e836142ab565b9050828110156135905761358b81846141e0565b613593565b60005b9e9d5050505050505050505050505050565b7f000000000000000000000000000000000000000000000000000000000000000073ffffffffffffffffffffffffffffffffffffffff1663b60d4288826040518263ffffffff1660e01b81526004016000604051808303818588803b15801561360d57600080fd5b505af1158015613621573d6000803e3d6000fd5b5050505050611ef08282613bf5565b60008061363c83613c77565b9050600061364984613c9c565b90508161365a575060019392505050565b73ffffffffffffffffffffffffffffffffffffffff7f000000000000000000000000000000000000000000000000000000000000000016636a4f76916136a36020870187613da2565b6136b36040880160208901613da2565b848660c08a013560481c62ffffff1660c08b013560201c61ffff1660608c013560c01c63ffffffff16604080517fffffffff0000000000000000000000000000000000000000000000000000000060e08b901b16815273ffffffffffffffffffffffffffffffffffffffff988916600482015297909616602488015260448701949094526064860192909252608485015260a484015260c483015287013560e482015261010401600060405180830381600087803b15801561377457600080fd5b505af1925050508015613785575060015b6137ea576137df6137996020860186613da2565b6137a96040870160208801613da2565b604087013560016137da6137c060208b018b613da2565b6137d060408c0160208d01613da2565b8b60400135612013565b6131b5565b506000949350505050565b5060019392505050565b6000806002816138076020870187613da2565b73ffffffffffffffffffffffffffffffffffffffff9081168252602080830193909352604091820160009081209187168152908352205491506138579061385090860186613da2565b8483612ba9565b61390b576040840180359061386f9060208701613da2565b73ffffffffffffffffffffffffffffffffffffffff166138926020870187613da2565b73ffffffffffffffffffffffffffffffffffffffff167fd2c3f090769d843e1fc2e6ce65d60572e28f9163a5cfccbd6c1725c6a9263f2f6040516138f9907f6d67764f726465722f72656465656d416c6c2f7472616e736665724f75740000815260200190565b60405180910390a46000915050610678565b61392261391b6020860186613da2565b84836123d1565b60006002816139376040880160208901613da2565b73ffffffffffffffffffffffffffffffffffffffff908116825260208083019390935260409182016000908120918816815290835281902054925061398b91613984918801908801613da2565b8583612ba9565b613a4057604085018035906139a39060208801613da2565b73ffffffffffffffffffffffffffffffffffffffff166139c66020880188613da2565b73ffffffffffffffffffffffffffffffffffffffff167fd2c3f090769d843e1fc2e6ce65d60572e28f9163a5cfccbd6c1725c6a9263f2f604051613a2d907f6d67764f726465722f72656465656d416c6c2f7472616e73666572496e000000815260200190565b60405180910390a4600092505050610678565b613a5a613a536040870160208801613da2565b85836123d1565b506001949350505050565b73ffffffffffffffffffffffffffffffffffffffff84811660008181526020818152604080832088861680855290835281842088855283529281902080547fffffffffffffffffffffffff00000000000000000000000000000000000000001695871695861790555193845285939192917fabf04a4ce23225c02bd147297da7ffc10e7d29102d8678f1a63fdd2cfd71ff07910160405180910390a450505050565b6040517f70a082310000000000000000000000000000000000000000000000000000000081523060048201526000907f000000000000000000000000000000000000000000000000000000000000000073ffffffffffffffffffffffffffffffffffffffff16906370a0823190602401602060405180830381865afa158015613b94573d6000803e3d6000fd5b505050506040513d601f19601f82011682018060405250810190613bb89190614198565b905081811415613bc757505050565b81811115613be2576110cc83613bdd84846141e0565b613bf5565b6110cc83613bf083856141e0565b612146565b73ffffffffffffffffffffffffffffffffffffffff821660009081526001602052604081208054839290613c2a9084906142ab565b909155505060405181815273ffffffffffffffffffffffffffffffffffffffff8316907f2022607feefe24f258126b277628af517f5512dd9499fb3520eeff54cad1370390602001612239565b600060808201356bffffffffffffffffffffffff6060840135165b61067891906141e0565b600060a0820135606080840135901c6bffffffffffffffffffffffff16613c92565b73ffffffffffffffffffffffffffffffffffffffff81168114613ce057600080fd5b50565b60008060408385031215613cf657600080fd5b8235613d0181613cbe565b946020939093013593505050565b600080600060608486031215613d2457600080fd5b8335613d2f81613cbe565b92506020840135613d3f81613cbe565b929592945050506040919091013590565b60008060408385031215613d6357600080fd5b8235613d6e81613cbe565b91506020830135613d7e81613cbe565b809150509250929050565b600060208284031215613d9b57600080fd5b5035919050565b600060208284031215613db457600080fd5b813561209b81613cbe565b600080600060608486031215613dd457600080fd5b8335613ddf81613cbe565b92506020840135613def81613cbe565b91506040840135613dff81613cbe565b809150509250925092565b600081518084526020808501945080840160005b83811015613e3a57815187529582019590820190600101613e1e565b509495945050505050565b604081526000613e586040830185613e0a565b8281036020840152611d1c8185613e0a565b60006101208284031215611c1b57600080fd5b600080828403610160811215613e9257600080fd5b613e9c8585613e6a565b925060407ffffffffffffffffffffffffffffffffffffffffffffffffffffffffffffffee082011215613ece57600080fd5b50610120830190509250929050565b600080600080600080600060e0888a031215613ef857600080fd5b8735613f0381613cbe565b96506020880135613f1381613cbe565b96999698505050506040850135946060810135946080820135945060a0820135935060c0909101359150565b60006101808284031215611c1b57600080fd5b600080600080600080600080610100898b031215613f6f57600080fd5b8835613f7a81613cbe565b97506020890135613f8a81613cbe565b979a9799505050506040860135956060810135956080820135955060a0820135945060c0820135935060e0909101359150565b60006101208284031215613fd057600080fd5b6106758383613e6a565b8015158114613ce057600080fd5b60008060008060808587031215613ffe57600080fd5b843561400981613cbe565b9350602085013561401981613cbe565b925060408501359150606085013561403081613fda565b939692955090935050565b6000806000806060858703121561405157600080fd5b843561405c81613cbe565b9350602085013561406c81613cbe565b9250604085013567ffffffffffffffff8082111561408957600080fd5b818701915087601f83011261409d57600080fd5b8135818111156140ac57600080fd5b8860208260051b85010111156140c157600080fd5b95989497505060200194505050565b6020808252825182820181905260009190848201906040850190845b8181101561411e57835173ffffffffffffffffffffffffffffffffffffffff16835292840192918401916001016140ec565b50909695505050505050565b600080600080600060a0868803121561414257600080fd5b853561414d81613cbe565b9450602086013561415d81613cbe565b94979496505050506040830135926060810135926080909101359150565b60006020828403121561418d57600080fd5b815161209b81613fda565b6000602082840312156141aa57600080fd5b5051919050565b7f4e487b7100000000000000000000000000000000000000000000000000000000600052601160045260246000fd5b6000828210156141f2576141f26141b1565b500390565b60007fffffffffffffffffffffffffffffffffffffffffffffffffffffffffffffffff821415614229576142296141b1565b5060010190565b7f4e487b7100000000000000000000000000000000000000000000000000000000600052604160045260246000fd5b7f4e487b7100000000000000000000000000000000000000000000000000000000600052603260045260246000fd5b6000602082840312156142a057600080fd5b813561209b81613fda565b600082198211156142be576142be6141b1565b500190565b6000806000606084860312156142d857600080fd5b8351925060208401519150604084015190509250925092565b60005b8381101561430c5781810151838201526020016142f4565b838111156110325750506000910152565b602081526000825180602084015261433c8160408501602087016142f1565b601f017fffffffffffffffffffffffffffffffffffffffffffffffffffffffffffffffe0169190910160400192915050565b600082516143808184602087016142f1565b9190910192915050565b6000806040838503121561439d57600080fd5b505080516020909101519092909150565b6000817fffffffffffffffffffffffffffffffffffffffffffffffffffffffffffffffff04831182151516156143e6576143e66141b1565b500290565b600082614421577f4e487b7100000000000000000000000000000000000000000000000000000000600052601260045260246000fd5b500490565b600060033d111561443f5760046000803e5060005160e01c5b90565b7fffffffffffffffffffffffffffffffffffffffffffffffffffffffffffffffe0601f830116810181811067ffffffffffffffff821117156144ad577f4e487b7100000000000000000000000000000000000000000000000000000000600052604160045260246000fd5b6040525050565b600060443d10156144c25790565b6040517ffffffffffffffffffffffffffffffffffffffffffffffffffffffffffffffffc803d016004833e81513d67ffffffffffffffff816024840111818411171561451057505050505090565b82850191508151818111156145285750505050505090565b843d87010160208285010111156145425750505050505090565b61455160208286010187614442565b50909594505050505056fea2646970667358221220bda894d36bb43e64e2b8b400cbbfb7bc0fa92480b42661da765220d6109b170f64736f6c634300080a0033",
  "linkReferences": {},
  "deployedLinkReferences": {}
}