{
  "_format": "hh-sol-artifact-1",
  "contractName": "MangroveOrderEnriched",
  "sourceName": "contracts/Strategies/OrderLogics/MangroveOrderEnriched.sol",
  "abi": [
    {
      "inputs": [
        {
          "internalType": "contract IMangrove",
          "name": "_MGV",
          "type": "address"
        },
        {
          "internalType": "address",
          "name": "admin",
          "type": "address"
        }
      ],
      "stateMutability": "nonpayable",
      "type": "constructor"
    },
    {
      "anonymous": false,
      "inputs": [
        {
          "indexed": true,
          "internalType": "address",
          "name": "user",
          "type": "address"
        },
        {
          "indexed": false,
          "internalType": "uint256",
          "name": "amount",
          "type": "uint256"
        }
      ],
      "name": "CreditMgvUser",
      "type": "event"
    },
    {
      "anonymous": false,
      "inputs": [
        {
          "indexed": true,
          "internalType": "address",
          "name": "user",
          "type": "address"
        },
        {
          "indexed": true,
          "internalType": "contract IEIP20",
          "name": "token",
          "type": "address"
        },
        {
          "indexed": false,
          "internalType": "uint256",
          "name": "amount",
          "type": "uint256"
        }
      ],
      "name": "CreditUserTokenBalance",
      "type": "event"
    },
    {
      "anonymous": false,
      "inputs": [
        {
          "indexed": true,
          "internalType": "address",
          "name": "user",
          "type": "address"
        },
        {
          "indexed": false,
          "internalType": "uint256",
          "name": "amount",
          "type": "uint256"
        }
      ],
      "name": "DebitMgvUser",
      "type": "event"
    },
    {
      "anonymous": false,
      "inputs": [
        {
          "indexed": true,
          "internalType": "address",
          "name": "user",
          "type": "address"
        },
        {
          "indexed": true,
          "internalType": "contract IEIP20",
          "name": "token",
          "type": "address"
        },
        {
          "indexed": false,
          "internalType": "uint256",
          "name": "amount",
          "type": "uint256"
        }
      ],
      "name": "DebitUserTokenBalance",
      "type": "event"
    },
    {
      "anonymous": false,
      "inputs": [
        {
          "indexed": true,
          "internalType": "contract IEIP20",
          "name": "outbound_tkn",
          "type": "address"
        },
        {
          "indexed": true,
          "internalType": "contract IEIP20",
          "name": "inbound_tkn",
          "type": "address"
        },
        {
          "indexed": true,
          "internalType": "uint256",
          "name": "offerId",
          "type": "uint256"
        },
        {
          "indexed": false,
          "internalType": "bytes32",
          "name": "reason",
          "type": "bytes32"
        }
      ],
      "name": "LogIncident",
      "type": "event"
    },
    {
      "anonymous": false,
      "inputs": [
        {
          "indexed": true,
          "internalType": "contract IEIP20",
          "name": "outbound_tkn",
          "type": "address"
        },
        {
          "indexed": true,
          "internalType": "contract IEIP20",
          "name": "inbound_tkn",
          "type": "address"
        },
        {
          "indexed": true,
          "internalType": "uint256",
          "name": "offerId",
          "type": "uint256"
        },
        {
          "indexed": false,
          "internalType": "address",
          "name": "owner",
          "type": "address"
        }
      ],
      "name": "NewOwnedOffer",
      "type": "event"
    },
    {
      "anonymous": false,
      "inputs": [
        {
          "indexed": true,
          "internalType": "contract IEIP20",
          "name": "base",
          "type": "address"
        },
        {
          "indexed": true,
          "internalType": "contract IEIP20",
          "name": "quote",
          "type": "address"
        },
        {
          "indexed": true,
          "internalType": "address",
          "name": "taker",
          "type": "address"
        },
        {
          "indexed": false,
          "internalType": "bool",
          "name": "selling",
          "type": "bool"
        },
        {
          "indexed": false,
          "internalType": "uint256",
          "name": "takerGot",
          "type": "uint256"
        },
        {
          "indexed": false,
          "internalType": "uint256",
          "name": "takerGave",
          "type": "uint256"
        },
        {
          "indexed": false,
          "internalType": "uint256",
          "name": "penalty",
          "type": "uint256"
        },
        {
          "indexed": false,
          "internalType": "uint256",
          "name": "restingOrderId",
          "type": "uint256"
        }
      ],
      "name": "OrderSummary",
      "type": "event"
    },
    {
      "inputs": [],
      "name": "MGV",
      "outputs": [
        {
          "internalType": "contract IMangrove",
          "name": "",
          "type": "address"
        }
      ],
      "stateMutability": "view",
      "type": "function"
    },
    {
      "inputs": [],
      "name": "OFR_GASREQ",
      "outputs": [
        {
          "internalType": "uint256",
          "name": "",
          "type": "uint256"
        }
      ],
      "stateMutability": "view",
      "type": "function"
    },
    {
      "inputs": [],
      "name": "admin",
      "outputs": [
        {
          "internalType": "address",
          "name": "",
          "type": "address"
        }
      ],
      "stateMutability": "view",
      "type": "function"
    },
    {
      "inputs": [
        {
          "internalType": "contract IEIP20",
          "name": "outbound_tkn",
          "type": "address"
        },
        {
          "internalType": "uint256",
          "name": "amount",
          "type": "uint256"
        }
      ],
      "name": "approveMangrove",
      "outputs": [],
      "stateMutability": "nonpayable",
      "type": "function"
    },
    {
      "inputs": [
        {
          "internalType": "address",
          "name": "owner",
          "type": "address"
        }
      ],
      "name": "balanceOnMangrove",
      "outputs": [
        {
          "internalType": "uint256",
          "name": "",
          "type": "uint256"
        }
      ],
      "stateMutability": "view",
      "type": "function"
    },
    {
      "inputs": [
        {
          "internalType": "contract IEIP20",
          "name": "token",
          "type": "address"
        },
        {
          "internalType": "uint256",
          "name": "amount",
          "type": "uint256"
        }
      ],
      "name": "depositToken",
      "outputs": [
        {
          "internalType": "bool",
          "name": "success",
          "type": "bool"
        }
      ],
      "stateMutability": "nonpayable",
      "type": "function"
    },
    {
      "inputs": [
        {
          "internalType": "contract IEIP20",
          "name": "",
          "type": "address"
        },
        {
          "internalType": "contract IEIP20",
          "name": "",
          "type": "address"
        },
        {
          "internalType": "uint256",
          "name": "",
          "type": "uint256"
        }
      ],
      "name": "expiring",
      "outputs": [
        {
          "internalType": "uint256",
          "name": "",
          "type": "uint256"
        }
      ],
      "stateMutability": "view",
      "type": "function"
    },
    {
      "inputs": [],
      "name": "fundMangrove",
      "outputs": [],
      "stateMutability": "payable",
      "type": "function"
    },
    {
      "inputs": [
        {
          "internalType": "contract IEIP20",
          "name": "outbound_tkn",
          "type": "address"
        },
        {
          "internalType": "contract IEIP20",
          "name": "inbound_tkn",
          "type": "address"
        },
        {
          "internalType": "uint256",
          "name": "gasreq",
          "type": "uint256"
        },
        {
          "internalType": "uint256",
          "name": "gasprice",
          "type": "uint256"
        },
        {
          "internalType": "uint256",
          "name": "offerId",
          "type": "uint256"
        }
      ],
      "name": "getMissingProvision",
      "outputs": [
        {
          "internalType": "uint256",
          "name": "",
          "type": "uint256"
        }
      ],
      "stateMutability": "view",
      "type": "function"
    },
    {
      "inputs": [
        {
          "components": [
            {
              "internalType": "address",
              "name": "outbound_tkn",
              "type": "address"
            },
            {
              "internalType": "address",
              "name": "inbound_tkn",
              "type": "address"
            },
            {
              "internalType": "uint256",
              "name": "offerId",
              "type": "uint256"
            },
            {
              "internalType": "t",
              "name": "offer",
              "type": "uint256"
            },
            {
              "internalType": "uint256",
              "name": "wants",
              "type": "uint256"
            },
            {
              "internalType": "uint256",
              "name": "gives",
              "type": "uint256"
            },
            {
              "internalType": "t",
              "name": "offerDetail",
              "type": "uint256"
            },
            {
              "internalType": "t",
              "name": "global",
              "type": "uint256"
            },
            {
              "internalType": "t",
              "name": "local",
              "type": "uint256"
            }
          ],
          "internalType": "struct MgvLib.SingleOrder",
          "name": "order",
          "type": "tuple"
        }
      ],
      "name": "makerExecute",
      "outputs": [
        {
          "internalType": "bytes32",
          "name": "ret",
          "type": "bytes32"
        }
      ],
      "stateMutability": "nonpayable",
      "type": "function"
    },
    {
      "inputs": [
        {
          "components": [
            {
              "internalType": "address",
              "name": "outbound_tkn",
              "type": "address"
            },
            {
              "internalType": "address",
              "name": "inbound_tkn",
              "type": "address"
            },
            {
              "internalType": "uint256",
              "name": "offerId",
              "type": "uint256"
            },
            {
              "internalType": "t",
              "name": "offer",
              "type": "uint256"
            },
            {
              "internalType": "uint256",
              "name": "wants",
              "type": "uint256"
            },
            {
              "internalType": "uint256",
              "name": "gives",
              "type": "uint256"
            },
            {
              "internalType": "t",
              "name": "offerDetail",
              "type": "uint256"
            },
            {
              "internalType": "t",
              "name": "global",
              "type": "uint256"
            },
            {
              "internalType": "t",
              "name": "local",
              "type": "uint256"
            }
          ],
          "internalType": "struct MgvLib.SingleOrder",
          "name": "order",
          "type": "tuple"
        },
        {
          "components": [
            {
              "internalType": "bytes32",
              "name": "makerData",
              "type": "bytes32"
            },
            {
              "internalType": "bytes32",
              "name": "mgvData",
              "type": "bytes32"
            }
          ],
          "internalType": "struct MgvLib.OrderResult",
          "name": "result",
          "type": "tuple"
        }
      ],
      "name": "makerPosthook",
      "outputs": [],
      "stateMutability": "nonpayable",
      "type": "function"
    },
    {
      "inputs": [
        {
          "internalType": "address",
          "name": "",
          "type": "address"
        }
      ],
      "name": "mgvBalance",
      "outputs": [
        {
          "internalType": "uint256",
          "name": "",
          "type": "uint256"
        }
      ],
      "stateMutability": "view",
      "type": "function"
    },
    {
      "inputs": [
        {
          "components": [
            {
              "internalType": "contract IEIP20",
              "name": "outbound_tkn",
              "type": "address"
            },
            {
              "internalType": "contract IEIP20",
              "name": "inbound_tkn",
              "type": "address"
            },
            {
              "internalType": "uint256",
              "name": "wants",
              "type": "uint256"
            },
            {
              "internalType": "uint256",
              "name": "gives",
              "type": "uint256"
            },
            {
              "internalType": "uint256",
              "name": "gasreq",
              "type": "uint256"
            },
            {
              "internalType": "uint256",
              "name": "gasprice",
              "type": "uint256"
            },
            {
              "internalType": "uint256",
              "name": "pivotId",
              "type": "uint256"
            }
          ],
          "internalType": "struct IOfferLogic.MakerOrder",
          "name": "mko",
          "type": "tuple"
        }
      ],
      "name": "newOffer",
      "outputs": [
        {
          "internalType": "uint256",
          "name": "offerId",
          "type": "uint256"
        }
      ],
      "stateMutability": "payable",
      "type": "function"
    },
    {
      "inputs": [
        {
          "internalType": "contract IEIP20",
          "name": "outbound_tkn",
          "type": "address"
        },
        {
          "internalType": "contract IEIP20",
          "name": "inbound_tkn",
          "type": "address"
        },
        {
          "internalType": "uint256[]",
          "name": "offerIds",
          "type": "uint256[]"
        }
      ],
      "name": "offerOwners",
      "outputs": [
        {
          "internalType": "address[]",
          "name": "__offerOwners",
          "type": "address[]"
        }
      ],
      "stateMutability": "view",
      "type": "function"
    },
    {
      "inputs": [
        {
          "internalType": "address",
          "name": "owner",
          "type": "address"
        },
        {
          "internalType": "contract IEIP20",
          "name": "outbound_tkn",
          "type": "address"
        },
        {
          "internalType": "contract IEIP20",
          "name": "inbound_tkn",
          "type": "address"
        }
      ],
      "name": "offersOfOwner",
      "outputs": [
        {
          "internalType": "uint256[]",
          "name": "live",
          "type": "uint256[]"
        },
        {
          "internalType": "uint256[]",
          "name": "dead",
          "type": "uint256[]"
        }
      ],
      "stateMutability": "view",
      "type": "function"
    },
    {
      "inputs": [
        {
          "internalType": "contract IEIP20",
          "name": "outbound_tkn",
          "type": "address"
        },
        {
          "internalType": "contract IEIP20",
          "name": "inbound_tkn",
          "type": "address"
        },
        {
          "internalType": "uint256",
          "name": "offerId",
          "type": "uint256"
        }
      ],
      "name": "ownerOf",
      "outputs": [
        {
          "internalType": "address",
          "name": "owner",
          "type": "address"
        }
      ],
      "stateMutability": "view",
      "type": "function"
    },
    {
      "inputs": [
        {
          "internalType": "contract IEIP20",
          "name": "outbound_tkn",
          "type": "address"
        },
        {
          "internalType": "contract IEIP20",
          "name": "inbound_tkn",
          "type": "address"
        },
        {
          "internalType": "uint256",
          "name": "offerId",
          "type": "uint256"
        },
        {
          "internalType": "bool",
          "name": "deprovision",
          "type": "bool"
        }
      ],
      "name": "retractOffer",
      "outputs": [
        {
          "internalType": "uint256",
          "name": "received",
          "type": "uint256"
        }
      ],
      "stateMutability": "nonpayable",
      "type": "function"
    },
    {
      "inputs": [
        {
          "internalType": "address",
          "name": "_admin",
          "type": "address"
        }
      ],
      "name": "setAdmin",
      "outputs": [],
      "stateMutability": "nonpayable",
      "type": "function"
    },
    {
      "inputs": [
        {
          "internalType": "uint256",
          "name": "gasreq",
          "type": "uint256"
        }
      ],
      "name": "setGasreq",
      "outputs": [],
      "stateMutability": "nonpayable",
      "type": "function"
    },
    {
      "inputs": [
        {
          "components": [
            {
              "internalType": "contract IEIP20",
              "name": "base",
              "type": "address"
            },
            {
              "internalType": "contract IEIP20",
              "name": "quote",
              "type": "address"
            },
            {
              "internalType": "bool",
              "name": "partialFillNotAllowed",
              "type": "bool"
            },
            {
              "internalType": "bool",
              "name": "selling",
              "type": "bool"
            },
            {
              "internalType": "uint256",
              "name": "wants",
              "type": "uint256"
            },
            {
              "internalType": "uint256",
              "name": "makerWants",
              "type": "uint256"
            },
            {
              "internalType": "uint256",
              "name": "gives",
              "type": "uint256"
            },
            {
              "internalType": "uint256",
              "name": "makerGives",
              "type": "uint256"
            },
            {
              "internalType": "bool",
              "name": "restingOrder",
              "type": "bool"
            },
            {
              "internalType": "uint256",
              "name": "retryNumber",
              "type": "uint256"
            },
            {
              "internalType": "uint256",
              "name": "gasForMarketOrder",
              "type": "uint256"
            },
            {
              "internalType": "uint256",
              "name": "blocksToLiveForRestingOrder",
              "type": "uint256"
            }
          ],
          "internalType": "struct IOrderLogic.TakerOrder",
          "name": "tko",
          "type": "tuple"
        }
      ],
      "name": "take",
      "outputs": [
        {
          "components": [
            {
              "internalType": "uint256",
              "name": "takerGot",
              "type": "uint256"
            },
            {
              "internalType": "uint256",
              "name": "takerGave",
              "type": "uint256"
            },
            {
              "internalType": "uint256",
              "name": "bounty",
              "type": "uint256"
            },
            {
              "internalType": "uint256",
              "name": "fee",
              "type": "uint256"
            },
            {
              "internalType": "uint256",
              "name": "offerId",
              "type": "uint256"
            }
          ],
          "internalType": "struct IOrderLogic.TakerOrderResult",
          "name": "res",
          "type": "tuple"
        }
      ],
      "stateMutability": "payable",
      "type": "function"
    },
    {
      "inputs": [
        {
          "internalType": "contract IEIP20",
          "name": "token",
          "type": "address"
        },
        {
          "internalType": "address",
          "name": "owner",
          "type": "address"
        }
      ],
      "name": "tokenBalance",
      "outputs": [
        {
          "internalType": "uint256",
          "name": "",
          "type": "uint256"
        }
      ],
      "stateMutability": "view",
      "type": "function"
    },
    {
      "inputs": [
        {
          "internalType": "contract IEIP20",
          "name": "",
          "type": "address"
        },
        {
          "internalType": "address",
          "name": "",
          "type": "address"
        }
      ],
      "name": "tokenBalanceOf",
      "outputs": [
        {
          "internalType": "uint256",
          "name": "",
          "type": "uint256"
        }
      ],
      "stateMutability": "view",
      "type": "function"
    },
    {
      "inputs": [
        {
          "components": [
            {
              "internalType": "contract IEIP20",
              "name": "outbound_tkn",
              "type": "address"
            },
            {
              "internalType": "contract IEIP20",
              "name": "inbound_tkn",
              "type": "address"
            },
            {
              "internalType": "uint256",
              "name": "wants",
              "type": "uint256"
            },
            {
              "internalType": "uint256",
              "name": "gives",
              "type": "uint256"
            },
            {
              "internalType": "uint256",
              "name": "gasreq",
              "type": "uint256"
            },
            {
              "internalType": "uint256",
              "name": "gasprice",
              "type": "uint256"
            },
            {
              "internalType": "uint256",
              "name": "pivotId",
              "type": "uint256"
            }
          ],
          "internalType": "struct IOfferLogic.MakerOrder",
          "name": "mko",
          "type": "tuple"
        },
        {
          "internalType": "uint256",
          "name": "offerId",
          "type": "uint256"
        }
      ],
      "name": "updateOffer",
      "outputs": [],
      "stateMutability": "payable",
      "type": "function"
    },
    {
      "inputs": [
        {
          "internalType": "address payable",
          "name": "receiver",
          "type": "address"
        },
        {
          "internalType": "uint256",
          "name": "amount",
          "type": "uint256"
        }
      ],
      "name": "withdrawFromMangrove",
      "outputs": [
        {
          "internalType": "bool",
          "name": "noRevert",
          "type": "bool"
        }
      ],
      "stateMutability": "nonpayable",
      "type": "function"
    },
    {
      "inputs": [
        {
          "internalType": "contract IEIP20",
          "name": "token",
          "type": "address"
        },
        {
          "internalType": "address",
          "name": "receiver",
          "type": "address"
        },
        {
          "internalType": "uint256",
          "name": "amount",
          "type": "uint256"
        }
      ],
      "name": "withdrawToken",
      "outputs": [
        {
          "internalType": "bool",
          "name": "success",
          "type": "bool"
        }
      ],
      "stateMutability": "nonpayable",
      "type": "function"
    },
    {
      "stateMutability": "payable",
      "type": "receive"
    }
  ],
  "bytecode": "0x60a06040523480156200001157600080fd5b506040516200438038038062004380833981016040819052620000349162000153565b81818181806001600160a01b038116620000945760405162461bcd60e51b815260206004820152601860248201527f616363657373436f6e74726f6c6c65642f307841646d696e0000000000000000604482015260640160405180910390fd5b80620000aa620000f260201b62001f601760201c565b80546001600160a01b0319166001600160a01b0392831617905583166080525062013880620000e462000116602090811b62001f8417901c565b555062000192945050505050565b7f7d382ebca3e46505071795e192d28166a3d4bd0685585591bc6c5b8df6769fd290565b7fae7e31c3220e851db9f204a28b279dfe52b973600b0a456991089c220ae7222490565b6001600160a01b03811681146200015057600080fd5b50565b600080604083850312156200016757600080fd5b825162000174816200013a565b602084015190925062000187816200013a565b809150509250929050565b60805161414d62000233600039600081816104580152818161094101528181610a7301528181610c9a01528181610e6b015281816110da0152818161189701528181611c1401528181611cb2015281816121c401528181612814015281816128cc01528181612c9e01528181612d1501528181612f2701528181613006015281816130bb0152818161327f01528181613332015261371f015261414d6000f3fe60806040526004361061019a5760003560e01c8063704b6c02116100e1578063dec8c86b1161008a578063e4c34f8411610064578063e4c34f8414610560578063f851a44014610580578063f92495e5146105bd578063faa030ec146105dd57600080fd5b8063dec8c86b146104d2578063df242667146104ff578063e428204d1461052c57600080fd5b806399fa5e2d116100bb57806399fa5e2d14610446578063ad97db1b14610492578063aefe8403146104b257600080fd5b8063704b6c02146104005780637ea1a48c146104205780637f84e4941461043357600080fd5b806335d61cb2116101435780634e7effa81161011d5780634e7effa81461034d5780636a1c7d051461038b5780636c49c32c146103e057600080fd5b806335d61cb2146102c957806337b966bf146102ff5780633d3d130d1461032d57600080fd5b80631bea8006116101745780631bea80061461024f578063338b5dea1461028757806334bd8931146102a757600080fd5b806301e33667146101a6578063063df2d2146101db5780631049334f146101fb57600080fd5b366101a157005b600080fd5b3480156101b257600080fd5b506101c66101c1366004613895565b6105e5565b60405190151581526020015b60405180910390f35b3480156101e757600080fd5b506101c66101f63660046138d6565b610686565b34801561020757600080fd5b50610241610216366004613902565b6001600160a01b03918216600090815260026020908152604080832093909416825291909152205490565b6040519081526020016101d2565b34801561025b57600080fd5b5061024161026a366004613902565b600260209081526000928352604080842090915290825290205481565b34801561029357600080fd5b506101c66102a23660046138d6565b6106f9565b3480156102b357600080fd5b506102c76102c236600461393b565b610903565b005b3480156102d557600080fd5b506102416102e4366004613954565b6001600160a01b031660009081526001602052604090205490565b34801561030b57600080fd5b5061031f61031a366004613971565b610a27565b6040516101d29291906139f7565b34801561033957600080fd5b506102c7610348366004613a2f565b610e69565b34801561035957600080fd5b50610241610368366004613895565b600360209081526000938452604080852082529284528284209052825290205481565b61039e610399366004613a8f565b610fad565b6040516101d29190600060a082019050825182526020830151602083015260408301516040830152606083015160608301526080830151608083015292915050565b3480156103ec57600080fd5b506102416103fb366004613aa2565b611893565b34801561040c57600080fd5b506102c761041b366004613954565b611a37565b61024161042e366004613ad1565b611b09565b6102c7610441366004613aed565b611b73565b34801561045257600080fd5b5061047a7f000000000000000000000000000000000000000000000000000000000000000081565b6040516001600160a01b0390911681526020016101d2565b34801561049e57600080fd5b506102416104ad366004613b27565b611bbe565b3480156104be57600080fd5b506102c76104cd3660046138d6565b611bd6565b3480156104de57600080fd5b506104f26104ed366004613b7a565b611d7e565b6040516101d29190613c0f565b34801561050b57600080fd5b5061024161051a366004613954565b60016020526000908152604090205481565b34801561053857600080fd5b507fae7e31c3220e851db9f204a28b279dfe52b973600b0a456991089c220ae7222454610241565b34801561056c57600080fd5b5061024161057b366004613c5c565b611e38565b34801561058c57600080fd5b507f7d382ebca3e46505071795e192d28166a3d4bd0685585591bc6c5b8df6769fd2546001600160a01b031661047a565b3480156105c957600080fd5b5061047a6105d8366004613895565b611e83565b6102c7611f05565b60006105f2843384611fa8565b6040517fa9059cbb0000000000000000000000000000000000000000000000000000000081526001600160a01b0384811660048301526024820184905285169063a9059cbb906044016020604051808303816000875af115801561065a573d6000803e3d6000fd5b505050506040513d601f19601f8201168201806040525081019061067e9190613cad565b949350505050565b60003033036106dc5760405162461bcd60e51b815260206004820152601260248201527f4d75746c692f6e6f5265656e7472616e6379000000000000000000000000000060448201526064015b60405180910390fd5b6106e633836120ba565b6106f08383612192565b90505b92915050565b6040517f70a0823100000000000000000000000000000000000000000000000000000000815230600482015260009081906001600160a01b038516906370a0823190602401602060405180830381865afa15801561075b573d6000803e3d6000fd5b505050506040513d601f19601f8201168201806040525081019061077f9190613cca565b6040517f23b872dd000000000000000000000000000000000000000000000000000000008152336004820152306024820152604481018590529091506001600160a01b038516906323b872dd906064016020604051808303816000875af11580156107ee573d6000803e3d6000fd5b505050506040513d601f19601f820116820180604052508101906108129190613cad565b6040517f70a08231000000000000000000000000000000000000000000000000000000008152306004820152909250839082906001600160a01b038716906370a0823190602401602060405180830381865afa158015610876573d6000803e3d6000fd5b505050506040513d601f19601f8201168201806040525081019061089a9190613cca565b6108a49190613d12565b146108f15760405162461bcd60e51b815260206004820152601260248201527f4d756c74692f7472616e736665724661696c000000000000000000000000000060448201526064016106d3565b6108fc8433856122f7565b5092915050565b7f7d382ebca3e46505071795e192d28166a3d4bd0685585591bc6c5b8df6769fd2546001600160a01b03163314806109635750336001600160a01b037f000000000000000000000000000000000000000000000000000000000000000016145b6109af5760405162461bcd60e51b815260206004820152601860248201527f416363657373436f6e74726f6c6c65642f496e76616c6964000000000000000060448201526064016106d3565b808162ffffff1614610a035760405162461bcd60e51b815260206004820152601860248201527f6d67764f666665722f6761737265712f6f766572666c6f77000000000000000060448201526064016106d3565b7fae7e31c3220e851db9f204a28b279dfe52b973600b0a456991089c220ae7222455565b6001600160a01b0380831660009081526004602090815260408083208585168452825280832093871683529281528282208280529052908120546060918291908190805b8215610bfc577f00000000000000000000000000000000000000000000000000000000000000006001600160a01b03166327507458816368c13d6b8b8b6040517fffffffff0000000000000000000000000000000000000000000000000000000060e085901b1681526001600160a01b0392831660048201529116602482015260448101889052606401602060405180830381865afa158015610b12573d6000803e3d6000fd5b505050506040513d601f19601f82011682018060405250810190610b369190613cca565b6040518263ffffffff1660e01b8152600401610b5491815260200190565b602060405180830381865afa158015610b71573d6000803e3d6000fd5b505050506040513d601f19601f82011682018060405250810190610b959190613cad565b15610bac5781610ba481613d29565b925050610bba565b80610bb681613d29565b9150505b6001600160a01b0380891660009081526004602090815260408083208b851684528252808320938d168352928152828220958252949094529092205491610a6b565b8167ffffffffffffffff811115610c1557610c15613d61565b604051908082528060200260200182016040528015610c3e578160200160208202803683370190505b5095508067ffffffffffffffff811115610c5a57610c5a613d61565b604051908082528060200260200182016040528015610c83578160200160208202803683370190505b50945083925060009150600090505b8215610e5d577f00000000000000000000000000000000000000000000000000000000000000006001600160a01b03166327507458816368c13d6b8b8b6040517fffffffff0000000000000000000000000000000000000000000000000000000060e085901b1681526001600160a01b0392831660048201529116602482015260448101889052606401602060405180830381865afa158015610d39573d6000803e3d6000fd5b505050506040513d601f19601f82011682018060405250810190610d5d9190613cca565b6040518263ffffffff1660e01b8152600401610d7b91815260200190565b602060405180830381865afa158015610d98573d6000803e3d6000fd5b505050506040513d601f19601f82011682018060405250810190610dbc9190613cad565b15610df057828683610dcd81613d29565b945081518110610ddf57610ddf613d90565b602002602001018181525050610e1b565b828582610dfc81613d29565b935081518110610e0e57610e0e613d90565b6020026020010181815250505b6001600160a01b0380891660009081526004602090815260408083208b851684528252808320938d168352928152828220958252949094529092205491610c92565b50505050935093915050565b7f00000000000000000000000000000000000000000000000000000000000000006001600160a01b0381161580610ea85750336001600160a01b038216145b610ef45760405162461bcd60e51b815260206004820152601860248201527f416363657373436f6e74726f6c6c65642f496e76616c6964000000000000000060448201526064016106d3565b81602001357f6d67762f7472616465537563636573730000000000000000000000000000000003610f2e57610f288361237a565b50505050565b60408301803590610f429060208601613954565b6001600160a01b0316610f586020860186613954565b6001600160a01b03167fd2c3f090769d843e1fc2e6ce65d60572e28f9163a5cfccbd6c1725c6a9263f2f8560000135604051610f9691815260200190565b60405180910390a4610f2883836124b8565b505050565b610fdf6040518060a0016040528060008152602001600081526020016000815260200160008152602001600081525090565b600080610ff26080850160608601613dbf565b611018576110036020850185613954565b6110136040860160208701613954565b611035565b6110286040850160208601613954565b6110356020860186613954565b915091506110498133308760c001356124f1565b6110955760405162461bcd60e51b815260206004820152601a60248201527f6d67764f726465722f6d6f2f7472616e73666572496e4661696c00000000000060448201526064016106d3565b60005b6110a86101208601356001613ddc565b81101561125e57610140850135158015906110c757508461014001355a105b61125e5760008080806001600160a01b037f00000000000000000000000000000000000000000000000000000000000000001663fbffe5fd88888c608001358d60c001358e606001602081019061111e9190613dbf565b61112957600161112c565b60005b6040517fffffffff0000000000000000000000000000000000000000000000000000000060e088901b1681526001600160a01b039586166004820152949093166024850152604484019190915260648301521515608482015260a4016080604051808303816000875af11580156111a7573d6000803e3d6000fd5b505050506040513d601f19601f820116820180604052508101906111cb9190613df4565b935093509350935083886000018181516111e59190613ddc565b9052506020880180518491906111fc908390613ddc565b905250604088018051839190611213908390613ddc565b90525060608801805182919061122a908390613ddc565b90525083158015611239575081155b15611247575050505061125e565b50505050808061125690613d29565b915050611098565b50600061126b858561261c565b905061127d6060860160408701613dbf565b15806112865750805b8061129e575061129e61012086016101008701613dbf565b6112ea5760405162461bcd60e51b815260206004820152601960248201527f6d67764f726465722f6d6f2f6e6f5061727469616c46696c6c0000000000000060448201526064016106d3565b83511561134c5761130083338660000151612665565b61134c5760405162461bcd60e51b815260206004820152601b60248201527f6d67764f726465722f6d6f2f7472616e736665724f75744661696c000000000060448201526064016106d3565b61135e61012086016101008701613dbf565b8015611368575080155b156116cf576040805160e0810182526001600160a01b038085168252851660208201526060860151865161140e938301916113a291613ddc565b6113b09060a08a0135613d12565b815260200186602001518860e001356113c99190613d12565b81526020016113f67fae7e31c3220e851db9f204a28b279dfe52b973600b0a456991089c220ae722245490565b81526020016000815260200160008152503334612789565b60808501819052611424903390849086906129f3565b336114356040870160208801613954565b6001600160a01b031661144b6020880188613954565b6001600160a01b03167fab3ed3392e9579b676d21e1dda5b7d68388430686d83b9fe1bd66032e1e030ad61148560808a0160608b01613dbf565b88516020808b01516040808d01516080808f015183519715158852948701959095529085019190915260608401529082015260a00160405180910390a4836080015160000361165d576114de6060860160408701613dbf565b1561152b5760405162461bcd60e51b815260206004820152601960248201527f6d67764f726465722f6d6f2f6e6f5061727469616c46696c6c0000000000000060448201526064016106d3565b611549823386602001518860c001356115449190613d12565b612665565b6115955760405162461bcd60e51b815260206004820152601a60248201527f6d67764f726465722f6d6f2f7472616e73666572496e4661696c00000000000060448201526064016106d3565b60008460400151346115a79190613ddc565b111561165557604084015160009033906115c19034613ddc565b604051600081818185875af1925050503d80600081146115fd576040519150601f19603f3d011682016040523d82523d6000602084013e611602565b606091505b50509050806116535760405162461bcd60e51b815260206004820152601f60248201527f6d67764f726465722f6d6f2f726566756e6450726f766973696f6e4661696c0060448201526064016106d3565b505b505050919050565b61167b823386602001518860c001356116769190613d12565b6122f7565b610160850135156116555761169561016086013543613ddc565b6001600160a01b03808416600090815260036020908152604080832093881683529281528282206080890151835290522055505050919050565b6116e8823386602001518860c001356115449190613d12565b6117345760405162461bcd60e51b815260206004820152601a60248201527f6d67764f726465722f6d6f2f7472616e73666572496e4661696c00000000000060448201526064016106d3565b60008460400151346117469190613ddc565b11156117f457604084015160009033906117609034613ddc565b604051600081818185875af1925050503d806000811461179c576040519150601f19603f3d011682016040523d82523d6000602084013e6117a1565b606091505b50509050806117f25760405162461bcd60e51b815260206004820152601660248201527f6d67764f726465722f6d6f2f726566756e644661696c0000000000000000000060448201526064016106d3565b505b336118056040870160208801613954565b6001600160a01b031661181b6020880188613954565b6001600160a01b03167fab3ed3392e9579b676d21e1dda5b7d68388430686d83b9fe1bd66032e1e030ad61185560808a0160608b01613dbf565b88516020808b01516040808d0151815195151586529285019390935283830152606083015260006080830152519081900360a00190a4505050919050565b60007f00000000000000000000000000000000000000000000000000000000000000006001600160a01b03811615806118d45750336001600160a01b038216145b6119205760405162461bcd60e51b815260206004820152601860248201527f416363657373436f6e74726f6c6c65642f496e76616c6964000000000000000060448201526064016106d3565b61192983612a74565b6119755760405162461bcd60e51b815260206004820152601660248201527f6d67764f666665722f61626f72742f72656e656765640000000000000000000060448201526064016106d3565b60006119858460a0013585612af9565b11156119d35760405162461bcd60e51b815260206004820152601860248201527f6d67764f666665722f61626f72742f7075744661696c6564000000000000000060448201526064016106d3565b60006119e3846080013585612b56565b1115611a315760405162461bcd60e51b815260206004820152601860248201527f6d67764f666665722f61626f72742f6765744661696c6564000000000000000060448201526064016106d3565b50919050565b7f7d382ebca3e46505071795e192d28166a3d4bd0685585591bc6c5b8df6769fd2546001600160a01b03163314611ab05760405162461bcd60e51b815260206004820152601860248201527f416363657373436f6e74726f6c6c65642f496e76616c6964000000000000000060448201526064016106d3565b7f7d382ebca3e46505071795e192d28166a3d4bd0685585591bc6c5b8df6769fd280547fffffffffffffffffffffffff0000000000000000000000000000000000000000166001600160a01b0392909216919091179055565b6000303303611b5a5760405162461bcd60e51b815260206004820152601260248201527f4d75746c692f6e6f5265656e7472616e6379000000000000000000000000000060448201526064016106d3565b6106f3611b6c36849003840184613e9c565b3334612789565b600080611b90611b8836869003860186613e9c565b843334612bf6565b91509150600082118190611bb75760405162461bcd60e51b81526004016106d39190613f85565b5050505050565b6000611bcd8585858533612e9c565b95945050505050565b7f7d382ebca3e46505071795e192d28166a3d4bd0685585591bc6c5b8df6769fd2546001600160a01b0316331480611c365750336001600160a01b037f000000000000000000000000000000000000000000000000000000000000000016145b611c825760405162461bcd60e51b815260206004820152601860248201527f416363657373436f6e74726f6c6c65642f496e76616c6964000000000000000060448201526064016106d3565b6040517f095ea7b30000000000000000000000000000000000000000000000000000000081526001600160a01b037f0000000000000000000000000000000000000000000000000000000000000000811660048301526024820183905283169063095ea7b3906044016020604051808303816000875af1158015611d0a573d6000803e3d6000fd5b505050506040513d601f19601f82011682018060405250810190611d2e9190613cad565b611d7a5760405162461bcd60e51b815260206004820152601560248201527f6d67764f666665722f617070726f76652f4661696c000000000000000000000060448201526064016106d3565b5050565b60608167ffffffffffffffff811115611d9957611d99613d61565b604051908082528060200260200182016040528015611dc2578160200160208202803683370190505b50905060005b82811015611e2f57611df38686868685818110611de757611de7613d90565b90506020020135611e83565b828281518110611e0557611e05613d90565b6001600160a01b039092166020928302919091019091015280611e2781613d29565b915050611dc8565b50949350505050565b6000808215611e6a576000611e4e888886611e83565b6001600160a01b03166000908152600160205260409020549150505b611e78818888888888612ff8565b979650505050505050565b6001600160a01b03808416600090815260208181526040808320868516845282528083208584529091529020541680611efe5760405162461bcd60e51b815260206004820152601560248201527f6d756c7469557365722f756e6b6f776e4f66666572000000000000000000000060448201526064016106d3565b9392505050565b303303611f545760405162461bcd60e51b815260206004820152601260248201527f4d75746c692f6e6f5265656e7472616e6379000000000000000000000000000060448201526064016106d3565b611f5e333461327d565b565b7f7d382ebca3e46505071795e192d28166a3d4bd0685585591bc6c5b8df6769fd290565b7fae7e31c3220e851db9f204a28b279dfe52b973600b0a456991089c220ae7222490565b80600003611fb557505050565b6001600160a01b0380841660009081526002602090815260408083209386168352929052205481111561202a5760405162461bcd60e51b815260206004820152601d60248201527f4d756c74692f6465626974546f6b656e2f696e73756666696369656e7400000060448201526064016106d3565b6001600160a01b03808416600090815260026020908152604080832093861683529290529081208054839290612061908490613d12565b92505081905550826001600160a01b0316826001600160a01b03167f7a97b405ee1bd89550b225932dbdd0431e30426b7c8f02f05b3cb0e1bdfb8476836040516120ad91815260200190565b60405180910390a3505050565b6001600160a01b0382166000908152600160205260409020548111156121225760405162461bcd60e51b815260206004820152601d60248201527f4d756c74692f64656269744f6e4d67762f696e73756666696369656e7400000060448201526064016106d3565b6001600160a01b0382166000908152600160205260408120805483929061214a908490613d12565b90915550506040518181526001600160a01b038316907fd50b865b3d9d927f026d3b8404e07f25d6beb1d111deab51bdc846bf8d0a860b906020015b60405180910390a25050565b6040517f2e1a7d4d000000000000000000000000000000000000000000000000000000008152600481018290526000907f00000000000000000000000000000000000000000000000000000000000000006001600160a01b031690632e1a7d4d906024016020604051808303816000875af1158015612215573d6000803e3d6000fd5b505050506040513d601f19601f820116820180604052508101906122399190613cad565b6122855760405162461bcd60e51b815260206004820152601e60248201527f6d67764f666665722f77697468647261772f7472616e736665724661696c000060448201526064016106d3565b6001600160a01b03831630146122ee576040516001600160a01b038416908390600081818185875af1925050503d80600081146122de576040519150601f19603f3d011682016040523d82523d6000602084013e6122e3565b606091505b5050809150506106f3565b50600192915050565b6001600160a01b0380841660009081526002602090815260408083209386168352929052908120805483929061232e908490613ddc565b92505081905550826001600160a01b0316826001600160a01b03167fb2b1ec266d1bab793ae1d020eedf03e575cc390e5fb9e370cb099fdf2f61534d836040516120ad91815260200190565b60008061238a6020840184613954565b9050600061239e6040850160208601613954565b90506123a9846132fb565b156123b8575060019392505050565b60006123c983838760400135611e83565b90506123d585826134a8565b6123e457506000949350505050565b6001600160a01b0381166000908152600160205260409020546124089082906120ba565b6001600160a01b03811660009081526001602052604090205461242c908290612192565b6124ad578460400135826001600160a01b0316846001600160a01b03167fd2c3f090769d843e1fc2e6ce65d60572e28f9163a5cfccbd6c1725c6a9263f2f60405161249a907f6d67764f726465722f706f7374686f6f6b2f7472616e73666572576569000000815260200190565b60405180910390a4506000949350505050565b506001949350505050565b6000806124e56124cb6020860186613954565b6124db6040870160208801613954565b8660400135611e83565b905061067e84826134a8565b60008115806125115750826001600160a01b0316846001600160a01b0316145b1561251e5750600161067e565b604080516001600160a01b0386811660248301528581166044830152606480830186905283518084039091018152608490920183526020820180517bffffffffffffffffffffffffffffffffffffffffffffffffffffffff167f23b872dd0000000000000000000000000000000000000000000000000000000017905291516000928392908916916125b09190613fd6565b6000604051808303816000865af19150503d80600081146125ed576040519150601f19603f3d011682016040523d82523d6000602084013e6125f2565b606091505b5091509150818015611e78575080511580611e78575080806020019051810190611e789190613cad565b600061262e6080840160608501613dbf565b15612646578260c001358260200151101590506106f3565b6060820151825160808501359161265c91613ddc565b101590506106f3565b600081158061267c57506001600160a01b03831630145b1561268957506001611efe565b604080516001600160a01b038581166024830152604480830186905283518084039091018152606490920183526020820180517bffffffffffffffffffffffffffffffffffffffffffffffffffffffff167fa9059cbb0000000000000000000000000000000000000000000000000000000017905291516000928392908816916127139190613fd6565b6000604051808303816000865af19150503d8060008114612750576040519150601f19603f3d011682016040523d82523d6000602084013e612755565b606091505b509150915081801561277f57508051158061277f57508080602001905181019061277f9190613cad565b9695505050505050565b6000306001600160a01b038416036127e35760405162461bcd60e51b815260206004820152601260248201527f4d75746c692f6e6f5265656e7472616e6379000000000000000000000000000060448201526064016106d3565b6040517f70a082310000000000000000000000000000000000000000000000000000000081523060048201526000907f00000000000000000000000000000000000000000000000000000000000000006001600160a01b0316906370a0823190602401602060405180830381865afa158015612863573d6000803e3d6000fd5b505050506040513d601f19601f820116820180604052508101906128879190613cca565b9050600062ffffff80168660800151116128a55785608001516128c8565b7fae7e31c3220e851db9f204a28b279dfe52b973600b0a456991089c220ae72224545b90507f00000000000000000000000000000000000000000000000000000000000000006001600160a01b03166349f6d2dc85612905896000015190565b60208a015160408b81015160608d015160a08e015160c08f0151935160e089901b7fffffffff000000000000000000000000000000000000000000000000000000001681526001600160a01b039687166004820152959094166024860152604485019190915260648401526084830187905260a483019190915260c482015260e40160206040518083038185885af11580156129a5573d6000803e3d6000fd5b50505050506040513d601f19601f820116820180604052508101906129ca9190613cca565b92506129e0866000015187602001518588613659565b6129ea85836136ee565b50509392505050565b6001600160a01b0383811660009081526004602090815260408083208685168452825280832093881683529281528282208280529052208054908290558015611bb7576001600160a01b0393841660009081526004602090815260408083209587168352948152848220969095168152948452828520918552925290912055565b600080600381612a876020860186613954565b6001600160a01b03166001600160a01b031681526020019081526020016000206000846020016020810190612abc9190613954565b6001600160a01b03168152602080820192909252604090810160009081208683013582529092529020549050801580611efe575043111592915050565b600080612b26612b0c6020850185613954565b612b1c6040860160208701613954565b8560400135611e83565b9050612b42612b3b6040850160208601613954565b8286612665565b612b4c578361067e565b5060009392505050565b600080612b666020840184613954565b90506000612b7a6040850160208601613954565b90506000612b8d83838760400135611e83565b6001600160a01b0380851660009081526002602090815260408083209385168352929052205490915086811015612bde57612bc9848383611fa8565b612bd38188613d12565b9450505050506106f3565b612be9848389611fa8565b60009450505050506106f3565b60006060612c0d8660000151876020015187611e83565b6001600160a01b0316846001600160a01b031614612c6d5760405162461bcd60e51b815260206004820152601e60248201527f4d756c74692f7570646174654f666665722f756e617574686f72697a6564000060448201526064016106d3565b6040517f70a082310000000000000000000000000000000000000000000000000000000081523060048201526000907f00000000000000000000000000000000000000000000000000000000000000006001600160a01b0316906370a0823190602401602060405180830381865afa158015612ced573d6000803e3d6000fd5b505050506040513d601f19601f82011682018060405250810190612d119190613cca565b90507f00000000000000000000000000000000000000000000000000000000000000006001600160a01b0316636a4f769185612d4e8a6000015190565b60208b015160408c015160608d015160808e015162ffffff10612d75578d60800151612d98565b7fae7e31c3220e851db9f204a28b279dfe52b973600b0a456991089c220ae72224545b8e60a001518f60c001518f6040518a63ffffffff1660e01b8152600401612e059897969594939291906001600160a01b03988916815296909716602087015260408601949094526060850192909252608084015260a083015260c082015260e08101919091526101000190565b6000604051808303818588803b158015612e1e57600080fd5b505af193505050508015612e30575060015b612e7457612e3c613ff2565b806308c379a003612e685750612e5061400e565b80612e5b5750612e6a565b600093509150612e939050565b505b3d6000803e3d6000fd5b612e7e85826136ee565b50506040805160208101909152600081528491505b94509492505050565b6001600160a01b03858116600090815260208181526040808320888516845282528083208784529091528120549091838116911614612f1d5760405162461bcd60e51b815260206004820152601f60248201527f4d756c74692f726574726163744f666665722f756e617574686f72697a65640060448201526064016106d3565b6001600160a01b037f00000000000000000000000000000000000000000000000000000000000000001663ad97db1b87876040517fffffffff0000000000000000000000000000000000000000000000000000000060e085901b1681526001600160a01b039283166004820152911660248201526044810187905285151560648201526084016020604051808303816000875af1158015612fc2573d6000803e3d6000fd5b505050506040513d601f19601f82011682018060405250810190612fe69190613cca565b90508015611bcd57611bcd82826137ce565b600080806001600160a01b037f00000000000000000000000000000000000000000000000000000000000000001663cbf75c9a89896040517fffffffff0000000000000000000000000000000000000000000000000000000060e085901b1681526001600160a01b039283166004820152911660248201526044016040805180830381865afa15801561308f573d6000803e3d6000fd5b505050506040513d601f19601f820116820180604052508101906130b391906140b6565b9150915060007f00000000000000000000000000000000000000000000000000000000000000006001600160a01b0316635722647b6130ef8b90565b8a6040517fffffffff0000000000000000000000000000000000000000000000000000000060e085901b1681526001600160a01b0392831660048201529116602482015260448101889052606401602060405180830381865afa15801561315a573d6000803e3d6000fd5b505050506040513d601f19601f8201168201806040525081019061317e9190613cca565b9050600086604085901c61ffff1611156131a1575061ffff604084901c166131a4565b50855b62ffffff8811156131d4577fae7e31c3220e851db9f204a28b279dfe52b973600b0a456991089c220ae722245497505b6000816131ea62ffffff606087901c168b613ddc565b6131f491906140da565b61320290633b9aca006140da565b9050600061ffff602085901c1661322962ffffff603087901c811690604888901c16613ddc565b61323391906140da565b61324190633b9aca006140da565b9050600061324f8e83613ddc565b905082811015613268576132638184613d12565b61326b565b60005b9e9d5050505050505050505050505050565b7f00000000000000000000000000000000000000000000000000000000000000006001600160a01b031663b60d4288826040518263ffffffff1660e01b81526004016000604051808303818588803b1580156132d857600080fd5b505af11580156132ec573d6000803e3d6000fd5b5050505050611d7a82826137ce565b60008061330783613836565b905060006133148461385b565b905081600003613328575060019392505050565b6001600160a01b037f000000000000000000000000000000000000000000000000000000000000000016636a4f76916133646020870187613954565b6133746040880160208901613954565b848660c08a013560481c62ffffff1660c08b013560201c61ffff1660608c013560c01c63ffffffff16604080517fffffffff0000000000000000000000000000000000000000000000000000000060e08b901b1681526001600160a01b03988916600482015297909616602488015260448701949094526064860192909252608485015260a484015260c483015287013560e482015261010401600060405180830381600087803b15801561342857600080fd5b505af1925050508015613439575060015b61349e5761349361344d6020860186613954565b61345d6040870160208801613954565b6040870135600161348e61347460208b018b613954565b61348460408c0160208d01613954565b8b60400135611e83565b612e9c565b506000949350505050565b5060019392505050565b6000806134b86020850185613954565b905060006134cc6040860160208701613954565b6001600160a01b03808416600090815260026020908152604080832093891683529290522054909150613500838683612665565b613582578560400135826001600160a01b0316846001600160a01b03167fd2c3f090769d843e1fc2e6ce65d60572e28f9163a5cfccbd6c1725c6a9263f2f60405161356e907f6d67764f726465722f72656465656d416c6c2f7472616e736665724f75740000815260200190565b60405180910390a4600093505050506106f3565b61358d838683611fa8565b6001600160a01b038083166000908152600260209081526040808320938916835292905220546135be838783612665565b613641578660400135836001600160a01b0316856001600160a01b03167fd2c3f090769d843e1fc2e6ce65d60572e28f9163a5cfccbd6c1725c6a9263f2f60405161362c907f6d67764f726465722f72656465656d416c6c2f7472616e73666572496e000000815260200190565b60405180910390a460009450505050506106f3565b61364c838783611fa8565b5060019695505050505050565b6001600160a01b0384811660008181526020818152604080832088861680855290835281842088855283529281902080547fffffffffffffffffffffffff00000000000000000000000000000000000000001695871695861790555193845285939192917fabf04a4ce23225c02bd147297da7ffc10e7d29102d8678f1a63fdd2cfd71ff07910160405180910390a450505050565b6040517f70a082310000000000000000000000000000000000000000000000000000000081523060048201526000907f00000000000000000000000000000000000000000000000000000000000000006001600160a01b0316906370a0823190602401602060405180830381865afa15801561376e573d6000803e3d6000fd5b505050506040513d601f19601f820116820180604052508101906137929190613cca565b90508181036137a057505050565b818111156137bb57610fa8836137b68484613d12565b6137ce565b610fa8836137c98385613d12565b6120ba565b6001600160a01b038216600090815260016020526040812080548392906137f6908490613ddc565b90915550506040518181526001600160a01b038316907f2022607feefe24f258126b277628af517f5512dd9499fb3520eeff54cad1370390602001612186565b600060808201356bffffffffffffffffffffffff6060840135165b6106f39190613d12565b600060a0820135606080840135901c6bffffffffffffffffffffffff16613851565b6001600160a01b038116811461389257600080fd5b50565b6000806000606084860312156138aa57600080fd5b83356138b58161387d565b925060208401356138c58161387d565b929592945050506040919091013590565b600080604083850312156138e957600080fd5b82356138f48161387d565b946020939093013593505050565b6000806040838503121561391557600080fd5b82356139208161387d565b915060208301356139308161387d565b809150509250929050565b60006020828403121561394d57600080fd5b5035919050565b60006020828403121561396657600080fd5b8135611efe8161387d565b60008060006060848603121561398657600080fd5b83356139918161387d565b925060208401356139a18161387d565b915060408401356139b18161387d565b809150509250925092565b600081518084526020808501945080840160005b838110156139ec578151875295820195908201906001016139d0565b509495945050505050565b604081526000613a0a60408301856139bc565b8281036020840152611bcd81856139bc565b60006101208284031215611a3157600080fd5b600080828403610160811215613a4457600080fd5b613a4e8585613a1c565b925060407ffffffffffffffffffffffffffffffffffffffffffffffffffffffffffffffee082011215613a8057600080fd5b50610120830190509250929050565b60006101808284031215611a3157600080fd5b60006101208284031215613ab557600080fd5b6106f08383613a1c565b600060e08284031215611a3157600080fd5b600060e08284031215613ae357600080fd5b6106f08383613abf565b6000806101008385031215613b0157600080fd5b613b0b8484613abf565b9460e0939093013593505050565b801515811461389257600080fd5b60008060008060808587031215613b3d57600080fd5b8435613b488161387d565b93506020850135613b588161387d565b9250604085013591506060850135613b6f81613b19565b939692955090935050565b60008060008060608587031215613b9057600080fd5b8435613b9b8161387d565b93506020850135613bab8161387d565b9250604085013567ffffffffffffffff80821115613bc857600080fd5b818701915087601f830112613bdc57600080fd5b813581811115613beb57600080fd5b8860208260051b8501011115613c0057600080fd5b95989497505060200194505050565b6020808252825182820181905260009190848201906040850190845b81811015613c505783516001600160a01b031683529284019291840191600101613c2b565b50909695505050505050565b600080600080600060a08688031215613c7457600080fd5b8535613c7f8161387d565b94506020860135613c8f8161387d565b94979496505050506040830135926060810135926080909101359150565b600060208284031215613cbf57600080fd5b8151611efe81613b19565b600060208284031215613cdc57600080fd5b5051919050565b7f4e487b7100000000000000000000000000000000000000000000000000000000600052601160045260246000fd5b600082821015613d2457613d24613ce3565b500390565b60007fffffffffffffffffffffffffffffffffffffffffffffffffffffffffffffffff8203613d5a57613d5a613ce3565b5060010190565b7f4e487b7100000000000000000000000000000000000000000000000000000000600052604160045260246000fd5b7f4e487b7100000000000000000000000000000000000000000000000000000000600052603260045260246000fd5b600060208284031215613dd157600080fd5b8135611efe81613b19565b60008219821115613def57613def613ce3565b500190565b60008060008060808587031215613e0a57600080fd5b505082516020840151604085015160609095015191969095509092509050565b7fffffffffffffffffffffffffffffffffffffffffffffffffffffffffffffffe0601f830116810181811067ffffffffffffffff82111715613e95577f4e487b7100000000000000000000000000000000000000000000000000000000600052604160045260246000fd5b6040525050565b600060e08284031215613eae57600080fd5b60405160e0810181811067ffffffffffffffff82111715613ef8577f4e487b7100000000000000000000000000000000000000000000000000000000600052604160045260246000fd5b6040528235613f068161387d565b81526020830135613f168161387d565b8060208301525060408301356040820152606083013560608201526080830135608082015260a083013560a082015260c083013560c08201528091505092915050565b60005b83811015613f74578181015183820152602001613f5c565b83811115610f285750506000910152565b6020815260008251806020840152613fa4816040850160208701613f59565b601f017fffffffffffffffffffffffffffffffffffffffffffffffffffffffffffffffe0169190910160400192915050565b60008251613fe8818460208701613f59565b9190910192915050565b600060033d111561400b5760046000803e5060005160e01c5b90565b600060443d101561401c5790565b6040517ffffffffffffffffffffffffffffffffffffffffffffffffffffffffffffffffc803d016004833e81513d67ffffffffffffffff816024840111818411171561406a57505050505090565b82850191508151818111156140825750505050505090565b843d870101602082850101111561409c5750505050505090565b6140ab60208286010187613e2a565b509095945050505050565b600080604083850312156140c957600080fd5b505080516020909101519092909150565b6000817fffffffffffffffffffffffffffffffffffffffffffffffffffffffffffffffff048311821515161561411257614112613ce3565b50029056fea26469706673582212204705e6d252d78ae202ed1424ebd604829d3de9b0e79e4d04ea8b39713454973864736f6c634300080e0033",
  "linkReferences": {},
  "deployedLinkReferences": {}
}