{
  "_format": "hh-sol-artifact-1",
  "contractName": "MangroveOrderEnriched",
  "sourceName": "contracts/Strategies/OrderLogics/MangroveOrderEnriched.sol",
  "abi": [
    {
      "inputs": [
        {
          "internalType": "address payable",
          "name": "_MGV",
          "type": "address"
        },
        {
          "internalType": "address",
          "name": "admin",
          "type": "address"
        }
      ],
      "stateMutability": "nonpayable",
      "type": "constructor"
    },
    {
      "anonymous": false,
      "inputs": [
        {
          "indexed": true,
          "internalType": "address",
          "name": "user",
          "type": "address"
        },
        {
          "indexed": false,
          "internalType": "uint256",
          "name": "amount",
          "type": "uint256"
        }
      ],
      "name": "CreditMgvUser",
      "type": "event"
    },
    {
      "anonymous": false,
      "inputs": [
        {
          "indexed": true,
          "internalType": "address",
          "name": "user",
          "type": "address"
        },
        {
          "indexed": true,
          "internalType": "address",
          "name": "token",
          "type": "address"
        },
        {
          "indexed": false,
          "internalType": "uint256",
          "name": "amount",
          "type": "uint256"
        }
      ],
      "name": "CreditUserTokenBalance",
      "type": "event"
    },
    {
      "anonymous": false,
      "inputs": [
        {
          "indexed": true,
          "internalType": "address",
          "name": "user",
          "type": "address"
        },
        {
          "indexed": false,
          "internalType": "uint256",
          "name": "amount",
          "type": "uint256"
        }
      ],
      "name": "DebitMgvUser",
      "type": "event"
    },
    {
      "anonymous": false,
      "inputs": [
        {
          "indexed": true,
          "internalType": "address",
          "name": "user",
          "type": "address"
        },
        {
          "indexed": true,
          "internalType": "address",
          "name": "token",
          "type": "address"
        },
        {
          "indexed": false,
          "internalType": "uint256",
          "name": "amount",
          "type": "uint256"
        }
      ],
      "name": "DebitUserTokenBalance",
      "type": "event"
    },
    {
      "anonymous": false,
      "inputs": [
        {
          "indexed": true,
          "internalType": "address",
          "name": "outbound_tkn",
          "type": "address"
        },
        {
          "indexed": true,
          "internalType": "address",
          "name": "inbound_tkn",
          "type": "address"
        },
        {
          "indexed": true,
          "internalType": "uint256",
          "name": "offerId",
          "type": "uint256"
        },
        {
          "indexed": false,
          "internalType": "bytes32",
          "name": "reason",
          "type": "bytes32"
        }
      ],
      "name": "LogIncident",
      "type": "event"
    },
    {
      "anonymous": false,
      "inputs": [
        {
          "indexed": true,
          "internalType": "address",
          "name": "outbound_tkn",
          "type": "address"
        },
        {
          "indexed": true,
          "internalType": "address",
          "name": "inbound_tkn",
          "type": "address"
        },
        {
          "indexed": true,
          "internalType": "uint256",
          "name": "offerId",
          "type": "uint256"
        },
        {
          "indexed": false,
          "internalType": "address",
          "name": "owner",
          "type": "address"
        }
      ],
      "name": "NewOwnedOffer",
      "type": "event"
    },
    {
      "anonymous": false,
      "inputs": [
        {
          "indexed": true,
          "internalType": "address",
          "name": "base",
          "type": "address"
        },
        {
          "indexed": true,
          "internalType": "address",
          "name": "quote",
          "type": "address"
        },
        {
          "indexed": true,
          "internalType": "address",
          "name": "taker",
          "type": "address"
        },
        {
          "indexed": false,
          "internalType": "bool",
          "name": "selling",
          "type": "bool"
        },
        {
          "indexed": false,
          "internalType": "uint256",
          "name": "takerGot",
          "type": "uint256"
        },
        {
          "indexed": false,
          "internalType": "uint256",
          "name": "takerGave",
          "type": "uint256"
        },
        {
          "indexed": false,
          "internalType": "uint256",
          "name": "penalty",
          "type": "uint256"
        },
        {
          "indexed": false,
          "internalType": "uint256",
          "name": "restingOrderId",
          "type": "uint256"
        }
      ],
      "name": "OrderSummary",
      "type": "event"
    },
    {
      "inputs": [],
      "name": "MGV",
      "outputs": [
        {
          "internalType": "contract IMangrove",
          "name": "",
          "type": "address"
        }
      ],
      "stateMutability": "view",
      "type": "function"
    },
    {
      "inputs": [],
      "name": "OFR_GASREQ",
      "outputs": [
        {
          "internalType": "uint256",
          "name": "",
          "type": "uint256"
        }
      ],
      "stateMutability": "view",
      "type": "function"
    },
    {
      "inputs": [],
      "name": "OUTOFLIQUIDITY",
      "outputs": [
        {
          "internalType": "bytes32",
          "name": "",
          "type": "bytes32"
        }
      ],
      "stateMutability": "view",
      "type": "function"
    },
    {
      "inputs": [],
      "name": "PUTFAILURE",
      "outputs": [
        {
          "internalType": "bytes32",
          "name": "",
          "type": "bytes32"
        }
      ],
      "stateMutability": "view",
      "type": "function"
    },
    {
      "inputs": [],
      "name": "RENEGED",
      "outputs": [
        {
          "internalType": "bytes32",
          "name": "",
          "type": "bytes32"
        }
      ],
      "stateMutability": "view",
      "type": "function"
    },
    {
      "inputs": [],
      "name": "admin",
      "outputs": [
        {
          "internalType": "address",
          "name": "",
          "type": "address"
        }
      ],
      "stateMutability": "view",
      "type": "function"
    },
    {
      "inputs": [
        {
          "internalType": "address",
          "name": "outbound_tkn",
          "type": "address"
        },
        {
          "internalType": "uint256",
          "name": "amount",
          "type": "uint256"
        }
      ],
      "name": "approveMangrove",
      "outputs": [],
      "stateMutability": "nonpayable",
      "type": "function"
    },
    {
      "inputs": [],
      "name": "balanceOnMangrove",
      "outputs": [
        {
          "internalType": "uint256",
          "name": "",
          "type": "uint256"
        }
      ],
      "stateMutability": "view",
      "type": "function"
    },
    {
      "inputs": [
        {
          "internalType": "address",
          "name": "token",
          "type": "address"
        },
        {
          "internalType": "uint256",
          "name": "amount",
          "type": "uint256"
        }
      ],
      "name": "depositToken",
      "outputs": [
        {
          "internalType": "bool",
          "name": "success",
          "type": "bool"
        }
      ],
      "stateMutability": "nonpayable",
      "type": "function"
    },
    {
      "inputs": [
        {
          "internalType": "address",
          "name": "",
          "type": "address"
        },
        {
          "internalType": "address",
          "name": "",
          "type": "address"
        },
        {
          "internalType": "uint256",
          "name": "",
          "type": "uint256"
        }
      ],
      "name": "expiring",
      "outputs": [
        {
          "internalType": "uint256",
          "name": "",
          "type": "uint256"
        }
      ],
      "stateMutability": "view",
      "type": "function"
    },
    {
      "inputs": [],
      "name": "fundMangrove",
      "outputs": [],
      "stateMutability": "payable",
      "type": "function"
    },
    {
      "inputs": [
        {
          "internalType": "address",
          "name": "outbound_tkn",
          "type": "address"
        },
        {
          "internalType": "address",
          "name": "inbound_tkn",
          "type": "address"
        },
        {
          "internalType": "uint256",
          "name": "gasreq",
          "type": "uint256"
        },
        {
          "internalType": "uint256",
          "name": "gasprice",
          "type": "uint256"
        },
        {
          "internalType": "uint256",
          "name": "offerId",
          "type": "uint256"
        }
      ],
      "name": "getMissingProvision",
      "outputs": [
        {
          "internalType": "uint256",
          "name": "",
          "type": "uint256"
        }
      ],
      "stateMutability": "view",
      "type": "function"
    },
    {
      "inputs": [
        {
          "components": [
            {
              "internalType": "address",
              "name": "outbound_tkn",
              "type": "address"
            },
            {
              "internalType": "address",
              "name": "inbound_tkn",
              "type": "address"
            },
            {
              "internalType": "uint256",
              "name": "offerId",
              "type": "uint256"
            },
            {
              "internalType": "Offer.t",
              "name": "offer",
              "type": "uint256"
            },
            {
              "internalType": "uint256",
              "name": "wants",
              "type": "uint256"
            },
            {
              "internalType": "uint256",
              "name": "gives",
              "type": "uint256"
            },
            {
              "internalType": "OfferDetail.t",
              "name": "offerDetail",
              "type": "uint256"
            },
            {
              "internalType": "Global.t",
              "name": "global",
              "type": "uint256"
            },
            {
              "internalType": "Local.t",
              "name": "local",
              "type": "uint256"
            }
          ],
          "internalType": "struct MgvLib.SingleOrder",
          "name": "order",
          "type": "tuple"
        }
      ],
      "name": "makerExecute",
      "outputs": [
        {
          "internalType": "bytes32",
          "name": "ret",
          "type": "bytes32"
        }
      ],
      "stateMutability": "nonpayable",
      "type": "function"
    },
    {
      "inputs": [
        {
          "components": [
            {
              "internalType": "address",
              "name": "outbound_tkn",
              "type": "address"
            },
            {
              "internalType": "address",
              "name": "inbound_tkn",
              "type": "address"
            },
            {
              "internalType": "uint256",
              "name": "offerId",
              "type": "uint256"
            },
            {
              "internalType": "Offer.t",
              "name": "offer",
              "type": "uint256"
            },
            {
              "internalType": "uint256",
              "name": "wants",
              "type": "uint256"
            },
            {
              "internalType": "uint256",
              "name": "gives",
              "type": "uint256"
            },
            {
              "internalType": "OfferDetail.t",
              "name": "offerDetail",
              "type": "uint256"
            },
            {
              "internalType": "Global.t",
              "name": "global",
              "type": "uint256"
            },
            {
              "internalType": "Local.t",
              "name": "local",
              "type": "uint256"
            }
          ],
          "internalType": "struct MgvLib.SingleOrder",
          "name": "order",
          "type": "tuple"
        },
        {
          "components": [
            {
              "internalType": "bytes32",
              "name": "makerData",
              "type": "bytes32"
            },
            {
              "internalType": "bytes32",
              "name": "mgvData",
              "type": "bytes32"
            }
          ],
          "internalType": "struct MgvLib.OrderResult",
          "name": "result",
          "type": "tuple"
        }
      ],
      "name": "makerPosthook",
      "outputs": [],
      "stateMutability": "nonpayable",
      "type": "function"
    },
    {
      "inputs": [
        {
          "internalType": "address",
          "name": "",
          "type": "address"
        }
      ],
      "name": "mgvBalance",
      "outputs": [
        {
          "internalType": "uint256",
          "name": "",
          "type": "uint256"
        }
      ],
      "stateMutability": "view",
      "type": "function"
    },
    {
      "inputs": [
        {
          "internalType": "address",
          "name": "outbound_tkn",
          "type": "address"
        },
        {
          "internalType": "address",
          "name": "inbound_tkn",
          "type": "address"
        },
        {
          "internalType": "uint256",
          "name": "wants",
          "type": "uint256"
        },
        {
          "internalType": "uint256",
          "name": "gives",
          "type": "uint256"
        },
        {
          "internalType": "uint256",
          "name": "gasreq",
          "type": "uint256"
        },
        {
          "internalType": "uint256",
          "name": "gasprice",
          "type": "uint256"
        },
        {
          "internalType": "uint256",
          "name": "pivotId",
          "type": "uint256"
        }
      ],
      "name": "newOffer",
      "outputs": [
        {
          "internalType": "uint256",
          "name": "offerId",
          "type": "uint256"
        }
      ],
      "stateMutability": "payable",
      "type": "function"
    },
    {
      "inputs": [
        {
          "internalType": "address",
          "name": "reader",
          "type": "address"
        },
        {
          "internalType": "address",
          "name": "outbound_tkn",
          "type": "address"
        },
        {
          "internalType": "address",
          "name": "inbound_tkn",
          "type": "address"
        },
        {
          "internalType": "uint256",
          "name": "fromId",
          "type": "uint256"
        },
        {
          "internalType": "uint256",
          "name": "maxOffers",
          "type": "uint256"
        }
      ],
      "name": "offerOwners",
      "outputs": [
        {
          "internalType": "uint256",
          "name": "nextId",
          "type": "uint256"
        },
        {
          "internalType": "uint256[]",
          "name": "offerIds",
          "type": "uint256[]"
        },
        {
          "internalType": "address[]",
          "name": "__offerOwners",
          "type": "address[]"
        }
      ],
      "stateMutability": "view",
      "type": "function"
    },
    {
      "inputs": [
        {
          "internalType": "address",
          "name": "owner",
          "type": "address"
        },
        {
          "internalType": "address",
          "name": "outbound_tkn",
          "type": "address"
        },
        {
          "internalType": "address",
          "name": "inbound_tkn",
          "type": "address"
        }
      ],
      "name": "offersOfOwner",
      "outputs": [
        {
          "internalType": "uint256[]",
          "name": "live",
          "type": "uint256[]"
        },
        {
          "internalType": "uint256[]",
          "name": "dead",
          "type": "uint256[]"
        }
      ],
      "stateMutability": "view",
      "type": "function"
    },
    {
      "inputs": [
        {
          "internalType": "address",
          "name": "outbound_tkn",
          "type": "address"
        },
        {
          "internalType": "address",
          "name": "inbound_tkn",
          "type": "address"
        },
        {
          "internalType": "uint256",
          "name": "offerId",
          "type": "uint256"
        }
      ],
      "name": "ownerOf",
      "outputs": [
        {
          "internalType": "address",
          "name": "owner",
          "type": "address"
        }
      ],
      "stateMutability": "view",
      "type": "function"
    },
    {
      "inputs": [
        {
          "internalType": "address",
          "name": "token",
          "type": "address"
        },
        {
          "internalType": "address",
          "name": "receiver",
          "type": "address"
        },
        {
          "internalType": "uint256",
          "name": "amount",
          "type": "uint256"
        }
      ],
      "name": "redeemToken",
      "outputs": [
        {
          "internalType": "bool",
          "name": "success",
          "type": "bool"
        }
      ],
      "stateMutability": "nonpayable",
      "type": "function"
    },
    {
      "inputs": [
        {
          "internalType": "address",
          "name": "outbound_tkn",
          "type": "address"
        },
        {
          "internalType": "address",
          "name": "inbound_tkn",
          "type": "address"
        },
        {
          "internalType": "uint256",
          "name": "offerId",
          "type": "uint256"
        },
        {
          "internalType": "bool",
          "name": "deprovision",
          "type": "bool"
        }
      ],
      "name": "retractOffer",
      "outputs": [
        {
          "internalType": "uint256",
          "name": "received",
          "type": "uint256"
        }
      ],
      "stateMutability": "nonpayable",
      "type": "function"
    },
    {
      "inputs": [
        {
          "internalType": "address",
          "name": "_admin",
          "type": "address"
        }
      ],
      "name": "setAdmin",
      "outputs": [],
      "stateMutability": "nonpayable",
      "type": "function"
    },
    {
      "inputs": [
        {
          "internalType": "uint256",
          "name": "gasreq",
          "type": "uint256"
        }
      ],
      "name": "setGasreq",
      "outputs": [],
      "stateMutability": "nonpayable",
      "type": "function"
    },
    {
      "inputs": [
        {
          "components": [
            {
              "internalType": "address",
              "name": "base",
              "type": "address"
            },
            {
              "internalType": "address",
              "name": "quote",
              "type": "address"
            },
            {
              "internalType": "bool",
              "name": "partialFillNotAllowed",
              "type": "bool"
            },
            {
              "internalType": "bool",
              "name": "selling",
              "type": "bool"
            },
            {
              "internalType": "uint256",
              "name": "wants",
              "type": "uint256"
            },
            {
              "internalType": "uint256",
              "name": "gives",
              "type": "uint256"
            },
            {
              "internalType": "bool",
              "name": "restingOrder",
              "type": "bool"
            },
            {
              "internalType": "uint256",
              "name": "retryNumber",
              "type": "uint256"
            },
            {
              "internalType": "uint256",
              "name": "gasForMarketOrder",
              "type": "uint256"
            },
            {
              "internalType": "uint256",
              "name": "blocksToLiveForRestingOrder",
              "type": "uint256"
            }
          ],
          "internalType": "struct IOrderLogic.TakerOrder",
          "name": "tko",
          "type": "tuple"
        }
      ],
      "name": "take",
      "outputs": [
        {
          "components": [
            {
              "internalType": "uint256",
              "name": "takerGot",
              "type": "uint256"
            },
            {
              "internalType": "uint256",
              "name": "takerGave",
              "type": "uint256"
            },
            {
              "internalType": "uint256",
              "name": "bounty",
              "type": "uint256"
            },
            {
              "internalType": "uint256",
              "name": "offerId",
              "type": "uint256"
            }
          ],
          "internalType": "struct IOrderLogic.TakerOrderResult",
          "name": "res",
          "type": "tuple"
        }
      ],
      "stateMutability": "payable",
      "type": "function"
    },
    {
      "inputs": [
        {
          "internalType": "address",
          "name": "token",
          "type": "address"
        }
      ],
      "name": "tokenBalance",
      "outputs": [
        {
          "internalType": "uint256",
          "name": "",
          "type": "uint256"
        }
      ],
      "stateMutability": "view",
      "type": "function"
    },
    {
      "inputs": [
        {
          "internalType": "address",
          "name": "",
          "type": "address"
        },
        {
          "internalType": "address",
          "name": "",
          "type": "address"
        }
      ],
      "name": "tokenBalanceOf",
      "outputs": [
        {
          "internalType": "uint256",
          "name": "",
          "type": "uint256"
        }
      ],
      "stateMutability": "view",
      "type": "function"
    },
    {
      "inputs": [
        {
          "internalType": "address",
          "name": "outbound_tkn",
          "type": "address"
        },
        {
          "internalType": "address",
          "name": "inbound_tkn",
          "type": "address"
        },
        {
          "internalType": "uint256",
          "name": "wants",
          "type": "uint256"
        },
        {
          "internalType": "uint256",
          "name": "gives",
          "type": "uint256"
        },
        {
          "internalType": "uint256",
          "name": "gasreq",
          "type": "uint256"
        },
        {
          "internalType": "uint256",
          "name": "gasprice",
          "type": "uint256"
        },
        {
          "internalType": "uint256",
          "name": "pivotId",
          "type": "uint256"
        },
        {
          "internalType": "uint256",
          "name": "offerId",
          "type": "uint256"
        }
      ],
      "name": "updateOffer",
      "outputs": [],
      "stateMutability": "payable",
      "type": "function"
    },
    {
      "inputs": [
        {
          "internalType": "address payable",
          "name": "receiver",
          "type": "address"
        },
        {
          "internalType": "uint256",
          "name": "amount",
          "type": "uint256"
        }
      ],
      "name": "withdrawFromMangrove",
      "outputs": [
        {
          "internalType": "bool",
          "name": "noRevert",
          "type": "bool"
        }
      ],
      "stateMutability": "nonpayable",
      "type": "function"
    },
    {
      "stateMutability": "payable",
      "type": "receive"
    }
  ],
  "bytecode": "0x6101006040527f6d67764f666665722f61626f72742f72656e65676564000000000000000000006080527f6d67764f666665722f61626f72742f7075744661696c6564000000000000000060a0527f6d67764f666665722f61626f72742f6765744661696c6564000000000000000060c052620186a06001553480156200008557600080fd5b5060405162004b6238038062004b62833981016040819052620000a89162000150565b81818181806001600160a01b038116620001085760405162461bcd60e51b815260206004820152601860248201527f616363657373436f6e74726f6c6c65642f307841646d696e0000000000000000604482015260640160405180910390fd5b600080546001600160a01b0319166001600160a01b039283161790559190911660e052506200018f9350505050565b6001600160a01b03811681146200014d57600080fd5b50565b600080604083850312156200016457600080fd5b8251620001718162000137565b6020840151909250620001848162000137565b809150509250929050565b60805160a05160c05160e05161490d620002556000396000818161046601528181610a4401528181610bb601528181610dec01528181610f7a015281816111ad015281816114660152818161151101528181611a790152818161251b01528181612a5501528181612b4301528181612c9201528181612d9c015281816130f6015281816131c901528181613292015281816133df015281816134f6015281816136840152613b4d015260006103fe0152600061037701526000610432015261490d6000f3fe6080604052600436106101bb5760003560e01c80637f7a1b99116100ec578063e428204d1161008a578063f851a44011610064578063f851a440146105cd578063f92495e5146105fa578063faa030ec1461061a578063ff10c0dc1461062257600080fd5b8063e428204d14610549578063e4c34f841461055f578063eedc966a1461057f57600080fd5b8063ad97db1b116100c6578063ad97db1b146104ad578063aefe8403146104cd578063d1971159146104ed578063df2426671461051c57600080fd5b80637f7a1b99146103ec57806389dbacfe1461042057806399fa5e2d1461045457600080fd5b8063458eda9a11610159578063572e59e311610133578063572e59e3146103655780636a4f7691146103995780636c49c32c146103ac578063704b6c02146103cc57600080fd5b8063458eda9a146102f257806349f6d2dc146103145780634e7effa81461032757600080fd5b8063338b5dea11610195578063338b5dea1461026257806334bd89311461028257806337b966bf146102a45780633d3d130d146102d257600080fd5b8063063df2d2146101c75780630d71bdc3146101fc5780631bea80061461021c57600080fd5b366101c257005b600080fd5b3480156101d357600080fd5b506101e76101e2366004613e14565b610668565b60405190151581526020015b60405180910390f35b34801561020857600080fd5b506101e7610217366004613e40565b6106dc565b34801561022857600080fd5b50610254610237366004613e81565b600460209081526000928352604080842090915290825290205481565b6040519081526020016101f3565b34801561026e57600080fd5b506101e761027d366004613e14565b6107da565b34801561028e57600080fd5b506102a261029d366004613eba565b610a0b565b005b3480156102b057600080fd5b506102c46102bf366004613ed3565b610b0b565b6040516101f3929190613f59565b3480156102de57600080fd5b506102a26102ed366004613f91565b610f78565b3480156102fe57600080fd5b5033600090815260036020526040902054610254565b610254610322366004613ff1565b6110f1565b34801561033357600080fd5b50610254610342366004613e40565b600560209081526000938452604080852082529284528284209052825290205481565b34801561037157600080fd5b506102547f000000000000000000000000000000000000000000000000000000000000000081565b6102a26103a7366004614053565b611160565b3480156103b857600080fd5b506102546103c73660046140be565b6111a9565b3480156103d857600080fd5b506102a26103e73660046140db565b611367565b3480156103f857600080fd5b506102547f000000000000000000000000000000000000000000000000000000000000000081565b34801561042c57600080fd5b506102547f000000000000000000000000000000000000000000000000000000000000000081565b34801561046057600080fd5b506104887f000000000000000000000000000000000000000000000000000000000000000081565b60405173ffffffffffffffffffffffffffffffffffffffff90911681526020016101f3565b3480156104b957600080fd5b506102546104c8366004614106565b611415565b3480156104d957600080fd5b506102a26104e8366004613e14565b61142d565b3480156104f957600080fd5b5061050d610508366004614159565b6115dd565b6040516101f3939291906141b4565b34801561052857600080fd5b506102546105373660046140db565b60036020526000908152604090205481565b34801561055557600080fd5b5061025460015481565b34801561056b57600080fd5b5061025461057a366004614225565b611780565b34801561058b57600080fd5b5061025461059a3660046140db565b73ffffffffffffffffffffffffffffffffffffffff16600090815260046020908152604080832033845290915290205490565b3480156105d957600080fd5b506000546104889073ffffffffffffffffffffffffffffffffffffffff1681565b34801561060657600080fd5b50610488610615366004613e40565b6117d8565b6102a2611869565b610635610630366004614276565b6118c5565b6040516101f391908151815260208083015190820152604080830151908201526060918201519181019190915260800190565b6000333014156106bf5760405162461bcd60e51b815260206004820152601260248201527f4d75746c692f6e6f5265656e7472616e6379000000000000000000000000000060448201526064015b60405180910390fd5b6106c933836123ea565b6106d383836124e9565b90505b92915050565b60003330141561072e5760405162461bcd60e51b815260206004820152601260248201527f4d75746c692f6e6f5265656e7472616e6379000000000000000000000000000060448201526064016106b6565b610739843384612675565b6040517fa9059cbb00000000000000000000000000000000000000000000000000000000815273ffffffffffffffffffffffffffffffffffffffff84811660048301526024820184905285169063a9059cbb906044016020604051808303816000875af11580156107ae573d6000803e3d6000fd5b505050506040513d601f19601f820116820180604052508101906107d29190614289565b949350505050565b6040517f70a08231000000000000000000000000000000000000000000000000000000008152306004820152600090819073ffffffffffffffffffffffffffffffffffffffff8516906370a0823190602401602060405180830381865afa158015610849573d6000803e3d6000fd5b505050506040513d601f19601f8201168201806040525081019061086d91906142a6565b6040517f23b872dd0000000000000000000000000000000000000000000000000000000081523360048201523060248201526044810185905290915073ffffffffffffffffffffffffffffffffffffffff8516906323b872dd906064016020604051808303816000875af11580156108e9573d6000803e3d6000fd5b505050506040513d601f19601f8201168201806040525081019061090d9190614289565b6040517f70a082310000000000000000000000000000000000000000000000000000000081523060048201529092508390829073ffffffffffffffffffffffffffffffffffffffff8716906370a0823190602401602060405180830381865afa15801561097e573d6000803e3d6000fd5b505050506040513d601f19601f820116820180604052508101906109a291906142a6565b6109ac91906142ee565b146109f95760405162461bcd60e51b815260206004820152601260248201527f4d756c74692f7472616e736665724661696c000000000000000000000000000060448201526064016106b6565b610a048433856127b8565b5092915050565b60005473ffffffffffffffffffffffffffffffffffffffff16331480610a6657503373ffffffffffffffffffffffffffffffffffffffff7f000000000000000000000000000000000000000000000000000000000000000016145b610ab25760405162461bcd60e51b815260206004820152601860248201527f416363657373436f6e74726f6c6c65642f496e76616c6964000000000000000060448201526064016106b6565b808162ffffff1614610b065760405162461bcd60e51b815260206004820152601860248201527f6d67764f666665722f6761737265712f6f766572666c6f77000000000000000060448201526064016106b6565b600155565b73ffffffffffffffffffffffffffffffffffffffff80831660009081526006602090815260408083208585168452825280832093871683529281528282208280529052908120546060918291908190805b8215610cfc576040517f68c13d6b00000000000000000000000000000000000000000000000000000000815273ffffffffffffffffffffffffffffffffffffffff89811660048301528881166024830152604482018590527f0000000000000000000000000000000000000000000000000000000000000000169063275074589082906368c13d6b90606401602060405180830381865afa158015610c05573d6000803e3d6000fd5b505050506040513d601f19601f82011682018060405250810190610c2991906142a6565b6040518263ffffffff1660e01b8152600401610c4791815260200190565b602060405180830381865afa158015610c64573d6000803e3d6000fd5b505050506040513d601f19601f82011682018060405250810190610c889190614289565b15610c9f5781610c9781614305565b925050610cad565b80610ca981614305565b9150505b73ffffffffffffffffffffffffffffffffffffffff80891660009081526006602090815260408083208b851684528252808320938d168352928152828220958252949094529092205491610b5c565b8167ffffffffffffffff811115610d1557610d1561433e565b604051908082528060200260200182016040528015610d3e578160200160208202803683370190505b5095508067ffffffffffffffff811115610d5a57610d5a61433e565b604051908082528060200260200182016040528015610d83578160200160208202803683370190505b50945083925060009150600090505b8215610f6c576040517f68c13d6b00000000000000000000000000000000000000000000000000000000815273ffffffffffffffffffffffffffffffffffffffff89811660048301528881166024830152604482018590527f0000000000000000000000000000000000000000000000000000000000000000169063275074589082906368c13d6b90606401602060405180830381865afa158015610e3b573d6000803e3d6000fd5b505050506040513d601f19601f82011682018060405250810190610e5f91906142a6565b6040518263ffffffff1660e01b8152600401610e7d91815260200190565b602060405180830381865afa158015610e9a573d6000803e3d6000fd5b505050506040513d601f19601f82011682018060405250810190610ebe9190614289565b15610ef257828683610ecf81614305565b945081518110610ee157610ee161436d565b602002602001018181525050610f1d565b828582610efe81614305565b935081518110610f1057610f1061436d565b6020026020010181815250505b73ffffffffffffffffffffffffffffffffffffffff80891660009081526006602090815260408083208b851684528252808320938d168352928152828220958252949094529092205491610d92565b50505050935093915050565b7f000000000000000000000000000000000000000000000000000000000000000073ffffffffffffffffffffffffffffffffffffffff81161580610fd157503373ffffffffffffffffffffffffffffffffffffffff8216145b61101d5760405162461bcd60e51b815260206004820152601860248201527f416363657373436f6e74726f6c6c65642f496e76616c6964000000000000000060448201526064016106b6565b81602001357f6d67762f7472616465537563636573730000000000000000000000000000000014156110585761105283612862565b50505050565b6040830180359061106c90602086016140db565b73ffffffffffffffffffffffffffffffffffffffff1661108f60208601866140db565b73ffffffffffffffffffffffffffffffffffffffff167fd2c3f090769d843e1fc2e6ce65d60572e28f9163a5cfccbd6c1725c6a9263f2f85600001356040516110da91815260200190565b60405180910390a461105283836129d4565b505050565b6000333014156111435760405162461bcd60e51b815260206004820152601260248201527f4d75746c692f6e6f5265656e7472616e6379000000000000000000000000000060448201526064016106b6565b611154888888888888883334612a0d565b98975050505050505050565b6000806111758a8a8a8a8a8a8a8a3334612bd8565b9150915060008211819061119c5760405162461bcd60e51b81526004016106b691906143c8565b5050505050505050505050565b60007f000000000000000000000000000000000000000000000000000000000000000073ffffffffffffffffffffffffffffffffffffffff8116158061120457503373ffffffffffffffffffffffffffffffffffffffff8216145b6112505760405162461bcd60e51b815260206004820152601860248201527f416363657373436f6e74726f6c6c65642f496e76616c6964000000000000000060448201526064016106b6565b61125983612e67565b6112a55760405162461bcd60e51b815260206004820152601660248201527f6d67764f666665722f61626f72742f72656e656765640000000000000000000060448201526064016106b6565b60006112b58460a0013585612f13565b11156113035760405162461bcd60e51b815260206004820152601860248201527f6d67764f666665722f61626f72742f7075744661696c6564000000000000000060448201526064016106b6565b6000611313846080013585612f56565b11156113615760405162461bcd60e51b815260206004820152601860248201527f6d67764f666665722f61626f72742f6765744661696c6564000000000000000060448201526064016106b6565b50919050565b60005473ffffffffffffffffffffffffffffffffffffffff1633146113ce5760405162461bcd60e51b815260206004820152601860248201527f416363657373436f6e74726f6c6c65642f496e76616c6964000000000000000060448201526064016106b6565b600080547fffffffffffffffffffffffff00000000000000000000000000000000000000001673ffffffffffffffffffffffffffffffffffffffff92909216919091179055565b6000611424858585853361300a565b95945050505050565b60005473ffffffffffffffffffffffffffffffffffffffff1633148061148857503373ffffffffffffffffffffffffffffffffffffffff7f000000000000000000000000000000000000000000000000000000000000000016145b6114d45760405162461bcd60e51b815260206004820152601860248201527f416363657373436f6e74726f6c6c65642f496e76616c6964000000000000000060448201526064016106b6565b6040517f095ea7b300000000000000000000000000000000000000000000000000000000815273ffffffffffffffffffffffffffffffffffffffff7f0000000000000000000000000000000000000000000000000000000000000000811660048301526024820183905283169063095ea7b3906044016020604051808303816000875af1158015611569573d6000803e3d6000fd5b505050506040513d601f19601f8201168201806040525081019061158d9190614289565b6115d95760405162461bcd60e51b815260206004820152601560248201527f6d67764f666665722f617070726f76652f4661696c000000000000000000000060448201526064016106b6565b5050565b6040517f2c7e545f00000000000000000000000000000000000000000000000000000000815273ffffffffffffffffffffffffffffffffffffffff858116600483015284811660248301526044820184905260648201839052600091606091829190891690632c7e545f90608401600060405180830381865afa158015611668573d6000803e3d6000fd5b505050506040513d6000823e601f3d9081017fffffffffffffffffffffffffffffffffffffffffffffffffffffffffffffffe01682016040526116ae9190810190614603565b50508051919450925067ffffffffffffffff8111156116cf576116cf61433e565b6040519080825280602002602001820160405280156116f8578160200160208202803683370190505b50905060005b82518110156117745761172b888885848151811061171e5761171e61436d565b60200260200101516117d8565b82828151811061173d5761173d61436d565b73ffffffffffffffffffffffffffffffffffffffff909216602092830291909101909101528061176c81614305565b9150506116fe565b50955095509592505050565b60008082156117bf5760006117968888866117d8565b73ffffffffffffffffffffffffffffffffffffffff166000908152600360205260409020549150505b6117cd818888888888613175565b979650505050505050565b73ffffffffffffffffffffffffffffffffffffffff80841660009081526002602090815260408083208685168452825280832085845290915290205416806118625760405162461bcd60e51b815260206004820152601560248201527f6d756c7469557365722f756e6b6f776e4f66666572000000000000000000000060448201526064016106b6565b9392505050565b333014156118b95760405162461bcd60e51b815260206004820152601260248201527f4d75746c692f6e6f5265656e7472616e6379000000000000000000000000000060448201526064016106b6565b6118c333346133dd565b565b6118f06040518060800160405280600081526020016000815260200160008152602001600081525090565b60008061190360808501606086016146f8565b6119295761191460208501856140db565b61192460408601602087016140db565b611946565b61193960408501602086016140db565b61194660208601866140db565b6040517f23b872dd00000000000000000000000000000000000000000000000000000000815233600482015230602482015260a08701356044820152919350915073ffffffffffffffffffffffffffffffffffffffff8216906323b872dd906064016020604051808303816000875af11580156119c7573d6000803e3d6000fd5b505050506040513d601f19601f820116820180604052508101906119eb9190614289565b611a375760405162461bcd60e51b815260206004820152601a60248201527f6d67764f726465722f6d6f2f7472616e73666572496e4661696c00000000000060448201526064016106b6565b60005b611a4960e08601356001614715565b811015611c045761010085013515801590611a6857508461010001355a105b15611a7257611c04565b60008060007f000000000000000000000000000000000000000000000000000000000000000073ffffffffffffffffffffffffffffffffffffffff1663fbffe5fd87878b608001358c60a001358d6060016020810190611ad291906146f8565b611add576001611ae0565b60005b6040517fffffffff0000000000000000000000000000000000000000000000000000000060e088901b16815273ffffffffffffffffffffffffffffffffffffffff9586166004820152949093166024850152604484019190915260648301521515608482015260a4016060604051808303816000875af1158015611b68573d6000803e3d6000fd5b505050506040513d601f19601f82011682018060405250810190611b8c919061472d565b9250925092508287600001818151611ba49190614715565b905250602087018051839190611bbb908390614715565b905250604087018051829190611bd2908390614715565b90525082158015611be1575080155b15611bee57505050611c04565b5050508080611bfc90614305565b915050611a3a565b506000611c1383838787613468565b9050611c2560608601604087016146f8565b1580611c2e5750805b80611c445750611c4460e0860160c087016146f8565b611c905760405162461bcd60e51b815260206004820152601960248201527f6d67764f726465722f6d6f2f6e6f5061727469616c46696c6c0000000000000060448201526064016106b6565b835115611d7d5783516040517fa9059cbb000000000000000000000000000000000000000000000000000000008152336004820152602481019190915273ffffffffffffffffffffffffffffffffffffffff84169063a9059cbb906044016020604051808303816000875af1158015611d0d573d6000803e3d6000fd5b505050506040513d601f19601f82011682018060405250810190611d319190614289565b611d7d5760405162461bcd60e51b815260206004820152601b60248201527f6d67764f726465722f6d6f2f7472616e736665724f75744661696c000000000060448201526064016106b6565b611d8d60e0860160c087016146f8565b8015611d97575080155b1561216057611dd5828486600001518860800135611db591906142ee565b6020880151611dc89060a08b01356142ee565b6001546000803334612a0d565b60608501819052611deb903390849086906135a4565b33611dfc60408701602088016140db565b73ffffffffffffffffffffffffffffffffffffffff16611e1f60208801886140db565b73ffffffffffffffffffffffffffffffffffffffff167fab3ed3392e9579b676d21e1dda5b7d68388430686d83b9fe1bd66032e1e030ad611e6660808a0160608b016146f8565b88516020808b01516040808d01516060808f0151835197151588529487019590955285820192909252928401526080830152519081900360a00190a460608401516120e157611ebb60608601604087016146f8565b15611f085760405162461bcd60e51b815260206004820152601960248201527f6d67764f726465722f6d6f2f6e6f5061727469616c46696c6c0000000000000060448201526064016106b6565b8173ffffffffffffffffffffffffffffffffffffffff1663a9059cbb3386602001518860a00135611f3991906142ee565b6040517fffffffff0000000000000000000000000000000000000000000000000000000060e085901b16815273ffffffffffffffffffffffffffffffffffffffff909216600483015260248201526044016020604051808303816000875af1158015611fa9573d6000803e3d6000fd5b505050506040513d601f19601f82011682018060405250810190611fcd9190614289565b6120195760405162461bcd60e51b815260206004820152601a60248201527f6d67764f726465722f6d6f2f7472616e73666572496e4661696c00000000000060448201526064016106b6565b600084604001513461202b9190614715565b11156120d957604084015160009033906120459034614715565b604051600081818185875af1925050503d8060008114612081576040519150601f19603f3d011682016040523d82523d6000602084013e612086565b606091505b50509050806120d75760405162461bcd60e51b815260206004820152601f60248201527f6d67764f726465722f6d6f2f726566756e6450726f766973696f6e4661696c0060448201526064016106b6565b505b505050919050565b6120ff823386602001518860a001356120fa91906142ee565b6127b8565b610120850135156120d95761211961012086013543614715565b73ffffffffffffffffffffffffffffffffffffffff808416600090815260056020908152604080832093881683529281528282206060890151835290522055505050919050565b8173ffffffffffffffffffffffffffffffffffffffff1663a9059cbb3386602001518860a0013561219191906142ee565b6040517fffffffff0000000000000000000000000000000000000000000000000000000060e085901b16815273ffffffffffffffffffffffffffffffffffffffff909216600483015260248201526044016020604051808303816000875af1158015612201573d6000803e3d6000fd5b505050506040513d601f19601f820116820180604052508101906122259190614289565b6122715760405162461bcd60e51b815260206004820152601a60248201527f6d67764f726465722f6d6f2f7472616e73666572496e4661696c00000000000060448201526064016106b6565b60008460400151346122839190614715565b1115612331576040840151600090339061229d9034614715565b604051600081818185875af1925050503d80600081146122d9576040519150601f19603f3d011682016040523d82523d6000602084013e6122de565b606091505b505090508061232f5760405162461bcd60e51b815260206004820152601660248201527f6d67764f726465722f6d6f2f726566756e644661696c0000000000000000000060448201526064016106b6565b505b3361234260408701602088016140db565b73ffffffffffffffffffffffffffffffffffffffff1661236560208801886140db565b73ffffffffffffffffffffffffffffffffffffffff167fab3ed3392e9579b676d21e1dda5b7d68388430686d83b9fe1bd66032e1e030ad6123ac60808a0160608b016146f8565b88516020808b01516040808d0151815195151586529285019390935283830152606083015260006080830152519081900360a00190a4505050919050565b73ffffffffffffffffffffffffffffffffffffffff821660009081526003602052604090205481111561245f5760405162461bcd60e51b815260206004820152601d60248201527f4d756c74692f64656269744f6e4d67762f696e73756666696369656e7400000060448201526064016106b6565b73ffffffffffffffffffffffffffffffffffffffff8216600090815260036020526040812080548392906124949084906142ee565b909155505060405181815273ffffffffffffffffffffffffffffffffffffffff8316907fd50b865b3d9d927f026d3b8404e07f25d6beb1d111deab51bdc846bf8d0a860b906020015b60405180910390a25050565b6040517f2e1a7d4d000000000000000000000000000000000000000000000000000000008152600481018290526000907f000000000000000000000000000000000000000000000000000000000000000073ffffffffffffffffffffffffffffffffffffffff1690632e1a7d4d906024016020604051808303816000875af1158015612579573d6000803e3d6000fd5b505050506040513d601f19601f8201168201806040525081019061259d9190614289565b6125e95760405162461bcd60e51b815260206004820152601e60248201527f6d67764f666665722f77697468647261772f7472616e736665724661696c000060448201526064016106b6565b73ffffffffffffffffffffffffffffffffffffffff8316301461266c5760405173ffffffffffffffffffffffffffffffffffffffff8416908390600081818185875af1925050503d806000811461265c576040519150601f19603f3d011682016040523d82523d6000602084013e612661565b606091505b5050809150506106d6565b50600192915050565b8061267f57505050565b73ffffffffffffffffffffffffffffffffffffffff8084166000908152600460209081526040808320938616835292905220548111156127015760405162461bcd60e51b815260206004820152601d60248201527f4d756c74692f6465626974546f6b656e2f696e73756666696369656e7400000060448201526064016106b6565b73ffffffffffffffffffffffffffffffffffffffff8084166000908152600460209081526040808320938616835292905290812080548392906127459084906142ee565b925050819055508273ffffffffffffffffffffffffffffffffffffffff168273ffffffffffffffffffffffffffffffffffffffff167f7a97b405ee1bd89550b225932dbdd0431e30426b7c8f02f05b3cb0e1bdfb8476836040516127ab91815260200190565b60405180910390a3505050565b73ffffffffffffffffffffffffffffffffffffffff8084166000908152600460209081526040808320938616835292905290812080548392906127fc908490614715565b925050819055508273ffffffffffffffffffffffffffffffffffffffff168273ffffffffffffffffffffffffffffffffffffffff167fb2b1ec266d1bab793ae1d020eedf03e575cc390e5fb9e370cb099fdf2f61534d836040516127ab91815260200190565b600061286d82613643565b1561287a57506001919050565b60006128a661288c60208501856140db565b61289c60408601602087016140db565b85604001356117d8565b90506128b28382613807565b6128bf5750600092915050565b73ffffffffffffffffffffffffffffffffffffffff81166000908152600360205260409020546128f09082906123ea565b73ffffffffffffffffffffffffffffffffffffffff81166000908152600360205260409020546129219082906124e9565b61266c576040830180359061293990602086016140db565b73ffffffffffffffffffffffffffffffffffffffff1661295c60208601866140db565b73ffffffffffffffffffffffffffffffffffffffff167fd2c3f090769d843e1fc2e6ce65d60572e28f9163a5cfccbd6c1725c6a9263f2f6040516129c3907f6d67764f726465722f706f7374686f6f6b2f7472616e73666572576569000000815260200190565b60405180910390a450600092915050565b600080612a016129e760208601866140db565b6129f760408701602088016140db565b86604001356117d8565b90506107d28482613807565b6040517f70a08231000000000000000000000000000000000000000000000000000000008152306004820152600090819073ffffffffffffffffffffffffffffffffffffffff7f000000000000000000000000000000000000000000000000000000000000000016906370a0823190602401602060405180830381865afa158015612a9c573d6000803e3d6000fd5b505050506040513d601f19601f82011682018060405250810190612ac091906142a6565b905062ffffff871115612ad35760015496505b6040517f49f6d2dc00000000000000000000000000000000000000000000000000000000815273ffffffffffffffffffffffffffffffffffffffff8c811660048301528b81166024830152604482018b9052606482018a90526084820189905260a4820188905260c482018790527f000000000000000000000000000000000000000000000000000000000000000016906349f6d2dc90859060e40160206040518083038185885af1158015612b8d573d6000803e3d6000fd5b50505050506040513d601f19601f82011682018060405250810190612bb291906142a6565b9150612bc08b8b8487613a78565b612bca8482613b1c565b509998505050505050505050565b60006060612be78c8c876117d8565b73ffffffffffffffffffffffffffffffffffffffff168473ffffffffffffffffffffffffffffffffffffffff1614612c615760405162461bcd60e51b815260206004820152601e60248201527f4d756c74692f7570646174654f666665722f756e617574686f72697a6564000060448201526064016106b6565b6040517f70a082310000000000000000000000000000000000000000000000000000000081523060048201526000907f000000000000000000000000000000000000000000000000000000000000000073ffffffffffffffffffffffffffffffffffffffff16906370a0823190602401602060405180830381865afa158015612cee573d6000803e3d6000fd5b505050506040513d601f19601f82011682018060405250810190612d1291906142a6565b905062ffffff891115612d255760015498505b6040517f6a4f769100000000000000000000000000000000000000000000000000000000815273ffffffffffffffffffffffffffffffffffffffff8e811660048301528d81166024830152604482018d9052606482018c9052608482018b905260a482018a905260c4820189905260e482018890527f00000000000000000000000000000000000000000000000000000000000000001690636a4f7691908690610104016000604051808303818588803b158015612de257600080fd5b505af193505050508015612df4575060015b612e3957612e0061475b565b806308c379a01415612e2d5750612e15614777565b80612e205750612e2f565b600093509150612e589050565b505b3d6000803e3d6000fd5b612e438582613b1c565b50506040805160208101909152600081528491505b9a509a98505050505050505050565b600080600581612e7a60208601866140db565b73ffffffffffffffffffffffffffffffffffffffff1673ffffffffffffffffffffffffffffffffffffffff1681526020019081526020016000206000846020016020810190612ec991906140db565b73ffffffffffffffffffffffffffffffffffffffff168152602080820192909252604090810160009081208683013582529092529020549050801580611862575043111592915050565b600080612f2661288c60208501856140db565b9050612f42612f3b60408501602086016140db565b8286613c0a565b612f4c57836107d2565b5060009392505050565b600080612f6961288c60208501856140db565b90506000600481612f7d60208701876140db565b73ffffffffffffffffffffffffffffffffffffffff90811682526020808301939093526040918201600090812091861681529252902054905084811015612fe857612fd5612fce60208601866140db565b8383612675565b612fdf81866142ee565b925050506106d6565b612fff612ff860208601866140db565b8387612675565b6000925050506106d6565b73ffffffffffffffffffffffffffffffffffffffff858116600090815260026020908152604080832088851684528252808320878452909152812054909183811691161461309a5760405162461bcd60e51b815260206004820152601f60248201527f4d756c74692f726574726163744f666665722f756e617574686f72697a65640060448201526064016106b6565b6040517fad97db1b00000000000000000000000000000000000000000000000000000000815273ffffffffffffffffffffffffffffffffffffffff878116600483015286811660248301526044820186905284151560648301527f0000000000000000000000000000000000000000000000000000000000000000169063ad97db1b906084016020604051808303816000875af115801561313f573d6000803e3d6000fd5b505050506040513d601f19601f8201168201806040525081019061316391906142a6565b90508015611424576114248282613d26565b6040517fcbf75c9a00000000000000000000000000000000000000000000000000000000815273ffffffffffffffffffffffffffffffffffffffff86811660048301528581166024830152600091829182917f00000000000000000000000000000000000000000000000000000000000000009091169063cbf75c9a906044016040805180830381865afa158015613211573d6000803e3d6000fd5b505050506040513d601f19601f82011682018060405250810190613235919061481f565b6040517f5722647b00000000000000000000000000000000000000000000000000000000815273ffffffffffffffffffffffffffffffffffffffff8b811660048301528a81166024830152604482018890529294509092506000917f00000000000000000000000000000000000000000000000000000000000000001690635722647b90606401602060405180830381865afa1580156132d9573d6000803e3d6000fd5b505050506040513d601f19601f820116820180604052508101906132fd91906142a6565b9050600086604085901c61ffff161115613320575061ffff604084901c16613323565b50855b62ffffff8811156133345760015497505b60008161334a62ffffff606087901c168b614715565b6133549190614843565b61336290633b9aca00614843565b9050600061ffff602085901c1661338962ffffff603087901c811690604888901c16614715565b6133939190614843565b6133a190633b9aca00614843565b905060006133af8e83614715565b9050828110156133c8576133c381846142ee565b6133cb565b60005b9e9d5050505050505050505050505050565b7f000000000000000000000000000000000000000000000000000000000000000073ffffffffffffffffffffffffffffffffffffffff1663b60d4288826040518263ffffffff1660e01b81526004016000604051808303818588803b15801561344557600080fd5b505af1158015613459573d6000803e3d6000fd5b50505050506115d98282613d26565b600061347a60808401606085016146f8565b15613492578260a001358260200151101590506107d2565b6134a260808401606085016146f8565b6107d2576040517fcbf75c9a00000000000000000000000000000000000000000000000000000000815273ffffffffffffffffffffffffffffffffffffffff868116600483015285811660248301526000917f00000000000000000000000000000000000000000000000000000000000000009091169063cbf75c9a906044016040805180830381865afa15801561353e573d6000803e3d6000fd5b505050506040513d601f19601f82011682018060405250810190613562919061481f565b9150612710905061357f61ffff60e884901c166080870135614843565b6135899190614880565b6135979060808601356142ee565b8351101591506107d29050565b73ffffffffffffffffffffffffffffffffffffffff8381166000908152600660209081526040808320868516845282528083209388168352928152828220828052905220805490829055801561363c5773ffffffffffffffffffffffffffffffffffffffff80851660009081526006602090815260408083208785168452825280832093891683529281528282208583529052208190555b5050505050565b60008061364f83613da8565b9050600061365c84613dcd565b90508161366d575060019392505050565b73ffffffffffffffffffffffffffffffffffffffff7f000000000000000000000000000000000000000000000000000000000000000016636a4f76916136b660208701876140db565b6136c660408801602089016140db565b848660c08a013560481c62ffffff1660c08b013560201c61ffff1660608c013560c01c63ffffffff16604080517fffffffff0000000000000000000000000000000000000000000000000000000060e08b901b16815273ffffffffffffffffffffffffffffffffffffffff988916600482015297909616602488015260448701949094526064860192909252608485015260a484015260c483015287013560e482015261010401600060405180830381600087803b15801561378757600080fd5b505af1925050508015613798575060015b6137fd576137f26137ac60208601866140db565b6137bc60408701602088016140db565b604087013560016137ed6137d360208b018b6140db565b6137e360408c0160208d016140db565b8b604001356117d8565b61300a565b506000949350505050565b5060019392505050565b60008060048161381a60208701876140db565b73ffffffffffffffffffffffffffffffffffffffff90811682526020808301939093526040918201600090812091871681529083522054915061386a90613863908601866140db565b8483613c0a565b61391e576040840180359061388290602087016140db565b73ffffffffffffffffffffffffffffffffffffffff166138a560208701876140db565b73ffffffffffffffffffffffffffffffffffffffff167fd2c3f090769d843e1fc2e6ce65d60572e28f9163a5cfccbd6c1725c6a9263f2f60405161390c907f6d67764f726465722f72656465656d416c6c2f7472616e736665724f75740000815260200190565b60405180910390a460009150506106d6565b61393561392e60208601866140db565b8483612675565b600060048161394a60408801602089016140db565b73ffffffffffffffffffffffffffffffffffffffff908116825260208083019390935260409182016000908120918816815290835281902054925061399e916139979188019088016140db565b8583613c0a565b613a5357604085018035906139b690602088016140db565b73ffffffffffffffffffffffffffffffffffffffff166139d960208801886140db565b73ffffffffffffffffffffffffffffffffffffffff167fd2c3f090769d843e1fc2e6ce65d60572e28f9163a5cfccbd6c1725c6a9263f2f604051613a40907f6d67764f726465722f72656465656d416c6c2f7472616e73666572496e000000815260200190565b60405180910390a46000925050506106d6565b613a6d613a6660408701602088016140db565b8583612675565b506001949350505050565b73ffffffffffffffffffffffffffffffffffffffff848116600081815260026020908152604080832088861680855290835281842088855283529281902080547fffffffffffffffffffffffff00000000000000000000000000000000000000001695871695861790555193845285939192917fabf04a4ce23225c02bd147297da7ffc10e7d29102d8678f1a63fdd2cfd71ff07910160405180910390a450505050565b6040517f70a082310000000000000000000000000000000000000000000000000000000081523060048201526000907f000000000000000000000000000000000000000000000000000000000000000073ffffffffffffffffffffffffffffffffffffffff16906370a0823190602401602060405180830381865afa158015613ba9573d6000803e3d6000fd5b505050506040513d601f19601f82011682018060405250810190613bcd91906142a6565b905081811415613bdc57505050565b81811115613bf7576110ec83613bf284846142ee565b613d26565b6110ec83613c0583856142ee565b6123ea565b600081613c1957506001611862565b6040805173ffffffffffffffffffffffffffffffffffffffff8581166024830152604480830186905283518084039091018152606490920183526020820180517bffffffffffffffffffffffffffffffffffffffffffffffffffffffff167fa9059cbb000000000000000000000000000000000000000000000000000000001790529151600092839290881691613cb091906148bb565b6000604051808303816000865af19150503d8060008114613ced576040519150601f19603f3d011682016040523d82523d6000602084013e613cf2565b606091505b5091509150818015613d1c575080511580613d1c575080806020019051810190613d1c9190614289565b9695505050505050565b73ffffffffffffffffffffffffffffffffffffffff821660009081526003602052604081208054839290613d5b908490614715565b909155505060405181815273ffffffffffffffffffffffffffffffffffffffff8316907f2022607feefe24f258126b277628af517f5512dd9499fb3520eeff54cad13703906020016124dd565b600060808201356bffffffffffffffffffffffff6060840135165b6106d691906142ee565b600060a0820135606080840135901c6bffffffffffffffffffffffff16613dc3565b73ffffffffffffffffffffffffffffffffffffffff81168114613e1157600080fd5b50565b60008060408385031215613e2757600080fd5b8235613e3281613def565b946020939093013593505050565b600080600060608486031215613e5557600080fd5b8335613e6081613def565b92506020840135613e7081613def565b929592945050506040919091013590565b60008060408385031215613e9457600080fd5b8235613e9f81613def565b91506020830135613eaf81613def565b809150509250929050565b600060208284031215613ecc57600080fd5b5035919050565b600080600060608486031215613ee857600080fd5b8335613ef381613def565b92506020840135613f0381613def565b91506040840135613f1381613def565b809150509250925092565b600081518084526020808501945080840160005b83811015613f4e57815187529582019590820190600101613f32565b509495945050505050565b604081526000613f6c6040830185613f1e565b82810360208401526114248185613f1e565b6000610120828403121561136157600080fd5b600080828403610160811215613fa657600080fd5b613fb08585613f7e565b925060407ffffffffffffffffffffffffffffffffffffffffffffffffffffffffffffffee082011215613fe257600080fd5b50610120830190509250929050565b600080600080600080600060e0888a03121561400c57600080fd5b873561401781613def565b9650602088013561402781613def565b96999698505050506040850135946060810135946080820135945060a0820135935060c0909101359150565b600080600080600080600080610100898b03121561407057600080fd5b883561407b81613def565b9750602089013561408b81613def565b979a9799505050506040860135956060810135956080820135955060a0820135945060c0820135935060e0909101359150565b600061012082840312156140d157600080fd5b6106d38383613f7e565b6000602082840312156140ed57600080fd5b813561186281613def565b8015158114613e1157600080fd5b6000806000806080858703121561411c57600080fd5b843561412781613def565b9350602085013561413781613def565b925060408501359150606085013561414e816140f8565b939692955090935050565b600080600080600060a0868803121561417157600080fd5b853561417c81613def565b9450602086013561418c81613def565b9350604086013561419c81613def565b94979396509394606081013594506080013592915050565b838152600060206060818401526141ce6060840186613f1e565b838103604085015284518082528286019183019060005b8181101561421757835173ffffffffffffffffffffffffffffffffffffffff16835292840192918401916001016141e5565b509098975050505050505050565b600080600080600060a0868803121561423d57600080fd5b853561424881613def565b9450602086013561425881613def565b94979496505050506040830135926060810135926080909101359150565b6000610140828403121561136157600080fd5b60006020828403121561429b57600080fd5b8151611862816140f8565b6000602082840312156142b857600080fd5b5051919050565b7f4e487b7100000000000000000000000000000000000000000000000000000000600052601160045260246000fd5b600082821015614300576143006142bf565b500390565b60007fffffffffffffffffffffffffffffffffffffffffffffffffffffffffffffffff821415614337576143376142bf565b5060010190565b7f4e487b7100000000000000000000000000000000000000000000000000000000600052604160045260246000fd5b7f4e487b7100000000000000000000000000000000000000000000000000000000600052603260045260246000fd5b60005b838110156143b757818101518382015260200161439f565b838111156110525750506000910152565b60208152600082518060208401526143e781604085016020870161439c565b601f017fffffffffffffffffffffffffffffffffffffffffffffffffffffffffffffffe0169190910160400192915050565b6080810181811067ffffffffffffffff821117156144395761443961433e565b60405250565b7fffffffffffffffffffffffffffffffffffffffffffffffffffffffffffffffe0601f830116810181811067ffffffffffffffff821117156144835761448361433e565b6040525050565b600067ffffffffffffffff8211156144a4576144a461433e565b5060051b60200190565b600082601f8301126144bf57600080fd5b815160206144cc8261448a565b604080516144da838261443f565b84815260079490941b86018301938381019250878511156144fa57600080fd5b8387015b8581101561454e576080818a0312156145175760008081fd5b825161452281614419565b8151815285820151868201528382015184820152606080830151908201528452928401926080016144fe565b50979650505050505050565b600082601f83011261456b57600080fd5b815160206145788261448a565b60408051614586838261443f565b84815260079490941b86018301938381019250878511156145a657600080fd5b8387015b8581101561454e576080818a0312156145c35760008081fd5b82516145ce81614419565b81516145d981613def565b815281860151868201528382015184820152606080830151908201528452928401926080016145aa565b6000806000806080858703121561461957600080fd5b8451935060208086015167ffffffffffffffff8082111561463957600080fd5b818801915088601f83011261464d57600080fd5b81516146588161448a565b604051614665828261443f565b82815260059290921b840185019185810191508b83111561468557600080fd5b938501935b828510156146a35784518252938501939085019061468a565b60408b015190985094505050808311156146bc57600080fd5b6146c889848a016144ae565b945060608801519250808311156146de57600080fd5b50506146ec8782880161455a565b91505092959194509250565b60006020828403121561470a57600080fd5b8135611862816140f8565b60008219821115614728576147286142bf565b500190565b60008060006060848603121561474257600080fd5b8351925060208401519150604084015190509250925092565b600060033d11156147745760046000803e5060005160e01c5b90565b600060443d10156147855790565b6040517ffffffffffffffffffffffffffffffffffffffffffffffffffffffffffffffffc803d016004833e81513d67ffffffffffffffff81602484011181841117156147d357505050505090565b82850191508151818111156147eb5750505050505090565b843d87010160208285010111156148055750505050505090565b6148146020828601018761443f565b509095945050505050565b6000806040838503121561483257600080fd5b505080516020909101519092909150565b6000817fffffffffffffffffffffffffffffffffffffffffffffffffffffffffffffffff048311821515161561487b5761487b6142bf565b500290565b6000826148b6577f4e487b7100000000000000000000000000000000000000000000000000000000600052601260045260246000fd5b500490565b600082516148cd81846020870161439c565b919091019291505056fea2646970667358221220a58719a0278349e98a19e03d073f67b7c8bcc70fd55491c87d613d2aba32b60264736f6c634300080a0033",
  "linkReferences": {},
  "deployedLinkReferences": {}
}