{
  "_format": "hh-sol-artifact-1",
  "contractName": "MangroveOffer",
  "sourceName": "cache/solpp-generated-contracts/Strategies/OfferLogics/MangroveOffer.sol",
  "abi": [
    {
      "inputs": [
        {
          "internalType": "address",
          "name": "_MGV",
          "type": "address"
        }
      ],
      "stateMutability": "nonpayable",
      "type": "constructor"
    },
    {
      "anonymous": false,
      "inputs": [
        {
          "indexed": false,
          "internalType": "address",
          "name": "token",
          "type": "address"
        },
        {
          "indexed": false,
          "internalType": "uint256",
          "name": "amountMissing",
          "type": "uint256"
        }
      ],
      "name": "NotEnoughLiquidity",
      "type": "event"
    },
    {
      "anonymous": false,
      "inputs": [
        {
          "indexed": false,
          "internalType": "address",
          "name": "outbound_tkn",
          "type": "address"
        },
        {
          "indexed": false,
          "internalType": "address",
          "name": "inbound_tkn",
          "type": "address"
        },
        {
          "indexed": false,
          "internalType": "uint256",
          "name": "offerId",
          "type": "uint256"
        }
      ],
      "name": "PostHookError",
      "type": "event"
    },
    {
      "anonymous": false,
      "inputs": [
        {
          "indexed": true,
          "internalType": "address",
          "name": "outbound_tkn",
          "type": "address"
        },
        {
          "indexed": true,
          "internalType": "address",
          "name": "inbound_tkn",
          "type": "address"
        },
        {
          "indexed": false,
          "internalType": "uint256",
          "name": "offerId",
          "type": "uint256"
        },
        {
          "indexed": false,
          "internalType": "string",
          "name": "message",
          "type": "string"
        }
      ],
      "name": "PosthookFail",
      "type": "event"
    },
    {
      "inputs": [],
      "name": "OFR_GASREQ",
      "outputs": [
        {
          "internalType": "uint256",
          "name": "",
          "type": "uint256"
        }
      ],
      "stateMutability": "view",
      "type": "function"
    },
    {
      "inputs": [],
      "name": "admin",
      "outputs": [
        {
          "internalType": "address",
          "name": "",
          "type": "address"
        }
      ],
      "stateMutability": "view",
      "type": "function"
    },
    {
      "inputs": [
        {
          "internalType": "address",
          "name": "outbound_tkn",
          "type": "address"
        },
        {
          "internalType": "uint256",
          "name": "amount",
          "type": "uint256"
        }
      ],
      "name": "approveMangrove",
      "outputs": [],
      "stateMutability": "nonpayable",
      "type": "function"
    },
    {
      "inputs": [
        {
          "internalType": "address",
          "name": "outbound_tkn",
          "type": "address"
        },
        {
          "internalType": "address",
          "name": "inbound_tkn",
          "type": "address"
        },
        {
          "internalType": "uint256",
          "name": "gasreq",
          "type": "uint256"
        },
        {
          "internalType": "uint256",
          "name": "gasprice",
          "type": "uint256"
        },
        {
          "internalType": "uint256",
          "name": "offerId",
          "type": "uint256"
        }
      ],
      "name": "getMissingProvision",
      "outputs": [
        {
          "internalType": "uint256",
          "name": "",
          "type": "uint256"
        }
      ],
      "stateMutability": "view",
      "type": "function"
    },
    {
      "inputs": [
        {
          "components": [
            {
              "internalType": "address",
              "name": "outbound_tkn",
              "type": "address"
            },
            {
              "internalType": "address",
              "name": "inbound_tkn",
              "type": "address"
            },
            {
              "internalType": "uint256",
              "name": "offerId",
              "type": "uint256"
            },
            {
              "internalType": "bytes32",
              "name": "offer",
              "type": "bytes32"
            },
            {
              "internalType": "uint256",
              "name": "wants",
              "type": "uint256"
            },
            {
              "internalType": "uint256",
              "name": "gives",
              "type": "uint256"
            },
            {
              "internalType": "bytes32",
              "name": "offerDetail",
              "type": "bytes32"
            },
            {
              "internalType": "bytes32",
              "name": "global",
              "type": "bytes32"
            },
            {
              "internalType": "bytes32",
              "name": "local",
              "type": "bytes32"
            }
          ],
          "internalType": "struct MgvLib.SingleOrder",
          "name": "order",
          "type": "tuple"
        }
      ],
      "name": "makerExecute",
      "outputs": [
        {
          "internalType": "bytes32",
          "name": "ret",
          "type": "bytes32"
        }
      ],
      "stateMutability": "nonpayable",
      "type": "function"
    },
    {
      "inputs": [
        {
          "components": [
            {
              "internalType": "address",
              "name": "outbound_tkn",
              "type": "address"
            },
            {
              "internalType": "address",
              "name": "inbound_tkn",
              "type": "address"
            },
            {
              "internalType": "uint256",
              "name": "offerId",
              "type": "uint256"
            },
            {
              "internalType": "bytes32",
              "name": "offer",
              "type": "bytes32"
            },
            {
              "internalType": "uint256",
              "name": "wants",
              "type": "uint256"
            },
            {
              "internalType": "uint256",
              "name": "gives",
              "type": "uint256"
            },
            {
              "internalType": "bytes32",
              "name": "offerDetail",
              "type": "bytes32"
            },
            {
              "internalType": "bytes32",
              "name": "global",
              "type": "bytes32"
            },
            {
              "internalType": "bytes32",
              "name": "local",
              "type": "bytes32"
            }
          ],
          "internalType": "struct MgvLib.SingleOrder",
          "name": "order",
          "type": "tuple"
        },
        {
          "components": [
            {
              "internalType": "bytes32",
              "name": "makerData",
              "type": "bytes32"
            },
            {
              "internalType": "bytes32",
              "name": "mgvData",
              "type": "bytes32"
            }
          ],
          "internalType": "struct MgvLib.OrderResult",
          "name": "result",
          "type": "tuple"
        }
      ],
      "name": "makerPosthook",
      "outputs": [],
      "stateMutability": "nonpayable",
      "type": "function"
    },
    {
      "inputs": [
        {
          "internalType": "address",
          "name": "outbound_tkn",
          "type": "address"
        },
        {
          "internalType": "address",
          "name": "inbound_tkn",
          "type": "address"
        },
        {
          "internalType": "uint256",
          "name": "wants",
          "type": "uint256"
        },
        {
          "internalType": "uint256",
          "name": "gives",
          "type": "uint256"
        },
        {
          "internalType": "uint256",
          "name": "gasreq",
          "type": "uint256"
        },
        {
          "internalType": "uint256",
          "name": "gasprice",
          "type": "uint256"
        },
        {
          "internalType": "uint256",
          "name": "pivotId",
          "type": "uint256"
        }
      ],
      "name": "newOffer",
      "outputs": [
        {
          "internalType": "uint256",
          "name": "offerId",
          "type": "uint256"
        }
      ],
      "stateMutability": "nonpayable",
      "type": "function"
    },
    {
      "inputs": [
        {
          "internalType": "address",
          "name": "outbound_tkn",
          "type": "address"
        },
        {
          "internalType": "address",
          "name": "inbound_tkn",
          "type": "address"
        },
        {
          "internalType": "uint256",
          "name": "offerId",
          "type": "uint256"
        },
        {
          "internalType": "bool",
          "name": "deprovision",
          "type": "bool"
        }
      ],
      "name": "retractOffer",
      "outputs": [
        {
          "internalType": "uint256",
          "name": "",
          "type": "uint256"
        }
      ],
      "stateMutability": "nonpayable",
      "type": "function"
    },
    {
      "inputs": [
        {
          "internalType": "address",
          "name": "_admin",
          "type": "address"
        }
      ],
      "name": "setAdmin",
      "outputs": [],
      "stateMutability": "nonpayable",
      "type": "function"
    },
    {
      "inputs": [
        {
          "internalType": "address",
          "name": "recipient",
          "type": "address"
        },
        {
          "internalType": "uint256",
          "name": "amount",
          "type": "uint256"
        }
      ],
      "name": "transferETH",
      "outputs": [
        {
          "internalType": "bool",
          "name": "success",
          "type": "bool"
        }
      ],
      "stateMutability": "nonpayable",
      "type": "function"
    },
    {
      "inputs": [
        {
          "internalType": "address",
          "name": "token",
          "type": "address"
        },
        {
          "internalType": "address",
          "name": "recipient",
          "type": "address"
        },
        {
          "internalType": "uint256",
          "name": "amount",
          "type": "uint256"
        }
      ],
      "name": "transferToken",
      "outputs": [
        {
          "internalType": "bool",
          "name": "success",
          "type": "bool"
        }
      ],
      "stateMutability": "nonpayable",
      "type": "function"
    },
    {
      "inputs": [
        {
          "internalType": "address",
          "name": "outbound_tkn",
          "type": "address"
        },
        {
          "internalType": "address",
          "name": "inbound_tkn",
          "type": "address"
        },
        {
          "internalType": "uint256",
          "name": "wants",
          "type": "uint256"
        },
        {
          "internalType": "uint256",
          "name": "gives",
          "type": "uint256"
        },
        {
          "internalType": "uint256",
          "name": "gasreq",
          "type": "uint256"
        },
        {
          "internalType": "uint256",
          "name": "gasprice",
          "type": "uint256"
        },
        {
          "internalType": "uint256",
          "name": "pivotId",
          "type": "uint256"
        },
        {
          "internalType": "uint256",
          "name": "offerId",
          "type": "uint256"
        }
      ],
      "name": "updateOffer",
      "outputs": [],
      "stateMutability": "nonpayable",
      "type": "function"
    },
    {
      "inputs": [
        {
          "internalType": "address",
          "name": "receiver",
          "type": "address"
        },
        {
          "internalType": "uint256",
          "name": "amount",
          "type": "uint256"
        }
      ],
      "name": "withdraw",
      "outputs": [
        {
          "internalType": "bool",
          "name": "noRevert",
          "type": "bool"
        }
      ],
      "stateMutability": "nonpayable",
      "type": "function"
    },
    {
      "stateMutability": "payable",
      "type": "receive"
    }
  ],
  "bytecode": "0x60a060405262061a806001553480156200001857600080fd5b50604051620022f3380380620022f38339810160408190526200003b9162000138565b600080546001600160a01b031916331781556040516365fbae4d60e11b81526001600160a01b0383169063cbf75c9a906200007d90849081906004016200018c565b604080518083038186803b1580156200009557600080fd5b505afa158015620000aa573d6000803e3d6000fd5b505050506040513d601f19601f82011682018060405250810190620000d0919062000168565b5090506000620000eb826200012f60201b62000f581760201c565b90508015620001175760405162461bcd60e51b81526004016200010e90620001a6565b60405180910390fd5b505060601b6001600160601b031916608052620001ef565b60201c60ff1690565b6000602082840312156200014a578081fd5b81516001600160a01b038116811462000161578182fd5b9392505050565b600080604083850312156200017b578081fd5b505080516020909101519092909150565b6001600160a01b0392831681529116602082015260400190565b60208082526029908201527f4d616e67726f766520636f6e7472616374206973207065726d616e656e746c7960408201526808191a5cd8589b195960ba1b606082015260800190565b60805160601c6120c362000230600039806103c5528061055352806107c552806108f652806109b05280610af15280610b265280610cef52506120c36000f3fe6080604052600436106100d65760003560e01c8063e34248111161007f578063eb87009e11610059578063eb87009e1461021c578063f3fef3a31461023c578063f5537ede1461025c578063f851a4401461027c576100dd565b8063e3424811146101c7578063e428204d146101e7578063e4c34f84146101fc576100dd565b80637b1a4909116100b05780637b1a49091461015a578063ad97db1b14610187578063aefe8403146101a7576100dd565b806349f6d2dc146100e25780636a4f769114610118578063704b6c021461013a576100dd565b366100dd57005b600080fd5b3480156100ee57600080fd5b506101026100fd366004611bf6565b61029e565b60405161010f9190611f32565b60405180910390f35b34801561012457600080fd5b50610138610133366004611c53565b610465565b005b34801561014657600080fd5b50610138610155366004611b00565b6105d3565b34801561016657600080fd5b5061017a610175366004611cb9565b61066b565b60405161010f9190611f27565b34801561019357600080fd5b506101026101a2366004611b5c565b61072c565b3480156101b357600080fd5b506101386101c2366004611cb9565b61085b565b3480156101d357600080fd5b506101026101e2366004611d39565b6109ac565b3480156101f357600080fd5b50610102610ae4565b34801561020857600080fd5b50610102610217366004611baa565b610aea565b34801561022857600080fd5b50610138610237366004611d55565b610b24565b34801561024857600080fd5b5061017a610257366004611cb9565b610c60565b34801561026857600080fd5b5061017a610277366004611b21565b610e3c565b34801561028857600080fd5b50610291610f3c565b60405161010f9190611db6565b6000805473ffffffffffffffffffffffffffffffffffffffff163314806102c457503330145b610303576040517f08c379a00000000000000000000000000000000000000000000000000000000081526004016102fa90611fcf565b60405180910390fd5b7fffffffffffffffffffffffffffffffffffffffffffffffffffffffffffffffff8414156103315760015493505b6000610341898987876000610f66565b90508015610388576103886040518060400160405280601981526020017f6d67764f666665722f6e65772f6f75744f6646756e64733a200000000000000081525082610f71565b6040517f49f6d2dc00000000000000000000000000000000000000000000000000000000815273ffffffffffffffffffffffffffffffffffffffff7f000000000000000000000000000000000000000000000000000000000000000016906349f6d2dc90610406908c908c908c908c908c908c908c90600401611e8b565b602060405180830381600087803b15801561042057600080fd5b505af1158015610434573d6000803e3d6000fd5b505050506040513d601f19601f820116820180604052508101906104589190611cfe565b9998505050505050505050565b60005473ffffffffffffffffffffffffffffffffffffffff1633148061048a57503330145b6104c0576040517f08c379a00000000000000000000000000000000000000000000000000000000081526004016102fa90611fcf565b60006104cf8989878786610f66565b90508015610516576105166040518060400160405280601c81526020017f6d67764f666665722f7570646174652f6f75744f6646756e64733a200000000081525082610f71565b6040517f6a4f769100000000000000000000000000000000000000000000000000000000815273ffffffffffffffffffffffffffffffffffffffff7f00000000000000000000000000000000000000000000000000000000000000001690636a4f769190610596908c908c908c908c908c908c908c908c90600401611ed6565b600060405180830381600087803b1580156105b057600080fd5b505af11580156105c4573d6000803e3d6000fd5b50505050505050505050505050565b60005473ffffffffffffffffffffffffffffffffffffffff163314610624576040517f08c379a00000000000000000000000000000000000000000000000000000000081526004016102fa90611fcf565b600080547fffffffffffffffffffffffff00000000000000000000000000000000000000001673ffffffffffffffffffffffffffffffffffffffff92909216919091179055565b6000805473ffffffffffffffffffffffffffffffffffffffff1633146106bd576040517f08c379a00000000000000000000000000000000000000000000000000000000081526004016102fa90611fcf565b8273ffffffffffffffffffffffffffffffffffffffff16826040516106e190611db3565b60006040518083038185875af1925050503d806000811461071e576040519150601f19603f3d011682016040523d82523d6000602084013e610723565b606091505b50505092915050565b6000805473ffffffffffffffffffffffffffffffffffffffff1633148061075257503330145b610788576040517f08c379a00000000000000000000000000000000000000000000000000000000081526004016102fa90611fcf565b6040517fad97db1b00000000000000000000000000000000000000000000000000000000815273ffffffffffffffffffffffffffffffffffffffff7f0000000000000000000000000000000000000000000000000000000000000000169063ad97db1b90610800908890889088908890600401611e55565b602060405180830381600087803b15801561081a57600080fd5b505af115801561082e573d6000803e3d6000fd5b505050506040513d601f19601f820116820180604052508101906108529190611cfe565b95945050505050565b60005473ffffffffffffffffffffffffffffffffffffffff1633146108ac576040517f08c379a00000000000000000000000000000000000000000000000000000000081526004016102fa90611fcf565b6040517f095ea7b300000000000000000000000000000000000000000000000000000000815273ffffffffffffffffffffffffffffffffffffffff83169063095ea7b390610920907f0000000000000000000000000000000000000000000000000000000000000000908590600401611dd7565b602060405180830381600087803b15801561093a57600080fd5b505af115801561094e573d6000803e3d6000fd5b505050506040513d601f19601f820116820180604052508101906109729190611ce2565b6109a8576040517f08c379a00000000000000000000000000000000000000000000000000000000081526004016102fa90611f3b565b5050565b60007f000000000000000000000000000000000000000000000000000000000000000073ffffffffffffffffffffffffffffffffffffffff81161580610a0757503373ffffffffffffffffffffffffffffffffffffffff8216145b610a3d576040517f08c379a00000000000000000000000000000000000000000000000000000000081526004016102fa90611fcf565b610a4683610f9c565b610a72577f6d67764f666665722f72656e65676564000000000000000000000000000000009150610ade565b610a8f610a856040850160208601611b00565b8460a001356109a8565b6000610aab610aa16020860186611b00565b8560800135610fa2565b90508015610adc577f6d67764f666665722f6f75744f664c6971756964697479000000000000000000925050610ade565b505b50919050565b60015481565b6000610b1a7f00000000000000000000000000000000000000000000000000000000000000008787878787611049565b9695505050505050565b7f000000000000000000000000000000000000000000000000000000000000000073ffffffffffffffffffffffffffffffffffffffff81161580610b7d57503373ffffffffffffffffffffffffffffffffffffffff8216145b610bb3576040517f08c379a00000000000000000000000000000000000000000000000000000000081526004016102fa90611fcf565b81602001357f6d67762f747261646553756363657373000000000000000000000000000000001415610bed57610be88361132a565b610c5b565b81357f6d67764f666665722f6f75744f664c69717569646974790000000000000000001415610c1f57610be88361132d565b81357f6d67764f666665722f72656e65676564000000000000000000000000000000001415610c5157610be88361132a565b610c5b8383611415565b505050565b6000805473ffffffffffffffffffffffffffffffffffffffff163314610cb2576040517f08c379a00000000000000000000000000000000000000000000000000000000081526004016102fa90611fcf565b6040517f2e1a7d4d00000000000000000000000000000000000000000000000000000000815273ffffffffffffffffffffffffffffffffffffffff7f00000000000000000000000000000000000000000000000000000000000000001690632e1a7d4d90610d24908590600401611f32565b602060405180830381600087803b158015610d3e57600080fd5b505af1158015610d52573d6000803e3d6000fd5b505050506040513d601f19601f82011682018060405250810190610d769190611ce2565b610d7f57600080fd5b73ffffffffffffffffffffffffffffffffffffffff8316610dcc576040517f08c379a00000000000000000000000000000000000000000000000000000000081526004016102fa90611f72565b8273ffffffffffffffffffffffffffffffffffffffff1682604051610df090611db3565b60006040518083038185875af1925050503d8060008114610e2d576040519150601f19603f3d011682016040523d82523d6000602084013e610e32565b606091505b5090949350505050565b6000805473ffffffffffffffffffffffffffffffffffffffff163314610e8e576040517f08c379a00000000000000000000000000000000000000000000000000000000081526004016102fa90611fcf565b6040517fa9059cbb00000000000000000000000000000000000000000000000000000000815273ffffffffffffffffffffffffffffffffffffffff85169063a9059cbb90610ee29086908690600401611dd7565b602060405180830381600087803b158015610efc57600080fd5b505af1158015610f10573d6000803e3d6000fd5b505050506040513d601f19601f82011682018060405250810190610f349190611ce2565b949350505050565b60005473ffffffffffffffffffffffffffffffffffffffff1681565b60ff602082901c165b919050565b600095945050505050565b600080610f7c6114ab565b91509150610f8a8482611509565b610f948382611538565b604481510182fd5b50600190565b6000808373ffffffffffffffffffffffffffffffffffffffff166370a08231306040518263ffffffff1660e01b8152600401610fde9190611db6565b60206040518083038186803b158015610ff657600080fd5b505afa15801561100a573d6000803e3d6000fd5b505050506040513d601f19601f8201168201806040525081019061102e9190611cfe565b905082811161103f57808303610f34565b6000949350505050565b60008060008873ffffffffffffffffffffffffffffffffffffffff1663cbf75c9a89896040518363ffffffff1660e01b8152600401611089929190611dfd565b604080518083038186803b1580156110a057600080fd5b505afa1580156110b4573d6000803e3d6000fd5b505050506040513d601f19601f820116820180604052508101906110d89190611d16565b9150915060008973ffffffffffffffffffffffffffffffffffffffff166368c13d6b8a8a886040518463ffffffff1660e01b815260040161111b93929190611e24565b60206040518083038186803b15801561113357600080fd5b505afa158015611147573d6000803e3d6000fd5b505050506040513d601f19601f8201168201806040525081019061116b9190611cfe565b905060008a73ffffffffffffffffffffffffffffffffffffffff16635722647b8b8b896040518463ffffffff1660e01b81526004016111ac93929190611e24565b60206040518083038186803b1580156111c457600080fd5b505afa1580156111d8573d6000803e3d6000fd5b505050506040513d601f19601f820116820180604052508101906111fc9190611cfe565b905060008761120a86611a51565b11156112205761121985611a51565b9050611223565b50865b60008161122f86611a5b565b61123887611a66565b8c010102633b9aca00029050600061124f85611a71565b61125885611a78565b61126186611a83565b61126a87611a8e565b010102633b9aca0002905060008e73ffffffffffffffffffffffffffffffffffffffff166370a08231306040518263ffffffff1660e01b81526004016112b09190611db6565b60206040518083038186803b1580156112c857600080fd5b505afa1580156112dc573d6000803e3d6000fd5b505050506040513d601f19601f820116820180604052508101906113009190611cfe565b820190508281101561131457808303611317565b60005b9f9e505050505050505050505050505050565b50565b600061133c6020830183611b00565b73ffffffffffffffffffffffffffffffffffffffff166370a08231306040518263ffffffff1660e01b81526004016113749190611db6565b60206040518083038186803b15801561138c57600080fd5b505afa1580156113a0573d6000803e3d6000fd5b505050506040513d601f19601f820116820180604052508101906113c49190611cfe565b60808301350390507f7987d58a37b53925855fa5d7536c576a67784c1221b88fc56f519f81d5fbab8d6113fa6020840184611b00565b82604051611409929190611dd7565b60405180910390a15050565b6114256040830160208401611b00565b73ffffffffffffffffffffffffffffffffffffffff166114486020840184611b00565b73ffffffffffffffffffffffffffffffffffffffff167f768269e5e6803a8bc566de9364d8347774fff5b114c5a2ec556ab0459a17242684604001356114918560200135611a99565b60405161149f929190612006565b60405180910390a35050565b6040516000908190816102008210156114c45761020091505b5061100081016040527f08c379a00000000000000000000000000000000000000000000000000000000081526020600482015260006024820190815290925090509091565b8151815180602001830160005b838110156115305760208187018101518383015201611516565b505001905250565b60405161020081101561154a57506102005b60405160a082015260605160c082015260805160e082015260a05161010082015260c05161012082015260e0516101408201526101005161016082015261012051610180820152610140516101a08201526130306000527f30313032303330343035303630373038303931303131313231333134313531366020527f31373138313932303231323232333234323532363237323832393330333133326040527f33333334333533363337333833393430343134323433343434353436343734386060527f34393530353135323533353435353536353735383539363036313632363336346080527f363536363637363836393730373137323733373437353736373737383739383060a0527f383138323833383438353836383738383839393039313932393339343935393660c0527f393739383939000000000000000000000000000000000000000000000000000060e05261182e565b600061ffff60646c0c9f2c9cd04674edea4000000084040660011b511660f01b61ffff60646b204fce5e3e2502611000000085040660011b511660e01b0161ffff60646a52b7d2dcc80cd2e400000085040660011b511660d01b61ffff606469d3c21bcecceda100000086040660011b511660c01b010161ffff606469021e19e0c9bab240000085040660011b511660b01b61ffff606468056bc75e2d6310000086040660011b511660a01b0161ffff6064670de0b6b3a764000086040660011b511660901b61ffff6064662386f26fc1000087040660011b511660801b01010161ffff6064655af3107a400085040660011b511660701b61ffff606464e8d4a5100086040660011b511660601b0161ffff60646402540be40086040660011b511660501b61ffff60646305f5e10087040660011b511660401b010161ffff6064620f424086040660011b511660301b61ffff606461271087040660011b511660201b0161ffff60648087040660011b511660101b61ffff6064870660011b5116010101019050919050565b600061010052600061012052611843836116a2565b610140526d04ee2d6d415b85acef810000000083049250821561189457611869836116a2565b610120526d04ee2d6d415b85acef81000000008304925082156118945761188f836116a2565b610100525b611987565b60ff7f80808080808080808080808080808080808080808080808080808080808080807f4f4f4f4f4f4f4f4f4f4f4f4f4f4f4f4f4f4f4f4f4f4f4f4f4f4f4f4f4f4f4f4f8301908116600191821c7f40404040404040404040404040404040404040404040404040404040404040401617600281901c17600481901c17600881811c909117601081901c17602081901c17604081901c17608081901c17901c017f201f1e1d1c1b1a191817161514131211100f0e0d0c0b0a09080706050403020104167fcfcfcfcfcfcfcfcfcfcfcfcfcfcfcfcfcfcfcfcfcfcfcfcfcfcfcfcfcfcfcfd09190910115150290565b61199361014051611899565b61012051156119c85760206119aa61012051611899565b01905061010051156119c85760406119c461010051611899565b0190505b82516020810184018260600380610100015182528061012001516020830152806101400151604083015250508181018452505060a081015160405260c081015160605260e081015160805261010081015160a05261012081015160c05261014081015160e05261016081015161010052610180810151610120526101a081015161014052505050565b60401c61ffff1690565b60381c62ffffff1690565b60501c62ffffff1690565b61ffff1690565b60181c62ffffff1690565b60301c62ffffff1690565b60481c62ffffff1690565b6040805160208082528183019092526060916000919060208201818036833750505060208101939093525090919050565b803573ffffffffffffffffffffffffffffffffffffffff81168114610f6157600080fd5b60006101208284031215610ade578081fd5b600060208284031215611b11578081fd5b611b1a82611aca565b9392505050565b600080600060608486031215611b35578182fd5b611b3e84611aca565b9250611b4c60208501611aca565b9150604084013590509250925092565b60008060008060808587031215611b71578081fd5b611b7a85611aca565b9350611b8860208601611aca565b9250604085013591506060850135611b9f8161207f565b939692955090935050565b600080600080600060a08688031215611bc1578081fd5b611bca86611aca565b9450611bd860208701611aca565b94979496505050506040830135926060810135926080909101359150565b600080600080600080600060e0888a031215611c10578182fd5b611c1988611aca565b9650611c2760208901611aca565b96999698505050506040850135946060810135946080820135945060a0820135935060c0909101359150565b600080600080600080600080610100898b031215611c6f578081fd5b611c7889611aca565b9750611c8660208a01611aca565b979a9799505050506040860135956060810135956080820135955060a0820135945060c0820135935060e0909101359150565b60008060408385031215611ccb578182fd5b611cd483611aca565b946020939093013593505050565b600060208284031215611cf3578081fd5b8151611b1a8161207f565b600060208284031215611d0f578081fd5b5051919050565b60008060408385031215611d28578182fd5b505080516020909101519092909150565b60006101208284031215611d4b578081fd5b611b1a8383611aee565b600080828403610160811215611d69578283fd5b611d738585611aee565b925060407ffffffffffffffffffffffffffffffffffffffffffffffffffffffffffffffee082011215611da4578182fd5b50610120830190509250929050565b90565b73ffffffffffffffffffffffffffffffffffffffff91909116815260200190565b73ffffffffffffffffffffffffffffffffffffffff929092168252602082015260400190565b73ffffffffffffffffffffffffffffffffffffffff92831681529116602082015260400190565b73ffffffffffffffffffffffffffffffffffffffff9384168152919092166020820152604081019190915260600190565b73ffffffffffffffffffffffffffffffffffffffff94851681529290931660208301526040820152901515606082015260800190565b73ffffffffffffffffffffffffffffffffffffffff978816815295909616602086015260408501939093526060840191909152608083015260a082015260c081019190915260e00190565b73ffffffffffffffffffffffffffffffffffffffff988916815296909716602087015260408601949094526060850192909252608084015260a083015260c082015260e08101919091526101000190565b901515815260200190565b90815260200190565b6020808252601a908201527f4661696c656420746f20617070726f7665204d616e67726f7665000000000000604082015260600190565b60208082526023908201527f43616e6e6f74207472616e73666572205745497320746f20307830206164647260408201527f6573730000000000000000000000000000000000000000000000000000000000606082015260800190565b60208082526018908201527f416363657373436f6e74726f6c6c65642f496e76616c69640000000000000000604082015260600190565b600083825260206040818401528351806040850152825b818110156120395785810183015185820160600152820161201d565b8181111561204a5783606083870101525b50601f017fffffffffffffffffffffffffffffffffffffffffffffffffffffffffffffffe01692909201606001949350505050565b801515811461132a57600080fdfea26469706673582212206bfc9940cc57ffbfc04f10ccf484f20053f8d591185062e0f6ed653d441286f464736f6c63430007060033",
  "linkReferences": {},
  "deployedLinkReferences": {}
}