{
  "_format": "hh-sol-artifact-1",
  "contractName": "MangroveOrderEnriched",
  "sourceName": "contracts/Strategies/OrderLogics/MangroveOrderEnriched.sol",
  "abi": [
    {
      "inputs": [
        {
          "internalType": "address payable",
          "name": "_MGV",
          "type": "address"
        },
        {
          "internalType": "address",
          "name": "admin",
          "type": "address"
        }
      ],
      "stateMutability": "nonpayable",
      "type": "constructor"
    },
    {
      "anonymous": false,
      "inputs": [
        {
          "indexed": true,
          "internalType": "address",
          "name": "user",
          "type": "address"
        },
        {
          "indexed": false,
          "internalType": "uint256",
          "name": "amount",
          "type": "uint256"
        }
      ],
      "name": "CreditMgvUser",
      "type": "event"
    },
    {
      "anonymous": false,
      "inputs": [
        {
          "indexed": true,
          "internalType": "address",
          "name": "user",
          "type": "address"
        },
        {
          "indexed": true,
          "internalType": "address",
          "name": "token",
          "type": "address"
        },
        {
          "indexed": false,
          "internalType": "uint256",
          "name": "amount",
          "type": "uint256"
        }
      ],
      "name": "CreditUserTokenBalance",
      "type": "event"
    },
    {
      "anonymous": false,
      "inputs": [
        {
          "indexed": true,
          "internalType": "address",
          "name": "user",
          "type": "address"
        },
        {
          "indexed": false,
          "internalType": "uint256",
          "name": "amount",
          "type": "uint256"
        }
      ],
      "name": "DebitMgvUser",
      "type": "event"
    },
    {
      "anonymous": false,
      "inputs": [
        {
          "indexed": true,
          "internalType": "address",
          "name": "user",
          "type": "address"
        },
        {
          "indexed": true,
          "internalType": "address",
          "name": "token",
          "type": "address"
        },
        {
          "indexed": false,
          "internalType": "uint256",
          "name": "amount",
          "type": "uint256"
        }
      ],
      "name": "DebitUserTokenBalance",
      "type": "event"
    },
    {
      "anonymous": false,
      "inputs": [
        {
          "indexed": true,
          "internalType": "address",
          "name": "outbound_tkn",
          "type": "address"
        },
        {
          "indexed": true,
          "internalType": "address",
          "name": "inbound_tkn",
          "type": "address"
        },
        {
          "indexed": true,
          "internalType": "uint256",
          "name": "offerId",
          "type": "uint256"
        },
        {
          "indexed": false,
          "internalType": "bytes32",
          "name": "reason",
          "type": "bytes32"
        }
      ],
      "name": "LogIncident",
      "type": "event"
    },
    {
      "anonymous": false,
      "inputs": [
        {
          "indexed": true,
          "internalType": "address",
          "name": "outbound_tkn",
          "type": "address"
        },
        {
          "indexed": true,
          "internalType": "address",
          "name": "inbound_tkn",
          "type": "address"
        },
        {
          "indexed": true,
          "internalType": "uint256",
          "name": "offerId",
          "type": "uint256"
        },
        {
          "indexed": false,
          "internalType": "address",
          "name": "owner",
          "type": "address"
        }
      ],
      "name": "NewOwnedOffer",
      "type": "event"
    },
    {
      "anonymous": false,
      "inputs": [
        {
          "indexed": true,
          "internalType": "address",
          "name": "base",
          "type": "address"
        },
        {
          "indexed": true,
          "internalType": "address",
          "name": "quote",
          "type": "address"
        },
        {
          "indexed": true,
          "internalType": "address",
          "name": "taker",
          "type": "address"
        },
        {
          "indexed": false,
          "internalType": "bool",
          "name": "selling",
          "type": "bool"
        },
        {
          "indexed": false,
          "internalType": "uint256",
          "name": "takerGot",
          "type": "uint256"
        },
        {
          "indexed": false,
          "internalType": "uint256",
          "name": "takerGave",
          "type": "uint256"
        },
        {
          "indexed": false,
          "internalType": "uint256",
          "name": "penalty",
          "type": "uint256"
        },
        {
          "indexed": false,
          "internalType": "uint256",
          "name": "restingOrderId",
          "type": "uint256"
        }
      ],
      "name": "OrderSummary",
      "type": "event"
    },
    {
      "inputs": [],
      "name": "MGV",
      "outputs": [
        {
          "internalType": "contract IMangrove",
          "name": "",
          "type": "address"
        }
      ],
      "stateMutability": "view",
      "type": "function"
    },
    {
      "inputs": [],
      "name": "OFR_GASREQ",
      "outputs": [
        {
          "internalType": "uint256",
          "name": "",
          "type": "uint256"
        }
      ],
      "stateMutability": "view",
      "type": "function"
    },
    {
      "inputs": [],
      "name": "admin",
      "outputs": [
        {
          "internalType": "address",
          "name": "",
          "type": "address"
        }
      ],
      "stateMutability": "view",
      "type": "function"
    },
    {
      "inputs": [
        {
          "internalType": "address",
          "name": "outbound_tkn",
          "type": "address"
        },
        {
          "internalType": "uint256",
          "name": "amount",
          "type": "uint256"
        }
      ],
      "name": "approveMangrove",
      "outputs": [],
      "stateMutability": "nonpayable",
      "type": "function"
    },
    {
      "inputs": [
        {
          "internalType": "address",
          "name": "owner",
          "type": "address"
        }
      ],
      "name": "balanceOnMangrove",
      "outputs": [
        {
          "internalType": "uint256",
          "name": "",
          "type": "uint256"
        }
      ],
      "stateMutability": "view",
      "type": "function"
    },
    {
      "inputs": [
        {
          "internalType": "address",
          "name": "token",
          "type": "address"
        },
        {
          "internalType": "uint256",
          "name": "amount",
          "type": "uint256"
        }
      ],
      "name": "depositToken",
      "outputs": [
        {
          "internalType": "bool",
          "name": "success",
          "type": "bool"
        }
      ],
      "stateMutability": "nonpayable",
      "type": "function"
    },
    {
      "inputs": [
        {
          "internalType": "address",
          "name": "",
          "type": "address"
        },
        {
          "internalType": "address",
          "name": "",
          "type": "address"
        },
        {
          "internalType": "uint256",
          "name": "",
          "type": "uint256"
        }
      ],
      "name": "expiring",
      "outputs": [
        {
          "internalType": "uint256",
          "name": "",
          "type": "uint256"
        }
      ],
      "stateMutability": "view",
      "type": "function"
    },
    {
      "inputs": [],
      "name": "fundMangrove",
      "outputs": [],
      "stateMutability": "payable",
      "type": "function"
    },
    {
      "inputs": [
        {
          "internalType": "address",
          "name": "outbound_tkn",
          "type": "address"
        },
        {
          "internalType": "address",
          "name": "inbound_tkn",
          "type": "address"
        },
        {
          "internalType": "uint256",
          "name": "gasreq",
          "type": "uint256"
        },
        {
          "internalType": "uint256",
          "name": "gasprice",
          "type": "uint256"
        },
        {
          "internalType": "uint256",
          "name": "offerId",
          "type": "uint256"
        }
      ],
      "name": "getMissingProvision",
      "outputs": [
        {
          "internalType": "uint256",
          "name": "",
          "type": "uint256"
        }
      ],
      "stateMutability": "view",
      "type": "function"
    },
    {
      "inputs": [
        {
          "components": [
            {
              "internalType": "address",
              "name": "outbound_tkn",
              "type": "address"
            },
            {
              "internalType": "address",
              "name": "inbound_tkn",
              "type": "address"
            },
            {
              "internalType": "uint256",
              "name": "offerId",
              "type": "uint256"
            },
            {
              "internalType": "Offer.t",
              "name": "offer",
              "type": "uint256"
            },
            {
              "internalType": "uint256",
              "name": "wants",
              "type": "uint256"
            },
            {
              "internalType": "uint256",
              "name": "gives",
              "type": "uint256"
            },
            {
              "internalType": "OfferDetail.t",
              "name": "offerDetail",
              "type": "uint256"
            },
            {
              "internalType": "Global.t",
              "name": "global",
              "type": "uint256"
            },
            {
              "internalType": "Local.t",
              "name": "local",
              "type": "uint256"
            }
          ],
          "internalType": "struct MgvLib.SingleOrder",
          "name": "order",
          "type": "tuple"
        }
      ],
      "name": "makerExecute",
      "outputs": [
        {
          "internalType": "bytes32",
          "name": "ret",
          "type": "bytes32"
        }
      ],
      "stateMutability": "nonpayable",
      "type": "function"
    },
    {
      "inputs": [
        {
          "components": [
            {
              "internalType": "address",
              "name": "outbound_tkn",
              "type": "address"
            },
            {
              "internalType": "address",
              "name": "inbound_tkn",
              "type": "address"
            },
            {
              "internalType": "uint256",
              "name": "offerId",
              "type": "uint256"
            },
            {
              "internalType": "Offer.t",
              "name": "offer",
              "type": "uint256"
            },
            {
              "internalType": "uint256",
              "name": "wants",
              "type": "uint256"
            },
            {
              "internalType": "uint256",
              "name": "gives",
              "type": "uint256"
            },
            {
              "internalType": "OfferDetail.t",
              "name": "offerDetail",
              "type": "uint256"
            },
            {
              "internalType": "Global.t",
              "name": "global",
              "type": "uint256"
            },
            {
              "internalType": "Local.t",
              "name": "local",
              "type": "uint256"
            }
          ],
          "internalType": "struct MgvLib.SingleOrder",
          "name": "order",
          "type": "tuple"
        },
        {
          "components": [
            {
              "internalType": "bytes32",
              "name": "makerData",
              "type": "bytes32"
            },
            {
              "internalType": "bytes32",
              "name": "mgvData",
              "type": "bytes32"
            }
          ],
          "internalType": "struct MgvLib.OrderResult",
          "name": "result",
          "type": "tuple"
        }
      ],
      "name": "makerPosthook",
      "outputs": [],
      "stateMutability": "nonpayable",
      "type": "function"
    },
    {
      "inputs": [
        {
          "internalType": "address",
          "name": "",
          "type": "address"
        }
      ],
      "name": "mgvBalance",
      "outputs": [
        {
          "internalType": "uint256",
          "name": "",
          "type": "uint256"
        }
      ],
      "stateMutability": "view",
      "type": "function"
    },
    {
      "inputs": [
        {
          "internalType": "address",
          "name": "outbound_tkn",
          "type": "address"
        },
        {
          "internalType": "address",
          "name": "inbound_tkn",
          "type": "address"
        },
        {
          "internalType": "uint256",
          "name": "wants",
          "type": "uint256"
        },
        {
          "internalType": "uint256",
          "name": "gives",
          "type": "uint256"
        },
        {
          "internalType": "uint256",
          "name": "gasreq",
          "type": "uint256"
        },
        {
          "internalType": "uint256",
          "name": "gasprice",
          "type": "uint256"
        },
        {
          "internalType": "uint256",
          "name": "pivotId",
          "type": "uint256"
        }
      ],
      "name": "newOffer",
      "outputs": [
        {
          "internalType": "uint256",
          "name": "offerId",
          "type": "uint256"
        }
      ],
      "stateMutability": "payable",
      "type": "function"
    },
    {
      "inputs": [
        {
          "internalType": "address",
          "name": "outbound_tkn",
          "type": "address"
        },
        {
          "internalType": "address",
          "name": "inbound_tkn",
          "type": "address"
        },
        {
          "internalType": "uint256[]",
          "name": "offerIds",
          "type": "uint256[]"
        }
      ],
      "name": "offerOwners",
      "outputs": [
        {
          "internalType": "address[]",
          "name": "__offerOwners",
          "type": "address[]"
        }
      ],
      "stateMutability": "view",
      "type": "function"
    },
    {
      "inputs": [
        {
          "internalType": "address",
          "name": "owner",
          "type": "address"
        },
        {
          "internalType": "address",
          "name": "outbound_tkn",
          "type": "address"
        },
        {
          "internalType": "address",
          "name": "inbound_tkn",
          "type": "address"
        }
      ],
      "name": "offersOfOwner",
      "outputs": [
        {
          "internalType": "uint256[]",
          "name": "live",
          "type": "uint256[]"
        },
        {
          "internalType": "uint256[]",
          "name": "dead",
          "type": "uint256[]"
        }
      ],
      "stateMutability": "view",
      "type": "function"
    },
    {
      "inputs": [
        {
          "internalType": "address",
          "name": "outbound_tkn",
          "type": "address"
        },
        {
          "internalType": "address",
          "name": "inbound_tkn",
          "type": "address"
        },
        {
          "internalType": "uint256",
          "name": "offerId",
          "type": "uint256"
        }
      ],
      "name": "ownerOf",
      "outputs": [
        {
          "internalType": "address",
          "name": "owner",
          "type": "address"
        }
      ],
      "stateMutability": "view",
      "type": "function"
    },
    {
      "inputs": [
        {
          "internalType": "address",
          "name": "outbound_tkn",
          "type": "address"
        },
        {
          "internalType": "address",
          "name": "inbound_tkn",
          "type": "address"
        },
        {
          "internalType": "uint256",
          "name": "offerId",
          "type": "uint256"
        },
        {
          "internalType": "bool",
          "name": "deprovision",
          "type": "bool"
        }
      ],
      "name": "retractOffer",
      "outputs": [
        {
          "internalType": "uint256",
          "name": "received",
          "type": "uint256"
        }
      ],
      "stateMutability": "nonpayable",
      "type": "function"
    },
    {
      "inputs": [
        {
          "internalType": "address",
          "name": "_admin",
          "type": "address"
        }
      ],
      "name": "setAdmin",
      "outputs": [],
      "stateMutability": "nonpayable",
      "type": "function"
    },
    {
      "inputs": [
        {
          "internalType": "uint256",
          "name": "gasreq",
          "type": "uint256"
        }
      ],
      "name": "setGasreq",
      "outputs": [],
      "stateMutability": "nonpayable",
      "type": "function"
    },
    {
      "inputs": [
        {
          "components": [
            {
              "internalType": "address",
              "name": "base",
              "type": "address"
            },
            {
              "internalType": "address",
              "name": "quote",
              "type": "address"
            },
            {
              "internalType": "bool",
              "name": "partialFillNotAllowed",
              "type": "bool"
            },
            {
              "internalType": "bool",
              "name": "selling",
              "type": "bool"
            },
            {
              "internalType": "uint256",
              "name": "wants",
              "type": "uint256"
            },
            {
              "internalType": "uint256",
              "name": "makerWants",
              "type": "uint256"
            },
            {
              "internalType": "uint256",
              "name": "gives",
              "type": "uint256"
            },
            {
              "internalType": "uint256",
              "name": "makerGives",
              "type": "uint256"
            },
            {
              "internalType": "bool",
              "name": "restingOrder",
              "type": "bool"
            },
            {
              "internalType": "uint256",
              "name": "retryNumber",
              "type": "uint256"
            },
            {
              "internalType": "uint256",
              "name": "gasForMarketOrder",
              "type": "uint256"
            },
            {
              "internalType": "uint256",
              "name": "blocksToLiveForRestingOrder",
              "type": "uint256"
            }
          ],
          "internalType": "struct IOrderLogic.TakerOrder",
          "name": "tko",
          "type": "tuple"
        }
      ],
      "name": "take",
      "outputs": [
        {
          "components": [
            {
              "internalType": "uint256",
              "name": "takerGot",
              "type": "uint256"
            },
            {
              "internalType": "uint256",
              "name": "takerGave",
              "type": "uint256"
            },
            {
              "internalType": "uint256",
              "name": "bounty",
              "type": "uint256"
            },
            {
              "internalType": "uint256",
              "name": "offerId",
              "type": "uint256"
            }
          ],
          "internalType": "struct IOrderLogic.TakerOrderResult",
          "name": "res",
          "type": "tuple"
        }
      ],
      "stateMutability": "payable",
      "type": "function"
    },
    {
      "inputs": [
        {
          "internalType": "address",
          "name": "token",
          "type": "address"
        },
        {
          "internalType": "address",
          "name": "owner",
          "type": "address"
        }
      ],
      "name": "tokenBalance",
      "outputs": [
        {
          "internalType": "uint256",
          "name": "",
          "type": "uint256"
        }
      ],
      "stateMutability": "view",
      "type": "function"
    },
    {
      "inputs": [
        {
          "internalType": "address",
          "name": "",
          "type": "address"
        },
        {
          "internalType": "address",
          "name": "",
          "type": "address"
        }
      ],
      "name": "tokenBalanceOf",
      "outputs": [
        {
          "internalType": "uint256",
          "name": "",
          "type": "uint256"
        }
      ],
      "stateMutability": "view",
      "type": "function"
    },
    {
      "inputs": [
        {
          "internalType": "address",
          "name": "outbound_tkn",
          "type": "address"
        },
        {
          "internalType": "address",
          "name": "inbound_tkn",
          "type": "address"
        },
        {
          "internalType": "uint256",
          "name": "wants",
          "type": "uint256"
        },
        {
          "internalType": "uint256",
          "name": "gives",
          "type": "uint256"
        },
        {
          "internalType": "uint256",
          "name": "gasreq",
          "type": "uint256"
        },
        {
          "internalType": "uint256",
          "name": "gasprice",
          "type": "uint256"
        },
        {
          "internalType": "uint256",
          "name": "pivotId",
          "type": "uint256"
        },
        {
          "internalType": "uint256",
          "name": "offerId",
          "type": "uint256"
        }
      ],
      "name": "updateOffer",
      "outputs": [],
      "stateMutability": "payable",
      "type": "function"
    },
    {
      "inputs": [
        {
          "internalType": "address payable",
          "name": "receiver",
          "type": "address"
        },
        {
          "internalType": "uint256",
          "name": "amount",
          "type": "uint256"
        }
      ],
      "name": "withdrawFromMangrove",
      "outputs": [
        {
          "internalType": "bool",
          "name": "noRevert",
          "type": "bool"
        }
      ],
      "stateMutability": "nonpayable",
      "type": "function"
    },
    {
      "inputs": [
        {
          "internalType": "address",
          "name": "token",
          "type": "address"
        },
        {
          "internalType": "address",
          "name": "receiver",
          "type": "address"
        },
        {
          "internalType": "uint256",
          "name": "amount",
          "type": "uint256"
        }
      ],
      "name": "withdrawToken",
      "outputs": [
        {
          "internalType": "bool",
          "name": "success",
          "type": "bool"
        }
      ],
      "stateMutability": "nonpayable",
      "type": "function"
    },
    {
      "stateMutability": "payable",
      "type": "receive"
    }
  ],
  "bytecode": "0x60a06040523480156200001157600080fd5b506040516200440f3803806200440f833981016040819052620000349162000153565b81818181806001600160a01b038116620000945760405162461bcd60e51b815260206004820152601860248201527f616363657373436f6e74726f6c6c65642f307841646d696e0000000000000000604482015260640160405180910390fd5b80620000aa620000f260201b62001eda1760201c565b80546001600160a01b0319166001600160a01b0392831617905583166080525062013880620000e462000116602090811b62001efe17901c565b555062000192945050505050565b7f7d382ebca3e46505071795e192d28166a3d4bd0685585591bc6c5b8df6769fd290565b7fae7e31c3220e851db9f204a28b279dfe52b973600b0a456991089c220ae7222490565b6001600160a01b03811681146200015057600080fd5b50565b600080604083850312156200016757600080fd5b825162000174816200013a565b602084015190925062000187816200013a565b809150509250929050565b6080516141ce62000241600039600081816104490152818161093301528181610aaa01528181610cc601528181610e470152818161111d015281816118c501528181611b8d01528181611c2b0152818161213b015281816124a3015281816125a301528181612690015281816128a801528181612b9f01528181612cae01528181612fb80152818161307e0152818161313a015281816132a60152818161335601526137b501526141ce6000f3fe60806040526004361061019a5760003560e01c80636a4f7691116100e1578063dec8c86b1161008a578063e4c34f8411610064578063e4c34f8414610551578063f851a44014610571578063f92495e5146105ae578063faa030ec146105ce57600080fd5b8063dec8c86b146104c3578063df242667146104f0578063e428204d1461051d57600080fd5b806399fa5e2d116100bb57806399fa5e2d14610437578063ad97db1b14610483578063aefe8403146104a357600080fd5b80636a4f7691146103e45780636c49c32c146103f7578063704b6c021461041757600080fd5b806335d61cb21161014357806349f6d2dc1161011d57806349f6d2dc1461034d5780634e7effa8146103605780636a1c7d051461039e57600080fd5b806335d61cb2146102c957806337b966bf146102ff5780633d3d130d1461032d57600080fd5b80631bea8006116101745780631bea80061461024f578063338b5dea1461028757806334bd8931146102a757600080fd5b806301e33667146101a6578063063df2d2146101db5780631049334f146101fb57600080fd5b366101a157005b600080fd5b3480156101b257600080fd5b506101c66101c136600461392c565b6105d6565b60405190151581526020015b60405180910390f35b3480156101e757600080fd5b506101c66101f636600461396d565b610677565b34801561020757600080fd5b50610241610216366004613999565b6001600160a01b03918216600090815260026020908152604080832093909416825291909152205490565b6040519081526020016101d2565b34801561025b57600080fd5b5061024161026a366004613999565b600260209081526000928352604080842090915290825290205481565b34801561029357600080fd5b506101c66102a236600461396d565b6106eb565b3480156102b357600080fd5b506102c76102c23660046139d2565b6108f5565b005b3480156102d557600080fd5b506102416102e43660046139eb565b6001600160a01b031660009081526001602052604090205490565b34801561030b57600080fd5b5061031f61031a366004613a08565b610a19565b6040516101d2929190613a8e565b34801561033957600080fd5b506102c7610348366004613ac6565b610e45565b61024161035b366004613b26565b610f8a565b34801561036c57600080fd5b5061024161037b36600461392c565b600360209081526000938452604080852082529284528284209052825290205481565b6103b16103ac366004613b88565b610ff9565b6040516101d291908151815260208083015190820152604080830151908201526060918201519181019190915260800190565b6102c76103f2366004613b9b565b611878565b34801561040357600080fd5b50610241610412366004613c06565b6118c1565b34801561042357600080fd5b506102c76104323660046139eb565b611a65565b34801561044357600080fd5b5061046b7f000000000000000000000000000000000000000000000000000000000000000081565b6040516001600160a01b0390911681526020016101d2565b34801561048f57600080fd5b5061024161049e366004613c31565b611b37565b3480156104af57600080fd5b506102c76104be36600461396d565b611b4f565b3480156104cf57600080fd5b506104e36104de366004613c84565b611cf7565b6040516101d29190613d19565b3480156104fc57600080fd5b5061024161050b3660046139eb565b60016020526000908152604090205481565b34801561052957600080fd5b507fae7e31c3220e851db9f204a28b279dfe52b973600b0a456991089c220ae7222454610241565b34801561055d57600080fd5b5061024161056c366004613d66565b611db1565b34801561057d57600080fd5b507f7d382ebca3e46505071795e192d28166a3d4bd0685585591bc6c5b8df6769fd2546001600160a01b031661046b565b3480156105ba57600080fd5b5061046b6105c936600461392c565b611dfc565b6102c7611e7e565b60006105e3843384611f22565b6040517fa9059cbb0000000000000000000000000000000000000000000000000000000081526001600160a01b0384811660048301526024820184905285169063a9059cbb906044016020604051808303816000875af115801561064b573d6000803e3d6000fd5b505050506040513d601f19601f8201168201806040525081019061066f9190613db7565b949350505050565b6000333014156106ce5760405162461bcd60e51b815260206004820152601260248201527f4d75746c692f6e6f5265656e7472616e6379000000000000000000000000000060448201526064015b60405180910390fd5b6106d83383612031565b6106e28383612109565b90505b92915050565b6040517f70a0823100000000000000000000000000000000000000000000000000000000815230600482015260009081906001600160a01b038516906370a0823190602401602060405180830381865afa15801561074d573d6000803e3d6000fd5b505050506040513d601f19601f820116820180604052508101906107719190613dd4565b6040517f23b872dd000000000000000000000000000000000000000000000000000000008152336004820152306024820152604481018590529091506001600160a01b038516906323b872dd906064016020604051808303816000875af11580156107e0573d6000803e3d6000fd5b505050506040513d601f19601f820116820180604052508101906108049190613db7565b6040517f70a08231000000000000000000000000000000000000000000000000000000008152306004820152909250839082906001600160a01b038716906370a0823190602401602060405180830381865afa158015610868573d6000803e3d6000fd5b505050506040513d601f19601f8201168201806040525081019061088c9190613dd4565b6108969190613e1c565b146108e35760405162461bcd60e51b815260206004820152601260248201527f4d756c74692f7472616e736665724661696c000000000000000000000000000060448201526064016106c5565b6108ee84338561226e565b5092915050565b7f7d382ebca3e46505071795e192d28166a3d4bd0685585591bc6c5b8df6769fd2546001600160a01b03163314806109555750336001600160a01b037f000000000000000000000000000000000000000000000000000000000000000016145b6109a15760405162461bcd60e51b815260206004820152601860248201527f416363657373436f6e74726f6c6c65642f496e76616c6964000000000000000060448201526064016106c5565b808162ffffff16146109f55760405162461bcd60e51b815260206004820152601860248201527f6d67764f666665722f6761737265712f6f766572666c6f77000000000000000060448201526064016106c5565b7fae7e31c3220e851db9f204a28b279dfe52b973600b0a456991089c220ae7222455565b6001600160a01b0380831660009081526004602090815260408083208585168452825280832093871683529281528282208280529052908120546060918291908190805b8215610be3576040517f68c13d6b0000000000000000000000000000000000000000000000000000000081526001600160a01b0389811660048301528881166024830152604482018590527f0000000000000000000000000000000000000000000000000000000000000000169063275074589082906368c13d6b90606401602060405180830381865afa158015610af9573d6000803e3d6000fd5b505050506040513d601f19601f82011682018060405250810190610b1d9190613dd4565b6040518263ffffffff1660e01b8152600401610b3b91815260200190565b602060405180830381865afa158015610b58573d6000803e3d6000fd5b505050506040513d601f19601f82011682018060405250810190610b7c9190613db7565b15610b935781610b8b81613e33565b925050610ba1565b80610b9d81613e33565b9150505b6001600160a01b0380891660009081526004602090815260408083208b851684528252808320938d168352928152828220958252949094529092205491610a5d565b8167ffffffffffffffff811115610bfc57610bfc613e6c565b604051908082528060200260200182016040528015610c25578160200160208202803683370190505b5095508067ffffffffffffffff811115610c4157610c41613e6c565b604051908082528060200260200182016040528015610c6a578160200160208202803683370190505b50945083925060009150600090505b8215610e39576040517f68c13d6b0000000000000000000000000000000000000000000000000000000081526001600160a01b0389811660048301528881166024830152604482018590527f0000000000000000000000000000000000000000000000000000000000000000169063275074589082906368c13d6b90606401602060405180830381865afa158015610d15573d6000803e3d6000fd5b505050506040513d601f19601f82011682018060405250810190610d399190613dd4565b6040518263ffffffff1660e01b8152600401610d5791815260200190565b602060405180830381865afa158015610d74573d6000803e3d6000fd5b505050506040513d601f19601f82011682018060405250810190610d989190613db7565b15610dcc57828683610da981613e33565b945081518110610dbb57610dbb613e9b565b602002602001018181525050610df7565b828582610dd881613e33565b935081518110610dea57610dea613e9b565b6020026020010181815250505b6001600160a01b0380891660009081526004602090815260408083208b851684528252808320938d168352928152828220958252949094529092205491610c79565b50505050935093915050565b7f00000000000000000000000000000000000000000000000000000000000000006001600160a01b0381161580610e845750336001600160a01b038216145b610ed05760405162461bcd60e51b815260206004820152601860248201527f416363657373436f6e74726f6c6c65642f496e76616c6964000000000000000060448201526064016106c5565b81602001357f6d67762f747261646553756363657373000000000000000000000000000000001415610f0b57610f05836122f1565b50505050565b60408301803590610f1f90602086016139eb565b6001600160a01b0316610f3560208601866139eb565b6001600160a01b03167fd2c3f090769d843e1fc2e6ce65d60572e28f9163a5cfccbd6c1725c6a9263f2f8560000135604051610f7391815260200190565b60405180910390a4610f05838361242f565b505050565b600033301415610fdc5760405162461bcd60e51b815260206004820152601260248201527f4d75746c692f6e6f5265656e7472616e6379000000000000000000000000000060448201526064016106c5565b610fed888888888888883334612468565b98975050505050505050565b6110246040518060800160405280600081526020016000815260200160008152602001600081525090565b6000806110376080850160608601613eca565b61105d5761104860208501856139eb565b61105860408601602087016139eb565b61107a565b61106d60408501602086016139eb565b61107a60208601866139eb565b9150915061108e8133308760c00135612638565b6110da5760405162461bcd60e51b815260206004820152601a60248201527f6d67764f726465722f6d6f2f7472616e73666572496e4661696c00000000000060448201526064016106c5565b60005b6110ed6101208601356001613ee7565b81101561128e576101408501351580159061110c57508461014001355a105b156111165761128e565b60008060007f00000000000000000000000000000000000000000000000000000000000000006001600160a01b031663fbffe5fd87878b608001358c60c001358d60600160208101906111699190613eca565b611174576001611177565b60005b6040517fffffffff0000000000000000000000000000000000000000000000000000000060e088901b1681526001600160a01b039586166004820152949093166024850152604484019190915260648301521515608482015260a4016060604051808303816000875af11580156111f2573d6000803e3d6000fd5b505050506040513d601f19601f820116820180604052508101906112169190613eff565b925092509250828760000181815161122e9190613ee7565b905250602087018051839190611245908390613ee7565b90525060408701805182919061125c908390613ee7565b9052508215801561126b575080155b156112785750505061128e565b505050808061128690613e33565b9150506110dd565b50600061129d83838787612827565b90506112af6060860160408701613eca565b15806112b85750805b806112d057506112d061012086016101008701613eca565b61131c5760405162461bcd60e51b815260206004820152601960248201527f6d67764f726465722f6d6f2f6e6f5061727469616c46696c6c0000000000000060448201526064016106c5565b83511561137e5761133283338660000151612956565b61137e5760405162461bcd60e51b815260206004820152601b60248201527f6d67764f726465722f6d6f2f7472616e736665724f75744661696c000000000060448201526064016106c5565b61139061012086016101008701613eca565b801561139a575080155b156116b4576113f7828486600001518860a001356113b89190613e1c565b60208801516113cb9060e08b0135613e1c565b7fae7e31c3220e851db9f204a28b279dfe52b973600b0a456991089c220ae72224546000803334612468565b6060850181905261140d90339084908690612a7a565b3361141e60408701602088016139eb565b6001600160a01b031661143460208801886139eb565b6001600160a01b03167fab3ed3392e9579b676d21e1dda5b7d68388430686d83b9fe1bd66032e1e030ad61146e60808a0160608b01613eca565b88516020808b01516040808d01516060808f0151835197151588529487019590955285820192909252928401526080830152519081900360a00190a46060840151611642576114c36060860160408701613eca565b156115105760405162461bcd60e51b815260206004820152601960248201527f6d67764f726465722f6d6f2f6e6f5061727469616c46696c6c0000000000000060448201526064016106c5565b61152e823386602001518860c001356115299190613e1c565b612956565b61157a5760405162461bcd60e51b815260206004820152601a60248201527f6d67764f726465722f6d6f2f7472616e73666572496e4661696c00000000000060448201526064016106c5565b600084604001513461158c9190613ee7565b111561163a57604084015160009033906115a69034613ee7565b604051600081818185875af1925050503d80600081146115e2576040519150601f19603f3d011682016040523d82523d6000602084013e6115e7565b606091505b50509050806116385760405162461bcd60e51b815260206004820152601f60248201527f6d67764f726465722f6d6f2f726566756e6450726f766973696f6e4661696c0060448201526064016106c5565b505b505050919050565b611660823386602001518860c0013561165b9190613e1c565b61226e565b6101608501351561163a5761167a61016086013543613ee7565b6001600160a01b03808416600090815260036020908152604080832093881683529281528282206060890151835290522055505050919050565b6116cd823386602001518860c001356115299190613e1c565b6117195760405162461bcd60e51b815260206004820152601a60248201527f6d67764f726465722f6d6f2f7472616e73666572496e4661696c00000000000060448201526064016106c5565b600084604001513461172b9190613ee7565b11156117d957604084015160009033906117459034613ee7565b604051600081818185875af1925050503d8060008114611781576040519150601f19603f3d011682016040523d82523d6000602084013e611786565b606091505b50509050806117d75760405162461bcd60e51b815260206004820152601660248201527f6d67764f726465722f6d6f2f726566756e644661696c0000000000000000000060448201526064016106c5565b505b336117ea60408701602088016139eb565b6001600160a01b031661180060208801886139eb565b6001600160a01b03167fab3ed3392e9579b676d21e1dda5b7d68388430686d83b9fe1bd66032e1e030ad61183a60808a0160608b01613eca565b88516020808b01516040808d0151815195151586529285019390935283830152606083015260006080830152519081900360a00190a4505050919050565b60008061188d8a8a8a8a8a8a8a8a3334612aff565b915091506000821181906118b45760405162461bcd60e51b81526004016106c59190613f59565b5050505050505050505050565b60007f00000000000000000000000000000000000000000000000000000000000000006001600160a01b03811615806119025750336001600160a01b038216145b61194e5760405162461bcd60e51b815260206004820152601860248201527f416363657373436f6e74726f6c6c65642f496e76616c6964000000000000000060448201526064016106c5565b61195783612d79565b6119a35760405162461bcd60e51b815260206004820152601660248201527f6d67764f666665722f61626f72742f72656e656765640000000000000000000060448201526064016106c5565b60006119b38460a0013585612dfe565b1115611a015760405162461bcd60e51b815260206004820152601860248201527f6d67764f666665722f61626f72742f7075744661696c6564000000000000000060448201526064016106c5565b6000611a11846080013585612e41565b1115611a5f5760405162461bcd60e51b815260206004820152601860248201527f6d67764f666665722f61626f72742f6765744661696c6564000000000000000060448201526064016106c5565b50919050565b7f7d382ebca3e46505071795e192d28166a3d4bd0685585591bc6c5b8df6769fd2546001600160a01b03163314611ade5760405162461bcd60e51b815260206004820152601860248201527f416363657373436f6e74726f6c6c65642f496e76616c6964000000000000000060448201526064016106c5565b7f7d382ebca3e46505071795e192d28166a3d4bd0685585591bc6c5b8df6769fd280547fffffffffffffffffffffffff0000000000000000000000000000000000000000166001600160a01b0392909216919091179055565b6000611b468585858533612ee8565b95945050505050565b7f7d382ebca3e46505071795e192d28166a3d4bd0685585591bc6c5b8df6769fd2546001600160a01b0316331480611baf5750336001600160a01b037f000000000000000000000000000000000000000000000000000000000000000016145b611bfb5760405162461bcd60e51b815260206004820152601860248201527f416363657373436f6e74726f6c6c65642f496e76616c6964000000000000000060448201526064016106c5565b6040517f095ea7b30000000000000000000000000000000000000000000000000000000081526001600160a01b037f0000000000000000000000000000000000000000000000000000000000000000811660048301526024820183905283169063095ea7b3906044016020604051808303816000875af1158015611c83573d6000803e3d6000fd5b505050506040513d601f19601f82011682018060405250810190611ca79190613db7565b611cf35760405162461bcd60e51b815260206004820152601560248201527f6d67764f666665722f617070726f76652f4661696c000000000000000000000060448201526064016106c5565b5050565b60608167ffffffffffffffff811115611d1257611d12613e6c565b604051908082528060200260200182016040528015611d3b578160200160208202803683370190505b50905060005b82811015611da857611d6c8686868685818110611d6057611d60613e9b565b90506020020135611dfc565b828281518110611d7e57611d7e613e9b565b6001600160a01b039092166020928302919091019091015280611da081613e33565b915050611d41565b50949350505050565b6000808215611de3576000611dc7888886611dfc565b6001600160a01b03166000908152600160205260409020549150505b611df1818888888888613037565b979650505050505050565b6001600160a01b03808416600090815260208181526040808320868516845282528083208584529091529020541680611e775760405162461bcd60e51b815260206004820152601560248201527f6d756c7469557365722f756e6b6f776e4f66666572000000000000000000000060448201526064016106c5565b9392505050565b33301415611ece5760405162461bcd60e51b815260206004820152601260248201527f4d75746c692f6e6f5265656e7472616e6379000000000000000000000000000060448201526064016106c5565b611ed833346132a4565b565b7f7d382ebca3e46505071795e192d28166a3d4bd0685585591bc6c5b8df6769fd290565b7fae7e31c3220e851db9f204a28b279dfe52b973600b0a456991089c220ae7222490565b80611f2c57505050565b6001600160a01b03808416600090815260026020908152604080832093861683529290522054811115611fa15760405162461bcd60e51b815260206004820152601d60248201527f4d756c74692f6465626974546f6b656e2f696e73756666696369656e7400000060448201526064016106c5565b6001600160a01b03808416600090815260026020908152604080832093861683529290529081208054839290611fd8908490613e1c565b92505081905550826001600160a01b0316826001600160a01b03167f7a97b405ee1bd89550b225932dbdd0431e30426b7c8f02f05b3cb0e1bdfb84768360405161202491815260200190565b60405180910390a3505050565b6001600160a01b0382166000908152600160205260409020548111156120995760405162461bcd60e51b815260206004820152601d60248201527f4d756c74692f64656269744f6e4d67762f696e73756666696369656e7400000060448201526064016106c5565b6001600160a01b038216600090815260016020526040812080548392906120c1908490613e1c565b90915550506040518181526001600160a01b038316907fd50b865b3d9d927f026d3b8404e07f25d6beb1d111deab51bdc846bf8d0a860b906020015b60405180910390a25050565b6040517f2e1a7d4d000000000000000000000000000000000000000000000000000000008152600481018290526000907f00000000000000000000000000000000000000000000000000000000000000006001600160a01b031690632e1a7d4d906024016020604051808303816000875af115801561218c573d6000803e3d6000fd5b505050506040513d601f19601f820116820180604052508101906121b09190613db7565b6121fc5760405162461bcd60e51b815260206004820152601e60248201527f6d67764f666665722f77697468647261772f7472616e736665724661696c000060448201526064016106c5565b6001600160a01b0383163014612265576040516001600160a01b038416908390600081818185875af1925050503d8060008114612255576040519150601f19603f3d011682016040523d82523d6000602084013e61225a565b606091505b5050809150506106e5565b50600192915050565b6001600160a01b038084166000908152600260209081526040808320938616835292905290812080548392906122a5908490613ee7565b92505081905550826001600160a01b0316826001600160a01b03167fb2b1ec266d1bab793ae1d020eedf03e575cc390e5fb9e370cb099fdf2f61534d8360405161202491815260200190565b60006122fc82613322565b1561230957506001919050565b600061233561231b60208501856139eb565b61232b60408601602087016139eb565b8560400135611dfc565b905061234183826134cc565b61234e5750600092915050565b6001600160a01b038116600090815260016020526040902054612372908290612031565b6001600160a01b038116600090815260016020526040902054612396908290612109565b61226557604083018035906123ae90602086016139eb565b6001600160a01b03166123c460208601866139eb565b6001600160a01b03167fd2c3f090769d843e1fc2e6ce65d60572e28f9163a5cfccbd6c1725c6a9263f2f60405161241e907f6d67764f726465722f706f7374686f6f6b2f7472616e73666572576569000000815260200190565b60405180910390a450600092915050565b60008061245c61244260208601866139eb565b61245260408701602088016139eb565b8660400135611dfc565b905061066f84826134cc565b6040517f70a0823100000000000000000000000000000000000000000000000000000000815230600482015260009081906001600160a01b037f000000000000000000000000000000000000000000000000000000000000000016906370a0823190602401602060405180830381865afa1580156124ea573d6000803e3d6000fd5b505050506040513d601f19601f8201168201806040525081019061250e9190613dd4565b905062ffffff871115612540577fae7e31c3220e851db9f204a28b279dfe52b973600b0a456991089c220ae722245496505b6040517f49f6d2dc0000000000000000000000000000000000000000000000000000000081526001600160a01b038c811660048301528b81166024830152604482018b9052606482018a90526084820189905260a4820188905260c482018790527f000000000000000000000000000000000000000000000000000000000000000016906349f6d2dc90859060e40160206040518083038185885af11580156125ed573d6000803e3d6000fd5b50505050506040513d601f19601f820116820180604052508101906126129190613dd4565b91506126208b8b84876136ef565b61262a8482613784565b509998505050505050505050565b600061266b7f7d382ebca3e46505071795e192d28166a3d4bd0685585591bc6c5b8df6769fd2546001600160a01b031690565b6001600160a01b0316336001600160a01b031614806126b25750336001600160a01b037f000000000000000000000000000000000000000000000000000000000000000016145b6126fe5760405162461bcd60e51b815260206004820152601860248201527f416363657373436f6e74726f6c6c65642f496e76616c6964000000000000000060448201526064016106c5565b81158061271c5750826001600160a01b0316846001600160a01b0316145b156127295750600161066f565b604080516001600160a01b0386811660248301528581166044830152606480830186905283518084039091018152608490920183526020820180517bffffffffffffffffffffffffffffffffffffffffffffffffffffffff167f23b872dd0000000000000000000000000000000000000000000000000000000017905291516000928392908916916127bb9190613faa565b6000604051808303816000865af19150503d80600081146127f8576040519150601f19603f3d011682016040523d82523d6000602084013e6127fd565b606091505b5091509150818015611df1575080511580611df1575080806020019051810190611df19190613db7565b60006128396080840160608501613eca565b15612851578260c0013582602001511015905061066f565b6128616080840160608501613eca565b61066f576040517fcbf75c9a0000000000000000000000000000000000000000000000000000000081526001600160a01b03868116600483015285811660248301526000917f00000000000000000000000000000000000000000000000000000000000000009091169063cbf75c9a906044016040805180830381865afa1580156128f0573d6000803e3d6000fd5b505050506040513d601f19601f820116820180604052508101906129149190613fc6565b9150612710905061293161ffff60e884901c166080870135613fea565b61293b9190614027565b612949906080860135613e1c565b83511015915061066f9050565b600081158061296d57506001600160a01b03831630145b1561297a57506001611e77565b604080516001600160a01b038581166024830152604480830186905283518084039091018152606490920183526020820180517bffffffffffffffffffffffffffffffffffffffffffffffffffffffff167fa9059cbb000000000000000000000000000000000000000000000000000000001790529151600092839290881691612a049190613faa565b6000604051808303816000865af19150503d8060008114612a41576040519150601f19603f3d011682016040523d82523d6000602084013e612a46565b606091505b5091509150818015612a70575080511580612a70575080806020019051810190612a709190613db7565b9695505050505050565b6001600160a01b0383811660009081526004602090815260408083208685168452825280832093881683529281528282208280529052208054908290558015612af8576001600160a01b0380851660009081526004602090815260408083208785168452825280832093891683529281528282208583529052208190555b5050505050565b60006060612b0e8c8c87611dfc565b6001600160a01b0316846001600160a01b031614612b6e5760405162461bcd60e51b815260206004820152601e60248201527f4d756c74692f7570646174654f666665722f756e617574686f72697a6564000060448201526064016106c5565b6040517f70a082310000000000000000000000000000000000000000000000000000000081523060048201526000907f00000000000000000000000000000000000000000000000000000000000000006001600160a01b0316906370a0823190602401602060405180830381865afa158015612bee573d6000803e3d6000fd5b505050506040513d601f19601f82011682018060405250810190612c129190613dd4565b905062ffffff891115612c44577fae7e31c3220e851db9f204a28b279dfe52b973600b0a456991089c220ae722245498505b6040517f6a4f76910000000000000000000000000000000000000000000000000000000081526001600160a01b038e811660048301528d81166024830152604482018d9052606482018c9052608482018b905260a482018a905260c4820189905260e482018890527f00000000000000000000000000000000000000000000000000000000000000001690636a4f7691908690610104016000604051808303818588803b158015612cf457600080fd5b505af193505050508015612d06575060015b612d4b57612d12614062565b806308c379a01415612d3f5750612d276140f0565b80612d325750612d41565b600093509150612d6a9050565b505b3d6000803e3d6000fd5b612d558582613784565b50506040805160208101909152600081528491505b9a509a98505050505050505050565b600080600381612d8c60208601866139eb565b6001600160a01b03166001600160a01b031681526020019081526020016000206000846020016020810190612dc191906139eb565b6001600160a01b03168152602080820192909252604090810160009081208683013582529092529020549050801580611e77575043111592915050565b600080612e1161231b60208501856139eb565b9050612e2d612e2660408501602086016139eb565b8286612956565b612e37578361066f565b5060009392505050565b600080612e5461231b60208501856139eb565b90506000600281612e6860208701876139eb565b6001600160a01b0390811682526020808301939093526040918201600090812091861681529252902054905084811015612ec657612eb3612eac60208601866139eb565b8383611f22565b612ebd8186613e1c565b925050506106e5565b612edd612ed660208601866139eb565b8387611f22565b6000925050506106e5565b6001600160a01b03858116600090815260208181526040808320888516845282528083208784529091528120549091838116911614612f695760405162461bcd60e51b815260206004820152601f60248201527f4d756c74692f726574726163744f666665722f756e617574686f72697a65640060448201526064016106c5565b6040517fad97db1b0000000000000000000000000000000000000000000000000000000081526001600160a01b03878116600483015286811660248301526044820186905284151560648301527f0000000000000000000000000000000000000000000000000000000000000000169063ad97db1b906084016020604051808303816000875af1158015613001573d6000803e3d6000fd5b505050506040513d601f19601f820116820180604052508101906130259190613dd4565b90508015611b4657611b468282613865565b6040517fcbf75c9a0000000000000000000000000000000000000000000000000000000081526001600160a01b0386811660048301528581166024830152600091829182917f00000000000000000000000000000000000000000000000000000000000000009091169063cbf75c9a906044016040805180830381865afa1580156130c6573d6000803e3d6000fd5b505050506040513d601f19601f820116820180604052508101906130ea9190613fc6565b6040517f5722647b0000000000000000000000000000000000000000000000000000000081526001600160a01b038b811660048301528a81166024830152604482018890529294509092506000917f00000000000000000000000000000000000000000000000000000000000000001690635722647b90606401602060405180830381865afa158015613181573d6000803e3d6000fd5b505050506040513d601f19601f820116820180604052508101906131a59190613dd4565b9050600086604085901c61ffff1611156131c8575061ffff604084901c166131cb565b50855b62ffffff8811156131fb577fae7e31c3220e851db9f204a28b279dfe52b973600b0a456991089c220ae722245497505b60008161321162ffffff606087901c168b613ee7565b61321b9190613fea565b61322990633b9aca00613fea565b9050600061ffff602085901c1661325062ffffff603087901c811690604888901c16613ee7565b61325a9190613fea565b61326890633b9aca00613fea565b905060006132768e83613ee7565b90508281101561328f5761328a8184613e1c565b613292565b60005b9e9d5050505050505050505050505050565b7f00000000000000000000000000000000000000000000000000000000000000006001600160a01b031663b60d4288826040518263ffffffff1660e01b81526004016000604051808303818588803b1580156132ff57600080fd5b505af1158015613313573d6000803e3d6000fd5b5050505050611cf38282613865565b60008061332e836138cd565b9050600061333b846138f2565b90508161334c575060019392505050565b6001600160a01b037f000000000000000000000000000000000000000000000000000000000000000016636a4f769161338860208701876139eb565b61339860408801602089016139eb565b848660c08a013560481c62ffffff1660c08b013560201c61ffff1660608c013560c01c63ffffffff16604080517fffffffff0000000000000000000000000000000000000000000000000000000060e08b901b1681526001600160a01b03988916600482015297909616602488015260448701949094526064860192909252608485015260a484015260c483015287013560e482015261010401600060405180830381600087803b15801561344c57600080fd5b505af192505050801561345d575060015b6134c2576134b761347160208601866139eb565b61348160408701602088016139eb565b604087013560016134b261349860208b018b6139eb565b6134a860408c0160208d016139eb565b8b60400135611dfc565b612ee8565b506000949350505050565b5060019392505050565b6000806002816134df60208701876139eb565b6001600160a01b039081168252602080830193909352604091820160009081209187168152908352205491506135229061351b908601866139eb565b8483612956565b6135bc576040840180359061353a90602087016139eb565b6001600160a01b031661355060208701876139eb565b6001600160a01b03167fd2c3f090769d843e1fc2e6ce65d60572e28f9163a5cfccbd6c1725c6a9263f2f6040516135aa907f6d67764f726465722f72656465656d416c6c2f7472616e736665724f75740000815260200190565b60405180910390a460009150506106e5565b6135d36135cc60208601866139eb565b8483611f22565b60006002816135e860408801602089016139eb565b6001600160a01b03908116825260208083019390935260409182016000908120918816815290835281902054925061362f916136289188019088016139eb565b8583612956565b6136ca576040850180359061364790602088016139eb565b6001600160a01b031661365d60208801886139eb565b6001600160a01b03167fd2c3f090769d843e1fc2e6ce65d60572e28f9163a5cfccbd6c1725c6a9263f2f6040516136b7907f6d67764f726465722f72656465656d416c6c2f7472616e73666572496e000000815260200190565b60405180910390a46000925050506106e5565b6136e46136dd60408701602088016139eb565b8583611f22565b506001949350505050565b6001600160a01b0384811660008181526020818152604080832088861680855290835281842088855283529281902080547fffffffffffffffffffffffff00000000000000000000000000000000000000001695871695861790555193845285939192917fabf04a4ce23225c02bd147297da7ffc10e7d29102d8678f1a63fdd2cfd71ff07910160405180910390a450505050565b6040517f70a082310000000000000000000000000000000000000000000000000000000081523060048201526000907f00000000000000000000000000000000000000000000000000000000000000006001600160a01b0316906370a0823190602401602060405180830381865afa158015613804573d6000803e3d6000fd5b505050506040513d601f19601f820116820180604052508101906138289190613dd4565b90508181141561383757505050565b8181111561385257610f858361384d8484613e1c565b613865565b610f85836138608385613e1c565b612031565b6001600160a01b0382166000908152600160205260408120805483929061388d908490613ee7565b90915550506040518181526001600160a01b038316907f2022607feefe24f258126b277628af517f5512dd9499fb3520eeff54cad13703906020016120fd565b600060808201356bffffffffffffffffffffffff6060840135165b6106e59190613e1c565b600060a0820135606080840135901c6bffffffffffffffffffffffff166138e8565b6001600160a01b038116811461392957600080fd5b50565b60008060006060848603121561394157600080fd5b833561394c81613914565b9250602084013561395c81613914565b929592945050506040919091013590565b6000806040838503121561398057600080fd5b823561398b81613914565b946020939093013593505050565b600080604083850312156139ac57600080fd5b82356139b781613914565b915060208301356139c781613914565b809150509250929050565b6000602082840312156139e457600080fd5b5035919050565b6000602082840312156139fd57600080fd5b8135611e7781613914565b600080600060608486031215613a1d57600080fd5b8335613a2881613914565b92506020840135613a3881613914565b91506040840135613a4881613914565b809150509250925092565b600081518084526020808501945080840160005b83811015613a8357815187529582019590820190600101613a67565b509495945050505050565b604081526000613aa16040830185613a53565b8281036020840152611b468185613a53565b60006101208284031215611a5f57600080fd5b600080828403610160811215613adb57600080fd5b613ae58585613ab3565b925060407ffffffffffffffffffffffffffffffffffffffffffffffffffffffffffffffee082011215613b1757600080fd5b50610120830190509250929050565b600080600080600080600060e0888a031215613b4157600080fd5b8735613b4c81613914565b96506020880135613b5c81613914565b96999698505050506040850135946060810135946080820135945060a0820135935060c0909101359150565b60006101808284031215611a5f57600080fd5b600080600080600080600080610100898b031215613bb857600080fd5b8835613bc381613914565b97506020890135613bd381613914565b979a9799505050506040860135956060810135956080820135955060a0820135945060c0820135935060e0909101359150565b60006101208284031215613c1957600080fd5b6106e28383613ab3565b801515811461392957600080fd5b60008060008060808587031215613c4757600080fd5b8435613c5281613914565b93506020850135613c6281613914565b9250604085013591506060850135613c7981613c23565b939692955090935050565b60008060008060608587031215613c9a57600080fd5b8435613ca581613914565b93506020850135613cb581613914565b9250604085013567ffffffffffffffff80821115613cd257600080fd5b818701915087601f830112613ce657600080fd5b813581811115613cf557600080fd5b8860208260051b8501011115613d0a57600080fd5b95989497505060200194505050565b6020808252825182820181905260009190848201906040850190845b81811015613d5a5783516001600160a01b031683529284019291840191600101613d35565b50909695505050505050565b600080600080600060a08688031215613d7e57600080fd5b8535613d8981613914565b94506020860135613d9981613914565b94979496505050506040830135926060810135926080909101359150565b600060208284031215613dc957600080fd5b8151611e7781613c23565b600060208284031215613de657600080fd5b5051919050565b7f4e487b7100000000000000000000000000000000000000000000000000000000600052601160045260246000fd5b600082821015613e2e57613e2e613ded565b500390565b60007fffffffffffffffffffffffffffffffffffffffffffffffffffffffffffffffff821415613e6557613e65613ded565b5060010190565b7f4e487b7100000000000000000000000000000000000000000000000000000000600052604160045260246000fd5b7f4e487b7100000000000000000000000000000000000000000000000000000000600052603260045260246000fd5b600060208284031215613edc57600080fd5b8135611e7781613c23565b60008219821115613efa57613efa613ded565b500190565b600080600060608486031215613f1457600080fd5b8351925060208401519150604084015190509250925092565b60005b83811015613f48578181015183820152602001613f30565b83811115610f055750506000910152565b6020815260008251806020840152613f78816040850160208701613f2d565b601f017fffffffffffffffffffffffffffffffffffffffffffffffffffffffffffffffe0169190910160400192915050565b60008251613fbc818460208701613f2d565b9190910192915050565b60008060408385031215613fd957600080fd5b505080516020909101519092909150565b6000817fffffffffffffffffffffffffffffffffffffffffffffffffffffffffffffffff048311821515161561402257614022613ded565b500290565b60008261405d577f4e487b7100000000000000000000000000000000000000000000000000000000600052601260045260246000fd5b500490565b600060033d111561407b5760046000803e5060005160e01c5b90565b7fffffffffffffffffffffffffffffffffffffffffffffffffffffffffffffffe0601f830116810181811067ffffffffffffffff821117156140e9577f4e487b7100000000000000000000000000000000000000000000000000000000600052604160045260246000fd5b6040525050565b600060443d10156140fe5790565b6040517ffffffffffffffffffffffffffffffffffffffffffffffffffffffffffffffffc803d016004833e81513d67ffffffffffffffff816024840111818411171561414c57505050505090565b82850191508151818111156141645750505050505090565b843d870101602082850101111561417e5750505050505090565b61418d6020828601018761407e565b50909594505050505056fea26469706673582212205e17206ee923950570316b1804e8635975ca2e76298be60b697cfff9f43bea8464736f6c634300080a0033",
  "linkReferences": {},
  "deployedLinkReferences": {}
}