{
  "_format": "hh-sol-artifact-1",
  "contractName": "MangroveOrderEnriched",
  "sourceName": "contracts/Strategies/OrderLogics/MangroveOrderEnriched.sol",
  "abi": [
    {
      "inputs": [
        {
          "internalType": "contract IMangrove",
          "name": "_MGV",
          "type": "address"
        },
        {
          "internalType": "address",
          "name": "admin",
          "type": "address"
        }
      ],
      "stateMutability": "nonpayable",
      "type": "constructor"
    },
    {
      "anonymous": false,
      "inputs": [
        {
          "indexed": true,
          "internalType": "address",
          "name": "user",
          "type": "address"
        },
        {
          "indexed": false,
          "internalType": "uint256",
          "name": "amount",
          "type": "uint256"
        }
      ],
      "name": "CreditMgvUser",
      "type": "event"
    },
    {
      "anonymous": false,
      "inputs": [
        {
          "indexed": true,
          "internalType": "address",
          "name": "user",
          "type": "address"
        },
        {
          "indexed": true,
          "internalType": "contract IEIP20",
          "name": "token",
          "type": "address"
        },
        {
          "indexed": false,
          "internalType": "uint256",
          "name": "amount",
          "type": "uint256"
        }
      ],
      "name": "CreditUserTokenBalance",
      "type": "event"
    },
    {
      "anonymous": false,
      "inputs": [
        {
          "indexed": true,
          "internalType": "address",
          "name": "user",
          "type": "address"
        },
        {
          "indexed": false,
          "internalType": "uint256",
          "name": "amount",
          "type": "uint256"
        }
      ],
      "name": "DebitMgvUser",
      "type": "event"
    },
    {
      "anonymous": false,
      "inputs": [
        {
          "indexed": true,
          "internalType": "address",
          "name": "user",
          "type": "address"
        },
        {
          "indexed": true,
          "internalType": "contract IEIP20",
          "name": "token",
          "type": "address"
        },
        {
          "indexed": false,
          "internalType": "uint256",
          "name": "amount",
          "type": "uint256"
        }
      ],
      "name": "DebitUserTokenBalance",
      "type": "event"
    },
    {
      "anonymous": false,
      "inputs": [
        {
          "indexed": true,
          "internalType": "contract IEIP20",
          "name": "outbound_tkn",
          "type": "address"
        },
        {
          "indexed": true,
          "internalType": "contract IEIP20",
          "name": "inbound_tkn",
          "type": "address"
        },
        {
          "indexed": true,
          "internalType": "uint256",
          "name": "offerId",
          "type": "uint256"
        },
        {
          "indexed": false,
          "internalType": "bytes32",
          "name": "reason",
          "type": "bytes32"
        }
      ],
      "name": "LogIncident",
      "type": "event"
    },
    {
      "anonymous": false,
      "inputs": [
        {
          "indexed": true,
          "internalType": "contract IEIP20",
          "name": "outbound_tkn",
          "type": "address"
        },
        {
          "indexed": true,
          "internalType": "contract IEIP20",
          "name": "inbound_tkn",
          "type": "address"
        },
        {
          "indexed": true,
          "internalType": "uint256",
          "name": "offerId",
          "type": "uint256"
        },
        {
          "indexed": false,
          "internalType": "address",
          "name": "owner",
          "type": "address"
        }
      ],
      "name": "NewOwnedOffer",
      "type": "event"
    },
    {
      "anonymous": false,
      "inputs": [
        {
          "indexed": true,
          "internalType": "contract IEIP20",
          "name": "base",
          "type": "address"
        },
        {
          "indexed": true,
          "internalType": "contract IEIP20",
          "name": "quote",
          "type": "address"
        },
        {
          "indexed": true,
          "internalType": "address",
          "name": "taker",
          "type": "address"
        },
        {
          "indexed": false,
          "internalType": "bool",
          "name": "selling",
          "type": "bool"
        },
        {
          "indexed": false,
          "internalType": "uint256",
          "name": "takerGot",
          "type": "uint256"
        },
        {
          "indexed": false,
          "internalType": "uint256",
          "name": "takerGave",
          "type": "uint256"
        },
        {
          "indexed": false,
          "internalType": "uint256",
          "name": "penalty",
          "type": "uint256"
        },
        {
          "indexed": false,
          "internalType": "uint256",
          "name": "restingOrderId",
          "type": "uint256"
        }
      ],
      "name": "OrderSummary",
      "type": "event"
    },
    {
      "inputs": [],
      "name": "MGV",
      "outputs": [
        {
          "internalType": "contract IMangrove",
          "name": "",
          "type": "address"
        }
      ],
      "stateMutability": "view",
      "type": "function"
    },
    {
      "inputs": [],
      "name": "OFR_GASREQ",
      "outputs": [
        {
          "internalType": "uint256",
          "name": "",
          "type": "uint256"
        }
      ],
      "stateMutability": "view",
      "type": "function"
    },
    {
      "inputs": [],
      "name": "admin",
      "outputs": [
        {
          "internalType": "address",
          "name": "",
          "type": "address"
        }
      ],
      "stateMutability": "view",
      "type": "function"
    },
    {
      "inputs": [
        {
          "internalType": "contract IEIP20",
          "name": "outbound_tkn",
          "type": "address"
        },
        {
          "internalType": "uint256",
          "name": "amount",
          "type": "uint256"
        }
      ],
      "name": "approveMangrove",
      "outputs": [],
      "stateMutability": "nonpayable",
      "type": "function"
    },
    {
      "inputs": [
        {
          "internalType": "address",
          "name": "owner",
          "type": "address"
        }
      ],
      "name": "balanceOnMangrove",
      "outputs": [
        {
          "internalType": "uint256",
          "name": "",
          "type": "uint256"
        }
      ],
      "stateMutability": "view",
      "type": "function"
    },
    {
      "inputs": [
        {
          "internalType": "contract IEIP20",
          "name": "token",
          "type": "address"
        },
        {
          "internalType": "uint256",
          "name": "amount",
          "type": "uint256"
        }
      ],
      "name": "depositToken",
      "outputs": [
        {
          "internalType": "bool",
          "name": "success",
          "type": "bool"
        }
      ],
      "stateMutability": "nonpayable",
      "type": "function"
    },
    {
      "inputs": [
        {
          "internalType": "contract IEIP20",
          "name": "",
          "type": "address"
        },
        {
          "internalType": "contract IEIP20",
          "name": "",
          "type": "address"
        },
        {
          "internalType": "uint256",
          "name": "",
          "type": "uint256"
        }
      ],
      "name": "expiring",
      "outputs": [
        {
          "internalType": "uint256",
          "name": "",
          "type": "uint256"
        }
      ],
      "stateMutability": "view",
      "type": "function"
    },
    {
      "inputs": [],
      "name": "fundMangrove",
      "outputs": [],
      "stateMutability": "payable",
      "type": "function"
    },
    {
      "inputs": [
        {
          "internalType": "contract IEIP20",
          "name": "outbound_tkn",
          "type": "address"
        },
        {
          "internalType": "contract IEIP20",
          "name": "inbound_tkn",
          "type": "address"
        },
        {
          "internalType": "uint256",
          "name": "gasreq",
          "type": "uint256"
        },
        {
          "internalType": "uint256",
          "name": "gasprice",
          "type": "uint256"
        },
        {
          "internalType": "uint256",
          "name": "offerId",
          "type": "uint256"
        }
      ],
      "name": "getMissingProvision",
      "outputs": [
        {
          "internalType": "uint256",
          "name": "",
          "type": "uint256"
        }
      ],
      "stateMutability": "view",
      "type": "function"
    },
    {
      "inputs": [
        {
          "components": [
            {
              "internalType": "address",
              "name": "outbound_tkn",
              "type": "address"
            },
            {
              "internalType": "address",
              "name": "inbound_tkn",
              "type": "address"
            },
            {
              "internalType": "uint256",
              "name": "offerId",
              "type": "uint256"
            },
            {
              "internalType": "Offer.t",
              "name": "offer",
              "type": "uint256"
            },
            {
              "internalType": "uint256",
              "name": "wants",
              "type": "uint256"
            },
            {
              "internalType": "uint256",
              "name": "gives",
              "type": "uint256"
            },
            {
              "internalType": "OfferDetail.t",
              "name": "offerDetail",
              "type": "uint256"
            },
            {
              "internalType": "Global.t",
              "name": "global",
              "type": "uint256"
            },
            {
              "internalType": "Local.t",
              "name": "local",
              "type": "uint256"
            }
          ],
          "internalType": "struct MgvLib.SingleOrder",
          "name": "order",
          "type": "tuple"
        }
      ],
      "name": "makerExecute",
      "outputs": [
        {
          "internalType": "bytes32",
          "name": "ret",
          "type": "bytes32"
        }
      ],
      "stateMutability": "nonpayable",
      "type": "function"
    },
    {
      "inputs": [
        {
          "components": [
            {
              "internalType": "address",
              "name": "outbound_tkn",
              "type": "address"
            },
            {
              "internalType": "address",
              "name": "inbound_tkn",
              "type": "address"
            },
            {
              "internalType": "uint256",
              "name": "offerId",
              "type": "uint256"
            },
            {
              "internalType": "Offer.t",
              "name": "offer",
              "type": "uint256"
            },
            {
              "internalType": "uint256",
              "name": "wants",
              "type": "uint256"
            },
            {
              "internalType": "uint256",
              "name": "gives",
              "type": "uint256"
            },
            {
              "internalType": "OfferDetail.t",
              "name": "offerDetail",
              "type": "uint256"
            },
            {
              "internalType": "Global.t",
              "name": "global",
              "type": "uint256"
            },
            {
              "internalType": "Local.t",
              "name": "local",
              "type": "uint256"
            }
          ],
          "internalType": "struct MgvLib.SingleOrder",
          "name": "order",
          "type": "tuple"
        },
        {
          "components": [
            {
              "internalType": "bytes32",
              "name": "makerData",
              "type": "bytes32"
            },
            {
              "internalType": "bytes32",
              "name": "mgvData",
              "type": "bytes32"
            }
          ],
          "internalType": "struct MgvLib.OrderResult",
          "name": "result",
          "type": "tuple"
        }
      ],
      "name": "makerPosthook",
      "outputs": [],
      "stateMutability": "nonpayable",
      "type": "function"
    },
    {
      "inputs": [
        {
          "internalType": "address",
          "name": "",
          "type": "address"
        }
      ],
      "name": "mgvBalance",
      "outputs": [
        {
          "internalType": "uint256",
          "name": "",
          "type": "uint256"
        }
      ],
      "stateMutability": "view",
      "type": "function"
    },
    {
      "inputs": [
        {
          "components": [
            {
              "internalType": "contract IEIP20",
              "name": "outbound_tkn",
              "type": "address"
            },
            {
              "internalType": "contract IEIP20",
              "name": "inbound_tkn",
              "type": "address"
            },
            {
              "internalType": "uint256",
              "name": "wants",
              "type": "uint256"
            },
            {
              "internalType": "uint256",
              "name": "gives",
              "type": "uint256"
            },
            {
              "internalType": "uint256",
              "name": "gasreq",
              "type": "uint256"
            },
            {
              "internalType": "uint256",
              "name": "gasprice",
              "type": "uint256"
            },
            {
              "internalType": "uint256",
              "name": "pivotId",
              "type": "uint256"
            }
          ],
          "internalType": "struct IOfferLogic.MakerOrder",
          "name": "mko",
          "type": "tuple"
        }
      ],
      "name": "newOffer",
      "outputs": [
        {
          "internalType": "uint256",
          "name": "offerId",
          "type": "uint256"
        }
      ],
      "stateMutability": "payable",
      "type": "function"
    },
    {
      "inputs": [
        {
          "internalType": "contract IEIP20",
          "name": "outbound_tkn",
          "type": "address"
        },
        {
          "internalType": "contract IEIP20",
          "name": "inbound_tkn",
          "type": "address"
        },
        {
          "internalType": "uint256[]",
          "name": "offerIds",
          "type": "uint256[]"
        }
      ],
      "name": "offerOwners",
      "outputs": [
        {
          "internalType": "address[]",
          "name": "__offerOwners",
          "type": "address[]"
        }
      ],
      "stateMutability": "view",
      "type": "function"
    },
    {
      "inputs": [
        {
          "internalType": "address",
          "name": "owner",
          "type": "address"
        },
        {
          "internalType": "contract IEIP20",
          "name": "outbound_tkn",
          "type": "address"
        },
        {
          "internalType": "contract IEIP20",
          "name": "inbound_tkn",
          "type": "address"
        }
      ],
      "name": "offersOfOwner",
      "outputs": [
        {
          "internalType": "uint256[]",
          "name": "live",
          "type": "uint256[]"
        },
        {
          "internalType": "uint256[]",
          "name": "dead",
          "type": "uint256[]"
        }
      ],
      "stateMutability": "view",
      "type": "function"
    },
    {
      "inputs": [
        {
          "internalType": "contract IEIP20",
          "name": "outbound_tkn",
          "type": "address"
        },
        {
          "internalType": "contract IEIP20",
          "name": "inbound_tkn",
          "type": "address"
        },
        {
          "internalType": "uint256",
          "name": "offerId",
          "type": "uint256"
        }
      ],
      "name": "ownerOf",
      "outputs": [
        {
          "internalType": "address",
          "name": "owner",
          "type": "address"
        }
      ],
      "stateMutability": "view",
      "type": "function"
    },
    {
      "inputs": [
        {
          "internalType": "contract IEIP20",
          "name": "outbound_tkn",
          "type": "address"
        },
        {
          "internalType": "contract IEIP20",
          "name": "inbound_tkn",
          "type": "address"
        },
        {
          "internalType": "uint256",
          "name": "offerId",
          "type": "uint256"
        },
        {
          "internalType": "bool",
          "name": "deprovision",
          "type": "bool"
        }
      ],
      "name": "retractOffer",
      "outputs": [
        {
          "internalType": "uint256",
          "name": "received",
          "type": "uint256"
        }
      ],
      "stateMutability": "nonpayable",
      "type": "function"
    },
    {
      "inputs": [
        {
          "internalType": "address",
          "name": "_admin",
          "type": "address"
        }
      ],
      "name": "setAdmin",
      "outputs": [],
      "stateMutability": "nonpayable",
      "type": "function"
    },
    {
      "inputs": [
        {
          "internalType": "uint256",
          "name": "gasreq",
          "type": "uint256"
        }
      ],
      "name": "setGasreq",
      "outputs": [],
      "stateMutability": "nonpayable",
      "type": "function"
    },
    {
      "inputs": [
        {
          "components": [
            {
              "internalType": "contract IEIP20",
              "name": "base",
              "type": "address"
            },
            {
              "internalType": "contract IEIP20",
              "name": "quote",
              "type": "address"
            },
            {
              "internalType": "bool",
              "name": "partialFillNotAllowed",
              "type": "bool"
            },
            {
              "internalType": "bool",
              "name": "selling",
              "type": "bool"
            },
            {
              "internalType": "uint256",
              "name": "wants",
              "type": "uint256"
            },
            {
              "internalType": "uint256",
              "name": "makerWants",
              "type": "uint256"
            },
            {
              "internalType": "uint256",
              "name": "gives",
              "type": "uint256"
            },
            {
              "internalType": "uint256",
              "name": "makerGives",
              "type": "uint256"
            },
            {
              "internalType": "bool",
              "name": "restingOrder",
              "type": "bool"
            },
            {
              "internalType": "uint256",
              "name": "retryNumber",
              "type": "uint256"
            },
            {
              "internalType": "uint256",
              "name": "gasForMarketOrder",
              "type": "uint256"
            },
            {
              "internalType": "uint256",
              "name": "blocksToLiveForRestingOrder",
              "type": "uint256"
            }
          ],
          "internalType": "struct IOrderLogic.TakerOrder",
          "name": "tko",
          "type": "tuple"
        }
      ],
      "name": "take",
      "outputs": [
        {
          "components": [
            {
              "internalType": "uint256",
              "name": "takerGot",
              "type": "uint256"
            },
            {
              "internalType": "uint256",
              "name": "takerGave",
              "type": "uint256"
            },
            {
              "internalType": "uint256",
              "name": "bounty",
              "type": "uint256"
            },
            {
              "internalType": "uint256",
              "name": "offerId",
              "type": "uint256"
            }
          ],
          "internalType": "struct IOrderLogic.TakerOrderResult",
          "name": "res",
          "type": "tuple"
        }
      ],
      "stateMutability": "payable",
      "type": "function"
    },
    {
      "inputs": [
        {
          "internalType": "contract IEIP20",
          "name": "token",
          "type": "address"
        },
        {
          "internalType": "address",
          "name": "owner",
          "type": "address"
        }
      ],
      "name": "tokenBalance",
      "outputs": [
        {
          "internalType": "uint256",
          "name": "",
          "type": "uint256"
        }
      ],
      "stateMutability": "view",
      "type": "function"
    },
    {
      "inputs": [
        {
          "internalType": "contract IEIP20",
          "name": "",
          "type": "address"
        },
        {
          "internalType": "address",
          "name": "",
          "type": "address"
        }
      ],
      "name": "tokenBalanceOf",
      "outputs": [
        {
          "internalType": "uint256",
          "name": "",
          "type": "uint256"
        }
      ],
      "stateMutability": "view",
      "type": "function"
    },
    {
      "inputs": [
        {
          "components": [
            {
              "internalType": "contract IEIP20",
              "name": "outbound_tkn",
              "type": "address"
            },
            {
              "internalType": "contract IEIP20",
              "name": "inbound_tkn",
              "type": "address"
            },
            {
              "internalType": "uint256",
              "name": "wants",
              "type": "uint256"
            },
            {
              "internalType": "uint256",
              "name": "gives",
              "type": "uint256"
            },
            {
              "internalType": "uint256",
              "name": "gasreq",
              "type": "uint256"
            },
            {
              "internalType": "uint256",
              "name": "gasprice",
              "type": "uint256"
            },
            {
              "internalType": "uint256",
              "name": "pivotId",
              "type": "uint256"
            }
          ],
          "internalType": "struct IOfferLogic.MakerOrder",
          "name": "mko",
          "type": "tuple"
        },
        {
          "internalType": "uint256",
          "name": "offerId",
          "type": "uint256"
        }
      ],
      "name": "updateOffer",
      "outputs": [],
      "stateMutability": "payable",
      "type": "function"
    },
    {
      "inputs": [
        {
          "internalType": "address payable",
          "name": "receiver",
          "type": "address"
        },
        {
          "internalType": "uint256",
          "name": "amount",
          "type": "uint256"
        }
      ],
      "name": "withdrawFromMangrove",
      "outputs": [
        {
          "internalType": "bool",
          "name": "noRevert",
          "type": "bool"
        }
      ],
      "stateMutability": "nonpayable",
      "type": "function"
    },
    {
      "inputs": [
        {
          "internalType": "contract IEIP20",
          "name": "token",
          "type": "address"
        },
        {
          "internalType": "address",
          "name": "receiver",
          "type": "address"
        },
        {
          "internalType": "uint256",
          "name": "amount",
          "type": "uint256"
        }
      ],
      "name": "withdrawToken",
      "outputs": [
        {
          "internalType": "bool",
          "name": "success",
          "type": "bool"
        }
      ],
      "stateMutability": "nonpayable",
      "type": "function"
    },
    {
      "stateMutability": "payable",
      "type": "receive"
    }
  ],
  "bytecode": "0x60a06040523480156200001157600080fd5b506040516200447038038062004470833981016040819052620000349162000153565b81818181806001600160a01b038116620000945760405162461bcd60e51b815260206004820152601860248201527f616363657373436f6e74726f6c6c65642f307841646d696e0000000000000000604482015260640160405180910390fd5b80620000aa620000f260201b62001f281760201c565b80546001600160a01b0319166001600160a01b0392831617905583166080525062013880620000e462000116602090811b62001f4c17901c565b555062000192945050505050565b7f7d382ebca3e46505071795e192d28166a3d4bd0685585591bc6c5b8df6769fd290565b7fae7e31c3220e851db9f204a28b279dfe52b973600b0a456991089c220ae7222490565b6001600160a01b03811681146200015057600080fd5b50565b600080604083850312156200016757600080fd5b825162000174816200013a565b602084015190925062000187816200013a565b809150509250929050565b6080516142366200023a600039600081816104490152818161093301528181610a6501528181610c8c01528181610e5d015281816110cb0152818161185d01528181611bdb01528181611c79015281816121890152818161262b015281816128ca0152818161298201528181612d5401528181612dcb01528181612fde015281816130bd0152818161317201528181613336015281816133e601526137d301526142366000f3fe60806040526004361061019a5760003560e01c8063704b6c02116100e1578063dec8c86b1161008a578063e4c34f8411610064578063e4c34f8414610551578063f851a44014610571578063f92495e5146105ae578063faa030ec146105ce57600080fd5b8063dec8c86b146104c3578063df242667146104f0578063e428204d1461051d57600080fd5b806399fa5e2d116100bb57806399fa5e2d14610437578063ad97db1b14610483578063aefe8403146104a357600080fd5b8063704b6c02146103f15780637ea1a48c146104115780637f84e4941461042457600080fd5b806335d61cb2116101435780634e7effa81161011d5780634e7effa81461034d5780636a1c7d051461038b5780636c49c32c146103d157600080fd5b806335d61cb2146102c957806337b966bf146102ff5780633d3d130d1461032d57600080fd5b80631bea8006116101745780631bea80061461024f578063338b5dea1461028757806334bd8931146102a757600080fd5b806301e33667146101a6578063063df2d2146101db5780631049334f146101fb57600080fd5b366101a157005b600080fd5b3480156101b257600080fd5b506101c66101c136600461394a565b6105d6565b60405190151581526020015b60405180910390f35b3480156101e757600080fd5b506101c66101f636600461398b565b610677565b34801561020757600080fd5b506102416102163660046139b7565b6001600160a01b03918216600090815260026020908152604080832093909416825291909152205490565b6040519081526020016101d2565b34801561025b57600080fd5b5061024161026a3660046139b7565b600260209081526000928352604080842090915290825290205481565b34801561029357600080fd5b506101c66102a236600461398b565b6106eb565b3480156102b357600080fd5b506102c76102c23660046139f0565b6108f5565b005b3480156102d557600080fd5b506102416102e4366004613a09565b6001600160a01b031660009081526001602052604090205490565b34801561030b57600080fd5b5061031f61031a366004613a26565b610a19565b6040516101d2929190613aac565b34801561033957600080fd5b506102c7610348366004613ae4565b610e5b565b34801561035957600080fd5b5061024161036836600461394a565b600360209081526000938452604080852082529284528284209052825290205481565b61039e610399366004613b44565b610fa0565b6040516101d291908151815260208083015190820152604080830151908201526060918201519181019190915260800190565b3480156103dd57600080fd5b506102416103ec366004613b57565b611859565b3480156103fd57600080fd5b506102c761040c366004613a09565b6119fd565b61024161041f366004613b86565b611acf565b6102c7610432366004613ba2565b611b3a565b34801561044357600080fd5b5061046b7f000000000000000000000000000000000000000000000000000000000000000081565b6040516001600160a01b0390911681526020016101d2565b34801561048f57600080fd5b5061024161049e366004613bdc565b611b85565b3480156104af57600080fd5b506102c76104be36600461398b565b611b9d565b3480156104cf57600080fd5b506104e36104de366004613c2f565b611d45565b6040516101d29190613cc4565b3480156104fc57600080fd5b5061024161050b366004613a09565b60016020526000908152604090205481565b34801561052957600080fd5b507fae7e31c3220e851db9f204a28b279dfe52b973600b0a456991089c220ae7222454610241565b34801561055d57600080fd5b5061024161056c366004613d11565b611dff565b34801561057d57600080fd5b507f7d382ebca3e46505071795e192d28166a3d4bd0685585591bc6c5b8df6769fd2546001600160a01b031661046b565b3480156105ba57600080fd5b5061046b6105c936600461394a565b611e4a565b6102c7611ecc565b60006105e3843384611f70565b6040517fa9059cbb0000000000000000000000000000000000000000000000000000000081526001600160a01b0384811660048301526024820184905285169063a9059cbb906044016020604051808303816000875af115801561064b573d6000803e3d6000fd5b505050506040513d601f19601f8201168201806040525081019061066f9190613d62565b949350505050565b6000333014156106ce5760405162461bcd60e51b815260206004820152601260248201527f4d75746c692f6e6f5265656e7472616e6379000000000000000000000000000060448201526064015b60405180910390fd5b6106d8338361207f565b6106e28383612157565b90505b92915050565b6040517f70a0823100000000000000000000000000000000000000000000000000000000815230600482015260009081906001600160a01b038516906370a0823190602401602060405180830381865afa15801561074d573d6000803e3d6000fd5b505050506040513d601f19601f820116820180604052508101906107719190613d7f565b6040517f23b872dd000000000000000000000000000000000000000000000000000000008152336004820152306024820152604481018590529091506001600160a01b038516906323b872dd906064016020604051808303816000875af11580156107e0573d6000803e3d6000fd5b505050506040513d601f19601f820116820180604052508101906108049190613d62565b6040517f70a08231000000000000000000000000000000000000000000000000000000008152306004820152909250839082906001600160a01b038716906370a0823190602401602060405180830381865afa158015610868573d6000803e3d6000fd5b505050506040513d601f19601f8201168201806040525081019061088c9190613d7f565b6108969190613dc7565b146108e35760405162461bcd60e51b815260206004820152601260248201527f4d756c74692f7472616e736665724661696c000000000000000000000000000060448201526064016106c5565b6108ee8433856122bc565b5092915050565b7f7d382ebca3e46505071795e192d28166a3d4bd0685585591bc6c5b8df6769fd2546001600160a01b03163314806109555750336001600160a01b037f000000000000000000000000000000000000000000000000000000000000000016145b6109a15760405162461bcd60e51b815260206004820152601860248201527f416363657373436f6e74726f6c6c65642f496e76616c6964000000000000000060448201526064016106c5565b808162ffffff16146109f55760405162461bcd60e51b815260206004820152601860248201527f6d67764f666665722f6761737265712f6f766572666c6f77000000000000000060448201526064016106c5565b7fae7e31c3220e851db9f204a28b279dfe52b973600b0a456991089c220ae7222455565b6001600160a01b0380831660009081526004602090815260408083208585168452825280832093871683529281528282208280529052908120546060918291908190805b8215610bee577f00000000000000000000000000000000000000000000000000000000000000006001600160a01b03166327507458816368c13d6b8b8b6040517fffffffff0000000000000000000000000000000000000000000000000000000060e085901b1681526001600160a01b0392831660048201529116602482015260448101889052606401602060405180830381865afa158015610b04573d6000803e3d6000fd5b505050506040513d601f19601f82011682018060405250810190610b289190613d7f565b6040518263ffffffff1660e01b8152600401610b4691815260200190565b602060405180830381865afa158015610b63573d6000803e3d6000fd5b505050506040513d601f19601f82011682018060405250810190610b879190613d62565b15610b9e5781610b9681613dde565b925050610bac565b80610ba881613dde565b9150505b6001600160a01b0380891660009081526004602090815260408083208b851684528252808320938d168352928152828220958252949094529092205491610a5d565b8167ffffffffffffffff811115610c0757610c07613e17565b604051908082528060200260200182016040528015610c30578160200160208202803683370190505b5095508067ffffffffffffffff811115610c4c57610c4c613e17565b604051908082528060200260200182016040528015610c75578160200160208202803683370190505b50945083925060009150600090505b8215610e4f577f00000000000000000000000000000000000000000000000000000000000000006001600160a01b03166327507458816368c13d6b8b8b6040517fffffffff0000000000000000000000000000000000000000000000000000000060e085901b1681526001600160a01b0392831660048201529116602482015260448101889052606401602060405180830381865afa158015610d2b573d6000803e3d6000fd5b505050506040513d601f19601f82011682018060405250810190610d4f9190613d7f565b6040518263ffffffff1660e01b8152600401610d6d91815260200190565b602060405180830381865afa158015610d8a573d6000803e3d6000fd5b505050506040513d601f19601f82011682018060405250810190610dae9190613d62565b15610de257828683610dbf81613dde565b945081518110610dd157610dd1613e46565b602002602001018181525050610e0d565b828582610dee81613dde565b935081518110610e0057610e00613e46565b6020026020010181815250505b6001600160a01b0380891660009081526004602090815260408083208b851684528252808320938d168352928152828220958252949094529092205491610c84565b50505050935093915050565b7f00000000000000000000000000000000000000000000000000000000000000006001600160a01b0381161580610e9a5750336001600160a01b038216145b610ee65760405162461bcd60e51b815260206004820152601860248201527f416363657373436f6e74726f6c6c65642f496e76616c6964000000000000000060448201526064016106c5565b81602001357f6d67762f747261646553756363657373000000000000000000000000000000001415610f2157610f1b8361233f565b50505050565b60408301803590610f359060208601613a09565b6001600160a01b0316610f4b6020860186613a09565b6001600160a01b03167fd2c3f090769d843e1fc2e6ce65d60572e28f9163a5cfccbd6c1725c6a9263f2f8560000135604051610f8991815260200190565b60405180910390a4610f1b838361247d565b505050565b610fcb6040518060800160405280600081526020016000815260200160008152602001600081525090565b600080610fde6080850160608601613e75565b61100457610fef6020850185613a09565b610fff6040860160208701613a09565b611021565b6110146040850160208601613a09565b6110216020860186613a09565b915091506110358133308760c001356124b6565b6110815760405162461bcd60e51b815260206004820152601a60248201527f6d67764f726465722f6d6f2f7472616e73666572496e4661696c00000000000060448201526064016106c5565b60005b6110946101208601356001613e92565b81101561123457610140850135158015906110b357508461014001355a105b156110bd57611234565b600080806001600160a01b037f00000000000000000000000000000000000000000000000000000000000000001663fbffe5fd87878b608001358c60c001358d606001602081019061110f9190613e75565b61111a57600161111d565b60005b6040517fffffffff0000000000000000000000000000000000000000000000000000000060e088901b1681526001600160a01b039586166004820152949093166024850152604484019190915260648301521515608482015260a4016060604051808303816000875af1158015611198573d6000803e3d6000fd5b505050506040513d601f19601f820116820180604052508101906111bc9190613eaa565b92509250925082876000018181516111d49190613e92565b9052506020870180518391906111eb908390613e92565b905250604087018051829190611202908390613e92565b90525082158015611211575080155b1561121e57505050611234565b505050808061122c90613dde565b915050611084565b506000611243838387876125e1565b90506112556060860160408701613e75565b158061125e5750805b80611276575061127661012086016101008701613e75565b6112c25760405162461bcd60e51b815260206004820152601960248201527f6d67764f726465722f6d6f2f6e6f5061727469616c46696c6c0000000000000060448201526064016106c5565b835115611324576112d88333866000015161271a565b6113245760405162461bcd60e51b815260206004820152601b60248201527f6d67764f726465722f6d6f2f7472616e736665724f75744661696c000000000060448201526064016106c5565b61133661012086016101008701613e75565b8015611340575080155b15611695576040805160e0810182526001600160a01b0380851682528516602082015285516113d89282019061137a9060a08a0135613dc7565b815260200186602001518860e001356113939190613dc7565b81526020016113c07fae7e31c3220e851db9f204a28b279dfe52b973600b0a456991089c220ae722245490565b8152602001600081526020016000815250333461283e565b606085018190526113ee90339084908690612aa9565b336113ff6040870160208801613a09565b6001600160a01b03166114156020880188613a09565b6001600160a01b03167fab3ed3392e9579b676d21e1dda5b7d68388430686d83b9fe1bd66032e1e030ad61144f60808a0160608b01613e75565b88516020808b01516040808d01516060808f0151835197151588529487019590955285820192909252928401526080830152519081900360a00190a46060840151611623576114a46060860160408701613e75565b156114f15760405162461bcd60e51b815260206004820152601960248201527f6d67764f726465722f6d6f2f6e6f5061727469616c46696c6c0000000000000060448201526064016106c5565b61150f823386602001518860c0013561150a9190613dc7565b61271a565b61155b5760405162461bcd60e51b815260206004820152601a60248201527f6d67764f726465722f6d6f2f7472616e73666572496e4661696c00000000000060448201526064016106c5565b600084604001513461156d9190613e92565b111561161b57604084015160009033906115879034613e92565b604051600081818185875af1925050503d80600081146115c3576040519150601f19603f3d011682016040523d82523d6000602084013e6115c8565b606091505b50509050806116195760405162461bcd60e51b815260206004820152601f60248201527f6d67764f726465722f6d6f2f726566756e6450726f766973696f6e4661696c0060448201526064016106c5565b505b505050919050565b611641823386602001518860c0013561163c9190613dc7565b6122bc565b6101608501351561161b5761165b61016086013543613e92565b6001600160a01b03808416600090815260036020908152604080832093881683529281528282206060890151835290522055505050919050565b6116ae823386602001518860c0013561150a9190613dc7565b6116fa5760405162461bcd60e51b815260206004820152601a60248201527f6d67764f726465722f6d6f2f7472616e73666572496e4661696c00000000000060448201526064016106c5565b600084604001513461170c9190613e92565b11156117ba57604084015160009033906117269034613e92565b604051600081818185875af1925050503d8060008114611762576040519150601f19603f3d011682016040523d82523d6000602084013e611767565b606091505b50509050806117b85760405162461bcd60e51b815260206004820152601660248201527f6d67764f726465722f6d6f2f726566756e644661696c0000000000000000000060448201526064016106c5565b505b336117cb6040870160208801613a09565b6001600160a01b03166117e16020880188613a09565b6001600160a01b03167fab3ed3392e9579b676d21e1dda5b7d68388430686d83b9fe1bd66032e1e030ad61181b60808a0160608b01613e75565b88516020808b01516040808d0151815195151586529285019390935283830152606083015260006080830152519081900360a00190a4505050919050565b60007f00000000000000000000000000000000000000000000000000000000000000006001600160a01b038116158061189a5750336001600160a01b038216145b6118e65760405162461bcd60e51b815260206004820152601860248201527f416363657373436f6e74726f6c6c65642f496e76616c6964000000000000000060448201526064016106c5565b6118ef83612b2a565b61193b5760405162461bcd60e51b815260206004820152601660248201527f6d67764f666665722f61626f72742f72656e656765640000000000000000000060448201526064016106c5565b600061194b8460a0013585612baf565b11156119995760405162461bcd60e51b815260206004820152601860248201527f6d67764f666665722f61626f72742f7075744661696c6564000000000000000060448201526064016106c5565b60006119a9846080013585612c0c565b11156119f75760405162461bcd60e51b815260206004820152601860248201527f6d67764f666665722f61626f72742f6765744661696c6564000000000000000060448201526064016106c5565b50919050565b7f7d382ebca3e46505071795e192d28166a3d4bd0685585591bc6c5b8df6769fd2546001600160a01b03163314611a765760405162461bcd60e51b815260206004820152601860248201527f416363657373436f6e74726f6c6c65642f496e76616c6964000000000000000060448201526064016106c5565b7f7d382ebca3e46505071795e192d28166a3d4bd0685585591bc6c5b8df6769fd280547fffffffffffffffffffffffff0000000000000000000000000000000000000000166001600160a01b0392909216919091179055565b600033301415611b215760405162461bcd60e51b815260206004820152601260248201527f4d75746c692f6e6f5265656e7472616e6379000000000000000000000000000060448201526064016106c5565b6106e5611b3336849003840184613f4a565b333461283e565b600080611b57611b4f36869003860186613f4a565b843334612cac565b91509150600082118190611b7e5760405162461bcd60e51b81526004016106c59190614033565b5050505050565b6000611b948585858533612f53565b95945050505050565b7f7d382ebca3e46505071795e192d28166a3d4bd0685585591bc6c5b8df6769fd2546001600160a01b0316331480611bfd5750336001600160a01b037f000000000000000000000000000000000000000000000000000000000000000016145b611c495760405162461bcd60e51b815260206004820152601860248201527f416363657373436f6e74726f6c6c65642f496e76616c6964000000000000000060448201526064016106c5565b6040517f095ea7b30000000000000000000000000000000000000000000000000000000081526001600160a01b037f0000000000000000000000000000000000000000000000000000000000000000811660048301526024820183905283169063095ea7b3906044016020604051808303816000875af1158015611cd1573d6000803e3d6000fd5b505050506040513d601f19601f82011682018060405250810190611cf59190613d62565b611d415760405162461bcd60e51b815260206004820152601560248201527f6d67764f666665722f617070726f76652f4661696c000000000000000000000060448201526064016106c5565b5050565b60608167ffffffffffffffff811115611d6057611d60613e17565b604051908082528060200260200182016040528015611d89578160200160208202803683370190505b50905060005b82811015611df657611dba8686868685818110611dae57611dae613e46565b90506020020135611e4a565b828281518110611dcc57611dcc613e46565b6001600160a01b039092166020928302919091019091015280611dee81613dde565b915050611d8f565b50949350505050565b6000808215611e31576000611e15888886611e4a565b6001600160a01b03166000908152600160205260409020549150505b611e3f8188888888886130af565b979650505050505050565b6001600160a01b03808416600090815260208181526040808320868516845282528083208584529091529020541680611ec55760405162461bcd60e51b815260206004820152601560248201527f6d756c7469557365722f756e6b6f776e4f66666572000000000000000000000060448201526064016106c5565b9392505050565b33301415611f1c5760405162461bcd60e51b815260206004820152601260248201527f4d75746c692f6e6f5265656e7472616e6379000000000000000000000000000060448201526064016106c5565b611f263334613334565b565b7f7d382ebca3e46505071795e192d28166a3d4bd0685585591bc6c5b8df6769fd290565b7fae7e31c3220e851db9f204a28b279dfe52b973600b0a456991089c220ae7222490565b80611f7a57505050565b6001600160a01b03808416600090815260026020908152604080832093861683529290522054811115611fef5760405162461bcd60e51b815260206004820152601d60248201527f4d756c74692f6465626974546f6b656e2f696e73756666696369656e7400000060448201526064016106c5565b6001600160a01b03808416600090815260026020908152604080832093861683529290529081208054839290612026908490613dc7565b92505081905550826001600160a01b0316826001600160a01b03167f7a97b405ee1bd89550b225932dbdd0431e30426b7c8f02f05b3cb0e1bdfb84768360405161207291815260200190565b60405180910390a3505050565b6001600160a01b0382166000908152600160205260409020548111156120e75760405162461bcd60e51b815260206004820152601d60248201527f4d756c74692f64656269744f6e4d67762f696e73756666696369656e7400000060448201526064016106c5565b6001600160a01b0382166000908152600160205260408120805483929061210f908490613dc7565b90915550506040518181526001600160a01b038316907fd50b865b3d9d927f026d3b8404e07f25d6beb1d111deab51bdc846bf8d0a860b906020015b60405180910390a25050565b6040517f2e1a7d4d000000000000000000000000000000000000000000000000000000008152600481018290526000907f00000000000000000000000000000000000000000000000000000000000000006001600160a01b031690632e1a7d4d906024016020604051808303816000875af11580156121da573d6000803e3d6000fd5b505050506040513d601f19601f820116820180604052508101906121fe9190613d62565b61224a5760405162461bcd60e51b815260206004820152601e60248201527f6d67764f666665722f77697468647261772f7472616e736665724661696c000060448201526064016106c5565b6001600160a01b03831630146122b3576040516001600160a01b038416908390600081818185875af1925050503d80600081146122a3576040519150601f19603f3d011682016040523d82523d6000602084013e6122a8565b606091505b5050809150506106e5565b50600192915050565b6001600160a01b038084166000908152600260209081526040808320938616835292905290812080548392906122f3908490613e92565b92505081905550826001600160a01b0316826001600160a01b03167fb2b1ec266d1bab793ae1d020eedf03e575cc390e5fb9e370cb099fdf2f61534d8360405161207291815260200190565b60008061234f6020840184613a09565b905060006123636040850160208601613a09565b905061236e846133b2565b1561237d575060019392505050565b600061238e83838760400135611e4a565b905061239a858261355c565b6123a957506000949350505050565b6001600160a01b0381166000908152600160205260409020546123cd90829061207f565b6001600160a01b0381166000908152600160205260409020546123f1908290612157565b612472578460400135826001600160a01b0316846001600160a01b03167fd2c3f090769d843e1fc2e6ce65d60572e28f9163a5cfccbd6c1725c6a9263f2f60405161245f907f6d67764f726465722f706f7374686f6f6b2f7472616e73666572576569000000815260200190565b60405180910390a4506000949350505050565b506001949350505050565b6000806124aa6124906020860186613a09565b6124a06040870160208801613a09565b8660400135611e4a565b905061066f848261355c565b60008115806124d65750826001600160a01b0316846001600160a01b0316145b156124e35750600161066f565b604080516001600160a01b0386811660248301528581166044830152606480830186905283518084039091018152608490920183526020820180517bffffffffffffffffffffffffffffffffffffffffffffffffffffffff167f23b872dd0000000000000000000000000000000000000000000000000000000017905291516000928392908916916125759190614084565b6000604051808303816000865af19150503d80600081146125b2576040519150601f19603f3d011682016040523d82523d6000602084013e6125b7565b606091505b5091509150818015611e3f575080511580611e3f575080806020019051810190611e3f9190613d62565b60006125f36080840160608501613e75565b1561260b578260c0013582602001511015905061066f565b61261b6080840160608501613e75565b61066f5760006001600160a01b037f00000000000000000000000000000000000000000000000000000000000000001663cbf75c9a87876040517fffffffff0000000000000000000000000000000000000000000000000000000060e085901b1681526001600160a01b039283166004820152911660248201526044016040805180830381865afa1580156126b4573d6000803e3d6000fd5b505050506040513d601f19601f820116820180604052508101906126d891906140a0565b915061271090506126f561ffff60e884901c1660808701356140c4565b6126ff9190614101565b61270d906080860135613dc7565b83511015915061066f9050565b600081158061273157506001600160a01b03831630145b1561273e57506001611ec5565b604080516001600160a01b038581166024830152604480830186905283518084039091018152606490920183526020820180517bffffffffffffffffffffffffffffffffffffffffffffffffffffffff167fa9059cbb0000000000000000000000000000000000000000000000000000000017905291516000928392908816916127c89190614084565b6000604051808303816000865af19150503d8060008114612805576040519150601f19603f3d011682016040523d82523d6000602084013e61280a565b606091505b50915091508180156128345750805115806128345750808060200190518101906128349190613d62565b9695505050505050565b60006001600160a01b0383163014156128995760405162461bcd60e51b815260206004820152601260248201527f4d75746c692f6e6f5265656e7472616e6379000000000000000000000000000060448201526064016106c5565b6040517f70a082310000000000000000000000000000000000000000000000000000000081523060048201526000907f00000000000000000000000000000000000000000000000000000000000000006001600160a01b0316906370a0823190602401602060405180830381865afa158015612919573d6000803e3d6000fd5b505050506040513d601f19601f8201168201806040525081019061293d9190613d7f565b9050600062ffffff801686608001511161295b57856080015161297e565b7fae7e31c3220e851db9f204a28b279dfe52b973600b0a456991089c220ae72224545b90507f00000000000000000000000000000000000000000000000000000000000000006001600160a01b03166349f6d2dc856129bb896000015190565b60208a015160408b81015160608d015160a08e015160c08f0151935160e089901b7fffffffff000000000000000000000000000000000000000000000000000000001681526001600160a01b039687166004820152959094166024860152604485019190915260648401526084830187905260a483019190915260c482015260e40160206040518083038185885af1158015612a5b573d6000803e3d6000fd5b50505050506040513d601f19601f82011682018060405250810190612a809190613d7f565b9250612a9686600001518760200151858861370d565b612aa085836137a2565b50509392505050565b6001600160a01b0383811660009081526004602090815260408083208685168452825280832093881683529281528282208280529052208054908290558015611b7e576001600160a01b0393841660009081526004602090815260408083209587168352948152848220969095168152948452828520918552925290912055565b600080600381612b3d6020860186613a09565b6001600160a01b03166001600160a01b031681526020019081526020016000206000846020016020810190612b729190613a09565b6001600160a01b03168152602080820192909252604090810160009081208683013582529092529020549050801580611ec5575043111592915050565b600080612bdc612bc26020850185613a09565b612bd26040860160208701613a09565b8560400135611e4a565b9050612bf8612bf16040850160208601613a09565b828661271a565b612c02578361066f565b5060009392505050565b600080612c1c6020840184613a09565b90506000612c306040850160208601613a09565b90506000612c4383838760400135611e4a565b6001600160a01b0380851660009081526002602090815260408083209385168352929052205490915086811015612c9457612c7f848383611f70565b612c898188613dc7565b9450505050506106e5565b612c9f848389611f70565b60009450505050506106e5565b60006060612cc38660000151876020015187611e4a565b6001600160a01b0316846001600160a01b031614612d235760405162461bcd60e51b815260206004820152601e60248201527f4d756c74692f7570646174654f666665722f756e617574686f72697a6564000060448201526064016106c5565b6040517f70a082310000000000000000000000000000000000000000000000000000000081523060048201526000907f00000000000000000000000000000000000000000000000000000000000000006001600160a01b0316906370a0823190602401602060405180830381865afa158015612da3573d6000803e3d6000fd5b505050506040513d601f19601f82011682018060405250810190612dc79190613d7f565b90507f00000000000000000000000000000000000000000000000000000000000000006001600160a01b0316636a4f769185612e048a6000015190565b60208b015160408c015160608d015160808e015162ffffff10612e2b578d60800151612e4e565b7fae7e31c3220e851db9f204a28b279dfe52b973600b0a456991089c220ae72224545b8e60a001518f60c001518f6040518a63ffffffff1660e01b8152600401612ebb9897969594939291906001600160a01b03988916815296909716602087015260408601949094526060850192909252608084015260a083015260c082015260e08101919091526101000190565b6000604051808303818588803b158015612ed457600080fd5b505af193505050508015612ee6575060015b612f2b57612ef261413c565b806308c379a01415612f1f5750612f07614158565b80612f125750612f21565b600093509150612f4a9050565b505b3d6000803e3d6000fd5b612f3585826137a2565b50506040805160208101909152600081528491505b94509492505050565b6001600160a01b03858116600090815260208181526040808320888516845282528083208784529091528120549091838116911614612fd45760405162461bcd60e51b815260206004820152601f60248201527f4d756c74692f726574726163744f666665722f756e617574686f72697a65640060448201526064016106c5565b6001600160a01b037f00000000000000000000000000000000000000000000000000000000000000001663ad97db1b87876040517fffffffff0000000000000000000000000000000000000000000000000000000060e085901b1681526001600160a01b039283166004820152911660248201526044810187905285151560648201526084016020604051808303816000875af1158015613079573d6000803e3d6000fd5b505050506040513d601f19601f8201168201806040525081019061309d9190613d7f565b90508015611b9457611b948282613883565b600080806001600160a01b037f00000000000000000000000000000000000000000000000000000000000000001663cbf75c9a89896040517fffffffff0000000000000000000000000000000000000000000000000000000060e085901b1681526001600160a01b039283166004820152911660248201526044016040805180830381865afa158015613146573d6000803e3d6000fd5b505050506040513d601f19601f8201168201806040525081019061316a91906140a0565b9150915060007f00000000000000000000000000000000000000000000000000000000000000006001600160a01b0316635722647b6131a68b90565b8a6040517fffffffff0000000000000000000000000000000000000000000000000000000060e085901b1681526001600160a01b0392831660048201529116602482015260448101889052606401602060405180830381865afa158015613211573d6000803e3d6000fd5b505050506040513d601f19601f820116820180604052508101906132359190613d7f565b9050600086604085901c61ffff161115613258575061ffff604084901c1661325b565b50855b62ffffff88111561328b577fae7e31c3220e851db9f204a28b279dfe52b973600b0a456991089c220ae722245497505b6000816132a162ffffff606087901c168b613e92565b6132ab91906140c4565b6132b990633b9aca006140c4565b9050600061ffff602085901c166132e062ffffff603087901c811690604888901c16613e92565b6132ea91906140c4565b6132f890633b9aca006140c4565b905060006133068e83613e92565b90508281101561331f5761331a8184613dc7565b613322565b60005b9e9d5050505050505050505050505050565b7f00000000000000000000000000000000000000000000000000000000000000006001600160a01b031663b60d4288826040518263ffffffff1660e01b81526004016000604051808303818588803b15801561338f57600080fd5b505af11580156133a3573d6000803e3d6000fd5b5050505050611d418282613883565b6000806133be836138eb565b905060006133cb84613910565b9050816133dc575060019392505050565b6001600160a01b037f000000000000000000000000000000000000000000000000000000000000000016636a4f76916134186020870187613a09565b6134286040880160208901613a09565b848660c08a013560481c62ffffff1660c08b013560201c61ffff1660608c013560c01c63ffffffff16604080517fffffffff0000000000000000000000000000000000000000000000000000000060e08b901b1681526001600160a01b03988916600482015297909616602488015260448701949094526064860192909252608485015260a484015260c483015287013560e482015261010401600060405180830381600087803b1580156134dc57600080fd5b505af19250505080156134ed575060015b613552576135476135016020860186613a09565b6135116040870160208801613a09565b6040870135600161354261352860208b018b613a09565b61353860408c0160208d01613a09565b8b60400135611e4a565b612f53565b506000949350505050565b5060019392505050565b60008061356c6020850185613a09565b905060006135806040860160208701613a09565b6001600160a01b038084166000908152600260209081526040808320938916835292905220549091506135b483868361271a565b613636578560400135826001600160a01b0316846001600160a01b03167fd2c3f090769d843e1fc2e6ce65d60572e28f9163a5cfccbd6c1725c6a9263f2f604051613622907f6d67764f726465722f72656465656d416c6c2f7472616e736665724f75740000815260200190565b60405180910390a4600093505050506106e5565b613641838683611f70565b6001600160a01b0380831660009081526002602090815260408083209389168352929052205461367283878361271a565b6136f5578660400135836001600160a01b0316856001600160a01b03167fd2c3f090769d843e1fc2e6ce65d60572e28f9163a5cfccbd6c1725c6a9263f2f6040516136e0907f6d67764f726465722f72656465656d416c6c2f7472616e73666572496e000000815260200190565b60405180910390a460009450505050506106e5565b613700838783611f70565b5060019695505050505050565b6001600160a01b0384811660008181526020818152604080832088861680855290835281842088855283529281902080547fffffffffffffffffffffffff00000000000000000000000000000000000000001695871695861790555193845285939192917fabf04a4ce23225c02bd147297da7ffc10e7d29102d8678f1a63fdd2cfd71ff07910160405180910390a450505050565b6040517f70a082310000000000000000000000000000000000000000000000000000000081523060048201526000907f00000000000000000000000000000000000000000000000000000000000000006001600160a01b0316906370a0823190602401602060405180830381865afa158015613822573d6000803e3d6000fd5b505050506040513d601f19601f820116820180604052508101906138469190613d7f565b90508181141561385557505050565b8181111561387057610f9b8361386b8484613dc7565b613883565b610f9b8361387e8385613dc7565b61207f565b6001600160a01b038216600090815260016020526040812080548392906138ab908490613e92565b90915550506040518181526001600160a01b038316907f2022607feefe24f258126b277628af517f5512dd9499fb3520eeff54cad137039060200161214b565b600060808201356bffffffffffffffffffffffff6060840135165b6106e59190613dc7565b600060a0820135606080840135901c6bffffffffffffffffffffffff16613906565b6001600160a01b038116811461394757600080fd5b50565b60008060006060848603121561395f57600080fd5b833561396a81613932565b9250602084013561397a81613932565b929592945050506040919091013590565b6000806040838503121561399e57600080fd5b82356139a981613932565b946020939093013593505050565b600080604083850312156139ca57600080fd5b82356139d581613932565b915060208301356139e581613932565b809150509250929050565b600060208284031215613a0257600080fd5b5035919050565b600060208284031215613a1b57600080fd5b8135611ec581613932565b600080600060608486031215613a3b57600080fd5b8335613a4681613932565b92506020840135613a5681613932565b91506040840135613a6681613932565b809150509250925092565b600081518084526020808501945080840160005b83811015613aa157815187529582019590820190600101613a85565b509495945050505050565b604081526000613abf6040830185613a71565b8281036020840152611b948185613a71565b600061012082840312156119f757600080fd5b600080828403610160811215613af957600080fd5b613b038585613ad1565b925060407ffffffffffffffffffffffffffffffffffffffffffffffffffffffffffffffee082011215613b3557600080fd5b50610120830190509250929050565b600061018082840312156119f757600080fd5b60006101208284031215613b6a57600080fd5b6106e28383613ad1565b600060e082840312156119f757600080fd5b600060e08284031215613b9857600080fd5b6106e28383613b74565b6000806101008385031215613bb657600080fd5b613bc08484613b74565b9460e0939093013593505050565b801515811461394757600080fd5b60008060008060808587031215613bf257600080fd5b8435613bfd81613932565b93506020850135613c0d81613932565b9250604085013591506060850135613c2481613bce565b939692955090935050565b60008060008060608587031215613c4557600080fd5b8435613c5081613932565b93506020850135613c6081613932565b9250604085013567ffffffffffffffff80821115613c7d57600080fd5b818701915087601f830112613c9157600080fd5b813581811115613ca057600080fd5b8860208260051b8501011115613cb557600080fd5b95989497505060200194505050565b6020808252825182820181905260009190848201906040850190845b81811015613d055783516001600160a01b031683529284019291840191600101613ce0565b50909695505050505050565b600080600080600060a08688031215613d2957600080fd5b8535613d3481613932565b94506020860135613d4481613932565b94979496505050506040830135926060810135926080909101359150565b600060208284031215613d7457600080fd5b8151611ec581613bce565b600060208284031215613d9157600080fd5b5051919050565b7f4e487b7100000000000000000000000000000000000000000000000000000000600052601160045260246000fd5b600082821015613dd957613dd9613d98565b500390565b60007fffffffffffffffffffffffffffffffffffffffffffffffffffffffffffffffff821415613e1057613e10613d98565b5060010190565b7f4e487b7100000000000000000000000000000000000000000000000000000000600052604160045260246000fd5b7f4e487b7100000000000000000000000000000000000000000000000000000000600052603260045260246000fd5b600060208284031215613e8757600080fd5b8135611ec581613bce565b60008219821115613ea557613ea5613d98565b500190565b600080600060608486031215613ebf57600080fd5b8351925060208401519150604084015190509250925092565b7fffffffffffffffffffffffffffffffffffffffffffffffffffffffffffffffe0601f830116810181811067ffffffffffffffff82111715613f43577f4e487b7100000000000000000000000000000000000000000000000000000000600052604160045260246000fd5b6040525050565b600060e08284031215613f5c57600080fd5b60405160e0810181811067ffffffffffffffff82111715613fa6577f4e487b7100000000000000000000000000000000000000000000000000000000600052604160045260246000fd5b6040528235613fb481613932565b81526020830135613fc481613932565b8060208301525060408301356040820152606083013560608201526080830135608082015260a083013560a082015260c083013560c08201528091505092915050565b60005b8381101561402257818101518382015260200161400a565b83811115610f1b5750506000910152565b6020815260008251806020840152614052816040850160208701614007565b601f017fffffffffffffffffffffffffffffffffffffffffffffffffffffffffffffffe0169190910160400192915050565b60008251614096818460208701614007565b9190910192915050565b600080604083850312156140b357600080fd5b505080516020909101519092909150565b6000817fffffffffffffffffffffffffffffffffffffffffffffffffffffffffffffffff04831182151516156140fc576140fc613d98565b500290565b600082614137577f4e487b7100000000000000000000000000000000000000000000000000000000600052601260045260246000fd5b500490565b600060033d11156141555760046000803e5060005160e01c5b90565b600060443d10156141665790565b6040517ffffffffffffffffffffffffffffffffffffffffffffffffffffffffffffffffc803d016004833e81513d67ffffffffffffffff81602484011181841117156141b457505050505090565b82850191508151818111156141cc5750505050505090565b843d87010160208285010111156141e65750505050505090565b6141f560208286010187613ed8565b50909594505050505056fea2646970667358221220ff9fcb7cec54e6e236cb0373764af52158c563d9f4d0e12c3aecc7abfb2da32764736f6c634300080a0033",
  "linkReferences": {},
  "deployedLinkReferences": {}
}