{
  "_format": "hh-sol-artifact-1",
  "contractName": "MangroveOrder",
  "sourceName": "contracts/Strategies/OrderLogics/MangroveOrder.sol",
  "abi": [
    {
      "inputs": [
        {
          "internalType": "address payable",
          "name": "_MGV",
          "type": "address"
        },
        {
          "internalType": "address",
          "name": "admin",
          "type": "address"
        }
      ],
      "stateMutability": "nonpayable",
      "type": "constructor"
    },
    {
      "anonymous": false,
      "inputs": [
        {
          "indexed": true,
          "internalType": "address",
          "name": "user",
          "type": "address"
        },
        {
          "indexed": false,
          "internalType": "uint256",
          "name": "amount",
          "type": "uint256"
        }
      ],
      "name": "CreditMgvUser",
      "type": "event"
    },
    {
      "anonymous": false,
      "inputs": [
        {
          "indexed": true,
          "internalType": "address",
          "name": "user",
          "type": "address"
        },
        {
          "indexed": true,
          "internalType": "address",
          "name": "token",
          "type": "address"
        },
        {
          "indexed": false,
          "internalType": "uint256",
          "name": "amount",
          "type": "uint256"
        }
      ],
      "name": "CreditUserTokenBalance",
      "type": "event"
    },
    {
      "anonymous": false,
      "inputs": [
        {
          "indexed": true,
          "internalType": "address",
          "name": "user",
          "type": "address"
        },
        {
          "indexed": false,
          "internalType": "uint256",
          "name": "amount",
          "type": "uint256"
        }
      ],
      "name": "DebitMgvUser",
      "type": "event"
    },
    {
      "anonymous": false,
      "inputs": [
        {
          "indexed": true,
          "internalType": "address",
          "name": "user",
          "type": "address"
        },
        {
          "indexed": true,
          "internalType": "address",
          "name": "token",
          "type": "address"
        },
        {
          "indexed": false,
          "internalType": "uint256",
          "name": "amount",
          "type": "uint256"
        }
      ],
      "name": "DebitUserTokenBalance",
      "type": "event"
    },
    {
      "anonymous": false,
      "inputs": [
        {
          "indexed": true,
          "internalType": "address",
          "name": "outbound_tkn",
          "type": "address"
        },
        {
          "indexed": true,
          "internalType": "address",
          "name": "inbound_tkn",
          "type": "address"
        },
        {
          "indexed": true,
          "internalType": "uint256",
          "name": "offerId",
          "type": "uint256"
        },
        {
          "indexed": false,
          "internalType": "bytes32",
          "name": "reason",
          "type": "bytes32"
        }
      ],
      "name": "LogIncident",
      "type": "event"
    },
    {
      "anonymous": false,
      "inputs": [
        {
          "indexed": true,
          "internalType": "address",
          "name": "outbound_tkn",
          "type": "address"
        },
        {
          "indexed": true,
          "internalType": "address",
          "name": "inbound_tkn",
          "type": "address"
        },
        {
          "indexed": true,
          "internalType": "uint256",
          "name": "offerId",
          "type": "uint256"
        },
        {
          "indexed": false,
          "internalType": "address",
          "name": "owner",
          "type": "address"
        }
      ],
      "name": "NewOwnedOffer",
      "type": "event"
    },
    {
      "anonymous": false,
      "inputs": [
        {
          "indexed": true,
          "internalType": "address",
          "name": "base",
          "type": "address"
        },
        {
          "indexed": true,
          "internalType": "address",
          "name": "quote",
          "type": "address"
        },
        {
          "indexed": true,
          "internalType": "address",
          "name": "taker",
          "type": "address"
        },
        {
          "indexed": false,
          "internalType": "uint256",
          "name": "takerGot",
          "type": "uint256"
        },
        {
          "indexed": false,
          "internalType": "uint256",
          "name": "takerGave",
          "type": "uint256"
        },
        {
          "indexed": false,
          "internalType": "uint256",
          "name": "penalty",
          "type": "uint256"
        },
        {
          "indexed": false,
          "internalType": "uint256",
          "name": "restingOrderId",
          "type": "uint256"
        }
      ],
      "name": "OrderSummary",
      "type": "event"
    },
    {
      "inputs": [],
      "name": "MGV",
      "outputs": [
        {
          "internalType": "contract IMangrove",
          "name": "",
          "type": "address"
        }
      ],
      "stateMutability": "view",
      "type": "function"
    },
    {
      "inputs": [],
      "name": "OFR_GASREQ",
      "outputs": [
        {
          "internalType": "uint256",
          "name": "",
          "type": "uint256"
        }
      ],
      "stateMutability": "view",
      "type": "function"
    },
    {
      "inputs": [],
      "name": "OUTOFLIQUIDITY",
      "outputs": [
        {
          "internalType": "bytes32",
          "name": "",
          "type": "bytes32"
        }
      ],
      "stateMutability": "view",
      "type": "function"
    },
    {
      "inputs": [],
      "name": "PUTFAILURE",
      "outputs": [
        {
          "internalType": "bytes32",
          "name": "",
          "type": "bytes32"
        }
      ],
      "stateMutability": "view",
      "type": "function"
    },
    {
      "inputs": [],
      "name": "RENEGED",
      "outputs": [
        {
          "internalType": "bytes32",
          "name": "",
          "type": "bytes32"
        }
      ],
      "stateMutability": "view",
      "type": "function"
    },
    {
      "inputs": [],
      "name": "admin",
      "outputs": [
        {
          "internalType": "address",
          "name": "",
          "type": "address"
        }
      ],
      "stateMutability": "view",
      "type": "function"
    },
    {
      "inputs": [
        {
          "internalType": "address",
          "name": "outbound_tkn",
          "type": "address"
        },
        {
          "internalType": "uint256",
          "name": "amount",
          "type": "uint256"
        }
      ],
      "name": "approveMangrove",
      "outputs": [],
      "stateMutability": "nonpayable",
      "type": "function"
    },
    {
      "inputs": [],
      "name": "balanceOnMangrove",
      "outputs": [
        {
          "internalType": "uint256",
          "name": "",
          "type": "uint256"
        }
      ],
      "stateMutability": "view",
      "type": "function"
    },
    {
      "inputs": [
        {
          "internalType": "address",
          "name": "token",
          "type": "address"
        },
        {
          "internalType": "uint256",
          "name": "amount",
          "type": "uint256"
        }
      ],
      "name": "depositToken",
      "outputs": [
        {
          "internalType": "bool",
          "name": "success",
          "type": "bool"
        }
      ],
      "stateMutability": "nonpayable",
      "type": "function"
    },
    {
      "inputs": [
        {
          "internalType": "address",
          "name": "",
          "type": "address"
        },
        {
          "internalType": "address",
          "name": "",
          "type": "address"
        },
        {
          "internalType": "uint256",
          "name": "",
          "type": "uint256"
        }
      ],
      "name": "expiring",
      "outputs": [
        {
          "internalType": "uint256",
          "name": "",
          "type": "uint256"
        }
      ],
      "stateMutability": "view",
      "type": "function"
    },
    {
      "inputs": [],
      "name": "fundMangrove",
      "outputs": [],
      "stateMutability": "payable",
      "type": "function"
    },
    {
      "inputs": [
        {
          "internalType": "address",
          "name": "outbound_tkn",
          "type": "address"
        },
        {
          "internalType": "address",
          "name": "inbound_tkn",
          "type": "address"
        },
        {
          "internalType": "uint256",
          "name": "gasreq",
          "type": "uint256"
        },
        {
          "internalType": "uint256",
          "name": "gasprice",
          "type": "uint256"
        },
        {
          "internalType": "uint256",
          "name": "offerId",
          "type": "uint256"
        }
      ],
      "name": "getMissingProvision",
      "outputs": [
        {
          "internalType": "uint256",
          "name": "",
          "type": "uint256"
        }
      ],
      "stateMutability": "view",
      "type": "function"
    },
    {
      "inputs": [
        {
          "components": [
            {
              "internalType": "address",
              "name": "outbound_tkn",
              "type": "address"
            },
            {
              "internalType": "address",
              "name": "inbound_tkn",
              "type": "address"
            },
            {
              "internalType": "uint256",
              "name": "offerId",
              "type": "uint256"
            },
            {
              "internalType": "Offer.t",
              "name": "offer",
              "type": "uint256"
            },
            {
              "internalType": "uint256",
              "name": "wants",
              "type": "uint256"
            },
            {
              "internalType": "uint256",
              "name": "gives",
              "type": "uint256"
            },
            {
              "internalType": "OfferDetail.t",
              "name": "offerDetail",
              "type": "uint256"
            },
            {
              "internalType": "Global.t",
              "name": "global",
              "type": "uint256"
            },
            {
              "internalType": "Local.t",
              "name": "local",
              "type": "uint256"
            }
          ],
          "internalType": "struct MgvLib.SingleOrder",
          "name": "order",
          "type": "tuple"
        }
      ],
      "name": "makerExecute",
      "outputs": [
        {
          "internalType": "bytes32",
          "name": "ret",
          "type": "bytes32"
        }
      ],
      "stateMutability": "nonpayable",
      "type": "function"
    },
    {
      "inputs": [
        {
          "components": [
            {
              "internalType": "address",
              "name": "outbound_tkn",
              "type": "address"
            },
            {
              "internalType": "address",
              "name": "inbound_tkn",
              "type": "address"
            },
            {
              "internalType": "uint256",
              "name": "offerId",
              "type": "uint256"
            },
            {
              "internalType": "Offer.t",
              "name": "offer",
              "type": "uint256"
            },
            {
              "internalType": "uint256",
              "name": "wants",
              "type": "uint256"
            },
            {
              "internalType": "uint256",
              "name": "gives",
              "type": "uint256"
            },
            {
              "internalType": "OfferDetail.t",
              "name": "offerDetail",
              "type": "uint256"
            },
            {
              "internalType": "Global.t",
              "name": "global",
              "type": "uint256"
            },
            {
              "internalType": "Local.t",
              "name": "local",
              "type": "uint256"
            }
          ],
          "internalType": "struct MgvLib.SingleOrder",
          "name": "order",
          "type": "tuple"
        },
        {
          "components": [
            {
              "internalType": "bytes32",
              "name": "makerData",
              "type": "bytes32"
            },
            {
              "internalType": "bytes32",
              "name": "mgvData",
              "type": "bytes32"
            }
          ],
          "internalType": "struct MgvLib.OrderResult",
          "name": "result",
          "type": "tuple"
        }
      ],
      "name": "makerPosthook",
      "outputs": [],
      "stateMutability": "nonpayable",
      "type": "function"
    },
    {
      "inputs": [
        {
          "internalType": "address",
          "name": "",
          "type": "address"
        }
      ],
      "name": "mgvBalance",
      "outputs": [
        {
          "internalType": "uint256",
          "name": "",
          "type": "uint256"
        }
      ],
      "stateMutability": "view",
      "type": "function"
    },
    {
      "inputs": [
        {
          "internalType": "address",
          "name": "outbound_tkn",
          "type": "address"
        },
        {
          "internalType": "address",
          "name": "inbound_tkn",
          "type": "address"
        },
        {
          "internalType": "uint256",
          "name": "wants",
          "type": "uint256"
        },
        {
          "internalType": "uint256",
          "name": "gives",
          "type": "uint256"
        },
        {
          "internalType": "uint256",
          "name": "gasreq",
          "type": "uint256"
        },
        {
          "internalType": "uint256",
          "name": "gasprice",
          "type": "uint256"
        },
        {
          "internalType": "uint256",
          "name": "pivotId",
          "type": "uint256"
        }
      ],
      "name": "newOffer",
      "outputs": [
        {
          "internalType": "uint256",
          "name": "offerId",
          "type": "uint256"
        }
      ],
      "stateMutability": "payable",
      "type": "function"
    },
    {
      "inputs": [
        {
          "internalType": "address",
          "name": "reader",
          "type": "address"
        },
        {
          "internalType": "address",
          "name": "outbound_tkn",
          "type": "address"
        },
        {
          "internalType": "address",
          "name": "inbound_tkn",
          "type": "address"
        },
        {
          "internalType": "uint256",
          "name": "fromId",
          "type": "uint256"
        },
        {
          "internalType": "uint256",
          "name": "maxOffers",
          "type": "uint256"
        }
      ],
      "name": "offerOwners",
      "outputs": [
        {
          "internalType": "uint256",
          "name": "nextId",
          "type": "uint256"
        },
        {
          "internalType": "uint256[]",
          "name": "offerIds",
          "type": "uint256[]"
        },
        {
          "internalType": "address[]",
          "name": "__offerOwners",
          "type": "address[]"
        }
      ],
      "stateMutability": "view",
      "type": "function"
    },
    {
      "inputs": [
        {
          "internalType": "address",
          "name": "outbound_tkn",
          "type": "address"
        },
        {
          "internalType": "address",
          "name": "inbound_tkn",
          "type": "address"
        },
        {
          "internalType": "uint256",
          "name": "offerId",
          "type": "uint256"
        }
      ],
      "name": "ownerOf",
      "outputs": [
        {
          "internalType": "address",
          "name": "owner",
          "type": "address"
        }
      ],
      "stateMutability": "view",
      "type": "function"
    },
    {
      "inputs": [
        {
          "internalType": "address",
          "name": "token",
          "type": "address"
        },
        {
          "internalType": "address",
          "name": "receiver",
          "type": "address"
        },
        {
          "internalType": "uint256",
          "name": "amount",
          "type": "uint256"
        }
      ],
      "name": "redeemToken",
      "outputs": [
        {
          "internalType": "bool",
          "name": "success",
          "type": "bool"
        }
      ],
      "stateMutability": "nonpayable",
      "type": "function"
    },
    {
      "inputs": [
        {
          "internalType": "address",
          "name": "outbound_tkn",
          "type": "address"
        },
        {
          "internalType": "address",
          "name": "inbound_tkn",
          "type": "address"
        },
        {
          "internalType": "uint256",
          "name": "offerId",
          "type": "uint256"
        },
        {
          "internalType": "bool",
          "name": "deprovision",
          "type": "bool"
        }
      ],
      "name": "retractOffer",
      "outputs": [
        {
          "internalType": "uint256",
          "name": "received",
          "type": "uint256"
        }
      ],
      "stateMutability": "nonpayable",
      "type": "function"
    },
    {
      "inputs": [
        {
          "internalType": "address",
          "name": "_admin",
          "type": "address"
        }
      ],
      "name": "setAdmin",
      "outputs": [],
      "stateMutability": "nonpayable",
      "type": "function"
    },
    {
      "inputs": [
        {
          "internalType": "uint256",
          "name": "gasreq",
          "type": "uint256"
        }
      ],
      "name": "setGasreq",
      "outputs": [],
      "stateMutability": "nonpayable",
      "type": "function"
    },
    {
      "inputs": [
        {
          "components": [
            {
              "internalType": "address",
              "name": "base",
              "type": "address"
            },
            {
              "internalType": "address",
              "name": "quote",
              "type": "address"
            },
            {
              "internalType": "bool",
              "name": "partialFillNotAllowed",
              "type": "bool"
            },
            {
              "internalType": "bool",
              "name": "selling",
              "type": "bool"
            },
            {
              "internalType": "uint256",
              "name": "wants",
              "type": "uint256"
            },
            {
              "internalType": "uint256",
              "name": "gives",
              "type": "uint256"
            },
            {
              "internalType": "bool",
              "name": "restingOrder",
              "type": "bool"
            },
            {
              "internalType": "uint256",
              "name": "retryNumber",
              "type": "uint256"
            },
            {
              "internalType": "uint256",
              "name": "gasForMarketOrder",
              "type": "uint256"
            },
            {
              "internalType": "uint256",
              "name": "blocksToLiveForRestingOrder",
              "type": "uint256"
            }
          ],
          "internalType": "struct IOrderLogic.TakerOrder",
          "name": "tko",
          "type": "tuple"
        }
      ],
      "name": "take",
      "outputs": [
        {
          "components": [
            {
              "internalType": "uint256",
              "name": "takerGot",
              "type": "uint256"
            },
            {
              "internalType": "uint256",
              "name": "takerGave",
              "type": "uint256"
            },
            {
              "internalType": "uint256",
              "name": "bounty",
              "type": "uint256"
            },
            {
              "internalType": "uint256",
              "name": "offerId",
              "type": "uint256"
            }
          ],
          "internalType": "struct IOrderLogic.TakerOrderResult",
          "name": "res",
          "type": "tuple"
        }
      ],
      "stateMutability": "payable",
      "type": "function"
    },
    {
      "inputs": [
        {
          "internalType": "address",
          "name": "token",
          "type": "address"
        }
      ],
      "name": "tokenBalance",
      "outputs": [
        {
          "internalType": "uint256",
          "name": "",
          "type": "uint256"
        }
      ],
      "stateMutability": "view",
      "type": "function"
    },
    {
      "inputs": [
        {
          "internalType": "address",
          "name": "",
          "type": "address"
        },
        {
          "internalType": "address",
          "name": "",
          "type": "address"
        }
      ],
      "name": "tokenBalanceOf",
      "outputs": [
        {
          "internalType": "uint256",
          "name": "",
          "type": "uint256"
        }
      ],
      "stateMutability": "view",
      "type": "function"
    },
    {
      "inputs": [
        {
          "internalType": "address",
          "name": "outbound_tkn",
          "type": "address"
        },
        {
          "internalType": "address",
          "name": "inbound_tkn",
          "type": "address"
        },
        {
          "internalType": "uint256",
          "name": "wants",
          "type": "uint256"
        },
        {
          "internalType": "uint256",
          "name": "gives",
          "type": "uint256"
        },
        {
          "internalType": "uint256",
          "name": "gasreq",
          "type": "uint256"
        },
        {
          "internalType": "uint256",
          "name": "gasprice",
          "type": "uint256"
        },
        {
          "internalType": "uint256",
          "name": "pivotId",
          "type": "uint256"
        },
        {
          "internalType": "uint256",
          "name": "offerId",
          "type": "uint256"
        }
      ],
      "name": "updateOffer",
      "outputs": [],
      "stateMutability": "payable",
      "type": "function"
    },
    {
      "inputs": [
        {
          "internalType": "address payable",
          "name": "receiver",
          "type": "address"
        },
        {
          "internalType": "uint256",
          "name": "amount",
          "type": "uint256"
        }
      ],
      "name": "withdrawFromMangrove",
      "outputs": [
        {
          "internalType": "bool",
          "name": "noRevert",
          "type": "bool"
        }
      ],
      "stateMutability": "nonpayable",
      "type": "function"
    },
    {
      "stateMutability": "payable",
      "type": "receive"
    }
  ],
  "bytecode": "0x6101006040527f6d67764f666665722f61626f72742f72656e65676564000000000000000000006080527f6d67764f666665722f61626f72742f7075744661696c6564000000000000000060a0527f6d67764f666665722f61626f72742f6765744661696c6564000000000000000060c052620186a06001553480156200008557600080fd5b506040516200455338038062004553833981016040819052620000a8916200014c565b8181806001600160a01b038116620001065760405162461bcd60e51b815260206004820152601860248201527f616363657373436f6e74726f6c6c65642f307841646d696e0000000000000000604482015260640160405180910390fd5b600080546001600160a01b0319166001600160a01b039283161790559190911660e052506200018b915050565b6001600160a01b03811681146200014957600080fd5b50565b600080604083850312156200016057600080fd5b82516200016d8162000133565b6020840151909250620001808162000133565b809150509250929050565b60805160a05160c05160e051614310620002436000396000818161042d01528181610a0b01528181610ad401528181610d0701528181610fc00152818161106b015281816115d30152818161203d0152818161257701528181612665015281816127b4015281816128be01528181612c1801528181612ceb01528181612db401528181612f01015281816130180152818161310701526135d0015260006103c50152600061033e015260006103f901526143106000f3fe6080604052600436106101b05760003560e01c80637f7a1b99116100ec578063e428204d1161008a578063f851a44011610064578063f851a44014610594578063f92495e5146105c1578063faa030ec146105e1578063ff10c0dc146105e957600080fd5b8063e428204d14610510578063e4c34f8414610526578063eedc966a1461054657600080fd5b8063ad97db1b116100c6578063ad97db1b14610474578063aefe840314610494578063d1971159146104b4578063df242667146104e357600080fd5b80637f7a1b99146103b357806389dbacfe146103e757806399fa5e2d1461041b57600080fd5b8063458eda9a11610159578063572e59e311610133578063572e59e31461032c5780636a4f7691146103605780636c49c32c14610373578063704b6c021461039357600080fd5b8063458eda9a146102b957806349f6d2dc146102db5780634e7effa8146102ee57600080fd5b8063338b5dea1161018a578063338b5dea1461025757806334bd8931146102775780633d3d130d1461029957600080fd5b8063063df2d2146101bc5780630d71bdc3146101f15780631bea80061461021157600080fd5b366101b757005b600080fd5b3480156101c857600080fd5b506101dc6101d7366004613897565b61062f565b60405190151581526020015b60405180910390f35b3480156101fd57600080fd5b506101dc61020c3660046138c3565b6106a3565b34801561021d57600080fd5b5061024961022c366004613904565b600460209081526000928352604080842090915290825290205481565b6040519081526020016101e8565b34801561026357600080fd5b506101dc610272366004613897565b6107a1565b34801561028357600080fd5b5061029761029236600461393d565b6109d2565b005b3480156102a557600080fd5b506102976102b4366004613969565b610ad2565b3480156102c557600080fd5b5033600090815260036020526040902054610249565b6102496102e93660046139c9565b610c4b565b3480156102fa57600080fd5b506102496103093660046138c3565b600560209081526000938452604080852082529284528284209052825290205481565b34801561033857600080fd5b506102497f000000000000000000000000000000000000000000000000000000000000000081565b61029761036e366004613a2b565b610cba565b34801561037f57600080fd5b5061024961038e366004613a96565b610d03565b34801561039f57600080fd5b506102976103ae366004613ab3565b610ec1565b3480156103bf57600080fd5b506102497f000000000000000000000000000000000000000000000000000000000000000081565b3480156103f357600080fd5b506102497f000000000000000000000000000000000000000000000000000000000000000081565b34801561042757600080fd5b5061044f7f000000000000000000000000000000000000000000000000000000000000000081565b60405173ffffffffffffffffffffffffffffffffffffffff90911681526020016101e8565b34801561048057600080fd5b5061024961048f366004613ade565b610f6f565b3480156104a057600080fd5b506102976104af366004613897565b610f87565b3480156104c057600080fd5b506104d46104cf366004613b31565b611137565b6040516101e893929190613b8c565b3480156104ef57600080fd5b506102496104fe366004613ab3565b60036020526000908152604090205481565b34801561051c57600080fd5b5061024960015481565b34801561053257600080fd5b50610249610541366004613c28565b6112da565b34801561055257600080fd5b50610249610561366004613ab3565b73ffffffffffffffffffffffffffffffffffffffff16600090815260046020908152604080832033845290915290205490565b3480156105a057600080fd5b5060005461044f9073ffffffffffffffffffffffffffffffffffffffff1681565b3480156105cd57600080fd5b5061044f6105dc3660046138c3565b611332565b6102976113c3565b6105fc6105f7366004613c79565b61141f565b6040516101e891908151815260208083015190820152604080830151908201526060918201519181019190915260800190565b6000333014156106865760405162461bcd60e51b815260206004820152601260248201527f4d75746c692f6e6f5265656e7472616e6379000000000000000000000000000060448201526064015b60405180910390fd5b6106903383611f0c565b61069a838361200b565b90505b92915050565b6000333014156106f55760405162461bcd60e51b815260206004820152601260248201527f4d75746c692f6e6f5265656e7472616e63790000000000000000000000000000604482015260640161067d565b610700843384612197565b6040517fa9059cbb00000000000000000000000000000000000000000000000000000000815273ffffffffffffffffffffffffffffffffffffffff84811660048301526024820184905285169063a9059cbb906044016020604051808303816000875af1158015610775573d6000803e3d6000fd5b505050506040513d601f19601f820116820180604052508101906107999190613c8c565b949350505050565b6040517f70a08231000000000000000000000000000000000000000000000000000000008152306004820152600090819073ffffffffffffffffffffffffffffffffffffffff8516906370a0823190602401602060405180830381865afa158015610810573d6000803e3d6000fd5b505050506040513d601f19601f820116820180604052508101906108349190613ca9565b6040517f23b872dd0000000000000000000000000000000000000000000000000000000081523360048201523060248201526044810185905290915073ffffffffffffffffffffffffffffffffffffffff8516906323b872dd906064016020604051808303816000875af11580156108b0573d6000803e3d6000fd5b505050506040513d601f19601f820116820180604052508101906108d49190613c8c565b6040517f70a082310000000000000000000000000000000000000000000000000000000081523060048201529092508390829073ffffffffffffffffffffffffffffffffffffffff8716906370a0823190602401602060405180830381865afa158015610945573d6000803e3d6000fd5b505050506040513d601f19601f820116820180604052508101906109699190613ca9565b6109739190613cf1565b146109c05760405162461bcd60e51b815260206004820152601260248201527f4d756c74692f7472616e736665724661696c0000000000000000000000000000604482015260640161067d565b6109cb8433856122da565b5092915050565b60005473ffffffffffffffffffffffffffffffffffffffff16331480610a2d57503373ffffffffffffffffffffffffffffffffffffffff7f000000000000000000000000000000000000000000000000000000000000000016145b610a795760405162461bcd60e51b815260206004820152601860248201527f416363657373436f6e74726f6c6c65642f496e76616c69640000000000000000604482015260640161067d565b808162ffffff1614610acd5760405162461bcd60e51b815260206004820152601860248201527f6d67764f666665722f6761737265712f6f766572666c6f770000000000000000604482015260640161067d565b600155565b7f000000000000000000000000000000000000000000000000000000000000000073ffffffffffffffffffffffffffffffffffffffff81161580610b2b57503373ffffffffffffffffffffffffffffffffffffffff8216145b610b775760405162461bcd60e51b815260206004820152601860248201527f416363657373436f6e74726f6c6c65642f496e76616c69640000000000000000604482015260640161067d565b81602001357f6d67762f747261646553756363657373000000000000000000000000000000001415610bb257610bac83612384565b50505050565b60408301803590610bc69060208601613ab3565b73ffffffffffffffffffffffffffffffffffffffff16610be96020860186613ab3565b73ffffffffffffffffffffffffffffffffffffffff167fd2c3f090769d843e1fc2e6ce65d60572e28f9163a5cfccbd6c1725c6a9263f2f8560000135604051610c3491815260200190565b60405180910390a4610bac83836124f6565b505050565b600033301415610c9d5760405162461bcd60e51b815260206004820152601260248201527f4d75746c692f6e6f5265656e7472616e63790000000000000000000000000000604482015260640161067d565b610cae88888888888888333461252f565b98975050505050505050565b600080610ccf8a8a8a8a8a8a8a8a33346126fa565b91509150600082118190610cf65760405162461bcd60e51b815260040161067d9190613d34565b5050505050505050505050565b60007f000000000000000000000000000000000000000000000000000000000000000073ffffffffffffffffffffffffffffffffffffffff81161580610d5e57503373ffffffffffffffffffffffffffffffffffffffff8216145b610daa5760405162461bcd60e51b815260206004820152601860248201527f416363657373436f6e74726f6c6c65642f496e76616c69640000000000000000604482015260640161067d565b610db383612989565b610dff5760405162461bcd60e51b815260206004820152601660248201527f6d67764f666665722f61626f72742f72656e6567656400000000000000000000604482015260640161067d565b6000610e0f8460a0013585612a35565b1115610e5d5760405162461bcd60e51b815260206004820152601860248201527f6d67764f666665722f61626f72742f7075744661696c65640000000000000000604482015260640161067d565b6000610e6d846080013585612a78565b1115610ebb5760405162461bcd60e51b815260206004820152601860248201527f6d67764f666665722f61626f72742f6765744661696c65640000000000000000604482015260640161067d565b50919050565b60005473ffffffffffffffffffffffffffffffffffffffff163314610f285760405162461bcd60e51b815260206004820152601860248201527f416363657373436f6e74726f6c6c65642f496e76616c69640000000000000000604482015260640161067d565b600080547fffffffffffffffffffffffff00000000000000000000000000000000000000001673ffffffffffffffffffffffffffffffffffffffff92909216919091179055565b6000610f7e8585858533612b2c565b95945050505050565b60005473ffffffffffffffffffffffffffffffffffffffff16331480610fe257503373ffffffffffffffffffffffffffffffffffffffff7f000000000000000000000000000000000000000000000000000000000000000016145b61102e5760405162461bcd60e51b815260206004820152601860248201527f416363657373436f6e74726f6c6c65642f496e76616c69640000000000000000604482015260640161067d565b6040517f095ea7b300000000000000000000000000000000000000000000000000000000815273ffffffffffffffffffffffffffffffffffffffff7f0000000000000000000000000000000000000000000000000000000000000000811660048301526024820183905283169063095ea7b3906044016020604051808303816000875af11580156110c3573d6000803e3d6000fd5b505050506040513d601f19601f820116820180604052508101906110e79190613c8c565b6111335760405162461bcd60e51b815260206004820152601560248201527f6d67764f666665722f617070726f76652f4661696c0000000000000000000000604482015260640161067d565b5050565b6040517f2c7e545f00000000000000000000000000000000000000000000000000000000815273ffffffffffffffffffffffffffffffffffffffff858116600483015284811660248301526044820184905260648201839052600091606091829190891690632c7e545f90608401600060405180830381865afa1580156111c2573d6000803e3d6000fd5b505050506040513d6000823e601f3d9081017fffffffffffffffffffffffffffffffffffffffffffffffffffffffffffffffe01682016040526112089190810190613f9e565b50508051919450925067ffffffffffffffff81111561122957611229613d85565b604051908082528060200260200182016040528015611252578160200160208202803683370190505b50905060005b82518110156112ce57611285888885848151811061127857611278614093565b6020026020010151611332565b82828151811061129757611297614093565b73ffffffffffffffffffffffffffffffffffffffff90921660209283029190910190910152806112c6816140c2565b915050611258565b50955095509592505050565b60008082156113195760006112f0888886611332565b73ffffffffffffffffffffffffffffffffffffffff166000908152600360205260409020549150505b611327818888888888612c97565b979650505050505050565b73ffffffffffffffffffffffffffffffffffffffff80841660009081526002602090815260408083208685168452825280832085845290915290205416806113bc5760405162461bcd60e51b815260206004820152601560248201527f6d756c7469557365722f756e6b6f776e4f666665720000000000000000000000604482015260640161067d565b9392505050565b333014156114135760405162461bcd60e51b815260206004820152601260248201527f4d75746c692f6e6f5265656e7472616e63790000000000000000000000000000604482015260640161067d565b61141d3334612eff565b565b61144a6040518060800160405280600081526020016000815260200160008152602001600081525090565b60008061145d60808501606086016140fb565b6114835761146e6020850185613ab3565b61147e6040860160208701613ab3565b6114a0565b6114936040850160208601613ab3565b6114a06020860186613ab3565b6040517f23b872dd00000000000000000000000000000000000000000000000000000000815233600482015230602482015260a08701356044820152919350915073ffffffffffffffffffffffffffffffffffffffff8216906323b872dd906064016020604051808303816000875af1158015611521573d6000803e3d6000fd5b505050506040513d601f19601f820116820180604052508101906115459190613c8c565b6115915760405162461bcd60e51b815260206004820152601a60248201527f6d67764f726465722f6d6f2f7472616e73666572496e4661696c000000000000604482015260640161067d565b60005b6115a360e08601356001614118565b81101561175e57610100850135158015906115c257508461010001355a105b156115cc5761175e565b60008060007f000000000000000000000000000000000000000000000000000000000000000073ffffffffffffffffffffffffffffffffffffffff1663fbffe5fd87878b608001358c60a001358d606001602081019061162c91906140fb565b61163757600161163a565b60005b6040517fffffffff0000000000000000000000000000000000000000000000000000000060e088901b16815273ffffffffffffffffffffffffffffffffffffffff9586166004820152949093166024850152604484019190915260648301521515608482015260a4016060604051808303816000875af11580156116c2573d6000803e3d6000fd5b505050506040513d601f19601f820116820180604052508101906116e69190614130565b92509250925082876000018181516116fe9190614118565b905250602087018051839190611715908390614118565b90525060408701805182919061172c908390614118565b9052508215801561173b575080155b156117485750505061175e565b5050508080611756906140c2565b915050611594565b50600061176d83838787612f8a565b905061177f60608601604087016140fb565b15806117885750805b8061179e575061179e60e0860160c087016140fb565b6117ea5760405162461bcd60e51b815260206004820152601960248201527f6d67764f726465722f6d6f2f6e6f5061727469616c46696c6c00000000000000604482015260640161067d565b8351156118d75783516040517fa9059cbb000000000000000000000000000000000000000000000000000000008152336004820152602481019190915273ffffffffffffffffffffffffffffffffffffffff84169063a9059cbb906044016020604051808303816000875af1158015611867573d6000803e3d6000fd5b505050506040513d601f19601f8201168201806040525081019061188b9190613c8c565b6118d75760405162461bcd60e51b815260206004820152601b60248201527f6d67764f726465722f6d6f2f7472616e736665724f75744661696c0000000000604482015260640161067d565b6118e760e0860160c087016140fb565b80156118f1575080155b15611c945761192f82848660000151886080013561190f9190613cf1565b60208801516119229060a08b0135613cf1565b600154600080333461252f565b6060850152336119456040870160208801613ab3565b73ffffffffffffffffffffffffffffffffffffffff166119686020880188613ab3565b86516020808901516040808b01516060808d01518351968752948601939093529084015282015273ffffffffffffffffffffffffffffffffffffffff91909116907fa16c499b3b691af8f869978a2377c2aa40f30ab4d39cbdf8bb163ff6e3e16b159060800160405180910390a46060840151611c15576119ef60608601604087016140fb565b15611a3c5760405162461bcd60e51b815260206004820152601960248201527f6d67764f726465722f6d6f2f6e6f5061727469616c46696c6c00000000000000604482015260640161067d565b8173ffffffffffffffffffffffffffffffffffffffff1663a9059cbb3386602001518860a00135611a6d9190613cf1565b6040517fffffffff0000000000000000000000000000000000000000000000000000000060e085901b16815273ffffffffffffffffffffffffffffffffffffffff909216600483015260248201526044016020604051808303816000875af1158015611add573d6000803e3d6000fd5b505050506040513d601f19601f82011682018060405250810190611b019190613c8c565b611b4d5760405162461bcd60e51b815260206004820152601a60248201527f6d67764f726465722f6d6f2f7472616e73666572496e4661696c000000000000604482015260640161067d565b6000846040015134611b5f9190614118565b1115611c0d5760408401516000903390611b799034614118565b604051600081818185875af1925050503d8060008114611bb5576040519150601f19603f3d011682016040523d82523d6000602084013e611bba565b606091505b5050905080611c0b5760405162461bcd60e51b815260206004820152601f60248201527f6d67764f726465722f6d6f2f726566756e6450726f766973696f6e4661696c00604482015260640161067d565b505b505050919050565b611c33823386602001518860a00135611c2e9190613cf1565b6122da565b61012085013515611c0d57611c4d61012086013543614118565b73ffffffffffffffffffffffffffffffffffffffff808416600090815260056020908152604080832093881683529281528282206060890151835290522055505050919050565b8173ffffffffffffffffffffffffffffffffffffffff1663a9059cbb3386602001518860a00135611cc59190613cf1565b6040517fffffffff0000000000000000000000000000000000000000000000000000000060e085901b16815273ffffffffffffffffffffffffffffffffffffffff909216600483015260248201526044016020604051808303816000875af1158015611d35573d6000803e3d6000fd5b505050506040513d601f19601f82011682018060405250810190611d599190613c8c565b611da55760405162461bcd60e51b815260206004820152601a60248201527f6d67764f726465722f6d6f2f7472616e73666572496e4661696c000000000000604482015260640161067d565b6000846040015134611db79190614118565b1115611e655760408401516000903390611dd19034614118565b604051600081818185875af1925050503d8060008114611e0d576040519150601f19603f3d011682016040523d82523d6000602084013e611e12565b606091505b5050905080611e635760405162461bcd60e51b815260206004820152601660248201527f6d67764f726465722f6d6f2f726566756e644661696c00000000000000000000604482015260640161067d565b505b33611e766040870160208801613ab3565b73ffffffffffffffffffffffffffffffffffffffff16611e996020880188613ab3565b86516020808901516040808b01518151948552928401919091528201526000606082015273ffffffffffffffffffffffffffffffffffffffff91909116907fa16c499b3b691af8f869978a2377c2aa40f30ab4d39cbdf8bb163ff6e3e16b159060800160405180910390a4505050919050565b73ffffffffffffffffffffffffffffffffffffffff8216600090815260036020526040902054811115611f815760405162461bcd60e51b815260206004820152601d60248201527f4d756c74692f64656269744f6e4d67762f696e73756666696369656e74000000604482015260640161067d565b73ffffffffffffffffffffffffffffffffffffffff821660009081526003602052604081208054839290611fb6908490613cf1565b909155505060405181815273ffffffffffffffffffffffffffffffffffffffff8316907fd50b865b3d9d927f026d3b8404e07f25d6beb1d111deab51bdc846bf8d0a860b906020015b60405180910390a25050565b6040517f2e1a7d4d000000000000000000000000000000000000000000000000000000008152600481018290526000907f000000000000000000000000000000000000000000000000000000000000000073ffffffffffffffffffffffffffffffffffffffff1690632e1a7d4d906024016020604051808303816000875af115801561209b573d6000803e3d6000fd5b505050506040513d601f19601f820116820180604052508101906120bf9190613c8c565b61210b5760405162461bcd60e51b815260206004820152601e60248201527f6d67764f666665722f77697468647261772f7472616e736665724661696c0000604482015260640161067d565b73ffffffffffffffffffffffffffffffffffffffff8316301461218e5760405173ffffffffffffffffffffffffffffffffffffffff8416908390600081818185875af1925050503d806000811461217e576040519150601f19603f3d011682016040523d82523d6000602084013e612183565b606091505b50508091505061069d565b50600192915050565b806121a157505050565b73ffffffffffffffffffffffffffffffffffffffff8084166000908152600460209081526040808320938616835292905220548111156122235760405162461bcd60e51b815260206004820152601d60248201527f4d756c74692f6465626974546f6b656e2f696e73756666696369656e74000000604482015260640161067d565b73ffffffffffffffffffffffffffffffffffffffff808416600090815260046020908152604080832093861683529290529081208054839290612267908490613cf1565b925050819055508273ffffffffffffffffffffffffffffffffffffffff168273ffffffffffffffffffffffffffffffffffffffff167f7a97b405ee1bd89550b225932dbdd0431e30426b7c8f02f05b3cb0e1bdfb8476836040516122cd91815260200190565b60405180910390a3505050565b73ffffffffffffffffffffffffffffffffffffffff80841660009081526004602090815260408083209386168352929052908120805483929061231e908490614118565b925050819055508273ffffffffffffffffffffffffffffffffffffffff168273ffffffffffffffffffffffffffffffffffffffff167fb2b1ec266d1bab793ae1d020eedf03e575cc390e5fb9e370cb099fdf2f61534d836040516122cd91815260200190565b600061238f826130c6565b1561239c57506001919050565b60006123c86123ae6020850185613ab3565b6123be6040860160208701613ab3565b8560400135611332565b90506123d4838261328a565b6123e15750600092915050565b73ffffffffffffffffffffffffffffffffffffffff8116600090815260036020526040902054612412908290611f0c565b73ffffffffffffffffffffffffffffffffffffffff811660009081526003602052604090205461244390829061200b565b61218e576040830180359061245b9060208601613ab3565b73ffffffffffffffffffffffffffffffffffffffff1661247e6020860186613ab3565b73ffffffffffffffffffffffffffffffffffffffff167fd2c3f090769d843e1fc2e6ce65d60572e28f9163a5cfccbd6c1725c6a9263f2f6040516124e5907f6d67764f726465722f706f7374686f6f6b2f7472616e73666572576569000000815260200190565b60405180910390a450600092915050565b6000806125236125096020860186613ab3565b6125196040870160208801613ab3565b8660400135611332565b9050610799848261328a565b6040517f70a08231000000000000000000000000000000000000000000000000000000008152306004820152600090819073ffffffffffffffffffffffffffffffffffffffff7f000000000000000000000000000000000000000000000000000000000000000016906370a0823190602401602060405180830381865afa1580156125be573d6000803e3d6000fd5b505050506040513d601f19601f820116820180604052508101906125e29190613ca9565b905062ffffff8711156125f55760015496505b6040517f49f6d2dc00000000000000000000000000000000000000000000000000000000815273ffffffffffffffffffffffffffffffffffffffff8c811660048301528b81166024830152604482018b9052606482018a90526084820189905260a4820188905260c482018790527f000000000000000000000000000000000000000000000000000000000000000016906349f6d2dc90859060e40160206040518083038185885af11580156126af573d6000803e3d6000fd5b50505050506040513d601f19601f820116820180604052508101906126d49190613ca9565b91506126e28b8b84876134fb565b6126ec848261359f565b509998505050505050505050565b600060606127098c8c87611332565b73ffffffffffffffffffffffffffffffffffffffff168473ffffffffffffffffffffffffffffffffffffffff16146127835760405162461bcd60e51b815260206004820152601e60248201527f4d756c74692f7570646174654f666665722f756e617574686f72697a65640000604482015260640161067d565b6040517f70a082310000000000000000000000000000000000000000000000000000000081523060048201526000907f000000000000000000000000000000000000000000000000000000000000000073ffffffffffffffffffffffffffffffffffffffff16906370a0823190602401602060405180830381865afa158015612810573d6000803e3d6000fd5b505050506040513d601f19601f820116820180604052508101906128349190613ca9565b905062ffffff8911156128475760015498505b6040517f6a4f769100000000000000000000000000000000000000000000000000000000815273ffffffffffffffffffffffffffffffffffffffff8e811660048301528d81166024830152604482018d9052606482018c9052608482018b905260a482018a905260c4820189905260e482018890527f00000000000000000000000000000000000000000000000000000000000000001690636a4f7691908690610104016000604051808303818588803b15801561290457600080fd5b505af193505050508015612916575060015b61295b5761292261415e565b806308c379a0141561294f575061293761417a565b806129425750612951565b60009350915061297a9050565b505b3d6000803e3d6000fd5b612965858261359f565b50506040805160208101909152600081528491505b9a509a98505050505050505050565b60008060058161299c6020860186613ab3565b73ffffffffffffffffffffffffffffffffffffffff1673ffffffffffffffffffffffffffffffffffffffff16815260200190815260200160002060008460200160208101906129eb9190613ab3565b73ffffffffffffffffffffffffffffffffffffffff1681526020808201929092526040908101600090812086830135825290925290205490508015806113bc575043111592915050565b600080612a486123ae6020850185613ab3565b9050612a64612a5d6040850160208601613ab3565b828661368d565b612a6e5783610799565b5060009392505050565b600080612a8b6123ae6020850185613ab3565b90506000600481612a9f6020870187613ab3565b73ffffffffffffffffffffffffffffffffffffffff90811682526020808301939093526040918201600090812091861681529252902054905084811015612b0a57612af7612af06020860186613ab3565b8383612197565b612b018186613cf1565b9250505061069d565b612b21612b1a6020860186613ab3565b8387612197565b60009250505061069d565b73ffffffffffffffffffffffffffffffffffffffff8581166000908152600260209081526040808320888516845282528083208784529091528120549091838116911614612bbc5760405162461bcd60e51b815260206004820152601f60248201527f4d756c74692f726574726163744f666665722f756e617574686f72697a656400604482015260640161067d565b6040517fad97db1b00000000000000000000000000000000000000000000000000000000815273ffffffffffffffffffffffffffffffffffffffff878116600483015286811660248301526044820186905284151560648301527f0000000000000000000000000000000000000000000000000000000000000000169063ad97db1b906084016020604051808303816000875af1158015612c61573d6000803e3d6000fd5b505050506040513d601f19601f82011682018060405250810190612c859190613ca9565b90508015610f7e57610f7e82826137a9565b6040517fcbf75c9a00000000000000000000000000000000000000000000000000000000815273ffffffffffffffffffffffffffffffffffffffff86811660048301528581166024830152600091829182917f00000000000000000000000000000000000000000000000000000000000000009091169063cbf75c9a906044016040805180830381865afa158015612d33573d6000803e3d6000fd5b505050506040513d601f19601f82011682018060405250810190612d579190614222565b6040517f5722647b00000000000000000000000000000000000000000000000000000000815273ffffffffffffffffffffffffffffffffffffffff8b811660048301528a81166024830152604482018890529294509092506000917f00000000000000000000000000000000000000000000000000000000000000001690635722647b90606401602060405180830381865afa158015612dfb573d6000803e3d6000fd5b505050506040513d601f19601f82011682018060405250810190612e1f9190613ca9565b9050600086604085901c61ffff161115612e42575061ffff604084901c16612e45565b50855b62ffffff881115612e565760015497505b600081612e6c62ffffff606087901c168b614118565b612e769190614246565b612e8490633b9aca00614246565b9050600061ffff602085901c16612eab62ffffff603087901c811690604888901c16614118565b612eb59190614246565b612ec390633b9aca00614246565b90506000612ed18e83614118565b905082811015612eea57612ee58184613cf1565b612eed565b60005b9e9d5050505050505050505050505050565b7f000000000000000000000000000000000000000000000000000000000000000073ffffffffffffffffffffffffffffffffffffffff1663b60d4288826040518263ffffffff1660e01b81526004016000604051808303818588803b158015612f6757600080fd5b505af1158015612f7b573d6000803e3d6000fd5b505050505061113382826137a9565b6000612f9c60808401606085016140fb565b15612fb4578260a00135826020015110159050610799565b612fc460808401606085016140fb565b610799576040517fcbf75c9a00000000000000000000000000000000000000000000000000000000815273ffffffffffffffffffffffffffffffffffffffff868116600483015285811660248301526000917f00000000000000000000000000000000000000000000000000000000000000009091169063cbf75c9a906044016040805180830381865afa158015613060573d6000803e3d6000fd5b505050506040513d601f19601f820116820180604052508101906130849190614222565b915061271090506130a161ffff60e884901c166080870135614246565b6130ab9190614283565b6130b9906080860135613cf1565b8351101591506107999050565b6000806130d28361382b565b905060006130df84613850565b9050816130f0575060019392505050565b73ffffffffffffffffffffffffffffffffffffffff7f000000000000000000000000000000000000000000000000000000000000000016636a4f76916131396020870187613ab3565b6131496040880160208901613ab3565b848660c08a013560481c62ffffff1660c08b013560201c61ffff1660608c013560c01c63ffffffff16604080517fffffffff0000000000000000000000000000000000000000000000000000000060e08b901b16815273ffffffffffffffffffffffffffffffffffffffff988916600482015297909616602488015260448701949094526064860192909252608485015260a484015260c483015287013560e482015261010401600060405180830381600087803b15801561320a57600080fd5b505af192505050801561321b575060015b6132805761327561322f6020860186613ab3565b61323f6040870160208801613ab3565b6040870135600161327061325660208b018b613ab3565b61326660408c0160208d01613ab3565b8b60400135611332565b612b2c565b506000949350505050565b5060019392505050565b60008060048161329d6020870187613ab3565b73ffffffffffffffffffffffffffffffffffffffff9081168252602080830193909352604091820160009081209187168152908352205491506132ed906132e690860186613ab3565b848361368d565b6133a157604084018035906133059060208701613ab3565b73ffffffffffffffffffffffffffffffffffffffff166133286020870187613ab3565b73ffffffffffffffffffffffffffffffffffffffff167fd2c3f090769d843e1fc2e6ce65d60572e28f9163a5cfccbd6c1725c6a9263f2f60405161338f907f6d67764f726465722f72656465656d416c6c2f7472616e736665724f75740000815260200190565b60405180910390a4600091505061069d565b6133b86133b16020860186613ab3565b8483612197565b60006004816133cd6040880160208901613ab3565b73ffffffffffffffffffffffffffffffffffffffff90811682526020808301939093526040918201600090812091881681529083528190205492506134219161341a918801908801613ab3565b858361368d565b6134d657604085018035906134399060208801613ab3565b73ffffffffffffffffffffffffffffffffffffffff1661345c6020880188613ab3565b73ffffffffffffffffffffffffffffffffffffffff167fd2c3f090769d843e1fc2e6ce65d60572e28f9163a5cfccbd6c1725c6a9263f2f6040516134c3907f6d67764f726465722f72656465656d416c6c2f7472616e73666572496e000000815260200190565b60405180910390a460009250505061069d565b6134f06134e96040870160208801613ab3565b8583612197565b506001949350505050565b73ffffffffffffffffffffffffffffffffffffffff848116600081815260026020908152604080832088861680855290835281842088855283529281902080547fffffffffffffffffffffffff00000000000000000000000000000000000000001695871695861790555193845285939192917fabf04a4ce23225c02bd147297da7ffc10e7d29102d8678f1a63fdd2cfd71ff07910160405180910390a450505050565b6040517f70a082310000000000000000000000000000000000000000000000000000000081523060048201526000907f000000000000000000000000000000000000000000000000000000000000000073ffffffffffffffffffffffffffffffffffffffff16906370a0823190602401602060405180830381865afa15801561362c573d6000803e3d6000fd5b505050506040513d601f19601f820116820180604052508101906136509190613ca9565b90508181141561365f57505050565b8181111561367a57610c46836136758484613cf1565b6137a9565b610c46836136888385613cf1565b611f0c565b60008161369c575060016113bc565b6040805173ffffffffffffffffffffffffffffffffffffffff8581166024830152604480830186905283518084039091018152606490920183526020820180517bffffffffffffffffffffffffffffffffffffffffffffffffffffffff167fa9059cbb00000000000000000000000000000000000000000000000000000000179052915160009283929088169161373391906142be565b6000604051808303816000865af19150503d8060008114613770576040519150601f19603f3d011682016040523d82523d6000602084013e613775565b606091505b509150915081801561379f57508051158061379f57508080602001905181019061379f9190613c8c565b9695505050505050565b73ffffffffffffffffffffffffffffffffffffffff8216600090815260036020526040812080548392906137de908490614118565b909155505060405181815273ffffffffffffffffffffffffffffffffffffffff8316907f2022607feefe24f258126b277628af517f5512dd9499fb3520eeff54cad1370390602001611fff565b600060808201356bffffffffffffffffffffffff6060840135165b61069d9190613cf1565b600060a0820135606080840135901c6bffffffffffffffffffffffff16613846565b73ffffffffffffffffffffffffffffffffffffffff8116811461389457600080fd5b50565b600080604083850312156138aa57600080fd5b82356138b581613872565b946020939093013593505050565b6000806000606084860312156138d857600080fd5b83356138e381613872565b925060208401356138f381613872565b929592945050506040919091013590565b6000806040838503121561391757600080fd5b823561392281613872565b9150602083013561393281613872565b809150509250929050565b60006020828403121561394f57600080fd5b5035919050565b60006101208284031215610ebb57600080fd5b60008082840361016081121561397e57600080fd5b6139888585613956565b925060407ffffffffffffffffffffffffffffffffffffffffffffffffffffffffffffffee0820112156139ba57600080fd5b50610120830190509250929050565b600080600080600080600060e0888a0312156139e457600080fd5b87356139ef81613872565b965060208801356139ff81613872565b96999698505050506040850135946060810135946080820135945060a0820135935060c0909101359150565b600080600080600080600080610100898b031215613a4857600080fd5b8835613a5381613872565b97506020890135613a6381613872565b979a9799505050506040860135956060810135956080820135955060a0820135945060c0820135935060e0909101359150565b60006101208284031215613aa957600080fd5b61069a8383613956565b600060208284031215613ac557600080fd5b81356113bc81613872565b801515811461389457600080fd5b60008060008060808587031215613af457600080fd5b8435613aff81613872565b93506020850135613b0f81613872565b9250604085013591506060850135613b2681613ad0565b939692955090935050565b600080600080600060a08688031215613b4957600080fd5b8535613b5481613872565b94506020860135613b6481613872565b93506040860135613b7481613872565b94979396509394606081013594506080013592915050565b6000606082018583526020606081850152818651808452608086019150828801935060005b81811015613bcd57845183529383019391830191600101613bb1565b50508481036040860152855180825290820192508186019060005b81811015613c1a57825173ffffffffffffffffffffffffffffffffffffffff1685529383019391830191600101613be8565b509298975050505050505050565b600080600080600060a08688031215613c4057600080fd5b8535613c4b81613872565b94506020860135613c5b81613872565b94979496505050506040830135926060810135926080909101359150565b60006101408284031215610ebb57600080fd5b600060208284031215613c9e57600080fd5b81516113bc81613ad0565b600060208284031215613cbb57600080fd5b5051919050565b7f4e487b7100000000000000000000000000000000000000000000000000000000600052601160045260246000fd5b600082821015613d0357613d03613cc2565b500390565b60005b83811015613d23578181015183820152602001613d0b565b83811115610bac5750506000910152565b6020815260008251806020840152613d53816040850160208701613d08565b601f017fffffffffffffffffffffffffffffffffffffffffffffffffffffffffffffffe0169190910160400192915050565b7f4e487b7100000000000000000000000000000000000000000000000000000000600052604160045260246000fd5b6080810181811067ffffffffffffffff82111715613dd457613dd4613d85565b60405250565b7fffffffffffffffffffffffffffffffffffffffffffffffffffffffffffffffe0601f830116810181811067ffffffffffffffff82111715613e1e57613e1e613d85565b6040525050565b600067ffffffffffffffff821115613e3f57613e3f613d85565b5060051b60200190565b600082601f830112613e5a57600080fd5b81516020613e6782613e25565b60408051613e758382613dda565b84815260079490941b8601830193838101925087851115613e9557600080fd5b8387015b85811015613ee9576080818a031215613eb25760008081fd5b8251613ebd81613db4565b815181528582015186820152838201518482015260608083015190820152845292840192608001613e99565b50979650505050505050565b600082601f830112613f0657600080fd5b81516020613f1382613e25565b60408051613f218382613dda565b84815260079490941b8601830193838101925087851115613f4157600080fd5b8387015b85811015613ee9576080818a031215613f5e5760008081fd5b8251613f6981613db4565b8151613f7481613872565b81528186015186820152838201518482015260608083015190820152845292840192608001613f45565b60008060008060808587031215613fb457600080fd5b8451935060208086015167ffffffffffffffff80821115613fd457600080fd5b818801915088601f830112613fe857600080fd5b8151613ff381613e25565b6040516140008282613dda565b82815260059290921b840185019185810191508b83111561402057600080fd5b938501935b8285101561403e57845182529385019390850190614025565b60408b0151909850945050508083111561405757600080fd5b61406389848a01613e49565b9450606088015192508083111561407957600080fd5b505061408787828801613ef5565b91505092959194509250565b7f4e487b7100000000000000000000000000000000000000000000000000000000600052603260045260246000fd5b60007fffffffffffffffffffffffffffffffffffffffffffffffffffffffffffffffff8214156140f4576140f4613cc2565b5060010190565b60006020828403121561410d57600080fd5b81356113bc81613ad0565b6000821982111561412b5761412b613cc2565b500190565b60008060006060848603121561414557600080fd5b8351925060208401519150604084015190509250925092565b600060033d11156141775760046000803e5060005160e01c5b90565b600060443d10156141885790565b6040517ffffffffffffffffffffffffffffffffffffffffffffffffffffffffffffffffc803d016004833e81513d67ffffffffffffffff81602484011181841117156141d657505050505090565b82850191508151818111156141ee5750505050505090565b843d87010160208285010111156142085750505050505090565b61421760208286010187613dda565b509095945050505050565b6000806040838503121561423557600080fd5b505080516020909101519092909150565b6000817fffffffffffffffffffffffffffffffffffffffffffffffffffffffffffffffff048311821515161561427e5761427e613cc2565b500290565b6000826142b9577f4e487b7100000000000000000000000000000000000000000000000000000000600052601260045260246000fd5b500490565b600082516142d0818460208701613d08565b919091019291505056fea2646970667358221220e15c96f06b131956f1cbbc56531b85919e582252131e9034d8fa829abfbd19cd64736f6c634300080a0033",
  "linkReferences": {},
  "deployedLinkReferences": {}
}