{
  "_format": "hh-sol-artifact-1",
  "contractName": "MangroveOrder",
  "sourceName": "contracts/Strategies/OrderLogics/MangroveOrder.sol",
  "abi": [
    {
      "inputs": [
        {
          "internalType": "address payable",
          "name": "_MGV",
          "type": "address"
        }
      ],
      "stateMutability": "nonpayable",
      "type": "constructor"
    },
    {
      "anonymous": false,
      "inputs": [
        {
          "indexed": true,
          "internalType": "address",
          "name": "user",
          "type": "address"
        },
        {
          "indexed": false,
          "internalType": "uint256",
          "name": "amount",
          "type": "uint256"
        }
      ],
      "name": "CreditMgvUser",
      "type": "event"
    },
    {
      "anonymous": false,
      "inputs": [
        {
          "indexed": true,
          "internalType": "address",
          "name": "user",
          "type": "address"
        },
        {
          "indexed": true,
          "internalType": "address",
          "name": "token",
          "type": "address"
        },
        {
          "indexed": false,
          "internalType": "uint256",
          "name": "amount",
          "type": "uint256"
        }
      ],
      "name": "CreditUserTokenBalance",
      "type": "event"
    },
    {
      "anonymous": false,
      "inputs": [
        {
          "indexed": true,
          "internalType": "address",
          "name": "user",
          "type": "address"
        },
        {
          "indexed": false,
          "internalType": "uint256",
          "name": "amount",
          "type": "uint256"
        }
      ],
      "name": "DebitMgvUser",
      "type": "event"
    },
    {
      "anonymous": false,
      "inputs": [
        {
          "indexed": true,
          "internalType": "address",
          "name": "user",
          "type": "address"
        },
        {
          "indexed": true,
          "internalType": "address",
          "name": "token",
          "type": "address"
        },
        {
          "indexed": false,
          "internalType": "uint256",
          "name": "amount",
          "type": "uint256"
        }
      ],
      "name": "DebitUserTokenBalance",
      "type": "event"
    },
    {
      "anonymous": false,
      "inputs": [
        {
          "indexed": true,
          "internalType": "address",
          "name": "outbound_tkn",
          "type": "address"
        },
        {
          "indexed": true,
          "internalType": "address",
          "name": "inbound_tkn",
          "type": "address"
        },
        {
          "indexed": true,
          "internalType": "uint256",
          "name": "offerId",
          "type": "uint256"
        },
        {
          "indexed": false,
          "internalType": "bytes32",
          "name": "reason",
          "type": "bytes32"
        }
      ],
      "name": "LogIncident",
      "type": "event"
    },
    {
      "anonymous": false,
      "inputs": [
        {
          "indexed": true,
          "internalType": "address",
          "name": "outbound_tkn",
          "type": "address"
        },
        {
          "indexed": true,
          "internalType": "address",
          "name": "inbound_tkn",
          "type": "address"
        },
        {
          "indexed": true,
          "internalType": "uint256",
          "name": "offerId",
          "type": "uint256"
        },
        {
          "indexed": false,
          "internalType": "address",
          "name": "owner",
          "type": "address"
        }
      ],
      "name": "NewOwnedOffer",
      "type": "event"
    },
    {
      "anonymous": false,
      "inputs": [
        {
          "indexed": true,
          "internalType": "address",
          "name": "base",
          "type": "address"
        },
        {
          "indexed": true,
          "internalType": "address",
          "name": "quote",
          "type": "address"
        },
        {
          "indexed": true,
          "internalType": "address",
          "name": "taker",
          "type": "address"
        },
        {
          "indexed": false,
          "internalType": "uint256",
          "name": "takerGot",
          "type": "uint256"
        },
        {
          "indexed": false,
          "internalType": "uint256",
          "name": "takerGave",
          "type": "uint256"
        },
        {
          "indexed": false,
          "internalType": "uint256",
          "name": "penalty",
          "type": "uint256"
        },
        {
          "indexed": false,
          "internalType": "uint256",
          "name": "restingOrderId",
          "type": "uint256"
        }
      ],
      "name": "OrderSummary",
      "type": "event"
    },
    {
      "inputs": [],
      "name": "MGV",
      "outputs": [
        {
          "internalType": "contract IMangrove",
          "name": "",
          "type": "address"
        }
      ],
      "stateMutability": "view",
      "type": "function"
    },
    {
      "inputs": [],
      "name": "OFR_GASREQ",
      "outputs": [
        {
          "internalType": "uint256",
          "name": "",
          "type": "uint256"
        }
      ],
      "stateMutability": "view",
      "type": "function"
    },
    {
      "inputs": [],
      "name": "OUTOFLIQUIDITY",
      "outputs": [
        {
          "internalType": "bytes32",
          "name": "",
          "type": "bytes32"
        }
      ],
      "stateMutability": "view",
      "type": "function"
    },
    {
      "inputs": [],
      "name": "PUTFAILURE",
      "outputs": [
        {
          "internalType": "bytes32",
          "name": "",
          "type": "bytes32"
        }
      ],
      "stateMutability": "view",
      "type": "function"
    },
    {
      "inputs": [],
      "name": "RENEGED",
      "outputs": [
        {
          "internalType": "bytes32",
          "name": "",
          "type": "bytes32"
        }
      ],
      "stateMutability": "view",
      "type": "function"
    },
    {
      "inputs": [],
      "name": "admin",
      "outputs": [
        {
          "internalType": "address",
          "name": "",
          "type": "address"
        }
      ],
      "stateMutability": "view",
      "type": "function"
    },
    {
      "inputs": [
        {
          "internalType": "address",
          "name": "outbound_tkn",
          "type": "address"
        }
      ],
      "name": "approveMangrove",
      "outputs": [],
      "stateMutability": "nonpayable",
      "type": "function"
    },
    {
      "inputs": [],
      "name": "balanceOnMangrove",
      "outputs": [
        {
          "internalType": "uint256",
          "name": "",
          "type": "uint256"
        }
      ],
      "stateMutability": "view",
      "type": "function"
    },
    {
      "inputs": [
        {
          "internalType": "address",
          "name": "token",
          "type": "address"
        },
        {
          "internalType": "uint256",
          "name": "amount",
          "type": "uint256"
        }
      ],
      "name": "depositToken",
      "outputs": [
        {
          "internalType": "bool",
          "name": "success",
          "type": "bool"
        }
      ],
      "stateMutability": "nonpayable",
      "type": "function"
    },
    {
      "inputs": [
        {
          "internalType": "address",
          "name": "",
          "type": "address"
        },
        {
          "internalType": "address",
          "name": "",
          "type": "address"
        },
        {
          "internalType": "uint256",
          "name": "",
          "type": "uint256"
        }
      ],
      "name": "expiring",
      "outputs": [
        {
          "internalType": "uint256",
          "name": "",
          "type": "uint256"
        }
      ],
      "stateMutability": "view",
      "type": "function"
    },
    {
      "inputs": [],
      "name": "fundMangrove",
      "outputs": [],
      "stateMutability": "payable",
      "type": "function"
    },
    {
      "inputs": [
        {
          "internalType": "address",
          "name": "outbound_tkn",
          "type": "address"
        },
        {
          "internalType": "address",
          "name": "inbound_tkn",
          "type": "address"
        },
        {
          "internalType": "uint256",
          "name": "gasreq",
          "type": "uint256"
        },
        {
          "internalType": "uint256",
          "name": "gasprice",
          "type": "uint256"
        },
        {
          "internalType": "uint256",
          "name": "offerId",
          "type": "uint256"
        }
      ],
      "name": "getMissingProvision",
      "outputs": [
        {
          "internalType": "uint256",
          "name": "",
          "type": "uint256"
        }
      ],
      "stateMutability": "view",
      "type": "function"
    },
    {
      "inputs": [
        {
          "components": [
            {
              "internalType": "address",
              "name": "outbound_tkn",
              "type": "address"
            },
            {
              "internalType": "address",
              "name": "inbound_tkn",
              "type": "address"
            },
            {
              "internalType": "uint256",
              "name": "offerId",
              "type": "uint256"
            },
            {
              "internalType": "Offer.t",
              "name": "offer",
              "type": "uint256"
            },
            {
              "internalType": "uint256",
              "name": "wants",
              "type": "uint256"
            },
            {
              "internalType": "uint256",
              "name": "gives",
              "type": "uint256"
            },
            {
              "internalType": "OfferDetail.t",
              "name": "offerDetail",
              "type": "uint256"
            },
            {
              "internalType": "Global.t",
              "name": "global",
              "type": "uint256"
            },
            {
              "internalType": "Local.t",
              "name": "local",
              "type": "uint256"
            }
          ],
          "internalType": "struct MgvLib.SingleOrder",
          "name": "order",
          "type": "tuple"
        }
      ],
      "name": "makerExecute",
      "outputs": [
        {
          "internalType": "bytes32",
          "name": "ret",
          "type": "bytes32"
        }
      ],
      "stateMutability": "nonpayable",
      "type": "function"
    },
    {
      "inputs": [
        {
          "components": [
            {
              "internalType": "address",
              "name": "outbound_tkn",
              "type": "address"
            },
            {
              "internalType": "address",
              "name": "inbound_tkn",
              "type": "address"
            },
            {
              "internalType": "uint256",
              "name": "offerId",
              "type": "uint256"
            },
            {
              "internalType": "Offer.t",
              "name": "offer",
              "type": "uint256"
            },
            {
              "internalType": "uint256",
              "name": "wants",
              "type": "uint256"
            },
            {
              "internalType": "uint256",
              "name": "gives",
              "type": "uint256"
            },
            {
              "internalType": "OfferDetail.t",
              "name": "offerDetail",
              "type": "uint256"
            },
            {
              "internalType": "Global.t",
              "name": "global",
              "type": "uint256"
            },
            {
              "internalType": "Local.t",
              "name": "local",
              "type": "uint256"
            }
          ],
          "internalType": "struct MgvLib.SingleOrder",
          "name": "order",
          "type": "tuple"
        },
        {
          "components": [
            {
              "internalType": "bytes32",
              "name": "makerData",
              "type": "bytes32"
            },
            {
              "internalType": "bytes32",
              "name": "mgvData",
              "type": "bytes32"
            }
          ],
          "internalType": "struct MgvLib.OrderResult",
          "name": "result",
          "type": "tuple"
        }
      ],
      "name": "makerPosthook",
      "outputs": [],
      "stateMutability": "nonpayable",
      "type": "function"
    },
    {
      "inputs": [
        {
          "internalType": "address",
          "name": "",
          "type": "address"
        }
      ],
      "name": "mgvBalance",
      "outputs": [
        {
          "internalType": "uint256",
          "name": "",
          "type": "uint256"
        }
      ],
      "stateMutability": "view",
      "type": "function"
    },
    {
      "inputs": [
        {
          "internalType": "address",
          "name": "outbound_tkn",
          "type": "address"
        },
        {
          "internalType": "address",
          "name": "inbound_tkn",
          "type": "address"
        },
        {
          "internalType": "uint256",
          "name": "wants",
          "type": "uint256"
        },
        {
          "internalType": "uint256",
          "name": "gives",
          "type": "uint256"
        },
        {
          "internalType": "uint256",
          "name": "gasreq",
          "type": "uint256"
        },
        {
          "internalType": "uint256",
          "name": "gasprice",
          "type": "uint256"
        },
        {
          "internalType": "uint256",
          "name": "pivotId",
          "type": "uint256"
        }
      ],
      "name": "newOffer",
      "outputs": [
        {
          "internalType": "uint256",
          "name": "offerId",
          "type": "uint256"
        }
      ],
      "stateMutability": "payable",
      "type": "function"
    },
    {
      "inputs": [
        {
          "internalType": "address",
          "name": "reader",
          "type": "address"
        },
        {
          "internalType": "address",
          "name": "outbound_tkn",
          "type": "address"
        },
        {
          "internalType": "address",
          "name": "inbound_tkn",
          "type": "address"
        },
        {
          "internalType": "uint256",
          "name": "fromId",
          "type": "uint256"
        },
        {
          "internalType": "uint256",
          "name": "maxOffers",
          "type": "uint256"
        }
      ],
      "name": "offerOwners",
      "outputs": [
        {
          "internalType": "uint256",
          "name": "nextId",
          "type": "uint256"
        },
        {
          "internalType": "uint256[]",
          "name": "offerIds",
          "type": "uint256[]"
        },
        {
          "internalType": "address[]",
          "name": "__offerOwners",
          "type": "address[]"
        }
      ],
      "stateMutability": "view",
      "type": "function"
    },
    {
      "inputs": [
        {
          "internalType": "address",
          "name": "outbound_tkn",
          "type": "address"
        },
        {
          "internalType": "address",
          "name": "inbound_tkn",
          "type": "address"
        },
        {
          "internalType": "uint256",
          "name": "offerId",
          "type": "uint256"
        }
      ],
      "name": "ownerOf",
      "outputs": [
        {
          "internalType": "address",
          "name": "owner",
          "type": "address"
        }
      ],
      "stateMutability": "view",
      "type": "function"
    },
    {
      "inputs": [
        {
          "internalType": "address",
          "name": "token",
          "type": "address"
        },
        {
          "internalType": "address",
          "name": "receiver",
          "type": "address"
        },
        {
          "internalType": "uint256",
          "name": "amount",
          "type": "uint256"
        }
      ],
      "name": "redeemToken",
      "outputs": [
        {
          "internalType": "bool",
          "name": "success",
          "type": "bool"
        }
      ],
      "stateMutability": "nonpayable",
      "type": "function"
    },
    {
      "inputs": [
        {
          "internalType": "address",
          "name": "outbound_tkn",
          "type": "address"
        },
        {
          "internalType": "address",
          "name": "inbound_tkn",
          "type": "address"
        },
        {
          "internalType": "uint256",
          "name": "offerId",
          "type": "uint256"
        },
        {
          "internalType": "bool",
          "name": "deprovision",
          "type": "bool"
        }
      ],
      "name": "retractOffer",
      "outputs": [
        {
          "internalType": "uint256",
          "name": "received",
          "type": "uint256"
        }
      ],
      "stateMutability": "nonpayable",
      "type": "function"
    },
    {
      "inputs": [
        {
          "internalType": "address",
          "name": "_admin",
          "type": "address"
        }
      ],
      "name": "setAdmin",
      "outputs": [],
      "stateMutability": "nonpayable",
      "type": "function"
    },
    {
      "inputs": [
        {
          "internalType": "uint256",
          "name": "gasreq",
          "type": "uint256"
        }
      ],
      "name": "setGasreq",
      "outputs": [],
      "stateMutability": "nonpayable",
      "type": "function"
    },
    {
      "inputs": [
        {
          "components": [
            {
              "internalType": "address",
              "name": "base",
              "type": "address"
            },
            {
              "internalType": "address",
              "name": "quote",
              "type": "address"
            },
            {
              "internalType": "bool",
              "name": "partialFillNotAllowed",
              "type": "bool"
            },
            {
              "internalType": "bool",
              "name": "selling",
              "type": "bool"
            },
            {
              "internalType": "uint256",
              "name": "wants",
              "type": "uint256"
            },
            {
              "internalType": "uint256",
              "name": "gives",
              "type": "uint256"
            },
            {
              "internalType": "bool",
              "name": "restingOrder",
              "type": "bool"
            },
            {
              "internalType": "uint256",
              "name": "retryNumber",
              "type": "uint256"
            },
            {
              "internalType": "uint256",
              "name": "gasForMarketOrder",
              "type": "uint256"
            },
            {
              "internalType": "uint256",
              "name": "blocksToLiveForRestingOrder",
              "type": "uint256"
            }
          ],
          "internalType": "struct IOrderLogic.TakerOrder",
          "name": "tko",
          "type": "tuple"
        }
      ],
      "name": "take",
      "outputs": [
        {
          "components": [
            {
              "internalType": "uint256",
              "name": "takerGot",
              "type": "uint256"
            },
            {
              "internalType": "uint256",
              "name": "takerGave",
              "type": "uint256"
            },
            {
              "internalType": "uint256",
              "name": "bounty",
              "type": "uint256"
            },
            {
              "internalType": "uint256",
              "name": "offerId",
              "type": "uint256"
            }
          ],
          "internalType": "struct IOrderLogic.TakerOrderResult",
          "name": "res",
          "type": "tuple"
        }
      ],
      "stateMutability": "payable",
      "type": "function"
    },
    {
      "inputs": [
        {
          "internalType": "address",
          "name": "token",
          "type": "address"
        }
      ],
      "name": "tokenBalance",
      "outputs": [
        {
          "internalType": "uint256",
          "name": "",
          "type": "uint256"
        }
      ],
      "stateMutability": "view",
      "type": "function"
    },
    {
      "inputs": [
        {
          "internalType": "address",
          "name": "",
          "type": "address"
        },
        {
          "internalType": "address",
          "name": "",
          "type": "address"
        }
      ],
      "name": "tokenBalanceOf",
      "outputs": [
        {
          "internalType": "uint256",
          "name": "",
          "type": "uint256"
        }
      ],
      "stateMutability": "view",
      "type": "function"
    },
    {
      "inputs": [
        {
          "internalType": "address",
          "name": "outbound_tkn",
          "type": "address"
        },
        {
          "internalType": "address",
          "name": "inbound_tkn",
          "type": "address"
        },
        {
          "internalType": "uint256",
          "name": "wants",
          "type": "uint256"
        },
        {
          "internalType": "uint256",
          "name": "gives",
          "type": "uint256"
        },
        {
          "internalType": "uint256",
          "name": "gasreq",
          "type": "uint256"
        },
        {
          "internalType": "uint256",
          "name": "gasprice",
          "type": "uint256"
        },
        {
          "internalType": "uint256",
          "name": "pivotId",
          "type": "uint256"
        },
        {
          "internalType": "uint256",
          "name": "offerId",
          "type": "uint256"
        }
      ],
      "name": "updateOffer",
      "outputs": [],
      "stateMutability": "payable",
      "type": "function"
    },
    {
      "inputs": [
        {
          "internalType": "address payable",
          "name": "receiver",
          "type": "address"
        },
        {
          "internalType": "uint256",
          "name": "amount",
          "type": "uint256"
        }
      ],
      "name": "withdrawFromMangrove",
      "outputs": [
        {
          "internalType": "bool",
          "name": "noRevert",
          "type": "bool"
        }
      ],
      "stateMutability": "nonpayable",
      "type": "function"
    },
    {
      "stateMutability": "payable",
      "type": "receive"
    }
  ],
  "bytecode": "0x6101006040527f6d67764f666665722f61626f72742f72656e65676564000000000000000000006080527f6d67764f666665722f61626f72742f7075744661696c6564000000000000000060a0527f6d67764f666665722f61626f72742f6765744661696c6564000000000000000060c052620186a06001553480156200008557600080fd5b506040516200443738038062004437833981016040819052620000a891620000cc565b600080546001600160a01b031916331790556001600160a01b031660e052620000fe565b600060208284031215620000df57600080fd5b81516001600160a01b0381168114620000f757600080fd5b9392505050565b60805160a05160c05160e051614288620001af6000396000818161042d01528181610a0b01528181610ad401528181610d0701528181610fac0152818161154a01528181611fb4015281816124ee015281816125dc0152818161272b0152818161283501528181612b8f01528181612c6201528181612d2b01528181612e7801528181612f9301528181613082015261354b015260006103c50152600061033e015260006103f901526142886000f3fe6080604052600436106101b05760003560e01c80637f7a1b99116100ec578063e428204d1161008a578063f851a44011610064578063f851a44014610594578063f92495e5146105c1578063faa030ec146105e1578063ff10c0dc146105e957600080fd5b8063e428204d14610510578063e4c34f8414610526578063eedc966a1461054657600080fd5b80639f2211cb116100c65780639f2211cb14610474578063ad97db1b14610494578063d1971159146104b4578063df242667146104e357600080fd5b80637f7a1b99146103b357806389dbacfe146103e757806399fa5e2d1461041b57600080fd5b8063458eda9a11610159578063572e59e311610133578063572e59e31461032c5780636a4f7691146103605780636c49c32c14610373578063704b6c021461039357600080fd5b8063458eda9a146102b957806349f6d2dc146102db5780634e7effa8146102ee57600080fd5b8063338b5dea1161018a578063338b5dea1461025757806334bd8931146102775780633d3d130d1461029957600080fd5b8063063df2d2146101bc5780630d71bdc3146101f15780631bea80061461021157600080fd5b366101b757005b600080fd5b3480156101c857600080fd5b506101dc6101d736600461380f565b61062f565b60405190151581526020015b60405180910390f35b3480156101fd57600080fd5b506101dc61020c36600461383b565b6106a3565b34801561021d57600080fd5b5061024961022c36600461387c565b600460209081526000928352604080842090915290825290205481565b6040519081526020016101e8565b34801561026357600080fd5b506101dc61027236600461380f565b6107a1565b34801561028357600080fd5b506102976102923660046138b5565b6109d2565b005b3480156102a557600080fd5b506102976102b43660046138e1565b610ad2565b3480156102c557600080fd5b5033600090815260036020526040902054610249565b6102496102e9366004613941565b610c4b565b3480156102fa57600080fd5b5061024961030936600461383b565b600560209081526000938452604080852082529284528284209052825290205481565b34801561033857600080fd5b506102497f000000000000000000000000000000000000000000000000000000000000000081565b61029761036e3660046139a3565b610cba565b34801561037f57600080fd5b5061024961038e366004613a0e565b610d03565b34801561039f57600080fd5b506102976103ae366004613a2b565b610ec1565b3480156103bf57600080fd5b506102497f000000000000000000000000000000000000000000000000000000000000000081565b3480156103f357600080fd5b506102497f000000000000000000000000000000000000000000000000000000000000000081565b34801561042757600080fd5b5061044f7f000000000000000000000000000000000000000000000000000000000000000081565b60405173ffffffffffffffffffffffffffffffffffffffff90911681526020016101e8565b34801561048057600080fd5b5061029761048f366004613a2b565b610f6f565b3480156104a057600080fd5b506102496104af366004613a56565b611096565b3480156104c057600080fd5b506104d46104cf366004613aa9565b6110ae565b6040516101e893929190613b04565b3480156104ef57600080fd5b506102496104fe366004613a2b565b60036020526000908152604090205481565b34801561051c57600080fd5b5061024960015481565b34801561053257600080fd5b50610249610541366004613ba0565b611251565b34801561055257600080fd5b50610249610561366004613a2b565b73ffffffffffffffffffffffffffffffffffffffff16600090815260046020908152604080832033845290915290205490565b3480156105a057600080fd5b5060005461044f9073ffffffffffffffffffffffffffffffffffffffff1681565b3480156105cd57600080fd5b5061044f6105dc36600461383b565b6112a9565b61029761133a565b6105fc6105f7366004613bf1565b611396565b6040516101e891908151815260208083015190820152604080830151908201526060918201519181019190915260800190565b6000333014156106865760405162461bcd60e51b815260206004820152601260248201527f4d75746c692f6e6f5265656e7472616e6379000000000000000000000000000060448201526064015b60405180910390fd5b6106903383611e83565b61069a8383611f82565b90505b92915050565b6000333014156106f55760405162461bcd60e51b815260206004820152601260248201527f4d75746c692f6e6f5265656e7472616e63790000000000000000000000000000604482015260640161067d565b61070084338461210e565b6040517fa9059cbb00000000000000000000000000000000000000000000000000000000815273ffffffffffffffffffffffffffffffffffffffff84811660048301526024820184905285169063a9059cbb906044016020604051808303816000875af1158015610775573d6000803e3d6000fd5b505050506040513d601f19601f820116820180604052508101906107999190613c04565b949350505050565b6040517f70a08231000000000000000000000000000000000000000000000000000000008152306004820152600090819073ffffffffffffffffffffffffffffffffffffffff8516906370a0823190602401602060405180830381865afa158015610810573d6000803e3d6000fd5b505050506040513d601f19601f820116820180604052508101906108349190613c21565b6040517f23b872dd0000000000000000000000000000000000000000000000000000000081523360048201523060248201526044810185905290915073ffffffffffffffffffffffffffffffffffffffff8516906323b872dd906064016020604051808303816000875af11580156108b0573d6000803e3d6000fd5b505050506040513d601f19601f820116820180604052508101906108d49190613c04565b6040517f70a082310000000000000000000000000000000000000000000000000000000081523060048201529092508390829073ffffffffffffffffffffffffffffffffffffffff8716906370a0823190602401602060405180830381865afa158015610945573d6000803e3d6000fd5b505050506040513d601f19601f820116820180604052508101906109699190613c21565b6109739190613c69565b146109c05760405162461bcd60e51b815260206004820152601260248201527f4d756c74692f7472616e736665724661696c0000000000000000000000000000604482015260640161067d565b6109cb843385612251565b5092915050565b60005473ffffffffffffffffffffffffffffffffffffffff16331480610a2d57503373ffffffffffffffffffffffffffffffffffffffff7f000000000000000000000000000000000000000000000000000000000000000016145b610a795760405162461bcd60e51b815260206004820152601860248201527f416363657373436f6e74726f6c6c65642f496e76616c69640000000000000000604482015260640161067d565b808162ffffff1614610acd5760405162461bcd60e51b815260206004820152601860248201527f6d67764f666665722f6761737265712f6f766572666c6f770000000000000000604482015260640161067d565b600155565b7f000000000000000000000000000000000000000000000000000000000000000073ffffffffffffffffffffffffffffffffffffffff81161580610b2b57503373ffffffffffffffffffffffffffffffffffffffff8216145b610b775760405162461bcd60e51b815260206004820152601860248201527f416363657373436f6e74726f6c6c65642f496e76616c69640000000000000000604482015260640161067d565b81602001357f6d67762f747261646553756363657373000000000000000000000000000000001415610bb257610bac836122fb565b50505050565b60408301803590610bc69060208601613a2b565b73ffffffffffffffffffffffffffffffffffffffff16610be96020860186613a2b565b73ffffffffffffffffffffffffffffffffffffffff167fd2c3f090769d843e1fc2e6ce65d60572e28f9163a5cfccbd6c1725c6a9263f2f8560000135604051610c3491815260200190565b60405180910390a4610bac838361246d565b505050565b600033301415610c9d5760405162461bcd60e51b815260206004820152601260248201527f4d75746c692f6e6f5265656e7472616e63790000000000000000000000000000604482015260640161067d565b610cae8888888888888833346124a6565b98975050505050505050565b600080610ccf8a8a8a8a8a8a8a8a3334612671565b91509150600082118190610cf65760405162461bcd60e51b815260040161067d9190613cac565b5050505050505050505050565b60007f000000000000000000000000000000000000000000000000000000000000000073ffffffffffffffffffffffffffffffffffffffff81161580610d5e57503373ffffffffffffffffffffffffffffffffffffffff8216145b610daa5760405162461bcd60e51b815260206004820152601860248201527f416363657373436f6e74726f6c6c65642f496e76616c69640000000000000000604482015260640161067d565b610db383612900565b610dff5760405162461bcd60e51b815260206004820152601660248201527f6d67764f666665722f61626f72742f72656e6567656400000000000000000000604482015260640161067d565b6000610e0f8460a00135856129ac565b1115610e5d5760405162461bcd60e51b815260206004820152601860248201527f6d67764f666665722f61626f72742f7075744661696c65640000000000000000604482015260640161067d565b6000610e6d8460800135856129ef565b1115610ebb5760405162461bcd60e51b815260206004820152601860248201527f6d67764f666665722f61626f72742f6765744661696c65640000000000000000604482015260640161067d565b50919050565b60005473ffffffffffffffffffffffffffffffffffffffff163314610f285760405162461bcd60e51b815260206004820152601860248201527f416363657373436f6e74726f6c6c65642f496e76616c69640000000000000000604482015260640161067d565b600080547fffffffffffffffffffffffff00000000000000000000000000000000000000001673ffffffffffffffffffffffffffffffffffffffff92909216919091179055565b6040517f095ea7b300000000000000000000000000000000000000000000000000000000815273ffffffffffffffffffffffffffffffffffffffff7f0000000000000000000000000000000000000000000000000000000000000000811660048301527fffffffffffffffffffffffffffffffffffffffffffffffffffffffffffffffff602483015282169063095ea7b3906044016020604051808303816000875af1158015611023573d6000803e3d6000fd5b505050506040513d601f19601f820116820180604052508101906110479190613c04565b6110935760405162461bcd60e51b815260206004820152601560248201527f6d67764f666665722f617070726f76652f4661696c0000000000000000000000604482015260640161067d565b50565b60006110a58585858533612aa3565b95945050505050565b6040517f2c7e545f00000000000000000000000000000000000000000000000000000000815273ffffffffffffffffffffffffffffffffffffffff858116600483015284811660248301526044820184905260648201839052600091606091829190891690632c7e545f90608401600060405180830381865afa158015611139573d6000803e3d6000fd5b505050506040513d6000823e601f3d9081017fffffffffffffffffffffffffffffffffffffffffffffffffffffffffffffffe016820160405261117f9190810190613f16565b50508051919450925067ffffffffffffffff8111156111a0576111a0613cfd565b6040519080825280602002602001820160405280156111c9578160200160208202803683370190505b50905060005b8251811015611245576111fc88888584815181106111ef576111ef61400b565b60200260200101516112a9565b82828151811061120e5761120e61400b565b73ffffffffffffffffffffffffffffffffffffffff909216602092830291909101909101528061123d8161403a565b9150506111cf565b50955095509592505050565b60008082156112905760006112678888866112a9565b73ffffffffffffffffffffffffffffffffffffffff166000908152600360205260409020549150505b61129e818888888888612c0e565b979650505050505050565b73ffffffffffffffffffffffffffffffffffffffff80841660009081526002602090815260408083208685168452825280832085845290915290205416806113335760405162461bcd60e51b815260206004820152601560248201527f6d756c7469557365722f756e6b6f776e4f666665720000000000000000000000604482015260640161067d565b9392505050565b3330141561138a5760405162461bcd60e51b815260206004820152601260248201527f4d75746c692f6e6f5265656e7472616e63790000000000000000000000000000604482015260640161067d565b6113943334612e76565b565b6113c16040518060800160405280600081526020016000815260200160008152602001600081525090565b6000806113d46080850160608601614073565b6113fa576113e56020850185613a2b565b6113f56040860160208701613a2b565b611417565b61140a6040850160208601613a2b565b6114176020860186613a2b565b6040517f23b872dd00000000000000000000000000000000000000000000000000000000815233600482015230602482015260a08701356044820152919350915073ffffffffffffffffffffffffffffffffffffffff8216906323b872dd906064016020604051808303816000875af1158015611498573d6000803e3d6000fd5b505050506040513d601f19601f820116820180604052508101906114bc9190613c04565b6115085760405162461bcd60e51b815260206004820152601a60248201527f6d67764f726465722f6d6f2f7472616e73666572496e4661696c000000000000604482015260640161067d565b60005b61151a60e08601356001614090565b8110156116d5576101008501351580159061153957508461010001355a105b15611543576116d5565b60008060007f000000000000000000000000000000000000000000000000000000000000000073ffffffffffffffffffffffffffffffffffffffff1663fbffe5fd87878b608001358c60a001358d60600160208101906115a39190614073565b6115ae5760016115b1565b60005b6040517fffffffff0000000000000000000000000000000000000000000000000000000060e088901b16815273ffffffffffffffffffffffffffffffffffffffff9586166004820152949093166024850152604484019190915260648301521515608482015260a4016060604051808303816000875af1158015611639573d6000803e3d6000fd5b505050506040513d601f19601f8201168201806040525081019061165d91906140a8565b92509250925082876000018181516116759190614090565b90525060208701805183919061168c908390614090565b9052506040870180518291906116a3908390614090565b905250821580156116b2575080155b156116bf575050506116d5565b50505080806116cd9061403a565b91505061150b565b5060006116e483838787612f05565b90506116f66060860160408701614073565b15806116ff5750805b80611715575061171560e0860160c08701614073565b6117615760405162461bcd60e51b815260206004820152601960248201527f6d67764f726465722f6d6f2f6e6f5061727469616c46696c6c00000000000000604482015260640161067d565b83511561184e5783516040517fa9059cbb000000000000000000000000000000000000000000000000000000008152336004820152602481019190915273ffffffffffffffffffffffffffffffffffffffff84169063a9059cbb906044016020604051808303816000875af11580156117de573d6000803e3d6000fd5b505050506040513d601f19601f820116820180604052508101906118029190613c04565b61184e5760405162461bcd60e51b815260206004820152601b60248201527f6d67764f726465722f6d6f2f7472616e736665724f75744661696c0000000000604482015260640161067d565b61185e60e0860160c08701614073565b8015611868575080155b15611c0b576118a68284866000015188608001356118869190613c69565b60208801516118999060a08b0135613c69565b60015460008033346124a6565b6060850152336118bc6040870160208801613a2b565b73ffffffffffffffffffffffffffffffffffffffff166118df6020880188613a2b565b86516020808901516040808b01516060808d01518351968752948601939093529084015282015273ffffffffffffffffffffffffffffffffffffffff91909116907fa16c499b3b691af8f869978a2377c2aa40f30ab4d39cbdf8bb163ff6e3e16b159060800160405180910390a46060840151611b8c576119666060860160408701614073565b156119b35760405162461bcd60e51b815260206004820152601960248201527f6d67764f726465722f6d6f2f6e6f5061727469616c46696c6c00000000000000604482015260640161067d565b8173ffffffffffffffffffffffffffffffffffffffff1663a9059cbb3386602001518860a001356119e49190613c69565b6040517fffffffff0000000000000000000000000000000000000000000000000000000060e085901b16815273ffffffffffffffffffffffffffffffffffffffff909216600483015260248201526044016020604051808303816000875af1158015611a54573d6000803e3d6000fd5b505050506040513d601f19601f82011682018060405250810190611a789190613c04565b611ac45760405162461bcd60e51b815260206004820152601a60248201527f6d67764f726465722f6d6f2f7472616e73666572496e4661696c000000000000604482015260640161067d565b6000846040015134611ad69190614090565b1115611b845760408401516000903390611af09034614090565b604051600081818185875af1925050503d8060008114611b2c576040519150601f19603f3d011682016040523d82523d6000602084013e611b31565b606091505b5050905080611b825760405162461bcd60e51b815260206004820152601f60248201527f6d67764f726465722f6d6f2f726566756e6450726f766973696f6e4661696c00604482015260640161067d565b505b505050919050565b611baa823386602001518860a00135611ba59190613c69565b612251565b61012085013515611b8457611bc461012086013543614090565b73ffffffffffffffffffffffffffffffffffffffff808416600090815260056020908152604080832093881683529281528282206060890151835290522055505050919050565b8173ffffffffffffffffffffffffffffffffffffffff1663a9059cbb3386602001518860a00135611c3c9190613c69565b6040517fffffffff0000000000000000000000000000000000000000000000000000000060e085901b16815273ffffffffffffffffffffffffffffffffffffffff909216600483015260248201526044016020604051808303816000875af1158015611cac573d6000803e3d6000fd5b505050506040513d601f19601f82011682018060405250810190611cd09190613c04565b611d1c5760405162461bcd60e51b815260206004820152601a60248201527f6d67764f726465722f6d6f2f7472616e73666572496e4661696c000000000000604482015260640161067d565b6000846040015134611d2e9190614090565b1115611ddc5760408401516000903390611d489034614090565b604051600081818185875af1925050503d8060008114611d84576040519150601f19603f3d011682016040523d82523d6000602084013e611d89565b606091505b5050905080611dda5760405162461bcd60e51b815260206004820152601660248201527f6d67764f726465722f6d6f2f726566756e644661696c00000000000000000000604482015260640161067d565b505b33611ded6040870160208801613a2b565b73ffffffffffffffffffffffffffffffffffffffff16611e106020880188613a2b565b86516020808901516040808b01518151948552928401919091528201526000606082015273ffffffffffffffffffffffffffffffffffffffff91909116907fa16c499b3b691af8f869978a2377c2aa40f30ab4d39cbdf8bb163ff6e3e16b159060800160405180910390a4505050919050565b73ffffffffffffffffffffffffffffffffffffffff8216600090815260036020526040902054811115611ef85760405162461bcd60e51b815260206004820152601d60248201527f4d756c74692f64656269744f6e4d67762f696e73756666696369656e74000000604482015260640161067d565b73ffffffffffffffffffffffffffffffffffffffff821660009081526003602052604081208054839290611f2d908490613c69565b909155505060405181815273ffffffffffffffffffffffffffffffffffffffff8316907fd50b865b3d9d927f026d3b8404e07f25d6beb1d111deab51bdc846bf8d0a860b906020015b60405180910390a25050565b6040517f2e1a7d4d000000000000000000000000000000000000000000000000000000008152600481018290526000907f000000000000000000000000000000000000000000000000000000000000000073ffffffffffffffffffffffffffffffffffffffff1690632e1a7d4d906024016020604051808303816000875af1158015612012573d6000803e3d6000fd5b505050506040513d601f19601f820116820180604052508101906120369190613c04565b6120825760405162461bcd60e51b815260206004820152601e60248201527f6d67764f666665722f77697468647261772f7472616e736665724661696c0000604482015260640161067d565b73ffffffffffffffffffffffffffffffffffffffff831630146121055760405173ffffffffffffffffffffffffffffffffffffffff8416908390600081818185875af1925050503d80600081146120f5576040519150601f19603f3d011682016040523d82523d6000602084013e6120fa565b606091505b50508091505061069d565b50600192915050565b8061211857505050565b73ffffffffffffffffffffffffffffffffffffffff80841660009081526004602090815260408083209386168352929052205481111561219a5760405162461bcd60e51b815260206004820152601d60248201527f4d756c74692f6465626974546f6b656e2f696e73756666696369656e74000000604482015260640161067d565b73ffffffffffffffffffffffffffffffffffffffff8084166000908152600460209081526040808320938616835292905290812080548392906121de908490613c69565b925050819055508273ffffffffffffffffffffffffffffffffffffffff168273ffffffffffffffffffffffffffffffffffffffff167f7a97b405ee1bd89550b225932dbdd0431e30426b7c8f02f05b3cb0e1bdfb84768360405161224491815260200190565b60405180910390a3505050565b73ffffffffffffffffffffffffffffffffffffffff808416600090815260046020908152604080832093861683529290529081208054839290612295908490614090565b925050819055508273ffffffffffffffffffffffffffffffffffffffff168273ffffffffffffffffffffffffffffffffffffffff167fb2b1ec266d1bab793ae1d020eedf03e575cc390e5fb9e370cb099fdf2f61534d8360405161224491815260200190565b600061230682613041565b1561231357506001919050565b600061233f6123256020850185613a2b565b6123356040860160208701613a2b565b85604001356112a9565b905061234b8382613205565b6123585750600092915050565b73ffffffffffffffffffffffffffffffffffffffff8116600090815260036020526040902054612389908290611e83565b73ffffffffffffffffffffffffffffffffffffffff81166000908152600360205260409020546123ba908290611f82565b61210557604083018035906123d29060208601613a2b565b73ffffffffffffffffffffffffffffffffffffffff166123f56020860186613a2b565b73ffffffffffffffffffffffffffffffffffffffff167fd2c3f090769d843e1fc2e6ce65d60572e28f9163a5cfccbd6c1725c6a9263f2f60405161245c907f6d67764f726465722f706f7374686f6f6b2f7472616e73666572576569000000815260200190565b60405180910390a450600092915050565b60008061249a6124806020860186613a2b565b6124906040870160208801613a2b565b86604001356112a9565b90506107998482613205565b6040517f70a08231000000000000000000000000000000000000000000000000000000008152306004820152600090819073ffffffffffffffffffffffffffffffffffffffff7f000000000000000000000000000000000000000000000000000000000000000016906370a0823190602401602060405180830381865afa158015612535573d6000803e3d6000fd5b505050506040513d601f19601f820116820180604052508101906125599190613c21565b905062ffffff87111561256c5760015496505b6040517f49f6d2dc00000000000000000000000000000000000000000000000000000000815273ffffffffffffffffffffffffffffffffffffffff8c811660048301528b81166024830152604482018b9052606482018a90526084820189905260a4820188905260c482018790527f000000000000000000000000000000000000000000000000000000000000000016906349f6d2dc90859060e40160206040518083038185885af1158015612626573d6000803e3d6000fd5b50505050506040513d601f19601f8201168201806040525081019061264b9190613c21565b91506126598b8b8487613476565b612663848261351a565b509998505050505050505050565b600060606126808c8c876112a9565b73ffffffffffffffffffffffffffffffffffffffff168473ffffffffffffffffffffffffffffffffffffffff16146126fa5760405162461bcd60e51b815260206004820152601e60248201527f4d756c74692f7570646174654f666665722f756e617574686f72697a65640000604482015260640161067d565b6040517f70a082310000000000000000000000000000000000000000000000000000000081523060048201526000907f000000000000000000000000000000000000000000000000000000000000000073ffffffffffffffffffffffffffffffffffffffff16906370a0823190602401602060405180830381865afa158015612787573d6000803e3d6000fd5b505050506040513d601f19601f820116820180604052508101906127ab9190613c21565b905062ffffff8911156127be5760015498505b6040517f6a4f769100000000000000000000000000000000000000000000000000000000815273ffffffffffffffffffffffffffffffffffffffff8e811660048301528d81166024830152604482018d9052606482018c9052608482018b905260a482018a905260c4820189905260e482018890527f00000000000000000000000000000000000000000000000000000000000000001690636a4f7691908690610104016000604051808303818588803b15801561287b57600080fd5b505af19350505050801561288d575060015b6128d2576128996140d6565b806308c379a014156128c657506128ae6140f2565b806128b957506128c8565b6000935091506128f19050565b505b3d6000803e3d6000fd5b6128dc858261351a565b50506040805160208101909152600081528491505b9a509a98505050505050505050565b6000806005816129136020860186613a2b565b73ffffffffffffffffffffffffffffffffffffffff1673ffffffffffffffffffffffffffffffffffffffff16815260200190815260200160002060008460200160208101906129629190613a2b565b73ffffffffffffffffffffffffffffffffffffffff168152602080820192909252604090810160009081208683013582529092529020549050801580611333575043111592915050565b6000806129bf6123256020850185613a2b565b90506129db6129d46040850160208601613a2b565b8286613608565b6129e55783610799565b5060009392505050565b600080612a026123256020850185613a2b565b90506000600481612a166020870187613a2b565b73ffffffffffffffffffffffffffffffffffffffff90811682526020808301939093526040918201600090812091861681529252902054905084811015612a8157612a6e612a676020860186613a2b565b838361210e565b612a788186613c69565b9250505061069d565b612a98612a916020860186613a2b565b838761210e565b60009250505061069d565b73ffffffffffffffffffffffffffffffffffffffff8581166000908152600260209081526040808320888516845282528083208784529091528120549091838116911614612b335760405162461bcd60e51b815260206004820152601f60248201527f4d756c74692f726574726163744f666665722f756e617574686f72697a656400604482015260640161067d565b6040517fad97db1b00000000000000000000000000000000000000000000000000000000815273ffffffffffffffffffffffffffffffffffffffff878116600483015286811660248301526044820186905284151560648301527f0000000000000000000000000000000000000000000000000000000000000000169063ad97db1b906084016020604051808303816000875af1158015612bd8573d6000803e3d6000fd5b505050506040513d601f19601f82011682018060405250810190612bfc9190613c21565b905080156110a5576110a58282613724565b6040517fcbf75c9a00000000000000000000000000000000000000000000000000000000815273ffffffffffffffffffffffffffffffffffffffff86811660048301528581166024830152600091829182917f00000000000000000000000000000000000000000000000000000000000000009091169063cbf75c9a906044016040805180830381865afa158015612caa573d6000803e3d6000fd5b505050506040513d601f19601f82011682018060405250810190612cce919061419a565b6040517f5722647b00000000000000000000000000000000000000000000000000000000815273ffffffffffffffffffffffffffffffffffffffff8b811660048301528a81166024830152604482018890529294509092506000917f00000000000000000000000000000000000000000000000000000000000000001690635722647b90606401602060405180830381865afa158015612d72573d6000803e3d6000fd5b505050506040513d601f19601f82011682018060405250810190612d969190613c21565b9050600086604085901c61ffff161115612db9575061ffff604084901c16612dbc565b50855b62ffffff881115612dcd5760015497505b600081612de362ffffff606087901c168b614090565b612ded91906141be565b612dfb90633b9aca006141be565b9050600061ffff602085901c16612e2262ffffff603087901c811690604888901c16614090565b612e2c91906141be565b612e3a90633b9aca006141be565b90506000612e488e83614090565b905082811015612e6157612e5c8184613c69565b612e64565b60005b9e9d5050505050505050505050505050565b7f000000000000000000000000000000000000000000000000000000000000000073ffffffffffffffffffffffffffffffffffffffff1663b60d4288826040518263ffffffff1660e01b81526004016000604051808303818588803b158015612ede57600080fd5b505af1158015612ef2573d6000803e3d6000fd5b5050505050612f018282613724565b5050565b6000612f176080840160608501614073565b15612f2f578260a00135826020015110159050610799565b612f3f6080840160608501614073565b610799576040517fcbf75c9a00000000000000000000000000000000000000000000000000000000815273ffffffffffffffffffffffffffffffffffffffff868116600483015285811660248301526000917f00000000000000000000000000000000000000000000000000000000000000009091169063cbf75c9a906044016040805180830381865afa158015612fdb573d6000803e3d6000fd5b505050506040513d601f19601f82011682018060405250810190612fff919061419a565b9150612710905061301c61ffff60e884901c1660808701356141be565b61302691906141fb565b613034906080860135613c69565b8351101591506107999050565b60008061304d836137a6565b9050600061305a846137cb565b90508161306b575060019392505050565b73ffffffffffffffffffffffffffffffffffffffff7f000000000000000000000000000000000000000000000000000000000000000016636a4f76916130b46020870187613a2b565b6130c46040880160208901613a2b565b848660c08a013560481c62ffffff1660c08b013560201c61ffff1660608c013560c01c63ffffffff16604080517fffffffff0000000000000000000000000000000000000000000000000000000060e08b901b16815273ffffffffffffffffffffffffffffffffffffffff988916600482015297909616602488015260448701949094526064860192909252608485015260a484015260c483015287013560e482015261010401600060405180830381600087803b15801561318557600080fd5b505af1925050508015613196575060015b6131fb576131f06131aa6020860186613a2b565b6131ba6040870160208801613a2b565b604087013560016131eb6131d160208b018b613a2b565b6131e160408c0160208d01613a2b565b8b604001356112a9565b612aa3565b506000949350505050565b5060019392505050565b6000806004816132186020870187613a2b565b73ffffffffffffffffffffffffffffffffffffffff9081168252602080830193909352604091820160009081209187168152908352205491506132689061326190860186613a2b565b8483613608565b61331c57604084018035906132809060208701613a2b565b73ffffffffffffffffffffffffffffffffffffffff166132a36020870187613a2b565b73ffffffffffffffffffffffffffffffffffffffff167fd2c3f090769d843e1fc2e6ce65d60572e28f9163a5cfccbd6c1725c6a9263f2f60405161330a907f6d67764f726465722f72656465656d416c6c2f7472616e736665724f75740000815260200190565b60405180910390a4600091505061069d565b61333361332c6020860186613a2b565b848361210e565b60006004816133486040880160208901613a2b565b73ffffffffffffffffffffffffffffffffffffffff908116825260208083019390935260409182016000908120918816815290835281902054925061339c91613395918801908801613a2b565b8583613608565b61345157604085018035906133b49060208801613a2b565b73ffffffffffffffffffffffffffffffffffffffff166133d76020880188613a2b565b73ffffffffffffffffffffffffffffffffffffffff167fd2c3f090769d843e1fc2e6ce65d60572e28f9163a5cfccbd6c1725c6a9263f2f60405161343e907f6d67764f726465722f72656465656d416c6c2f7472616e73666572496e000000815260200190565b60405180910390a460009250505061069d565b61346b6134646040870160208801613a2b565b858361210e565b506001949350505050565b73ffffffffffffffffffffffffffffffffffffffff848116600081815260026020908152604080832088861680855290835281842088855283529281902080547fffffffffffffffffffffffff00000000000000000000000000000000000000001695871695861790555193845285939192917fabf04a4ce23225c02bd147297da7ffc10e7d29102d8678f1a63fdd2cfd71ff07910160405180910390a450505050565b6040517f70a082310000000000000000000000000000000000000000000000000000000081523060048201526000907f000000000000000000000000000000000000000000000000000000000000000073ffffffffffffffffffffffffffffffffffffffff16906370a0823190602401602060405180830381865afa1580156135a7573d6000803e3d6000fd5b505050506040513d601f19601f820116820180604052508101906135cb9190613c21565b9050818114156135da57505050565b818111156135f557610c46836135f08484613c69565b613724565b610c46836136038385613c69565b611e83565b60008161361757506001611333565b6040805173ffffffffffffffffffffffffffffffffffffffff8581166024830152604480830186905283518084039091018152606490920183526020820180517bffffffffffffffffffffffffffffffffffffffffffffffffffffffff167fa9059cbb0000000000000000000000000000000000000000000000000000000017905291516000928392908816916136ae9190614236565b6000604051808303816000865af19150503d80600081146136eb576040519150601f19603f3d011682016040523d82523d6000602084013e6136f0565b606091505b509150915081801561371a57508051158061371a57508080602001905181019061371a9190613c04565b9695505050505050565b73ffffffffffffffffffffffffffffffffffffffff821660009081526003602052604081208054839290613759908490614090565b909155505060405181815273ffffffffffffffffffffffffffffffffffffffff8316907f2022607feefe24f258126b277628af517f5512dd9499fb3520eeff54cad1370390602001611f76565b600060808201356bffffffffffffffffffffffff6060840135165b61069d9190613c69565b600060a0820135606080840135901c6bffffffffffffffffffffffff166137c1565b73ffffffffffffffffffffffffffffffffffffffff8116811461109357600080fd5b6000806040838503121561382257600080fd5b823561382d816137ed565b946020939093013593505050565b60008060006060848603121561385057600080fd5b833561385b816137ed565b9250602084013561386b816137ed565b929592945050506040919091013590565b6000806040838503121561388f57600080fd5b823561389a816137ed565b915060208301356138aa816137ed565b809150509250929050565b6000602082840312156138c757600080fd5b5035919050565b60006101208284031215610ebb57600080fd5b6000808284036101608112156138f657600080fd5b61390085856138ce565b925060407ffffffffffffffffffffffffffffffffffffffffffffffffffffffffffffffee08201121561393257600080fd5b50610120830190509250929050565b600080600080600080600060e0888a03121561395c57600080fd5b8735613967816137ed565b96506020880135613977816137ed565b96999698505050506040850135946060810135946080820135945060a0820135935060c0909101359150565b600080600080600080600080610100898b0312156139c057600080fd5b88356139cb816137ed565b975060208901356139db816137ed565b979a9799505050506040860135956060810135956080820135955060a0820135945060c0820135935060e0909101359150565b60006101208284031215613a2157600080fd5b61069a83836138ce565b600060208284031215613a3d57600080fd5b8135611333816137ed565b801515811461109357600080fd5b60008060008060808587031215613a6c57600080fd5b8435613a77816137ed565b93506020850135613a87816137ed565b9250604085013591506060850135613a9e81613a48565b939692955090935050565b600080600080600060a08688031215613ac157600080fd5b8535613acc816137ed565b94506020860135613adc816137ed565b93506040860135613aec816137ed565b94979396509394606081013594506080013592915050565b6000606082018583526020606081850152818651808452608086019150828801935060005b81811015613b4557845183529383019391830191600101613b29565b50508481036040860152855180825290820192508186019060005b81811015613b9257825173ffffffffffffffffffffffffffffffffffffffff1685529383019391830191600101613b60565b509298975050505050505050565b600080600080600060a08688031215613bb857600080fd5b8535613bc3816137ed565b94506020860135613bd3816137ed565b94979496505050506040830135926060810135926080909101359150565b60006101408284031215610ebb57600080fd5b600060208284031215613c1657600080fd5b815161133381613a48565b600060208284031215613c3357600080fd5b5051919050565b7f4e487b7100000000000000000000000000000000000000000000000000000000600052601160045260246000fd5b600082821015613c7b57613c7b613c3a565b500390565b60005b83811015613c9b578181015183820152602001613c83565b83811115610bac5750506000910152565b6020815260008251806020840152613ccb816040850160208701613c80565b601f017fffffffffffffffffffffffffffffffffffffffffffffffffffffffffffffffe0169190910160400192915050565b7f4e487b7100000000000000000000000000000000000000000000000000000000600052604160045260246000fd5b6080810181811067ffffffffffffffff82111715613d4c57613d4c613cfd565b60405250565b7fffffffffffffffffffffffffffffffffffffffffffffffffffffffffffffffe0601f830116810181811067ffffffffffffffff82111715613d9657613d96613cfd565b6040525050565b600067ffffffffffffffff821115613db757613db7613cfd565b5060051b60200190565b600082601f830112613dd257600080fd5b81516020613ddf82613d9d565b60408051613ded8382613d52565b84815260079490941b8601830193838101925087851115613e0d57600080fd5b8387015b85811015613e61576080818a031215613e2a5760008081fd5b8251613e3581613d2c565b815181528582015186820152838201518482015260608083015190820152845292840192608001613e11565b50979650505050505050565b600082601f830112613e7e57600080fd5b81516020613e8b82613d9d565b60408051613e998382613d52565b84815260079490941b8601830193838101925087851115613eb957600080fd5b8387015b85811015613e61576080818a031215613ed65760008081fd5b8251613ee181613d2c565b8151613eec816137ed565b81528186015186820152838201518482015260608083015190820152845292840192608001613ebd565b60008060008060808587031215613f2c57600080fd5b8451935060208086015167ffffffffffffffff80821115613f4c57600080fd5b818801915088601f830112613f6057600080fd5b8151613f6b81613d9d565b604051613f788282613d52565b82815260059290921b840185019185810191508b831115613f9857600080fd5b938501935b82851015613fb657845182529385019390850190613f9d565b60408b01519098509450505080831115613fcf57600080fd5b613fdb89848a01613dc1565b94506060880151925080831115613ff157600080fd5b5050613fff87828801613e6d565b91505092959194509250565b7f4e487b7100000000000000000000000000000000000000000000000000000000600052603260045260246000fd5b60007fffffffffffffffffffffffffffffffffffffffffffffffffffffffffffffffff82141561406c5761406c613c3a565b5060010190565b60006020828403121561408557600080fd5b813561133381613a48565b600082198211156140a3576140a3613c3a565b500190565b6000806000606084860312156140bd57600080fd5b8351925060208401519150604084015190509250925092565b600060033d11156140ef5760046000803e5060005160e01c5b90565b600060443d10156141005790565b6040517ffffffffffffffffffffffffffffffffffffffffffffffffffffffffffffffffc803d016004833e81513d67ffffffffffffffff816024840111818411171561414e57505050505090565b82850191508151818111156141665750505050505090565b843d87010160208285010111156141805750505050505090565b61418f60208286010187613d52565b509095945050505050565b600080604083850312156141ad57600080fd5b505080516020909101519092909150565b6000817fffffffffffffffffffffffffffffffffffffffffffffffffffffffffffffffff04831182151516156141f6576141f6613c3a565b500290565b600082614231577f4e487b7100000000000000000000000000000000000000000000000000000000600052601260045260246000fd5b500490565b60008251614248818460208701613c80565b919091019291505056fea2646970667358221220871cea04fe5047dc694667f48b6e5653482c0a821f9a11d2a6f256e8474cea6c64736f6c634300080a0033",
  "linkReferences": {},
  "deployedLinkReferences": {}
}