{
  "_format": "hh-sol-artifact-1",
  "contractName": "MultiMaker",
  "sourceName": "contracts/Strategies/OfferLogics/MultiUsers/Deployable/MultiMaker.sol",
  "abi": [
    {
      "inputs": [
        {
          "internalType": "address payable",
          "name": "_MGV",
          "type": "address"
        }
      ],
      "stateMutability": "nonpayable",
      "type": "constructor"
    },
    {
      "anonymous": false,
      "inputs": [
        {
          "indexed": true,
          "internalType": "address",
          "name": "user",
          "type": "address"
        },
        {
          "indexed": false,
          "internalType": "uint256",
          "name": "amount",
          "type": "uint256"
        }
      ],
      "name": "CreditMgvUser",
      "type": "event"
    },
    {
      "anonymous": false,
      "inputs": [
        {
          "indexed": true,
          "internalType": "address",
          "name": "user",
          "type": "address"
        },
        {
          "indexed": true,
          "internalType": "address",
          "name": "token",
          "type": "address"
        },
        {
          "indexed": false,
          "internalType": "uint256",
          "name": "amount",
          "type": "uint256"
        }
      ],
      "name": "CreditUserTokenBalance",
      "type": "event"
    },
    {
      "anonymous": false,
      "inputs": [
        {
          "indexed": true,
          "internalType": "address",
          "name": "user",
          "type": "address"
        },
        {
          "indexed": false,
          "internalType": "uint256",
          "name": "amount",
          "type": "uint256"
        }
      ],
      "name": "DebitMgvUser",
      "type": "event"
    },
    {
      "anonymous": false,
      "inputs": [
        {
          "indexed": true,
          "internalType": "address",
          "name": "user",
          "type": "address"
        },
        {
          "indexed": true,
          "internalType": "address",
          "name": "token",
          "type": "address"
        },
        {
          "indexed": false,
          "internalType": "uint256",
          "name": "amount",
          "type": "uint256"
        }
      ],
      "name": "DebitUserTokenBalance",
      "type": "event"
    },
    {
      "anonymous": false,
      "inputs": [
        {
          "indexed": true,
          "internalType": "address",
          "name": "outbound_tkn",
          "type": "address"
        },
        {
          "indexed": true,
          "internalType": "address",
          "name": "inbound_tkn",
          "type": "address"
        },
        {
          "indexed": false,
          "internalType": "uint256",
          "name": "offerId",
          "type": "uint256"
        },
        {
          "indexed": false,
          "internalType": "uint256",
          "name": "missingAmount",
          "type": "uint256"
        }
      ],
      "name": "GetFail",
      "type": "event"
    },
    {
      "anonymous": false,
      "inputs": [
        {
          "indexed": true,
          "internalType": "address",
          "name": "outbound_tkn",
          "type": "address"
        },
        {
          "indexed": true,
          "internalType": "address",
          "name": "inbound_tkn",
          "type": "address"
        },
        {
          "indexed": true,
          "internalType": "uint256",
          "name": "offerId",
          "type": "uint256"
        },
        {
          "indexed": false,
          "internalType": "bytes",
          "name": "error_data",
          "type": "bytes"
        }
      ],
      "name": "LogIncident",
      "type": "event"
    },
    {
      "anonymous": false,
      "inputs": [
        {
          "indexed": true,
          "internalType": "address",
          "name": "outbound_tkn",
          "type": "address"
        },
        {
          "indexed": true,
          "internalType": "address",
          "name": "inbound_tkn",
          "type": "address"
        },
        {
          "indexed": true,
          "internalType": "uint256",
          "name": "offerId",
          "type": "uint256"
        },
        {
          "indexed": false,
          "internalType": "address",
          "name": "owner",
          "type": "address"
        }
      ],
      "name": "NewOwnedOffer",
      "type": "event"
    },
    {
      "anonymous": false,
      "inputs": [
        {
          "indexed": true,
          "internalType": "address",
          "name": "outbound_tkn",
          "type": "address"
        },
        {
          "indexed": true,
          "internalType": "address",
          "name": "inbound_tkn",
          "type": "address"
        },
        {
          "indexed": false,
          "internalType": "uint256",
          "name": "offerId",
          "type": "uint256"
        },
        {
          "indexed": false,
          "internalType": "bytes32",
          "name": "reason",
          "type": "bytes32"
        }
      ],
      "name": "PosthookFail",
      "type": "event"
    },
    {
      "anonymous": false,
      "inputs": [
        {
          "indexed": true,
          "internalType": "address",
          "name": "outbound_tkn",
          "type": "address"
        },
        {
          "indexed": true,
          "internalType": "address",
          "name": "inbound_tkn",
          "type": "address"
        },
        {
          "indexed": false,
          "internalType": "uint256",
          "name": "offerId",
          "type": "uint256"
        },
        {
          "indexed": false,
          "internalType": "uint256",
          "name": "missingAmount",
          "type": "uint256"
        }
      ],
      "name": "PutFail",
      "type": "event"
    },
    {
      "anonymous": false,
      "inputs": [
        {
          "indexed": true,
          "internalType": "address",
          "name": "outbound_tkn",
          "type": "address"
        },
        {
          "indexed": true,
          "internalType": "address",
          "name": "inbound_tkn",
          "type": "address"
        },
        {
          "indexed": false,
          "internalType": "uint256",
          "name": "offerId",
          "type": "uint256"
        }
      ],
      "name": "Reneged",
      "type": "event"
    },
    {
      "inputs": [],
      "name": "MGV",
      "outputs": [
        {
          "internalType": "contract IMangrove",
          "name": "",
          "type": "address"
        }
      ],
      "stateMutability": "view",
      "type": "function"
    },
    {
      "inputs": [],
      "name": "OFR_GASREQ",
      "outputs": [
        {
          "internalType": "uint256",
          "name": "",
          "type": "uint256"
        }
      ],
      "stateMutability": "view",
      "type": "function"
    },
    {
      "inputs": [],
      "name": "admin",
      "outputs": [
        {
          "internalType": "address",
          "name": "",
          "type": "address"
        }
      ],
      "stateMutability": "view",
      "type": "function"
    },
    {
      "inputs": [
        {
          "internalType": "address",
          "name": "outbound_tkn",
          "type": "address"
        },
        {
          "internalType": "uint256",
          "name": "amount",
          "type": "uint256"
        }
      ],
      "name": "approveMangrove",
      "outputs": [],
      "stateMutability": "nonpayable",
      "type": "function"
    },
    {
      "inputs": [],
      "name": "balanceOnMangrove",
      "outputs": [
        {
          "internalType": "uint256",
          "name": "",
          "type": "uint256"
        }
      ],
      "stateMutability": "view",
      "type": "function"
    },
    {
      "inputs": [
        {
          "internalType": "address",
          "name": "token",
          "type": "address"
        },
        {
          "internalType": "uint256",
          "name": "amount",
          "type": "uint256"
        }
      ],
      "name": "depositToken",
      "outputs": [
        {
          "internalType": "bool",
          "name": "success",
          "type": "bool"
        }
      ],
      "stateMutability": "nonpayable",
      "type": "function"
    },
    {
      "inputs": [],
      "name": "fundMangrove",
      "outputs": [],
      "stateMutability": "payable",
      "type": "function"
    },
    {
      "inputs": [
        {
          "internalType": "address",
          "name": "outbound_tkn",
          "type": "address"
        },
        {
          "internalType": "address",
          "name": "inbound_tkn",
          "type": "address"
        },
        {
          "internalType": "uint256",
          "name": "gasreq",
          "type": "uint256"
        },
        {
          "internalType": "uint256",
          "name": "gasprice",
          "type": "uint256"
        },
        {
          "internalType": "uint256",
          "name": "offerId",
          "type": "uint256"
        }
      ],
      "name": "getMissingProvision",
      "outputs": [
        {
          "internalType": "uint256",
          "name": "",
          "type": "uint256"
        }
      ],
      "stateMutability": "view",
      "type": "function"
    },
    {
      "inputs": [
        {
          "components": [
            {
              "internalType": "address",
              "name": "outbound_tkn",
              "type": "address"
            },
            {
              "internalType": "address",
              "name": "inbound_tkn",
              "type": "address"
            },
            {
              "internalType": "uint256",
              "name": "offerId",
              "type": "uint256"
            },
            {
              "internalType": "Offer.t",
              "name": "offer",
              "type": "uint256"
            },
            {
              "internalType": "uint256",
              "name": "wants",
              "type": "uint256"
            },
            {
              "internalType": "uint256",
              "name": "gives",
              "type": "uint256"
            },
            {
              "internalType": "OfferDetail.t",
              "name": "offerDetail",
              "type": "uint256"
            },
            {
              "internalType": "Global.t",
              "name": "global",
              "type": "uint256"
            },
            {
              "internalType": "Local.t",
              "name": "local",
              "type": "uint256"
            }
          ],
          "internalType": "struct MgvLib.SingleOrder",
          "name": "order",
          "type": "tuple"
        }
      ],
      "name": "makerExecute",
      "outputs": [
        {
          "internalType": "bytes32",
          "name": "ret",
          "type": "bytes32"
        }
      ],
      "stateMutability": "nonpayable",
      "type": "function"
    },
    {
      "inputs": [
        {
          "components": [
            {
              "internalType": "address",
              "name": "outbound_tkn",
              "type": "address"
            },
            {
              "internalType": "address",
              "name": "inbound_tkn",
              "type": "address"
            },
            {
              "internalType": "uint256",
              "name": "offerId",
              "type": "uint256"
            },
            {
              "internalType": "Offer.t",
              "name": "offer",
              "type": "uint256"
            },
            {
              "internalType": "uint256",
              "name": "wants",
              "type": "uint256"
            },
            {
              "internalType": "uint256",
              "name": "gives",
              "type": "uint256"
            },
            {
              "internalType": "OfferDetail.t",
              "name": "offerDetail",
              "type": "uint256"
            },
            {
              "internalType": "Global.t",
              "name": "global",
              "type": "uint256"
            },
            {
              "internalType": "Local.t",
              "name": "local",
              "type": "uint256"
            }
          ],
          "internalType": "struct MgvLib.SingleOrder",
          "name": "order",
          "type": "tuple"
        },
        {
          "components": [
            {
              "internalType": "bytes32",
              "name": "makerData",
              "type": "bytes32"
            },
            {
              "internalType": "bytes32",
              "name": "mgvData",
              "type": "bytes32"
            }
          ],
          "internalType": "struct MgvLib.OrderResult",
          "name": "result",
          "type": "tuple"
        }
      ],
      "name": "makerPosthook",
      "outputs": [],
      "stateMutability": "nonpayable",
      "type": "function"
    },
    {
      "inputs": [
        {
          "internalType": "address",
          "name": "",
          "type": "address"
        }
      ],
      "name": "mgvBalance",
      "outputs": [
        {
          "internalType": "uint256",
          "name": "",
          "type": "uint256"
        }
      ],
      "stateMutability": "view",
      "type": "function"
    },
    {
      "inputs": [
        {
          "internalType": "address",
          "name": "outbound_tkn",
          "type": "address"
        },
        {
          "internalType": "address",
          "name": "inbound_tkn",
          "type": "address"
        },
        {
          "internalType": "uint256",
          "name": "wants",
          "type": "uint256"
        },
        {
          "internalType": "uint256",
          "name": "gives",
          "type": "uint256"
        },
        {
          "internalType": "uint256",
          "name": "gasreq",
          "type": "uint256"
        },
        {
          "internalType": "uint256",
          "name": "gasprice",
          "type": "uint256"
        },
        {
          "internalType": "uint256",
          "name": "pivotId",
          "type": "uint256"
        }
      ],
      "name": "newOffer",
      "outputs": [
        {
          "internalType": "uint256",
          "name": "offerId",
          "type": "uint256"
        }
      ],
      "stateMutability": "payable",
      "type": "function"
    },
    {
      "inputs": [
        {
          "internalType": "address",
          "name": "reader",
          "type": "address"
        },
        {
          "internalType": "address",
          "name": "outbound_tkn",
          "type": "address"
        },
        {
          "internalType": "address",
          "name": "inbound_tkn",
          "type": "address"
        },
        {
          "internalType": "uint256",
          "name": "fromId",
          "type": "uint256"
        },
        {
          "internalType": "uint256",
          "name": "maxOffers",
          "type": "uint256"
        }
      ],
      "name": "offerOwners",
      "outputs": [
        {
          "internalType": "uint256",
          "name": "nextId",
          "type": "uint256"
        },
        {
          "internalType": "uint256[]",
          "name": "offerIds",
          "type": "uint256[]"
        },
        {
          "internalType": "address[]",
          "name": "__offerOwners",
          "type": "address[]"
        }
      ],
      "stateMutability": "view",
      "type": "function"
    },
    {
      "inputs": [
        {
          "internalType": "address",
          "name": "outbound_tkn",
          "type": "address"
        },
        {
          "internalType": "address",
          "name": "inbound_tkn",
          "type": "address"
        },
        {
          "internalType": "uint256",
          "name": "offerId",
          "type": "uint256"
        }
      ],
      "name": "ownerOf",
      "outputs": [
        {
          "internalType": "address",
          "name": "owner",
          "type": "address"
        }
      ],
      "stateMutability": "view",
      "type": "function"
    },
    {
      "inputs": [
        {
          "internalType": "address",
          "name": "token",
          "type": "address"
        },
        {
          "internalType": "address",
          "name": "receiver",
          "type": "address"
        },
        {
          "internalType": "uint256",
          "name": "amount",
          "type": "uint256"
        }
      ],
      "name": "redeemToken",
      "outputs": [
        {
          "internalType": "bool",
          "name": "success",
          "type": "bool"
        }
      ],
      "stateMutability": "nonpayable",
      "type": "function"
    },
    {
      "inputs": [
        {
          "internalType": "address",
          "name": "outbound_tkn",
          "type": "address"
        },
        {
          "internalType": "address",
          "name": "inbound_tkn",
          "type": "address"
        },
        {
          "internalType": "uint256",
          "name": "offerId",
          "type": "uint256"
        },
        {
          "internalType": "bool",
          "name": "deprovision",
          "type": "bool"
        }
      ],
      "name": "retractOffer",
      "outputs": [
        {
          "internalType": "uint256",
          "name": "received",
          "type": "uint256"
        }
      ],
      "stateMutability": "nonpayable",
      "type": "function"
    },
    {
      "inputs": [
        {
          "internalType": "address",
          "name": "_admin",
          "type": "address"
        }
      ],
      "name": "setAdmin",
      "outputs": [],
      "stateMutability": "nonpayable",
      "type": "function"
    },
    {
      "inputs": [
        {
          "internalType": "uint256",
          "name": "gasreq",
          "type": "uint256"
        }
      ],
      "name": "setGasreq",
      "outputs": [],
      "stateMutability": "nonpayable",
      "type": "function"
    },
    {
      "inputs": [
        {
          "internalType": "address",
          "name": "token",
          "type": "address"
        }
      ],
      "name": "tokenBalance",
      "outputs": [
        {
          "internalType": "uint256",
          "name": "",
          "type": "uint256"
        }
      ],
      "stateMutability": "view",
      "type": "function"
    },
    {
      "inputs": [
        {
          "internalType": "address",
          "name": "",
          "type": "address"
        },
        {
          "internalType": "address",
          "name": "",
          "type": "address"
        }
      ],
      "name": "tokenBalanceOf",
      "outputs": [
        {
          "internalType": "uint256",
          "name": "",
          "type": "uint256"
        }
      ],
      "stateMutability": "view",
      "type": "function"
    },
    {
      "inputs": [
        {
          "internalType": "address",
          "name": "outbound_tkn",
          "type": "address"
        },
        {
          "internalType": "address",
          "name": "inbound_tkn",
          "type": "address"
        },
        {
          "internalType": "uint256",
          "name": "wants",
          "type": "uint256"
        },
        {
          "internalType": "uint256",
          "name": "gives",
          "type": "uint256"
        },
        {
          "internalType": "uint256",
          "name": "gasreq",
          "type": "uint256"
        },
        {
          "internalType": "uint256",
          "name": "gasprice",
          "type": "uint256"
        },
        {
          "internalType": "uint256",
          "name": "pivotId",
          "type": "uint256"
        },
        {
          "internalType": "uint256",
          "name": "offerId",
          "type": "uint256"
        }
      ],
      "name": "updateOffer",
      "outputs": [],
      "stateMutability": "payable",
      "type": "function"
    },
    {
      "inputs": [
        {
          "internalType": "address payable",
          "name": "receiver",
          "type": "address"
        },
        {
          "internalType": "uint256",
          "name": "amount",
          "type": "uint256"
        }
      ],
      "name": "withdrawFromMangrove",
      "outputs": [
        {
          "internalType": "bool",
          "name": "noRevert",
          "type": "bool"
        }
      ],
      "stateMutability": "nonpayable",
      "type": "function"
    },
    {
      "stateMutability": "payable",
      "type": "receive"
    }
  ],
  "bytecode": "0x6101006040527f4d616e67726f76654f666665722f72656e6567656400000000000000000000006080527f4d616e67726f76654f666665722f7075744661696c757265000000000000000060a0527f4d616e67726f76654f666665722f6f75744f664c69717569646974790000000060c052620186a06001553480156200008557600080fd5b506040516200320738038062003207833981016040819052620000a891620000cc565b600080546001600160a01b031916331790556001600160a01b031660e052620000fe565b600060208284031215620000df57600080fd5b81516001600160a01b0381168114620000f757600080fd5b9392505050565b60805160a05160c05160e051613058620001af6000396000818161031c01528181610902015281816109ff01528181610d1f015281816110a3015281816115f0015281816119cc01528181611aba01528181611b8301528181611cf201528181611dfc01528181611e98015281816120f3015281816121c60152818161228f015281816123dc015261253a015260008181610b8c0152610f5501526000610e8501526000610c4201526130586000f3fe6080604052600436106101795760003560e01c806399fa5e2d116100cb578063e428204d1161007f578063f851a44011610059578063f851a44014610483578063f92495e5146104b0578063faa030ec146104d057600080fd5b8063e428204d146103ff578063e4c34f8414610415578063eedc966a1461043557600080fd5b8063aefe8403116100b0578063aefe840314610383578063d1971159146103a3578063df242667146103d257600080fd5b806399fa5e2d1461030a578063ad97db1b1461036357600080fd5b80633d3d130d1161012d5780636a4f7691116101075780636a4f7691146102b75780636c49c32c146102ca578063704b6c02146102ea57600080fd5b80633d3d130d14610262578063458eda9a1461028257806349f6d2dc146102a457600080fd5b80631bea80061161015e5780631bea8006146101da578063338b5dea1461022057806334bd89311461024057600080fd5b8063063df2d2146101855780630d71bdc3146101ba57600080fd5b3661018057005b600080fd5b34801561019157600080fd5b506101a56101a036600461269e565b6104d8565b60405190151581526020015b60405180910390f35b3480156101c657600080fd5b506101a56101d53660046126ca565b610566565b3480156101e657600080fd5b506102126101f536600461270b565b600460209081526000928352604080842090915290825290205481565b6040519081526020016101b1565b34801561022c57600080fd5b506101a561023b36600461269e565b61067e565b34801561024c57600080fd5b5061026061025b366004612744565b6108c9565b005b34801561026e57600080fd5b5061026061027d366004612770565b6109fd565b34801561028e57600080fd5b5033600090815260036020526040902054610212565b6102126102b23660046127d0565b610c75565b6102606102c5366004612832565b610cfe565b3480156102d657600080fd5b506102126102e536600461289d565b610d1b565b3480156102f657600080fd5b506102606103053660046128ba565b610f86565b34801561031657600080fd5b5061033e7f000000000000000000000000000000000000000000000000000000000000000081565b60405173ffffffffffffffffffffffffffffffffffffffff90911681526020016101b1565b34801561036f57600080fd5b5061021261037e3660046128e5565b61104e565b34801561038f57600080fd5b5061026061039e36600461269e565b611066565b3480156103af57600080fd5b506103c36103be366004612938565b611189565b6040516101b193929190612993565b3480156103de57600080fd5b506102126103ed3660046128ba565b60036020526000908152604090205481565b34801561040b57600080fd5b5061021260015481565b34801561042157600080fd5b50610212610430366004612a2f565b61132c565b34801561044157600080fd5b506102126104503660046128ba565b73ffffffffffffffffffffffffffffffffffffffff16600090815260046020908152604080832033845290915290205490565b34801561048f57600080fd5b5060005461033e9073ffffffffffffffffffffffffffffffffffffffff1681565b3480156104bc57600080fd5b5061033e6104cb3660046126ca565b611384565b61026061142f565b600033301415610549576040517f08c379a000000000000000000000000000000000000000000000000000000000815260206004820152601260248201527f4d75746c692f6e6f5265656e7472616e6379000000000000000000000000000060448201526064015b60405180910390fd5b61055333836114a5565b61055d83836115be565b90505b92915050565b6000333014156105d2576040517f08c379a000000000000000000000000000000000000000000000000000000000815260206004820152601260248201527f4d75746c692f6e6f5265656e7472616e637900000000000000000000000000006044820152606401610540565b6105dd84338461178a565b6040517fa9059cbb00000000000000000000000000000000000000000000000000000000815273ffffffffffffffffffffffffffffffffffffffff84811660048301526024820184905285169063a9059cbb906044016020604051808303816000875af1158015610652573d6000803e3d6000fd5b505050506040513d601f19601f820116820180604052508101906106769190612a80565b949350505050565b6040517f70a08231000000000000000000000000000000000000000000000000000000008152306004820152600090819073ffffffffffffffffffffffffffffffffffffffff8516906370a0823190602401602060405180830381865afa1580156106ed573d6000803e3d6000fd5b505050506040513d601f19601f820116820180604052508101906107119190612a9d565b6040517f23b872dd0000000000000000000000000000000000000000000000000000000081523360048201523060248201526044810185905290915073ffffffffffffffffffffffffffffffffffffffff8516906323b872dd906064016020604051808303816000875af115801561078d573d6000803e3d6000fd5b505050506040513d601f19601f820116820180604052508101906107b19190612a80565b6040517f70a082310000000000000000000000000000000000000000000000000000000081523060048201529092508390829073ffffffffffffffffffffffffffffffffffffffff8716906370a0823190602401602060405180830381865afa158015610822573d6000803e3d6000fd5b505050506040513d601f19601f820116820180604052508101906108469190612a9d565b6108509190612ae5565b146108b7576040517f08c379a000000000000000000000000000000000000000000000000000000000815260206004820152601260248201527f4d756c74692f7472616e736665724661696c00000000000000000000000000006044820152606401610540565b6108c28433856118da565b5092915050565b60005473ffffffffffffffffffffffffffffffffffffffff1633148061092457503373ffffffffffffffffffffffffffffffffffffffff7f000000000000000000000000000000000000000000000000000000000000000016145b61098a576040517f08c379a000000000000000000000000000000000000000000000000000000000815260206004820152601860248201527f416363657373436f6e74726f6c6c65642f496e76616c696400000000000000006044820152606401610540565b808162ffffff16146109f8576040517f08c379a000000000000000000000000000000000000000000000000000000000815260206004820152601d60248201527f4d616e67726f76654f666665722f6761737265712f6f766572666c6f770000006044820152606401610540565b600155565b7f000000000000000000000000000000000000000000000000000000000000000073ffffffffffffffffffffffffffffffffffffffff81161580610a5657503373ffffffffffffffffffffffffffffffffffffffff8216145b610abc576040517f08c379a000000000000000000000000000000000000000000000000000000000815260206004820152601860248201527f416363657373436f6e74726f6c6c65642f496e76616c696400000000000000006044820152606401610540565b81602001357f6d67762f747261646553756363657373000000000000000000000000000000001415610b885760015b610b8357610aff60408401602085016128ba565b73ffffffffffffffffffffffffffffffffffffffff16610b2260208501856128ba565b73ffffffffffffffffffffffffffffffffffffffff167f51d5a3ecf332626d83c8207fe9bd22f38801f578c7eb222e2d811cd1b4c629a585604001358560200135604051610b7a929190918252602082015260400190565b60405180910390a35b505050565b81357f00000000000000000000000000000000000000000000000000000000000000001415610c3e5760015b610b8357610bc860408401602085016128ba565b73ffffffffffffffffffffffffffffffffffffffff16610beb60208501856128ba565b604080518187013581528535602082015273ffffffffffffffffffffffffffffffffffffffff92909216917f51d5a3ecf332626d83c8207fe9bd22f38801f578c7eb222e2d811cd1b4c629a59101610b7a565b81357f00000000000000000000000000000000000000000000000000000000000000001415610c6e576001610bb4565b6001610aeb565b600033301415610ce1576040517f08c379a000000000000000000000000000000000000000000000000000000000815260206004820152601260248201527f4d75746c692f6e6f5265656e7472616e637900000000000000000000000000006044820152606401610540565b610cf2888888888888883334611984565b98975050505050505050565b610d1088888888888888883334611c20565b505050505050505050565b60007f000000000000000000000000000000000000000000000000000000000000000073ffffffffffffffffffffffffffffffffffffffff81161580610d7657503373ffffffffffffffffffffffffffffffffffffffff8216145b610ddc576040517f08c379a000000000000000000000000000000000000000000000000000000000815260206004820152601860248201527f416363657373436f6e74726f6c6c65642f496e76616c696400000000000000006044820152606401610540565b6000610dec8460a0013585611ee6565b90508015610eac57610e0460408501602086016128ba565b73ffffffffffffffffffffffffffffffffffffffff16610e2760208601866128ba565b73ffffffffffffffffffffffffffffffffffffffff167f3482722a7c71a098521214cdb975e1d9faa0b0163f768e89566f7acc36cffd0b866040013584604051610e7b929190918252602082015260400190565b60405180910390a37f0000000000000000000000000000000000000000000000000000000000000000925050610f80565b6000610ebc856080013586611f39565b90508015610f7d57610ed460408601602087016128ba565b73ffffffffffffffffffffffffffffffffffffffff16610ef760208701876128ba565b73ffffffffffffffffffffffffffffffffffffffff167fc99fe658c80b903af0e1270f4a55564b3a7509294ab1052c6ab07f8198baea67876040013584604051610f4b929190918252602082015260400190565b60405180910390a37f000000000000000000000000000000000000000000000000000000000000000093505050610f80565b50505b50919050565b60005473ffffffffffffffffffffffffffffffffffffffff163314611007576040517f08c379a000000000000000000000000000000000000000000000000000000000815260206004820152601860248201527f416363657373436f6e74726f6c6c65642f496e76616c696400000000000000006044820152606401610540565b600080547fffffffffffffffffffffffff00000000000000000000000000000000000000001673ffffffffffffffffffffffffffffffffffffffff92909216919091179055565b600061105d8585858533611fed565b95945050505050565b6040517f095ea7b300000000000000000000000000000000000000000000000000000000815273ffffffffffffffffffffffffffffffffffffffff7f0000000000000000000000000000000000000000000000000000000000000000811660048301526024820183905283169063095ea7b3906044016020604051808303816000875af11580156110fb573d6000803e3d6000fd5b505050506040513d601f19601f8201168201806040525081019061111f9190612a80565b611185576040517f08c379a000000000000000000000000000000000000000000000000000000000815260206004820152601560248201527f6d67764f666665722f617070726f76652f4661696c00000000000000000000006044820152606401610540565b5050565b6040517f2c7e545f00000000000000000000000000000000000000000000000000000000815273ffffffffffffffffffffffffffffffffffffffff858116600483015284811660248301526044820184905260648201839052600091606091829190891690632c7e545f90608401600060405180830381865afa158015611214573d6000803e3d6000fd5b505050506040513d6000823e601f3d9081017fffffffffffffffffffffffffffffffffffffffffffffffffffffffffffffffe016820160405261125a9190810190612d15565b50508051919450925067ffffffffffffffff81111561127b5761127b612afc565b6040519080825280602002602001820160405280156112a4578160200160208202803683370190505b50905060005b8251811015611320576112d788888584815181106112ca576112ca612e0a565b6020026020010151611384565b8282815181106112e9576112e9612e0a565b73ffffffffffffffffffffffffffffffffffffffff909216602092830291909101909101528061131881612e39565b9150506112aa565b50955095509592505050565b600080821561136b576000611342888886611384565b73ffffffffffffffffffffffffffffffffffffffff166000908152600360205260409020549150505b611379818888888888612172565b979650505050505050565b73ffffffffffffffffffffffffffffffffffffffff8084166000908152600260209081526040808320868516845282528083208584529091529020541680611428576040517f08c379a000000000000000000000000000000000000000000000000000000000815260206004820152601560248201527f6d756c7469557365722f756e6b6f776e4f6666657200000000000000000000006044820152606401610540565b9392505050565b33301415611499576040517f08c379a000000000000000000000000000000000000000000000000000000000815260206004820152601260248201527f4d75746c692f6e6f5265656e7472616e637900000000000000000000000000006044820152606401610540565b6114a333346123da565b565b73ffffffffffffffffffffffffffffffffffffffff8216600090815260036020526040902054811115611534576040517f08c379a000000000000000000000000000000000000000000000000000000000815260206004820152601d60248201527f4d756c74692f64656269744f6e4d67762f696e73756666696369656e740000006044820152606401610540565b73ffffffffffffffffffffffffffffffffffffffff821660009081526003602052604081208054839290611569908490612ae5565b909155505060405181815273ffffffffffffffffffffffffffffffffffffffff8316907fd50b865b3d9d927f026d3b8404e07f25d6beb1d111deab51bdc846bf8d0a860b906020015b60405180910390a25050565b6040517f2e1a7d4d000000000000000000000000000000000000000000000000000000008152600481018290526000907f000000000000000000000000000000000000000000000000000000000000000073ffffffffffffffffffffffffffffffffffffffff1690632e1a7d4d906024016020604051808303816000875af115801561164e573d6000803e3d6000fd5b505050506040513d601f19601f820116820180604052508101906116729190612a80565b6116fe576040517f08c379a000000000000000000000000000000000000000000000000000000000815260206004820152602360248201527f4d616e67726f76654f666665722f77697468647261772f7472616e736665724660448201527f61696c00000000000000000000000000000000000000000000000000000000006064820152608401610540565b73ffffffffffffffffffffffffffffffffffffffff831630146117815760405173ffffffffffffffffffffffffffffffffffffffff8416908390600081818185875af1925050503d8060008114611771576040519150601f19603f3d011682016040523d82523d6000602084013e611776565b606091505b505080915050610560565b50600192915050565b8061179457505050565b73ffffffffffffffffffffffffffffffffffffffff808416600090815260046020908152604080832093861683529290522054811115611830576040517f08c379a000000000000000000000000000000000000000000000000000000000815260206004820152601d60248201527f4d756c74692f6465626974546f6b656e2f696e73756666696369656e740000006044820152606401610540565b73ffffffffffffffffffffffffffffffffffffffff808416600090815260046020908152604080832093861683529290529081208054839290611874908490612ae5565b925050819055508273ffffffffffffffffffffffffffffffffffffffff168273ffffffffffffffffffffffffffffffffffffffff167f7a97b405ee1bd89550b225932dbdd0431e30426b7c8f02f05b3cb0e1bdfb847683604051610b7a91815260200190565b73ffffffffffffffffffffffffffffffffffffffff80841660009081526004602090815260408083209386168352929052908120805483929061191e908490612e72565b925050819055508273ffffffffffffffffffffffffffffffffffffffff168273ffffffffffffffffffffffffffffffffffffffff167fb2b1ec266d1bab793ae1d020eedf03e575cc390e5fb9e370cb099fdf2f61534d83604051610b7a91815260200190565b6040517f70a08231000000000000000000000000000000000000000000000000000000008152306004820152600090819073ffffffffffffffffffffffffffffffffffffffff7f000000000000000000000000000000000000000000000000000000000000000016906370a0823190602401602060405180830381865afa158015611a13573d6000803e3d6000fd5b505050506040513d601f19601f82011682018060405250810190611a379190612a9d565b905062ffffff871115611a4a5760015496505b6040517f49f6d2dc00000000000000000000000000000000000000000000000000000000815273ffffffffffffffffffffffffffffffffffffffff8c811660048301528b81166024830152604482018b9052606482018a90526084820189905260a4820188905260c482018790527f000000000000000000000000000000000000000000000000000000000000000016906349f6d2dc90859060e40160206040518083038185885af193505050508015611b3f575060408051601f3d9081017fffffffffffffffffffffffffffffffffffffffffffffffffffffffffffffffe0168201909252611b3c91810190612a9d565b60015b611bf457611b4b612e8a565b806308c379a01415611be85750611b60612ea6565b80611b6b5750611bea565b3373ffffffffffffffffffffffffffffffffffffffff7f0000000000000000000000000000000000000000000000000000000000000000161415611bb457600092505050611c13565b806040517f08c379a00000000000000000000000000000000000000000000000000000000081526004016105409190612f4e565b505b3d6000803e3d6000fd5b611c008c8c8388612465565b611c0a8583612509565b9150611c139050565b9998505050505050505050565b6000611c2d8b8b86611384565b73ffffffffffffffffffffffffffffffffffffffff168373ffffffffffffffffffffffffffffffffffffffff1614611cc1576040517f08c379a000000000000000000000000000000000000000000000000000000000815260206004820152601e60248201527f4d756c74692f7570646174654f666665722f756e617574686f72697a656400006044820152606401610540565b6040517f70a082310000000000000000000000000000000000000000000000000000000081523060048201526000907f000000000000000000000000000000000000000000000000000000000000000073ffffffffffffffffffffffffffffffffffffffff16906370a0823190602401602060405180830381865afa158015611d4e573d6000803e3d6000fd5b505050506040513d601f19601f82011682018060405250810190611d729190612a9d565b905062ffffff881115611d855760015497505b6040517f6a4f769100000000000000000000000000000000000000000000000000000000815273ffffffffffffffffffffffffffffffffffffffff8d811660048301528c81166024830152604482018c9052606482018b9052608482018a905260a4820189905260c4820188905260e482018790527f00000000000000000000000000000000000000000000000000000000000000001690636a4f7691908590610104016000604051808303818588803b158015611e4257600080fd5b505af193505050508015611e54575060015b611ec957611e60612e8a565b806308c379a01415611be85750611e75612ea6565b80611e805750611bea565b3373ffffffffffffffffffffffffffffffffffffffff7f0000000000000000000000000000000000000000000000000000000000000000161415611bb457600092505050611ed8565b611ed38482612509565b849150505b9a9950505050505050505050565b600080611f13611ef960208501856128ba565b611f0960408601602087016128ba565b8560400135611384565b9050611f2f611f2860408501602086016128ba565b82866118da565b5060009392505050565b600080611f4c611ef960208501856128ba565b90506000600481611f6060208701876128ba565b73ffffffffffffffffffffffffffffffffffffffff90811682526020808301939093526040918201600090812091861681529252902054905084811015611fcb57611fb8611fb160208601866128ba565b838361178a565b611fc28186612ae5565b92505050610560565b611fe2611fdb60208601866128ba565b838761178a565b600092505050610560565b73ffffffffffffffffffffffffffffffffffffffff8581166000908152600260209081526040808320888516845282528083208784529091528120549091838116911614612097576040517f08c379a000000000000000000000000000000000000000000000000000000000815260206004820152601f60248201527f4d756c74692f726574726163744f666665722f756e617574686f72697a6564006044820152606401610540565b6040517fad97db1b00000000000000000000000000000000000000000000000000000000815273ffffffffffffffffffffffffffffffffffffffff878116600483015286811660248301526044820186905284151560648301527f0000000000000000000000000000000000000000000000000000000000000000169063ad97db1b906084016020604051808303816000875af115801561213c573d6000803e3d6000fd5b505050506040513d601f19601f820116820180604052508101906121609190612a9d565b9050801561105d5761105d82826125f7565b6040517fcbf75c9a00000000000000000000000000000000000000000000000000000000815273ffffffffffffffffffffffffffffffffffffffff86811660048301528581166024830152600091829182917f00000000000000000000000000000000000000000000000000000000000000009091169063cbf75c9a906044016040805180830381865afa15801561220e573d6000803e3d6000fd5b505050506040513d601f19601f820116820180604052508101906122329190612fc1565b6040517f5722647b00000000000000000000000000000000000000000000000000000000815273ffffffffffffffffffffffffffffffffffffffff8b811660048301528a81166024830152604482018890529294509092506000917f00000000000000000000000000000000000000000000000000000000000000001690635722647b90606401602060405180830381865afa1580156122d6573d6000803e3d6000fd5b505050506040513d601f19601f820116820180604052508101906122fa9190612a9d565b9050600086604085901c61ffff16111561231d575061ffff604084901c16612320565b50855b62ffffff8811156123315760015497505b60008161234762ffffff606087901c168b612e72565b6123519190612fe5565b61235f90633b9aca00612fe5565b9050600061ffff602085901c1661238662ffffff603087901c811690604888901c16612e72565b6123909190612fe5565b61239e90633b9aca00612fe5565b905060006123ac8e83612e72565b9050828110156123c5576123c08184612ae5565b6123c8565b60005b9e9d5050505050505050505050505050565b7f000000000000000000000000000000000000000000000000000000000000000073ffffffffffffffffffffffffffffffffffffffff1663b60d4288826040518263ffffffff1660e01b81526004016000604051808303818588803b15801561244257600080fd5b505af1158015612456573d6000803e3d6000fd5b505050505061118582826125f7565b73ffffffffffffffffffffffffffffffffffffffff848116600081815260026020908152604080832088861680855290835281842088855283529281902080547fffffffffffffffffffffffff00000000000000000000000000000000000000001695871695861790555193845285939192917fabf04a4ce23225c02bd147297da7ffc10e7d29102d8678f1a63fdd2cfd71ff07910160405180910390a450505050565b6040517f70a082310000000000000000000000000000000000000000000000000000000081523060048201526000907f000000000000000000000000000000000000000000000000000000000000000073ffffffffffffffffffffffffffffffffffffffff16906370a0823190602401602060405180830381865afa158015612596573d6000803e3d6000fd5b505050506040513d601f19601f820116820180604052508101906125ba9190612a9d565b9050818114156125c957505050565b818111156125e457610b83836125df8484612ae5565b6125f7565b610b83836125f28385612ae5565b6114a5565b73ffffffffffffffffffffffffffffffffffffffff82166000908152600360205260408120805483929061262c908490612e72565b909155505060405181815273ffffffffffffffffffffffffffffffffffffffff8316907f2022607feefe24f258126b277628af517f5512dd9499fb3520eeff54cad13703906020016115b2565b73ffffffffffffffffffffffffffffffffffffffff8116811461269b57600080fd5b50565b600080604083850312156126b157600080fd5b82356126bc81612679565b946020939093013593505050565b6000806000606084860312156126df57600080fd5b83356126ea81612679565b925060208401356126fa81612679565b929592945050506040919091013590565b6000806040838503121561271e57600080fd5b823561272981612679565b9150602083013561273981612679565b809150509250929050565b60006020828403121561275657600080fd5b5035919050565b60006101208284031215610f8057600080fd5b60008082840361016081121561278557600080fd5b61278f858561275d565b925060407ffffffffffffffffffffffffffffffffffffffffffffffffffffffffffffffee0820112156127c157600080fd5b50610120830190509250929050565b600080600080600080600060e0888a0312156127eb57600080fd5b87356127f681612679565b9650602088013561280681612679565b96999698505050506040850135946060810135946080820135945060a0820135935060c0909101359150565b600080600080600080600080610100898b03121561284f57600080fd5b883561285a81612679565b9750602089013561286a81612679565b979a9799505050506040860135956060810135956080820135955060a0820135945060c0820135935060e0909101359150565b600061012082840312156128b057600080fd5b61055d838361275d565b6000602082840312156128cc57600080fd5b813561142881612679565b801515811461269b57600080fd5b600080600080608085870312156128fb57600080fd5b843561290681612679565b9350602085013561291681612679565b925060408501359150606085013561292d816128d7565b939692955090935050565b600080600080600060a0868803121561295057600080fd5b853561295b81612679565b9450602086013561296b81612679565b9350604086013561297b81612679565b94979396509394606081013594506080013592915050565b6000606082018583526020606081850152818651808452608086019150828801935060005b818110156129d4578451835293830193918301916001016129b8565b50508481036040860152855180825290820192508186019060005b81811015612a2157825173ffffffffffffffffffffffffffffffffffffffff16855293830193918301916001016129ef565b509298975050505050505050565b600080600080600060a08688031215612a4757600080fd5b8535612a5281612679565b94506020860135612a6281612679565b94979496505050506040830135926060810135926080909101359150565b600060208284031215612a9257600080fd5b8151611428816128d7565b600060208284031215612aaf57600080fd5b5051919050565b7f4e487b7100000000000000000000000000000000000000000000000000000000600052601160045260246000fd5b600082821015612af757612af7612ab6565b500390565b7f4e487b7100000000000000000000000000000000000000000000000000000000600052604160045260246000fd5b6080810181811067ffffffffffffffff82111715612b4b57612b4b612afc565b60405250565b7fffffffffffffffffffffffffffffffffffffffffffffffffffffffffffffffe0601f830116810181811067ffffffffffffffff82111715612b9557612b95612afc565b6040525050565b600067ffffffffffffffff821115612bb657612bb6612afc565b5060051b60200190565b600082601f830112612bd157600080fd5b81516020612bde82612b9c565b60408051612bec8382612b51565b84815260079490941b8601830193838101925087851115612c0c57600080fd5b8387015b85811015612c60576080818a031215612c295760008081fd5b8251612c3481612b2b565b815181528582015186820152838201518482015260608083015190820152845292840192608001612c10565b50979650505050505050565b600082601f830112612c7d57600080fd5b81516020612c8a82612b9c565b60408051612c988382612b51565b84815260079490941b8601830193838101925087851115612cb857600080fd5b8387015b85811015612c60576080818a031215612cd55760008081fd5b8251612ce081612b2b565b8151612ceb81612679565b81528186015186820152838201518482015260608083015190820152845292840192608001612cbc565b60008060008060808587031215612d2b57600080fd5b8451935060208086015167ffffffffffffffff80821115612d4b57600080fd5b818801915088601f830112612d5f57600080fd5b8151612d6a81612b9c565b604051612d778282612b51565b82815260059290921b840185019185810191508b831115612d9757600080fd5b938501935b82851015612db557845182529385019390850190612d9c565b60408b01519098509450505080831115612dce57600080fd5b612dda89848a01612bc0565b94506060880151925080831115612df057600080fd5b5050612dfe87828801612c6c565b91505092959194509250565b7f4e487b7100000000000000000000000000000000000000000000000000000000600052603260045260246000fd5b60007fffffffffffffffffffffffffffffffffffffffffffffffffffffffffffffffff821415612e6b57612e6b612ab6565b5060010190565b60008219821115612e8557612e85612ab6565b500190565b600060033d1115612ea35760046000803e5060005160e01c5b90565b600060443d1015612eb45790565b6040517ffffffffffffffffffffffffffffffffffffffffffffffffffffffffffffffffc803d016004833e81513d67ffffffffffffffff8160248401118184111715612f0257505050505090565b8285019150815181811115612f1a5750505050505090565b843d8701016020828501011115612f345750505050505090565b612f4360208286010187612b51565b509095945050505050565b600060208083528351808285015260005b81811015612f7b57858101830151858201604001528201612f5f565b81811115612f8d576000604083870101525b50601f017fffffffffffffffffffffffffffffffffffffffffffffffffffffffffffffffe016929092016040019392505050565b60008060408385031215612fd457600080fd5b505080516020909101519092909150565b6000817fffffffffffffffffffffffffffffffffffffffffffffffffffffffffffffffff048311821515161561301d5761301d612ab6565b50029056fea2646970667358221220182147d1d97fdfb86e8274d1a508b89aa0dfc4f67d40927fe0a49c58879bf98264736f6c634300080a0033",
  "linkReferences": {},
  "deployedLinkReferences": {}
}