{
  "_format": "hh-sol-artifact-1",
  "contractName": "MultiMaker",
  "sourceName": "contracts/Strategies/OfferLogics/MultiUsers/Deployable/MultiMaker.sol",
  "abi": [
    {
      "inputs": [
        {
          "internalType": "address payable",
          "name": "_MGV",
          "type": "address"
        },
        {
          "internalType": "address",
          "name": "admin",
          "type": "address"
        }
      ],
      "stateMutability": "nonpayable",
      "type": "constructor"
    },
    {
      "anonymous": false,
      "inputs": [
        {
          "indexed": true,
          "internalType": "address",
          "name": "user",
          "type": "address"
        },
        {
          "indexed": false,
          "internalType": "uint256",
          "name": "amount",
          "type": "uint256"
        }
      ],
      "name": "CreditMgvUser",
      "type": "event"
    },
    {
      "anonymous": false,
      "inputs": [
        {
          "indexed": true,
          "internalType": "address",
          "name": "user",
          "type": "address"
        },
        {
          "indexed": true,
          "internalType": "address",
          "name": "token",
          "type": "address"
        },
        {
          "indexed": false,
          "internalType": "uint256",
          "name": "amount",
          "type": "uint256"
        }
      ],
      "name": "CreditUserTokenBalance",
      "type": "event"
    },
    {
      "anonymous": false,
      "inputs": [
        {
          "indexed": true,
          "internalType": "address",
          "name": "user",
          "type": "address"
        },
        {
          "indexed": false,
          "internalType": "uint256",
          "name": "amount",
          "type": "uint256"
        }
      ],
      "name": "DebitMgvUser",
      "type": "event"
    },
    {
      "anonymous": false,
      "inputs": [
        {
          "indexed": true,
          "internalType": "address",
          "name": "user",
          "type": "address"
        },
        {
          "indexed": true,
          "internalType": "address",
          "name": "token",
          "type": "address"
        },
        {
          "indexed": false,
          "internalType": "uint256",
          "name": "amount",
          "type": "uint256"
        }
      ],
      "name": "DebitUserTokenBalance",
      "type": "event"
    },
    {
      "anonymous": false,
      "inputs": [
        {
          "indexed": true,
          "internalType": "address",
          "name": "outbound_tkn",
          "type": "address"
        },
        {
          "indexed": true,
          "internalType": "address",
          "name": "inbound_tkn",
          "type": "address"
        },
        {
          "indexed": true,
          "internalType": "uint256",
          "name": "offerId",
          "type": "uint256"
        },
        {
          "indexed": false,
          "internalType": "bytes32",
          "name": "reason",
          "type": "bytes32"
        }
      ],
      "name": "LogIncident",
      "type": "event"
    },
    {
      "anonymous": false,
      "inputs": [
        {
          "indexed": true,
          "internalType": "address",
          "name": "outbound_tkn",
          "type": "address"
        },
        {
          "indexed": true,
          "internalType": "address",
          "name": "inbound_tkn",
          "type": "address"
        },
        {
          "indexed": true,
          "internalType": "uint256",
          "name": "offerId",
          "type": "uint256"
        },
        {
          "indexed": false,
          "internalType": "address",
          "name": "owner",
          "type": "address"
        }
      ],
      "name": "NewOwnedOffer",
      "type": "event"
    },
    {
      "inputs": [],
      "name": "MGV",
      "outputs": [
        {
          "internalType": "contract IMangrove",
          "name": "",
          "type": "address"
        }
      ],
      "stateMutability": "view",
      "type": "function"
    },
    {
      "inputs": [],
      "name": "OFR_GASREQ",
      "outputs": [
        {
          "internalType": "uint256",
          "name": "",
          "type": "uint256"
        }
      ],
      "stateMutability": "view",
      "type": "function"
    },
    {
      "inputs": [],
      "name": "admin",
      "outputs": [
        {
          "internalType": "address",
          "name": "",
          "type": "address"
        }
      ],
      "stateMutability": "view",
      "type": "function"
    },
    {
      "inputs": [
        {
          "internalType": "address",
          "name": "outbound_tkn",
          "type": "address"
        },
        {
          "internalType": "uint256",
          "name": "amount",
          "type": "uint256"
        }
      ],
      "name": "approveMangrove",
      "outputs": [],
      "stateMutability": "nonpayable",
      "type": "function"
    },
    {
      "inputs": [
        {
          "internalType": "address",
          "name": "owner",
          "type": "address"
        }
      ],
      "name": "balanceOnMangrove",
      "outputs": [
        {
          "internalType": "uint256",
          "name": "",
          "type": "uint256"
        }
      ],
      "stateMutability": "view",
      "type": "function"
    },
    {
      "inputs": [
        {
          "internalType": "address",
          "name": "token",
          "type": "address"
        },
        {
          "internalType": "uint256",
          "name": "amount",
          "type": "uint256"
        }
      ],
      "name": "depositToken",
      "outputs": [
        {
          "internalType": "bool",
          "name": "success",
          "type": "bool"
        }
      ],
      "stateMutability": "nonpayable",
      "type": "function"
    },
    {
      "inputs": [],
      "name": "fundMangrove",
      "outputs": [],
      "stateMutability": "payable",
      "type": "function"
    },
    {
      "inputs": [
        {
          "internalType": "address",
          "name": "outbound_tkn",
          "type": "address"
        },
        {
          "internalType": "address",
          "name": "inbound_tkn",
          "type": "address"
        },
        {
          "internalType": "uint256",
          "name": "gasreq",
          "type": "uint256"
        },
        {
          "internalType": "uint256",
          "name": "gasprice",
          "type": "uint256"
        },
        {
          "internalType": "uint256",
          "name": "offerId",
          "type": "uint256"
        }
      ],
      "name": "getMissingProvision",
      "outputs": [
        {
          "internalType": "uint256",
          "name": "",
          "type": "uint256"
        }
      ],
      "stateMutability": "view",
      "type": "function"
    },
    {
      "inputs": [
        {
          "components": [
            {
              "internalType": "address",
              "name": "outbound_tkn",
              "type": "address"
            },
            {
              "internalType": "address",
              "name": "inbound_tkn",
              "type": "address"
            },
            {
              "internalType": "uint256",
              "name": "offerId",
              "type": "uint256"
            },
            {
              "internalType": "Offer.t",
              "name": "offer",
              "type": "uint256"
            },
            {
              "internalType": "uint256",
              "name": "wants",
              "type": "uint256"
            },
            {
              "internalType": "uint256",
              "name": "gives",
              "type": "uint256"
            },
            {
              "internalType": "OfferDetail.t",
              "name": "offerDetail",
              "type": "uint256"
            },
            {
              "internalType": "Global.t",
              "name": "global",
              "type": "uint256"
            },
            {
              "internalType": "Local.t",
              "name": "local",
              "type": "uint256"
            }
          ],
          "internalType": "struct MgvLib.SingleOrder",
          "name": "order",
          "type": "tuple"
        }
      ],
      "name": "makerExecute",
      "outputs": [
        {
          "internalType": "bytes32",
          "name": "ret",
          "type": "bytes32"
        }
      ],
      "stateMutability": "nonpayable",
      "type": "function"
    },
    {
      "inputs": [
        {
          "components": [
            {
              "internalType": "address",
              "name": "outbound_tkn",
              "type": "address"
            },
            {
              "internalType": "address",
              "name": "inbound_tkn",
              "type": "address"
            },
            {
              "internalType": "uint256",
              "name": "offerId",
              "type": "uint256"
            },
            {
              "internalType": "Offer.t",
              "name": "offer",
              "type": "uint256"
            },
            {
              "internalType": "uint256",
              "name": "wants",
              "type": "uint256"
            },
            {
              "internalType": "uint256",
              "name": "gives",
              "type": "uint256"
            },
            {
              "internalType": "OfferDetail.t",
              "name": "offerDetail",
              "type": "uint256"
            },
            {
              "internalType": "Global.t",
              "name": "global",
              "type": "uint256"
            },
            {
              "internalType": "Local.t",
              "name": "local",
              "type": "uint256"
            }
          ],
          "internalType": "struct MgvLib.SingleOrder",
          "name": "order",
          "type": "tuple"
        },
        {
          "components": [
            {
              "internalType": "bytes32",
              "name": "makerData",
              "type": "bytes32"
            },
            {
              "internalType": "bytes32",
              "name": "mgvData",
              "type": "bytes32"
            }
          ],
          "internalType": "struct MgvLib.OrderResult",
          "name": "result",
          "type": "tuple"
        }
      ],
      "name": "makerPosthook",
      "outputs": [],
      "stateMutability": "nonpayable",
      "type": "function"
    },
    {
      "inputs": [
        {
          "internalType": "address",
          "name": "",
          "type": "address"
        }
      ],
      "name": "mgvBalance",
      "outputs": [
        {
          "internalType": "uint256",
          "name": "",
          "type": "uint256"
        }
      ],
      "stateMutability": "view",
      "type": "function"
    },
    {
      "inputs": [
        {
          "internalType": "address",
          "name": "outbound_tkn",
          "type": "address"
        },
        {
          "internalType": "address",
          "name": "inbound_tkn",
          "type": "address"
        },
        {
          "internalType": "uint256",
          "name": "wants",
          "type": "uint256"
        },
        {
          "internalType": "uint256",
          "name": "gives",
          "type": "uint256"
        },
        {
          "internalType": "uint256",
          "name": "gasreq",
          "type": "uint256"
        },
        {
          "internalType": "uint256",
          "name": "gasprice",
          "type": "uint256"
        },
        {
          "internalType": "uint256",
          "name": "pivotId",
          "type": "uint256"
        }
      ],
      "name": "newOffer",
      "outputs": [
        {
          "internalType": "uint256",
          "name": "offerId",
          "type": "uint256"
        }
      ],
      "stateMutability": "payable",
      "type": "function"
    },
    {
      "inputs": [
        {
          "internalType": "address",
          "name": "outbound_tkn",
          "type": "address"
        },
        {
          "internalType": "address",
          "name": "inbound_tkn",
          "type": "address"
        },
        {
          "internalType": "uint256[]",
          "name": "offerIds",
          "type": "uint256[]"
        }
      ],
      "name": "offerOwners",
      "outputs": [
        {
          "internalType": "address[]",
          "name": "__offerOwners",
          "type": "address[]"
        }
      ],
      "stateMutability": "view",
      "type": "function"
    },
    {
      "inputs": [
        {
          "internalType": "address",
          "name": "outbound_tkn",
          "type": "address"
        },
        {
          "internalType": "address",
          "name": "inbound_tkn",
          "type": "address"
        },
        {
          "internalType": "uint256",
          "name": "offerId",
          "type": "uint256"
        }
      ],
      "name": "ownerOf",
      "outputs": [
        {
          "internalType": "address",
          "name": "owner",
          "type": "address"
        }
      ],
      "stateMutability": "view",
      "type": "function"
    },
    {
      "inputs": [
        {
          "internalType": "address",
          "name": "token",
          "type": "address"
        },
        {
          "internalType": "address",
          "name": "receiver",
          "type": "address"
        },
        {
          "internalType": "uint256",
          "name": "amount",
          "type": "uint256"
        }
      ],
      "name": "redeemToken",
      "outputs": [
        {
          "internalType": "bool",
          "name": "success",
          "type": "bool"
        }
      ],
      "stateMutability": "nonpayable",
      "type": "function"
    },
    {
      "inputs": [
        {
          "internalType": "address",
          "name": "outbound_tkn",
          "type": "address"
        },
        {
          "internalType": "address",
          "name": "inbound_tkn",
          "type": "address"
        },
        {
          "internalType": "uint256",
          "name": "offerId",
          "type": "uint256"
        },
        {
          "internalType": "bool",
          "name": "deprovision",
          "type": "bool"
        }
      ],
      "name": "retractOffer",
      "outputs": [
        {
          "internalType": "uint256",
          "name": "received",
          "type": "uint256"
        }
      ],
      "stateMutability": "nonpayable",
      "type": "function"
    },
    {
      "inputs": [
        {
          "internalType": "address",
          "name": "_admin",
          "type": "address"
        }
      ],
      "name": "setAdmin",
      "outputs": [],
      "stateMutability": "nonpayable",
      "type": "function"
    },
    {
      "inputs": [
        {
          "internalType": "uint256",
          "name": "gasreq",
          "type": "uint256"
        }
      ],
      "name": "setGasreq",
      "outputs": [],
      "stateMutability": "nonpayable",
      "type": "function"
    },
    {
      "inputs": [
        {
          "internalType": "address",
          "name": "token",
          "type": "address"
        },
        {
          "internalType": "address",
          "name": "owner",
          "type": "address"
        }
      ],
      "name": "tokenBalance",
      "outputs": [
        {
          "internalType": "uint256",
          "name": "",
          "type": "uint256"
        }
      ],
      "stateMutability": "view",
      "type": "function"
    },
    {
      "inputs": [
        {
          "internalType": "address",
          "name": "",
          "type": "address"
        },
        {
          "internalType": "address",
          "name": "",
          "type": "address"
        }
      ],
      "name": "tokenBalanceOf",
      "outputs": [
        {
          "internalType": "uint256",
          "name": "",
          "type": "uint256"
        }
      ],
      "stateMutability": "view",
      "type": "function"
    },
    {
      "inputs": [
        {
          "internalType": "address",
          "name": "outbound_tkn",
          "type": "address"
        },
        {
          "internalType": "address",
          "name": "inbound_tkn",
          "type": "address"
        },
        {
          "internalType": "uint256",
          "name": "wants",
          "type": "uint256"
        },
        {
          "internalType": "uint256",
          "name": "gives",
          "type": "uint256"
        },
        {
          "internalType": "uint256",
          "name": "gasreq",
          "type": "uint256"
        },
        {
          "internalType": "uint256",
          "name": "gasprice",
          "type": "uint256"
        },
        {
          "internalType": "uint256",
          "name": "pivotId",
          "type": "uint256"
        },
        {
          "internalType": "uint256",
          "name": "offerId",
          "type": "uint256"
        }
      ],
      "name": "updateOffer",
      "outputs": [],
      "stateMutability": "payable",
      "type": "function"
    },
    {
      "inputs": [
        {
          "internalType": "address payable",
          "name": "receiver",
          "type": "address"
        },
        {
          "internalType": "uint256",
          "name": "amount",
          "type": "uint256"
        }
      ],
      "name": "withdrawFromMangrove",
      "outputs": [
        {
          "internalType": "bool",
          "name": "noRevert",
          "type": "bool"
        }
      ],
      "stateMutability": "nonpayable",
      "type": "function"
    },
    {
      "stateMutability": "payable",
      "type": "receive"
    }
  ],
  "bytecode": "0x60a06040523480156200001157600080fd5b5060405162002f1138038062002f1183398101604081905262000034916200014f565b8181806001600160a01b038116620000925760405162461bcd60e51b815260206004820152601860248201527f616363657373436f6e74726f6c6c65642f307841646d696e0000000000000000604482015260640160405180910390fd5b80620000a8620000ee60201b620014261760201c565b80546001600160a01b0319166001600160a01b0392831617905583166080525062013880620000e262000112602090811b6200144a17901c565b55506200018e92505050565b7f7d382ebca3e46505071795e192d28166a3d4bd0685585591bc6c5b8df6769fd290565b7fae7e31c3220e851db9f204a28b279dfe52b973600b0a456991089c220ae7222490565b6001600160a01b03811681146200014c57600080fd5b50565b600080604083850312156200016357600080fd5b8251620001708162000136565b6020840151909250620001838162000136565b809150509250929050565b608051612cfe62000213600039600081816103900152818161098001528181610a9c01528181610d140152818161103d01528181611102015281816115b90152818161197c01528181611a8901528181611bf201528181611d1b01528181611ff1015281816120c40152818161218d015281816122f901526124550152612cfe6000f3fe6080604052600436106101795760003560e01c8063704b6c02116100cb578063df2426671161007f578063f851a44011610059578063f851a440146104c5578063f92495e51461050f578063faa030ec1461052f57600080fd5b8063df24266714610444578063e428204d14610471578063e4c34f84146104a557600080fd5b8063ad97db1b116100b0578063ad97db1b146103d7578063aefe8403146103f7578063dec8c86b1461041757600080fd5b8063704b6c021461035e57806399fa5e2d1461037e57600080fd5b806334bd89311161012d57806349f6d2dc1161010757806349f6d2dc146103185780636a4f76911461032b5780636c49c32c1461033e57600080fd5b806334bd89311461029357806335d61cb2146102b55780633d3d130d146102f857600080fd5b80631049334f1161015e5780631049334f146101da5780631bea80061461023b578063338b5dea1461027357600080fd5b8063063df2d2146101855780630d71bdc3146101ba57600080fd5b3661018057005b600080fd5b34801561019157600080fd5b506101a56101a03660046125b9565b610537565b60405190151581526020015b60405180910390f35b3480156101c657600080fd5b506101a56101d53660046125e5565b6105c5565b3480156101e657600080fd5b5061022d6101f5366004612626565b73ffffffffffffffffffffffffffffffffffffffff918216600090815260026020908152604080832093909416825291909152205490565b6040519081526020016101b1565b34801561024757600080fd5b5061022d610256366004612626565b600260209081526000928352604080842090915290825290205481565b34801561027f57600080fd5b506101a561028e3660046125b9565b6106dd565b34801561029f57600080fd5b506102b36102ae36600461265f565b610928565b005b3480156102c157600080fd5b5061022d6102d0366004612678565b73ffffffffffffffffffffffffffffffffffffffff1660009081526001602052604090205490565b34801561030457600080fd5b506102b36103133660046126a8565b610a9a565b61022d610326366004612708565b610c24565b6102b361033936600461276a565b610cad565b34801561034a57600080fd5b5061022d6103593660046127d5565b610d10565b34801561036a57600080fd5b506102b3610379366004612678565b610ec7565b34801561038a57600080fd5b506103b27f000000000000000000000000000000000000000000000000000000000000000081565b60405173ffffffffffffffffffffffffffffffffffffffff90911681526020016101b1565b3480156103e357600080fd5b5061022d6103f2366004612800565b610fcd565b34801561040357600080fd5b506102b36104123660046125b9565b610fe5565b34801561042357600080fd5b50610437610432366004612853565b6111e8565b6040516101b191906128e8565b34801561045057600080fd5b5061022d61045f366004612678565b60016020526000908152604090205481565b34801561047d57600080fd5b507fae7e31c3220e851db9f204a28b279dfe52b973600b0a456991089c220ae722245461022d565b3480156104b157600080fd5b5061022d6104c0366004612942565b6112af565b3480156104d157600080fd5b507f7d382ebca3e46505071795e192d28166a3d4bd0685585591bc6c5b8df6769fd25473ffffffffffffffffffffffffffffffffffffffff166103b2565b34801561051b57600080fd5b506103b261052a3660046125e5565b611307565b6102b36113b0565b6000333014156105a8576040517f08c379a000000000000000000000000000000000000000000000000000000000815260206004820152601260248201527f4d75746c692f6e6f5265656e7472616e6379000000000000000000000000000060448201526064015b60405180910390fd5b6105b2338361146e565b6105bc8383611587565b90505b92915050565b600033301415610631576040517f08c379a000000000000000000000000000000000000000000000000000000000815260206004820152601260248201527f4d75746c692f6e6f5265656e7472616e63790000000000000000000000000000604482015260640161059f565b61063c84338461172d565b6040517fa9059cbb00000000000000000000000000000000000000000000000000000000815273ffffffffffffffffffffffffffffffffffffffff84811660048301526024820184905285169063a9059cbb906044016020604051808303816000875af11580156106b1573d6000803e3d6000fd5b505050506040513d601f19601f820116820180604052508101906106d59190612993565b949350505050565b6040517f70a08231000000000000000000000000000000000000000000000000000000008152306004820152600090819073ffffffffffffffffffffffffffffffffffffffff8516906370a0823190602401602060405180830381865afa15801561074c573d6000803e3d6000fd5b505050506040513d601f19601f8201168201806040525081019061077091906129b0565b6040517f23b872dd0000000000000000000000000000000000000000000000000000000081523360048201523060248201526044810185905290915073ffffffffffffffffffffffffffffffffffffffff8516906323b872dd906064016020604051808303816000875af11580156107ec573d6000803e3d6000fd5b505050506040513d601f19601f820116820180604052508101906108109190612993565b6040517f70a082310000000000000000000000000000000000000000000000000000000081523060048201529092508390829073ffffffffffffffffffffffffffffffffffffffff8716906370a0823190602401602060405180830381865afa158015610881573d6000803e3d6000fd5b505050506040513d601f19601f820116820180604052508101906108a591906129b0565b6108af91906129f8565b14610916576040517f08c379a000000000000000000000000000000000000000000000000000000000815260206004820152601260248201527f4d756c74692f7472616e736665724661696c0000000000000000000000000000604482015260640161059f565b61092184338561188a565b5092915050565b7f7d382ebca3e46505071795e192d28166a3d4bd0685585591bc6c5b8df6769fd25473ffffffffffffffffffffffffffffffffffffffff163314806109a257503373ffffffffffffffffffffffffffffffffffffffff7f000000000000000000000000000000000000000000000000000000000000000016145b610a08576040517f08c379a000000000000000000000000000000000000000000000000000000000815260206004820152601860248201527f416363657373436f6e74726f6c6c65642f496e76616c69640000000000000000604482015260640161059f565b808162ffffff1614610a76576040517f08c379a000000000000000000000000000000000000000000000000000000000815260206004820152601860248201527f6d67764f666665722f6761737265712f6f766572666c6f770000000000000000604482015260640161059f565b7fae7e31c3220e851db9f204a28b279dfe52b973600b0a456991089c220ae7222455565b7f000000000000000000000000000000000000000000000000000000000000000073ffffffffffffffffffffffffffffffffffffffff81161580610af357503373ffffffffffffffffffffffffffffffffffffffff8216145b610b59576040517f08c379a000000000000000000000000000000000000000000000000000000000815260206004820152601860248201527f416363657373436f6e74726f6c6c65642f496e76616c69640000000000000000604482015260640161059f565b81602001357f6d67762f747261646553756363657373000000000000000000000000000000001415610b8e5760015b50505050565b60408301803590610ba29060208601612678565b73ffffffffffffffffffffffffffffffffffffffff16610bc56020860186612678565b73ffffffffffffffffffffffffffffffffffffffff167fd2c3f090769d843e1fc2e6ce65d60572e28f9163a5cfccbd6c1725c6a9263f2f8560000135604051610c1091815260200190565b60405180910390a46001610b88565b505050565b600033301415610c90576040517f08c379a000000000000000000000000000000000000000000000000000000000815260206004820152601260248201527f4d75746c692f6e6f5265656e7472616e63790000000000000000000000000000604482015260640161059f565b610ca1888888888888883334611934565b98975050505050505050565b600080610cc28a8a8a8a8a8a8a8a3334611b1e565b91509150600082118190610d03576040517f08c379a000000000000000000000000000000000000000000000000000000000815260040161059f9190612a0f565b5050505050505050505050565b60007f000000000000000000000000000000000000000000000000000000000000000073ffffffffffffffffffffffffffffffffffffffff81161580610d6b57503373ffffffffffffffffffffffffffffffffffffffff8216145b610dd1576040517f08c379a000000000000000000000000000000000000000000000000000000000815260206004820152601860248201527f416363657373436f6e74726f6c6c65642f496e76616c69640000000000000000604482015260640161059f565b6000610de18460a0013585611de6565b1115610e49576040517f08c379a000000000000000000000000000000000000000000000000000000000815260206004820152601860248201527f6d67764f666665722f61626f72742f7075744661696c65640000000000000000604482015260640161059f565b6000610e59846080013585611e39565b1115610ec1576040517f08c379a000000000000000000000000000000000000000000000000000000000815260206004820152601860248201527f6d67764f666665722f61626f72742f6765744661696c65640000000000000000604482015260640161059f565b50919050565b7f7d382ebca3e46505071795e192d28166a3d4bd0685585591bc6c5b8df6769fd25473ffffffffffffffffffffffffffffffffffffffff163314610f67576040517f08c379a000000000000000000000000000000000000000000000000000000000815260206004820152601860248201527f416363657373436f6e74726f6c6c65642f496e76616c69640000000000000000604482015260640161059f565b7f7d382ebca3e46505071795e192d28166a3d4bd0685585591bc6c5b8df6769fd280547fffffffffffffffffffffffff00000000000000000000000000000000000000001673ffffffffffffffffffffffffffffffffffffffff92909216919091179055565b6000610fdc8585858533611eed565b95945050505050565b7f7d382ebca3e46505071795e192d28166a3d4bd0685585591bc6c5b8df6769fd25473ffffffffffffffffffffffffffffffffffffffff1633148061105f57503373ffffffffffffffffffffffffffffffffffffffff7f000000000000000000000000000000000000000000000000000000000000000016145b6110c5576040517f08c379a000000000000000000000000000000000000000000000000000000000815260206004820152601860248201527f416363657373436f6e74726f6c6c65642f496e76616c69640000000000000000604482015260640161059f565b6040517f095ea7b300000000000000000000000000000000000000000000000000000000815273ffffffffffffffffffffffffffffffffffffffff7f0000000000000000000000000000000000000000000000000000000000000000811660048301526024820183905283169063095ea7b3906044016020604051808303816000875af115801561115a573d6000803e3d6000fd5b505050506040513d601f19601f8201168201806040525081019061117e9190612993565b6111e4576040517f08c379a000000000000000000000000000000000000000000000000000000000815260206004820152601560248201527f6d67764f666665722f617070726f76652f4661696c0000000000000000000000604482015260640161059f565b5050565b60608167ffffffffffffffff81111561120357611203612a82565b60405190808252806020026020018201604052801561122c578160200160208202803683370190505b50905060005b828110156112a65761125d868686868581811061125157611251612ab1565b90506020020135611307565b82828151811061126f5761126f612ab1565b73ffffffffffffffffffffffffffffffffffffffff909216602092830291909101909101528061129e81612ae0565b915050611232565b50949350505050565b60008082156112ee5760006112c5888886611307565b73ffffffffffffffffffffffffffffffffffffffff166000908152600160205260409020549150505b6112fc818888888888612070565b979650505050505050565b73ffffffffffffffffffffffffffffffffffffffff8084166000908152602081815260408083208685168452825280832085845290915290205416806113a9576040517f08c379a000000000000000000000000000000000000000000000000000000000815260206004820152601560248201527f6d756c7469557365722f756e6b6f776e4f666665720000000000000000000000604482015260640161059f565b9392505050565b3330141561141a576040517f08c379a000000000000000000000000000000000000000000000000000000000815260206004820152601260248201527f4d75746c692f6e6f5265656e7472616e63790000000000000000000000000000604482015260640161059f565b61142433346122f7565b565b7f7d382ebca3e46505071795e192d28166a3d4bd0685585591bc6c5b8df6769fd290565b7fae7e31c3220e851db9f204a28b279dfe52b973600b0a456991089c220ae7222490565b73ffffffffffffffffffffffffffffffffffffffff82166000908152600160205260409020548111156114fd576040517f08c379a000000000000000000000000000000000000000000000000000000000815260206004820152601d60248201527f4d756c74692f64656269744f6e4d67762f696e73756666696369656e74000000604482015260640161059f565b73ffffffffffffffffffffffffffffffffffffffff8216600090815260016020526040812080548392906115329084906129f8565b909155505060405181815273ffffffffffffffffffffffffffffffffffffffff8316907fd50b865b3d9d927f026d3b8404e07f25d6beb1d111deab51bdc846bf8d0a860b906020015b60405180910390a25050565b6040517f2e1a7d4d000000000000000000000000000000000000000000000000000000008152600481018290526000907f000000000000000000000000000000000000000000000000000000000000000073ffffffffffffffffffffffffffffffffffffffff1690632e1a7d4d906024016020604051808303816000875af1158015611617573d6000803e3d6000fd5b505050506040513d601f19601f8201168201806040525081019061163b9190612993565b6116a1576040517f08c379a000000000000000000000000000000000000000000000000000000000815260206004820152601e60248201527f6d67764f666665722f77697468647261772f7472616e736665724661696c0000604482015260640161059f565b73ffffffffffffffffffffffffffffffffffffffff831630146117245760405173ffffffffffffffffffffffffffffffffffffffff8416908390600081818185875af1925050503d8060008114611714576040519150601f19603f3d011682016040523d82523d6000602084013e611719565b606091505b5050809150506105bf565b50600192915050565b8061173757505050565b73ffffffffffffffffffffffffffffffffffffffff8084166000908152600260209081526040808320938616835292905220548111156117d3576040517f08c379a000000000000000000000000000000000000000000000000000000000815260206004820152601d60248201527f4d756c74692f6465626974546f6b656e2f696e73756666696369656e74000000604482015260640161059f565b73ffffffffffffffffffffffffffffffffffffffff8084166000908152600260209081526040808320938616835292905290812080548392906118179084906129f8565b925050819055508273ffffffffffffffffffffffffffffffffffffffff168273ffffffffffffffffffffffffffffffffffffffff167f7a97b405ee1bd89550b225932dbdd0431e30426b7c8f02f05b3cb0e1bdfb84768360405161187d91815260200190565b60405180910390a3505050565b73ffffffffffffffffffffffffffffffffffffffff8084166000908152600260209081526040808320938616835292905290812080548392906118ce908490612b19565b925050819055508273ffffffffffffffffffffffffffffffffffffffff168273ffffffffffffffffffffffffffffffffffffffff167fb2b1ec266d1bab793ae1d020eedf03e575cc390e5fb9e370cb099fdf2f61534d8360405161187d91815260200190565b6040517f70a08231000000000000000000000000000000000000000000000000000000008152306004820152600090819073ffffffffffffffffffffffffffffffffffffffff7f000000000000000000000000000000000000000000000000000000000000000016906370a0823190602401602060405180830381865afa1580156119c3573d6000803e3d6000fd5b505050506040513d601f19601f820116820180604052508101906119e791906129b0565b905062ffffff871115611a19577fae7e31c3220e851db9f204a28b279dfe52b973600b0a456991089c220ae722245496505b6040517f49f6d2dc00000000000000000000000000000000000000000000000000000000815273ffffffffffffffffffffffffffffffffffffffff8c811660048301528b81166024830152604482018b9052606482018a90526084820189905260a4820188905260c482018790527f000000000000000000000000000000000000000000000000000000000000000016906349f6d2dc90859060e40160206040518083038185885af1158015611ad3573d6000803e3d6000fd5b50505050506040513d601f19601f82011682018060405250810190611af891906129b0565b9150611b068b8b8487612382565b611b108482612424565b509998505050505050505050565b60006060611b2d8c8c87611307565b73ffffffffffffffffffffffffffffffffffffffff168473ffffffffffffffffffffffffffffffffffffffff1614611bc1576040517f08c379a000000000000000000000000000000000000000000000000000000000815260206004820152601e60248201527f4d756c74692f7570646174654f666665722f756e617574686f72697a65640000604482015260640161059f565b6040517f70a082310000000000000000000000000000000000000000000000000000000081523060048201526000907f000000000000000000000000000000000000000000000000000000000000000073ffffffffffffffffffffffffffffffffffffffff16906370a0823190602401602060405180830381865afa158015611c4e573d6000803e3d6000fd5b505050506040513d601f19601f82011682018060405250810190611c7291906129b0565b905062ffffff891115611ca4577fae7e31c3220e851db9f204a28b279dfe52b973600b0a456991089c220ae722245498505b6040517f6a4f769100000000000000000000000000000000000000000000000000000000815273ffffffffffffffffffffffffffffffffffffffff8e811660048301528d81166024830152604482018d9052606482018c9052608482018b905260a482018a905260c4820189905260e482018890527f00000000000000000000000000000000000000000000000000000000000000001690636a4f7691908690610104016000604051808303818588803b158015611d6157600080fd5b505af193505050508015611d73575060015b611db857611d7f612b31565b806308c379a01415611dac5750611d94612bbf565b80611d9f5750611dae565b600093509150611dd79050565b505b3d6000803e3d6000fd5b611dc28582612424565b50506040805160208101909152600081528491505b9a509a98505050505050505050565b600080611e13611df96020850185612678565b611e096040860160208701612678565b8560400135611307565b9050611e2f611e286040850160208601612678565b828661188a565b5060009392505050565b600080611e4c611df96020850185612678565b90506000600281611e606020870187612678565b73ffffffffffffffffffffffffffffffffffffffff90811682526020808301939093526040918201600090812091861681529252902054905084811015611ecb57611eb8611eb16020860186612678565b838361172d565b611ec281866129f8565b925050506105bf565b611ee2611edb6020860186612678565b838761172d565b6000925050506105bf565b73ffffffffffffffffffffffffffffffffffffffff858116600090815260208181526040808320888516845282528083208784529091528120549091838116911614611f95576040517f08c379a000000000000000000000000000000000000000000000000000000000815260206004820152601f60248201527f4d756c74692f726574726163744f666665722f756e617574686f72697a656400604482015260640161059f565b6040517fad97db1b00000000000000000000000000000000000000000000000000000000815273ffffffffffffffffffffffffffffffffffffffff878116600483015286811660248301526044820186905284151560648301527f0000000000000000000000000000000000000000000000000000000000000000169063ad97db1b906084016020604051808303816000875af115801561203a573d6000803e3d6000fd5b505050506040513d601f19601f8201168201806040525081019061205e91906129b0565b90508015610fdc57610fdc8282612512565b6040517fcbf75c9a00000000000000000000000000000000000000000000000000000000815273ffffffffffffffffffffffffffffffffffffffff86811660048301528581166024830152600091829182917f00000000000000000000000000000000000000000000000000000000000000009091169063cbf75c9a906044016040805180830381865afa15801561210c573d6000803e3d6000fd5b505050506040513d601f19601f820116820180604052508101906121309190612c67565b6040517f5722647b00000000000000000000000000000000000000000000000000000000815273ffffffffffffffffffffffffffffffffffffffff8b811660048301528a81166024830152604482018890529294509092506000917f00000000000000000000000000000000000000000000000000000000000000001690635722647b90606401602060405180830381865afa1580156121d4573d6000803e3d6000fd5b505050506040513d601f19601f820116820180604052508101906121f891906129b0565b9050600086604085901c61ffff16111561221b575061ffff604084901c1661221e565b50855b62ffffff88111561224e577fae7e31c3220e851db9f204a28b279dfe52b973600b0a456991089c220ae722245497505b60008161226462ffffff606087901c168b612b19565b61226e9190612c8b565b61227c90633b9aca00612c8b565b9050600061ffff602085901c166122a362ffffff603087901c811690604888901c16612b19565b6122ad9190612c8b565b6122bb90633b9aca00612c8b565b905060006122c98e83612b19565b9050828110156122e2576122dd81846129f8565b6122e5565b60005b9e9d5050505050505050505050505050565b7f000000000000000000000000000000000000000000000000000000000000000073ffffffffffffffffffffffffffffffffffffffff1663b60d4288826040518263ffffffff1660e01b81526004016000604051808303818588803b15801561235f57600080fd5b505af1158015612373573d6000803e3d6000fd5b50505050506111e48282612512565b73ffffffffffffffffffffffffffffffffffffffff84811660008181526020818152604080832088861680855290835281842088855283529281902080547fffffffffffffffffffffffff00000000000000000000000000000000000000001695871695861790555193845285939192917fabf04a4ce23225c02bd147297da7ffc10e7d29102d8678f1a63fdd2cfd71ff07910160405180910390a450505050565b6040517f70a082310000000000000000000000000000000000000000000000000000000081523060048201526000907f000000000000000000000000000000000000000000000000000000000000000073ffffffffffffffffffffffffffffffffffffffff16906370a0823190602401602060405180830381865afa1580156124b1573d6000803e3d6000fd5b505050506040513d601f19601f820116820180604052508101906124d591906129b0565b9050818114156124e457505050565b818111156124ff57610c1f836124fa84846129f8565b612512565b610c1f8361250d83856129f8565b61146e565b73ffffffffffffffffffffffffffffffffffffffff821660009081526001602052604081208054839290612547908490612b19565b909155505060405181815273ffffffffffffffffffffffffffffffffffffffff8316907f2022607feefe24f258126b277628af517f5512dd9499fb3520eeff54cad137039060200161157b565b73ffffffffffffffffffffffffffffffffffffffff811681146125b657600080fd5b50565b600080604083850312156125cc57600080fd5b82356125d781612594565b946020939093013593505050565b6000806000606084860312156125fa57600080fd5b833561260581612594565b9250602084013561261581612594565b929592945050506040919091013590565b6000806040838503121561263957600080fd5b823561264481612594565b9150602083013561265481612594565b809150509250929050565b60006020828403121561267157600080fd5b5035919050565b60006020828403121561268a57600080fd5b81356113a981612594565b60006101208284031215610ec157600080fd5b6000808284036101608112156126bd57600080fd5b6126c78585612695565b925060407ffffffffffffffffffffffffffffffffffffffffffffffffffffffffffffffee0820112156126f957600080fd5b50610120830190509250929050565b600080600080600080600060e0888a03121561272357600080fd5b873561272e81612594565b9650602088013561273e81612594565b96999698505050506040850135946060810135946080820135945060a0820135935060c0909101359150565b600080600080600080600080610100898b03121561278757600080fd5b883561279281612594565b975060208901356127a281612594565b979a9799505050506040860135956060810135956080820135955060a0820135945060c0820135935060e0909101359150565b600061012082840312156127e857600080fd5b6105bc8383612695565b80151581146125b657600080fd5b6000806000806080858703121561281657600080fd5b843561282181612594565b9350602085013561283181612594565b9250604085013591506060850135612848816127f2565b939692955090935050565b6000806000806060858703121561286957600080fd5b843561287481612594565b9350602085013561288481612594565b9250604085013567ffffffffffffffff808211156128a157600080fd5b818701915087601f8301126128b557600080fd5b8135818111156128c457600080fd5b8860208260051b85010111156128d957600080fd5b95989497505060200194505050565b6020808252825182820181905260009190848201906040850190845b8181101561293657835173ffffffffffffffffffffffffffffffffffffffff1683529284019291840191600101612904565b50909695505050505050565b600080600080600060a0868803121561295a57600080fd5b853561296581612594565b9450602086013561297581612594565b94979496505050506040830135926060810135926080909101359150565b6000602082840312156129a557600080fd5b81516113a9816127f2565b6000602082840312156129c257600080fd5b5051919050565b7f4e487b7100000000000000000000000000000000000000000000000000000000600052601160045260246000fd5b600082821015612a0a57612a0a6129c9565b500390565b600060208083528351808285015260005b81811015612a3c57858101830151858201604001528201612a20565b81811115612a4e576000604083870101525b50601f017fffffffffffffffffffffffffffffffffffffffffffffffffffffffffffffffe016929092016040019392505050565b7f4e487b7100000000000000000000000000000000000000000000000000000000600052604160045260246000fd5b7f4e487b7100000000000000000000000000000000000000000000000000000000600052603260045260246000fd5b60007fffffffffffffffffffffffffffffffffffffffffffffffffffffffffffffffff821415612b1257612b126129c9565b5060010190565b60008219821115612b2c57612b2c6129c9565b500190565b600060033d1115612b4a5760046000803e5060005160e01c5b90565b7fffffffffffffffffffffffffffffffffffffffffffffffffffffffffffffffe0601f830116810181811067ffffffffffffffff82111715612bb8577f4e487b7100000000000000000000000000000000000000000000000000000000600052604160045260246000fd5b6040525050565b600060443d1015612bcd5790565b6040517ffffffffffffffffffffffffffffffffffffffffffffffffffffffffffffffffc803d016004833e81513d67ffffffffffffffff8160248401118184111715612c1b57505050505090565b8285019150815181811115612c335750505050505090565b843d8701016020828501011115612c4d5750505050505090565b612c5c60208286010187612b4d565b509095945050505050565b60008060408385031215612c7a57600080fd5b505080516020909101519092909150565b6000817fffffffffffffffffffffffffffffffffffffffffffffffffffffffffffffffff0483118215151615612cc357612cc36129c9565b50029056fea2646970667358221220348517f8c07629b86e7cca08f7b8f795f49a05fb975fcb124c2158265a6a2fe864736f6c634300080a0033",
  "linkReferences": {},
  "deployedLinkReferences": {}
}