{
  "_format": "hh-sol-artifact-1",
  "contractName": "MultiMaker",
  "sourceName": "contracts/Strategies/OfferLogics/MultiUsers/Deployable/MultiMaker.sol",
  "abi": [
    {
      "inputs": [
        {
          "internalType": "contract IMangrove",
          "name": "_MGV",
          "type": "address"
        },
        {
          "internalType": "address",
          "name": "deployer",
          "type": "address"
        }
      ],
      "stateMutability": "nonpayable",
      "type": "constructor"
    },
    {
      "anonymous": false,
      "inputs": [
        {
          "indexed": true,
          "internalType": "contract IMangrove",
          "name": "mangrove",
          "type": "address"
        },
        {
          "indexed": true,
          "internalType": "address",
          "name": "user",
          "type": "address"
        },
        {
          "indexed": false,
          "internalType": "uint256",
          "name": "amount",
          "type": "uint256"
        }
      ],
      "name": "CreditMgvUser",
      "type": "event"
    },
    {
      "anonymous": false,
      "inputs": [
        {
          "indexed": true,
          "internalType": "address",
          "name": "user",
          "type": "address"
        },
        {
          "indexed": true,
          "internalType": "contract IEIP20",
          "name": "token",
          "type": "address"
        },
        {
          "indexed": false,
          "internalType": "uint256",
          "name": "amount",
          "type": "uint256"
        }
      ],
      "name": "CreditUserTokenBalance",
      "type": "event"
    },
    {
      "anonymous": false,
      "inputs": [
        {
          "indexed": true,
          "internalType": "contract IMangrove",
          "name": "mangrove",
          "type": "address"
        },
        {
          "indexed": true,
          "internalType": "address",
          "name": "user",
          "type": "address"
        },
        {
          "indexed": false,
          "internalType": "uint256",
          "name": "amount",
          "type": "uint256"
        }
      ],
      "name": "DebitMgvUser",
      "type": "event"
    },
    {
      "anonymous": false,
      "inputs": [
        {
          "indexed": true,
          "internalType": "address",
          "name": "user",
          "type": "address"
        },
        {
          "indexed": true,
          "internalType": "contract IEIP20",
          "name": "token",
          "type": "address"
        },
        {
          "indexed": false,
          "internalType": "uint256",
          "name": "amount",
          "type": "uint256"
        }
      ],
      "name": "DebitUserTokenBalance",
      "type": "event"
    },
    {
      "anonymous": false,
      "inputs": [
        {
          "indexed": false,
          "internalType": "contract IMangrove",
          "name": "mangrove",
          "type": "address"
        },
        {
          "indexed": true,
          "internalType": "contract IEIP20",
          "name": "outbound_tkn",
          "type": "address"
        },
        {
          "indexed": true,
          "internalType": "contract IEIP20",
          "name": "inbound_tkn",
          "type": "address"
        },
        {
          "indexed": true,
          "internalType": "uint256",
          "name": "offerId",
          "type": "uint256"
        },
        {
          "indexed": false,
          "internalType": "bytes32",
          "name": "reason",
          "type": "bytes32"
        }
      ],
      "name": "LogIncident",
      "type": "event"
    },
    {
      "anonymous": false,
      "inputs": [
        {
          "indexed": false,
          "internalType": "contract IMangrove",
          "name": "mangrove",
          "type": "address"
        },
        {
          "indexed": true,
          "internalType": "contract IEIP20",
          "name": "outbound_tkn",
          "type": "address"
        },
        {
          "indexed": true,
          "internalType": "contract IEIP20",
          "name": "inbound_tkn",
          "type": "address"
        },
        {
          "indexed": true,
          "internalType": "uint256",
          "name": "offerId",
          "type": "uint256"
        },
        {
          "indexed": false,
          "internalType": "address",
          "name": "owner",
          "type": "address"
        }
      ],
      "name": "NewOwnedOffer",
      "type": "event"
    },
    {
      "inputs": [],
      "name": "MGV",
      "outputs": [
        {
          "internalType": "contract IMangrove",
          "name": "",
          "type": "address"
        }
      ],
      "stateMutability": "view",
      "type": "function"
    },
    {
      "inputs": [],
      "name": "OFR_GASREQ",
      "outputs": [
        {
          "internalType": "uint256",
          "name": "",
          "type": "uint256"
        }
      ],
      "stateMutability": "view",
      "type": "function"
    },
    {
      "inputs": [],
      "name": "admin",
      "outputs": [
        {
          "internalType": "address",
          "name": "",
          "type": "address"
        }
      ],
      "stateMutability": "view",
      "type": "function"
    },
    {
      "inputs": [
        {
          "internalType": "contract IEIP20",
          "name": "outbound_tkn",
          "type": "address"
        },
        {
          "internalType": "uint256",
          "name": "amount",
          "type": "uint256"
        }
      ],
      "name": "approveMangrove",
      "outputs": [],
      "stateMutability": "nonpayable",
      "type": "function"
    },
    {
      "inputs": [
        {
          "internalType": "address",
          "name": "owner",
          "type": "address"
        }
      ],
      "name": "balanceOnMangrove",
      "outputs": [
        {
          "internalType": "uint256",
          "name": "",
          "type": "uint256"
        }
      ],
      "stateMutability": "view",
      "type": "function"
    },
    {
      "inputs": [
        {
          "internalType": "contract IEIP20",
          "name": "token",
          "type": "address"
        },
        {
          "internalType": "uint256",
          "name": "amount",
          "type": "uint256"
        }
      ],
      "name": "depositToken",
      "outputs": [
        {
          "internalType": "bool",
          "name": "success",
          "type": "bool"
        }
      ],
      "stateMutability": "nonpayable",
      "type": "function"
    },
    {
      "inputs": [],
      "name": "fundMangrove",
      "outputs": [],
      "stateMutability": "payable",
      "type": "function"
    },
    {
      "inputs": [
        {
          "internalType": "contract IEIP20",
          "name": "outbound_tkn",
          "type": "address"
        },
        {
          "internalType": "contract IEIP20",
          "name": "inbound_tkn",
          "type": "address"
        },
        {
          "internalType": "uint256",
          "name": "gasreq",
          "type": "uint256"
        },
        {
          "internalType": "uint256",
          "name": "gasprice",
          "type": "uint256"
        },
        {
          "internalType": "uint256",
          "name": "offerId",
          "type": "uint256"
        }
      ],
      "name": "getMissingProvision",
      "outputs": [
        {
          "internalType": "uint256",
          "name": "",
          "type": "uint256"
        }
      ],
      "stateMutability": "view",
      "type": "function"
    },
    {
      "inputs": [
        {
          "components": [
            {
              "internalType": "address",
              "name": "outbound_tkn",
              "type": "address"
            },
            {
              "internalType": "address",
              "name": "inbound_tkn",
              "type": "address"
            },
            {
              "internalType": "uint256",
              "name": "offerId",
              "type": "uint256"
            },
            {
              "internalType": "t",
              "name": "offer",
              "type": "uint256"
            },
            {
              "internalType": "uint256",
              "name": "wants",
              "type": "uint256"
            },
            {
              "internalType": "uint256",
              "name": "gives",
              "type": "uint256"
            },
            {
              "internalType": "t",
              "name": "offerDetail",
              "type": "uint256"
            },
            {
              "internalType": "t",
              "name": "global",
              "type": "uint256"
            },
            {
              "internalType": "t",
              "name": "local",
              "type": "uint256"
            }
          ],
          "internalType": "struct MgvLib.SingleOrder",
          "name": "order",
          "type": "tuple"
        }
      ],
      "name": "makerExecute",
      "outputs": [
        {
          "internalType": "bytes32",
          "name": "ret",
          "type": "bytes32"
        }
      ],
      "stateMutability": "nonpayable",
      "type": "function"
    },
    {
      "inputs": [
        {
          "components": [
            {
              "internalType": "address",
              "name": "outbound_tkn",
              "type": "address"
            },
            {
              "internalType": "address",
              "name": "inbound_tkn",
              "type": "address"
            },
            {
              "internalType": "uint256",
              "name": "offerId",
              "type": "uint256"
            },
            {
              "internalType": "t",
              "name": "offer",
              "type": "uint256"
            },
            {
              "internalType": "uint256",
              "name": "wants",
              "type": "uint256"
            },
            {
              "internalType": "uint256",
              "name": "gives",
              "type": "uint256"
            },
            {
              "internalType": "t",
              "name": "offerDetail",
              "type": "uint256"
            },
            {
              "internalType": "t",
              "name": "global",
              "type": "uint256"
            },
            {
              "internalType": "t",
              "name": "local",
              "type": "uint256"
            }
          ],
          "internalType": "struct MgvLib.SingleOrder",
          "name": "order",
          "type": "tuple"
        },
        {
          "components": [
            {
              "internalType": "bytes32",
              "name": "makerData",
              "type": "bytes32"
            },
            {
              "internalType": "bytes32",
              "name": "mgvData",
              "type": "bytes32"
            }
          ],
          "internalType": "struct MgvLib.OrderResult",
          "name": "result",
          "type": "tuple"
        }
      ],
      "name": "makerPosthook",
      "outputs": [],
      "stateMutability": "nonpayable",
      "type": "function"
    },
    {
      "inputs": [
        {
          "internalType": "address",
          "name": "",
          "type": "address"
        }
      ],
      "name": "mgvBalance",
      "outputs": [
        {
          "internalType": "uint256",
          "name": "",
          "type": "uint256"
        }
      ],
      "stateMutability": "view",
      "type": "function"
    },
    {
      "inputs": [
        {
          "components": [
            {
              "internalType": "contract IEIP20",
              "name": "outbound_tkn",
              "type": "address"
            },
            {
              "internalType": "contract IEIP20",
              "name": "inbound_tkn",
              "type": "address"
            },
            {
              "internalType": "uint256",
              "name": "wants",
              "type": "uint256"
            },
            {
              "internalType": "uint256",
              "name": "gives",
              "type": "uint256"
            },
            {
              "internalType": "uint256",
              "name": "gasreq",
              "type": "uint256"
            },
            {
              "internalType": "uint256",
              "name": "gasprice",
              "type": "uint256"
            },
            {
              "internalType": "uint256",
              "name": "pivotId",
              "type": "uint256"
            }
          ],
          "internalType": "struct IOfferLogic.MakerOrder",
          "name": "mko",
          "type": "tuple"
        }
      ],
      "name": "newOffer",
      "outputs": [
        {
          "internalType": "uint256",
          "name": "offerId",
          "type": "uint256"
        }
      ],
      "stateMutability": "payable",
      "type": "function"
    },
    {
      "inputs": [
        {
          "internalType": "contract IEIP20",
          "name": "outbound_tkn",
          "type": "address"
        },
        {
          "internalType": "contract IEIP20",
          "name": "inbound_tkn",
          "type": "address"
        },
        {
          "internalType": "uint256[]",
          "name": "offerIds",
          "type": "uint256[]"
        }
      ],
      "name": "offerOwners",
      "outputs": [
        {
          "internalType": "address[]",
          "name": "__offerOwners",
          "type": "address[]"
        }
      ],
      "stateMutability": "view",
      "type": "function"
    },
    {
      "inputs": [
        {
          "internalType": "contract IEIP20",
          "name": "outbound_tkn",
          "type": "address"
        },
        {
          "internalType": "contract IEIP20",
          "name": "inbound_tkn",
          "type": "address"
        },
        {
          "internalType": "uint256",
          "name": "offerId",
          "type": "uint256"
        }
      ],
      "name": "ownerOf",
      "outputs": [
        {
          "internalType": "address",
          "name": "owner",
          "type": "address"
        }
      ],
      "stateMutability": "view",
      "type": "function"
    },
    {
      "inputs": [
        {
          "internalType": "contract IEIP20",
          "name": "outbound_tkn",
          "type": "address"
        },
        {
          "internalType": "contract IEIP20",
          "name": "inbound_tkn",
          "type": "address"
        },
        {
          "internalType": "uint256",
          "name": "offerId",
          "type": "uint256"
        },
        {
          "internalType": "bool",
          "name": "deprovision",
          "type": "bool"
        }
      ],
      "name": "retractOffer",
      "outputs": [
        {
          "internalType": "uint256",
          "name": "received",
          "type": "uint256"
        }
      ],
      "stateMutability": "nonpayable",
      "type": "function"
    },
    {
      "inputs": [
        {
          "internalType": "address",
          "name": "_admin",
          "type": "address"
        }
      ],
      "name": "setAdmin",
      "outputs": [],
      "stateMutability": "nonpayable",
      "type": "function"
    },
    {
      "inputs": [
        {
          "internalType": "uint256",
          "name": "gasreq",
          "type": "uint256"
        }
      ],
      "name": "setGasreq",
      "outputs": [],
      "stateMutability": "nonpayable",
      "type": "function"
    },
    {
      "inputs": [
        {
          "internalType": "contract IEIP20",
          "name": "token",
          "type": "address"
        },
        {
          "internalType": "address",
          "name": "owner",
          "type": "address"
        }
      ],
      "name": "tokenBalance",
      "outputs": [
        {
          "internalType": "uint256",
          "name": "",
          "type": "uint256"
        }
      ],
      "stateMutability": "view",
      "type": "function"
    },
    {
      "inputs": [
        {
          "internalType": "contract IEIP20",
          "name": "",
          "type": "address"
        },
        {
          "internalType": "address",
          "name": "",
          "type": "address"
        }
      ],
      "name": "tokenBalanceOf",
      "outputs": [
        {
          "internalType": "uint256",
          "name": "",
          "type": "uint256"
        }
      ],
      "stateMutability": "view",
      "type": "function"
    },
    {
      "inputs": [
        {
          "components": [
            {
              "internalType": "contract IEIP20",
              "name": "outbound_tkn",
              "type": "address"
            },
            {
              "internalType": "contract IEIP20",
              "name": "inbound_tkn",
              "type": "address"
            },
            {
              "internalType": "uint256",
              "name": "wants",
              "type": "uint256"
            },
            {
              "internalType": "uint256",
              "name": "gives",
              "type": "uint256"
            },
            {
              "internalType": "uint256",
              "name": "gasreq",
              "type": "uint256"
            },
            {
              "internalType": "uint256",
              "name": "gasprice",
              "type": "uint256"
            },
            {
              "internalType": "uint256",
              "name": "pivotId",
              "type": "uint256"
            }
          ],
          "internalType": "struct IOfferLogic.MakerOrder",
          "name": "mko",
          "type": "tuple"
        },
        {
          "internalType": "uint256",
          "name": "offerId",
          "type": "uint256"
        }
      ],
      "name": "updateOffer",
      "outputs": [],
      "stateMutability": "payable",
      "type": "function"
    },
    {
      "inputs": [
        {
          "internalType": "address payable",
          "name": "receiver",
          "type": "address"
        },
        {
          "internalType": "uint256",
          "name": "amount",
          "type": "uint256"
        }
      ],
      "name": "withdrawFromMangrove",
      "outputs": [
        {
          "internalType": "bool",
          "name": "noRevert",
          "type": "bool"
        }
      ],
      "stateMutability": "nonpayable",
      "type": "function"
    },
    {
      "inputs": [
        {
          "internalType": "contract IEIP20",
          "name": "token",
          "type": "address"
        },
        {
          "internalType": "address",
          "name": "receiver",
          "type": "address"
        },
        {
          "internalType": "uint256",
          "name": "amount",
          "type": "uint256"
        }
      ],
      "name": "withdrawToken",
      "outputs": [
        {
          "internalType": "bool",
          "name": "success",
          "type": "bool"
        }
      ],
      "stateMutability": "nonpayable",
      "type": "function"
    },
    {
      "stateMutability": "payable",
      "type": "receive"
    }
  ],
  "bytecode": "0x60a06040523480156200001157600080fd5b50604051620032d3380380620032d3833981016040819052620000349162000281565b813380620000895760405162461bcd60e51b815260206004820152601860248201527f616363657373436f6e74726f6c6c65642f307841646d696e000000000000000060448201526064015b60405180910390fd5b806200009f620000ff60201b620014551760201c565b80546001600160a01b0319166001600160a01b0392831617905582166080525062013880620000d962000123602090811b6200147917901c565b55506001600160a01b0381163314620000f757620000f78162000147565b5050620002c0565b7f7d382ebca3e46505071795e192d28166a3d4bd0685585591bc6c5b8df6769fd290565b7fae7e31c3220e851db9f204a28b279dfe52b973600b0a456991089c220ae7222490565b6200015162000242565b6001600160a01b0316336001600160a01b031614620001b35760405162461bcd60e51b815260206004820152601860248201527f416363657373436f6e74726f6c6c65642f496e76616c69640000000000000000604482015260640162000080565b6001600160a01b0381166200020b5760405162461bcd60e51b815260206004820152601860248201527f416363657373436f6e74726f6c6c65642f307841646d696e0000000000000000604482015260640162000080565b8062000221620000ff60201b620014551760201c565b80546001600160a01b0319166001600160a01b039290921691909117905550565b600062000259620000ff60201b620014551760201c565b546001600160a01b0316919050565b6001600160a01b03811681146200027e57600080fd5b50565b600080604083850312156200029557600080fd5b8251620002a28162000268565b6020840151909250620002b58162000268565b809150509250929050565b608051612f7262000361600039600081816103900152818161091501528181610a3101528181610b7401528181610bde0152818161106d01528181611132015281816116e10152818161178501528181611b6101528181611c2601528181611e4301528181611ec70152818161212701528181612220015281816122e2015281816124c0015281816125b60152818161264801526127590152612f726000f3fe6080604052600436106101795760003560e01c80637f84e494116100cb578063df2426671161007f578063f851a44011610059578063f851a440146104c5578063f92495e51461050f578063faa030ec1461052f57600080fd5b8063df24266714610444578063e428204d14610471578063e4c34f84146104a557600080fd5b8063ad97db1b116100b0578063ad97db1b146103d7578063aefe8403146103f7578063dec8c86b1461041757600080fd5b80637f84e4941461036b57806399fa5e2d1461037e57600080fd5b806334bd89311161012d5780636c49c32c116101075780636c49c32c14610318578063704b6c02146103385780637ea1a48c1461035857600080fd5b806334bd89311461029357806335d61cb2146102b55780633d3d130d146102f857600080fd5b80631049334f1161015e5780631049334f146101da5780631bea80061461023b578063338b5dea1461027357600080fd5b806301e3366714610185578063063df2d2146101ba57600080fd5b3661018057005b600080fd5b34801561019157600080fd5b506101a56101a03660046127e4565b610537565b60405190151581526020015b60405180910390f35b3480156101c657600080fd5b506101a56101d5366004612825565b6105e5565b3480156101e657600080fd5b5061022d6101f5366004612851565b73ffffffffffffffffffffffffffffffffffffffff918216600090815260026020908152604080832093909416825291909152205490565b6040519081526020016101b1565b34801561024757600080fd5b5061022d610256366004612851565b600260209081526000928352604080842090915290825290205481565b34801561027f57600080fd5b506101a561028e366004612825565b610672565b34801561029f57600080fd5b506102b36102ae36600461288a565b6108bd565b005b3480156102c157600080fd5b5061022d6102d03660046128a3565b73ffffffffffffffffffffffffffffffffffffffff1660009081526001602052604090205490565b34801561030457600080fd5b506102b36103133660046128d3565b610a2f565b34801561032457600080fd5b5061022d610333366004612933565b610bda565b34801561034457600080fd5b506102b36103533660046128a3565b610d91565b61022d610366366004612962565b610f14565b6102b361037936600461297e565b610f98565b34801561038a57600080fd5b506103b27f000000000000000000000000000000000000000000000000000000000000000081565b60405173ffffffffffffffffffffffffffffffffffffffff90911681526020016101b1565b3480156103e357600080fd5b5061022d6103f23660046129b8565b610ffd565b34801561040357600080fd5b506102b3610412366004612825565b611015565b34801561042357600080fd5b50610437610432366004612a0b565b611218565b6040516101b19190612aa0565b34801561045057600080fd5b5061022d61045f3660046128a3565b60016020526000908152604090205481565b34801561047d57600080fd5b507fae7e31c3220e851db9f204a28b279dfe52b973600b0a456991089c220ae722245461022d565b3480156104b157600080fd5b5061022d6104c0366004612afa565b6112df565b3480156104d157600080fd5b507f7d382ebca3e46505071795e192d28166a3d4bd0685585591bc6c5b8df6769fd25473ffffffffffffffffffffffffffffffffffffffff166103b2565b34801561051b57600080fd5b506103b261052a3660046127e4565b611337565b6102b36113e0565b600061054484338461149d565b6040517fa9059cbb00000000000000000000000000000000000000000000000000000000815273ffffffffffffffffffffffffffffffffffffffff84811660048301526024820184905285169063a9059cbb906044016020604051808303816000875af11580156105b9573d6000803e3d6000fd5b505050506040513d601f19601f820116820180604052508101906105dd9190612b4b565b949350505050565b6000303303610655576040517f08c379a000000000000000000000000000000000000000000000000000000000815260206004820152601260248201527f4d75746c692f6e6f5265656e7472616e6379000000000000000000000000000060448201526064015b60405180910390fd5b61065f33836115fd565b6106698383611753565b90505b92915050565b6040517f70a08231000000000000000000000000000000000000000000000000000000008152306004820152600090819073ffffffffffffffffffffffffffffffffffffffff8516906370a0823190602401602060405180830381865afa1580156106e1573d6000803e3d6000fd5b505050506040513d601f19601f820116820180604052508101906107059190612b68565b6040517f23b872dd0000000000000000000000000000000000000000000000000000000081523360048201523060248201526044810185905290915073ffffffffffffffffffffffffffffffffffffffff8516906323b872dd906064016020604051808303816000875af1158015610781573d6000803e3d6000fd5b505050506040513d601f19601f820116820180604052508101906107a59190612b4b565b6040517f70a082310000000000000000000000000000000000000000000000000000000081523060048201529092508390829073ffffffffffffffffffffffffffffffffffffffff8716906370a0823190602401602060405180830381865afa158015610816573d6000803e3d6000fd5b505050506040513d601f19601f8201168201806040525081019061083a9190612b68565b6108449190612bb0565b146108ab576040517f08c379a000000000000000000000000000000000000000000000000000000000815260206004820152601260248201527f4d756c74692f7472616e736665724661696c0000000000000000000000000000604482015260640161064c565b6108b68433856118f9565b5092915050565b7f7d382ebca3e46505071795e192d28166a3d4bd0685585591bc6c5b8df6769fd25473ffffffffffffffffffffffffffffffffffffffff1633148061093757503373ffffffffffffffffffffffffffffffffffffffff7f000000000000000000000000000000000000000000000000000000000000000016145b61099d576040517f08c379a000000000000000000000000000000000000000000000000000000000815260206004820152601860248201527f416363657373436f6e74726f6c6c65642f496e76616c69640000000000000000604482015260640161064c565b808162ffffff1614610a0b576040517f08c379a000000000000000000000000000000000000000000000000000000000815260206004820152601860248201527f6d67764f666665722f6761737265712f6f766572666c6f770000000000000000604482015260640161064c565b7fae7e31c3220e851db9f204a28b279dfe52b973600b0a456991089c220ae7222455565b7f000000000000000000000000000000000000000000000000000000000000000073ffffffffffffffffffffffffffffffffffffffff81161580610a8857503373ffffffffffffffffffffffffffffffffffffffff8216145b610aee576040517f08c379a000000000000000000000000000000000000000000000000000000000815260206004820152601860248201527f416363657373436f6e74726f6c6c65642f496e76616c69640000000000000000604482015260640161064c565b81602001357f6d67762f7472616465537563636573730000000000000000000000000000000003610b225760015b50505050565b60408301803590610b3690602086016128a3565b73ffffffffffffffffffffffffffffffffffffffff16610b5960208601866128a3565b6040805173ffffffffffffffffffffffffffffffffffffffff7f0000000000000000000000000000000000000000000000000000000000000000811682528735602083015292909216917f736a3993b9f8b1c5603896c76376792887f376b1fe7fc981e09a16530bf1e4e0910160405180910390a46001610b1c565b505050565b60007f000000000000000000000000000000000000000000000000000000000000000073ffffffffffffffffffffffffffffffffffffffff81161580610c3557503373ffffffffffffffffffffffffffffffffffffffff8216145b610c9b576040517f08c379a000000000000000000000000000000000000000000000000000000000815260206004820152601860248201527f416363657373436f6e74726f6c6c65642f496e76616c69640000000000000000604482015260640161064c565b6000610cab8460a00135856119a3565b1115610d13576040517f08c379a000000000000000000000000000000000000000000000000000000000815260206004820152601860248201527f6d67764f666665722f61626f72742f7075744661696c65640000000000000000604482015260640161064c565b6000610d23846080013585611a02565b1115610d8b576040517f08c379a000000000000000000000000000000000000000000000000000000000815260206004820152601860248201527f6d67764f666665722f61626f72742f6765744661696c65640000000000000000604482015260640161064c565b50919050565b7f7d382ebca3e46505071795e192d28166a3d4bd0685585591bc6c5b8df6769fd25473ffffffffffffffffffffffffffffffffffffffff163314610e31576040517f08c379a000000000000000000000000000000000000000000000000000000000815260206004820152601860248201527f416363657373436f6e74726f6c6c65642f496e76616c69640000000000000000604482015260640161064c565b73ffffffffffffffffffffffffffffffffffffffff8116610eae576040517f08c379a000000000000000000000000000000000000000000000000000000000815260206004820152601860248201527f416363657373436f6e74726f6c6c65642f307841646d696e0000000000000000604482015260640161064c565b7f7d382ebca3e46505071795e192d28166a3d4bd0685585591bc6c5b8df6769fd280547fffffffffffffffffffffffff00000000000000000000000000000000000000001673ffffffffffffffffffffffffffffffffffffffff92909216919091179055565b6000303303610f7f576040517f08c379a000000000000000000000000000000000000000000000000000000000815260206004820152601260248201527f4d75746c692f6e6f5265656e7472616e63790000000000000000000000000000604482015260640161064c565b61066c610f9136849003840184612c68565b3334611aaf565b600080610fb5610fad36869003860186612c68565b843334611d67565b91509150600082118190610ff6576040517f08c379a000000000000000000000000000000000000000000000000000000000815260040161064c9190612d25565b5050505050565b600061100c8585858533612068565b95945050505050565b7f7d382ebca3e46505071795e192d28166a3d4bd0685585591bc6c5b8df6769fd25473ffffffffffffffffffffffffffffffffffffffff1633148061108f57503373ffffffffffffffffffffffffffffffffffffffff7f000000000000000000000000000000000000000000000000000000000000000016145b6110f5576040517f08c379a000000000000000000000000000000000000000000000000000000000815260206004820152601860248201527f416363657373436f6e74726f6c6c65642f496e76616c69640000000000000000604482015260640161064c565b6040517f095ea7b300000000000000000000000000000000000000000000000000000000815273ffffffffffffffffffffffffffffffffffffffff7f0000000000000000000000000000000000000000000000000000000000000000811660048301526024820183905283169063095ea7b3906044016020604051808303816000875af115801561118a573d6000803e3d6000fd5b505050506040513d601f19601f820116820180604052508101906111ae9190612b4b565b611214576040517f08c379a000000000000000000000000000000000000000000000000000000000815260206004820152601560248201527f6d67764f666665722f617070726f76652f4661696c0000000000000000000000604482015260640161064c565b5050565b60608167ffffffffffffffff81111561123357611233612bc7565b60405190808252806020026020018201604052801561125c578160200160208202803683370190505b50905060005b828110156112d65761128d868686868581811061128157611281612d98565b90506020020135611337565b82828151811061129f5761129f612d98565b73ffffffffffffffffffffffffffffffffffffffff90921660209283029190910190910152806112ce81612dc7565b915050611262565b50949350505050565b600080821561131e5760006112f5888886611337565b73ffffffffffffffffffffffffffffffffffffffff166000908152600160205260409020549150505b61132c818888888888612205565b979650505050505050565b73ffffffffffffffffffffffffffffffffffffffff8084166000908152602081815260408083208685168452825280832085845290915290205416806113d9576040517f08c379a000000000000000000000000000000000000000000000000000000000815260206004820152601560248201527f6d756c7469557365722f756e6b6f776e4f666665720000000000000000000000604482015260640161064c565b9392505050565b303303611449576040517f08c379a000000000000000000000000000000000000000000000000000000000815260206004820152601260248201527f4d75746c692f6e6f5265656e7472616e63790000000000000000000000000000604482015260640161064c565b61145333346124be565b565b7f7d382ebca3e46505071795e192d28166a3d4bd0685585591bc6c5b8df6769fd290565b7fae7e31c3220e851db9f204a28b279dfe52b973600b0a456991089c220ae7222490565b806000036114aa57505050565b73ffffffffffffffffffffffffffffffffffffffff808416600090815260026020908152604080832093861683529290522054811115611546576040517f08c379a000000000000000000000000000000000000000000000000000000000815260206004820152601d60248201527f4d756c74692f6465626974546f6b656e2f696e73756666696369656e74000000604482015260640161064c565b73ffffffffffffffffffffffffffffffffffffffff80841660009081526002602090815260408083209386168352929052908120805483929061158a908490612bb0565b925050819055508273ffffffffffffffffffffffffffffffffffffffff168273ffffffffffffffffffffffffffffffffffffffff167f7a97b405ee1bd89550b225932dbdd0431e30426b7c8f02f05b3cb0e1bdfb8476836040516115f091815260200190565b60405180910390a3505050565b73ffffffffffffffffffffffffffffffffffffffff821660009081526001602052604090205481111561168c576040517f08c379a000000000000000000000000000000000000000000000000000000000815260206004820152601d60248201527f4d756c74692f64656269744f6e4d67762f696e73756666696369656e74000000604482015260640161064c565b73ffffffffffffffffffffffffffffffffffffffff8216600090815260016020526040812080548392906116c1908490612bb0565b925050819055508173ffffffffffffffffffffffffffffffffffffffff167f000000000000000000000000000000000000000000000000000000000000000073ffffffffffffffffffffffffffffffffffffffff167f8b11a64c87f3bbe8de83349295a7b8d0d7ca9e7555365548fb47748cf4c1cfc78360405161174791815260200190565b60405180910390a35050565b6040517f2e1a7d4d000000000000000000000000000000000000000000000000000000008152600481018290526000907f000000000000000000000000000000000000000000000000000000000000000073ffffffffffffffffffffffffffffffffffffffff1690632e1a7d4d906024016020604051808303816000875af11580156117e3573d6000803e3d6000fd5b505050506040513d601f19601f820116820180604052508101906118079190612b4b565b61186d576040517f08c379a000000000000000000000000000000000000000000000000000000000815260206004820152601e60248201527f6d67764f666665722f77697468647261772f7472616e736665724661696c0000604482015260640161064c565b73ffffffffffffffffffffffffffffffffffffffff831630146118f05760405173ffffffffffffffffffffffffffffffffffffffff8416908390600081818185875af1925050503d80600081146118e0576040519150601f19603f3d011682016040523d82523d6000602084013e6118e5565b606091505b50508091505061066c565b50600192915050565b73ffffffffffffffffffffffffffffffffffffffff80841660009081526002602090815260408083209386168352929052908120805483929061193d908490612dff565b925050819055508273ffffffffffffffffffffffffffffffffffffffff168273ffffffffffffffffffffffffffffffffffffffff167fb2b1ec266d1bab793ae1d020eedf03e575cc390e5fb9e370cb099fdf2f61534d836040516115f091815260200190565b6000806119b360208401846128a3565b905060006119c760408501602086016128a3565b905060006119da83838760400135611337565b90506119f66119ef60408701602088016128a3565b82886118f9565b50600095945050505050565b600080611a1260208401846128a3565b90506000611a2660408501602086016128a3565b90506000611a3983838760400135611337565b73ffffffffffffffffffffffffffffffffffffffff80851660009081526002602090815260408083209385168352929052205490915086811015611a9757611a8284838361149d565b611a8c8188612bb0565b94505050505061066c565b611aa284838961149d565b600094505050505061066c565b60003073ffffffffffffffffffffffffffffffffffffffff841603611b30576040517f08c379a000000000000000000000000000000000000000000000000000000000815260206004820152601260248201527f4d75746c692f6e6f5265656e7472616e63790000000000000000000000000000604482015260640161064c565b6040517f70a082310000000000000000000000000000000000000000000000000000000081523060048201526000907f000000000000000000000000000000000000000000000000000000000000000073ffffffffffffffffffffffffffffffffffffffff16906370a0823190602401602060405180830381865afa158015611bbd573d6000803e3d6000fd5b505050506040513d601f19601f82011682018060405250810190611be19190612b68565b9050600062ffffff8016866080015111611bff578560800151611c22565b7fae7e31c3220e851db9f204a28b279dfe52b973600b0a456991089c220ae72224545b90507f000000000000000000000000000000000000000000000000000000000000000073ffffffffffffffffffffffffffffffffffffffff166349f6d2dc85611c6c896000015190565b60208a015160408b81015160608d015160a08e015160c08f0151935160e089901b7fffffffff0000000000000000000000000000000000000000000000000000000016815273ffffffffffffffffffffffffffffffffffffffff9687166004820152959094166024860152604485019190915260648401526084830187905260a483019190915260c482015260e40160206040518083038185885af1158015611d19573d6000803e3d6000fd5b50505050506040513d601f19601f82011682018060405250810190611d3e9190612b68565b9250611d54866000015187602001518588612549565b611d5e8583612617565b50509392505050565b60006060611d7e8660000151876020015187611337565b73ffffffffffffffffffffffffffffffffffffffff168473ffffffffffffffffffffffffffffffffffffffff1614611e12576040517f08c379a000000000000000000000000000000000000000000000000000000000815260206004820152601e60248201527f4d756c74692f7570646174654f666665722f756e617574686f72697a65640000604482015260640161064c565b6040517f70a082310000000000000000000000000000000000000000000000000000000081523060048201526000907f000000000000000000000000000000000000000000000000000000000000000073ffffffffffffffffffffffffffffffffffffffff16906370a0823190602401602060405180830381865afa158015611e9f573d6000803e3d6000fd5b505050506040513d601f19601f82011682018060405250810190611ec39190612b68565b90507f000000000000000000000000000000000000000000000000000000000000000073ffffffffffffffffffffffffffffffffffffffff16636a4f769185611f0d8a6000015190565b60208b015160408c015160608d015160808e015162ffffff10611f34578d60800151611f57565b7fae7e31c3220e851db9f204a28b279dfe52b973600b0a456991089c220ae72224545b8e60a001518f60c001518f6040518a63ffffffff1660e01b8152600401611fd198979695949392919073ffffffffffffffffffffffffffffffffffffffff988916815296909716602087015260408601949094526060850192909252608084015260a083015260c082015260e08101919091526101000190565b6000604051808303818588803b158015611fea57600080fd5b505af193505050508015611ffc575060015b61204057612008612e17565b806308c379a003612034575061201c612e33565b806120275750612036565b60009350915061205f9050565b505b3d6000803e3d6000fd5b61204a8582612617565b50506040805160208101909152600081528491505b94509492505050565b73ffffffffffffffffffffffffffffffffffffffff858116600090815260208181526040808320888516845282528083208784529091528120549091838116911614612110576040517f08c379a000000000000000000000000000000000000000000000000000000000815260206004820152601f60248201527f4d756c74692f726574726163744f666665722f756e617574686f72697a656400604482015260640161064c565b73ffffffffffffffffffffffffffffffffffffffff7f00000000000000000000000000000000000000000000000000000000000000001663ad97db1b87876040517fffffffff0000000000000000000000000000000000000000000000000000000060e085901b16815273ffffffffffffffffffffffffffffffffffffffff9283166004820152911660248201526044810187905285151560648201526084016020604051808303816000875af11580156121cf573d6000803e3d6000fd5b505050506040513d601f19601f820116820180604052508101906121f39190612b68565b9050801561100c5761100c8282612704565b6000808073ffffffffffffffffffffffffffffffffffffffff7f00000000000000000000000000000000000000000000000000000000000000001663cbf75c9a89896040517fffffffff0000000000000000000000000000000000000000000000000000000060e085901b16815273ffffffffffffffffffffffffffffffffffffffff9283166004820152911660248201526044016040805180830381865afa1580156122b6573d6000803e3d6000fd5b505050506040513d601f19601f820116820180604052508101906122da9190612edb565b9150915060007f000000000000000000000000000000000000000000000000000000000000000073ffffffffffffffffffffffffffffffffffffffff16635722647b6123238b90565b8a6040517fffffffff0000000000000000000000000000000000000000000000000000000060e085901b16815273ffffffffffffffffffffffffffffffffffffffff92831660048201529116602482015260448101889052606401602060405180830381865afa15801561239b573d6000803e3d6000fd5b505050506040513d601f19601f820116820180604052508101906123bf9190612b68565b9050600086604085901c61ffff1611156123e2575061ffff604084901c166123e5565b50855b62ffffff881115612415577fae7e31c3220e851db9f204a28b279dfe52b973600b0a456991089c220ae722245497505b60008161242b62ffffff606087901c168b612dff565b6124359190612eff565b61244390633b9aca00612eff565b9050600061ffff602085901c1661246a62ffffff603087901c811690604888901c16612dff565b6124749190612eff565b61248290633b9aca00612eff565b905060006124908e83612dff565b9050828110156124a9576124a48184612bb0565b6124ac565b60005b9e9d5050505050505050505050505050565b7f000000000000000000000000000000000000000000000000000000000000000073ffffffffffffffffffffffffffffffffffffffff1663b60d4288826040518263ffffffff1660e01b81526004016000604051808303818588803b15801561252657600080fd5b505af115801561253a573d6000803e3d6000fd5b50505050506112148282612704565b73ffffffffffffffffffffffffffffffffffffffff84811660008181526020818152604080832088861680855290835281842088855283529281902080547fffffffffffffffffffffffff00000000000000000000000000000000000000001687871690811790915581517f000000000000000000000000000000000000000000000000000000000000000090961686529185019190915285939192917f460a431c86ecaea27134277388c72021356689d9eb62c3b25a5e4a97da7a8a14910160405180910390a450505050565b6040517f70a082310000000000000000000000000000000000000000000000000000000081523060048201526000907f000000000000000000000000000000000000000000000000000000000000000073ffffffffffffffffffffffffffffffffffffffff16906370a0823190602401602060405180830381865afa1580156126a4573d6000803e3d6000fd5b505050506040513d601f19601f820116820180604052508101906126c89190612b68565b90508181036126d657505050565b818111156126f157610bd5836126ec8484612bb0565b612704565b610bd5836126ff8385612bb0565b6115fd565b73ffffffffffffffffffffffffffffffffffffffff821660009081526001602052604081208054839290612739908490612dff565b925050819055508173ffffffffffffffffffffffffffffffffffffffff167f000000000000000000000000000000000000000000000000000000000000000073ffffffffffffffffffffffffffffffffffffffff167f23d894830a97b148f17c5fea5f968145dbc040b3d819c030ac7cc80c71c92ed98360405161174791815260200190565b73ffffffffffffffffffffffffffffffffffffffff811681146127e157600080fd5b50565b6000806000606084860312156127f957600080fd5b8335612804816127bf565b92506020840135612814816127bf565b929592945050506040919091013590565b6000806040838503121561283857600080fd5b8235612843816127bf565b946020939093013593505050565b6000806040838503121561286457600080fd5b823561286f816127bf565b9150602083013561287f816127bf565b809150509250929050565b60006020828403121561289c57600080fd5b5035919050565b6000602082840312156128b557600080fd5b81356113d9816127bf565b60006101208284031215610d8b57600080fd5b6000808284036101608112156128e857600080fd5b6128f285856128c0565b925060407ffffffffffffffffffffffffffffffffffffffffffffffffffffffffffffffee08201121561292457600080fd5b50610120830190509250929050565b6000610120828403121561294657600080fd5b61066983836128c0565b600060e08284031215610d8b57600080fd5b600060e0828403121561297457600080fd5b6106698383612950565b600080610100838503121561299257600080fd5b61299c8484612950565b9460e0939093013593505050565b80151581146127e157600080fd5b600080600080608085870312156129ce57600080fd5b84356129d9816127bf565b935060208501356129e9816127bf565b9250604085013591506060850135612a00816129aa565b939692955090935050565b60008060008060608587031215612a2157600080fd5b8435612a2c816127bf565b93506020850135612a3c816127bf565b9250604085013567ffffffffffffffff80821115612a5957600080fd5b818701915087601f830112612a6d57600080fd5b813581811115612a7c57600080fd5b8860208260051b8501011115612a9157600080fd5b95989497505060200194505050565b6020808252825182820181905260009190848201906040850190845b81811015612aee57835173ffffffffffffffffffffffffffffffffffffffff1683529284019291840191600101612abc565b50909695505050505050565b600080600080600060a08688031215612b1257600080fd5b8535612b1d816127bf565b94506020860135612b2d816127bf565b94979496505050506040830135926060810135926080909101359150565b600060208284031215612b5d57600080fd5b81516113d9816129aa565b600060208284031215612b7a57600080fd5b5051919050565b7f4e487b7100000000000000000000000000000000000000000000000000000000600052601160045260246000fd5b600082821015612bc257612bc2612b81565b500390565b7f4e487b7100000000000000000000000000000000000000000000000000000000600052604160045260246000fd5b7fffffffffffffffffffffffffffffffffffffffffffffffffffffffffffffffe0601f830116810181811067ffffffffffffffff82111715612c61577f4e487b7100000000000000000000000000000000000000000000000000000000600052604160045260246000fd5b6040525050565b600060e08284031215612c7a57600080fd5b60405160e0810181811067ffffffffffffffff82111715612cc4577f4e487b7100000000000000000000000000000000000000000000000000000000600052604160045260246000fd5b6040528235612cd2816127bf565b81526020830135612ce2816127bf565b8060208301525060408301356040820152606083013560608201526080830135608082015260a083013560a082015260c083013560c08201528091505092915050565b600060208083528351808285015260005b81811015612d5257858101830151858201604001528201612d36565b81811115612d64576000604083870101525b50601f017fffffffffffffffffffffffffffffffffffffffffffffffffffffffffffffffe016929092016040019392505050565b7f4e487b7100000000000000000000000000000000000000000000000000000000600052603260045260246000fd5b60007fffffffffffffffffffffffffffffffffffffffffffffffffffffffffffffffff8203612df857612df8612b81565b5060010190565b60008219821115612e1257612e12612b81565b500190565b600060033d1115612e305760046000803e5060005160e01c5b90565b600060443d1015612e415790565b6040517ffffffffffffffffffffffffffffffffffffffffffffffffffffffffffffffffc803d016004833e81513d67ffffffffffffffff8160248401118184111715612e8f57505050505090565b8285019150815181811115612ea75750505050505090565b843d8701016020828501011115612ec15750505050505090565b612ed060208286010187612bf6565b509095945050505050565b60008060408385031215612eee57600080fd5b505080516020909101519092909150565b6000817fffffffffffffffffffffffffffffffffffffffffffffffffffffffffffffffff0483118215151615612f3757612f37612b81565b50029056fea2646970667358221220803fba149dffb4939d7eef608b7ec3c4a6529dbd19aa8076e163954a1476e10264736f6c634300080e0033",
  "linkReferences": {},
  "deployedLinkReferences": {}
}