{
  "_format": "hh-sol-artifact-1",
  "contractName": "MultiMaker",
  "sourceName": "contracts/Strategies/OfferLogics/MultiUsers/Deployable/MultiMaker.sol",
  "abi": [
    {
      "inputs": [
        {
          "internalType": "address payable",
          "name": "_MGV",
          "type": "address"
        },
        {
          "internalType": "address",
          "name": "admin",
          "type": "address"
        }
      ],
      "stateMutability": "nonpayable",
      "type": "constructor"
    },
    {
      "anonymous": false,
      "inputs": [
        {
          "indexed": true,
          "internalType": "address",
          "name": "user",
          "type": "address"
        },
        {
          "indexed": false,
          "internalType": "uint256",
          "name": "amount",
          "type": "uint256"
        }
      ],
      "name": "CreditMgvUser",
      "type": "event"
    },
    {
      "anonymous": false,
      "inputs": [
        {
          "indexed": true,
          "internalType": "address",
          "name": "user",
          "type": "address"
        },
        {
          "indexed": true,
          "internalType": "address",
          "name": "token",
          "type": "address"
        },
        {
          "indexed": false,
          "internalType": "uint256",
          "name": "amount",
          "type": "uint256"
        }
      ],
      "name": "CreditUserTokenBalance",
      "type": "event"
    },
    {
      "anonymous": false,
      "inputs": [
        {
          "indexed": true,
          "internalType": "address",
          "name": "user",
          "type": "address"
        },
        {
          "indexed": false,
          "internalType": "uint256",
          "name": "amount",
          "type": "uint256"
        }
      ],
      "name": "DebitMgvUser",
      "type": "event"
    },
    {
      "anonymous": false,
      "inputs": [
        {
          "indexed": true,
          "internalType": "address",
          "name": "user",
          "type": "address"
        },
        {
          "indexed": true,
          "internalType": "address",
          "name": "token",
          "type": "address"
        },
        {
          "indexed": false,
          "internalType": "uint256",
          "name": "amount",
          "type": "uint256"
        }
      ],
      "name": "DebitUserTokenBalance",
      "type": "event"
    },
    {
      "anonymous": false,
      "inputs": [
        {
          "indexed": true,
          "internalType": "address",
          "name": "outbound_tkn",
          "type": "address"
        },
        {
          "indexed": true,
          "internalType": "address",
          "name": "inbound_tkn",
          "type": "address"
        },
        {
          "indexed": true,
          "internalType": "uint256",
          "name": "offerId",
          "type": "uint256"
        },
        {
          "indexed": false,
          "internalType": "bytes32",
          "name": "reason",
          "type": "bytes32"
        }
      ],
      "name": "LogIncident",
      "type": "event"
    },
    {
      "anonymous": false,
      "inputs": [
        {
          "indexed": true,
          "internalType": "address",
          "name": "outbound_tkn",
          "type": "address"
        },
        {
          "indexed": true,
          "internalType": "address",
          "name": "inbound_tkn",
          "type": "address"
        },
        {
          "indexed": true,
          "internalType": "uint256",
          "name": "offerId",
          "type": "uint256"
        },
        {
          "indexed": false,
          "internalType": "address",
          "name": "owner",
          "type": "address"
        }
      ],
      "name": "NewOwnedOffer",
      "type": "event"
    },
    {
      "inputs": [],
      "name": "MGV",
      "outputs": [
        {
          "internalType": "contract IMangrove",
          "name": "",
          "type": "address"
        }
      ],
      "stateMutability": "view",
      "type": "function"
    },
    {
      "inputs": [],
      "name": "OFR_GASREQ",
      "outputs": [
        {
          "internalType": "uint256",
          "name": "",
          "type": "uint256"
        }
      ],
      "stateMutability": "view",
      "type": "function"
    },
    {
      "inputs": [],
      "name": "OUTOFLIQUIDITY",
      "outputs": [
        {
          "internalType": "bytes32",
          "name": "",
          "type": "bytes32"
        }
      ],
      "stateMutability": "view",
      "type": "function"
    },
    {
      "inputs": [],
      "name": "PUTFAILURE",
      "outputs": [
        {
          "internalType": "bytes32",
          "name": "",
          "type": "bytes32"
        }
      ],
      "stateMutability": "view",
      "type": "function"
    },
    {
      "inputs": [],
      "name": "RENEGED",
      "outputs": [
        {
          "internalType": "bytes32",
          "name": "",
          "type": "bytes32"
        }
      ],
      "stateMutability": "view",
      "type": "function"
    },
    {
      "inputs": [],
      "name": "admin",
      "outputs": [
        {
          "internalType": "address",
          "name": "",
          "type": "address"
        }
      ],
      "stateMutability": "view",
      "type": "function"
    },
    {
      "inputs": [
        {
          "internalType": "address",
          "name": "outbound_tkn",
          "type": "address"
        },
        {
          "internalType": "uint256",
          "name": "amount",
          "type": "uint256"
        }
      ],
      "name": "approveMangrove",
      "outputs": [],
      "stateMutability": "nonpayable",
      "type": "function"
    },
    {
      "inputs": [
        {
          "internalType": "address",
          "name": "owner",
          "type": "address"
        }
      ],
      "name": "balanceOnMangrove",
      "outputs": [
        {
          "internalType": "uint256",
          "name": "",
          "type": "uint256"
        }
      ],
      "stateMutability": "view",
      "type": "function"
    },
    {
      "inputs": [
        {
          "internalType": "address",
          "name": "token",
          "type": "address"
        },
        {
          "internalType": "uint256",
          "name": "amount",
          "type": "uint256"
        }
      ],
      "name": "depositToken",
      "outputs": [
        {
          "internalType": "bool",
          "name": "success",
          "type": "bool"
        }
      ],
      "stateMutability": "nonpayable",
      "type": "function"
    },
    {
      "inputs": [],
      "name": "fundMangrove",
      "outputs": [],
      "stateMutability": "payable",
      "type": "function"
    },
    {
      "inputs": [
        {
          "internalType": "address",
          "name": "outbound_tkn",
          "type": "address"
        },
        {
          "internalType": "address",
          "name": "inbound_tkn",
          "type": "address"
        },
        {
          "internalType": "uint256",
          "name": "gasreq",
          "type": "uint256"
        },
        {
          "internalType": "uint256",
          "name": "gasprice",
          "type": "uint256"
        },
        {
          "internalType": "uint256",
          "name": "offerId",
          "type": "uint256"
        }
      ],
      "name": "getMissingProvision",
      "outputs": [
        {
          "internalType": "uint256",
          "name": "",
          "type": "uint256"
        }
      ],
      "stateMutability": "view",
      "type": "function"
    },
    {
      "inputs": [
        {
          "components": [
            {
              "internalType": "address",
              "name": "outbound_tkn",
              "type": "address"
            },
            {
              "internalType": "address",
              "name": "inbound_tkn",
              "type": "address"
            },
            {
              "internalType": "uint256",
              "name": "offerId",
              "type": "uint256"
            },
            {
              "internalType": "Offer.t",
              "name": "offer",
              "type": "uint256"
            },
            {
              "internalType": "uint256",
              "name": "wants",
              "type": "uint256"
            },
            {
              "internalType": "uint256",
              "name": "gives",
              "type": "uint256"
            },
            {
              "internalType": "OfferDetail.t",
              "name": "offerDetail",
              "type": "uint256"
            },
            {
              "internalType": "Global.t",
              "name": "global",
              "type": "uint256"
            },
            {
              "internalType": "Local.t",
              "name": "local",
              "type": "uint256"
            }
          ],
          "internalType": "struct MgvLib.SingleOrder",
          "name": "order",
          "type": "tuple"
        }
      ],
      "name": "makerExecute",
      "outputs": [
        {
          "internalType": "bytes32",
          "name": "ret",
          "type": "bytes32"
        }
      ],
      "stateMutability": "nonpayable",
      "type": "function"
    },
    {
      "inputs": [
        {
          "components": [
            {
              "internalType": "address",
              "name": "outbound_tkn",
              "type": "address"
            },
            {
              "internalType": "address",
              "name": "inbound_tkn",
              "type": "address"
            },
            {
              "internalType": "uint256",
              "name": "offerId",
              "type": "uint256"
            },
            {
              "internalType": "Offer.t",
              "name": "offer",
              "type": "uint256"
            },
            {
              "internalType": "uint256",
              "name": "wants",
              "type": "uint256"
            },
            {
              "internalType": "uint256",
              "name": "gives",
              "type": "uint256"
            },
            {
              "internalType": "OfferDetail.t",
              "name": "offerDetail",
              "type": "uint256"
            },
            {
              "internalType": "Global.t",
              "name": "global",
              "type": "uint256"
            },
            {
              "internalType": "Local.t",
              "name": "local",
              "type": "uint256"
            }
          ],
          "internalType": "struct MgvLib.SingleOrder",
          "name": "order",
          "type": "tuple"
        },
        {
          "components": [
            {
              "internalType": "bytes32",
              "name": "makerData",
              "type": "bytes32"
            },
            {
              "internalType": "bytes32",
              "name": "mgvData",
              "type": "bytes32"
            }
          ],
          "internalType": "struct MgvLib.OrderResult",
          "name": "result",
          "type": "tuple"
        }
      ],
      "name": "makerPosthook",
      "outputs": [],
      "stateMutability": "nonpayable",
      "type": "function"
    },
    {
      "inputs": [
        {
          "internalType": "address",
          "name": "",
          "type": "address"
        }
      ],
      "name": "mgvBalance",
      "outputs": [
        {
          "internalType": "uint256",
          "name": "",
          "type": "uint256"
        }
      ],
      "stateMutability": "view",
      "type": "function"
    },
    {
      "inputs": [
        {
          "internalType": "address",
          "name": "outbound_tkn",
          "type": "address"
        },
        {
          "internalType": "address",
          "name": "inbound_tkn",
          "type": "address"
        },
        {
          "internalType": "uint256",
          "name": "wants",
          "type": "uint256"
        },
        {
          "internalType": "uint256",
          "name": "gives",
          "type": "uint256"
        },
        {
          "internalType": "uint256",
          "name": "gasreq",
          "type": "uint256"
        },
        {
          "internalType": "uint256",
          "name": "gasprice",
          "type": "uint256"
        },
        {
          "internalType": "uint256",
          "name": "pivotId",
          "type": "uint256"
        }
      ],
      "name": "newOffer",
      "outputs": [
        {
          "internalType": "uint256",
          "name": "offerId",
          "type": "uint256"
        }
      ],
      "stateMutability": "payable",
      "type": "function"
    },
    {
      "inputs": [
        {
          "internalType": "address",
          "name": "reader",
          "type": "address"
        },
        {
          "internalType": "address",
          "name": "outbound_tkn",
          "type": "address"
        },
        {
          "internalType": "address",
          "name": "inbound_tkn",
          "type": "address"
        },
        {
          "internalType": "uint256",
          "name": "fromId",
          "type": "uint256"
        },
        {
          "internalType": "uint256",
          "name": "maxOffers",
          "type": "uint256"
        }
      ],
      "name": "offerOwners",
      "outputs": [
        {
          "internalType": "uint256",
          "name": "nextId",
          "type": "uint256"
        },
        {
          "internalType": "uint256[]",
          "name": "offerIds",
          "type": "uint256[]"
        },
        {
          "internalType": "address[]",
          "name": "__offerOwners",
          "type": "address[]"
        }
      ],
      "stateMutability": "view",
      "type": "function"
    },
    {
      "inputs": [
        {
          "internalType": "address",
          "name": "outbound_tkn",
          "type": "address"
        },
        {
          "internalType": "address",
          "name": "inbound_tkn",
          "type": "address"
        },
        {
          "internalType": "uint256",
          "name": "offerId",
          "type": "uint256"
        }
      ],
      "name": "ownerOf",
      "outputs": [
        {
          "internalType": "address",
          "name": "owner",
          "type": "address"
        }
      ],
      "stateMutability": "view",
      "type": "function"
    },
    {
      "inputs": [
        {
          "internalType": "address",
          "name": "token",
          "type": "address"
        },
        {
          "internalType": "address",
          "name": "receiver",
          "type": "address"
        },
        {
          "internalType": "uint256",
          "name": "amount",
          "type": "uint256"
        }
      ],
      "name": "redeemToken",
      "outputs": [
        {
          "internalType": "bool",
          "name": "success",
          "type": "bool"
        }
      ],
      "stateMutability": "nonpayable",
      "type": "function"
    },
    {
      "inputs": [
        {
          "internalType": "address",
          "name": "outbound_tkn",
          "type": "address"
        },
        {
          "internalType": "address",
          "name": "inbound_tkn",
          "type": "address"
        },
        {
          "internalType": "uint256",
          "name": "offerId",
          "type": "uint256"
        },
        {
          "internalType": "bool",
          "name": "deprovision",
          "type": "bool"
        }
      ],
      "name": "retractOffer",
      "outputs": [
        {
          "internalType": "uint256",
          "name": "received",
          "type": "uint256"
        }
      ],
      "stateMutability": "nonpayable",
      "type": "function"
    },
    {
      "inputs": [
        {
          "internalType": "address",
          "name": "_admin",
          "type": "address"
        }
      ],
      "name": "setAdmin",
      "outputs": [],
      "stateMutability": "nonpayable",
      "type": "function"
    },
    {
      "inputs": [
        {
          "internalType": "uint256",
          "name": "gasreq",
          "type": "uint256"
        }
      ],
      "name": "setGasreq",
      "outputs": [],
      "stateMutability": "nonpayable",
      "type": "function"
    },
    {
      "inputs": [
        {
          "internalType": "address",
          "name": "token",
          "type": "address"
        },
        {
          "internalType": "address",
          "name": "owner",
          "type": "address"
        }
      ],
      "name": "tokenBalance",
      "outputs": [
        {
          "internalType": "uint256",
          "name": "",
          "type": "uint256"
        }
      ],
      "stateMutability": "view",
      "type": "function"
    },
    {
      "inputs": [
        {
          "internalType": "address",
          "name": "",
          "type": "address"
        },
        {
          "internalType": "address",
          "name": "",
          "type": "address"
        }
      ],
      "name": "tokenBalanceOf",
      "outputs": [
        {
          "internalType": "uint256",
          "name": "",
          "type": "uint256"
        }
      ],
      "stateMutability": "view",
      "type": "function"
    },
    {
      "inputs": [
        {
          "internalType": "address",
          "name": "outbound_tkn",
          "type": "address"
        },
        {
          "internalType": "address",
          "name": "inbound_tkn",
          "type": "address"
        },
        {
          "internalType": "uint256",
          "name": "wants",
          "type": "uint256"
        },
        {
          "internalType": "uint256",
          "name": "gives",
          "type": "uint256"
        },
        {
          "internalType": "uint256",
          "name": "gasreq",
          "type": "uint256"
        },
        {
          "internalType": "uint256",
          "name": "gasprice",
          "type": "uint256"
        },
        {
          "internalType": "uint256",
          "name": "pivotId",
          "type": "uint256"
        },
        {
          "internalType": "uint256",
          "name": "offerId",
          "type": "uint256"
        }
      ],
      "name": "updateOffer",
      "outputs": [],
      "stateMutability": "payable",
      "type": "function"
    },
    {
      "inputs": [
        {
          "internalType": "address payable",
          "name": "receiver",
          "type": "address"
        },
        {
          "internalType": "uint256",
          "name": "amount",
          "type": "uint256"
        }
      ],
      "name": "withdrawFromMangrove",
      "outputs": [
        {
          "internalType": "bool",
          "name": "noRevert",
          "type": "bool"
        }
      ],
      "stateMutability": "nonpayable",
      "type": "function"
    },
    {
      "stateMutability": "payable",
      "type": "receive"
    }
  ],
  "bytecode": "0x6101006040527f6d67764f666665722f61626f72742f72656e65676564000000000000000000006080527f6d67764f666665722f61626f72742f7075744661696c6564000000000000000060a0527f6d67764f666665722f61626f72742f6765744661696c6564000000000000000060c052620186a06001553480156200008557600080fd5b50604051620031c7380380620031c7833981016040819052620000a8916200014c565b8181806001600160a01b038116620001065760405162461bcd60e51b815260206004820152601860248201527f616363657373436f6e74726f6c6c65642f307841646d696e0000000000000000604482015260640160405180910390fd5b600080546001600160a01b0319166001600160a01b039283161790559190911660e052506200018b915050565b6001600160a01b03811681146200014957600080fd5b50565b600080604083850312156200016057600080fd5b82516200016d8162000133565b6020840151909250620001808162000133565b809150509250929050565b60805160a05160c05160e051612f996200022e6000396000818161044d015281816109e501528181610ae201528181610d5a01528181611026015281816110eb01528181611638015281816119fb01528181611ae901528181611c5201528181611d5c0152818161203401528181612107015281816121d00152818161231d015261247b015260006103e50152600061035e015260006104190152612f996000f3fe60806040526004361061019a5760003560e01c8063704b6c02116100e1578063d19711591161008a578063e4c34f8411610064578063e4c34f8414610546578063f851a44014610566578063f92495e514610593578063faa030ec146105b357600080fd5b8063d1971159146104d4578063df24266714610503578063e428204d1461053057600080fd5b806399fa5e2d116100bb57806399fa5e2d1461043b578063ad97db1b14610494578063aefe8403146104b457600080fd5b8063704b6c02146103b35780637f7a1b99146103d357806389dbacfe1461040757600080fd5b806335d61cb211610143578063572e59e31161011d578063572e59e31461034c5780636a4f7691146103805780636c49c32c1461039357600080fd5b806335d61cb2146102d65780633d3d130d1461031957806349f6d2dc1461033957600080fd5b80631bea8006116101745780631bea80061461025c578063338b5dea1461029457806334bd8931146102b457600080fd5b8063063df2d2146101a65780630d71bdc3146101db5780631049334f146101fb57600080fd5b366101a157005b600080fd5b3480156101b257600080fd5b506101c66101c13660046125df565b6105bb565b60405190151581526020015b60405180910390f35b3480156101e757600080fd5b506101c66101f636600461260b565b610649565b34801561020757600080fd5b5061024e61021636600461264c565b73ffffffffffffffffffffffffffffffffffffffff918216600090815260046020908152604080832093909416825291909152205490565b6040519081526020016101d2565b34801561026857600080fd5b5061024e61027736600461264c565b600460209081526000928352604080842090915290825290205481565b3480156102a057600080fd5b506101c66102af3660046125df565b610761565b3480156102c057600080fd5b506102d46102cf366004612685565b6109ac565b005b3480156102e257600080fd5b5061024e6102f136600461269e565b73ffffffffffffffffffffffffffffffffffffffff1660009081526003602052604090205490565b34801561032557600080fd5b506102d46103343660046126ce565b610ae0565b61024e61034736600461272e565b610c6a565b34801561035857600080fd5b5061024e7f000000000000000000000000000000000000000000000000000000000000000081565b6102d461038e366004612790565b610cf3565b34801561039f57600080fd5b5061024e6103ae3660046127fb565b610d56565b3480156103bf57600080fd5b506102d46103ce36600461269e565b610f0d565b3480156103df57600080fd5b5061024e7f000000000000000000000000000000000000000000000000000000000000000081565b34801561041357600080fd5b5061024e7f000000000000000000000000000000000000000000000000000000000000000081565b34801561044757600080fd5b5061046f7f000000000000000000000000000000000000000000000000000000000000000081565b60405173ffffffffffffffffffffffffffffffffffffffff90911681526020016101d2565b3480156104a057600080fd5b5061024e6104af366004612826565b610fd5565b3480156104c057600080fd5b506102d46104cf3660046125df565b610fed565b3480156104e057600080fd5b506104f46104ef366004612879565b6111d1565b6040516101d2939291906128d4565b34801561050f57600080fd5b5061024e61051e36600461269e565b60036020526000908152604090205481565b34801561053c57600080fd5b5061024e60015481565b34801561055257600080fd5b5061024e610561366004612970565b611374565b34801561057257600080fd5b5060005461046f9073ffffffffffffffffffffffffffffffffffffffff1681565b34801561059f57600080fd5b5061046f6105ae36600461260b565b6113cc565b6102d4611477565b60003330141561062c576040517f08c379a000000000000000000000000000000000000000000000000000000000815260206004820152601260248201527f4d75746c692f6e6f5265656e7472616e6379000000000000000000000000000060448201526064015b60405180910390fd5b61063633836114ed565b6106408383611606565b90505b92915050565b6000333014156106b5576040517f08c379a000000000000000000000000000000000000000000000000000000000815260206004820152601260248201527f4d75746c692f6e6f5265656e7472616e637900000000000000000000000000006044820152606401610623565b6106c08433846117ac565b6040517fa9059cbb00000000000000000000000000000000000000000000000000000000815273ffffffffffffffffffffffffffffffffffffffff84811660048301526024820184905285169063a9059cbb906044016020604051808303816000875af1158015610735573d6000803e3d6000fd5b505050506040513d601f19601f8201168201806040525081019061075991906129c1565b949350505050565b6040517f70a08231000000000000000000000000000000000000000000000000000000008152306004820152600090819073ffffffffffffffffffffffffffffffffffffffff8516906370a0823190602401602060405180830381865afa1580156107d0573d6000803e3d6000fd5b505050506040513d601f19601f820116820180604052508101906107f491906129de565b6040517f23b872dd0000000000000000000000000000000000000000000000000000000081523360048201523060248201526044810185905290915073ffffffffffffffffffffffffffffffffffffffff8516906323b872dd906064016020604051808303816000875af1158015610870573d6000803e3d6000fd5b505050506040513d601f19601f8201168201806040525081019061089491906129c1565b6040517f70a082310000000000000000000000000000000000000000000000000000000081523060048201529092508390829073ffffffffffffffffffffffffffffffffffffffff8716906370a0823190602401602060405180830381865afa158015610905573d6000803e3d6000fd5b505050506040513d601f19601f8201168201806040525081019061092991906129de565b6109339190612a26565b1461099a576040517f08c379a000000000000000000000000000000000000000000000000000000000815260206004820152601260248201527f4d756c74692f7472616e736665724661696c00000000000000000000000000006044820152606401610623565b6109a5843385611909565b5092915050565b60005473ffffffffffffffffffffffffffffffffffffffff16331480610a0757503373ffffffffffffffffffffffffffffffffffffffff7f000000000000000000000000000000000000000000000000000000000000000016145b610a6d576040517f08c379a000000000000000000000000000000000000000000000000000000000815260206004820152601860248201527f416363657373436f6e74726f6c6c65642f496e76616c696400000000000000006044820152606401610623565b808162ffffff1614610adb576040517f08c379a000000000000000000000000000000000000000000000000000000000815260206004820152601860248201527f6d67764f666665722f6761737265712f6f766572666c6f7700000000000000006044820152606401610623565b600155565b7f000000000000000000000000000000000000000000000000000000000000000073ffffffffffffffffffffffffffffffffffffffff81161580610b3957503373ffffffffffffffffffffffffffffffffffffffff8216145b610b9f576040517f08c379a000000000000000000000000000000000000000000000000000000000815260206004820152601860248201527f416363657373436f6e74726f6c6c65642f496e76616c696400000000000000006044820152606401610623565b81602001357f6d67762f747261646553756363657373000000000000000000000000000000001415610bd45760015b50505050565b60408301803590610be8906020860161269e565b73ffffffffffffffffffffffffffffffffffffffff16610c0b602086018661269e565b73ffffffffffffffffffffffffffffffffffffffff167fd2c3f090769d843e1fc2e6ce65d60572e28f9163a5cfccbd6c1725c6a9263f2f8560000135604051610c5691815260200190565b60405180910390a46001610bce565b505050565b600033301415610cd6576040517f08c379a000000000000000000000000000000000000000000000000000000000815260206004820152601260248201527f4d75746c692f6e6f5265656e7472616e637900000000000000000000000000006044820152606401610623565b610ce78888888888888833346119b3565b98975050505050505050565b600080610d088a8a8a8a8a8a8a8a3334611b7e565b91509150600082118190610d49576040517f08c379a00000000000000000000000000000000000000000000000000000000081526004016106239190612a3d565b5050505050505050505050565b60007f000000000000000000000000000000000000000000000000000000000000000073ffffffffffffffffffffffffffffffffffffffff81161580610db157503373ffffffffffffffffffffffffffffffffffffffff8216145b610e17576040517f08c379a000000000000000000000000000000000000000000000000000000000815260206004820152601860248201527f416363657373436f6e74726f6c6c65642f496e76616c696400000000000000006044820152606401610623565b6000610e278460a0013585611e27565b1115610e8f576040517f08c379a000000000000000000000000000000000000000000000000000000000815260206004820152601860248201527f6d67764f666665722f61626f72742f7075744661696c656400000000000000006044820152606401610623565b6000610e9f846080013585611e7a565b1115610f07576040517f08c379a000000000000000000000000000000000000000000000000000000000815260206004820152601860248201527f6d67764f666665722f61626f72742f6765744661696c656400000000000000006044820152606401610623565b50919050565b60005473ffffffffffffffffffffffffffffffffffffffff163314610f8e576040517f08c379a000000000000000000000000000000000000000000000000000000000815260206004820152601860248201527f416363657373436f6e74726f6c6c65642f496e76616c696400000000000000006044820152606401610623565b600080547fffffffffffffffffffffffff00000000000000000000000000000000000000001673ffffffffffffffffffffffffffffffffffffffff92909216919091179055565b6000610fe48585858533611f2e565b95945050505050565b60005473ffffffffffffffffffffffffffffffffffffffff1633148061104857503373ffffffffffffffffffffffffffffffffffffffff7f000000000000000000000000000000000000000000000000000000000000000016145b6110ae576040517f08c379a000000000000000000000000000000000000000000000000000000000815260206004820152601860248201527f416363657373436f6e74726f6c6c65642f496e76616c696400000000000000006044820152606401610623565b6040517f095ea7b300000000000000000000000000000000000000000000000000000000815273ffffffffffffffffffffffffffffffffffffffff7f0000000000000000000000000000000000000000000000000000000000000000811660048301526024820183905283169063095ea7b3906044016020604051808303816000875af1158015611143573d6000803e3d6000fd5b505050506040513d601f19601f8201168201806040525081019061116791906129c1565b6111cd576040517f08c379a000000000000000000000000000000000000000000000000000000000815260206004820152601560248201527f6d67764f666665722f617070726f76652f4661696c00000000000000000000006044820152606401610623565b5050565b6040517f2c7e545f00000000000000000000000000000000000000000000000000000000815273ffffffffffffffffffffffffffffffffffffffff858116600483015284811660248301526044820184905260648201839052600091606091829190891690632c7e545f90608401600060405180830381865afa15801561125c573d6000803e3d6000fd5b505050506040513d6000823e601f3d9081017fffffffffffffffffffffffffffffffffffffffffffffffffffffffffffffffe01682016040526112a29190810190612cc9565b50508051919450925067ffffffffffffffff8111156112c3576112c3612ab0565b6040519080825280602002602001820160405280156112ec578160200160208202803683370190505b50905060005b82518110156113685761131f888885848151811061131257611312612dbe565b60200260200101516113cc565b82828151811061133157611331612dbe565b73ffffffffffffffffffffffffffffffffffffffff909216602092830291909101909101528061136081612ded565b9150506112f2565b50955095509592505050565b60008082156113b357600061138a8888866113cc565b73ffffffffffffffffffffffffffffffffffffffff166000908152600360205260409020549150505b6113c18188888888886120b3565b979650505050505050565b73ffffffffffffffffffffffffffffffffffffffff8084166000908152600260209081526040808320868516845282528083208584529091529020541680611470576040517f08c379a000000000000000000000000000000000000000000000000000000000815260206004820152601560248201527f6d756c7469557365722f756e6b6f776e4f6666657200000000000000000000006044820152606401610623565b9392505050565b333014156114e1576040517f08c379a000000000000000000000000000000000000000000000000000000000815260206004820152601260248201527f4d75746c692f6e6f5265656e7472616e637900000000000000000000000000006044820152606401610623565b6114eb333461231b565b565b73ffffffffffffffffffffffffffffffffffffffff821660009081526003602052604090205481111561157c576040517f08c379a000000000000000000000000000000000000000000000000000000000815260206004820152601d60248201527f4d756c74692f64656269744f6e4d67762f696e73756666696369656e740000006044820152606401610623565b73ffffffffffffffffffffffffffffffffffffffff8216600090815260036020526040812080548392906115b1908490612a26565b909155505060405181815273ffffffffffffffffffffffffffffffffffffffff8316907fd50b865b3d9d927f026d3b8404e07f25d6beb1d111deab51bdc846bf8d0a860b906020015b60405180910390a25050565b6040517f2e1a7d4d000000000000000000000000000000000000000000000000000000008152600481018290526000907f000000000000000000000000000000000000000000000000000000000000000073ffffffffffffffffffffffffffffffffffffffff1690632e1a7d4d906024016020604051808303816000875af1158015611696573d6000803e3d6000fd5b505050506040513d601f19601f820116820180604052508101906116ba91906129c1565b611720576040517f08c379a000000000000000000000000000000000000000000000000000000000815260206004820152601e60248201527f6d67764f666665722f77697468647261772f7472616e736665724661696c00006044820152606401610623565b73ffffffffffffffffffffffffffffffffffffffff831630146117a35760405173ffffffffffffffffffffffffffffffffffffffff8416908390600081818185875af1925050503d8060008114611793576040519150601f19603f3d011682016040523d82523d6000602084013e611798565b606091505b505080915050610643565b50600192915050565b806117b657505050565b73ffffffffffffffffffffffffffffffffffffffff808416600090815260046020908152604080832093861683529290522054811115611852576040517f08c379a000000000000000000000000000000000000000000000000000000000815260206004820152601d60248201527f4d756c74692f6465626974546f6b656e2f696e73756666696369656e740000006044820152606401610623565b73ffffffffffffffffffffffffffffffffffffffff808416600090815260046020908152604080832093861683529290529081208054839290611896908490612a26565b925050819055508273ffffffffffffffffffffffffffffffffffffffff168273ffffffffffffffffffffffffffffffffffffffff167f7a97b405ee1bd89550b225932dbdd0431e30426b7c8f02f05b3cb0e1bdfb8476836040516118fc91815260200190565b60405180910390a3505050565b73ffffffffffffffffffffffffffffffffffffffff80841660009081526004602090815260408083209386168352929052908120805483929061194d908490612e26565b925050819055508273ffffffffffffffffffffffffffffffffffffffff168273ffffffffffffffffffffffffffffffffffffffff167fb2b1ec266d1bab793ae1d020eedf03e575cc390e5fb9e370cb099fdf2f61534d836040516118fc91815260200190565b6040517f70a08231000000000000000000000000000000000000000000000000000000008152306004820152600090819073ffffffffffffffffffffffffffffffffffffffff7f000000000000000000000000000000000000000000000000000000000000000016906370a0823190602401602060405180830381865afa158015611a42573d6000803e3d6000fd5b505050506040513d601f19601f82011682018060405250810190611a6691906129de565b905062ffffff871115611a795760015496505b6040517f49f6d2dc00000000000000000000000000000000000000000000000000000000815273ffffffffffffffffffffffffffffffffffffffff8c811660048301528b81166024830152604482018b9052606482018a90526084820189905260a4820188905260c482018790527f000000000000000000000000000000000000000000000000000000000000000016906349f6d2dc90859060e40160206040518083038185885af1158015611b33573d6000803e3d6000fd5b50505050506040513d601f19601f82011682018060405250810190611b5891906129de565b9150611b668b8b84876123a6565b611b70848261244a565b509998505050505050505050565b60006060611b8d8c8c876113cc565b73ffffffffffffffffffffffffffffffffffffffff168473ffffffffffffffffffffffffffffffffffffffff1614611c21576040517f08c379a000000000000000000000000000000000000000000000000000000000815260206004820152601e60248201527f4d756c74692f7570646174654f666665722f756e617574686f72697a656400006044820152606401610623565b6040517f70a082310000000000000000000000000000000000000000000000000000000081523060048201526000907f000000000000000000000000000000000000000000000000000000000000000073ffffffffffffffffffffffffffffffffffffffff16906370a0823190602401602060405180830381865afa158015611cae573d6000803e3d6000fd5b505050506040513d601f19601f82011682018060405250810190611cd291906129de565b905062ffffff891115611ce55760015498505b6040517f6a4f769100000000000000000000000000000000000000000000000000000000815273ffffffffffffffffffffffffffffffffffffffff8e811660048301528d81166024830152604482018d9052606482018c9052608482018b905260a482018a905260c4820189905260e482018890527f00000000000000000000000000000000000000000000000000000000000000001690636a4f7691908690610104016000604051808303818588803b158015611da257600080fd5b505af193505050508015611db4575060015b611df957611dc0612e3e565b806308c379a01415611ded5750611dd5612e5a565b80611de05750611def565b600093509150611e189050565b505b3d6000803e3d6000fd5b611e03858261244a565b50506040805160208101909152600081528491505b9a509a98505050505050505050565b600080611e54611e3a602085018561269e565b611e4a604086016020870161269e565b85604001356113cc565b9050611e70611e69604085016020860161269e565b8286611909565b5060009392505050565b600080611e8d611e3a602085018561269e565b90506000600481611ea1602087018761269e565b73ffffffffffffffffffffffffffffffffffffffff90811682526020808301939093526040918201600090812091861681529252902054905084811015611f0c57611ef9611ef2602086018661269e565b83836117ac565b611f038186612a26565b92505050610643565b611f23611f1c602086018661269e565b83876117ac565b600092505050610643565b73ffffffffffffffffffffffffffffffffffffffff8581166000908152600260209081526040808320888516845282528083208784529091528120549091838116911614611fd8576040517f08c379a000000000000000000000000000000000000000000000000000000000815260206004820152601f60248201527f4d756c74692f726574726163744f666665722f756e617574686f72697a6564006044820152606401610623565b6040517fad97db1b00000000000000000000000000000000000000000000000000000000815273ffffffffffffffffffffffffffffffffffffffff878116600483015286811660248301526044820186905284151560648301527f0000000000000000000000000000000000000000000000000000000000000000169063ad97db1b906084016020604051808303816000875af115801561207d573d6000803e3d6000fd5b505050506040513d601f19601f820116820180604052508101906120a191906129de565b90508015610fe457610fe48282612538565b6040517fcbf75c9a00000000000000000000000000000000000000000000000000000000815273ffffffffffffffffffffffffffffffffffffffff86811660048301528581166024830152600091829182917f00000000000000000000000000000000000000000000000000000000000000009091169063cbf75c9a906044016040805180830381865afa15801561214f573d6000803e3d6000fd5b505050506040513d601f19601f820116820180604052508101906121739190612f02565b6040517f5722647b00000000000000000000000000000000000000000000000000000000815273ffffffffffffffffffffffffffffffffffffffff8b811660048301528a81166024830152604482018890529294509092506000917f00000000000000000000000000000000000000000000000000000000000000001690635722647b90606401602060405180830381865afa158015612217573d6000803e3d6000fd5b505050506040513d601f19601f8201168201806040525081019061223b91906129de565b9050600086604085901c61ffff16111561225e575061ffff604084901c16612261565b50855b62ffffff8811156122725760015497505b60008161228862ffffff606087901c168b612e26565b6122929190612f26565b6122a090633b9aca00612f26565b9050600061ffff602085901c166122c762ffffff603087901c811690604888901c16612e26565b6122d19190612f26565b6122df90633b9aca00612f26565b905060006122ed8e83612e26565b905082811015612306576123018184612a26565b612309565b60005b9e9d5050505050505050505050505050565b7f000000000000000000000000000000000000000000000000000000000000000073ffffffffffffffffffffffffffffffffffffffff1663b60d4288826040518263ffffffff1660e01b81526004016000604051808303818588803b15801561238357600080fd5b505af1158015612397573d6000803e3d6000fd5b50505050506111cd8282612538565b73ffffffffffffffffffffffffffffffffffffffff848116600081815260026020908152604080832088861680855290835281842088855283529281902080547fffffffffffffffffffffffff00000000000000000000000000000000000000001695871695861790555193845285939192917fabf04a4ce23225c02bd147297da7ffc10e7d29102d8678f1a63fdd2cfd71ff07910160405180910390a450505050565b6040517f70a082310000000000000000000000000000000000000000000000000000000081523060048201526000907f000000000000000000000000000000000000000000000000000000000000000073ffffffffffffffffffffffffffffffffffffffff16906370a0823190602401602060405180830381865afa1580156124d7573d6000803e3d6000fd5b505050506040513d601f19601f820116820180604052508101906124fb91906129de565b90508181141561250a57505050565b8181111561252557610c65836125208484612a26565b612538565b610c65836125338385612a26565b6114ed565b73ffffffffffffffffffffffffffffffffffffffff82166000908152600360205260408120805483929061256d908490612e26565b909155505060405181815273ffffffffffffffffffffffffffffffffffffffff8316907f2022607feefe24f258126b277628af517f5512dd9499fb3520eeff54cad13703906020016115fa565b73ffffffffffffffffffffffffffffffffffffffff811681146125dc57600080fd5b50565b600080604083850312156125f257600080fd5b82356125fd816125ba565b946020939093013593505050565b60008060006060848603121561262057600080fd5b833561262b816125ba565b9250602084013561263b816125ba565b929592945050506040919091013590565b6000806040838503121561265f57600080fd5b823561266a816125ba565b9150602083013561267a816125ba565b809150509250929050565b60006020828403121561269757600080fd5b5035919050565b6000602082840312156126b057600080fd5b8135611470816125ba565b60006101208284031215610f0757600080fd5b6000808284036101608112156126e357600080fd5b6126ed85856126bb565b925060407ffffffffffffffffffffffffffffffffffffffffffffffffffffffffffffffee08201121561271f57600080fd5b50610120830190509250929050565b600080600080600080600060e0888a03121561274957600080fd5b8735612754816125ba565b96506020880135612764816125ba565b96999698505050506040850135946060810135946080820135945060a0820135935060c0909101359150565b600080600080600080600080610100898b0312156127ad57600080fd5b88356127b8816125ba565b975060208901356127c8816125ba565b979a9799505050506040860135956060810135956080820135955060a0820135945060c0820135935060e0909101359150565b6000610120828403121561280e57600080fd5b61064083836126bb565b80151581146125dc57600080fd5b6000806000806080858703121561283c57600080fd5b8435612847816125ba565b93506020850135612857816125ba565b925060408501359150606085013561286e81612818565b939692955090935050565b600080600080600060a0868803121561289157600080fd5b853561289c816125ba565b945060208601356128ac816125ba565b935060408601356128bc816125ba565b94979396509394606081013594506080013592915050565b6000606082018583526020606081850152818651808452608086019150828801935060005b81811015612915578451835293830193918301916001016128f9565b50508481036040860152855180825290820192508186019060005b8181101561296257825173ffffffffffffffffffffffffffffffffffffffff1685529383019391830191600101612930565b509298975050505050505050565b600080600080600060a0868803121561298857600080fd5b8535612993816125ba565b945060208601356129a3816125ba565b94979496505050506040830135926060810135926080909101359150565b6000602082840312156129d357600080fd5b815161147081612818565b6000602082840312156129f057600080fd5b5051919050565b7f4e487b7100000000000000000000000000000000000000000000000000000000600052601160045260246000fd5b600082821015612a3857612a386129f7565b500390565b600060208083528351808285015260005b81811015612a6a57858101830151858201604001528201612a4e565b81811115612a7c576000604083870101525b50601f017fffffffffffffffffffffffffffffffffffffffffffffffffffffffffffffffe016929092016040019392505050565b7f4e487b7100000000000000000000000000000000000000000000000000000000600052604160045260246000fd5b6080810181811067ffffffffffffffff82111715612aff57612aff612ab0565b60405250565b7fffffffffffffffffffffffffffffffffffffffffffffffffffffffffffffffe0601f830116810181811067ffffffffffffffff82111715612b4957612b49612ab0565b6040525050565b600067ffffffffffffffff821115612b6a57612b6a612ab0565b5060051b60200190565b600082601f830112612b8557600080fd5b81516020612b9282612b50565b60408051612ba08382612b05565b84815260079490941b8601830193838101925087851115612bc057600080fd5b8387015b85811015612c14576080818a031215612bdd5760008081fd5b8251612be881612adf565b815181528582015186820152838201518482015260608083015190820152845292840192608001612bc4565b50979650505050505050565b600082601f830112612c3157600080fd5b81516020612c3e82612b50565b60408051612c4c8382612b05565b84815260079490941b8601830193838101925087851115612c6c57600080fd5b8387015b85811015612c14576080818a031215612c895760008081fd5b8251612c9481612adf565b8151612c9f816125ba565b81528186015186820152838201518482015260608083015190820152845292840192608001612c70565b60008060008060808587031215612cdf57600080fd5b8451935060208086015167ffffffffffffffff80821115612cff57600080fd5b818801915088601f830112612d1357600080fd5b8151612d1e81612b50565b604051612d2b8282612b05565b82815260059290921b840185019185810191508b831115612d4b57600080fd5b938501935b82851015612d6957845182529385019390850190612d50565b60408b01519098509450505080831115612d8257600080fd5b612d8e89848a01612b74565b94506060880151925080831115612da457600080fd5b5050612db287828801612c20565b91505092959194509250565b7f4e487b7100000000000000000000000000000000000000000000000000000000600052603260045260246000fd5b60007fffffffffffffffffffffffffffffffffffffffffffffffffffffffffffffffff821415612e1f57612e1f6129f7565b5060010190565b60008219821115612e3957612e396129f7565b500190565b600060033d1115612e575760046000803e5060005160e01c5b90565b600060443d1015612e685790565b6040517ffffffffffffffffffffffffffffffffffffffffffffffffffffffffffffffffc803d016004833e81513d67ffffffffffffffff8160248401118184111715612eb657505050505090565b8285019150815181811115612ece5750505050505090565b843d8701016020828501011115612ee85750505050505090565b612ef760208286010187612b05565b509095945050505050565b60008060408385031215612f1557600080fd5b505080516020909101519092909150565b6000817fffffffffffffffffffffffffffffffffffffffffffffffffffffffffffffffff0483118215151615612f5e57612f5e6129f7565b50029056fea2646970667358221220910a795c29ec9cf703b9487277e9731b371a1dbdf8ce9d33b3deb499d85493c364736f6c634300080a0033",
  "linkReferences": {},
  "deployedLinkReferences": {}
}