{
  "_format": "hh-sol-artifact-1",
  "contractName": "MultiMaker",
  "sourceName": "contracts/Strategies/OfferLogics/MultiUsers/Deployable/MultiMaker.sol",
  "abi": [
    {
      "inputs": [
        {
          "internalType": "address payable",
          "name": "_MGV",
          "type": "address"
        },
        {
          "internalType": "address",
          "name": "admin",
          "type": "address"
        }
      ],
      "stateMutability": "nonpayable",
      "type": "constructor"
    },
    {
      "anonymous": false,
      "inputs": [
        {
          "indexed": true,
          "internalType": "address",
          "name": "user",
          "type": "address"
        },
        {
          "indexed": false,
          "internalType": "uint256",
          "name": "amount",
          "type": "uint256"
        }
      ],
      "name": "CreditMgvUser",
      "type": "event"
    },
    {
      "anonymous": false,
      "inputs": [
        {
          "indexed": true,
          "internalType": "address",
          "name": "user",
          "type": "address"
        },
        {
          "indexed": true,
          "internalType": "address",
          "name": "token",
          "type": "address"
        },
        {
          "indexed": false,
          "internalType": "uint256",
          "name": "amount",
          "type": "uint256"
        }
      ],
      "name": "CreditUserTokenBalance",
      "type": "event"
    },
    {
      "anonymous": false,
      "inputs": [
        {
          "indexed": true,
          "internalType": "address",
          "name": "user",
          "type": "address"
        },
        {
          "indexed": false,
          "internalType": "uint256",
          "name": "amount",
          "type": "uint256"
        }
      ],
      "name": "DebitMgvUser",
      "type": "event"
    },
    {
      "anonymous": false,
      "inputs": [
        {
          "indexed": true,
          "internalType": "address",
          "name": "user",
          "type": "address"
        },
        {
          "indexed": true,
          "internalType": "address",
          "name": "token",
          "type": "address"
        },
        {
          "indexed": false,
          "internalType": "uint256",
          "name": "amount",
          "type": "uint256"
        }
      ],
      "name": "DebitUserTokenBalance",
      "type": "event"
    },
    {
      "anonymous": false,
      "inputs": [
        {
          "indexed": true,
          "internalType": "address",
          "name": "outbound_tkn",
          "type": "address"
        },
        {
          "indexed": true,
          "internalType": "address",
          "name": "inbound_tkn",
          "type": "address"
        },
        {
          "indexed": true,
          "internalType": "uint256",
          "name": "offerId",
          "type": "uint256"
        },
        {
          "indexed": false,
          "internalType": "bytes32",
          "name": "reason",
          "type": "bytes32"
        }
      ],
      "name": "LogIncident",
      "type": "event"
    },
    {
      "anonymous": false,
      "inputs": [
        {
          "indexed": true,
          "internalType": "address",
          "name": "outbound_tkn",
          "type": "address"
        },
        {
          "indexed": true,
          "internalType": "address",
          "name": "inbound_tkn",
          "type": "address"
        },
        {
          "indexed": true,
          "internalType": "uint256",
          "name": "offerId",
          "type": "uint256"
        },
        {
          "indexed": false,
          "internalType": "address",
          "name": "owner",
          "type": "address"
        }
      ],
      "name": "NewOwnedOffer",
      "type": "event"
    },
    {
      "inputs": [],
      "name": "MGV",
      "outputs": [
        {
          "internalType": "contract IMangrove",
          "name": "",
          "type": "address"
        }
      ],
      "stateMutability": "view",
      "type": "function"
    },
    {
      "inputs": [],
      "name": "OFR_GASREQ",
      "outputs": [
        {
          "internalType": "uint256",
          "name": "",
          "type": "uint256"
        }
      ],
      "stateMutability": "view",
      "type": "function"
    },
    {
      "inputs": [],
      "name": "OUTOFLIQUIDITY",
      "outputs": [
        {
          "internalType": "bytes32",
          "name": "",
          "type": "bytes32"
        }
      ],
      "stateMutability": "view",
      "type": "function"
    },
    {
      "inputs": [],
      "name": "PUTFAILURE",
      "outputs": [
        {
          "internalType": "bytes32",
          "name": "",
          "type": "bytes32"
        }
      ],
      "stateMutability": "view",
      "type": "function"
    },
    {
      "inputs": [],
      "name": "RENEGED",
      "outputs": [
        {
          "internalType": "bytes32",
          "name": "",
          "type": "bytes32"
        }
      ],
      "stateMutability": "view",
      "type": "function"
    },
    {
      "inputs": [],
      "name": "admin",
      "outputs": [
        {
          "internalType": "address",
          "name": "",
          "type": "address"
        }
      ],
      "stateMutability": "view",
      "type": "function"
    },
    {
      "inputs": [
        {
          "internalType": "address",
          "name": "outbound_tkn",
          "type": "address"
        },
        {
          "internalType": "uint256",
          "name": "amount",
          "type": "uint256"
        }
      ],
      "name": "approveMangrove",
      "outputs": [],
      "stateMutability": "nonpayable",
      "type": "function"
    },
    {
      "inputs": [],
      "name": "balanceOnMangrove",
      "outputs": [
        {
          "internalType": "uint256",
          "name": "",
          "type": "uint256"
        }
      ],
      "stateMutability": "view",
      "type": "function"
    },
    {
      "inputs": [
        {
          "internalType": "address",
          "name": "token",
          "type": "address"
        },
        {
          "internalType": "uint256",
          "name": "amount",
          "type": "uint256"
        }
      ],
      "name": "depositToken",
      "outputs": [
        {
          "internalType": "bool",
          "name": "success",
          "type": "bool"
        }
      ],
      "stateMutability": "nonpayable",
      "type": "function"
    },
    {
      "inputs": [],
      "name": "fundMangrove",
      "outputs": [],
      "stateMutability": "payable",
      "type": "function"
    },
    {
      "inputs": [
        {
          "internalType": "address",
          "name": "outbound_tkn",
          "type": "address"
        },
        {
          "internalType": "address",
          "name": "inbound_tkn",
          "type": "address"
        },
        {
          "internalType": "uint256",
          "name": "gasreq",
          "type": "uint256"
        },
        {
          "internalType": "uint256",
          "name": "gasprice",
          "type": "uint256"
        },
        {
          "internalType": "uint256",
          "name": "offerId",
          "type": "uint256"
        }
      ],
      "name": "getMissingProvision",
      "outputs": [
        {
          "internalType": "uint256",
          "name": "",
          "type": "uint256"
        }
      ],
      "stateMutability": "view",
      "type": "function"
    },
    {
      "inputs": [
        {
          "components": [
            {
              "internalType": "address",
              "name": "outbound_tkn",
              "type": "address"
            },
            {
              "internalType": "address",
              "name": "inbound_tkn",
              "type": "address"
            },
            {
              "internalType": "uint256",
              "name": "offerId",
              "type": "uint256"
            },
            {
              "internalType": "Offer.t",
              "name": "offer",
              "type": "uint256"
            },
            {
              "internalType": "uint256",
              "name": "wants",
              "type": "uint256"
            },
            {
              "internalType": "uint256",
              "name": "gives",
              "type": "uint256"
            },
            {
              "internalType": "OfferDetail.t",
              "name": "offerDetail",
              "type": "uint256"
            },
            {
              "internalType": "Global.t",
              "name": "global",
              "type": "uint256"
            },
            {
              "internalType": "Local.t",
              "name": "local",
              "type": "uint256"
            }
          ],
          "internalType": "struct MgvLib.SingleOrder",
          "name": "order",
          "type": "tuple"
        }
      ],
      "name": "makerExecute",
      "outputs": [
        {
          "internalType": "bytes32",
          "name": "ret",
          "type": "bytes32"
        }
      ],
      "stateMutability": "nonpayable",
      "type": "function"
    },
    {
      "inputs": [
        {
          "components": [
            {
              "internalType": "address",
              "name": "outbound_tkn",
              "type": "address"
            },
            {
              "internalType": "address",
              "name": "inbound_tkn",
              "type": "address"
            },
            {
              "internalType": "uint256",
              "name": "offerId",
              "type": "uint256"
            },
            {
              "internalType": "Offer.t",
              "name": "offer",
              "type": "uint256"
            },
            {
              "internalType": "uint256",
              "name": "wants",
              "type": "uint256"
            },
            {
              "internalType": "uint256",
              "name": "gives",
              "type": "uint256"
            },
            {
              "internalType": "OfferDetail.t",
              "name": "offerDetail",
              "type": "uint256"
            },
            {
              "internalType": "Global.t",
              "name": "global",
              "type": "uint256"
            },
            {
              "internalType": "Local.t",
              "name": "local",
              "type": "uint256"
            }
          ],
          "internalType": "struct MgvLib.SingleOrder",
          "name": "order",
          "type": "tuple"
        },
        {
          "components": [
            {
              "internalType": "bytes32",
              "name": "makerData",
              "type": "bytes32"
            },
            {
              "internalType": "bytes32",
              "name": "mgvData",
              "type": "bytes32"
            }
          ],
          "internalType": "struct MgvLib.OrderResult",
          "name": "result",
          "type": "tuple"
        }
      ],
      "name": "makerPosthook",
      "outputs": [],
      "stateMutability": "nonpayable",
      "type": "function"
    },
    {
      "inputs": [
        {
          "internalType": "address",
          "name": "",
          "type": "address"
        }
      ],
      "name": "mgvBalance",
      "outputs": [
        {
          "internalType": "uint256",
          "name": "",
          "type": "uint256"
        }
      ],
      "stateMutability": "view",
      "type": "function"
    },
    {
      "inputs": [
        {
          "internalType": "address",
          "name": "outbound_tkn",
          "type": "address"
        },
        {
          "internalType": "address",
          "name": "inbound_tkn",
          "type": "address"
        },
        {
          "internalType": "uint256",
          "name": "wants",
          "type": "uint256"
        },
        {
          "internalType": "uint256",
          "name": "gives",
          "type": "uint256"
        },
        {
          "internalType": "uint256",
          "name": "gasreq",
          "type": "uint256"
        },
        {
          "internalType": "uint256",
          "name": "gasprice",
          "type": "uint256"
        },
        {
          "internalType": "uint256",
          "name": "pivotId",
          "type": "uint256"
        }
      ],
      "name": "newOffer",
      "outputs": [
        {
          "internalType": "uint256",
          "name": "offerId",
          "type": "uint256"
        }
      ],
      "stateMutability": "payable",
      "type": "function"
    },
    {
      "inputs": [
        {
          "internalType": "address",
          "name": "reader",
          "type": "address"
        },
        {
          "internalType": "address",
          "name": "outbound_tkn",
          "type": "address"
        },
        {
          "internalType": "address",
          "name": "inbound_tkn",
          "type": "address"
        },
        {
          "internalType": "uint256",
          "name": "fromId",
          "type": "uint256"
        },
        {
          "internalType": "uint256",
          "name": "maxOffers",
          "type": "uint256"
        }
      ],
      "name": "offerOwners",
      "outputs": [
        {
          "internalType": "uint256",
          "name": "nextId",
          "type": "uint256"
        },
        {
          "internalType": "uint256[]",
          "name": "offerIds",
          "type": "uint256[]"
        },
        {
          "internalType": "address[]",
          "name": "__offerOwners",
          "type": "address[]"
        }
      ],
      "stateMutability": "view",
      "type": "function"
    },
    {
      "inputs": [
        {
          "internalType": "address",
          "name": "outbound_tkn",
          "type": "address"
        },
        {
          "internalType": "address",
          "name": "inbound_tkn",
          "type": "address"
        },
        {
          "internalType": "uint256",
          "name": "offerId",
          "type": "uint256"
        }
      ],
      "name": "ownerOf",
      "outputs": [
        {
          "internalType": "address",
          "name": "owner",
          "type": "address"
        }
      ],
      "stateMutability": "view",
      "type": "function"
    },
    {
      "inputs": [
        {
          "internalType": "address",
          "name": "token",
          "type": "address"
        },
        {
          "internalType": "address",
          "name": "receiver",
          "type": "address"
        },
        {
          "internalType": "uint256",
          "name": "amount",
          "type": "uint256"
        }
      ],
      "name": "redeemToken",
      "outputs": [
        {
          "internalType": "bool",
          "name": "success",
          "type": "bool"
        }
      ],
      "stateMutability": "nonpayable",
      "type": "function"
    },
    {
      "inputs": [
        {
          "internalType": "address",
          "name": "outbound_tkn",
          "type": "address"
        },
        {
          "internalType": "address",
          "name": "inbound_tkn",
          "type": "address"
        },
        {
          "internalType": "uint256",
          "name": "offerId",
          "type": "uint256"
        },
        {
          "internalType": "bool",
          "name": "deprovision",
          "type": "bool"
        }
      ],
      "name": "retractOffer",
      "outputs": [
        {
          "internalType": "uint256",
          "name": "received",
          "type": "uint256"
        }
      ],
      "stateMutability": "nonpayable",
      "type": "function"
    },
    {
      "inputs": [
        {
          "internalType": "address",
          "name": "_admin",
          "type": "address"
        }
      ],
      "name": "setAdmin",
      "outputs": [],
      "stateMutability": "nonpayable",
      "type": "function"
    },
    {
      "inputs": [
        {
          "internalType": "uint256",
          "name": "gasreq",
          "type": "uint256"
        }
      ],
      "name": "setGasreq",
      "outputs": [],
      "stateMutability": "nonpayable",
      "type": "function"
    },
    {
      "inputs": [
        {
          "internalType": "address",
          "name": "token",
          "type": "address"
        }
      ],
      "name": "tokenBalance",
      "outputs": [
        {
          "internalType": "uint256",
          "name": "",
          "type": "uint256"
        }
      ],
      "stateMutability": "view",
      "type": "function"
    },
    {
      "inputs": [
        {
          "internalType": "address",
          "name": "",
          "type": "address"
        },
        {
          "internalType": "address",
          "name": "",
          "type": "address"
        }
      ],
      "name": "tokenBalanceOf",
      "outputs": [
        {
          "internalType": "uint256",
          "name": "",
          "type": "uint256"
        }
      ],
      "stateMutability": "view",
      "type": "function"
    },
    {
      "inputs": [
        {
          "internalType": "address",
          "name": "outbound_tkn",
          "type": "address"
        },
        {
          "internalType": "address",
          "name": "inbound_tkn",
          "type": "address"
        },
        {
          "internalType": "uint256",
          "name": "wants",
          "type": "uint256"
        },
        {
          "internalType": "uint256",
          "name": "gives",
          "type": "uint256"
        },
        {
          "internalType": "uint256",
          "name": "gasreq",
          "type": "uint256"
        },
        {
          "internalType": "uint256",
          "name": "gasprice",
          "type": "uint256"
        },
        {
          "internalType": "uint256",
          "name": "pivotId",
          "type": "uint256"
        },
        {
          "internalType": "uint256",
          "name": "offerId",
          "type": "uint256"
        }
      ],
      "name": "updateOffer",
      "outputs": [],
      "stateMutability": "payable",
      "type": "function"
    },
    {
      "inputs": [
        {
          "internalType": "address payable",
          "name": "receiver",
          "type": "address"
        },
        {
          "internalType": "uint256",
          "name": "amount",
          "type": "uint256"
        }
      ],
      "name": "withdrawFromMangrove",
      "outputs": [
        {
          "internalType": "bool",
          "name": "noRevert",
          "type": "bool"
        }
      ],
      "stateMutability": "nonpayable",
      "type": "function"
    },
    {
      "stateMutability": "payable",
      "type": "receive"
    }
  ],
  "bytecode": "0x6101006040527f6d67764f666665722f61626f72742f72656e65676564000000000000000000006080527f6d67764f666665722f61626f72742f7075744661696c6564000000000000000060a0527f6d67764f666665722f61626f72742f6765744661696c6564000000000000000060c052620186a06001553480156200008557600080fd5b50604051620031a1380380620031a1833981016040819052620000a8916200014c565b8181806001600160a01b038116620001065760405162461bcd60e51b815260206004820152601860248201527f616363657373436f6e74726f6c6c65642f307841646d696e0000000000000000604482015260640160405180910390fd5b600080546001600160a01b0319166001600160a01b039283161790559190911660e052506200018b915050565b6001600160a01b03811681146200014957600080fd5b50565b600080604083850312156200016057600080fd5b82516200016d8162000133565b6020840151909250620001808162000133565b809150509250929050565b60805160a05160c05160e051612f736200022e600039600081816103d9015281816109bf01528181610abc01528181610d3401528181611000015281816110c501528181611612015281816119d501528181611ac301528181611c2c01528181611d360152818161200e015281816120e1015281816121aa015281816122f7015261245501526000610371015260006102ea015260006103a50152612f736000f3fe60806040526004361061019a5760003560e01c80637f7a1b99116100e1578063df2426671161008a578063eedc966a11610064578063eedc966a146104f2578063f851a44014610540578063f92495e51461056d578063faa030ec1461058d57600080fd5b8063df2426671461048f578063e428204d146104bc578063e4c34f84146104d257600080fd5b8063ad97db1b116100bb578063ad97db1b14610420578063aefe840314610440578063d19711591461046057600080fd5b80637f7a1b991461035f57806389dbacfe1461039357806399fa5e2d146103c757600080fd5b8063458eda9a116101435780636a4f76911161011d5780636a4f76911461030c5780636c49c32c1461031f578063704b6c021461033f57600080fd5b8063458eda9a146102a357806349f6d2dc146102c5578063572e59e3146102d857600080fd5b8063338b5dea11610174578063338b5dea1461024157806334bd8931146102615780633d3d130d1461028357600080fd5b8063063df2d2146101a65780630d71bdc3146101db5780631bea8006146101fb57600080fd5b366101a157005b600080fd5b3480156101b257600080fd5b506101c66101c13660046125b9565b610595565b60405190151581526020015b60405180910390f35b3480156101e757600080fd5b506101c66101f63660046125e5565b610623565b34801561020757600080fd5b50610233610216366004612626565b600460209081526000928352604080842090915290825290205481565b6040519081526020016101d2565b34801561024d57600080fd5b506101c661025c3660046125b9565b61073b565b34801561026d57600080fd5b5061028161027c36600461265f565b610986565b005b34801561028f57600080fd5b5061028161029e36600461268b565b610aba565b3480156102af57600080fd5b5033600090815260036020526040902054610233565b6102336102d33660046126eb565b610c44565b3480156102e457600080fd5b506102337f000000000000000000000000000000000000000000000000000000000000000081565b61028161031a36600461274d565b610ccd565b34801561032b57600080fd5b5061023361033a3660046127b8565b610d30565b34801561034b57600080fd5b5061028161035a3660046127d5565b610ee7565b34801561036b57600080fd5b506102337f000000000000000000000000000000000000000000000000000000000000000081565b34801561039f57600080fd5b506102337f000000000000000000000000000000000000000000000000000000000000000081565b3480156103d357600080fd5b506103fb7f000000000000000000000000000000000000000000000000000000000000000081565b60405173ffffffffffffffffffffffffffffffffffffffff90911681526020016101d2565b34801561042c57600080fd5b5061023361043b366004612800565b610faf565b34801561044c57600080fd5b5061028161045b3660046125b9565b610fc7565b34801561046c57600080fd5b5061048061047b366004612853565b6111ab565b6040516101d2939291906128ae565b34801561049b57600080fd5b506102336104aa3660046127d5565b60036020526000908152604090205481565b3480156104c857600080fd5b5061023360015481565b3480156104de57600080fd5b506102336104ed36600461294a565b61134e565b3480156104fe57600080fd5b5061023361050d3660046127d5565b73ffffffffffffffffffffffffffffffffffffffff16600090815260046020908152604080832033845290915290205490565b34801561054c57600080fd5b506000546103fb9073ffffffffffffffffffffffffffffffffffffffff1681565b34801561057957600080fd5b506103fb6105883660046125e5565b6113a6565b610281611451565b600033301415610606576040517f08c379a000000000000000000000000000000000000000000000000000000000815260206004820152601260248201527f4d75746c692f6e6f5265656e7472616e6379000000000000000000000000000060448201526064015b60405180910390fd5b61061033836114c7565b61061a83836115e0565b90505b92915050565b60003330141561068f576040517f08c379a000000000000000000000000000000000000000000000000000000000815260206004820152601260248201527f4d75746c692f6e6f5265656e7472616e6379000000000000000000000000000060448201526064016105fd565b61069a843384611786565b6040517fa9059cbb00000000000000000000000000000000000000000000000000000000815273ffffffffffffffffffffffffffffffffffffffff84811660048301526024820184905285169063a9059cbb906044016020604051808303816000875af115801561070f573d6000803e3d6000fd5b505050506040513d601f19601f82011682018060405250810190610733919061299b565b949350505050565b6040517f70a08231000000000000000000000000000000000000000000000000000000008152306004820152600090819073ffffffffffffffffffffffffffffffffffffffff8516906370a0823190602401602060405180830381865afa1580156107aa573d6000803e3d6000fd5b505050506040513d601f19601f820116820180604052508101906107ce91906129b8565b6040517f23b872dd0000000000000000000000000000000000000000000000000000000081523360048201523060248201526044810185905290915073ffffffffffffffffffffffffffffffffffffffff8516906323b872dd906064016020604051808303816000875af115801561084a573d6000803e3d6000fd5b505050506040513d601f19601f8201168201806040525081019061086e919061299b565b6040517f70a082310000000000000000000000000000000000000000000000000000000081523060048201529092508390829073ffffffffffffffffffffffffffffffffffffffff8716906370a0823190602401602060405180830381865afa1580156108df573d6000803e3d6000fd5b505050506040513d601f19601f8201168201806040525081019061090391906129b8565b61090d9190612a00565b14610974576040517f08c379a000000000000000000000000000000000000000000000000000000000815260206004820152601260248201527f4d756c74692f7472616e736665724661696c000000000000000000000000000060448201526064016105fd565b61097f8433856118e3565b5092915050565b60005473ffffffffffffffffffffffffffffffffffffffff163314806109e157503373ffffffffffffffffffffffffffffffffffffffff7f000000000000000000000000000000000000000000000000000000000000000016145b610a47576040517f08c379a000000000000000000000000000000000000000000000000000000000815260206004820152601860248201527f416363657373436f6e74726f6c6c65642f496e76616c6964000000000000000060448201526064016105fd565b808162ffffff1614610ab5576040517f08c379a000000000000000000000000000000000000000000000000000000000815260206004820152601860248201527f6d67764f666665722f6761737265712f6f766572666c6f77000000000000000060448201526064016105fd565b600155565b7f000000000000000000000000000000000000000000000000000000000000000073ffffffffffffffffffffffffffffffffffffffff81161580610b1357503373ffffffffffffffffffffffffffffffffffffffff8216145b610b79576040517f08c379a000000000000000000000000000000000000000000000000000000000815260206004820152601860248201527f416363657373436f6e74726f6c6c65642f496e76616c6964000000000000000060448201526064016105fd565b81602001357f6d67762f747261646553756363657373000000000000000000000000000000001415610bae5760015b50505050565b60408301803590610bc290602086016127d5565b73ffffffffffffffffffffffffffffffffffffffff16610be560208601866127d5565b73ffffffffffffffffffffffffffffffffffffffff167fd2c3f090769d843e1fc2e6ce65d60572e28f9163a5cfccbd6c1725c6a9263f2f8560000135604051610c3091815260200190565b60405180910390a46001610ba8565b505050565b600033301415610cb0576040517f08c379a000000000000000000000000000000000000000000000000000000000815260206004820152601260248201527f4d75746c692f6e6f5265656e7472616e6379000000000000000000000000000060448201526064016105fd565b610cc188888888888888333461198d565b98975050505050505050565b600080610ce28a8a8a8a8a8a8a8a3334611b58565b91509150600082118190610d23576040517f08c379a00000000000000000000000000000000000000000000000000000000081526004016105fd9190612a17565b5050505050505050505050565b60007f000000000000000000000000000000000000000000000000000000000000000073ffffffffffffffffffffffffffffffffffffffff81161580610d8b57503373ffffffffffffffffffffffffffffffffffffffff8216145b610df1576040517f08c379a000000000000000000000000000000000000000000000000000000000815260206004820152601860248201527f416363657373436f6e74726f6c6c65642f496e76616c6964000000000000000060448201526064016105fd565b6000610e018460a0013585611e01565b1115610e69576040517f08c379a000000000000000000000000000000000000000000000000000000000815260206004820152601860248201527f6d67764f666665722f61626f72742f7075744661696c6564000000000000000060448201526064016105fd565b6000610e79846080013585611e54565b1115610ee1576040517f08c379a000000000000000000000000000000000000000000000000000000000815260206004820152601860248201527f6d67764f666665722f61626f72742f6765744661696c6564000000000000000060448201526064016105fd565b50919050565b60005473ffffffffffffffffffffffffffffffffffffffff163314610f68576040517f08c379a000000000000000000000000000000000000000000000000000000000815260206004820152601860248201527f416363657373436f6e74726f6c6c65642f496e76616c6964000000000000000060448201526064016105fd565b600080547fffffffffffffffffffffffff00000000000000000000000000000000000000001673ffffffffffffffffffffffffffffffffffffffff92909216919091179055565b6000610fbe8585858533611f08565b95945050505050565b60005473ffffffffffffffffffffffffffffffffffffffff1633148061102257503373ffffffffffffffffffffffffffffffffffffffff7f000000000000000000000000000000000000000000000000000000000000000016145b611088576040517f08c379a000000000000000000000000000000000000000000000000000000000815260206004820152601860248201527f416363657373436f6e74726f6c6c65642f496e76616c6964000000000000000060448201526064016105fd565b6040517f095ea7b300000000000000000000000000000000000000000000000000000000815273ffffffffffffffffffffffffffffffffffffffff7f0000000000000000000000000000000000000000000000000000000000000000811660048301526024820183905283169063095ea7b3906044016020604051808303816000875af115801561111d573d6000803e3d6000fd5b505050506040513d601f19601f82011682018060405250810190611141919061299b565b6111a7576040517f08c379a000000000000000000000000000000000000000000000000000000000815260206004820152601560248201527f6d67764f666665722f617070726f76652f4661696c000000000000000000000060448201526064016105fd565b5050565b6040517f2c7e545f00000000000000000000000000000000000000000000000000000000815273ffffffffffffffffffffffffffffffffffffffff858116600483015284811660248301526044820184905260648201839052600091606091829190891690632c7e545f90608401600060405180830381865afa158015611236573d6000803e3d6000fd5b505050506040513d6000823e601f3d9081017fffffffffffffffffffffffffffffffffffffffffffffffffffffffffffffffe016820160405261127c9190810190612ca3565b50508051919450925067ffffffffffffffff81111561129d5761129d612a8a565b6040519080825280602002602001820160405280156112c6578160200160208202803683370190505b50905060005b8251811015611342576112f988888584815181106112ec576112ec612d98565b60200260200101516113a6565b82828151811061130b5761130b612d98565b73ffffffffffffffffffffffffffffffffffffffff909216602092830291909101909101528061133a81612dc7565b9150506112cc565b50955095509592505050565b600080821561138d5760006113648888866113a6565b73ffffffffffffffffffffffffffffffffffffffff166000908152600360205260409020549150505b61139b81888888888861208d565b979650505050505050565b73ffffffffffffffffffffffffffffffffffffffff808416600090815260026020908152604080832086851684528252808320858452909152902054168061144a576040517f08c379a000000000000000000000000000000000000000000000000000000000815260206004820152601560248201527f6d756c7469557365722f756e6b6f776e4f66666572000000000000000000000060448201526064016105fd565b9392505050565b333014156114bb576040517f08c379a000000000000000000000000000000000000000000000000000000000815260206004820152601260248201527f4d75746c692f6e6f5265656e7472616e6379000000000000000000000000000060448201526064016105fd565b6114c533346122f5565b565b73ffffffffffffffffffffffffffffffffffffffff8216600090815260036020526040902054811115611556576040517f08c379a000000000000000000000000000000000000000000000000000000000815260206004820152601d60248201527f4d756c74692f64656269744f6e4d67762f696e73756666696369656e7400000060448201526064016105fd565b73ffffffffffffffffffffffffffffffffffffffff82166000908152600360205260408120805483929061158b908490612a00565b909155505060405181815273ffffffffffffffffffffffffffffffffffffffff8316907fd50b865b3d9d927f026d3b8404e07f25d6beb1d111deab51bdc846bf8d0a860b906020015b60405180910390a25050565b6040517f2e1a7d4d000000000000000000000000000000000000000000000000000000008152600481018290526000907f000000000000000000000000000000000000000000000000000000000000000073ffffffffffffffffffffffffffffffffffffffff1690632e1a7d4d906024016020604051808303816000875af1158015611670573d6000803e3d6000fd5b505050506040513d601f19601f82011682018060405250810190611694919061299b565b6116fa576040517f08c379a000000000000000000000000000000000000000000000000000000000815260206004820152601e60248201527f6d67764f666665722f77697468647261772f7472616e736665724661696c000060448201526064016105fd565b73ffffffffffffffffffffffffffffffffffffffff8316301461177d5760405173ffffffffffffffffffffffffffffffffffffffff8416908390600081818185875af1925050503d806000811461176d576040519150601f19603f3d011682016040523d82523d6000602084013e611772565b606091505b50508091505061061d565b50600192915050565b8061179057505050565b73ffffffffffffffffffffffffffffffffffffffff80841660009081526004602090815260408083209386168352929052205481111561182c576040517f08c379a000000000000000000000000000000000000000000000000000000000815260206004820152601d60248201527f4d756c74692f6465626974546f6b656e2f696e73756666696369656e7400000060448201526064016105fd565b73ffffffffffffffffffffffffffffffffffffffff808416600090815260046020908152604080832093861683529290529081208054839290611870908490612a00565b925050819055508273ffffffffffffffffffffffffffffffffffffffff168273ffffffffffffffffffffffffffffffffffffffff167f7a97b405ee1bd89550b225932dbdd0431e30426b7c8f02f05b3cb0e1bdfb8476836040516118d691815260200190565b60405180910390a3505050565b73ffffffffffffffffffffffffffffffffffffffff808416600090815260046020908152604080832093861683529290529081208054839290611927908490612e00565b925050819055508273ffffffffffffffffffffffffffffffffffffffff168273ffffffffffffffffffffffffffffffffffffffff167fb2b1ec266d1bab793ae1d020eedf03e575cc390e5fb9e370cb099fdf2f61534d836040516118d691815260200190565b6040517f70a08231000000000000000000000000000000000000000000000000000000008152306004820152600090819073ffffffffffffffffffffffffffffffffffffffff7f000000000000000000000000000000000000000000000000000000000000000016906370a0823190602401602060405180830381865afa158015611a1c573d6000803e3d6000fd5b505050506040513d601f19601f82011682018060405250810190611a4091906129b8565b905062ffffff871115611a535760015496505b6040517f49f6d2dc00000000000000000000000000000000000000000000000000000000815273ffffffffffffffffffffffffffffffffffffffff8c811660048301528b81166024830152604482018b9052606482018a90526084820189905260a4820188905260c482018790527f000000000000000000000000000000000000000000000000000000000000000016906349f6d2dc90859060e40160206040518083038185885af1158015611b0d573d6000803e3d6000fd5b50505050506040513d601f19601f82011682018060405250810190611b3291906129b8565b9150611b408b8b8487612380565b611b4a8482612424565b509998505050505050505050565b60006060611b678c8c876113a6565b73ffffffffffffffffffffffffffffffffffffffff168473ffffffffffffffffffffffffffffffffffffffff1614611bfb576040517f08c379a000000000000000000000000000000000000000000000000000000000815260206004820152601e60248201527f4d756c74692f7570646174654f666665722f756e617574686f72697a6564000060448201526064016105fd565b6040517f70a082310000000000000000000000000000000000000000000000000000000081523060048201526000907f000000000000000000000000000000000000000000000000000000000000000073ffffffffffffffffffffffffffffffffffffffff16906370a0823190602401602060405180830381865afa158015611c88573d6000803e3d6000fd5b505050506040513d601f19601f82011682018060405250810190611cac91906129b8565b905062ffffff891115611cbf5760015498505b6040517f6a4f769100000000000000000000000000000000000000000000000000000000815273ffffffffffffffffffffffffffffffffffffffff8e811660048301528d81166024830152604482018d9052606482018c9052608482018b905260a482018a905260c4820189905260e482018890527f00000000000000000000000000000000000000000000000000000000000000001690636a4f7691908690610104016000604051808303818588803b158015611d7c57600080fd5b505af193505050508015611d8e575060015b611dd357611d9a612e18565b806308c379a01415611dc75750611daf612e34565b80611dba5750611dc9565b600093509150611df29050565b505b3d6000803e3d6000fd5b611ddd8582612424565b50506040805160208101909152600081528491505b9a509a98505050505050505050565b600080611e2e611e1460208501856127d5565b611e2460408601602087016127d5565b85604001356113a6565b9050611e4a611e4360408501602086016127d5565b82866118e3565b5060009392505050565b600080611e67611e1460208501856127d5565b90506000600481611e7b60208701876127d5565b73ffffffffffffffffffffffffffffffffffffffff90811682526020808301939093526040918201600090812091861681529252902054905084811015611ee657611ed3611ecc60208601866127d5565b8383611786565b611edd8186612a00565b9250505061061d565b611efd611ef660208601866127d5565b8387611786565b60009250505061061d565b73ffffffffffffffffffffffffffffffffffffffff8581166000908152600260209081526040808320888516845282528083208784529091528120549091838116911614611fb2576040517f08c379a000000000000000000000000000000000000000000000000000000000815260206004820152601f60248201527f4d756c74692f726574726163744f666665722f756e617574686f72697a65640060448201526064016105fd565b6040517fad97db1b00000000000000000000000000000000000000000000000000000000815273ffffffffffffffffffffffffffffffffffffffff878116600483015286811660248301526044820186905284151560648301527f0000000000000000000000000000000000000000000000000000000000000000169063ad97db1b906084016020604051808303816000875af1158015612057573d6000803e3d6000fd5b505050506040513d601f19601f8201168201806040525081019061207b91906129b8565b90508015610fbe57610fbe8282612512565b6040517fcbf75c9a00000000000000000000000000000000000000000000000000000000815273ffffffffffffffffffffffffffffffffffffffff86811660048301528581166024830152600091829182917f00000000000000000000000000000000000000000000000000000000000000009091169063cbf75c9a906044016040805180830381865afa158015612129573d6000803e3d6000fd5b505050506040513d601f19601f8201168201806040525081019061214d9190612edc565b6040517f5722647b00000000000000000000000000000000000000000000000000000000815273ffffffffffffffffffffffffffffffffffffffff8b811660048301528a81166024830152604482018890529294509092506000917f00000000000000000000000000000000000000000000000000000000000000001690635722647b90606401602060405180830381865afa1580156121f1573d6000803e3d6000fd5b505050506040513d601f19601f8201168201806040525081019061221591906129b8565b9050600086604085901c61ffff161115612238575061ffff604084901c1661223b565b50855b62ffffff88111561224c5760015497505b60008161226262ffffff606087901c168b612e00565b61226c9190612f00565b61227a90633b9aca00612f00565b9050600061ffff602085901c166122a162ffffff603087901c811690604888901c16612e00565b6122ab9190612f00565b6122b990633b9aca00612f00565b905060006122c78e83612e00565b9050828110156122e0576122db8184612a00565b6122e3565b60005b9e9d5050505050505050505050505050565b7f000000000000000000000000000000000000000000000000000000000000000073ffffffffffffffffffffffffffffffffffffffff1663b60d4288826040518263ffffffff1660e01b81526004016000604051808303818588803b15801561235d57600080fd5b505af1158015612371573d6000803e3d6000fd5b50505050506111a78282612512565b73ffffffffffffffffffffffffffffffffffffffff848116600081815260026020908152604080832088861680855290835281842088855283529281902080547fffffffffffffffffffffffff00000000000000000000000000000000000000001695871695861790555193845285939192917fabf04a4ce23225c02bd147297da7ffc10e7d29102d8678f1a63fdd2cfd71ff07910160405180910390a450505050565b6040517f70a082310000000000000000000000000000000000000000000000000000000081523060048201526000907f000000000000000000000000000000000000000000000000000000000000000073ffffffffffffffffffffffffffffffffffffffff16906370a0823190602401602060405180830381865afa1580156124b1573d6000803e3d6000fd5b505050506040513d601f19601f820116820180604052508101906124d591906129b8565b9050818114156124e457505050565b818111156124ff57610c3f836124fa8484612a00565b612512565b610c3f8361250d8385612a00565b6114c7565b73ffffffffffffffffffffffffffffffffffffffff821660009081526003602052604081208054839290612547908490612e00565b909155505060405181815273ffffffffffffffffffffffffffffffffffffffff8316907f2022607feefe24f258126b277628af517f5512dd9499fb3520eeff54cad13703906020016115d4565b73ffffffffffffffffffffffffffffffffffffffff811681146125b657600080fd5b50565b600080604083850312156125cc57600080fd5b82356125d781612594565b946020939093013593505050565b6000806000606084860312156125fa57600080fd5b833561260581612594565b9250602084013561261581612594565b929592945050506040919091013590565b6000806040838503121561263957600080fd5b823561264481612594565b9150602083013561265481612594565b809150509250929050565b60006020828403121561267157600080fd5b5035919050565b60006101208284031215610ee157600080fd5b6000808284036101608112156126a057600080fd5b6126aa8585612678565b925060407ffffffffffffffffffffffffffffffffffffffffffffffffffffffffffffffee0820112156126dc57600080fd5b50610120830190509250929050565b600080600080600080600060e0888a03121561270657600080fd5b873561271181612594565b9650602088013561272181612594565b96999698505050506040850135946060810135946080820135945060a0820135935060c0909101359150565b600080600080600080600080610100898b03121561276a57600080fd5b883561277581612594565b9750602089013561278581612594565b979a9799505050506040860135956060810135956080820135955060a0820135945060c0820135935060e0909101359150565b600061012082840312156127cb57600080fd5b61061a8383612678565b6000602082840312156127e757600080fd5b813561144a81612594565b80151581146125b657600080fd5b6000806000806080858703121561281657600080fd5b843561282181612594565b9350602085013561283181612594565b9250604085013591506060850135612848816127f2565b939692955090935050565b600080600080600060a0868803121561286b57600080fd5b853561287681612594565b9450602086013561288681612594565b9350604086013561289681612594565b94979396509394606081013594506080013592915050565b6000606082018583526020606081850152818651808452608086019150828801935060005b818110156128ef578451835293830193918301916001016128d3565b50508481036040860152855180825290820192508186019060005b8181101561293c57825173ffffffffffffffffffffffffffffffffffffffff168552938301939183019160010161290a565b509298975050505050505050565b600080600080600060a0868803121561296257600080fd5b853561296d81612594565b9450602086013561297d81612594565b94979496505050506040830135926060810135926080909101359150565b6000602082840312156129ad57600080fd5b815161144a816127f2565b6000602082840312156129ca57600080fd5b5051919050565b7f4e487b7100000000000000000000000000000000000000000000000000000000600052601160045260246000fd5b600082821015612a1257612a126129d1565b500390565b600060208083528351808285015260005b81811015612a4457858101830151858201604001528201612a28565b81811115612a56576000604083870101525b50601f017fffffffffffffffffffffffffffffffffffffffffffffffffffffffffffffffe016929092016040019392505050565b7f4e487b7100000000000000000000000000000000000000000000000000000000600052604160045260246000fd5b6080810181811067ffffffffffffffff82111715612ad957612ad9612a8a565b60405250565b7fffffffffffffffffffffffffffffffffffffffffffffffffffffffffffffffe0601f830116810181811067ffffffffffffffff82111715612b2357612b23612a8a565b6040525050565b600067ffffffffffffffff821115612b4457612b44612a8a565b5060051b60200190565b600082601f830112612b5f57600080fd5b81516020612b6c82612b2a565b60408051612b7a8382612adf565b84815260079490941b8601830193838101925087851115612b9a57600080fd5b8387015b85811015612bee576080818a031215612bb75760008081fd5b8251612bc281612ab9565b815181528582015186820152838201518482015260608083015190820152845292840192608001612b9e565b50979650505050505050565b600082601f830112612c0b57600080fd5b81516020612c1882612b2a565b60408051612c268382612adf565b84815260079490941b8601830193838101925087851115612c4657600080fd5b8387015b85811015612bee576080818a031215612c635760008081fd5b8251612c6e81612ab9565b8151612c7981612594565b81528186015186820152838201518482015260608083015190820152845292840192608001612c4a565b60008060008060808587031215612cb957600080fd5b8451935060208086015167ffffffffffffffff80821115612cd957600080fd5b818801915088601f830112612ced57600080fd5b8151612cf881612b2a565b604051612d058282612adf565b82815260059290921b840185019185810191508b831115612d2557600080fd5b938501935b82851015612d4357845182529385019390850190612d2a565b60408b01519098509450505080831115612d5c57600080fd5b612d6889848a01612b4e565b94506060880151925080831115612d7e57600080fd5b5050612d8c87828801612bfa565b91505092959194509250565b7f4e487b7100000000000000000000000000000000000000000000000000000000600052603260045260246000fd5b60007fffffffffffffffffffffffffffffffffffffffffffffffffffffffffffffffff821415612df957612df96129d1565b5060010190565b60008219821115612e1357612e136129d1565b500190565b600060033d1115612e315760046000803e5060005160e01c5b90565b600060443d1015612e425790565b6040517ffffffffffffffffffffffffffffffffffffffffffffffffffffffffffffffffc803d016004833e81513d67ffffffffffffffff8160248401118184111715612e9057505050505090565b8285019150815181811115612ea85750505050505090565b843d8701016020828501011115612ec25750505050505090565b612ed160208286010187612adf565b509095945050505050565b60008060408385031215612eef57600080fd5b505080516020909101519092909150565b6000817fffffffffffffffffffffffffffffffffffffffffffffffffffffffffffffffff0483118215151615612f3857612f386129d1565b50029056fea2646970667358221220b2484b5430999a781ab90d61b2384e2d9f9b8d422da648ff43292073373f5cbb64736f6c634300080a0033",
  "linkReferences": {},
  "deployedLinkReferences": {}
}