{
  "_format": "hh-sol-artifact-1",
  "contractName": "MultiMaker",
  "sourceName": "contracts/Strategies/OfferLogics/MultiUsers/Deployable/MultiMaker.sol",
  "abi": [
    {
      "inputs": [
        {
          "internalType": "address payable",
          "name": "_MGV",
          "type": "address"
        }
      ],
      "stateMutability": "nonpayable",
      "type": "constructor"
    },
    {
      "anonymous": false,
      "inputs": [
        {
          "indexed": true,
          "internalType": "address",
          "name": "outbound_tkn",
          "type": "address"
        },
        {
          "indexed": true,
          "internalType": "address",
          "name": "inbound_tkn",
          "type": "address"
        },
        {
          "indexed": false,
          "internalType": "uint256",
          "name": "offerId",
          "type": "uint256"
        },
        {
          "indexed": false,
          "internalType": "uint256",
          "name": "missingAmount",
          "type": "uint256"
        }
      ],
      "name": "GetFail",
      "type": "event"
    },
    {
      "anonymous": false,
      "inputs": [
        {
          "indexed": true,
          "internalType": "address",
          "name": "outbound_tkn",
          "type": "address"
        },
        {
          "indexed": true,
          "internalType": "address",
          "name": "inbound_tkn",
          "type": "address"
        },
        {
          "indexed": true,
          "internalType": "uint256",
          "name": "offerId",
          "type": "uint256"
        },
        {
          "indexed": false,
          "internalType": "bytes32",
          "name": "error_data",
          "type": "bytes32"
        }
      ],
      "name": "LogIncident",
      "type": "event"
    },
    {
      "anonymous": false,
      "inputs": [
        {
          "indexed": true,
          "internalType": "address",
          "name": "outbound_tkn",
          "type": "address"
        },
        {
          "indexed": true,
          "internalType": "address",
          "name": "inbound_tkn",
          "type": "address"
        },
        {
          "indexed": true,
          "internalType": "uint256",
          "name": "offerId",
          "type": "uint256"
        },
        {
          "indexed": false,
          "internalType": "address",
          "name": "owner",
          "type": "address"
        }
      ],
      "name": "NewOffer",
      "type": "event"
    },
    {
      "anonymous": false,
      "inputs": [
        {
          "indexed": true,
          "internalType": "address",
          "name": "outbound_tkn",
          "type": "address"
        },
        {
          "indexed": true,
          "internalType": "address",
          "name": "inbound_tkn",
          "type": "address"
        },
        {
          "indexed": false,
          "internalType": "uint256",
          "name": "offerId",
          "type": "uint256"
        },
        {
          "indexed": false,
          "internalType": "string",
          "name": "message",
          "type": "string"
        }
      ],
      "name": "PosthookFail",
      "type": "event"
    },
    {
      "anonymous": false,
      "inputs": [
        {
          "indexed": true,
          "internalType": "address",
          "name": "outbound_tkn",
          "type": "address"
        },
        {
          "indexed": true,
          "internalType": "address",
          "name": "inbound_tkn",
          "type": "address"
        },
        {
          "indexed": false,
          "internalType": "uint256",
          "name": "offerId",
          "type": "uint256"
        },
        {
          "indexed": false,
          "internalType": "uint256",
          "name": "missingAmount",
          "type": "uint256"
        }
      ],
      "name": "PutFail",
      "type": "event"
    },
    {
      "anonymous": false,
      "inputs": [
        {
          "indexed": true,
          "internalType": "address",
          "name": "outbound_tkn",
          "type": "address"
        },
        {
          "indexed": true,
          "internalType": "address",
          "name": "inbound_tkn",
          "type": "address"
        },
        {
          "indexed": false,
          "internalType": "uint256",
          "name": "offerId",
          "type": "uint256"
        }
      ],
      "name": "Reneged",
      "type": "event"
    },
    {
      "inputs": [],
      "name": "MGV",
      "outputs": [
        {
          "internalType": "contract Mangrove",
          "name": "",
          "type": "address"
        }
      ],
      "stateMutability": "view",
      "type": "function"
    },
    {
      "inputs": [],
      "name": "OFR_GASREQ",
      "outputs": [
        {
          "internalType": "uint256",
          "name": "",
          "type": "uint256"
        }
      ],
      "stateMutability": "view",
      "type": "function"
    },
    {
      "inputs": [],
      "name": "admin",
      "outputs": [
        {
          "internalType": "address",
          "name": "",
          "type": "address"
        }
      ],
      "stateMutability": "view",
      "type": "function"
    },
    {
      "inputs": [
        {
          "internalType": "address",
          "name": "outbound_tkn",
          "type": "address"
        },
        {
          "internalType": "uint256",
          "name": "amount",
          "type": "uint256"
        }
      ],
      "name": "approveMangrove",
      "outputs": [],
      "stateMutability": "nonpayable",
      "type": "function"
    },
    {
      "inputs": [],
      "name": "balanceOnMangrove",
      "outputs": [
        {
          "internalType": "uint256",
          "name": "",
          "type": "uint256"
        }
      ],
      "stateMutability": "view",
      "type": "function"
    },
    {
      "inputs": [
        {
          "internalType": "address",
          "name": "token",
          "type": "address"
        },
        {
          "internalType": "uint256",
          "name": "amount",
          "type": "uint256"
        }
      ],
      "name": "depositToken",
      "outputs": [
        {
          "internalType": "bool",
          "name": "success",
          "type": "bool"
        }
      ],
      "stateMutability": "nonpayable",
      "type": "function"
    },
    {
      "inputs": [],
      "name": "fundMangrove",
      "outputs": [],
      "stateMutability": "payable",
      "type": "function"
    },
    {
      "inputs": [
        {
          "internalType": "address",
          "name": "outbound_tkn",
          "type": "address"
        },
        {
          "internalType": "address",
          "name": "inbound_tkn",
          "type": "address"
        },
        {
          "internalType": "uint256",
          "name": "gasreq",
          "type": "uint256"
        },
        {
          "internalType": "uint256",
          "name": "gasprice",
          "type": "uint256"
        },
        {
          "internalType": "uint256",
          "name": "offerId",
          "type": "uint256"
        }
      ],
      "name": "getMissingProvision",
      "outputs": [
        {
          "internalType": "uint256",
          "name": "",
          "type": "uint256"
        }
      ],
      "stateMutability": "view",
      "type": "function"
    },
    {
      "inputs": [
        {
          "internalType": "address",
          "name": "outbound_tkn",
          "type": "address"
        },
        {
          "internalType": "address",
          "name": "inbound_tkn",
          "type": "address"
        },
        {
          "internalType": "uint256",
          "name": "gasreq",
          "type": "uint256"
        }
      ],
      "name": "giveAtDensity",
      "outputs": [
        {
          "internalType": "uint256",
          "name": "",
          "type": "uint256"
        }
      ],
      "stateMutability": "view",
      "type": "function"
    },
    {
      "inputs": [
        {
          "components": [
            {
              "internalType": "address",
              "name": "outbound_tkn",
              "type": "address"
            },
            {
              "internalType": "address",
              "name": "inbound_tkn",
              "type": "address"
            },
            {
              "internalType": "uint256",
              "name": "offerId",
              "type": "uint256"
            },
            {
              "internalType": "Offer.t",
              "name": "offer",
              "type": "uint256"
            },
            {
              "internalType": "uint256",
              "name": "wants",
              "type": "uint256"
            },
            {
              "internalType": "uint256",
              "name": "gives",
              "type": "uint256"
            },
            {
              "internalType": "OfferDetail.t",
              "name": "offerDetail",
              "type": "uint256"
            },
            {
              "internalType": "Global.t",
              "name": "global",
              "type": "uint256"
            },
            {
              "internalType": "Local.t",
              "name": "local",
              "type": "uint256"
            }
          ],
          "internalType": "struct MgvLib.SingleOrder",
          "name": "order",
          "type": "tuple"
        }
      ],
      "name": "makerExecute",
      "outputs": [
        {
          "internalType": "bytes32",
          "name": "ret",
          "type": "bytes32"
        }
      ],
      "stateMutability": "nonpayable",
      "type": "function"
    },
    {
      "inputs": [
        {
          "components": [
            {
              "internalType": "address",
              "name": "outbound_tkn",
              "type": "address"
            },
            {
              "internalType": "address",
              "name": "inbound_tkn",
              "type": "address"
            },
            {
              "internalType": "uint256",
              "name": "offerId",
              "type": "uint256"
            },
            {
              "internalType": "Offer.t",
              "name": "offer",
              "type": "uint256"
            },
            {
              "internalType": "uint256",
              "name": "wants",
              "type": "uint256"
            },
            {
              "internalType": "uint256",
              "name": "gives",
              "type": "uint256"
            },
            {
              "internalType": "OfferDetail.t",
              "name": "offerDetail",
              "type": "uint256"
            },
            {
              "internalType": "Global.t",
              "name": "global",
              "type": "uint256"
            },
            {
              "internalType": "Local.t",
              "name": "local",
              "type": "uint256"
            }
          ],
          "internalType": "struct MgvLib.SingleOrder",
          "name": "order",
          "type": "tuple"
        },
        {
          "components": [
            {
              "internalType": "bytes32",
              "name": "makerData",
              "type": "bytes32"
            },
            {
              "internalType": "bytes32",
              "name": "mgvData",
              "type": "bytes32"
            }
          ],
          "internalType": "struct MgvLib.OrderResult",
          "name": "result",
          "type": "tuple"
        }
      ],
      "name": "makerPosthook",
      "outputs": [],
      "stateMutability": "nonpayable",
      "type": "function"
    },
    {
      "inputs": [
        {
          "internalType": "address",
          "name": "",
          "type": "address"
        }
      ],
      "name": "mgvBalance",
      "outputs": [
        {
          "internalType": "uint256",
          "name": "",
          "type": "uint256"
        }
      ],
      "stateMutability": "view",
      "type": "function"
    },
    {
      "inputs": [
        {
          "internalType": "address",
          "name": "outbound_tkn",
          "type": "address"
        },
        {
          "internalType": "address",
          "name": "inbound_tkn",
          "type": "address"
        },
        {
          "internalType": "uint256",
          "name": "wants",
          "type": "uint256"
        },
        {
          "internalType": "uint256",
          "name": "gives",
          "type": "uint256"
        },
        {
          "internalType": "uint256",
          "name": "gasreq",
          "type": "uint256"
        },
        {
          "internalType": "uint256",
          "name": "gasprice",
          "type": "uint256"
        },
        {
          "internalType": "uint256",
          "name": "pivotId",
          "type": "uint256"
        }
      ],
      "name": "newOffer",
      "outputs": [
        {
          "internalType": "uint256",
          "name": "offerId",
          "type": "uint256"
        }
      ],
      "stateMutability": "payable",
      "type": "function"
    },
    {
      "inputs": [
        {
          "internalType": "address",
          "name": "reader",
          "type": "address"
        },
        {
          "internalType": "address",
          "name": "outbound_tkn",
          "type": "address"
        },
        {
          "internalType": "address",
          "name": "inbound_tkn",
          "type": "address"
        },
        {
          "internalType": "uint256",
          "name": "fromId",
          "type": "uint256"
        },
        {
          "internalType": "uint256",
          "name": "maxOffers",
          "type": "uint256"
        }
      ],
      "name": "offerOwners",
      "outputs": [
        {
          "internalType": "uint256",
          "name": "nextId",
          "type": "uint256"
        },
        {
          "internalType": "uint256[]",
          "name": "offerIds",
          "type": "uint256[]"
        },
        {
          "internalType": "address[]",
          "name": "__offerOwners",
          "type": "address[]"
        }
      ],
      "stateMutability": "view",
      "type": "function"
    },
    {
      "inputs": [
        {
          "internalType": "address",
          "name": "outbound_tkn",
          "type": "address"
        },
        {
          "internalType": "address",
          "name": "inbound_tkn",
          "type": "address"
        },
        {
          "internalType": "uint256",
          "name": "offerId",
          "type": "uint256"
        }
      ],
      "name": "ownerOf",
      "outputs": [
        {
          "internalType": "address",
          "name": "owner",
          "type": "address"
        }
      ],
      "stateMutability": "view",
      "type": "function"
    },
    {
      "inputs": [
        {
          "internalType": "address",
          "name": "token",
          "type": "address"
        },
        {
          "internalType": "uint256",
          "name": "amount",
          "type": "uint256"
        }
      ],
      "name": "redeemToken",
      "outputs": [
        {
          "internalType": "bool",
          "name": "success",
          "type": "bool"
        }
      ],
      "stateMutability": "nonpayable",
      "type": "function"
    },
    {
      "inputs": [
        {
          "internalType": "address",
          "name": "outbound_tkn",
          "type": "address"
        },
        {
          "internalType": "address",
          "name": "inbound_tkn",
          "type": "address"
        },
        {
          "internalType": "uint256",
          "name": "offerId",
          "type": "uint256"
        },
        {
          "internalType": "bool",
          "name": "deprovision",
          "type": "bool"
        }
      ],
      "name": "retractOffer",
      "outputs": [
        {
          "internalType": "uint256",
          "name": "received",
          "type": "uint256"
        }
      ],
      "stateMutability": "nonpayable",
      "type": "function"
    },
    {
      "inputs": [
        {
          "internalType": "address",
          "name": "_admin",
          "type": "address"
        }
      ],
      "name": "setAdmin",
      "outputs": [],
      "stateMutability": "nonpayable",
      "type": "function"
    },
    {
      "inputs": [
        {
          "internalType": "uint256",
          "name": "gasreq",
          "type": "uint256"
        }
      ],
      "name": "setGasreq",
      "outputs": [],
      "stateMutability": "nonpayable",
      "type": "function"
    },
    {
      "inputs": [
        {
          "internalType": "address",
          "name": "token",
          "type": "address"
        }
      ],
      "name": "tokenBalance",
      "outputs": [
        {
          "internalType": "uint256",
          "name": "",
          "type": "uint256"
        }
      ],
      "stateMutability": "view",
      "type": "function"
    },
    {
      "inputs": [
        {
          "internalType": "address",
          "name": "",
          "type": "address"
        },
        {
          "internalType": "address",
          "name": "",
          "type": "address"
        }
      ],
      "name": "tokenBalanceOf",
      "outputs": [
        {
          "internalType": "uint256",
          "name": "",
          "type": "uint256"
        }
      ],
      "stateMutability": "view",
      "type": "function"
    },
    {
      "inputs": [
        {
          "internalType": "address",
          "name": "outbound_tkn",
          "type": "address"
        },
        {
          "internalType": "address",
          "name": "inbound_tkn",
          "type": "address"
        },
        {
          "internalType": "uint256",
          "name": "wants",
          "type": "uint256"
        },
        {
          "internalType": "uint256",
          "name": "gives",
          "type": "uint256"
        },
        {
          "internalType": "uint256",
          "name": "gasreq",
          "type": "uint256"
        },
        {
          "internalType": "uint256",
          "name": "gasprice",
          "type": "uint256"
        },
        {
          "internalType": "uint256",
          "name": "pivotId",
          "type": "uint256"
        },
        {
          "internalType": "uint256",
          "name": "offerId",
          "type": "uint256"
        }
      ],
      "name": "updateOffer",
      "outputs": [],
      "stateMutability": "payable",
      "type": "function"
    },
    {
      "inputs": [
        {
          "internalType": "address",
          "name": "receiver",
          "type": "address"
        },
        {
          "internalType": "uint256",
          "name": "amount",
          "type": "uint256"
        }
      ],
      "name": "withdrawFromMangrove",
      "outputs": [
        {
          "internalType": "bool",
          "name": "noRevert",
          "type": "bool"
        }
      ],
      "stateMutability": "nonpayable",
      "type": "function"
    },
    {
      "stateMutability": "payable",
      "type": "receive"
    }
  ],
  "bytecode": "0x6101006040527f4d616e67726f76654f666665722f72656e6567656400000000000000000000006080527f4d616e67726f76654f666665722f7075744661696c757265000000000000000060a0527f4d616e67726f76654f666665722f6f75744f664c69717569646974790000000060c052620186a06001553480156200008557600080fd5b506040516200304838038062003048833981016040819052620000a891620000cc565b600080546001600160a01b031916331790556001600160a01b031660e052620000fe565b600060208284031215620000df57600080fd5b81516001600160a01b0381168114620000f757600080fd5b9392505050565b60805160a05160c05160e051612e95620001b360003960008181610347015281816107820152818161087f01528181610a7701528181610b5801528181610f5e0152818161145801528181611710015281816117fe015281816118c701528181611a3601528181611b4001528181611bdc01528181611f80015281816120530152818161211c0152818161226901526123c70152600081816109720152610d8e01526000610cbe015260005050612e956000f3fe6080604052600436106101845760003560e01c8063830cbbbd116100d6578063e428204d1161007f578063f851a44011610059578063f851a440146104ae578063f92495e5146104db578063faa030ec146104fb57600080fd5b8063e428204d1461042a578063e4c34f8414610440578063eedc966a1461046057600080fd5b8063aefe8403116100b0578063aefe8403146103ae578063d1971159146103ce578063df242667146103fd57600080fd5b8063830cbbbd1461031557806399fa5e2d14610335578063ad97db1b1461038e57600080fd5b8063458eda9a116101385780636a4f7691116101125780636a4f7691146102c25780636c49c32c146102d5578063704b6c02146102f557600080fd5b8063458eda9a1461026d57806349f6d2dc1461028f5780636a3f5f9d146102a257600080fd5b8063338b5dea11610169578063338b5dea1461020b57806334bd89311461022b5780633d3d130d1461024d57600080fd5b8063063df2d2146101905780631bea8006146101c557600080fd5b3661018b57005b600080fd5b34801561019c57600080fd5b506101b06101ab3660046124db565b610503565b60405190151581526020015b60405180910390f35b3480156101d157600080fd5b506101fd6101e0366004612507565b600460209081526000928352604080842090915290825290205481565b6040519081526020016101bc565b34801561021757600080fd5b506101b06102263660046124db565b610591565b34801561023757600080fd5b5061024b610246366004612540565b610749565b005b34801561025957600080fd5b5061024b61026836600461256c565b61087d565b34801561027957600080fd5b50336000908152600360205260409020546101fd565b6101fd61029d3660046125cc565b61099c565b3480156102ae57600080fd5b506101fd6102bd36600461262e565b610a25565b61024b6102d036600461266f565b610b37565b3480156102e157600080fd5b506101fd6102f03660046126da565b610b54565b34801561030157600080fd5b5061024b6103103660046126f7565b610dbf565b34801561032157600080fd5b506101b06103303660046124db565b610e87565b34801561034157600080fd5b506103697f000000000000000000000000000000000000000000000000000000000000000081565b60405173ffffffffffffffffffffffffffffffffffffffff90911681526020016101bc565b34801561039a57600080fd5b506101fd6103a9366004612722565b610f09565b3480156103ba57600080fd5b5061024b6103c93660046124db565b610f21565b3480156103da57600080fd5b506103ee6103e9366004612775565b611044565b6040516101bc939291906127d0565b34801561040957600080fd5b506101fd6104183660046126f7565b60036020526000908152604090205481565b34801561043657600080fd5b506101fd60015481565b34801561044c57600080fd5b506101fd61045b36600461286c565b6111e7565b34801561046c57600080fd5b506101fd61047b3660046126f7565b73ffffffffffffffffffffffffffffffffffffffff16600090815260046020908152604080832033845290915290205490565b3480156104ba57600080fd5b506000546103699073ffffffffffffffffffffffffffffffffffffffff1681565b3480156104e757600080fd5b506103696104f636600461262e565b61123f565b61024b6112e3565b600033301415610574576040517f08c379a000000000000000000000000000000000000000000000000000000000815260206004820152601260248201527f4d75746c692f6e6f5265656e7472616e6379000000000000000000000000000060448201526064015b60405180910390fd5b61057e3383611359565b6105888383611426565b90505b92915050565b6040517f70a08231000000000000000000000000000000000000000000000000000000008152306004820152600090819073ffffffffffffffffffffffffffffffffffffffff8516906370a0823190602401602060405180830381865afa158015610600573d6000803e3d6000fd5b505050506040513d601f19601f8201168201806040525081019061062491906128bd565b90506106318433856115cb565b6040517f70a082310000000000000000000000000000000000000000000000000000000081523060048201529092508390829073ffffffffffffffffffffffffffffffffffffffff8716906370a0823190602401602060405180830381865afa1580156106a2573d6000803e3d6000fd5b505050506040513d601f19601f820116820180604052508101906106c691906128bd565b6106d09190612905565b14610737576040517f08c379a000000000000000000000000000000000000000000000000000000000815260206004820152601260248201527f4d756c74692f7472616e736665724661696c0000000000000000000000000000604482015260640161056b565b610742843385611677565b5092915050565b60005473ffffffffffffffffffffffffffffffffffffffff163314806107a457503373ffffffffffffffffffffffffffffffffffffffff7f000000000000000000000000000000000000000000000000000000000000000016145b61080a576040517f08c379a000000000000000000000000000000000000000000000000000000000815260206004820152601860248201527f416363657373436f6e74726f6c6c65642f496e76616c69640000000000000000604482015260640161056b565b808162ffffff1614610878576040517f08c379a000000000000000000000000000000000000000000000000000000000815260206004820152601d60248201527f4d616e67726f76654f666665722f6761737265712f6f766572666c6f77000000604482015260640161056b565b600155565b7f000000000000000000000000000000000000000000000000000000000000000073ffffffffffffffffffffffffffffffffffffffff811615806108d657503373ffffffffffffffffffffffffffffffffffffffff8216145b61093c576040517f08c379a000000000000000000000000000000000000000000000000000000000815260206004820152601860248201527f416363657373436f6e74726f6c6c65642f496e76616c69640000000000000000604482015260640161056b565b81602001357f6d67762f74726164655375636365737300000000000000000000000000000000141561096e575b505050565b81357f0000000000000000000000000000000000000000000000000000000000000000141561096957505050565b600033301415610a08576040517f08c379a000000000000000000000000000000000000000000000000000000000815260206004820152601260248201527f4d75746c692f6e6f5265656e7472616e63790000000000000000000000000000604482015260640161056b565b610a198888888888888833346116c8565b98975050505050505050565b6040517fcbf75c9a00000000000000000000000000000000000000000000000000000000815273ffffffffffffffffffffffffffffffffffffffff8481166004830152838116602483015260009182917f0000000000000000000000000000000000000000000000000000000000000000169063cbf75c9a906044016040805180830381865afa158015610abd573d6000803e3d6000fd5b505050506040513d601f19601f82011682018060405250810190610ae1919061291c565b91505062ffffff8311610af45782610af8565b6001545b92506dffffffffffffffffffffffffffff607882901c16610b2262ffffff606084901c1685612940565b610b2c9190612958565b9150505b9392505050565b610b4988888888888888883334611964565b505050505050505050565b60007f000000000000000000000000000000000000000000000000000000000000000073ffffffffffffffffffffffffffffffffffffffff81161580610baf57503373ffffffffffffffffffffffffffffffffffffffff8216145b610c15576040517f08c379a000000000000000000000000000000000000000000000000000000000815260206004820152601860248201527f416363657373436f6e74726f6c6c65642f496e76616c69640000000000000000604482015260640161056b565b6000610c258460a0013585611c2a565b90508015610ce557610c3d60408501602086016126f7565b73ffffffffffffffffffffffffffffffffffffffff16610c6060208601866126f7565b73ffffffffffffffffffffffffffffffffffffffff167f3482722a7c71a098521214cdb975e1d9faa0b0163f768e89566f7acc36cffd0b866040013584604051610cb4929190918252602082015260400190565b60405180910390a37f0000000000000000000000000000000000000000000000000000000000000000925050610db9565b6000610cf5856080013586611c7d565b90508015610db657610d0d60408601602087016126f7565b73ffffffffffffffffffffffffffffffffffffffff16610d3060208701876126f7565b73ffffffffffffffffffffffffffffffffffffffff167fc99fe658c80b903af0e1270f4a55564b3a7509294ab1052c6ab07f8198baea67876040013584604051610d84929190918252602082015260400190565b60405180910390a37f000000000000000000000000000000000000000000000000000000000000000093505050610db9565b50505b50919050565b60005473ffffffffffffffffffffffffffffffffffffffff163314610e40576040517f08c379a000000000000000000000000000000000000000000000000000000000815260206004820152601860248201527f416363657373436f6e74726f6c6c65642f496e76616c69640000000000000000604482015260640161056b565b600080547fffffffffffffffffffffffff00000000000000000000000000000000000000001673ffffffffffffffffffffffffffffffffffffffff92909216919091179055565b600033301415610ef3576040517f08c379a000000000000000000000000000000000000000000000000000000000815260206004820152601260248201527f4d75746c692f6e6f5265656e7472616e63790000000000000000000000000000604482015260640161056b565b610efe833384611d31565b610588833384611e1b565b6000610f188585858533611e7a565b95945050505050565b6040517f095ea7b300000000000000000000000000000000000000000000000000000000815273ffffffffffffffffffffffffffffffffffffffff7f0000000000000000000000000000000000000000000000000000000000000000811660048301526024820183905283169063095ea7b3906044016020604051808303816000875af1158015610fb6573d6000803e3d6000fd5b505050506040513d601f19601f82011682018060405250810190610fda9190612995565b611040576040517f08c379a000000000000000000000000000000000000000000000000000000000815260206004820152601560248201527f6d67764f666665722f617070726f76652f4661696c0000000000000000000000604482015260640161056b565b5050565b6040517f2c7e545f00000000000000000000000000000000000000000000000000000000815273ffffffffffffffffffffffffffffffffffffffff858116600483015284811660248301526044820184905260648201839052600091606091829190891690632c7e545f90608401600060405180830381865afa1580156110cf573d6000803e3d6000fd5b505050506040513d6000823e601f3d9081017fffffffffffffffffffffffffffffffffffffffffffffffffffffffffffffffe01682016040526111159190810190612bcb565b50508051919450925067ffffffffffffffff811115611136576111366129b2565b60405190808252806020026020018201604052801561115f578160200160208202803683370190505b50905060005b82518110156111db57611192888885848151811061118557611185612cc0565b602002602001015161123f565b8282815181106111a4576111a4612cc0565b73ffffffffffffffffffffffffffffffffffffffff90921660209283029190910190910152806111d381612cef565b915050611165565b50955095509592505050565b60008082156112265760006111fd88888661123f565b73ffffffffffffffffffffffffffffffffffffffff166000908152600360205260409020549150505b611234818888888888611fff565b979650505050505050565b73ffffffffffffffffffffffffffffffffffffffff8084166000908152600260209081526040808320868516845282528083208584529091529020541680610b30576040517f08c379a000000000000000000000000000000000000000000000000000000000815260206004820152601560248201527f6d756c7469557365722f756e6b6f776e4f666665720000000000000000000000604482015260640161056b565b3330141561134d576040517f08c379a000000000000000000000000000000000000000000000000000000000815260206004820152601260248201527f4d75746c692f6e6f5265656e7472616e63790000000000000000000000000000604482015260640161056b565b6113573334612267565b565b73ffffffffffffffffffffffffffffffffffffffff82166000908152600360205260409020548111156113e8576040517f08c379a000000000000000000000000000000000000000000000000000000000815260206004820152601d60248201527f4d756c74692f64656269744f6e4d67762f696e73756666696369656e74000000604482015260640161056b565b73ffffffffffffffffffffffffffffffffffffffff82166000908152600360205260408120805483929061141d908490612905565b90915550505050565b6040517f2e1a7d4d000000000000000000000000000000000000000000000000000000008152600481018290526000907f000000000000000000000000000000000000000000000000000000000000000073ffffffffffffffffffffffffffffffffffffffff1690632e1a7d4d906024016020604051808303816000875af11580156114b6573d6000803e3d6000fd5b505050506040513d601f19601f820116820180604052508101906114da9190612995565b611566576040517f08c379a000000000000000000000000000000000000000000000000000000000815260206004820152602360248201527f4d616e67726f76654f666665722f77697468647261772f7472616e736665724660448201527f61696c0000000000000000000000000000000000000000000000000000000000606482015260840161056b565b60405173ffffffffffffffffffffffffffffffffffffffff8416908390600081818185875af1925050503d80600081146115bc576040519150601f19603f3d011682016040523d82523d6000602084013e6115c1565b606091505b5090949350505050565b6040517f23b872dd00000000000000000000000000000000000000000000000000000000815273ffffffffffffffffffffffffffffffffffffffff838116600483015230602483015260448201839052600091908516906323b872dd906064015b6020604051808303816000875af115801561164b573d6000803e3d6000fd5b505050506040513d601f19601f8201168201806040525081019061166f9190612995565b949350505050565b73ffffffffffffffffffffffffffffffffffffffff8084166000908152600460209081526040808320938616835292905290812080548392906116bb908490612940565b9091555050505050565b50565b6040517f70a08231000000000000000000000000000000000000000000000000000000008152306004820152600090819073ffffffffffffffffffffffffffffffffffffffff7f000000000000000000000000000000000000000000000000000000000000000016906370a0823190602401602060405180830381865afa158015611757573d6000803e3d6000fd5b505050506040513d601f19601f8201168201806040525081019061177b91906128bd565b905062ffffff87111561178e5760015496505b6040517f49f6d2dc00000000000000000000000000000000000000000000000000000000815273ffffffffffffffffffffffffffffffffffffffff8c811660048301528b81166024830152604482018b9052606482018a90526084820189905260a4820188905260c482018790527f000000000000000000000000000000000000000000000000000000000000000016906349f6d2dc90859060e40160206040518083038185885af193505050508015611883575060408051601f3d9081017fffffffffffffffffffffffffffffffffffffffffffffffffffffffffffffffe0168201909252611880918101906128bd565b60015b6119385761188f612d28565b806308c379a0141561192c57506118a4612d44565b806118af575061192e565b3373ffffffffffffffffffffffffffffffffffffffff7f00000000000000000000000000000000000000000000000000000000000000001614156118f857600092505050611957565b806040517f08c379a000000000000000000000000000000000000000000000000000000000815260040161056b9190612dec565b505b3d6000803e3d6000fd5b6119448c8c83886122f2565b61194e8583612396565b91506119579050565b9998505050505050505050565b60006119718b8b8661123f565b73ffffffffffffffffffffffffffffffffffffffff168373ffffffffffffffffffffffffffffffffffffffff1614611a05576040517f08c379a000000000000000000000000000000000000000000000000000000000815260206004820152601e60248201527f4d756c74692f7570646174654f666665722f756e617574686f72697a65640000604482015260640161056b565b6040517f70a082310000000000000000000000000000000000000000000000000000000081523060048201526000907f000000000000000000000000000000000000000000000000000000000000000073ffffffffffffffffffffffffffffffffffffffff16906370a0823190602401602060405180830381865afa158015611a92573d6000803e3d6000fd5b505050506040513d601f19601f82011682018060405250810190611ab691906128bd565b905062ffffff881115611ac95760015497505b6040517f6a4f769100000000000000000000000000000000000000000000000000000000815273ffffffffffffffffffffffffffffffffffffffff8d811660048301528c81166024830152604482018c9052606482018b9052608482018a905260a4820189905260c4820188905260e482018790527f00000000000000000000000000000000000000000000000000000000000000001690636a4f7691908590610104016000604051808303818588803b158015611b8657600080fd5b505af193505050508015611b98575060015b611c0d57611ba4612d28565b806308c379a0141561192c5750611bb9612d44565b80611bc4575061192e565b3373ffffffffffffffffffffffffffffffffffffffff7f00000000000000000000000000000000000000000000000000000000000000001614156118f857600092505050611c1c565b611c178482612396565b849150505b9a9950505050505050505050565b600080611c57611c3d60208501856126f7565b611c4d60408601602087016126f7565b856040013561123f565b9050611c73611c6c60408501602086016126f7565b8286611677565b5060009392505050565b600080611c90611c3d60208501856126f7565b90506000600481611ca460208701876126f7565b73ffffffffffffffffffffffffffffffffffffffff90811682526020808301939093526040918201600090812091861681529252902054905084811015611d0f57611cfc611cf560208601866126f7565b8383611d31565b611d068186612905565b9250505061058b565b611d26611d1f60208601866126f7565b8387611d31565b60009250505061058b565b80611d3b57505050565b73ffffffffffffffffffffffffffffffffffffffff808416600090815260046020908152604080832093861683529290522054811115611dd7576040517f08c379a000000000000000000000000000000000000000000000000000000000815260206004820152601d60248201527f4d756c74692f6465626974546f6b656e2f696e73756666696369656e74000000604482015260640161056b565b73ffffffffffffffffffffffffffffffffffffffff8084166000908152600460209081526040808320938616835292905290812080548392906116bb908490612905565b6040517fa9059cbb00000000000000000000000000000000000000000000000000000000815273ffffffffffffffffffffffffffffffffffffffff8381166004830152602482018390526000919085169063a9059cbb9060440161162c565b73ffffffffffffffffffffffffffffffffffffffff8581166000908152600260209081526040808320888516845282528083208784529091528120549091838116911614611f24576040517f08c379a000000000000000000000000000000000000000000000000000000000815260206004820152601f60248201527f4d756c74692f726574726163744f666665722f756e617574686f72697a656400604482015260640161056b565b6040517fad97db1b00000000000000000000000000000000000000000000000000000000815273ffffffffffffffffffffffffffffffffffffffff878116600483015286811660248301526044820186905284151560648301527f0000000000000000000000000000000000000000000000000000000000000000169063ad97db1b906084016020604051808303816000875af1158015611fc9573d6000803e3d6000fd5b505050506040513d601f19601f82011682018060405250810190611fed91906128bd565b90508015610f1857610f188282612484565b6040517fcbf75c9a00000000000000000000000000000000000000000000000000000000815273ffffffffffffffffffffffffffffffffffffffff86811660048301528581166024830152600091829182917f00000000000000000000000000000000000000000000000000000000000000009091169063cbf75c9a906044016040805180830381865afa15801561209b573d6000803e3d6000fd5b505050506040513d601f19601f820116820180604052508101906120bf919061291c565b6040517f5722647b00000000000000000000000000000000000000000000000000000000815273ffffffffffffffffffffffffffffffffffffffff8b811660048301528a81166024830152604482018890529294509092506000917f00000000000000000000000000000000000000000000000000000000000000001690635722647b90606401602060405180830381865afa158015612163573d6000803e3d6000fd5b505050506040513d601f19601f8201168201806040525081019061218791906128bd565b9050600086604085901c61ffff1611156121aa575061ffff604084901c166121ad565b50855b62ffffff8811156121be5760015497505b6000816121d462ffffff606087901c168b612940565b6121de9190612958565b6121ec90633b9aca00612958565b9050600061ffff602085901c1661221362ffffff603087901c811690604888901c16612940565b61221d9190612958565b61222b90633b9aca00612958565b905060006122398e83612940565b9050828110156122525761224d8184612905565b612255565b60005b9e9d5050505050505050505050505050565b7f000000000000000000000000000000000000000000000000000000000000000073ffffffffffffffffffffffffffffffffffffffff1663b60d4288826040518263ffffffff1660e01b81526004016000604051808303818588803b1580156122cf57600080fd5b505af11580156122e3573d6000803e3d6000fd5b50505050506110408282612484565b73ffffffffffffffffffffffffffffffffffffffff848116600081815260026020908152604080832088861680855290835281842088855283529281902080547fffffffffffffffffffffffff00000000000000000000000000000000000000001695871695861790555193845285939192917ff4d6dd56d4e8a2abba2bcbd020eb452fe8213f9b1466dd3f17d342f9a6353435910160405180910390a450505050565b6040517f70a082310000000000000000000000000000000000000000000000000000000081523060048201526000907f000000000000000000000000000000000000000000000000000000000000000073ffffffffffffffffffffffffffffffffffffffff16906370a0823190602401602060405180830381865afa158015612423573d6000803e3d6000fd5b505050506040513d601f19601f8201168201806040525081019061244791906128bd565b90508181141561245657505050565b81811115612471576109698361246c8484612905565b612484565b6109698361247f8385612905565b611359565b73ffffffffffffffffffffffffffffffffffffffff82166000908152600360205260408120805483929061141d908490612940565b73ffffffffffffffffffffffffffffffffffffffff811681146116c557600080fd5b600080604083850312156124ee57600080fd5b82356124f9816124b9565b946020939093013593505050565b6000806040838503121561251a57600080fd5b8235612525816124b9565b91506020830135612535816124b9565b809150509250929050565b60006020828403121561255257600080fd5b5035919050565b60006101208284031215610db957600080fd5b60008082840361016081121561258157600080fd5b61258b8585612559565b925060407ffffffffffffffffffffffffffffffffffffffffffffffffffffffffffffffee0820112156125bd57600080fd5b50610120830190509250929050565b600080600080600080600060e0888a0312156125e757600080fd5b87356125f2816124b9565b96506020880135612602816124b9565b96999698505050506040850135946060810135946080820135945060a0820135935060c0909101359150565b60008060006060848603121561264357600080fd5b833561264e816124b9565b9250602084013561265e816124b9565b929592945050506040919091013590565b600080600080600080600080610100898b03121561268c57600080fd5b8835612697816124b9565b975060208901356126a7816124b9565b979a9799505050506040860135956060810135956080820135955060a0820135945060c0820135935060e0909101359150565b600061012082840312156126ed57600080fd5b6105888383612559565b60006020828403121561270957600080fd5b8135610b30816124b9565b80151581146116c557600080fd5b6000806000806080858703121561273857600080fd5b8435612743816124b9565b93506020850135612753816124b9565b925060408501359150606085013561276a81612714565b939692955090935050565b600080600080600060a0868803121561278d57600080fd5b8535612798816124b9565b945060208601356127a8816124b9565b935060408601356127b8816124b9565b94979396509394606081013594506080013592915050565b6000606082018583526020606081850152818651808452608086019150828801935060005b81811015612811578451835293830193918301916001016127f5565b50508481036040860152855180825290820192508186019060005b8181101561285e57825173ffffffffffffffffffffffffffffffffffffffff168552938301939183019160010161282c565b509298975050505050505050565b600080600080600060a0868803121561288457600080fd5b853561288f816124b9565b9450602086013561289f816124b9565b94979496505050506040830135926060810135926080909101359150565b6000602082840312156128cf57600080fd5b5051919050565b7f4e487b7100000000000000000000000000000000000000000000000000000000600052601160045260246000fd5b600082821015612917576129176128d6565b500390565b6000806040838503121561292f57600080fd5b505080516020909101519092909150565b60008219821115612953576129536128d6565b500190565b6000817fffffffffffffffffffffffffffffffffffffffffffffffffffffffffffffffff0483118215151615612990576129906128d6565b500290565b6000602082840312156129a757600080fd5b8151610b3081612714565b7f4e487b7100000000000000000000000000000000000000000000000000000000600052604160045260246000fd5b6080810181811067ffffffffffffffff82111715612a0157612a016129b2565b60405250565b7fffffffffffffffffffffffffffffffffffffffffffffffffffffffffffffffe0601f830116810181811067ffffffffffffffff82111715612a4b57612a4b6129b2565b6040525050565b600067ffffffffffffffff821115612a6c57612a6c6129b2565b5060051b60200190565b600082601f830112612a8757600080fd5b81516020612a9482612a52565b60408051612aa28382612a07565b84815260079490941b8601830193838101925087851115612ac257600080fd5b8387015b85811015612b16576080818a031215612adf5760008081fd5b8251612aea816129e1565b815181528582015186820152838201518482015260608083015190820152845292840192608001612ac6565b50979650505050505050565b600082601f830112612b3357600080fd5b81516020612b4082612a52565b60408051612b4e8382612a07565b84815260079490941b8601830193838101925087851115612b6e57600080fd5b8387015b85811015612b16576080818a031215612b8b5760008081fd5b8251612b96816129e1565b8151612ba1816124b9565b81528186015186820152838201518482015260608083015190820152845292840192608001612b72565b60008060008060808587031215612be157600080fd5b8451935060208086015167ffffffffffffffff80821115612c0157600080fd5b818801915088601f830112612c1557600080fd5b8151612c2081612a52565b604051612c2d8282612a07565b82815260059290921b840185019185810191508b831115612c4d57600080fd5b938501935b82851015612c6b57845182529385019390850190612c52565b60408b01519098509450505080831115612c8457600080fd5b612c9089848a01612a76565b94506060880151925080831115612ca657600080fd5b5050612cb487828801612b22565b91505092959194509250565b7f4e487b7100000000000000000000000000000000000000000000000000000000600052603260045260246000fd5b60007fffffffffffffffffffffffffffffffffffffffffffffffffffffffffffffffff821415612d2157612d216128d6565b5060010190565b600060033d1115612d415760046000803e5060005160e01c5b90565b600060443d1015612d525790565b6040517ffffffffffffffffffffffffffffffffffffffffffffffffffffffffffffffffc803d016004833e81513d67ffffffffffffffff8160248401118184111715612da057505050505090565b8285019150815181811115612db85750505050505090565b843d8701016020828501011115612dd25750505050505090565b612de160208286010187612a07565b509095945050505050565b600060208083528351808285015260005b81811015612e1957858101830151858201604001528201612dfd565b81811115612e2b576000604083870101525b50601f017fffffffffffffffffffffffffffffffffffffffffffffffffffffffffffffffe01692909201604001939250505056fea26469706673582212200bc3900d0f019ac6e12b8fd688379bf323a7aa1caa854d8e0e4bfa4aaf84d05064736f6c634300080a0033",
  "linkReferences": {},
  "deployedLinkReferences": {}
}