{
  "_format": "hh-sol-artifact-1",
  "contractName": "MultiMaker",
  "sourceName": "contracts/Strategies/OfferLogics/MultiUsers/Deployable/MultiMaker.sol",
  "abi": [
    {
      "inputs": [
        {
          "internalType": "address payable",
          "name": "_MGV",
          "type": "address"
        }
      ],
      "stateMutability": "nonpayable",
      "type": "constructor"
    },
    {
      "anonymous": false,
      "inputs": [
        {
          "indexed": true,
          "internalType": "address",
          "name": "user",
          "type": "address"
        },
        {
          "indexed": false,
          "internalType": "uint256",
          "name": "amount",
          "type": "uint256"
        }
      ],
      "name": "CreditMgvUser",
      "type": "event"
    },
    {
      "anonymous": false,
      "inputs": [
        {
          "indexed": true,
          "internalType": "address",
          "name": "user",
          "type": "address"
        },
        {
          "indexed": true,
          "internalType": "address",
          "name": "token",
          "type": "address"
        },
        {
          "indexed": false,
          "internalType": "uint256",
          "name": "amount",
          "type": "uint256"
        }
      ],
      "name": "CreditUserTokenBalance",
      "type": "event"
    },
    {
      "anonymous": false,
      "inputs": [
        {
          "indexed": true,
          "internalType": "address",
          "name": "user",
          "type": "address"
        },
        {
          "indexed": false,
          "internalType": "uint256",
          "name": "amount",
          "type": "uint256"
        }
      ],
      "name": "DebitMgvUser",
      "type": "event"
    },
    {
      "anonymous": false,
      "inputs": [
        {
          "indexed": true,
          "internalType": "address",
          "name": "user",
          "type": "address"
        },
        {
          "indexed": true,
          "internalType": "address",
          "name": "token",
          "type": "address"
        },
        {
          "indexed": false,
          "internalType": "uint256",
          "name": "amount",
          "type": "uint256"
        }
      ],
      "name": "DebitUserTokenBalance",
      "type": "event"
    },
    {
      "anonymous": false,
      "inputs": [
        {
          "indexed": true,
          "internalType": "address",
          "name": "outbound_tkn",
          "type": "address"
        },
        {
          "indexed": true,
          "internalType": "address",
          "name": "inbound_tkn",
          "type": "address"
        },
        {
          "indexed": true,
          "internalType": "uint256",
          "name": "offerId",
          "type": "uint256"
        },
        {
          "indexed": false,
          "internalType": "bytes32",
          "name": "reason",
          "type": "bytes32"
        }
      ],
      "name": "LogIncident",
      "type": "event"
    },
    {
      "anonymous": false,
      "inputs": [
        {
          "indexed": true,
          "internalType": "address",
          "name": "outbound_tkn",
          "type": "address"
        },
        {
          "indexed": true,
          "internalType": "address",
          "name": "inbound_tkn",
          "type": "address"
        },
        {
          "indexed": true,
          "internalType": "uint256",
          "name": "offerId",
          "type": "uint256"
        },
        {
          "indexed": false,
          "internalType": "address",
          "name": "owner",
          "type": "address"
        }
      ],
      "name": "NewOwnedOffer",
      "type": "event"
    },
    {
      "inputs": [],
      "name": "MGV",
      "outputs": [
        {
          "internalType": "contract IMangrove",
          "name": "",
          "type": "address"
        }
      ],
      "stateMutability": "view",
      "type": "function"
    },
    {
      "inputs": [],
      "name": "OFR_GASREQ",
      "outputs": [
        {
          "internalType": "uint256",
          "name": "",
          "type": "uint256"
        }
      ],
      "stateMutability": "view",
      "type": "function"
    },
    {
      "inputs": [],
      "name": "OUTOFLIQUIDITY",
      "outputs": [
        {
          "internalType": "bytes32",
          "name": "",
          "type": "bytes32"
        }
      ],
      "stateMutability": "view",
      "type": "function"
    },
    {
      "inputs": [],
      "name": "PUTFAILURE",
      "outputs": [
        {
          "internalType": "bytes32",
          "name": "",
          "type": "bytes32"
        }
      ],
      "stateMutability": "view",
      "type": "function"
    },
    {
      "inputs": [],
      "name": "RENEGED",
      "outputs": [
        {
          "internalType": "bytes32",
          "name": "",
          "type": "bytes32"
        }
      ],
      "stateMutability": "view",
      "type": "function"
    },
    {
      "inputs": [],
      "name": "admin",
      "outputs": [
        {
          "internalType": "address",
          "name": "",
          "type": "address"
        }
      ],
      "stateMutability": "view",
      "type": "function"
    },
    {
      "inputs": [
        {
          "internalType": "address",
          "name": "outbound_tkn",
          "type": "address"
        }
      ],
      "name": "approveMangrove",
      "outputs": [],
      "stateMutability": "nonpayable",
      "type": "function"
    },
    {
      "inputs": [],
      "name": "balanceOnMangrove",
      "outputs": [
        {
          "internalType": "uint256",
          "name": "",
          "type": "uint256"
        }
      ],
      "stateMutability": "view",
      "type": "function"
    },
    {
      "inputs": [
        {
          "internalType": "address",
          "name": "token",
          "type": "address"
        },
        {
          "internalType": "uint256",
          "name": "amount",
          "type": "uint256"
        }
      ],
      "name": "depositToken",
      "outputs": [
        {
          "internalType": "bool",
          "name": "success",
          "type": "bool"
        }
      ],
      "stateMutability": "nonpayable",
      "type": "function"
    },
    {
      "inputs": [],
      "name": "fundMangrove",
      "outputs": [],
      "stateMutability": "payable",
      "type": "function"
    },
    {
      "inputs": [
        {
          "internalType": "address",
          "name": "outbound_tkn",
          "type": "address"
        },
        {
          "internalType": "address",
          "name": "inbound_tkn",
          "type": "address"
        },
        {
          "internalType": "uint256",
          "name": "gasreq",
          "type": "uint256"
        },
        {
          "internalType": "uint256",
          "name": "gasprice",
          "type": "uint256"
        },
        {
          "internalType": "uint256",
          "name": "offerId",
          "type": "uint256"
        }
      ],
      "name": "getMissingProvision",
      "outputs": [
        {
          "internalType": "uint256",
          "name": "",
          "type": "uint256"
        }
      ],
      "stateMutability": "view",
      "type": "function"
    },
    {
      "inputs": [
        {
          "components": [
            {
              "internalType": "address",
              "name": "outbound_tkn",
              "type": "address"
            },
            {
              "internalType": "address",
              "name": "inbound_tkn",
              "type": "address"
            },
            {
              "internalType": "uint256",
              "name": "offerId",
              "type": "uint256"
            },
            {
              "internalType": "Offer.t",
              "name": "offer",
              "type": "uint256"
            },
            {
              "internalType": "uint256",
              "name": "wants",
              "type": "uint256"
            },
            {
              "internalType": "uint256",
              "name": "gives",
              "type": "uint256"
            },
            {
              "internalType": "OfferDetail.t",
              "name": "offerDetail",
              "type": "uint256"
            },
            {
              "internalType": "Global.t",
              "name": "global",
              "type": "uint256"
            },
            {
              "internalType": "Local.t",
              "name": "local",
              "type": "uint256"
            }
          ],
          "internalType": "struct MgvLib.SingleOrder",
          "name": "order",
          "type": "tuple"
        }
      ],
      "name": "makerExecute",
      "outputs": [
        {
          "internalType": "bytes32",
          "name": "ret",
          "type": "bytes32"
        }
      ],
      "stateMutability": "nonpayable",
      "type": "function"
    },
    {
      "inputs": [
        {
          "components": [
            {
              "internalType": "address",
              "name": "outbound_tkn",
              "type": "address"
            },
            {
              "internalType": "address",
              "name": "inbound_tkn",
              "type": "address"
            },
            {
              "internalType": "uint256",
              "name": "offerId",
              "type": "uint256"
            },
            {
              "internalType": "Offer.t",
              "name": "offer",
              "type": "uint256"
            },
            {
              "internalType": "uint256",
              "name": "wants",
              "type": "uint256"
            },
            {
              "internalType": "uint256",
              "name": "gives",
              "type": "uint256"
            },
            {
              "internalType": "OfferDetail.t",
              "name": "offerDetail",
              "type": "uint256"
            },
            {
              "internalType": "Global.t",
              "name": "global",
              "type": "uint256"
            },
            {
              "internalType": "Local.t",
              "name": "local",
              "type": "uint256"
            }
          ],
          "internalType": "struct MgvLib.SingleOrder",
          "name": "order",
          "type": "tuple"
        },
        {
          "components": [
            {
              "internalType": "bytes32",
              "name": "makerData",
              "type": "bytes32"
            },
            {
              "internalType": "bytes32",
              "name": "mgvData",
              "type": "bytes32"
            }
          ],
          "internalType": "struct MgvLib.OrderResult",
          "name": "result",
          "type": "tuple"
        }
      ],
      "name": "makerPosthook",
      "outputs": [],
      "stateMutability": "nonpayable",
      "type": "function"
    },
    {
      "inputs": [
        {
          "internalType": "address",
          "name": "",
          "type": "address"
        }
      ],
      "name": "mgvBalance",
      "outputs": [
        {
          "internalType": "uint256",
          "name": "",
          "type": "uint256"
        }
      ],
      "stateMutability": "view",
      "type": "function"
    },
    {
      "inputs": [
        {
          "internalType": "address",
          "name": "outbound_tkn",
          "type": "address"
        },
        {
          "internalType": "address",
          "name": "inbound_tkn",
          "type": "address"
        },
        {
          "internalType": "uint256",
          "name": "wants",
          "type": "uint256"
        },
        {
          "internalType": "uint256",
          "name": "gives",
          "type": "uint256"
        },
        {
          "internalType": "uint256",
          "name": "gasreq",
          "type": "uint256"
        },
        {
          "internalType": "uint256",
          "name": "gasprice",
          "type": "uint256"
        },
        {
          "internalType": "uint256",
          "name": "pivotId",
          "type": "uint256"
        }
      ],
      "name": "newOffer",
      "outputs": [
        {
          "internalType": "uint256",
          "name": "offerId",
          "type": "uint256"
        }
      ],
      "stateMutability": "payable",
      "type": "function"
    },
    {
      "inputs": [
        {
          "internalType": "address",
          "name": "reader",
          "type": "address"
        },
        {
          "internalType": "address",
          "name": "outbound_tkn",
          "type": "address"
        },
        {
          "internalType": "address",
          "name": "inbound_tkn",
          "type": "address"
        },
        {
          "internalType": "uint256",
          "name": "fromId",
          "type": "uint256"
        },
        {
          "internalType": "uint256",
          "name": "maxOffers",
          "type": "uint256"
        }
      ],
      "name": "offerOwners",
      "outputs": [
        {
          "internalType": "uint256",
          "name": "nextId",
          "type": "uint256"
        },
        {
          "internalType": "uint256[]",
          "name": "offerIds",
          "type": "uint256[]"
        },
        {
          "internalType": "address[]",
          "name": "__offerOwners",
          "type": "address[]"
        }
      ],
      "stateMutability": "view",
      "type": "function"
    },
    {
      "inputs": [
        {
          "internalType": "address",
          "name": "outbound_tkn",
          "type": "address"
        },
        {
          "internalType": "address",
          "name": "inbound_tkn",
          "type": "address"
        },
        {
          "internalType": "uint256",
          "name": "offerId",
          "type": "uint256"
        }
      ],
      "name": "ownerOf",
      "outputs": [
        {
          "internalType": "address",
          "name": "owner",
          "type": "address"
        }
      ],
      "stateMutability": "view",
      "type": "function"
    },
    {
      "inputs": [
        {
          "internalType": "address",
          "name": "token",
          "type": "address"
        },
        {
          "internalType": "address",
          "name": "receiver",
          "type": "address"
        },
        {
          "internalType": "uint256",
          "name": "amount",
          "type": "uint256"
        }
      ],
      "name": "redeemToken",
      "outputs": [
        {
          "internalType": "bool",
          "name": "success",
          "type": "bool"
        }
      ],
      "stateMutability": "nonpayable",
      "type": "function"
    },
    {
      "inputs": [
        {
          "internalType": "address",
          "name": "outbound_tkn",
          "type": "address"
        },
        {
          "internalType": "address",
          "name": "inbound_tkn",
          "type": "address"
        },
        {
          "internalType": "uint256",
          "name": "offerId",
          "type": "uint256"
        },
        {
          "internalType": "bool",
          "name": "deprovision",
          "type": "bool"
        }
      ],
      "name": "retractOffer",
      "outputs": [
        {
          "internalType": "uint256",
          "name": "received",
          "type": "uint256"
        }
      ],
      "stateMutability": "nonpayable",
      "type": "function"
    },
    {
      "inputs": [
        {
          "internalType": "address",
          "name": "_admin",
          "type": "address"
        }
      ],
      "name": "setAdmin",
      "outputs": [],
      "stateMutability": "nonpayable",
      "type": "function"
    },
    {
      "inputs": [
        {
          "internalType": "uint256",
          "name": "gasreq",
          "type": "uint256"
        }
      ],
      "name": "setGasreq",
      "outputs": [],
      "stateMutability": "nonpayable",
      "type": "function"
    },
    {
      "inputs": [
        {
          "internalType": "address",
          "name": "token",
          "type": "address"
        }
      ],
      "name": "tokenBalance",
      "outputs": [
        {
          "internalType": "uint256",
          "name": "",
          "type": "uint256"
        }
      ],
      "stateMutability": "view",
      "type": "function"
    },
    {
      "inputs": [
        {
          "internalType": "address",
          "name": "",
          "type": "address"
        },
        {
          "internalType": "address",
          "name": "",
          "type": "address"
        }
      ],
      "name": "tokenBalanceOf",
      "outputs": [
        {
          "internalType": "uint256",
          "name": "",
          "type": "uint256"
        }
      ],
      "stateMutability": "view",
      "type": "function"
    },
    {
      "inputs": [
        {
          "internalType": "address",
          "name": "outbound_tkn",
          "type": "address"
        },
        {
          "internalType": "address",
          "name": "inbound_tkn",
          "type": "address"
        },
        {
          "internalType": "uint256",
          "name": "wants",
          "type": "uint256"
        },
        {
          "internalType": "uint256",
          "name": "gives",
          "type": "uint256"
        },
        {
          "internalType": "uint256",
          "name": "gasreq",
          "type": "uint256"
        },
        {
          "internalType": "uint256",
          "name": "gasprice",
          "type": "uint256"
        },
        {
          "internalType": "uint256",
          "name": "pivotId",
          "type": "uint256"
        },
        {
          "internalType": "uint256",
          "name": "offerId",
          "type": "uint256"
        }
      ],
      "name": "updateOffer",
      "outputs": [],
      "stateMutability": "payable",
      "type": "function"
    },
    {
      "inputs": [
        {
          "internalType": "address payable",
          "name": "receiver",
          "type": "address"
        },
        {
          "internalType": "uint256",
          "name": "amount",
          "type": "uint256"
        }
      ],
      "name": "withdrawFromMangrove",
      "outputs": [
        {
          "internalType": "bool",
          "name": "noRevert",
          "type": "bool"
        }
      ],
      "stateMutability": "nonpayable",
      "type": "function"
    },
    {
      "stateMutability": "payable",
      "type": "receive"
    }
  ],
  "bytecode": "0x6101006040527f6d67764f666665722f61626f72742f72656e65676564000000000000000000006080527f6d67764f666665722f61626f72742f7075744661696c6564000000000000000060a0527f6d67764f666665722f61626f72742f6765744661696c6564000000000000000060c052620186a06001553480156200008557600080fd5b506040516200306b3803806200306b833981016040819052620000a891620000cc565b600080546001600160a01b031916331790556001600160a01b031660e052620000fe565b600060208284031215620000df57600080fd5b81516001600160a01b0381168114620000f757600080fd5b9392505050565b60805160a05160c05160e051612ed16200019a600039600081816103d9015281816109bf01528181610abc01528181610d3401528181610fec0152818161156f0152818161193201528181611a2001528181611b8901528181611c9301528181611f6b0152818161203e015281816121070152818161225401526123b601526000610371015260006102ea015260006103a50152612ed16000f3fe60806040526004361061019a5760003560e01c80637f7a1b99116100e1578063df2426671161008a578063eedc966a11610064578063eedc966a146104f2578063f851a44014610540578063f92495e51461056d578063faa030ec1461058d57600080fd5b8063df2426671461048f578063e428204d146104bc578063e4c34f84146104d257600080fd5b80639f2211cb116100bb5780639f2211cb14610420578063ad97db1b14610440578063d19711591461046057600080fd5b80637f7a1b991461035f57806389dbacfe1461039357806399fa5e2d146103c757600080fd5b8063458eda9a116101435780636a4f76911161011d5780636a4f76911461030c5780636c49c32c1461031f578063704b6c021461033f57600080fd5b8063458eda9a146102a357806349f6d2dc146102c5578063572e59e3146102d857600080fd5b8063338b5dea11610174578063338b5dea1461024157806334bd8931146102615780633d3d130d1461028357600080fd5b8063063df2d2146101a65780630d71bdc3146101db5780631bea8006146101fb57600080fd5b366101a157005b600080fd5b3480156101b257600080fd5b506101c66101c1366004612517565b610595565b60405190151581526020015b60405180910390f35b3480156101e757600080fd5b506101c66101f6366004612543565b610623565b34801561020757600080fd5b50610233610216366004612584565b600460209081526000928352604080842090915290825290205481565b6040519081526020016101d2565b34801561024d57600080fd5b506101c661025c366004612517565b61073b565b34801561026d57600080fd5b5061028161027c3660046125bd565b610986565b005b34801561028f57600080fd5b5061028161029e3660046125e9565b610aba565b3480156102af57600080fd5b5033600090815260036020526040902054610233565b6102336102d3366004612649565b610c44565b3480156102e457600080fd5b506102337f000000000000000000000000000000000000000000000000000000000000000081565b61028161031a3660046126ab565b610ccd565b34801561032b57600080fd5b5061023361033a366004612716565b610d30565b34801561034b57600080fd5b5061028161035a366004612733565b610ee7565b34801561036b57600080fd5b506102337f000000000000000000000000000000000000000000000000000000000000000081565b34801561039f57600080fd5b506102337f000000000000000000000000000000000000000000000000000000000000000081565b3480156103d357600080fd5b506103fb7f000000000000000000000000000000000000000000000000000000000000000081565b60405173ffffffffffffffffffffffffffffffffffffffff90911681526020016101d2565b34801561042c57600080fd5b5061028161043b366004612733565b610faf565b34801561044c57600080fd5b5061023361045b36600461275e565b6110f0565b34801561046c57600080fd5b5061048061047b3660046127b1565b611108565b6040516101d29392919061280c565b34801561049b57600080fd5b506102336104aa366004612733565b60036020526000908152604090205481565b3480156104c857600080fd5b5061023360015481565b3480156104de57600080fd5b506102336104ed3660046128a8565b6112ab565b3480156104fe57600080fd5b5061023361050d366004612733565b73ffffffffffffffffffffffffffffffffffffffff16600090815260046020908152604080832033845290915290205490565b34801561054c57600080fd5b506000546103fb9073ffffffffffffffffffffffffffffffffffffffff1681565b34801561057957600080fd5b506103fb610588366004612543565b611303565b6102816113ae565b600033301415610606576040517f08c379a000000000000000000000000000000000000000000000000000000000815260206004820152601260248201527f4d75746c692f6e6f5265656e7472616e6379000000000000000000000000000060448201526064015b60405180910390fd5b6106103383611424565b61061a838361153d565b90505b92915050565b60003330141561068f576040517f08c379a000000000000000000000000000000000000000000000000000000000815260206004820152601260248201527f4d75746c692f6e6f5265656e7472616e6379000000000000000000000000000060448201526064016105fd565b61069a8433846116e3565b6040517fa9059cbb00000000000000000000000000000000000000000000000000000000815273ffffffffffffffffffffffffffffffffffffffff84811660048301526024820184905285169063a9059cbb906044016020604051808303816000875af115801561070f573d6000803e3d6000fd5b505050506040513d601f19601f8201168201806040525081019061073391906128f9565b949350505050565b6040517f70a08231000000000000000000000000000000000000000000000000000000008152306004820152600090819073ffffffffffffffffffffffffffffffffffffffff8516906370a0823190602401602060405180830381865afa1580156107aa573d6000803e3d6000fd5b505050506040513d601f19601f820116820180604052508101906107ce9190612916565b6040517f23b872dd0000000000000000000000000000000000000000000000000000000081523360048201523060248201526044810185905290915073ffffffffffffffffffffffffffffffffffffffff8516906323b872dd906064016020604051808303816000875af115801561084a573d6000803e3d6000fd5b505050506040513d601f19601f8201168201806040525081019061086e91906128f9565b6040517f70a082310000000000000000000000000000000000000000000000000000000081523060048201529092508390829073ffffffffffffffffffffffffffffffffffffffff8716906370a0823190602401602060405180830381865afa1580156108df573d6000803e3d6000fd5b505050506040513d601f19601f820116820180604052508101906109039190612916565b61090d919061295e565b14610974576040517f08c379a000000000000000000000000000000000000000000000000000000000815260206004820152601260248201527f4d756c74692f7472616e736665724661696c000000000000000000000000000060448201526064016105fd565b61097f843385611840565b5092915050565b60005473ffffffffffffffffffffffffffffffffffffffff163314806109e157503373ffffffffffffffffffffffffffffffffffffffff7f000000000000000000000000000000000000000000000000000000000000000016145b610a47576040517f08c379a000000000000000000000000000000000000000000000000000000000815260206004820152601860248201527f416363657373436f6e74726f6c6c65642f496e76616c6964000000000000000060448201526064016105fd565b808162ffffff1614610ab5576040517f08c379a000000000000000000000000000000000000000000000000000000000815260206004820152601860248201527f6d67764f666665722f6761737265712f6f766572666c6f77000000000000000060448201526064016105fd565b600155565b7f000000000000000000000000000000000000000000000000000000000000000073ffffffffffffffffffffffffffffffffffffffff81161580610b1357503373ffffffffffffffffffffffffffffffffffffffff8216145b610b79576040517f08c379a000000000000000000000000000000000000000000000000000000000815260206004820152601860248201527f416363657373436f6e74726f6c6c65642f496e76616c6964000000000000000060448201526064016105fd565b81602001357f6d67762f747261646553756363657373000000000000000000000000000000001415610bae5760015b50505050565b60408301803590610bc29060208601612733565b73ffffffffffffffffffffffffffffffffffffffff16610be56020860186612733565b73ffffffffffffffffffffffffffffffffffffffff167fd2c3f090769d843e1fc2e6ce65d60572e28f9163a5cfccbd6c1725c6a9263f2f8560000135604051610c3091815260200190565b60405180910390a46001610ba8565b505050565b600033301415610cb0576040517f08c379a000000000000000000000000000000000000000000000000000000000815260206004820152601260248201527f4d75746c692f6e6f5265656e7472616e6379000000000000000000000000000060448201526064016105fd565b610cc18888888888888833346118ea565b98975050505050505050565b600080610ce28a8a8a8a8a8a8a8a3334611ab5565b91509150600082118190610d23576040517f08c379a00000000000000000000000000000000000000000000000000000000081526004016105fd9190612975565b5050505050505050505050565b60007f000000000000000000000000000000000000000000000000000000000000000073ffffffffffffffffffffffffffffffffffffffff81161580610d8b57503373ffffffffffffffffffffffffffffffffffffffff8216145b610df1576040517f08c379a000000000000000000000000000000000000000000000000000000000815260206004820152601860248201527f416363657373436f6e74726f6c6c65642f496e76616c6964000000000000000060448201526064016105fd565b6000610e018460a0013585611d5e565b1115610e69576040517f08c379a000000000000000000000000000000000000000000000000000000000815260206004820152601860248201527f6d67764f666665722f61626f72742f7075744661696c6564000000000000000060448201526064016105fd565b6000610e79846080013585611db1565b1115610ee1576040517f08c379a000000000000000000000000000000000000000000000000000000000815260206004820152601860248201527f6d67764f666665722f61626f72742f6765744661696c6564000000000000000060448201526064016105fd565b50919050565b60005473ffffffffffffffffffffffffffffffffffffffff163314610f68576040517f08c379a000000000000000000000000000000000000000000000000000000000815260206004820152601860248201527f416363657373436f6e74726f6c6c65642f496e76616c6964000000000000000060448201526064016105fd565b600080547fffffffffffffffffffffffff00000000000000000000000000000000000000001673ffffffffffffffffffffffffffffffffffffffff92909216919091179055565b6040517f095ea7b300000000000000000000000000000000000000000000000000000000815273ffffffffffffffffffffffffffffffffffffffff7f0000000000000000000000000000000000000000000000000000000000000000811660048301527fffffffffffffffffffffffffffffffffffffffffffffffffffffffffffffffff602483015282169063095ea7b3906044016020604051808303816000875af1158015611063573d6000803e3d6000fd5b505050506040513d601f19601f8201168201806040525081019061108791906128f9565b6110ed576040517f08c379a000000000000000000000000000000000000000000000000000000000815260206004820152601560248201527f6d67764f666665722f617070726f76652f4661696c000000000000000000000060448201526064016105fd565b50565b60006110ff8585858533611e65565b95945050505050565b6040517f2c7e545f00000000000000000000000000000000000000000000000000000000815273ffffffffffffffffffffffffffffffffffffffff858116600483015284811660248301526044820184905260648201839052600091606091829190891690632c7e545f90608401600060405180830381865afa158015611193573d6000803e3d6000fd5b505050506040513d6000823e601f3d9081017fffffffffffffffffffffffffffffffffffffffffffffffffffffffffffffffe01682016040526111d99190810190612c01565b50508051919450925067ffffffffffffffff8111156111fa576111fa6129e8565b604051908082528060200260200182016040528015611223578160200160208202803683370190505b50905060005b825181101561129f57611256888885848151811061124957611249612cf6565b6020026020010151611303565b82828151811061126857611268612cf6565b73ffffffffffffffffffffffffffffffffffffffff909216602092830291909101909101528061129781612d25565b915050611229565b50955095509592505050565b60008082156112ea5760006112c1888886611303565b73ffffffffffffffffffffffffffffffffffffffff166000908152600360205260409020549150505b6112f8818888888888611fea565b979650505050505050565b73ffffffffffffffffffffffffffffffffffffffff80841660009081526002602090815260408083208685168452825280832085845290915290205416806113a7576040517f08c379a000000000000000000000000000000000000000000000000000000000815260206004820152601560248201527f6d756c7469557365722f756e6b6f776e4f66666572000000000000000000000060448201526064016105fd565b9392505050565b33301415611418576040517f08c379a000000000000000000000000000000000000000000000000000000000815260206004820152601260248201527f4d75746c692f6e6f5265656e7472616e6379000000000000000000000000000060448201526064016105fd565b6114223334612252565b565b73ffffffffffffffffffffffffffffffffffffffff82166000908152600360205260409020548111156114b3576040517f08c379a000000000000000000000000000000000000000000000000000000000815260206004820152601d60248201527f4d756c74692f64656269744f6e4d67762f696e73756666696369656e7400000060448201526064016105fd565b73ffffffffffffffffffffffffffffffffffffffff8216600090815260036020526040812080548392906114e890849061295e565b909155505060405181815273ffffffffffffffffffffffffffffffffffffffff8316907fd50b865b3d9d927f026d3b8404e07f25d6beb1d111deab51bdc846bf8d0a860b906020015b60405180910390a25050565b6040517f2e1a7d4d000000000000000000000000000000000000000000000000000000008152600481018290526000907f000000000000000000000000000000000000000000000000000000000000000073ffffffffffffffffffffffffffffffffffffffff1690632e1a7d4d906024016020604051808303816000875af11580156115cd573d6000803e3d6000fd5b505050506040513d601f19601f820116820180604052508101906115f191906128f9565b611657576040517f08c379a000000000000000000000000000000000000000000000000000000000815260206004820152601e60248201527f6d67764f666665722f77697468647261772f7472616e736665724661696c000060448201526064016105fd565b73ffffffffffffffffffffffffffffffffffffffff831630146116da5760405173ffffffffffffffffffffffffffffffffffffffff8416908390600081818185875af1925050503d80600081146116ca576040519150601f19603f3d011682016040523d82523d6000602084013e6116cf565b606091505b50508091505061061d565b50600192915050565b806116ed57505050565b73ffffffffffffffffffffffffffffffffffffffff808416600090815260046020908152604080832093861683529290522054811115611789576040517f08c379a000000000000000000000000000000000000000000000000000000000815260206004820152601d60248201527f4d756c74692f6465626974546f6b656e2f696e73756666696369656e7400000060448201526064016105fd565b73ffffffffffffffffffffffffffffffffffffffff8084166000908152600460209081526040808320938616835292905290812080548392906117cd90849061295e565b925050819055508273ffffffffffffffffffffffffffffffffffffffff168273ffffffffffffffffffffffffffffffffffffffff167f7a97b405ee1bd89550b225932dbdd0431e30426b7c8f02f05b3cb0e1bdfb84768360405161183391815260200190565b60405180910390a3505050565b73ffffffffffffffffffffffffffffffffffffffff808416600090815260046020908152604080832093861683529290529081208054839290611884908490612d5e565b925050819055508273ffffffffffffffffffffffffffffffffffffffff168273ffffffffffffffffffffffffffffffffffffffff167fb2b1ec266d1bab793ae1d020eedf03e575cc390e5fb9e370cb099fdf2f61534d8360405161183391815260200190565b6040517f70a08231000000000000000000000000000000000000000000000000000000008152306004820152600090819073ffffffffffffffffffffffffffffffffffffffff7f000000000000000000000000000000000000000000000000000000000000000016906370a0823190602401602060405180830381865afa158015611979573d6000803e3d6000fd5b505050506040513d601f19601f8201168201806040525081019061199d9190612916565b905062ffffff8711156119b05760015496505b6040517f49f6d2dc00000000000000000000000000000000000000000000000000000000815273ffffffffffffffffffffffffffffffffffffffff8c811660048301528b81166024830152604482018b9052606482018a90526084820189905260a4820188905260c482018790527f000000000000000000000000000000000000000000000000000000000000000016906349f6d2dc90859060e40160206040518083038185885af1158015611a6a573d6000803e3d6000fd5b50505050506040513d601f19601f82011682018060405250810190611a8f9190612916565b9150611a9d8b8b84876122e1565b611aa78482612385565b509998505050505050505050565b60006060611ac48c8c87611303565b73ffffffffffffffffffffffffffffffffffffffff168473ffffffffffffffffffffffffffffffffffffffff1614611b58576040517f08c379a000000000000000000000000000000000000000000000000000000000815260206004820152601e60248201527f4d756c74692f7570646174654f666665722f756e617574686f72697a6564000060448201526064016105fd565b6040517f70a082310000000000000000000000000000000000000000000000000000000081523060048201526000907f000000000000000000000000000000000000000000000000000000000000000073ffffffffffffffffffffffffffffffffffffffff16906370a0823190602401602060405180830381865afa158015611be5573d6000803e3d6000fd5b505050506040513d601f19601f82011682018060405250810190611c099190612916565b905062ffffff891115611c1c5760015498505b6040517f6a4f769100000000000000000000000000000000000000000000000000000000815273ffffffffffffffffffffffffffffffffffffffff8e811660048301528d81166024830152604482018d9052606482018c9052608482018b905260a482018a905260c4820189905260e482018890527f00000000000000000000000000000000000000000000000000000000000000001690636a4f7691908690610104016000604051808303818588803b158015611cd957600080fd5b505af193505050508015611ceb575060015b611d3057611cf7612d76565b806308c379a01415611d245750611d0c612d92565b80611d175750611d26565b600093509150611d4f9050565b505b3d6000803e3d6000fd5b611d3a8582612385565b50506040805160208101909152600081528491505b9a509a98505050505050505050565b600080611d8b611d716020850185612733565b611d816040860160208701612733565b8560400135611303565b9050611da7611da06040850160208601612733565b8286611840565b5060009392505050565b600080611dc4611d716020850185612733565b90506000600481611dd86020870187612733565b73ffffffffffffffffffffffffffffffffffffffff90811682526020808301939093526040918201600090812091861681529252902054905084811015611e4357611e30611e296020860186612733565b83836116e3565b611e3a818661295e565b9250505061061d565b611e5a611e536020860186612733565b83876116e3565b60009250505061061d565b73ffffffffffffffffffffffffffffffffffffffff8581166000908152600260209081526040808320888516845282528083208784529091528120549091838116911614611f0f576040517f08c379a000000000000000000000000000000000000000000000000000000000815260206004820152601f60248201527f4d756c74692f726574726163744f666665722f756e617574686f72697a65640060448201526064016105fd565b6040517fad97db1b00000000000000000000000000000000000000000000000000000000815273ffffffffffffffffffffffffffffffffffffffff878116600483015286811660248301526044820186905284151560648301527f0000000000000000000000000000000000000000000000000000000000000000169063ad97db1b906084016020604051808303816000875af1158015611fb4573d6000803e3d6000fd5b505050506040513d601f19601f82011682018060405250810190611fd89190612916565b905080156110ff576110ff8282612473565b6040517fcbf75c9a00000000000000000000000000000000000000000000000000000000815273ffffffffffffffffffffffffffffffffffffffff86811660048301528581166024830152600091829182917f00000000000000000000000000000000000000000000000000000000000000009091169063cbf75c9a906044016040805180830381865afa158015612086573d6000803e3d6000fd5b505050506040513d601f19601f820116820180604052508101906120aa9190612e3a565b6040517f5722647b00000000000000000000000000000000000000000000000000000000815273ffffffffffffffffffffffffffffffffffffffff8b811660048301528a81166024830152604482018890529294509092506000917f00000000000000000000000000000000000000000000000000000000000000001690635722647b90606401602060405180830381865afa15801561214e573d6000803e3d6000fd5b505050506040513d601f19601f820116820180604052508101906121729190612916565b9050600086604085901c61ffff161115612195575061ffff604084901c16612198565b50855b62ffffff8811156121a95760015497505b6000816121bf62ffffff606087901c168b612d5e565b6121c99190612e5e565b6121d790633b9aca00612e5e565b9050600061ffff602085901c166121fe62ffffff603087901c811690604888901c16612d5e565b6122089190612e5e565b61221690633b9aca00612e5e565b905060006122248e83612d5e565b90508281101561223d57612238818461295e565b612240565b60005b9e9d5050505050505050505050505050565b7f000000000000000000000000000000000000000000000000000000000000000073ffffffffffffffffffffffffffffffffffffffff1663b60d4288826040518263ffffffff1660e01b81526004016000604051808303818588803b1580156122ba57600080fd5b505af11580156122ce573d6000803e3d6000fd5b50505050506122dd8282612473565b5050565b73ffffffffffffffffffffffffffffffffffffffff848116600081815260026020908152604080832088861680855290835281842088855283529281902080547fffffffffffffffffffffffff00000000000000000000000000000000000000001695871695861790555193845285939192917fabf04a4ce23225c02bd147297da7ffc10e7d29102d8678f1a63fdd2cfd71ff07910160405180910390a450505050565b6040517f70a082310000000000000000000000000000000000000000000000000000000081523060048201526000907f000000000000000000000000000000000000000000000000000000000000000073ffffffffffffffffffffffffffffffffffffffff16906370a0823190602401602060405180830381865afa158015612412573d6000803e3d6000fd5b505050506040513d601f19601f820116820180604052508101906124369190612916565b90508181141561244557505050565b8181111561246057610c3f8361245b848461295e565b612473565b610c3f8361246e838561295e565b611424565b73ffffffffffffffffffffffffffffffffffffffff8216600090815260036020526040812080548392906124a8908490612d5e565b909155505060405181815273ffffffffffffffffffffffffffffffffffffffff8316907f2022607feefe24f258126b277628af517f5512dd9499fb3520eeff54cad1370390602001611531565b73ffffffffffffffffffffffffffffffffffffffff811681146110ed57600080fd5b6000806040838503121561252a57600080fd5b8235612535816124f5565b946020939093013593505050565b60008060006060848603121561255857600080fd5b8335612563816124f5565b92506020840135612573816124f5565b929592945050506040919091013590565b6000806040838503121561259757600080fd5b82356125a2816124f5565b915060208301356125b2816124f5565b809150509250929050565b6000602082840312156125cf57600080fd5b5035919050565b60006101208284031215610ee157600080fd5b6000808284036101608112156125fe57600080fd5b61260885856125d6565b925060407ffffffffffffffffffffffffffffffffffffffffffffffffffffffffffffffee08201121561263a57600080fd5b50610120830190509250929050565b600080600080600080600060e0888a03121561266457600080fd5b873561266f816124f5565b9650602088013561267f816124f5565b96999698505050506040850135946060810135946080820135945060a0820135935060c0909101359150565b600080600080600080600080610100898b0312156126c857600080fd5b88356126d3816124f5565b975060208901356126e3816124f5565b979a9799505050506040860135956060810135956080820135955060a0820135945060c0820135935060e0909101359150565b6000610120828403121561272957600080fd5b61061a83836125d6565b60006020828403121561274557600080fd5b81356113a7816124f5565b80151581146110ed57600080fd5b6000806000806080858703121561277457600080fd5b843561277f816124f5565b9350602085013561278f816124f5565b92506040850135915060608501356127a681612750565b939692955090935050565b600080600080600060a086880312156127c957600080fd5b85356127d4816124f5565b945060208601356127e4816124f5565b935060408601356127f4816124f5565b94979396509394606081013594506080013592915050565b6000606082018583526020606081850152818651808452608086019150828801935060005b8181101561284d57845183529383019391830191600101612831565b50508481036040860152855180825290820192508186019060005b8181101561289a57825173ffffffffffffffffffffffffffffffffffffffff1685529383019391830191600101612868565b509298975050505050505050565b600080600080600060a086880312156128c057600080fd5b85356128cb816124f5565b945060208601356128db816124f5565b94979496505050506040830135926060810135926080909101359150565b60006020828403121561290b57600080fd5b81516113a781612750565b60006020828403121561292857600080fd5b5051919050565b7f4e487b7100000000000000000000000000000000000000000000000000000000600052601160045260246000fd5b6000828210156129705761297061292f565b500390565b600060208083528351808285015260005b818110156129a257858101830151858201604001528201612986565b818111156129b4576000604083870101525b50601f017fffffffffffffffffffffffffffffffffffffffffffffffffffffffffffffffe016929092016040019392505050565b7f4e487b7100000000000000000000000000000000000000000000000000000000600052604160045260246000fd5b6080810181811067ffffffffffffffff82111715612a3757612a376129e8565b60405250565b7fffffffffffffffffffffffffffffffffffffffffffffffffffffffffffffffe0601f830116810181811067ffffffffffffffff82111715612a8157612a816129e8565b6040525050565b600067ffffffffffffffff821115612aa257612aa26129e8565b5060051b60200190565b600082601f830112612abd57600080fd5b81516020612aca82612a88565b60408051612ad88382612a3d565b84815260079490941b8601830193838101925087851115612af857600080fd5b8387015b85811015612b4c576080818a031215612b155760008081fd5b8251612b2081612a17565b815181528582015186820152838201518482015260608083015190820152845292840192608001612afc565b50979650505050505050565b600082601f830112612b6957600080fd5b81516020612b7682612a88565b60408051612b848382612a3d565b84815260079490941b8601830193838101925087851115612ba457600080fd5b8387015b85811015612b4c576080818a031215612bc15760008081fd5b8251612bcc81612a17565b8151612bd7816124f5565b81528186015186820152838201518482015260608083015190820152845292840192608001612ba8565b60008060008060808587031215612c1757600080fd5b8451935060208086015167ffffffffffffffff80821115612c3757600080fd5b818801915088601f830112612c4b57600080fd5b8151612c5681612a88565b604051612c638282612a3d565b82815260059290921b840185019185810191508b831115612c8357600080fd5b938501935b82851015612ca157845182529385019390850190612c88565b60408b01519098509450505080831115612cba57600080fd5b612cc689848a01612aac565b94506060880151925080831115612cdc57600080fd5b5050612cea87828801612b58565b91505092959194509250565b7f4e487b7100000000000000000000000000000000000000000000000000000000600052603260045260246000fd5b60007fffffffffffffffffffffffffffffffffffffffffffffffffffffffffffffffff821415612d5757612d5761292f565b5060010190565b60008219821115612d7157612d7161292f565b500190565b600060033d1115612d8f5760046000803e5060005160e01c5b90565b600060443d1015612da05790565b6040517ffffffffffffffffffffffffffffffffffffffffffffffffffffffffffffffffc803d016004833e81513d67ffffffffffffffff8160248401118184111715612dee57505050505090565b8285019150815181811115612e065750505050505090565b843d8701016020828501011115612e205750505050505090565b612e2f60208286010187612a3d565b509095945050505050565b60008060408385031215612e4d57600080fd5b505080516020909101519092909150565b6000817fffffffffffffffffffffffffffffffffffffffffffffffffffffffffffffffff0483118215151615612e9657612e9661292f565b50029056fea264697066735822122011a58df2e49320d4798312da6383a33b796e606f741445c2c7f23ad53c604e8964736f6c634300080a0033",
  "linkReferences": {},
  "deployedLinkReferences": {}
}