{
  "_format": "hh-sol-artifact-1",
  "contractName": "MultiMaker",
  "sourceName": "contracts/Strategies/OfferLogics/MultiUsers/Deployable/MultiMaker.sol",
  "abi": [
    {
      "inputs": [
        {
          "internalType": "address payable",
          "name": "_MGV",
          "type": "address"
        },
        {
          "internalType": "address",
          "name": "admin",
          "type": "address"
        }
      ],
      "stateMutability": "nonpayable",
      "type": "constructor"
    },
    {
      "anonymous": false,
      "inputs": [
        {
          "indexed": true,
          "internalType": "address",
          "name": "user",
          "type": "address"
        },
        {
          "indexed": false,
          "internalType": "uint256",
          "name": "amount",
          "type": "uint256"
        }
      ],
      "name": "CreditMgvUser",
      "type": "event"
    },
    {
      "anonymous": false,
      "inputs": [
        {
          "indexed": true,
          "internalType": "address",
          "name": "user",
          "type": "address"
        },
        {
          "indexed": true,
          "internalType": "address",
          "name": "token",
          "type": "address"
        },
        {
          "indexed": false,
          "internalType": "uint256",
          "name": "amount",
          "type": "uint256"
        }
      ],
      "name": "CreditUserTokenBalance",
      "type": "event"
    },
    {
      "anonymous": false,
      "inputs": [
        {
          "indexed": true,
          "internalType": "address",
          "name": "user",
          "type": "address"
        },
        {
          "indexed": false,
          "internalType": "uint256",
          "name": "amount",
          "type": "uint256"
        }
      ],
      "name": "DebitMgvUser",
      "type": "event"
    },
    {
      "anonymous": false,
      "inputs": [
        {
          "indexed": true,
          "internalType": "address",
          "name": "user",
          "type": "address"
        },
        {
          "indexed": true,
          "internalType": "address",
          "name": "token",
          "type": "address"
        },
        {
          "indexed": false,
          "internalType": "uint256",
          "name": "amount",
          "type": "uint256"
        }
      ],
      "name": "DebitUserTokenBalance",
      "type": "event"
    },
    {
      "anonymous": false,
      "inputs": [
        {
          "indexed": true,
          "internalType": "address",
          "name": "outbound_tkn",
          "type": "address"
        },
        {
          "indexed": true,
          "internalType": "address",
          "name": "inbound_tkn",
          "type": "address"
        },
        {
          "indexed": true,
          "internalType": "uint256",
          "name": "offerId",
          "type": "uint256"
        },
        {
          "indexed": false,
          "internalType": "bytes32",
          "name": "reason",
          "type": "bytes32"
        }
      ],
      "name": "LogIncident",
      "type": "event"
    },
    {
      "anonymous": false,
      "inputs": [
        {
          "indexed": true,
          "internalType": "address",
          "name": "outbound_tkn",
          "type": "address"
        },
        {
          "indexed": true,
          "internalType": "address",
          "name": "inbound_tkn",
          "type": "address"
        },
        {
          "indexed": true,
          "internalType": "uint256",
          "name": "offerId",
          "type": "uint256"
        },
        {
          "indexed": false,
          "internalType": "address",
          "name": "owner",
          "type": "address"
        }
      ],
      "name": "NewOwnedOffer",
      "type": "event"
    },
    {
      "inputs": [],
      "name": "MGV",
      "outputs": [
        {
          "internalType": "contract IMangrove",
          "name": "",
          "type": "address"
        }
      ],
      "stateMutability": "view",
      "type": "function"
    },
    {
      "inputs": [],
      "name": "OFR_GASREQ",
      "outputs": [
        {
          "internalType": "uint256",
          "name": "",
          "type": "uint256"
        }
      ],
      "stateMutability": "view",
      "type": "function"
    },
    {
      "inputs": [],
      "name": "admin",
      "outputs": [
        {
          "internalType": "address",
          "name": "",
          "type": "address"
        }
      ],
      "stateMutability": "view",
      "type": "function"
    },
    {
      "inputs": [
        {
          "internalType": "address",
          "name": "outbound_tkn",
          "type": "address"
        },
        {
          "internalType": "uint256",
          "name": "amount",
          "type": "uint256"
        }
      ],
      "name": "approveMangrove",
      "outputs": [],
      "stateMutability": "nonpayable",
      "type": "function"
    },
    {
      "inputs": [
        {
          "internalType": "address",
          "name": "owner",
          "type": "address"
        }
      ],
      "name": "balanceOnMangrove",
      "outputs": [
        {
          "internalType": "uint256",
          "name": "",
          "type": "uint256"
        }
      ],
      "stateMutability": "view",
      "type": "function"
    },
    {
      "inputs": [
        {
          "internalType": "address",
          "name": "token",
          "type": "address"
        },
        {
          "internalType": "uint256",
          "name": "amount",
          "type": "uint256"
        }
      ],
      "name": "depositToken",
      "outputs": [
        {
          "internalType": "bool",
          "name": "success",
          "type": "bool"
        }
      ],
      "stateMutability": "nonpayable",
      "type": "function"
    },
    {
      "inputs": [],
      "name": "fundMangrove",
      "outputs": [],
      "stateMutability": "payable",
      "type": "function"
    },
    {
      "inputs": [
        {
          "internalType": "address",
          "name": "outbound_tkn",
          "type": "address"
        },
        {
          "internalType": "address",
          "name": "inbound_tkn",
          "type": "address"
        },
        {
          "internalType": "uint256",
          "name": "gasreq",
          "type": "uint256"
        },
        {
          "internalType": "uint256",
          "name": "gasprice",
          "type": "uint256"
        },
        {
          "internalType": "uint256",
          "name": "offerId",
          "type": "uint256"
        }
      ],
      "name": "getMissingProvision",
      "outputs": [
        {
          "internalType": "uint256",
          "name": "",
          "type": "uint256"
        }
      ],
      "stateMutability": "view",
      "type": "function"
    },
    {
      "inputs": [
        {
          "components": [
            {
              "internalType": "address",
              "name": "outbound_tkn",
              "type": "address"
            },
            {
              "internalType": "address",
              "name": "inbound_tkn",
              "type": "address"
            },
            {
              "internalType": "uint256",
              "name": "offerId",
              "type": "uint256"
            },
            {
              "internalType": "Offer.t",
              "name": "offer",
              "type": "uint256"
            },
            {
              "internalType": "uint256",
              "name": "wants",
              "type": "uint256"
            },
            {
              "internalType": "uint256",
              "name": "gives",
              "type": "uint256"
            },
            {
              "internalType": "OfferDetail.t",
              "name": "offerDetail",
              "type": "uint256"
            },
            {
              "internalType": "Global.t",
              "name": "global",
              "type": "uint256"
            },
            {
              "internalType": "Local.t",
              "name": "local",
              "type": "uint256"
            }
          ],
          "internalType": "struct MgvLib.SingleOrder",
          "name": "order",
          "type": "tuple"
        }
      ],
      "name": "makerExecute",
      "outputs": [
        {
          "internalType": "bytes32",
          "name": "ret",
          "type": "bytes32"
        }
      ],
      "stateMutability": "nonpayable",
      "type": "function"
    },
    {
      "inputs": [
        {
          "components": [
            {
              "internalType": "address",
              "name": "outbound_tkn",
              "type": "address"
            },
            {
              "internalType": "address",
              "name": "inbound_tkn",
              "type": "address"
            },
            {
              "internalType": "uint256",
              "name": "offerId",
              "type": "uint256"
            },
            {
              "internalType": "Offer.t",
              "name": "offer",
              "type": "uint256"
            },
            {
              "internalType": "uint256",
              "name": "wants",
              "type": "uint256"
            },
            {
              "internalType": "uint256",
              "name": "gives",
              "type": "uint256"
            },
            {
              "internalType": "OfferDetail.t",
              "name": "offerDetail",
              "type": "uint256"
            },
            {
              "internalType": "Global.t",
              "name": "global",
              "type": "uint256"
            },
            {
              "internalType": "Local.t",
              "name": "local",
              "type": "uint256"
            }
          ],
          "internalType": "struct MgvLib.SingleOrder",
          "name": "order",
          "type": "tuple"
        },
        {
          "components": [
            {
              "internalType": "bytes32",
              "name": "makerData",
              "type": "bytes32"
            },
            {
              "internalType": "bytes32",
              "name": "mgvData",
              "type": "bytes32"
            }
          ],
          "internalType": "struct MgvLib.OrderResult",
          "name": "result",
          "type": "tuple"
        }
      ],
      "name": "makerPosthook",
      "outputs": [],
      "stateMutability": "nonpayable",
      "type": "function"
    },
    {
      "inputs": [
        {
          "internalType": "address",
          "name": "",
          "type": "address"
        }
      ],
      "name": "mgvBalance",
      "outputs": [
        {
          "internalType": "uint256",
          "name": "",
          "type": "uint256"
        }
      ],
      "stateMutability": "view",
      "type": "function"
    },
    {
      "inputs": [
        {
          "internalType": "address",
          "name": "outbound_tkn",
          "type": "address"
        },
        {
          "internalType": "address",
          "name": "inbound_tkn",
          "type": "address"
        },
        {
          "internalType": "uint256",
          "name": "wants",
          "type": "uint256"
        },
        {
          "internalType": "uint256",
          "name": "gives",
          "type": "uint256"
        },
        {
          "internalType": "uint256",
          "name": "gasreq",
          "type": "uint256"
        },
        {
          "internalType": "uint256",
          "name": "gasprice",
          "type": "uint256"
        },
        {
          "internalType": "uint256",
          "name": "pivotId",
          "type": "uint256"
        }
      ],
      "name": "newOffer",
      "outputs": [
        {
          "internalType": "uint256",
          "name": "offerId",
          "type": "uint256"
        }
      ],
      "stateMutability": "payable",
      "type": "function"
    },
    {
      "inputs": [
        {
          "internalType": "address",
          "name": "outbound_tkn",
          "type": "address"
        },
        {
          "internalType": "address",
          "name": "inbound_tkn",
          "type": "address"
        },
        {
          "internalType": "uint256[]",
          "name": "offerIds",
          "type": "uint256[]"
        }
      ],
      "name": "offerOwners",
      "outputs": [
        {
          "internalType": "address[]",
          "name": "__offerOwners",
          "type": "address[]"
        }
      ],
      "stateMutability": "view",
      "type": "function"
    },
    {
      "inputs": [
        {
          "internalType": "address",
          "name": "outbound_tkn",
          "type": "address"
        },
        {
          "internalType": "address",
          "name": "inbound_tkn",
          "type": "address"
        },
        {
          "internalType": "uint256",
          "name": "offerId",
          "type": "uint256"
        }
      ],
      "name": "ownerOf",
      "outputs": [
        {
          "internalType": "address",
          "name": "owner",
          "type": "address"
        }
      ],
      "stateMutability": "view",
      "type": "function"
    },
    {
      "inputs": [
        {
          "internalType": "address",
          "name": "outbound_tkn",
          "type": "address"
        },
        {
          "internalType": "address",
          "name": "inbound_tkn",
          "type": "address"
        },
        {
          "internalType": "uint256",
          "name": "offerId",
          "type": "uint256"
        },
        {
          "internalType": "bool",
          "name": "deprovision",
          "type": "bool"
        }
      ],
      "name": "retractOffer",
      "outputs": [
        {
          "internalType": "uint256",
          "name": "received",
          "type": "uint256"
        }
      ],
      "stateMutability": "nonpayable",
      "type": "function"
    },
    {
      "inputs": [
        {
          "internalType": "address",
          "name": "_admin",
          "type": "address"
        }
      ],
      "name": "setAdmin",
      "outputs": [],
      "stateMutability": "nonpayable",
      "type": "function"
    },
    {
      "inputs": [
        {
          "internalType": "uint256",
          "name": "gasreq",
          "type": "uint256"
        }
      ],
      "name": "setGasreq",
      "outputs": [],
      "stateMutability": "nonpayable",
      "type": "function"
    },
    {
      "inputs": [
        {
          "internalType": "address",
          "name": "token",
          "type": "address"
        },
        {
          "internalType": "address",
          "name": "owner",
          "type": "address"
        }
      ],
      "name": "tokenBalance",
      "outputs": [
        {
          "internalType": "uint256",
          "name": "",
          "type": "uint256"
        }
      ],
      "stateMutability": "view",
      "type": "function"
    },
    {
      "inputs": [
        {
          "internalType": "address",
          "name": "",
          "type": "address"
        },
        {
          "internalType": "address",
          "name": "",
          "type": "address"
        }
      ],
      "name": "tokenBalanceOf",
      "outputs": [
        {
          "internalType": "uint256",
          "name": "",
          "type": "uint256"
        }
      ],
      "stateMutability": "view",
      "type": "function"
    },
    {
      "inputs": [
        {
          "internalType": "address",
          "name": "outbound_tkn",
          "type": "address"
        },
        {
          "internalType": "address",
          "name": "inbound_tkn",
          "type": "address"
        },
        {
          "internalType": "uint256",
          "name": "wants",
          "type": "uint256"
        },
        {
          "internalType": "uint256",
          "name": "gives",
          "type": "uint256"
        },
        {
          "internalType": "uint256",
          "name": "gasreq",
          "type": "uint256"
        },
        {
          "internalType": "uint256",
          "name": "gasprice",
          "type": "uint256"
        },
        {
          "internalType": "uint256",
          "name": "pivotId",
          "type": "uint256"
        },
        {
          "internalType": "uint256",
          "name": "offerId",
          "type": "uint256"
        }
      ],
      "name": "updateOffer",
      "outputs": [],
      "stateMutability": "payable",
      "type": "function"
    },
    {
      "inputs": [
        {
          "internalType": "address payable",
          "name": "receiver",
          "type": "address"
        },
        {
          "internalType": "uint256",
          "name": "amount",
          "type": "uint256"
        }
      ],
      "name": "withdrawFromMangrove",
      "outputs": [
        {
          "internalType": "bool",
          "name": "noRevert",
          "type": "bool"
        }
      ],
      "stateMutability": "nonpayable",
      "type": "function"
    },
    {
      "inputs": [
        {
          "internalType": "address",
          "name": "token",
          "type": "address"
        },
        {
          "internalType": "address",
          "name": "receiver",
          "type": "address"
        },
        {
          "internalType": "uint256",
          "name": "amount",
          "type": "uint256"
        }
      ],
      "name": "withdrawToken",
      "outputs": [
        {
          "internalType": "bool",
          "name": "success",
          "type": "bool"
        }
      ],
      "stateMutability": "nonpayable",
      "type": "function"
    },
    {
      "stateMutability": "payable",
      "type": "receive"
    }
  ],
  "bytecode": "0x60a06040523480156200001157600080fd5b5060405162002ea738038062002ea783398101604081905262000034916200014f565b8181806001600160a01b038116620000925760405162461bcd60e51b815260206004820152601860248201527f616363657373436f6e74726f6c6c65642f307841646d696e0000000000000000604482015260640160405180910390fd5b80620000a8620000ee60201b620013bc1760201c565b80546001600160a01b0319166001600160a01b0392831617905583166080525062013880620000e262000112602090811b620013e017901c565b55506200018e92505050565b7f7d382ebca3e46505071795e192d28166a3d4bd0685585591bc6c5b8df6769fd290565b7fae7e31c3220e851db9f204a28b279dfe52b973600b0a456991089c220ae7222490565b6001600160a01b03811681146200014c57600080fd5b50565b600080604083850312156200016357600080fd5b8251620001708162000136565b6020840151909250620001838162000136565b809150509250929050565b608051612c9462000213600039600081816103900152818161091601528181610a3201528181610caa01528181610fd301528181611098015281816116ac0152818161191201528181611a1f01528181611b8801528181611cb101528181611f870152818161205a015281816121230152818161228f01526123eb0152612c946000f3fe6080604052600436106101795760003560e01c8063704b6c02116100cb578063df2426671161007f578063f851a44011610059578063f851a440146104c5578063f92495e51461050f578063faa030ec1461052f57600080fd5b8063df24266714610444578063e428204d14610471578063e4c34f84146104a557600080fd5b8063ad97db1b116100b0578063ad97db1b146103d7578063aefe8403146103f7578063dec8c86b1461041757600080fd5b8063704b6c021461035e57806399fa5e2d1461037e57600080fd5b806334bd89311161012d57806349f6d2dc1161010757806349f6d2dc146103185780636a4f76911461032b5780636c49c32c1461033e57600080fd5b806334bd89311461029357806335d61cb2146102b55780633d3d130d146102f857600080fd5b80631049334f1161015e5780631049334f146101da5780631bea80061461023b578063338b5dea1461027357600080fd5b806301e3366714610185578063063df2d2146101ba57600080fd5b3661018057005b600080fd5b34801561019157600080fd5b506101a56101a036600461254f565b610537565b60405190151581526020015b60405180910390f35b3480156101c657600080fd5b506101a56101d5366004612590565b6105e5565b3480156101e657600080fd5b5061022d6101f53660046125bc565b73ffffffffffffffffffffffffffffffffffffffff918216600090815260026020908152604080832093909416825291909152205490565b6040519081526020016101b1565b34801561024757600080fd5b5061022d6102563660046125bc565b600260209081526000928352604080842090915290825290205481565b34801561027f57600080fd5b506101a561028e366004612590565b610673565b34801561029f57600080fd5b506102b36102ae3660046125f5565b6108be565b005b3480156102c157600080fd5b5061022d6102d036600461260e565b73ffffffffffffffffffffffffffffffffffffffff1660009081526001602052604090205490565b34801561030457600080fd5b506102b361031336600461263e565b610a30565b61022d61032636600461269e565b610bba565b6102b3610339366004612700565b610c43565b34801561034a57600080fd5b5061022d61035936600461276b565b610ca6565b34801561036a57600080fd5b506102b361037936600461260e565b610e5d565b34801561038a57600080fd5b506103b27f000000000000000000000000000000000000000000000000000000000000000081565b60405173ffffffffffffffffffffffffffffffffffffffff90911681526020016101b1565b3480156103e357600080fd5b5061022d6103f2366004612796565b610f63565b34801561040357600080fd5b506102b3610412366004612590565b610f7b565b34801561042357600080fd5b506104376104323660046127e9565b61117e565b6040516101b1919061287e565b34801561045057600080fd5b5061022d61045f36600461260e565b60016020526000908152604090205481565b34801561047d57600080fd5b507fae7e31c3220e851db9f204a28b279dfe52b973600b0a456991089c220ae722245461022d565b3480156104b157600080fd5b5061022d6104c03660046128d8565b611245565b3480156104d157600080fd5b507f7d382ebca3e46505071795e192d28166a3d4bd0685585591bc6c5b8df6769fd25473ffffffffffffffffffffffffffffffffffffffff166103b2565b34801561051b57600080fd5b506103b261052a36600461254f565b61129d565b6102b3611346565b6000610544843384611404565b6040517fa9059cbb00000000000000000000000000000000000000000000000000000000815273ffffffffffffffffffffffffffffffffffffffff84811660048301526024820184905285169063a9059cbb906044016020604051808303816000875af11580156105b9573d6000803e3d6000fd5b505050506040513d601f19601f820116820180604052508101906105dd9190612929565b949350505050565b600033301415610656576040517f08c379a000000000000000000000000000000000000000000000000000000000815260206004820152601260248201527f4d75746c692f6e6f5265656e7472616e6379000000000000000000000000000060448201526064015b60405180910390fd5b6106603383611561565b61066a838361167a565b90505b92915050565b6040517f70a08231000000000000000000000000000000000000000000000000000000008152306004820152600090819073ffffffffffffffffffffffffffffffffffffffff8516906370a0823190602401602060405180830381865afa1580156106e2573d6000803e3d6000fd5b505050506040513d601f19601f820116820180604052508101906107069190612946565b6040517f23b872dd0000000000000000000000000000000000000000000000000000000081523360048201523060248201526044810185905290915073ffffffffffffffffffffffffffffffffffffffff8516906323b872dd906064016020604051808303816000875af1158015610782573d6000803e3d6000fd5b505050506040513d601f19601f820116820180604052508101906107a69190612929565b6040517f70a082310000000000000000000000000000000000000000000000000000000081523060048201529092508390829073ffffffffffffffffffffffffffffffffffffffff8716906370a0823190602401602060405180830381865afa158015610817573d6000803e3d6000fd5b505050506040513d601f19601f8201168201806040525081019061083b9190612946565b610845919061298e565b146108ac576040517f08c379a000000000000000000000000000000000000000000000000000000000815260206004820152601260248201527f4d756c74692f7472616e736665724661696c0000000000000000000000000000604482015260640161064d565b6108b7843385611820565b5092915050565b7f7d382ebca3e46505071795e192d28166a3d4bd0685585591bc6c5b8df6769fd25473ffffffffffffffffffffffffffffffffffffffff1633148061093857503373ffffffffffffffffffffffffffffffffffffffff7f000000000000000000000000000000000000000000000000000000000000000016145b61099e576040517f08c379a000000000000000000000000000000000000000000000000000000000815260206004820152601860248201527f416363657373436f6e74726f6c6c65642f496e76616c69640000000000000000604482015260640161064d565b808162ffffff1614610a0c576040517f08c379a000000000000000000000000000000000000000000000000000000000815260206004820152601860248201527f6d67764f666665722f6761737265712f6f766572666c6f770000000000000000604482015260640161064d565b7fae7e31c3220e851db9f204a28b279dfe52b973600b0a456991089c220ae7222455565b7f000000000000000000000000000000000000000000000000000000000000000073ffffffffffffffffffffffffffffffffffffffff81161580610a8957503373ffffffffffffffffffffffffffffffffffffffff8216145b610aef576040517f08c379a000000000000000000000000000000000000000000000000000000000815260206004820152601860248201527f416363657373436f6e74726f6c6c65642f496e76616c69640000000000000000604482015260640161064d565b81602001357f6d67762f747261646553756363657373000000000000000000000000000000001415610b245760015b50505050565b60408301803590610b38906020860161260e565b73ffffffffffffffffffffffffffffffffffffffff16610b5b602086018661260e565b73ffffffffffffffffffffffffffffffffffffffff167fd2c3f090769d843e1fc2e6ce65d60572e28f9163a5cfccbd6c1725c6a9263f2f8560000135604051610ba691815260200190565b60405180910390a46001610b1e565b505050565b600033301415610c26576040517f08c379a000000000000000000000000000000000000000000000000000000000815260206004820152601260248201527f4d75746c692f6e6f5265656e7472616e63790000000000000000000000000000604482015260640161064d565b610c378888888888888833346118ca565b98975050505050505050565b600080610c588a8a8a8a8a8a8a8a3334611ab4565b91509150600082118190610c99576040517f08c379a000000000000000000000000000000000000000000000000000000000815260040161064d91906129a5565b5050505050505050505050565b60007f000000000000000000000000000000000000000000000000000000000000000073ffffffffffffffffffffffffffffffffffffffff81161580610d0157503373ffffffffffffffffffffffffffffffffffffffff8216145b610d67576040517f08c379a000000000000000000000000000000000000000000000000000000000815260206004820152601860248201527f416363657373436f6e74726f6c6c65642f496e76616c69640000000000000000604482015260640161064d565b6000610d778460a0013585611d7c565b1115610ddf576040517f08c379a000000000000000000000000000000000000000000000000000000000815260206004820152601860248201527f6d67764f666665722f61626f72742f7075744661696c65640000000000000000604482015260640161064d565b6000610def846080013585611dcf565b1115610e57576040517f08c379a000000000000000000000000000000000000000000000000000000000815260206004820152601860248201527f6d67764f666665722f61626f72742f6765744661696c65640000000000000000604482015260640161064d565b50919050565b7f7d382ebca3e46505071795e192d28166a3d4bd0685585591bc6c5b8df6769fd25473ffffffffffffffffffffffffffffffffffffffff163314610efd576040517f08c379a000000000000000000000000000000000000000000000000000000000815260206004820152601860248201527f416363657373436f6e74726f6c6c65642f496e76616c69640000000000000000604482015260640161064d565b7f7d382ebca3e46505071795e192d28166a3d4bd0685585591bc6c5b8df6769fd280547fffffffffffffffffffffffff00000000000000000000000000000000000000001673ffffffffffffffffffffffffffffffffffffffff92909216919091179055565b6000610f728585858533611e83565b95945050505050565b7f7d382ebca3e46505071795e192d28166a3d4bd0685585591bc6c5b8df6769fd25473ffffffffffffffffffffffffffffffffffffffff16331480610ff557503373ffffffffffffffffffffffffffffffffffffffff7f000000000000000000000000000000000000000000000000000000000000000016145b61105b576040517f08c379a000000000000000000000000000000000000000000000000000000000815260206004820152601860248201527f416363657373436f6e74726f6c6c65642f496e76616c69640000000000000000604482015260640161064d565b6040517f095ea7b300000000000000000000000000000000000000000000000000000000815273ffffffffffffffffffffffffffffffffffffffff7f0000000000000000000000000000000000000000000000000000000000000000811660048301526024820183905283169063095ea7b3906044016020604051808303816000875af11580156110f0573d6000803e3d6000fd5b505050506040513d601f19601f820116820180604052508101906111149190612929565b61117a576040517f08c379a000000000000000000000000000000000000000000000000000000000815260206004820152601560248201527f6d67764f666665722f617070726f76652f4661696c0000000000000000000000604482015260640161064d565b5050565b60608167ffffffffffffffff81111561119957611199612a18565b6040519080825280602002602001820160405280156111c2578160200160208202803683370190505b50905060005b8281101561123c576111f386868686858181106111e7576111e7612a47565b9050602002013561129d565b82828151811061120557611205612a47565b73ffffffffffffffffffffffffffffffffffffffff909216602092830291909101909101528061123481612a76565b9150506111c8565b50949350505050565b600080821561128457600061125b88888661129d565b73ffffffffffffffffffffffffffffffffffffffff166000908152600160205260409020549150505b611292818888888888612006565b979650505050505050565b73ffffffffffffffffffffffffffffffffffffffff80841660009081526020818152604080832086851684528252808320858452909152902054168061133f576040517f08c379a000000000000000000000000000000000000000000000000000000000815260206004820152601560248201527f6d756c7469557365722f756e6b6f776e4f666665720000000000000000000000604482015260640161064d565b9392505050565b333014156113b0576040517f08c379a000000000000000000000000000000000000000000000000000000000815260206004820152601260248201527f4d75746c692f6e6f5265656e7472616e63790000000000000000000000000000604482015260640161064d565b6113ba333461228d565b565b7f7d382ebca3e46505071795e192d28166a3d4bd0685585591bc6c5b8df6769fd290565b7fae7e31c3220e851db9f204a28b279dfe52b973600b0a456991089c220ae7222490565b8061140e57505050565b73ffffffffffffffffffffffffffffffffffffffff8084166000908152600260209081526040808320938616835292905220548111156114aa576040517f08c379a000000000000000000000000000000000000000000000000000000000815260206004820152601d60248201527f4d756c74692f6465626974546f6b656e2f696e73756666696369656e74000000604482015260640161064d565b73ffffffffffffffffffffffffffffffffffffffff8084166000908152600260209081526040808320938616835292905290812080548392906114ee90849061298e565b925050819055508273ffffffffffffffffffffffffffffffffffffffff168273ffffffffffffffffffffffffffffffffffffffff167f7a97b405ee1bd89550b225932dbdd0431e30426b7c8f02f05b3cb0e1bdfb84768360405161155491815260200190565b60405180910390a3505050565b73ffffffffffffffffffffffffffffffffffffffff82166000908152600160205260409020548111156115f0576040517f08c379a000000000000000000000000000000000000000000000000000000000815260206004820152601d60248201527f4d756c74692f64656269744f6e4d67762f696e73756666696369656e74000000604482015260640161064d565b73ffffffffffffffffffffffffffffffffffffffff82166000908152600160205260408120805483929061162590849061298e565b909155505060405181815273ffffffffffffffffffffffffffffffffffffffff8316907fd50b865b3d9d927f026d3b8404e07f25d6beb1d111deab51bdc846bf8d0a860b906020015b60405180910390a25050565b6040517f2e1a7d4d000000000000000000000000000000000000000000000000000000008152600481018290526000907f000000000000000000000000000000000000000000000000000000000000000073ffffffffffffffffffffffffffffffffffffffff1690632e1a7d4d906024016020604051808303816000875af115801561170a573d6000803e3d6000fd5b505050506040513d601f19601f8201168201806040525081019061172e9190612929565b611794576040517f08c379a000000000000000000000000000000000000000000000000000000000815260206004820152601e60248201527f6d67764f666665722f77697468647261772f7472616e736665724661696c0000604482015260640161064d565b73ffffffffffffffffffffffffffffffffffffffff831630146118175760405173ffffffffffffffffffffffffffffffffffffffff8416908390600081818185875af1925050503d8060008114611807576040519150601f19603f3d011682016040523d82523d6000602084013e61180c565b606091505b50508091505061066d565b50600192915050565b73ffffffffffffffffffffffffffffffffffffffff808416600090815260026020908152604080832093861683529290529081208054839290611864908490612aaf565b925050819055508273ffffffffffffffffffffffffffffffffffffffff168273ffffffffffffffffffffffffffffffffffffffff167fb2b1ec266d1bab793ae1d020eedf03e575cc390e5fb9e370cb099fdf2f61534d8360405161155491815260200190565b6040517f70a08231000000000000000000000000000000000000000000000000000000008152306004820152600090819073ffffffffffffffffffffffffffffffffffffffff7f000000000000000000000000000000000000000000000000000000000000000016906370a0823190602401602060405180830381865afa158015611959573d6000803e3d6000fd5b505050506040513d601f19601f8201168201806040525081019061197d9190612946565b905062ffffff8711156119af577fae7e31c3220e851db9f204a28b279dfe52b973600b0a456991089c220ae722245496505b6040517f49f6d2dc00000000000000000000000000000000000000000000000000000000815273ffffffffffffffffffffffffffffffffffffffff8c811660048301528b81166024830152604482018b9052606482018a90526084820189905260a4820188905260c482018790527f000000000000000000000000000000000000000000000000000000000000000016906349f6d2dc90859060e40160206040518083038185885af1158015611a69573d6000803e3d6000fd5b50505050506040513d601f19601f82011682018060405250810190611a8e9190612946565b9150611a9c8b8b8487612318565b611aa684826123ba565b509998505050505050505050565b60006060611ac38c8c8761129d565b73ffffffffffffffffffffffffffffffffffffffff168473ffffffffffffffffffffffffffffffffffffffff1614611b57576040517f08c379a000000000000000000000000000000000000000000000000000000000815260206004820152601e60248201527f4d756c74692f7570646174654f666665722f756e617574686f72697a65640000604482015260640161064d565b6040517f70a082310000000000000000000000000000000000000000000000000000000081523060048201526000907f000000000000000000000000000000000000000000000000000000000000000073ffffffffffffffffffffffffffffffffffffffff16906370a0823190602401602060405180830381865afa158015611be4573d6000803e3d6000fd5b505050506040513d601f19601f82011682018060405250810190611c089190612946565b905062ffffff891115611c3a577fae7e31c3220e851db9f204a28b279dfe52b973600b0a456991089c220ae722245498505b6040517f6a4f769100000000000000000000000000000000000000000000000000000000815273ffffffffffffffffffffffffffffffffffffffff8e811660048301528d81166024830152604482018d9052606482018c9052608482018b905260a482018a905260c4820189905260e482018890527f00000000000000000000000000000000000000000000000000000000000000001690636a4f7691908690610104016000604051808303818588803b158015611cf757600080fd5b505af193505050508015611d09575060015b611d4e57611d15612ac7565b806308c379a01415611d425750611d2a612b55565b80611d355750611d44565b600093509150611d6d9050565b505b3d6000803e3d6000fd5b611d5885826123ba565b50506040805160208101909152600081528491505b9a509a98505050505050505050565b600080611da9611d8f602085018561260e565b611d9f604086016020870161260e565b856040013561129d565b9050611dc5611dbe604085016020860161260e565b8286611820565b5060009392505050565b600080611de2611d8f602085018561260e565b90506000600281611df6602087018761260e565b73ffffffffffffffffffffffffffffffffffffffff90811682526020808301939093526040918201600090812091861681529252902054905084811015611e6157611e4e611e47602086018661260e565b8383611404565b611e58818661298e565b9250505061066d565b611e78611e71602086018661260e565b8387611404565b60009250505061066d565b73ffffffffffffffffffffffffffffffffffffffff858116600090815260208181526040808320888516845282528083208784529091528120549091838116911614611f2b576040517f08c379a000000000000000000000000000000000000000000000000000000000815260206004820152601f60248201527f4d756c74692f726574726163744f666665722f756e617574686f72697a656400604482015260640161064d565b6040517fad97db1b00000000000000000000000000000000000000000000000000000000815273ffffffffffffffffffffffffffffffffffffffff878116600483015286811660248301526044820186905284151560648301527f0000000000000000000000000000000000000000000000000000000000000000169063ad97db1b906084016020604051808303816000875af1158015611fd0573d6000803e3d6000fd5b505050506040513d601f19601f82011682018060405250810190611ff49190612946565b90508015610f7257610f7282826124a8565b6040517fcbf75c9a00000000000000000000000000000000000000000000000000000000815273ffffffffffffffffffffffffffffffffffffffff86811660048301528581166024830152600091829182917f00000000000000000000000000000000000000000000000000000000000000009091169063cbf75c9a906044016040805180830381865afa1580156120a2573d6000803e3d6000fd5b505050506040513d601f19601f820116820180604052508101906120c69190612bfd565b6040517f5722647b00000000000000000000000000000000000000000000000000000000815273ffffffffffffffffffffffffffffffffffffffff8b811660048301528a81166024830152604482018890529294509092506000917f00000000000000000000000000000000000000000000000000000000000000001690635722647b90606401602060405180830381865afa15801561216a573d6000803e3d6000fd5b505050506040513d601f19601f8201168201806040525081019061218e9190612946565b9050600086604085901c61ffff1611156121b1575061ffff604084901c166121b4565b50855b62ffffff8811156121e4577fae7e31c3220e851db9f204a28b279dfe52b973600b0a456991089c220ae722245497505b6000816121fa62ffffff606087901c168b612aaf565b6122049190612c21565b61221290633b9aca00612c21565b9050600061ffff602085901c1661223962ffffff603087901c811690604888901c16612aaf565b6122439190612c21565b61225190633b9aca00612c21565b9050600061225f8e83612aaf565b90508281101561227857612273818461298e565b61227b565b60005b9e9d5050505050505050505050505050565b7f000000000000000000000000000000000000000000000000000000000000000073ffffffffffffffffffffffffffffffffffffffff1663b60d4288826040518263ffffffff1660e01b81526004016000604051808303818588803b1580156122f557600080fd5b505af1158015612309573d6000803e3d6000fd5b505050505061117a82826124a8565b73ffffffffffffffffffffffffffffffffffffffff84811660008181526020818152604080832088861680855290835281842088855283529281902080547fffffffffffffffffffffffff00000000000000000000000000000000000000001695871695861790555193845285939192917fabf04a4ce23225c02bd147297da7ffc10e7d29102d8678f1a63fdd2cfd71ff07910160405180910390a450505050565b6040517f70a082310000000000000000000000000000000000000000000000000000000081523060048201526000907f000000000000000000000000000000000000000000000000000000000000000073ffffffffffffffffffffffffffffffffffffffff16906370a0823190602401602060405180830381865afa158015612447573d6000803e3d6000fd5b505050506040513d601f19601f8201168201806040525081019061246b9190612946565b90508181141561247a57505050565b8181111561249557610bb583612490848461298e565b6124a8565b610bb5836124a3838561298e565b611561565b73ffffffffffffffffffffffffffffffffffffffff8216600090815260016020526040812080548392906124dd908490612aaf565b909155505060405181815273ffffffffffffffffffffffffffffffffffffffff8316907f2022607feefe24f258126b277628af517f5512dd9499fb3520eeff54cad137039060200161166e565b73ffffffffffffffffffffffffffffffffffffffff8116811461254c57600080fd5b50565b60008060006060848603121561256457600080fd5b833561256f8161252a565b9250602084013561257f8161252a565b929592945050506040919091013590565b600080604083850312156125a357600080fd5b82356125ae8161252a565b946020939093013593505050565b600080604083850312156125cf57600080fd5b82356125da8161252a565b915060208301356125ea8161252a565b809150509250929050565b60006020828403121561260757600080fd5b5035919050565b60006020828403121561262057600080fd5b813561133f8161252a565b60006101208284031215610e5757600080fd5b60008082840361016081121561265357600080fd5b61265d858561262b565b925060407ffffffffffffffffffffffffffffffffffffffffffffffffffffffffffffffee08201121561268f57600080fd5b50610120830190509250929050565b600080600080600080600060e0888a0312156126b957600080fd5b87356126c48161252a565b965060208801356126d48161252a565b96999698505050506040850135946060810135946080820135945060a0820135935060c0909101359150565b600080600080600080600080610100898b03121561271d57600080fd5b88356127288161252a565b975060208901356127388161252a565b979a9799505050506040860135956060810135956080820135955060a0820135945060c0820135935060e0909101359150565b6000610120828403121561277e57600080fd5b61066a838361262b565b801515811461254c57600080fd5b600080600080608085870312156127ac57600080fd5b84356127b78161252a565b935060208501356127c78161252a565b92506040850135915060608501356127de81612788565b939692955090935050565b600080600080606085870312156127ff57600080fd5b843561280a8161252a565b9350602085013561281a8161252a565b9250604085013567ffffffffffffffff8082111561283757600080fd5b818701915087601f83011261284b57600080fd5b81358181111561285a57600080fd5b8860208260051b850101111561286f57600080fd5b95989497505060200194505050565b6020808252825182820181905260009190848201906040850190845b818110156128cc57835173ffffffffffffffffffffffffffffffffffffffff168352928401929184019160010161289a565b50909695505050505050565b600080600080600060a086880312156128f057600080fd5b85356128fb8161252a565b9450602086013561290b8161252a565b94979496505050506040830135926060810135926080909101359150565b60006020828403121561293b57600080fd5b815161133f81612788565b60006020828403121561295857600080fd5b5051919050565b7f4e487b7100000000000000000000000000000000000000000000000000000000600052601160045260246000fd5b6000828210156129a0576129a061295f565b500390565b600060208083528351808285015260005b818110156129d2578581018301518582016040015282016129b6565b818111156129e4576000604083870101525b50601f017fffffffffffffffffffffffffffffffffffffffffffffffffffffffffffffffe016929092016040019392505050565b7f4e487b7100000000000000000000000000000000000000000000000000000000600052604160045260246000fd5b7f4e487b7100000000000000000000000000000000000000000000000000000000600052603260045260246000fd5b60007fffffffffffffffffffffffffffffffffffffffffffffffffffffffffffffffff821415612aa857612aa861295f565b5060010190565b60008219821115612ac257612ac261295f565b500190565b600060033d1115612ae05760046000803e5060005160e01c5b90565b7fffffffffffffffffffffffffffffffffffffffffffffffffffffffffffffffe0601f830116810181811067ffffffffffffffff82111715612b4e577f4e487b7100000000000000000000000000000000000000000000000000000000600052604160045260246000fd5b6040525050565b600060443d1015612b635790565b6040517ffffffffffffffffffffffffffffffffffffffffffffffffffffffffffffffffc803d016004833e81513d67ffffffffffffffff8160248401118184111715612bb157505050505090565b8285019150815181811115612bc95750505050505090565b843d8701016020828501011115612be35750505050505090565b612bf260208286010187612ae3565b509095945050505050565b60008060408385031215612c1057600080fd5b505080516020909101519092909150565b6000817fffffffffffffffffffffffffffffffffffffffffffffffffffffffffffffffff0483118215151615612c5957612c5961295f565b50029056fea2646970667358221220bf9016d973b471ecd286a0d01b9ca5fab6ce7a634749b9500b87a7956bd7559764736f6c634300080a0033",
  "linkReferences": {},
  "deployedLinkReferences": {}
}