{
  "_format": "hh-sol-artifact-1",
  "contractName": "MultiMaker",
  "sourceName": "contracts/Strategies/OfferLogics/MultiUsers/Deployable/MultiMaker.sol",
  "abi": [
    {
      "inputs": [
        {
          "internalType": "address payable",
          "name": "_MGV",
          "type": "address"
        }
      ],
      "stateMutability": "nonpayable",
      "type": "constructor"
    },
    {
      "anonymous": false,
      "inputs": [
        {
          "indexed": true,
          "internalType": "address",
          "name": "outbound_tkn",
          "type": "address"
        },
        {
          "indexed": true,
          "internalType": "address",
          "name": "inbound_tkn",
          "type": "address"
        },
        {
          "indexed": false,
          "internalType": "uint256",
          "name": "offerId",
          "type": "uint256"
        },
        {
          "indexed": false,
          "internalType": "uint256",
          "name": "missingAmount",
          "type": "uint256"
        }
      ],
      "name": "GetFail",
      "type": "event"
    },
    {
      "anonymous": false,
      "inputs": [
        {
          "indexed": true,
          "internalType": "address",
          "name": "outbound_tkn",
          "type": "address"
        },
        {
          "indexed": true,
          "internalType": "address",
          "name": "inbound_tkn",
          "type": "address"
        },
        {
          "indexed": true,
          "internalType": "uint256",
          "name": "offerId",
          "type": "uint256"
        },
        {
          "indexed": false,
          "internalType": "bytes32",
          "name": "error_data",
          "type": "bytes32"
        }
      ],
      "name": "LogIncident",
      "type": "event"
    },
    {
      "anonymous": false,
      "inputs": [
        {
          "indexed": true,
          "internalType": "address",
          "name": "outbound_tkn",
          "type": "address"
        },
        {
          "indexed": true,
          "internalType": "address",
          "name": "inbound_tkn",
          "type": "address"
        },
        {
          "indexed": true,
          "internalType": "uint256",
          "name": "offerId",
          "type": "uint256"
        },
        {
          "indexed": false,
          "internalType": "address",
          "name": "owner",
          "type": "address"
        }
      ],
      "name": "NewOffer",
      "type": "event"
    },
    {
      "anonymous": false,
      "inputs": [
        {
          "indexed": true,
          "internalType": "address",
          "name": "outbound_tkn",
          "type": "address"
        },
        {
          "indexed": true,
          "internalType": "address",
          "name": "inbound_tkn",
          "type": "address"
        },
        {
          "indexed": false,
          "internalType": "uint256",
          "name": "offerId",
          "type": "uint256"
        },
        {
          "indexed": false,
          "internalType": "string",
          "name": "message",
          "type": "string"
        }
      ],
      "name": "PosthookFail",
      "type": "event"
    },
    {
      "anonymous": false,
      "inputs": [
        {
          "indexed": true,
          "internalType": "address",
          "name": "outbound_tkn",
          "type": "address"
        },
        {
          "indexed": true,
          "internalType": "address",
          "name": "inbound_tkn",
          "type": "address"
        },
        {
          "indexed": false,
          "internalType": "uint256",
          "name": "offerId",
          "type": "uint256"
        },
        {
          "indexed": false,
          "internalType": "uint256",
          "name": "missingAmount",
          "type": "uint256"
        }
      ],
      "name": "PutFail",
      "type": "event"
    },
    {
      "anonymous": false,
      "inputs": [
        {
          "indexed": true,
          "internalType": "address",
          "name": "outbound_tkn",
          "type": "address"
        },
        {
          "indexed": true,
          "internalType": "address",
          "name": "inbound_tkn",
          "type": "address"
        },
        {
          "indexed": false,
          "internalType": "uint256",
          "name": "offerId",
          "type": "uint256"
        }
      ],
      "name": "Reneged",
      "type": "event"
    },
    {
      "inputs": [],
      "name": "MGV",
      "outputs": [
        {
          "internalType": "contract Mangrove",
          "name": "",
          "type": "address"
        }
      ],
      "stateMutability": "view",
      "type": "function"
    },
    {
      "inputs": [],
      "name": "OFR_GASREQ",
      "outputs": [
        {
          "internalType": "uint256",
          "name": "",
          "type": "uint256"
        }
      ],
      "stateMutability": "view",
      "type": "function"
    },
    {
      "inputs": [],
      "name": "admin",
      "outputs": [
        {
          "internalType": "address",
          "name": "",
          "type": "address"
        }
      ],
      "stateMutability": "view",
      "type": "function"
    },
    {
      "inputs": [
        {
          "internalType": "address",
          "name": "outbound_tkn",
          "type": "address"
        },
        {
          "internalType": "uint256",
          "name": "amount",
          "type": "uint256"
        }
      ],
      "name": "approveMangrove",
      "outputs": [],
      "stateMutability": "nonpayable",
      "type": "function"
    },
    {
      "inputs": [],
      "name": "balanceOnMangrove",
      "outputs": [
        {
          "internalType": "uint256",
          "name": "",
          "type": "uint256"
        }
      ],
      "stateMutability": "view",
      "type": "function"
    },
    {
      "inputs": [
        {
          "internalType": "address",
          "name": "token",
          "type": "address"
        },
        {
          "internalType": "uint256",
          "name": "amount",
          "type": "uint256"
        }
      ],
      "name": "depositToken",
      "outputs": [
        {
          "internalType": "bool",
          "name": "success",
          "type": "bool"
        }
      ],
      "stateMutability": "nonpayable",
      "type": "function"
    },
    {
      "inputs": [],
      "name": "fundMangrove",
      "outputs": [],
      "stateMutability": "payable",
      "type": "function"
    },
    {
      "inputs": [
        {
          "internalType": "address",
          "name": "outbound_tkn",
          "type": "address"
        },
        {
          "internalType": "address",
          "name": "inbound_tkn",
          "type": "address"
        },
        {
          "internalType": "uint256",
          "name": "gasreq",
          "type": "uint256"
        },
        {
          "internalType": "uint256",
          "name": "gasprice",
          "type": "uint256"
        },
        {
          "internalType": "uint256",
          "name": "offerId",
          "type": "uint256"
        }
      ],
      "name": "getMissingProvision",
      "outputs": [
        {
          "internalType": "uint256",
          "name": "",
          "type": "uint256"
        }
      ],
      "stateMutability": "view",
      "type": "function"
    },
    {
      "inputs": [
        {
          "internalType": "address",
          "name": "outbound_tkn",
          "type": "address"
        },
        {
          "internalType": "address",
          "name": "inbound_tkn",
          "type": "address"
        },
        {
          "internalType": "uint256",
          "name": "gasreq",
          "type": "uint256"
        }
      ],
      "name": "giveAtDensity",
      "outputs": [
        {
          "internalType": "uint256",
          "name": "",
          "type": "uint256"
        }
      ],
      "stateMutability": "view",
      "type": "function"
    },
    {
      "inputs": [
        {
          "components": [
            {
              "internalType": "address",
              "name": "outbound_tkn",
              "type": "address"
            },
            {
              "internalType": "address",
              "name": "inbound_tkn",
              "type": "address"
            },
            {
              "internalType": "uint256",
              "name": "offerId",
              "type": "uint256"
            },
            {
              "internalType": "Offer.t",
              "name": "offer",
              "type": "uint256"
            },
            {
              "internalType": "uint256",
              "name": "wants",
              "type": "uint256"
            },
            {
              "internalType": "uint256",
              "name": "gives",
              "type": "uint256"
            },
            {
              "internalType": "OfferDetail.t",
              "name": "offerDetail",
              "type": "uint256"
            },
            {
              "internalType": "Global.t",
              "name": "global",
              "type": "uint256"
            },
            {
              "internalType": "Local.t",
              "name": "local",
              "type": "uint256"
            }
          ],
          "internalType": "struct MgvLib.SingleOrder",
          "name": "order",
          "type": "tuple"
        }
      ],
      "name": "makerExecute",
      "outputs": [
        {
          "internalType": "bytes32",
          "name": "ret",
          "type": "bytes32"
        }
      ],
      "stateMutability": "nonpayable",
      "type": "function"
    },
    {
      "inputs": [
        {
          "components": [
            {
              "internalType": "address",
              "name": "outbound_tkn",
              "type": "address"
            },
            {
              "internalType": "address",
              "name": "inbound_tkn",
              "type": "address"
            },
            {
              "internalType": "uint256",
              "name": "offerId",
              "type": "uint256"
            },
            {
              "internalType": "Offer.t",
              "name": "offer",
              "type": "uint256"
            },
            {
              "internalType": "uint256",
              "name": "wants",
              "type": "uint256"
            },
            {
              "internalType": "uint256",
              "name": "gives",
              "type": "uint256"
            },
            {
              "internalType": "OfferDetail.t",
              "name": "offerDetail",
              "type": "uint256"
            },
            {
              "internalType": "Global.t",
              "name": "global",
              "type": "uint256"
            },
            {
              "internalType": "Local.t",
              "name": "local",
              "type": "uint256"
            }
          ],
          "internalType": "struct MgvLib.SingleOrder",
          "name": "order",
          "type": "tuple"
        },
        {
          "components": [
            {
              "internalType": "bytes32",
              "name": "makerData",
              "type": "bytes32"
            },
            {
              "internalType": "bytes32",
              "name": "mgvData",
              "type": "bytes32"
            }
          ],
          "internalType": "struct MgvLib.OrderResult",
          "name": "result",
          "type": "tuple"
        }
      ],
      "name": "makerPosthook",
      "outputs": [],
      "stateMutability": "nonpayable",
      "type": "function"
    },
    {
      "inputs": [
        {
          "internalType": "address",
          "name": "",
          "type": "address"
        }
      ],
      "name": "mgvBalance",
      "outputs": [
        {
          "internalType": "uint256",
          "name": "",
          "type": "uint256"
        }
      ],
      "stateMutability": "view",
      "type": "function"
    },
    {
      "inputs": [
        {
          "internalType": "address",
          "name": "outbound_tkn",
          "type": "address"
        },
        {
          "internalType": "address",
          "name": "inbound_tkn",
          "type": "address"
        },
        {
          "internalType": "uint256",
          "name": "wants",
          "type": "uint256"
        },
        {
          "internalType": "uint256",
          "name": "gives",
          "type": "uint256"
        },
        {
          "internalType": "uint256",
          "name": "gasreq",
          "type": "uint256"
        },
        {
          "internalType": "uint256",
          "name": "gasprice",
          "type": "uint256"
        },
        {
          "internalType": "uint256",
          "name": "pivotId",
          "type": "uint256"
        }
      ],
      "name": "newOffer",
      "outputs": [
        {
          "internalType": "uint256",
          "name": "offerId",
          "type": "uint256"
        }
      ],
      "stateMutability": "payable",
      "type": "function"
    },
    {
      "inputs": [
        {
          "internalType": "address",
          "name": "reader",
          "type": "address"
        },
        {
          "internalType": "address",
          "name": "outbound_tkn",
          "type": "address"
        },
        {
          "internalType": "address",
          "name": "inbound_tkn",
          "type": "address"
        },
        {
          "internalType": "uint256",
          "name": "fromId",
          "type": "uint256"
        },
        {
          "internalType": "uint256",
          "name": "maxOffers",
          "type": "uint256"
        }
      ],
      "name": "offerOwners",
      "outputs": [
        {
          "internalType": "uint256",
          "name": "nextId",
          "type": "uint256"
        },
        {
          "internalType": "uint256[]",
          "name": "offerIds",
          "type": "uint256[]"
        },
        {
          "internalType": "address[]",
          "name": "__offerOwners",
          "type": "address[]"
        }
      ],
      "stateMutability": "view",
      "type": "function"
    },
    {
      "inputs": [
        {
          "internalType": "address",
          "name": "outbound_tkn",
          "type": "address"
        },
        {
          "internalType": "address",
          "name": "inbound_tkn",
          "type": "address"
        },
        {
          "internalType": "uint256",
          "name": "offerId",
          "type": "uint256"
        }
      ],
      "name": "ownerOf",
      "outputs": [
        {
          "internalType": "address",
          "name": "owner",
          "type": "address"
        }
      ],
      "stateMutability": "view",
      "type": "function"
    },
    {
      "inputs": [
        {
          "internalType": "address",
          "name": "token",
          "type": "address"
        },
        {
          "internalType": "uint256",
          "name": "amount",
          "type": "uint256"
        }
      ],
      "name": "redeemToken",
      "outputs": [
        {
          "internalType": "bool",
          "name": "success",
          "type": "bool"
        }
      ],
      "stateMutability": "nonpayable",
      "type": "function"
    },
    {
      "inputs": [
        {
          "internalType": "address",
          "name": "outbound_tkn",
          "type": "address"
        },
        {
          "internalType": "address",
          "name": "inbound_tkn",
          "type": "address"
        },
        {
          "internalType": "uint256",
          "name": "offerId",
          "type": "uint256"
        },
        {
          "internalType": "bool",
          "name": "deprovision",
          "type": "bool"
        }
      ],
      "name": "retractOffer",
      "outputs": [
        {
          "internalType": "uint256",
          "name": "received",
          "type": "uint256"
        }
      ],
      "stateMutability": "nonpayable",
      "type": "function"
    },
    {
      "inputs": [
        {
          "internalType": "address",
          "name": "_admin",
          "type": "address"
        }
      ],
      "name": "setAdmin",
      "outputs": [],
      "stateMutability": "nonpayable",
      "type": "function"
    },
    {
      "inputs": [
        {
          "internalType": "uint256",
          "name": "gasreq",
          "type": "uint256"
        }
      ],
      "name": "setGasreq",
      "outputs": [],
      "stateMutability": "nonpayable",
      "type": "function"
    },
    {
      "inputs": [
        {
          "internalType": "address",
          "name": "token",
          "type": "address"
        }
      ],
      "name": "tokenBalance",
      "outputs": [
        {
          "internalType": "uint256",
          "name": "",
          "type": "uint256"
        }
      ],
      "stateMutability": "view",
      "type": "function"
    },
    {
      "inputs": [
        {
          "internalType": "address",
          "name": "",
          "type": "address"
        },
        {
          "internalType": "address",
          "name": "",
          "type": "address"
        }
      ],
      "name": "tokenBalanceOf",
      "outputs": [
        {
          "internalType": "uint256",
          "name": "",
          "type": "uint256"
        }
      ],
      "stateMutability": "view",
      "type": "function"
    },
    {
      "inputs": [
        {
          "internalType": "address",
          "name": "outbound_tkn",
          "type": "address"
        },
        {
          "internalType": "address",
          "name": "inbound_tkn",
          "type": "address"
        },
        {
          "internalType": "uint256",
          "name": "wants",
          "type": "uint256"
        },
        {
          "internalType": "uint256",
          "name": "gives",
          "type": "uint256"
        },
        {
          "internalType": "uint256",
          "name": "gasreq",
          "type": "uint256"
        },
        {
          "internalType": "uint256",
          "name": "gasprice",
          "type": "uint256"
        },
        {
          "internalType": "uint256",
          "name": "pivotId",
          "type": "uint256"
        },
        {
          "internalType": "uint256",
          "name": "offerId",
          "type": "uint256"
        }
      ],
      "name": "updateOffer",
      "outputs": [],
      "stateMutability": "payable",
      "type": "function"
    },
    {
      "inputs": [
        {
          "internalType": "address",
          "name": "receiver",
          "type": "address"
        },
        {
          "internalType": "uint256",
          "name": "amount",
          "type": "uint256"
        }
      ],
      "name": "withdrawFromMangrove",
      "outputs": [
        {
          "internalType": "bool",
          "name": "noRevert",
          "type": "bool"
        }
      ],
      "stateMutability": "nonpayable",
      "type": "function"
    },
    {
      "stateMutability": "payable",
      "type": "receive"
    }
  ],
  "bytecode": "0x6101006040527f4d616e67726f76654f666665722f72656e6567656400000000000000000000006080527f4d616e67726f76654f666665722f7075744661696c757265000000000000000060a0527f4d616e67726f76654f666665722f6f75744f664c69717569646974790000000060c052620186a06001553480156200008557600080fd5b506040516200306f3803806200306f833981016040819052620000a891620000cc565b600080546001600160a01b031916331790556001600160a01b031660e052620000fe565b600060208284031215620000df57600080fd5b81516001600160a01b0381168114620000f757600080fd5b9392505050565b60805160a05160c05160e051612ebc620001b360003960008181610347015281816107820152818161087f01528181610a7701528181610b5801528181610f5e015281816114580152818161173701528181611825015281816118ee01528181611a5d01528181611b6701528181611c0301528181611fa70152818161207a015281816121430152818161229001526123ee0152600081816109720152610d8e01526000610cbe015260005050612ebc6000f3fe6080604052600436106101845760003560e01c8063830cbbbd116100d6578063e428204d1161007f578063f851a44011610059578063f851a440146104ae578063f92495e5146104db578063faa030ec146104fb57600080fd5b8063e428204d1461042a578063e4c34f8414610440578063eedc966a1461046057600080fd5b8063aefe8403116100b0578063aefe8403146103ae578063d1971159146103ce578063df242667146103fd57600080fd5b8063830cbbbd1461031557806399fa5e2d14610335578063ad97db1b1461038e57600080fd5b8063458eda9a116101385780636a4f7691116101125780636a4f7691146102c25780636c49c32c146102d5578063704b6c02146102f557600080fd5b8063458eda9a1461026d57806349f6d2dc1461028f5780636a3f5f9d146102a257600080fd5b8063338b5dea11610169578063338b5dea1461020b57806334bd89311461022b5780633d3d130d1461024d57600080fd5b8063063df2d2146101905780631bea8006146101c557600080fd5b3661018b57005b600080fd5b34801561019c57600080fd5b506101b06101ab366004612502565b610503565b60405190151581526020015b60405180910390f35b3480156101d157600080fd5b506101fd6101e036600461252e565b600460209081526000928352604080842090915290825290205481565b6040519081526020016101bc565b34801561021757600080fd5b506101b0610226366004612502565b610591565b34801561023757600080fd5b5061024b610246366004612567565b610749565b005b34801561025957600080fd5b5061024b610268366004612593565b61087d565b34801561027957600080fd5b50336000908152600360205260409020546101fd565b6101fd61029d3660046125f3565b61099c565b3480156102ae57600080fd5b506101fd6102bd366004612655565b610a25565b61024b6102d0366004612696565b610b37565b3480156102e157600080fd5b506101fd6102f0366004612701565b610b54565b34801561030157600080fd5b5061024b61031036600461271e565b610dbf565b34801561032157600080fd5b506101b0610330366004612502565b610e87565b34801561034157600080fd5b506103697f000000000000000000000000000000000000000000000000000000000000000081565b60405173ffffffffffffffffffffffffffffffffffffffff90911681526020016101bc565b34801561039a57600080fd5b506101fd6103a9366004612749565b610f09565b3480156103ba57600080fd5b5061024b6103c9366004612502565b610f21565b3480156103da57600080fd5b506103ee6103e936600461279c565b611044565b6040516101bc939291906127f7565b34801561040957600080fd5b506101fd61041836600461271e565b60036020526000908152604090205481565b34801561043657600080fd5b506101fd60015481565b34801561044c57600080fd5b506101fd61045b366004612893565b6111e7565b34801561046c57600080fd5b506101fd61047b36600461271e565b73ffffffffffffffffffffffffffffffffffffffff16600090815260046020908152604080832033845290915290205490565b3480156104ba57600080fd5b506000546103699073ffffffffffffffffffffffffffffffffffffffff1681565b3480156104e757600080fd5b506103696104f6366004612655565b61123f565b61024b6112e3565b600033301415610574576040517f08c379a000000000000000000000000000000000000000000000000000000000815260206004820152601260248201527f4d75746c692f6e6f5265656e7472616e6379000000000000000000000000000060448201526064015b60405180910390fd5b61057e3383611359565b6105888383611426565b90505b92915050565b6040517f70a08231000000000000000000000000000000000000000000000000000000008152306004820152600090819073ffffffffffffffffffffffffffffffffffffffff8516906370a0823190602401602060405180830381865afa158015610600573d6000803e3d6000fd5b505050506040513d601f19601f8201168201806040525081019061062491906128e4565b90506106318433856115f2565b6040517f70a082310000000000000000000000000000000000000000000000000000000081523060048201529092508390829073ffffffffffffffffffffffffffffffffffffffff8716906370a0823190602401602060405180830381865afa1580156106a2573d6000803e3d6000fd5b505050506040513d601f19601f820116820180604052508101906106c691906128e4565b6106d0919061292c565b14610737576040517f08c379a000000000000000000000000000000000000000000000000000000000815260206004820152601260248201527f4d756c74692f7472616e736665724661696c0000000000000000000000000000604482015260640161056b565b61074284338561169e565b5092915050565b60005473ffffffffffffffffffffffffffffffffffffffff163314806107a457503373ffffffffffffffffffffffffffffffffffffffff7f000000000000000000000000000000000000000000000000000000000000000016145b61080a576040517f08c379a000000000000000000000000000000000000000000000000000000000815260206004820152601860248201527f416363657373436f6e74726f6c6c65642f496e76616c69640000000000000000604482015260640161056b565b808162ffffff1614610878576040517f08c379a000000000000000000000000000000000000000000000000000000000815260206004820152601d60248201527f4d616e67726f76654f666665722f6761737265712f6f766572666c6f77000000604482015260640161056b565b600155565b7f000000000000000000000000000000000000000000000000000000000000000073ffffffffffffffffffffffffffffffffffffffff811615806108d657503373ffffffffffffffffffffffffffffffffffffffff8216145b61093c576040517f08c379a000000000000000000000000000000000000000000000000000000000815260206004820152601860248201527f416363657373436f6e74726f6c6c65642f496e76616c69640000000000000000604482015260640161056b565b81602001357f6d67762f74726164655375636365737300000000000000000000000000000000141561096e575b505050565b81357f0000000000000000000000000000000000000000000000000000000000000000141561096957505050565b600033301415610a08576040517f08c379a000000000000000000000000000000000000000000000000000000000815260206004820152601260248201527f4d75746c692f6e6f5265656e7472616e63790000000000000000000000000000604482015260640161056b565b610a198888888888888833346116ef565b98975050505050505050565b6040517fcbf75c9a00000000000000000000000000000000000000000000000000000000815273ffffffffffffffffffffffffffffffffffffffff8481166004830152838116602483015260009182917f0000000000000000000000000000000000000000000000000000000000000000169063cbf75c9a906044016040805180830381865afa158015610abd573d6000803e3d6000fd5b505050506040513d601f19601f82011682018060405250810190610ae19190612943565b91505062ffffff8311610af45782610af8565b6001545b92506dffffffffffffffffffffffffffff607882901c16610b2262ffffff606084901c1685612967565b610b2c919061297f565b9150505b9392505050565b610b498888888888888888333461198b565b505050505050505050565b60007f000000000000000000000000000000000000000000000000000000000000000073ffffffffffffffffffffffffffffffffffffffff81161580610baf57503373ffffffffffffffffffffffffffffffffffffffff8216145b610c15576040517f08c379a000000000000000000000000000000000000000000000000000000000815260206004820152601860248201527f416363657373436f6e74726f6c6c65642f496e76616c69640000000000000000604482015260640161056b565b6000610c258460a0013585611c51565b90508015610ce557610c3d604085016020860161271e565b73ffffffffffffffffffffffffffffffffffffffff16610c60602086018661271e565b73ffffffffffffffffffffffffffffffffffffffff167f3482722a7c71a098521214cdb975e1d9faa0b0163f768e89566f7acc36cffd0b866040013584604051610cb4929190918252602082015260400190565b60405180910390a37f0000000000000000000000000000000000000000000000000000000000000000925050610db9565b6000610cf5856080013586611ca4565b90508015610db657610d0d604086016020870161271e565b73ffffffffffffffffffffffffffffffffffffffff16610d30602087018761271e565b73ffffffffffffffffffffffffffffffffffffffff167fc99fe658c80b903af0e1270f4a55564b3a7509294ab1052c6ab07f8198baea67876040013584604051610d84929190918252602082015260400190565b60405180910390a37f000000000000000000000000000000000000000000000000000000000000000093505050610db9565b50505b50919050565b60005473ffffffffffffffffffffffffffffffffffffffff163314610e40576040517f08c379a000000000000000000000000000000000000000000000000000000000815260206004820152601860248201527f416363657373436f6e74726f6c6c65642f496e76616c69640000000000000000604482015260640161056b565b600080547fffffffffffffffffffffffff00000000000000000000000000000000000000001673ffffffffffffffffffffffffffffffffffffffff92909216919091179055565b600033301415610ef3576040517f08c379a000000000000000000000000000000000000000000000000000000000815260206004820152601260248201527f4d75746c692f6e6f5265656e7472616e63790000000000000000000000000000604482015260640161056b565b610efe833384611d58565b610588833384611e42565b6000610f188585858533611ea1565b95945050505050565b6040517f095ea7b300000000000000000000000000000000000000000000000000000000815273ffffffffffffffffffffffffffffffffffffffff7f0000000000000000000000000000000000000000000000000000000000000000811660048301526024820183905283169063095ea7b3906044016020604051808303816000875af1158015610fb6573d6000803e3d6000fd5b505050506040513d601f19601f82011682018060405250810190610fda91906129bc565b611040576040517f08c379a000000000000000000000000000000000000000000000000000000000815260206004820152601560248201527f6d67764f666665722f617070726f76652f4661696c0000000000000000000000604482015260640161056b565b5050565b6040517f2c7e545f00000000000000000000000000000000000000000000000000000000815273ffffffffffffffffffffffffffffffffffffffff858116600483015284811660248301526044820184905260648201839052600091606091829190891690632c7e545f90608401600060405180830381865afa1580156110cf573d6000803e3d6000fd5b505050506040513d6000823e601f3d9081017fffffffffffffffffffffffffffffffffffffffffffffffffffffffffffffffe01682016040526111159190810190612bf2565b50508051919450925067ffffffffffffffff811115611136576111366129d9565b60405190808252806020026020018201604052801561115f578160200160208202803683370190505b50905060005b82518110156111db57611192888885848151811061118557611185612ce7565b602002602001015161123f565b8282815181106111a4576111a4612ce7565b73ffffffffffffffffffffffffffffffffffffffff90921660209283029190910190910152806111d381612d16565b915050611165565b50955095509592505050565b60008082156112265760006111fd88888661123f565b73ffffffffffffffffffffffffffffffffffffffff166000908152600360205260409020549150505b611234818888888888612026565b979650505050505050565b73ffffffffffffffffffffffffffffffffffffffff8084166000908152600260209081526040808320868516845282528083208584529091529020541680610b30576040517f08c379a000000000000000000000000000000000000000000000000000000000815260206004820152601560248201527f6d756c7469557365722f756e6b6f776e4f666665720000000000000000000000604482015260640161056b565b3330141561134d576040517f08c379a000000000000000000000000000000000000000000000000000000000815260206004820152601260248201527f4d75746c692f6e6f5265656e7472616e63790000000000000000000000000000604482015260640161056b565b611357333461228e565b565b73ffffffffffffffffffffffffffffffffffffffff82166000908152600360205260409020548111156113e8576040517f08c379a000000000000000000000000000000000000000000000000000000000815260206004820152601d60248201527f4d756c74692f64656269744f6e4d67762f696e73756666696369656e74000000604482015260640161056b565b73ffffffffffffffffffffffffffffffffffffffff82166000908152600360205260408120805483929061141d90849061292c565b90915550505050565b6040517f2e1a7d4d000000000000000000000000000000000000000000000000000000008152600481018290526000907f000000000000000000000000000000000000000000000000000000000000000073ffffffffffffffffffffffffffffffffffffffff1690632e1a7d4d906024016020604051808303816000875af11580156114b6573d6000803e3d6000fd5b505050506040513d601f19601f820116820180604052508101906114da91906129bc565b611566576040517f08c379a000000000000000000000000000000000000000000000000000000000815260206004820152602360248201527f4d616e67726f76654f666665722f77697468647261772f7472616e736665724660448201527f61696c0000000000000000000000000000000000000000000000000000000000606482015260840161056b565b73ffffffffffffffffffffffffffffffffffffffff831630146115e95760405173ffffffffffffffffffffffffffffffffffffffff8416908390600081818185875af1925050503d80600081146115d9576040519150601f19603f3d011682016040523d82523d6000602084013e6115de565b606091505b50508091505061058b565b50600192915050565b6040517f23b872dd00000000000000000000000000000000000000000000000000000000815273ffffffffffffffffffffffffffffffffffffffff838116600483015230602483015260448201839052600091908516906323b872dd906064015b6020604051808303816000875af1158015611672573d6000803e3d6000fd5b505050506040513d601f19601f8201168201806040525081019061169691906129bc565b949350505050565b73ffffffffffffffffffffffffffffffffffffffff8084166000908152600460209081526040808320938616835292905290812080548392906116e2908490612967565b9091555050505050565b50565b6040517f70a08231000000000000000000000000000000000000000000000000000000008152306004820152600090819073ffffffffffffffffffffffffffffffffffffffff7f000000000000000000000000000000000000000000000000000000000000000016906370a0823190602401602060405180830381865afa15801561177e573d6000803e3d6000fd5b505050506040513d601f19601f820116820180604052508101906117a291906128e4565b905062ffffff8711156117b55760015496505b6040517f49f6d2dc00000000000000000000000000000000000000000000000000000000815273ffffffffffffffffffffffffffffffffffffffff8c811660048301528b81166024830152604482018b9052606482018a90526084820189905260a4820188905260c482018790527f000000000000000000000000000000000000000000000000000000000000000016906349f6d2dc90859060e40160206040518083038185885af1935050505080156118aa575060408051601f3d9081017fffffffffffffffffffffffffffffffffffffffffffffffffffffffffffffffe01682019092526118a7918101906128e4565b60015b61195f576118b6612d4f565b806308c379a0141561195357506118cb612d6b565b806118d65750611955565b3373ffffffffffffffffffffffffffffffffffffffff7f000000000000000000000000000000000000000000000000000000000000000016141561191f5760009250505061197e565b806040517f08c379a000000000000000000000000000000000000000000000000000000000815260040161056b9190612e13565b505b3d6000803e3d6000fd5b61196b8c8c8388612319565b61197585836123bd565b915061197e9050565b9998505050505050505050565b60006119988b8b8661123f565b73ffffffffffffffffffffffffffffffffffffffff168373ffffffffffffffffffffffffffffffffffffffff1614611a2c576040517f08c379a000000000000000000000000000000000000000000000000000000000815260206004820152601e60248201527f4d756c74692f7570646174654f666665722f756e617574686f72697a65640000604482015260640161056b565b6040517f70a082310000000000000000000000000000000000000000000000000000000081523060048201526000907f000000000000000000000000000000000000000000000000000000000000000073ffffffffffffffffffffffffffffffffffffffff16906370a0823190602401602060405180830381865afa158015611ab9573d6000803e3d6000fd5b505050506040513d601f19601f82011682018060405250810190611add91906128e4565b905062ffffff881115611af05760015497505b6040517f6a4f769100000000000000000000000000000000000000000000000000000000815273ffffffffffffffffffffffffffffffffffffffff8d811660048301528c81166024830152604482018c9052606482018b9052608482018a905260a4820189905260c4820188905260e482018790527f00000000000000000000000000000000000000000000000000000000000000001690636a4f7691908590610104016000604051808303818588803b158015611bad57600080fd5b505af193505050508015611bbf575060015b611c3457611bcb612d4f565b806308c379a014156119535750611be0612d6b565b80611beb5750611955565b3373ffffffffffffffffffffffffffffffffffffffff7f000000000000000000000000000000000000000000000000000000000000000016141561191f57600092505050611c43565b611c3e84826123bd565b849150505b9a9950505050505050505050565b600080611c7e611c64602085018561271e565b611c74604086016020870161271e565b856040013561123f565b9050611c9a611c93604085016020860161271e565b828661169e565b5060009392505050565b600080611cb7611c64602085018561271e565b90506000600481611ccb602087018761271e565b73ffffffffffffffffffffffffffffffffffffffff90811682526020808301939093526040918201600090812091861681529252902054905084811015611d3657611d23611d1c602086018661271e565b8383611d58565b611d2d818661292c565b9250505061058b565b611d4d611d46602086018661271e565b8387611d58565b60009250505061058b565b80611d6257505050565b73ffffffffffffffffffffffffffffffffffffffff808416600090815260046020908152604080832093861683529290522054811115611dfe576040517f08c379a000000000000000000000000000000000000000000000000000000000815260206004820152601d60248201527f4d756c74692f6465626974546f6b656e2f696e73756666696369656e74000000604482015260640161056b565b73ffffffffffffffffffffffffffffffffffffffff8084166000908152600460209081526040808320938616835292905290812080548392906116e290849061292c565b6040517fa9059cbb00000000000000000000000000000000000000000000000000000000815273ffffffffffffffffffffffffffffffffffffffff8381166004830152602482018390526000919085169063a9059cbb90604401611653565b73ffffffffffffffffffffffffffffffffffffffff8581166000908152600260209081526040808320888516845282528083208784529091528120549091838116911614611f4b576040517f08c379a000000000000000000000000000000000000000000000000000000000815260206004820152601f60248201527f4d756c74692f726574726163744f666665722f756e617574686f72697a656400604482015260640161056b565b6040517fad97db1b00000000000000000000000000000000000000000000000000000000815273ffffffffffffffffffffffffffffffffffffffff878116600483015286811660248301526044820186905284151560648301527f0000000000000000000000000000000000000000000000000000000000000000169063ad97db1b906084016020604051808303816000875af1158015611ff0573d6000803e3d6000fd5b505050506040513d601f19601f8201168201806040525081019061201491906128e4565b90508015610f1857610f1882826124ab565b6040517fcbf75c9a00000000000000000000000000000000000000000000000000000000815273ffffffffffffffffffffffffffffffffffffffff86811660048301528581166024830152600091829182917f00000000000000000000000000000000000000000000000000000000000000009091169063cbf75c9a906044016040805180830381865afa1580156120c2573d6000803e3d6000fd5b505050506040513d601f19601f820116820180604052508101906120e69190612943565b6040517f5722647b00000000000000000000000000000000000000000000000000000000815273ffffffffffffffffffffffffffffffffffffffff8b811660048301528a81166024830152604482018890529294509092506000917f00000000000000000000000000000000000000000000000000000000000000001690635722647b90606401602060405180830381865afa15801561218a573d6000803e3d6000fd5b505050506040513d601f19601f820116820180604052508101906121ae91906128e4565b9050600086604085901c61ffff1611156121d1575061ffff604084901c166121d4565b50855b62ffffff8811156121e55760015497505b6000816121fb62ffffff606087901c168b612967565b612205919061297f565b61221390633b9aca0061297f565b9050600061ffff602085901c1661223a62ffffff603087901c811690604888901c16612967565b612244919061297f565b61225290633b9aca0061297f565b905060006122608e83612967565b90508281101561227957612274818461292c565b61227c565b60005b9e9d5050505050505050505050505050565b7f000000000000000000000000000000000000000000000000000000000000000073ffffffffffffffffffffffffffffffffffffffff1663b60d4288826040518263ffffffff1660e01b81526004016000604051808303818588803b1580156122f657600080fd5b505af115801561230a573d6000803e3d6000fd5b505050505061104082826124ab565b73ffffffffffffffffffffffffffffffffffffffff848116600081815260026020908152604080832088861680855290835281842088855283529281902080547fffffffffffffffffffffffff00000000000000000000000000000000000000001695871695861790555193845285939192917ff4d6dd56d4e8a2abba2bcbd020eb452fe8213f9b1466dd3f17d342f9a6353435910160405180910390a450505050565b6040517f70a082310000000000000000000000000000000000000000000000000000000081523060048201526000907f000000000000000000000000000000000000000000000000000000000000000073ffffffffffffffffffffffffffffffffffffffff16906370a0823190602401602060405180830381865afa15801561244a573d6000803e3d6000fd5b505050506040513d601f19601f8201168201806040525081019061246e91906128e4565b90508181141561247d57505050565b818111156124985761096983612493848461292c565b6124ab565b610969836124a6838561292c565b611359565b73ffffffffffffffffffffffffffffffffffffffff82166000908152600360205260408120805483929061141d908490612967565b73ffffffffffffffffffffffffffffffffffffffff811681146116ec57600080fd5b6000806040838503121561251557600080fd5b8235612520816124e0565b946020939093013593505050565b6000806040838503121561254157600080fd5b823561254c816124e0565b9150602083013561255c816124e0565b809150509250929050565b60006020828403121561257957600080fd5b5035919050565b60006101208284031215610db957600080fd5b6000808284036101608112156125a857600080fd5b6125b28585612580565b925060407ffffffffffffffffffffffffffffffffffffffffffffffffffffffffffffffee0820112156125e457600080fd5b50610120830190509250929050565b600080600080600080600060e0888a03121561260e57600080fd5b8735612619816124e0565b96506020880135612629816124e0565b96999698505050506040850135946060810135946080820135945060a0820135935060c0909101359150565b60008060006060848603121561266a57600080fd5b8335612675816124e0565b92506020840135612685816124e0565b929592945050506040919091013590565b600080600080600080600080610100898b0312156126b357600080fd5b88356126be816124e0565b975060208901356126ce816124e0565b979a9799505050506040860135956060810135956080820135955060a0820135945060c0820135935060e0909101359150565b6000610120828403121561271457600080fd5b6105888383612580565b60006020828403121561273057600080fd5b8135610b30816124e0565b80151581146116ec57600080fd5b6000806000806080858703121561275f57600080fd5b843561276a816124e0565b9350602085013561277a816124e0565b92506040850135915060608501356127918161273b565b939692955090935050565b600080600080600060a086880312156127b457600080fd5b85356127bf816124e0565b945060208601356127cf816124e0565b935060408601356127df816124e0565b94979396509394606081013594506080013592915050565b6000606082018583526020606081850152818651808452608086019150828801935060005b818110156128385784518352938301939183019160010161281c565b50508481036040860152855180825290820192508186019060005b8181101561288557825173ffffffffffffffffffffffffffffffffffffffff1685529383019391830191600101612853565b509298975050505050505050565b600080600080600060a086880312156128ab57600080fd5b85356128b6816124e0565b945060208601356128c6816124e0565b94979496505050506040830135926060810135926080909101359150565b6000602082840312156128f657600080fd5b5051919050565b7f4e487b7100000000000000000000000000000000000000000000000000000000600052601160045260246000fd5b60008282101561293e5761293e6128fd565b500390565b6000806040838503121561295657600080fd5b505080516020909101519092909150565b6000821982111561297a5761297a6128fd565b500190565b6000817fffffffffffffffffffffffffffffffffffffffffffffffffffffffffffffffff04831182151516156129b7576129b76128fd565b500290565b6000602082840312156129ce57600080fd5b8151610b308161273b565b7f4e487b7100000000000000000000000000000000000000000000000000000000600052604160045260246000fd5b6080810181811067ffffffffffffffff82111715612a2857612a286129d9565b60405250565b7fffffffffffffffffffffffffffffffffffffffffffffffffffffffffffffffe0601f830116810181811067ffffffffffffffff82111715612a7257612a726129d9565b6040525050565b600067ffffffffffffffff821115612a9357612a936129d9565b5060051b60200190565b600082601f830112612aae57600080fd5b81516020612abb82612a79565b60408051612ac98382612a2e565b84815260079490941b8601830193838101925087851115612ae957600080fd5b8387015b85811015612b3d576080818a031215612b065760008081fd5b8251612b1181612a08565b815181528582015186820152838201518482015260608083015190820152845292840192608001612aed565b50979650505050505050565b600082601f830112612b5a57600080fd5b81516020612b6782612a79565b60408051612b758382612a2e565b84815260079490941b8601830193838101925087851115612b9557600080fd5b8387015b85811015612b3d576080818a031215612bb25760008081fd5b8251612bbd81612a08565b8151612bc8816124e0565b81528186015186820152838201518482015260608083015190820152845292840192608001612b99565b60008060008060808587031215612c0857600080fd5b8451935060208086015167ffffffffffffffff80821115612c2857600080fd5b818801915088601f830112612c3c57600080fd5b8151612c4781612a79565b604051612c548282612a2e565b82815260059290921b840185019185810191508b831115612c7457600080fd5b938501935b82851015612c9257845182529385019390850190612c79565b60408b01519098509450505080831115612cab57600080fd5b612cb789848a01612a9d565b94506060880151925080831115612ccd57600080fd5b5050612cdb87828801612b49565b91505092959194509250565b7f4e487b7100000000000000000000000000000000000000000000000000000000600052603260045260246000fd5b60007fffffffffffffffffffffffffffffffffffffffffffffffffffffffffffffffff821415612d4857612d486128fd565b5060010190565b600060033d1115612d685760046000803e5060005160e01c5b90565b600060443d1015612d795790565b6040517ffffffffffffffffffffffffffffffffffffffffffffffffffffffffffffffffc803d016004833e81513d67ffffffffffffffff8160248401118184111715612dc757505050505090565b8285019150815181811115612ddf5750505050505090565b843d8701016020828501011115612df95750505050505090565b612e0860208286010187612a2e565b509095945050505050565b600060208083528351808285015260005b81811015612e4057858101830151858201604001528201612e24565b81811115612e52576000604083870101525b50601f017fffffffffffffffffffffffffffffffffffffffffffffffffffffffffffffffe01692909201604001939250505056fea264697066735822122031d069de93a97ff9fb620d516dfbdc0ac19411f1e089b496a98b94c6c706cf1264736f6c634300080a0033",
  "linkReferences": {},
  "deployedLinkReferences": {}
}