{
  "_format": "hh-sol-artifact-1",
  "contractName": "SimpleMaker",
  "sourceName": "cache/solpp-generated-contracts/Strategies/OfferLogics/SingleUser/Deployable/SimpleMaker.sol",
  "abi": [
    {
      "inputs": [
        {
          "internalType": "address payable",
          "name": "_MGV",
          "type": "address"
        }
      ],
      "stateMutability": "nonpayable",
      "type": "constructor"
    },
    {
      "anonymous": false,
      "inputs": [
        {
          "indexed": true,
          "internalType": "address",
          "name": "outbound_tkn",
          "type": "address"
        },
        {
          "indexed": true,
          "internalType": "address",
          "name": "inbound_tkn",
          "type": "address"
        },
        {
          "indexed": false,
          "internalType": "uint256",
          "name": "offerId",
          "type": "uint256"
        },
        {
          "indexed": false,
          "internalType": "uint256",
          "name": "missingAmount",
          "type": "uint256"
        }
      ],
      "name": "GetFail",
      "type": "event"
    },
    {
      "anonymous": false,
      "inputs": [
        {
          "indexed": true,
          "internalType": "address",
          "name": "outbound_tkn",
          "type": "address"
        },
        {
          "indexed": true,
          "internalType": "address",
          "name": "inbound_tkn",
          "type": "address"
        },
        {
          "indexed": false,
          "internalType": "uint256",
          "name": "offerId",
          "type": "uint256"
        },
        {
          "indexed": false,
          "internalType": "string",
          "name": "message",
          "type": "string"
        }
      ],
      "name": "PosthookFail",
      "type": "event"
    },
    {
      "anonymous": false,
      "inputs": [
        {
          "indexed": true,
          "internalType": "address",
          "name": "outbound_tkn",
          "type": "address"
        },
        {
          "indexed": true,
          "internalType": "address",
          "name": "inbound_tkn",
          "type": "address"
        },
        {
          "indexed": false,
          "internalType": "uint256",
          "name": "offerId",
          "type": "uint256"
        },
        {
          "indexed": false,
          "internalType": "uint256",
          "name": "missingAmount",
          "type": "uint256"
        }
      ],
      "name": "PutFail",
      "type": "event"
    },
    {
      "anonymous": false,
      "inputs": [
        {
          "indexed": true,
          "internalType": "address",
          "name": "outbound_tkn",
          "type": "address"
        },
        {
          "indexed": true,
          "internalType": "address",
          "name": "inbound_tkn",
          "type": "address"
        },
        {
          "indexed": false,
          "internalType": "uint256",
          "name": "offerId",
          "type": "uint256"
        }
      ],
      "name": "Reneged",
      "type": "event"
    },
    {
      "inputs": [],
      "name": "OFR_GASREQ",
      "outputs": [
        {
          "internalType": "uint256",
          "name": "",
          "type": "uint256"
        }
      ],
      "stateMutability": "view",
      "type": "function"
    },
    {
      "inputs": [],
      "name": "admin",
      "outputs": [
        {
          "internalType": "address",
          "name": "",
          "type": "address"
        }
      ],
      "stateMutability": "view",
      "type": "function"
    },
    {
      "inputs": [
        {
          "internalType": "address",
          "name": "outbound_tkn",
          "type": "address"
        },
        {
          "internalType": "uint256",
          "name": "amount",
          "type": "uint256"
        }
      ],
      "name": "approveMangrove",
      "outputs": [],
      "stateMutability": "nonpayable",
      "type": "function"
    },
    {
      "inputs": [],
      "name": "fundMangrove",
      "outputs": [],
      "stateMutability": "payable",
      "type": "function"
    },
    {
      "inputs": [
        {
          "internalType": "address",
          "name": "outbound_tkn",
          "type": "address"
        },
        {
          "internalType": "address",
          "name": "inbound_tkn",
          "type": "address"
        },
        {
          "internalType": "uint256",
          "name": "gasreq",
          "type": "uint256"
        },
        {
          "internalType": "uint256",
          "name": "gasprice",
          "type": "uint256"
        },
        {
          "internalType": "uint256",
          "name": "offerId",
          "type": "uint256"
        }
      ],
      "name": "getMissingProvision",
      "outputs": [
        {
          "internalType": "uint256",
          "name": "",
          "type": "uint256"
        }
      ],
      "stateMutability": "view",
      "type": "function"
    },
    {
      "inputs": [
        {
          "components": [
            {
              "internalType": "address",
              "name": "outbound_tkn",
              "type": "address"
            },
            {
              "internalType": "address",
              "name": "inbound_tkn",
              "type": "address"
            },
            {
              "internalType": "uint256",
              "name": "offerId",
              "type": "uint256"
            },
            {
              "internalType": "bytes32",
              "name": "offer",
              "type": "bytes32"
            },
            {
              "internalType": "uint256",
              "name": "wants",
              "type": "uint256"
            },
            {
              "internalType": "uint256",
              "name": "gives",
              "type": "uint256"
            },
            {
              "internalType": "bytes32",
              "name": "offerDetail",
              "type": "bytes32"
            },
            {
              "internalType": "bytes32",
              "name": "global",
              "type": "bytes32"
            },
            {
              "internalType": "bytes32",
              "name": "local",
              "type": "bytes32"
            }
          ],
          "internalType": "struct MgvLib.SingleOrder",
          "name": "order",
          "type": "tuple"
        }
      ],
      "name": "makerExecute",
      "outputs": [
        {
          "internalType": "bytes32",
          "name": "ret",
          "type": "bytes32"
        }
      ],
      "stateMutability": "nonpayable",
      "type": "function"
    },
    {
      "inputs": [
        {
          "components": [
            {
              "internalType": "address",
              "name": "outbound_tkn",
              "type": "address"
            },
            {
              "internalType": "address",
              "name": "inbound_tkn",
              "type": "address"
            },
            {
              "internalType": "uint256",
              "name": "offerId",
              "type": "uint256"
            },
            {
              "internalType": "bytes32",
              "name": "offer",
              "type": "bytes32"
            },
            {
              "internalType": "uint256",
              "name": "wants",
              "type": "uint256"
            },
            {
              "internalType": "uint256",
              "name": "gives",
              "type": "uint256"
            },
            {
              "internalType": "bytes32",
              "name": "offerDetail",
              "type": "bytes32"
            },
            {
              "internalType": "bytes32",
              "name": "global",
              "type": "bytes32"
            },
            {
              "internalType": "bytes32",
              "name": "local",
              "type": "bytes32"
            }
          ],
          "internalType": "struct MgvLib.SingleOrder",
          "name": "order",
          "type": "tuple"
        },
        {
          "components": [
            {
              "internalType": "bytes32",
              "name": "makerData",
              "type": "bytes32"
            },
            {
              "internalType": "bytes32",
              "name": "mgvData",
              "type": "bytes32"
            }
          ],
          "internalType": "struct MgvLib.OrderResult",
          "name": "result",
          "type": "tuple"
        }
      ],
      "name": "makerPosthook",
      "outputs": [],
      "stateMutability": "nonpayable",
      "type": "function"
    },
    {
      "inputs": [
        {
          "internalType": "address",
          "name": "outbound_tkn",
          "type": "address"
        },
        {
          "internalType": "address",
          "name": "inbound_tkn",
          "type": "address"
        },
        {
          "internalType": "uint256",
          "name": "wants",
          "type": "uint256"
        },
        {
          "internalType": "uint256",
          "name": "gives",
          "type": "uint256"
        },
        {
          "internalType": "uint256",
          "name": "gasreq",
          "type": "uint256"
        },
        {
          "internalType": "uint256",
          "name": "gasprice",
          "type": "uint256"
        },
        {
          "internalType": "uint256",
          "name": "pivotId",
          "type": "uint256"
        }
      ],
      "name": "newOffer",
      "outputs": [
        {
          "internalType": "uint256",
          "name": "offerId",
          "type": "uint256"
        }
      ],
      "stateMutability": "payable",
      "type": "function"
    },
    {
      "inputs": [
        {
          "internalType": "address",
          "name": "token",
          "type": "address"
        },
        {
          "internalType": "uint256",
          "name": "amount",
          "type": "uint256"
        }
      ],
      "name": "redeemToken",
      "outputs": [
        {
          "internalType": "bool",
          "name": "success",
          "type": "bool"
        }
      ],
      "stateMutability": "nonpayable",
      "type": "function"
    },
    {
      "inputs": [
        {
          "internalType": "address",
          "name": "outbound_tkn",
          "type": "address"
        },
        {
          "internalType": "address",
          "name": "inbound_tkn",
          "type": "address"
        },
        {
          "internalType": "uint256",
          "name": "offerId",
          "type": "uint256"
        },
        {
          "internalType": "bool",
          "name": "deprovision",
          "type": "bool"
        }
      ],
      "name": "retractOffer",
      "outputs": [
        {
          "internalType": "uint256",
          "name": "",
          "type": "uint256"
        }
      ],
      "stateMutability": "nonpayable",
      "type": "function"
    },
    {
      "inputs": [
        {
          "internalType": "address",
          "name": "_admin",
          "type": "address"
        }
      ],
      "name": "setAdmin",
      "outputs": [],
      "stateMutability": "nonpayable",
      "type": "function"
    },
    {
      "inputs": [
        {
          "internalType": "uint256",
          "name": "gasreq",
          "type": "uint256"
        }
      ],
      "name": "setGasreq",
      "outputs": [],
      "stateMutability": "nonpayable",
      "type": "function"
    },
    {
      "inputs": [
        {
          "internalType": "address",
          "name": "outbound_tkn",
          "type": "address"
        },
        {
          "internalType": "address",
          "name": "inbound_tkn",
          "type": "address"
        },
        {
          "internalType": "uint256",
          "name": "wants",
          "type": "uint256"
        },
        {
          "internalType": "uint256",
          "name": "gives",
          "type": "uint256"
        },
        {
          "internalType": "uint256",
          "name": "gasreq",
          "type": "uint256"
        },
        {
          "internalType": "uint256",
          "name": "gasprice",
          "type": "uint256"
        },
        {
          "internalType": "uint256",
          "name": "pivotId",
          "type": "uint256"
        },
        {
          "internalType": "uint256",
          "name": "offerId",
          "type": "uint256"
        }
      ],
      "name": "updateOffer",
      "outputs": [],
      "stateMutability": "payable",
      "type": "function"
    },
    {
      "inputs": [
        {
          "internalType": "address",
          "name": "receiver",
          "type": "address"
        },
        {
          "internalType": "uint256",
          "name": "amount",
          "type": "uint256"
        }
      ],
      "name": "withdrawFromMangrove",
      "outputs": [
        {
          "internalType": "bool",
          "name": "noRevert",
          "type": "bool"
        }
      ],
      "stateMutability": "nonpayable",
      "type": "function"
    },
    {
      "stateMutability": "payable",
      "type": "receive"
    }
  ],
  "bytecode": "0x60a0604052620186a060015534801561001757600080fd5b50604051611be9380380611be98339810160408190526100369161005f565b60008054336001600160a01b031990911617905560601b6001600160601b03191660805261008d565b600060208284031215610070578081fd5b81516001600160a01b0381168114610086578182fd5b9392505050565b60805160601c611b086100e1600039806103fd52806104e852806105e052806106cb52806108ce52806109c75280610cb25280610cd35280610d905280610ee85280610fa952806111a45250611b086000f3fe6080604052600436106100e15760003560e01c8063aefe84031161007f578063e4c34f8411610059578063e4c34f841461022d578063eb87009e1461024d578063f851a4401461026d578063faa030ec1461028f576100e8565b8063aefe8403146101d8578063e3424811146101f8578063e428204d14610218576100e8565b80636a4f7691116100bb5780636a4f769114610165578063704b6c0214610178578063830cbbbd14610198578063ad97db1b146101b8576100e8565b8063063df2d2146100ed57806334bd89311461012357806349f6d2dc14610145576100e8565b366100e857005b600080fd5b3480156100f957600080fd5b5061010d610108366004611770565b610297565b60405161011a91906119fd565b60405180910390f35b34801561012f57600080fd5b5061014361013e366004611871565b610305565b005b6101586101533660046116ad565b6103a3565b60405161011a9190611a08565b61014361017336600461170a565b610587565b34801561018457600080fd5b506101436101933660046115f9565b61074a565b3480156101a457600080fd5b5061010d6101b3366004611770565b6107e2565b3480156101c457600080fd5b506101586101d3366004611613565b61083f565b3480156101e457600080fd5b506101436101f3366004611770565b610964565b34801561020457600080fd5b506101586102133660046117f7565b6109c3565b34801561022457600080fd5b50610158610ca5565b34801561023957600080fd5b50610158610248366004611661565b610cab565b34801561025957600080fd5b50610143610268366004611813565b610d8e565b34801561027957600080fd5b50610282610eca565b60405161011a919061188c565b610143610ee6565b6000805473ffffffffffffffffffffffffffffffffffffffff1633146102f2576040517f08c379a00000000000000000000000000000000000000000000000000000000081526004016102e990611a48565b60405180910390fd5b6102fc8383610f69565b90505b92915050565b60005473ffffffffffffffffffffffffffffffffffffffff1633148061032a57503330145b610360576040517f08c379a00000000000000000000000000000000000000000000000000000000081526004016102e990611a48565b808162ffffff161461039e576040517f08c379a00000000000000000000000000000000000000000000000000000000081526004016102e990611a7f565b600155565b6000805473ffffffffffffffffffffffffffffffffffffffff1633146103f5576040517f08c379a00000000000000000000000000000000000000000000000000000000081526004016102e990611a48565b341561047d577f000000000000000000000000000000000000000000000000000000000000000073ffffffffffffffffffffffffffffffffffffffff1663b60d4288346040518263ffffffff1660e01b81526004016000604051808303818588803b15801561046357600080fd5b505af1158015610477573d6000803e3d6000fd5b50505050505b7fffffffffffffffffffffffffffffffffffffffffffffffffffffffffffffffff8414156104ab5760015493505b6040517f49f6d2dc00000000000000000000000000000000000000000000000000000000815273ffffffffffffffffffffffffffffffffffffffff7f000000000000000000000000000000000000000000000000000000000000000016906349f6d2dc90610529908b908b908b908b908b908b908b90600401611961565b602060405180830381600087803b15801561054357600080fd5b505af1158015610557573d6000803e3d6000fd5b505050506040513d601f19601f8201168201806040525081019061057b91906117bc565b98975050505050505050565b60005473ffffffffffffffffffffffffffffffffffffffff1633146105d8576040517f08c379a00000000000000000000000000000000000000000000000000000000081526004016102e990611a48565b3415610660577f000000000000000000000000000000000000000000000000000000000000000073ffffffffffffffffffffffffffffffffffffffff1663b60d4288346040518263ffffffff1660e01b81526004016000604051808303818588803b15801561064657600080fd5b505af115801561065a573d6000803e3d6000fd5b50505050505b7fffffffffffffffffffffffffffffffffffffffffffffffffffffffffffffffff84141561068e5760015493505b6040517f6a4f769100000000000000000000000000000000000000000000000000000000815273ffffffffffffffffffffffffffffffffffffffff7f00000000000000000000000000000000000000000000000000000000000000001690636a4f76919061070e908b908b908b908b908b908b908b908b906004016119ac565b600060405180830381600087803b15801561072857600080fd5b505af115801561073c573d6000803e3d6000fd5b505050505050505050505050565b60005473ffffffffffffffffffffffffffffffffffffffff16331461079b576040517f08c379a00000000000000000000000000000000000000000000000000000000081526004016102e990611a48565b600080547fffffffffffffffffffffffff00000000000000000000000000000000000000001673ffffffffffffffffffffffffffffffffffffffff92909216919091179055565b6000805473ffffffffffffffffffffffffffffffffffffffff163314610834576040517f08c379a00000000000000000000000000000000000000000000000000000000081526004016102e990611a48565b6102fc8333846110a9565b6000805473ffffffffffffffffffffffffffffffffffffffff163314610891576040517f08c379a00000000000000000000000000000000000000000000000000000000081526004016102e990611a48565b6040517fad97db1b00000000000000000000000000000000000000000000000000000000815273ffffffffffffffffffffffffffffffffffffffff7f0000000000000000000000000000000000000000000000000000000000000000169063ad97db1b9061090990889088908890889060040161192b565b602060405180830381600087803b15801561092357600080fd5b505af1158015610937573d6000803e3d6000fd5b505050506040513d601f19601f8201168201806040525081019061095b91906117bc565b95945050505050565b60005473ffffffffffffffffffffffffffffffffffffffff1633146109b5576040517f08c379a00000000000000000000000000000000000000000000000000000000081526004016102e990611a48565b6109bf828261115a565b5050565b60007f000000000000000000000000000000000000000000000000000000000000000073ffffffffffffffffffffffffffffffffffffffff81161580610a1e57503373ffffffffffffffffffffffffffffffffffffffff8216145b610a54576040517f08c379a00000000000000000000000000000000000000000000000000000000081526004016102e990611a48565b610a5d83611256565b610b0d57610a7160408401602085016115f9565b73ffffffffffffffffffffffffffffffffffffffff16610a9460208501856115f9565b73ffffffffffffffffffffffffffffffffffffffff167f5c3a327c0caf47aa560dbca16cce241483daac785fd723d9e0fb2af3256373bf8560400135604051610add9190611a08565b60405180910390a37f6d67764f666665722f72656e65676564000000000000000000000000000000009150610c9f565b6000610b1d8460a001358561125c565b90508015610bd457610b3560408501602086016115f9565b73ffffffffffffffffffffffffffffffffffffffff16610b5860208601866115f9565b73ffffffffffffffffffffffffffffffffffffffff167f3482722a7c71a098521214cdb975e1d9faa0b0163f768e89566f7acc36cffd0b866040013584604051610ba3929190611ab6565b60405180910390a37f6d67764f666665722f7075744661696c75726500000000000000000000000000925050610c9f565b6000610be4856080013586611264565b90508015610c9c57610bfc60408601602087016115f9565b73ffffffffffffffffffffffffffffffffffffffff16610c1f60208701876115f9565b73ffffffffffffffffffffffffffffffffffffffff167fc99fe658c80b903af0e1270f4a55564b3a7509294ab1052c6ab07f8198baea67876040013584604051610c6a929190611ab6565b60405180910390a37f6d67764f666665722f6f75744f664c697175696469747900000000000000000093505050610c9f565b50505b50919050565b60015481565b6000610d847f00000000000000000000000000000000000000000000000000000000000000007f000000000000000000000000000000000000000000000000000000000000000073ffffffffffffffffffffffffffffffffffffffff166370a08231306040518263ffffffff1660e01b8152600401610d2a919061188c565b60206040518083038186803b158015610d4257600080fd5b505afa158015610d56573d6000803e3d6000fd5b505050506040513d601f19601f82011682018060405250810190610d7a91906117bc565b8888888888611318565b9695505050505050565b7f000000000000000000000000000000000000000000000000000000000000000073ffffffffffffffffffffffffffffffffffffffff81161580610de757503373ffffffffffffffffffffffffffffffffffffffff8216145b610e1d576040517f08c379a00000000000000000000000000000000000000000000000000000000081526004016102e990611a48565b81602001357f6d67762f747261646553756363657373000000000000000000000000000000001415610e5757610e5283611573565b610ec5565b81357f6d67764f666665722f6f75744f664c69717569646974790000000000000000001415610e8957610e5283611573565b81357f6d67764f666665722f72656e65676564000000000000000000000000000000001415610ebb57610e5283611573565b610ec583836109bf565b505050565b60005473ffffffffffffffffffffffffffffffffffffffff1681565b7f000000000000000000000000000000000000000000000000000000000000000073ffffffffffffffffffffffffffffffffffffffff1663b60d4288346040518263ffffffff1660e01b81526004016000604051808303818588803b158015610f4e57600080fd5b505af1158015610f62573d6000803e3d6000fd5b5050505050565b6040517f2e1a7d4d00000000000000000000000000000000000000000000000000000000815260009073ffffffffffffffffffffffffffffffffffffffff7f00000000000000000000000000000000000000000000000000000000000000001690632e1a7d4d90610fde908590600401611a08565b602060405180830381600087803b158015610ff857600080fd5b505af115801561100c573d6000803e3d6000fd5b505050506040513d601f19601f820116820180604052508101906110309190611799565b61103957600080fd5b8273ffffffffffffffffffffffffffffffffffffffff168260405161105d90611889565b60006040518083038185875af1925050503d806000811461109a576040519150601f19603f3d011682016040523d82523d6000602084013e61109f565b606091505b5090949350505050565b6040517fa9059cbb00000000000000000000000000000000000000000000000000000000815260009073ffffffffffffffffffffffffffffffffffffffff85169063a9059cbb9061110090869086906004016118ad565b602060405180830381600087803b15801561111a57600080fd5b505af115801561112e573d6000803e3d6000fd5b505050506040513d601f19601f820116820180604052508101906111529190611799565b949350505050565b6040517f095ea7b300000000000000000000000000000000000000000000000000000000815273ffffffffffffffffffffffffffffffffffffffff83169063095ea7b3906111ce907f00000000000000000000000000000000000000000000000000000000000000009085906004016118ad565b602060405180830381600087803b1580156111e857600080fd5b505af11580156111fc573d6000803e3d6000fd5b505050506040513d601f19601f820116820180604052508101906112209190611799565b6109bf576040517f08c379a00000000000000000000000000000000000000000000000000000000081526004016102e990611a11565b50600190565b600092915050565b60008061127460208401846115f9565b73ffffffffffffffffffffffffffffffffffffffff166370a08231306040518263ffffffff1660e01b81526004016112ac919061188c565b60206040518083038186803b1580156112c457600080fd5b505afa1580156112d8573d6000803e3d6000fd5b505050506040513d601f19601f820116820180604052508101906112fc91906117bc565b905083811061130f5760009150506102ff565b830390506102ff565b60008060008973ffffffffffffffffffffffffffffffffffffffff1663cbf75c9a89896040518363ffffffff1660e01b81526004016113589291906118d3565b604080518083038186803b15801561136f57600080fd5b505afa158015611383573d6000803e3d6000fd5b505050506040513d601f19601f820116820180604052508101906113a791906117d4565b9150915060008a73ffffffffffffffffffffffffffffffffffffffff166368c13d6b8a8a886040518463ffffffff1660e01b81526004016113ea939291906118fa565b60206040518083038186803b15801561140257600080fd5b505afa158015611416573d6000803e3d6000fd5b505050506040513d601f19601f8201168201806040525081019061143a91906117bc565b905060008b73ffffffffffffffffffffffffffffffffffffffff16635722647b8b8b896040518463ffffffff1660e01b815260040161147b939291906118fa565b60206040518083038186803b15801561149357600080fd5b505afa1580156114a7573d6000803e3d6000fd5b505050506040513d601f19601f820116820180604052508101906114cb91906117bc565b90506000876114d986611576565b11156114ef576114e885611576565b90506114f2565b50865b6000816114fe86611585565b61150787611590565b8c010102633b9aca00029050600061151e8561159b565b611527856115a2565b611530866115ad565b611539876115b8565b010102633b9aca0002905060008e820190508281101561155b5780830361155e565b60005b98505050505050505050979650505050505050565b50565b61ffff604082901c165b919050565b60381c62ffffff1690565b60501c62ffffff1690565b61ffff1690565b60181c62ffffff1690565b60301c62ffffff1690565b60481c62ffffff1690565b803573ffffffffffffffffffffffffffffffffffffffff8116811461158057600080fd5b60006101208284031215610c9f578081fd5b60006020828403121561160a578081fd5b6102fc826115c3565b60008060008060808587031215611628578283fd5b611631856115c3565b935061163f602086016115c3565b925060408501359150606085013561165681611ac4565b939692955090935050565b600080600080600060a08688031215611678578081fd5b611681866115c3565b945061168f602087016115c3565b94979496505050506040830135926060810135926080909101359150565b600080600080600080600060e0888a0312156116c7578182fd5b6116d0886115c3565b96506116de602089016115c3565b96999698505050506040850135946060810135946080820135945060a0820135935060c0909101359150565b600080600080600080600080610100898b031215611726578081fd5b61172f896115c3565b975061173d60208a016115c3565b979a9799505050506040860135956060810135956080820135955060a0820135945060c0820135935060e0909101359150565b60008060408385031215611782578182fd5b61178b836115c3565b946020939093013593505050565b6000602082840312156117aa578081fd5b81516117b581611ac4565b9392505050565b6000602082840312156117cd578081fd5b5051919050565b600080604083850312156117e6578182fd5b505080516020909101519092909150565b60006101208284031215611809578081fd5b6102fc83836115e7565b600080828403610160811215611827578283fd5b61183185856115e7565b925060407ffffffffffffffffffffffffffffffffffffffffffffffffffffffffffffffee082011215611862578182fd5b50610120830190509250929050565b600060208284031215611882578081fd5b5035919050565b90565b73ffffffffffffffffffffffffffffffffffffffff91909116815260200190565b73ffffffffffffffffffffffffffffffffffffffff929092168252602082015260400190565b73ffffffffffffffffffffffffffffffffffffffff92831681529116602082015260400190565b73ffffffffffffffffffffffffffffffffffffffff9384168152919092166020820152604081019190915260600190565b73ffffffffffffffffffffffffffffffffffffffff94851681529290931660208301526040820152901515606082015260800190565b73ffffffffffffffffffffffffffffffffffffffff978816815295909616602086015260408501939093526060840191909152608083015260a082015260c081019190915260e00190565b73ffffffffffffffffffffffffffffffffffffffff988916815296909716602087015260408601949094526060850192909252608084015260a083015260c082015260e08101919091526101000190565b901515815260200190565b90815260200190565b60208082526015908201527f6d67764f666665722f617070726f76652f4661696c0000000000000000000000604082015260600190565b60208082526018908201527f416363657373436f6e74726f6c6c65642f496e76616c69640000000000000000604082015260600190565b6020808252601d908201527f4d616e67726f76654f666665722f6761737265712f6f766572666c6f77000000604082015260600190565b918252602082015260400190565b801515811461157357600080fdfea26469706673582212203c23d2261473252b05eee035faafc6dd4650ef89be454a75398185969adc729f64736f6c63430007060033",
  "linkReferences": {},
  "deployedLinkReferences": {}
}