{
  "_format": "hh-sol-artifact-1",
  "contractName": "SimpleMaker",
  "sourceName": "cache/solpp-generated-contracts/Strategies/OfferLogics/SingleUser/Deployable/SimpleMaker.sol",
  "abi": [
    {
      "inputs": [
        {
          "internalType": "address payable",
          "name": "_MGV",
          "type": "address"
        }
      ],
      "stateMutability": "nonpayable",
      "type": "constructor"
    },
    {
      "anonymous": false,
      "inputs": [
        {
          "indexed": true,
          "internalType": "address",
          "name": "outbound_tkn",
          "type": "address"
        },
        {
          "indexed": true,
          "internalType": "address",
          "name": "inbound_tkn",
          "type": "address"
        },
        {
          "indexed": false,
          "internalType": "uint256",
          "name": "offerId",
          "type": "uint256"
        },
        {
          "indexed": false,
          "internalType": "uint256",
          "name": "amount",
          "type": "uint256"
        }
      ],
      "name": "GetFail",
      "type": "event"
    },
    {
      "anonymous": false,
      "inputs": [
        {
          "indexed": true,
          "internalType": "address",
          "name": "outbound_tkn",
          "type": "address"
        },
        {
          "indexed": true,
          "internalType": "address",
          "name": "inbound_tkn",
          "type": "address"
        },
        {
          "indexed": false,
          "internalType": "uint256",
          "name": "offerId",
          "type": "uint256"
        },
        {
          "indexed": false,
          "internalType": "string",
          "name": "message",
          "type": "string"
        }
      ],
      "name": "PosthookFail",
      "type": "event"
    },
    {
      "anonymous": false,
      "inputs": [
        {
          "indexed": true,
          "internalType": "address",
          "name": "outbound_tkn",
          "type": "address"
        },
        {
          "indexed": true,
          "internalType": "address",
          "name": "inbound_tkn",
          "type": "address"
        },
        {
          "indexed": false,
          "internalType": "uint256",
          "name": "offerId",
          "type": "uint256"
        },
        {
          "indexed": false,
          "internalType": "uint256",
          "name": "amount",
          "type": "uint256"
        }
      ],
      "name": "PutFail",
      "type": "event"
    },
    {
      "anonymous": false,
      "inputs": [
        {
          "indexed": true,
          "internalType": "address",
          "name": "outbound_tkn",
          "type": "address"
        },
        {
          "indexed": true,
          "internalType": "address",
          "name": "inbound_tkn",
          "type": "address"
        },
        {
          "indexed": false,
          "internalType": "uint256",
          "name": "offerId",
          "type": "uint256"
        }
      ],
      "name": "Reneged",
      "type": "event"
    },
    {
      "inputs": [],
      "name": "OFR_GASREQ",
      "outputs": [
        {
          "internalType": "uint256",
          "name": "",
          "type": "uint256"
        }
      ],
      "stateMutability": "view",
      "type": "function"
    },
    {
      "inputs": [],
      "name": "admin",
      "outputs": [
        {
          "internalType": "address",
          "name": "",
          "type": "address"
        }
      ],
      "stateMutability": "view",
      "type": "function"
    },
    {
      "inputs": [
        {
          "internalType": "address",
          "name": "outbound_tkn",
          "type": "address"
        },
        {
          "internalType": "uint256",
          "name": "amount",
          "type": "uint256"
        }
      ],
      "name": "approveMangrove",
      "outputs": [],
      "stateMutability": "nonpayable",
      "type": "function"
    },
    {
      "inputs": [
        {
          "internalType": "address",
          "name": "outbound_tkn",
          "type": "address"
        },
        {
          "internalType": "address",
          "name": "inbound_tkn",
          "type": "address"
        },
        {
          "internalType": "uint256",
          "name": "gasreq",
          "type": "uint256"
        },
        {
          "internalType": "uint256",
          "name": "gasprice",
          "type": "uint256"
        },
        {
          "internalType": "uint256",
          "name": "offerId",
          "type": "uint256"
        }
      ],
      "name": "getMissingProvision",
      "outputs": [
        {
          "internalType": "uint256",
          "name": "",
          "type": "uint256"
        }
      ],
      "stateMutability": "view",
      "type": "function"
    },
    {
      "inputs": [
        {
          "components": [
            {
              "internalType": "address",
              "name": "outbound_tkn",
              "type": "address"
            },
            {
              "internalType": "address",
              "name": "inbound_tkn",
              "type": "address"
            },
            {
              "internalType": "uint256",
              "name": "offerId",
              "type": "uint256"
            },
            {
              "internalType": "bytes32",
              "name": "offer",
              "type": "bytes32"
            },
            {
              "internalType": "uint256",
              "name": "wants",
              "type": "uint256"
            },
            {
              "internalType": "uint256",
              "name": "gives",
              "type": "uint256"
            },
            {
              "internalType": "bytes32",
              "name": "offerDetail",
              "type": "bytes32"
            },
            {
              "internalType": "bytes32",
              "name": "global",
              "type": "bytes32"
            },
            {
              "internalType": "bytes32",
              "name": "local",
              "type": "bytes32"
            }
          ],
          "internalType": "struct MgvLib.SingleOrder",
          "name": "order",
          "type": "tuple"
        }
      ],
      "name": "makerExecute",
      "outputs": [
        {
          "internalType": "bytes32",
          "name": "ret",
          "type": "bytes32"
        }
      ],
      "stateMutability": "nonpayable",
      "type": "function"
    },
    {
      "inputs": [
        {
          "components": [
            {
              "internalType": "address",
              "name": "outbound_tkn",
              "type": "address"
            },
            {
              "internalType": "address",
              "name": "inbound_tkn",
              "type": "address"
            },
            {
              "internalType": "uint256",
              "name": "offerId",
              "type": "uint256"
            },
            {
              "internalType": "bytes32",
              "name": "offer",
              "type": "bytes32"
            },
            {
              "internalType": "uint256",
              "name": "wants",
              "type": "uint256"
            },
            {
              "internalType": "uint256",
              "name": "gives",
              "type": "uint256"
            },
            {
              "internalType": "bytes32",
              "name": "offerDetail",
              "type": "bytes32"
            },
            {
              "internalType": "bytes32",
              "name": "global",
              "type": "bytes32"
            },
            {
              "internalType": "bytes32",
              "name": "local",
              "type": "bytes32"
            }
          ],
          "internalType": "struct MgvLib.SingleOrder",
          "name": "order",
          "type": "tuple"
        },
        {
          "components": [
            {
              "internalType": "bytes32",
              "name": "makerData",
              "type": "bytes32"
            },
            {
              "internalType": "bytes32",
              "name": "mgvData",
              "type": "bytes32"
            }
          ],
          "internalType": "struct MgvLib.OrderResult",
          "name": "result",
          "type": "tuple"
        }
      ],
      "name": "makerPosthook",
      "outputs": [],
      "stateMutability": "nonpayable",
      "type": "function"
    },
    {
      "inputs": [
        {
          "internalType": "address",
          "name": "outbound_tkn",
          "type": "address"
        },
        {
          "internalType": "address",
          "name": "inbound_tkn",
          "type": "address"
        },
        {
          "internalType": "uint256",
          "name": "wants",
          "type": "uint256"
        },
        {
          "internalType": "uint256",
          "name": "gives",
          "type": "uint256"
        },
        {
          "internalType": "uint256",
          "name": "gasreq",
          "type": "uint256"
        },
        {
          "internalType": "uint256",
          "name": "gasprice",
          "type": "uint256"
        },
        {
          "internalType": "uint256",
          "name": "pivotId",
          "type": "uint256"
        }
      ],
      "name": "newOffer",
      "outputs": [
        {
          "internalType": "uint256",
          "name": "offerId",
          "type": "uint256"
        }
      ],
      "stateMutability": "nonpayable",
      "type": "function"
    },
    {
      "inputs": [
        {
          "internalType": "address",
          "name": "outbound_tkn",
          "type": "address"
        },
        {
          "internalType": "address",
          "name": "inbound_tkn",
          "type": "address"
        },
        {
          "internalType": "uint256",
          "name": "offerId",
          "type": "uint256"
        },
        {
          "internalType": "bool",
          "name": "deprovision",
          "type": "bool"
        }
      ],
      "name": "retractOffer",
      "outputs": [
        {
          "internalType": "uint256",
          "name": "",
          "type": "uint256"
        }
      ],
      "stateMutability": "nonpayable",
      "type": "function"
    },
    {
      "inputs": [
        {
          "internalType": "address",
          "name": "_admin",
          "type": "address"
        }
      ],
      "name": "setAdmin",
      "outputs": [],
      "stateMutability": "nonpayable",
      "type": "function"
    },
    {
      "inputs": [
        {
          "internalType": "uint256",
          "name": "gasreq",
          "type": "uint256"
        }
      ],
      "name": "setGasreq",
      "outputs": [],
      "stateMutability": "nonpayable",
      "type": "function"
    },
    {
      "inputs": [
        {
          "internalType": "address",
          "name": "recipient",
          "type": "address"
        },
        {
          "internalType": "uint256",
          "name": "amount",
          "type": "uint256"
        }
      ],
      "name": "transferETH",
      "outputs": [
        {
          "internalType": "bool",
          "name": "success",
          "type": "bool"
        }
      ],
      "stateMutability": "nonpayable",
      "type": "function"
    },
    {
      "inputs": [
        {
          "internalType": "address",
          "name": "token",
          "type": "address"
        },
        {
          "internalType": "address",
          "name": "recipient",
          "type": "address"
        },
        {
          "internalType": "uint256",
          "name": "amount",
          "type": "uint256"
        }
      ],
      "name": "transferToken",
      "outputs": [
        {
          "internalType": "bool",
          "name": "success",
          "type": "bool"
        }
      ],
      "stateMutability": "nonpayable",
      "type": "function"
    },
    {
      "inputs": [
        {
          "internalType": "address",
          "name": "outbound_tkn",
          "type": "address"
        },
        {
          "internalType": "address",
          "name": "inbound_tkn",
          "type": "address"
        },
        {
          "internalType": "uint256",
          "name": "wants",
          "type": "uint256"
        },
        {
          "internalType": "uint256",
          "name": "gives",
          "type": "uint256"
        },
        {
          "internalType": "uint256",
          "name": "gasreq",
          "type": "uint256"
        },
        {
          "internalType": "uint256",
          "name": "gasprice",
          "type": "uint256"
        },
        {
          "internalType": "uint256",
          "name": "pivotId",
          "type": "uint256"
        },
        {
          "internalType": "uint256",
          "name": "offerId",
          "type": "uint256"
        }
      ],
      "name": "updateOffer",
      "outputs": [],
      "stateMutability": "nonpayable",
      "type": "function"
    },
    {
      "inputs": [
        {
          "internalType": "address",
          "name": "receiver",
          "type": "address"
        },
        {
          "internalType": "uint256",
          "name": "amount",
          "type": "uint256"
        }
      ],
      "name": "withdrawFromMangrove",
      "outputs": [
        {
          "internalType": "bool",
          "name": "noRevert",
          "type": "bool"
        }
      ],
      "stateMutability": "nonpayable",
      "type": "function"
    },
    {
      "stateMutability": "payable",
      "type": "receive"
    }
  ],
  "bytecode": "0x60a0604052620186a060015534801561001757600080fd5b50604051611b52380380611b528339810160408190526100369161005f565b60008054336001600160a01b031990911617905560601b6001600160601b03191660805261008d565b600060208284031215610070578081fd5b81516001600160a01b0381168114610086578182fd5b9392505050565b60805160601c611a856100cd600039806106ec52806109d75280610a0c5280610c075280610d475280610e175280610ed65280610fb65250611a856000f3fe6080604052600436106100e15760003560e01c8063aefe84031161007f578063e4c34f8411610059578063e4c34f8414610247578063eb87009e14610267578063f5537ede14610287578063f851a440146102a7576100e8565b8063aefe8403146101f2578063e342481114610212578063e428204d14610232576100e8565b80636a4f7691116100bb5780636a4f769114610172578063704b6c02146101925780637b1a4909146101b2578063ad97db1b146101d2576100e8565b8063063df2d2146100ed57806334bd89311461012357806349f6d2dc14610145576100e8565b366100e857005b600080fd5b3480156100f957600080fd5b5061010d6101083660046116f4565b6102c9565b60405161011a919061197a565b60405180910390f35b34801561012f57600080fd5b5061014361013e3660046117ee565b610335565b005b34801561015157600080fd5b50610165610160366004611631565b6103d3565b60405161011a9190611985565b34801561017e57600080fd5b5061014361018d36600461168e565b61044a565b34801561019e57600080fd5b506101436101ad36600461153b565b6104bf565b3480156101be57600080fd5b5061010d6101cd3660046116f4565b610557565b3480156101de57600080fd5b506101656101ed366004611597565b610618565b3480156101fe57600080fd5b5061014361020d3660046116f4565b610689565b34801561021e57600080fd5b5061016561022d366004611774565b6106e8565b34801561023e57600080fd5b506101656109ca565b34801561025357600080fd5b506101656102623660046115e5565b6109d0565b34801561027357600080fd5b50610143610282366004611790565b610a0a565b34801561029357600080fd5b5061010d6102a236600461155c565b610b46565b3480156102b357600080fd5b506102bc610bab565b60405161011a9190611809565b6000805473ffffffffffffffffffffffffffffffffffffffff163314610324576040517f08c379a000000000000000000000000000000000000000000000000000000000815260040161031b906119c5565b60405180910390fd5b61032e8383610bc7565b5092915050565b60005473ffffffffffffffffffffffffffffffffffffffff1633148061035a57503330145b610390576040517f08c379a000000000000000000000000000000000000000000000000000000000815260040161031b906119c5565b808162ffffff16146103ce576040517f08c379a000000000000000000000000000000000000000000000000000000000815260040161031b906119fc565b600155565b6000805473ffffffffffffffffffffffffffffffffffffffff163314806103f957503330145b61042f576040517f08c379a000000000000000000000000000000000000000000000000000000000815260040161031b906119c5565b61043e88888888888888610d07565b98975050505050505050565b60005473ffffffffffffffffffffffffffffffffffffffff1633148061046f57503330145b6104a5576040517f08c379a000000000000000000000000000000000000000000000000000000000815260040161031b906119c5565b6104b58888888888888888610dda565b5050505050505050565b60005473ffffffffffffffffffffffffffffffffffffffff163314610510576040517f08c379a000000000000000000000000000000000000000000000000000000000815260040161031b906119c5565b600080547fffffffffffffffffffffffff00000000000000000000000000000000000000001673ffffffffffffffffffffffffffffffffffffffff92909216919091179055565b6000805473ffffffffffffffffffffffffffffffffffffffff1633146105a9576040517f08c379a000000000000000000000000000000000000000000000000000000000815260040161031b906119c5565b8273ffffffffffffffffffffffffffffffffffffffff16826040516105cd90611806565b60006040518083038185875af1925050503d806000811461060a576040519150601f19603f3d011682016040523d82523d6000602084013e61060f565b606091505b50505092915050565b6000805473ffffffffffffffffffffffffffffffffffffffff1633148061063e57503330145b610674576040517f08c379a000000000000000000000000000000000000000000000000000000000815260040161031b906119c5565b61068085858585610e96565b50949350505050565b60005473ffffffffffffffffffffffffffffffffffffffff1633146106da576040517f08c379a000000000000000000000000000000000000000000000000000000000815260040161031b906119c5565b6106e48282610f6c565b5050565b60007f000000000000000000000000000000000000000000000000000000000000000073ffffffffffffffffffffffffffffffffffffffff8116158061074357503373ffffffffffffffffffffffffffffffffffffffff8216145b610779576040517f08c379a000000000000000000000000000000000000000000000000000000000815260040161031b906119c5565b61078283611068565b61083257610796604084016020850161153b565b73ffffffffffffffffffffffffffffffffffffffff166107b9602085018561153b565b73ffffffffffffffffffffffffffffffffffffffff167f5c3a327c0caf47aa560dbca16cce241483daac785fd723d9e0fb2af3256373bf85604001356040516108029190611985565b60405180910390a37f6d67764f666665722f72656e656765640000000000000000000000000000000091506109c4565b60006108428460a001358561106e565b905080156108f95761085a604085016020860161153b565b73ffffffffffffffffffffffffffffffffffffffff1661087d602086018661153b565b73ffffffffffffffffffffffffffffffffffffffff167f3482722a7c71a098521214cdb975e1d9faa0b0163f768e89566f7acc36cffd0b8660400135846040516108c8929190611a33565b60405180910390a37f6d67764f666665722f7075744661696c757265000000000000000000000000009250506109c4565b6000610909856080013586611077565b905080156109c157610921604086016020870161153b565b73ffffffffffffffffffffffffffffffffffffffff16610944602087018761153b565b73ffffffffffffffffffffffffffffffffffffffff167fc99fe658c80b903af0e1270f4a55564b3a7509294ab1052c6ab07f8198baea6787604001358460405161098f929190611a33565b60405180910390a37f6d67764f666665722f6f75744f664c6971756964697479000000000000000000935050506109c4565b50505b50919050565b60015481565b6000610a007f0000000000000000000000000000000000000000000000000000000000000000878787878761112b565b9695505050505050565b7f000000000000000000000000000000000000000000000000000000000000000073ffffffffffffffffffffffffffffffffffffffff81161580610a6357503373ffffffffffffffffffffffffffffffffffffffff8216145b610a99576040517f08c379a000000000000000000000000000000000000000000000000000000000815260040161031b906119c5565b81602001357f6d67762f747261646553756363657373000000000000000000000000000000001415610ad357610ace8361140c565b610b41565b81357f6d67764f666665722f6f75744f664c69717569646974790000000000000000001415610b0557610ace8361140c565b81357f6d67764f666665722f72656e65676564000000000000000000000000000000001415610b3757610ace8361140c565b610b4183836106e4565b505050565b6000805473ffffffffffffffffffffffffffffffffffffffff163314610b98576040517f08c379a000000000000000000000000000000000000000000000000000000000815260040161031b906119c5565b610ba384848461140f565b949350505050565b60005473ffffffffffffffffffffffffffffffffffffffff1681565b6040517f2e1a7d4d00000000000000000000000000000000000000000000000000000000815260009073ffffffffffffffffffffffffffffffffffffffff7f00000000000000000000000000000000000000000000000000000000000000001690632e1a7d4d90610c3c908590600401611985565b602060405180830381600087803b158015610c5657600080fd5b505af1158015610c6a573d6000803e3d6000fd5b505050506040513d601f19601f82011682018060405250810190610c8e919061171d565b610c9757600080fd5b8273ffffffffffffffffffffffffffffffffffffffff1682604051610cbb90611806565b60006040518083038185875af1925050503d8060008114610cf8576040519150601f19603f3d011682016040523d82523d6000602084013e610cfd565b606091505b5090949350505050565b6040517f49f6d2dc00000000000000000000000000000000000000000000000000000000815260009073ffffffffffffffffffffffffffffffffffffffff7f000000000000000000000000000000000000000000000000000000000000000016906349f6d2dc90610d88908b908b908b908b908b908b908b906004016118de565b602060405180830381600087803b158015610da257600080fd5b505af1158015610db6573d6000803e3d6000fd5b505050506040513d601f19601f8201168201806040525081019061043e9190611739565b6040517f6a4f769100000000000000000000000000000000000000000000000000000000815273ffffffffffffffffffffffffffffffffffffffff7f00000000000000000000000000000000000000000000000000000000000000001690636a4f769190610e5a908b908b908b908b908b908b908b908b90600401611929565b600060405180830381600087803b158015610e7457600080fd5b505af1158015610e88573d6000803e3d6000fd5b505050505050505050505050565b6040517fad97db1b00000000000000000000000000000000000000000000000000000000815260009073ffffffffffffffffffffffffffffffffffffffff7f0000000000000000000000000000000000000000000000000000000000000000169063ad97db1b90610f119088908890889088906004016118a8565b602060405180830381600087803b158015610f2b57600080fd5b505af1158015610f3f573d6000803e3d6000fd5b505050506040513d601f19601f82011682018060405250810190610f639190611739565b95945050505050565b6040517f095ea7b300000000000000000000000000000000000000000000000000000000815273ffffffffffffffffffffffffffffffffffffffff83169063095ea7b390610fe0907f000000000000000000000000000000000000000000000000000000000000000090859060040161182a565b602060405180830381600087803b158015610ffa57600080fd5b505af115801561100e573d6000803e3d6000fd5b505050506040513d601f19601f82011682018060405250810190611032919061171d565b6106e4576040517f08c379a000000000000000000000000000000000000000000000000000000000815260040161031b9061198e565b50600190565b60005b92915050565b600080611087602084018461153b565b73ffffffffffffffffffffffffffffffffffffffff166370a08231306040518263ffffffff1660e01b81526004016110bf9190611809565b60206040518083038186803b1580156110d757600080fd5b505afa1580156110eb573d6000803e3d6000fd5b505050506040513d601f19601f8201168201806040525081019061110f9190611739565b9050838110611122576000915050611071565b83039050611071565b60008060008873ffffffffffffffffffffffffffffffffffffffff1663cbf75c9a89896040518363ffffffff1660e01b815260040161116b929190611850565b604080518083038186803b15801561118257600080fd5b505afa158015611196573d6000803e3d6000fd5b505050506040513d601f19601f820116820180604052508101906111ba9190611751565b9150915060008973ffffffffffffffffffffffffffffffffffffffff166368c13d6b8a8a886040518463ffffffff1660e01b81526004016111fd93929190611877565b60206040518083038186803b15801561121557600080fd5b505afa158015611229573d6000803e3d6000fd5b505050506040513d601f19601f8201168201806040525081019061124d9190611739565b905060008a73ffffffffffffffffffffffffffffffffffffffff16635722647b8b8b896040518463ffffffff1660e01b815260040161128e93929190611877565b60206040518083038186803b1580156112a657600080fd5b505afa1580156112ba573d6000803e3d6000fd5b505050506040513d601f19601f820116820180604052508101906112de9190611739565b90506000876112ec866114b8565b1115611302576112fb856114b8565b9050611305565b50865b600081611311866114c7565b61131a876114d2565b8c010102633b9aca000290506000611331856114dd565b61133a856114e4565b611343866114ef565b61134c876114fa565b010102633b9aca0002905060008e73ffffffffffffffffffffffffffffffffffffffff166370a08231306040518263ffffffff1660e01b81526004016113929190611809565b60206040518083038186803b1580156113aa57600080fd5b505afa1580156113be573d6000803e3d6000fd5b505050506040513d601f19601f820116820180604052508101906113e29190611739565b82019050828110156113f6578083036113f9565b60005b9f9e505050505050505050505050505050565b50565b6040517fa9059cbb00000000000000000000000000000000000000000000000000000000815260009073ffffffffffffffffffffffffffffffffffffffff85169063a9059cbb90611466908690869060040161182a565b602060405180830381600087803b15801561148057600080fd5b505af1158015611494573d6000803e3d6000fd5b505050506040513d601f19601f82011682018060405250810190610ba3919061171d565b61ffff604082901c165b919050565b60381c62ffffff1690565b60501c62ffffff1690565b61ffff1690565b60181c62ffffff1690565b60301c62ffffff1690565b60481c62ffffff1690565b803573ffffffffffffffffffffffffffffffffffffffff811681146114c257600080fd5b600061012082840312156109c4578081fd5b60006020828403121561154c578081fd5b61155582611505565b9392505050565b600080600060608486031215611570578182fd5b61157984611505565b925061158760208501611505565b9150604084013590509250925092565b600080600080608085870312156115ac578081fd5b6115b585611505565b93506115c360208601611505565b92506040850135915060608501356115da81611a41565b939692955090935050565b600080600080600060a086880312156115fc578081fd5b61160586611505565b945061161360208701611505565b94979496505050506040830135926060810135926080909101359150565b600080600080600080600060e0888a03121561164b578182fd5b61165488611505565b965061166260208901611505565b96999698505050506040850135946060810135946080820135945060a0820135935060c0909101359150565b600080600080600080600080610100898b0312156116aa578081fd5b6116b389611505565b97506116c160208a01611505565b979a9799505050506040860135956060810135956080820135955060a0820135945060c0820135935060e0909101359150565b60008060408385031215611706578182fd5b61170f83611505565b946020939093013593505050565b60006020828403121561172e578081fd5b815161155581611a41565b60006020828403121561174a578081fd5b5051919050565b60008060408385031215611763578182fd5b505080516020909101519092909150565b60006101208284031215611786578081fd5b6115558383611529565b6000808284036101608112156117a4578283fd5b6117ae8585611529565b925060407ffffffffffffffffffffffffffffffffffffffffffffffffffffffffffffffee0820112156117df578182fd5b50610120830190509250929050565b6000602082840312156117ff578081fd5b5035919050565b90565b73ffffffffffffffffffffffffffffffffffffffff91909116815260200190565b73ffffffffffffffffffffffffffffffffffffffff929092168252602082015260400190565b73ffffffffffffffffffffffffffffffffffffffff92831681529116602082015260400190565b73ffffffffffffffffffffffffffffffffffffffff9384168152919092166020820152604081019190915260600190565b73ffffffffffffffffffffffffffffffffffffffff94851681529290931660208301526040820152901515606082015260800190565b73ffffffffffffffffffffffffffffffffffffffff978816815295909616602086015260408501939093526060840191909152608083015260a082015260c081019190915260e00190565b73ffffffffffffffffffffffffffffffffffffffff988916815296909716602087015260408601949094526060850192909252608084015260a083015260c082015260e08101919091526101000190565b901515815260200190565b90815260200190565b60208082526015908201527f6d67764f666665722f617070726f76652f4661696c0000000000000000000000604082015260600190565b60208082526018908201527f416363657373436f6e74726f6c6c65642f496e76616c69640000000000000000604082015260600190565b6020808252601d908201527f4d616e67726f76654f666665722f6761737265712f6f766572666c6f77000000604082015260600190565b918252602082015260400190565b801515811461140c57600080fdfea26469706673582212208871efbe70866b7900e440820e99d2481f3b555dfb8ecabb42c2c8f4dc09e90864736f6c63430007060033",
  "linkReferences": {},
  "deployedLinkReferences": {}
}