{
  "_format": "hh-sol-artifact-1",
  "contractName": "SimpleMaker",
  "sourceName": "contracts/Strategies/OfferLogics/SingleUser/Deployable/SimpleMaker.sol",
  "abi": [
    {
      "inputs": [
        {
          "internalType": "address payable",
          "name": "_MGV",
          "type": "address"
        }
      ],
      "stateMutability": "nonpayable",
      "type": "constructor"
    },
    {
      "anonymous": false,
      "inputs": [
        {
          "indexed": true,
          "internalType": "address",
          "name": "outbound_tkn",
          "type": "address"
        },
        {
          "indexed": true,
          "internalType": "address",
          "name": "inbound_tkn",
          "type": "address"
        },
        {
          "indexed": false,
          "internalType": "uint256",
          "name": "offerId",
          "type": "uint256"
        },
        {
          "indexed": false,
          "internalType": "uint256",
          "name": "missingAmount",
          "type": "uint256"
        }
      ],
      "name": "GetFail",
      "type": "event"
    },
    {
      "anonymous": false,
      "inputs": [
        {
          "indexed": true,
          "internalType": "address",
          "name": "outbound_tkn",
          "type": "address"
        },
        {
          "indexed": true,
          "internalType": "address",
          "name": "inbound_tkn",
          "type": "address"
        },
        {
          "indexed": false,
          "internalType": "uint256",
          "name": "offerId",
          "type": "uint256"
        },
        {
          "indexed": false,
          "internalType": "string",
          "name": "message",
          "type": "string"
        }
      ],
      "name": "PosthookFail",
      "type": "event"
    },
    {
      "anonymous": false,
      "inputs": [
        {
          "indexed": true,
          "internalType": "address",
          "name": "outbound_tkn",
          "type": "address"
        },
        {
          "indexed": true,
          "internalType": "address",
          "name": "inbound_tkn",
          "type": "address"
        },
        {
          "indexed": false,
          "internalType": "uint256",
          "name": "offerId",
          "type": "uint256"
        },
        {
          "indexed": false,
          "internalType": "uint256",
          "name": "missingAmount",
          "type": "uint256"
        }
      ],
      "name": "PutFail",
      "type": "event"
    },
    {
      "anonymous": false,
      "inputs": [
        {
          "indexed": true,
          "internalType": "address",
          "name": "outbound_tkn",
          "type": "address"
        },
        {
          "indexed": true,
          "internalType": "address",
          "name": "inbound_tkn",
          "type": "address"
        },
        {
          "indexed": false,
          "internalType": "uint256",
          "name": "offerId",
          "type": "uint256"
        }
      ],
      "name": "Reneged",
      "type": "event"
    },
    {
      "inputs": [],
      "name": "OFR_GASREQ",
      "outputs": [
        {
          "internalType": "uint256",
          "name": "",
          "type": "uint256"
        }
      ],
      "stateMutability": "view",
      "type": "function"
    },
    {
      "inputs": [],
      "name": "admin",
      "outputs": [
        {
          "internalType": "address",
          "name": "",
          "type": "address"
        }
      ],
      "stateMutability": "view",
      "type": "function"
    },
    {
      "inputs": [
        {
          "internalType": "address",
          "name": "outbound_tkn",
          "type": "address"
        },
        {
          "internalType": "uint256",
          "name": "amount",
          "type": "uint256"
        }
      ],
      "name": "approveMangrove",
      "outputs": [],
      "stateMutability": "nonpayable",
      "type": "function"
    },
    {
      "inputs": [],
      "name": "fundMangrove",
      "outputs": [],
      "stateMutability": "payable",
      "type": "function"
    },
    {
      "inputs": [
        {
          "internalType": "address",
          "name": "outbound_tkn",
          "type": "address"
        },
        {
          "internalType": "address",
          "name": "inbound_tkn",
          "type": "address"
        },
        {
          "internalType": "uint256",
          "name": "gasreq",
          "type": "uint256"
        },
        {
          "internalType": "uint256",
          "name": "gasprice",
          "type": "uint256"
        },
        {
          "internalType": "uint256",
          "name": "offerId",
          "type": "uint256"
        }
      ],
      "name": "getMissingProvision",
      "outputs": [
        {
          "internalType": "uint256",
          "name": "",
          "type": "uint256"
        }
      ],
      "stateMutability": "view",
      "type": "function"
    },
    {
      "inputs": [
        {
          "components": [
            {
              "internalType": "address",
              "name": "outbound_tkn",
              "type": "address"
            },
            {
              "internalType": "address",
              "name": "inbound_tkn",
              "type": "address"
            },
            {
              "internalType": "uint256",
              "name": "offerId",
              "type": "uint256"
            },
            {
              "internalType": "Offer.t",
              "name": "offer",
              "type": "bytes32"
            },
            {
              "internalType": "uint256",
              "name": "wants",
              "type": "uint256"
            },
            {
              "internalType": "uint256",
              "name": "gives",
              "type": "uint256"
            },
            {
              "internalType": "OfferDetail.t",
              "name": "offerDetail",
              "type": "bytes32"
            },
            {
              "internalType": "Global.t",
              "name": "global",
              "type": "bytes32"
            },
            {
              "internalType": "Local.t",
              "name": "local",
              "type": "bytes32"
            }
          ],
          "internalType": "struct MgvLib.SingleOrder",
          "name": "order",
          "type": "tuple"
        }
      ],
      "name": "makerExecute",
      "outputs": [
        {
          "internalType": "bytes32",
          "name": "ret",
          "type": "bytes32"
        }
      ],
      "stateMutability": "nonpayable",
      "type": "function"
    },
    {
      "inputs": [
        {
          "components": [
            {
              "internalType": "address",
              "name": "outbound_tkn",
              "type": "address"
            },
            {
              "internalType": "address",
              "name": "inbound_tkn",
              "type": "address"
            },
            {
              "internalType": "uint256",
              "name": "offerId",
              "type": "uint256"
            },
            {
              "internalType": "Offer.t",
              "name": "offer",
              "type": "bytes32"
            },
            {
              "internalType": "uint256",
              "name": "wants",
              "type": "uint256"
            },
            {
              "internalType": "uint256",
              "name": "gives",
              "type": "uint256"
            },
            {
              "internalType": "OfferDetail.t",
              "name": "offerDetail",
              "type": "bytes32"
            },
            {
              "internalType": "Global.t",
              "name": "global",
              "type": "bytes32"
            },
            {
              "internalType": "Local.t",
              "name": "local",
              "type": "bytes32"
            }
          ],
          "internalType": "struct MgvLib.SingleOrder",
          "name": "order",
          "type": "tuple"
        },
        {
          "components": [
            {
              "internalType": "bytes32",
              "name": "makerData",
              "type": "bytes32"
            },
            {
              "internalType": "bytes32",
              "name": "mgvData",
              "type": "bytes32"
            }
          ],
          "internalType": "struct MgvLib.OrderResult",
          "name": "result",
          "type": "tuple"
        }
      ],
      "name": "makerPosthook",
      "outputs": [],
      "stateMutability": "nonpayable",
      "type": "function"
    },
    {
      "inputs": [
        {
          "internalType": "address",
          "name": "outbound_tkn",
          "type": "address"
        },
        {
          "internalType": "address",
          "name": "inbound_tkn",
          "type": "address"
        },
        {
          "internalType": "uint256",
          "name": "wants",
          "type": "uint256"
        },
        {
          "internalType": "uint256",
          "name": "gives",
          "type": "uint256"
        },
        {
          "internalType": "uint256",
          "name": "gasreq",
          "type": "uint256"
        },
        {
          "internalType": "uint256",
          "name": "gasprice",
          "type": "uint256"
        },
        {
          "internalType": "uint256",
          "name": "pivotId",
          "type": "uint256"
        }
      ],
      "name": "newOffer",
      "outputs": [
        {
          "internalType": "uint256",
          "name": "offerId",
          "type": "uint256"
        }
      ],
      "stateMutability": "payable",
      "type": "function"
    },
    {
      "inputs": [
        {
          "internalType": "address",
          "name": "token",
          "type": "address"
        },
        {
          "internalType": "uint256",
          "name": "amount",
          "type": "uint256"
        }
      ],
      "name": "redeemToken",
      "outputs": [
        {
          "internalType": "bool",
          "name": "success",
          "type": "bool"
        }
      ],
      "stateMutability": "nonpayable",
      "type": "function"
    },
    {
      "inputs": [
        {
          "internalType": "address",
          "name": "outbound_tkn",
          "type": "address"
        },
        {
          "internalType": "address",
          "name": "inbound_tkn",
          "type": "address"
        },
        {
          "internalType": "uint256",
          "name": "offerId",
          "type": "uint256"
        },
        {
          "internalType": "bool",
          "name": "deprovision",
          "type": "bool"
        }
      ],
      "name": "retractOffer",
      "outputs": [
        {
          "internalType": "uint256",
          "name": "",
          "type": "uint256"
        }
      ],
      "stateMutability": "nonpayable",
      "type": "function"
    },
    {
      "inputs": [
        {
          "internalType": "address",
          "name": "_admin",
          "type": "address"
        }
      ],
      "name": "setAdmin",
      "outputs": [],
      "stateMutability": "nonpayable",
      "type": "function"
    },
    {
      "inputs": [
        {
          "internalType": "uint256",
          "name": "gasreq",
          "type": "uint256"
        }
      ],
      "name": "setGasreq",
      "outputs": [],
      "stateMutability": "nonpayable",
      "type": "function"
    },
    {
      "inputs": [
        {
          "internalType": "address",
          "name": "recipient",
          "type": "address"
        },
        {
          "internalType": "uint256",
          "name": "amount",
          "type": "uint256"
        }
      ],
      "name": "transferETH",
      "outputs": [
        {
          "internalType": "bool",
          "name": "success",
          "type": "bool"
        }
      ],
      "stateMutability": "nonpayable",
      "type": "function"
    },
    {
      "inputs": [
        {
          "internalType": "address",
          "name": "outbound_tkn",
          "type": "address"
        },
        {
          "internalType": "address",
          "name": "inbound_tkn",
          "type": "address"
        },
        {
          "internalType": "uint256",
          "name": "wants",
          "type": "uint256"
        },
        {
          "internalType": "uint256",
          "name": "gives",
          "type": "uint256"
        },
        {
          "internalType": "uint256",
          "name": "gasreq",
          "type": "uint256"
        },
        {
          "internalType": "uint256",
          "name": "gasprice",
          "type": "uint256"
        },
        {
          "internalType": "uint256",
          "name": "pivotId",
          "type": "uint256"
        },
        {
          "internalType": "uint256",
          "name": "offerId",
          "type": "uint256"
        }
      ],
      "name": "updateOffer",
      "outputs": [],
      "stateMutability": "payable",
      "type": "function"
    },
    {
      "inputs": [
        {
          "internalType": "address",
          "name": "receiver",
          "type": "address"
        },
        {
          "internalType": "uint256",
          "name": "amount",
          "type": "uint256"
        }
      ],
      "name": "withdrawFromMangrove",
      "outputs": [
        {
          "internalType": "bool",
          "name": "",
          "type": "bool"
        }
      ],
      "stateMutability": "nonpayable",
      "type": "function"
    },
    {
      "stateMutability": "payable",
      "type": "receive"
    }
  ],
  "bytecode": "0x60a0604052620186a060015534801561001757600080fd5b50604051611a90380380611a9083398101604081905261003691610059565b600080546001600160a01b031916331790556001600160a01b0316608052610089565b60006020828403121561006b57600080fd5b81516001600160a01b038116811461008257600080fd5b9392505050565b6080516119a66100ea6000396000818161051501528181610633015281816107350152818161085a01528181610bdb01528181610ce401528181610eb101528181610f490152818161100d015281816110c0015261122d01526119a66000f3fe6080604052600436106100ec5760003560e01c8063ad97db1b1161008a578063e4c34f8411610059578063e4c34f8414610259578063eb87009e14610279578063f851a44014610299578063faa030ec146102eb57600080fd5b8063ad97db1b146101e3578063aefe840314610203578063e342481114610223578063e428204d1461024357600080fd5b80636a4f7691116100c65780636a4f769114610170578063704b6c02146101835780637b1a4909146101a3578063830cbbbd146101c357600080fd5b8063063df2d2146100f857806334bd89311461012d57806349f6d2dc1461014f57600080fd5b366100f357005b600080fd5b34801561010457600080fd5b50610118610113366004611617565b6102f3565b60405190151581526020015b60405180910390f35b34801561013957600080fd5b5061014d610148366004611641565b61038d565b005b61016261015d36600461165a565b61048b565b604051908152602001610124565b61014d61017e3660046116b8565b6106ac565b34801561018f57600080fd5b5061014d61019e36600461171f565b6108c1565b3480156101af57600080fd5b506101186101be366004611617565b610989565b3480156101cf57600080fd5b506101186101de366004611617565b610a70565b3480156101ef57600080fd5b506101626101fe366004611748565b610afd565b34801561020f57600080fd5b5061014d61021e366004611617565b610c51565b34801561022f57600080fd5b5061016261023e3660046117aa565b610ce0565b34801561024f57600080fd5b5061016260015481565b34801561026557600080fd5b506101626102743660046117c7565b610e7c565b34801561028557600080fd5b5061014d610294366004611814565b610f47565b3480156102a557600080fd5b506000546102c69073ffffffffffffffffffffffffffffffffffffffff1681565b60405173ffffffffffffffffffffffffffffffffffffffff9091168152602001610124565b61014d61100b565b6000805473ffffffffffffffffffffffffffffffffffffffff16331461037a576040517f08c379a000000000000000000000000000000000000000000000000000000000815260206004820152601860248201527f416363657373436f6e74726f6c6c65642f496e76616c6964000000000000000060448201526064015b60405180910390fd5b610384838361108e565b90505b92915050565b60005473ffffffffffffffffffffffffffffffffffffffff163314806103b257503330145b610418576040517f08c379a000000000000000000000000000000000000000000000000000000000815260206004820152601860248201527f416363657373436f6e74726f6c6c65642f496e76616c696400000000000000006044820152606401610371565b808162ffffff1614610486576040517f08c379a000000000000000000000000000000000000000000000000000000000815260206004820152601d60248201527f4d616e67726f76654f666665722f6761737265712f6f766572666c6f770000006044820152606401610371565b600155565b6000805473ffffffffffffffffffffffffffffffffffffffff16331461050d576040517f08c379a000000000000000000000000000000000000000000000000000000000815260206004820152601860248201527f416363657373436f6e74726f6c6c65642f496e76616c696400000000000000006044820152606401610371565b3415610595577f000000000000000000000000000000000000000000000000000000000000000073ffffffffffffffffffffffffffffffffffffffff1663b60d4288346040518263ffffffff1660e01b81526004016000604051808303818588803b15801561057b57600080fd5b505af115801561058f573d6000803e3d6000fd5b50505050505b7fffffffffffffffffffffffffffffffffffffffffffffffffffffffffffffffff8414156105c35760015493505b6040517f49f6d2dc00000000000000000000000000000000000000000000000000000000815273ffffffffffffffffffffffffffffffffffffffff8981166004830152888116602483015260448201889052606482018790526084820186905260a4820185905260c482018490527f000000000000000000000000000000000000000000000000000000000000000016906349f6d2dc9060e4016020604051808303816000875af115801561067c573d6000803e3d6000fd5b505050506040513d601f19601f820116820180604052508101906106a09190611874565b98975050505050505050565b60005473ffffffffffffffffffffffffffffffffffffffff16331461072d576040517f08c379a000000000000000000000000000000000000000000000000000000000815260206004820152601860248201527f416363657373436f6e74726f6c6c65642f496e76616c696400000000000000006044820152606401610371565b34156107b5577f000000000000000000000000000000000000000000000000000000000000000073ffffffffffffffffffffffffffffffffffffffff1663b60d4288346040518263ffffffff1660e01b81526004016000604051808303818588803b15801561079b57600080fd5b505af11580156107af573d6000803e3d6000fd5b50505050505b7fffffffffffffffffffffffffffffffffffffffffffffffffffffffffffffffff8414156107e35760015493505b6040517f6a4f769100000000000000000000000000000000000000000000000000000000815273ffffffffffffffffffffffffffffffffffffffff8981166004830152888116602483015260448201889052606482018790526084820186905260a4820185905260c4820184905260e482018390527f00000000000000000000000000000000000000000000000000000000000000001690636a4f76919061010401600060405180830381600087803b15801561089f57600080fd5b505af11580156108b3573d6000803e3d6000fd5b505050505050505050505050565b60005473ffffffffffffffffffffffffffffffffffffffff163314610942576040517f08c379a000000000000000000000000000000000000000000000000000000000815260206004820152601860248201527f416363657373436f6e74726f6c6c65642f496e76616c696400000000000000006044820152606401610371565b600080547fffffffffffffffffffffffff00000000000000000000000000000000000000001673ffffffffffffffffffffffffffffffffffffffff92909216919091179055565b6000805473ffffffffffffffffffffffffffffffffffffffff163314610a0b576040517f08c379a000000000000000000000000000000000000000000000000000000000815260206004820152601860248201527f416363657373436f6e74726f6c6c65642f496e76616c696400000000000000006044820152606401610371565b60405173ffffffffffffffffffffffffffffffffffffffff8416908390600081818185875af1925050503d8060008114610a61576040519150601f19603f3d011682016040523d82523d6000602084013e610a66565b606091505b5090949350505050565b6000805473ffffffffffffffffffffffffffffffffffffffff163314610af2576040517f08c379a000000000000000000000000000000000000000000000000000000000815260206004820152601860248201527f416363657373436f6e74726f6c6c65642f496e76616c696400000000000000006044820152606401610371565b61038483338461114b565b6000805473ffffffffffffffffffffffffffffffffffffffff163314610b7f576040517f08c379a000000000000000000000000000000000000000000000000000000000815260206004820152601860248201527f416363657373436f6e74726f6c6c65642f496e76616c696400000000000000006044820152606401610371565b6040517fad97db1b00000000000000000000000000000000000000000000000000000000815273ffffffffffffffffffffffffffffffffffffffff868116600483015285811660248301526044820185905283151560648301527f0000000000000000000000000000000000000000000000000000000000000000169063ad97db1b906084016020604051808303816000875af1158015610c24573d6000803e3d6000fd5b505050506040513d601f19601f82011682018060405250810190610c489190611874565b95945050505050565b60005473ffffffffffffffffffffffffffffffffffffffff163314610cd2576040517f08c379a000000000000000000000000000000000000000000000000000000000815260206004820152601860248201527f416363657373436f6e74726f6c6c65642f496e76616c696400000000000000006044820152606401610371565b610cdc82826111f0565b5050565b60007f000000000000000000000000000000000000000000000000000000000000000073ffffffffffffffffffffffffffffffffffffffff81161580610d3b57503373ffffffffffffffffffffffffffffffffffffffff8216145b610da1576040517f08c379a000000000000000000000000000000000000000000000000000000000815260206004820152601860248201527f416363657373436f6e74726f6c6c65642f496e76616c696400000000000000006044820152606401610371565b600080610db285608001358661130f565b90508015610e7357610dca604086016020870161171f565b73ffffffffffffffffffffffffffffffffffffffff16610ded602087018761171f565b73ffffffffffffffffffffffffffffffffffffffff167fc99fe658c80b903af0e1270f4a55564b3a7509294ab1052c6ab07f8198baea67876040013584604051610e41929190918252602082015260400190565b60405180910390a37f6d67764f666665722f6f75744f664c697175696469747900000000000000000093505050610e76565b50505b50919050565b6040517f70a08231000000000000000000000000000000000000000000000000000000008152306004820152600090610f3d907f00000000000000000000000000000000000000000000000000000000000000009073ffffffffffffffffffffffffffffffffffffffff8216906370a0823190602401602060405180830381865afa158015610f0f573d6000803e3d6000fd5b505050506040513d601f19601f82011682018060405250810190610f339190611874565b88888888886113d4565b9695505050505050565b7f000000000000000000000000000000000000000000000000000000000000000073ffffffffffffffffffffffffffffffffffffffff81161580610fa057503373ffffffffffffffffffffffffffffffffffffffff8216145b611006576040517f08c379a000000000000000000000000000000000000000000000000000000000815260206004820152601860248201527f416363657373436f6e74726f6c6c65642f496e76616c696400000000000000006044820152606401610371565b505050565b7f000000000000000000000000000000000000000000000000000000000000000073ffffffffffffffffffffffffffffffffffffffff1663b60d4288346040518263ffffffff1660e01b81526004016000604051808303818588803b15801561107357600080fd5b505af1158015611087573d6000803e3d6000fd5b5050505050565b6040517f2e1a7d4d000000000000000000000000000000000000000000000000000000008152600481018290526000907f000000000000000000000000000000000000000000000000000000000000000073ffffffffffffffffffffffffffffffffffffffff1690632e1a7d4d906024016020604051808303816000875af115801561111e573d6000803e3d6000fd5b505050506040513d601f19601f82011682018060405250810190611142919061188d565b610a0b57600080fd5b6040517fa9059cbb00000000000000000000000000000000000000000000000000000000815273ffffffffffffffffffffffffffffffffffffffff8381166004830152602482018390526000919085169063a9059cbb906044016020604051808303816000875af11580156111c4573d6000803e3d6000fd5b505050506040513d601f19601f820116820180604052508101906111e8919061188d565b949350505050565b6040517f095ea7b300000000000000000000000000000000000000000000000000000000815273ffffffffffffffffffffffffffffffffffffffff7f0000000000000000000000000000000000000000000000000000000000000000811660048301526024820183905283169063095ea7b3906044016020604051808303816000875af1158015611285573d6000803e3d6000fd5b505050506040513d601f19601f820116820180604052508101906112a9919061188d565b610cdc576040517f08c379a000000000000000000000000000000000000000000000000000000000815260206004820152601560248201527f6d67764f666665722f617070726f76652f4661696c00000000000000000000006044820152606401610371565b60008061131f602084018461171f565b6040517f70a0823100000000000000000000000000000000000000000000000000000000815230600482015273ffffffffffffffffffffffffffffffffffffffff91909116906370a0823190602401602060405180830381865afa15801561138b573d6000803e3d6000fd5b505050506040513d601f19601f820116820180604052508101906113af9190611874565b90508381106113c2576000915050610387565b6113cc81856118e0565b915050610387565b6040517fcbf75c9a00000000000000000000000000000000000000000000000000000000815273ffffffffffffffffffffffffffffffffffffffff8681166004830152858116602483015260009182918291908b169063cbf75c9a906044016040805180830381865afa15801561144f573d6000803e3d6000fd5b505050506040513d601f19601f8201168201806040525081019061147391906118f7565b6040517f5722647b00000000000000000000000000000000000000000000000000000000815273ffffffffffffffffffffffffffffffffffffffff8b811660048301528a81166024830152604482018890529294509092506000918c1690635722647b90606401602060405180830381865afa1580156114f7573d6000803e3d6000fd5b505050506040513d601f19601f8201168201806040525081019061151b9190611874565b9050600086604085901c61ffff16111561153e575061ffff604084901c16611541565b50855b60008161155762ffffff606087901c168b61191b565b6115619190611933565b61156f90633b9aca00611933565b9050600061ffff602085901c1661159662ffffff603087901c811690604888901c1661191b565b6115a09190611933565b6115ae90633b9aca00611933565b905060006115bc8e8361191b565b9050828110156115d5576115d081846118e0565b6115d8565b60005b9f9e505050505050505050505050505050565b50565b803573ffffffffffffffffffffffffffffffffffffffff8116811461161257600080fd5b919050565b6000806040838503121561162a57600080fd5b611633836115ee565b946020939093013593505050565b60006020828403121561165357600080fd5b5035919050565b600080600080600080600060e0888a03121561167557600080fd5b61167e886115ee565b965061168c602089016115ee565b96999698505050506040850135946060810135946080820135945060a0820135935060c0909101359150565b600080600080600080600080610100898b0312156116d557600080fd5b6116de896115ee565b97506116ec60208a016115ee565b979a9799505050506040860135956060810135956080820135955060a0820135945060c0820135935060e0909101359150565b60006020828403121561173157600080fd5b610384826115ee565b80151581146115eb57600080fd5b6000806000806080858703121561175e57600080fd5b611767856115ee565b9350611775602086016115ee565b925060408501359150606085013561178c8161173a565b939692955090935050565b60006101208284031215610e7657600080fd5b600061012082840312156117bd57600080fd5b6103848383611797565b600080600080600060a086880312156117df57600080fd5b6117e8866115ee565b94506117f6602087016115ee565b94979496505050506040830135926060810135926080909101359150565b60008082840361016081121561182957600080fd5b6118338585611797565b925060407ffffffffffffffffffffffffffffffffffffffffffffffffffffffffffffffee08201121561186557600080fd5b50610120830190509250929050565b60006020828403121561188657600080fd5b5051919050565b60006020828403121561189f57600080fd5b81516118aa8161173a565b9392505050565b7f4e487b7100000000000000000000000000000000000000000000000000000000600052601160045260246000fd5b6000828210156118f2576118f26118b1565b500390565b6000806040838503121561190a57600080fd5b505080516020909101519092909150565b6000821982111561192e5761192e6118b1565b500190565b6000817fffffffffffffffffffffffffffffffffffffffffffffffffffffffffffffffff048311821515161561196b5761196b6118b1565b50029056fea26469706673582212209dbe9f3e02d14151acff320e39be514b706741d4b2ed776e8d05b43ee866dfd964736f6c634300080a0033",
  "linkReferences": {},
  "deployedLinkReferences": {}
}