{
  "_format": "hh-sol-artifact-1",
  "contractName": "SimpleMaker",
  "sourceName": "contracts/Strategies/OfferLogics/SingleUser/Deployable/SimpleMaker.sol",
  "abi": [
    {
      "inputs": [
        {
          "internalType": "contract IMangrove",
          "name": "_MGV",
          "type": "address"
        }
      ],
      "stateMutability": "nonpayable",
      "type": "constructor"
    },
    {
      "anonymous": false,
      "inputs": [
        {
          "indexed": true,
          "internalType": "contract IEIP20",
          "name": "outbound_tkn",
          "type": "address"
        },
        {
          "indexed": true,
          "internalType": "contract IEIP20",
          "name": "inbound_tkn",
          "type": "address"
        },
        {
          "indexed": true,
          "internalType": "uint256",
          "name": "offerId",
          "type": "uint256"
        },
        {
          "indexed": false,
          "internalType": "bytes32",
          "name": "reason",
          "type": "bytes32"
        }
      ],
      "name": "LogIncident",
      "type": "event"
    },
    {
      "inputs": [],
      "name": "MGV",
      "outputs": [
        {
          "internalType": "contract IMangrove",
          "name": "",
          "type": "address"
        }
      ],
      "stateMutability": "view",
      "type": "function"
    },
    {
      "inputs": [],
      "name": "OFR_GASREQ",
      "outputs": [
        {
          "internalType": "uint256",
          "name": "",
          "type": "uint256"
        }
      ],
      "stateMutability": "view",
      "type": "function"
    },
    {
      "inputs": [],
      "name": "admin",
      "outputs": [
        {
          "internalType": "address",
          "name": "",
          "type": "address"
        }
      ],
      "stateMutability": "view",
      "type": "function"
    },
    {
      "inputs": [
        {
          "internalType": "contract IEIP20",
          "name": "outbound_tkn",
          "type": "address"
        },
        {
          "internalType": "uint256",
          "name": "amount",
          "type": "uint256"
        }
      ],
      "name": "approveMangrove",
      "outputs": [],
      "stateMutability": "nonpayable",
      "type": "function"
    },
    {
      "inputs": [
        {
          "internalType": "contract IEIP20",
          "name": "outbound_tkn",
          "type": "address"
        },
        {
          "internalType": "contract IEIP20",
          "name": "inbound_tkn",
          "type": "address"
        },
        {
          "internalType": "uint256",
          "name": "gasreq",
          "type": "uint256"
        },
        {
          "internalType": "uint256",
          "name": "gasprice",
          "type": "uint256"
        },
        {
          "internalType": "uint256",
          "name": "offerId",
          "type": "uint256"
        }
      ],
      "name": "getMissingProvision",
      "outputs": [
        {
          "internalType": "uint256",
          "name": "",
          "type": "uint256"
        }
      ],
      "stateMutability": "view",
      "type": "function"
    },
    {
      "inputs": [
        {
          "components": [
            {
              "internalType": "address",
              "name": "outbound_tkn",
              "type": "address"
            },
            {
              "internalType": "address",
              "name": "inbound_tkn",
              "type": "address"
            },
            {
              "internalType": "uint256",
              "name": "offerId",
              "type": "uint256"
            },
            {
              "internalType": "t",
              "name": "offer",
              "type": "uint256"
            },
            {
              "internalType": "uint256",
              "name": "wants",
              "type": "uint256"
            },
            {
              "internalType": "uint256",
              "name": "gives",
              "type": "uint256"
            },
            {
              "internalType": "t",
              "name": "offerDetail",
              "type": "uint256"
            },
            {
              "internalType": "t",
              "name": "global",
              "type": "uint256"
            },
            {
              "internalType": "t",
              "name": "local",
              "type": "uint256"
            }
          ],
          "internalType": "struct MgvLib.SingleOrder",
          "name": "order",
          "type": "tuple"
        }
      ],
      "name": "makerExecute",
      "outputs": [
        {
          "internalType": "bytes32",
          "name": "ret",
          "type": "bytes32"
        }
      ],
      "stateMutability": "nonpayable",
      "type": "function"
    },
    {
      "inputs": [
        {
          "components": [
            {
              "internalType": "address",
              "name": "outbound_tkn",
              "type": "address"
            },
            {
              "internalType": "address",
              "name": "inbound_tkn",
              "type": "address"
            },
            {
              "internalType": "uint256",
              "name": "offerId",
              "type": "uint256"
            },
            {
              "internalType": "t",
              "name": "offer",
              "type": "uint256"
            },
            {
              "internalType": "uint256",
              "name": "wants",
              "type": "uint256"
            },
            {
              "internalType": "uint256",
              "name": "gives",
              "type": "uint256"
            },
            {
              "internalType": "t",
              "name": "offerDetail",
              "type": "uint256"
            },
            {
              "internalType": "t",
              "name": "global",
              "type": "uint256"
            },
            {
              "internalType": "t",
              "name": "local",
              "type": "uint256"
            }
          ],
          "internalType": "struct MgvLib.SingleOrder",
          "name": "order",
          "type": "tuple"
        },
        {
          "components": [
            {
              "internalType": "bytes32",
              "name": "makerData",
              "type": "bytes32"
            },
            {
              "internalType": "bytes32",
              "name": "mgvData",
              "type": "bytes32"
            }
          ],
          "internalType": "struct MgvLib.OrderResult",
          "name": "result",
          "type": "tuple"
        }
      ],
      "name": "makerPosthook",
      "outputs": [],
      "stateMutability": "nonpayable",
      "type": "function"
    },
    {
      "inputs": [
        {
          "components": [
            {
              "internalType": "contract IEIP20",
              "name": "outbound_tkn",
              "type": "address"
            },
            {
              "internalType": "contract IEIP20",
              "name": "inbound_tkn",
              "type": "address"
            },
            {
              "internalType": "uint256",
              "name": "wants",
              "type": "uint256"
            },
            {
              "internalType": "uint256",
              "name": "gives",
              "type": "uint256"
            },
            {
              "internalType": "uint256",
              "name": "gasreq",
              "type": "uint256"
            },
            {
              "internalType": "uint256",
              "name": "gasprice",
              "type": "uint256"
            },
            {
              "internalType": "uint256",
              "name": "pivotId",
              "type": "uint256"
            }
          ],
          "internalType": "struct IOfferLogic.MakerOrder",
          "name": "mko",
          "type": "tuple"
        }
      ],
      "name": "newOffer",
      "outputs": [
        {
          "internalType": "uint256",
          "name": "offerId",
          "type": "uint256"
        }
      ],
      "stateMutability": "payable",
      "type": "function"
    },
    {
      "inputs": [
        {
          "internalType": "contract IEIP20",
          "name": "outbound_tkn",
          "type": "address"
        },
        {
          "internalType": "contract IEIP20",
          "name": "inbound_tkn",
          "type": "address"
        },
        {
          "internalType": "uint256",
          "name": "offerId",
          "type": "uint256"
        },
        {
          "internalType": "bool",
          "name": "deprovision",
          "type": "bool"
        }
      ],
      "name": "retractOffer",
      "outputs": [
        {
          "internalType": "uint256",
          "name": "",
          "type": "uint256"
        }
      ],
      "stateMutability": "nonpayable",
      "type": "function"
    },
    {
      "inputs": [
        {
          "internalType": "address",
          "name": "_admin",
          "type": "address"
        }
      ],
      "name": "setAdmin",
      "outputs": [],
      "stateMutability": "nonpayable",
      "type": "function"
    },
    {
      "inputs": [
        {
          "internalType": "uint256",
          "name": "gasreq",
          "type": "uint256"
        }
      ],
      "name": "setGasreq",
      "outputs": [],
      "stateMutability": "nonpayable",
      "type": "function"
    },
    {
      "inputs": [
        {
          "components": [
            {
              "internalType": "contract IEIP20",
              "name": "outbound_tkn",
              "type": "address"
            },
            {
              "internalType": "contract IEIP20",
              "name": "inbound_tkn",
              "type": "address"
            },
            {
              "internalType": "uint256",
              "name": "wants",
              "type": "uint256"
            },
            {
              "internalType": "uint256",
              "name": "gives",
              "type": "uint256"
            },
            {
              "internalType": "uint256",
              "name": "gasreq",
              "type": "uint256"
            },
            {
              "internalType": "uint256",
              "name": "gasprice",
              "type": "uint256"
            },
            {
              "internalType": "uint256",
              "name": "pivotId",
              "type": "uint256"
            }
          ],
          "internalType": "struct IOfferLogic.MakerOrder",
          "name": "mko",
          "type": "tuple"
        },
        {
          "internalType": "uint256",
          "name": "offerId",
          "type": "uint256"
        }
      ],
      "name": "updateOffer",
      "outputs": [],
      "stateMutability": "payable",
      "type": "function"
    },
    {
      "inputs": [
        {
          "internalType": "address payable",
          "name": "receiver",
          "type": "address"
        },
        {
          "internalType": "uint256",
          "name": "amount",
          "type": "uint256"
        }
      ],
      "name": "withdrawFromMangrove",
      "outputs": [
        {
          "internalType": "bool",
          "name": "",
          "type": "bool"
        }
      ],
      "stateMutability": "nonpayable",
      "type": "function"
    },
    {
      "inputs": [
        {
          "internalType": "contract IEIP20",
          "name": "token",
          "type": "address"
        },
        {
          "internalType": "address",
          "name": "receiver",
          "type": "address"
        },
        {
          "internalType": "uint256",
          "name": "amount",
          "type": "uint256"
        }
      ],
      "name": "withdrawToken",
      "outputs": [
        {
          "internalType": "bool",
          "name": "success",
          "type": "bool"
        }
      ],
      "stateMutability": "nonpayable",
      "type": "function"
    },
    {
      "stateMutability": "payable",
      "type": "receive"
    }
  ],
  "bytecode": "0x60a06040523480156200001157600080fd5b50604051620020283803806200202883398101604081905262000034916200012c565b80328080620000895760405162461bcd60e51b815260206004820152601860248201527f616363657373436f6e74726f6c6c65642f307841646d696e0000000000000000604482015260640160405180910390fd5b806200009f620000e460201b620013e91760201c565b80546001600160a01b0319166001600160a01b0392831617905583166080525062013880620000d962000108602090811b6200140d17901c565b55506200015e915050565b7f7d382ebca3e46505071795e192d28166a3d4bd0685585591bc6c5b8df6769fd290565b7fae7e31c3220e851db9f204a28b279dfe52b973600b0a456991089c220ae7222490565b6000602082840312156200013f57600080fd5b81516001600160a01b03811681146200015757600080fd5b9392505050565b608051611e53620001d56000396000818161020a015281816106a2015281816107be0152818161094401528181610c7001528181610e3301528181610fc7015281816110ab015281816111790152818161123e0152818161136a01528181611597015281816117eb01526118ad0152611e536000f3fe6080604052600436106100e15760003560e01c80637f84e4941161007f578063aefe840311610059578063aefe840314610271578063e428204d14610291578063e4c34f84146102c5578063f851a440146102e557600080fd5b80637f84e494146101e557806399fa5e2d146101f8578063ad97db1b1461025157600080fd5b80633d3d130d116100bb5780633d3d130d146101645780636c49c32c14610184578063704b6c02146101b25780637ea1a48c146101d257600080fd5b806301e33667146100ed578063063df2d21461012257806334bd89311461014257600080fd5b366100e857005b600080fd5b3480156100f957600080fd5b5061010d610108366004611aae565b61032f565b60405190151581526020015b60405180910390f35b34801561012e57600080fd5b5061010d61013d366004611aef565b6104c0565b34801561014e57600080fd5b5061016261015d366004611b1b565b61064a565b005b34801561017057600080fd5b5061016261017f366004611b47565b6107bc565b34801561019057600080fd5b506101a461019f366004611ba7565b610940565b604051908152602001610119565b3480156101be57600080fd5b506101626101cd366004611bc4565b610a7f565b6101a46101e0366004611bf3565b610b85565b6101626101f3366004611c0f565b610d7c565b34801561020457600080fd5b5061022c7f000000000000000000000000000000000000000000000000000000000000000081565b60405173ffffffffffffffffffffffffffffffffffffffff9091168152602001610119565b34801561025d57600080fd5b506101a461026c366004611c49565b610f3b565b34801561027d57600080fd5b5061016261028c366004611aef565b611121565b34801561029d57600080fd5b507fae7e31c3220e851db9f204a28b279dfe52b973600b0a456991089c220ae72224546101a4565b3480156102d157600080fd5b506101a46102e0366004611c9c565b611320565b3480156102f157600080fd5b507f7d382ebca3e46505071795e192d28166a3d4bd0685585591bc6c5b8df6769fd25473ffffffffffffffffffffffffffffffffffffffff1661022c565b600061036f7f7d382ebca3e46505071795e192d28166a3d4bd0685585591bc6c5b8df6769fd25473ffffffffffffffffffffffffffffffffffffffff1690565b73ffffffffffffffffffffffffffffffffffffffff163373ffffffffffffffffffffffffffffffffffffffff1614610408576040517f08c379a000000000000000000000000000000000000000000000000000000000815260206004820152601860248201527f416363657373436f6e74726f6c6c65642f496e76616c6964000000000000000060448201526064015b60405180910390fd5b73ffffffffffffffffffffffffffffffffffffffff83166104ab576040517f08c379a000000000000000000000000000000000000000000000000000000000815260206004820152602360248201527f53696e676c65557365722f7769746864726177546f6b656e2f3078526563656960448201527f766572000000000000000000000000000000000000000000000000000000000060648201526084016103ff565b6104b6848484611431565b90505b9392505050565b60006105007f7d382ebca3e46505071795e192d28166a3d4bd0685585591bc6c5b8df6769fd25473ffffffffffffffffffffffffffffffffffffffff1690565b73ffffffffffffffffffffffffffffffffffffffff163373ffffffffffffffffffffffffffffffffffffffff1614610594576040517f08c379a000000000000000000000000000000000000000000000000000000000815260206004820152601860248201527f416363657373436f6e74726f6c6c65642f496e76616c6964000000000000000060448201526064016103ff565b73ffffffffffffffffffffffffffffffffffffffff8316610637576040517f08c379a000000000000000000000000000000000000000000000000000000000815260206004820152602160248201527f53696e676c65557365722f77697468647261774d47562f30785265636569766560448201527f720000000000000000000000000000000000000000000000000000000000000060648201526084016103ff565b6106418383611565565b90505b92915050565b7f7d382ebca3e46505071795e192d28166a3d4bd0685585591bc6c5b8df6769fd25473ffffffffffffffffffffffffffffffffffffffff163314806106c457503373ffffffffffffffffffffffffffffffffffffffff7f000000000000000000000000000000000000000000000000000000000000000016145b61072a576040517f08c379a000000000000000000000000000000000000000000000000000000000815260206004820152601860248201527f416363657373436f6e74726f6c6c65642f496e76616c6964000000000000000060448201526064016103ff565b808162ffffff1614610798576040517f08c379a000000000000000000000000000000000000000000000000000000000815260206004820152601860248201527f6d67764f666665722f6761737265712f6f766572666c6f77000000000000000060448201526064016103ff565b7fae7e31c3220e851db9f204a28b279dfe52b973600b0a456991089c220ae7222455565b7f000000000000000000000000000000000000000000000000000000000000000073ffffffffffffffffffffffffffffffffffffffff8116158061081557503373ffffffffffffffffffffffffffffffffffffffff8216145b61087b576040517f08c379a000000000000000000000000000000000000000000000000000000000815260206004820152601860248201527f416363657373436f6e74726f6c6c65642f496e76616c6964000000000000000060448201526064016103ff565b81602001357f6d67762f74726164655375636365737300000000000000000000000000000000036108af5760015b50505050565b604083018035906108c39060208601611bc4565b73ffffffffffffffffffffffffffffffffffffffff166108e66020860186611bc4565b73ffffffffffffffffffffffffffffffffffffffff167fd2c3f090769d843e1fc2e6ce65d60572e28f9163a5cfccbd6c1725c6a9263f2f856000013560405161093191815260200190565b60405180910390a460016108a9565b60007f000000000000000000000000000000000000000000000000000000000000000073ffffffffffffffffffffffffffffffffffffffff8116158061099b57503373ffffffffffffffffffffffffffffffffffffffff8216145b610a01576040517f08c379a000000000000000000000000000000000000000000000000000000000815260206004820152601860248201527f416363657373436f6e74726f6c6c65642f496e76616c6964000000000000000060448201526064016103ff565b6000610a1184608001358561170b565b1115610a79576040517f08c379a000000000000000000000000000000000000000000000000000000000815260206004820152601860248201527f6d67764f666665722f61626f72742f6765744661696c6564000000000000000060448201526064016103ff565b50919050565b7f7d382ebca3e46505071795e192d28166a3d4bd0685585591bc6c5b8df6769fd25473ffffffffffffffffffffffffffffffffffffffff163314610b1f576040517f08c379a000000000000000000000000000000000000000000000000000000000815260206004820152601860248201527f416363657373436f6e74726f6c6c65642f496e76616c6964000000000000000060448201526064016103ff565b7f7d382ebca3e46505071795e192d28166a3d4bd0685585591bc6c5b8df6769fd280547fffffffffffffffffffffffff00000000000000000000000000000000000000001673ffffffffffffffffffffffffffffffffffffffff92909216919091179055565b6000610bc57f7d382ebca3e46505071795e192d28166a3d4bd0685585591bc6c5b8df6769fd25473ffffffffffffffffffffffffffffffffffffffff1690565b73ffffffffffffffffffffffffffffffffffffffff163373ffffffffffffffffffffffffffffffffffffffff1614610c59576040517f08c379a000000000000000000000000000000000000000000000000000000000815260206004820152601860248201527f416363657373436f6e74726f6c6c65642f496e76616c6964000000000000000060448201526064016103ff565b73ffffffffffffffffffffffffffffffffffffffff7f0000000000000000000000000000000000000000000000000000000000000000166349f6d2dc34610ca36020860186611bc4565b610cb36040870160208801611bc4565b604080517fffffffff0000000000000000000000000000000000000000000000000000000060e087901b16815273ffffffffffffffffffffffffffffffffffffffff93841660048201529290911660248301528601356044820152606086013560648201526080860135608482015260a086013560a482015260c086013560c482015260e40160206040518083038185885af1158015610d57573d6000803e3d6000fd5b50505050506040513d601f19601f820116820180604052508101906106449190611ced565b7f7d382ebca3e46505071795e192d28166a3d4bd0685585591bc6c5b8df6769fd25473ffffffffffffffffffffffffffffffffffffffff163314610e1c576040517f08c379a000000000000000000000000000000000000000000000000000000000815260206004820152601860248201527f416363657373436f6e74726f6c6c65642f496e76616c6964000000000000000060448201526064016103ff565b73ffffffffffffffffffffffffffffffffffffffff7f000000000000000000000000000000000000000000000000000000000000000016636a4f769134610e666020860186611bc4565b610e766040870160208801611bc4565b604080517fffffffff0000000000000000000000000000000000000000000000000000000060e087901b16815273ffffffffffffffffffffffffffffffffffffffff93841660048201529290911660248301528601356044820152606086013560648201526080860135608482015260a086013560a482015260c086013560c482015260e48101859052610104016000604051808303818588803b158015610f1d57600080fd5b505af1158015610f31573d6000803e3d6000fd5b50505050505b5050565b6000610f7b7f7d382ebca3e46505071795e192d28166a3d4bd0685585591bc6c5b8df6769fd25473ffffffffffffffffffffffffffffffffffffffff1690565b73ffffffffffffffffffffffffffffffffffffffff163373ffffffffffffffffffffffffffffffffffffffff161480610fe957503373ffffffffffffffffffffffffffffffffffffffff7f000000000000000000000000000000000000000000000000000000000000000016145b61104f576040517f08c379a000000000000000000000000000000000000000000000000000000000815260206004820152601860248201527f416363657373436f6e74726f6c6c65642f496e76616c6964000000000000000060448201526064016103ff565b6040517fad97db1b00000000000000000000000000000000000000000000000000000000815273ffffffffffffffffffffffffffffffffffffffff868116600483015285811660248301526044820185905283151560648301527f0000000000000000000000000000000000000000000000000000000000000000169063ad97db1b906084016020604051808303816000875af11580156110f4573d6000803e3d6000fd5b505050506040513d601f19601f820116820180604052508101906111189190611ced565b95945050505050565b7f7d382ebca3e46505071795e192d28166a3d4bd0685585591bc6c5b8df6769fd25473ffffffffffffffffffffffffffffffffffffffff1633148061119b57503373ffffffffffffffffffffffffffffffffffffffff7f000000000000000000000000000000000000000000000000000000000000000016145b611201576040517f08c379a000000000000000000000000000000000000000000000000000000000815260206004820152601860248201527f416363657373436f6e74726f6c6c65642f496e76616c6964000000000000000060448201526064016103ff565b6040517f095ea7b300000000000000000000000000000000000000000000000000000000815273ffffffffffffffffffffffffffffffffffffffff7f0000000000000000000000000000000000000000000000000000000000000000811660048301526024820183905283169063095ea7b3906044016020604051808303816000875af1158015611296573d6000803e3d6000fd5b505050506040513d601f19601f820116820180604052508101906112ba9190611d06565b610f37576040517f08c379a000000000000000000000000000000000000000000000000000000000815260206004820152601560248201527f6d67764f666665722f617070726f76652f4661696c000000000000000000000060448201526064016103ff565b6040517f70a082310000000000000000000000000000000000000000000000000000000081523060048201526000906113df9073ffffffffffffffffffffffffffffffffffffffff7f000000000000000000000000000000000000000000000000000000000000000016906370a0823190602401602060405180830381865afa1580156113b1573d6000803e3d6000fd5b505050506040513d601f19601f820116820180604052508101906113d59190611ced565b87878787876117d0565b9695505050505050565b7f7d382ebca3e46505071795e192d28166a3d4bd0685585591bc6c5b8df6769fd290565b7fae7e31c3220e851db9f204a28b279dfe52b973600b0a456991089c220ae7222490565b6000811580611455575073ffffffffffffffffffffffffffffffffffffffff831630145b15611462575060016104b9565b6040805173ffffffffffffffffffffffffffffffffffffffff8581166024830152604480830186905283518084039091018152606490920183526020820180517bffffffffffffffffffffffffffffffffffffffffffffffffffffffff167fa9059cbb0000000000000000000000000000000000000000000000000000000017905291516000928392908816916114f99190611d23565b6000604051808303816000865af19150503d8060008114611536576040519150601f19603f3d011682016040523d82523d6000602084013e61153b565b606091505b50915091508180156113df5750805115806113df5750808060200190518101906113df9190611d06565b6040517f2e1a7d4d000000000000000000000000000000000000000000000000000000008152600481018290526000907f000000000000000000000000000000000000000000000000000000000000000073ffffffffffffffffffffffffffffffffffffffff1690632e1a7d4d906024016020604051808303816000875af11580156115f5573d6000803e3d6000fd5b505050506040513d601f19601f820116820180604052508101906116199190611d06565b61167f576040517f08c379a000000000000000000000000000000000000000000000000000000000815260206004820152601e60248201527f6d67764f666665722f77697468647261772f7472616e736665724661696c000060448201526064016103ff565b73ffffffffffffffffffffffffffffffffffffffff831630146117025760405173ffffffffffffffffffffffffffffffffffffffff8416908390600081818185875af1925050503d80600081146116f2576040519150601f19603f3d011682016040523d82523d6000602084013e6116f7565b606091505b505080915050610644565b50600192915050565b60008061171b6020840184611bc4565b6040517f70a0823100000000000000000000000000000000000000000000000000000000815230600482015273ffffffffffffffffffffffffffffffffffffffff91909116906370a0823190602401602060405180830381865afa158015611787573d6000803e3d6000fd5b505050506040513d601f19601f820116820180604052508101906117ab9190611ced565b90508381106117be576000915050610644565b6117c88185611d8d565b915050610644565b6000808073ffffffffffffffffffffffffffffffffffffffff7f00000000000000000000000000000000000000000000000000000000000000001663cbf75c9a89896040517fffffffff0000000000000000000000000000000000000000000000000000000060e085901b16815273ffffffffffffffffffffffffffffffffffffffff9283166004820152911660248201526044016040805180830381865afa158015611881573d6000803e3d6000fd5b505050506040513d601f19601f820116820180604052508101906118a59190611da4565b9150915060007f000000000000000000000000000000000000000000000000000000000000000073ffffffffffffffffffffffffffffffffffffffff16635722647b6118ee8b90565b8a6040517fffffffff0000000000000000000000000000000000000000000000000000000060e085901b16815273ffffffffffffffffffffffffffffffffffffffff92831660048201529116602482015260448101889052606401602060405180830381865afa158015611966573d6000803e3d6000fd5b505050506040513d601f19601f8201168201806040525081019061198a9190611ced565b9050600086604085901c61ffff1611156119ad575061ffff604084901c166119b0565b50855b62ffffff8811156119e0577fae7e31c3220e851db9f204a28b279dfe52b973600b0a456991089c220ae722245497505b6000816119f662ffffff606087901c168b611dc8565b611a009190611de0565b611a0e90633b9aca00611de0565b9050600061ffff602085901c16611a3562ffffff603087901c811690604888901c16611dc8565b611a3f9190611de0565b611a4d90633b9aca00611de0565b90506000611a5b8e83611dc8565b905082811015611a7457611a6f8184611d8d565b611a77565b60005b9e9d5050505050505050505050505050565b73ffffffffffffffffffffffffffffffffffffffff81168114611aab57600080fd5b50565b600080600060608486031215611ac357600080fd5b8335611ace81611a89565b92506020840135611ade81611a89565b929592945050506040919091013590565b60008060408385031215611b0257600080fd5b8235611b0d81611a89565b946020939093013593505050565b600060208284031215611b2d57600080fd5b5035919050565b60006101208284031215610a7957600080fd5b600080828403610160811215611b5c57600080fd5b611b668585611b34565b925060407ffffffffffffffffffffffffffffffffffffffffffffffffffffffffffffffee082011215611b9857600080fd5b50610120830190509250929050565b60006101208284031215611bba57600080fd5b6106418383611b34565b600060208284031215611bd657600080fd5b81356104b981611a89565b600060e08284031215610a7957600080fd5b600060e08284031215611c0557600080fd5b6106418383611be1565b6000806101008385031215611c2357600080fd5b611c2d8484611be1565b9460e0939093013593505050565b8015158114611aab57600080fd5b60008060008060808587031215611c5f57600080fd5b8435611c6a81611a89565b93506020850135611c7a81611a89565b9250604085013591506060850135611c9181611c3b565b939692955090935050565b600080600080600060a08688031215611cb457600080fd5b8535611cbf81611a89565b94506020860135611ccf81611a89565b94979496505050506040830135926060810135926080909101359150565b600060208284031215611cff57600080fd5b5051919050565b600060208284031215611d1857600080fd5b81516104b981611c3b565b6000825160005b81811015611d445760208186018101518583015201611d2a565b81811115611d53576000828501525b509190910192915050565b7f4e487b7100000000000000000000000000000000000000000000000000000000600052601160045260246000fd5b600082821015611d9f57611d9f611d5e565b500390565b60008060408385031215611db757600080fd5b505080516020909101519092909150565b60008219821115611ddb57611ddb611d5e565b500190565b6000817fffffffffffffffffffffffffffffffffffffffffffffffffffffffffffffffff0483118215151615611e1857611e18611d5e565b50029056fea26469706673582212206fc20c7e66ab0accaa4b7fa0d8bea026e9a525ab4e0f4785fc819876ac7c30b764736f6c634300080e0033",
  "linkReferences": {},
  "deployedLinkReferences": {}
}