{
  "_format": "hh-sol-artifact-1",
  "contractName": "SimpleMaker",
  "sourceName": "contracts/Strategies/OfferLogics/SingleUser/Deployable/SimpleMaker.sol",
  "abi": [
    {
      "inputs": [
        {
          "internalType": "contract IMangrove",
          "name": "_MGV",
          "type": "address"
        },
        {
          "internalType": "address",
          "name": "deployer",
          "type": "address"
        }
      ],
      "stateMutability": "nonpayable",
      "type": "constructor"
    },
    {
      "anonymous": false,
      "inputs": [
        {
          "indexed": false,
          "internalType": "contract IMangrove",
          "name": "mangrove",
          "type": "address"
        },
        {
          "indexed": true,
          "internalType": "contract IEIP20",
          "name": "outbound_tkn",
          "type": "address"
        },
        {
          "indexed": true,
          "internalType": "contract IEIP20",
          "name": "inbound_tkn",
          "type": "address"
        },
        {
          "indexed": true,
          "internalType": "uint256",
          "name": "offerId",
          "type": "uint256"
        },
        {
          "indexed": false,
          "internalType": "bytes32",
          "name": "reason",
          "type": "bytes32"
        }
      ],
      "name": "LogIncident",
      "type": "event"
    },
    {
      "anonymous": false,
      "inputs": [
        {
          "indexed": false,
          "internalType": "uint256",
          "name": "",
          "type": "uint256"
        }
      ],
      "name": "SetGasreq",
      "type": "event"
    },
    {
      "anonymous": false,
      "inputs": [
        {
          "indexed": false,
          "internalType": "contract AbstractRouter",
          "name": "",
          "type": "address"
        }
      ],
      "name": "SetRouter",
      "type": "event"
    },
    {
      "inputs": [],
      "name": "MGV",
      "outputs": [
        {
          "internalType": "contract IMangrove",
          "name": "",
          "type": "address"
        }
      ],
      "stateMutability": "view",
      "type": "function"
    },
    {
      "inputs": [],
      "name": "admin",
      "outputs": [
        {
          "internalType": "address",
          "name": "",
          "type": "address"
        }
      ],
      "stateMutability": "view",
      "type": "function"
    },
    {
      "inputs": [
        {
          "internalType": "contract IEIP20",
          "name": "outbound_tkn",
          "type": "address"
        },
        {
          "internalType": "uint256",
          "name": "amount",
          "type": "uint256"
        }
      ],
      "name": "approveMangrove",
      "outputs": [],
      "stateMutability": "nonpayable",
      "type": "function"
    },
    {
      "inputs": [
        {
          "internalType": "contract IEIP20",
          "name": "token",
          "type": "address"
        }
      ],
      "name": "approveRouter",
      "outputs": [],
      "stateMutability": "nonpayable",
      "type": "function"
    },
    {
      "inputs": [
        {
          "internalType": "contract IEIP20",
          "name": "outbound_tkn",
          "type": "address"
        },
        {
          "internalType": "contract IEIP20",
          "name": "inbound_tkn",
          "type": "address"
        },
        {
          "internalType": "uint256",
          "name": "gasreq",
          "type": "uint256"
        },
        {
          "internalType": "uint256",
          "name": "gasprice",
          "type": "uint256"
        },
        {
          "internalType": "uint256",
          "name": "offerId",
          "type": "uint256"
        }
      ],
      "name": "getMissingProvision",
      "outputs": [
        {
          "internalType": "uint256",
          "name": "",
          "type": "uint256"
        }
      ],
      "stateMutability": "view",
      "type": "function"
    },
    {
      "inputs": [],
      "name": "has_router",
      "outputs": [
        {
          "internalType": "bool",
          "name": "",
          "type": "bool"
        }
      ],
      "stateMutability": "view",
      "type": "function"
    },
    {
      "inputs": [
        {
          "components": [
            {
              "internalType": "address",
              "name": "outbound_tkn",
              "type": "address"
            },
            {
              "internalType": "address",
              "name": "inbound_tkn",
              "type": "address"
            },
            {
              "internalType": "uint256",
              "name": "offerId",
              "type": "uint256"
            },
            {
              "internalType": "t",
              "name": "offer",
              "type": "uint256"
            },
            {
              "internalType": "uint256",
              "name": "wants",
              "type": "uint256"
            },
            {
              "internalType": "uint256",
              "name": "gives",
              "type": "uint256"
            },
            {
              "internalType": "t",
              "name": "offerDetail",
              "type": "uint256"
            },
            {
              "internalType": "t",
              "name": "global",
              "type": "uint256"
            },
            {
              "internalType": "t",
              "name": "local",
              "type": "uint256"
            }
          ],
          "internalType": "struct MgvLib.SingleOrder",
          "name": "order",
          "type": "tuple"
        }
      ],
      "name": "makerExecute",
      "outputs": [
        {
          "internalType": "bytes32",
          "name": "ret",
          "type": "bytes32"
        }
      ],
      "stateMutability": "nonpayable",
      "type": "function"
    },
    {
      "inputs": [
        {
          "components": [
            {
              "internalType": "address",
              "name": "outbound_tkn",
              "type": "address"
            },
            {
              "internalType": "address",
              "name": "inbound_tkn",
              "type": "address"
            },
            {
              "internalType": "uint256",
              "name": "offerId",
              "type": "uint256"
            },
            {
              "internalType": "t",
              "name": "offer",
              "type": "uint256"
            },
            {
              "internalType": "uint256",
              "name": "wants",
              "type": "uint256"
            },
            {
              "internalType": "uint256",
              "name": "gives",
              "type": "uint256"
            },
            {
              "internalType": "t",
              "name": "offerDetail",
              "type": "uint256"
            },
            {
              "internalType": "t",
              "name": "global",
              "type": "uint256"
            },
            {
              "internalType": "t",
              "name": "local",
              "type": "uint256"
            }
          ],
          "internalType": "struct MgvLib.SingleOrder",
          "name": "order",
          "type": "tuple"
        },
        {
          "components": [
            {
              "internalType": "bytes32",
              "name": "makerData",
              "type": "bytes32"
            },
            {
              "internalType": "bytes32",
              "name": "mgvData",
              "type": "bytes32"
            }
          ],
          "internalType": "struct MgvLib.OrderResult",
          "name": "result",
          "type": "tuple"
        }
      ],
      "name": "makerPosthook",
      "outputs": [],
      "stateMutability": "nonpayable",
      "type": "function"
    },
    {
      "inputs": [
        {
          "components": [
            {
              "internalType": "contract IEIP20",
              "name": "outbound_tkn",
              "type": "address"
            },
            {
              "internalType": "contract IEIP20",
              "name": "inbound_tkn",
              "type": "address"
            },
            {
              "internalType": "uint256",
              "name": "wants",
              "type": "uint256"
            },
            {
              "internalType": "uint256",
              "name": "gives",
              "type": "uint256"
            },
            {
              "internalType": "uint256",
              "name": "gasreq",
              "type": "uint256"
            },
            {
              "internalType": "uint256",
              "name": "gasprice",
              "type": "uint256"
            },
            {
              "internalType": "uint256",
              "name": "pivotId",
              "type": "uint256"
            },
            {
              "internalType": "uint256",
              "name": "offerId",
              "type": "uint256"
            }
          ],
          "internalType": "struct IOfferLogic.MakerOrder",
          "name": "mko",
          "type": "tuple"
        }
      ],
      "name": "newOffer",
      "outputs": [
        {
          "internalType": "uint256",
          "name": "",
          "type": "uint256"
        }
      ],
      "stateMutability": "payable",
      "type": "function"
    },
    {
      "inputs": [],
      "name": "ofr_gasreq",
      "outputs": [
        {
          "internalType": "uint256",
          "name": "",
          "type": "uint256"
        }
      ],
      "stateMutability": "view",
      "type": "function"
    },
    {
      "inputs": [],
      "name": "reserve",
      "outputs": [
        {
          "internalType": "address",
          "name": "",
          "type": "address"
        }
      ],
      "stateMutability": "view",
      "type": "function"
    },
    {
      "inputs": [
        {
          "internalType": "contract IEIP20",
          "name": "outbound_tkn",
          "type": "address"
        },
        {
          "internalType": "contract IEIP20",
          "name": "inbound_tkn",
          "type": "address"
        },
        {
          "internalType": "uint256",
          "name": "offerId",
          "type": "uint256"
        },
        {
          "internalType": "bool",
          "name": "deprovision",
          "type": "bool"
        }
      ],
      "name": "retractOffer",
      "outputs": [
        {
          "internalType": "uint256",
          "name": "",
          "type": "uint256"
        }
      ],
      "stateMutability": "nonpayable",
      "type": "function"
    },
    {
      "inputs": [],
      "name": "router",
      "outputs": [
        {
          "internalType": "contract AbstractRouter",
          "name": "",
          "type": "address"
        }
      ],
      "stateMutability": "view",
      "type": "function"
    },
    {
      "inputs": [
        {
          "internalType": "address",
          "name": "_admin",
          "type": "address"
        }
      ],
      "name": "setAdmin",
      "outputs": [],
      "stateMutability": "nonpayable",
      "type": "function"
    },
    {
      "inputs": [
        {
          "internalType": "uint256",
          "name": "gasreq",
          "type": "uint256"
        }
      ],
      "name": "set_gasreq",
      "outputs": [],
      "stateMutability": "nonpayable",
      "type": "function"
    },
    {
      "inputs": [
        {
          "internalType": "address",
          "name": "_reserve",
          "type": "address"
        }
      ],
      "name": "set_reserve",
      "outputs": [],
      "stateMutability": "nonpayable",
      "type": "function"
    },
    {
      "inputs": [
        {
          "internalType": "contract AbstractRouter",
          "name": "router_",
          "type": "address"
        }
      ],
      "name": "set_router",
      "outputs": [],
      "stateMutability": "nonpayable",
      "type": "function"
    },
    {
      "inputs": [
        {
          "internalType": "contract IEIP20",
          "name": "token",
          "type": "address"
        }
      ],
      "name": "tokenBalance",
      "outputs": [
        {
          "internalType": "uint256",
          "name": "",
          "type": "uint256"
        }
      ],
      "stateMutability": "view",
      "type": "function"
    },
    {
      "inputs": [
        {
          "components": [
            {
              "internalType": "contract IEIP20",
              "name": "outbound_tkn",
              "type": "address"
            },
            {
              "internalType": "contract IEIP20",
              "name": "inbound_tkn",
              "type": "address"
            },
            {
              "internalType": "uint256",
              "name": "wants",
              "type": "uint256"
            },
            {
              "internalType": "uint256",
              "name": "gives",
              "type": "uint256"
            },
            {
              "internalType": "uint256",
              "name": "gasreq",
              "type": "uint256"
            },
            {
              "internalType": "uint256",
              "name": "gasprice",
              "type": "uint256"
            },
            {
              "internalType": "uint256",
              "name": "pivotId",
              "type": "uint256"
            },
            {
              "internalType": "uint256",
              "name": "offerId",
              "type": "uint256"
            }
          ],
          "internalType": "struct IOfferLogic.MakerOrder",
          "name": "mko",
          "type": "tuple"
        }
      ],
      "name": "updateOffer",
      "outputs": [],
      "stateMutability": "payable",
      "type": "function"
    },
    {
      "inputs": [
        {
          "internalType": "uint256",
          "name": "amount",
          "type": "uint256"
        },
        {
          "internalType": "address",
          "name": "receiver",
          "type": "address"
        }
      ],
      "name": "withdrawFromMangrove",
      "outputs": [],
      "stateMutability": "nonpayable",
      "type": "function"
    },
    {
      "inputs": [
        {
          "internalType": "contract IEIP20",
          "name": "token",
          "type": "address"
        },
        {
          "internalType": "address",
          "name": "receiver",
          "type": "address"
        },
        {
          "internalType": "uint256",
          "name": "amount",
          "type": "uint256"
        }
      ],
      "name": "withdrawToken",
      "outputs": [
        {
          "internalType": "bool",
          "name": "success",
          "type": "bool"
        }
      ],
      "stateMutability": "nonpayable",
      "type": "function"
    },
    {
      "stateMutability": "payable",
      "type": "receive"
    }
  ],
  "bytecode": "0x60a06040523480156200001157600080fd5b50604051620034d6380380620034d68339810160408190526200003491620005b5565b81617530600082823380620000905760405162461bcd60e51b815260206004820152601860248201527f616363657373436f6e74726f6c6c65642f307841646d696e000000000000000060448201526064015b60405180910390fd5b80620000a66200019f60201b620023d81760201c565b80546001600160a01b0319166001600160a01b03929092169190911790555062ffffff811681146200011b5760405162461bcd60e51b815260206004820152601b60248201527f4d616e67726f76654f666665722f676173726571546f6f486967680000000000604482015260640162000087565b6001600160a01b038216608052806200013f620001c3602090811b620023fc17901c565b5550506001600160a01b03811662000162576200015c30620001e7565b62000178565b6200016d81620001e7565b6200017881620002f0565b5050506001600160a01b03811633146200019757620001978162000489565b5050620005f4565b7f7d382ebca3e46505071795e192d28166a3d4bd0685585591bc6c5b8df6769fd290565b7fae7e31c3220e851db9f204a28b279dfe52b973600b0a456991089c220ae7222490565b620001f162000552565b6001600160a01b0316336001600160a01b031614806200022457506080516001600160a01b0316336001600160a01b0316145b620002615760405162461bcd60e51b81526020600482015260186024820152600080516020620034b6833981519152604482015260640162000087565b6001600160a01b038116620002b95760405162461bcd60e51b815260206004820152601460248201527f53696e676c65557365722f307852657365727665000000000000000000000000604482015260640162000087565b80620002cf6200057860201b620024201760201c565b80546001600160a01b0319166001600160a01b039290921691909117905550565b620002fa62000552565b6001600160a01b0316336001600160a01b031614806200032d57506080516001600160a01b0316336001600160a01b0316145b6200036a5760405162461bcd60e51b81526020600482015260186024820152600080516020620034b6833981519152604482015260640162000087565b6001600160a01b038116620003c25760405162461bcd60e51b815260206004820152601c60248201527f6d67764f666665722f7365745f726f757465722f3078526f7574657200000000604482015260640162000087565b80620003d8620001c360201b620023fc1760201c565b60010180546001600160a01b0319166001600160a01b039283161790556040516381bac14f60e01b8152306004820152908216906381bac14f90602401600060405180830381600087803b1580156200043057600080fd5b505af115801562000445573d6000803e3d6000fd5b50506040516001600160a01b03841681527f6de4326a8b9054d72d9dbab97d27bc4edffadee7d966f5af9cc4eafdaf8e54559250602001905060405180910390a150565b6200049362000552565b6001600160a01b0316336001600160a01b031614620004e45760405162461bcd60e51b81526020600482015260186024820152600080516020620034b6833981519152604482015260640162000087565b6001600160a01b0381166200053c5760405162461bcd60e51b815260206004820152601860248201527f416363657373436f6e74726f6c6c65642f307841646d696e0000000000000000604482015260640162000087565b80620002cf6200019f60201b620023d81760201c565b6000620005696200019f60201b620023d81760201c565b546001600160a01b0316919050565b7f7bccd2960a07f28b1420615e9ead32d6e77e21d42f4a6c1a1fe785dae226653290565b6001600160a01b0381168114620005b257600080fd5b50565b60008060408385031215620005c957600080fd5b8251620005d6816200059c565b6020840151909250620005e9816200059c565b809150509250929050565b608051612e2162000695600039600081816102e30152818161071d0152818161084f0152818161097e01528181610a3b01528181610bfb01528181610d4101528181610fa80152818161106b0152818161112301528181611422015281816114ec015281816115b601528181611661015281816118d101528181611ada01528181611b9c01528181611d6a0152818161202c01526122c30152612e216000f3fe60806040526004361061016e5760003560e01c8063ad97db1b116100cb578063e4c34f841161007f578063f851a44011610059578063f851a44014610414578063f887ea4014610429578063fc488a381461043e57600080fd5b8063e4c34f84146103b4578063eedc966a146103d4578063f259cd27146103f457600080fd5b8063cd3293de116100b0578063cd3293de1461036a578063d1baa1ef1461037f578063db11851e1461039457600080fd5b8063ad97db1b1461032a578063aefe84031461034a57600080fd5b80636c49c32c116101225780637144df24116101075780637144df241461026557806384b627f91461028557806399fa5e2d146102d157600080fd5b80636c49c32c14610225578063704b6c021461024557600080fd5b80633d3d130d116101535780633d3d130d146101c45780633d77fcde146101e45780635486c95f1461020457600080fd5b806301e336671461017a57806310aded60146101af57600080fd5b3661017557005b600080fd5b34801561018657600080fd5b5061019a61019536600461293b565b61045e565b60405190151581526020015b60405180910390f35b6101c26101bd36600461297c565b610699565b005b3480156101d057600080fd5b506101c26101df366004612a54565b61084d565b3480156101f057600080fd5b506101c26101ff366004612ab4565b6109e7565b61021761021236600461297c565b610b75565b6040519081526020016101a6565b34801561023157600080fd5b50610217610240366004612ad1565b610d3d565b34801561025157600080fd5b506101c2610260366004612ab4565b610e48565b34801561027157600080fd5b506101c2610280366004612aee565b610f54565b34801561029157600080fd5b507fae7e31c3220e851db9f204a28b279dfe52b973600b0a456991089c220ae722255473ffffffffffffffffffffffffffffffffffffffff16151561019a565b3480156102dd57600080fd5b506103057f000000000000000000000000000000000000000000000000000000000000000081565b60405173ffffffffffffffffffffffffffffffffffffffff90911681526020016101a6565b34801561033657600080fd5b50610217610345366004612b2c565b6113cc565b34801561035657600080fd5b506101c2610365366004612b7f565b611562565b34801561037657600080fd5b50610305611729565b34801561038b57600080fd5b50610217611769565b3480156103a057600080fd5b506101c26103af366004612ab4565b61187d565b3480156103c057600080fd5b506102176103cf366004612bab565b611abf565b3480156103e057600080fd5b506102176103ef366004612ab4565b611e0c565b34801561040057600080fd5b506101c261040f366004612ab4565b611fd8565b34801561042057600080fd5b506103056121bf565b34801561043557600080fd5b506103056121e7565b34801561044a57600080fd5b506101c2610459366004612bfc565b61226f565b60006104686121bf565b73ffffffffffffffffffffffffffffffffffffffff163373ffffffffffffffffffffffffffffffffffffffff16146104e75760405162461bcd60e51b815260206004820152601860248201527f416363657373436f6e74726f6c6c65642f496e76616c6964000000000000000060448201526064015b60405180910390fd5b73ffffffffffffffffffffffffffffffffffffffff83166105705760405162461bcd60e51b815260206004820152602360248201527f53696e676c65557365722f7769746864726177546f6b656e2f3078526563656960448201527f766572000000000000000000000000000000000000000000000000000000000060648201526084016104de565b7fae7e31c3220e851db9f204a28b279dfe52b973600b0a456991089c220ae722255473ffffffffffffffffffffffffffffffffffffffff166105be576105b7848484612444565b9050610692565b6105c66121e7565b73ffffffffffffffffffffffffffffffffffffffff166321754d9e856105ea611729565b6040517fffffffff0000000000000000000000000000000000000000000000000000000060e085901b16815273ffffffffffffffffffffffffffffffffffffffff928316600482015290821660248201529086166044820152606481018590526084016020604051808303816000875af115801561066c573d6000803e3d6000fd5b505050506040513d601f19601f820116820180604052508101906106909190612c15565b505b9392505050565b6106a16121bf565b73ffffffffffffffffffffffffffffffffffffffff163373ffffffffffffffffffffffffffffffffffffffff161461071b5760405162461bcd60e51b815260206004820152601860248201527f416363657373436f6e74726f6c6c65642f496e76616c6964000000000000000060448201526064016104de565b7f000000000000000000000000000000000000000000000000000000000000000073ffffffffffffffffffffffffffffffffffffffff16636a4f769134836000015184602001518560400151866060015162ffffff801688608001511161078657876080015161078e565b61078e611769565b60a089015160c08a015160e0808c0151604051918b901b7fffffffff0000000000000000000000000000000000000000000000000000000016825273ffffffffffffffffffffffffffffffffffffffff988916600483015296909716602488015260448701949094526064860192909252608485015260a484015260c483015260e4820152610104016000604051808303818588803b15801561083057600080fd5b505af1158015610844573d6000803e3d6000fd5b50505050505b50565b7f000000000000000000000000000000000000000000000000000000000000000073ffffffffffffffffffffffffffffffffffffffff811615806108a657503373ffffffffffffffffffffffffffffffffffffffff8216145b6108f25760405162461bcd60e51b815260206004820152601860248201527f416363657373436f6e74726f6c6c65642f496e76616c6964000000000000000060448201526064016104de565b81602001357f6d67762f747261646553756363657373000000000000000000000000000000000361092c5761092683612582565b50505050565b604083018035906109409060208601612ab4565b73ffffffffffffffffffffffffffffffffffffffff166109636020860186612ab4565b6040805173ffffffffffffffffffffffffffffffffffffffff7f0000000000000000000000000000000000000000000000000000000000000000811682528735602083015292909216917f736a3993b9f8b1c5603896c76376792887f376b1fe7fc981e09a16530bf1e4e0910160405180910390a4610926838361265a565b505050565b6109ef6121bf565b73ffffffffffffffffffffffffffffffffffffffff163373ffffffffffffffffffffffffffffffffffffffff161480610a5d57503373ffffffffffffffffffffffffffffffffffffffff7f000000000000000000000000000000000000000000000000000000000000000016145b610aa95760405162461bcd60e51b815260206004820152601860248201527f416363657373436f6e74726f6c6c65642f496e76616c6964000000000000000060448201526064016104de565b73ffffffffffffffffffffffffffffffffffffffff8116610b0c5760405162461bcd60e51b815260206004820152601460248201527f53696e676c65557365722f30785265736572766500000000000000000000000060448201526064016104de565b807f7bccd2960a07f28b1420615e9ead32d6e77e21d42f4a6c1a1fe785dae22665325b80547fffffffffffffffffffffffff00000000000000000000000000000000000000001673ffffffffffffffffffffffffffffffffffffffff9290921691909117905550565b6000610b7f6121bf565b73ffffffffffffffffffffffffffffffffffffffff163373ffffffffffffffffffffffffffffffffffffffff1614610bf95760405162461bcd60e51b815260206004820152601860248201527f416363657373436f6e74726f6c6c65642f496e76616c6964000000000000000060448201526064016104de565b7f000000000000000000000000000000000000000000000000000000000000000073ffffffffffffffffffffffffffffffffffffffff166349f6d2dc34846000015185602001518660400151876060015162ffffff801689608001511015610c65578860800151610c6d565b610c6d611769565b60a08a015160c08b01516040517fffffffff0000000000000000000000000000000000000000000000000000000060e08b901b16815273ffffffffffffffffffffffffffffffffffffffff978816600482015296909516602487015260448601939093526064850191909152608484015260a483015260c482015260e40160206040518083038185885af1158015610d09573d6000803e3d6000fd5b50505050506040513d601f19601f82011682018060405250810190610d2e9190612c32565b60e0830181905290505b919050565b60007f000000000000000000000000000000000000000000000000000000000000000073ffffffffffffffffffffffffffffffffffffffff81161580610d9857503373ffffffffffffffffffffffffffffffffffffffff8216145b610de45760405162461bcd60e51b815260206004820152601860248201527f416363657373436f6e74726f6c6c65642f496e76616c6964000000000000000060448201526064016104de565b6000610df4846080013585612663565b1115610e425760405162461bcd60e51b815260206004820152601860248201527f6d67764f666665722f61626f72742f6765744661696c6564000000000000000060448201526064016104de565b50919050565b610e506121bf565b73ffffffffffffffffffffffffffffffffffffffff163373ffffffffffffffffffffffffffffffffffffffff1614610eca5760405162461bcd60e51b815260206004820152601860248201527f416363657373436f6e74726f6c6c65642f496e76616c6964000000000000000060448201526064016104de565b73ffffffffffffffffffffffffffffffffffffffff8116610f2d5760405162461bcd60e51b815260206004820152601860248201527f416363657373436f6e74726f6c6c65642f307841646d696e000000000000000060448201526064016104de565b807f7d382ebca3e46505071795e192d28166a3d4bd0685585591bc6c5b8df6769fd2610b2f565b610f5c6121bf565b73ffffffffffffffffffffffffffffffffffffffff163373ffffffffffffffffffffffffffffffffffffffff161480610fca57503373ffffffffffffffffffffffffffffffffffffffff7f000000000000000000000000000000000000000000000000000000000000000016145b6110165760405162461bcd60e51b815260206004820152601860248201527f416363657373436f6e74726f6c6c65642f496e76616c6964000000000000000060448201526064016104de565b7fffffffffffffffffffffffffffffffffffffffffffffffffffffffffffffffff82036110f4576040517f70a082310000000000000000000000000000000000000000000000000000000081523060048201527f000000000000000000000000000000000000000000000000000000000000000073ffffffffffffffffffffffffffffffffffffffff16906370a0823190602401602060405180830381865afa1580156110c7573d6000803e3d6000fd5b505050506040513d601f19601f820116820180604052508101906110eb9190612c32565b915081156113c8575b6040517f2e1a7d4d000000000000000000000000000000000000000000000000000000008152600481018390527f000000000000000000000000000000000000000000000000000000000000000073ffffffffffffffffffffffffffffffffffffffff1690632e1a7d4d906024016020604051808303816000875af1158015611181573d6000803e3d6000fd5b505050506040513d601f19601f820116820180604052508101906111a59190612c15565b6112175760405162461bcd60e51b815260206004820152602560248201527f6d67764f666665722f776974686472617746726f6d4d67762f7769746864726160448201527f774661696c00000000000000000000000000000000000000000000000000000060648201526084016104de565b7fae7e31c3220e851db9f204a28b279dfe52b973600b0a456991089c220ae722255473ffffffffffffffffffffffffffffffffffffffff16156112f25761125c6121e7565b6040517fd7c153a800000000000000000000000000000000000000000000000000000000815273ffffffffffffffffffffffffffffffffffffffff8381166004830152919091169063d7c153a890849060240160206040518083038185885af11580156112cd573d6000803e3d6000fd5b50505050506040513d601f19601f820116820180604052508101906109e29190612c15565b60008173ffffffffffffffffffffffffffffffffffffffff168360405160006040518083038185875af1925050503d806000811461134c576040519150601f19603f3d011682016040523d82523d6000602084013e611351565b606091505b50509050806109e25760405162461bcd60e51b815260206004820152602860248201527f6d67764f666665722f776974686472617746726f6d4d67762f70617961626c6560448201527f43616c6c4661696c00000000000000000000000000000000000000000000000060648201526084016104de565b5050565b60006113d66121bf565b73ffffffffffffffffffffffffffffffffffffffff163373ffffffffffffffffffffffffffffffffffffffff16148061144457503373ffffffffffffffffffffffffffffffffffffffff7f000000000000000000000000000000000000000000000000000000000000000016145b6114905760405162461bcd60e51b815260206004820152601860248201527f416363657373436f6e74726f6c6c65642f496e76616c6964000000000000000060448201526064016104de565b6040517fad97db1b00000000000000000000000000000000000000000000000000000000815273ffffffffffffffffffffffffffffffffffffffff868116600483015285811660248301526044820185905283151560648301527f0000000000000000000000000000000000000000000000000000000000000000169063ad97db1b906084016020604051808303816000875af1158015611535573d6000803e3d6000fd5b505050506040513d601f19601f820116820180604052508101906115599190612c32565b95945050505050565b61156a6121bf565b73ffffffffffffffffffffffffffffffffffffffff163373ffffffffffffffffffffffffffffffffffffffff1614806115d857503373ffffffffffffffffffffffffffffffffffffffff7f000000000000000000000000000000000000000000000000000000000000000016145b6116245760405162461bcd60e51b815260206004820152601860248201527f416363657373436f6e74726f6c6c65642f496e76616c6964000000000000000060448201526064016104de565b6040517f095ea7b300000000000000000000000000000000000000000000000000000000815273ffffffffffffffffffffffffffffffffffffffff7f0000000000000000000000000000000000000000000000000000000000000000811660048301526024820183905283169063095ea7b3906044016020604051808303816000875af11580156116b9573d6000803e3d6000fd5b505050506040513d601f19601f820116820180604052508101906116dd9190612c15565b6113c85760405162461bcd60e51b815260206004820152601d60248201527f6d67764f666665722f617070726f76654d616e67726f76652f4661696c00000060448201526064016104de565b60007f7bccd2960a07f28b1420615e9ead32d6e77e21d42f4a6c1a1fe785dae22665325b5473ffffffffffffffffffffffffffffffffffffffff16919050565b60006117ab7fae7e31c3220e851db9f204a28b279dfe52b973600b0a456991089c220ae722255473ffffffffffffffffffffffffffffffffffffffff16151590565b15611857576117b86121e7565b73ffffffffffffffffffffffffffffffffffffffff16630417ffda6040518163ffffffff1660e01b8152600401602060405180830381865afa158015611802573d6000803e3d6000fd5b505050506040513d601f19601f820116820180604052508101906118269190612c32565b7fae7e31c3220e851db9f204a28b279dfe52b973600b0a456991089c220ae72224546118529190612c7a565b905090565b507fae7e31c3220e851db9f204a28b279dfe52b973600b0a456991089c220ae722245490565b6118856121bf565b73ffffffffffffffffffffffffffffffffffffffff163373ffffffffffffffffffffffffffffffffffffffff1614806118f357503373ffffffffffffffffffffffffffffffffffffffff7f000000000000000000000000000000000000000000000000000000000000000016145b61193f5760405162461bcd60e51b815260206004820152601860248201527f416363657373436f6e74726f6c6c65642f496e76616c6964000000000000000060448201526064016104de565b73ffffffffffffffffffffffffffffffffffffffff81166119a25760405162461bcd60e51b815260206004820152601c60248201527f6d67764f666665722f7365745f726f757465722f3078526f757465720000000060448201526064016104de565b807fae7e31c3220e851db9f204a28b279dfe52b973600b0a456991089c220ae7222460010180547fffffffffffffffffffffffff00000000000000000000000000000000000000001673ffffffffffffffffffffffffffffffffffffffff9283161790556040517f81bac14f000000000000000000000000000000000000000000000000000000008152306004820152908216906381bac14f90602401600060405180830381600087803b158015611a5957600080fd5b505af1158015611a6d573d6000803e3d6000fd5b505060405173ffffffffffffffffffffffffffffffffffffffff841681527f6de4326a8b9054d72d9dbab97d27bc4edffadee7d966f5af9cc4eafdaf8e5455925060200190505b60405180910390a150565b6000808073ffffffffffffffffffffffffffffffffffffffff7f00000000000000000000000000000000000000000000000000000000000000001663cbf75c9a89896040517fffffffff0000000000000000000000000000000000000000000000000000000060e085901b16815273ffffffffffffffffffffffffffffffffffffffff9283166004820152911660248201526044016040805180830381865afa158015611b70573d6000803e3d6000fd5b505050506040513d601f19601f82011682018060405250810190611b949190612c92565b9150915060007f000000000000000000000000000000000000000000000000000000000000000073ffffffffffffffffffffffffffffffffffffffff16635722647b611bdd8b90565b8a6040517fffffffff0000000000000000000000000000000000000000000000000000000060e085901b16815273ffffffffffffffffffffffffffffffffffffffff92831660048201529116602482015260448101889052606401602060405180830381865afa158015611c55573d6000803e3d6000fd5b505050506040513d601f19601f82011682018060405250810190611c799190612c32565b9050600086604085901c61ffff161115611c9c575061ffff604084901c16611c9f565b50855b62ffffff8810611cb457611cb1611769565b97505b600081611cca62ffffff606087901c168b612c7a565b611cd49190612cb6565b611ce290633b9aca00612cb6565b9050600061ffff602085901c16611d0962ffffff603087901c811690604888901c16612c7a565b611d139190612cb6565b611d2190633b9aca00612cb6565b6040517f70a0823100000000000000000000000000000000000000000000000000000000815230600482015290915060009073ffffffffffffffffffffffffffffffffffffffff7f000000000000000000000000000000000000000000000000000000000000000016906370a0823190602401602060405180830381865afa158015611db1573d6000803e3d6000fd5b505050506040513d601f19601f82011682018060405250810190611dd59190612c32565b611ddf9083612c7a565b905082811015611df857611df38184612cf3565b611dfb565b60005b9d9c50505050505050505050505050565b7fae7e31c3220e851db9f204a28b279dfe52b973600b0a456991089c220ae722255460009073ffffffffffffffffffffffffffffffffffffffff90811690829084166370a08231611e5b611729565b6040517fffffffff0000000000000000000000000000000000000000000000000000000060e084901b16815273ffffffffffffffffffffffffffffffffffffffff9091166004820152602401602060405180830381865afa158015611ec4573d6000803e3d6000fd5b505050506040513d601f19601f82011682018060405250810190611ee89190612c32565b905073ffffffffffffffffffffffffffffffffffffffff821615611fce578173ffffffffffffffffffffffffffffffffffffffff166305684fde85611f2b611729565b6040517fffffffff0000000000000000000000000000000000000000000000000000000060e085901b16815273ffffffffffffffffffffffffffffffffffffffff928316600482015291166024820152604401602060405180830381865afa158015611f9b573d6000803e3d6000fd5b505050506040513d601f19601f82011682018060405250810190611fbf9190612c32565b611fc99082612c7a565b611fd0565b805b949350505050565b611fe06121bf565b73ffffffffffffffffffffffffffffffffffffffff163373ffffffffffffffffffffffffffffffffffffffff16148061204e57503373ffffffffffffffffffffffffffffffffffffffff7f000000000000000000000000000000000000000000000000000000000000000016145b61209a5760405162461bcd60e51b815260206004820152601860248201527f416363657373436f6e74726f6c6c65642f496e76616c6964000000000000000060448201526064016104de565b8073ffffffffffffffffffffffffffffffffffffffff1663095ea7b36120be6121e7565b6040517fffffffff0000000000000000000000000000000000000000000000000000000060e084901b16815273ffffffffffffffffffffffffffffffffffffffff90911660048201527fffffffffffffffffffffffffffffffffffffffffffffffffffffffffffffffff60248201526044016020604051808303816000875af115801561214f573d6000803e3d6000fd5b505050506040513d601f19601f820116820180604052508101906121739190612c15565b61084a5760405162461bcd60e51b815260206004820152601b60248201527f6d67764f666665722f617070726f7665526f757465722f4661696c000000000060448201526064016104de565b60007f7d382ebca3e46505071795e192d28166a3d4bd0685585591bc6c5b8df6769fd261174d565b7fae7e31c3220e851db9f204a28b279dfe52b973600b0a456991089c220ae722255460009073ffffffffffffffffffffffffffffffffffffffff1680610d385760405162461bcd60e51b815260206004820152601160248201527f6d67764f666665722f3078526f7574657200000000000000000000000000000060448201526064016104de565b6122776121bf565b73ffffffffffffffffffffffffffffffffffffffff163373ffffffffffffffffffffffffffffffffffffffff1614806122e557503373ffffffffffffffffffffffffffffffffffffffff7f000000000000000000000000000000000000000000000000000000000000000016145b6123315760405162461bcd60e51b815260206004820152601860248201527f416363657373436f6e74726f6c6c65642f496e76616c6964000000000000000060448201526064016104de565b808162ffffff16146123855760405162461bcd60e51b815260206004820152601860248201527f6d67764f666665722f6761737265712f6f766572666c6f77000000000000000060448201526064016104de565b807fae7e31c3220e851db9f204a28b279dfe52b973600b0a456991089c220ae72224556040518181527fafef3ad374c0b972e3c793be825735801fa05cc4c67157d98d9a111b4027988d90602001611ab4565b7f7d382ebca3e46505071795e192d28166a3d4bd0685585591bc6c5b8df6769fd290565b7fae7e31c3220e851db9f204a28b279dfe52b973600b0a456991089c220ae7222490565b7f7bccd2960a07f28b1420615e9ead32d6e77e21d42f4a6c1a1fe785dae226653290565b6000811580612468575073ffffffffffffffffffffffffffffffffffffffff831630145b1561247557506001610692565b6040805173ffffffffffffffffffffffffffffffffffffffff8581166024830152604480830186905283518084039091018152606490920183526020820180517bffffffffffffffffffffffffffffffffffffffffffffffffffffffff167fa9059cbb00000000000000000000000000000000000000000000000000000000179052915160009283929088169161250c9190612d0a565b6000604051808303816000865af19150503d8060008114612549576040519150601f19603f3d011682016040523d82523d6000602084013e61254e565b606091505b50915091508180156125785750805115806125785750808060200190518101906125789190612c15565b9695505050505050565b604080516002808252606082018352600092839291906020830190803683370190505090506125b46020840184612ab4565b816000815181106125c7576125c7612d45565b73ffffffffffffffffffffffffffffffffffffffff9092166020928302919091018201526125fb9060408501908501612ab4565b8160018151811061260e5761260e612d45565b602002602001019073ffffffffffffffffffffffffffffffffffffffff16908173ffffffffffffffffffffffffffffffffffffffff168152505061265181612755565b50600192915050565b60015b92915050565b60008061267e6126766020850185612ab4565b8560006127f2565b905083811061269157600091505061265d565b60006126a06020850185612ab4565b6040517f70a0823100000000000000000000000000000000000000000000000000000000815230600482015273ffffffffffffffffffffffffffffffffffffffff91909116906370a0823190602401602060405180830381865afa15801561270c573d6000803e3d6000fd5b505050506040513d601f19601f820116820180604052508101906127309190612c32565b905084811015612749576127448186612cf3565b61274c565b60005b9250505061265d565b7fae7e31c3220e851db9f204a28b279dfe52b973600b0a456991089c220ae722255473ffffffffffffffffffffffffffffffffffffffff1680612796575050565b8073ffffffffffffffffffffffffffffffffffffffff1663f850a81c836127bb611729565b6040518363ffffffff1660e01b81526004016127d8929190612d74565b600060405180830381600087803b15801561083057600080fd5b7fae7e31c3220e851db9f204a28b279dfe52b973600b0a456991089c220ae722255460009073ffffffffffffffffffffffffffffffffffffffff168061283c576000915050610692565b8073ffffffffffffffffffffffffffffffffffffffff1663333dbb0d86612861611729565b6040517fffffffff0000000000000000000000000000000000000000000000000000000060e085901b16815273ffffffffffffffffffffffffffffffffffffffff9283166004820152911660248201526044810187905285151560648201526084016020604051808303816000875af11580156128e2573d6000803e3d6000fd5b505050506040513d601f19601f820116820180604052508101906129069190612c32565b915050610692565b73ffffffffffffffffffffffffffffffffffffffff8116811461084a57600080fd5b8035610d388161290e565b60008060006060848603121561295057600080fd5b833561295b8161290e565b9250602084013561296b8161290e565b929592945050506040919091013590565b600061010080838503121561299057600080fd5b6040519081019067ffffffffffffffff821181831017156129da577f4e487b7100000000000000000000000000000000000000000000000000000000600052604160045260246000fd5b816040526129e784612930565b81526129f560208501612930565b602082015260408401356040820152606084013560608201526080840135608082015260a084013560a082015260c084013560c082015260e084013560e0820152809250505092915050565b60006101208284031215610e4257600080fd5b600080828403610160811215612a6957600080fd5b612a738585612a41565b925060407ffffffffffffffffffffffffffffffffffffffffffffffffffffffffffffffee082011215612aa557600080fd5b50610120830190509250929050565b600060208284031215612ac657600080fd5b81356106928161290e565b60006101208284031215612ae457600080fd5b6106928383612a41565b60008060408385031215612b0157600080fd5b823591506020830135612b138161290e565b809150509250929050565b801515811461084a57600080fd5b60008060008060808587031215612b4257600080fd5b8435612b4d8161290e565b93506020850135612b5d8161290e565b9250604085013591506060850135612b7481612b1e565b939692955090935050565b60008060408385031215612b9257600080fd5b8235612b9d8161290e565b946020939093013593505050565b600080600080600060a08688031215612bc357600080fd5b8535612bce8161290e565b94506020860135612bde8161290e565b94979496505050506040830135926060810135926080909101359150565b600060208284031215612c0e57600080fd5b5035919050565b600060208284031215612c2757600080fd5b815161069281612b1e565b600060208284031215612c4457600080fd5b5051919050565b7f4e487b7100000000000000000000000000000000000000000000000000000000600052601160045260246000fd5b60008219821115612c8d57612c8d612c4b565b500190565b60008060408385031215612ca557600080fd5b505080516020909101519092909150565b6000817fffffffffffffffffffffffffffffffffffffffffffffffffffffffffffffffff0483118215151615612cee57612cee612c4b565b500290565b600082821015612d0557612d05612c4b565b500390565b6000825160005b81811015612d2b5760208186018101518583015201612d11565b81811115612d3a576000828501525b509190910192915050565b7f4e487b7100000000000000000000000000000000000000000000000000000000600052603260045260246000fd5b604080825283519082018190526000906020906060840190828701845b82811015612dc357815173ffffffffffffffffffffffffffffffffffffffff1684529284019290840190600101612d91565b50505073ffffffffffffffffffffffffffffffffffffffff949094169201919091525091905056fea2646970667358221220996818adc663e12d6d6874ceedc425a9370fca6c1f4c55f055f08c1614af25a364736f6c634300080e0033416363657373436f6e74726f6c6c65642f496e76616c69640000000000000000",
  "linkReferences": {},
  "deployedLinkReferences": {}
}