{
  "_format": "hh-sol-artifact-1",
  "contractName": "SimpleMaker",
  "sourceName": "contracts/Strategies/OfferLogics/SingleUser/Deployable/SimpleMaker.sol",
  "abi": [
    {
      "inputs": [
        {
          "internalType": "address payable",
          "name": "_MGV",
          "type": "address"
        }
      ],
      "stateMutability": "nonpayable",
      "type": "constructor"
    },
    {
      "anonymous": false,
      "inputs": [
        {
          "indexed": true,
          "internalType": "address",
          "name": "outbound_tkn",
          "type": "address"
        },
        {
          "indexed": true,
          "internalType": "address",
          "name": "inbound_tkn",
          "type": "address"
        },
        {
          "indexed": false,
          "internalType": "uint256",
          "name": "offerId",
          "type": "uint256"
        },
        {
          "indexed": false,
          "internalType": "uint256",
          "name": "missingAmount",
          "type": "uint256"
        }
      ],
      "name": "GetFail",
      "type": "event"
    },
    {
      "anonymous": false,
      "inputs": [
        {
          "indexed": true,
          "internalType": "address",
          "name": "outbound_tkn",
          "type": "address"
        },
        {
          "indexed": true,
          "internalType": "address",
          "name": "inbound_tkn",
          "type": "address"
        },
        {
          "indexed": false,
          "internalType": "uint256",
          "name": "offerId",
          "type": "uint256"
        },
        {
          "indexed": false,
          "internalType": "string",
          "name": "message",
          "type": "string"
        }
      ],
      "name": "PosthookFail",
      "type": "event"
    },
    {
      "anonymous": false,
      "inputs": [
        {
          "indexed": true,
          "internalType": "address",
          "name": "outbound_tkn",
          "type": "address"
        },
        {
          "indexed": true,
          "internalType": "address",
          "name": "inbound_tkn",
          "type": "address"
        },
        {
          "indexed": false,
          "internalType": "uint256",
          "name": "offerId",
          "type": "uint256"
        },
        {
          "indexed": false,
          "internalType": "uint256",
          "name": "missingAmount",
          "type": "uint256"
        }
      ],
      "name": "PutFail",
      "type": "event"
    },
    {
      "anonymous": false,
      "inputs": [
        {
          "indexed": true,
          "internalType": "address",
          "name": "outbound_tkn",
          "type": "address"
        },
        {
          "indexed": true,
          "internalType": "address",
          "name": "inbound_tkn",
          "type": "address"
        },
        {
          "indexed": false,
          "internalType": "uint256",
          "name": "offerId",
          "type": "uint256"
        }
      ],
      "name": "Reneged",
      "type": "event"
    },
    {
      "inputs": [],
      "name": "OFR_GASREQ",
      "outputs": [
        {
          "internalType": "uint256",
          "name": "",
          "type": "uint256"
        }
      ],
      "stateMutability": "view",
      "type": "function"
    },
    {
      "inputs": [],
      "name": "admin",
      "outputs": [
        {
          "internalType": "address",
          "name": "",
          "type": "address"
        }
      ],
      "stateMutability": "view",
      "type": "function"
    },
    {
      "inputs": [
        {
          "internalType": "address",
          "name": "outbound_tkn",
          "type": "address"
        },
        {
          "internalType": "uint256",
          "name": "amount",
          "type": "uint256"
        }
      ],
      "name": "approveMangrove",
      "outputs": [],
      "stateMutability": "nonpayable",
      "type": "function"
    },
    {
      "inputs": [],
      "name": "fundMangrove",
      "outputs": [],
      "stateMutability": "payable",
      "type": "function"
    },
    {
      "inputs": [
        {
          "internalType": "address",
          "name": "outbound_tkn",
          "type": "address"
        },
        {
          "internalType": "address",
          "name": "inbound_tkn",
          "type": "address"
        },
        {
          "internalType": "uint256",
          "name": "gasreq",
          "type": "uint256"
        },
        {
          "internalType": "uint256",
          "name": "gasprice",
          "type": "uint256"
        },
        {
          "internalType": "uint256",
          "name": "offerId",
          "type": "uint256"
        }
      ],
      "name": "getMissingProvision",
      "outputs": [
        {
          "internalType": "uint256",
          "name": "",
          "type": "uint256"
        }
      ],
      "stateMutability": "view",
      "type": "function"
    },
    {
      "inputs": [
        {
          "components": [
            {
              "internalType": "address",
              "name": "outbound_tkn",
              "type": "address"
            },
            {
              "internalType": "address",
              "name": "inbound_tkn",
              "type": "address"
            },
            {
              "internalType": "uint256",
              "name": "offerId",
              "type": "uint256"
            },
            {
              "internalType": "Offer.t",
              "name": "offer",
              "type": "uint256"
            },
            {
              "internalType": "uint256",
              "name": "wants",
              "type": "uint256"
            },
            {
              "internalType": "uint256",
              "name": "gives",
              "type": "uint256"
            },
            {
              "internalType": "OfferDetail.t",
              "name": "offerDetail",
              "type": "uint256"
            },
            {
              "internalType": "Global.t",
              "name": "global",
              "type": "uint256"
            },
            {
              "internalType": "Local.t",
              "name": "local",
              "type": "uint256"
            }
          ],
          "internalType": "struct MgvLib.SingleOrder",
          "name": "order",
          "type": "tuple"
        }
      ],
      "name": "makerExecute",
      "outputs": [
        {
          "internalType": "bytes32",
          "name": "ret",
          "type": "bytes32"
        }
      ],
      "stateMutability": "nonpayable",
      "type": "function"
    },
    {
      "inputs": [
        {
          "components": [
            {
              "internalType": "address",
              "name": "outbound_tkn",
              "type": "address"
            },
            {
              "internalType": "address",
              "name": "inbound_tkn",
              "type": "address"
            },
            {
              "internalType": "uint256",
              "name": "offerId",
              "type": "uint256"
            },
            {
              "internalType": "Offer.t",
              "name": "offer",
              "type": "uint256"
            },
            {
              "internalType": "uint256",
              "name": "wants",
              "type": "uint256"
            },
            {
              "internalType": "uint256",
              "name": "gives",
              "type": "uint256"
            },
            {
              "internalType": "OfferDetail.t",
              "name": "offerDetail",
              "type": "uint256"
            },
            {
              "internalType": "Global.t",
              "name": "global",
              "type": "uint256"
            },
            {
              "internalType": "Local.t",
              "name": "local",
              "type": "uint256"
            }
          ],
          "internalType": "struct MgvLib.SingleOrder",
          "name": "order",
          "type": "tuple"
        },
        {
          "components": [
            {
              "internalType": "bytes32",
              "name": "makerData",
              "type": "bytes32"
            },
            {
              "internalType": "bytes32",
              "name": "mgvData",
              "type": "bytes32"
            }
          ],
          "internalType": "struct MgvLib.OrderResult",
          "name": "result",
          "type": "tuple"
        }
      ],
      "name": "makerPosthook",
      "outputs": [],
      "stateMutability": "nonpayable",
      "type": "function"
    },
    {
      "inputs": [
        {
          "internalType": "address",
          "name": "outbound_tkn",
          "type": "address"
        },
        {
          "internalType": "address",
          "name": "inbound_tkn",
          "type": "address"
        },
        {
          "internalType": "uint256",
          "name": "wants",
          "type": "uint256"
        },
        {
          "internalType": "uint256",
          "name": "gives",
          "type": "uint256"
        },
        {
          "internalType": "uint256",
          "name": "gasreq",
          "type": "uint256"
        },
        {
          "internalType": "uint256",
          "name": "gasprice",
          "type": "uint256"
        },
        {
          "internalType": "uint256",
          "name": "pivotId",
          "type": "uint256"
        }
      ],
      "name": "newOffer",
      "outputs": [
        {
          "internalType": "uint256",
          "name": "offerId",
          "type": "uint256"
        }
      ],
      "stateMutability": "payable",
      "type": "function"
    },
    {
      "inputs": [
        {
          "internalType": "address",
          "name": "token",
          "type": "address"
        },
        {
          "internalType": "uint256",
          "name": "amount",
          "type": "uint256"
        }
      ],
      "name": "redeemToken",
      "outputs": [
        {
          "internalType": "bool",
          "name": "success",
          "type": "bool"
        }
      ],
      "stateMutability": "nonpayable",
      "type": "function"
    },
    {
      "inputs": [
        {
          "internalType": "address",
          "name": "outbound_tkn",
          "type": "address"
        },
        {
          "internalType": "address",
          "name": "inbound_tkn",
          "type": "address"
        },
        {
          "internalType": "uint256",
          "name": "offerId",
          "type": "uint256"
        },
        {
          "internalType": "bool",
          "name": "deprovision",
          "type": "bool"
        }
      ],
      "name": "retractOffer",
      "outputs": [
        {
          "internalType": "uint256",
          "name": "",
          "type": "uint256"
        }
      ],
      "stateMutability": "nonpayable",
      "type": "function"
    },
    {
      "inputs": [
        {
          "internalType": "address",
          "name": "_admin",
          "type": "address"
        }
      ],
      "name": "setAdmin",
      "outputs": [],
      "stateMutability": "nonpayable",
      "type": "function"
    },
    {
      "inputs": [
        {
          "internalType": "uint256",
          "name": "gasreq",
          "type": "uint256"
        }
      ],
      "name": "setGasreq",
      "outputs": [],
      "stateMutability": "nonpayable",
      "type": "function"
    },
    {
      "inputs": [
        {
          "internalType": "address",
          "name": "recipient",
          "type": "address"
        },
        {
          "internalType": "uint256",
          "name": "amount",
          "type": "uint256"
        }
      ],
      "name": "transferETH",
      "outputs": [
        {
          "internalType": "bool",
          "name": "success",
          "type": "bool"
        }
      ],
      "stateMutability": "nonpayable",
      "type": "function"
    },
    {
      "inputs": [
        {
          "internalType": "address",
          "name": "outbound_tkn",
          "type": "address"
        },
        {
          "internalType": "address",
          "name": "inbound_tkn",
          "type": "address"
        },
        {
          "internalType": "uint256",
          "name": "wants",
          "type": "uint256"
        },
        {
          "internalType": "uint256",
          "name": "gives",
          "type": "uint256"
        },
        {
          "internalType": "uint256",
          "name": "gasreq",
          "type": "uint256"
        },
        {
          "internalType": "uint256",
          "name": "gasprice",
          "type": "uint256"
        },
        {
          "internalType": "uint256",
          "name": "pivotId",
          "type": "uint256"
        },
        {
          "internalType": "uint256",
          "name": "offerId",
          "type": "uint256"
        }
      ],
      "name": "updateOffer",
      "outputs": [],
      "stateMutability": "payable",
      "type": "function"
    },
    {
      "inputs": [
        {
          "internalType": "address",
          "name": "receiver",
          "type": "address"
        },
        {
          "internalType": "uint256",
          "name": "amount",
          "type": "uint256"
        }
      ],
      "name": "withdrawFromMangrove",
      "outputs": [
        {
          "internalType": "bool",
          "name": "",
          "type": "bool"
        }
      ],
      "stateMutability": "nonpayable",
      "type": "function"
    },
    {
      "stateMutability": "payable",
      "type": "receive"
    }
  ],
  "bytecode": "0x60a0604052620186a060015534801561001757600080fd5b50604051611a90380380611a9083398101604081905261003691610059565b600080546001600160a01b031916331790556001600160a01b0316608052610089565b60006020828403121561006b57600080fd5b81516001600160a01b038116811461008257600080fd5b9392505050565b6080516119a66100ea6000396000818161048d015281816105d9015281816106f7015281816107f90152818161091e0152818161098901528181610e3b01528181610f750152818161100d015281816110c001526112f501526119a66000f3fe6080604052600436106100ec5760003560e01c80637b1a49091161008a578063e428204d11610059578063e428204d14610263578063e4c34f8414610279578063f851a44014610299578063faa030ec146102eb57600080fd5b80637b1a4909146101e3578063830cbbbd14610203578063ad97db1b14610223578063aefe84031461024357600080fd5b806349f6d2dc116100c657806349f6d2dc1461016f5780636a4f7691146101905780636c49c32c146101a3578063704b6c02146101c357600080fd5b8063063df2d2146100f857806334bd89311461012d5780633d3d130d1461014f57600080fd5b366100f357005b600080fd5b34801561010457600080fd5b50610118610113366004611617565b6102f3565b60405190151581526020015b60405180910390f35b34801561013957600080fd5b5061014d610148366004611641565b61038d565b005b34801561015b57600080fd5b5061014d61016a36600461166d565b61048b565b61018261017d3660046116cd565b61054f565b604051908152602001610124565b61014d61019e36600461172b565b610770565b3480156101af57600080fd5b506101826101be366004611792565b610985565b3480156101cf57600080fd5b5061014d6101de3660046117af565b610b21565b3480156101ef57600080fd5b506101186101fe366004611617565b610be9565b34801561020f57600080fd5b5061011861021e366004611617565b610cd0565b34801561022f57600080fd5b5061018261023e3660046117d8565b610d5d565b34801561024f57600080fd5b5061014d61025e366004611617565b610eb1565b34801561026f57600080fd5b5061018260015481565b34801561028557600080fd5b50610182610294366004611827565b610f40565b3480156102a557600080fd5b506000546102c69073ffffffffffffffffffffffffffffffffffffffff1681565b60405173ffffffffffffffffffffffffffffffffffffffff9091168152602001610124565b61014d61100b565b6000805473ffffffffffffffffffffffffffffffffffffffff16331461037a576040517f08c379a000000000000000000000000000000000000000000000000000000000815260206004820152601860248201527f416363657373436f6e74726f6c6c65642f496e76616c6964000000000000000060448201526064015b60405180910390fd5b610384838361108e565b90505b92915050565b60005473ffffffffffffffffffffffffffffffffffffffff163314806103b257503330145b610418576040517f08c379a000000000000000000000000000000000000000000000000000000000815260206004820152601860248201527f416363657373436f6e74726f6c6c65642f496e76616c696400000000000000006044820152606401610371565b808162ffffff1614610486576040517f08c379a000000000000000000000000000000000000000000000000000000000815260206004820152601d60248201527f4d616e67726f76654f666665722f6761737265712f6f766572666c6f770000006044820152606401610371565b600155565b7f000000000000000000000000000000000000000000000000000000000000000073ffffffffffffffffffffffffffffffffffffffff811615806104e457503373ffffffffffffffffffffffffffffffffffffffff8216145b61054a576040517f08c379a000000000000000000000000000000000000000000000000000000000815260206004820152601860248201527f416363657373436f6e74726f6c6c65642f496e76616c696400000000000000006044820152606401610371565b505050565b6000805473ffffffffffffffffffffffffffffffffffffffff1633146105d1576040517f08c379a000000000000000000000000000000000000000000000000000000000815260206004820152601860248201527f416363657373436f6e74726f6c6c65642f496e76616c696400000000000000006044820152606401610371565b3415610659577f000000000000000000000000000000000000000000000000000000000000000073ffffffffffffffffffffffffffffffffffffffff1663b60d4288346040518263ffffffff1660e01b81526004016000604051808303818588803b15801561063f57600080fd5b505af1158015610653573d6000803e3d6000fd5b50505050505b7fffffffffffffffffffffffffffffffffffffffffffffffffffffffffffffffff8414156106875760015493505b6040517f49f6d2dc00000000000000000000000000000000000000000000000000000000815273ffffffffffffffffffffffffffffffffffffffff8981166004830152888116602483015260448201889052606482018790526084820186905260a4820185905260c482018490527f000000000000000000000000000000000000000000000000000000000000000016906349f6d2dc9060e4016020604051808303816000875af1158015610740573d6000803e3d6000fd5b505050506040513d601f19601f820116820180604052508101906107649190611874565b98975050505050505050565b60005473ffffffffffffffffffffffffffffffffffffffff1633146107f1576040517f08c379a000000000000000000000000000000000000000000000000000000000815260206004820152601860248201527f416363657373436f6e74726f6c6c65642f496e76616c696400000000000000006044820152606401610371565b3415610879577f000000000000000000000000000000000000000000000000000000000000000073ffffffffffffffffffffffffffffffffffffffff1663b60d4288346040518263ffffffff1660e01b81526004016000604051808303818588803b15801561085f57600080fd5b505af1158015610873573d6000803e3d6000fd5b50505050505b7fffffffffffffffffffffffffffffffffffffffffffffffffffffffffffffffff8414156108a75760015493505b6040517f6a4f769100000000000000000000000000000000000000000000000000000000815273ffffffffffffffffffffffffffffffffffffffff8981166004830152888116602483015260448201889052606482018790526084820186905260a4820185905260c4820184905260e482018390527f00000000000000000000000000000000000000000000000000000000000000001690636a4f76919061010401600060405180830381600087803b15801561096357600080fd5b505af1158015610977573d6000803e3d6000fd5b505050505050505050505050565b60007f000000000000000000000000000000000000000000000000000000000000000073ffffffffffffffffffffffffffffffffffffffff811615806109e057503373ffffffffffffffffffffffffffffffffffffffff8216145b610a46576040517f08c379a000000000000000000000000000000000000000000000000000000000815260206004820152601860248201527f416363657373436f6e74726f6c6c65642f496e76616c696400000000000000006044820152606401610371565b600080610a5785608001358661114e565b90508015610b1857610a6f60408601602087016117af565b73ffffffffffffffffffffffffffffffffffffffff16610a9260208701876117af565b73ffffffffffffffffffffffffffffffffffffffff167fc99fe658c80b903af0e1270f4a55564b3a7509294ab1052c6ab07f8198baea67876040013584604051610ae6929190918252602082015260400190565b60405180910390a37f6d67764f666665722f6f75744f664c697175696469747900000000000000000093505050610b1b565b50505b50919050565b60005473ffffffffffffffffffffffffffffffffffffffff163314610ba2576040517f08c379a000000000000000000000000000000000000000000000000000000000815260206004820152601860248201527f416363657373436f6e74726f6c6c65642f496e76616c696400000000000000006044820152606401610371565b600080547fffffffffffffffffffffffff00000000000000000000000000000000000000001673ffffffffffffffffffffffffffffffffffffffff92909216919091179055565b6000805473ffffffffffffffffffffffffffffffffffffffff163314610c6b576040517f08c379a000000000000000000000000000000000000000000000000000000000815260206004820152601860248201527f416363657373436f6e74726f6c6c65642f496e76616c696400000000000000006044820152606401610371565b60405173ffffffffffffffffffffffffffffffffffffffff8416908390600081818185875af1925050503d8060008114610cc1576040519150601f19603f3d011682016040523d82523d6000602084013e610cc6565b606091505b5090949350505050565b6000805473ffffffffffffffffffffffffffffffffffffffff163314610d52576040517f08c379a000000000000000000000000000000000000000000000000000000000815260206004820152601860248201527f416363657373436f6e74726f6c6c65642f496e76616c696400000000000000006044820152606401610371565b610384833384611213565b6000805473ffffffffffffffffffffffffffffffffffffffff163314610ddf576040517f08c379a000000000000000000000000000000000000000000000000000000000815260206004820152601860248201527f416363657373436f6e74726f6c6c65642f496e76616c696400000000000000006044820152606401610371565b6040517fad97db1b00000000000000000000000000000000000000000000000000000000815273ffffffffffffffffffffffffffffffffffffffff868116600483015285811660248301526044820185905283151560648301527f0000000000000000000000000000000000000000000000000000000000000000169063ad97db1b906084016020604051808303816000875af1158015610e84573d6000803e3d6000fd5b505050506040513d601f19601f82011682018060405250810190610ea89190611874565b95945050505050565b60005473ffffffffffffffffffffffffffffffffffffffff163314610f32576040517f08c379a000000000000000000000000000000000000000000000000000000000815260206004820152601860248201527f416363657373436f6e74726f6c6c65642f496e76616c696400000000000000006044820152606401610371565b610f3c82826112b8565b5050565b6040517f70a08231000000000000000000000000000000000000000000000000000000008152306004820152600090611001907f00000000000000000000000000000000000000000000000000000000000000009073ffffffffffffffffffffffffffffffffffffffff8216906370a0823190602401602060405180830381865afa158015610fd3573d6000803e3d6000fd5b505050506040513d601f19601f82011682018060405250810190610ff79190611874565b88888888886113d7565b9695505050505050565b7f000000000000000000000000000000000000000000000000000000000000000073ffffffffffffffffffffffffffffffffffffffff1663b60d4288346040518263ffffffff1660e01b81526004016000604051808303818588803b15801561107357600080fd5b505af1158015611087573d6000803e3d6000fd5b5050505050565b6040517f2e1a7d4d000000000000000000000000000000000000000000000000000000008152600481018290526000907f000000000000000000000000000000000000000000000000000000000000000073ffffffffffffffffffffffffffffffffffffffff1690632e1a7d4d906024016020604051808303816000875af115801561111e573d6000803e3d6000fd5b505050506040513d601f19601f82011682018060405250810190611142919061188d565b610c6b57600080fd5b50565b60008061115e60208401846117af565b6040517f70a0823100000000000000000000000000000000000000000000000000000000815230600482015273ffffffffffffffffffffffffffffffffffffffff91909116906370a0823190602401602060405180830381865afa1580156111ca573d6000803e3d6000fd5b505050506040513d601f19601f820116820180604052508101906111ee9190611874565b9050838110611201576000915050610387565b61120b81856118e0565b915050610387565b6040517fa9059cbb00000000000000000000000000000000000000000000000000000000815273ffffffffffffffffffffffffffffffffffffffff8381166004830152602482018390526000919085169063a9059cbb906044016020604051808303816000875af115801561128c573d6000803e3d6000fd5b505050506040513d601f19601f820116820180604052508101906112b0919061188d565b949350505050565b6040517f095ea7b300000000000000000000000000000000000000000000000000000000815273ffffffffffffffffffffffffffffffffffffffff7f0000000000000000000000000000000000000000000000000000000000000000811660048301526024820183905283169063095ea7b3906044016020604051808303816000875af115801561134d573d6000803e3d6000fd5b505050506040513d601f19601f82011682018060405250810190611371919061188d565b610f3c576040517f08c379a000000000000000000000000000000000000000000000000000000000815260206004820152601560248201527f6d67764f666665722f617070726f76652f4661696c00000000000000000000006044820152606401610371565b6040517fcbf75c9a00000000000000000000000000000000000000000000000000000000815273ffffffffffffffffffffffffffffffffffffffff8681166004830152858116602483015260009182918291908b169063cbf75c9a906044016040805180830381865afa158015611452573d6000803e3d6000fd5b505050506040513d601f19601f8201168201806040525081019061147691906118f7565b6040517f5722647b00000000000000000000000000000000000000000000000000000000815273ffffffffffffffffffffffffffffffffffffffff8b811660048301528a81166024830152604482018890529294509092506000918c1690635722647b90606401602060405180830381865afa1580156114fa573d6000803e3d6000fd5b505050506040513d601f19601f8201168201806040525081019061151e9190611874565b9050600086604085901c61ffff161115611541575061ffff604084901c16611544565b50855b60008161155a62ffffff606087901c168b61191b565b6115649190611933565b61157290633b9aca00611933565b9050600061ffff602085901c1661159962ffffff603087901c811690604888901c1661191b565b6115a39190611933565b6115b190633b9aca00611933565b905060006115bf8e8361191b565b9050828110156115d8576115d381846118e0565b6115db565b60005b9f9e505050505050505050505050505050565b803573ffffffffffffffffffffffffffffffffffffffff8116811461161257600080fd5b919050565b6000806040838503121561162a57600080fd5b611633836115ee565b946020939093013593505050565b60006020828403121561165357600080fd5b5035919050565b60006101208284031215610b1b57600080fd5b60008082840361016081121561168257600080fd5b61168c858561165a565b925060407ffffffffffffffffffffffffffffffffffffffffffffffffffffffffffffffee0820112156116be57600080fd5b50610120830190509250929050565b600080600080600080600060e0888a0312156116e857600080fd5b6116f1886115ee565b96506116ff602089016115ee565b96999698505050506040850135946060810135946080820135945060a0820135935060c0909101359150565b600080600080600080600080610100898b03121561174857600080fd5b611751896115ee565b975061175f60208a016115ee565b979a9799505050506040860135956060810135956080820135955060a0820135945060c0820135935060e0909101359150565b600061012082840312156117a557600080fd5b610384838361165a565b6000602082840312156117c157600080fd5b610384826115ee565b801515811461114b57600080fd5b600080600080608085870312156117ee57600080fd5b6117f7856115ee565b9350611805602086016115ee565b925060408501359150606085013561181c816117ca565b939692955090935050565b600080600080600060a0868803121561183f57600080fd5b611848866115ee565b9450611856602087016115ee565b94979496505050506040830135926060810135926080909101359150565b60006020828403121561188657600080fd5b5051919050565b60006020828403121561189f57600080fd5b81516118aa816117ca565b9392505050565b7f4e487b7100000000000000000000000000000000000000000000000000000000600052601160045260246000fd5b6000828210156118f2576118f26118b1565b500390565b6000806040838503121561190a57600080fd5b505080516020909101519092909150565b6000821982111561192e5761192e6118b1565b500190565b6000817fffffffffffffffffffffffffffffffffffffffffffffffffffffffffffffffff048311821515161561196b5761196b6118b1565b50029056fea264697066735822122092471ea5c2ba9e9a22641d10c3eb2a3793b146179243df331b7487129b8556c964736f6c634300080a0033",
  "linkReferences": {},
  "deployedLinkReferences": {}
}