{
  "_format": "hh-sol-artifact-1",
  "contractName": "SimpleMaker",
  "sourceName": "cache/solpp-generated-contracts/Strategies/OfferLogics/SingleUser/Deployable/SimpleMaker.sol",
  "abi": [
    {
      "inputs": [
        {
          "internalType": "address payable",
          "name": "_MGV",
          "type": "address"
        }
      ],
      "stateMutability": "nonpayable",
      "type": "constructor"
    },
    {
      "anonymous": false,
      "inputs": [
        {
          "indexed": true,
          "internalType": "address",
          "name": "outbound_tkn",
          "type": "address"
        },
        {
          "indexed": true,
          "internalType": "address",
          "name": "inbound_tkn",
          "type": "address"
        },
        {
          "indexed": false,
          "internalType": "uint256",
          "name": "offerId",
          "type": "uint256"
        },
        {
          "indexed": false,
          "internalType": "uint256",
          "name": "missingAmount",
          "type": "uint256"
        }
      ],
      "name": "GetFail",
      "type": "event"
    },
    {
      "anonymous": false,
      "inputs": [
        {
          "indexed": true,
          "internalType": "address",
          "name": "outbound_tkn",
          "type": "address"
        },
        {
          "indexed": true,
          "internalType": "address",
          "name": "inbound_tkn",
          "type": "address"
        },
        {
          "indexed": false,
          "internalType": "uint256",
          "name": "offerId",
          "type": "uint256"
        },
        {
          "indexed": false,
          "internalType": "string",
          "name": "message",
          "type": "string"
        }
      ],
      "name": "PosthookFail",
      "type": "event"
    },
    {
      "anonymous": false,
      "inputs": [
        {
          "indexed": true,
          "internalType": "address",
          "name": "outbound_tkn",
          "type": "address"
        },
        {
          "indexed": true,
          "internalType": "address",
          "name": "inbound_tkn",
          "type": "address"
        },
        {
          "indexed": false,
          "internalType": "uint256",
          "name": "offerId",
          "type": "uint256"
        },
        {
          "indexed": false,
          "internalType": "uint256",
          "name": "missingAmount",
          "type": "uint256"
        }
      ],
      "name": "PutFail",
      "type": "event"
    },
    {
      "anonymous": false,
      "inputs": [
        {
          "indexed": true,
          "internalType": "address",
          "name": "outbound_tkn",
          "type": "address"
        },
        {
          "indexed": true,
          "internalType": "address",
          "name": "inbound_tkn",
          "type": "address"
        },
        {
          "indexed": false,
          "internalType": "uint256",
          "name": "offerId",
          "type": "uint256"
        }
      ],
      "name": "Reneged",
      "type": "event"
    },
    {
      "inputs": [],
      "name": "OFR_GASREQ",
      "outputs": [
        {
          "internalType": "uint256",
          "name": "",
          "type": "uint256"
        }
      ],
      "stateMutability": "view",
      "type": "function"
    },
    {
      "inputs": [],
      "name": "admin",
      "outputs": [
        {
          "internalType": "address",
          "name": "",
          "type": "address"
        }
      ],
      "stateMutability": "view",
      "type": "function"
    },
    {
      "inputs": [
        {
          "internalType": "address",
          "name": "outbound_tkn",
          "type": "address"
        },
        {
          "internalType": "uint256",
          "name": "amount",
          "type": "uint256"
        }
      ],
      "name": "approveMangrove",
      "outputs": [],
      "stateMutability": "nonpayable",
      "type": "function"
    },
    {
      "inputs": [
        {
          "internalType": "address",
          "name": "outbound_tkn",
          "type": "address"
        },
        {
          "internalType": "address",
          "name": "inbound_tkn",
          "type": "address"
        },
        {
          "internalType": "uint256",
          "name": "gasreq",
          "type": "uint256"
        },
        {
          "internalType": "uint256",
          "name": "gasprice",
          "type": "uint256"
        },
        {
          "internalType": "uint256",
          "name": "offerId",
          "type": "uint256"
        }
      ],
      "name": "getMissingProvision",
      "outputs": [
        {
          "internalType": "uint256",
          "name": "",
          "type": "uint256"
        }
      ],
      "stateMutability": "view",
      "type": "function"
    },
    {
      "inputs": [
        {
          "components": [
            {
              "internalType": "address",
              "name": "outbound_tkn",
              "type": "address"
            },
            {
              "internalType": "address",
              "name": "inbound_tkn",
              "type": "address"
            },
            {
              "internalType": "uint256",
              "name": "offerId",
              "type": "uint256"
            },
            {
              "internalType": "bytes32",
              "name": "offer",
              "type": "bytes32"
            },
            {
              "internalType": "uint256",
              "name": "wants",
              "type": "uint256"
            },
            {
              "internalType": "uint256",
              "name": "gives",
              "type": "uint256"
            },
            {
              "internalType": "bytes32",
              "name": "offerDetail",
              "type": "bytes32"
            },
            {
              "internalType": "bytes32",
              "name": "global",
              "type": "bytes32"
            },
            {
              "internalType": "bytes32",
              "name": "local",
              "type": "bytes32"
            }
          ],
          "internalType": "struct MgvLib.SingleOrder",
          "name": "order",
          "type": "tuple"
        }
      ],
      "name": "makerExecute",
      "outputs": [
        {
          "internalType": "bytes32",
          "name": "ret",
          "type": "bytes32"
        }
      ],
      "stateMutability": "nonpayable",
      "type": "function"
    },
    {
      "inputs": [
        {
          "components": [
            {
              "internalType": "address",
              "name": "outbound_tkn",
              "type": "address"
            },
            {
              "internalType": "address",
              "name": "inbound_tkn",
              "type": "address"
            },
            {
              "internalType": "uint256",
              "name": "offerId",
              "type": "uint256"
            },
            {
              "internalType": "bytes32",
              "name": "offer",
              "type": "bytes32"
            },
            {
              "internalType": "uint256",
              "name": "wants",
              "type": "uint256"
            },
            {
              "internalType": "uint256",
              "name": "gives",
              "type": "uint256"
            },
            {
              "internalType": "bytes32",
              "name": "offerDetail",
              "type": "bytes32"
            },
            {
              "internalType": "bytes32",
              "name": "global",
              "type": "bytes32"
            },
            {
              "internalType": "bytes32",
              "name": "local",
              "type": "bytes32"
            }
          ],
          "internalType": "struct MgvLib.SingleOrder",
          "name": "order",
          "type": "tuple"
        },
        {
          "components": [
            {
              "internalType": "bytes32",
              "name": "makerData",
              "type": "bytes32"
            },
            {
              "internalType": "bytes32",
              "name": "mgvData",
              "type": "bytes32"
            }
          ],
          "internalType": "struct MgvLib.OrderResult",
          "name": "result",
          "type": "tuple"
        }
      ],
      "name": "makerPosthook",
      "outputs": [],
      "stateMutability": "nonpayable",
      "type": "function"
    },
    {
      "inputs": [
        {
          "internalType": "address",
          "name": "outbound_tkn",
          "type": "address"
        },
        {
          "internalType": "address",
          "name": "inbound_tkn",
          "type": "address"
        },
        {
          "internalType": "uint256",
          "name": "wants",
          "type": "uint256"
        },
        {
          "internalType": "uint256",
          "name": "gives",
          "type": "uint256"
        },
        {
          "internalType": "uint256",
          "name": "gasreq",
          "type": "uint256"
        },
        {
          "internalType": "uint256",
          "name": "gasprice",
          "type": "uint256"
        },
        {
          "internalType": "uint256",
          "name": "pivotId",
          "type": "uint256"
        }
      ],
      "name": "newOffer",
      "outputs": [
        {
          "internalType": "uint256",
          "name": "offerId",
          "type": "uint256"
        }
      ],
      "stateMutability": "payable",
      "type": "function"
    },
    {
      "inputs": [
        {
          "internalType": "address",
          "name": "token",
          "type": "address"
        },
        {
          "internalType": "uint256",
          "name": "amount",
          "type": "uint256"
        }
      ],
      "name": "redeemToken",
      "outputs": [
        {
          "internalType": "bool",
          "name": "success",
          "type": "bool"
        }
      ],
      "stateMutability": "nonpayable",
      "type": "function"
    },
    {
      "inputs": [
        {
          "internalType": "address",
          "name": "outbound_tkn",
          "type": "address"
        },
        {
          "internalType": "address",
          "name": "inbound_tkn",
          "type": "address"
        },
        {
          "internalType": "uint256",
          "name": "offerId",
          "type": "uint256"
        },
        {
          "internalType": "bool",
          "name": "deprovision",
          "type": "bool"
        }
      ],
      "name": "retractOffer",
      "outputs": [
        {
          "internalType": "uint256",
          "name": "",
          "type": "uint256"
        }
      ],
      "stateMutability": "nonpayable",
      "type": "function"
    },
    {
      "inputs": [
        {
          "internalType": "address",
          "name": "_admin",
          "type": "address"
        }
      ],
      "name": "setAdmin",
      "outputs": [],
      "stateMutability": "nonpayable",
      "type": "function"
    },
    {
      "inputs": [
        {
          "internalType": "uint256",
          "name": "gasreq",
          "type": "uint256"
        }
      ],
      "name": "setGasreq",
      "outputs": [],
      "stateMutability": "nonpayable",
      "type": "function"
    },
    {
      "inputs": [
        {
          "internalType": "address",
          "name": "outbound_tkn",
          "type": "address"
        },
        {
          "internalType": "address",
          "name": "inbound_tkn",
          "type": "address"
        },
        {
          "internalType": "uint256",
          "name": "wants",
          "type": "uint256"
        },
        {
          "internalType": "uint256",
          "name": "gives",
          "type": "uint256"
        },
        {
          "internalType": "uint256",
          "name": "gasreq",
          "type": "uint256"
        },
        {
          "internalType": "uint256",
          "name": "gasprice",
          "type": "uint256"
        },
        {
          "internalType": "uint256",
          "name": "pivotId",
          "type": "uint256"
        },
        {
          "internalType": "uint256",
          "name": "offerId",
          "type": "uint256"
        }
      ],
      "name": "updateOffer",
      "outputs": [],
      "stateMutability": "payable",
      "type": "function"
    },
    {
      "inputs": [
        {
          "internalType": "address",
          "name": "receiver",
          "type": "address"
        },
        {
          "internalType": "uint256",
          "name": "amount",
          "type": "uint256"
        }
      ],
      "name": "withdrawFromMangrove",
      "outputs": [
        {
          "internalType": "bool",
          "name": "noRevert",
          "type": "bool"
        }
      ],
      "stateMutability": "nonpayable",
      "type": "function"
    },
    {
      "stateMutability": "payable",
      "type": "receive"
    }
  ],
  "bytecode": "0x60a0604052620186a060015534801561001757600080fd5b50604051611af1380380611af18339810160408190526100369161005f565b60008054336001600160a01b031990911617905560601b6001600160601b03191660805261008d565b600060208284031215610070578081fd5b81516001600160a01b0381168114610086578182fd5b9392505050565b60805160601c611a156100dc600039806103e852806104a5528061059d528061065a5280610864528061095d5280610c485280610c695280610d265280610ebc52806110b75250611a156000f3fe6080604052600436106100d65760003560e01c8063ad97db1b1161007f578063e428204d11610059578063e428204d1461020d578063e4c34f8414610222578063eb87009e14610242578063f851a44014610262576100dd565b8063ad97db1b146101ad578063aefe8403146101cd578063e3424811146101ed576100dd565b80636a4f7691116100b05780636a4f76911461015a578063704b6c021461016d578063830cbbbd1461018d576100dd565b8063063df2d2146100e257806334bd89311461011857806349f6d2dc1461013a576100dd565b366100dd57005b600080fd5b3480156100ee57600080fd5b506101026100fd366004611684565b610284565b60405161010f919061190a565b60405180910390f35b34801561012457600080fd5b5061013861013336600461177e565b6102f0565b005b61014d6101483660046115c1565b61038e565b60405161010f9190611915565b61013861016836600461161e565b610544565b34801561017957600080fd5b5061013861018836600461150d565b6106d9565b34801561019957600080fd5b506101026101a8366004611684565b610771565b3480156101b957600080fd5b5061014d6101c8366004611527565b6107d5565b3480156101d957600080fd5b506101386101e8366004611684565b6108fa565b3480156101f957600080fd5b5061014d610208366004611704565b610959565b34801561021957600080fd5b5061014d610c3b565b34801561022e57600080fd5b5061014d61023d366004611575565b610c41565b34801561024e57600080fd5b5061013861025d366004611720565b610d24565b34801561026e57600080fd5b50610277610e60565b60405161010f9190611799565b6000805473ffffffffffffffffffffffffffffffffffffffff1633146102df576040517f08c379a00000000000000000000000000000000000000000000000000000000081526004016102d690611955565b60405180910390fd5b6102e98383610e7c565b5092915050565b60005473ffffffffffffffffffffffffffffffffffffffff1633148061031557503330145b61034b576040517f08c379a00000000000000000000000000000000000000000000000000000000081526004016102d690611955565b808162ffffff1614610389576040517f08c379a00000000000000000000000000000000000000000000000000000000081526004016102d69061198c565b600155565b6000805473ffffffffffffffffffffffffffffffffffffffff1633146103e0576040517f08c379a00000000000000000000000000000000000000000000000000000000081526004016102d690611955565b3415610468577f000000000000000000000000000000000000000000000000000000000000000073ffffffffffffffffffffffffffffffffffffffff1663b60d4288346040518263ffffffff1660e01b81526004016000604051808303818588803b15801561044e57600080fd5b505af1158015610462573d6000803e3d6000fd5b50505050505b6040517f49f6d2dc00000000000000000000000000000000000000000000000000000000815273ffffffffffffffffffffffffffffffffffffffff7f000000000000000000000000000000000000000000000000000000000000000016906349f6d2dc906104e6908b908b908b908b908b908b908b9060040161186e565b602060405180830381600087803b15801561050057600080fd5b505af1158015610514573d6000803e3d6000fd5b505050506040513d601f19601f8201168201806040525081019061053891906116c9565b98975050505050505050565b60005473ffffffffffffffffffffffffffffffffffffffff163314610595576040517f08c379a00000000000000000000000000000000000000000000000000000000081526004016102d690611955565b341561061d577f000000000000000000000000000000000000000000000000000000000000000073ffffffffffffffffffffffffffffffffffffffff1663b60d4288346040518263ffffffff1660e01b81526004016000604051808303818588803b15801561060357600080fd5b505af1158015610617573d6000803e3d6000fd5b50505050505b6040517f6a4f769100000000000000000000000000000000000000000000000000000000815273ffffffffffffffffffffffffffffffffffffffff7f00000000000000000000000000000000000000000000000000000000000000001690636a4f76919061069d908b908b908b908b908b908b908b908b906004016118b9565b600060405180830381600087803b1580156106b757600080fd5b505af11580156106cb573d6000803e3d6000fd5b505050505050505050505050565b60005473ffffffffffffffffffffffffffffffffffffffff16331461072a576040517f08c379a00000000000000000000000000000000000000000000000000000000081526004016102d690611955565b600080547fffffffffffffffffffffffff00000000000000000000000000000000000000001673ffffffffffffffffffffffffffffffffffffffff92909216919091179055565b6000805473ffffffffffffffffffffffffffffffffffffffff1633146107c3576040517f08c379a00000000000000000000000000000000000000000000000000000000081526004016102d690611955565b6107ce833384610fbc565b9392505050565b6000805473ffffffffffffffffffffffffffffffffffffffff163314610827576040517f08c379a00000000000000000000000000000000000000000000000000000000081526004016102d690611955565b6040517fad97db1b00000000000000000000000000000000000000000000000000000000815273ffffffffffffffffffffffffffffffffffffffff7f0000000000000000000000000000000000000000000000000000000000000000169063ad97db1b9061089f908890889088908890600401611838565b602060405180830381600087803b1580156108b957600080fd5b505af11580156108cd573d6000803e3d6000fd5b505050506040513d601f19601f820116820180604052508101906108f191906116c9565b95945050505050565b60005473ffffffffffffffffffffffffffffffffffffffff16331461094b576040517f08c379a00000000000000000000000000000000000000000000000000000000081526004016102d690611955565b610955828261106d565b5050565b60007f000000000000000000000000000000000000000000000000000000000000000073ffffffffffffffffffffffffffffffffffffffff811615806109b457503373ffffffffffffffffffffffffffffffffffffffff8216145b6109ea576040517f08c379a00000000000000000000000000000000000000000000000000000000081526004016102d690611955565b6109f383611169565b610aa357610a07604084016020850161150d565b73ffffffffffffffffffffffffffffffffffffffff16610a2a602085018561150d565b73ffffffffffffffffffffffffffffffffffffffff167f5c3a327c0caf47aa560dbca16cce241483daac785fd723d9e0fb2af3256373bf8560400135604051610a739190611915565b60405180910390a37f6d67764f666665722f72656e65676564000000000000000000000000000000009150610c35565b6000610ab38460a001358561116f565b90508015610b6a57610acb604085016020860161150d565b73ffffffffffffffffffffffffffffffffffffffff16610aee602086018661150d565b73ffffffffffffffffffffffffffffffffffffffff167f3482722a7c71a098521214cdb975e1d9faa0b0163f768e89566f7acc36cffd0b866040013584604051610b399291906119c3565b60405180910390a37f6d67764f666665722f7075744661696c75726500000000000000000000000000925050610c35565b6000610b7a856080013586611178565b90508015610c3257610b92604086016020870161150d565b73ffffffffffffffffffffffffffffffffffffffff16610bb5602087018761150d565b73ffffffffffffffffffffffffffffffffffffffff167fc99fe658c80b903af0e1270f4a55564b3a7509294ab1052c6ab07f8198baea67876040013584604051610c009291906119c3565b60405180910390a37f6d67764f666665722f6f75744f664c697175696469747900000000000000000093505050610c35565b50505b50919050565b60015481565b6000610d1a7f00000000000000000000000000000000000000000000000000000000000000007f000000000000000000000000000000000000000000000000000000000000000073ffffffffffffffffffffffffffffffffffffffff166370a08231306040518263ffffffff1660e01b8152600401610cc09190611799565b60206040518083038186803b158015610cd857600080fd5b505afa158015610cec573d6000803e3d6000fd5b505050506040513d601f19601f82011682018060405250810190610d1091906116c9565b888888888861122c565b9695505050505050565b7f000000000000000000000000000000000000000000000000000000000000000073ffffffffffffffffffffffffffffffffffffffff81161580610d7d57503373ffffffffffffffffffffffffffffffffffffffff8216145b610db3576040517f08c379a00000000000000000000000000000000000000000000000000000000081526004016102d690611955565b81602001357f6d67762f747261646553756363657373000000000000000000000000000000001415610ded57610de883611487565b610e5b565b81357f6d67764f666665722f6f75744f664c69717569646974790000000000000000001415610e1f57610de883611487565b81357f6d67764f666665722f72656e65676564000000000000000000000000000000001415610e5157610de883611487565b610e5b8383610955565b505050565b60005473ffffffffffffffffffffffffffffffffffffffff1681565b6040517f2e1a7d4d00000000000000000000000000000000000000000000000000000000815260009073ffffffffffffffffffffffffffffffffffffffff7f00000000000000000000000000000000000000000000000000000000000000001690632e1a7d4d90610ef1908590600401611915565b602060405180830381600087803b158015610f0b57600080fd5b505af1158015610f1f573d6000803e3d6000fd5b505050506040513d601f19601f82011682018060405250810190610f4391906116ad565b610f4c57600080fd5b8273ffffffffffffffffffffffffffffffffffffffff1682604051610f7090611796565b60006040518083038185875af1925050503d8060008114610fad576040519150601f19603f3d011682016040523d82523d6000602084013e610fb2565b606091505b5090949350505050565b6040517fa9059cbb00000000000000000000000000000000000000000000000000000000815260009073ffffffffffffffffffffffffffffffffffffffff85169063a9059cbb9061101390869086906004016117ba565b602060405180830381600087803b15801561102d57600080fd5b505af1158015611041573d6000803e3d6000fd5b505050506040513d601f19601f8201168201806040525081019061106591906116ad565b949350505050565b6040517f095ea7b300000000000000000000000000000000000000000000000000000000815273ffffffffffffffffffffffffffffffffffffffff83169063095ea7b3906110e1907f00000000000000000000000000000000000000000000000000000000000000009085906004016117ba565b602060405180830381600087803b1580156110fb57600080fd5b505af115801561110f573d6000803e3d6000fd5b505050506040513d601f19601f8201168201806040525081019061113391906116ad565b610955576040517f08c379a00000000000000000000000000000000000000000000000000000000081526004016102d69061191e565b50600190565b60005b92915050565b600080611188602084018461150d565b73ffffffffffffffffffffffffffffffffffffffff166370a08231306040518263ffffffff1660e01b81526004016111c09190611799565b60206040518083038186803b1580156111d857600080fd5b505afa1580156111ec573d6000803e3d6000fd5b505050506040513d601f19601f8201168201806040525081019061121091906116c9565b9050838110611223576000915050611172565b83039050611172565b60008060008973ffffffffffffffffffffffffffffffffffffffff1663cbf75c9a89896040518363ffffffff1660e01b815260040161126c9291906117e0565b604080518083038186803b15801561128357600080fd5b505afa158015611297573d6000803e3d6000fd5b505050506040513d601f19601f820116820180604052508101906112bb91906116e1565b9150915060008a73ffffffffffffffffffffffffffffffffffffffff166368c13d6b8a8a886040518463ffffffff1660e01b81526004016112fe93929190611807565b60206040518083038186803b15801561131657600080fd5b505afa15801561132a573d6000803e3d6000fd5b505050506040513d601f19601f8201168201806040525081019061134e91906116c9565b905060008b73ffffffffffffffffffffffffffffffffffffffff16635722647b8b8b896040518463ffffffff1660e01b815260040161138f93929190611807565b60206040518083038186803b1580156113a757600080fd5b505afa1580156113bb573d6000803e3d6000fd5b505050506040513d601f19601f820116820180604052508101906113df91906116c9565b90506000876113ed8661148a565b1115611403576113fc8561148a565b9050611406565b50865b60008161141286611499565b61141b876114a4565b8c010102633b9aca000290506000611432856114af565b61143b856114b6565b611444866114c1565b61144d876114cc565b010102633b9aca0002905060008e820190508281101561146f57808303611472565b60005b98505050505050505050979650505050505050565b50565b61ffff604082901c165b919050565b60381c62ffffff1690565b60501c62ffffff1690565b61ffff1690565b60181c62ffffff1690565b60301c62ffffff1690565b60481c62ffffff1690565b803573ffffffffffffffffffffffffffffffffffffffff8116811461149457600080fd5b60006101208284031215610c35578081fd5b60006020828403121561151e578081fd5b6107ce826114d7565b6000806000806080858703121561153c578283fd5b611545856114d7565b9350611553602086016114d7565b925060408501359150606085013561156a816119d1565b939692955090935050565b600080600080600060a0868803121561158c578081fd5b611595866114d7565b94506115a3602087016114d7565b94979496505050506040830135926060810135926080909101359150565b600080600080600080600060e0888a0312156115db578182fd5b6115e4886114d7565b96506115f2602089016114d7565b96999698505050506040850135946060810135946080820135945060a0820135935060c0909101359150565b600080600080600080600080610100898b03121561163a578081fd5b611643896114d7565b975061165160208a016114d7565b979a9799505050506040860135956060810135956080820135955060a0820135945060c0820135935060e0909101359150565b60008060408385031215611696578182fd5b61169f836114d7565b946020939093013593505050565b6000602082840312156116be578081fd5b81516107ce816119d1565b6000602082840312156116da578081fd5b5051919050565b600080604083850312156116f3578182fd5b505080516020909101519092909150565b60006101208284031215611716578081fd5b6107ce83836114fb565b600080828403610160811215611734578283fd5b61173e85856114fb565b925060407ffffffffffffffffffffffffffffffffffffffffffffffffffffffffffffffee08201121561176f578182fd5b50610120830190509250929050565b60006020828403121561178f578081fd5b5035919050565b90565b73ffffffffffffffffffffffffffffffffffffffff91909116815260200190565b73ffffffffffffffffffffffffffffffffffffffff929092168252602082015260400190565b73ffffffffffffffffffffffffffffffffffffffff92831681529116602082015260400190565b73ffffffffffffffffffffffffffffffffffffffff9384168152919092166020820152604081019190915260600190565b73ffffffffffffffffffffffffffffffffffffffff94851681529290931660208301526040820152901515606082015260800190565b73ffffffffffffffffffffffffffffffffffffffff978816815295909616602086015260408501939093526060840191909152608083015260a082015260c081019190915260e00190565b73ffffffffffffffffffffffffffffffffffffffff988916815296909716602087015260408601949094526060850192909252608084015260a083015260c082015260e08101919091526101000190565b901515815260200190565b90815260200190565b60208082526015908201527f6d67764f666665722f617070726f76652f4661696c0000000000000000000000604082015260600190565b60208082526018908201527f416363657373436f6e74726f6c6c65642f496e76616c69640000000000000000604082015260600190565b6020808252601d908201527f4d616e67726f76654f666665722f6761737265712f6f766572666c6f77000000604082015260600190565b918252602082015260400190565b801515811461148757600080fdfea264697066735822122070db024804c6c5435789eb34b52935194e903e75cc491bbfd5cc04c369f1ed5a64736f6c63430007060033",
  "linkReferences": {},
  "deployedLinkReferences": {}
}