{
  "_format": "hh-sol-artifact-1",
  "contractName": "SimpleMaker",
  "sourceName": "contracts/Strategies/OfferLogics/SingleUser/Deployable/SimpleMaker.sol",
  "abi": [
    {
      "inputs": [
        {
          "internalType": "address payable",
          "name": "_MGV",
          "type": "address"
        }
      ],
      "stateMutability": "nonpayable",
      "type": "constructor"
    },
    {
      "anonymous": false,
      "inputs": [
        {
          "indexed": true,
          "internalType": "address",
          "name": "outbound_tkn",
          "type": "address"
        },
        {
          "indexed": true,
          "internalType": "address",
          "name": "inbound_tkn",
          "type": "address"
        },
        {
          "indexed": true,
          "internalType": "uint256",
          "name": "offerId",
          "type": "uint256"
        },
        {
          "indexed": false,
          "internalType": "bytes32",
          "name": "reason",
          "type": "bytes32"
        }
      ],
      "name": "LogIncident",
      "type": "event"
    },
    {
      "inputs": [],
      "name": "MGV",
      "outputs": [
        {
          "internalType": "contract IMangrove",
          "name": "",
          "type": "address"
        }
      ],
      "stateMutability": "view",
      "type": "function"
    },
    {
      "inputs": [],
      "name": "OFR_GASREQ",
      "outputs": [
        {
          "internalType": "uint256",
          "name": "",
          "type": "uint256"
        }
      ],
      "stateMutability": "view",
      "type": "function"
    },
    {
      "inputs": [],
      "name": "OUTOFLIQUIDITY",
      "outputs": [
        {
          "internalType": "bytes32",
          "name": "",
          "type": "bytes32"
        }
      ],
      "stateMutability": "view",
      "type": "function"
    },
    {
      "inputs": [],
      "name": "PUTFAILURE",
      "outputs": [
        {
          "internalType": "bytes32",
          "name": "",
          "type": "bytes32"
        }
      ],
      "stateMutability": "view",
      "type": "function"
    },
    {
      "inputs": [],
      "name": "RENEGED",
      "outputs": [
        {
          "internalType": "bytes32",
          "name": "",
          "type": "bytes32"
        }
      ],
      "stateMutability": "view",
      "type": "function"
    },
    {
      "inputs": [],
      "name": "admin",
      "outputs": [
        {
          "internalType": "address",
          "name": "",
          "type": "address"
        }
      ],
      "stateMutability": "view",
      "type": "function"
    },
    {
      "inputs": [
        {
          "internalType": "address",
          "name": "outbound_tkn",
          "type": "address"
        },
        {
          "internalType": "uint256",
          "name": "amount",
          "type": "uint256"
        }
      ],
      "name": "approveMangrove",
      "outputs": [],
      "stateMutability": "nonpayable",
      "type": "function"
    },
    {
      "inputs": [
        {
          "internalType": "address",
          "name": "outbound_tkn",
          "type": "address"
        },
        {
          "internalType": "address",
          "name": "inbound_tkn",
          "type": "address"
        },
        {
          "internalType": "uint256",
          "name": "gasreq",
          "type": "uint256"
        },
        {
          "internalType": "uint256",
          "name": "gasprice",
          "type": "uint256"
        },
        {
          "internalType": "uint256",
          "name": "offerId",
          "type": "uint256"
        }
      ],
      "name": "getMissingProvision",
      "outputs": [
        {
          "internalType": "uint256",
          "name": "",
          "type": "uint256"
        }
      ],
      "stateMutability": "view",
      "type": "function"
    },
    {
      "inputs": [
        {
          "components": [
            {
              "internalType": "address",
              "name": "outbound_tkn",
              "type": "address"
            },
            {
              "internalType": "address",
              "name": "inbound_tkn",
              "type": "address"
            },
            {
              "internalType": "uint256",
              "name": "offerId",
              "type": "uint256"
            },
            {
              "internalType": "t",
              "name": "offer",
              "type": "uint256"
            },
            {
              "internalType": "uint256",
              "name": "wants",
              "type": "uint256"
            },
            {
              "internalType": "uint256",
              "name": "gives",
              "type": "uint256"
            },
            {
              "internalType": "t",
              "name": "offerDetail",
              "type": "uint256"
            },
            {
              "internalType": "t",
              "name": "global",
              "type": "uint256"
            },
            {
              "internalType": "t",
              "name": "local",
              "type": "uint256"
            }
          ],
          "internalType": "struct MgvLib.SingleOrder",
          "name": "order",
          "type": "tuple"
        }
      ],
      "name": "makerExecute",
      "outputs": [
        {
          "internalType": "bytes32",
          "name": "ret",
          "type": "bytes32"
        }
      ],
      "stateMutability": "nonpayable",
      "type": "function"
    },
    {
      "inputs": [
        {
          "components": [
            {
              "internalType": "address",
              "name": "outbound_tkn",
              "type": "address"
            },
            {
              "internalType": "address",
              "name": "inbound_tkn",
              "type": "address"
            },
            {
              "internalType": "uint256",
              "name": "offerId",
              "type": "uint256"
            },
            {
              "internalType": "t",
              "name": "offer",
              "type": "uint256"
            },
            {
              "internalType": "uint256",
              "name": "wants",
              "type": "uint256"
            },
            {
              "internalType": "uint256",
              "name": "gives",
              "type": "uint256"
            },
            {
              "internalType": "t",
              "name": "offerDetail",
              "type": "uint256"
            },
            {
              "internalType": "t",
              "name": "global",
              "type": "uint256"
            },
            {
              "internalType": "t",
              "name": "local",
              "type": "uint256"
            }
          ],
          "internalType": "struct MgvLib.SingleOrder",
          "name": "order",
          "type": "tuple"
        },
        {
          "components": [
            {
              "internalType": "bytes32",
              "name": "makerData",
              "type": "bytes32"
            },
            {
              "internalType": "bytes32",
              "name": "mgvData",
              "type": "bytes32"
            }
          ],
          "internalType": "struct MgvLib.OrderResult",
          "name": "result",
          "type": "tuple"
        }
      ],
      "name": "makerPosthook",
      "outputs": [],
      "stateMutability": "nonpayable",
      "type": "function"
    },
    {
      "inputs": [
        {
          "internalType": "address",
          "name": "outbound_tkn",
          "type": "address"
        },
        {
          "internalType": "address",
          "name": "inbound_tkn",
          "type": "address"
        },
        {
          "internalType": "uint256",
          "name": "wants",
          "type": "uint256"
        },
        {
          "internalType": "uint256",
          "name": "gives",
          "type": "uint256"
        },
        {
          "internalType": "uint256",
          "name": "gasreq",
          "type": "uint256"
        },
        {
          "internalType": "uint256",
          "name": "gasprice",
          "type": "uint256"
        },
        {
          "internalType": "uint256",
          "name": "pivotId",
          "type": "uint256"
        }
      ],
      "name": "newOffer",
      "outputs": [
        {
          "internalType": "uint256",
          "name": "offerId",
          "type": "uint256"
        }
      ],
      "stateMutability": "payable",
      "type": "function"
    },
    {
      "inputs": [
        {
          "internalType": "address",
          "name": "token",
          "type": "address"
        },
        {
          "internalType": "address",
          "name": "receiver",
          "type": "address"
        },
        {
          "internalType": "uint256",
          "name": "amount",
          "type": "uint256"
        }
      ],
      "name": "redeemToken",
      "outputs": [
        {
          "internalType": "bool",
          "name": "success",
          "type": "bool"
        }
      ],
      "stateMutability": "nonpayable",
      "type": "function"
    },
    {
      "inputs": [
        {
          "internalType": "address",
          "name": "outbound_tkn",
          "type": "address"
        },
        {
          "internalType": "address",
          "name": "inbound_tkn",
          "type": "address"
        },
        {
          "internalType": "uint256",
          "name": "offerId",
          "type": "uint256"
        },
        {
          "internalType": "bool",
          "name": "deprovision",
          "type": "bool"
        }
      ],
      "name": "retractOffer",
      "outputs": [
        {
          "internalType": "uint256",
          "name": "",
          "type": "uint256"
        }
      ],
      "stateMutability": "nonpayable",
      "type": "function"
    },
    {
      "inputs": [
        {
          "internalType": "address",
          "name": "_admin",
          "type": "address"
        }
      ],
      "name": "setAdmin",
      "outputs": [],
      "stateMutability": "nonpayable",
      "type": "function"
    },
    {
      "inputs": [
        {
          "internalType": "uint256",
          "name": "gasreq",
          "type": "uint256"
        }
      ],
      "name": "setGasreq",
      "outputs": [],
      "stateMutability": "nonpayable",
      "type": "function"
    },
    {
      "inputs": [
        {
          "internalType": "address",
          "name": "outbound_tkn",
          "type": "address"
        },
        {
          "internalType": "address",
          "name": "inbound_tkn",
          "type": "address"
        },
        {
          "internalType": "uint256",
          "name": "wants",
          "type": "uint256"
        },
        {
          "internalType": "uint256",
          "name": "gives",
          "type": "uint256"
        },
        {
          "internalType": "uint256",
          "name": "gasreq",
          "type": "uint256"
        },
        {
          "internalType": "uint256",
          "name": "gasprice",
          "type": "uint256"
        },
        {
          "internalType": "uint256",
          "name": "pivotId",
          "type": "uint256"
        },
        {
          "internalType": "uint256",
          "name": "offerId",
          "type": "uint256"
        }
      ],
      "name": "updateOffer",
      "outputs": [],
      "stateMutability": "payable",
      "type": "function"
    },
    {
      "inputs": [
        {
          "internalType": "address payable",
          "name": "receiver",
          "type": "address"
        },
        {
          "internalType": "uint256",
          "name": "amount",
          "type": "uint256"
        }
      ],
      "name": "withdrawFromMangrove",
      "outputs": [
        {
          "internalType": "bool",
          "name": "",
          "type": "bool"
        }
      ],
      "stateMutability": "nonpayable",
      "type": "function"
    },
    {
      "stateMutability": "payable",
      "type": "receive"
    }
  ],
  "bytecode": "0x6101006040527f6d67764f666665722f61626f72742f72656e65676564000000000000000000006080527f6d67764f666665722f61626f72742f7075744661696c6564000000000000000060a0527f6d67764f666665722f61626f72742f6765744661696c6564000000000000000060c052620186a060015534801561008457600080fd5b50604051611d54380380611d548339810160408190526100a391610122565b803280806100f75760405162461bcd60e51b815260206004820152601860248201527f616363657373436f6e74726f6c6c65642f307841646d696e0000000000000000604482015260640160405180910390fd5b600080546001600160a01b0319166001600160a01b039283161790559190911660e052506101529050565b60006020828403121561013457600080fd5b81516001600160a01b038116811461014b57600080fd5b9392505050565b60805160a05160c05160e051611b6e6101e6600039600081816102d7015281816106fd015281816107fa01528181610a6e01528181610be101528181610c4e01528181610e8b01528181610f6f0152818161101e015281816110e301528181611213015281816112c401528181611551015261161a0152600061026f015260006101e8015260006102a30152611b6e6000f3fe6080604052600436106101125760003560e01c8063704b6c02116100a5578063ad97db1b11610074578063e428204d11610059578063e428204d1461035e578063e4c34f8414610374578063f851a4401461039457600080fd5b8063ad97db1b1461031e578063aefe84031461033e57600080fd5b8063704b6c021461023d5780637f7a1b991461025d57806389dbacfe1461029157806399fa5e2d146102c557600080fd5b806349f6d2dc116100e157806349f6d2dc146101b5578063572e59e3146101d65780636a4f76911461020a5780636c49c32c1461021d57600080fd5b8063063df2d21461011e5780630d71bdc31461015357806334bd8931146101735780633d3d130d1461019557600080fd5b3661011957005b600080fd5b34801561012a57600080fd5b5061013e61013936600461178a565b6103c1565b60405190151581526020015b60405180910390f35b34801561015f57600080fd5b5061013e61016e3660046117b6565b6104fe565b34801561017f57600080fd5b5061019361018e3660046117f7565b6106c4565b005b3480156101a157600080fd5b506101936101b0366004611823565b6107f8565b6101c86101c3366004611883565b61097c565b60405190815260200161014a565b3480156101e257600080fd5b506101c87f000000000000000000000000000000000000000000000000000000000000000081565b6101936102183660046118e5565b610ae9565b34801561022957600080fd5b506101c8610238366004611950565b610c4a565b34801561024957600080fd5b5061019361025836600461196d565b610d89565b34801561026957600080fd5b506101c87f000000000000000000000000000000000000000000000000000000000000000081565b34801561029d57600080fd5b506101c87f000000000000000000000000000000000000000000000000000000000000000081565b3480156102d157600080fd5b506102f97f000000000000000000000000000000000000000000000000000000000000000081565b60405173ffffffffffffffffffffffffffffffffffffffff909116815260200161014a565b34801561032a57600080fd5b506101c861033936600461199f565b610e51565b34801561034a57600080fd5b5061019361035936600461178a565b610fe5565b34801561036a57600080fd5b506101c860015481565b34801561038057600080fd5b506101c861038f3660046119f2565b6111c9565b3480156103a057600080fd5b506000546102f99073ffffffffffffffffffffffffffffffffffffffff1681565b6000805473ffffffffffffffffffffffffffffffffffffffff163314610448576040517f08c379a000000000000000000000000000000000000000000000000000000000815260206004820152601860248201527f416363657373436f6e74726f6c6c65642f496e76616c6964000000000000000060448201526064015b60405180910390fd5b73ffffffffffffffffffffffffffffffffffffffff83166104eb576040517f08c379a000000000000000000000000000000000000000000000000000000000815260206004820152602160248201527f53696e676c65557365722f77697468647261774d47562f30785265636569766560448201527f7200000000000000000000000000000000000000000000000000000000000000606482015260840161043f565b6104f58383611292565b90505b92915050565b6000805473ffffffffffffffffffffffffffffffffffffffff163314610580576040517f08c379a000000000000000000000000000000000000000000000000000000000815260206004820152601860248201527f416363657373436f6e74726f6c6c65642f496e76616c69640000000000000000604482015260640161043f565b73ffffffffffffffffffffffffffffffffffffffff8316610623576040517f08c379a000000000000000000000000000000000000000000000000000000000815260206004820152602160248201527f53696e676c65557365722f72656465656d546f6b656e2f30785265636569766560448201527f7200000000000000000000000000000000000000000000000000000000000000606482015260840161043f565b6040517fa9059cbb00000000000000000000000000000000000000000000000000000000815273ffffffffffffffffffffffffffffffffffffffff84811660048301526024820184905285169063a9059cbb906044016020604051808303816000875af1158015610698573d6000803e3d6000fd5b505050506040513d601f19601f820116820180604052508101906106bc9190611a43565b949350505050565b60005473ffffffffffffffffffffffffffffffffffffffff1633148061071f57503373ffffffffffffffffffffffffffffffffffffffff7f000000000000000000000000000000000000000000000000000000000000000016145b610785576040517f08c379a000000000000000000000000000000000000000000000000000000000815260206004820152601860248201527f416363657373436f6e74726f6c6c65642f496e76616c69640000000000000000604482015260640161043f565b808162ffffff16146107f3576040517f08c379a000000000000000000000000000000000000000000000000000000000815260206004820152601860248201527f6d67764f666665722f6761737265712f6f766572666c6f770000000000000000604482015260640161043f565b600155565b7f000000000000000000000000000000000000000000000000000000000000000073ffffffffffffffffffffffffffffffffffffffff8116158061085157503373ffffffffffffffffffffffffffffffffffffffff8216145b6108b7576040517f08c379a000000000000000000000000000000000000000000000000000000000815260206004820152601860248201527f416363657373436f6e74726f6c6c65642f496e76616c69640000000000000000604482015260640161043f565b81602001357f6d67762f74726164655375636365737300000000000000000000000000000000036108eb5760015b50505050565b604083018035906108ff906020860161196d565b73ffffffffffffffffffffffffffffffffffffffff16610922602086018661196d565b73ffffffffffffffffffffffffffffffffffffffff167fd2c3f090769d843e1fc2e6ce65d60572e28f9163a5cfccbd6c1725c6a9263f2f856000013560405161096d91815260200190565b60405180910390a460016108e5565b6000805473ffffffffffffffffffffffffffffffffffffffff1633146109fe576040517f08c379a000000000000000000000000000000000000000000000000000000000815260206004820152601860248201527f416363657373436f6e74726f6c6c65642f496e76616c69640000000000000000604482015260640161043f565b6040517f49f6d2dc00000000000000000000000000000000000000000000000000000000815273ffffffffffffffffffffffffffffffffffffffff8981166004830152888116602483015260448201889052606482018790526084820186905260a4820185905260c482018490527f000000000000000000000000000000000000000000000000000000000000000016906349f6d2dc90349060e40160206040518083038185885af1158015610ab8573d6000803e3d6000fd5b50505050506040513d601f19601f82011682018060405250810190610add9190611a60565b98975050505050505050565b60005473ffffffffffffffffffffffffffffffffffffffff163314610b6a576040517f08c379a000000000000000000000000000000000000000000000000000000000815260206004820152601860248201527f416363657373436f6e74726f6c6c65642f496e76616c69640000000000000000604482015260640161043f565b6040517f6a4f769100000000000000000000000000000000000000000000000000000000815273ffffffffffffffffffffffffffffffffffffffff8981166004830152888116602483015260448201889052606482018790526084820186905260a4820185905260c4820184905260e482018390527f00000000000000000000000000000000000000000000000000000000000000001690636a4f7691903490610104016000604051808303818588803b158015610c2757600080fd5b505af1158015610c3b573d6000803e3d6000fd5b50505050505050505050505050565b60007f000000000000000000000000000000000000000000000000000000000000000073ffffffffffffffffffffffffffffffffffffffff81161580610ca557503373ffffffffffffffffffffffffffffffffffffffff8216145b610d0b576040517f08c379a000000000000000000000000000000000000000000000000000000000815260206004820152601860248201527f416363657373436f6e74726f6c6c65642f496e76616c69640000000000000000604482015260640161043f565b6000610d1b846080013585611438565b1115610d83576040517f08c379a000000000000000000000000000000000000000000000000000000000815260206004820152601860248201527f6d67764f666665722f61626f72742f6765744661696c65640000000000000000604482015260640161043f565b50919050565b60005473ffffffffffffffffffffffffffffffffffffffff163314610e0a576040517f08c379a000000000000000000000000000000000000000000000000000000000815260206004820152601860248201527f416363657373436f6e74726f6c6c65642f496e76616c69640000000000000000604482015260640161043f565b600080547fffffffffffffffffffffffff00000000000000000000000000000000000000001673ffffffffffffffffffffffffffffffffffffffff92909216919091179055565b6000805473ffffffffffffffffffffffffffffffffffffffff16331480610ead57503373ffffffffffffffffffffffffffffffffffffffff7f000000000000000000000000000000000000000000000000000000000000000016145b610f13576040517f08c379a000000000000000000000000000000000000000000000000000000000815260206004820152601860248201527f416363657373436f6e74726f6c6c65642f496e76616c69640000000000000000604482015260640161043f565b6040517fad97db1b00000000000000000000000000000000000000000000000000000000815273ffffffffffffffffffffffffffffffffffffffff868116600483015285811660248301526044820185905283151560648301527f0000000000000000000000000000000000000000000000000000000000000000169063ad97db1b906084016020604051808303816000875af1158015610fb8573d6000803e3d6000fd5b505050506040513d601f19601f82011682018060405250810190610fdc9190611a60565b95945050505050565b60005473ffffffffffffffffffffffffffffffffffffffff1633148061104057503373ffffffffffffffffffffffffffffffffffffffff7f000000000000000000000000000000000000000000000000000000000000000016145b6110a6576040517f08c379a000000000000000000000000000000000000000000000000000000000815260206004820152601860248201527f416363657373436f6e74726f6c6c65642f496e76616c69640000000000000000604482015260640161043f565b6040517f095ea7b300000000000000000000000000000000000000000000000000000000815273ffffffffffffffffffffffffffffffffffffffff7f0000000000000000000000000000000000000000000000000000000000000000811660048301526024820183905283169063095ea7b3906044016020604051808303816000875af115801561113b573d6000803e3d6000fd5b505050506040513d601f19601f8201168201806040525081019061115f9190611a43565b6111c5576040517f08c379a000000000000000000000000000000000000000000000000000000000815260206004820152601560248201527f6d67764f666665722f617070726f76652f4661696c0000000000000000000000604482015260640161043f565b5050565b6040517f70a082310000000000000000000000000000000000000000000000000000000081523060048201526000906112889073ffffffffffffffffffffffffffffffffffffffff7f000000000000000000000000000000000000000000000000000000000000000016906370a0823190602401602060405180830381865afa15801561125a573d6000803e3d6000fd5b505050506040513d601f19601f8201168201806040525081019061127e9190611a60565b87878787876114fd565b9695505050505050565b6040517f2e1a7d4d000000000000000000000000000000000000000000000000000000008152600481018290526000907f000000000000000000000000000000000000000000000000000000000000000073ffffffffffffffffffffffffffffffffffffffff1690632e1a7d4d906024016020604051808303816000875af1158015611322573d6000803e3d6000fd5b505050506040513d601f19601f820116820180604052508101906113469190611a43565b6113ac576040517f08c379a000000000000000000000000000000000000000000000000000000000815260206004820152601e60248201527f6d67764f666665722f77697468647261772f7472616e736665724661696c0000604482015260640161043f565b73ffffffffffffffffffffffffffffffffffffffff8316301461142f5760405173ffffffffffffffffffffffffffffffffffffffff8416908390600081818185875af1925050503d806000811461141f576040519150601f19603f3d011682016040523d82523d6000602084013e611424565b606091505b5050809150506104f8565b50600192915050565b600080611448602084018461196d565b6040517f70a0823100000000000000000000000000000000000000000000000000000000815230600482015273ffffffffffffffffffffffffffffffffffffffff91909116906370a0823190602401602060405180830381865afa1580156114b4573d6000803e3d6000fd5b505050506040513d601f19601f820116820180604052508101906114d89190611a60565b90508381106114eb5760009150506104f8565b6114f58185611aa8565b9150506104f8565b6040517fcbf75c9a00000000000000000000000000000000000000000000000000000000815273ffffffffffffffffffffffffffffffffffffffff86811660048301528581166024830152600091829182917f00000000000000000000000000000000000000000000000000000000000000009091169063cbf75c9a906044016040805180830381865afa158015611599573d6000803e3d6000fd5b505050506040513d601f19601f820116820180604052508101906115bd9190611abf565b6040517f5722647b00000000000000000000000000000000000000000000000000000000815273ffffffffffffffffffffffffffffffffffffffff8b811660048301528a81166024830152604482018890529294509092506000917f00000000000000000000000000000000000000000000000000000000000000001690635722647b90606401602060405180830381865afa158015611661573d6000803e3d6000fd5b505050506040513d601f19601f820116820180604052508101906116859190611a60565b9050600086604085901c61ffff1611156116a8575061ffff604084901c166116ab565b50855b62ffffff8811156116bc5760015497505b6000816116d262ffffff606087901c168b611ae3565b6116dc9190611afb565b6116ea90633b9aca00611afb565b9050600061ffff602085901c1661171162ffffff603087901c811690604888901c16611ae3565b61171b9190611afb565b61172990633b9aca00611afb565b905060006117378e83611ae3565b9050828110156117505761174b8184611aa8565b611753565b60005b9e9d5050505050505050505050505050565b73ffffffffffffffffffffffffffffffffffffffff8116811461178757600080fd5b50565b6000806040838503121561179d57600080fd5b82356117a881611765565b946020939093013593505050565b6000806000606084860312156117cb57600080fd5b83356117d681611765565b925060208401356117e681611765565b929592945050506040919091013590565b60006020828403121561180957600080fd5b5035919050565b60006101208284031215610d8357600080fd5b60008082840361016081121561183857600080fd5b6118428585611810565b925060407ffffffffffffffffffffffffffffffffffffffffffffffffffffffffffffffee08201121561187457600080fd5b50610120830190509250929050565b600080600080600080600060e0888a03121561189e57600080fd5b87356118a981611765565b965060208801356118b981611765565b96999698505050506040850135946060810135946080820135945060a0820135935060c0909101359150565b600080600080600080600080610100898b03121561190257600080fd5b883561190d81611765565b9750602089013561191d81611765565b979a9799505050506040860135956060810135956080820135955060a0820135945060c0820135935060e0909101359150565b6000610120828403121561196357600080fd5b6104f58383611810565b60006020828403121561197f57600080fd5b813561198a81611765565b9392505050565b801515811461178757600080fd5b600080600080608085870312156119b557600080fd5b84356119c081611765565b935060208501356119d081611765565b92506040850135915060608501356119e781611991565b939692955090935050565b600080600080600060a08688031215611a0a57600080fd5b8535611a1581611765565b94506020860135611a2581611765565b94979496505050506040830135926060810135926080909101359150565b600060208284031215611a5557600080fd5b815161198a81611991565b600060208284031215611a7257600080fd5b5051919050565b7f4e487b7100000000000000000000000000000000000000000000000000000000600052601160045260246000fd5b600082821015611aba57611aba611a79565b500390565b60008060408385031215611ad257600080fd5b505080516020909101519092909150565b60008219821115611af657611af6611a79565b500190565b6000817fffffffffffffffffffffffffffffffffffffffffffffffffffffffffffffffff0483118215151615611b3357611b33611a79565b50029056fea2646970667358221220091e7eebe00348a2a4eeceb1f5c0897c95b74d8a53bc5c9e66504dcad49b326464736f6c634300080e0033",
  "linkReferences": {},
  "deployedLinkReferences": {}
}