{
  "abi": [
    {
      "inputs": [
        {
          "internalType": "contract IMangrove",
          "name": "_mgv",
          "type": "address"
        },
        {
          "internalType": "address",
          "name": "admin",
          "type": "address"
        },
        {
          "internalType": "address",
          "name": "_arbitrager",
          "type": "address"
        }
      ],
      "stateMutability": "nonpayable",
      "type": "constructor"
    },
    {
      "anonymous": false,
      "inputs": [
        {
          "indexed": false,
          "internalType": "address",
          "name": "admin",
          "type": "address"
        }
      ],
      "name": "SetAdmin",
      "type": "event"
    },
    {
      "inputs": [
        {
          "internalType": "contract IERC20[]",
          "name": "tokens",
          "type": "address[]"
        }
      ],
      "name": "activateTokens",
      "outputs": [],
      "stateMutability": "nonpayable",
      "type": "function"
    },
    {
      "inputs": [],
      "name": "admin",
      "outputs": [
        {
          "internalType": "address",
          "name": "current",
          "type": "address"
        }
      ],
      "stateMutability": "view",
      "type": "function"
    },
    {
      "inputs": [],
      "name": "arbitrager",
      "outputs": [
        {
          "internalType": "address",
          "name": "",
          "type": "address"
        }
      ],
      "stateMutability": "view",
      "type": "function"
    },
    {
      "inputs": [
        {
          "components": [
            {
              "internalType": "uint256",
              "name": "offerId",
              "type": "uint256"
            },
            {
              "internalType": "address",
              "name": "takerWantsToken",
              "type": "address"
            },
            {
              "internalType": "uint256",
              "name": "takerWants",
              "type": "uint256"
            },
            {
              "internalType": "address",
              "name": "takerGivesToken",
              "type": "address"
            },
            {
              "internalType": "uint256",
              "name": "takerGives",
              "type": "uint256"
            },
            {
              "internalType": "uint24",
              "name": "fee",
              "type": "uint24"
            },
            {
              "internalType": "uint256",
              "name": "minGain",
              "type": "uint256"
            }
          ],
          "internalType": "struct ArbParams",
          "name": "params",
          "type": "tuple"
        }
      ],
      "name": "doArbitrage",
      "outputs": [
        {
          "internalType": "uint256",
          "name": "amountOut",
          "type": "uint256"
        }
      ],
      "stateMutability": "nonpayable",
      "type": "function"
    },
    {
      "inputs": [
        {
          "components": [
            {
              "internalType": "uint256",
              "name": "offerId",
              "type": "uint256"
            },
            {
              "internalType": "address",
              "name": "takerWantsToken",
              "type": "address"
            },
            {
              "internalType": "uint256",
              "name": "takerWants",
              "type": "uint256"
            },
            {
              "internalType": "address",
              "name": "takerGivesToken",
              "type": "address"
            },
            {
              "internalType": "uint256",
              "name": "takerGives",
              "type": "uint256"
            },
            {
              "internalType": "uint24",
              "name": "fee",
              "type": "uint24"
            },
            {
              "internalType": "uint256",
              "name": "minGain",
              "type": "uint256"
            }
          ],
          "internalType": "struct ArbParams",
          "name": "params",
          "type": "tuple"
        },
        {
          "internalType": "address",
          "name": "token",
          "type": "address"
        }
      ],
      "name": "doArbitrageExchangeOnMgv",
      "outputs": [
        {
          "internalType": "uint256",
          "name": "amountOut",
          "type": "uint256"
        }
      ],
      "stateMutability": "nonpayable",
      "type": "function"
    },
    {
      "inputs": [
        {
          "components": [
            {
              "internalType": "uint256",
              "name": "offerId",
              "type": "uint256"
            },
            {
              "internalType": "address",
              "name": "takerWantsToken",
              "type": "address"
            },
            {
              "internalType": "uint256",
              "name": "takerWants",
              "type": "uint256"
            },
            {
              "internalType": "address",
              "name": "takerGivesToken",
              "type": "address"
            },
            {
              "internalType": "uint256",
              "name": "takerGives",
              "type": "uint256"
            },
            {
              "internalType": "uint24",
              "name": "fee",
              "type": "uint24"
            },
            {
              "internalType": "uint256",
              "name": "minGain",
              "type": "uint256"
            }
          ],
          "internalType": "struct ArbParams",
          "name": "params",
          "type": "tuple"
        },
        {
          "internalType": "address",
          "name": "token",
          "type": "address"
        },
        {
          "internalType": "uint24",
          "name": "fee",
          "type": "uint24"
        }
      ],
      "name": "doArbitrageExchangeOnUniswap",
      "outputs": [
        {
          "internalType": "uint256",
          "name": "amountOut",
          "type": "uint256"
        }
      ],
      "stateMutability": "nonpayable",
      "type": "function"
    },
    {
      "inputs": [],
      "name": "mgv",
      "outputs": [
        {
          "internalType": "contract IMangrove",
          "name": "",
          "type": "address"
        }
      ],
      "stateMutability": "view",
      "type": "function"
    },
    {
      "inputs": [
        {
          "internalType": "contract IERC20[]",
          "name": "tokens",
          "type": "address[]"
        }
      ],
      "name": "needsActivateTokens",
      "outputs": [
        {
          "internalType": "contract IERC20[]",
          "name": "",
          "type": "address[]"
        }
      ],
      "stateMutability": "view",
      "type": "function"
    },
    {
      "inputs": [
        {
          "internalType": "address",
          "name": "admin_",
          "type": "address"
        }
      ],
      "name": "setAdmin",
      "outputs": [],
      "stateMutability": "nonpayable",
      "type": "function"
    },
    {
      "inputs": [
        {
          "internalType": "uint256",
          "name": "amount",
          "type": "uint256"
        },
        {
          "internalType": "address",
          "name": "to",
          "type": "address"
        }
      ],
      "name": "withdrawNative",
      "outputs": [
        {
          "internalType": "bool",
          "name": "success",
          "type": "bool"
        }
      ],
      "stateMutability": "nonpayable",
      "type": "function"
    },
    {
      "inputs": [
        {
          "internalType": "address",
          "name": "token",
          "type": "address"
        },
        {
          "internalType": "uint256",
          "name": "amount",
          "type": "uint256"
        },
        {
          "internalType": "address",
          "name": "to",
          "type": "address"
        }
      ],
      "name": "withdrawToken",
      "outputs": [
        {
          "internalType": "bool",
          "name": "success",
          "type": "bool"
        }
      ],
      "stateMutability": "nonpayable",
      "type": "function"
    },
    {
      "stateMutability": "payable",
      "type": "receive"
    }
  ],
  "bytecode": {
    "object": "0x6080604052600380546001600160a01b03191673e592427a0aece92de3edee1f18e0157c058615641790553480156200003757600080fd5b5060405162001bc338038062001bc38339810160408190526200005a9162000112565b816001600160a01b038116620000b65760405162461bcd60e51b815260206004820152601860248201527f416363657373436f6e74726f6c6c65642f307841646d696e0000000000000000604482015260640160405180910390fd5b600080546001600160a01b03199081166001600160a01b039384161790915560018054821695831695909517909455600280549094169116179091555062000166565b6001600160a01b03811681146200010f57600080fd5b50565b6000806000606084860312156200012857600080fd5b83516200013581620000f9565b60208501519093506200014881620000f9565b60408501519092506200015b81620000f9565b809150509250925092565b611a4d80620001766000396000f3fe6080604052600436106100a05760003560e01c8063704b6c0211610064578063704b6c02146101895780638f660c87146101a95780639949e7a7146101d6578063b530cdc8146101f6578063b8ca8dd814610216578063f851a4401461023657600080fd5b80630deb20f9146100ac578063239855a0146100df5780633aefa660146101015780633ccdbb28146101395780636e3b5a2e1461016957600080fd5b366100a757005b600080fd5b3480156100b857600080fd5b506100cc6100c736600461154f565b610254565b6040519081526020015b60405180910390f35b3480156100eb57600080fd5b506100ff6100fa366004611597565b610344565b005b34801561010d57600080fd5b50600254610121906001600160a01b031681565b6040516001600160a01b0390911681526020016100d6565b34801561014557600080fd5b5061015961015436600461160c565b61040c565b60405190151581526020016100d6565b34801561017557600080fd5b50600154610121906001600160a01b031681565b34801561019557600080fd5b506100ff6101a436600461164e565b61044c565b3480156101b557600080fd5b506101c96101c4366004611597565b610520565b6040516100d6919061166b565b3480156101e257600080fd5b506100cc6101f13660046116b8565b61072a565b34801561020257600080fd5b506100cc6102113660046116d4565b610818565b34801561022257600080fd5b5061015961023136600461170d565b6108fc565b34801561024257600080fd5b506000546001600160a01b0316610121565b6002546000906001600160a01b0316331461028a5760405162461bcd60e51b815260040161028190611732565b60405180910390fd5b6040516370a0823160e01b81523060048201526000906001600160a01b038516906370a0823190602401602060405180830381865afa1580156102d1573d6000803e3d6000fd5b505050506040513d601f19601f820116820180604052508101906102f59190611778565b905061030285858561097f565b60008061030e87610b0c565b9150915061031d878383610c9f565b935061032b87878787610dfc565b61033a86848960c00135610f1a565b5050509392505050565b6000546001600160a01b0316331461036e5760405162461bcd60e51b815260040161028190611791565b60005b81811015610407576103b783838381811061038e5761038e6117c8565b90506020020160208101906103a3919061164e565b6001546001600160a01b031660001961102e565b506103f68383838181106103cd576103cd6117c8565b90506020020160208101906103e2919061164e565b6003546001600160a01b031660001961102e565b50610400816117f4565b9050610371565b505050565b600080546001600160a01b031633146104375760405162461bcd60e51b815260040161028190611791565b61044284838561103b565b90505b9392505050565b6000546001600160a01b031633146104765760405162461bcd60e51b815260040161028190611791565b6001600160a01b0381166104cc5760405162461bcd60e51b815260206004820152601860248201527f416363657373436f6e74726f6c6c65642f307841646d696e00000000000000006044820152606401610281565b600080546001600160a01b0319166001600160a01b0383169081179091556040519081527f5a272403b402d892977df56625f4164ccaf70ca3863991c43ecfe76a6905b0a19060200160405180910390a150565b606060008267ffffffffffffffff81111561053d5761053d61180d565b604051908082528060200260200182016040528015610566578160200160208202803683370190505b50905060005b8381101561072057848482818110610586576105866117c8565b905060200201602081019061059b919061164e565b600154604051636eb1769f60e11b81523060048201526001600160a01b03918216602482015291169063dd62ed3e90604401602060405180830381865afa1580156105ea573d6000803e3d6000fd5b505050506040513d601f19601f8201168201806040525081019061060e9190611778565b15806106b15750848482818110610627576106276117c8565b905060200201602081019061063c919061164e565b600354604051636eb1769f60e11b81523060048201526001600160a01b03918216602482015291169063dd62ed3e90604401602060405180830381865afa15801561068b573d6000803e3d6000fd5b505050506040513d601f19601f820116820180604052508101906106af9190611778565b155b15610710578484828181106106c8576106c86117c8565b90506020020160208101906106dd919061164e565b8282815181106106ef576106ef6117c8565b60200260200101906001600160a01b031690816001600160a01b0316815250505b610719816117f4565b905061056c565b5090505b92915050565b6002546000906001600160a01b031633146107575760405162461bcd60e51b815260040161028190611732565b6000610769608084016060850161164e565b6040516370a0823160e01b81523060048201526001600160a01b0391909116906370a0823190602401602060405180830381865afa1580156107af573d6000803e3d6000fd5b505050506040513d601f19601f820116820180604052508101906107d39190611778565b90506000806107e185610b0c565b915091506107f0858383610c9f565b9350610810610805608087016060880161164e565b848760c00135610f1a565b505050919050565b6002546000906001600160a01b031633146108455760405162461bcd60e51b815260040161028190611732565b6040516370a0823160e01b81523060048201526000906001600160a01b038416906370a0823190602401602060405180830381865afa15801561088c573d6000803e3d6000fd5b505050506040513d601f19601f820116820180604052508101906108b09190611778565b90506108bc84846110de565b6000806108c886610b0c565b915091506108d7868383610c9f565b93506108e4868686611290565b6108f385848860c00135610f1a565b50505092915050565b600080546001600160a01b031633146109275760405162461bcd60e51b815260040161028190611791565b6040516001600160a01b038316908490600081818185875af1925050503d8060008114610970576040519150601f19603f3d011682016040523d82523d6000602084013e610975565b606091505b5090949350505050565b6001600160a01b038216158015906109b857506109a2608084016060850161164e565b6001600160a01b0316826001600160a01b031614155b15610407576000604051806101000160405280846001600160a01b031681526020018560600160208101906109ed919061164e565b6001600160a01b03908116825262ffffff85166020830152306040808401829052600019606085015260808981013590850152516370a0823160e01b8152600481019190915260a090920191908616906370a0823190602401602060405180830381865afa158015610a63573d6000803e3d6000fd5b505050506040513d601f19601f82011682018060405250810190610a879190611778565b81526000602090910152600354604051631b67c43360e31b81529192506001600160a01b03169063db3e219890610ac2908490600401611823565b6020604051808303816000875af1158015610ae1573d6000803e3d6000fd5b505050506040513d601f19601f82011682018060405250810190610b059190611778565b5050505050565b60408051600180825281830190925260009182918291816020015b610b2f6114e9565b815260200190600190039081610b27579050509050604051806080016040528085600001358152602001856040013581526020018560800135815260200160001981525081600081518110610b8657610b866117c8565b60200260200101819052506000806000600160009054906101000a90046001600160a01b03166001600160a01b03166346e142fa886020016020810190610bcd919061164e565b610bdd60808b0160608c0161164e565b8760006040518563ffffffff1660e01b8152600401610bff949392919061188d565b60a0604051808303816000875af1158015610c1e573d6000803e3d6000fd5b505050506040513d601f19601f82011682018060405250810190610c429190611922565b505092509250925082600114610c935760405162461bcd60e51b81526020600482015260166024820152751359dd905c989a5d1c9859d94bdcdb9a5c1951985a5b60521b6044820152606401610281565b90969095509350505050565b600080604051806101000160405280866020016020810190610cc1919061164e565b6001600160a01b03168152602001610cdf608088016060890161164e565b6001600160a01b03168152602001610cfd60c0880160a08901611962565b62ffffff1681523060208201526000196040808301919091526060820187905260808201869052600060a090920191909152600354905163414bf38960e01b81529192506001600160a01b03169063414bf38990610d5f908490600401611823565b6020604051808303816000875af1158015610d7e573d6000803e3d6000fd5b505050506040513d601f19601f82011682018060405250810190610da29190611778565b915082821015610df45760405162461bcd60e51b815260206004820152601a60248201527f4d67764172626974726167652f6e6f7450726f66697461626c650000000000006044820152606401610281565b509392505050565b6001600160a01b03831615801590610e355750610e1f608085016060860161164e565b6001600160a01b0316836001600160a01b031614155b15610f14576000604051806101000160405280866060016020810190610e5b919061164e565b6001600160a01b039081168252868116602083015262ffffff8616604080840191909152306060840152600019608084015260a08301869052600060c0840181905260e090930192909252600354915163414bf38960e01b8152929350169063414bf38990610ece908490600401611823565b6020604051808303816000875af1158015610eed573d6000803e3d6000fd5b505050506040513d601f19601f82011682018060405250810190610f119190611778565b50505b50505050565b6040516370a0823160e01b81523060048201526000906001600160a01b038516906370a0823190602401602060405180830381865afa158015610f61573d6000803e3d6000fd5b505050506040513d601f19601f82011682018060405250810190610f859190611778565b9050828111610fd65760405162461bcd60e51b815260206004820152601a60248201527f4d67764172626974726167652f6e6f7450726f66697461626c650000000000006044820152606401610281565b81610fe1848361197d565b11610f145760405162461bcd60e51b815260206004820152601760248201527f4d67764172626974726167652f6e6f744d696e4761696e0000000000000000006044820152606401610281565b60006104428484846113cd565b60008160000361104d57506001610445565b306001600160a01b038416036110d3576040516370a0823160e01b81526001600160a01b0384811660048301528391908616906370a0823190602401602060405180830381865afa1580156110a6573d6000803e3d6000fd5b505050506040513d601f19601f820116820180604052508101906110ca9190611778565b10159050610445565b6104428484846114b3565b6001600160a01b038116158015906111175750611101608083016060840161164e565b6001600160a01b0316816001600160a01b031614155b1561128c576001546000906001600160a01b031663fbffe5fd611140608086016060870161164e565b6040516370a0823160e01b815230600482015285906080880135906001600160a01b038316906370a0823190602401602060405180830381865afa15801561118c573d6000803e3d6000fd5b505050506040513d601f19601f820116820180604052508101906111b09190611778565b6040516001600160e01b031960e087901b1681526001600160a01b039485166004820152939092166024840152604483015260648201526001608482015260a4016080604051808303816000875af1158015611210573d6000803e3d6000fd5b505050506040513d601f19601f820116820180604052508101906112349190611990565b5050509050826080013581146104075760405162461bcd60e51b815260206004820152601b60248201527f4d67764172626974726167652f6e6f74456e6f7567684f6e4d677600000000006044820152606401610281565b5050565b6001600160a01b038216158015906112c957506112b3608084016060850161164e565b6001600160a01b0316826001600160a01b031614155b15610407576001546000906001600160a01b031663fbffe5fd846112f3608088016060890161164e565b6040516001600160e01b031960e085901b1681526001600160a01b0392831660048201529116602482015260006044820181905260648201869052608482015260a4016080604051808303816000875af1158015611355573d6000803e3d6000fd5b505050506040513d601f19601f820116820180604052508101906113799190611990565b5050915050818114610f145760405162461bcd60e51b815260206004820152601b60248201527f4d67764172626974726167652f6e6f74456e6f7567684f6e4d677600000000006044820152606401610281565b6040516001600160a01b03838116602483015260448201839052600091829182919087169063095ea7b360e01b906064015b60408051601f198184030181529181526020820180516001600160e01b03166001600160e01b031990941693909317909252905161143d91906119c6565b6000604051808303816000865af19150503d806000811461147a576040519150601f19603f3d011682016040523d82523d6000602084013e61147f565b606091505b50915091508180156114a95750805115806114a95750808060200190518101906114a991906119f5565b9695505050505050565b6040516001600160a01b03838116602483015260448201839052600091829182919087169063a9059cbb60e01b906064016113ff565b60405180608001604052806004906020820280368337509192915050565b600060e0828403121561151957600080fd5b50919050565b6001600160a01b038116811461153457600080fd5b50565b803562ffffff8116811461154a57600080fd5b919050565b6000806000610120848603121561156557600080fd5b61156f8585611507565b925060e084013561157f8161151f565b915061158e6101008501611537565b90509250925092565b600080602083850312156115aa57600080fd5b823567ffffffffffffffff808211156115c257600080fd5b818501915085601f8301126115d657600080fd5b8135818111156115e557600080fd5b8660208260051b85010111156115fa57600080fd5b60209290920196919550909350505050565b60008060006060848603121561162157600080fd5b833561162c8161151f565b92506020840135915060408401356116438161151f565b809150509250925092565b60006020828403121561166057600080fd5b81356104458161151f565b6020808252825182820181905260009190848201906040850190845b818110156116ac5783516001600160a01b031683529284019291840191600101611687565b50909695505050505050565b600060e082840312156116ca57600080fd5b6104458383611507565b60008061010083850312156116e857600080fd5b6116f28484611507565b915060e08301356117028161151f565b809150509250929050565b6000806040838503121561172057600080fd5b8235915060208301356117028161151f565b60208082526026908201527f4f6e6c7920617262697472616765722063616e2063616c6c20746869732066756040820152653731ba34b7b760d11b606082015260800190565b60006020828403121561178a57600080fd5b5051919050565b60208082526018908201527f416363657373436f6e74726f6c6c65642f496e76616c69640000000000000000604082015260600190565b634e487b7160e01b600052603260045260246000fd5b634e487b7160e01b600052601160045260246000fd5b600060018201611806576118066117de565b5060010190565b634e487b7160e01b600052604160045260246000fd5b6101008101610724828480516001600160a01b03908116835260208083015182169084015260408083015162ffffff16908401526060808301518216908401526080808301519084015260a0828101519084015260c0808301519084015260e09182015116910152565b6001600160a01b038581168252841660208083019190915260806040830181905284518382018190526000928681019160a08601919085805b8281101561190357855185835b60048110156118f0578251825291860191908601906001016118d3565b50505094830194938601936001016118c6565b5050505085151560608601529250611919915050565b95945050505050565b600080600080600060a0868803121561193a57600080fd5b5050835160208501516040860151606087015160809097015192989197509594509092509050565b60006020828403121561197457600080fd5b61044582611537565b81810381811115610724576107246117de565b600080600080608085870312156119a657600080fd5b505082516020840151604085015160609095015191969095509092509050565b6000825160005b818110156119e757602081860181015185830152016119cd565b506000920191825250919050565b600060208284031215611a0757600080fd5b8151801515811461044557600080fdfea2646970667358221220a4f2bd1d14fe881aa71616084268015aa2cce291cd18325b291c1af32ffd7f1364736f6c63430008110033",
    "linkReferences": {}
  },
  "methodIdentifiers": {
    "activateTokens(address[])": "239855a0",
    "admin()": "f851a440",
    "arbitrager()": "3aefa660",
    "doArbitrage((uint256,address,uint256,address,uint256,uint24,uint256))": "9949e7a7",
    "doArbitrageExchangeOnMgv((uint256,address,uint256,address,uint256,uint24,uint256),address)": "b530cdc8",
    "doArbitrageExchangeOnUniswap((uint256,address,uint256,address,uint256,uint24,uint256),address,uint24)": "0deb20f9",
    "mgv()": "6e3b5a2e",
    "needsActivateTokens(address[])": "8f660c87",
    "setAdmin(address)": "704b6c02",
    "withdrawNative(uint256,address)": "b8ca8dd8",
    "withdrawToken(address,uint256,address)": "3ccdbb28"
  },
  "id": 79
}