{
  "abi": [
    {
      "inputs": [
        {
          "internalType": "contract IMangrove",
          "name": "_MGV",
          "type": "address"
        },
        {
          "internalType": "address",
          "name": "deployer",
          "type": "address"
        }
      ],
      "stateMutability": "nonpayable",
      "type": "constructor"
    },
    {
      "anonymous": false,
      "inputs": [
        {
          "indexed": true,
          "internalType": "contract IMangrove",
          "name": "mangrove",
          "type": "address"
        },
        {
          "indexed": true,
          "internalType": "address",
          "name": "user",
          "type": "address"
        },
        {
          "indexed": false,
          "internalType": "uint256",
          "name": "amount",
          "type": "uint256"
        }
      ],
      "name": "CreditMgvUser",
      "type": "event"
    },
    {
      "anonymous": false,
      "inputs": [
        {
          "indexed": true,
          "internalType": "contract IMangrove",
          "name": "mangrove",
          "type": "address"
        },
        {
          "indexed": true,
          "internalType": "address",
          "name": "user",
          "type": "address"
        },
        {
          "indexed": false,
          "internalType": "uint256",
          "name": "amount",
          "type": "uint256"
        }
      ],
      "name": "DebitMgvUser",
      "type": "event"
    },
    {
      "anonymous": false,
      "inputs": [
        {
          "indexed": false,
          "internalType": "contract IMangrove",
          "name": "mangrove",
          "type": "address"
        },
        {
          "indexed": true,
          "internalType": "contract IERC20",
          "name": "outbound_tkn",
          "type": "address"
        },
        {
          "indexed": true,
          "internalType": "contract IERC20",
          "name": "inbound_tkn",
          "type": "address"
        },
        {
          "indexed": true,
          "internalType": "uint256",
          "name": "offerId",
          "type": "uint256"
        },
        {
          "indexed": false,
          "internalType": "bytes32",
          "name": "reason",
          "type": "bytes32"
        }
      ],
      "name": "LogIncident",
      "type": "event"
    },
    {
      "anonymous": false,
      "inputs": [
        {
          "indexed": false,
          "internalType": "contract IMangrove",
          "name": "mangrove",
          "type": "address"
        },
        {
          "indexed": true,
          "internalType": "contract IERC20",
          "name": "outbound_tkn",
          "type": "address"
        },
        {
          "indexed": true,
          "internalType": "contract IERC20",
          "name": "inbound_tkn",
          "type": "address"
        },
        {
          "indexed": true,
          "internalType": "uint256",
          "name": "offerId",
          "type": "uint256"
        },
        {
          "indexed": false,
          "internalType": "address",
          "name": "owner",
          "type": "address"
        }
      ],
      "name": "NewOwnedOffer",
      "type": "event"
    },
    {
      "anonymous": false,
      "inputs": [
        {
          "indexed": false,
          "internalType": "uint256",
          "name": "",
          "type": "uint256"
        }
      ],
      "name": "SetGasreq",
      "type": "event"
    },
    {
      "anonymous": false,
      "inputs": [
        {
          "indexed": false,
          "internalType": "contract AbstractRouter",
          "name": "",
          "type": "address"
        }
      ],
      "name": "SetRouter",
      "type": "event"
    },
    {
      "inputs": [],
      "name": "MGV",
      "outputs": [
        {
          "internalType": "contract IMangrove",
          "name": "",
          "type": "address"
        }
      ],
      "stateMutability": "view",
      "type": "function"
    },
    {
      "inputs": [],
      "name": "admin",
      "outputs": [
        {
          "internalType": "address",
          "name": "",
          "type": "address"
        }
      ],
      "stateMutability": "view",
      "type": "function"
    },
    {
      "inputs": [
        {
          "internalType": "contract IERC20",
          "name": "outbound_tkn",
          "type": "address"
        },
        {
          "internalType": "uint256",
          "name": "amount",
          "type": "uint256"
        }
      ],
      "name": "approveMangrove",
      "outputs": [],
      "stateMutability": "nonpayable",
      "type": "function"
    },
    {
      "inputs": [
        {
          "internalType": "contract IERC20",
          "name": "token",
          "type": "address"
        }
      ],
      "name": "approveRouter",
      "outputs": [],
      "stateMutability": "nonpayable",
      "type": "function"
    },
    {
      "inputs": [
        {
          "internalType": "contract IERC20",
          "name": "outbound_tkn",
          "type": "address"
        },
        {
          "internalType": "contract IERC20",
          "name": "inbound_tkn",
          "type": "address"
        },
        {
          "internalType": "uint256",
          "name": "gasreq",
          "type": "uint256"
        },
        {
          "internalType": "uint256",
          "name": "gasprice",
          "type": "uint256"
        },
        {
          "internalType": "uint256",
          "name": "offerId",
          "type": "uint256"
        }
      ],
      "name": "getMissingProvision",
      "outputs": [
        {
          "internalType": "uint256",
          "name": "",
          "type": "uint256"
        }
      ],
      "stateMutability": "view",
      "type": "function"
    },
    {
      "inputs": [],
      "name": "has_router",
      "outputs": [
        {
          "internalType": "bool",
          "name": "",
          "type": "bool"
        }
      ],
      "stateMutability": "view",
      "type": "function"
    },
    {
      "inputs": [
        {
          "components": [
            {
              "internalType": "address",
              "name": "outbound_tkn",
              "type": "address"
            },
            {
              "internalType": "address",
              "name": "inbound_tkn",
              "type": "address"
            },
            {
              "internalType": "uint256",
              "name": "offerId",
              "type": "uint256"
            },
            {
              "internalType": "t",
              "name": "offer",
              "type": "uint256"
            },
            {
              "internalType": "uint256",
              "name": "wants",
              "type": "uint256"
            },
            {
              "internalType": "uint256",
              "name": "gives",
              "type": "uint256"
            },
            {
              "internalType": "t",
              "name": "offerDetail",
              "type": "uint256"
            },
            {
              "internalType": "t",
              "name": "global",
              "type": "uint256"
            },
            {
              "internalType": "t",
              "name": "local",
              "type": "uint256"
            }
          ],
          "internalType": "struct MgvLib.SingleOrder",
          "name": "order",
          "type": "tuple"
        }
      ],
      "name": "makerExecute",
      "outputs": [
        {
          "internalType": "bytes32",
          "name": "ret",
          "type": "bytes32"
        }
      ],
      "stateMutability": "nonpayable",
      "type": "function"
    },
    {
      "inputs": [
        {
          "components": [
            {
              "internalType": "address",
              "name": "outbound_tkn",
              "type": "address"
            },
            {
              "internalType": "address",
              "name": "inbound_tkn",
              "type": "address"
            },
            {
              "internalType": "uint256",
              "name": "offerId",
              "type": "uint256"
            },
            {
              "internalType": "t",
              "name": "offer",
              "type": "uint256"
            },
            {
              "internalType": "uint256",
              "name": "wants",
              "type": "uint256"
            },
            {
              "internalType": "uint256",
              "name": "gives",
              "type": "uint256"
            },
            {
              "internalType": "t",
              "name": "offerDetail",
              "type": "uint256"
            },
            {
              "internalType": "t",
              "name": "global",
              "type": "uint256"
            },
            {
              "internalType": "t",
              "name": "local",
              "type": "uint256"
            }
          ],
          "internalType": "struct MgvLib.SingleOrder",
          "name": "order",
          "type": "tuple"
        },
        {
          "components": [
            {
              "internalType": "bytes32",
              "name": "makerData",
              "type": "bytes32"
            },
            {
              "internalType": "bytes32",
              "name": "mgvData",
              "type": "bytes32"
            }
          ],
          "internalType": "struct MgvLib.OrderResult",
          "name": "result",
          "type": "tuple"
        }
      ],
      "name": "makerPosthook",
      "outputs": [],
      "stateMutability": "nonpayable",
      "type": "function"
    },
    {
      "inputs": [
        {
          "components": [
            {
              "internalType": "contract IERC20",
              "name": "outbound_tkn",
              "type": "address"
            },
            {
              "internalType": "contract IERC20",
              "name": "inbound_tkn",
              "type": "address"
            },
            {
              "internalType": "uint256",
              "name": "wants",
              "type": "uint256"
            },
            {
              "internalType": "uint256",
              "name": "gives",
              "type": "uint256"
            },
            {
              "internalType": "uint256",
              "name": "gasreq",
              "type": "uint256"
            },
            {
              "internalType": "uint256",
              "name": "gasprice",
              "type": "uint256"
            },
            {
              "internalType": "uint256",
              "name": "pivotId",
              "type": "uint256"
            },
            {
              "internalType": "uint256",
              "name": "offerId",
              "type": "uint256"
            }
          ],
          "internalType": "struct IOfferLogic.MakerOrder",
          "name": "mko",
          "type": "tuple"
        }
      ],
      "name": "newOffer",
      "outputs": [
        {
          "internalType": "uint256",
          "name": "offerId",
          "type": "uint256"
        }
      ],
      "stateMutability": "payable",
      "type": "function"
    },
    {
      "inputs": [
        {
          "internalType": "contract IERC20",
          "name": "outbound_tkn",
          "type": "address"
        },
        {
          "internalType": "contract IERC20",
          "name": "inbound_tkn",
          "type": "address"
        },
        {
          "internalType": "uint256[]",
          "name": "offerIds",
          "type": "uint256[]"
        }
      ],
      "name": "offerOwners",
      "outputs": [
        {
          "internalType": "address[]",
          "name": "_offerOwners",
          "type": "address[]"
        }
      ],
      "stateMutability": "view",
      "type": "function"
    },
    {
      "inputs": [],
      "name": "ofr_gasreq",
      "outputs": [
        {
          "internalType": "uint256",
          "name": "",
          "type": "uint256"
        }
      ],
      "stateMutability": "view",
      "type": "function"
    },
    {
      "inputs": [
        {
          "internalType": "contract IERC20",
          "name": "outbound_tkn",
          "type": "address"
        },
        {
          "internalType": "contract IERC20",
          "name": "inbound_tkn",
          "type": "address"
        },
        {
          "internalType": "uint256",
          "name": "offerId",
          "type": "uint256"
        }
      ],
      "name": "ownerOf",
      "outputs": [
        {
          "internalType": "address",
          "name": "owner",
          "type": "address"
        }
      ],
      "stateMutability": "view",
      "type": "function"
    },
    {
      "inputs": [
        {
          "internalType": "contract IERC20",
          "name": "outbound_tkn",
          "type": "address"
        },
        {
          "internalType": "contract IERC20",
          "name": "inbound_tkn",
          "type": "address"
        },
        {
          "internalType": "uint256",
          "name": "offerId",
          "type": "uint256"
        },
        {
          "internalType": "bool",
          "name": "deprovision",
          "type": "bool"
        }
      ],
      "name": "retractOffer",
      "outputs": [
        {
          "internalType": "uint256",
          "name": "free_wei",
          "type": "uint256"
        }
      ],
      "stateMutability": "nonpayable",
      "type": "function"
    },
    {
      "inputs": [],
      "name": "router",
      "outputs": [
        {
          "internalType": "contract AbstractRouter",
          "name": "",
          "type": "address"
        }
      ],
      "stateMutability": "view",
      "type": "function"
    },
    {
      "inputs": [
        {
          "internalType": "address",
          "name": "_admin",
          "type": "address"
        }
      ],
      "name": "setAdmin",
      "outputs": [],
      "stateMutability": "nonpayable",
      "type": "function"
    },
    {
      "inputs": [
        {
          "internalType": "uint256",
          "name": "gasreq",
          "type": "uint256"
        }
      ],
      "name": "set_gasreq",
      "outputs": [],
      "stateMutability": "nonpayable",
      "type": "function"
    },
    {
      "inputs": [
        {
          "internalType": "contract AbstractRouter",
          "name": "router_",
          "type": "address"
        }
      ],
      "name": "set_router",
      "outputs": [],
      "stateMutability": "nonpayable",
      "type": "function"
    },
    {
      "inputs": [
        {
          "internalType": "contract IERC20",
          "name": "token",
          "type": "address"
        }
      ],
      "name": "tokenBalance",
      "outputs": [
        {
          "internalType": "uint256",
          "name": "",
          "type": "uint256"
        }
      ],
      "stateMutability": "view",
      "type": "function"
    },
    {
      "inputs": [
        {
          "components": [
            {
              "internalType": "contract IERC20",
              "name": "outbound_tkn",
              "type": "address"
            },
            {
              "internalType": "contract IERC20",
              "name": "inbound_tkn",
              "type": "address"
            },
            {
              "internalType": "uint256",
              "name": "wants",
              "type": "uint256"
            },
            {
              "internalType": "uint256",
              "name": "gives",
              "type": "uint256"
            },
            {
              "internalType": "uint256",
              "name": "gasreq",
              "type": "uint256"
            },
            {
              "internalType": "uint256",
              "name": "gasprice",
              "type": "uint256"
            },
            {
              "internalType": "uint256",
              "name": "pivotId",
              "type": "uint256"
            },
            {
              "internalType": "uint256",
              "name": "offerId",
              "type": "uint256"
            }
          ],
          "internalType": "struct IOfferLogic.MakerOrder",
          "name": "mko",
          "type": "tuple"
        }
      ],
      "name": "updateOffer",
      "outputs": [],
      "stateMutability": "payable",
      "type": "function"
    },
    {
      "inputs": [
        {
          "internalType": "uint256",
          "name": "amount",
          "type": "uint256"
        },
        {
          "internalType": "address",
          "name": "receiver",
          "type": "address"
        }
      ],
      "name": "withdrawFromMangrove",
      "outputs": [],
      "stateMutability": "nonpayable",
      "type": "function"
    },
    {
      "inputs": [
        {
          "internalType": "contract IERC20",
          "name": "token",
          "type": "address"
        },
        {
          "internalType": "address",
          "name": "receiver",
          "type": "address"
        },
        {
          "internalType": "uint256",
          "name": "amount",
          "type": "uint256"
        }
      ],
      "name": "withdrawToken",
      "outputs": [
        {
          "internalType": "bool",
          "name": "success",
          "type": "bool"
        }
      ],
      "stateMutability": "nonpayable",
      "type": "function"
    },
    {
      "stateMutability": "payable",
      "type": "receive"
    }
  ],
  "bytecode": {
    "object": "0x60a06040523480156200001157600080fd5b50604051620042e7380380620042e78339810160408190526200003491620005fe565b816040516200004390620005d7565b604051809103906000f08015801562000060573d6000803e3d6000fd5b5061753082813380620000ba5760405162461bcd60e51b815260206004820152601860248201527f616363657373436f6e74726f6c6c65642f307841646d696e000000000000000060448201526064015b60405180910390fd5b80620000d06200025560201b6200199f1760201c565b80546001600160a01b0319166001600160a01b03929092169190911790555062ffffff81168114620001455760405162461bcd60e51b815260206004820152601b60248201527f4d616e67726f76654f666665722f676173726571546f6f4869676800000000006044820152606401620000b1565b6001600160a01b038216608052806200016962000279602090811b620019c317901c565b5550506001600160a01b038216620001b95760405162461bcd60e51b815260206004820152601260248201527126bab63a34aab9b2b917983c2937baba32b960711b6044820152606401620000b1565b620001c4826200029d565b5050506001600160a01b03811633146200024d57620001e38162000447565b620001ed62000542565b604051633825b60160e11b81526001600160a01b038381166004830152919091169063704b6c0290602401600060405180830381600087803b1580156200023357600080fd5b505af115801562000248573d6000803e3d6000fd5b505050505b50506200063d565b7f7d382ebca3e46505071795e192d28166a3d4bd0685585591bc6c5b8df6769fd290565b7fae7e31c3220e851db9f204a28b279dfe52b973600b0a456991089c220ae7222490565b620002a7620005b1565b6001600160a01b0316336001600160a01b03161480620002da57506080516001600160a01b0316336001600160a01b0316145b620003285760405162461bcd60e51b815260206004820152601860248201527f416363657373436f6e74726f6c6c65642f496e76616c696400000000000000006044820152606401620000b1565b6001600160a01b038116620003805760405162461bcd60e51b815260206004820152601c60248201527f6d67764f666665722f7365745f726f757465722f3078526f75746572000000006044820152606401620000b1565b80620003966200027960201b620019c31760201c565b60010180546001600160a01b0319166001600160a01b039283161790556040516381bac14f60e01b8152306004820152908216906381bac14f90602401600060405180830381600087803b158015620003ee57600080fd5b505af115801562000403573d6000803e3d6000fd5b50506040516001600160a01b03841681527f6de4326a8b9054d72d9dbab97d27bc4edffadee7d966f5af9cc4eafdaf8e54559250602001905060405180910390a150565b62000451620005b1565b6001600160a01b0316336001600160a01b031614620004b35760405162461bcd60e51b815260206004820152601860248201527f416363657373436f6e74726f6c6c65642f496e76616c696400000000000000006044820152606401620000b1565b6001600160a01b0381166200050b5760405162461bcd60e51b815260206004820152601860248201527f416363657373436f6e74726f6c6c65642f307841646d696e00000000000000006044820152606401620000b1565b80620005216200025560201b6200199f1760201c565b80546001600160a01b0319166001600160a01b039290921691909117905550565b6000806200055a6200027960201b620019c31760201c565b600101546001600160a01b0316905080620005ac5760405162461bcd60e51b815260206004820152601160248201527036b3bb27b33332b917983c2937baba32b960791b6044820152606401620000b1565b919050565b6000620005c86200025560201b6200199f1760201c565b546001600160a01b0316919050565b610e2580620034c283390190565b6001600160a01b0381168114620005fb57600080fd5b50565b600080604083850312156200061257600080fd5b82516200061f81620005e5565b60208401519092506200063281620005e5565b809150509250929050565b608051612db36200070f6000396000818161024c01528181610558015281816106100152818161069e0152818161089e015281816108fa0152818161098c01528181610c1601528181610ccc01528181610d9201528181610f5501528181610faa0152818161113d01528181611349015281816113e60152818161155c015281816116a7015281816118d301528181611a7d01528181611b2301528181611ba101528181611e3b01528181611fcf0152818161210e0152818161233701528181612450015261282a0152612db36000f3fe60806040526004361061012e5760003560e01c8063aefe8403116100ab578063eedc966a1161006f578063eedc966a14610348578063f259cd2714610368578063f851a44014610388578063f887ea401461039d578063f92495e5146103b2578063fc488a38146103d257600080fd5b8063aefe8403146102a6578063d1baa1ef146102c6578063db11851e146102db578063dec8c86b146102fb578063e4c34f841461032857600080fd5b8063704b6c02116100f2578063704b6c02146101e55780637144df241461020557806384b627f91461022557806399fa5e2d1461023a578063ad97db1b1461028657600080fd5b806301e336671461013a57806310aded601461016f5780633d3d130d146101845780635486c95f146101a45780636c49c32c146101c557600080fd5b3661013557005b600080fd5b34801561014657600080fd5b5061015a610155366004612894565b6103f2565b60405190151581526020015b60405180910390f35b61018261017d3660046128d5565b6104ef565b005b34801561019057600080fd5b5061018261019f3660046128fb565b610556565b6101b76101b23660046128d5565b610679565b604051908152602001610166565b3480156101d157600080fd5b506101b76101e036600461293e565b61069a565b3480156101f157600080fd5b5061018261020036600461295b565b6107b9565b34801561021157600080fd5b50610182610220366004612978565b610871565b34801561023157600080fd5b5061015a610b98565b34801561024657600080fd5b5061026e7f000000000000000000000000000000000000000000000000000000000000000081565b6040516001600160a01b039091168152602001610166565b34801561029257600080fd5b506101b76102a13660046129b6565b610bb7565b3480156102b257600080fd5b506101826102c1366004612a09565b610f28565b3480156102d257600080fd5b506101b7611072565b3480156102e757600080fd5b506101826102f636600461295b565b611110565b34801561030757600080fd5b5061031b610316366004612a35565b61128a565b6040516101669190612aca565b34801561033457600080fd5b506101b7610343366004612b17565b61133b565b34801561035457600080fd5b506101b761036336600461295b565b6115fe565b34801561037457600080fd5b5061018261038336600461295b565b61167a565b34801561039457600080fd5b5061026e6117ba565b3480156103a957600080fd5b5061026e6117d3565b3480156103be57600080fd5b5061026e6103cd366004612894565b611833565b3480156103de57600080fd5b506101826103ed366004612b68565b6118a6565b60006001600160a01b03831661045a5760405162461bcd60e51b815260206004820152602260248201527f4d756c7469557365722f7769746864726177546f6b656e2f307852656365697660448201526132b960f11b60648201526084015b60405180910390fd5b6104626117d3565b6040516310baa6cf60e11b81526001600160a01b03868116600483015233602483015285811660448301526064820185905291909116906321754d9e906084016020604051808303816000875af11580156104c1573d6000803e3d6000fd5b505050506040513d601f19601f820116820180604052508101906104e59190612b81565b90505b9392505050565b61050761050136839003830183612bb4565b346119e7565b6105535760405162461bcd60e51b815260206004820152601960248201527f4d756c7469557365722f7570646174654f666665724661696c000000000000006044820152606401610451565b50565b7f00000000000000000000000000000000000000000000000000000000000000006001600160a01b03811615806105955750336001600160a01b038216145b6105b15760405162461bcd60e51b815260040161045190612c60565b81602001356f6d67762f74726164655375636365737360801b036105d85760015b50505050565b604083018035906105ec906020860161295b565b6001600160a01b0316610602602086018661295b565b604080516001600160a01b037f0000000000000000000000000000000000000000000000000000000000000000811682528735602083015292909216917f736a3993b9f8b1c5603896c76376792887f376b1fe7fc981e09a16530bf1e4e0910160405180910390a46105d28383611f3e565b505050565b600061069461068d36849003840184612bb4565b3334612302565b92915050565b60007f00000000000000000000000000000000000000000000000000000000000000006001600160a01b03811615806106db5750336001600160a01b038216145b6106f75760405162461bcd60e51b815260040161045190612c60565b60006107078460a001358561256c565b11156107555760405162461bcd60e51b815260206004820152601860248201527f6d67764f666665722f61626f72742f7075744661696c656400000000000000006044820152606401610451565b6000610765846080013585612625565b11156107b35760405162461bcd60e51b815260206004820152601860248201527f6d67764f666665722f61626f72742f6765744661696c656400000000000000006044820152606401610451565b50919050565b6107c16117ba565b6001600160a01b0316336001600160a01b0316146107f15760405162461bcd60e51b815260040161045190612c60565b6001600160a01b0381166108475760405162461bcd60e51b815260206004820152601860248201527f416363657373436f6e74726f6c6c65642f307841646d696e00000000000000006044820152606401610451565b8061085061199f565b80546001600160a01b0319166001600160a01b039290921691909117905550565b6108796117ba565b6001600160a01b0316336001600160a01b031614806108c05750336001600160a01b037f000000000000000000000000000000000000000000000000000000000000000016145b6108dc5760405162461bcd60e51b815260040161045190612c60565b6000198203610976576040516370a0823160e01b81523060048201527f00000000000000000000000000000000000000000000000000000000000000006001600160a01b0316906370a0823190602401602060405180830381865afa158015610949573d6000803e3d6000fd5b505050506040513d601f19601f8201168201806040525081019061096d9190612c97565b91508115610b94575b604051632e1a7d4d60e01b8152600481018390527f00000000000000000000000000000000000000000000000000000000000000006001600160a01b031690632e1a7d4d906024016020604051808303816000875af11580156109dd573d6000803e3d6000fd5b505050506040513d601f19601f82011682018060405250810190610a019190612b81565b610a5b5760405162461bcd60e51b815260206004820152602560248201527f6d67764f666665722f776974686472617746726f6d4d67762f776974686472616044820152641dd1985a5b60da1b6064820152608401610451565b610a63610b98565b15610ae057610a706117d3565b604051631af82a7560e31b81526001600160a01b038381166004830152919091169063d7c153a890849060240160206040518083038185885af1158015610abb573d6000803e3d6000fd5b50505050506040513d601f19601f820116820180604052508101906106749190612b81565b6000816001600160a01b03168360405160006040518083038185875af1925050503d8060008114610b2d576040519150601f19603f3d011682016040523d82523d6000602084013e610b32565b606091505b50509050806106745760405162461bcd60e51b815260206004820152602860248201527f6d67764f666665722f776974686472617746726f6d4d67762f70617961626c6560448201526710d85b1b11985a5b60c21b6064820152608401610451565b5050565b600080610ba36119c3565b600101546001600160a01b03161415919050565b6001600160a01b03848116600090815260208181526040808320878516845282528083208684528252808320815180830190925254938416808252600160a01b9094046001600160601b0316918101919091529091331480610c4157507f00000000000000000000000000000000000000000000000000000000000000006001600160a01b031633145b610c8d5760405162461bcd60e51b815260206004820152601f60248201527f4d756c74692f726574726163744f666665722f756e617574686f72697a6564006044820152606401610451565b60208101516001600160601b031615610cc25782610cac576000610cb2565b80602001515b6001600160601b03169150610d76565b6001600160a01b037f00000000000000000000000000000000000000000000000000000000000000001663ad97db1b87876040516001600160e01b031960e085901b1681526001600160a01b039283166004820152911660248201526044810187905285151560648201526084016020604051808303816000875af1158015610d4f573d6000803e3d6000fd5b505050506040513d601f19601f82011682018060405250810190610d739190612c97565b91505b8115610f1f57604051632e1a7d4d60e01b8152600481018390527f00000000000000000000000000000000000000000000000000000000000000006001600160a01b031690632e1a7d4d906024016020604051808303816000875af1158015610de3573d6000803e3d6000fd5b505050506040513d601f19601f82011682018060405250810190610e079190612b81565b610e4c5760405162461bcd60e51b8152602060048201526016602482015275135d5b1d1a555cd95c8bddda5d1a191c985dd1985a5b60521b6044820152606401610451565b60408051808201825282516001600160a01b039081168252600060208084018281528b841683528282528583208b8516845282528583208a8452909152939020915192516001600160601b0316600160a01b029216919091179055610eaf6117d3565b604051631af82a7560e31b81523360048201526001600160a01b03919091169063d7c153a890849060240160206040518083038185885af1158015610ef8573d6000803e3d6000fd5b50505050506040513d601f19601f82011682018060405250810190610f1d9190612b81565b505b50949350505050565b610f306117ba565b6001600160a01b0316336001600160a01b03161480610f775750336001600160a01b037f000000000000000000000000000000000000000000000000000000000000000016145b610f935760405162461bcd60e51b815260040161045190612c60565b60405163095ea7b360e01b81526001600160a01b037f0000000000000000000000000000000000000000000000000000000000000000811660048301526024820183905283169063095ea7b3906044016020604051808303816000875af1158015611002573d6000803e3d6000fd5b505050506040513d601f19601f820116820180604052508101906110269190612b81565b610b945760405162461bcd60e51b815260206004820152601d60248201527f6d67764f666665722f617070726f76654d616e67726f76652f4661696c0000006044820152606401610451565b600061107c610b98565b15611102576110896117d3565b6001600160a01b0316630417ffda6040518163ffffffff1660e01b8152600401602060405180830381865afa1580156110c6573d6000803e3d6000fd5b505050506040513d601f19601f820116820180604052508101906110ea9190612c97565b6110f26119c3565b546110fd9190612cc6565b905090565b61110a6119c3565b54919050565b6111186117ba565b6001600160a01b0316336001600160a01b0316148061115f5750336001600160a01b037f000000000000000000000000000000000000000000000000000000000000000016145b61117b5760405162461bcd60e51b815260040161045190612c60565b6001600160a01b0381166111d15760405162461bcd60e51b815260206004820152601c60248201527f6d67764f666665722f7365745f726f757465722f3078526f75746572000000006044820152606401610451565b806111da6119c3565b60010180546001600160a01b0319166001600160a01b039283161790556040516381bac14f60e01b8152306004820152908216906381bac14f90602401600060405180830381600087803b15801561123157600080fd5b505af1158015611245573d6000803e3d6000fd5b50506040516001600160a01b03841681527f6de4326a8b9054d72d9dbab97d27bc4edffadee7d966f5af9cc4eafdaf8e5455925060200190505b60405180910390a150565b60608167ffffffffffffffff8111156112a5576112a5612b9e565b6040519080825280602002602001820160405280156112ce578160200160208202803683370190505b50905060005b82811015610f1f576112ff86868686858181106112f3576112f3612cde565b90506020020135611833565b82828151811061131157611311612cde565b6001600160a01b03909216602092830291909101909101528061133381612cf4565b9150506112d4565b600080806001600160a01b037f00000000000000000000000000000000000000000000000000000000000000001663cbf75c9a89896040516001600160e01b031960e085901b1681526001600160a01b039283166004820152911660248201526044016040805180830381865afa1580156113ba573d6000803e3d6000fd5b505050506040513d601f19601f820116820180604052508101906113de9190612d0d565b9150915060007f00000000000000000000000000000000000000000000000000000000000000006001600160a01b0316635722647b61141a8b90565b8a6040516001600160e01b031960e085901b1681526001600160a01b0392831660048201529116602482015260448101889052606401602060405180830381865afa15801561146d573d6000803e3d6000fd5b505050506040513d601f19601f820116820180604052508101906114919190612c97565b9050600086604085901c61ffff1611156114b4575061ffff604084901c166114b7565b50855b62ffffff88106114cc576114c9611072565b97505b6000816114e262ffffff606087901c168b612cc6565b6114ec9190612d31565b6114fa90633b9aca00612d31565b9050600061ffff602085901c1661152162ffffff603087901c811690604888901c16612cc6565b61152b9190612d31565b61153990633b9aca00612d31565b6040516370a0823160e01b81523060048201529091506000906001600160a01b037f000000000000000000000000000000000000000000000000000000000000000016906370a0823190602401602060405180830381865afa1580156115a3573d6000803e3d6000fd5b505050506040513d601f19601f820116820180604052508101906115c79190612c97565b6115d19083612cc6565b9050828110156115ea576115e58184612d50565b6115ed565b60005b9d9c50505050505050505050505050565b60006116086117d3565b6040516302b427ef60e11b81526001600160a01b03848116600483015233602483015291909116906305684fde90604401602060405180830381865afa158015611656573d6000803e3d6000fd5b505050506040513d601f19601f820116820180604052508101906106949190612c97565b6116826117ba565b6001600160a01b0316336001600160a01b031614806116c95750336001600160a01b037f000000000000000000000000000000000000000000000000000000000000000016145b6116e55760405162461bcd60e51b815260040161045190612c60565b806001600160a01b031663095ea7b36116fc6117d3565b6040516001600160e01b031960e084901b1681526001600160a01b03909116600482015260001960248201526044016020604051808303816000875af115801561174a573d6000803e3d6000fd5b505050506040513d601f19601f8201168201806040525081019061176e9190612b81565b6105535760405162461bcd60e51b815260206004820152601b60248201527f6d67764f666665722f617070726f7665526f757465722f4661696c00000000006044820152606401610451565b60006117c461199f565b546001600160a01b0316919050565b6000806117de6119c3565b600101546001600160a01b031690508061182e5760405162461bcd60e51b815260206004820152601160248201527036b3bb27b33332b917983c2937baba32b960791b6044820152606401610451565b919050565b6001600160a01b038084166000908152602081815260408083208685168452825280832085845290915290205416806104e85760405162461bcd60e51b815260206004820152601560248201527436bab63a34aab9b2b917bab735b7bbb727b33332b960591b6044820152606401610451565b6118ae6117ba565b6001600160a01b0316336001600160a01b031614806118f55750336001600160a01b037f000000000000000000000000000000000000000000000000000000000000000016145b6119115760405162461bcd60e51b815260040161045190612c60565b808162ffffff16146119655760405162461bcd60e51b815260206004820152601860248201527f6d67764f666665722f6761737265712f6f766572666c6f7700000000000000006044820152606401610451565b8061196e6119c3565b556040518181527fafef3ad374c0b972e3c793be825735801fa05cc4c67157d98d9a111b4027988d9060200161127f565b7f7d382ebca3e46505071795e192d28166a3d4bd0685585591bc6c5b8df6769fd290565b7fae7e31c3220e851db9f204a28b279dfe52b973600b0a456991089c220ae7222490565b81516001600160a01b039081166000908152602081815260408083208287015185168452825280832060e0870151845282528083208151808301835290549485168152600160a01b9094046001600160601b031684830152805160808101825283815291820183905281018290526060810182905290919081516001600160a01b0316331480611a9f5750336001600160a01b037f000000000000000000000000000000000000000000000000000000000000000016145b611aeb5760405162461bcd60e51b815260206004820152601e60248201527f4d756c74692f7570646174654f666665722f756e617574686f72697a656400006044820152606401610451565b8451602086015160e0870151604051635722647b60e01b81526001600160a01b039384166004820152918316602483015260448201527f000000000000000000000000000000000000000000000000000000000000000090911690635722647b90606401602060405180830381865afa158015611b6c573d6000803e3d6000fd5b505050506040513d601f19601f82011682018060405250810190611b909190612c97565b604082015284516001600160a01b037f0000000000000000000000000000000000000000000000000000000000000000169063cbf75c9a9060208801516040516001600160e01b031960e085901b1681526001600160a01b039283166004820152911660248201526044016040805180830381865afa158015611c17573d6000803e3d6000fd5b505050506040513d601f19601f82011682018060405250810190611c3b9190612d0d565b6020830152815260608101849052608085015162ffffff10611c61578460800151611c69565b611c69611072565b6080860152604081015160201c61ffff1660a08601819052600003611d4b5760208201516001600160601b031615611d215781602001516001600160601b031681606001818151611cba9190612cc6565b90525060408051808201825283516001600160a01b039081168252600060208084018281528a51841683528282528583208b83015185168452825285832060e08c01518452909152939020915192516001600160601b0316600160a01b0292169190911790555b60808501516060808301516020840151611d4193921c62ffffff16612703565b60a0860152611dcc565b8315611dcc57602081015160601c62ffffff16604082015160481c62ffffff16611d759190612cc6565b60a0860151611d8890633b9aca00612d31565b611d929190612d31565b81606001818151611da39190612cc6565b90525060808501516060808301516020840151611dc693921c62ffffff16612703565b60a08601525b805160401c61ffff168560a001511015611e395760405162461bcd60e51b815260206004820152602860248201527f4d756c7469557365722f7570646174654f666665722f4e6f74456e6f756768506044820152673937bb34b9b4b7b760c11b6064820152608401610451565b7f00000000000000000000000000000000000000000000000000000000000000006001600160a01b0316636a4f769185611e74886000015190565b602089015189604001518a606001518b608001518c60a001518d60c001518e60e001516040518a63ffffffff1660e01b8152600401611ef99897969594939291906001600160a01b03988916815296909716602087015260408601949094526060850192909252608084015260a083015260c082015260e08101919091526101000190565b6000604051808303818588803b158015611f1257600080fd5b505af193505050508015611f24575060015b611f3357600092505050610694565b506001949350505050565b600080611f4e602085018561295b565b90506000611f62604086016020870161295b565b6001600160a01b03838116600090815260208181526040808320858516845282528083208a82013584528252918290208251808401845290548085168252600160a01b90046001600160601b03169181019190915290516370a0823160e01b8152306004820152929350917f000000000000000000000000000000000000000000000000000000000000000090911690632e1a7d4d9082906370a0823190602401602060405180830381865afa158015612020573d6000803e3d6000fd5b505050506040513d601f19601f820116820180604052508101906120449190612c97565b6040518263ffffffff1660e01b815260040161206291815260200190565b6020604051808303816000875af1158015612081573d6000803e3d6000fd5b505050506040513d601f19601f820116820180604052508101906120a59190612b81565b6121015760405162461bcd60e51b815260206004820152602760248201527f4d756c7469557365722f706f7374686f6f6b46616c6c6261636b2f77697468646044820152661c985dd1985a5b60ca1b6064820152608401610451565b6000806001600160a01b037f00000000000000000000000000000000000000000000000000000000000000001663cbf75c9a61214060208b018b61295b565b61215060408c0160208d0161295b565b6040516001600160e01b031960e085901b1681526001600160a01b039283166004820152911660248201526044016040805180830381865afa15801561219a573d6000803e3d6000fd5b505050506040513d601f19601f820116820180604052508101906121be9190612d0d565b909250905060006121db61ffff604085901c16633b9aca00612d31565b9050600060c08a013560301c62ffffff1660c08b013560481c62ffffff166122039190612cc6565b61221c61ffff60c08d013560201c16633b9aca00612d31565b6122269190612d31565b9050600082606085901c62ffffff165a60c08e013560481c62ffffff1661224d9190612d50565b61225990610bb8612cc6565b6122639190612cc6565b61226d9190612d31565b9050600082821015612288576122838284612d50565b61228b565b60005b60408051808201825298516001600160a01b039081168a526001600160601b039283166020808c019182529c82166000908152808e528381209c831681529b8d52828c209f8301358c529e909b5290982096519b51909716600160a01b029a90971699909917909355506001979650505050505050565b825160208401516040516365fbae4d60e11b81526001600160a01b0392831660048201529082166024820152600091829182917f0000000000000000000000000000000000000000000000000000000000000000169063cbf75c9a906044016040805180830381865afa15801561237d573d6000803e3d6000fd5b505050506040513d601f19601f820116820180604052508101906123a19190612d0d565b9150915062ffffff80168660800151116123bf5785608001516123c7565b6123c7611072565b608087018190526123e29085606084901c62ffffff16612703565b60a0870181905261ffff604084901c16111561244e5760405162461bcd60e51b815260206004820152602560248201527f4d756c7469557365722f6e65774f666665722f4e6f74456e6f75676850726f7660448201526434b9b4b7b760d91b6064820152608401610451565b7f00000000000000000000000000000000000000000000000000000000000000006001600160a01b03166349f6d2dc85612489896000015190565b60208a01518a604001518b606001518c608001518d60a001518e60c001516040518963ffffffff1660e01b815260040161250297969594939291906001600160a01b03978816815295909616602086015260408501939093526060840191909152608083015260a082015260c081019190915260e00190565b60206040518083038185885af1158015612520573d6000803e3d6000fd5b50505050506040513d601f19601f820116820180604052508101906125459190612c97565b60e087018190528651602088015161255d928861279e565b50505060e08301519392505050565b60008061257c602084018461295b565b90506000612590604085016020860161295b565b905060006125a383838760400135611833565b90506125ad6117d3565b60405163137476d160e11b81526001600160a01b03848116600483015283811660248301526044820189905291909116906326e8eda290606401600060405180830381600087803b15801561260157600080fd5b505af1158015612615573d6000803e3d6000fd5b5060009998505050505050505050565b600080612635602084018461295b565b90506000612649604085016020860161295b565b9050600061265c83838760400135611833565b905060006126686117d3565b60405163333dbb0d60e01b81526001600160a01b0386811660048301528481166024830152604482018a905260016064830152919091169063333dbb0d906084016020604051808303816000875af11580156126c8573d6000803e3d6000fd5b505050506040513d601f19601f820116820180604052508101906126ec9190612c97565b90506126f88188612d50565b979650505050505050565b6000806127108584612cc6565b61271e90633b9aca00612d31565b9050808410156127855760405162461bcd60e51b815260206004820152602c60248201527f4d756c7469557365722f6465726976655f67617370726963652f4e6f74456e6f60448201526b3ab3b4283937bb34b9b4b7b760a11b6064820152608401610451565b80848161279457612794612d67565b0495945050505050565b6040805180820182526001600160a01b038084168252600060208084018281528984168084528383528684208a86168086529084528785208a865290935292869020945190516001600160601b0316600160a01b029316929092179092559151849291907f460a431c86ecaea27134277388c72021356689d9eb62c3b25a5e4a97da7a8a1490612866907f00000000000000000000000000000000000000000000000000000000000000009087906001600160a01b0392831681529116602082015260400190565b60405180910390a450505050565b6001600160a01b038116811461055357600080fd5b803561182e81612874565b6000806000606084860312156128a957600080fd5b83356128b481612874565b925060208401356128c481612874565b929592945050506040919091013590565b600061010082840312156107b357600080fd5b600061012082840312156107b357600080fd5b60008082840361016081121561291057600080fd5b61291a85856128e8565b9250604061011f198201121561292f57600080fd5b50610120830190509250929050565b6000610120828403121561295157600080fd5b6104e883836128e8565b60006020828403121561296d57600080fd5b81356104e881612874565b6000806040838503121561298b57600080fd5b82359150602083013561299d81612874565b809150509250929050565b801515811461055357600080fd5b600080600080608085870312156129cc57600080fd5b84356129d781612874565b935060208501356129e781612874565b92506040850135915060608501356129fe816129a8565b939692955090935050565b60008060408385031215612a1c57600080fd5b8235612a2781612874565b946020939093013593505050565b60008060008060608587031215612a4b57600080fd5b8435612a5681612874565b93506020850135612a6681612874565b9250604085013567ffffffffffffffff80821115612a8357600080fd5b818701915087601f830112612a9757600080fd5b813581811115612aa657600080fd5b8860208260051b8501011115612abb57600080fd5b95989497505060200194505050565b6020808252825182820181905260009190848201906040850190845b81811015612b0b5783516001600160a01b031683529284019291840191600101612ae6565b50909695505050505050565b600080600080600060a08688031215612b2f57600080fd5b8535612b3a81612874565b94506020860135612b4a81612874565b94979496505050506040830135926060810135926080909101359150565b600060208284031215612b7a57600080fd5b5035919050565b600060208284031215612b9357600080fd5b81516104e8816129a8565b634e487b7160e01b600052604160045260246000fd5b6000610100808385031215612bc857600080fd5b6040519081019067ffffffffffffffff82118183101715612bf957634e487b7160e01b600052604160045260246000fd5b81604052612c0684612889565b8152612c1460208501612889565b602082015260408401356040820152606084013560608201526080840135608082015260a084013560a082015260c084013560c082015260e084013560e0820152809250505092915050565b60208082526018908201527f416363657373436f6e74726f6c6c65642f496e76616c69640000000000000000604082015260600190565b600060208284031215612ca957600080fd5b5051919050565b634e487b7160e01b600052601160045260246000fd5b60008219821115612cd957612cd9612cb0565b500190565b634e487b7160e01b600052603260045260246000fd5b600060018201612d0657612d06612cb0565b5060010190565b60008060408385031215612d2057600080fd5b505080516020909101519092909150565b6000816000190483118215151615612d4b57612d4b612cb0565b500290565b600082821015612d6257612d62612cb0565b500390565b634e487b7160e01b600052601260045260246000fdfea26469706673582212209d1bb8475d1a2a21a0a89c83d26847f9fd61ed059f297dc753f825aa7647886964736f6c634300080e0033608060405234801561001057600080fd5b5061c35033806100675760405162461bcd60e51b815260206004820152601860248201527f616363657373436f6e74726f6c6c65642f307841646d696e000000000000000060448201526064015b60405180910390fd5b8061007a6100f560201b6107a71760201c565b80546001600160a01b0319166001600160a01b03929092169190911790555062ffffff811681146100ed5760405162461bcd60e51b815260206004820152601e60248201527f4162737472616374526f757465722f6f76657268656164546f6f486967680000604482015260640161005e565b600155610119565b7f7d382ebca3e46505071795e192d28166a3d4bd0685585591bc6c5b8df6769fd290565b610cfd806101286000396000f3fe6080604052600436106100c25760003560e01c8063362aecb11161007f578063cf5e7bd311610059578063cf5e7bd31461021a578063d7c153a81461023a578063f850a81c1461024d578063f851a4401461026d57600080fd5b8063362aecb1146101aa578063704b6c02146101da57806381bac14f146101fa57600080fd5b80630417ffda146100c757806305684fde146100f057806321754d9e1461011057806326e8eda21461014057806332563bc714610162578063333dbb0d1461018a575b600080fd5b3480156100d357600080fd5b506100dd60015481565b6040519081526020015b60405180910390f35b3480156100fc57600080fd5b506100dd61010b366004610a16565b61029a565b34801561011c57600080fd5b5061013061012b366004610a4f565b610311565b60405190151581526020016100e7565b34801561014c57600080fd5b5061016061015b366004610aa0565b610360565b005b34801561016e57600080fd5b506100dd61017d366004610ae1565b6001600160a01b03163190565b34801561019657600080fd5b506100dd6101a5366004610b13565b6103a0565b3480156101b657600080fd5b506101306101c5366004610ae1565b60006020819052908152604090205460ff1681565b3480156101e657600080fd5b506101606101f5366004610ae1565b610464565b34801561020657600080fd5b50610160610215366004610ae1565b61054c565b34801561022657600080fd5b50610160610235366004610ae1565b6105c2565b610130610248366004610ae1565b610635565b34801561025957600080fd5b50610160610268366004610b66565b61066e565b34801561027957600080fd5b5061028261078e565b6040516001600160a01b0390911681526020016100e7565b6040516370a0823160e01b81526001600160a01b038281166004830152600091908416906370a0823190602401602060405180830381865afa1580156102e4573d6000803e3d6000fd5b505050506040513d601f19601f820116820180604052508101906103089190610bec565b90505b92915050565b3360009081526020819052604081205460ff166103495760405162461bcd60e51b815260040161034090610c05565b60405180910390fd5b610355858585856107cb565b90505b949350505050565b3360009081526020819052604090205460ff1661038f5760405162461bcd60e51b815260040161034090610c05565b61039b838333846107d9565b505050565b3360009081526020819052604081205460ff166103cf5760405162461bcd60e51b815260040161034090610c05565b6040516370a0823160e01b81523360048201526000906001600160a01b038716906370a0823190602401602060405180830381865afa158015610416573d6000803e3d6000fd5b505050506040513d601f19601f8201168201806040525081019061043a9190610bec565b905083811061044d576000915050610358565b61045a8686338787610831565b9695505050505050565b61046c61078e565b6001600160a01b0316336001600160a01b0316146104cc5760405162461bcd60e51b815260206004820152601860248201527f416363657373436f6e74726f6c6c65642f496e76616c696400000000000000006044820152606401610340565b6001600160a01b0381166105225760405162461bcd60e51b815260206004820152601860248201527f416363657373436f6e74726f6c6c65642f307841646d696e00000000000000006044820152606401610340565b8061052b6107a7565b80546001600160a01b0319166001600160a01b039290921691909117905550565b61055461078e565b6001600160a01b0316336001600160a01b0316148061058257503360009081526020819052604090205460ff165b61059e5760405162461bcd60e51b815260040161034090610c05565b6001600160a01b03166000908152602081905260409020805460ff19166001179055565b6105ca61078e565b6001600160a01b0316336001600160a01b031614806105f857503360009081526020819052604090205460ff165b6106145760405162461bcd60e51b815260040161034090610c05565b6001600160a01b03166000908152602081905260409020805460ff19169055565b3360009081526020819052604081205460ff166106645760405162461bcd60e51b815260040161034090610c05565b61030b8234610858565b3360009081526020819052604090205460ff1661069d5760405162461bcd60e51b815260040161034090610c05565b60005b828110156107885760008484838181106106bc576106bc610c32565b90506020020160208101906106d19190610ae1565b6040516370a0823160e01b81523360048201526001600160a01b0391909116906370a0823190602401602060405180830381865afa158015610717573d6000803e3d6000fd5b505050506040513d601f19601f8201168201806040525081019061073b9190610bec565b905080156107755761077585858481811061075857610758610c32565b905060200201602081019061076d9190610ae1565b8433846107d9565b508061078081610c48565b9150506106a0565b50505050565b60006107986107a7565b546001600160a01b0316919050565b7f7d382ebca3e46505071795e192d28166a3d4bd0685585591bc6c5b8df6769fd290565b6000610355858585856108f6565b6107e5848385846108f6565b6107885760405162461bcd60e51b815260206004820152601e60248201527f53696d706c65526f757465722f707573682f7472616e736665724661696c00006044820152606401610340565b600061083f868686866108f6565b1561084b57508161084f565b5060005b95945050505050565b6000826001600160a01b03168260405160006040518083038185875af1925050503d80600081146108a5576040519150601f19603f3d011682016040523d82523d6000602084013e6108aa565b606091505b5050809150508061030b5760405162461bcd60e51b81526020600482015260166024820152751b59dd93dc99195c8bdb5bcbdc99599d5b9911985a5b60521b6044820152606401610340565b60008115806109165750826001600160a01b0316846001600160a01b0316145b1561092357506001610358565b604080516001600160a01b0386811660248301528581166044830152606480830186905283518084039091018152608490920183526020820180516001600160e01b03166323b872dd60e01b17905291516000928392908916916109879190610c6f565b6000604051808303816000865af19150503d80600081146109c4576040519150601f19603f3d011682016040523d82523d6000602084013e6109c9565b606091505b50915091508180156109f35750805115806109f35750808060200190518101906109f39190610caa565b979650505050505050565b6001600160a01b0381168114610a1357600080fd5b50565b60008060408385031215610a2957600080fd5b8235610a34816109fe565b91506020830135610a44816109fe565b809150509250929050565b60008060008060808587031215610a6557600080fd5b8435610a70816109fe565b93506020850135610a80816109fe565b92506040850135610a90816109fe565b9396929550929360600135925050565b600080600060608486031215610ab557600080fd5b8335610ac0816109fe565b92506020840135610ad0816109fe565b929592945050506040919091013590565b600060208284031215610af357600080fd5b8135610afe816109fe565b9392505050565b8015158114610a1357600080fd5b60008060008060808587031215610b2957600080fd5b8435610b34816109fe565b93506020850135610b44816109fe565b9250604085013591506060850135610b5b81610b05565b939692955090935050565b600080600060408486031215610b7b57600080fd5b833567ffffffffffffffff80821115610b9357600080fd5b818601915086601f830112610ba757600080fd5b813581811115610bb657600080fd5b8760208260051b8501011115610bcb57600080fd5b60209283019550935050840135610be1816109fe565b809150509250925092565b600060208284031215610bfe57600080fd5b5051919050565b602080825260139082015272149bdd5d195c8bdd5b985d5d1a1bdc9a5e9959606a1b604082015260600190565b634e487b7160e01b600052603260045260246000fd5b600060018201610c6857634e487b7160e01b600052601160045260246000fd5b5060010190565b6000825160005b81811015610c905760208186018101518583015201610c76565b81811115610c9f576000828501525b509190910192915050565b600060208284031215610cbc57600080fd5b8151610afe81610b0556fea264697066735822122032abe7da40276151732235ff38bf2bb6331c01855dd914247ffec73ec2807d6264736f6c634300080e0033",
    "linkReferences": {}
  },
  "methodIdentifiers": {
    "MGV()": "99fa5e2d",
    "admin()": "f851a440",
    "approveMangrove(address,uint256)": "aefe8403",
    "approveRouter(address)": "f259cd27",
    "getMissingProvision(address,address,uint256,uint256,uint256)": "e4c34f84",
    "has_router()": "84b627f9",
    "makerExecute((address,address,uint256,uint256,uint256,uint256,uint256,uint256,uint256))": "6c49c32c",
    "makerPosthook((address,address,uint256,uint256,uint256,uint256,uint256,uint256,uint256),(bytes32,bytes32))": "3d3d130d",
    "newOffer((address,address,uint256,uint256,uint256,uint256,uint256,uint256))": "5486c95f",
    "offerOwners(address,address,uint256[])": "dec8c86b",
    "ofr_gasreq()": "d1baa1ef",
    "ownerOf(address,address,uint256)": "f92495e5",
    "retractOffer(address,address,uint256,bool)": "ad97db1b",
    "router()": "f887ea40",
    "setAdmin(address)": "704b6c02",
    "set_gasreq(uint256)": "fc488a38",
    "set_router(address)": "db11851e",
    "tokenBalance(address)": "eedc966a",
    "updateOffer((address,address,uint256,uint256,uint256,uint256,uint256,uint256))": "10aded60",
    "withdrawFromMangrove(uint256,address)": "7144df24",
    "withdrawToken(address,address,uint256)": "01e33667"
  },
  "id": 33
}