{
  "abi": [
    {
      "inputs": [
        {
          "internalType": "contract AbstractMangrove",
          "name": "mgv",
          "type": "address"
        },
        {
          "internalType": "contract IERC20",
          "name": "base",
          "type": "address"
        },
        {
          "internalType": "contract IERC20",
          "name": "quote",
          "type": "address"
        }
      ],
      "stateMutability": "nonpayable",
      "type": "constructor"
    },
    {
      "inputs": [
        {
          "internalType": "contract IERC20",
          "name": "token",
          "type": "address"
        },
        {
          "internalType": "address",
          "name": "spender",
          "type": "address"
        },
        {
          "internalType": "uint256",
          "name": "amount",
          "type": "uint256"
        }
      ],
      "name": "approve",
      "outputs": [],
      "stateMutability": "nonpayable",
      "type": "function"
    },
    {
      "inputs": [
        {
          "internalType": "contract IERC20",
          "name": "token",
          "type": "address"
        },
        {
          "internalType": "uint256",
          "name": "amount",
          "type": "uint256"
        }
      ],
      "name": "approveMgv",
      "outputs": [],
      "stateMutability": "nonpayable",
      "type": "function"
    },
    {
      "inputs": [
        {
          "internalType": "address",
          "name": "spender",
          "type": "address"
        },
        {
          "internalType": "uint256",
          "name": "amount",
          "type": "uint256"
        }
      ],
      "name": "approveSpender",
      "outputs": [],
      "stateMutability": "nonpayable",
      "type": "function"
    },
    {
      "inputs": [
        {
          "internalType": "contract AbstractMangrove",
          "name": "__mgv",
          "type": "address"
        },
        {
          "internalType": "address",
          "name": "__base",
          "type": "address"
        },
        {
          "internalType": "address",
          "name": "__quote",
          "type": "address"
        },
        {
          "internalType": "uint256",
          "name": "takerWants",
          "type": "uint256"
        },
        {
          "internalType": "uint256",
          "name": "takerGives",
          "type": "uint256"
        }
      ],
      "name": "marketOrder",
      "outputs": [
        {
          "internalType": "uint256",
          "name": "takerGot",
          "type": "uint256"
        },
        {
          "internalType": "uint256",
          "name": "takerGave",
          "type": "uint256"
        }
      ],
      "stateMutability": "nonpayable",
      "type": "function"
    },
    {
      "inputs": [
        {
          "internalType": "uint256",
          "name": "wants",
          "type": "uint256"
        },
        {
          "internalType": "uint256",
          "name": "gives",
          "type": "uint256"
        }
      ],
      "name": "marketOrder",
      "outputs": [
        {
          "internalType": "uint256",
          "name": "takerGot",
          "type": "uint256"
        },
        {
          "internalType": "uint256",
          "name": "takerGave",
          "type": "uint256"
        }
      ],
      "stateMutability": "nonpayable",
      "type": "function"
    },
    {
      "inputs": [
        {
          "internalType": "uint256",
          "name": "wants",
          "type": "uint256"
        },
        {
          "internalType": "uint256",
          "name": "gives",
          "type": "uint256"
        }
      ],
      "name": "marketOrderWithFail",
      "outputs": [
        {
          "internalType": "uint256",
          "name": "takerGot",
          "type": "uint256"
        },
        {
          "internalType": "uint256",
          "name": "takerGave",
          "type": "uint256"
        }
      ],
      "stateMutability": "nonpayable",
      "type": "function"
    },
    {
      "inputs": [
        {
          "internalType": "contract AbstractMangrove",
          "name": "__mgv",
          "type": "address"
        },
        {
          "internalType": "address",
          "name": "__base",
          "type": "address"
        },
        {
          "internalType": "address",
          "name": "__quote",
          "type": "address"
        },
        {
          "internalType": "uint256",
          "name": "offerId",
          "type": "uint256"
        },
        {
          "internalType": "uint256",
          "name": "takerWants",
          "type": "uint256"
        },
        {
          "internalType": "uint256",
          "name": "takerGives",
          "type": "uint256"
        },
        {
          "internalType": "uint256",
          "name": "gasreq",
          "type": "uint256"
        }
      ],
      "name": "snipe",
      "outputs": [
        {
          "internalType": "bool",
          "name": "",
          "type": "bool"
        }
      ],
      "stateMutability": "nonpayable",
      "type": "function"
    },
    {
      "inputs": [
        {
          "internalType": "uint256",
          "name": "offerId",
          "type": "uint256"
        },
        {
          "internalType": "uint256",
          "name": "takerWants",
          "type": "uint256"
        }
      ],
      "name": "take",
      "outputs": [
        {
          "internalType": "bool",
          "name": "success",
          "type": "bool"
        }
      ],
      "stateMutability": "nonpayable",
      "type": "function"
    },
    {
      "inputs": [
        {
          "internalType": "uint256",
          "name": "offerId",
          "type": "uint256"
        },
        {
          "internalType": "uint256",
          "name": "takerWants",
          "type": "uint256"
        }
      ],
      "name": "takeWithInfo",
      "outputs": [
        {
          "internalType": "bool",
          "name": "",
          "type": "bool"
        },
        {
          "internalType": "uint256",
          "name": "",
          "type": "uint256"
        },
        {
          "internalType": "uint256",
          "name": "",
          "type": "uint256"
        },
        {
          "internalType": "uint256",
          "name": "",
          "type": "uint256"
        },
        {
          "internalType": "uint256",
          "name": "",
          "type": "uint256"
        }
      ],
      "stateMutability": "nonpayable",
      "type": "function"
    },
    {
      "inputs": [
        {
          "internalType": "address",
          "name": "",
          "type": "address"
        },
        {
          "internalType": "address",
          "name": "",
          "type": "address"
        },
        {
          "internalType": "uint256",
          "name": "",
          "type": "uint256"
        },
        {
          "internalType": "uint256",
          "name": "",
          "type": "uint256"
        }
      ],
      "name": "takerTrade",
      "outputs": [],
      "stateMutability": "pure",
      "type": "function"
    },
    {
      "stateMutability": "payable",
      "type": "receive"
    }
  ],
  "bytecode": {
    "object": "0x608060405234801561001057600080fd5b50604051610baf380380610baf83398101604081905261002f91610089565b600080546001600160a01b039485166001600160a01b0319918216179091556001805493851693821693909317909255600280549190931691161790556100d6565b6001600160a01b038116811461008657600080fd5b50565b60008060006060848603121561009e57600080fd5b83516100a981610071565b60208501519093506100ba81610071565b60408501519092506100cb81610071565b809150509250925092565b610aca806100e56000396000f3fe6080604052600436106100955760003560e01c8063a3cfe14d11610059578063a3cfe14d14610198578063aa2cc08b146101b8578063b04220dd146100e4578063e1f21c67146101d8578063ff2e2d33146101f857600080fd5b8063080d7c4d146100a15780631154020b146100c35780632d24c42f146100e45780634d1d2b661461011e578063978b7c021461016857600080fd5b3661009c57005b600080fd5b3480156100ad57600080fd5b506100c16100bc366004610757565b610218565b005b3480156100cf57600080fd5b506100c16100de366004610783565b50505050565b3480156100f057600080fd5b506101046100ff3660046107c9565b6102aa565b604080519283526020830191909152015b60405180910390f35b34801561012a57600080fd5b5061013e6101393660046107c9565b61034d565b6040805195151586526020860194909452928401919091526060830152608082015260a001610115565b34801561017457600080fd5b506101886101833660046107c9565b610444565b6040519015158152602001610115565b3480156101a457600080fd5b506100c16101b3366004610757565b6104bc565b3480156101c457600080fd5b506101046101d33660046107eb565b6104f5565b3480156101e457600080fd5b506100c16101f3366004610846565b610593565b34801561020457600080fd5b50610188610213366004610887565b610606565b60005460015460025460405163167ae91560e21b81526001600160a01b03928316600482015290821660248201528482166044820152606481018490529116906359eba454906084015b6020604051808303816000875af1158015610281573d6000803e3d6000fd5b505050506040513d601f19601f820116820180604052508101906102a5919061090a565b505050565b600080546001805460025460405163fbffe5fd60e01b81526001600160a01b0392831660048201529082166024820152604481018790526064810186905260848101929092528392169063fbffe5fd9060a4016080604051808303816000875af115801561031c573d6000803e3d6000fd5b505050506040513d601f19601f82011682018060405250810190610340919061092c565b5091969095509350505050565b60008060008060008061039560405180608001604052808a81526020018981526020016bffffffffffffffffffffffff8016815260200165ffffffffffff80168152506106c4565b6000805460018054600254604051632370a17d60e11b8152959650939485948594859485946001600160a01b03928316946346e142fa946103e194928316939216918c91600401610962565b60a0604051808303816000875af1158015610400573d6000803e3d6000fd5b505050506040513d601f19601f8201168201806040525081019061042491906109f7565b60019094149e50919c509a50985096505050505050509295509295909350565b60405163268e95b360e11b815260048101839052602481018290526000903090634d1d2b669060440160a0604051808303816000875af115801561048c573d6000803e3d6000fd5b505050506040513d601f19601f820116820180604052508101906104b09190610a37565b50929695505050505050565b60005460405163095ea7b360e01b81526001600160a01b039182166004820152602481018390529083169063095ea7b390604401610262565b60405163fbffe5fd60e01b81526001600160a01b0385811660048301528481166024830152604482018490526064820183905260016084830152600091829188169063fbffe5fd9060a4016080604051808303816000875af115801561055f573d6000803e3d6000fd5b505050506040513d601f19601f82011682018060405250810190610583919061092c565b5091999098509650505050505050565b60405163095ea7b360e01b81526001600160a01b0383811660048301526024820183905284169063095ea7b3906044016020604051808303816000875af11580156105e2573d6000803e3d6000fd5b505050506040513d601f19601f820116820180604052508101906100de919061090a565b6000806106326040518060800160405280888152602001878152602001868152602001858152506106c4565b90506000896001600160a01b03166346e142fa8a8a8560016040518563ffffffff1660e01b81526004016106699493929190610962565b60a0604051808303816000875af1158015610688573d6000803e3d6000fd5b505050506040513d601f19601f820116820180604052508101906106ac91906109f7565b50506001909214945050505050979650505050505050565b60408051600180825281830190925260609160009190816020015b6106e7610721565b8152602001906001900390816106df579050509050828160008151811061071057610710610a7e565b602090810291909101015292915050565b60405180608001604052806004906020820280368337509192915050565b6001600160a01b038116811461075457600080fd5b50565b6000806040838503121561076a57600080fd5b82356107758161073f565b946020939093013593505050565b6000806000806080858703121561079957600080fd5b84356107a48161073f565b935060208501356107b48161073f565b93969395505050506040820135916060013590565b600080604083850312156107dc57600080fd5b50508035926020909101359150565b600080600080600060a0868803121561080357600080fd5b853561080e8161073f565b9450602086013561081e8161073f565b9350604086013561082e8161073f565b94979396509394606081013594506080013592915050565b60008060006060848603121561085b57600080fd5b83356108668161073f565b925060208401356108768161073f565b929592945050506040919091013590565b600080600080600080600060e0888a0312156108a257600080fd5b87356108ad8161073f565b965060208801356108bd8161073f565b955060408801356108cd8161073f565b969995985095966060810135965060808101359560a0820135955060c0909101359350915050565b8051801515811461090557600080fd5b919050565b60006020828403121561091c57600080fd5b610925826108f5565b9392505050565b6000806000806080858703121561094257600080fd5b505082516020840151604085015160609095015191969095509092509050565b6001600160a01b038581168252841660208083019190915260806040830181905284518382018190526000928681019160a08601919085805b828110156109d857855185835b60048110156109c5578251825291860191908601906001016109a8565b505050948301949386019360010161099b565b50505050851515606086015292506109ee915050565b95945050505050565b600080600080600060a08688031215610a0f57600080fd5b5050835160208501516040860151606087015160809097015192989197509594509092509050565b600080600080600060a08688031215610a4f57600080fd5b610a58866108f5565b602087015160408801516060890151608090990151929a91995097965090945092505050565b634e487b7160e01b600052603260045260246000fdfea2646970667358221220ee5af508a000963283870ccb1238e226334c277144ecdb6cbe941aa9b871504c64736f6c634300080e0033",
    "linkReferences": {}
  },
  "methodIdentifiers": {
    "approve(address,address,uint256)": "e1f21c67",
    "approveMgv(address,uint256)": "a3cfe14d",
    "approveSpender(address,uint256)": "080d7c4d",
    "marketOrder(address,address,address,uint256,uint256)": "aa2cc08b",
    "marketOrder(uint256,uint256)": "b04220dd",
    "marketOrderWithFail(uint256,uint256)": "2d24c42f",
    "snipe(address,address,address,uint256,uint256,uint256,uint256)": "ff2e2d33",
    "take(uint256,uint256)": "978b7c02",
    "takeWithInfo(uint256,uint256)": "4d1d2b66",
    "takerTrade(address,address,uint256,uint256)": "1154020b"
  },
  "id": 82
}