{
  "abi": [
    {
      "inputs": [
        {
          "internalType": "contract IMangrove",
          "name": "_mgv",
          "type": "address"
        },
        {
          "internalType": "address",
          "name": "_addressesProvider",
          "type": "address"
        },
        {
          "internalType": "address",
          "name": "deployer",
          "type": "address"
        }
      ],
      "stateMutability": "nonpayable",
      "type": "constructor"
    },
    {
      "anonymous": false,
      "inputs": [
        {
          "indexed": false,
          "internalType": "contract IMangrove",
          "name": "mangrove",
          "type": "address"
        },
        {
          "indexed": true,
          "internalType": "contract IERC20",
          "name": "outbound_tkn",
          "type": "address"
        },
        {
          "indexed": true,
          "internalType": "contract IERC20",
          "name": "inbound_tkn",
          "type": "address"
        },
        {
          "indexed": true,
          "internalType": "uint256",
          "name": "offerId",
          "type": "uint256"
        },
        {
          "indexed": false,
          "internalType": "bytes32",
          "name": "reason",
          "type": "bytes32"
        }
      ],
      "name": "LogIncident",
      "type": "event"
    },
    {
      "anonymous": false,
      "inputs": [
        {
          "indexed": false,
          "internalType": "uint256",
          "name": "",
          "type": "uint256"
        }
      ],
      "name": "SetGasreq",
      "type": "event"
    },
    {
      "anonymous": false,
      "inputs": [
        {
          "indexed": false,
          "internalType": "contract AbstractRouter",
          "name": "",
          "type": "address"
        }
      ],
      "name": "SetRouter",
      "type": "event"
    },
    {
      "inputs": [],
      "name": "MGV",
      "outputs": [
        {
          "internalType": "contract IMangrove",
          "name": "",
          "type": "address"
        }
      ],
      "stateMutability": "view",
      "type": "function"
    },
    {
      "inputs": [
        {
          "internalType": "contract IERC20[]",
          "name": "tokens",
          "type": "address[]"
        }
      ],
      "name": "activate",
      "outputs": [],
      "stateMutability": "nonpayable",
      "type": "function"
    },
    {
      "inputs": [],
      "name": "admin",
      "outputs": [
        {
          "internalType": "address",
          "name": "",
          "type": "address"
        }
      ],
      "stateMutability": "view",
      "type": "function"
    },
    {
      "inputs": [
        {
          "internalType": "contract IERC20",
          "name": "outbound_tkn",
          "type": "address"
        }
      ],
      "name": "approveMangrove",
      "outputs": [],
      "stateMutability": "nonpayable",
      "type": "function"
    },
    {
      "inputs": [
        {
          "internalType": "contract IERC20",
          "name": "token",
          "type": "address"
        }
      ],
      "name": "approveRouter",
      "outputs": [],
      "stateMutability": "nonpayable",
      "type": "function"
    },
    {
      "inputs": [
        {
          "internalType": "contract IERC20[]",
          "name": "tokens",
          "type": "address[]"
        }
      ],
      "name": "checkList",
      "outputs": [],
      "stateMutability": "view",
      "type": "function"
    },
    {
      "inputs": [
        {
          "internalType": "contract IERC20",
          "name": "outbound_tkn",
          "type": "address"
        },
        {
          "internalType": "contract IERC20",
          "name": "inbound_tkn",
          "type": "address"
        },
        {
          "internalType": "uint256",
          "name": "gasreq",
          "type": "uint256"
        },
        {
          "internalType": "uint256",
          "name": "gasprice",
          "type": "uint256"
        },
        {
          "internalType": "uint256",
          "name": "offerId",
          "type": "uint256"
        }
      ],
      "name": "getMissingProvision",
      "outputs": [
        {
          "internalType": "uint256",
          "name": "",
          "type": "uint256"
        }
      ],
      "stateMutability": "view",
      "type": "function"
    },
    {
      "inputs": [],
      "name": "has_router",
      "outputs": [
        {
          "internalType": "bool",
          "name": "",
          "type": "bool"
        }
      ],
      "stateMutability": "view",
      "type": "function"
    },
    {
      "inputs": [
        {
          "components": [
            {
              "internalType": "address",
              "name": "outbound_tkn",
              "type": "address"
            },
            {
              "internalType": "address",
              "name": "inbound_tkn",
              "type": "address"
            },
            {
              "internalType": "uint256",
              "name": "offerId",
              "type": "uint256"
            },
            {
              "internalType": "t",
              "name": "offer",
              "type": "uint256"
            },
            {
              "internalType": "uint256",
              "name": "wants",
              "type": "uint256"
            },
            {
              "internalType": "uint256",
              "name": "gives",
              "type": "uint256"
            },
            {
              "internalType": "t",
              "name": "offerDetail",
              "type": "uint256"
            },
            {
              "internalType": "t",
              "name": "global",
              "type": "uint256"
            },
            {
              "internalType": "t",
              "name": "local",
              "type": "uint256"
            }
          ],
          "internalType": "struct MgvLib.SingleOrder",
          "name": "order",
          "type": "tuple"
        }
      ],
      "name": "makerExecute",
      "outputs": [
        {
          "internalType": "bytes32",
          "name": "ret",
          "type": "bytes32"
        }
      ],
      "stateMutability": "nonpayable",
      "type": "function"
    },
    {
      "inputs": [
        {
          "components": [
            {
              "internalType": "address",
              "name": "outbound_tkn",
              "type": "address"
            },
            {
              "internalType": "address",
              "name": "inbound_tkn",
              "type": "address"
            },
            {
              "internalType": "uint256",
              "name": "offerId",
              "type": "uint256"
            },
            {
              "internalType": "t",
              "name": "offer",
              "type": "uint256"
            },
            {
              "internalType": "uint256",
              "name": "wants",
              "type": "uint256"
            },
            {
              "internalType": "uint256",
              "name": "gives",
              "type": "uint256"
            },
            {
              "internalType": "t",
              "name": "offerDetail",
              "type": "uint256"
            },
            {
              "internalType": "t",
              "name": "global",
              "type": "uint256"
            },
            {
              "internalType": "t",
              "name": "local",
              "type": "uint256"
            }
          ],
          "internalType": "struct MgvLib.SingleOrder",
          "name": "order",
          "type": "tuple"
        },
        {
          "components": [
            {
              "internalType": "bytes32",
              "name": "makerData",
              "type": "bytes32"
            },
            {
              "internalType": "bytes32",
              "name": "mgvData",
              "type": "bytes32"
            }
          ],
          "internalType": "struct MgvLib.OrderResult",
          "name": "result",
          "type": "tuple"
        }
      ],
      "name": "makerPosthook",
      "outputs": [],
      "stateMutability": "nonpayable",
      "type": "function"
    },
    {
      "inputs": [
        {
          "components": [
            {
              "internalType": "contract IERC20",
              "name": "outbound_tkn",
              "type": "address"
            },
            {
              "internalType": "contract IERC20",
              "name": "inbound_tkn",
              "type": "address"
            },
            {
              "internalType": "uint256",
              "name": "wants",
              "type": "uint256"
            },
            {
              "internalType": "uint256",
              "name": "gives",
              "type": "uint256"
            },
            {
              "internalType": "uint256",
              "name": "gasreq",
              "type": "uint256"
            },
            {
              "internalType": "uint256",
              "name": "gasprice",
              "type": "uint256"
            },
            {
              "internalType": "uint256",
              "name": "pivotId",
              "type": "uint256"
            },
            {
              "internalType": "uint256",
              "name": "offerId",
              "type": "uint256"
            }
          ],
          "internalType": "struct IOfferLogic.MakerOrder",
          "name": "mko",
          "type": "tuple"
        }
      ],
      "name": "newOffer",
      "outputs": [
        {
          "internalType": "uint256",
          "name": "",
          "type": "uint256"
        }
      ],
      "stateMutability": "payable",
      "type": "function"
    },
    {
      "inputs": [],
      "name": "ofr_gasreq",
      "outputs": [
        {
          "internalType": "uint256",
          "name": "",
          "type": "uint256"
        }
      ],
      "stateMutability": "view",
      "type": "function"
    },
    {
      "inputs": [],
      "name": "reserve",
      "outputs": [
        {
          "internalType": "address",
          "name": "",
          "type": "address"
        }
      ],
      "stateMutability": "view",
      "type": "function"
    },
    {
      "inputs": [
        {
          "internalType": "contract IERC20",
          "name": "outbound_tkn",
          "type": "address"
        },
        {
          "internalType": "contract IERC20",
          "name": "inbound_tkn",
          "type": "address"
        },
        {
          "internalType": "uint256",
          "name": "offerId",
          "type": "uint256"
        },
        {
          "internalType": "bool",
          "name": "deprovision",
          "type": "bool"
        }
      ],
      "name": "retractOffer",
      "outputs": [
        {
          "internalType": "uint256",
          "name": "free_wei",
          "type": "uint256"
        }
      ],
      "stateMutability": "nonpayable",
      "type": "function"
    },
    {
      "inputs": [],
      "name": "router",
      "outputs": [
        {
          "internalType": "contract AbstractRouter",
          "name": "",
          "type": "address"
        }
      ],
      "stateMutability": "view",
      "type": "function"
    },
    {
      "inputs": [
        {
          "internalType": "address",
          "name": "_admin",
          "type": "address"
        }
      ],
      "name": "set_admin",
      "outputs": [],
      "stateMutability": "nonpayable",
      "type": "function"
    },
    {
      "inputs": [
        {
          "internalType": "uint256",
          "name": "gasreq",
          "type": "uint256"
        }
      ],
      "name": "set_gasreq",
      "outputs": [],
      "stateMutability": "nonpayable",
      "type": "function"
    },
    {
      "inputs": [
        {
          "internalType": "address",
          "name": "__reserve",
          "type": "address"
        }
      ],
      "name": "set_reserve",
      "outputs": [],
      "stateMutability": "nonpayable",
      "type": "function"
    },
    {
      "inputs": [
        {
          "internalType": "contract AbstractRouter",
          "name": "router_",
          "type": "address"
        }
      ],
      "name": "set_router",
      "outputs": [],
      "stateMutability": "nonpayable",
      "type": "function"
    },
    {
      "inputs": [
        {
          "internalType": "contract IERC20",
          "name": "token",
          "type": "address"
        }
      ],
      "name": "tokenBalance",
      "outputs": [
        {
          "internalType": "uint256",
          "name": "",
          "type": "uint256"
        }
      ],
      "stateMutability": "view",
      "type": "function"
    },
    {
      "inputs": [
        {
          "components": [
            {
              "internalType": "contract IERC20",
              "name": "outbound_tkn",
              "type": "address"
            },
            {
              "internalType": "contract IERC20",
              "name": "inbound_tkn",
              "type": "address"
            },
            {
              "internalType": "uint256",
              "name": "wants",
              "type": "uint256"
            },
            {
              "internalType": "uint256",
              "name": "gives",
              "type": "uint256"
            },
            {
              "internalType": "uint256",
              "name": "gasreq",
              "type": "uint256"
            },
            {
              "internalType": "uint256",
              "name": "gasprice",
              "type": "uint256"
            },
            {
              "internalType": "uint256",
              "name": "pivotId",
              "type": "uint256"
            },
            {
              "internalType": "uint256",
              "name": "offerId",
              "type": "uint256"
            }
          ],
          "internalType": "struct IOfferLogic.MakerOrder",
          "name": "mko",
          "type": "tuple"
        }
      ],
      "name": "updateOffer",
      "outputs": [],
      "stateMutability": "payable",
      "type": "function"
    },
    {
      "inputs": [
        {
          "internalType": "uint256",
          "name": "amount",
          "type": "uint256"
        },
        {
          "internalType": "address payable",
          "name": "receiver",
          "type": "address"
        }
      ],
      "name": "withdrawFromMangrove",
      "outputs": [],
      "stateMutability": "nonpayable",
      "type": "function"
    },
    {
      "inputs": [
        {
          "internalType": "contract IERC20",
          "name": "token",
          "type": "address"
        },
        {
          "internalType": "address",
          "name": "receiver",
          "type": "address"
        },
        {
          "internalType": "uint256",
          "name": "amount",
          "type": "uint256"
        }
      ],
      "name": "withdrawToken",
      "outputs": [
        {
          "internalType": "bool",
          "name": "success",
          "type": "bool"
        }
      ],
      "stateMutability": "nonpayable",
      "type": "function"
    },
    {
      "stateMutability": "payable",
      "type": "receive"
    }
  ],
  "bytecode": {
    "object": "0x60a06040523480156200001157600080fd5b5060405162006e2f38038062006e2f8339810160408190526200003491620006f1565b8261753083600060026040516200004b90620006cd565b6001600160a01b03909316835260208301919091526040820152606001604051809103906000f08015801562000085573d6000803e3d6000fd5b5082828282823380620000df5760405162461bcd60e51b815260206004820152601860248201527f616363657373436f6e74726f6c6c65642f307841646d696e000000000000000060448201526064015b60405180910390fd5b80620000f56200026160201b62001a021760201c565b80546001600160a01b0319166001600160a01b03929092169190911790555062ffffff811681146200016a5760405162461bcd60e51b815260206004820152601b60248201527f4d616e67726f76654f666665722f676173726571546f6f4869676800000000006044820152606401620000d6565b6001600160a01b038216608052806200018e62000285602090811b62001a2617901c565b5550506001600160a01b038116620001b157620001ab30620002a9565b620001c7565b620001bc81620002a9565b620001c78162000313565b505050505050620001dd620004ac60201b60201c565b60405163e9333fab60e01b81526001600160a01b038381166004830152919091169063e9333fab90602401600060405180830381600087803b1580156200022357600080fd5b505af115801562000238573d6000803e3d6000fd5b505050506001600160a01b0381163314620002585762000258816200051b565b50505062000745565b7f7d382ebca3e46505071795e192d28166a3d4bd0685585591bc6c5b8df6769fd290565b7fae7e31c3220e851db9f204a28b279dfe52b973600b0a456991089c220ae7222490565b620002b362000605565b6001600160a01b0316336001600160a01b031614620003045760405162461bcd60e51b8152602060048201526018602482015260008051602062006e0f8339815191526044820152606401620000d6565b6200031030826200062b565b50565b6200031d62000605565b6001600160a01b0316336001600160a01b031614806200035057506080516001600160a01b0316336001600160a01b0316145b6200038d5760405162461bcd60e51b8152602060048201526018602482015260008051602062006e0f8339815191526044820152606401620000d6565b6001600160a01b038116620003e55760405162461bcd60e51b815260206004820152601c60248201527f6d67764f666665722f7365745f726f757465722f3078526f75746572000000006044820152606401620000d6565b80620003fb6200028560201b62001a261760201c565b60010180546001600160a01b0319166001600160a01b039283161790556040516381bac14f60e01b8152306004820152908216906381bac14f90602401600060405180830381600087803b1580156200045357600080fd5b505af115801562000468573d6000803e3d6000fd5b50506040516001600160a01b03841681527f6de4326a8b9054d72d9dbab97d27bc4edffadee7d966f5af9cc4eafdaf8e54559250602001905060405180910390a150565b600080620004c46200028560201b62001a261760201c565b600101546001600160a01b0316905080620005165760405162461bcd60e51b815260206004820152601160248201527036b3bb27b33332b917983c2937baba32b960791b6044820152606401620000d6565b919050565b6200052562000605565b6001600160a01b0316336001600160a01b031614620005765760405162461bcd60e51b8152602060048201526018602482015260008051602062006e0f8339815191526044820152606401620000d6565b6001600160a01b038116620005ce5760405162461bcd60e51b815260206004820152601860248201527f416363657373436f6e74726f6c6c65642f307841646d696e00000000000000006044820152606401620000d6565b80620005e46200026160201b62001a021760201c565b80546001600160a01b0319166001600160a01b039290921691909117905550565b60006200061c6200026160201b62001a021760201c565b546001600160a01b0316919050565b6001600160a01b038116620006835760405162461bcd60e51b815260206004820152601460248201527f53696e676c65557365722f3078526573657276650000000000000000000000006044820152606401620000d6565b80620006996200028560201b62001a261760201c565b6001600160a01b0393841660009081526002919091016020526040902080546001600160a01b031916919093161790915550565b613da5806200306a83390190565b6001600160a01b03811681146200031057600080fd5b6000806000606084860312156200070757600080fd5b83516200071481620006db565b60208501519093506200072781620006db565b60408501519092506200073a81620006db565b809150509250925092565b608051612884620007e6600039600081816102a201528181610625015281816106f3015281816107b10152818161091701528181610a2b01528181610b3e01528181610bd001528181610d8d01528181610e8501528181610ef901528181610f84015281816111cd01528181611328015281816113c50152818161153b0152818161193601528181611c1501528181611d8a015261203c01526128846000f3fe6080604052600436106101445760003560e01c80639f2211cb116100b6578063e9333fab1161006f578063e9333fab14610386578063eedc966a146103a6578063f259cd27146103c6578063f851a440146103e6578063f887ea40146103fb578063fc488a381461041057600080fd5b80639f2211cb146102dc578063ad97db1b146102fc578063cd3293de1461031c578063d1baa1ef14610331578063db11851e14610346578063e4c34f841461036657600080fd5b80635293840d116101085780635293840d146101fa5780635486c95f1461021a5780636c49c32c1461023b5780637144df241461025b57806384b627f91461027b57806399fa5e2d1461029057600080fd5b806301e336671461015057806303eb17e21461018557806310aded60146101a75780633d3d130d146101ba5780633d77fcde146101da57600080fd5b3661014b57005b600080fd5b34801561015c57600080fd5b5061017061016b366004612361565b610430565b60405190151581526020015b60405180910390f35b34801561019157600080fd5b506101a56101a03660046123a2565b61059a565b005b6101a56101b5366004612417565b6105eb565b3480156101c657600080fd5b506101a56101d53660046124d6565b6106f1565b3480156101e657600080fd5b506101a56101f5366004612519565b610815565b34801561020657600080fd5b506101a56102153660046123a2565b610857565b61022d610228366004612417565b6108db565b60405190815260200161017c565b34801561024757600080fd5b5061022d610256366004612536565b610a27565b34801561026757600080fd5b506101a5610276366004612553565b610ae8565b34801561028757600080fd5b50610170610d57565b34801561029c57600080fd5b506102c47f000000000000000000000000000000000000000000000000000000000000000081565b6040516001600160a01b03909116815260200161017c565b3480156102e857600080fd5b506101a56102f7366004612519565b610d76565b34801561030857600080fd5b5061022d610317366004612591565b610e56565b34801561032857600080fd5b506102c46110f7565b34801561033d57600080fd5b5061022d611107565b34801561035257600080fd5b506101a5610361366004612519565b6111a0565b34801561037257600080fd5b5061022d6103813660046125e4565b61131a565b34801561039257600080fd5b506101a56103a1366004612519565b6115dd565b3480156103b257600080fd5b5061022d6103c1366004612519565b611695565b3480156103d257600080fd5b506101a56103e1366004612519565b6117c0565b3480156103f257600080fd5b506102c4611895565b34801561040757600080fd5b506102c46118ae565b34801561041c57600080fd5b506101a561042b366004612635565b611909565b600061043a611895565b6001600160a01b0316336001600160a01b0316146104735760405162461bcd60e51b815260040161046a9061264e565b60405180910390fd5b6001600160a01b0383166104d55760405162461bcd60e51b815260206004820152602360248201527f53696e676c65557365722f7769746864726177546f6b656e2f307852656365696044820152623b32b960e91b606482015260840161046a565b6104dd610d57565b6104f3576104ec848484611a4a565b9050610593565b6104fb6118ae565b6001600160a01b03166321754d9e856105126110f7565b6040516001600160e01b031960e085901b1681526001600160a01b03928316600482015290821660248201529086166044820152606481018590526084016020604051808303816000875af115801561056f573d6000803e3d6000fd5b505050506040513d601f19601f820116820180604052508101906104ec9190612685565b9392505050565b60005b818110156105e6576105d48383838181106105ba576105ba6126a2565b90506020020160208101906105cf9190612519565b611b40565b806105de816126ce565b91505061059d565b505050565b6105f3611895565b6001600160a01b0316336001600160a01b0316146106235760405162461bcd60e51b815260040161046a9061264e565b7f00000000000000000000000000000000000000000000000000000000000000006001600160a01b0316636a4f769134836000015184602001518560400151866060015162ffffff8016886080015111610681578760800151610689565b610689611107565b8860a001518960c001518a60e001516040518a63ffffffff1660e01b81526004016106bb9897969594939291906126e7565b6000604051808303818588803b1580156106d457600080fd5b505af11580156106e8573d6000803e3d6000fd5b50505050505b50565b7f00000000000000000000000000000000000000000000000000000000000000006001600160a01b03811615806107305750336001600160a01b038216145b61074c5760405162461bcd60e51b815260040161046a9061264e565b81602001356f6d67762f74726164655375636365737360801b036107795761077383611bd4565b50505050565b6040830180359061078d9060208601612519565b6001600160a01b03166107a36020860186612519565b604080516001600160a01b037f0000000000000000000000000000000000000000000000000000000000000000811682528735602083015292909216917f736a3993b9f8b1c5603896c76376792887f376b1fe7fc981e09a16530bf1e4e0910160405180910390a46107738383611e09565b61081d611895565b6001600160a01b0316336001600160a01b03161461084d5760405162461bcd60e51b815260040161046a9061264e565b6106ee3082611e12565b61085f611895565b6001600160a01b0316336001600160a01b03161461088f5760405162461bcd60e51b815260040161046a9061264e565b60005b818110156105e6576108c98383838181106108af576108af6126a2565b90506020020160208101906108c49190612519565b611e9c565b806108d3816126ce565b915050610892565b60006108e5611895565b6001600160a01b0316336001600160a01b0316146109155760405162461bcd60e51b815260040161046a9061264e565b7f00000000000000000000000000000000000000000000000000000000000000006001600160a01b03166349f6d2dc34846000015185602001518660400151876060015162ffffff80168960800151101561097457886080015161097c565b61097c611107565b60a08a015160c08b01516040516001600160e01b031960e08b901b1681526001600160a01b03978816600482015296909516602487015260448601939093526064850191909152608484015260a483015260c482015260e40160206040518083038185885af11580156109f3573d6000803e3d6000fd5b50505050506040513d601f19601f82011682018060405250810190610a18919061272b565b60e0830181905290505b919050565b60007f00000000000000000000000000000000000000000000000000000000000000006001600160a01b0381161580610a685750336001600160a01b038216145b610a845760405162461bcd60e51b815260040161046a9061264e565b6000610a94846080013585611f23565b1115610ae25760405162461bcd60e51b815260206004820152601860248201527f6d67764f666665722f61626f72742f6765744661696c65640000000000000000604482015260640161046a565b50919050565b610af0611895565b6001600160a01b0316336001600160a01b031614610b205760405162461bcd60e51b815260040161046a9061264e565b6000198203610bba576040516370a0823160e01b81523060048201527f00000000000000000000000000000000000000000000000000000000000000006001600160a01b0316906370a0823190602401602060405180830381865afa158015610b8d573d6000803e3d6000fd5b505050506040513d601f19601f82011682018060405250810190610bb1919061272b565b91508115610d53575b604051632e1a7d4d60e01b8152600481018390527f00000000000000000000000000000000000000000000000000000000000000006001600160a01b031690632e1a7d4d906024016020604051808303816000875af1158015610c21573d6000803e3d6000fd5b505050506040513d601f19601f82011682018060405250810190610c459190612685565b610c9f5760405162461bcd60e51b815260206004820152602560248201527f6d67764f666665722f776974686472617746726f6d4d67762f776974686472616044820152641dd1985a5b60da1b606482015260840161046a565b6000816001600160a01b03168360405160006040518083038185875af1925050503d8060008114610cec576040519150601f19603f3d011682016040523d82523d6000602084013e610cf1565b606091505b50509050806105e65760405162461bcd60e51b815260206004820152602860248201527f6d67764f666665722f776974686472617746726f6d4d67762f70617961626c6560448201526710d85b1b11985a5b60c21b606482015260840161046a565b5050565b600080610d62611a26565b600101546001600160a01b03161415919050565b60405163095ea7b360e01b81526001600160a01b037f000000000000000000000000000000000000000000000000000000000000000081166004830152600019602483015282169063095ea7b3906044016020604051808303816000875af1158015610de6573d6000803e3d6000fd5b505050506040513d601f19601f82011682018060405250810190610e0a9190612685565b6106ee5760405162461bcd60e51b815260206004820152601d60248201527f6d67764f666665722f617070726f76654d616e67726f76652f4661696c000000604482015260640161046a565b6000610e60611895565b6001600160a01b0316336001600160a01b03161480610ea75750336001600160a01b037f000000000000000000000000000000000000000000000000000000000000000016145b610ec35760405162461bcd60e51b815260040161046a9061264e565b60405163ad97db1b60e01b81526001600160a01b03868116600483015285811660248301526044820185905283151560648301527f0000000000000000000000000000000000000000000000000000000000000000169063ad97db1b906084016020604051808303816000875af1158015610f42573d6000803e3d6000fd5b505050506040513d601f19601f82011682018060405250810190610f66919061272b565b905080156110ef57604051632e1a7d4d60e01b8152600481018290527f00000000000000000000000000000000000000000000000000000000000000006001600160a01b031690632e1a7d4d906024016020604051808303816000875af1158015610fd5573d6000803e3d6000fd5b505050506040513d601f19601f82011682018060405250810190610ff99190612685565b6110555760405162461bcd60e51b815260206004820152602760248201527f53696e676c65557365722f776974686472617746726f6d4d67762f77697468646044820152661c985dd1985a5b60ca1b606482015260840161046a565b604051600090339083908381818185875af1925050503d8060008114611097576040519150601f19603f3d011682016040523d82523d6000602084013e61109c565b606091505b50509050806110ed5760405162461bcd60e51b815260206004820152601a60248201527f53696e676c65557365722f7765695472616e736665724661696c000000000000604482015260640161046a565b505b949350505050565b600061110230611fef565b905090565b6000611111610d57565b156111925761111e6118ae565b6001600160a01b0316630417ffda6040518163ffffffff1660e01b8152600401602060405180830381865afa15801561115b573d6000803e3d6000fd5b505050506040513d601f19601f8201168201806040525081019061117f919061272b565b611187611a26565b546111029190612744565b61119a611a26565b54919050565b6111a8611895565b6001600160a01b0316336001600160a01b031614806111ef5750336001600160a01b037f000000000000000000000000000000000000000000000000000000000000000016145b61120b5760405162461bcd60e51b815260040161046a9061264e565b6001600160a01b0381166112615760405162461bcd60e51b815260206004820152601c60248201527f6d67764f666665722f7365745f726f757465722f3078526f7574657200000000604482015260640161046a565b8061126a611a26565b60010180546001600160a01b0319166001600160a01b039283161790556040516381bac14f60e01b8152306004820152908216906381bac14f90602401600060405180830381600087803b1580156112c157600080fd5b505af11580156112d5573d6000803e3d6000fd5b50506040516001600160a01b03841681527f6de4326a8b9054d72d9dbab97d27bc4edffadee7d966f5af9cc4eafdaf8e5455925060200190505b60405180910390a150565b600080806001600160a01b037f00000000000000000000000000000000000000000000000000000000000000001663cbf75c9a89896040516001600160e01b031960e085901b1681526001600160a01b039283166004820152911660248201526044016040805180830381865afa158015611399573d6000803e3d6000fd5b505050506040513d601f19601f820116820180604052508101906113bd919061275c565b9150915060007f00000000000000000000000000000000000000000000000000000000000000006001600160a01b0316635722647b6113f98b90565b8a6040516001600160e01b031960e085901b1681526001600160a01b0392831660048201529116602482015260448101889052606401602060405180830381865afa15801561144c573d6000803e3d6000fd5b505050506040513d601f19601f82011682018060405250810190611470919061272b565b9050600086604085901c61ffff161115611493575061ffff604084901c16611496565b50855b62ffffff88106114ab576114a8611107565b97505b6000816114c162ffffff606087901c168b612744565b6114cb9190612780565b6114d990633b9aca00612780565b9050600061ffff602085901c1661150062ffffff603087901c811690604888901c16612744565b61150a9190612780565b61151890633b9aca00612780565b6040516370a0823160e01b81523060048201529091506000906001600160a01b037f000000000000000000000000000000000000000000000000000000000000000016906370a0823190602401602060405180830381865afa158015611582573d6000803e3d6000fd5b505050506040513d601f19601f820116820180604052508101906115a6919061272b565b6115b09083612744565b9050828110156115c9576115c4818461279f565b6115cc565b60005b9d9c50505050505050505050505050565b6115e5611895565b6001600160a01b0316336001600160a01b0316146116155760405162461bcd60e51b815260040161046a9061264e565b6001600160a01b03811661166b5760405162461bcd60e51b815260206004820152601860248201527f416363657373436f6e74726f6c6c65642f307841646d696e0000000000000000604482015260640161046a565b80611674611a02565b80546001600160a01b0319166001600160a01b039290921691909117905550565b6000806116a0611a26565b600101546001600160a01b03169050801561174157806001600160a01b03166305684fde846116cd6110f7565b6040516001600160e01b031960e085901b1681526001600160a01b03928316600482015291166024820152604401602060405180830381865afa158015611718573d6000803e3d6000fd5b505050506040513d601f19601f8201168201806040525081019061173c919061272b565b610593565b826001600160a01b03166370a082316117586110f7565b6040516001600160e01b031960e084901b1681526001600160a01b039091166004820152602401602060405180830381865afa15801561179c573d6000803e3d6000fd5b505050506040513d601f19601f82011682018060405250810190610593919061272b565b806001600160a01b031663095ea7b36117d76118ae565b6040516001600160e01b031960e084901b1681526001600160a01b03909116600482015260001960248201526044016020604051808303816000875af1158015611825573d6000803e3d6000fd5b505050506040513d601f19601f820116820180604052508101906118499190612685565b6106ee5760405162461bcd60e51b815260206004820152601b60248201527f6d67764f666665722f617070726f7665526f757465722f4661696c0000000000604482015260640161046a565b600061189f611a02565b546001600160a01b0316919050565b6000806118b9611a26565b600101546001600160a01b0316905080610a225760405162461bcd60e51b815260206004820152601160248201527036b3bb27b33332b917983c2937baba32b960791b604482015260640161046a565b611911611895565b6001600160a01b0316336001600160a01b031614806119585750336001600160a01b037f000000000000000000000000000000000000000000000000000000000000000016145b6119745760405162461bcd60e51b815260040161046a9061264e565b808162ffffff16146119c85760405162461bcd60e51b815260206004820152601860248201527f6d67764f666665722f6761737265712f6f766572666c6f770000000000000000604482015260640161046a565b806119d1611a26565b556040518181527fafef3ad374c0b972e3c793be825735801fa05cc4c67157d98d9a111b4027988d9060200161130f565b7f7d382ebca3e46505071795e192d28166a3d4bd0685585591bc6c5b8df6769fd290565b7fae7e31c3220e851db9f204a28b279dfe52b973600b0a456991089c220ae7222490565b6000811580611a6157506001600160a01b03831630145b15611a6e57506001610593565b604080516001600160a01b038581166024830152604480830186905283518084039091018152606490920183526020820180516001600160e01b031663a9059cbb60e01b1790529151600092839290881691611aca91906127b6565b6000604051808303816000865af19150503d8060008114611b07576040519150601f19603f3d011682016040523d82523d6000602084013e611b0c565b606091505b5091509150818015611b36575080511580611b36575080806020019051810190611b369190612685565b9695505050505050565b611b48610d57565b15611bcb57611b556118ae565b6001600160a01b031663a01dccd882611b6c6110f7565b6040516001600160e01b031960e085901b1681526001600160a01b0392831660048201529116602482015260440160006040518083038186803b158015611bb257600080fd5b505afa158015611bc6573d6000803e3d6000fd5b505050505b6106ee8161201f565b6000611bdf8261210f565b506000611beb836121c0565b905080600003611bfe5750600192915050565b6000611c09846121e5565b90506001600160a01b037f000000000000000000000000000000000000000000000000000000000000000016636a4f7691611c476020870187612519565b611c576040880160208901612519565b848660c08a013560481c62ffffff1660c08b013560201c61ffff1660608c013560c01c63ffffffff168c604001356040518963ffffffff1660e01b8152600401611ca89897969594939291906126e7565b600060405180830381600087803b158015611cc257600080fd5b505af1925050508015611cd3575060015b611dff573d808015611d01576040519150601f19603f3d011682016040523d82523d6000602084013e611d06565b606091505b50805160208201207fc5fc8c2459087ad4f0e957e465df485864a3b1a379c2653ffe7c554981ede67001611df45760408501803590611d489060208801612519565b6001600160a01b0316611d5e6020880188612519565b6001600160a01b03167f736a3993b9f8b1c5603896c76376792887f376b1fe7fc981e09a16530bf1e4e07f0000000000000000000000000000000000000000000000000000000000000000604051611deb91906001600160a01b039190911681527f50657273697374656e742f686f6f6b2f6f75744f6650726f766973696f6e0000602082015260400190565b60405180910390a45b506000949350505050565b5060019392505050565b60015b92915050565b6001600160a01b038116611e5f5760405162461bcd60e51b815260206004820152601460248201527353696e676c65557365722f30785265736572766560601b604482015260640161046a565b80611e68611a26565b6001600160a01b0393841660009081526002919091016020526040902080546001600160a01b031916919093161790915550565b611ea581610d76565b611ead610d57565b156106ee57611ebb816117c0565b611ec36118ae565b604051630716a76760e21b81526001600160a01b0383811660048301529190911690631c5a9d9c90602401600060405180830381600087803b158015611f0857600080fd5b505af1158015611f1c573d6000803e3d6000fd5b5050505050565b600080611f3e611f366020850185612519565b856000612207565b9050838110611f51576000915050611e0c565b6000611f606020850185612519565b6040516370a0823160e01b81523060048201526001600160a01b0391909116906370a0823190602401602060405180830381865afa158015611fa6573d6000803e3d6000fd5b505050506040513d601f19601f82011682018060405250810190611fca919061272b565b905084811015611fe357611fde818661279f565b611fe6565b60005b92505050611e0c565b6000611ff9611a26565b6001600160a01b0392831660009081526002919091016020526040902054909116919050565b604051636eb1769f60e11b81523060048201526001600160a01b037f0000000000000000000000000000000000000000000000000000000000000000811660248301526000919083169063dd62ed3e90604401602060405180830381865afa15801561208f573d6000803e3d6000fd5b505050506040513d601f19601f820116820180604052508101906120b3919061272b565b116106ee5760405162461bcd60e51b815260206004820152602660248201527f4d616e67726f76654f666665722f41646d696e4d757374417070726f76654d616044820152656e67726f766560d01b606482015260840161046a565b604080516002808252606082018352600092839291906020830190803683370190505090506121416020840184612519565b81600081518110612154576121546126a2565b6001600160a01b0390921660209283029190910182015261217b9060408501908501612519565b8160018151811061218e5761218e6126a2565b60200260200101906001600160a01b031690816001600160a01b0316815250506121b7816122d0565b50600192915050565b600060808201356bffffffffffffffffffffffff6060840135165b611e0c919061279f565b600060a0820135606080840135901c6bffffffffffffffffffffffff166121db565b600080612212611a26565b600101546001600160a01b0316905080612230576000915050610593565b806001600160a01b031663333dbb0d866122486110f7565b6040516001600160e01b031960e085901b1681526001600160a01b039283166004820152911660248201526044810187905285151560648201526084016020604051808303816000875af11580156122a4573d6000803e3d6000fd5b505050506040513d601f19601f820116820180604052508101906122c8919061272b565b915050610593565b60006122da611a26565b600101546001600160a01b03169050806122f2575050565b806001600160a01b031663f850a81c8361230a6110f7565b6040518363ffffffff1660e01b81526004016123279291906127f1565b600060405180830381600087803b1580156106d457600080fd5b6001600160a01b03811681146106ee57600080fd5b8035610a2281612341565b60008060006060848603121561237657600080fd5b833561238181612341565b9250602084013561239181612341565b929592945050506040919091013590565b600080602083850312156123b557600080fd5b823567ffffffffffffffff808211156123cd57600080fd5b818501915085601f8301126123e157600080fd5b8135818111156123f057600080fd5b8660208260051b850101111561240557600080fd5b60209290920196919550909350505050565b600061010080838503121561242b57600080fd5b6040519081019067ffffffffffffffff8211818310171561245c57634e487b7160e01b600052604160045260246000fd5b8160405261246984612356565b815261247760208501612356565b602082015260408401356040820152606084013560608201526080840135608082015260a084013560a082015260c084013560c082015260e084013560e0820152809250505092915050565b60006101208284031215610ae257600080fd5b6000808284036101608112156124eb57600080fd5b6124f585856124c3565b9250604061011f198201121561250a57600080fd5b50610120830190509250929050565b60006020828403121561252b57600080fd5b813561059381612341565b6000610120828403121561254957600080fd5b61059383836124c3565b6000806040838503121561256657600080fd5b82359150602083013561257881612341565b809150509250929050565b80151581146106ee57600080fd5b600080600080608085870312156125a757600080fd5b84356125b281612341565b935060208501356125c281612341565b92506040850135915060608501356125d981612583565b939692955090935050565b600080600080600060a086880312156125fc57600080fd5b853561260781612341565b9450602086013561261781612341565b94979496505050506040830135926060810135926080909101359150565b60006020828403121561264757600080fd5b5035919050565b60208082526018908201527f416363657373436f6e74726f6c6c65642f496e76616c69640000000000000000604082015260600190565b60006020828403121561269757600080fd5b815161059381612583565b634e487b7160e01b600052603260045260246000fd5b634e487b7160e01b600052601160045260246000fd5b6000600182016126e0576126e06126b8565b5060010190565b6001600160a01b03988916815296909716602087015260408601949094526060850192909252608084015260a083015260c082015260e08101919091526101000190565b60006020828403121561273d57600080fd5b5051919050565b60008219821115612757576127576126b8565b500190565b6000806040838503121561276f57600080fd5b505080516020909101519092909150565b600081600019048311821515161561279a5761279a6126b8565b500290565b6000828210156127b1576127b16126b8565b500390565b6000825160005b818110156127d757602081860181015185830152016127bd565b818111156127e6576000828501525b509190910192915050565b604080825283519082018190526000906020906060840190828701845b828110156128335781516001600160a01b03168452928401929084019060010161280e565b5050506001600160a01b03949094169201919091525091905056fea2646970667358221220c64ba296c4dbc111b38cc7367b6fd52b4b51c66fa1c22dd4a71bfc817cc64fd564736f6c634300080e00336101206040523480156200001257600080fd5b5060405162003da538038062003da58339810160408190526200003591620003b8565b828282620aae603380620000905760405162461bcd60e51b815260206004820152601860248201527f616363657373436f6e74726f6c6c65642f307841646d696e000000000000000060448201526064015b60405180910390fd5b80620000a66200034560201b620011cb1760201c565b80546001600160a01b0319166001600160a01b03929092169190911790555062ffffff811681146200011b5760405162461bcd60e51b815260206004820152601660248201527f526f757465722f6f76657268656164546f6f4869676800000000000000000000604482015260640162000087565b80620001316200036960201b620011ef1760201c565b600101555061ffff82166101005260e08190526040516321f8a72160e01b81526b50524943455f4f5241434c4560a01b60048201526000906001600160a01b038516906321f8a72190602401602060405180830381865afa1580156200019b573d6000803e3d6000fd5b505050506040513d601f19601f82011682018060405250810190620001c19190620003f0565b90506000846001600160a01b031663026b1d5f6040518163ffffffff1660e01b8152600401602060405180830381865afa15801562000204573d6000803e3d6000fd5b505050506040513d601f19601f820116820180604052508101906200022a9190620003f0565b90506001600160a01b038216620002845760405162461bcd60e51b815260206004820152601860248201527f416176654d6f64756c652f307850726963654f7261636c650000000000000000604482015260640162000087565b6001600160a01b038116620002d05760405162461bcd60e51b815260206004820152601160248201527010585d99535bd91d5b194bcc1e141bdbdb607a1b604482015260640162000087565b6001600160a01b0380821660a052821660c05260405181908390620002f5906200038d565b6001600160a01b03928316815291166020820152604001604051809103906000f08015801562000329573d6000803e3d6000fd5b506001600160a01b031660805250620004159650505050505050565b7f7d382ebca3e46505071795e192d28166a3d4bd0685585591bc6c5b8df6769fd290565b7ff2910982afb88211fa9894801aaf0314409ca240a0a8904897b9f5ba323ca53390565b6112978062002b0e83390190565b80516001600160a01b0381168114620003b357600080fd5b919050565b600080600060608486031215620003ce57600080fd5b620003d9846200039b565b925060208401519150604084015190509250925092565b6000602082840312156200040357600080fd5b6200040e826200039b565b9392505050565b60805160a05160c05160e0516101005161262f620004df600039600081816102ce01528181611679015281816119b60152611b9d0152600081816103dc015281816108b3015281816115900152818161198d0152611b770152600061031b0152600081816103a2015281816104e9015281816108f80152818161098d01528181610d80015281816115be015281816116a001528181611810015281816118eb015281816119e50152611b4201526000818161034201528181610b050152611c19015261262f6000f3fe608060405234801561001057600080fd5b50600436106101c45760003560e01c806352da17a4116100f9578063b0a02abe11610097578063e5cd487f11610071578063e5cd487f1461045d578063e9333fab14610470578063f850a81c14610483578063f851a4401461049657600080fd5b8063b0a02abe14610424578063ca34f9ec14610437578063cf5e7bd31461044a57600080fd5b806381bac14f116100d357806381bac14f146103c457806383008bd9146103d75780638faf5531146103fe578063a01dccd81461041157600080fd5b806352da17a4146103775780635a3e96181461038a5780637535d2461461039d57600080fd5b806326e8eda211610166578063362aecb111610140578063362aecb11461030357806338013f02146103165780633a4741bd1461033d578063492fffc71461036457600080fd5b806326e8eda2146102a3578063333dbb0d146102b65780633583849a146102c957600080fd5b80631c5a9d9c116101a25780631c5a9d9c146102225780632026ffa31461023757806321754d9e146102585780632197c31e1461027b57600080fd5b80630417ffda146101c957806305684fde146101e45780630efc8fd2146101f7575b600080fd5b6101d161049e565b6040519081526020015b60405180910390f35b6101d16101f2366004611cae565b6104b1565b61020a610205366004611ce7565b6104c7565b6040516001600160a01b0390911681526020016101db565b610235610230366004611ce7565b610562565b005b61024a610245366004611d50565b6105be565b6040516101db929190611da5565b61026b610266366004611e29565b610611565b60405190151581526020016101db565b61028e610289366004611e88565b61064f565b604080519283526020830191909152016101db565b6102356102b1366004611ed3565b610791565b6101d16102c4366004611f14565b6107c7565b6102f07f000000000000000000000000000000000000000000000000000000000000000081565b60405161ffff90911681526020016101db565b61026b610311366004611ce7565b610883565b61020a7f000000000000000000000000000000000000000000000000000000000000000081565b61020a7f000000000000000000000000000000000000000000000000000000000000000081565b61020a610372366004611ce7565b6108af565b610235610385366004611f67565b610a05565b610235610398366004611faf565b610ab1565b61020a7f000000000000000000000000000000000000000000000000000000000000000081565b6102356103d2366004611ce7565b610b97565b6101d17f000000000000000000000000000000000000000000000000000000000000000081565b61023561040c366004611f67565b610c15565b61023561041f366004611cae565b610c86565b6101d1610432366004611cae565b610d5c565b610235610445366004611ce7565b610ef3565b610235610458366004611ce7565b610eff565b61023561046b366004611f67565b610f50565b61023561047e366004611ce7565b610fea565b610235610491366004612021565b6110a2565b61020a6111b2565b60006104a86111ef565b60010154905090565b60006104bf8360008461064f565b509392505050565b6040516335ea6a7560e01b81526001600160a01b0382811660048301526000917f0000000000000000000000000000000000000000000000000000000000000000909116906335ea6a75906024016101e060405180830381865afa158015610533573d6000803e3d6000fd5b505050506040513d601f19601f820116820180604052508101906105579190612177565b610100015192915050565b61056a6111b2565b6001600160a01b0316336001600160a01b0316148061058d575061058d33610883565b6105b25760405162461bcd60e51b81526004016105a99061229a565b60405180910390fd5b6105bb81610ef3565b50565b6060806105c96111b2565b6001600160a01b0316336001600160a01b0316146105f95760405162461bcd60e51b81526004016105a9906122c7565b610604858585611213565b915091505b935093915050565b600061061c33610883565b6106385760405162461bcd60e51b81526004016105a99061229a565b61064485858585611297565b90505b949350505050565b6040516001600160a01b0384811660248301528315156044830152821660648201526000908190819081903090630b47d2c360e31b9063fd8c045160e01b9060840160408051601f198184030181529181526020820180516001600160e01b03166001600160e01b03199094169390931790925290516106d2919060240161232a565b60408051601f198184030181529181526020820180516001600160e01b03166001600160e01b0319909416939093179092529051610710919061235d565b600060405180830381855afa9150503d806000811461074b576040519150601f19603f3d011682016040523d82523d6000602084013e610750565b606091505b509150915081610768576107638161132d565b610787565b8080602001905181019061077c9190612379565b935093505050610609565b5050935093915050565b61079a33610883565b6107b65760405162461bcd60e51b81526004016105a99061229a565b6107c283833384611386565b505050565b60006107d233610883565b6107ee5760405162461bcd60e51b81526004016105a99061229a565b6040516370a0823160e01b81523360048201526000906001600160a01b038716906370a0823190602401602060405180830381865afa158015610835573d6000803e3d6000fd5b505050506040513d601f19601f82011682018060405250810190610859919061239d565b905083811061086c576000915050610647565b61087986863387876113e9565b9695505050505050565b600061088d6111ef565b6001600160a01b03909216600090815260209290925250604090205460ff1690565b60007f000000000000000000000000000000000000000000000000000000000000000060011461096e576040516335ea6a7560e01b81526001600160a01b0383811660048301527f000000000000000000000000000000000000000000000000000000000000000016906335ea6a75906024016101e060405180830381865afa158015610940573d6000803e3d6000fd5b505050506040513d601f19601f820116820180604052508101906109649190612177565b61014001516109ff565b6040516335ea6a7560e01b81526001600160a01b0383811660048301527f000000000000000000000000000000000000000000000000000000000000000016906335ea6a75906024016101e060405180830381865afa1580156109d5573d6000803e3d6000fd5b505050506040513d601f19601f820116820180604052508101906109f99190612177565b61012001515b92915050565b610a0d6111b2565b6001600160a01b0316336001600160a01b031614610a3d5760405162461bcd60e51b81526004016105a9906122c7565b610a4984828585611443565b610a9f5760405162461bcd60e51b815260206004820152602160248201527f41617665526f757465722f72657061792f7472616e7366657246726f6d4661696044820152601b60fa1b60648201526084016105a9565b610aaa848385611562565b5050505050565b333014610b005760405162461bcd60e51b815260206004820152601760248201527f416176654d6f64756c652f696e7465726e616c4f6e6c7900000000000000000060448201526064016105a9565b6000807f00000000000000000000000000000000000000000000000000000000000000006001600160a01b03168484604051610b3d9291906123b6565b600060405180830381855af49150503d8060008114610b78576040519150601f19603f3d011682016040523d82523d6000602084013e610b7d565b606091505b509150915081610b9057610b908161132d565b3d60208201f35b610b9f6111b2565b6001600160a01b0316336001600160a01b03161480610bc25750610bc233610883565b610bde5760405162461bcd60e51b81526004016105a99061229a565b6001610be86111ef565b6001600160a01b039290921660009081526020929092526040909120805460ff1916911515919091179055565b610c1d6111b2565b6001600160a01b0316336001600160a01b031614610c4d5760405162461bcd60e51b81526004016105a9906122c7565b610c5984828585611443565b610c755760405162461bcd60e51b81526004016105a9906123c6565b610c8084838561163b565b50505050565b604051636eb1769f60e11b81523360048201523060248201526000906001600160a01b0384169063dd62ed3e90604401602060405180830381865afa158015610cd3573d6000803e3d6000fd5b505050506040513d601f19601f82011682018060405250810190610cf7919061239d565b11610d4e5760405162461bcd60e51b815260206004820152602160248201527f526f757465722f4e6f74417070726f76656442794d616b6572436f6e747261636044820152601d60fa1b60648201526084016105a9565b610d588282611702565b5050565b6040516335ea6a7560e01b81526001600160a01b03838116600483015260009182917f000000000000000000000000000000000000000000000000000000000000000016906335ea6a75906024016101e060405180830381865afa158015610dc8573d6000803e3d6000fd5b505050506040513d601f19601f82011682018060405250810190610dec9190612177565b6101408101516040516370a0823160e01b81526001600160a01b038681166004830152929350600092909116906370a0823190602401602060405180830381865afa158015610e3f573d6000803e3d6000fd5b505050506040513d601f19601f82011682018060405250810190610e63919061239d565b6101208301516040516370a0823160e01b81526001600160a01b038781166004830152929350600092909116906370a0823190602401602060405180830381865afa158015610eb6573d6000803e3d6000fd5b505050506040513d601f19601f82011682018060405250810190610eda919061239d565b905081811015610eea5781610879565b95945050505050565b6105bb816000196118d4565b610f076111b2565b6001600160a01b0316336001600160a01b03161480610f2a5750610f2a33610883565b610f465760405162461bcd60e51b81526004016105a99061229a565b6000610be86111ef565b610f586111b2565b6001600160a01b0316336001600160a01b031614610f885760405162461bcd60e51b81526004016105a9906122c7565b610f93848385611967565b610f9e848284611a14565b610c805760405162461bcd60e51b815260206004820152601e60248201527f41617665526f757465722f626f72726f772f7472616e736665724661696c000060448201526064016105a9565b610ff26111b2565b6001600160a01b0316336001600160a01b0316146110225760405162461bcd60e51b81526004016105a9906122c7565b6001600160a01b0381166110785760405162461bcd60e51b815260206004820152601860248201527f416363657373436f6e74726f6c6c65642f307841646d696e000000000000000060448201526064016105a9565b806110816111cb565b80546001600160a01b0319166001600160a01b039290921691909117905550565b6110ab33610883565b6110c75760405162461bcd60e51b81526004016105a99061229a565b60005b82811015610c805760008484838181106110e6576110e6612408565b90506020020160208101906110fb9190611ce7565b6040516370a0823160e01b81523360048201526001600160a01b0391909116906370a0823190602401602060405180830381865afa158015611141573d6000803e3d6000fd5b505050506040513d601f19601f82011682018060405250810190611165919061239d565b9050801561119f5761119f85858481811061118257611182612408565b90506020020160208101906111979190611ce7565b843384611386565b50806111aa8161241e565b9150506110ca565b60006111bc6111cb565b546001600160a01b0316919050565b7f7d382ebca3e46505071795e192d28166a3d4bd0685585591bc6c5b8df6769fd290565b7ff2910982afb88211fa9894801aaf0314409ca240a0a8904897b9f5ba323ca53390565b606080846001600160a01b031663bf90f63a85856040518363ffffffff1660e01b8152600401611244929190612445565b6000604051808303816000875af1158015611263573d6000803e3d6000fd5b505050506040513d6000823e601f3d908101601f1916820160405261128b9190810190612517565b90969095509350505050565b60006112ad6112a5866104c7565b853085611443565b6112c95760405162461bcd60e51b81526004016105a9906123c6565b816112d5868486611b0c565b146113225760405162461bcd60e51b815260206004820152601d60248201527f41617665526f757465722f7769746864726177546f6b656e2f4661696c00000060448201526064016105a9565b506001949350505050565b805160000361137e5760405162461bcd60e51b815260206004820181905260248201527f416176654d6f64756c6553746f726167652f7265766572744e6f526561736f6e60448201526064016105a9565b805160208201fd5b61139284833084611443565b6113de5760405162461bcd60e51b815260206004820152601c60248201527f41617665526f757465722f707573682f7472616e736665724661696c0000000060448201526064016105a9565b610c80848483611b71565b6000806113f687876104b1565b905082156114145780841061140b578061140d565b835b9350611418565b8093505b61142c611424886104c7565b873087611443565b50611438878587611b0c565b979650505050505050565b60008115806114635750826001600160a01b0316846001600160a01b0316145b1561147057506001610647565b306001600160a01b038516036114925761148b858484611a14565b9050610647565b604080516001600160a01b0386811660248301528581166044830152606480830186905283518084039091018152608490920183526020820180516001600160e01b03166323b872dd60e01b17905291516000928392908916916114f6919061235d565b6000604051808303816000865af19150503d8060008114611533576040519150601f19603f3d011682016040523d82523d6000602084013e611538565b606091505b509150915081801561143857508051158061143857508080602001905181019061143891906125dc565b600082156116315760405163573ade8160e01b81526001600160a01b038581166004830152602482018590527f0000000000000000000000000000000000000000000000000000000000000000604483015283811660648301527f0000000000000000000000000000000000000000000000000000000000000000169063573ade81906084015b6020604051808303816000875af1158015611608573d6000803e3d6000fd5b505050506040513d601f19601f8201168201806040525081019061162c919061239d565b610647565b6000949350505050565b8160000361164857505050565b60405163617ba03760e01b81526001600160a01b03848116600483015260248201849052828116604483015261ffff7f00000000000000000000000000000000000000000000000000000000000000001660648301527f0000000000000000000000000000000000000000000000000000000000000000169063617ba037906084015b600060405180830381600087803b1580156116e557600080fd5b505af11580156116f9573d6000803e3d6000fd5b50505050505050565b6001600160a01b0381163014806117935750600061171f836104c7565b604051636eb1769f60e11b81526001600160a01b038481166004830152306024830152919091169063dd62ed3e90604401602060405180830381865afa15801561176d573d6000803e3d6000fd5b505050506040513d601f19601f82011682018060405250810190611791919061239d565b115b6117f35760405162461bcd60e51b815260206004820152602b60248201527f61617665526f757465722f4e6f74417070726f7665644279526573657276654660448201526a6f724f7665726c79696e6760a81b60648201526084016105a9565b604051636eb1769f60e11b81523060048201526001600160a01b037f0000000000000000000000000000000000000000000000000000000000000000811660248301526000919084169063dd62ed3e90604401602060405180830381865afa158015611863573d6000803e3d6000fd5b505050506040513d601f19601f82011682018060405250810190611887919061239d565b11610d585760405162461bcd60e51b815260206004820152601d60248201527f61617665526f757465722f6861734e6f74417070726f766564506f6f6c00000060448201526064016105a9565b60405163095ea7b360e01b81526001600160a01b037f0000000000000000000000000000000000000000000000000000000000000000811660048301526024820183905283169063095ea7b3906044016020604051808303816000875af1158015611943573d6000803e3d6000fd5b505050506040513d601f19601f820116820180604052508101906107c291906125dc565b60405163a415bcad60e01b81526001600160a01b038481166004830152602482018490527f0000000000000000000000000000000000000000000000000000000000000000604483015261ffff7f000000000000000000000000000000000000000000000000000000000000000016606483015282811660848301527f0000000000000000000000000000000000000000000000000000000000000000169063a415bcad9060a4016116cb565b6000811580611a2b57506001600160a01b03831630145b15611a3857506001611b05565b604080516001600160a01b038581166024830152604480830186905283518084039091018152606490920183526020820180516001600160e01b031663a9059cbb60e01b1790529151600092839290881691611a94919061235d565b6000604051808303816000865af19150503d8060008114611ad1576040519150601f19603f3d011682016040523d82523d6000602084013e611ad6565b606091505b5091509150818015611b00575080511580611b00575080806020019051810190611b0091906125dc565b925050505b9392505050565b6000821561163157604051631a4ca37b60e21b81526001600160a01b0385811660048301526024820185905283811660448301527f000000000000000000000000000000000000000000000000000000000000000016906369328dec906064016115e9565b604080517f000000000000000000000000000000000000000000000000000000000000000060248201527f000000000000000000000000000000000000000000000000000000000000000061ffff1660448201526001600160a01b038581166064830152848116608483015260a48083018590528351808403909101815260c490920183526020820180516001600160e01b03166301c77dc560e11b179052915160009283927f000000000000000000000000000000000000000000000000000000000000000090911691611c46919061235d565b600060405180830381855af49150503d8060008114611c81576040519150601f19603f3d011682016040523d82523d6000602084013e611c86565b606091505b509150915081610aaa57610aaa8161132d565b6001600160a01b03811681146105bb57600080fd5b60008060408385031215611cc157600080fd5b8235611ccc81611c99565b91506020830135611cdc81611c99565b809150509250929050565b600060208284031215611cf957600080fd5b8135611b0581611c99565b60008083601f840112611d1657600080fd5b50813567ffffffffffffffff811115611d2e57600080fd5b6020830191508360208260051b8501011115611d4957600080fd5b9250929050565b600080600060408486031215611d6557600080fd5b8335611d7081611c99565b9250602084013567ffffffffffffffff811115611d8c57600080fd5b611d9886828701611d04565b9497909650939450505050565b604080825283519082018190526000906020906060840190828701845b82811015611de75781516001600160a01b031684529284019290840190600101611dc2565b5050508381038285015284518082528583019183019060005b81811015611e1c57835183529284019291840191600101611e00565b5090979650505050505050565b60008060008060808587031215611e3f57600080fd5b8435611e4a81611c99565b93506020850135611e5a81611c99565b92506040850135611e6a81611c99565b9396929550929360600135925050565b80151581146105bb57600080fd5b600080600060608486031215611e9d57600080fd5b8335611ea881611c99565b92506020840135611eb881611e7a565b91506040840135611ec881611c99565b809150509250925092565b600080600060608486031215611ee857600080fd5b8335611ef381611c99565b92506020840135611f0381611c99565b929592945050506040919091013590565b60008060008060808587031215611f2a57600080fd5b8435611f3581611c99565b93506020850135611f4581611c99565b9250604085013591506060850135611f5c81611e7a565b939692955090935050565b60008060008060808587031215611f7d57600080fd5b8435611f8881611c99565b93506020850135611f9881611c99565b9250604085013591506060850135611f5c81611c99565b60008060208385031215611fc257600080fd5b823567ffffffffffffffff80821115611fda57600080fd5b818501915085601f830112611fee57600080fd5b813581811115611ffd57600080fd5b86602082850101111561200f57600080fd5b60209290920196919550909350505050565b60008060006040848603121561203657600080fd5b833567ffffffffffffffff81111561204d57600080fd5b61205986828701611d04565b9094509250506020840135611ec881611c99565b634e487b7160e01b600052604160045260246000fd5b6040516101e0810167ffffffffffffffff811182821017156120a7576120a761206d565b60405290565b604051601f8201601f1916810167ffffffffffffffff811182821017156120d6576120d661206d565b604052919050565b6000602082840312156120f057600080fd5b6040516020810181811067ffffffffffffffff821117156121135761211361206d565b6040529151825250919050565b80516fffffffffffffffffffffffffffffffff8116811461214057600080fd5b919050565b805164ffffffffff8116811461214057600080fd5b805161ffff8116811461214057600080fd5b805161214081611c99565b60006101e0828403121561218a57600080fd5b612192612083565b61219c84846120de565b81526121aa60208401612120565b60208201526121bb60408401612120565b60408201526121cc60608401612120565b60608201526121dd60808401612120565b60808201526121ee60a08401612120565b60a08201526121ff60c08401612145565b60c082015261221060e0840161215a565b60e082015261010061222381850161216c565b9082015261012061223584820161216c565b9082015261014061224784820161216c565b9082015261016061225984820161216c565b9082015261018061226b848201612120565b908201526101a061227d848201612120565b908201526101c061228f848201612120565b908201529392505050565b602080825260139082015272149bdd5d195c8bdd5b985d5d1a1bdc9a5e9959606a1b604082015260600190565b60208082526018908201527f416363657373436f6e74726f6c6c65642f496e76616c69640000000000000000604082015260600190565b60005b83811015612319578181015183820152602001612301565b83811115610c805750506000910152565b60208152600082518060208401526123498160408501602087016122fe565b601f01601f19169190910160400192915050565b6000825161236f8184602087016122fe565b9190910192915050565b6000806040838503121561238c57600080fd5b505080516020909101519092909150565b6000602082840312156123af57600080fd5b5051919050565b8183823760009101908152919050565b60208082526022908201527f41617665526f757465722f737570706c792f7472616e7366657246726f6d46616040820152611a5b60f21b606082015260800190565b634e487b7160e01b600052603260045260246000fd5b60006001820161243e57634e487b7160e01b600052601160045260246000fd5b5060010190565b60208082528181018390526000908460408401835b8681101561248857823561246d81611c99565b6001600160a01b03168252918301919083019060010161245a565b509695505050505050565b600067ffffffffffffffff8211156124ad576124ad61206d565b5060051b60200190565b600082601f8301126124c857600080fd5b815160206124dd6124d883612493565b6120ad565b82815260059290921b840181019181810190868411156124fc57600080fd5b8286015b848110156124885780518352918301918301612500565b6000806040838503121561252a57600080fd5b825167ffffffffffffffff8082111561254257600080fd5b818501915085601f83011261255657600080fd5b815160206125666124d883612493565b82815260059290921b8401810191818101908984111561258557600080fd5b948201945b838610156125ac57855161259d81611c99565b8252948201949082019061258a565b918801519196509093505050808211156125c557600080fd5b506125d2858286016124b7565b9150509250929050565b6000602082840312156125ee57600080fd5b8151611b0581611e7a56fea264697066735822122013fe2b710c0a31594d217935025d2abc706b20f35e2f5267ec6e1bd5672786db64736f6c634300080e003360c060405234801561001057600080fd5b5060405161129738038061129783398101604081905261002f9161005e565b6001600160a01b039182166080521660a052610098565b6001600160a01b038116811461005b57600080fd5b50565b6000806040838503121561007157600080fd5b825161007c81610046565b602084015190925061008d81610046565b809150509250929050565b60805160a0516111a46100f3600039600081816076015261082c01526000818160ba0152818161016201528181610223015281816102d8015281816103ed015281816104d30152818161064b01526106f901526111a46000f3fe608060405234801561001057600080fd5b50600436106100575760003560e01c8063038efb8a1461005c57806338013f02146100715780637535d246146100b55780639105b83a146100dc578063fd8c0451146100fd575b600080fd5b61006f61006a366004610c13565b610125565b005b6100987f000000000000000000000000000000000000000000000000000000000000000081565b6040516001600160a01b0390911681526020015b60405180910390f35b6100987f000000000000000000000000000000000000000000000000000000000000000081565b6100ef6100ea366004610c73565b610288565b6040519081526020016100ac565b61011061010b366004610cee565b6105b6565b604080519283526020830191909152016100ac565b80156102815760405163573ade8160e01b81526001600160a01b0384811660048301526024820183905260448201879052838116606483015282917f00000000000000000000000000000000000000000000000000000000000000009091169063573ade81906084016020604051808303816000875af19250505080156101c9575060408051601f3d908101601f191682019092526101c691810190610d39565b60015b156101eb576101d88183610d68565b9150816000036101e9575050610281565b505b60405163617ba03760e01b81526001600160a01b03858116600483015260248201839052848116604483015261ffff871660648301527f0000000000000000000000000000000000000000000000000000000000000000169063617ba03790608401600060405180830381600087803b15801561026757600080fd5b505af115801561027b573d6000803e3d6000fd5b50505050505b5050505050565b6000806000610299886001896105b6565b9150915084156102b5578582106102b057856102b2565b815b91505b6040516335ea6a7560e01b81526001600160a01b038981166004830152610353917f0000000000000000000000000000000000000000000000000000000000000000909116906335ea6a75906024016101e060405180830381865afa158015610322573d6000803e3d6000fd5b505050506040513d601f19601f820116820180604052508101906103469190610e5e565b61010001518830856109d7565b6103b95760405162461bcd60e51b815260206004820152602c60248201527f416176654d6f64756c652f72656465656d5468656e426f72726f772f61546b6e60448201526b151c985b9cd9995c91985a5b60a21b60648201526084015b60405180910390fd5b811561045c57604051631a4ca37b60e21b81526001600160a01b0389811660048301526024820184905285811660448301527f000000000000000000000000000000000000000000000000000000000000000016906369328dec906064016020604051808303816000875af1158015610436573d6000803e3d6000fd5b505050506040513d601f19601f8201168201806040525081019061045a9190610d39565b505b8582101580610469575080155b15610476575090506105ab565b6104808287610d68565b955085811161048f5780610491565b855b60405163a415bcad60e01b81526001600160a01b038a8116600483015260248201839052604482018d905261ffff8c16606483015289811660848301529192507f00000000000000000000000000000000000000000000000000000000000000009091169063a415bcad9060a401600060405180830381600087803b15801561051957600080fd5b505af115801561052d573d6000803e3d6000fd5b5050505061053c888583610b03565b61059c5760405162461bcd60e51b815260206004820152602b60248201527f416176654d6f64756c652f72656465656d5468656e426f72726f772f546b6e5460448201526a1c985b9cd9995c91985a5b60aa1b60648201526084016103b0565b6105a68183610f81565b925050505b979650505050505050565b6000806105e46040518060800160405280600081526020016000815260200160008152602001600081525090565b61062c60405180610100016040528060008152602001600081526020016000815260200160008152602001600081526020016000815260200160008152602001600081525090565b604051632fe4a15f60e21b81526001600160a01b0386811660048301527f0000000000000000000000000000000000000000000000000000000000000000169063bf92857c9060240160c060405180830381865afa158015610692573d6000803e3d6000fd5b505050506040513d601f19601f820116820180604052508101906106b69190610f99565b60c0870152608086015260a08501526040808501919091526020840191909152908252516335ea6a7560e01b81526001600160a01b0388811660048301526000917f0000000000000000000000000000000000000000000000000000000000000000909116906335ea6a75906024016101e060405180830381865afa158015610743573d6000803e3d6000fd5b505050506040513d601f19601f820116820180604052508101906107679190610e5e565b80515160ff603082901c1660408681019190915261ffff601083901c81166020808901919091529216865261010083015181516370a0823160e01b81526001600160a01b038b8116600483015292519495509116926370a08231926024808401939192918290030181865afa1580156107e4573d6000803e3d6000fd5b505050506040513d601f19601f820116820180604052508101906108089190610d39565b60e083015260405163b3596f0760e01b81526001600160a01b0389811660048301527f0000000000000000000000000000000000000000000000000000000000000000169063b3596f0790602401602060405180830381865afa158015610873573d6000803e3d6000fd5b505050506040513d601f19601f820116820180604052508101906108979190610d39565b60608401526020820151825160a0840151612710916108b591610fe3565b6108bf9190611002565b6108c99190610d68565b60608084019190915283015160208401516000916108e691610fe3565b60408501516108f690600a61110a565b84606001516109059190610fe3565b61091190612710610fe3565b61091b9190611002565b90508260e001518110610932578260e00151610934565b805b90508761094a579450600093506109cf92505050565b83516000906127109061095d9084610fe3565b6109679190611002565b9050600085606001518660400151600a610981919061110a565b86604001516109909190610fe3565b61099a9190611002565b9050808211156109b657826000975097505050505050506109cf565b60006109c28383610d68565b9398509296505050505050505b935093915050565b60008115806109f75750826001600160a01b0316846001600160a01b0316145b15610a0457506001610afb565b306001600160a01b03851603610a2657610a1f858484610b03565b9050610afb565b604080516001600160a01b0386811660248301528581166044830152606480830186905283518084039091018152608490920183526020820180516001600160e01b03166323b872dd60e01b1790529151600092839290891691610a8a9190611116565b6000604051808303816000865af19150503d8060008114610ac7576040519150601f19603f3d011682016040523d82523d6000602084013e610acc565b606091505b5091509150818015610af6575080511580610af6575080806020019051810190610af69190611151565b925050505b949350505050565b6000811580610b1a57506001600160a01b03831630145b15610b2757506001610bf4565b604080516001600160a01b038581166024830152604480830186905283518084039091018152606490920183526020820180516001600160e01b031663a9059cbb60e01b1790529151600092839290881691610b839190611116565b6000604051808303816000865af19150503d8060008114610bc0576040519150601f19603f3d011682016040523d82523d6000602084013e610bc5565b606091505b5091509150818015610bef575080511580610bef575080806020019051810190610bef9190611151565b925050505b9392505050565b6001600160a01b0381168114610c1057600080fd5b50565b600080600080600060a08688031215610c2b57600080fd5b85359450602086013593506040860135610c4481610bfb565b92506060860135610c5481610bfb565b949793965091946080013592915050565b8015158114610c1057600080fd5b600080600080600080600060e0888a031215610c8e57600080fd5b87359650602088013595506040880135610ca781610bfb565b94506060880135610cb781610bfb565b93506080880135925060a0880135610cce81610c65565b915060c0880135610cde81610bfb565b8091505092959891949750929550565b600080600060608486031215610d0357600080fd5b8335610d0e81610bfb565b92506020840135610d1e81610c65565b91506040840135610d2e81610bfb565b809150509250925092565b600060208284031215610d4b57600080fd5b5051919050565b634e487b7160e01b600052601160045260246000fd5b600082821015610d7a57610d7a610d52565b500390565b6040516101e0810167ffffffffffffffff81118282101715610db157634e487b7160e01b600052604160045260246000fd5b60405290565b600060208284031215610dc957600080fd5b6040516020810181811067ffffffffffffffff82111715610dfa57634e487b7160e01b600052604160045260246000fd5b6040529151825250919050565b80516fffffffffffffffffffffffffffffffff81168114610e2757600080fd5b919050565b805164ffffffffff81168114610e2757600080fd5b805161ffff81168114610e2757600080fd5b8051610e2781610bfb565b60006101e08284031215610e7157600080fd5b610e79610d7f565b610e838484610db7565b8152610e9160208401610e07565b6020820152610ea260408401610e07565b6040820152610eb360608401610e07565b6060820152610ec460808401610e07565b6080820152610ed560a08401610e07565b60a0820152610ee660c08401610e2c565b60c0820152610ef760e08401610e41565b60e0820152610100610f0a818501610e53565b90820152610120610f1c848201610e53565b90820152610140610f2e848201610e53565b90820152610160610f40848201610e53565b90820152610180610f52848201610e07565b908201526101a0610f64848201610e07565b908201526101c0610f76848201610e07565b908201529392505050565b60008219821115610f9457610f94610d52565b500190565b60008060008060008060c08789031215610fb257600080fd5b865195506020870151945060408701519350606087015192506080870151915060a087015190509295509295509295565b6000816000190483118215151615610ffd57610ffd610d52565b500290565b60008261101f57634e487b7160e01b600052601260045260246000fd5b500490565b600181815b8085111561105f57816000190482111561104557611045610d52565b8085161561105257918102915b93841c9390800290611029565b509250929050565b60008261107657506001611104565b8161108357506000611104565b816001811461109957600281146110a3576110bf565b6001915050611104565b60ff8411156110b4576110b4610d52565b50506001821b611104565b5060208310610133831016604e8410600b84101617156110e2575081810a611104565b6110ec8383611024565b806000190482111561110057611100610d52565b0290505b92915050565b6000610bf48383611067565b6000825160005b81811015611137576020818601810151858301520161111d565b81811115611146576000828501525b509190910192915050565b60006020828403121561116357600080fd5b8151610bf481610c6556fea264697066735822122087b8445b6397a89bdd581b1c0b7ce3adb6789523937da63db6865733c98b000664736f6c634300080e0033416363657373436f6e74726f6c6c65642f496e76616c69640000000000000000",
    "linkReferences": {}
  },
  "methodIdentifiers": {
    "MGV()": "99fa5e2d",
    "activate(address[])": "5293840d",
    "admin()": "f851a440",
    "approveMangrove(address)": "9f2211cb",
    "approveRouter(address)": "f259cd27",
    "checkList(address[])": "03eb17e2",
    "getMissingProvision(address,address,uint256,uint256,uint256)": "e4c34f84",
    "has_router()": "84b627f9",
    "makerExecute((address,address,uint256,uint256,uint256,uint256,uint256,uint256,uint256))": "6c49c32c",
    "makerPosthook((address,address,uint256,uint256,uint256,uint256,uint256,uint256,uint256),(bytes32,bytes32))": "3d3d130d",
    "newOffer((address,address,uint256,uint256,uint256,uint256,uint256,uint256))": "5486c95f",
    "ofr_gasreq()": "d1baa1ef",
    "reserve()": "cd3293de",
    "retractOffer(address,address,uint256,bool)": "ad97db1b",
    "router()": "f887ea40",
    "set_admin(address)": "e9333fab",
    "set_gasreq(uint256)": "fc488a38",
    "set_reserve(address)": "3d77fcde",
    "set_router(address)": "db11851e",
    "tokenBalance(address)": "eedc966a",
    "updateOffer((address,address,uint256,uint256,uint256,uint256,uint256,uint256))": "10aded60",
    "withdrawFromMangrove(uint256,address)": "7144df24",
    "withdrawToken(address,address,uint256)": "01e33667"
  },
  "id": 87
}