{
  "abi": [
    {
      "inputs": [
        {
          "internalType": "contract IMangrove",
          "name": "_MGV",
          "type": "address"
        },
        {
          "internalType": "address",
          "name": "deployer",
          "type": "address"
        }
      ],
      "stateMutability": "nonpayable",
      "type": "constructor"
    },
    {
      "anonymous": false,
      "inputs": [
        {
          "indexed": true,
          "internalType": "contract IMangrove",
          "name": "mangrove",
          "type": "address"
        },
        {
          "indexed": true,
          "internalType": "address",
          "name": "user",
          "type": "address"
        },
        {
          "indexed": false,
          "internalType": "uint256",
          "name": "amount",
          "type": "uint256"
        }
      ],
      "name": "CreditMgvUser",
      "type": "event"
    },
    {
      "anonymous": false,
      "inputs": [
        {
          "indexed": true,
          "internalType": "contract IMangrove",
          "name": "mangrove",
          "type": "address"
        },
        {
          "indexed": true,
          "internalType": "address",
          "name": "user",
          "type": "address"
        },
        {
          "indexed": false,
          "internalType": "uint256",
          "name": "amount",
          "type": "uint256"
        }
      ],
      "name": "DebitMgvUser",
      "type": "event"
    },
    {
      "anonymous": false,
      "inputs": [
        {
          "indexed": false,
          "internalType": "contract IMangrove",
          "name": "mangrove",
          "type": "address"
        },
        {
          "indexed": true,
          "internalType": "contract IERC20",
          "name": "outbound_tkn",
          "type": "address"
        },
        {
          "indexed": true,
          "internalType": "contract IERC20",
          "name": "inbound_tkn",
          "type": "address"
        },
        {
          "indexed": true,
          "internalType": "uint256",
          "name": "offerId",
          "type": "uint256"
        },
        {
          "indexed": false,
          "internalType": "bytes32",
          "name": "reason",
          "type": "bytes32"
        }
      ],
      "name": "LogIncident",
      "type": "event"
    },
    {
      "anonymous": false,
      "inputs": [
        {
          "indexed": false,
          "internalType": "contract IMangrove",
          "name": "mangrove",
          "type": "address"
        },
        {
          "indexed": true,
          "internalType": "contract IERC20",
          "name": "outbound_tkn",
          "type": "address"
        },
        {
          "indexed": true,
          "internalType": "contract IERC20",
          "name": "inbound_tkn",
          "type": "address"
        },
        {
          "indexed": true,
          "internalType": "uint256",
          "name": "offerId",
          "type": "uint256"
        },
        {
          "indexed": false,
          "internalType": "address",
          "name": "owner",
          "type": "address"
        }
      ],
      "name": "NewOwnedOffer",
      "type": "event"
    },
    {
      "anonymous": false,
      "inputs": [
        {
          "indexed": false,
          "internalType": "contract IMangrove",
          "name": "mangrove",
          "type": "address"
        },
        {
          "indexed": true,
          "internalType": "contract IERC20",
          "name": "base",
          "type": "address"
        },
        {
          "indexed": true,
          "internalType": "contract IERC20",
          "name": "quote",
          "type": "address"
        },
        {
          "indexed": true,
          "internalType": "address",
          "name": "taker",
          "type": "address"
        },
        {
          "indexed": false,
          "internalType": "bool",
          "name": "selling",
          "type": "bool"
        },
        {
          "indexed": false,
          "internalType": "uint256",
          "name": "takerGot",
          "type": "uint256"
        },
        {
          "indexed": false,
          "internalType": "uint256",
          "name": "takerGave",
          "type": "uint256"
        },
        {
          "indexed": false,
          "internalType": "uint256",
          "name": "penalty",
          "type": "uint256"
        },
        {
          "indexed": false,
          "internalType": "uint256",
          "name": "restingOrderId",
          "type": "uint256"
        }
      ],
      "name": "OrderSummary",
      "type": "event"
    },
    {
      "anonymous": false,
      "inputs": [
        {
          "indexed": false,
          "internalType": "uint256",
          "name": "",
          "type": "uint256"
        }
      ],
      "name": "SetGasreq",
      "type": "event"
    },
    {
      "anonymous": false,
      "inputs": [
        {
          "indexed": false,
          "internalType": "contract AbstractRouter",
          "name": "",
          "type": "address"
        }
      ],
      "name": "SetRouter",
      "type": "event"
    },
    {
      "inputs": [],
      "name": "MGV",
      "outputs": [
        {
          "internalType": "contract IMangrove",
          "name": "",
          "type": "address"
        }
      ],
      "stateMutability": "view",
      "type": "function"
    },
    {
      "inputs": [],
      "name": "admin",
      "outputs": [
        {
          "internalType": "address",
          "name": "",
          "type": "address"
        }
      ],
      "stateMutability": "view",
      "type": "function"
    },
    {
      "inputs": [
        {
          "internalType": "contract IERC20",
          "name": "outbound_tkn",
          "type": "address"
        },
        {
          "internalType": "uint256",
          "name": "amount",
          "type": "uint256"
        }
      ],
      "name": "approveMangrove",
      "outputs": [],
      "stateMutability": "nonpayable",
      "type": "function"
    },
    {
      "inputs": [
        {
          "internalType": "contract IERC20",
          "name": "token",
          "type": "address"
        }
      ],
      "name": "approveRouter",
      "outputs": [],
      "stateMutability": "nonpayable",
      "type": "function"
    },
    {
      "inputs": [
        {
          "internalType": "contract IERC20",
          "name": "",
          "type": "address"
        },
        {
          "internalType": "contract IERC20",
          "name": "",
          "type": "address"
        },
        {
          "internalType": "uint256",
          "name": "",
          "type": "uint256"
        }
      ],
      "name": "expiring",
      "outputs": [
        {
          "internalType": "uint256",
          "name": "",
          "type": "uint256"
        }
      ],
      "stateMutability": "view",
      "type": "function"
    },
    {
      "inputs": [
        {
          "internalType": "contract IERC20",
          "name": "outbound_tkn",
          "type": "address"
        },
        {
          "internalType": "contract IERC20",
          "name": "inbound_tkn",
          "type": "address"
        },
        {
          "internalType": "uint256",
          "name": "gasreq",
          "type": "uint256"
        },
        {
          "internalType": "uint256",
          "name": "gasprice",
          "type": "uint256"
        },
        {
          "internalType": "uint256",
          "name": "offerId",
          "type": "uint256"
        }
      ],
      "name": "getMissingProvision",
      "outputs": [
        {
          "internalType": "uint256",
          "name": "",
          "type": "uint256"
        }
      ],
      "stateMutability": "view",
      "type": "function"
    },
    {
      "inputs": [],
      "name": "has_router",
      "outputs": [
        {
          "internalType": "bool",
          "name": "",
          "type": "bool"
        }
      ],
      "stateMutability": "view",
      "type": "function"
    },
    {
      "inputs": [
        {
          "components": [
            {
              "internalType": "address",
              "name": "outbound_tkn",
              "type": "address"
            },
            {
              "internalType": "address",
              "name": "inbound_tkn",
              "type": "address"
            },
            {
              "internalType": "uint256",
              "name": "offerId",
              "type": "uint256"
            },
            {
              "internalType": "t",
              "name": "offer",
              "type": "uint256"
            },
            {
              "internalType": "uint256",
              "name": "wants",
              "type": "uint256"
            },
            {
              "internalType": "uint256",
              "name": "gives",
              "type": "uint256"
            },
            {
              "internalType": "t",
              "name": "offerDetail",
              "type": "uint256"
            },
            {
              "internalType": "t",
              "name": "global",
              "type": "uint256"
            },
            {
              "internalType": "t",
              "name": "local",
              "type": "uint256"
            }
          ],
          "internalType": "struct MgvLib.SingleOrder",
          "name": "order",
          "type": "tuple"
        }
      ],
      "name": "makerExecute",
      "outputs": [
        {
          "internalType": "bytes32",
          "name": "ret",
          "type": "bytes32"
        }
      ],
      "stateMutability": "nonpayable",
      "type": "function"
    },
    {
      "inputs": [
        {
          "components": [
            {
              "internalType": "address",
              "name": "outbound_tkn",
              "type": "address"
            },
            {
              "internalType": "address",
              "name": "inbound_tkn",
              "type": "address"
            },
            {
              "internalType": "uint256",
              "name": "offerId",
              "type": "uint256"
            },
            {
              "internalType": "t",
              "name": "offer",
              "type": "uint256"
            },
            {
              "internalType": "uint256",
              "name": "wants",
              "type": "uint256"
            },
            {
              "internalType": "uint256",
              "name": "gives",
              "type": "uint256"
            },
            {
              "internalType": "t",
              "name": "offerDetail",
              "type": "uint256"
            },
            {
              "internalType": "t",
              "name": "global",
              "type": "uint256"
            },
            {
              "internalType": "t",
              "name": "local",
              "type": "uint256"
            }
          ],
          "internalType": "struct MgvLib.SingleOrder",
          "name": "order",
          "type": "tuple"
        },
        {
          "components": [
            {
              "internalType": "bytes32",
              "name": "makerData",
              "type": "bytes32"
            },
            {
              "internalType": "bytes32",
              "name": "mgvData",
              "type": "bytes32"
            }
          ],
          "internalType": "struct MgvLib.OrderResult",
          "name": "result",
          "type": "tuple"
        }
      ],
      "name": "makerPosthook",
      "outputs": [],
      "stateMutability": "nonpayable",
      "type": "function"
    },
    {
      "inputs": [
        {
          "components": [
            {
              "internalType": "contract IERC20",
              "name": "outbound_tkn",
              "type": "address"
            },
            {
              "internalType": "contract IERC20",
              "name": "inbound_tkn",
              "type": "address"
            },
            {
              "internalType": "uint256",
              "name": "wants",
              "type": "uint256"
            },
            {
              "internalType": "uint256",
              "name": "gives",
              "type": "uint256"
            },
            {
              "internalType": "uint256",
              "name": "gasreq",
              "type": "uint256"
            },
            {
              "internalType": "uint256",
              "name": "gasprice",
              "type": "uint256"
            },
            {
              "internalType": "uint256",
              "name": "pivotId",
              "type": "uint256"
            },
            {
              "internalType": "uint256",
              "name": "offerId",
              "type": "uint256"
            }
          ],
          "internalType": "struct IOfferLogic.MakerOrder",
          "name": "mko",
          "type": "tuple"
        }
      ],
      "name": "newOffer",
      "outputs": [
        {
          "internalType": "uint256",
          "name": "offerId",
          "type": "uint256"
        }
      ],
      "stateMutability": "payable",
      "type": "function"
    },
    {
      "inputs": [
        {
          "internalType": "contract IERC20",
          "name": "outbound_tkn",
          "type": "address"
        },
        {
          "internalType": "contract IERC20",
          "name": "inbound_tkn",
          "type": "address"
        },
        {
          "internalType": "uint256[]",
          "name": "offerIds",
          "type": "uint256[]"
        }
      ],
      "name": "offerOwners",
      "outputs": [
        {
          "internalType": "address[]",
          "name": "_offerOwners",
          "type": "address[]"
        }
      ],
      "stateMutability": "view",
      "type": "function"
    },
    {
      "inputs": [
        {
          "internalType": "address",
          "name": "owner",
          "type": "address"
        },
        {
          "internalType": "contract IERC20",
          "name": "outbound_tkn",
          "type": "address"
        },
        {
          "internalType": "contract IERC20",
          "name": "inbound_tkn",
          "type": "address"
        }
      ],
      "name": "offersOfOwner",
      "outputs": [
        {
          "internalType": "uint256[]",
          "name": "live",
          "type": "uint256[]"
        },
        {
          "internalType": "uint256[]",
          "name": "dead",
          "type": "uint256[]"
        }
      ],
      "stateMutability": "view",
      "type": "function"
    },
    {
      "inputs": [],
      "name": "ofr_gasreq",
      "outputs": [
        {
          "internalType": "uint256",
          "name": "",
          "type": "uint256"
        }
      ],
      "stateMutability": "view",
      "type": "function"
    },
    {
      "inputs": [
        {
          "internalType": "contract IERC20",
          "name": "outbound_tkn",
          "type": "address"
        },
        {
          "internalType": "contract IERC20",
          "name": "inbound_tkn",
          "type": "address"
        },
        {
          "internalType": "uint256",
          "name": "offerId",
          "type": "uint256"
        }
      ],
      "name": "ownerOf",
      "outputs": [
        {
          "internalType": "address",
          "name": "owner",
          "type": "address"
        }
      ],
      "stateMutability": "view",
      "type": "function"
    },
    {
      "inputs": [
        {
          "internalType": "contract IERC20",
          "name": "outbound_tkn",
          "type": "address"
        },
        {
          "internalType": "contract IERC20",
          "name": "inbound_tkn",
          "type": "address"
        },
        {
          "internalType": "uint256",
          "name": "offerId",
          "type": "uint256"
        },
        {
          "internalType": "bool",
          "name": "deprovision",
          "type": "bool"
        }
      ],
      "name": "retractOffer",
      "outputs": [
        {
          "internalType": "uint256",
          "name": "free_wei",
          "type": "uint256"
        }
      ],
      "stateMutability": "nonpayable",
      "type": "function"
    },
    {
      "inputs": [],
      "name": "router",
      "outputs": [
        {
          "internalType": "contract AbstractRouter",
          "name": "",
          "type": "address"
        }
      ],
      "stateMutability": "view",
      "type": "function"
    },
    {
      "inputs": [
        {
          "internalType": "address",
          "name": "_admin",
          "type": "address"
        }
      ],
      "name": "setAdmin",
      "outputs": [],
      "stateMutability": "nonpayable",
      "type": "function"
    },
    {
      "inputs": [
        {
          "internalType": "uint256",
          "name": "gasreq",
          "type": "uint256"
        }
      ],
      "name": "set_gasreq",
      "outputs": [],
      "stateMutability": "nonpayable",
      "type": "function"
    },
    {
      "inputs": [
        {
          "internalType": "contract AbstractRouter",
          "name": "router_",
          "type": "address"
        }
      ],
      "name": "set_router",
      "outputs": [],
      "stateMutability": "nonpayable",
      "type": "function"
    },
    {
      "inputs": [
        {
          "components": [
            {
              "internalType": "contract IERC20",
              "name": "base",
              "type": "address"
            },
            {
              "internalType": "contract IERC20",
              "name": "quote",
              "type": "address"
            },
            {
              "internalType": "bool",
              "name": "partialFillNotAllowed",
              "type": "bool"
            },
            {
              "internalType": "bool",
              "name": "selling",
              "type": "bool"
            },
            {
              "internalType": "uint256",
              "name": "wants",
              "type": "uint256"
            },
            {
              "internalType": "uint256",
              "name": "makerWants",
              "type": "uint256"
            },
            {
              "internalType": "uint256",
              "name": "gives",
              "type": "uint256"
            },
            {
              "internalType": "uint256",
              "name": "makerGives",
              "type": "uint256"
            },
            {
              "internalType": "bool",
              "name": "restingOrder",
              "type": "bool"
            },
            {
              "internalType": "uint256",
              "name": "retryNumber",
              "type": "uint256"
            },
            {
              "internalType": "uint256",
              "name": "gasForMarketOrder",
              "type": "uint256"
            },
            {
              "internalType": "uint256",
              "name": "blocksToLiveForRestingOrder",
              "type": "uint256"
            }
          ],
          "internalType": "struct IOrderLogic.TakerOrder",
          "name": "tko",
          "type": "tuple"
        }
      ],
      "name": "take",
      "outputs": [
        {
          "components": [
            {
              "internalType": "uint256",
              "name": "takerGot",
              "type": "uint256"
            },
            {
              "internalType": "uint256",
              "name": "takerGave",
              "type": "uint256"
            },
            {
              "internalType": "uint256",
              "name": "bounty",
              "type": "uint256"
            },
            {
              "internalType": "uint256",
              "name": "fee",
              "type": "uint256"
            },
            {
              "internalType": "uint256",
              "name": "offerId",
              "type": "uint256"
            }
          ],
          "internalType": "struct IOrderLogic.TakerOrderResult",
          "name": "res",
          "type": "tuple"
        }
      ],
      "stateMutability": "payable",
      "type": "function"
    },
    {
      "inputs": [
        {
          "internalType": "contract IERC20",
          "name": "token",
          "type": "address"
        }
      ],
      "name": "tokenBalance",
      "outputs": [
        {
          "internalType": "uint256",
          "name": "",
          "type": "uint256"
        }
      ],
      "stateMutability": "view",
      "type": "function"
    },
    {
      "inputs": [
        {
          "components": [
            {
              "internalType": "contract IERC20",
              "name": "outbound_tkn",
              "type": "address"
            },
            {
              "internalType": "contract IERC20",
              "name": "inbound_tkn",
              "type": "address"
            },
            {
              "internalType": "uint256",
              "name": "wants",
              "type": "uint256"
            },
            {
              "internalType": "uint256",
              "name": "gives",
              "type": "uint256"
            },
            {
              "internalType": "uint256",
              "name": "gasreq",
              "type": "uint256"
            },
            {
              "internalType": "uint256",
              "name": "gasprice",
              "type": "uint256"
            },
            {
              "internalType": "uint256",
              "name": "pivotId",
              "type": "uint256"
            },
            {
              "internalType": "uint256",
              "name": "offerId",
              "type": "uint256"
            }
          ],
          "internalType": "struct IOfferLogic.MakerOrder",
          "name": "mko",
          "type": "tuple"
        }
      ],
      "name": "updateOffer",
      "outputs": [],
      "stateMutability": "payable",
      "type": "function"
    },
    {
      "inputs": [
        {
          "internalType": "uint256",
          "name": "amount",
          "type": "uint256"
        },
        {
          "internalType": "address",
          "name": "receiver",
          "type": "address"
        }
      ],
      "name": "withdrawFromMangrove",
      "outputs": [],
      "stateMutability": "nonpayable",
      "type": "function"
    },
    {
      "inputs": [
        {
          "internalType": "contract IERC20",
          "name": "token",
          "type": "address"
        },
        {
          "internalType": "address",
          "name": "receiver",
          "type": "address"
        },
        {
          "internalType": "uint256",
          "name": "amount",
          "type": "uint256"
        }
      ],
      "name": "withdrawToken",
      "outputs": [
        {
          "internalType": "bool",
          "name": "success",
          "type": "bool"
        }
      ],
      "stateMutability": "nonpayable",
      "type": "function"
    },
    {
      "stateMutability": "payable",
      "type": "receive"
    }
  ],
  "bytecode": {
    "object": "0x60a06040523480156200001157600080fd5b506040516200576a3803806200576a833981016040819052620000349162000612565b8181816040516200004590620005eb565b604051809103906000f08015801562000062573d6000803e3d6000fd5b5062015f9082828282813380620000c05760405162461bcd60e51b815260206004820152601860248201527f616363657373436f6e74726f6c6c65642f307841646d696e000000000000000060448201526064015b60405180910390fd5b80620000d66200026960201b620028d11760201c565b80546001600160a01b0319166001600160a01b03929092169190911790555062ffffff811681146200014b5760405162461bcd60e51b815260206004820152601b60248201527f4d616e67726f76654f666665722f676173726571546f6f4869676800000000006044820152606401620000b7565b6001600160a01b038216608052806200016f6200028d602090811b620028f517901c565b5550506001600160a01b038216620001bf5760405162461bcd60e51b815260206004820152601260248201527126bab63a34aab9b2b917983c2937baba32b960711b6044820152606401620000b7565b620001ca82620002b1565b505050505050336001600160a01b0316816001600160a01b0316146200025f57620001f5816200045b565b620001ff62000556565b604051633825b60160e11b81526001600160a01b038381166004830152919091169063704b6c0290602401600060405180830381600087803b1580156200024557600080fd5b505af11580156200025a573d6000803e3d6000fd5b505050505b5050505062000651565b7f7d382ebca3e46505071795e192d28166a3d4bd0685585591bc6c5b8df6769fd290565b7fae7e31c3220e851db9f204a28b279dfe52b973600b0a456991089c220ae7222490565b620002bb620005c5565b6001600160a01b0316336001600160a01b03161480620002ee57506080516001600160a01b0316336001600160a01b0316145b6200033c5760405162461bcd60e51b815260206004820152601860248201527f416363657373436f6e74726f6c6c65642f496e76616c696400000000000000006044820152606401620000b7565b6001600160a01b038116620003945760405162461bcd60e51b815260206004820152601c60248201527f6d67764f666665722f7365745f726f757465722f3078526f75746572000000006044820152606401620000b7565b80620003aa6200028d60201b620028f51760201c565b60010180546001600160a01b0319166001600160a01b039283161790556040516381bac14f60e01b8152306004820152908216906381bac14f90602401600060405180830381600087803b1580156200040257600080fd5b505af115801562000417573d6000803e3d6000fd5b50506040516001600160a01b03841681527f6de4326a8b9054d72d9dbab97d27bc4edffadee7d966f5af9cc4eafdaf8e54559250602001905060405180910390a150565b62000465620005c5565b6001600160a01b0316336001600160a01b031614620004c75760405162461bcd60e51b815260206004820152601860248201527f416363657373436f6e74726f6c6c65642f496e76616c696400000000000000006044820152606401620000b7565b6001600160a01b0381166200051f5760405162461bcd60e51b815260206004820152601860248201527f416363657373436f6e74726f6c6c65642f307841646d696e00000000000000006044820152606401620000b7565b80620005356200026960201b620028d11760201c565b80546001600160a01b0319166001600160a01b039290921691909117905550565b6000806200056e6200028d60201b620028f51760201c565b600101546001600160a01b0316905080620005c05760405162461bcd60e51b815260206004820152601160248201527036b3bb27b33332b917983c2937baba32b960791b6044820152606401620000b7565b919050565b6000620005dc6200026960201b620028d11760201c565b546001600160a01b0316919050565b610e25806200494583390190565b6001600160a01b03811681146200060f57600080fd5b50565b600080604083850312156200062657600080fd5b82516200063381620005f9565b60208401519092506200064681620005f9565b809150509250929050565b6080516141ff620007466000396000818161032e015281816106840152818161087d01528181610a2001528181610ade01528181610d110152818161108c0152818161152e015281816115b4015281816118020152818161185e015281816118f001528181611b7a01528181611c3501528181611cda01528181611e9d01528181611ef201528181612085015281816122910152818161232e0152818161248e015281816125d901528181612805015281816129af01528181612a3801528181612aca01528181612d6401528181612f36015281816130750152818161329e015281816133b70152613a9701526141ff6000f3fe60806040526004361061014f5760003560e01c8063ad97db1b116100b6578063eedc966a1161006f578063eedc966a1461042a578063f259cd271461044a578063f851a4401461046a578063f887ea401461047f578063f92495e514610494578063fc488a38146104b457600080fd5b8063ad97db1b14610368578063aefe840314610388578063d1baa1ef146103a8578063db11851e146103bd578063dec8c86b146103dd578063e4c34f841461040a57600080fd5b80636a1c7d05116101085780636a1c7d05146102525780636c49c32c146102a7578063704b6c02146102c75780637144df24146102e757806384b627f91461030757806399fa5e2d1461031c57600080fd5b806301e336671461015b57806310aded601461019057806337b966bf146101a55780633d3d130d146101d35780634e7effa8146101f35780635486c95f1461023f57600080fd5b3661015657005b600080fd5b34801561016757600080fd5b5061017b610176366004613b3e565b6104d4565b60405190151581526020015b60405180910390f35b6101a361019e366004613b7f565b6105d1565b005b3480156101b157600080fd5b506101c56101c0366004613b92565b610638565b604051610187929190613c18565b3480156101df57600080fd5b506101a36101ee366004613c59565b610a1e565b3480156101ff57600080fd5b5061023161020e366004613b3e565b600160209081526000938452604080852082529284528284209052825290205481565b604051908152602001610187565b61023161024d366004613b7f565b610b47565b610265610260366004613c9c565b610b68565b6040516101879190600060a082019050825182526020830151602083015260408301516040830152606083015160608301526080830151608083015292915050565b3480156102b357600080fd5b506102316102c2366004613caf565b6115b0565b3480156102d357600080fd5b506101a36102e2366004613ccc565b61171d565b3480156102f357600080fd5b506101a3610302366004613ce9565b6117d5565b34801561031357600080fd5b5061017b611afc565b34801561032857600080fd5b506103507f000000000000000000000000000000000000000000000000000000000000000081565b6040516001600160a01b039091168152602001610187565b34801561037457600080fd5b50610231610383366004613d27565b611b1b565b34801561039457600080fd5b506101a36103a3366004613d7a565b611e70565b3480156103b457600080fd5b50610231611fba565b3480156103c957600080fd5b506101a36103d8366004613ccc565b612058565b3480156103e957600080fd5b506103fd6103f8366004613da6565b6121d2565b6040516101879190613e3b565b34801561041657600080fd5b50610231610425366004613e88565b612283565b34801561043657600080fd5b50610231610445366004613ccc565b612530565b34801561045657600080fd5b506101a3610465366004613ccc565b6125ac565b34801561047657600080fd5b506103506126ec565b34801561048b57600080fd5b50610350612705565b3480156104a057600080fd5b506103506104af366004613b3e565b612765565b3480156104c057600080fd5b506101a36104cf366004613ed9565b6127d8565b60006001600160a01b03831661053c5760405162461bcd60e51b815260206004820152602260248201527f4d756c7469557365722f7769746864726177546f6b656e2f307852656365697660448201526132b960f11b60648201526084015b60405180910390fd5b610544612705565b6040516310baa6cf60e11b81526001600160a01b03868116600483015233602483015285811660448301526064820185905291909116906321754d9e906084016020604051808303816000875af11580156105a3573d6000803e3d6000fd5b505050506040513d601f19601f820116820180604052508101906105c79190613ef2565b90505b9392505050565b6105e96105e336839003830183613f25565b34612919565b6106355760405162461bcd60e51b815260206004820152601960248201527f4d756c7469557365722f7570646174654f666665724661696c000000000000006044820152606401610533565b50565b6001600160a01b0380831660009081526002602090815260408083208585168452825280832093871683529281528282208280529052908120546060918291908190805b82156107df577f00000000000000000000000000000000000000000000000000000000000000006001600160a01b03166327507458816368c13d6b8b8b886040518463ffffffff1660e01b81526004016106d893929190613fd1565b602060405180830381865afa1580156106f5573d6000803e3d6000fd5b505050506040513d601f19601f820116820180604052508101906107199190613ff5565b6040518263ffffffff1660e01b815260040161073791815260200190565b602060405180830381865afa158015610754573d6000803e3d6000fd5b505050506040513d601f19601f820116820180604052508101906107789190613ef2565b1561078f578161078781614024565b92505061079d565b8061079981614024565b9150505b6001600160a01b0380891660009081526002602090815260408083208b851684528252808320938d16835292815282822095825294909452909220549161067c565b8167ffffffffffffffff8111156107f8576107f8613f0f565b604051908082528060200260200182016040528015610821578160200160208202803683370190505b5095508067ffffffffffffffff81111561083d5761083d613f0f565b604051908082528060200260200182016040528015610866578160200160208202803683370190505b50945083925060009150600090505b8215610a12577f00000000000000000000000000000000000000000000000000000000000000006001600160a01b03166327507458816368c13d6b8b8b886040518463ffffffff1660e01b81526004016108d193929190613fd1565b602060405180830381865afa1580156108ee573d6000803e3d6000fd5b505050506040513d601f19601f820116820180604052508101906109129190613ff5565b6040518263ffffffff1660e01b815260040161093091815260200190565b602060405180830381865afa15801561094d573d6000803e3d6000fd5b505050506040513d601f19601f820116820180604052508101906109719190613ef2565b156109a55782868361098281614024565b9450815181106109945761099461403d565b6020026020010181815250506109d0565b8285826109b181614024565b9350815181106109c3576109c361403d565b6020026020010181815250505b6001600160a01b0380891660009081526002602090815260408083208b851684528252808320938d168352928152828220958252949094529092205491610875565b50505050935093915050565b7f00000000000000000000000000000000000000000000000000000000000000006001600160a01b0381161580610a5d5750336001600160a01b038216145b610a795760405162461bcd60e51b815260040161053390614053565b81602001356f6d67762f74726164655375636365737360801b03610aa657610aa083612e67565b50505050565b60408301803590610aba9060208601613ccc565b6001600160a01b0316610ad06020860186613ccc565b604080516001600160a01b037f0000000000000000000000000000000000000000000000000000000000000000811682528735602083015292909216917f736a3993b9f8b1c5603896c76376792887f376b1fe7fc981e09a16530bf1e4e0910160405180910390a4610aa08383612ea5565b505050565b6000610b62610b5b36849003840184613f25565b3334613269565b92915050565b610b9a6040518060a0016040528060008152602001600081526020016000815260200160008152602001600081525090565b600080610bad608085016060860161408a565b610bd357610bbe6020850185613ccc565b610bce6040860160208701613ccc565b610bf0565b610be36040850160208601613ccc565b610bf06020860186613ccc565b915091506000610bfe612705565b6001600160a01b031663333dbb0d83338860c0013560016040518563ffffffff1660e01b8152600401610c3494939291906140a7565b6020604051808303816000875af1158015610c53573d6000803e3d6000fd5b505050506040513d601f19601f82011682018060405250810190610c779190613ff5565b90508460c001358114610ccc5760405162461bcd60e51b815260206004820152601a60248201527f6d67764f726465722f6d6f2f7472616e73666572496e4661696c0000000000006044820152606401610533565b60005b610cdf61012087013560016140d0565b811015610e7d5761014086013515801590610cfe57508561014001355a105b610e7d5760008080806001600160a01b037f00000000000000000000000000000000000000000000000000000000000000001663fbffe5fd89898d608001358e60c001358f6060016020810190610d55919061408a565b610d60576001610d63565b60005b6040516001600160e01b031960e088901b1681526001600160a01b039586166004820152949093166024850152604484019190915260648301521515608482015260a4016080604051808303816000875af1158015610dc6573d6000803e3d6000fd5b505050506040513d601f19601f82011682018060405250810190610dea91906140e8565b93509350935093508389600001818151610e0491906140d0565b905250602089018051849190610e1b9083906140d0565b905250604089018051839190610e329083906140d0565b905250606089018051829190610e499083906140d0565b90525083158015610e58575081155b15610e665750505050610e7d565b505050508080610e7590614024565b915050610ccf565b506000610e8a86866134d3565b9050610e9c606087016040880161408a565b1580610ea55750805b80610ebd5750610ebd6101208701610100880161408a565b610f055760405162461bcd60e51b81526020600482015260196024820152781b59dd93dc99195c8bdb5bcbdb9bd4185c9d1a585b119a5b1b603a1b6044820152606401610533565b845115610f7957610f14612705565b855160405163137476d160e11b81526001600160a01b0392909216916326e8eda291610f469188913391600401613fd1565b600060405180830381600087803b158015610f6057600080fd5b505af1158015610f74573d6000803e3d6000fd5b505050505b610f8b6101208701610100880161408a565b8015610f95575080155b1561137c5760408051610100810182526001600160a01b038086168252861660208201526060870151875161102393830191610fd0916140d0565b610fde9060a08b013561411e565b815260200187602001518960e00135610ff7919061411e565b8152602001611004611fba565b8152602001600081526020016000815260200160008152503334613269565b608086018190526110399033908590879061351c565b3361104a6040880160208901613ccc565b6001600160a01b03166110606020890189613ccc565b6001600160a01b03167f587734843819064f2153f96c808d1aeacaceccfa595ec4b9ed484c4bff687f7c7f00000000000000000000000000000000000000000000000000000000000000006110bb60808c0160608d0161408a565b8a5160208c01516040808e015160808f0151915161110b9695949392906001600160a01b03969096168652931515602086015260408501929092526060840152608083015260a082015260c00190565b60405180910390a484608001516000036112ab5761112f606087016040880161408a565b156111785760405162461bcd60e51b81526020600482015260196024820152781b59dd93dc99195c8bdb5bcbdb9bd4185c9d1a585b119a5b1b603a1b6044820152606401610533565b611196833387602001518960c00135611191919061411e565b6135a1565b6111e25760405162461bcd60e51b815260206004820152601a60248201527f6d67764f726465722f6d6f2f7472616e73666572496e4661696c0000000000006044820152606401610533565b60008560400151346111f491906140d0565b11156112a2576040850151600090339061120e90346140d0565b604051600081818185875af1925050503d806000811461124a576040519150601f19603f3d011682016040523d82523d6000602084013e61124f565b606091505b50509050806112a05760405162461bcd60e51b815260206004820152601f60248201527f6d67764f726465722f6d6f2f726566756e6450726f766973696f6e4661696c006044820152606401610533565b505b50505050919050565b6112b3612705565b6001600160a01b03166326e8eda2843388602001518a60c001356112d7919061411e565b6040518463ffffffff1660e01b81526004016112f593929190613fd1565b600060405180830381600087803b15801561130f57600080fd5b505af1158015611323573d6000803e3d6000fd5b50505050610160860135156112a257611341610160870135436140d0565b6001600160a01b038085166000908152600160209081526040808320938916835292815282822060808a015183529052205550505050919050565b611384612705565b6001600160a01b03166326e8eda2843388602001518a60c001356113a8919061411e565b6040518463ffffffff1660e01b81526004016113c693929190613fd1565b600060405180830381600087803b1580156113e057600080fd5b505af11580156113f4573d6000803e3d6000fd5b50505050600085604001513461140a91906140d0565b11156114db57611418612705565b6001600160a01b031663d7c153a886604001513461143691906140d0565b6040516001600160e01b031960e084901b16815233600482015260240160206040518083038185885af1158015611471573d6000803e3d6000fd5b50505050506040513d601f19601f820116820180604052508101906114969190613ef2565b6114db5760405162461bcd60e51b81526020600482015260166024820152751b59dd93dc99195c8bdb5bcbdc99599d5b9911985a5b60521b6044820152606401610533565b336114ec6040880160208901613ccc565b6001600160a01b03166115026020890189613ccc565b6001600160a01b03167f587734843819064f2153f96c808d1aeacaceccfa595ec4b9ed484c4bff687f7c7f000000000000000000000000000000000000000000000000000000000000000061155d60808c0160608d0161408a565b8a516020808d01516040808f015181516001600160a01b039097168752941515928601929092529084019190915260608301526080820152600060a082015260c00160405180910390a450505050919050565b60007f00000000000000000000000000000000000000000000000000000000000000006001600160a01b03811615806115f15750336001600160a01b038216145b61160d5760405162461bcd60e51b815260040161053390614053565b61161683613697565b61165b5760405162461bcd60e51b81526020600482015260166024820152751b59dd93d999995c8bd8589bdc9d0bdc995b9959d95960521b6044820152606401610533565b600061166b8460a001358561371c565b11156116b95760405162461bcd60e51b815260206004820152601860248201527f6d67764f666665722f61626f72742f7075744661696c656400000000000000006044820152606401610533565b60006116c98460800135856137ca565b11156117175760405162461bcd60e51b815260206004820152601860248201527f6d67764f666665722f61626f72742f6765744661696c656400000000000000006044820152606401610533565b50919050565b6117256126ec565b6001600160a01b0316336001600160a01b0316146117555760405162461bcd60e51b815260040161053390614053565b6001600160a01b0381166117ab5760405162461bcd60e51b815260206004820152601860248201527f416363657373436f6e74726f6c6c65642f307841646d696e00000000000000006044820152606401610533565b806117b46128d1565b80546001600160a01b0319166001600160a01b039290921691909117905550565b6117dd6126ec565b6001600160a01b0316336001600160a01b031614806118245750336001600160a01b037f000000000000000000000000000000000000000000000000000000000000000016145b6118405760405162461bcd60e51b815260040161053390614053565b60001982036118da576040516370a0823160e01b81523060048201527f00000000000000000000000000000000000000000000000000000000000000006001600160a01b0316906370a0823190602401602060405180830381865afa1580156118ad573d6000803e3d6000fd5b505050506040513d601f19601f820116820180604052508101906118d19190613ff5565b91508115611af8575b604051632e1a7d4d60e01b8152600481018390527f00000000000000000000000000000000000000000000000000000000000000006001600160a01b031690632e1a7d4d906024016020604051808303816000875af1158015611941573d6000803e3d6000fd5b505050506040513d601f19601f820116820180604052508101906119659190613ef2565b6119bf5760405162461bcd60e51b815260206004820152602560248201527f6d67764f666665722f776974686472617746726f6d4d67762f776974686472616044820152641dd1985a5b60da1b6064820152608401610533565b6119c7611afc565b15611a44576119d4612705565b604051631af82a7560e31b81526001600160a01b038381166004830152919091169063d7c153a890849060240160206040518083038185885af1158015611a1f573d6000803e3d6000fd5b50505050506040513d601f19601f82011682018060405250810190610b429190613ef2565b6000816001600160a01b03168360405160006040518083038185875af1925050503d8060008114611a91576040519150601f19603f3d011682016040523d82523d6000602084013e611a96565b606091505b5050905080610b425760405162461bcd60e51b815260206004820152602860248201527f6d67764f666665722f776974686472617746726f6d4d67762f70617961626c6560448201526710d85b1b11985a5b60c21b6064820152608401610533565b5050565b600080611b076128f5565b600101546001600160a01b03161415919050565b6001600160a01b03848116600090815260208181526040808320878516845282528083208684528252808320815180830190925254938416808252600160a01b9094046001600160601b0316918101919091529091331480611ba557507f00000000000000000000000000000000000000000000000000000000000000006001600160a01b031633145b611bf15760405162461bcd60e51b815260206004820152601f60248201527f4d756c74692f726574726163744f666665722f756e617574686f72697a6564006044820152606401610533565b60208101516001600160601b031615611c265782611c10576000611c16565b80602001515b6001600160601b03169150611cbe565b60405163ad97db1b60e01b81527f00000000000000000000000000000000000000000000000000000000000000006001600160a01b03169063ad97db1b90611c789089908990899089906004016140a7565b6020604051808303816000875af1158015611c97573d6000803e3d6000fd5b505050506040513d601f19601f82011682018060405250810190611cbb9190613ff5565b91505b8115611e6757604051632e1a7d4d60e01b8152600481018390527f00000000000000000000000000000000000000000000000000000000000000006001600160a01b031690632e1a7d4d906024016020604051808303816000875af1158015611d2b573d6000803e3d6000fd5b505050506040513d601f19601f82011682018060405250810190611d4f9190613ef2565b611d945760405162461bcd60e51b8152602060048201526016602482015275135d5b1d1a555cd95c8bddda5d1a191c985dd1985a5b60521b6044820152606401610533565b60408051808201825282516001600160a01b039081168252600060208084018281528b841683528282528583208b8516845282528583208a8452909152939020915192516001600160601b0316600160a01b029216919091179055611df7612705565b604051631af82a7560e31b81523360048201526001600160a01b03919091169063d7c153a890849060240160206040518083038185885af1158015611e40573d6000803e3d6000fd5b50505050506040513d601f19601f82011682018060405250810190611e659190613ef2565b505b50949350505050565b611e786126ec565b6001600160a01b0316336001600160a01b03161480611ebf5750336001600160a01b037f000000000000000000000000000000000000000000000000000000000000000016145b611edb5760405162461bcd60e51b815260040161053390614053565b60405163095ea7b360e01b81526001600160a01b037f0000000000000000000000000000000000000000000000000000000000000000811660048301526024820183905283169063095ea7b3906044016020604051808303816000875af1158015611f4a573d6000803e3d6000fd5b505050506040513d601f19601f82011682018060405250810190611f6e9190613ef2565b611af85760405162461bcd60e51b815260206004820152601d60248201527f6d67764f666665722f617070726f76654d616e67726f76652f4661696c0000006044820152606401610533565b6000611fc4611afc565b1561204a57611fd1612705565b6001600160a01b0316630417ffda6040518163ffffffff1660e01b8152600401602060405180830381865afa15801561200e573d6000803e3d6000fd5b505050506040513d601f19601f820116820180604052508101906120329190613ff5565b61203a6128f5565b5461204591906140d0565b905090565b6120526128f5565b54919050565b6120606126ec565b6001600160a01b0316336001600160a01b031614806120a75750336001600160a01b037f000000000000000000000000000000000000000000000000000000000000000016145b6120c35760405162461bcd60e51b815260040161053390614053565b6001600160a01b0381166121195760405162461bcd60e51b815260206004820152601c60248201527f6d67764f666665722f7365745f726f757465722f3078526f75746572000000006044820152606401610533565b806121226128f5565b60010180546001600160a01b0319166001600160a01b039283161790556040516381bac14f60e01b8152306004820152908216906381bac14f90602401600060405180830381600087803b15801561217957600080fd5b505af115801561218d573d6000803e3d6000fd5b50506040516001600160a01b03841681527f6de4326a8b9054d72d9dbab97d27bc4edffadee7d966f5af9cc4eafdaf8e5455925060200190505b60405180910390a150565b60608167ffffffffffffffff8111156121ed576121ed613f0f565b604051908082528060200260200182016040528015612216578160200160208202803683370190505b50905060005b82811015611e6757612247868686868581811061223b5761223b61403d565b90506020020135612765565b8282815181106122595761225961403d565b6001600160a01b03909216602092830291909101909101528061227b81614024565b91505061221c565b600080806001600160a01b037f00000000000000000000000000000000000000000000000000000000000000001663cbf75c9a89896040516001600160e01b031960e085901b1681526001600160a01b039283166004820152911660248201526044016040805180830381865afa158015612302573d6000803e3d6000fd5b505050506040513d601f19601f820116820180604052508101906123269190614135565b9150915060007f00000000000000000000000000000000000000000000000000000000000000006001600160a01b0316635722647b6123628b90565b8a886040518463ffffffff1660e01b815260040161238293929190613fd1565b602060405180830381865afa15801561239f573d6000803e3d6000fd5b505050506040513d601f19601f820116820180604052508101906123c39190613ff5565b9050600086604085901c61ffff1611156123e6575061ffff604084901c166123e9565b50855b62ffffff88106123fe576123fb611fba565b97505b60008161241462ffffff606087901c168b6140d0565b61241e9190614159565b61242c90633b9aca00614159565b9050600061ffff602085901c1661245362ffffff603087901c811690604888901c166140d0565b61245d9190614159565b61246b90633b9aca00614159565b6040516370a0823160e01b81523060048201529091506000906001600160a01b037f000000000000000000000000000000000000000000000000000000000000000016906370a0823190602401602060405180830381865afa1580156124d5573d6000803e3d6000fd5b505050506040513d601f19601f820116820180604052508101906124f99190613ff5565b61250390836140d0565b90508281101561251c57612517818461411e565b61251f565b60005b9d9c50505050505050505050505050565b600061253a612705565b6040516302b427ef60e11b81526001600160a01b03848116600483015233602483015291909116906305684fde90604401602060405180830381865afa158015612588573d6000803e3d6000fd5b505050506040513d601f19601f82011682018060405250810190610b629190613ff5565b6125b46126ec565b6001600160a01b0316336001600160a01b031614806125fb5750336001600160a01b037f000000000000000000000000000000000000000000000000000000000000000016145b6126175760405162461bcd60e51b815260040161053390614053565b806001600160a01b031663095ea7b361262e612705565b6040516001600160e01b031960e084901b1681526001600160a01b03909116600482015260001960248201526044016020604051808303816000875af115801561267c573d6000803e3d6000fd5b505050506040513d601f19601f820116820180604052508101906126a09190613ef2565b6106355760405162461bcd60e51b815260206004820152601b60248201527f6d67764f666665722f617070726f7665526f757465722f4661696c00000000006044820152606401610533565b60006126f66128d1565b546001600160a01b0316919050565b6000806127106128f5565b600101546001600160a01b03169050806127605760405162461bcd60e51b815260206004820152601160248201527036b3bb27b33332b917983c2937baba32b960791b6044820152606401610533565b919050565b6001600160a01b038084166000908152602081815260408083208685168452825280832085845290915290205416806105ca5760405162461bcd60e51b815260206004820152601560248201527436bab63a34aab9b2b917bab735b7bbb727b33332b960591b6044820152606401610533565b6127e06126ec565b6001600160a01b0316336001600160a01b031614806128275750336001600160a01b037f000000000000000000000000000000000000000000000000000000000000000016145b6128435760405162461bcd60e51b815260040161053390614053565b808162ffffff16146128975760405162461bcd60e51b815260206004820152601860248201527f6d67764f666665722f6761737265712f6f766572666c6f7700000000000000006044820152606401610533565b806128a06128f5565b556040518181527fafef3ad374c0b972e3c793be825735801fa05cc4c67157d98d9a111b4027988d906020016121c7565b7f7d382ebca3e46505071795e192d28166a3d4bd0685585591bc6c5b8df6769fd290565b7fae7e31c3220e851db9f204a28b279dfe52b973600b0a456991089c220ae7222490565b81516001600160a01b039081166000908152602081815260408083208287015185168452825280832060e0870151845282528083208151808301835290549485168152600160a01b9094046001600160601b031684830152805160808101825283815291820183905281018290526060810182905290919081516001600160a01b03163314806129d15750336001600160a01b037f000000000000000000000000000000000000000000000000000000000000000016145b612a1d5760405162461bcd60e51b815260206004820152601e60248201527f4d756c74692f7570646174654f666665722f756e617574686f72697a656400006044820152606401610533565b8451602086015160e0870151604051635722647b60e01b81527f00000000000000000000000000000000000000000000000000000000000000006001600160a01b031693635722647b93612a78939192909190600401613fd1565b602060405180830381865afa158015612a95573d6000803e3d6000fd5b505050506040513d601f19601f82011682018060405250810190612ab99190613ff5565b604082015284516001600160a01b037f0000000000000000000000000000000000000000000000000000000000000000169063cbf75c9a9060208801516040516001600160e01b031960e085901b1681526001600160a01b039283166004820152911660248201526044016040805180830381865afa158015612b40573d6000803e3d6000fd5b505050506040513d601f19601f82011682018060405250810190612b649190614135565b6020830152815260608101849052608085015162ffffff10612b8a578460800151612b92565b612b92611fba565b6080860152604081015160201c61ffff1660a08601819052600003612c745760208201516001600160601b031615612c4a5781602001516001600160601b031681606001818151612be391906140d0565b90525060408051808201825283516001600160a01b039081168252600060208084018281528a51841683528282528583208b83015185168452825285832060e08c01518452909152939020915192516001600160601b0316600160a01b0292169190911790555b60808501516060808301516020840151612c6a93921c62ffffff16613899565b60a0860152612cf5565b8315612cf557602081015160601c62ffffff16604082015160481c62ffffff16612c9e91906140d0565b60a0860151612cb190633b9aca00614159565b612cbb9190614159565b81606001818151612ccc91906140d0565b90525060808501516060808301516020840151612cef93921c62ffffff16613899565b60a08601525b805160401c61ffff168560a001511015612d625760405162461bcd60e51b815260206004820152602860248201527f4d756c7469557365722f7570646174654f666665722f4e6f74456e6f756768506044820152673937bb34b9b4b7b760c11b6064820152608401610533565b7f00000000000000000000000000000000000000000000000000000000000000006001600160a01b0316636a4f769185612d9d886000015190565b602089015189604001518a606001518b608001518c60a001518d60c001518e60e001516040518a63ffffffff1660e01b8152600401612e229897969594939291906001600160a01b03988916815296909716602087015260408601949094526060850192909252608084015260a083015260c082015260e08101919091526101000190565b6000604051808303818588803b158015612e3b57600080fd5b505af193505050508015612e4d575060015b612e5c57600092505050610b62565b506001949350505050565b6000612e7282613934565b90508061276057611717612e896020840184613ccc565b612e996040850160208601613ccc565b84604001356001611b1b565b600080612eb56020850185613ccc565b90506000612ec96040860160208701613ccc565b6001600160a01b03838116600090815260208181526040808320858516845282528083208a82013584528252918290208251808401845290548085168252600160a01b90046001600160601b03169181019190915290516370a0823160e01b8152306004820152929350917f000000000000000000000000000000000000000000000000000000000000000090911690632e1a7d4d9082906370a0823190602401602060405180830381865afa158015612f87573d6000803e3d6000fd5b505050506040513d601f19601f82011682018060405250810190612fab9190613ff5565b6040518263ffffffff1660e01b8152600401612fc991815260200190565b6020604051808303816000875af1158015612fe8573d6000803e3d6000fd5b505050506040513d601f19601f8201168201806040525081019061300c9190613ef2565b6130685760405162461bcd60e51b815260206004820152602760248201527f4d756c7469557365722f706f7374686f6f6b46616c6c6261636b2f77697468646044820152661c985dd1985a5b60ca1b6064820152608401610533565b6000806001600160a01b037f00000000000000000000000000000000000000000000000000000000000000001663cbf75c9a6130a760208b018b613ccc565b6130b760408c0160208d01613ccc565b6040516001600160e01b031960e085901b1681526001600160a01b039283166004820152911660248201526044016040805180830381865afa158015613101573d6000803e3d6000fd5b505050506040513d601f19601f820116820180604052508101906131259190614135565b9092509050600061314261ffff604085901c16633b9aca00614159565b9050600060c08a013560301c62ffffff1660c08b013560481c62ffffff1661316a91906140d0565b61318361ffff60c08d013560201c16633b9aca00614159565b61318d9190614159565b9050600082606085901c62ffffff165a60c08e013560481c62ffffff166131b4919061411e565b6131c090610bb86140d0565b6131ca91906140d0565b6131d49190614159565b90506000828210156131ef576131ea828461411e565b6131f2565b60005b60408051808201825298516001600160a01b039081168a526001600160601b039283166020808c019182529c82166000908152808e528381209c831681529b8d52828c209f8301358c529e909b5290982096519b51909716600160a01b029a90971699909917909355506001979650505050505050565b825160208401516040516365fbae4d60e11b81526001600160a01b0392831660048201529082166024820152600091829182917f0000000000000000000000000000000000000000000000000000000000000000169063cbf75c9a906044016040805180830381865afa1580156132e4573d6000803e3d6000fd5b505050506040513d601f19601f820116820180604052508101906133089190614135565b9150915062ffffff801686608001511161332657856080015161332e565b61332e611fba565b608087018190526133499085606084901c62ffffff16613899565b60a0870181905261ffff604084901c1611156133b55760405162461bcd60e51b815260206004820152602560248201527f4d756c7469557365722f6e65774f666665722f4e6f74456e6f75676850726f7660448201526434b9b4b7b760d91b6064820152608401610533565b7f00000000000000000000000000000000000000000000000000000000000000006001600160a01b03166349f6d2dc856133f0896000015190565b60208a01518a604001518b606001518c608001518d60a001518e60c001516040518963ffffffff1660e01b815260040161346997969594939291906001600160a01b03978816815295909616602086015260408501939093526060840191909152608083015260a082015260c081019190915260e00190565b60206040518083038185885af1158015613487573d6000803e3d6000fd5b50505050506040513d601f19601f820116820180604052508101906134ac9190613ff5565b60e08701819052865160208801516134c49288613a0b565b50505060e08301519392505050565b60006134e5608084016060850161408a565b156134fd578260c00135826020015110159050610b62565b60608201518251608085013591613513916140d0565b10159050610b62565b6001600160a01b038381166000908152600260209081526040808320868516845282528083209388168352928152828220828052905220805490829055801561359a576001600160a01b0380851660009081526002602090815260408083208785168452825280832093891683529281528282208583529052208190555b5050505050565b60008115806135b857506001600160a01b03831630145b156135c5575060016105ca565b604080516001600160a01b038581166024830152604480830186905283518084039091018152606490920183526020820180516001600160e01b031663a9059cbb60e01b17905291516000928392908816916136219190614178565b6000604051808303816000865af19150503d806000811461365e576040519150601f19603f3d011682016040523d82523d6000602084013e613663565b606091505b509150915081801561368d57508051158061368d57508080602001905181019061368d9190613ef2565b9695505050505050565b6000806001816136aa6020860186613ccc565b6001600160a01b03166001600160a01b0316815260200190815260200160002060008460200160208101906136df9190613ccc565b6001600160a01b031681526020808201929092526040908101600090812086830135825290925290205490508015806105ca575043111592915050565b60008061372c6020840184613ccc565b905060006137406040850160208601613ccc565b9050600061375383838760400135612765565b905061375d612705565b6001600160a01b03166326e8eda28383896040518463ffffffff1660e01b815260040161378c93929190613fd1565b600060405180830381600087803b1580156137a657600080fd5b505af11580156137ba573d6000803e3d6000fd5b5060009998505050505050505050565b6000806137da6020840184613ccc565b905060006137ee6040850160208601613ccc565b9050600061380183838760400135612765565b9050600061380d612705565b6001600160a01b031663333dbb0d85848a60016040518563ffffffff1660e01b815260040161383f94939291906140a7565b6020604051808303816000875af115801561385e573d6000803e3d6000fd5b505050506040513d601f19601f820116820180604052508101906138829190613ff5565b905061388e818861411e565b979650505050505050565b6000806138a685846140d0565b6138b490633b9aca00614159565b90508084101561391b5760405162461bcd60e51b815260206004820152602c60248201527f4d756c7469557365722f6465726976655f67617370726963652f4e6f74456e6f60448201526b3ab3b4283937bb34b9b4b7b760a11b6064820152608401610533565b80848161392a5761392a6141b3565b0495945050505050565b60008061394083613ae1565b9050600061394d84613b01565b905081600003613961575060019392505050565b604080516101008101909152613a03908061397f6020880188613ccc565b6001600160a01b031681526020018660200160208101906139a09190613ccc565b6001600160a01b03168152602081018490526040810185905260600160c087013560481c62ffffff16815260209081019060c0880135901c61ffff168152602001606087013560c01c63ffffffff16815260200186604001358152506000612919565b949350505050565b6040805180820182526001600160a01b038084168252600060208084018281528984168084528383528684208a86168086529084528785208a865290935292869020945190516001600160601b0316600160a01b029316929092179092559151849291907f460a431c86ecaea27134277388c72021356689d9eb62c3b25a5e4a97da7a8a1490613ad3907f00000000000000000000000000000000000000000000000000000000000000009087906001600160a01b0392831681529116602082015260400190565b60405180910390a450505050565b600060808201356001600160601b036060840135165b610b62919061411e565b600060a0820135606080840135901c6001600160601b0316613af7565b6001600160a01b038116811461063557600080fd5b803561276081613b1e565b600080600060608486031215613b5357600080fd5b8335613b5e81613b1e565b92506020840135613b6e81613b1e565b929592945050506040919091013590565b6000610100828403121561171757600080fd5b600080600060608486031215613ba757600080fd5b8335613bb281613b1e565b92506020840135613bc281613b1e565b91506040840135613bd281613b1e565b809150509250925092565b600081518084526020808501945080840160005b83811015613c0d57815187529582019590820190600101613bf1565b509495945050505050565b604081526000613c2b6040830185613bdd565b8281036020840152613c3d8185613bdd565b95945050505050565b6000610120828403121561171757600080fd5b600080828403610160811215613c6e57600080fd5b613c788585613c46565b9250604061011f1982011215613c8d57600080fd5b50610120830190509250929050565b6000610180828403121561171757600080fd5b60006101208284031215613cc257600080fd5b6105ca8383613c46565b600060208284031215613cde57600080fd5b81356105ca81613b1e565b60008060408385031215613cfc57600080fd5b823591506020830135613d0e81613b1e565b809150509250929050565b801515811461063557600080fd5b60008060008060808587031215613d3d57600080fd5b8435613d4881613b1e565b93506020850135613d5881613b1e565b9250604085013591506060850135613d6f81613d19565b939692955090935050565b60008060408385031215613d8d57600080fd5b8235613d9881613b1e565b946020939093013593505050565b60008060008060608587031215613dbc57600080fd5b8435613dc781613b1e565b93506020850135613dd781613b1e565b9250604085013567ffffffffffffffff80821115613df457600080fd5b818701915087601f830112613e0857600080fd5b813581811115613e1757600080fd5b8860208260051b8501011115613e2c57600080fd5b95989497505060200194505050565b6020808252825182820181905260009190848201906040850190845b81811015613e7c5783516001600160a01b031683529284019291840191600101613e57565b50909695505050505050565b600080600080600060a08688031215613ea057600080fd5b8535613eab81613b1e565b94506020860135613ebb81613b1e565b94979496505050506040830135926060810135926080909101359150565b600060208284031215613eeb57600080fd5b5035919050565b600060208284031215613f0457600080fd5b81516105ca81613d19565b634e487b7160e01b600052604160045260246000fd5b6000610100808385031215613f3957600080fd5b6040519081019067ffffffffffffffff82118183101715613f6a57634e487b7160e01b600052604160045260246000fd5b81604052613f7784613b33565b8152613f8560208501613b33565b602082015260408401356040820152606084013560608201526080840135608082015260a084013560a082015260c084013560c082015260e084013560e0820152809250505092915050565b6001600160a01b039384168152919092166020820152604081019190915260600190565b60006020828403121561400757600080fd5b5051919050565b634e487b7160e01b600052601160045260246000fd5b6000600182016140365761403661400e565b5060010190565b634e487b7160e01b600052603260045260246000fd5b60208082526018908201527f416363657373436f6e74726f6c6c65642f496e76616c69640000000000000000604082015260600190565b60006020828403121561409c57600080fd5b81356105ca81613d19565b6001600160a01b0394851681529290931660208301526040820152901515606082015260800190565b600082198211156140e3576140e361400e565b500190565b600080600080608085870312156140fe57600080fd5b505082516020840151604085015160609095015191969095509092509050565b6000828210156141305761413061400e565b500390565b6000806040838503121561414857600080fd5b505080516020909101519092909150565b60008160001904831182151516156141735761417361400e565b500290565b6000825160005b81811015614199576020818601810151858301520161417f565b818111156141a8576000828501525b509190910192915050565b634e487b7160e01b600052601260045260246000fdfea26469706673582212200ba6ec1d2ab8f6246d7c12745da4a9650a0fc603f857d0c821c5386cb6e28ada64736f6c634300080e0033608060405234801561001057600080fd5b5061c35033806100675760405162461bcd60e51b815260206004820152601860248201527f616363657373436f6e74726f6c6c65642f307841646d696e000000000000000060448201526064015b60405180910390fd5b8061007a6100f560201b6107a71760201c565b80546001600160a01b0319166001600160a01b03929092169190911790555062ffffff811681146100ed5760405162461bcd60e51b815260206004820152601e60248201527f4162737472616374526f757465722f6f76657268656164546f6f486967680000604482015260640161005e565b600155610119565b7f7d382ebca3e46505071795e192d28166a3d4bd0685585591bc6c5b8df6769fd290565b610cfd806101286000396000f3fe6080604052600436106100c25760003560e01c8063362aecb11161007f578063cf5e7bd311610059578063cf5e7bd31461021a578063d7c153a81461023a578063f850a81c1461024d578063f851a4401461026d57600080fd5b8063362aecb1146101aa578063704b6c02146101da57806381bac14f146101fa57600080fd5b80630417ffda146100c757806305684fde146100f057806321754d9e1461011057806326e8eda21461014057806332563bc714610162578063333dbb0d1461018a575b600080fd5b3480156100d357600080fd5b506100dd60015481565b6040519081526020015b60405180910390f35b3480156100fc57600080fd5b506100dd61010b366004610a16565b61029a565b34801561011c57600080fd5b5061013061012b366004610a4f565b610311565b60405190151581526020016100e7565b34801561014c57600080fd5b5061016061015b366004610aa0565b610360565b005b34801561016e57600080fd5b506100dd61017d366004610ae1565b6001600160a01b03163190565b34801561019657600080fd5b506100dd6101a5366004610b13565b6103a0565b3480156101b657600080fd5b506101306101c5366004610ae1565b60006020819052908152604090205460ff1681565b3480156101e657600080fd5b506101606101f5366004610ae1565b610464565b34801561020657600080fd5b50610160610215366004610ae1565b61054c565b34801561022657600080fd5b50610160610235366004610ae1565b6105c2565b610130610248366004610ae1565b610635565b34801561025957600080fd5b50610160610268366004610b66565b61066e565b34801561027957600080fd5b5061028261078e565b6040516001600160a01b0390911681526020016100e7565b6040516370a0823160e01b81526001600160a01b038281166004830152600091908416906370a0823190602401602060405180830381865afa1580156102e4573d6000803e3d6000fd5b505050506040513d601f19601f820116820180604052508101906103089190610bec565b90505b92915050565b3360009081526020819052604081205460ff166103495760405162461bcd60e51b815260040161034090610c05565b60405180910390fd5b610355858585856107cb565b90505b949350505050565b3360009081526020819052604090205460ff1661038f5760405162461bcd60e51b815260040161034090610c05565b61039b838333846107d9565b505050565b3360009081526020819052604081205460ff166103cf5760405162461bcd60e51b815260040161034090610c05565b6040516370a0823160e01b81523360048201526000906001600160a01b038716906370a0823190602401602060405180830381865afa158015610416573d6000803e3d6000fd5b505050506040513d601f19601f8201168201806040525081019061043a9190610bec565b905083811061044d576000915050610358565b61045a8686338787610831565b9695505050505050565b61046c61078e565b6001600160a01b0316336001600160a01b0316146104cc5760405162461bcd60e51b815260206004820152601860248201527f416363657373436f6e74726f6c6c65642f496e76616c696400000000000000006044820152606401610340565b6001600160a01b0381166105225760405162461bcd60e51b815260206004820152601860248201527f416363657373436f6e74726f6c6c65642f307841646d696e00000000000000006044820152606401610340565b8061052b6107a7565b80546001600160a01b0319166001600160a01b039290921691909117905550565b61055461078e565b6001600160a01b0316336001600160a01b0316148061058257503360009081526020819052604090205460ff165b61059e5760405162461bcd60e51b815260040161034090610c05565b6001600160a01b03166000908152602081905260409020805460ff19166001179055565b6105ca61078e565b6001600160a01b0316336001600160a01b031614806105f857503360009081526020819052604090205460ff165b6106145760405162461bcd60e51b815260040161034090610c05565b6001600160a01b03166000908152602081905260409020805460ff19169055565b3360009081526020819052604081205460ff166106645760405162461bcd60e51b815260040161034090610c05565b61030b8234610858565b3360009081526020819052604090205460ff1661069d5760405162461bcd60e51b815260040161034090610c05565b60005b828110156107885760008484838181106106bc576106bc610c32565b90506020020160208101906106d19190610ae1565b6040516370a0823160e01b81523360048201526001600160a01b0391909116906370a0823190602401602060405180830381865afa158015610717573d6000803e3d6000fd5b505050506040513d601f19601f8201168201806040525081019061073b9190610bec565b905080156107755761077585858481811061075857610758610c32565b905060200201602081019061076d9190610ae1565b8433846107d9565b508061078081610c48565b9150506106a0565b50505050565b60006107986107a7565b546001600160a01b0316919050565b7f7d382ebca3e46505071795e192d28166a3d4bd0685585591bc6c5b8df6769fd290565b6000610355858585856108f6565b6107e5848385846108f6565b6107885760405162461bcd60e51b815260206004820152601e60248201527f53696d706c65526f757465722f707573682f7472616e736665724661696c00006044820152606401610340565b600061083f868686866108f6565b1561084b57508161084f565b5060005b95945050505050565b6000826001600160a01b03168260405160006040518083038185875af1925050503d80600081146108a5576040519150601f19603f3d011682016040523d82523d6000602084013e6108aa565b606091505b5050809150508061030b5760405162461bcd60e51b81526020600482015260166024820152751b59dd93dc99195c8bdb5bcbdc99599d5b9911985a5b60521b6044820152606401610340565b60008115806109165750826001600160a01b0316846001600160a01b0316145b1561092357506001610358565b604080516001600160a01b0386811660248301528581166044830152606480830186905283518084039091018152608490920183526020820180516001600160e01b03166323b872dd60e01b17905291516000928392908916916109879190610c6f565b6000604051808303816000865af19150503d80600081146109c4576040519150601f19603f3d011682016040523d82523d6000602084013e6109c9565b606091505b50915091508180156109f35750805115806109f35750808060200190518101906109f39190610caa565b979650505050505050565b6001600160a01b0381168114610a1357600080fd5b50565b60008060408385031215610a2957600080fd5b8235610a34816109fe565b91506020830135610a44816109fe565b809150509250929050565b60008060008060808587031215610a6557600080fd5b8435610a70816109fe565b93506020850135610a80816109fe565b92506040850135610a90816109fe565b9396929550929360600135925050565b600080600060608486031215610ab557600080fd5b8335610ac0816109fe565b92506020840135610ad0816109fe565b929592945050506040919091013590565b600060208284031215610af357600080fd5b8135610afe816109fe565b9392505050565b8015158114610a1357600080fd5b60008060008060808587031215610b2957600080fd5b8435610b34816109fe565b93506020850135610b44816109fe565b9250604085013591506060850135610b5b81610b05565b939692955090935050565b600080600060408486031215610b7b57600080fd5b833567ffffffffffffffff80821115610b9357600080fd5b818601915086601f830112610ba757600080fd5b813581811115610bb657600080fd5b8760208260051b8501011115610bcb57600080fd5b60209283019550935050840135610be1816109fe565b809150509250925092565b600060208284031215610bfe57600080fd5b5051919050565b602080825260139082015272149bdd5d195c8bdd5b985d5d1a1bdc9a5e9959606a1b604082015260600190565b634e487b7160e01b600052603260045260246000fd5b600060018201610c6857634e487b7160e01b600052601160045260246000fd5b5060010190565b6000825160005b81811015610c905760208186018101518583015201610c76565b81811115610c9f576000828501525b509190910192915050565b600060208284031215610cbc57600080fd5b8151610afe81610b0556fea264697066735822122032abe7da40276151732235ff38bf2bb6331c01855dd914247ffec73ec2807d6264736f6c634300080e0033",
    "linkReferences": {}
  },
  "methodIdentifiers": {
    "MGV()": "99fa5e2d",
    "admin()": "f851a440",
    "approveMangrove(address,uint256)": "aefe8403",
    "approveRouter(address)": "f259cd27",
    "expiring(address,address,uint256)": "4e7effa8",
    "getMissingProvision(address,address,uint256,uint256,uint256)": "e4c34f84",
    "has_router()": "84b627f9",
    "makerExecute((address,address,uint256,uint256,uint256,uint256,uint256,uint256,uint256))": "6c49c32c",
    "makerPosthook((address,address,uint256,uint256,uint256,uint256,uint256,uint256,uint256),(bytes32,bytes32))": "3d3d130d",
    "newOffer((address,address,uint256,uint256,uint256,uint256,uint256,uint256))": "5486c95f",
    "offerOwners(address,address,uint256[])": "dec8c86b",
    "offersOfOwner(address,address,address)": "37b966bf",
    "ofr_gasreq()": "d1baa1ef",
    "ownerOf(address,address,uint256)": "f92495e5",
    "retractOffer(address,address,uint256,bool)": "ad97db1b",
    "router()": "f887ea40",
    "setAdmin(address)": "704b6c02",
    "set_gasreq(uint256)": "fc488a38",
    "set_router(address)": "db11851e",
    "take((address,address,bool,bool,uint256,uint256,uint256,uint256,bool,uint256,uint256,uint256))": "6a1c7d05",
    "tokenBalance(address)": "eedc966a",
    "updateOffer((address,address,uint256,uint256,uint256,uint256,uint256,uint256))": "10aded60",
    "withdrawFromMangrove(uint256,address)": "7144df24",
    "withdrawToken(address,address,uint256)": "01e33667"
  },
  "id": 12
}