{
  "abi": [
    {
      "inputs": [
        {
          "internalType": "address",
          "name": "_governance",
          "type": "address"
        },
        {
          "internalType": "address",
          "name": "_initialMutator",
          "type": "address"
        }
      ],
      "stateMutability": "nonpayable",
      "type": "constructor"
    },
    {
      "anonymous": false,
      "inputs": [
        {
          "indexed": false,
          "internalType": "uint256",
          "name": "density",
          "type": "uint256"
        }
      ],
      "name": "SetDensity",
      "type": "event"
    },
    {
      "anonymous": false,
      "inputs": [
        {
          "indexed": false,
          "internalType": "uint256",
          "name": "gasPrice",
          "type": "uint256"
        }
      ],
      "name": "SetGasprice",
      "type": "event"
    },
    {
      "inputs": [
        {
          "components": [
            {
              "internalType": "address",
              "name": "outbound_tkn",
              "type": "address"
            },
            {
              "internalType": "address",
              "name": "inbound_tkn",
              "type": "address"
            },
            {
              "internalType": "uint256",
              "name": "offerId",
              "type": "uint256"
            },
            {
              "internalType": "t",
              "name": "offer",
              "type": "uint256"
            },
            {
              "internalType": "uint256",
              "name": "wants",
              "type": "uint256"
            },
            {
              "internalType": "uint256",
              "name": "gives",
              "type": "uint256"
            },
            {
              "internalType": "t",
              "name": "offerDetail",
              "type": "uint256"
            },
            {
              "internalType": "t",
              "name": "global",
              "type": "uint256"
            },
            {
              "internalType": "t",
              "name": "local",
              "type": "uint256"
            }
          ],
          "internalType": "struct MgvLib.SingleOrder",
          "name": "sor",
          "type": "tuple"
        },
        {
          "internalType": "address",
          "name": "taker",
          "type": "address"
        }
      ],
      "name": "notifyFail",
      "outputs": [],
      "stateMutability": "nonpayable",
      "type": "function"
    },
    {
      "inputs": [
        {
          "components": [
            {
              "internalType": "address",
              "name": "outbound_tkn",
              "type": "address"
            },
            {
              "internalType": "address",
              "name": "inbound_tkn",
              "type": "address"
            },
            {
              "internalType": "uint256",
              "name": "offerId",
              "type": "uint256"
            },
            {
              "internalType": "t",
              "name": "offer",
              "type": "uint256"
            },
            {
              "internalType": "uint256",
              "name": "wants",
              "type": "uint256"
            },
            {
              "internalType": "uint256",
              "name": "gives",
              "type": "uint256"
            },
            {
              "internalType": "t",
              "name": "offerDetail",
              "type": "uint256"
            },
            {
              "internalType": "t",
              "name": "global",
              "type": "uint256"
            },
            {
              "internalType": "t",
              "name": "local",
              "type": "uint256"
            }
          ],
          "internalType": "struct MgvLib.SingleOrder",
          "name": "sor",
          "type": "tuple"
        },
        {
          "internalType": "address",
          "name": "taker",
          "type": "address"
        }
      ],
      "name": "notifySuccess",
      "outputs": [],
      "stateMutability": "nonpayable",
      "type": "function"
    },
    {
      "inputs": [
        {
          "internalType": "address",
          "name": "",
          "type": "address"
        },
        {
          "internalType": "address",
          "name": "",
          "type": "address"
        }
      ],
      "name": "read",
      "outputs": [
        {
          "internalType": "uint256",
          "name": "gasprice",
          "type": "uint256"
        },
        {
          "internalType": "uint256",
          "name": "density",
          "type": "uint256"
        }
      ],
      "stateMutability": "view",
      "type": "function"
    },
    {
      "inputs": [
        {
          "internalType": "uint256",
          "name": "density",
          "type": "uint256"
        }
      ],
      "name": "setDensity",
      "outputs": [],
      "stateMutability": "nonpayable",
      "type": "function"
    },
    {
      "inputs": [
        {
          "internalType": "uint256",
          "name": "gasPrice",
          "type": "uint256"
        }
      ],
      "name": "setGasPrice",
      "outputs": [],
      "stateMutability": "nonpayable",
      "type": "function"
    },
    {
      "inputs": [
        {
          "internalType": "address",
          "name": "_mutator",
          "type": "address"
        }
      ],
      "name": "setMutator",
      "outputs": [],
      "stateMutability": "nonpayable",
      "type": "function"
    }
  ],
  "bytecode": {
    "object": "0x608060405234801561001057600080fd5b5060405161044538038061044583398101604081905261002f91610082565b600080546001600160a01b039384166001600160a01b031991821617909155600180549290931691161790556000196003556100b5565b80516001600160a01b038116811461007d57600080fd5b919050565b6000806040838503121561009557600080fd5b61009e83610066565b91506100ac60208401610066565b90509250929050565b610381806100c46000396000f3fe608060405234801561001057600080fd5b50600436106100625760003560e01c8063115950731461006757806324a9ac041461007b5780636968abd31461008e5780636ed67d31146100c1578063bf1fe420146100d4578063cac1827114610067575b600080fd5b61007961007536600461026f565b5050565b005b6100796100893660046102ad565b6100e7565b6100a861009c3660046102cf565b50506002546003549091565b6040805192835260208301919091520160405180910390f35b6100796100cf366004610302565b610111565b6100796100e2366004610302565b610195565b6100ef610209565b600180546001600160a01b0319166001600160a01b0392909216919091179055565b6000546001600160a01b031633148061013457506001546001600160a01b031633145b6101595760405162461bcd60e51b81526004016101509061031b565b60405180910390fd5b60038190556040518181527f7eb62afbbd7f856408279be0b7b61b8c8c70082b51c1edc2eaeab9eb81c271c9906020015b60405180910390a150565b6000546001600160a01b03163314806101b857506001546001600160a01b031633145b6101d45760405162461bcd60e51b81526004016101509061031b565b60028190556040518181527fdbebd814ae648f654dcc50c734aa76e55a32e96b7d85303a08e2ddf11874a0dd9060200161018a565b6000546001600160a01b031633148061022157503330145b8061023557506000546001600160a01b0316155b6102515760405162461bcd60e51b81526004016101509061031b565b565b80356001600160a01b038116811461026a57600080fd5b919050565b60008082840361014081121561028457600080fd5b6101208082121561029457600080fd5b8493506102a2818601610253565b925050509250929050565b6000602082840312156102bf57600080fd5b6102c882610253565b9392505050565b600080604083850312156102e257600080fd5b6102eb83610253565b91506102f960208401610253565b90509250929050565b60006020828403121561031457600080fd5b5035919050565b6020808252601690820152751359dd93dc9858db194bdd5b985d5d1a1bdc9a5e995960521b60408201526060019056fea264697066735822122001885cb96cdcfc227b95230a29cf307f6fa54accd68c05f4252247ebadcf31de64736f6c634300080e0033",
    "linkReferences": {}
  },
  "methodIdentifiers": {
    "notifyFail((address,address,uint256,uint256,uint256,uint256,uint256,uint256,uint256),address)": "11595073",
    "notifySuccess((address,address,uint256,uint256,uint256,uint256,uint256,uint256,uint256),address)": "cac18271",
    "read(address,address)": "6968abd3",
    "setDensity(uint256)": "6ed67d31",
    "setGasPrice(uint256)": "bf1fe420",
    "setMutator(address)": "24a9ac04"
  },
  "id": 30
}