{
  "abi": [
    {
      "inputs": [
        {
          "internalType": "address",
          "name": "_addressesProvider",
          "type": "address"
        },
        {
          "internalType": "uint256",
          "name": "_referralCode",
          "type": "uint256"
        },
        {
          "internalType": "uint256",
          "name": "_interestRateMode",
          "type": "uint256"
        }
      ],
      "stateMutability": "nonpayable",
      "type": "constructor"
    },
    {
      "inputs": [],
      "name": "IMPLEMENTATION",
      "outputs": [
        {
          "internalType": "address",
          "name": "",
          "type": "address"
        }
      ],
      "stateMutability": "view",
      "type": "function"
    },
    {
      "inputs": [],
      "name": "INTEREST_RATE_MODE",
      "outputs": [
        {
          "internalType": "uint256",
          "name": "",
          "type": "uint256"
        }
      ],
      "stateMutability": "view",
      "type": "function"
    },
    {
      "inputs": [],
      "name": "ORACLE",
      "outputs": [
        {
          "internalType": "contract IPriceOracleGetter",
          "name": "",
          "type": "address"
        }
      ],
      "stateMutability": "view",
      "type": "function"
    },
    {
      "inputs": [],
      "name": "POOL",
      "outputs": [
        {
          "internalType": "contract IPool",
          "name": "",
          "type": "address"
        }
      ],
      "stateMutability": "view",
      "type": "function"
    },
    {
      "inputs": [],
      "name": "REFERRAL_CODE",
      "outputs": [
        {
          "internalType": "uint16",
          "name": "",
          "type": "uint16"
        }
      ],
      "stateMutability": "view",
      "type": "function"
    },
    {
      "inputs": [
        {
          "internalType": "bytes",
          "name": "data",
          "type": "bytes"
        }
      ],
      "name": "_staticdelegatecall",
      "outputs": [],
      "stateMutability": "nonpayable",
      "type": "function"
    },
    {
      "inputs": [
        {
          "internalType": "address",
          "name": "underlying",
          "type": "address"
        },
        {
          "internalType": "address",
          "name": "account",
          "type": "address"
        }
      ],
      "name": "borrowed",
      "outputs": [
        {
          "internalType": "uint256",
          "name": "",
          "type": "uint256"
        }
      ],
      "stateMutability": "view",
      "type": "function"
    },
    {
      "inputs": [
        {
          "internalType": "contract IERC20",
          "name": "asset",
          "type": "address"
        }
      ],
      "name": "debtToken",
      "outputs": [
        {
          "internalType": "contract ICreditDelegationToken",
          "name": "debtTkn",
          "type": "address"
        }
      ],
      "stateMutability": "view",
      "type": "function"
    },
    {
      "inputs": [
        {
          "internalType": "contract IERC20",
          "name": "asset",
          "type": "address"
        },
        {
          "internalType": "bool",
          "name": "tryBorrow",
          "type": "bool"
        },
        {
          "internalType": "address",
          "name": "onBehalf",
          "type": "address"
        }
      ],
      "name": "maxGettableUnderlying",
      "outputs": [
        {
          "internalType": "uint256",
          "name": "maxRedeemableUnderlying",
          "type": "uint256"
        },
        {
          "internalType": "uint256",
          "name": "maxBorrowAfterRedeemInUnderlying",
          "type": "uint256"
        }
      ],
      "stateMutability": "view",
      "type": "function"
    },
    {
      "inputs": [
        {
          "internalType": "contract IERC20",
          "name": "asset",
          "type": "address"
        }
      ],
      "name": "overlying",
      "outputs": [
        {
          "internalType": "contract IERC20",
          "name": "aToken",
          "type": "address"
        }
      ],
      "stateMutability": "view",
      "type": "function"
    }
  ],
  "bytecode": {
    "object": "0x6101206040523480156200001257600080fd5b506040516200223a3803806200223a833981016040819052620000359162000270565b61ffff82166101005260e08190526040516321f8a72160e01b81526b50524943455f4f5241434c4560a01b60048201526000906001600160a01b038516906321f8a72190602401602060405180830381865afa1580156200009a573d6000803e3d6000fd5b505050506040513d601f19601f82011682018060405250810190620000c09190620002a8565b90506000846001600160a01b031663026b1d5f6040518163ffffffff1660e01b8152600401602060405180830381865afa15801562000103573d6000803e3d6000fd5b505050506040513d601f19601f82011682018060405250810190620001299190620002a8565b90506001600160a01b038216620001875760405162461bcd60e51b815260206004820152601860248201527f416176654d6f64756c652f307850726963654f7261636c65000000000000000060448201526064015b60405180910390fd5b6001600160a01b038116620001d35760405162461bcd60e51b815260206004820152601160248201527010585d99535bd91d5b194bcc1e141bdbdb607a1b60448201526064016200017e565b6001600160a01b0380821660a052821660c05260405181908390620001f89062000245565b6001600160a01b03928316815291166020820152604001604051809103906000f0801580156200022c573d6000803e3d6000fd5b506001600160a01b031660805250620002cd9350505050565b6112978062000fa383390190565b80516001600160a01b03811681146200026b57600080fd5b919050565b6000806000606084860312156200028657600080fd5b620002918462000253565b925060208401519150604084015190509250925092565b600060208284031215620002bb57600080fd5b620002c68262000253565b9392505050565b60805160a05160c05160e05161010051610c676200033c60003960006101000152600081816101d701526103fc0152600061013a0152600081816101b00152818161023c01528181610441015281816104d6015261065d01526000818161016101526105a70152610c676000f3fe608060405234801561001057600080fd5b506004361061009e5760003560e01c8063492fffc711610066578063492fffc7146101835780635a3e9618146101965780637535d246146101ab57806383008bd9146101d2578063b0a02abe1461020757600080fd5b80630efc8fd2146100a35780632197c31e146100d35780633583849a146100fb57806338013f02146101355780633a4741bd1461015c575b600080fd5b6100b66100b1366004610844565b61021a565b6040516001600160a01b0390911681526020015b60405180910390f35b6100e66100e1366004610868565b6102b5565b604080519283526020830191909152016100ca565b6101227f000000000000000000000000000000000000000000000000000000000000000081565b60405161ffff90911681526020016100ca565b6100b67f000000000000000000000000000000000000000000000000000000000000000081565b6100b67f000000000000000000000000000000000000000000000000000000000000000081565b6100b6610191366004610844565b6103f8565b6101a96101a43660046108b8565b61054e565b005b6100b67f000000000000000000000000000000000000000000000000000000000000000081565b6101f97f000000000000000000000000000000000000000000000000000000000000000081565b6040519081526020016100ca565b6101f961021536600461092a565b610639565b6040516335ea6a7560e01b81526001600160a01b0382811660048301526000917f0000000000000000000000000000000000000000000000000000000000000000909116906335ea6a75906024016101e060405180830381865afa158015610286573d6000803e3d6000fd5b505050506040513d601f19601f820116820180604052508101906102aa9190610a42565b610100015192915050565b6040516001600160a01b0384811660248301528315156044830152821660648201526000908190819081903090630b47d2c360e31b9063fd8c045160e01b9060840160408051601f198184030181529181526020820180516001600160e01b03166001600160e01b03199094169390931790925290516103389190602401610b95565b60408051601f198184030181529181526020820180516001600160e01b03166001600160e01b03199094169390931790925290516103769190610bc8565b600060405180830381855afa9150503d80600081146103b1576040519150601f19603f3d011682016040523d82523d6000602084013e6103b6565b606091505b5091509150816103ce576103c9816107d3565b6103ed565b808060200190518101906103e29190610be4565b9350935050506103f0565b50505b935093915050565b60007f00000000000000000000000000000000000000000000000000000000000000006001146104b7576040516335ea6a7560e01b81526001600160a01b0383811660048301527f000000000000000000000000000000000000000000000000000000000000000016906335ea6a75906024016101e060405180830381865afa158015610489573d6000803e3d6000fd5b505050506040513d601f19601f820116820180604052508101906104ad9190610a42565b6101400151610548565b6040516335ea6a7560e01b81526001600160a01b0383811660048301527f000000000000000000000000000000000000000000000000000000000000000016906335ea6a75906024016101e060405180830381865afa15801561051e573d6000803e3d6000fd5b505050506040513d601f19601f820116820180604052508101906105429190610a42565b61012001515b92915050565b3330146105a25760405162461bcd60e51b815260206004820152601760248201527f416176654d6f64756c652f696e7465726e616c4f6e6c7900000000000000000060448201526064015b60405180910390fd5b6000807f00000000000000000000000000000000000000000000000000000000000000006001600160a01b031684846040516105df929190610c08565b600060405180830381855af49150503d806000811461061a576040519150601f19603f3d011682016040523d82523d6000602084013e61061f565b606091505b50915091508161063257610632816107d3565b3d60208201f35b6040516335ea6a7560e01b81526001600160a01b03838116600483015260009182917f000000000000000000000000000000000000000000000000000000000000000016906335ea6a75906024016101e060405180830381865afa1580156106a5573d6000803e3d6000fd5b505050506040513d601f19601f820116820180604052508101906106c99190610a42565b6101408101516040516370a0823160e01b81526001600160a01b038681166004830152929350600092909116906370a0823190602401602060405180830381865afa15801561071c573d6000803e3d6000fd5b505050506040513d601f19601f820116820180604052508101906107409190610c18565b6101208301516040516370a0823160e01b81526001600160a01b038781166004830152929350600092909116906370a0823190602401602060405180830381865afa158015610793573d6000803e3d6000fd5b505050506040513d601f19601f820116820180604052508101906107b79190610c18565b9050818110156107c757816107c9565b805b9695505050505050565b80516000036108245760405162461bcd60e51b815260206004820181905260248201527f416176654d6f64756c6553746f726167652f7265766572744e6f526561736f6e6044820152606401610599565b805160208201fd5b6001600160a01b038116811461084157600080fd5b50565b60006020828403121561085657600080fd5b81356108618161082c565b9392505050565b60008060006060848603121561087d57600080fd5b83356108888161082c565b92506020840135801515811461089d57600080fd5b915060408401356108ad8161082c565b809150509250925092565b600080602083850312156108cb57600080fd5b823567ffffffffffffffff808211156108e357600080fd5b818501915085601f8301126108f757600080fd5b81358181111561090657600080fd5b86602082850101111561091857600080fd5b60209290920196919550909350505050565b6000806040838503121561093d57600080fd5b82356109488161082c565b915060208301356109588161082c565b809150509250929050565b6040516101e0810167ffffffffffffffff8111828210171561099557634e487b7160e01b600052604160045260246000fd5b60405290565b6000602082840312156109ad57600080fd5b6040516020810181811067ffffffffffffffff821117156109de57634e487b7160e01b600052604160045260246000fd5b6040529151825250919050565b80516fffffffffffffffffffffffffffffffff81168114610a0b57600080fd5b919050565b805164ffffffffff81168114610a0b57600080fd5b805161ffff81168114610a0b57600080fd5b8051610a0b8161082c565b60006101e08284031215610a5557600080fd5b610a5d610963565b610a67848461099b565b8152610a75602084016109eb565b6020820152610a86604084016109eb565b6040820152610a97606084016109eb565b6060820152610aa8608084016109eb565b6080820152610ab960a084016109eb565b60a0820152610aca60c08401610a10565b60c0820152610adb60e08401610a25565b60e0820152610100610aee818501610a37565b90820152610120610b00848201610a37565b90820152610140610b12848201610a37565b90820152610160610b24848201610a37565b90820152610180610b368482016109eb565b908201526101a0610b488482016109eb565b908201526101c0610b5a8482016109eb565b908201529392505050565b60005b83811015610b80578181015183820152602001610b68565b83811115610b8f576000848401525b50505050565b6020815260008251806020840152610bb4816040850160208701610b65565b601f01601f19169190910160400192915050565b60008251610bda818460208701610b65565b9190910192915050565b60008060408385031215610bf757600080fd5b505080516020909101519092909150565b8183823760009101908152919050565b600060208284031215610c2a57600080fd5b505191905056fea26469706673582212206adc18e10b7ef2432c565369840c78de25a28569bb4baedaf260cbd8a565079564736f6c634300080e003360c060405234801561001057600080fd5b5060405161129738038061129783398101604081905261002f9161005e565b6001600160a01b039182166080521660a052610098565b6001600160a01b038116811461005b57600080fd5b50565b6000806040838503121561007157600080fd5b825161007c81610046565b602084015190925061008d81610046565b809150509250929050565b60805160a0516111a46100f3600039600081816076015261082c01526000818160ba0152818161016201528181610223015281816102d8015281816103ed015281816104d30152818161064b01526106f901526111a46000f3fe608060405234801561001057600080fd5b50600436106100575760003560e01c8063038efb8a1461005c57806338013f02146100715780637535d246146100b55780639105b83a146100dc578063fd8c0451146100fd575b600080fd5b61006f61006a366004610c13565b610125565b005b6100987f000000000000000000000000000000000000000000000000000000000000000081565b6040516001600160a01b0390911681526020015b60405180910390f35b6100987f000000000000000000000000000000000000000000000000000000000000000081565b6100ef6100ea366004610c73565b610288565b6040519081526020016100ac565b61011061010b366004610cee565b6105b6565b604080519283526020830191909152016100ac565b80156102815760405163573ade8160e01b81526001600160a01b0384811660048301526024820183905260448201879052838116606483015282917f00000000000000000000000000000000000000000000000000000000000000009091169063573ade81906084016020604051808303816000875af19250505080156101c9575060408051601f3d908101601f191682019092526101c691810190610d39565b60015b156101eb576101d88183610d68565b9150816000036101e9575050610281565b505b60405163617ba03760e01b81526001600160a01b03858116600483015260248201839052848116604483015261ffff871660648301527f0000000000000000000000000000000000000000000000000000000000000000169063617ba03790608401600060405180830381600087803b15801561026757600080fd5b505af115801561027b573d6000803e3d6000fd5b50505050505b5050505050565b6000806000610299886001896105b6565b9150915084156102b5578582106102b057856102b2565b815b91505b6040516335ea6a7560e01b81526001600160a01b038981166004830152610353917f0000000000000000000000000000000000000000000000000000000000000000909116906335ea6a75906024016101e060405180830381865afa158015610322573d6000803e3d6000fd5b505050506040513d601f19601f820116820180604052508101906103469190610e5e565b61010001518830856109d7565b6103b95760405162461bcd60e51b815260206004820152602c60248201527f416176654d6f64756c652f72656465656d5468656e426f72726f772f61546b6e60448201526b151c985b9cd9995c91985a5b60a21b60648201526084015b60405180910390fd5b811561045c57604051631a4ca37b60e21b81526001600160a01b0389811660048301526024820184905285811660448301527f000000000000000000000000000000000000000000000000000000000000000016906369328dec906064016020604051808303816000875af1158015610436573d6000803e3d6000fd5b505050506040513d601f19601f8201168201806040525081019061045a9190610d39565b505b8582101580610469575080155b15610476575090506105ab565b6104808287610d68565b955085811161048f5780610491565b855b60405163a415bcad60e01b81526001600160a01b038a8116600483015260248201839052604482018d905261ffff8c16606483015289811660848301529192507f00000000000000000000000000000000000000000000000000000000000000009091169063a415bcad9060a401600060405180830381600087803b15801561051957600080fd5b505af115801561052d573d6000803e3d6000fd5b5050505061053c888583610b03565b61059c5760405162461bcd60e51b815260206004820152602b60248201527f416176654d6f64756c652f72656465656d5468656e426f72726f772f546b6e5460448201526a1c985b9cd9995c91985a5b60aa1b60648201526084016103b0565b6105a68183610f81565b925050505b979650505050505050565b6000806105e46040518060800160405280600081526020016000815260200160008152602001600081525090565b61062c60405180610100016040528060008152602001600081526020016000815260200160008152602001600081526020016000815260200160008152602001600081525090565b604051632fe4a15f60e21b81526001600160a01b0386811660048301527f0000000000000000000000000000000000000000000000000000000000000000169063bf92857c9060240160c060405180830381865afa158015610692573d6000803e3d6000fd5b505050506040513d601f19601f820116820180604052508101906106b69190610f99565b60c0870152608086015260a08501526040808501919091526020840191909152908252516335ea6a7560e01b81526001600160a01b0388811660048301526000917f0000000000000000000000000000000000000000000000000000000000000000909116906335ea6a75906024016101e060405180830381865afa158015610743573d6000803e3d6000fd5b505050506040513d601f19601f820116820180604052508101906107679190610e5e565b80515160ff603082901c1660408681019190915261ffff601083901c81166020808901919091529216865261010083015181516370a0823160e01b81526001600160a01b038b8116600483015292519495509116926370a08231926024808401939192918290030181865afa1580156107e4573d6000803e3d6000fd5b505050506040513d601f19601f820116820180604052508101906108089190610d39565b60e083015260405163b3596f0760e01b81526001600160a01b0389811660048301527f0000000000000000000000000000000000000000000000000000000000000000169063b3596f0790602401602060405180830381865afa158015610873573d6000803e3d6000fd5b505050506040513d601f19601f820116820180604052508101906108979190610d39565b60608401526020820151825160a0840151612710916108b591610fe3565b6108bf9190611002565b6108c99190610d68565b60608084019190915283015160208401516000916108e691610fe3565b60408501516108f690600a61110a565b84606001516109059190610fe3565b61091190612710610fe3565b61091b9190611002565b90508260e001518110610932578260e00151610934565b805b90508761094a579450600093506109cf92505050565b83516000906127109061095d9084610fe3565b6109679190611002565b9050600085606001518660400151600a610981919061110a565b86604001516109909190610fe3565b61099a9190611002565b9050808211156109b657826000975097505050505050506109cf565b60006109c28383610d68565b9398509296505050505050505b935093915050565b60008115806109f75750826001600160a01b0316846001600160a01b0316145b15610a0457506001610afb565b306001600160a01b03851603610a2657610a1f858484610b03565b9050610afb565b604080516001600160a01b0386811660248301528581166044830152606480830186905283518084039091018152608490920183526020820180516001600160e01b03166323b872dd60e01b1790529151600092839290891691610a8a9190611116565b6000604051808303816000865af19150503d8060008114610ac7576040519150601f19603f3d011682016040523d82523d6000602084013e610acc565b606091505b5091509150818015610af6575080511580610af6575080806020019051810190610af69190611151565b925050505b949350505050565b6000811580610b1a57506001600160a01b03831630145b15610b2757506001610bf4565b604080516001600160a01b038581166024830152604480830186905283518084039091018152606490920183526020820180516001600160e01b031663a9059cbb60e01b1790529151600092839290881691610b839190611116565b6000604051808303816000865af19150503d8060008114610bc0576040519150601f19603f3d011682016040523d82523d6000602084013e610bc5565b606091505b5091509150818015610bef575080511580610bef575080806020019051810190610bef9190611151565b925050505b9392505050565b6001600160a01b0381168114610c1057600080fd5b50565b600080600080600060a08688031215610c2b57600080fd5b85359450602086013593506040860135610c4481610bfb565b92506060860135610c5481610bfb565b949793965091946080013592915050565b8015158114610c1057600080fd5b600080600080600080600060e0888a031215610c8e57600080fd5b87359650602088013595506040880135610ca781610bfb565b94506060880135610cb781610bfb565b93506080880135925060a0880135610cce81610c65565b915060c0880135610cde81610bfb565b8091505092959891949750929550565b600080600060608486031215610d0357600080fd5b8335610d0e81610bfb565b92506020840135610d1e81610c65565b91506040840135610d2e81610bfb565b809150509250925092565b600060208284031215610d4b57600080fd5b5051919050565b634e487b7160e01b600052601160045260246000fd5b600082821015610d7a57610d7a610d52565b500390565b6040516101e0810167ffffffffffffffff81118282101715610db157634e487b7160e01b600052604160045260246000fd5b60405290565b600060208284031215610dc957600080fd5b6040516020810181811067ffffffffffffffff82111715610dfa57634e487b7160e01b600052604160045260246000fd5b6040529151825250919050565b80516fffffffffffffffffffffffffffffffff81168114610e2757600080fd5b919050565b805164ffffffffff81168114610e2757600080fd5b805161ffff81168114610e2757600080fd5b8051610e2781610bfb565b60006101e08284031215610e7157600080fd5b610e79610d7f565b610e838484610db7565b8152610e9160208401610e07565b6020820152610ea260408401610e07565b6040820152610eb360608401610e07565b6060820152610ec460808401610e07565b6080820152610ed560a08401610e07565b60a0820152610ee660c08401610e2c565b60c0820152610ef760e08401610e41565b60e0820152610100610f0a818501610e53565b90820152610120610f1c848201610e53565b90820152610140610f2e848201610e53565b90820152610160610f40848201610e53565b90820152610180610f52848201610e07565b908201526101a0610f64848201610e07565b908201526101c0610f76848201610e07565b908201529392505050565b60008219821115610f9457610f94610d52565b500190565b60008060008060008060c08789031215610fb257600080fd5b865195506020870151945060408701519350606087015192506080870151915060a087015190509295509295509295565b6000816000190483118215151615610ffd57610ffd610d52565b500290565b60008261101f57634e487b7160e01b600052601260045260246000fd5b500490565b600181815b8085111561105f57816000190482111561104557611045610d52565b8085161561105257918102915b93841c9390800290611029565b509250929050565b60008261107657506001611104565b8161108357506000611104565b816001811461109957600281146110a3576110bf565b6001915050611104565b60ff8411156110b4576110b4610d52565b50506001821b611104565b5060208310610133831016604e8410600b84101617156110e2575081810a611104565b6110ec8383611024565b806000190482111561110057611100610d52565b0290505b92915050565b6000610bf48383611067565b6000825160005b81811015611137576020818601810151858301520161111d565b81811115611146576000828501525b509190910192915050565b60006020828403121561116357600080fd5b8151610bf481610c6556fea264697066735822122087b8445b6397a89bdd581b1c0b7ce3adb6789523937da63db6865733c98b000664736f6c634300080e0033",
    "linkReferences": {}
  },
  "methodIdentifiers": {
    "IMPLEMENTATION()": "3a4741bd",
    "INTEREST_RATE_MODE()": "83008bd9",
    "ORACLE()": "38013f02",
    "POOL()": "7535d246",
    "REFERRAL_CODE()": "3583849a",
    "_staticdelegatecall(bytes)": "5a3e9618",
    "borrowed(address,address)": "b0a02abe",
    "debtToken(address)": "492fffc7",
    "maxGettableUnderlying(address,bool,address)": "2197c31e",
    "overlying(address)": "0efc8fd2"
  },
  "id": 43
}