{
  "abi": [
    {
      "inputs": [
        {
          "internalType": "contract IMangrove",
          "name": "_MGV",
          "type": "address"
        },
        {
          "internalType": "address",
          "name": "deployer",
          "type": "address"
        }
      ],
      "stateMutability": "nonpayable",
      "type": "constructor"
    },
    {
      "anonymous": false,
      "inputs": [
        {
          "indexed": true,
          "internalType": "contract IMangrove",
          "name": "mangrove",
          "type": "address"
        },
        {
          "indexed": true,
          "internalType": "address",
          "name": "user",
          "type": "address"
        },
        {
          "indexed": false,
          "internalType": "uint256",
          "name": "amount",
          "type": "uint256"
        }
      ],
      "name": "CreditMgvUser",
      "type": "event"
    },
    {
      "anonymous": false,
      "inputs": [
        {
          "indexed": true,
          "internalType": "contract IMangrove",
          "name": "mangrove",
          "type": "address"
        },
        {
          "indexed": true,
          "internalType": "address",
          "name": "user",
          "type": "address"
        },
        {
          "indexed": false,
          "internalType": "uint256",
          "name": "amount",
          "type": "uint256"
        }
      ],
      "name": "DebitMgvUser",
      "type": "event"
    },
    {
      "anonymous": false,
      "inputs": [
        {
          "indexed": false,
          "internalType": "contract IMangrove",
          "name": "mangrove",
          "type": "address"
        },
        {
          "indexed": true,
          "internalType": "contract IERC20",
          "name": "outbound_tkn",
          "type": "address"
        },
        {
          "indexed": true,
          "internalType": "contract IERC20",
          "name": "inbound_tkn",
          "type": "address"
        },
        {
          "indexed": true,
          "internalType": "uint256",
          "name": "offerId",
          "type": "uint256"
        },
        {
          "indexed": false,
          "internalType": "bytes32",
          "name": "reason",
          "type": "bytes32"
        }
      ],
      "name": "LogIncident",
      "type": "event"
    },
    {
      "anonymous": false,
      "inputs": [
        {
          "indexed": false,
          "internalType": "contract IMangrove",
          "name": "mangrove",
          "type": "address"
        },
        {
          "indexed": true,
          "internalType": "contract IERC20",
          "name": "outbound_tkn",
          "type": "address"
        },
        {
          "indexed": true,
          "internalType": "contract IERC20",
          "name": "inbound_tkn",
          "type": "address"
        },
        {
          "indexed": true,
          "internalType": "uint256",
          "name": "offerId",
          "type": "uint256"
        },
        {
          "indexed": false,
          "internalType": "address",
          "name": "owner",
          "type": "address"
        }
      ],
      "name": "NewOwnedOffer",
      "type": "event"
    },
    {
      "anonymous": false,
      "inputs": [
        {
          "indexed": false,
          "internalType": "contract IMangrove",
          "name": "mangrove",
          "type": "address"
        },
        {
          "indexed": true,
          "internalType": "contract IERC20",
          "name": "base",
          "type": "address"
        },
        {
          "indexed": true,
          "internalType": "contract IERC20",
          "name": "quote",
          "type": "address"
        },
        {
          "indexed": true,
          "internalType": "address",
          "name": "taker",
          "type": "address"
        },
        {
          "indexed": false,
          "internalType": "bool",
          "name": "selling",
          "type": "bool"
        },
        {
          "indexed": false,
          "internalType": "uint256",
          "name": "takerGot",
          "type": "uint256"
        },
        {
          "indexed": false,
          "internalType": "uint256",
          "name": "takerGave",
          "type": "uint256"
        },
        {
          "indexed": false,
          "internalType": "uint256",
          "name": "penalty",
          "type": "uint256"
        },
        {
          "indexed": false,
          "internalType": "uint256",
          "name": "restingOrderId",
          "type": "uint256"
        }
      ],
      "name": "OrderSummary",
      "type": "event"
    },
    {
      "anonymous": false,
      "inputs": [
        {
          "indexed": false,
          "internalType": "uint256",
          "name": "",
          "type": "uint256"
        }
      ],
      "name": "SetGasreq",
      "type": "event"
    },
    {
      "anonymous": false,
      "inputs": [
        {
          "indexed": false,
          "internalType": "contract AbstractRouter",
          "name": "",
          "type": "address"
        }
      ],
      "name": "SetRouter",
      "type": "event"
    },
    {
      "inputs": [],
      "name": "MGV",
      "outputs": [
        {
          "internalType": "contract IMangrove",
          "name": "",
          "type": "address"
        }
      ],
      "stateMutability": "view",
      "type": "function"
    },
    {
      "inputs": [
        {
          "internalType": "contract IERC20[]",
          "name": "tokens",
          "type": "address[]"
        }
      ],
      "name": "activate",
      "outputs": [],
      "stateMutability": "nonpayable",
      "type": "function"
    },
    {
      "inputs": [],
      "name": "admin",
      "outputs": [
        {
          "internalType": "address",
          "name": "",
          "type": "address"
        }
      ],
      "stateMutability": "view",
      "type": "function"
    },
    {
      "inputs": [
        {
          "internalType": "contract IERC20",
          "name": "outbound_tkn",
          "type": "address"
        }
      ],
      "name": "approveMangrove",
      "outputs": [],
      "stateMutability": "nonpayable",
      "type": "function"
    },
    {
      "inputs": [
        {
          "internalType": "contract IERC20",
          "name": "token",
          "type": "address"
        }
      ],
      "name": "approveRouter",
      "outputs": [],
      "stateMutability": "nonpayable",
      "type": "function"
    },
    {
      "inputs": [
        {
          "internalType": "contract IERC20[]",
          "name": "tokens",
          "type": "address[]"
        }
      ],
      "name": "checkList",
      "outputs": [],
      "stateMutability": "view",
      "type": "function"
    },
    {
      "inputs": [
        {
          "internalType": "contract IERC20",
          "name": "",
          "type": "address"
        },
        {
          "internalType": "contract IERC20",
          "name": "",
          "type": "address"
        },
        {
          "internalType": "uint256",
          "name": "",
          "type": "uint256"
        }
      ],
      "name": "expiring",
      "outputs": [
        {
          "internalType": "uint256",
          "name": "",
          "type": "uint256"
        }
      ],
      "stateMutability": "view",
      "type": "function"
    },
    {
      "inputs": [
        {
          "internalType": "contract IERC20",
          "name": "outbound_tkn",
          "type": "address"
        },
        {
          "internalType": "contract IERC20",
          "name": "inbound_tkn",
          "type": "address"
        },
        {
          "internalType": "uint256",
          "name": "gasreq",
          "type": "uint256"
        },
        {
          "internalType": "uint256",
          "name": "gasprice",
          "type": "uint256"
        },
        {
          "internalType": "uint256",
          "name": "offerId",
          "type": "uint256"
        }
      ],
      "name": "getMissingProvision",
      "outputs": [
        {
          "internalType": "uint256",
          "name": "",
          "type": "uint256"
        }
      ],
      "stateMutability": "view",
      "type": "function"
    },
    {
      "inputs": [],
      "name": "has_router",
      "outputs": [
        {
          "internalType": "bool",
          "name": "",
          "type": "bool"
        }
      ],
      "stateMutability": "view",
      "type": "function"
    },
    {
      "inputs": [
        {
          "components": [
            {
              "internalType": "address",
              "name": "outbound_tkn",
              "type": "address"
            },
            {
              "internalType": "address",
              "name": "inbound_tkn",
              "type": "address"
            },
            {
              "internalType": "uint256",
              "name": "offerId",
              "type": "uint256"
            },
            {
              "internalType": "t",
              "name": "offer",
              "type": "uint256"
            },
            {
              "internalType": "uint256",
              "name": "wants",
              "type": "uint256"
            },
            {
              "internalType": "uint256",
              "name": "gives",
              "type": "uint256"
            },
            {
              "internalType": "t",
              "name": "offerDetail",
              "type": "uint256"
            },
            {
              "internalType": "t",
              "name": "global",
              "type": "uint256"
            },
            {
              "internalType": "t",
              "name": "local",
              "type": "uint256"
            }
          ],
          "internalType": "struct MgvLib.SingleOrder",
          "name": "order",
          "type": "tuple"
        }
      ],
      "name": "makerExecute",
      "outputs": [
        {
          "internalType": "bytes32",
          "name": "ret",
          "type": "bytes32"
        }
      ],
      "stateMutability": "nonpayable",
      "type": "function"
    },
    {
      "inputs": [
        {
          "components": [
            {
              "internalType": "address",
              "name": "outbound_tkn",
              "type": "address"
            },
            {
              "internalType": "address",
              "name": "inbound_tkn",
              "type": "address"
            },
            {
              "internalType": "uint256",
              "name": "offerId",
              "type": "uint256"
            },
            {
              "internalType": "t",
              "name": "offer",
              "type": "uint256"
            },
            {
              "internalType": "uint256",
              "name": "wants",
              "type": "uint256"
            },
            {
              "internalType": "uint256",
              "name": "gives",
              "type": "uint256"
            },
            {
              "internalType": "t",
              "name": "offerDetail",
              "type": "uint256"
            },
            {
              "internalType": "t",
              "name": "global",
              "type": "uint256"
            },
            {
              "internalType": "t",
              "name": "local",
              "type": "uint256"
            }
          ],
          "internalType": "struct MgvLib.SingleOrder",
          "name": "order",
          "type": "tuple"
        },
        {
          "components": [
            {
              "internalType": "bytes32",
              "name": "makerData",
              "type": "bytes32"
            },
            {
              "internalType": "bytes32",
              "name": "mgvData",
              "type": "bytes32"
            }
          ],
          "internalType": "struct MgvLib.OrderResult",
          "name": "result",
          "type": "tuple"
        }
      ],
      "name": "makerPosthook",
      "outputs": [],
      "stateMutability": "nonpayable",
      "type": "function"
    },
    {
      "inputs": [
        {
          "components": [
            {
              "internalType": "contract IERC20",
              "name": "outbound_tkn",
              "type": "address"
            },
            {
              "internalType": "contract IERC20",
              "name": "inbound_tkn",
              "type": "address"
            },
            {
              "internalType": "uint256",
              "name": "wants",
              "type": "uint256"
            },
            {
              "internalType": "uint256",
              "name": "gives",
              "type": "uint256"
            },
            {
              "internalType": "uint256",
              "name": "gasreq",
              "type": "uint256"
            },
            {
              "internalType": "uint256",
              "name": "gasprice",
              "type": "uint256"
            },
            {
              "internalType": "uint256",
              "name": "pivotId",
              "type": "uint256"
            },
            {
              "internalType": "uint256",
              "name": "offerId",
              "type": "uint256"
            }
          ],
          "internalType": "struct IOfferLogic.MakerOrder",
          "name": "mko",
          "type": "tuple"
        }
      ],
      "name": "newOffer",
      "outputs": [
        {
          "internalType": "uint256",
          "name": "offerId",
          "type": "uint256"
        }
      ],
      "stateMutability": "payable",
      "type": "function"
    },
    {
      "inputs": [
        {
          "internalType": "contract IERC20",
          "name": "outbound_tkn",
          "type": "address"
        },
        {
          "internalType": "contract IERC20",
          "name": "inbound_tkn",
          "type": "address"
        },
        {
          "internalType": "uint256[]",
          "name": "offerIds",
          "type": "uint256[]"
        }
      ],
      "name": "offerOwners",
      "outputs": [
        {
          "internalType": "address[]",
          "name": "_offerOwners",
          "type": "address[]"
        }
      ],
      "stateMutability": "view",
      "type": "function"
    },
    {
      "inputs": [],
      "name": "ofr_gasreq",
      "outputs": [
        {
          "internalType": "uint256",
          "name": "",
          "type": "uint256"
        }
      ],
      "stateMutability": "view",
      "type": "function"
    },
    {
      "inputs": [
        {
          "internalType": "contract IERC20",
          "name": "outbound_tkn",
          "type": "address"
        },
        {
          "internalType": "contract IERC20",
          "name": "inbound_tkn",
          "type": "address"
        },
        {
          "internalType": "uint256",
          "name": "offerId",
          "type": "uint256"
        }
      ],
      "name": "ownerOf",
      "outputs": [
        {
          "internalType": "address",
          "name": "owner",
          "type": "address"
        }
      ],
      "stateMutability": "view",
      "type": "function"
    },
    {
      "inputs": [],
      "name": "reserve",
      "outputs": [
        {
          "internalType": "address",
          "name": "",
          "type": "address"
        }
      ],
      "stateMutability": "view",
      "type": "function"
    },
    {
      "inputs": [
        {
          "internalType": "contract IERC20",
          "name": "outbound_tkn",
          "type": "address"
        },
        {
          "internalType": "contract IERC20",
          "name": "inbound_tkn",
          "type": "address"
        },
        {
          "internalType": "uint256",
          "name": "offerId",
          "type": "uint256"
        },
        {
          "internalType": "bool",
          "name": "deprovision",
          "type": "bool"
        }
      ],
      "name": "retractOffer",
      "outputs": [
        {
          "internalType": "uint256",
          "name": "free_wei",
          "type": "uint256"
        }
      ],
      "stateMutability": "nonpayable",
      "type": "function"
    },
    {
      "inputs": [],
      "name": "router",
      "outputs": [
        {
          "internalType": "contract AbstractRouter",
          "name": "",
          "type": "address"
        }
      ],
      "stateMutability": "view",
      "type": "function"
    },
    {
      "inputs": [
        {
          "internalType": "address",
          "name": "_admin",
          "type": "address"
        }
      ],
      "name": "set_admin",
      "outputs": [],
      "stateMutability": "nonpayable",
      "type": "function"
    },
    {
      "inputs": [
        {
          "internalType": "uint256",
          "name": "gasreq",
          "type": "uint256"
        }
      ],
      "name": "set_gasreq",
      "outputs": [],
      "stateMutability": "nonpayable",
      "type": "function"
    },
    {
      "inputs": [
        {
          "internalType": "address",
          "name": "__reserve",
          "type": "address"
        }
      ],
      "name": "set_reserve",
      "outputs": [],
      "stateMutability": "nonpayable",
      "type": "function"
    },
    {
      "inputs": [
        {
          "internalType": "contract AbstractRouter",
          "name": "router_",
          "type": "address"
        }
      ],
      "name": "set_router",
      "outputs": [],
      "stateMutability": "nonpayable",
      "type": "function"
    },
    {
      "inputs": [
        {
          "components": [
            {
              "internalType": "contract IERC20",
              "name": "base",
              "type": "address"
            },
            {
              "internalType": "contract IERC20",
              "name": "quote",
              "type": "address"
            },
            {
              "internalType": "bool",
              "name": "partialFillNotAllowed",
              "type": "bool"
            },
            {
              "internalType": "bool",
              "name": "selling",
              "type": "bool"
            },
            {
              "internalType": "uint256",
              "name": "wants",
              "type": "uint256"
            },
            {
              "internalType": "uint256",
              "name": "makerWants",
              "type": "uint256"
            },
            {
              "internalType": "uint256",
              "name": "gives",
              "type": "uint256"
            },
            {
              "internalType": "uint256",
              "name": "makerGives",
              "type": "uint256"
            },
            {
              "internalType": "bool",
              "name": "restingOrder",
              "type": "bool"
            },
            {
              "internalType": "uint256",
              "name": "retryNumber",
              "type": "uint256"
            },
            {
              "internalType": "uint256",
              "name": "gasForMarketOrder",
              "type": "uint256"
            },
            {
              "internalType": "uint256",
              "name": "blocksToLiveForRestingOrder",
              "type": "uint256"
            }
          ],
          "internalType": "struct IOrderLogic.TakerOrder",
          "name": "tko",
          "type": "tuple"
        }
      ],
      "name": "take",
      "outputs": [
        {
          "components": [
            {
              "internalType": "uint256",
              "name": "takerGot",
              "type": "uint256"
            },
            {
              "internalType": "uint256",
              "name": "takerGave",
              "type": "uint256"
            },
            {
              "internalType": "uint256",
              "name": "bounty",
              "type": "uint256"
            },
            {
              "internalType": "uint256",
              "name": "fee",
              "type": "uint256"
            },
            {
              "internalType": "uint256",
              "name": "offerId",
              "type": "uint256"
            }
          ],
          "internalType": "struct IOrderLogic.TakerOrderResult",
          "name": "res",
          "type": "tuple"
        }
      ],
      "stateMutability": "payable",
      "type": "function"
    },
    {
      "inputs": [
        {
          "internalType": "contract IERC20",
          "name": "token",
          "type": "address"
        }
      ],
      "name": "tokenBalance",
      "outputs": [
        {
          "internalType": "uint256",
          "name": "",
          "type": "uint256"
        }
      ],
      "stateMutability": "view",
      "type": "function"
    },
    {
      "inputs": [
        {
          "components": [
            {
              "internalType": "contract IERC20",
              "name": "outbound_tkn",
              "type": "address"
            },
            {
              "internalType": "contract IERC20",
              "name": "inbound_tkn",
              "type": "address"
            },
            {
              "internalType": "uint256",
              "name": "wants",
              "type": "uint256"
            },
            {
              "internalType": "uint256",
              "name": "gives",
              "type": "uint256"
            },
            {
              "internalType": "uint256",
              "name": "gasreq",
              "type": "uint256"
            },
            {
              "internalType": "uint256",
              "name": "gasprice",
              "type": "uint256"
            },
            {
              "internalType": "uint256",
              "name": "pivotId",
              "type": "uint256"
            },
            {
              "internalType": "uint256",
              "name": "offerId",
              "type": "uint256"
            }
          ],
          "internalType": "struct IOfferLogic.MakerOrder",
          "name": "mko",
          "type": "tuple"
        }
      ],
      "name": "updateOffer",
      "outputs": [],
      "stateMutability": "payable",
      "type": "function"
    },
    {
      "inputs": [
        {
          "internalType": "uint256",
          "name": "amount",
          "type": "uint256"
        },
        {
          "internalType": "address payable",
          "name": "receiver",
          "type": "address"
        }
      ],
      "name": "withdrawFromMangrove",
      "outputs": [],
      "stateMutability": "nonpayable",
      "type": "function"
    },
    {
      "inputs": [
        {
          "internalType": "contract IERC20",
          "name": "token",
          "type": "address"
        },
        {
          "internalType": "address",
          "name": "receiver",
          "type": "address"
        },
        {
          "internalType": "uint256",
          "name": "amount",
          "type": "uint256"
        }
      ],
      "name": "withdrawToken",
      "outputs": [
        {
          "internalType": "bool",
          "name": "success",
          "type": "bool"
        }
      ],
      "stateMutability": "nonpayable",
      "type": "function"
    },
    {
      "stateMutability": "payable",
      "type": "receive"
    }
  ],
  "bytecode": {
    "object": "0x60a06040523480156200001157600080fd5b50604051620055953803806200559583398101604081905262000034916200060e565b816040516200004390620005e7565b604051809103906000f08015801562000060573d6000803e3d6000fd5b5062015f9082828282813380620000be5760405162461bcd60e51b815260206004820152601860248201527f616363657373436f6e74726f6c6c65642f307841646d696e000000000000000060448201526064015b60405180910390fd5b80620000d46200026560201b620024eb1760201c565b80546001600160a01b0319166001600160a01b03929092169190911790555062ffffff81168114620001495760405162461bcd60e51b815260206004820152601b60248201527f4d616e67726f76654f666665722f676173726571546f6f4869676800000000006044820152606401620000b5565b6001600160a01b038216608052806200016d62000289602090811b6200250f17901c565b5550506001600160a01b038216620001bd5760405162461bcd60e51b815260206004820152601260248201527126bab63a34aab9b2b917983c2937baba32b960711b6044820152606401620000b5565b620001c882620002ad565b505050505050336001600160a01b0316816001600160a01b0316146200025d57620001f38162000457565b620001fd62000552565b60405163e9333fab60e01b81526001600160a01b038381166004830152919091169063e9333fab90602401600060405180830381600087803b1580156200024357600080fd5b505af115801562000258573d6000803e3d6000fd5b505050505b50506200064d565b7f7d382ebca3e46505071795e192d28166a3d4bd0685585591bc6c5b8df6769fd290565b7fae7e31c3220e851db9f204a28b279dfe52b973600b0a456991089c220ae7222490565b620002b7620005c1565b6001600160a01b0316336001600160a01b03161480620002ea57506080516001600160a01b0316336001600160a01b0316145b620003385760405162461bcd60e51b815260206004820152601860248201527f416363657373436f6e74726f6c6c65642f496e76616c696400000000000000006044820152606401620000b5565b6001600160a01b038116620003905760405162461bcd60e51b815260206004820152601c60248201527f6d67764f666665722f7365745f726f757465722f3078526f75746572000000006044820152606401620000b5565b80620003a66200028960201b6200250f1760201c565b60010180546001600160a01b0319166001600160a01b039283161790556040516381bac14f60e01b8152306004820152908216906381bac14f90602401600060405180830381600087803b158015620003fe57600080fd5b505af115801562000413573d6000803e3d6000fd5b50506040516001600160a01b03841681527f6de4326a8b9054d72d9dbab97d27bc4edffadee7d966f5af9cc4eafdaf8e54559250602001905060405180910390a150565b62000461620005c1565b6001600160a01b0316336001600160a01b031614620004c35760405162461bcd60e51b815260206004820152601860248201527f416363657373436f6e74726f6c6c65642f496e76616c696400000000000000006044820152606401620000b5565b6001600160a01b0381166200051b5760405162461bcd60e51b815260206004820152601860248201527f416363657373436f6e74726f6c6c65642f307841646d696e00000000000000006044820152606401620000b5565b80620005316200026560201b620024eb1760201c565b80546001600160a01b0319166001600160a01b039290921691909117905550565b6000806200056a6200028960201b6200250f1760201c565b600101546001600160a01b0316905080620005bc5760405162461bcd60e51b815260206004820152601160248201527036b3bb27b33332b917983c2937baba32b960791b6044820152606401620000b5565b919050565b6000620005d86200026560201b620024eb1760201c565b546001600160a01b0316919050565b611004806200459183390190565b6001600160a01b03811681146200060b57600080fd5b50565b600080604083850312156200062257600080fd5b82516200062f81620005f5565b60208401519092506200064281620005f5565b809150509250929050565b608051613e726200071f6000396000818161039101528181610738015281816107f601528181610ab201528181610e1c015281816112940152818161131a015281816114d90152818161156b01528181611728015281816118500152818161190b015281816119b001528181611c6001528181611e6c01528181611ef8015281816120580152818161241f0152818161263e015281816126c701528181612759015281816129e201528181612ba101528181612ebd01528181612fdf015281816134c401526137870152613e726000f3fe6080604052600436106101a05760003560e01c80639f2211cb116100ec578063e9333fab1161008a578063f851a44011610064578063f851a44014610502578063f887ea4014610517578063f92495e51461052c578063fc488a381461054c57600080fd5b8063e9333fab146104a2578063eedc966a146104c2578063f259cd27146104e257600080fd5b8063d1baa1ef116100c6578063d1baa1ef14610420578063db11851e14610435578063dec8c86b14610455578063e4c34f841461048257600080fd5b80639f2211cb146103cb578063ad97db1b146103eb578063cd3293de1461040b57600080fd5b80635293840d116101595780636c49c32c116101335780636c49c32c1461032a5780637144df241461034a57806384b627f91461036a57806399fa5e2d1461037f57600080fd5b80635293840d146102a25780635486c95f146102c25780636a1c7d05146102d557600080fd5b806301e33667146101ac57806303eb17e2146101e157806310aded60146102035780633d3d130d146102165780633d77fcde146102365780634e7effa81461025657600080fd5b366101a757005b600080fd5b3480156101b857600080fd5b506101cc6101c7366004613819565b61056c565b60405190151581526020015b60405180910390f35b3480156101ed57600080fd5b506102016101fc3660046138a6565b61067e565b005b6102016102113660046138e8565b6106cf565b34801561022257600080fd5b5061020161023136600461390e565b610736565b34801561024257600080fd5b50610201610251366004613951565b61085a565b34801561026257600080fd5b50610294610271366004613819565b600160209081526000938452604080852082529284528284209052825290205481565b6040519081526020016101d8565b3480156102ae57600080fd5b506102016102bd3660046138a6565b610864565b6102946102d03660046138e8565b6108e8565b6102e86102e336600461396e565b610909565b6040516101d89190600060a082019050825182526020830151602083015260408301516040830152606083015160608301526080830151608083015292915050565b34801561033657600080fd5b50610294610345366004613981565b611316565b34801561035657600080fd5b5061020161036536600461399e565b611483565b34801561037657600080fd5b506101cc6116f2565b34801561038b57600080fd5b506103b37f000000000000000000000000000000000000000000000000000000000000000081565b6040516001600160a01b0390911681526020016101d8565b3480156103d757600080fd5b506102016103e6366004613951565b611711565b3480156103f757600080fd5b506102946104063660046139dc565b6117f1565b34801561041757600080fd5b506103b3611b6a565b34801561042c57600080fd5b50610294611b95565b34801561044157600080fd5b50610201610450366004613951565b611c33565b34801561046157600080fd5b50610475610470366004613a2f565b611dad565b6040516101d89190613a94565b34801561048e57600080fd5b5061029461049d366004613ae1565b611e5e565b3480156104ae57600080fd5b506102016104bd366004613951565b6120fa565b3480156104ce57600080fd5b506102946104dd366004613951565b6121b2565b3480156104ee57600080fd5b506102016104fd366004613951565b612231565b34801561050e57600080fd5b506103b3612306565b34801561052357600080fd5b506103b361231f565b34801561053857600080fd5b506103b3610547366004613819565b61237f565b34801561055857600080fd5b50610201610567366004613b32565b6123f2565b60006001600160a01b0383166105d45760405162461bcd60e51b815260206004820152602260248201527f4d756c7469557365722f7769746864726177546f6b656e2f307852656365697660448201526132b960f11b60648201526084015b60405180910390fd5b6105dc61231f565b6001600160a01b03166321754d9e856105f3611b6a565b6040516001600160e01b031960e085901b1681526001600160a01b03928316600482015290821660248201529086166044820152606481018590526084016020604051808303816000875af1158015610650573d6000803e3d6000fd5b505050506040513d601f19601f820116820180604052508101906106749190613b4b565b90505b9392505050565b60005b818110156106ca576106b883838381811061069e5761069e613b68565b90506020020160208101906106b39190613951565b612533565b806106c281613b94565b915050610681565b505050565b6106e76106e136839003830183613bc3565b346125a8565b6107335760405162461bcd60e51b815260206004820152601960248201527f4d756c7469557365722f7570646174654f666665724661696c0000000000000060448201526064016105cb565b50565b7f00000000000000000000000000000000000000000000000000000000000000006001600160a01b03811615806107755750336001600160a01b038216145b6107915760405162461bcd60e51b81526004016105cb90613c6f565b81602001356f6d67762f74726164655375636365737360801b036107be576107b883612ae5565b50505050565b604083018035906107d29060208601613951565b6001600160a01b03166107e86020860186613951565b604080516001600160a01b037f0000000000000000000000000000000000000000000000000000000000000000811682528735602083015292909216917f736a3993b9f8b1c5603896c76376792887f376b1fe7fc981e09a16530bf1e4e0910160405180910390a46107b88383612b23565b6107333382612d87565b61086c612306565b6001600160a01b0316336001600160a01b03161461089c5760405162461bcd60e51b81526004016105cb90613c6f565b60005b818110156106ca576108d68383838181106108bc576108bc613b68565b90506020020160208101906108d19190613951565b612e11565b806108e081613b94565b91505061089f565b60006109036108fc36849003840184613bc3565b3334612e98565b92915050565b61093b6040518060a0016040528060008152602001600081526020016000815260200160008152602001600081525090565b60008061094e6080850160608601613ca6565b6109745761095f6020850185613951565b61096f6040860160208701613951565b610991565b6109846040850160208601613951565b6109916020860186613951565b91509150600061099f61231f565b6001600160a01b031663333dbb0d83338860c0013560016040518563ffffffff1660e01b81526004016109d59493929190613cc3565b6020604051808303816000875af11580156109f4573d6000803e3d6000fd5b505050506040513d601f19601f82011682018060405250810190610a189190613cec565b90508460c001358114610a6d5760405162461bcd60e51b815260206004820152601a60248201527f6d67764f726465722f6d6f2f7472616e73666572496e4661696c00000000000060448201526064016105cb565b60005b610a806101208701356001613d05565b811015610c1e5761014086013515801590610a9f57508561014001355a105b610c1e5760008080806001600160a01b037f00000000000000000000000000000000000000000000000000000000000000001663fbffe5fd89898d608001358e60c001358f6060016020810190610af69190613ca6565b610b01576001610b04565b60005b6040516001600160e01b031960e088901b1681526001600160a01b039586166004820152949093166024850152604484019190915260648301521515608482015260a4016080604051808303816000875af1158015610b67573d6000803e3d6000fd5b505050506040513d601f19601f82011682018060405250810190610b8b9190613d1d565b93509350935093508389600001818151610ba59190613d05565b905250602089018051849190610bbc908390613d05565b905250604089018051839190610bd3908390613d05565b905250606089018051829190610bea908390613d05565b90525083158015610bf9575081155b15610c075750505050610c1e565b505050508080610c1690613b94565b915050610a70565b506000610c2b86866130fb565b9050610c3d6060870160408801613ca6565b1580610c465750805b80610c5e5750610c5e61012087016101008801613ca6565b610ca65760405162461bcd60e51b81526020600482015260196024820152781b59dd93dc99195c8bdb5bcbdb9bd4185c9d1a585b119a5b1b603a1b60448201526064016105cb565b845115610d1a57610cb561231f565b855160405163137476d160e11b81526001600160a01b0392909216916326e8eda291610ce79188913391600401613d53565b600060405180830381600087803b158015610d0157600080fd5b505af1158015610d15573d6000803e3d6000fd5b505050505b610d2c61012087016101008801613ca6565b8015610d36575080155b1561110c5760408051610100810182526001600160a01b0380861682528616602082015260608701518751610dc493830191610d7191613d05565b610d7f9060a08b0135613d77565b815260200187602001518960e00135610d989190613d77565b8152602001610da5611b95565b8152602001600081526020016000815260200160008152503334612e98565b608086015233610dda6040880160208901613951565b6001600160a01b0316610df06020890189613951565b6001600160a01b03167f587734843819064f2153f96c808d1aeacaceccfa595ec4b9ed484c4bff687f7c7f0000000000000000000000000000000000000000000000000000000000000000610e4b60808c0160608d01613ca6565b8a5160208c01516040808e015160808f01519151610e9b9695949392906001600160a01b03969096168652931515602086015260408501929092526060840152608083015260a082015260c00190565b60405180910390a4846080015160000361103b57610ebf6060870160408801613ca6565b15610f085760405162461bcd60e51b81526020600482015260196024820152781b59dd93dc99195c8bdb5bcbdb9bd4185c9d1a585b119a5b1b603a1b60448201526064016105cb565b610f26833387602001518960c00135610f219190613d77565b613144565b610f725760405162461bcd60e51b815260206004820152601a60248201527f6d67764f726465722f6d6f2f7472616e73666572496e4661696c00000000000060448201526064016105cb565b6000856040015134610f849190613d05565b11156110325760408501516000903390610f9e9034613d05565b604051600081818185875af1925050503d8060008114610fda576040519150601f19603f3d011682016040523d82523d6000602084013e610fdf565b606091505b50509050806110305760405162461bcd60e51b815260206004820152601f60248201527f6d67764f726465722f6d6f2f726566756e6450726f766973696f6e4661696c0060448201526064016105cb565b505b50505050919050565b61104361231f565b6001600160a01b03166326e8eda2843388602001518a60c001356110679190613d77565b6040518463ffffffff1660e01b815260040161108593929190613d53565b600060405180830381600087803b15801561109f57600080fd5b505af11580156110b3573d6000803e3d6000fd5b5050505061016086013515611032576110d161016087013543613d05565b6001600160a01b038085166000908152600160209081526040808320938916835292815282822060808a015183529052205550505050919050565b61111461231f565b6001600160a01b03166326e8eda2843388602001518a60c001356111389190613d77565b6040518463ffffffff1660e01b815260040161115693929190613d53565b600060405180830381600087803b15801561117057600080fd5b505af1158015611184573d6000803e3d6000fd5b50505050600085604001513461119a9190613d05565b111561124157604085015160009033906111b49034613d05565b604051600081818185875af1925050503d80600081146111f0576040519150601f19603f3d011682016040523d82523d6000602084013e6111f5565b606091505b505090508061123f5760405162461bcd60e51b81526020600482015260166024820152751b59dd93dc99195c8bdb5bcbdc99599d5b9911985a5b60521b60448201526064016105cb565b505b336112526040880160208901613951565b6001600160a01b03166112686020890189613951565b6001600160a01b03167f587734843819064f2153f96c808d1aeacaceccfa595ec4b9ed484c4bff687f7c7f00000000000000000000000000000000000000000000000000000000000000006112c360808c0160608d01613ca6565b8a516020808d01516040808f015181516001600160a01b039097168752941515928601929092529084019190915260608301526080820152600060a082015260c00160405180910390a450505050919050565b60007f00000000000000000000000000000000000000000000000000000000000000006001600160a01b03811615806113575750336001600160a01b038216145b6113735760405162461bcd60e51b81526004016105cb90613c6f565b61137c8361323a565b6113c15760405162461bcd60e51b81526020600482015260166024820152751b59dd93d999995c8bd8589bdc9d0bdc995b9959d95960521b60448201526064016105cb565b60006113d18460a00135856132bf565b111561141f5760405162461bcd60e51b815260206004820152601860248201527f6d67764f666665722f61626f72742f7075744661696c6564000000000000000060448201526064016105cb565b600061142f84608001358561336d565b111561147d5760405162461bcd60e51b815260206004820152601860248201527f6d67764f666665722f61626f72742f6765744661696c6564000000000000000060448201526064016105cb565b50919050565b61148b612306565b6001600160a01b0316336001600160a01b0316146114bb5760405162461bcd60e51b81526004016105cb90613c6f565b6000198203611555576040516370a0823160e01b81523060048201527f00000000000000000000000000000000000000000000000000000000000000006001600160a01b0316906370a0823190602401602060405180830381865afa158015611528573d6000803e3d6000fd5b505050506040513d601f19601f8201168201806040525081019061154c9190613cec565b915081156116ee575b604051632e1a7d4d60e01b8152600481018390527f00000000000000000000000000000000000000000000000000000000000000006001600160a01b031690632e1a7d4d906024016020604051808303816000875af11580156115bc573d6000803e3d6000fd5b505050506040513d601f19601f820116820180604052508101906115e09190613b4b565b61163a5760405162461bcd60e51b815260206004820152602560248201527f6d67764f666665722f776974686472617746726f6d4d67762f776974686472616044820152641dd1985a5b60da1b60648201526084016105cb565b6000816001600160a01b03168360405160006040518083038185875af1925050503d8060008114611687576040519150601f19603f3d011682016040523d82523d6000602084013e61168c565b606091505b50509050806106ca5760405162461bcd60e51b815260206004820152602860248201527f6d67764f666665722f776974686472617746726f6d4d67762f70617961626c6560448201526710d85b1b11985a5b60c21b60648201526084016105cb565b5050565b6000806116fd61250f565b600101546001600160a01b03161415919050565b60405163095ea7b360e01b81526001600160a01b037f000000000000000000000000000000000000000000000000000000000000000081166004830152600019602483015282169063095ea7b3906044016020604051808303816000875af1158015611781573d6000803e3d6000fd5b505050506040513d601f19601f820116820180604052508101906117a59190613b4b565b6107335760405162461bcd60e51b815260206004820152601d60248201527f6d67764f666665722f617070726f76654d616e67726f76652f4661696c00000060448201526064016105cb565b6001600160a01b03848116600090815260208181526040808320878516845282528083208684528252808320815180830190925254938416808252600160a01b9094046001600160601b031691810191909152909133148061187b57507f00000000000000000000000000000000000000000000000000000000000000006001600160a01b031633145b6118c75760405162461bcd60e51b815260206004820152601f60248201527f4d756c74692f726574726163744f666665722f756e617574686f72697a65640060448201526064016105cb565b60208101516001600160601b0316156118fc57826118e65760006118ec565b80602001515b6001600160601b03169150611994565b60405163ad97db1b60e01b81527f00000000000000000000000000000000000000000000000000000000000000006001600160a01b03169063ad97db1b9061194e908990899089908990600401613cc3565b6020604051808303816000875af115801561196d573d6000803e3d6000fd5b505050506040513d601f19601f820116820180604052508101906119919190613cec565b91505b8115611b6157604051632e1a7d4d60e01b8152600481018390527f00000000000000000000000000000000000000000000000000000000000000006001600160a01b031690632e1a7d4d906024016020604051808303816000875af1158015611a01573d6000803e3d6000fd5b505050506040513d601f19601f82011682018060405250810190611a259190613b4b565b611a6a5760405162461bcd60e51b8152602060048201526016602482015275135d5b1d1a555cd95c8bddda5d1a191c985dd1985a5b60521b60448201526064016105cb565b60408051808201825282516001600160a01b039081168252600060208084018281528b841683528282528583208b8516845282528583208a8452909152848220935190516001600160601b0316600160a01b0292169190911790915590513390849060006040518083038185875af1925050503d8060008114611b09576040519150601f19603f3d011682016040523d82523d6000602084013e611b0e565b606091505b5050905080611b5f5760405162461bcd60e51b815260206004820152601960248201527f4d756c7469557365722f7765695472616e736665724661696c0000000000000060448201526064016105cb565b505b50949350505050565b600080611b763361346b565b90506001600160a01b03811615611b8d5780611b8f565b335b91505090565b6000611b9f6116f2565b15611c2557611bac61231f565b6001600160a01b0316630417ffda6040518163ffffffff1660e01b8152600401602060405180830381865afa158015611be9573d6000803e3d6000fd5b505050506040513d601f19601f82011682018060405250810190611c0d9190613cec565b611c1561250f565b54611c209190613d05565b905090565b611c2d61250f565b54919050565b611c3b612306565b6001600160a01b0316336001600160a01b03161480611c825750336001600160a01b037f000000000000000000000000000000000000000000000000000000000000000016145b611c9e5760405162461bcd60e51b81526004016105cb90613c6f565b6001600160a01b038116611cf45760405162461bcd60e51b815260206004820152601c60248201527f6d67764f666665722f7365745f726f757465722f3078526f757465720000000060448201526064016105cb565b80611cfd61250f565b60010180546001600160a01b0319166001600160a01b039283161790556040516381bac14f60e01b8152306004820152908216906381bac14f90602401600060405180830381600087803b158015611d5457600080fd5b505af1158015611d68573d6000803e3d6000fd5b50506040516001600160a01b03841681527f6de4326a8b9054d72d9dbab97d27bc4edffadee7d966f5af9cc4eafdaf8e5455925060200190505b60405180910390a150565b60608167ffffffffffffffff811115611dc857611dc8613bad565b604051908082528060200260200182016040528015611df1578160200160208202803683370190505b50905060005b82811015611b6157611e228686868685818110611e1657611e16613b68565b9050602002013561237f565b828281518110611e3457611e34613b68565b6001600160a01b039092166020928302919091019091015280611e5681613b94565b915050611df7565b600080806001600160a01b037f00000000000000000000000000000000000000000000000000000000000000001663cbf75c9a89896040518363ffffffff1660e01b8152600401611eb0929190613d8e565b6040805180830381865afa158015611ecc573d6000803e3d6000fd5b505050506040513d601f19601f82011682018060405250810190611ef09190613da8565b9150915060007f00000000000000000000000000000000000000000000000000000000000000006001600160a01b0316635722647b611f2c8b90565b8a886040518463ffffffff1660e01b8152600401611f4c93929190613d53565b602060405180830381865afa158015611f69573d6000803e3d6000fd5b505050506040513d601f19601f82011682018060405250810190611f8d9190613cec565b9050600086604085901c61ffff161115611fb0575061ffff604084901c16611fb3565b50855b62ffffff8810611fc857611fc5611b95565b97505b600081611fde62ffffff606087901c168b613d05565b611fe89190613dcc565b611ff690633b9aca00613dcc565b9050600061ffff602085901c1661201d62ffffff603087901c811690604888901c16613d05565b6120279190613dcc565b61203590633b9aca00613dcc565b6040516370a0823160e01b81523060048201529091506000906001600160a01b037f000000000000000000000000000000000000000000000000000000000000000016906370a0823190602401602060405180830381865afa15801561209f573d6000803e3d6000fd5b505050506040513d601f19601f820116820180604052508101906120c39190613cec565b6120cd9083613d05565b9050828110156120e6576120e18184613d77565b6120e9565b60005b9d9c50505050505050505050505050565b612102612306565b6001600160a01b0316336001600160a01b0316146121325760405162461bcd60e51b81526004016105cb90613c6f565b6001600160a01b0381166121885760405162461bcd60e51b815260206004820152601860248201527f416363657373436f6e74726f6c6c65642f307841646d696e000000000000000060448201526064016105cb565b806121916124eb565b80546001600160a01b0319166001600160a01b039290921691909117905550565b60006121bc61231f565b6001600160a01b03166305684fde836121d3611b6a565b6040518363ffffffff1660e01b81526004016121f0929190613d8e565b602060405180830381865afa15801561220d573d6000803e3d6000fd5b505050506040513d601f19601f820116820180604052508101906109039190613cec565b806001600160a01b031663095ea7b361224861231f565b6040516001600160e01b031960e084901b1681526001600160a01b03909116600482015260001960248201526044016020604051808303816000875af1158015612296573d6000803e3d6000fd5b505050506040513d601f19601f820116820180604052508101906122ba9190613b4b565b6107335760405162461bcd60e51b815260206004820152601b60248201527f6d67764f666665722f617070726f7665526f757465722f4661696c000000000060448201526064016105cb565b60006123106124eb565b546001600160a01b0316919050565b60008061232a61250f565b600101546001600160a01b031690508061237a5760405162461bcd60e51b815260206004820152601160248201527036b3bb27b33332b917983c2937baba32b960791b60448201526064016105cb565b919050565b6001600160a01b038084166000908152602081815260408083208685168452825280832085845290915290205416806106775760405162461bcd60e51b815260206004820152601560248201527436bab63a34aab9b2b917bab735b7bbb727b33332b960591b60448201526064016105cb565b6123fa612306565b6001600160a01b0316336001600160a01b031614806124415750336001600160a01b037f000000000000000000000000000000000000000000000000000000000000000016145b61245d5760405162461bcd60e51b81526004016105cb90613c6f565b808162ffffff16146124b15760405162461bcd60e51b815260206004820152601860248201527f6d67764f666665722f6761737265712f6f766572666c6f77000000000000000060448201526064016105cb565b806124ba61250f565b556040518181527fafef3ad374c0b972e3c793be825735801fa05cc4c67157d98d9a111b4027988d90602001611da2565b7f7d382ebca3e46505071795e192d28166a3d4bd0685585591bc6c5b8df6769fd290565b7fae7e31c3220e851db9f204a28b279dfe52b973600b0a456991089c220ae7222490565b61253b61231f565b6001600160a01b031663a01dccd882612552611b6a565b6040518363ffffffff1660e01b815260040161256f929190613d8e565b60006040518083038186803b15801561258757600080fd5b505afa15801561259b573d6000803e3d6000fd5b505050506107338161349b565b81516001600160a01b039081166000908152602081815260408083208287015185168452825280832060e0870151845282528083208151808301835290549485168152600160a01b9094046001600160601b031684830152805160808101825283815291820183905281018290526060810182905290919081516001600160a01b03163314806126605750336001600160a01b037f000000000000000000000000000000000000000000000000000000000000000016145b6126ac5760405162461bcd60e51b815260206004820152601e60248201527f4d756c74692f7570646174654f666665722f756e617574686f72697a6564000060448201526064016105cb565b8451602086015160e0870151604051635722647b60e01b81527f00000000000000000000000000000000000000000000000000000000000000006001600160a01b031693635722647b93612707939192909190600401613d53565b602060405180830381865afa158015612724573d6000803e3d6000fd5b505050506040513d601f19601f820116820180604052508101906127489190613cec565b604082015284516001600160a01b037f0000000000000000000000000000000000000000000000000000000000000000169063cbf75c9a9060208801516040518363ffffffff1660e01b81526004016127a2929190613d8e565b6040805180830381865afa1580156127be573d6000803e3d6000fd5b505050506040513d601f19601f820116820180604052508101906127e29190613da8565b6020830152815260608101849052608085015162ffffff10612808578460800151612810565b612810611b95565b6080860152604081015160201c61ffff1660a086018190526000036128f25760208201516001600160601b0316156128c85781602001516001600160601b0316816060018181516128619190613d05565b90525060408051808201825283516001600160a01b039081168252600060208084018281528a51841683528282528583208b83015185168452825285832060e08c01518452909152939020915192516001600160601b0316600160a01b0292169190911790555b608085015160608083015160208401516128e893921c62ffffff16613589565b60a0860152612973565b831561297357602081015160601c62ffffff16604082015160481c62ffffff1661291c9190613d05565b60a086015161292f90633b9aca00613dcc565b6129399190613dcc565b8160600181815161294a9190613d05565b9052506080850151606080830151602084015161296d93921c62ffffff16613589565b60a08601525b805160401c61ffff168560a0015110156129e05760405162461bcd60e51b815260206004820152602860248201527f4d756c7469557365722f7570646174654f666665722f4e6f74456e6f756768506044820152673937bb34b9b4b7b760c11b60648201526084016105cb565b7f00000000000000000000000000000000000000000000000000000000000000006001600160a01b0316636a4f769185612a1b886000015190565b602089015189604001518a606001518b608001518c60a001518d60c001518e60e001516040518a63ffffffff1660e01b8152600401612aa09897969594939291906001600160a01b03988916815296909716602087015260408601949094526060850192909252608084015260a083015260c082015260e08101919091526101000190565b6000604051808303818588803b158015612ab957600080fd5b505af193505050508015612acb575060015b612ada57600092505050610903565b506001949350505050565b6000612af082613624565b90508061237a5761147d612b076020840184613951565b612b176040850160208601613951565b846040013560016117f1565b600080612b336020850185613951565b90506000612b476040860160208701613951565b6001600160a01b03838116600090815260208181526040808320858516845282528083208a820135845282528083208151808301909252548085168252600160a01b90046001600160601b031681830152939450909182917f00000000000000000000000000000000000000000000000000000000000000009091169063cbf75c9a90612bd6908b018b613951565b612be660408c0160208d01613951565b6040518363ffffffff1660e01b8152600401612c03929190613d8e565b6040805180830381865afa158015612c1f573d6000803e3d6000fd5b505050506040513d601f19601f82011682018060405250810190612c439190613da8565b90925090506000612c6061ffff604085901c16633b9aca00613dcc565b9050600060c08a013560301c62ffffff1660c08b013560481c62ffffff16612c889190613d05565b612ca161ffff60c08d013560201c16633b9aca00613dcc565b612cab9190613dcc565b9050600082606085901c62ffffff165a60c08e013560481c62ffffff16612cd29190613d77565b612cde90610bb8613d05565b612ce89190613d05565b612cf29190613dcc565b9050600082821015612d0d57612d088284613d77565b612d10565b60005b60408051808201825298516001600160a01b039081168a526001600160601b039283166020808c019182529c82166000908152808e528381209c831681529b8d52828c209f8301358c529e909b5290982096519b51909716600160a01b029a90971699909917909355506001979650505050505050565b6001600160a01b038116612dd45760405162461bcd60e51b815260206004820152601460248201527353696e676c65557365722f30785265736572766560601b60448201526064016105cb565b80612ddd61250f565b6001600160a01b0393841660009081526002919091016020526040902080546001600160a01b031916919093161790915550565b612e1a81611711565b612e226116f2565b1561073357612e3081612231565b612e3861231f565b604051630716a76760e21b81526001600160a01b0383811660048301529190911690631c5a9d9c90602401600060405180830381600087803b158015612e7d57600080fd5b505af1158015612e91573d6000803e3d6000fd5b5050505050565b825160208401516040516365fbae4d60e11b8152600092839283926001600160a01b037f0000000000000000000000000000000000000000000000000000000000000000169263cbf75c9a92612ef092600401613d8e565b6040805180830381865afa158015612f0c573d6000803e3d6000fd5b505050506040513d601f19601f82011682018060405250810190612f309190613da8565b9150915062ffffff8016866080015111612f4e578560800151612f56565b612f56611b95565b60808701819052612f719085606084901c62ffffff16613589565b60a0870181905261ffff604084901c161115612fdd5760405162461bcd60e51b815260206004820152602560248201527f4d756c7469557365722f6e65774f666665722f4e6f74456e6f75676850726f7660448201526434b9b4b7b760d91b60648201526084016105cb565b7f00000000000000000000000000000000000000000000000000000000000000006001600160a01b03166349f6d2dc85613018896000015190565b60208a01518a604001518b606001518c608001518d60a001518e60c001516040518963ffffffff1660e01b815260040161309197969594939291906001600160a01b03978816815295909616602086015260408501939093526060840191909152608083015260a082015260c081019190915260e00190565b60206040518083038185885af11580156130af573d6000803e3d6000fd5b50505050506040513d601f19601f820116820180604052508101906130d49190613cec565b60e08701819052865160208801516130ec92886136fb565b50505060e08301519392505050565b600061310d6080840160608501613ca6565b15613125578260c00135826020015110159050610903565b6060820151825160808501359161313b91613d05565b10159050610903565b600081158061315b57506001600160a01b03831630145b1561316857506001610677565b604080516001600160a01b038581166024830152604480830186905283518084039091018152606490920183526020820180516001600160e01b031663a9059cbb60e01b17905291516000928392908816916131c49190613deb565b6000604051808303816000865af19150503d8060008114613201576040519150601f19603f3d011682016040523d82523d6000602084013e613206565b606091505b50915091508180156132305750805115806132305750808060200190518101906132309190613b4b565b9695505050505050565b60008060018161324d6020860186613951565b6001600160a01b03166001600160a01b0316815260200190815260200160002060008460200160208101906132829190613951565b6001600160a01b03168152602080820192909252604090810160009081208683013582529092529020549050801580610677575043111592915050565b6000806132cf6020840184613951565b905060006132e36040850160208601613951565b905060006132f68383876040013561237f565b905061330061231f565b6001600160a01b03166326e8eda28383896040518463ffffffff1660e01b815260040161332f93929190613d53565b600060405180830381600087803b15801561334957600080fd5b505af115801561335d573d6000803e3d6000fd5b5060009998505050505050505050565b60008061337d6020840184613951565b905060006133916040850160208601613951565b905060006133a48383876040013561237f565b905060006133b18261346b565b905060006133bd61231f565b6001600160a01b031663333dbb0d8660006001600160a01b0316856001600160a01b0316146133ec57846133ee565b855b8b60016040518563ffffffff1660e01b81526004016134109493929190613cc3565b6020604051808303816000875af115801561342f573d6000803e3d6000fd5b505050506040513d601f19601f820116820180604052508101906134539190613cec565b905061345f8189613d77565b98975050505050505050565b600061347561250f565b6001600160a01b0392831660009081526002919091016020526040902054909116919050565b604051636eb1769f60e11b81526000906001600160a01b0383169063dd62ed3e906134ec9030907f000000000000000000000000000000000000000000000000000000000000000090600401613d8e565b602060405180830381865afa158015613509573d6000803e3d6000fd5b505050506040513d601f19601f8201168201806040525081019061352d9190613cec565b116107335760405162461bcd60e51b815260206004820152602660248201527f4d616e67726f76654f666665722f41646d696e4d757374417070726f76654d616044820152656e67726f766560d01b60648201526084016105cb565b6000806135968584613d05565b6135a490633b9aca00613dcc565b90508084101561360b5760405162461bcd60e51b815260206004820152602c60248201527f4d756c7469557365722f6465726976655f67617370726963652f4e6f74456e6f60448201526b3ab3b4283937bb34b9b4b7b760a11b60648201526084016105cb565b80848161361a5761361a613e26565b0495945050505050565b600080613630836137bc565b9050600061363d846137dc565b905081600003613651575060019392505050565b6040805161010081019091526136f3908061366f6020880188613951565b6001600160a01b031681526020018660200160208101906136909190613951565b6001600160a01b03168152602081018490526040810185905260600160c087013560481c62ffffff16815260209081019060c0880135901c61ffff168152602001606087013560c01c63ffffffff168152602001866040013581525060006125a8565b949350505050565b6040805180820182526001600160a01b038084168252600060208084018281528984168084528383528684208a86168086529084528785208a865290935292869020945190516001600160601b0316600160a01b029316929092179092559151849291907f460a431c86ecaea27134277388c72021356689d9eb62c3b25a5e4a97da7a8a14906137ae907f0000000000000000000000000000000000000000000000000000000000000000908790613d8e565b60405180910390a450505050565b600060808201356001600160601b036060840135165b6109039190613d77565b600060a0820135606080840135901c6001600160601b03166137d2565b6001600160a01b038116811461073357600080fd5b803561237a816137f9565b60008060006060848603121561382e57600080fd5b8335613839816137f9565b92506020840135613849816137f9565b929592945050506040919091013590565b60008083601f84011261386c57600080fd5b50813567ffffffffffffffff81111561388457600080fd5b6020830191508360208260051b850101111561389f57600080fd5b9250929050565b600080602083850312156138b957600080fd5b823567ffffffffffffffff8111156138d057600080fd5b6138dc8582860161385a565b90969095509350505050565b6000610100828403121561147d57600080fd5b6000610120828403121561147d57600080fd5b60008082840361016081121561392357600080fd5b61392d85856138fb565b9250604061011f198201121561394257600080fd5b50610120830190509250929050565b60006020828403121561396357600080fd5b8135610677816137f9565b6000610180828403121561147d57600080fd5b6000610120828403121561399457600080fd5b61067783836138fb565b600080604083850312156139b157600080fd5b8235915060208301356139c3816137f9565b809150509250929050565b801515811461073357600080fd5b600080600080608085870312156139f257600080fd5b84356139fd816137f9565b93506020850135613a0d816137f9565b9250604085013591506060850135613a24816139ce565b939692955090935050565b60008060008060608587031215613a4557600080fd5b8435613a50816137f9565b93506020850135613a60816137f9565b9250604085013567ffffffffffffffff811115613a7c57600080fd5b613a888782880161385a565b95989497509550505050565b6020808252825182820181905260009190848201906040850190845b81811015613ad55783516001600160a01b031683529284019291840191600101613ab0565b50909695505050505050565b600080600080600060a08688031215613af957600080fd5b8535613b04816137f9565b94506020860135613b14816137f9565b94979496505050506040830135926060810135926080909101359150565b600060208284031215613b4457600080fd5b5035919050565b600060208284031215613b5d57600080fd5b8151610677816139ce565b634e487b7160e01b600052603260045260246000fd5b634e487b7160e01b600052601160045260246000fd5b600060018201613ba657613ba6613b7e565b5060010190565b634e487b7160e01b600052604160045260246000fd5b6000610100808385031215613bd757600080fd5b6040519081019067ffffffffffffffff82118183101715613c0857634e487b7160e01b600052604160045260246000fd5b81604052613c158461380e565b8152613c236020850161380e565b602082015260408401356040820152606084013560608201526080840135608082015260a084013560a082015260c084013560c082015260e084013560e0820152809250505092915050565b60208082526018908201527f416363657373436f6e74726f6c6c65642f496e76616c69640000000000000000604082015260600190565b600060208284031215613cb857600080fd5b8135610677816139ce565b6001600160a01b0394851681529290931660208301526040820152901515606082015260800190565b600060208284031215613cfe57600080fd5b5051919050565b60008219821115613d1857613d18613b7e565b500190565b60008060008060808587031215613d3357600080fd5b505082516020840151604085015160609095015191969095509092509050565b6001600160a01b039384168152919092166020820152604081019190915260600190565b600082821015613d8957613d89613b7e565b500390565b6001600160a01b0392831681529116602082015260400190565b60008060408385031215613dbb57600080fd5b505080516020909101519092909150565b6000816000190483118215151615613de657613de6613b7e565b500290565b6000825160005b81811015613e0c5760208186018101518583015201613df2565b81811115613e1b576000828501525b509190910192915050565b634e487b7160e01b600052601260045260246000fdfea26469706673582212201cc957b54dbf504b5aaf5ca3d45f43f50f6b6c7f11489c607b8327766f7ae96264736f6c634300080e0033608060405234801561001057600080fd5b5061c35033806100675760405162461bcd60e51b815260206004820152601860248201527f616363657373436f6e74726f6c6c65642f307841646d696e000000000000000060448201526064015b60405180910390fd5b8061007a61010a60201b6107e51760201c565b80546001600160a01b0319166001600160a01b03929092169190911790555062ffffff811681146100ed5760405162461bcd60e51b815260206004820152601660248201527f526f757465722f6f76657268656164546f6f4869676800000000000000000000604482015260640161005e565b8061010061012e60201b6108091760201c565b6001015550610152565b7f7d382ebca3e46505071795e192d28166a3d4bd0685585591bc6c5b8df6769fd290565b7ff2910982afb88211fa9894801aaf0314409ca240a0a8904897b9f5ba323ca53390565b610ea3806101616000396000f3fe608060405234801561001057600080fd5b50600436106100cf5760003560e01c8063362aecb11161008c578063cf5e7bd311610066578063cf5e7bd314610199578063e9333fab146101ac578063f850a81c146101bf578063f851a440146101d257600080fd5b8063362aecb11461016057806381bac14f14610173578063a01dccd81461018657600080fd5b80630417ffda146100d457806305684fde146100ef5780631c5a9d9c1461010257806321754d9e1461011757806326e8eda21461013a578063333dbb0d1461014d575b600080fd5b6100dc6101f2565b6040519081526020015b60405180910390f35b6100dc6100fd366004610bc3565b610205565b610115610110366004610bfc565b61027a565b005b61012a610125366004610c19565b6102cd565b60405190151581526020016100e6565b610115610148366004610c6a565b61030b565b6100dc61015b366004610cb9565b610341565b61012a61016e366004610bfc565b6103fd565b610115610181366004610bfc565b610429565b610115610194366004610bc3565b6104a7565b6101156101a7366004610bfc565b61057d565b6101156101ba366004610bfc565b6105ce565b6101156101cd366004610d0c565b6106b6565b6101da6107cc565b6040516001600160a01b0390911681526020016100e6565b60006101fc610809565b60010154905090565b6040516370a0823160e01b81526001600160a01b038281166004830152600091908416906370a0823190602401602060405180830381865afa15801561024f573d6000803e3d6000fd5b505050506040513d601f19601f820116820180604052508101906102739190610d92565b9392505050565b6102826107cc565b6001600160a01b0316336001600160a01b031614806102a557506102a5336103fd565b6102ca5760405162461bcd60e51b81526004016102c190610dab565b60405180910390fd5b50565b60006102d8336103fd565b6102f45760405162461bcd60e51b81526004016102c190610dab565b6103008585858561082d565b90505b949350505050565b610314336103fd565b6103305760405162461bcd60e51b81526004016102c190610dab565b61033c8383338461083b565b505050565b600061034c336103fd565b6103685760405162461bcd60e51b81526004016102c190610dab565b6040516370a0823160e01b81523360048201526000906001600160a01b038716906370a0823190602401602060405180830381865afa1580156103af573d6000803e3d6000fd5b505050506040513d601f19601f820116820180604052508101906103d39190610d92565b90508381106103e6576000915050610303565b6103f38686338787610893565b9695505050505050565b6000610407610809565b6001600160a01b03909216600090815260209290925250604090205460ff1690565b6104316107cc565b6001600160a01b0316336001600160a01b031614806104545750610454336103fd565b6104705760405162461bcd60e51b81526004016102c190610dab565b600161047a610809565b6001600160a01b039290921660009081526020929092526040909120805460ff1916911515919091179055565b604051636eb1769f60e11b81523360048201523060248201526000906001600160a01b0384169063dd62ed3e90604401602060405180830381865afa1580156104f4573d6000803e3d6000fd5b505050506040513d601f19601f820116820180604052508101906105189190610d92565b1161056f5760405162461bcd60e51b815260206004820152602160248201527f526f757465722f4e6f74417070726f76656442794d616b6572436f6e747261636044820152601d60fa1b60648201526084016102c1565b61057982826108ba565b5050565b6105856107cc565b6001600160a01b0316336001600160a01b031614806105a857506105a8336103fd565b6105c45760405162461bcd60e51b81526004016102c190610dab565b600061047a610809565b6105d66107cc565b6001600160a01b0316336001600160a01b0316146106365760405162461bcd60e51b815260206004820152601860248201527f416363657373436f6e74726f6c6c65642f496e76616c6964000000000000000060448201526064016102c1565b6001600160a01b03811661068c5760405162461bcd60e51b815260206004820152601860248201527f416363657373436f6e74726f6c6c65642f307841646d696e000000000000000060448201526064016102c1565b806106956107e5565b80546001600160a01b0319166001600160a01b039290921691909117905550565b6106bf336103fd565b6106db5760405162461bcd60e51b81526004016102c190610dab565b60005b828110156107c65760008484838181106106fa576106fa610dd8565b905060200201602081019061070f9190610bfc565b6040516370a0823160e01b81523360048201526001600160a01b0391909116906370a0823190602401602060405180830381865afa158015610755573d6000803e3d6000fd5b505050506040513d601f19601f820116820180604052508101906107799190610d92565b905080156107b3576107b385858481811061079657610796610dd8565b90506020020160208101906107ab9190610bfc565b84338461083b565b50806107be81610dee565b9150506106de565b50505050565b60006107d66107e5565b546001600160a01b0316919050565b7f7d382ebca3e46505071795e192d28166a3d4bd0685585591bc6c5b8df6769fd290565b7ff2910982afb88211fa9894801aaf0314409ca240a0a8904897b9f5ba323ca53390565b600061030085858585610998565b61084784838584610998565b6107c65760405162461bcd60e51b815260206004820152601e60248201527f53696d706c65526f757465722f707573682f7472616e736665724661696c000060448201526064016102c1565b60006108a186868686610998565b156108ad5750816108b1565b5060005b95945050505050565b6001600160a01b0381163014806109425750604051636eb1769f60e11b81526001600160a01b0382811660048301523060248301526000919084169063dd62ed3e90604401602060405180830381865afa15801561091c573d6000803e3d6000fd5b505050506040513d601f19601f820116820180604052508101906109409190610d92565b115b6105795760405162461bcd60e51b815260206004820152602160248201527f53696d706c65526f757465722f4e6f74417070726f76656442795265736572766044820152606560f81b60648201526084016102c1565b60008115806109b85750826001600160a01b0316846001600160a01b0316145b156109c557506001610303565b306001600160a01b038516036109e7576109e0858484610ac2565b9050610303565b604080516001600160a01b0386811660248301528581166044830152606480830186905283518084039091018152608490920183526020820180516001600160e01b03166323b872dd60e01b1790529151600092839290891691610a4b9190610e15565b6000604051808303816000865af19150503d8060008114610a88576040519150601f19603f3d011682016040523d82523d6000602084013e610a8d565b606091505b5091509150818015610ab7575080511580610ab7575080806020019051810190610ab79190610e50565b979650505050505050565b6000811580610ad957506001600160a01b03831630145b15610ae657506001610273565b604080516001600160a01b038581166024830152604480830186905283518084039091018152606490920183526020820180516001600160e01b031663a9059cbb60e01b1790529151600092839290881691610b429190610e15565b6000604051808303816000865af19150503d8060008114610b7f576040519150601f19603f3d011682016040523d82523d6000602084013e610b84565b606091505b50915091508180156103f35750805115806103f35750808060200190518101906103f39190610e50565b6001600160a01b03811681146102ca57600080fd5b60008060408385031215610bd657600080fd5b8235610be181610bae565b91506020830135610bf181610bae565b809150509250929050565b600060208284031215610c0e57600080fd5b813561027381610bae565b60008060008060808587031215610c2f57600080fd5b8435610c3a81610bae565b93506020850135610c4a81610bae565b92506040850135610c5a81610bae565b9396929550929360600135925050565b600080600060608486031215610c7f57600080fd5b8335610c8a81610bae565b92506020840135610c9a81610bae565b929592945050506040919091013590565b80151581146102ca57600080fd5b60008060008060808587031215610ccf57600080fd5b8435610cda81610bae565b93506020850135610cea81610bae565b9250604085013591506060850135610d0181610cab565b939692955090935050565b600080600060408486031215610d2157600080fd5b833567ffffffffffffffff80821115610d3957600080fd5b818601915086601f830112610d4d57600080fd5b813581811115610d5c57600080fd5b8760208260051b8501011115610d7157600080fd5b60209283019550935050840135610d8781610bae565b809150509250925092565b600060208284031215610da457600080fd5b5051919050565b602080825260139082015272149bdd5d195c8bdd5b985d5d1a1bdc9a5e9959606a1b604082015260600190565b634e487b7160e01b600052603260045260246000fd5b600060018201610e0e57634e487b7160e01b600052601160045260246000fd5b5060010190565b6000825160005b81811015610e365760208186018101518583015201610e1c565b81811115610e45576000828501525b509190910192915050565b600060208284031215610e6257600080fd5b815161027381610cab56fea26469706673582212201a5909cf162cba146fb1ddb06cb563c76c816c7430eb8e8f45d62b5cb8ea878a64736f6c634300080e0033",
    "linkReferences": {}
  },
  "methodIdentifiers": {
    "MGV()": "99fa5e2d",
    "activate(address[])": "5293840d",
    "admin()": "f851a440",
    "approveMangrove(address)": "9f2211cb",
    "approveRouter(address)": "f259cd27",
    "checkList(address[])": "03eb17e2",
    "expiring(address,address,uint256)": "4e7effa8",
    "getMissingProvision(address,address,uint256,uint256,uint256)": "e4c34f84",
    "has_router()": "84b627f9",
    "makerExecute((address,address,uint256,uint256,uint256,uint256,uint256,uint256,uint256))": "6c49c32c",
    "makerPosthook((address,address,uint256,uint256,uint256,uint256,uint256,uint256,uint256),(bytes32,bytes32))": "3d3d130d",
    "newOffer((address,address,uint256,uint256,uint256,uint256,uint256,uint256))": "5486c95f",
    "offerOwners(address,address,uint256[])": "dec8c86b",
    "ofr_gasreq()": "d1baa1ef",
    "ownerOf(address,address,uint256)": "f92495e5",
    "reserve()": "cd3293de",
    "retractOffer(address,address,uint256,bool)": "ad97db1b",
    "router()": "f887ea40",
    "set_admin(address)": "e9333fab",
    "set_gasreq(uint256)": "fc488a38",
    "set_reserve(address)": "3d77fcde",
    "set_router(address)": "db11851e",
    "take((address,address,bool,bool,uint256,uint256,uint256,uint256,bool,uint256,uint256,uint256))": "6a1c7d05",
    "tokenBalance(address)": "eedc966a",
    "updateOffer((address,address,uint256,uint256,uint256,uint256,uint256,uint256))": "10aded60",
    "withdrawFromMangrove(uint256,address)": "7144df24",
    "withdrawToken(address,address,uint256)": "01e33667"
  },
  "id": 27
}