{
  "abi": [
    {
      "inputs": [
        {
          "internalType": "contract IMangrove",
          "name": "mgv",
          "type": "address"
        },
        {
          "internalType": "contract IERC20",
          "name": "base",
          "type": "address"
        },
        {
          "internalType": "contract IERC20",
          "name": "quote",
          "type": "address"
        },
        {
          "internalType": "uint256",
          "name": "base_0",
          "type": "uint256"
        },
        {
          "internalType": "uint256",
          "name": "quote_0",
          "type": "uint256"
        },
        {
          "internalType": "uint256",
          "name": "nslots",
          "type": "uint256"
        },
        {
          "internalType": "uint256",
          "name": "price_incr",
          "type": "uint256"
        },
        {
          "internalType": "address",
          "name": "deployer",
          "type": "address"
        }
      ],
      "stateMutability": "nonpayable",
      "type": "constructor"
    },
    {
      "anonymous": false,
      "inputs": [
        {
          "indexed": false,
          "internalType": "uint256",
          "name": "from",
          "type": "uint256"
        },
        {
          "indexed": false,
          "internalType": "uint256",
          "name": "to",
          "type": "uint256"
        }
      ],
      "name": "Initialized",
      "type": "event"
    },
    {
      "anonymous": false,
      "inputs": [
        {
          "indexed": false,
          "internalType": "contract IMangrove",
          "name": "mangrove",
          "type": "address"
        },
        {
          "indexed": true,
          "internalType": "contract IERC20",
          "name": "outbound_tkn",
          "type": "address"
        },
        {
          "indexed": true,
          "internalType": "contract IERC20",
          "name": "inbound_tkn",
          "type": "address"
        },
        {
          "indexed": true,
          "internalType": "uint256",
          "name": "offerId",
          "type": "uint256"
        },
        {
          "indexed": false,
          "internalType": "bytes32",
          "name": "reason",
          "type": "bytes32"
        }
      ],
      "name": "LogIncident",
      "type": "event"
    },
    {
      "anonymous": false,
      "inputs": [
        {
          "indexed": false,
          "internalType": "uint256",
          "name": "",
          "type": "uint256"
        }
      ],
      "name": "SetGasreq",
      "type": "event"
    },
    {
      "anonymous": false,
      "inputs": [
        {
          "indexed": false,
          "internalType": "contract AbstractRouter",
          "name": "",
          "type": "address"
        }
      ],
      "name": "SetRouter",
      "type": "event"
    },
    {
      "inputs": [],
      "name": "BASE",
      "outputs": [
        {
          "internalType": "contract IERC20",
          "name": "",
          "type": "address"
        }
      ],
      "stateMutability": "view",
      "type": "function"
    },
    {
      "inputs": [],
      "name": "MGV",
      "outputs": [
        {
          "internalType": "contract IMangrove",
          "name": "",
          "type": "address"
        }
      ],
      "stateMutability": "view",
      "type": "function"
    },
    {
      "inputs": [],
      "name": "NSLOTS",
      "outputs": [
        {
          "internalType": "uint256",
          "name": "",
          "type": "uint256"
        }
      ],
      "stateMutability": "view",
      "type": "function"
    },
    {
      "inputs": [],
      "name": "QUOTE",
      "outputs": [
        {
          "internalType": "contract IERC20",
          "name": "",
          "type": "address"
        }
      ],
      "stateMutability": "view",
      "type": "function"
    },
    {
      "inputs": [
        {
          "internalType": "bytes",
          "name": "data",
          "type": "bytes"
        }
      ],
      "name": "_staticdelegatecall",
      "outputs": [],
      "stateMutability": "nonpayable",
      "type": "function"
    },
    {
      "inputs": [
        {
          "internalType": "contract IERC20[]",
          "name": "tokens",
          "type": "address[]"
        }
      ],
      "name": "activate",
      "outputs": [],
      "stateMutability": "nonpayable",
      "type": "function"
    },
    {
      "inputs": [],
      "name": "admin",
      "outputs": [
        {
          "internalType": "address",
          "name": "",
          "type": "address"
        }
      ],
      "stateMutability": "view",
      "type": "function"
    },
    {
      "inputs": [
        {
          "internalType": "contract IERC20",
          "name": "outbound_tkn",
          "type": "address"
        }
      ],
      "name": "approveMangrove",
      "outputs": [],
      "stateMutability": "nonpayable",
      "type": "function"
    },
    {
      "inputs": [
        {
          "internalType": "contract IERC20",
          "name": "token",
          "type": "address"
        }
      ],
      "name": "approveRouter",
      "outputs": [],
      "stateMutability": "nonpayable",
      "type": "function"
    },
    {
      "inputs": [
        {
          "internalType": "contract IERC20[]",
          "name": "tokens",
          "type": "address[]"
        }
      ],
      "name": "checkList",
      "outputs": [],
      "stateMutability": "view",
      "type": "function"
    },
    {
      "inputs": [],
      "name": "delta",
      "outputs": [
        {
          "internalType": "uint256",
          "name": "",
          "type": "uint256"
        }
      ],
      "stateMutability": "view",
      "type": "function"
    },
    {
      "inputs": [
        {
          "internalType": "contract IERC20",
          "name": "outbound_tkn",
          "type": "address"
        },
        {
          "internalType": "contract IERC20",
          "name": "inbound_tkn",
          "type": "address"
        },
        {
          "internalType": "uint256",
          "name": "gasreq",
          "type": "uint256"
        },
        {
          "internalType": "uint256",
          "name": "gasprice",
          "type": "uint256"
        },
        {
          "internalType": "uint256",
          "name": "offerId",
          "type": "uint256"
        }
      ],
      "name": "getMissingProvision",
      "outputs": [
        {
          "internalType": "uint256",
          "name": "",
          "type": "uint256"
        }
      ],
      "stateMutability": "view",
      "type": "function"
    },
    {
      "inputs": [
        {
          "internalType": "bool",
          "name": "liveOnly",
          "type": "bool"
        }
      ],
      "name": "get_offers",
      "outputs": [
        {
          "internalType": "uint256[][2]",
          "name": "offers",
          "type": "uint256[][2]"
        }
      ],
      "stateMutability": "view",
      "type": "function"
    },
    {
      "inputs": [],
      "name": "has_router",
      "outputs": [
        {
          "internalType": "bool",
          "name": "",
          "type": "bool"
        }
      ],
      "stateMutability": "view",
      "type": "function"
    },
    {
      "inputs": [
        {
          "internalType": "bool",
          "name": "reset",
          "type": "bool"
        },
        {
          "internalType": "uint256",
          "name": "lastBidPosition",
          "type": "uint256"
        },
        {
          "internalType": "uint256",
          "name": "from",
          "type": "uint256"
        },
        {
          "internalType": "uint256",
          "name": "to",
          "type": "uint256"
        },
        {
          "internalType": "uint256[][2]",
          "name": "pivotIds",
          "type": "uint256[][2]"
        },
        {
          "internalType": "uint256[]",
          "name": "tokenAmounts",
          "type": "uint256[]"
        }
      ],
      "name": "initialize",
      "outputs": [],
      "stateMutability": "nonpayable",
      "type": "function"
    },
    {
      "inputs": [],
      "name": "is_paused",
      "outputs": [
        {
          "internalType": "bool",
          "name": "",
          "type": "bool"
        }
      ],
      "stateMutability": "view",
      "type": "function"
    },
    {
      "inputs": [
        {
          "components": [
            {
              "internalType": "address",
              "name": "outbound_tkn",
              "type": "address"
            },
            {
              "internalType": "address",
              "name": "inbound_tkn",
              "type": "address"
            },
            {
              "internalType": "uint256",
              "name": "offerId",
              "type": "uint256"
            },
            {
              "internalType": "t",
              "name": "offer",
              "type": "uint256"
            },
            {
              "internalType": "uint256",
              "name": "wants",
              "type": "uint256"
            },
            {
              "internalType": "uint256",
              "name": "gives",
              "type": "uint256"
            },
            {
              "internalType": "t",
              "name": "offerDetail",
              "type": "uint256"
            },
            {
              "internalType": "t",
              "name": "global",
              "type": "uint256"
            },
            {
              "internalType": "t",
              "name": "local",
              "type": "uint256"
            }
          ],
          "internalType": "struct MgvLib.SingleOrder",
          "name": "order",
          "type": "tuple"
        }
      ],
      "name": "makerExecute",
      "outputs": [
        {
          "internalType": "bytes32",
          "name": "ret",
          "type": "bytes32"
        }
      ],
      "stateMutability": "nonpayable",
      "type": "function"
    },
    {
      "inputs": [
        {
          "components": [
            {
              "internalType": "address",
              "name": "outbound_tkn",
              "type": "address"
            },
            {
              "internalType": "address",
              "name": "inbound_tkn",
              "type": "address"
            },
            {
              "internalType": "uint256",
              "name": "offerId",
              "type": "uint256"
            },
            {
              "internalType": "t",
              "name": "offer",
              "type": "uint256"
            },
            {
              "internalType": "uint256",
              "name": "wants",
              "type": "uint256"
            },
            {
              "internalType": "uint256",
              "name": "gives",
              "type": "uint256"
            },
            {
              "internalType": "t",
              "name": "offerDetail",
              "type": "uint256"
            },
            {
              "internalType": "t",
              "name": "global",
              "type": "uint256"
            },
            {
              "internalType": "t",
              "name": "local",
              "type": "uint256"
            }
          ],
          "internalType": "struct MgvLib.SingleOrder",
          "name": "order",
          "type": "tuple"
        },
        {
          "components": [
            {
              "internalType": "bytes32",
              "name": "makerData",
              "type": "bytes32"
            },
            {
              "internalType": "bytes32",
              "name": "mgvData",
              "type": "bytes32"
            }
          ],
          "internalType": "struct MgvLib.OrderResult",
          "name": "result",
          "type": "tuple"
        }
      ],
      "name": "makerPosthook",
      "outputs": [],
      "stateMutability": "nonpayable",
      "type": "function"
    },
    {
      "inputs": [
        {
          "components": [
            {
              "internalType": "contract IERC20",
              "name": "outbound_tkn",
              "type": "address"
            },
            {
              "internalType": "contract IERC20",
              "name": "inbound_tkn",
              "type": "address"
            },
            {
              "internalType": "uint256",
              "name": "wants",
              "type": "uint256"
            },
            {
              "internalType": "uint256",
              "name": "gives",
              "type": "uint256"
            },
            {
              "internalType": "uint256",
              "name": "gasreq",
              "type": "uint256"
            },
            {
              "internalType": "uint256",
              "name": "gasprice",
              "type": "uint256"
            },
            {
              "internalType": "uint256",
              "name": "pivotId",
              "type": "uint256"
            },
            {
              "internalType": "uint256",
              "name": "offerId",
              "type": "uint256"
            }
          ],
          "internalType": "struct IOfferLogic.MakerOrder",
          "name": "mko",
          "type": "tuple"
        }
      ],
      "name": "newOffer",
      "outputs": [
        {
          "internalType": "uint256",
          "name": "",
          "type": "uint256"
        }
      ],
      "stateMutability": "payable",
      "type": "function"
    },
    {
      "inputs": [],
      "name": "ofr_gasreq",
      "outputs": [
        {
          "internalType": "uint256",
          "name": "",
          "type": "uint256"
        }
      ],
      "stateMutability": "view",
      "type": "function"
    },
    {
      "inputs": [],
      "name": "pause",
      "outputs": [],
      "stateMutability": "nonpayable",
      "type": "function"
    },
    {
      "inputs": [],
      "name": "pending",
      "outputs": [
        {
          "internalType": "uint256[2]",
          "name": "",
          "type": "uint256[2]"
        }
      ],
      "stateMutability": "view",
      "type": "function"
    },
    {
      "inputs": [],
      "name": "reserve",
      "outputs": [
        {
          "internalType": "address",
          "name": "",
          "type": "address"
        }
      ],
      "stateMutability": "view",
      "type": "function"
    },
    {
      "inputs": [],
      "name": "reset_pending",
      "outputs": [],
      "stateMutability": "nonpayable",
      "type": "function"
    },
    {
      "inputs": [],
      "name": "restart",
      "outputs": [],
      "stateMutability": "nonpayable",
      "type": "function"
    },
    {
      "inputs": [
        {
          "internalType": "contract IERC20",
          "name": "outbound_tkn",
          "type": "address"
        },
        {
          "internalType": "contract IERC20",
          "name": "inbound_tkn",
          "type": "address"
        },
        {
          "internalType": "uint256",
          "name": "offerId",
          "type": "uint256"
        },
        {
          "internalType": "bool",
          "name": "deprovision",
          "type": "bool"
        }
      ],
      "name": "retractOffer",
      "outputs": [
        {
          "internalType": "uint256",
          "name": "free_wei",
          "type": "uint256"
        }
      ],
      "stateMutability": "nonpayable",
      "type": "function"
    },
    {
      "inputs": [
        {
          "internalType": "uint256",
          "name": "ba",
          "type": "uint256"
        },
        {
          "internalType": "uint256",
          "name": "from",
          "type": "uint256"
        },
        {
          "internalType": "uint256",
          "name": "to",
          "type": "uint256"
        }
      ],
      "name": "retractOffers",
      "outputs": [
        {
          "internalType": "uint256",
          "name": "collected",
          "type": "uint256"
        }
      ],
      "stateMutability": "nonpayable",
      "type": "function"
    },
    {
      "inputs": [],
      "name": "router",
      "outputs": [
        {
          "internalType": "contract AbstractRouter",
          "name": "",
          "type": "address"
        }
      ],
      "stateMutability": "view",
      "type": "function"
    },
    {
      "inputs": [
        {
          "internalType": "address",
          "name": "_admin",
          "type": "address"
        }
      ],
      "name": "set_admin",
      "outputs": [],
      "stateMutability": "nonpayable",
      "type": "function"
    },
    {
      "inputs": [
        {
          "internalType": "uint256",
          "name": "_delta",
          "type": "uint256"
        }
      ],
      "name": "set_delta",
      "outputs": [],
      "stateMutability": "nonpayable",
      "type": "function"
    },
    {
      "inputs": [
        {
          "internalType": "uint256",
          "name": "gasreq",
          "type": "uint256"
        }
      ],
      "name": "set_gasreq",
      "outputs": [],
      "stateMutability": "nonpayable",
      "type": "function"
    },
    {
      "inputs": [
        {
          "internalType": "uint256",
          "name": "m",
          "type": "uint256"
        }
      ],
      "name": "set_min_offer_type",
      "outputs": [],
      "stateMutability": "nonpayable",
      "type": "function"
    },
    {
      "inputs": [
        {
          "internalType": "address",
          "name": "__reserve",
          "type": "address"
        }
      ],
      "name": "set_reserve",
      "outputs": [],
      "stateMutability": "nonpayable",
      "type": "function"
    },
    {
      "inputs": [
        {
          "internalType": "contract AbstractRouter",
          "name": "router_",
          "type": "address"
        }
      ],
      "name": "set_router",
      "outputs": [],
      "stateMutability": "nonpayable",
      "type": "function"
    },
    {
      "inputs": [
        {
          "internalType": "int256",
          "name": "s",
          "type": "int256"
        },
        {
          "internalType": "bool",
          "name": "withBase",
          "type": "bool"
        },
        {
          "internalType": "uint256[]",
          "name": "amounts",
          "type": "uint256[]"
        }
      ],
      "name": "set_shift",
      "outputs": [],
      "stateMutability": "nonpayable",
      "type": "function"
    },
    {
      "inputs": [],
      "name": "shift",
      "outputs": [
        {
          "internalType": "int256",
          "name": "",
          "type": "int256"
        }
      ],
      "stateMutability": "view",
      "type": "function"
    },
    {
      "inputs": [
        {
          "internalType": "contract IERC20",
          "name": "token",
          "type": "address"
        }
      ],
      "name": "tokenBalance",
      "outputs": [
        {
          "internalType": "uint256",
          "name": "",
          "type": "uint256"
        }
      ],
      "stateMutability": "view",
      "type": "function"
    },
    {
      "inputs": [
        {
          "components": [
            {
              "internalType": "contract IERC20",
              "name": "outbound_tkn",
              "type": "address"
            },
            {
              "internalType": "contract IERC20",
              "name": "inbound_tkn",
              "type": "address"
            },
            {
              "internalType": "uint256",
              "name": "wants",
              "type": "uint256"
            },
            {
              "internalType": "uint256",
              "name": "gives",
              "type": "uint256"
            },
            {
              "internalType": "uint256",
              "name": "gasreq",
              "type": "uint256"
            },
            {
              "internalType": "uint256",
              "name": "gasprice",
              "type": "uint256"
            },
            {
              "internalType": "uint256",
              "name": "pivotId",
              "type": "uint256"
            },
            {
              "internalType": "uint256",
              "name": "offerId",
              "type": "uint256"
            }
          ],
          "internalType": "struct IOfferLogic.MakerOrder",
          "name": "mko",
          "type": "tuple"
        }
      ],
      "name": "updateOffer",
      "outputs": [],
      "stateMutability": "payable",
      "type": "function"
    },
    {
      "inputs": [
        {
          "internalType": "uint256",
          "name": "amount",
          "type": "uint256"
        },
        {
          "internalType": "address payable",
          "name": "receiver",
          "type": "address"
        }
      ],
      "name": "withdrawFromMangrove",
      "outputs": [],
      "stateMutability": "nonpayable",
      "type": "function"
    },
    {
      "inputs": [
        {
          "internalType": "contract IERC20",
          "name": "token",
          "type": "address"
        },
        {
          "internalType": "address",
          "name": "receiver",
          "type": "address"
        },
        {
          "internalType": "uint256",
          "name": "amount",
          "type": "uint256"
        }
      ],
      "name": "withdrawToken",
      "outputs": [
        {
          "internalType": "bool",
          "name": "success",
          "type": "bool"
        }
      ],
      "stateMutability": "nonpayable",
      "type": "function"
    },
    {
      "stateMutability": "payable",
      "type": "receive"
    }
  ],
  "bytecode": {
    "object": "0x6101206040523480156200001257600080fd5b5060405162008b5f38038062008b5f833981016040819052620000359162000c18565b876203d090604051620000489062000b7f565b604051809103906000f08015801562000065573d6000803e3d6000fd5b5082828282823380620000bf5760405162461bcd60e51b815260206004820152601860248201527f616363657373436f6e74726f6c6c65642f307841646d696e000000000000000060448201526064015b60405180910390fd5b80620000d56200048360201b620027911760201c565b80546001600160a01b0319166001600160a01b03929092169190911790555062ffffff811681146200014a5760405162461bcd60e51b815260206004820152601b60248201527f4d616e67726f76654f666665722f676173726571546f6f4869676800000000006044820152606401620000b6565b6001600160a01b038216608052806200016e620004a7602090811b620027b517901c565b5550506001600160a01b03811662000191576200018b30620004cb565b620001a7565b6200019c81620004cb565b620001a78162000535565b5050505050506000620001c4620006ce60201b620027d91760201c565b9050600084118015620001df57506001600160a01b03891615155b8015620001ef5750838461ffff16145b801562000204575085866001600160601b0316145b801562000219575084856001600160601b0316145b620002725760405162461bcd60e51b815260206004820152602260248201527f4d616e676f2f636f6e7374727563746f722f696e76616c6964417267756d656e604482015261747360f01b6064820152608401620000b6565b8360c081815250508888888888886040516200028e9062000b8d565b6001600160a01b03968716815294861660208601529490921660408401526001600160601b03908116606084015216608082015260a081019190915260c001604051809103906000f080158015620002ea573d6000803e3d6000fd5b506001600160a01b0390811660a05288811660e052871661010052836001600160401b0381111562000320576200032062000caa565b6040519080825280602002602001820160405280156200034a578160200160208202803683370190505b5080516200036091839160209091019062000b9b565b50836001600160401b038111156200037c576200037c62000caa565b604051908082528060200260200182016040528015620003a6578160200160208202803683370190505b508051620003bf91600184019160209091019062000b9b565b506007810183905560016008820155620003d988620006f2565b620003e487620006f2565b620003ef82620004cb565b620003f962000784565b60405163e9333fab60e01b81526001600160a01b038481166004830152919091169063e9333fab90602401600060405180830381600087803b1580156200043f57600080fd5b505af115801562000454573d6000803e3d6000fd5b505050506001600160a01b038216331462000474576200047482620007f3565b50505050505050505062000ceb565b7f7d382ebca3e46505071795e192d28166a3d4bd0685585591bc6c5b8df6769fd290565b7fae7e31c3220e851db9f204a28b279dfe52b973600b0a456991089c220ae7222490565b620004d5620008dd565b6001600160a01b0316336001600160a01b031614620005265760405162461bcd60e51b8152602060048201526018602482015260008051602062008b3f8339815191526044820152606401620000b6565b62000532308262000903565b50565b6200053f620008dd565b6001600160a01b0316336001600160a01b031614806200057257506080516001600160a01b0316336001600160a01b0316145b620005af5760405162461bcd60e51b8152602060048201526018602482015260008051602062008b3f8339815191526044820152606401620000b6565b6001600160a01b038116620006075760405162461bcd60e51b815260206004820152601c60248201527f6d67764f666665722f7365745f726f757465722f3078526f75746572000000006044820152606401620000b6565b806200061d620004a760201b620027b51760201c565b60010180546001600160a01b0319166001600160a01b039283161790556040516381bac14f60e01b8152306004820152908216906381bac14f90602401600060405180830381600087803b1580156200067557600080fd5b505af11580156200068a573d6000803e3d6000fd5b50506040516001600160a01b03841681527f6de4326a8b9054d72d9dbab97d27bc4edffadee7d966f5af9cc4eafdaf8e54559250602001905060405180910390a150565b7f416b48c48a967c2245e6ba6bc6efa281932950b502fea671117e4dfd7d3dfb8190565b620006fd81620009a5565b6200070762000a6e565b156200053257620007188162000aa3565b6200072262000784565b604051630716a76760e21b81526001600160a01b0383811660048301529190911690631c5a9d9c90602401600060405180830381600087803b1580156200076857600080fd5b505af11580156200077d573d6000803e3d6000fd5b5050505050565b6000806200079c620004a760201b620027b51760201c565b600101546001600160a01b0316905080620007ee5760405162461bcd60e51b815260206004820152601160248201527036b3bb27b33332b917983c2937baba32b960791b6044820152606401620000b6565b919050565b620007fd620008dd565b6001600160a01b0316336001600160a01b0316146200084e5760405162461bcd60e51b8152602060048201526018602482015260008051602062008b3f8339815191526044820152606401620000b6565b6001600160a01b038116620008a65760405162461bcd60e51b815260206004820152601860248201527f416363657373436f6e74726f6c6c65642f307841646d696e00000000000000006044820152606401620000b6565b80620008bc6200048360201b620027911760201c565b80546001600160a01b0319166001600160a01b039290921691909117905550565b6000620008f46200048360201b620027911760201c565b546001600160a01b0316919050565b6001600160a01b0381166200095b5760405162461bcd60e51b815260206004820152601460248201527f53696e676c65557365722f3078526573657276650000000000000000000000006044820152606401620000b6565b8062000971620004a760201b620027b51760201c565b6001600160a01b0393841660009081526002919091016020526040902080546001600160a01b031916919093161790915550565b60805160405163095ea7b360e01b81526001600160a01b03918216600482015260001960248201529082169063095ea7b3906044016020604051808303816000875af1158015620009fa573d6000803e3d6000fd5b505050506040513d601f19601f8201168201806040525081019062000a20919062000cc0565b620005325760405162461bcd60e51b815260206004820152601d60248201527f6d67764f666665722f617070726f76654d616e67726f76652f4661696c0000006044820152606401620000b6565b6000806001600160a01b031662000a8f620004a760201b620027b51760201c565b600101546001600160a01b03161415919050565b6001600160a01b03811663095ea7b362000abc62000784565b6040516001600160e01b031960e084901b1681526001600160a01b03909116600482015260001960248201526044016020604051808303816000875af115801562000b0b573d6000803e3d6000fd5b505050506040513d601f19601f8201168201806040525081019062000b31919062000cc0565b620005325760405162461bcd60e51b815260206004820152601b60248201527f6d67764f666665722f617070726f7665526f757465722f4661696c00000000006044820152606401620000b6565b6110048062004e2283390190565b612d198062005e2683390190565b82805482825590600052602060002090810192821562000bd9579160200282015b8281111562000bd957825182559160200191906001019062000bbc565b5062000be792915062000beb565b5090565b5b8082111562000be7576000815560010162000bec565b6001600160a01b03811681146200053257600080fd5b600080600080600080600080610100898b03121562000c3657600080fd5b885162000c438162000c02565b60208a015190985062000c568162000c02565b60408a015190975062000c698162000c02565b80965050606089015194506080890151935060a0890151925060c0890151915060e089015162000c998162000c02565b809150509295985092959890939650565b634e487b7160e01b600052604160045260246000fd5b60006020828403121562000cd357600080fd5b8151801515811462000ce457600080fd5b9392505050565b60805160a05160c05160e0516101005161400462000e1e600039600081816104ca01528181611cb10152611d490152600081816106a801528181611c9001528181611d6a01528181612a0401526130ef015260006105dd015260008181611027015281816111860152818161160e01528181612a9001526132ee01526000818161047e0152818161094901528181610c1b01528181610cd901528181610e3f01528181610f7c0152818161121c0152818161137d0152818161140f015281816115c301528181611714015281816117a8015281816118230152818161191b0152818161198f01528181611a1a01528181611bb901528181611ef0015281816120b701528181612154015281816122ca015281816126c501528181612dd001528181612ee4015261305901526140046000f3fe60806040526004361061023f5760003560e01c80639d4ddea21161012e578063db11851e116100ab578063eedc966a1161006f578063eedc966a146106ca578063f259cd27146106ea578063f851a4401461070a578063f887ea401461071f578063fc488a381461073457600080fd5b8063db11851e14610614578063e20ccec314610634578063e4c34f8414610656578063e9333fab14610676578063ec342ad01461069657600080fd5b8063ccbbcfc2116100f2578063ccbbcfc214610581578063cd3293de146105a1578063d1baa1ef146105b6578063d4a1da08146105cb578063d5c39721146105ff57600080fd5b80639d4ddea2146104ec5780639d4f8aa91461050c5780639f2211cb14610521578063ad97db1b14610541578063c5dbec381461056157600080fd5b80635486c95f116101bc578063815502671161018057806381550267146104225780638456cb591461044257806384b627f91461045757806399fa5e2d1461046c5780639c579839146104b857600080fd5b80635486c95f1461038f578063553e9f32146103a25780635a3e9618146103c25780636c49c32c146103e25780637144df241461040257600080fd5b80631ef3755d116102035780631ef3755d146102ed5780631efa880b146103025780633d3d130d1461032f5780633d77fcde1461034f5780635293840d1461036f57600080fd5b806301e336671461024b57806303eb17e21461028057806310aded60146102a257806312b495a8146102b557806312fc41ca146102d857600080fd5b3661024657005b600080fd5b34801561025757600080fd5b5061026b6102663660046134e4565b610754565b60405190151581526020015b60405180910390f35b34801561028c57600080fd5b506102a061029b366004613571565b6108be565b005b6102a06102b0366004613623565b61090f565b3480156102c157600080fd5b506102ca610a15565b604051908152602001610277565b3480156102e457600080fd5b506102ca610a60565b3480156102f957600080fd5b506102a0610aab565b34801561030e57600080fd5b5061032261031d3660046136d4565b610b01565b60405161027791906136f1565b34801561033b57600080fd5b506102a061034a366004613779565b610c19565b34801561035b57600080fd5b506102a061036a3660046137bc565b610d3d565b34801561037b57600080fd5b506102a061038a366004613571565b610d7f565b6102ca61039d366004613623565b610e03565b3480156103ae57600080fd5b506102a06103bd3660046137d9565b610f4f565b3480156103ce57600080fd5b506102a06103dd36600461387c565b61114f565b3480156103ee57600080fd5b506102ca6103fd3660046138ee565b611218565b34801561040e57600080fd5b506102a061041d36600461390b565b611327565b34801561042e57600080fd5b506102a061043d36600461393b565b611596565b34801561044e57600080fd5b506102a06116e7565b34801561046357600080fd5b5061026b61175c565b34801561047857600080fd5b506104a07f000000000000000000000000000000000000000000000000000000000000000081565b6040516001600160a01b039091168152602001610277565b3480156104c457600080fd5b506104a07f000000000000000000000000000000000000000000000000000000000000000081565b3480156104f857600080fd5b506102a0610507366004613997565b61177b565b34801561051857600080fd5b5061026b6117f6565b34801561052d57600080fd5b506102a061053c3660046137bc565b61180c565b34801561054d57600080fd5b506102ca61055c3660046139b0565b6118ec565b34801561056d57600080fd5b506102a061057c366004613997565b611b8c565b34801561058d57600080fd5b506102ca61059c366004613a03565b611c07565b3480156105ad57600080fd5b506104a0611dc6565b3480156105c257600080fd5b506102ca611dd6565b3480156105d757600080fd5b506102ca7f000000000000000000000000000000000000000000000000000000000000000081565b34801561060b57600080fd5b506102a0611e6f565b34801561062057600080fd5b506102a061062f3660046137bc565b611ec3565b34801561064057600080fd5b5061064961203d565b6040516102779190613a2f565b34801561066257600080fd5b506102ca610671366004613a60565b6120a9565b34801561068257600080fd5b506102a06106913660046137bc565b61236c565b3480156106a257600080fd5b506104a07f000000000000000000000000000000000000000000000000000000000000000081565b3480156106d657600080fd5b506102ca6106e53660046137bc565b612424565b3480156106f657600080fd5b506102a06107053660046137bc565b61254f565b34801561071657600080fd5b506104a0612624565b34801561072b57600080fd5b506104a061263d565b34801561074057600080fd5b506102a061074f366004613997565b612698565b600061075e612624565b6001600160a01b0316336001600160a01b0316146107975760405162461bcd60e51b815260040161078e90613ab1565b60405180910390fd5b6001600160a01b0383166107f95760405162461bcd60e51b815260206004820152602360248201527f53696e676c65557365722f7769746864726177546f6b656e2f307852656365696044820152623b32b960e91b606482015260840161078e565b61080161175c565b610817576108108484846127fd565b90506108b7565b61081f61263d565b6001600160a01b03166321754d9e85610836611dc6565b6040516001600160e01b031960e085901b1681526001600160a01b03928316600482015290821660248201529086166044820152606481018590526084016020604051808303816000875af1158015610893573d6000803e3d6000fd5b505050506040513d601f19601f820116820180604052508101906108109190613ae8565b9392505050565b60005b8181101561090a576108f88383838181106108de576108de613b05565b90506020020160208101906108f391906137bc565b6128f3565b8061090281613b31565b9150506108c1565b505050565b610917612624565b6001600160a01b0316336001600160a01b0316146109475760405162461bcd60e51b815260040161078e90613ab1565b7f00000000000000000000000000000000000000000000000000000000000000006001600160a01b0316636a4f769134836000015184602001518560400151866060015162ffffff80168860800151116109a55787608001516109ad565b6109ad611dd6565b8860a001518960c001518a60e001516040518a63ffffffff1660e01b81526004016109df989796959493929190613b4a565b6000604051808303818588803b1580156109f857600080fd5b505af1158015610a0c573d6000803e3d6000fd5b50505050505b50565b6000610a1f612624565b6001600160a01b0316336001600160a01b031614610a4f5760405162461bcd60e51b815260040161078e90613ab1565b610a576127d9565b60070154905090565b6000610a6a612624565b6001600160a01b0316336001600160a01b031614610a9a5760405162461bcd60e51b815260040161078e90613ab1565b610aa26127d9565b60060154905090565b610ab3612624565b6001600160a01b0316336001600160a01b031614610ae35760405162461bcd60e51b815260040161078e90613ab1565b6000610aed6127d9565b600901805460ff1916911515919091179055565b610b0961347f565b60408051831515602480830191909152825180830382018152604490920183526020820180516001600160e01b031663198f4b8360e21b179052915160009283923092630b47d2c360e31b92610b60929101613bba565b60408051601f198184030181529181526020820180516001600160e01b03166001600160e01b0319909416939093179092529051610b9e9190613bed565b600060405180830381855afa9150503d8060008114610bd9576040519150601f19603f3d011682016040523d82523d6000602084013e610bde565b606091505b509150915081610bf657610bf181612987565b610c12565b80806020019051810190610c0a9190613c09565b949350505050565b5050919050565b7f00000000000000000000000000000000000000000000000000000000000000006001600160a01b0381161580610c585750336001600160a01b038216145b610c745760405162461bcd60e51b815260040161078e90613ab1565b81602001356f6d67762f74726164655375636365737360801b03610ca157610c9b836129e0565b50505050565b60408301803590610cb590602086016137bc565b6001600160a01b0316610ccb60208601866137bc565b604080516001600160a01b037f0000000000000000000000000000000000000000000000000000000000000000811682528735602083015292909216917f736a3993b9f8b1c5603896c76376792887f376b1fe7fc981e09a16530bf1e4e0910160405180910390a4610c9b8383612b85565b610d45612624565b6001600160a01b0316336001600160a01b031614610d755760405162461bcd60e51b815260040161078e90613ab1565b610a123082612b8e565b610d87612624565b6001600160a01b0316336001600160a01b031614610db75760405162461bcd60e51b815260040161078e90613ab1565b60005b8181101561090a57610df1838383818110610dd757610dd7613b05565b9050602002016020810190610dec91906137bc565b612c18565b80610dfb81613b31565b915050610dba565b6000610e0d612624565b6001600160a01b0316336001600160a01b031614610e3d5760405162461bcd60e51b815260040161078e90613ab1565b7f00000000000000000000000000000000000000000000000000000000000000006001600160a01b03166349f6d2dc34846000015185602001518660400151876060015162ffffff801689608001511015610e9c578860800151610ea4565b610ea4611dd6565b60a08a015160c08b01516040516001600160e01b031960e08b901b1681526001600160a01b03978816600482015296909516602487015260448601939093526064850191909152608484015260a483015260c482015260e40160206040518083038185885af1158015610f1b573d6000803e3d6000fd5b50505050506040513d601f19601f82011682018060405250810190610f409190613d0a565b60e0830181905290505b919050565b610f57612624565b6001600160a01b0316336001600160a01b03161480610f9e5750336001600160a01b037f000000000000000000000000000000000000000000000000000000000000000016145b610fba5760405162461bcd60e51b815260040161078e90613ab1565b6000610fc461263d565b6001600160a01b03160361101a5760405162461bcd60e51b815260206004820152601960248201527f4d616e676f2f696e697469616c697a652f3078526f7574657200000000000000604482015260640161078e565b6000806001600160a01b037f00000000000000000000000000000000000000000000000000000000000000001662c8d3f760e61b8a8a8a8a8a8a8a61105d611dd6565b604051602401611074989796959493929190613d59565b60408051601f198184030181529181526020820180516001600160e01b03166001600160e01b03199094169390931790925290516110b29190613bed565b600060405180830381855af49150503d80600081146110ed576040519150601f19603f3d011682016040523d82523d6000602084013e6110f2565b606091505b50915091508161110a5761110581612987565b611144565b60408051888152602081018890527f997896709b4e932ee42750e2e14ed1f7ab6c60bd911ff567aa2485cf0b20051b910160405180910390a15b505050505050505050565b308015806111655750336001600160a01b038216145b6111815760405162461bcd60e51b815260040161078e90613ab1565b6000807f00000000000000000000000000000000000000000000000000000000000000006001600160a01b031685856040516111be929190613e2e565b600060405180830381855af49150503d80600081146111f9576040519150601f19603f3d011682016040523d82523d6000602084013e6111fe565b606091505b5091509150816112115761121181612987565b3d60208201f35b60007f00000000000000000000000000000000000000000000000000000000000000006001600160a01b03811615806112595750336001600160a01b038216145b6112755760405162461bcd60e51b815260040161078e90613ab1565b61127e83612c9f565b6112c35760405162461bcd60e51b81526020600482015260166024820152751b59dd93d999995c8bd8589bdc9d0bdc995b9959d95960521b604482015260640161078e565b60006112d3846080013585612cb7565b11156113215760405162461bcd60e51b815260206004820152601860248201527f6d67764f666665722f61626f72742f6765744661696c65640000000000000000604482015260640161078e565b50919050565b61132f612624565b6001600160a01b0316336001600160a01b03161461135f5760405162461bcd60e51b815260040161078e90613ab1565b60001982036113f9576040516370a0823160e01b81523060048201527f00000000000000000000000000000000000000000000000000000000000000006001600160a01b0316906370a0823190602401602060405180830381865afa1580156113cc573d6000803e3d6000fd5b505050506040513d601f19601f820116820180604052508101906113f09190613d0a565b91508115611592575b604051632e1a7d4d60e01b8152600481018390527f00000000000000000000000000000000000000000000000000000000000000006001600160a01b031690632e1a7d4d906024016020604051808303816000875af1158015611460573d6000803e3d6000fd5b505050506040513d601f19601f820116820180604052508101906114849190613ae8565b6114de5760405162461bcd60e51b815260206004820152602560248201527f6d67764f666665722f776974686472617746726f6d4d67762f776974686472616044820152641dd1985a5b60da1b606482015260840161078e565b6000816001600160a01b03168360405160006040518083038185875af1925050503d806000811461152b576040519150601f19603f3d011682016040523d82523d6000602084013e611530565b606091505b505090508061090a5760405162461bcd60e51b815260206004820152602860248201527f6d67764f666665722f776974686472617746726f6d4d67762f70617961626c6560448201526710d85b1b11985a5b60c21b606482015260840161078e565b5050565b61159e612624565b6001600160a01b0316336001600160a01b031614806115e55750336001600160a01b037f000000000000000000000000000000000000000000000000000000000000000016145b6116015760405162461bcd60e51b815260040161078e90613ab1565b6000806001600160a01b037f00000000000000000000000000000000000000000000000000000000000000001663b61dce5960e01b87878787611642611dd6565b604051602401611656959493929190613e3e565b60408051601f198184030181529181526020820180516001600160e01b03166001600160e01b03199094169390931790925290516116949190613bed565b600060405180830381855af49150503d80600081146116cf576040519150601f19603f3d011682016040523d82523d6000602084013e6116d4565b606091505b509150915081610a0c57610a0c81612987565b6116ef612624565b6001600160a01b0316336001600160a01b031614806117365750336001600160a01b037f000000000000000000000000000000000000000000000000000000000000000016145b6117525760405162461bcd60e51b815260040161078e90613ab1565b6001610aed6127d9565b6000806117676127b5565b600101546001600160a01b03161415919050565b611783612624565b6001600160a01b0316336001600160a01b031614806117ca5750336001600160a01b037f000000000000000000000000000000000000000000000000000000000000000016145b6117e65760405162461bcd60e51b815260040161078e90613ab1565b806117ef6127d9565b6008015550565b60006118006127d9565b6009015460ff16919050565b60405163095ea7b360e01b81526001600160a01b037f000000000000000000000000000000000000000000000000000000000000000081166004830152600019602483015282169063095ea7b3906044016020604051808303816000875af115801561187c573d6000803e3d6000fd5b505050506040513d601f19601f820116820180604052508101906118a09190613ae8565b610a125760405162461bcd60e51b815260206004820152601d60248201527f6d67764f666665722f617070726f76654d616e67726f76652f4661696c000000604482015260640161078e565b60006118f6612624565b6001600160a01b0316336001600160a01b0316148061193d5750336001600160a01b037f000000000000000000000000000000000000000000000000000000000000000016145b6119595760405162461bcd60e51b815260040161078e90613ab1565b60405163ad97db1b60e01b81526001600160a01b03868116600483015285811660248301526044820185905283151560648301527f0000000000000000000000000000000000000000000000000000000000000000169063ad97db1b906084016020604051808303816000875af11580156119d8573d6000803e3d6000fd5b505050506040513d601f19601f820116820180604052508101906119fc9190613d0a565b90508015610c0a57604051632e1a7d4d60e01b8152600481018290527f00000000000000000000000000000000000000000000000000000000000000006001600160a01b031690632e1a7d4d906024016020604051808303816000875af1158015611a6b573d6000803e3d6000fd5b505050506040513d601f19601f82011682018060405250810190611a8f9190613ae8565b611aeb5760405162461bcd60e51b815260206004820152602760248201527f53696e676c65557365722f776974686472617746726f6d4d67762f77697468646044820152661c985dd1985a5b60ca1b606482015260840161078e565b604051600090339083908381818185875af1925050503d8060008114611b2d576040519150601f19603f3d011682016040523d82523d6000602084013e611b32565b606091505b5050905080611b835760405162461bcd60e51b815260206004820152601a60248201527f53696e676c65557365722f7765695472616e736665724661696c000000000000604482015260640161078e565b50949350505050565b611b94612624565b6001600160a01b0316336001600160a01b03161480611bdb5750336001600160a01b037f000000000000000000000000000000000000000000000000000000000000000016145b611bf75760405162461bcd60e51b815260040161078e90613ab1565b80611c006127d9565b6007015550565b6000611c11612624565b6001600160a01b0316336001600160a01b031614611c415760405162461bcd60e51b815260040161078e90613ab1565b6000611c4b6127d9565b9050835b83811015611dbd578515611d04576000826000018281548110611c7457611c74613b05565b906000526020600020015411611c8b576000611cf7565b611cf77f00000000000000000000000000000000000000000000000000000000000000007f0000000000000000000000000000000000000000000000000000000000000000846000018481548110611ce557611ce5613b05565b906000526020600020015460016118ec565b611d019084613e72565b92505b851580611d115750600186115b15611dab576000826001018281548110611d2d57611d2d613b05565b906000526020600020015411611d44576000611d9e565b611d9e7f00000000000000000000000000000000000000000000000000000000000000007f0000000000000000000000000000000000000000000000000000000000000000846001018481548110611ce557611ce5613b05565b611da89084613e72565b92505b80611db581613b31565b915050611c4f565b50509392505050565b6000611dd130612d83565b905090565b6000611de061175c565b15611e6157611ded61263d565b6001600160a01b0316630417ffda6040518163ffffffff1660e01b8152600401602060405180830381865afa158015611e2a573d6000803e3d6000fd5b505050506040513d601f19601f82011682018060405250810190611e4e9190613d0a565b611e566127b5565b54611dd19190613e72565b611e696127b5565b54919050565b611e77612624565b6001600160a01b0316336001600160a01b031614611ea75760405162461bcd60e51b815260040161078e90613ab1565b6000611eb16127d9565b60006002820181905560039091015550565b611ecb612624565b6001600160a01b0316336001600160a01b03161480611f125750336001600160a01b037f000000000000000000000000000000000000000000000000000000000000000016145b611f2e5760405162461bcd60e51b815260040161078e90613ab1565b6001600160a01b038116611f845760405162461bcd60e51b815260206004820152601c60248201527f6d67764f666665722f7365745f726f757465722f3078526f7574657200000000604482015260640161078e565b80611f8d6127b5565b60010180546001600160a01b0319166001600160a01b039283161790556040516381bac14f60e01b8152306004820152908216906381bac14f90602401600060405180830381600087803b158015611fe457600080fd5b505af1158015611ff8573d6000803e3d6000fd5b50506040516001600160a01b03841681527f6de4326a8b9054d72d9dbab97d27bc4edffadee7d966f5af9cc4eafdaf8e5455925060200190505b60405180910390a150565b6120456134a6565b61204d612624565b6001600160a01b0316336001600160a01b03161461207d5760405162461bcd60e51b815260040161078e90613ab1565b60006120876127d9565b6040805180820190915260028201548152600390910154602082015291505090565b600080806001600160a01b037f00000000000000000000000000000000000000000000000000000000000000001663cbf75c9a89896040516001600160e01b031960e085901b1681526001600160a01b039283166004820152911660248201526044016040805180830381865afa158015612128573d6000803e3d6000fd5b505050506040513d601f19601f8201168201806040525081019061214c9190613e8a565b9150915060007f00000000000000000000000000000000000000000000000000000000000000006001600160a01b0316635722647b6121888b90565b8a6040516001600160e01b031960e085901b1681526001600160a01b0392831660048201529116602482015260448101889052606401602060405180830381865afa1580156121db573d6000803e3d6000fd5b505050506040513d601f19601f820116820180604052508101906121ff9190613d0a565b9050600086604085901c61ffff161115612222575061ffff604084901c16612225565b50855b62ffffff881061223a57612237611dd6565b97505b60008161225062ffffff606087901c168b613e72565b61225a9190613eae565b61226890633b9aca00613eae565b9050600061ffff602085901c1661228f62ffffff603087901c811690604888901c16613e72565b6122999190613eae565b6122a790633b9aca00613eae565b6040516370a0823160e01b81523060048201529091506000906001600160a01b037f000000000000000000000000000000000000000000000000000000000000000016906370a0823190602401602060405180830381865afa158015612311573d6000803e3d6000fd5b505050506040513d601f19601f820116820180604052508101906123359190613d0a565b61233f9083613e72565b905082811015612358576123538184613ecd565b61235b565b60005b9d9c50505050505050505050505050565b612374612624565b6001600160a01b0316336001600160a01b0316146123a45760405162461bcd60e51b815260040161078e90613ab1565b6001600160a01b0381166123fa5760405162461bcd60e51b815260206004820152601860248201527f416363657373436f6e74726f6c6c65642f307841646d696e0000000000000000604482015260640161078e565b80612403612791565b80546001600160a01b0319166001600160a01b039290921691909117905550565b60008061242f6127b5565b600101546001600160a01b0316905080156124d057806001600160a01b03166305684fde8461245c611dc6565b6040516001600160e01b031960e085901b1681526001600160a01b03928316600482015291166024820152604401602060405180830381865afa1580156124a7573d6000803e3d6000fd5b505050506040513d601f19601f820116820180604052508101906124cb9190613d0a565b6108b7565b826001600160a01b03166370a082316124e7611dc6565b6040516001600160e01b031960e084901b1681526001600160a01b039091166004820152602401602060405180830381865afa15801561252b573d6000803e3d6000fd5b505050506040513d601f19601f820116820180604052508101906108b79190613d0a565b806001600160a01b031663095ea7b361256661263d565b6040516001600160e01b031960e084901b1681526001600160a01b03909116600482015260001960248201526044016020604051808303816000875af11580156125b4573d6000803e3d6000fd5b505050506040513d601f19601f820116820180604052508101906125d89190613ae8565b610a125760405162461bcd60e51b815260206004820152601b60248201527f6d67764f666665722f617070726f7665526f757465722f4661696c0000000000604482015260640161078e565b600061262e612791565b546001600160a01b0316919050565b6000806126486127b5565b600101546001600160a01b0316905080610f4a5760405162461bcd60e51b815260206004820152601160248201527036b3bb27b33332b917983c2937baba32b960791b604482015260640161078e565b6126a0612624565b6001600160a01b0316336001600160a01b031614806126e75750336001600160a01b037f000000000000000000000000000000000000000000000000000000000000000016145b6127035760405162461bcd60e51b815260040161078e90613ab1565b808162ffffff16146127575760405162461bcd60e51b815260206004820152601860248201527f6d67764f666665722f6761737265712f6f766572666c6f770000000000000000604482015260640161078e565b806127606127b5565b556040518181527fafef3ad374c0b972e3c793be825735801fa05cc4c67157d98d9a111b4027988d90602001612032565b7f7d382ebca3e46505071795e192d28166a3d4bd0685585591bc6c5b8df6769fd290565b7fae7e31c3220e851db9f204a28b279dfe52b973600b0a456991089c220ae7222490565b7f416b48c48a967c2245e6ba6bc6efa281932950b502fea671117e4dfd7d3dfb8190565b600081158061281457506001600160a01b03831630145b15612821575060016108b7565b604080516001600160a01b038581166024830152604480830186905283518084039091018152606490920183526020820180516001600160e01b031663a9059cbb60e01b179052915160009283929088169161287d9190613bed565b6000604051808303816000865af19150503d80600081146128ba576040519150601f19603f3d011682016040523d82523d6000602084013e6128bf565b606091505b50915091508180156128e95750805115806128e95750808060200190518101906128e99190613ae8565b9695505050505050565b6128fb61175c565b1561297e5761290861263d565b6001600160a01b031663a01dccd88261291f611dc6565b6040516001600160e01b031960e085901b1681526001600160a01b0392831660048201529116602482015260440160006040518083038186803b15801561296557600080fd5b505afa158015612979573d6000803e3d6000fd5b505050505b610a1281612db3565b80516000036129d85760405162461bcd60e51b815260206004820152601b60248201527f4d616e676f53746f726167652f7265766572744e6f526561736f6e0000000000604482015260640161078e565b805160208201fd5b6000806129eb6127d9565b905060006129f884612ea3565b90506001600160a01b037f000000000000000000000000000000000000000000000000000000000000000016612a3160208601866137bc565b6001600160a01b031603612a635780612a5757612a4d846130d8565b6002830155612a83565b60006002830155612a83565b80612a7b57612a71846130d8565b6003830155612a83565b600060038301555b6000806001600160a01b037f0000000000000000000000000000000000000000000000000000000000000000166311b1025960e01b87612ac1611dd6565b604051602401612ad2929190613ee4565b60408051601f198184030181529181526020820180516001600160e01b03166001600160e01b0319909416939093179092529051612b109190613bed565b600060405180830381855af49150503d8060008114612b4b576040519150601f19603f3d011682016040523d82523d6000602084013e612b50565b606091505b509150915081612b6857612b6381612987565b612b7c565b808060200190518101906128e99190613ae8565b50505050919050565b60015b92915050565b6001600160a01b038116612bdb5760405162461bcd60e51b815260206004820152601460248201527353696e676c65557365722f30785265736572766560601b604482015260640161078e565b80612be46127b5565b6001600160a01b0393841660009081526002919091016020526040902080546001600160a01b031916919093161790915550565b612c218161180c565b612c2961175c565b15610a1257612c378161254f565b612c3f61263d565b604051630716a76760e21b81526001600160a01b0383811660048301529190911690631c5a9d9c90602401600060405180830381600087803b158015612c8457600080fd5b505af1158015612c98573d6000803e3d6000fd5b5050505050565b6000612ca96127d9565b6009015460ff161592915050565b600080612cd2612cca60208501856137bc565b856000613150565b9050838110612ce5576000915050612b88565b6000612cf460208501856137bc565b6040516370a0823160e01b81523060048201526001600160a01b0391909116906370a0823190602401602060405180830381865afa158015612d3a573d6000803e3d6000fd5b505050506040513d601f19601f82011682018060405250810190612d5e9190613d0a565b905084811015612d7757612d728186613ecd565b612d7a565b60005b92505050612b88565b6000612d8d6127b5565b6001600160a01b0392831660009081526002919091016020526040902054909116919050565b604051636eb1769f60e11b81523060048201526001600160a01b037f0000000000000000000000000000000000000000000000000000000000000000811660248301526000919083169063dd62ed3e90604401602060405180830381865afa158015612e23573d6000803e3d6000fd5b505050506040513d601f19601f82011682018060405250810190612e479190613d0a565b11610a125760405162461bcd60e51b815260206004820152602660248201527f4d616e67726f76654f666665722f41646d696e4d757374417070726f76654d616044820152656e67726f766560d01b606482015260840161078e565b6000612eae82613219565b506000612eba836130d8565b905080600003612ecd5750600192915050565b6000612ed8846132ca565b90506001600160a01b037f000000000000000000000000000000000000000000000000000000000000000016636a4f7691612f1660208701876137bc565b612f2660408801602089016137bc565b848660c08a013560481c62ffffff1660c08b013560201c61ffff1660608c013560c01c63ffffffff168c604001356040518963ffffffff1660e01b8152600401612f77989796959493929190613b4a565b600060405180830381600087803b158015612f9157600080fd5b505af1925050508015612fa2575060015b6130ce573d808015612fd0576040519150601f19603f3d011682016040523d82523d6000602084013e612fd5565b606091505b50805160208201207fc5fc8c2459087ad4f0e957e465df485864a3b1a379c2653ffe7c554981ede670016130c3576040850180359061301790602088016137bc565b6001600160a01b031661302d60208801886137bc565b6001600160a01b03167f736a3993b9f8b1c5603896c76376792887f376b1fe7fc981e09a16530bf1e4e07f00000000000000000000000000000000000000000000000000000000000000006040516130ba91906001600160a01b039190911681527f50657273697374656e742f686f6f6b2f6f75744f6650726f766973696f6e0000602082015260400190565b60405180910390a45b506000949350505050565b5060019392505050565b6000806130e36127d9565b90506001600160a01b037f00000000000000000000000000000000000000000000000000000000000000001661311c60208501856137bc565b6001600160a01b031603613142578060020154613138846133ec565b6108b79190613e72565b8060030154613138846133ec565b60008061315b6127b5565b600101546001600160a01b03169050806131795760009150506108b7565b806001600160a01b031663333dbb0d86613191611dc6565b6040516001600160e01b031960e085901b1681526001600160a01b039283166004820152911660248201526044810187905285151560648201526084016020604051808303816000875af11580156131ed573d6000803e3d6000fd5b505050506040513d601f19601f820116820180604052508101906132119190613d0a565b9150506108b7565b6040805160028082526060820183526000928392919060208301908036833701905050905061324b60208401846137bc565b8160008151811061325e5761325e613b05565b6001600160a01b0390921660209283029190910182015261328590604085019085016137bc565b8160018151811061329857613298613b05565b60200260200101906001600160a01b031690816001600160a01b0316815250506132c18161340e565b50600192915050565b6000806132d6836130d8565b9050806000036132e95750600092915050565b6000807f00000000000000000000000000000000000000000000000000000000000000006001600160a01b0316631f92a31960e01b8685604051602401613331929190613ee4565b60408051601f198184030181529181526020820180516001600160e01b03166001600160e01b031990941693909317909252905161336f9190613bed565b600060405180830381855af49150503d80600081146133aa576040519150601f19603f3d011682016040523d82523d6000602084013e6133af565b606091505b5091509150816133c7576133c281612987565b6133e4565b808060200190518101906133db9190613d0a565b95945050505050565b505050919050565b6000612b88608083013560608401356bffffffffffffffffffffffff16613ecd565b60006134186127b5565b600101546001600160a01b0316905080613430575050565b806001600160a01b031663f850a81c83613448611dc6565b6040518363ffffffff1660e01b8152600401613465929190613f71565b600060405180830381600087803b1580156109f857600080fd5b60405180604001604052806002905b606081526020019060019003908161348e5790505090565b60405180604001604052806002906020820280368337509192915050565b6001600160a01b0381168114610a1257600080fd5b8035610f4a816134c4565b6000806000606084860312156134f957600080fd5b8335613504816134c4565b92506020840135613514816134c4565b929592945050506040919091013590565b60008083601f84011261353757600080fd5b50813567ffffffffffffffff81111561354f57600080fd5b6020830191508360208260051b850101111561356a57600080fd5b9250929050565b6000806020838503121561358457600080fd5b823567ffffffffffffffff81111561359b57600080fd5b6135a785828601613525565b90969095509350505050565b634e487b7160e01b600052604160045260246000fd5b6040805190810167ffffffffffffffff811182821017156135ec576135ec6135b3565b60405290565b604051601f8201601f1916810167ffffffffffffffff8111828210171561361b5761361b6135b3565b604052919050565b600061010080838503121561363757600080fd5b6040519081019067ffffffffffffffff8211818310171561365a5761365a6135b3565b816040528335915061366b826134c4565b81815261367a602085016134d9565b602082015260408401356040820152606084013560608201526080840135608082015260a084013560a082015260c084013560c082015260e084013560e0820152809250505092915050565b8015158114610a1257600080fd5b6000602082840312156136e657600080fd5b81356108b7816136c6565b6020808252600090606083018382018584805b600281101561375957878503601f19018452825180518087529087019087870190845b8181101561374357835183529289019291890191600101613727565b5090965050509285019291850191600101613704565b5092979650505050505050565b6000610120828403121561132157600080fd5b60008082840361016081121561378e57600080fd5b6137988585613766565b9250604061011f19820112156137ad57600080fd5b50610120830190509250929050565b6000602082840312156137ce57600080fd5b81356108b7816134c4565b600080600080600080600060c0888a0312156137f457600080fd5b87356137ff816136c6565b9650602088013595506040880135945060608801359350608088013567ffffffffffffffff8082111561383157600080fd5b818a0191508a60408301111561384657600080fd5b90935060a0890135908082111561385c57600080fd5b506138698a828b01613525565b989b979a50959850939692959293505050565b6000806020838503121561388f57600080fd5b823567ffffffffffffffff808211156138a757600080fd5b818501915085601f8301126138bb57600080fd5b8135818111156138ca57600080fd5b8660208285010111156138dc57600080fd5b60209290920196919550909350505050565b6000610120828403121561390157600080fd5b6108b78383613766565b6000806040838503121561391e57600080fd5b823591506020830135613930816134c4565b809150509250929050565b6000806000806060858703121561395157600080fd5b843593506020850135613963816136c6565b9250604085013567ffffffffffffffff81111561397f57600080fd5b61398b87828801613525565b95989497509550505050565b6000602082840312156139a957600080fd5b5035919050565b600080600080608085870312156139c657600080fd5b84356139d1816134c4565b935060208501356139e1816134c4565b92506040850135915060608501356139f8816136c6565b939692955090935050565b600080600060608486031215613a1857600080fd5b505081359360208301359350604090920135919050565b60408101818360005b6002811015613a57578151835260209283019290910190600101613a38565b50505092915050565b600080600080600060a08688031215613a7857600080fd5b8535613a83816134c4565b94506020860135613a93816134c4565b94979496505050506040830135926060810135926080909101359150565b60208082526018908201527f416363657373436f6e74726f6c6c65642f496e76616c69640000000000000000604082015260600190565b600060208284031215613afa57600080fd5b81516108b7816136c6565b634e487b7160e01b600052603260045260246000fd5b634e487b7160e01b600052601160045260246000fd5b600060018201613b4357613b43613b1b565b5060010190565b6001600160a01b03988916815296909716602087015260408601949094526060850192909252608084015260a083015260c082015260e08101919091526101000190565b60005b83811015613ba9578181015183820152602001613b91565b83811115610c9b5750506000910152565b6020815260008251806020840152613bd9816040850160208701613b8e565b601f01601f19169190910160400192915050565b60008251613bff818460208701613b8e565b9190910192915050565b60006020808385031215613c1c57600080fd5b825167ffffffffffffffff80821115613c3457600080fd5b8185019150601f8681840112613c4957600080fd5b613c516135c9565b806040850189811115613c6357600080fd5b855b81811015613cfb57805186811115613c7d5760008081fd5b87018581018c13613c8e5760008081fd5b805187811115613ca057613ca06135b3565b8060051b613caf8b82016135f2565b9182528281018b01918b8101908f841115613ccc57600092508283fd5b938c01935b83851015613cea5784518252938c0193908c0190613cd1565b885250505093880193508701613c65565b50909998505050505050505050565b600060208284031215613d1c57600080fd5b5051919050565b81835260006001600160fb1b03831115613d3c57600080fd5b8260051b8083602087013760009401602001938452509192915050565b600060e082018a1515835260208a8185015289604085015288606085015260e0608085015281829050610120850192508860005b6002811015613e015786850360df190183528135368c9003601e19018112613db457600080fd5b8b01848101903567ffffffffffffffff811115613dd057600080fd5b8060051b3603821315613de257600080fd5b613ded878284613d23565b965050509183019190830190600101613d8d565b5050505082810360a0840152613e18818688613d23565b9150508260c08301529998505050505050505050565b8183823760009101908152919050565b8581528415156020820152608060408201526000613e60608083018587613d23565b90508260608301529695505050505050565b60008219821115613e8557613e85613b1b565b500190565b60008060408385031215613e9d57600080fd5b505080516020909101519092909150565b6000816000190483118215151615613ec857613ec8613b1b565b500290565b600082821015613edf57613edf613b1b565b500390565b61014081018335613ef4816134c4565b6001600160a01b03168252613f0b602085016134d9565b6001600160a01b03811660208401525060408401356040830152606084013560608301526080840135608083015260a084013560a083015260c084013560c083015260e084013560e0830152610100808501358184015250826101208301529392505050565b604080825283519082018190526000906020906060840190828701845b82811015613fb35781516001600160a01b031684529284019290840190600101613f8e565b5050506001600160a01b03949094169201919091525091905056fea2646970667358221220458bf1c8dbdb4649dd34d87893cf2631819c3d1d6a8ab1bafb4cbf084f6aa40864736f6c634300080e0033608060405234801561001057600080fd5b5061c35033806100675760405162461bcd60e51b815260206004820152601860248201527f616363657373436f6e74726f6c6c65642f307841646d696e000000000000000060448201526064015b60405180910390fd5b8061007a61010a60201b6107e51760201c565b80546001600160a01b0319166001600160a01b03929092169190911790555062ffffff811681146100ed5760405162461bcd60e51b815260206004820152601660248201527f526f757465722f6f76657268656164546f6f4869676800000000000000000000604482015260640161005e565b8061010061012e60201b6108091760201c565b6001015550610152565b7f7d382ebca3e46505071795e192d28166a3d4bd0685585591bc6c5b8df6769fd290565b7ff2910982afb88211fa9894801aaf0314409ca240a0a8904897b9f5ba323ca53390565b610ea3806101616000396000f3fe608060405234801561001057600080fd5b50600436106100cf5760003560e01c8063362aecb11161008c578063cf5e7bd311610066578063cf5e7bd314610199578063e9333fab146101ac578063f850a81c146101bf578063f851a440146101d257600080fd5b8063362aecb11461016057806381bac14f14610173578063a01dccd81461018657600080fd5b80630417ffda146100d457806305684fde146100ef5780631c5a9d9c1461010257806321754d9e1461011757806326e8eda21461013a578063333dbb0d1461014d575b600080fd5b6100dc6101f2565b6040519081526020015b60405180910390f35b6100dc6100fd366004610bc3565b610205565b610115610110366004610bfc565b61027a565b005b61012a610125366004610c19565b6102cd565b60405190151581526020016100e6565b610115610148366004610c6a565b61030b565b6100dc61015b366004610cb9565b610341565b61012a61016e366004610bfc565b6103fd565b610115610181366004610bfc565b610429565b610115610194366004610bc3565b6104a7565b6101156101a7366004610bfc565b61057d565b6101156101ba366004610bfc565b6105ce565b6101156101cd366004610d0c565b6106b6565b6101da6107cc565b6040516001600160a01b0390911681526020016100e6565b60006101fc610809565b60010154905090565b6040516370a0823160e01b81526001600160a01b038281166004830152600091908416906370a0823190602401602060405180830381865afa15801561024f573d6000803e3d6000fd5b505050506040513d601f19601f820116820180604052508101906102739190610d92565b9392505050565b6102826107cc565b6001600160a01b0316336001600160a01b031614806102a557506102a5336103fd565b6102ca5760405162461bcd60e51b81526004016102c190610dab565b60405180910390fd5b50565b60006102d8336103fd565b6102f45760405162461bcd60e51b81526004016102c190610dab565b6103008585858561082d565b90505b949350505050565b610314336103fd565b6103305760405162461bcd60e51b81526004016102c190610dab565b61033c8383338461083b565b505050565b600061034c336103fd565b6103685760405162461bcd60e51b81526004016102c190610dab565b6040516370a0823160e01b81523360048201526000906001600160a01b038716906370a0823190602401602060405180830381865afa1580156103af573d6000803e3d6000fd5b505050506040513d601f19601f820116820180604052508101906103d39190610d92565b90508381106103e6576000915050610303565b6103f38686338787610893565b9695505050505050565b6000610407610809565b6001600160a01b03909216600090815260209290925250604090205460ff1690565b6104316107cc565b6001600160a01b0316336001600160a01b031614806104545750610454336103fd565b6104705760405162461bcd60e51b81526004016102c190610dab565b600161047a610809565b6001600160a01b039290921660009081526020929092526040909120805460ff1916911515919091179055565b604051636eb1769f60e11b81523360048201523060248201526000906001600160a01b0384169063dd62ed3e90604401602060405180830381865afa1580156104f4573d6000803e3d6000fd5b505050506040513d601f19601f820116820180604052508101906105189190610d92565b1161056f5760405162461bcd60e51b815260206004820152602160248201527f526f757465722f4e6f74417070726f76656442794d616b6572436f6e747261636044820152601d60fa1b60648201526084016102c1565b61057982826108ba565b5050565b6105856107cc565b6001600160a01b0316336001600160a01b031614806105a857506105a8336103fd565b6105c45760405162461bcd60e51b81526004016102c190610dab565b600061047a610809565b6105d66107cc565b6001600160a01b0316336001600160a01b0316146106365760405162461bcd60e51b815260206004820152601860248201527f416363657373436f6e74726f6c6c65642f496e76616c6964000000000000000060448201526064016102c1565b6001600160a01b03811661068c5760405162461bcd60e51b815260206004820152601860248201527f416363657373436f6e74726f6c6c65642f307841646d696e000000000000000060448201526064016102c1565b806106956107e5565b80546001600160a01b0319166001600160a01b039290921691909117905550565b6106bf336103fd565b6106db5760405162461bcd60e51b81526004016102c190610dab565b60005b828110156107c65760008484838181106106fa576106fa610dd8565b905060200201602081019061070f9190610bfc565b6040516370a0823160e01b81523360048201526001600160a01b0391909116906370a0823190602401602060405180830381865afa158015610755573d6000803e3d6000fd5b505050506040513d601f19601f820116820180604052508101906107799190610d92565b905080156107b3576107b385858481811061079657610796610dd8565b90506020020160208101906107ab9190610bfc565b84338461083b565b50806107be81610dee565b9150506106de565b50505050565b60006107d66107e5565b546001600160a01b0316919050565b7f7d382ebca3e46505071795e192d28166a3d4bd0685585591bc6c5b8df6769fd290565b7ff2910982afb88211fa9894801aaf0314409ca240a0a8904897b9f5ba323ca53390565b600061030085858585610998565b61084784838584610998565b6107c65760405162461bcd60e51b815260206004820152601e60248201527f53696d706c65526f757465722f707573682f7472616e736665724661696c000060448201526064016102c1565b60006108a186868686610998565b156108ad5750816108b1565b5060005b95945050505050565b6001600160a01b0381163014806109425750604051636eb1769f60e11b81526001600160a01b0382811660048301523060248301526000919084169063dd62ed3e90604401602060405180830381865afa15801561091c573d6000803e3d6000fd5b505050506040513d601f19601f820116820180604052508101906109409190610d92565b115b6105795760405162461bcd60e51b815260206004820152602160248201527f53696d706c65526f757465722f4e6f74417070726f76656442795265736572766044820152606560f81b60648201526084016102c1565b60008115806109b85750826001600160a01b0316846001600160a01b0316145b156109c557506001610303565b306001600160a01b038516036109e7576109e0858484610ac2565b9050610303565b604080516001600160a01b0386811660248301528581166044830152606480830186905283518084039091018152608490920183526020820180516001600160e01b03166323b872dd60e01b1790529151600092839290891691610a4b9190610e15565b6000604051808303816000865af19150503d8060008114610a88576040519150601f19603f3d011682016040523d82523d6000602084013e610a8d565b606091505b5091509150818015610ab7575080511580610ab7575080806020019051810190610ab79190610e50565b979650505050505050565b6000811580610ad957506001600160a01b03831630145b15610ae657506001610273565b604080516001600160a01b038581166024830152604480830186905283518084039091018152606490920183526020820180516001600160e01b031663a9059cbb60e01b1790529151600092839290881691610b429190610e15565b6000604051808303816000865af19150503d8060008114610b7f576040519150601f19603f3d011682016040523d82523d6000602084013e610b84565b606091505b50915091508180156103f35750805115806103f35750808060200190518101906103f39190610e50565b6001600160a01b03811681146102ca57600080fd5b60008060408385031215610bd657600080fd5b8235610be181610bae565b91506020830135610bf181610bae565b809150509250929050565b600060208284031215610c0e57600080fd5b813561027381610bae565b60008060008060808587031215610c2f57600080fd5b8435610c3a81610bae565b93506020850135610c4a81610bae565b92506040850135610c5a81610bae565b9396929550929360600135925050565b600080600060608486031215610c7f57600080fd5b8335610c8a81610bae565b92506020840135610c9a81610bae565b929592945050506040919091013590565b80151581146102ca57600080fd5b60008060008060808587031215610ccf57600080fd5b8435610cda81610bae565b93506020850135610cea81610bae565b9250604085013591506060850135610d0181610cab565b939692955090935050565b600080600060408486031215610d2157600080fd5b833567ffffffffffffffff80821115610d3957600080fd5b818601915086601f830112610d4d57600080fd5b813581811115610d5c57600080fd5b8760208260051b8501011115610d7157600080fd5b60209283019550935050840135610d8781610bae565b809150509250925092565b600060208284031215610da457600080fd5b5051919050565b602080825260139082015272149bdd5d195c8bdd5b985d5d1a1bdc9a5e9959606a1b604082015260600190565b634e487b7160e01b600052603260045260246000fd5b600060018201610e0e57634e487b7160e01b600052601160045260246000fd5b5060010190565b6000825160005b81811015610e365760208186018101518583015201610e1c565b81811115610e45576000828501525b509190910192915050565b600060208284031215610e6257600080fd5b815161027381610cab56fea26469706673582212201a5909cf162cba146fb1ddb06cb563c76c816c7430eb8e8f45d62b5cb8ea878a64736f6c634300080e00336101606040523480156200001257600080fd5b5060405162002d1938038062002d198339810160408190526200003591620000ab565b6001600160a01b039586166101405293851660e05291909316610100526080919091526001600160601b0391821660a0521660c05233610120526200012b565b6001600160a01b03811681146200008b57600080fd5b50565b80516001600160601b0381168114620000a657600080fd5b919050565b60008060008060008060c08789031215620000c557600080fd5b8651620000d28162000075565b6020880151909650620000e58162000075565b6040880151909550620000f88162000075565b935062000108606088016200008e565b925062000118608088016200008e565b915060a087015190509295509295509295565b60805160a05160c05160e0516101005161012051610140516129d46200034560003960008181610735015281816108f101528181610b7201528181610cb201528181610f1f01528181611140015281816114cf0152818161180201528181611c1701528181611d7101528181611e7301528181611fb7015281816120f401526121f601526000818160fa0152818161044c0152610dc50152600081816107850152818161092001528181610ba101528181610d0201528181610f4e015281816110f2015281816111900152818161151f015281816116640152818161183101528181611c6701528181611dc101528181611ec301528181611fe6015281816121230152612225015260008181610151015281816103a9015281816107640152818161094101528181610bc201528181610ce101528181610f6f0152818161116f0152818161130e015281816114fe015281816118520152818161197f01528181611a2701528181611c4601528181611da001528181611ea201528181612007015281816121440152612246015260006122ee01526000818161133c01526113a1015260008181610293015281816102e9015281816104e90152818161051d01528181610553015281816105e201528181610a2001528181610a8501528181610af001528181610ec2015281816113d80152818161145b0152818161168f0152818161172f01528181611b710152611ba901526129d46000f3fe608060405234801561001057600080fd5b50600436106100575760003560e01c806311b102591461005c5780631f92a319146100845780633234fdc0146100a5578063663d2e0c146100ba578063b61dce59146100da575b600080fd5b61006f61006a3660046123a3565b6100ed565b60405190151581526020015b60405180910390f35b6100976100923660046123a3565b610396565b60405190815260200161007b565b6100b86100b3366004612436565b610441565b005b6100cd6100c83660046124de565b610a07565b60405161007b91906124f9565b6100b86100e836600461256e565b610dba565b6000306001600160a01b037f000000000000000000000000000000000000000000000000000000000000000016146101405760405162461bcd60e51b8152600401610137906125d0565b60405180910390fd5b60008051602061297f8339815191527f00000000000000000000000000000000000000000000000000000000000000006001600160a01b03166101866020860186612607565b6001600160a01b03160361026a5760408085013560009081526005830160205290812054906101b482610e9e565b9050801561022c576101e16101d26101cd600184612646565b610ee6565b60008860a00135600089610f08565b60088301546101f1600183612646565b11610220576040517f5ac608c951fb4eeda3d62e6a244a32d697d994fdcdf2ff4ca1ff1b5dde368a0d90600090a15b60019350505050610390565b60405162461bcd60e51b81526020600482015260136024820152724d616e676f2f4269644f75744f6652616e676560681b6044820152606401610137565b604080850135600090815260048301602052908120549061028a82610e9e565b90506102b760017f0000000000000000000000000000000000000000000000000000000000000000612646565b811015610352576102de6102cf6101cd83600161265d565b60008860a00135600089611129565b600883015461030d907f0000000000000000000000000000000000000000000000000000000000000000612646565b61031882600161265d565b10610220576040517f3c8e6c8b637216f202e5b335b54c0abfc6c1b6952a8a2511de149d2f3e5e7e9290600090a160019350505050610390565b60405162461bcd60e51b81526020600482015260136024820152724d616e676f2f41736b4f75744f6652616e676560681b6044820152606401610137565b92915050565b600060008051602061297f8339815191527f00000000000000000000000000000000000000000000000000000000000000006001600160a01b03166103de6020860186612607565b6001600160a01b03160361041b57604080850135600090815260058301602052205461041261040c82610e9e565b85611338565b92505050610390565b604080850135600090815260048301602052205461041261043b82610e9e565b85611389565b306001600160a01b037f000000000000000000000000000000000000000000000000000000000000000016146104895760405162461bcd60e51b8152600401610137906125d0565b60008051602061297f8339815191528686116104e75760405162461bcd60e51b815260206004820152601d60248201527f4d616e676f2f696e697469616c697a652f696e76616c6964536c6963650000006044820152606401610137565b7f000000000000000000000000000000000000000000000000000000000000000083148015610514575060015b801561054a57507f0000000000000000000000000000000000000000000000000000000000000000610546868061268b565b9050145b801561058357507f000000000000000000000000000000000000000000000000000000000000000061057f602087018761268b565b9050145b6105db5760405162461bcd60e51b815260206004820152602360248201527f4d616e676f2f696e697469616c697a652f696e76616c696441727261794c656e6044820152620cee8d60eb1b6064820152608401610137565b61060660017f0000000000000000000000000000000000000000000000000000000000000000612646565b88106106545760405162461bcd60e51b815260206004820152601e60248201527f4d616e676f2f696e697469616c697a652f4e6f536c6f74466f7241736b7300006044820152606401610137565b865b868110156109fb57600061066982610ee6565b905089821161083057600061067e888061268b565b8481811061068e5761068e612675565b905060200201359050600081116106e257600083116106ae5760006106e4565b836001016106c26001856101cd9190612646565b815481106106d2576106d2612675565b90600052602060002001546106e4565b805b905061070b828d8989878181106106fd576106fd612675565b905060200201358489610f08565b600084600001838154811061072257610722612675565b9060005260206000200154111561082a577f00000000000000000000000000000000000000000000000000000000000000006001600160a01b031663ad97db1b7f00000000000000000000000000000000000000000000000000000000000000007f00000000000000000000000000000000000000000000000000000000000000008760000186815481106107b9576107b9612675565b906000526020600020015460006040518563ffffffff1660e01b81526004016107e594939291906126d5565b6020604051808303816000875af1158015610804573d6000803e3d6000fd5b505050506040513d601f19601f8201168201806040525081019061082891906126fe565b505b506109e8565b600061083f602089018961268b565b8481811061084f5761084f612675565b9050602002013590506000811161089e576000831161086f5760006108a0565b8361087e6101cd600186612646565b8154811061088e5761088e612675565b90600052602060002001546108a0565b805b90506108c7828d8989878181106108b9576108b9612675565b905060200201358489611129565b60008460010183815481106108de576108de612675565b906000526020600020015411156109e6577f00000000000000000000000000000000000000000000000000000000000000006001600160a01b031663ad97db1b7f00000000000000000000000000000000000000000000000000000000000000007f000000000000000000000000000000000000000000000000000000000000000087600101868154811061097557610975612675565b906000526020600020015460006040518563ffffffff1660e01b81526004016109a194939291906126d5565b6020604051808303816000875af11580156109c0573d6000803e3d6000fd5b505050506040513d601f19601f820116820180604052508101906109e491906126fe565b505b505b50806109f381612717565b915050610656565b50505050505050505050565b610a0f61237c565b60008051602061297f8339815191527f000000000000000000000000000000000000000000000000000000000000000067ffffffffffffffff811115610a5757610a57612730565b604051908082528060200260200182016040528015610a80578160200160208202803683370190505b5082527f000000000000000000000000000000000000000000000000000000000000000067ffffffffffffffff811115610abc57610abc612730565b604051908082528060200260200182016040528015610ae5578160200160208202803683370190505b50602083015260005b7f0000000000000000000000000000000000000000000000000000000000000000811015610db357600082610b2283610ee6565b81548110610b3257610b32612675565b90600052602060002001549050600083600101610b4e84610ee6565b81548110610b5e57610b5e612675565b906000526020600020015490506000610c4d7f00000000000000000000000000000000000000000000000000000000000000006001600160a01b03166368c13d6b7f00000000000000000000000000000000000000000000000000000000000000007f0000000000000000000000000000000000000000000000000000000000000000866040518463ffffffff1660e01b8152600401610c0093929190612746565b602060405180830381865afa158015610c1d573d6000803e3d6000fd5b505050506040513d601f19601f82011682018060405250810190610c4191906126fe565b6001600160601b031690565b1180610c57575085155b610c62576000610c8b565b83600101610c6f84610ee6565b81548110610c7f57610c7f612675565b90600052602060002001545b8551805185908110610c9f57610c9f612675565b6020026020010181815250506000610d407f00000000000000000000000000000000000000000000000000000000000000006001600160a01b03166368c13d6b7f00000000000000000000000000000000000000000000000000000000000000007f0000000000000000000000000000000000000000000000000000000000000000876040518463ffffffff1660e01b8152600401610c0093929190612746565b1180610d4a575085155b610d55576000610d7b565b83610d5f84610ee6565b81548110610d6f57610d6f612675565b90600052602060002001545b6020860151805185908110610d9257610d92612675565b60200260200101818152505050508080610dab90612717565b915050610aee565b5050919050565b306001600160a01b037f00000000000000000000000000000000000000000000000000000000000000001614610e025760405162461bcd60e51b8152600401610137906125d0565b60008512610e105784610e19565b610e198561276a565b8214610e675760405162461bcd60e51b815260206004820181905260248201527f4d616e676f2f7365745f73686966742f6e6f74456e6f756768416d6f756e74736044820152606401610137565b6000851215610e8a57610e85610e7c8661276a565b858585856113c7565b610e97565b610e97858585858561171e565b5050505050565b600061039060008051602061297f83398151915260060154610ec09084612786565b7f00000000000000000000000000000000000000000000000000000000000000006119e0565b600061039060008051602061297f83398151915260060154610ec090846127c5565b600060008051602061297f833981519152905060007f00000000000000000000000000000000000000000000000000000000000000006001600160a01b03166368c13d6b7f00000000000000000000000000000000000000000000000000000000000000007f0000000000000000000000000000000000000000000000000000000000000000856001018b81548110610fa357610fa3612675565b90600052602060002001546040518463ffffffff1660e01b8152600401610fcc93929190612746565b602060405180830381865afa158015610fe9573d6000803e3d6000fd5b505050506040513d601f19601f8201168201806040525081019061100d91906126fe565b9050600061101a88610e9e565b905060008761104a57600384015461103b6001600160601b0385168961265d565b611045919061265d565b61104c565b865b9050600061105a8383611389565b905060006001600160601b0385166000036110c957871561107c5750866110ec565b83156110b857856001016110966001866101cd9190612646565b815481106110a6576110a6612675565b906000526020600020015490506110ec565b6110c28560e01c90565b90506110ec565b856001018b815481106110de576110de612675565b906000526020600020015490505b61111c8b7f000000000000000000000000000000000000000000000000000000000000000084868b8f1587611a0e565b5050505050505050505050565b600060008051602061297f833981519152905060007f00000000000000000000000000000000000000000000000000000000000000006001600160a01b03166368c13d6b7f00000000000000000000000000000000000000000000000000000000000000007f0000000000000000000000000000000000000000000000000000000000000000856000018b815481106111c4576111c4612675565b90600052602060002001546040518463ffffffff1660e01b81526004016111ed93929190612746565b602060405180830381865afa15801561120a573d6000803e3d6000fd5b505050506040513d601f19601f8201168201806040525081019061122e91906126fe565b9050600061123b88610e9e565b905060008761126b57600284015461125c6001600160601b0385168961265d565b611266919061265d565b61126d565b865b9050600061127b8383611338565b905060006001600160601b0385166000036112e557871561129d575086611308565b83156112d457856112b26101cd600187612646565b815481106112c2576112c2612675565b90600052602060002001549050611308565b6112de8560e01c90565b9050611308565b856000018b815481106112fa576112fa612675565b906000526020600020015490505b61111c8b7f000000000000000000000000000000000000000000000000000000000000000084868b8f1587611a0e565b60007f00000000000000000000000000000000000000000000000000000000000000006001600160601b03168261136e85611b3b565b6113789190612806565b611382919061283b565b9392505050565b600061139483611b3b565b6113786001600160601b037f00000000000000000000000000000000000000000000000000000000000000001684612806565b60008051602061297f8339815191527f0000000000000000000000000000000000000000000000000000000000000000861061144f5760405162461bcd60e51b815260206004820152602160248201527f4d616e676f2f73686966742f4e656761746976655368696674546f6f4c6172676044820152606560f81b6064820152608401610137565b600061147f6101cd60017f0000000000000000000000000000000000000000000000000000000000000000612646565b9050868260060160008282546114959190612786565b90915550600090505b87811015611714578260000182815481106114bb576114bb612675565b90600052602060002001546000146115c4577f00000000000000000000000000000000000000000000000000000000000000006001600160a01b031663ad97db1b7f00000000000000000000000000000000000000000000000000000000000000007f000000000000000000000000000000000000000000000000000000000000000086600001868154811061155357611553612675565b906000526020600020015460006040518563ffffffff1660e01b815260040161157f94939291906126d5565b6020604051808303816000875af115801561159e573d6000803e3d6000fd5b505050506040513d601f19601f820116820180604052508101906115c291906126fe565b505b60006115cf83610e9e565b9050600080891561161e578888858181106115ec576115ec612675565b905060200201359050611617838a8a8781811061160b5761160b612675565b90506020020135611338565b915061165e565b611640838a8a8781811061163457611634612675565b90506020020135611389565b905088888581811061165457611654612675565b9050602002013591505b6116f4857f000000000000000000000000000000000000000000000000000000000000000083858b60006116b360017f0000000000000000000000000000000000000000000000000000000000000000612646565b8a106116c0576000611a0e565b8c6001016116d48b60016101cd919061265d565b815481106116e4576116e4612675565b9060005260206000200154611a0e565b836116fe81612717565b94505061170a85611b61565b945050505061149e565b5050505050505050565b60008051602061297f8339815191527f000000000000000000000000000000000000000000000000000000000000000086106117a65760405162461bcd60e51b815260206004820152602160248201527f4d616e676f2f73686966742f706f7369746976655368696674546f6f4c6172676044820152606560f81b6064820152608401610137565b60006117b26000610ee6565b9050868260060160008282546117c891906127c5565b90915550600090505b87811015611714578260010182815481106117ee576117ee612675565b90600052602060002001546000146118f7577f00000000000000000000000000000000000000000000000000000000000000006001600160a01b031663ad97db1b7f00000000000000000000000000000000000000000000000000000000000000007f000000000000000000000000000000000000000000000000000000000000000086600101868154811061188657611886612675565b906000526020600020015460006040518563ffffffff1660e01b81526004016118b294939291906126d5565b6020604051808303816000875af11580156118d1573d6000803e3d6000fd5b505050506040513d601f19601f820116820180604052508101906118f591906126fe565b505b600061190283610e9e565b905060008089156119455788888581811061191f5761191f612675565b90506020020135915061193e838a8a8781811061160b5761160b612675565b9050611979565b88888581811061195757611957612675565b905060200201359050611976838a8a8781811061163457611634612675565b91505b6119c0857f000000000000000000000000000000000000000000000000000000000000000083858b6000808a116119b1576000611a0e565b8c6116d46101cd60018d612646565b836119ca81612717565b9450506119d685611ba5565b94505050506117d1565b60008083126119fa576119f3828461284f565b9050610390565b611a048284612863565b6119f390836127c5565b60008051602061297f8339815191526001600160a01b037f0000000000000000000000000000000000000000000000000000000000000000811690881603611ac3576000611a816040518060a001604052808b815260200189815260200188815260200187815260200185815250611bdd565b90508015611aaf5783611aa357808260020154611a9e919061265d565b611aa5565b805b6002830155611abd565b8315611abd57600060028301555b50611714565b6000611af46040518060a001604052808b815260200189815260200188815260200187815260200185815250611f5c565b90508015611b225783611b1657808260030154611b11919061265d565b611b18565b805b6003830155611b30565b8315611b3057600060038301555b505050505050505050565b600061039060008051602061297f8339815191526007015483611b5c61227e565b612365565b6000808211611b9a57611b9560017f0000000000000000000000000000000000000000000000000000000000000000612646565b610390565b610390600183612646565b60007f0000000000000000000000000000000000000000000000000000000000000000611bd383600161265d565b610390919061284f565b805160008051602061297f833981519152805460009282918110611c0357611c03612675565b9060005260206000200154600003611d6f577f00000000000000000000000000000000000000000000000000000000000000006001600160a01b03166349f6d2dc7f00000000000000000000000000000000000000000000000000000000000000007f000000000000000000000000000000000000000000000000000000000000000086602001518760400151886060015160008a608001516040518863ffffffff1660e01b8152600401611cbe9796959493929190612877565b6020604051808303816000875af1925050508015611cf9575060408051601f3d908101601f19168201909252611cf6918101906126fe565b60015b611d065750506040015190565b83518254829184918110611d1c57611d1c612675565b60009182526020822001919091558451835490916005850191859084908110611d4757611d47612675565b9060005260206000200154815260200190815260200160002081905550600092505050919050565b7f00000000000000000000000000000000000000000000000000000000000000006001600160a01b0316636a4f76917f00000000000000000000000000000000000000000000000000000000000000007f000000000000000000000000000000000000000000000000000000000000000086602001518760400151886060015160008a60800151896000018c6000015181548110611e0f57611e0f612675565b90600052602060002001546040518963ffffffff1660e01b8152600401611e3d9897969594939291906128b5565b600060405180830381600087803b158015611e5757600080fd5b505af1925050508015611e68575060015b611f53576000611f247f00000000000000000000000000000000000000000000000000000000000000006001600160a01b03166368c13d6b7f00000000000000000000000000000000000000000000000000000000000000007f000000000000000000000000000000000000000000000000000000000000000086600001896000015181548110611efb57611efb612675565b90600052602060002001546040518463ffffffff1660e01b8152600401610c0093929190612746565b905080846040015111611f3b578360400151611f4b565b808460400151611f4b9190612646565b949350505050565b50600092915050565b80517f416b48c48a967c2245e6ba6bc6efa281932950b502fea671117e4dfd7d3dfb82805460009260008051602061297f83398151915292918110611fa357611fa3612675565b90600052602060002001546000036120f2577f00000000000000000000000000000000000000000000000000000000000000006001600160a01b03166349f6d2dc7f00000000000000000000000000000000000000000000000000000000000000007f000000000000000000000000000000000000000000000000000000000000000086602001518760400151886060015160008a608001516040518863ffffffff1660e01b815260040161205e9796959493929190612877565b6020604051808303816000875af1925050508015612099575060408051601f3d908101601f19168201909252612096918101906126fe565b60015b6120a65750506040015190565b80826001018560000151815481106120c0576120c0612675565b9060005260206000200181905550836000015182600401600084600101876000015181548110611d4757611d47612675565b7f00000000000000000000000000000000000000000000000000000000000000006001600160a01b0316636a4f76917f00000000000000000000000000000000000000000000000000000000000000007f000000000000000000000000000000000000000000000000000000000000000086602001518760400151886060015160008a60800151896001018c600001518154811061219257612192612675565b90600052602060002001546040518963ffffffff1660e01b81526004016121c09897969594939291906128b5565b600060405180830381600087803b1580156121da57600080fd5b505af19250505080156121eb575060015b611f53576000611f247f00000000000000000000000000000000000000000000000000000000000000006001600160a01b03166368c13d6b7f00000000000000000000000000000000000000000000000000000000000000007f000000000000000000000000000000000000000000000000000000000000000086600101896000015181548110611efb57611efb612675565b7f416b48c48a967c2245e6ba6bc6efa281932950b502fea671117e4dfd7d3dfb88547f416b48c48a967c2245e6ba6bc6efa281932950b502fea671117e4dfd7d3dfb875460009160008051602061297f8339815191529183916122e0916128f9565b612313906001600160601b037f0000000000000000000000000000000000000000000000000000000000000000166127c5565b9050600081136103905760405162461bcd60e51b815260206004820152601e60248201527f4d616e676f2f71756f74655f6d696e2f5368696674556e646572666c6f7700006044820152606401610137565b6000816123728486612806565b611f4b919061265d565b60405180604001604052806002905b606081526020019060019003908161238b5790505090565b6000808284036101408112156123b857600080fd5b610120808212156123c857600080fd5b9395938601359450505050565b803580151581146123e557600080fd5b919050565b60008083601f8401126123fc57600080fd5b50813567ffffffffffffffff81111561241457600080fd5b6020830191508360208260051b850101111561242f57600080fd5b9250929050565b60008060008060008060008060e0898b03121561245257600080fd5b61245b896123d5565b9750602089013596506040890135955060608901359450608089013567ffffffffffffffff8082111561248d57600080fd5b818b0191508b6040830111156124a257600080fd5b90945060a08a013590808211156124b857600080fd5b506124c58b828c016123ea565b999c989b50969995989497949560c00135949350505050565b6000602082840312156124f057600080fd5b611382826123d5565b6020808252600090606083018382018584805b600281101561256157878503601f19018452825180518087529087019087870190845b8181101561254b5783518352928901929189019160010161252f565b509096505050928501929185019160010161250c565b5092979650505050505050565b60008060008060006080868803121561258657600080fd5b85359450612596602087016123d5565b9350604086013567ffffffffffffffff8111156125b257600080fd5b6125be888289016123ea565b96999598509660600135949350505050565b6020808252601f908201527f4d616e676f496d706c656d656e746174696f6e2f696e76616c696443616c6c00604082015260600190565b60006020828403121561261957600080fd5b81356001600160a01b038116811461138257600080fd5b634e487b7160e01b600052601160045260246000fd5b60008282101561265857612658612630565b500390565b6000821982111561267057612670612630565b500190565b634e487b7160e01b600052603260045260246000fd5b6000808335601e198436030181126126a257600080fd5b83018035915067ffffffffffffffff8211156126bd57600080fd5b6020019150600581901b360382131561242f57600080fd5b6001600160a01b0394851681529290931660208301526040820152901515606082015260800190565b60006020828403121561271057600080fd5b5051919050565b60006001820161272957612729612630565b5060010190565b634e487b7160e01b600052604160045260246000fd5b6001600160a01b039384168152919092166020820152604081019190915260600190565b6000600160ff1b820161277f5761277f612630565b5060000390565b60008083128015600160ff1b8501841216156127a4576127a4612630565b6001600160ff1b03840183138116156127bf576127bf612630565b50500390565b600080821280156001600160ff1b03849003851316156127e7576127e7612630565b600160ff1b839003841281161561280057612800612630565b50500190565b600081600019048311821515161561282057612820612630565b500290565b634e487b7160e01b600052601260045260246000fd5b60008261284a5761284a612825565b500490565b60008261285e5761285e612825565b500690565b60008261287257612872612825565b500790565b6001600160a01b03978816815295909616602086015260408501939093526060840191909152608083015260a082015260c081019190915260e00190565b6001600160a01b03988916815296909716602087015260408601949094526060850192909252608084015260a083015260c082015260e08101919091526101000190565b60006001600160ff1b038184138284138082168684048611161561291f5761291f612630565b600160ff1b600087128281168783058912161561293e5761293e612630565b6000871292508782058712848416161561295a5761295a612630565b8785058712818416161561297057612970612630565b50505092909302939250505056fe416b48c48a967c2245e6ba6bc6efa281932950b502fea671117e4dfd7d3dfb81a26469706673582212204805650d72dd5d373acfe22a70c407af43e35403f616d987c257084ef74b618b64736f6c634300080e0033416363657373436f6e74726f6c6c65642f496e76616c69640000000000000000",
    "linkReferences": {}
  },
  "methodIdentifiers": {
    "BASE()": "ec342ad0",
    "MGV()": "99fa5e2d",
    "NSLOTS()": "d4a1da08",
    "QUOTE()": "9c579839",
    "_staticdelegatecall(bytes)": "5a3e9618",
    "activate(address[])": "5293840d",
    "admin()": "f851a440",
    "approveMangrove(address)": "9f2211cb",
    "approveRouter(address)": "f259cd27",
    "checkList(address[])": "03eb17e2",
    "delta()": "12b495a8",
    "getMissingProvision(address,address,uint256,uint256,uint256)": "e4c34f84",
    "get_offers(bool)": "1efa880b",
    "has_router()": "84b627f9",
    "initialize(bool,uint256,uint256,uint256,uint256[][2],uint256[])": "553e9f32",
    "is_paused()": "9d4f8aa9",
    "makerExecute((address,address,uint256,uint256,uint256,uint256,uint256,uint256,uint256))": "6c49c32c",
    "makerPosthook((address,address,uint256,uint256,uint256,uint256,uint256,uint256,uint256),(bytes32,bytes32))": "3d3d130d",
    "newOffer((address,address,uint256,uint256,uint256,uint256,uint256,uint256))": "5486c95f",
    "ofr_gasreq()": "d1baa1ef",
    "pause()": "8456cb59",
    "pending()": "e20ccec3",
    "reserve()": "cd3293de",
    "reset_pending()": "d5c39721",
    "restart()": "1ef3755d",
    "retractOffer(address,address,uint256,bool)": "ad97db1b",
    "retractOffers(uint256,uint256,uint256)": "ccbbcfc2",
    "router()": "f887ea40",
    "set_admin(address)": "e9333fab",
    "set_delta(uint256)": "c5dbec38",
    "set_gasreq(uint256)": "fc488a38",
    "set_min_offer_type(uint256)": "9d4ddea2",
    "set_reserve(address)": "3d77fcde",
    "set_router(address)": "db11851e",
    "set_shift(int256,bool,uint256[])": "81550267",
    "shift()": "12fc41ca",
    "tokenBalance(address)": "eedc966a",
    "updateOffer((address,address,uint256,uint256,uint256,uint256,uint256,uint256))": "10aded60",
    "withdrawFromMangrove(uint256,address)": "7144df24",
    "withdrawToken(address,address,uint256)": "01e33667"
  },
  "id": 60
}