{
  "abi": [
    {
      "inputs": [
        {
          "internalType": "contract IMangrove",
          "name": "_MGV",
          "type": "address"
        },
        {
          "internalType": "address",
          "name": "deployer",
          "type": "address"
        }
      ],
      "stateMutability": "nonpayable",
      "type": "constructor"
    },
    {
      "anonymous": false,
      "inputs": [
        {
          "indexed": true,
          "internalType": "contract IMangrove",
          "name": "mangrove",
          "type": "address"
        },
        {
          "indexed": true,
          "internalType": "address",
          "name": "user",
          "type": "address"
        },
        {
          "indexed": false,
          "internalType": "uint256",
          "name": "amount",
          "type": "uint256"
        }
      ],
      "name": "CreditMgvUser",
      "type": "event"
    },
    {
      "anonymous": false,
      "inputs": [
        {
          "indexed": true,
          "internalType": "contract IMangrove",
          "name": "mangrove",
          "type": "address"
        },
        {
          "indexed": true,
          "internalType": "address",
          "name": "user",
          "type": "address"
        },
        {
          "indexed": false,
          "internalType": "uint256",
          "name": "amount",
          "type": "uint256"
        }
      ],
      "name": "DebitMgvUser",
      "type": "event"
    },
    {
      "anonymous": false,
      "inputs": [
        {
          "indexed": false,
          "internalType": "contract IMangrove",
          "name": "mangrove",
          "type": "address"
        },
        {
          "indexed": true,
          "internalType": "contract IERC20",
          "name": "outbound_tkn",
          "type": "address"
        },
        {
          "indexed": true,
          "internalType": "contract IERC20",
          "name": "inbound_tkn",
          "type": "address"
        },
        {
          "indexed": true,
          "internalType": "uint256",
          "name": "offerId",
          "type": "uint256"
        },
        {
          "indexed": false,
          "internalType": "bytes32",
          "name": "reason",
          "type": "bytes32"
        }
      ],
      "name": "LogIncident",
      "type": "event"
    },
    {
      "anonymous": false,
      "inputs": [
        {
          "indexed": false,
          "internalType": "contract IMangrove",
          "name": "mangrove",
          "type": "address"
        },
        {
          "indexed": true,
          "internalType": "contract IERC20",
          "name": "outbound_tkn",
          "type": "address"
        },
        {
          "indexed": true,
          "internalType": "contract IERC20",
          "name": "inbound_tkn",
          "type": "address"
        },
        {
          "indexed": true,
          "internalType": "uint256",
          "name": "offerId",
          "type": "uint256"
        },
        {
          "indexed": false,
          "internalType": "address",
          "name": "owner",
          "type": "address"
        }
      ],
      "name": "NewOwnedOffer",
      "type": "event"
    },
    {
      "anonymous": false,
      "inputs": [
        {
          "indexed": false,
          "internalType": "contract IMangrove",
          "name": "mangrove",
          "type": "address"
        },
        {
          "indexed": true,
          "internalType": "contract IERC20",
          "name": "base",
          "type": "address"
        },
        {
          "indexed": true,
          "internalType": "contract IERC20",
          "name": "quote",
          "type": "address"
        },
        {
          "indexed": true,
          "internalType": "address",
          "name": "taker",
          "type": "address"
        },
        {
          "indexed": false,
          "internalType": "bool",
          "name": "selling",
          "type": "bool"
        },
        {
          "indexed": false,
          "internalType": "uint256",
          "name": "takerGot",
          "type": "uint256"
        },
        {
          "indexed": false,
          "internalType": "uint256",
          "name": "takerGave",
          "type": "uint256"
        },
        {
          "indexed": false,
          "internalType": "uint256",
          "name": "penalty",
          "type": "uint256"
        },
        {
          "indexed": false,
          "internalType": "uint256",
          "name": "restingOrderId",
          "type": "uint256"
        }
      ],
      "name": "OrderSummary",
      "type": "event"
    },
    {
      "anonymous": false,
      "inputs": [
        {
          "indexed": false,
          "internalType": "uint256",
          "name": "",
          "type": "uint256"
        }
      ],
      "name": "SetGasreq",
      "type": "event"
    },
    {
      "anonymous": false,
      "inputs": [
        {
          "indexed": false,
          "internalType": "contract AbstractRouter",
          "name": "",
          "type": "address"
        }
      ],
      "name": "SetRouter",
      "type": "event"
    },
    {
      "inputs": [],
      "name": "MGV",
      "outputs": [
        {
          "internalType": "contract IMangrove",
          "name": "",
          "type": "address"
        }
      ],
      "stateMutability": "view",
      "type": "function"
    },
    {
      "inputs": [],
      "name": "admin",
      "outputs": [
        {
          "internalType": "address",
          "name": "",
          "type": "address"
        }
      ],
      "stateMutability": "view",
      "type": "function"
    },
    {
      "inputs": [
        {
          "internalType": "contract IERC20",
          "name": "outbound_tkn",
          "type": "address"
        },
        {
          "internalType": "uint256",
          "name": "amount",
          "type": "uint256"
        }
      ],
      "name": "approveMangrove",
      "outputs": [],
      "stateMutability": "nonpayable",
      "type": "function"
    },
    {
      "inputs": [
        {
          "internalType": "contract IERC20",
          "name": "token",
          "type": "address"
        }
      ],
      "name": "approveRouter",
      "outputs": [],
      "stateMutability": "nonpayable",
      "type": "function"
    },
    {
      "inputs": [
        {
          "internalType": "contract IERC20",
          "name": "",
          "type": "address"
        },
        {
          "internalType": "contract IERC20",
          "name": "",
          "type": "address"
        },
        {
          "internalType": "uint256",
          "name": "",
          "type": "uint256"
        }
      ],
      "name": "expiring",
      "outputs": [
        {
          "internalType": "uint256",
          "name": "",
          "type": "uint256"
        }
      ],
      "stateMutability": "view",
      "type": "function"
    },
    {
      "inputs": [
        {
          "internalType": "contract IERC20",
          "name": "outbound_tkn",
          "type": "address"
        },
        {
          "internalType": "contract IERC20",
          "name": "inbound_tkn",
          "type": "address"
        },
        {
          "internalType": "uint256",
          "name": "gasreq",
          "type": "uint256"
        },
        {
          "internalType": "uint256",
          "name": "gasprice",
          "type": "uint256"
        },
        {
          "internalType": "uint256",
          "name": "offerId",
          "type": "uint256"
        }
      ],
      "name": "getMissingProvision",
      "outputs": [
        {
          "internalType": "uint256",
          "name": "",
          "type": "uint256"
        }
      ],
      "stateMutability": "view",
      "type": "function"
    },
    {
      "inputs": [],
      "name": "has_router",
      "outputs": [
        {
          "internalType": "bool",
          "name": "",
          "type": "bool"
        }
      ],
      "stateMutability": "view",
      "type": "function"
    },
    {
      "inputs": [
        {
          "components": [
            {
              "internalType": "address",
              "name": "outbound_tkn",
              "type": "address"
            },
            {
              "internalType": "address",
              "name": "inbound_tkn",
              "type": "address"
            },
            {
              "internalType": "uint256",
              "name": "offerId",
              "type": "uint256"
            },
            {
              "internalType": "t",
              "name": "offer",
              "type": "uint256"
            },
            {
              "internalType": "uint256",
              "name": "wants",
              "type": "uint256"
            },
            {
              "internalType": "uint256",
              "name": "gives",
              "type": "uint256"
            },
            {
              "internalType": "t",
              "name": "offerDetail",
              "type": "uint256"
            },
            {
              "internalType": "t",
              "name": "global",
              "type": "uint256"
            },
            {
              "internalType": "t",
              "name": "local",
              "type": "uint256"
            }
          ],
          "internalType": "struct MgvLib.SingleOrder",
          "name": "order",
          "type": "tuple"
        }
      ],
      "name": "makerExecute",
      "outputs": [
        {
          "internalType": "bytes32",
          "name": "ret",
          "type": "bytes32"
        }
      ],
      "stateMutability": "nonpayable",
      "type": "function"
    },
    {
      "inputs": [
        {
          "components": [
            {
              "internalType": "address",
              "name": "outbound_tkn",
              "type": "address"
            },
            {
              "internalType": "address",
              "name": "inbound_tkn",
              "type": "address"
            },
            {
              "internalType": "uint256",
              "name": "offerId",
              "type": "uint256"
            },
            {
              "internalType": "t",
              "name": "offer",
              "type": "uint256"
            },
            {
              "internalType": "uint256",
              "name": "wants",
              "type": "uint256"
            },
            {
              "internalType": "uint256",
              "name": "gives",
              "type": "uint256"
            },
            {
              "internalType": "t",
              "name": "offerDetail",
              "type": "uint256"
            },
            {
              "internalType": "t",
              "name": "global",
              "type": "uint256"
            },
            {
              "internalType": "t",
              "name": "local",
              "type": "uint256"
            }
          ],
          "internalType": "struct MgvLib.SingleOrder",
          "name": "order",
          "type": "tuple"
        },
        {
          "components": [
            {
              "internalType": "bytes32",
              "name": "makerData",
              "type": "bytes32"
            },
            {
              "internalType": "bytes32",
              "name": "mgvData",
              "type": "bytes32"
            }
          ],
          "internalType": "struct MgvLib.OrderResult",
          "name": "result",
          "type": "tuple"
        }
      ],
      "name": "makerPosthook",
      "outputs": [],
      "stateMutability": "nonpayable",
      "type": "function"
    },
    {
      "inputs": [
        {
          "components": [
            {
              "internalType": "contract IERC20",
              "name": "outbound_tkn",
              "type": "address"
            },
            {
              "internalType": "contract IERC20",
              "name": "inbound_tkn",
              "type": "address"
            },
            {
              "internalType": "uint256",
              "name": "wants",
              "type": "uint256"
            },
            {
              "internalType": "uint256",
              "name": "gives",
              "type": "uint256"
            },
            {
              "internalType": "uint256",
              "name": "gasreq",
              "type": "uint256"
            },
            {
              "internalType": "uint256",
              "name": "gasprice",
              "type": "uint256"
            },
            {
              "internalType": "uint256",
              "name": "pivotId",
              "type": "uint256"
            },
            {
              "internalType": "uint256",
              "name": "offerId",
              "type": "uint256"
            }
          ],
          "internalType": "struct IOfferLogic.MakerOrder",
          "name": "mko",
          "type": "tuple"
        }
      ],
      "name": "newOffer",
      "outputs": [
        {
          "internalType": "uint256",
          "name": "offerId",
          "type": "uint256"
        }
      ],
      "stateMutability": "payable",
      "type": "function"
    },
    {
      "inputs": [
        {
          "internalType": "contract IERC20",
          "name": "outbound_tkn",
          "type": "address"
        },
        {
          "internalType": "contract IERC20",
          "name": "inbound_tkn",
          "type": "address"
        },
        {
          "internalType": "uint256[]",
          "name": "offerIds",
          "type": "uint256[]"
        }
      ],
      "name": "offerOwners",
      "outputs": [
        {
          "internalType": "address[]",
          "name": "_offerOwners",
          "type": "address[]"
        }
      ],
      "stateMutability": "view",
      "type": "function"
    },
    {
      "inputs": [],
      "name": "ofr_gasreq",
      "outputs": [
        {
          "internalType": "uint256",
          "name": "",
          "type": "uint256"
        }
      ],
      "stateMutability": "view",
      "type": "function"
    },
    {
      "inputs": [
        {
          "internalType": "contract IERC20",
          "name": "outbound_tkn",
          "type": "address"
        },
        {
          "internalType": "contract IERC20",
          "name": "inbound_tkn",
          "type": "address"
        },
        {
          "internalType": "uint256",
          "name": "offerId",
          "type": "uint256"
        }
      ],
      "name": "ownerOf",
      "outputs": [
        {
          "internalType": "address",
          "name": "owner",
          "type": "address"
        }
      ],
      "stateMutability": "view",
      "type": "function"
    },
    {
      "inputs": [
        {
          "internalType": "contract IERC20",
          "name": "outbound_tkn",
          "type": "address"
        },
        {
          "internalType": "contract IERC20",
          "name": "inbound_tkn",
          "type": "address"
        },
        {
          "internalType": "uint256",
          "name": "offerId",
          "type": "uint256"
        },
        {
          "internalType": "bool",
          "name": "deprovision",
          "type": "bool"
        }
      ],
      "name": "retractOffer",
      "outputs": [
        {
          "internalType": "uint256",
          "name": "free_wei",
          "type": "uint256"
        }
      ],
      "stateMutability": "nonpayable",
      "type": "function"
    },
    {
      "inputs": [],
      "name": "router",
      "outputs": [
        {
          "internalType": "contract AbstractRouter",
          "name": "",
          "type": "address"
        }
      ],
      "stateMutability": "view",
      "type": "function"
    },
    {
      "inputs": [
        {
          "internalType": "address",
          "name": "_admin",
          "type": "address"
        }
      ],
      "name": "setAdmin",
      "outputs": [],
      "stateMutability": "nonpayable",
      "type": "function"
    },
    {
      "inputs": [
        {
          "internalType": "uint256",
          "name": "gasreq",
          "type": "uint256"
        }
      ],
      "name": "set_gasreq",
      "outputs": [],
      "stateMutability": "nonpayable",
      "type": "function"
    },
    {
      "inputs": [
        {
          "internalType": "contract AbstractRouter",
          "name": "router_",
          "type": "address"
        }
      ],
      "name": "set_router",
      "outputs": [],
      "stateMutability": "nonpayable",
      "type": "function"
    },
    {
      "inputs": [
        {
          "components": [
            {
              "internalType": "contract IERC20",
              "name": "base",
              "type": "address"
            },
            {
              "internalType": "contract IERC20",
              "name": "quote",
              "type": "address"
            },
            {
              "internalType": "bool",
              "name": "partialFillNotAllowed",
              "type": "bool"
            },
            {
              "internalType": "bool",
              "name": "selling",
              "type": "bool"
            },
            {
              "internalType": "uint256",
              "name": "wants",
              "type": "uint256"
            },
            {
              "internalType": "uint256",
              "name": "makerWants",
              "type": "uint256"
            },
            {
              "internalType": "uint256",
              "name": "gives",
              "type": "uint256"
            },
            {
              "internalType": "uint256",
              "name": "makerGives",
              "type": "uint256"
            },
            {
              "internalType": "bool",
              "name": "restingOrder",
              "type": "bool"
            },
            {
              "internalType": "uint256",
              "name": "retryNumber",
              "type": "uint256"
            },
            {
              "internalType": "uint256",
              "name": "gasForMarketOrder",
              "type": "uint256"
            },
            {
              "internalType": "uint256",
              "name": "blocksToLiveForRestingOrder",
              "type": "uint256"
            }
          ],
          "internalType": "struct IOrderLogic.TakerOrder",
          "name": "tko",
          "type": "tuple"
        }
      ],
      "name": "take",
      "outputs": [
        {
          "components": [
            {
              "internalType": "uint256",
              "name": "takerGot",
              "type": "uint256"
            },
            {
              "internalType": "uint256",
              "name": "takerGave",
              "type": "uint256"
            },
            {
              "internalType": "uint256",
              "name": "bounty",
              "type": "uint256"
            },
            {
              "internalType": "uint256",
              "name": "fee",
              "type": "uint256"
            },
            {
              "internalType": "uint256",
              "name": "offerId",
              "type": "uint256"
            }
          ],
          "internalType": "struct IOrderLogic.TakerOrderResult",
          "name": "res",
          "type": "tuple"
        }
      ],
      "stateMutability": "payable",
      "type": "function"
    },
    {
      "inputs": [
        {
          "internalType": "contract IERC20",
          "name": "token",
          "type": "address"
        }
      ],
      "name": "tokenBalance",
      "outputs": [
        {
          "internalType": "uint256",
          "name": "",
          "type": "uint256"
        }
      ],
      "stateMutability": "view",
      "type": "function"
    },
    {
      "inputs": [
        {
          "components": [
            {
              "internalType": "contract IERC20",
              "name": "outbound_tkn",
              "type": "address"
            },
            {
              "internalType": "contract IERC20",
              "name": "inbound_tkn",
              "type": "address"
            },
            {
              "internalType": "uint256",
              "name": "wants",
              "type": "uint256"
            },
            {
              "internalType": "uint256",
              "name": "gives",
              "type": "uint256"
            },
            {
              "internalType": "uint256",
              "name": "gasreq",
              "type": "uint256"
            },
            {
              "internalType": "uint256",
              "name": "gasprice",
              "type": "uint256"
            },
            {
              "internalType": "uint256",
              "name": "pivotId",
              "type": "uint256"
            },
            {
              "internalType": "uint256",
              "name": "offerId",
              "type": "uint256"
            }
          ],
          "internalType": "struct IOfferLogic.MakerOrder",
          "name": "mko",
          "type": "tuple"
        }
      ],
      "name": "updateOffer",
      "outputs": [],
      "stateMutability": "payable",
      "type": "function"
    },
    {
      "inputs": [
        {
          "internalType": "uint256",
          "name": "amount",
          "type": "uint256"
        },
        {
          "internalType": "address",
          "name": "receiver",
          "type": "address"
        }
      ],
      "name": "withdrawFromMangrove",
      "outputs": [],
      "stateMutability": "nonpayable",
      "type": "function"
    },
    {
      "inputs": [
        {
          "internalType": "contract IERC20",
          "name": "token",
          "type": "address"
        },
        {
          "internalType": "address",
          "name": "receiver",
          "type": "address"
        },
        {
          "internalType": "uint256",
          "name": "amount",
          "type": "uint256"
        }
      ],
      "name": "withdrawToken",
      "outputs": [
        {
          "internalType": "bool",
          "name": "success",
          "type": "bool"
        }
      ],
      "stateMutability": "nonpayable",
      "type": "function"
    },
    {
      "stateMutability": "payable",
      "type": "receive"
    }
  ],
  "bytecode": {
    "object": "0x60a06040523480156200001157600080fd5b50604051620051ef380380620051ef83398101604081905262000034916200060e565b816040516200004390620005e7565b604051809103906000f08015801562000060573d6000803e3d6000fd5b5062015f9082828282813380620000be5760405162461bcd60e51b815260206004820152601860248201527f616363657373436f6e74726f6c6c65642f307841646d696e000000000000000060448201526064015b60405180910390fd5b80620000d46200026560201b620024a11760201c565b80546001600160a01b0319166001600160a01b03929092169190911790555062ffffff81168114620001495760405162461bcd60e51b815260206004820152601b60248201527f4d616e67726f76654f666665722f676173726571546f6f4869676800000000006044820152606401620000b5565b6001600160a01b038216608052806200016d62000289602090811b620024c517901c565b5550506001600160a01b038216620001bd5760405162461bcd60e51b815260206004820152601260248201527126bab63a34aab9b2b917983c2937baba32b960711b6044820152606401620000b5565b620001c882620002ad565b505050505050336001600160a01b0316816001600160a01b0316146200025d57620001f38162000457565b620001fd62000552565b604051633825b60160e11b81526001600160a01b038381166004830152919091169063704b6c0290602401600060405180830381600087803b1580156200024357600080fd5b505af115801562000258573d6000803e3d6000fd5b505050505b50506200064d565b7f7d382ebca3e46505071795e192d28166a3d4bd0685585591bc6c5b8df6769fd290565b7fae7e31c3220e851db9f204a28b279dfe52b973600b0a456991089c220ae7222490565b620002b7620005c1565b6001600160a01b0316336001600160a01b03161480620002ea57506080516001600160a01b0316336001600160a01b0316145b620003385760405162461bcd60e51b815260206004820152601860248201527f416363657373436f6e74726f6c6c65642f496e76616c696400000000000000006044820152606401620000b5565b6001600160a01b038116620003905760405162461bcd60e51b815260206004820152601c60248201527f6d67764f666665722f7365745f726f757465722f3078526f75746572000000006044820152606401620000b5565b80620003a66200028960201b620024c51760201c565b60010180546001600160a01b0319166001600160a01b039283161790556040516381bac14f60e01b8152306004820152908216906381bac14f90602401600060405180830381600087803b158015620003fe57600080fd5b505af115801562000413573d6000803e3d6000fd5b50506040516001600160a01b03841681527f6de4326a8b9054d72d9dbab97d27bc4edffadee7d966f5af9cc4eafdaf8e54559250602001905060405180910390a150565b62000461620005c1565b6001600160a01b0316336001600160a01b031614620004c35760405162461bcd60e51b815260206004820152601860248201527f416363657373436f6e74726f6c6c65642f496e76616c696400000000000000006044820152606401620000b5565b6001600160a01b0381166200051b5760405162461bcd60e51b815260206004820152601860248201527f416363657373436f6e74726f6c6c65642f307841646d696e00000000000000006044820152606401620000b5565b80620005316200026560201b620024a11760201c565b80546001600160a01b0319166001600160a01b039290921691909117905550565b6000806200056a6200028960201b620024c51760201c565b600101546001600160a01b0316905080620005bc5760405162461bcd60e51b815260206004820152601160248201527036b3bb27b33332b917983c2937baba32b960791b6044820152606401620000b5565b919050565b6000620005d86200026560201b620024a11760201c565b546001600160a01b0316919050565b610e2580620043ca83390190565b6001600160a01b03811681146200060b57600080fd5b50565b600080604083850312156200062257600080fd5b82516200062f81620005f5565b60208401519092506200064281620005f5565b809150509250929050565b608051613c9662000734600039600081816102f501528181610601015281816106bf015281816108f201528181610c5c015281816110fe01528181611184015281816113d20152818161142e015281816114c00152818161174a01528181611805015281816118aa01528181611a6d01528181611ac201528181611c5501528181611e6101528181611efe0152818161205e015281816121a9015281816123d50152818161257f015281816126080152818161269a0152818161293401528181612b0601528181612c4501528181612e6e01528181612f8701526135e20152613c966000f3fe6080604052600436106101445760003560e01c8063ad97db1b116100b6578063eedc966a1161006f578063eedc966a146103f1578063f259cd2714610411578063f851a44014610431578063f887ea4014610446578063f92495e51461045b578063fc488a381461047b57600080fd5b8063ad97db1b1461032f578063aefe84031461034f578063d1baa1ef1461036f578063db11851e14610384578063dec8c86b146103a4578063e4c34f84146103d157600080fd5b80636a1c7d05116101085780636a1c7d05146102195780636c49c32c1461026e578063704b6c021461028e5780637144df24146102ae57806384b627f9146102ce57806399fa5e2d146102e357600080fd5b806301e336671461015057806310aded60146101855780633d3d130d1461019a5780634e7effa8146101ba5780635486c95f1461020657600080fd5b3661014b57005b600080fd5b34801561015c57600080fd5b5061017061016b366004613689565b61049b565b60405190151581526020015b60405180910390f35b6101986101933660046136ca565b610598565b005b3480156101a657600080fd5b506101986101b53660046136f0565b6105ff565b3480156101c657600080fd5b506101f86101d5366004613689565b600160209081526000938452604080852082529284528284209052825290205481565b60405190815260200161017c565b6101f86102143660046136ca565b610728565b61022c610227366004613733565b610749565b60405161017c9190600060a082019050825182526020830151602083015260408301516040830152606083015160608301526080830151608083015292915050565b34801561027a57600080fd5b506101f8610289366004613746565b611180565b34801561029a57600080fd5b506101986102a9366004613763565b6112ed565b3480156102ba57600080fd5b506101986102c9366004613780565b6113a5565b3480156102da57600080fd5b506101706116cc565b3480156102ef57600080fd5b506103177f000000000000000000000000000000000000000000000000000000000000000081565b6040516001600160a01b03909116815260200161017c565b34801561033b57600080fd5b506101f861034a3660046137be565b6116eb565b34801561035b57600080fd5b5061019861036a366004613811565b611a40565b34801561037b57600080fd5b506101f8611b8a565b34801561039057600080fd5b5061019861039f366004613763565b611c28565b3480156103b057600080fd5b506103c46103bf36600461383d565b611da2565b60405161017c91906138d2565b3480156103dd57600080fd5b506101f86103ec36600461391f565b611e53565b3480156103fd57600080fd5b506101f861040c366004613763565b612100565b34801561041d57600080fd5b5061019861042c366004613763565b61217c565b34801561043d57600080fd5b506103176122bc565b34801561045257600080fd5b506103176122d5565b34801561046757600080fd5b50610317610476366004613689565b612335565b34801561048757600080fd5b50610198610496366004613970565b6123a8565b60006001600160a01b0383166105035760405162461bcd60e51b815260206004820152602260248201527f4d756c7469557365722f7769746864726177546f6b656e2f307852656365697660448201526132b960f11b60648201526084015b60405180910390fd5b61050b6122d5565b6040516310baa6cf60e11b81526001600160a01b03868116600483015233602483015285811660448301526064820185905291909116906321754d9e906084016020604051808303816000875af115801561056a573d6000803e3d6000fd5b505050506040513d601f19601f8201168201806040525081019061058e9190613989565b90505b9392505050565b6105b06105aa368390038301836139bc565b346124e9565b6105fc5760405162461bcd60e51b815260206004820152601960248201527f4d756c7469557365722f7570646174654f666665724661696c0000000000000060448201526064016104fa565b50565b7f00000000000000000000000000000000000000000000000000000000000000006001600160a01b038116158061063e5750336001600160a01b038216145b61065a5760405162461bcd60e51b81526004016104fa90613a68565b81602001356f6d67762f74726164655375636365737360801b036106875761068183612a37565b50505050565b6040830180359061069b9060208601613763565b6001600160a01b03166106b16020860186613763565b604080516001600160a01b037f0000000000000000000000000000000000000000000000000000000000000000811682528735602083015292909216917f736a3993b9f8b1c5603896c76376792887f376b1fe7fc981e09a16530bf1e4e0910160405180910390a46106818383612a75565b505050565b600061074361073c368490038401846139bc565b3334612e39565b92915050565b61077b6040518060a0016040528060008152602001600081526020016000815260200160008152602001600081525090565b60008061078e6080850160608601613a9f565b6107b45761079f6020850185613763565b6107af6040860160208701613763565b6107d1565b6107c46040850160208601613763565b6107d16020860186613763565b9150915060006107df6122d5565b6001600160a01b031663333dbb0d83338860c0013560016040518563ffffffff1660e01b81526004016108159493929190613abc565b6020604051808303816000875af1158015610834573d6000803e3d6000fd5b505050506040513d601f19601f820116820180604052508101906108589190613ae5565b90508460c0013581146108ad5760405162461bcd60e51b815260206004820152601a60248201527f6d67764f726465722f6d6f2f7472616e73666572496e4661696c00000000000060448201526064016104fa565b60005b6108c06101208701356001613b14565b811015610a5e57610140860135158015906108df57508561014001355a105b610a5e5760008080806001600160a01b037f00000000000000000000000000000000000000000000000000000000000000001663fbffe5fd89898d608001358e60c001358f60600160208101906109369190613a9f565b610941576001610944565b60005b6040516001600160e01b031960e088901b1681526001600160a01b039586166004820152949093166024850152604484019190915260648301521515608482015260a4016080604051808303816000875af11580156109a7573d6000803e3d6000fd5b505050506040513d601f19601f820116820180604052508101906109cb9190613b2c565b935093509350935083896000018181516109e59190613b14565b9052506020890180518491906109fc908390613b14565b905250604089018051839190610a13908390613b14565b905250606089018051829190610a2a908390613b14565b90525083158015610a39575081155b15610a475750505050610a5e565b505050508080610a5690613b62565b9150506108b0565b506000610a6b86866130a3565b9050610a7d6060870160408801613a9f565b1580610a865750805b80610a9e5750610a9e61012087016101008801613a9f565b610ae65760405162461bcd60e51b81526020600482015260196024820152781b59dd93dc99195c8bdb5bcbdb9bd4185c9d1a585b119a5b1b603a1b60448201526064016104fa565b845115610b5a57610af56122d5565b855160405163137476d160e11b81526001600160a01b0392909216916326e8eda291610b279188913391600401613b7b565b600060405180830381600087803b158015610b4157600080fd5b505af1158015610b55573d6000803e3d6000fd5b505050505b610b6c61012087016101008801613a9f565b8015610b76575080155b15610f4c5760408051610100810182526001600160a01b0380861682528616602082015260608701518751610c0493830191610bb191613b14565b610bbf9060a08b0135613b9f565b815260200187602001518960e00135610bd89190613b9f565b8152602001610be5611b8a565b8152602001600081526020016000815260200160008152503334612e39565b608086015233610c1a6040880160208901613763565b6001600160a01b0316610c306020890189613763565b6001600160a01b03167f587734843819064f2153f96c808d1aeacaceccfa595ec4b9ed484c4bff687f7c7f0000000000000000000000000000000000000000000000000000000000000000610c8b60808c0160608d01613a9f565b8a5160208c01516040808e015160808f01519151610cdb9695949392906001600160a01b03969096168652931515602086015260408501929092526060840152608083015260a082015260c00190565b60405180910390a48460800151600003610e7b57610cff6060870160408801613a9f565b15610d485760405162461bcd60e51b81526020600482015260196024820152781b59dd93dc99195c8bdb5bcbdb9bd4185c9d1a585b119a5b1b603a1b60448201526064016104fa565b610d66833387602001518960c00135610d619190613b9f565b6130ec565b610db25760405162461bcd60e51b815260206004820152601a60248201527f6d67764f726465722f6d6f2f7472616e73666572496e4661696c00000000000060448201526064016104fa565b6000856040015134610dc49190613b14565b1115610e725760408501516000903390610dde9034613b14565b604051600081818185875af1925050503d8060008114610e1a576040519150601f19603f3d011682016040523d82523d6000602084013e610e1f565b606091505b5050905080610e705760405162461bcd60e51b815260206004820152601f60248201527f6d67764f726465722f6d6f2f726566756e6450726f766973696f6e4661696c0060448201526064016104fa565b505b50505050919050565b610e836122d5565b6001600160a01b03166326e8eda2843388602001518a60c00135610ea79190613b9f565b6040518463ffffffff1660e01b8152600401610ec593929190613b7b565b600060405180830381600087803b158015610edf57600080fd5b505af1158015610ef3573d6000803e3d6000fd5b5050505061016086013515610e7257610f1161016087013543613b14565b6001600160a01b038085166000908152600160209081526040808320938916835292815282822060808a015183529052205550505050919050565b610f546122d5565b6001600160a01b03166326e8eda2843388602001518a60c00135610f789190613b9f565b6040518463ffffffff1660e01b8152600401610f9693929190613b7b565b600060405180830381600087803b158015610fb057600080fd5b505af1158015610fc4573d6000803e3d6000fd5b505050506000856040015134610fda9190613b14565b11156110ab57610fe86122d5565b6001600160a01b031663d7c153a88660400151346110069190613b14565b6040516001600160e01b031960e084901b16815233600482015260240160206040518083038185885af1158015611041573d6000803e3d6000fd5b50505050506040513d601f19601f820116820180604052508101906110669190613989565b6110ab5760405162461bcd60e51b81526020600482015260166024820152751b59dd93dc99195c8bdb5bcbdc99599d5b9911985a5b60521b60448201526064016104fa565b336110bc6040880160208901613763565b6001600160a01b03166110d26020890189613763565b6001600160a01b03167f587734843819064f2153f96c808d1aeacaceccfa595ec4b9ed484c4bff687f7c7f000000000000000000000000000000000000000000000000000000000000000061112d60808c0160608d01613a9f565b8a516020808d01516040808f015181516001600160a01b039097168752941515928601929092529084019190915260608301526080820152600060a082015260c00160405180910390a450505050919050565b60007f00000000000000000000000000000000000000000000000000000000000000006001600160a01b03811615806111c15750336001600160a01b038216145b6111dd5760405162461bcd60e51b81526004016104fa90613a68565b6111e6836131e2565b61122b5760405162461bcd60e51b81526020600482015260166024820152751b59dd93d999995c8bd8589bdc9d0bdc995b9959d95960521b60448201526064016104fa565b600061123b8460a0013585613267565b11156112895760405162461bcd60e51b815260206004820152601860248201527f6d67764f666665722f61626f72742f7075744661696c6564000000000000000060448201526064016104fa565b6000611299846080013585613315565b11156112e75760405162461bcd60e51b815260206004820152601860248201527f6d67764f666665722f61626f72742f6765744661696c6564000000000000000060448201526064016104fa565b50919050565b6112f56122bc565b6001600160a01b0316336001600160a01b0316146113255760405162461bcd60e51b81526004016104fa90613a68565b6001600160a01b03811661137b5760405162461bcd60e51b815260206004820152601860248201527f416363657373436f6e74726f6c6c65642f307841646d696e000000000000000060448201526064016104fa565b806113846124a1565b80546001600160a01b0319166001600160a01b039290921691909117905550565b6113ad6122bc565b6001600160a01b0316336001600160a01b031614806113f45750336001600160a01b037f000000000000000000000000000000000000000000000000000000000000000016145b6114105760405162461bcd60e51b81526004016104fa90613a68565b60001982036114aa576040516370a0823160e01b81523060048201527f00000000000000000000000000000000000000000000000000000000000000006001600160a01b0316906370a0823190602401602060405180830381865afa15801561147d573d6000803e3d6000fd5b505050506040513d601f19601f820116820180604052508101906114a19190613ae5565b915081156116c8575b604051632e1a7d4d60e01b8152600481018390527f00000000000000000000000000000000000000000000000000000000000000006001600160a01b031690632e1a7d4d906024016020604051808303816000875af1158015611511573d6000803e3d6000fd5b505050506040513d601f19601f820116820180604052508101906115359190613989565b61158f5760405162461bcd60e51b815260206004820152602560248201527f6d67764f666665722f776974686472617746726f6d4d67762f776974686472616044820152641dd1985a5b60da1b60648201526084016104fa565b6115976116cc565b15611614576115a46122d5565b604051631af82a7560e31b81526001600160a01b038381166004830152919091169063d7c153a890849060240160206040518083038185885af11580156115ef573d6000803e3d6000fd5b50505050506040513d601f19601f820116820180604052508101906107239190613989565b6000816001600160a01b03168360405160006040518083038185875af1925050503d8060008114611661576040519150601f19603f3d011682016040523d82523d6000602084013e611666565b606091505b50509050806107235760405162461bcd60e51b815260206004820152602860248201527f6d67764f666665722f776974686472617746726f6d4d67762f70617961626c6560448201526710d85b1b11985a5b60c21b60648201526084016104fa565b5050565b6000806116d76124c5565b600101546001600160a01b03161415919050565b6001600160a01b03848116600090815260208181526040808320878516845282528083208684528252808320815180830190925254938416808252600160a01b9094046001600160601b031691810191909152909133148061177557507f00000000000000000000000000000000000000000000000000000000000000006001600160a01b031633145b6117c15760405162461bcd60e51b815260206004820152601f60248201527f4d756c74692f726574726163744f666665722f756e617574686f72697a65640060448201526064016104fa565b60208101516001600160601b0316156117f657826117e05760006117e6565b80602001515b6001600160601b0316915061188e565b60405163ad97db1b60e01b81527f00000000000000000000000000000000000000000000000000000000000000006001600160a01b03169063ad97db1b90611848908990899089908990600401613abc565b6020604051808303816000875af1158015611867573d6000803e3d6000fd5b505050506040513d601f19601f8201168201806040525081019061188b9190613ae5565b91505b8115611a3757604051632e1a7d4d60e01b8152600481018390527f00000000000000000000000000000000000000000000000000000000000000006001600160a01b031690632e1a7d4d906024016020604051808303816000875af11580156118fb573d6000803e3d6000fd5b505050506040513d601f19601f8201168201806040525081019061191f9190613989565b6119645760405162461bcd60e51b8152602060048201526016602482015275135d5b1d1a555cd95c8bddda5d1a191c985dd1985a5b60521b60448201526064016104fa565b60408051808201825282516001600160a01b039081168252600060208084018281528b841683528282528583208b8516845282528583208a8452909152939020915192516001600160601b0316600160a01b0292169190911790556119c76122d5565b604051631af82a7560e31b81523360048201526001600160a01b03919091169063d7c153a890849060240160206040518083038185885af1158015611a10573d6000803e3d6000fd5b50505050506040513d601f19601f82011682018060405250810190611a359190613989565b505b50949350505050565b611a486122bc565b6001600160a01b0316336001600160a01b03161480611a8f5750336001600160a01b037f000000000000000000000000000000000000000000000000000000000000000016145b611aab5760405162461bcd60e51b81526004016104fa90613a68565b60405163095ea7b360e01b81526001600160a01b037f0000000000000000000000000000000000000000000000000000000000000000811660048301526024820183905283169063095ea7b3906044016020604051808303816000875af1158015611b1a573d6000803e3d6000fd5b505050506040513d601f19601f82011682018060405250810190611b3e9190613989565b6116c85760405162461bcd60e51b815260206004820152601d60248201527f6d67764f666665722f617070726f76654d616e67726f76652f4661696c00000060448201526064016104fa565b6000611b946116cc565b15611c1a57611ba16122d5565b6001600160a01b0316630417ffda6040518163ffffffff1660e01b8152600401602060405180830381865afa158015611bde573d6000803e3d6000fd5b505050506040513d601f19601f82011682018060405250810190611c029190613ae5565b611c0a6124c5565b54611c159190613b14565b905090565b611c226124c5565b54919050565b611c306122bc565b6001600160a01b0316336001600160a01b03161480611c775750336001600160a01b037f000000000000000000000000000000000000000000000000000000000000000016145b611c935760405162461bcd60e51b81526004016104fa90613a68565b6001600160a01b038116611ce95760405162461bcd60e51b815260206004820152601c60248201527f6d67764f666665722f7365745f726f757465722f3078526f757465720000000060448201526064016104fa565b80611cf26124c5565b60010180546001600160a01b0319166001600160a01b039283161790556040516381bac14f60e01b8152306004820152908216906381bac14f90602401600060405180830381600087803b158015611d4957600080fd5b505af1158015611d5d573d6000803e3d6000fd5b50506040516001600160a01b03841681527f6de4326a8b9054d72d9dbab97d27bc4edffadee7d966f5af9cc4eafdaf8e5455925060200190505b60405180910390a150565b60608167ffffffffffffffff811115611dbd57611dbd6139a6565b604051908082528060200260200182016040528015611de6578160200160208202803683370190505b50905060005b82811015611a3757611e178686868685818110611e0b57611e0b613bb6565b90506020020135612335565b828281518110611e2957611e29613bb6565b6001600160a01b039092166020928302919091019091015280611e4b81613b62565b915050611dec565b600080806001600160a01b037f00000000000000000000000000000000000000000000000000000000000000001663cbf75c9a89896040516001600160e01b031960e085901b1681526001600160a01b039283166004820152911660248201526044016040805180830381865afa158015611ed2573d6000803e3d6000fd5b505050506040513d601f19601f82011682018060405250810190611ef69190613bcc565b9150915060007f00000000000000000000000000000000000000000000000000000000000000006001600160a01b0316635722647b611f328b90565b8a886040518463ffffffff1660e01b8152600401611f5293929190613b7b565b602060405180830381865afa158015611f6f573d6000803e3d6000fd5b505050506040513d601f19601f82011682018060405250810190611f939190613ae5565b9050600086604085901c61ffff161115611fb6575061ffff604084901c16611fb9565b50855b62ffffff8810611fce57611fcb611b8a565b97505b600081611fe462ffffff606087901c168b613b14565b611fee9190613bf0565b611ffc90633b9aca00613bf0565b9050600061ffff602085901c1661202362ffffff603087901c811690604888901c16613b14565b61202d9190613bf0565b61203b90633b9aca00613bf0565b6040516370a0823160e01b81523060048201529091506000906001600160a01b037f000000000000000000000000000000000000000000000000000000000000000016906370a0823190602401602060405180830381865afa1580156120a5573d6000803e3d6000fd5b505050506040513d601f19601f820116820180604052508101906120c99190613ae5565b6120d39083613b14565b9050828110156120ec576120e78184613b9f565b6120ef565b60005b9d9c50505050505050505050505050565b600061210a6122d5565b6040516302b427ef60e11b81526001600160a01b03848116600483015233602483015291909116906305684fde90604401602060405180830381865afa158015612158573d6000803e3d6000fd5b505050506040513d601f19601f820116820180604052508101906107439190613ae5565b6121846122bc565b6001600160a01b0316336001600160a01b031614806121cb5750336001600160a01b037f000000000000000000000000000000000000000000000000000000000000000016145b6121e75760405162461bcd60e51b81526004016104fa90613a68565b806001600160a01b031663095ea7b36121fe6122d5565b6040516001600160e01b031960e084901b1681526001600160a01b03909116600482015260001960248201526044016020604051808303816000875af115801561224c573d6000803e3d6000fd5b505050506040513d601f19601f820116820180604052508101906122709190613989565b6105fc5760405162461bcd60e51b815260206004820152601b60248201527f6d67764f666665722f617070726f7665526f757465722f4661696c000000000060448201526064016104fa565b60006122c66124a1565b546001600160a01b0316919050565b6000806122e06124c5565b600101546001600160a01b03169050806123305760405162461bcd60e51b815260206004820152601160248201527036b3bb27b33332b917983c2937baba32b960791b60448201526064016104fa565b919050565b6001600160a01b038084166000908152602081815260408083208685168452825280832085845290915290205416806105915760405162461bcd60e51b815260206004820152601560248201527436bab63a34aab9b2b917bab735b7bbb727b33332b960591b60448201526064016104fa565b6123b06122bc565b6001600160a01b0316336001600160a01b031614806123f75750336001600160a01b037f000000000000000000000000000000000000000000000000000000000000000016145b6124135760405162461bcd60e51b81526004016104fa90613a68565b808162ffffff16146124675760405162461bcd60e51b815260206004820152601860248201527f6d67764f666665722f6761737265712f6f766572666c6f77000000000000000060448201526064016104fa565b806124706124c5565b556040518181527fafef3ad374c0b972e3c793be825735801fa05cc4c67157d98d9a111b4027988d90602001611d97565b7f7d382ebca3e46505071795e192d28166a3d4bd0685585591bc6c5b8df6769fd290565b7fae7e31c3220e851db9f204a28b279dfe52b973600b0a456991089c220ae7222490565b81516001600160a01b039081166000908152602081815260408083208287015185168452825280832060e0870151845282528083208151808301835290549485168152600160a01b9094046001600160601b031684830152805160808101825283815291820183905281018290526060810182905290919081516001600160a01b03163314806125a15750336001600160a01b037f000000000000000000000000000000000000000000000000000000000000000016145b6125ed5760405162461bcd60e51b815260206004820152601e60248201527f4d756c74692f7570646174654f666665722f756e617574686f72697a6564000060448201526064016104fa565b8451602086015160e0870151604051635722647b60e01b81527f00000000000000000000000000000000000000000000000000000000000000006001600160a01b031693635722647b93612648939192909190600401613b7b565b602060405180830381865afa158015612665573d6000803e3d6000fd5b505050506040513d601f19601f820116820180604052508101906126899190613ae5565b604082015284516001600160a01b037f0000000000000000000000000000000000000000000000000000000000000000169063cbf75c9a9060208801516040516001600160e01b031960e085901b1681526001600160a01b039283166004820152911660248201526044016040805180830381865afa158015612710573d6000803e3d6000fd5b505050506040513d601f19601f820116820180604052508101906127349190613bcc565b6020830152815260608101849052608085015162ffffff1061275a578460800151612762565b612762611b8a565b6080860152604081015160201c61ffff1660a086018190526000036128445760208201516001600160601b03161561281a5781602001516001600160601b0316816060018181516127b39190613b14565b90525060408051808201825283516001600160a01b039081168252600060208084018281528a51841683528282528583208b83015185168452825285832060e08c01518452909152939020915192516001600160601b0316600160a01b0292169190911790555b6080850151606080830151602084015161283a93921c62ffffff166133e4565b60a08601526128c5565b83156128c557602081015160601c62ffffff16604082015160481c62ffffff1661286e9190613b14565b60a086015161288190633b9aca00613bf0565b61288b9190613bf0565b8160600181815161289c9190613b14565b905250608085015160608083015160208401516128bf93921c62ffffff166133e4565b60a08601525b805160401c61ffff168560a0015110156129325760405162461bcd60e51b815260206004820152602860248201527f4d756c7469557365722f7570646174654f666665722f4e6f74456e6f756768506044820152673937bb34b9b4b7b760c11b60648201526084016104fa565b7f00000000000000000000000000000000000000000000000000000000000000006001600160a01b0316636a4f76918561296d886000015190565b602089015189604001518a606001518b608001518c60a001518d60c001518e60e001516040518a63ffffffff1660e01b81526004016129f29897969594939291906001600160a01b03988916815296909716602087015260408601949094526060850192909252608084015260a083015260c082015260e08101919091526101000190565b6000604051808303818588803b158015612a0b57600080fd5b505af193505050508015612a1d575060015b612a2c57600092505050610743565b506001949350505050565b6000612a428261347f565b905080612330576112e7612a596020840184613763565b612a696040850160208601613763565b846040013560016116eb565b600080612a856020850185613763565b90506000612a996040860160208701613763565b6001600160a01b03838116600090815260208181526040808320858516845282528083208a82013584528252918290208251808401845290548085168252600160a01b90046001600160601b03169181019190915290516370a0823160e01b8152306004820152929350917f000000000000000000000000000000000000000000000000000000000000000090911690632e1a7d4d9082906370a0823190602401602060405180830381865afa158015612b57573d6000803e3d6000fd5b505050506040513d601f19601f82011682018060405250810190612b7b9190613ae5565b6040518263ffffffff1660e01b8152600401612b9991815260200190565b6020604051808303816000875af1158015612bb8573d6000803e3d6000fd5b505050506040513d601f19601f82011682018060405250810190612bdc9190613989565b612c385760405162461bcd60e51b815260206004820152602760248201527f4d756c7469557365722f706f7374686f6f6b46616c6c6261636b2f77697468646044820152661c985dd1985a5b60ca1b60648201526084016104fa565b6000806001600160a01b037f00000000000000000000000000000000000000000000000000000000000000001663cbf75c9a612c7760208b018b613763565b612c8760408c0160208d01613763565b6040516001600160e01b031960e085901b1681526001600160a01b039283166004820152911660248201526044016040805180830381865afa158015612cd1573d6000803e3d6000fd5b505050506040513d601f19601f82011682018060405250810190612cf59190613bcc565b90925090506000612d1261ffff604085901c16633b9aca00613bf0565b9050600060c08a013560301c62ffffff1660c08b013560481c62ffffff16612d3a9190613b14565b612d5361ffff60c08d013560201c16633b9aca00613bf0565b612d5d9190613bf0565b9050600082606085901c62ffffff165a60c08e013560481c62ffffff16612d849190613b9f565b612d9090610bb8613b14565b612d9a9190613b14565b612da49190613bf0565b9050600082821015612dbf57612dba8284613b9f565b612dc2565b60005b60408051808201825298516001600160a01b039081168a526001600160601b039283166020808c019182529c82166000908152808e528381209c831681529b8d52828c209f8301358c529e909b5290982096519b51909716600160a01b029a90971699909917909355506001979650505050505050565b825160208401516040516365fbae4d60e11b81526001600160a01b0392831660048201529082166024820152600091829182917f0000000000000000000000000000000000000000000000000000000000000000169063cbf75c9a906044016040805180830381865afa158015612eb4573d6000803e3d6000fd5b505050506040513d601f19601f82011682018060405250810190612ed89190613bcc565b9150915062ffffff8016866080015111612ef6578560800151612efe565b612efe611b8a565b60808701819052612f199085606084901c62ffffff166133e4565b60a0870181905261ffff604084901c161115612f855760405162461bcd60e51b815260206004820152602560248201527f4d756c7469557365722f6e65774f666665722f4e6f74456e6f75676850726f7660448201526434b9b4b7b760d91b60648201526084016104fa565b7f00000000000000000000000000000000000000000000000000000000000000006001600160a01b03166349f6d2dc85612fc0896000015190565b60208a01518a604001518b606001518c608001518d60a001518e60c001516040518963ffffffff1660e01b815260040161303997969594939291906001600160a01b03978816815295909616602086015260408501939093526060840191909152608083015260a082015260c081019190915260e00190565b60206040518083038185885af1158015613057573d6000803e3d6000fd5b50505050506040513d601f19601f8201168201806040525081019061307c9190613ae5565b60e08701819052865160208801516130949288613556565b50505060e08301519392505050565b60006130b56080840160608501613a9f565b156130cd578260c00135826020015110159050610743565b606082015182516080850135916130e391613b14565b10159050610743565b600081158061310357506001600160a01b03831630145b1561311057506001610591565b604080516001600160a01b038581166024830152604480830186905283518084039091018152606490920183526020820180516001600160e01b031663a9059cbb60e01b179052915160009283929088169161316c9190613c0f565b6000604051808303816000865af19150503d80600081146131a9576040519150601f19603f3d011682016040523d82523d6000602084013e6131ae565b606091505b50915091508180156131d85750805115806131d85750808060200190518101906131d89190613989565b9695505050505050565b6000806001816131f56020860186613763565b6001600160a01b03166001600160a01b03168152602001908152602001600020600084602001602081019061322a9190613763565b6001600160a01b03168152602080820192909252604090810160009081208683013582529092529020549050801580610591575043111592915050565b6000806132776020840184613763565b9050600061328b6040850160208601613763565b9050600061329e83838760400135612335565b90506132a86122d5565b6001600160a01b03166326e8eda28383896040518463ffffffff1660e01b81526004016132d793929190613b7b565b600060405180830381600087803b1580156132f157600080fd5b505af1158015613305573d6000803e3d6000fd5b5060009998505050505050505050565b6000806133256020840184613763565b905060006133396040850160208601613763565b9050600061334c83838760400135612335565b905060006133586122d5565b6001600160a01b031663333dbb0d85848a60016040518563ffffffff1660e01b815260040161338a9493929190613abc565b6020604051808303816000875af11580156133a9573d6000803e3d6000fd5b505050506040513d601f19601f820116820180604052508101906133cd9190613ae5565b90506133d98188613b9f565b979650505050505050565b6000806133f18584613b14565b6133ff90633b9aca00613bf0565b9050808410156134665760405162461bcd60e51b815260206004820152602c60248201527f4d756c7469557365722f6465726976655f67617370726963652f4e6f74456e6f60448201526b3ab3b4283937bb34b9b4b7b760a11b60648201526084016104fa565b80848161347557613475613c4a565b0495945050505050565b60008061348b8361362c565b905060006134988461364c565b9050816000036134ac575060019392505050565b60408051610100810190915261354e90806134ca6020880188613763565b6001600160a01b031681526020018660200160208101906134eb9190613763565b6001600160a01b03168152602081018490526040810185905260600160c087013560481c62ffffff16815260209081019060c0880135901c61ffff168152602001606087013560c01c63ffffffff168152602001866040013581525060006124e9565b949350505050565b6040805180820182526001600160a01b038084168252600060208084018281528984168084528383528684208a86168086529084528785208a865290935292869020945190516001600160601b0316600160a01b029316929092179092559151849291907f460a431c86ecaea27134277388c72021356689d9eb62c3b25a5e4a97da7a8a149061361e907f00000000000000000000000000000000000000000000000000000000000000009087906001600160a01b0392831681529116602082015260400190565b60405180910390a450505050565b600060808201356001600160601b036060840135165b6107439190613b9f565b600060a0820135606080840135901c6001600160601b0316613642565b6001600160a01b03811681146105fc57600080fd5b803561233081613669565b60008060006060848603121561369e57600080fd5b83356136a981613669565b925060208401356136b981613669565b929592945050506040919091013590565b600061010082840312156112e757600080fd5b600061012082840312156112e757600080fd5b60008082840361016081121561370557600080fd5b61370f85856136dd565b9250604061011f198201121561372457600080fd5b50610120830190509250929050565b600061018082840312156112e757600080fd5b6000610120828403121561375957600080fd5b61059183836136dd565b60006020828403121561377557600080fd5b813561059181613669565b6000806040838503121561379357600080fd5b8235915060208301356137a581613669565b809150509250929050565b80151581146105fc57600080fd5b600080600080608085870312156137d457600080fd5b84356137df81613669565b935060208501356137ef81613669565b9250604085013591506060850135613806816137b0565b939692955090935050565b6000806040838503121561382457600080fd5b823561382f81613669565b946020939093013593505050565b6000806000806060858703121561385357600080fd5b843561385e81613669565b9350602085013561386e81613669565b9250604085013567ffffffffffffffff8082111561388b57600080fd5b818701915087601f83011261389f57600080fd5b8135818111156138ae57600080fd5b8860208260051b85010111156138c357600080fd5b95989497505060200194505050565b6020808252825182820181905260009190848201906040850190845b818110156139135783516001600160a01b0316835292840192918401916001016138ee565b50909695505050505050565b600080600080600060a0868803121561393757600080fd5b853561394281613669565b9450602086013561395281613669565b94979496505050506040830135926060810135926080909101359150565b60006020828403121561398257600080fd5b5035919050565b60006020828403121561399b57600080fd5b8151610591816137b0565b634e487b7160e01b600052604160045260246000fd5b60006101008083850312156139d057600080fd5b6040519081019067ffffffffffffffff82118183101715613a0157634e487b7160e01b600052604160045260246000fd5b81604052613a0e8461367e565b8152613a1c6020850161367e565b602082015260408401356040820152606084013560608201526080840135608082015260a084013560a082015260c084013560c082015260e084013560e0820152809250505092915050565b60208082526018908201527f416363657373436f6e74726f6c6c65642f496e76616c69640000000000000000604082015260600190565b600060208284031215613ab157600080fd5b8135610591816137b0565b6001600160a01b0394851681529290931660208301526040820152901515606082015260800190565b600060208284031215613af757600080fd5b5051919050565b634e487b7160e01b600052601160045260246000fd5b60008219821115613b2757613b27613afe565b500190565b60008060008060808587031215613b4257600080fd5b505082516020840151604085015160609095015191969095509092509050565b600060018201613b7457613b74613afe565b5060010190565b6001600160a01b039384168152919092166020820152604081019190915260600190565b600082821015613bb157613bb1613afe565b500390565b634e487b7160e01b600052603260045260246000fd5b60008060408385031215613bdf57600080fd5b505080516020909101519092909150565b6000816000190483118215151615613c0a57613c0a613afe565b500290565b6000825160005b81811015613c305760208186018101518583015201613c16565b81811115613c3f576000828501525b509190910192915050565b634e487b7160e01b600052601260045260246000fdfea26469706673582212203923964e49860563636d3b811efac39243f0888e0f107026f018db81003200f164736f6c634300080e0033608060405234801561001057600080fd5b5061c35033806100675760405162461bcd60e51b815260206004820152601860248201527f616363657373436f6e74726f6c6c65642f307841646d696e000000000000000060448201526064015b60405180910390fd5b8061007a6100f560201b6107a71760201c565b80546001600160a01b0319166001600160a01b03929092169190911790555062ffffff811681146100ed5760405162461bcd60e51b815260206004820152601e60248201527f4162737472616374526f757465722f6f76657268656164546f6f486967680000604482015260640161005e565b600155610119565b7f7d382ebca3e46505071795e192d28166a3d4bd0685585591bc6c5b8df6769fd290565b610cfd806101286000396000f3fe6080604052600436106100c25760003560e01c8063362aecb11161007f578063cf5e7bd311610059578063cf5e7bd31461021a578063d7c153a81461023a578063f850a81c1461024d578063f851a4401461026d57600080fd5b8063362aecb1146101aa578063704b6c02146101da57806381bac14f146101fa57600080fd5b80630417ffda146100c757806305684fde146100f057806321754d9e1461011057806326e8eda21461014057806332563bc714610162578063333dbb0d1461018a575b600080fd5b3480156100d357600080fd5b506100dd60015481565b6040519081526020015b60405180910390f35b3480156100fc57600080fd5b506100dd61010b366004610a16565b61029a565b34801561011c57600080fd5b5061013061012b366004610a4f565b610311565b60405190151581526020016100e7565b34801561014c57600080fd5b5061016061015b366004610aa0565b610360565b005b34801561016e57600080fd5b506100dd61017d366004610ae1565b6001600160a01b03163190565b34801561019657600080fd5b506100dd6101a5366004610b13565b6103a0565b3480156101b657600080fd5b506101306101c5366004610ae1565b60006020819052908152604090205460ff1681565b3480156101e657600080fd5b506101606101f5366004610ae1565b610464565b34801561020657600080fd5b50610160610215366004610ae1565b61054c565b34801561022657600080fd5b50610160610235366004610ae1565b6105c2565b610130610248366004610ae1565b610635565b34801561025957600080fd5b50610160610268366004610b66565b61066e565b34801561027957600080fd5b5061028261078e565b6040516001600160a01b0390911681526020016100e7565b6040516370a0823160e01b81526001600160a01b038281166004830152600091908416906370a0823190602401602060405180830381865afa1580156102e4573d6000803e3d6000fd5b505050506040513d601f19601f820116820180604052508101906103089190610bec565b90505b92915050565b3360009081526020819052604081205460ff166103495760405162461bcd60e51b815260040161034090610c05565b60405180910390fd5b610355858585856107cb565b90505b949350505050565b3360009081526020819052604090205460ff1661038f5760405162461bcd60e51b815260040161034090610c05565b61039b838333846107d9565b505050565b3360009081526020819052604081205460ff166103cf5760405162461bcd60e51b815260040161034090610c05565b6040516370a0823160e01b81523360048201526000906001600160a01b038716906370a0823190602401602060405180830381865afa158015610416573d6000803e3d6000fd5b505050506040513d601f19601f8201168201806040525081019061043a9190610bec565b905083811061044d576000915050610358565b61045a8686338787610831565b9695505050505050565b61046c61078e565b6001600160a01b0316336001600160a01b0316146104cc5760405162461bcd60e51b815260206004820152601860248201527f416363657373436f6e74726f6c6c65642f496e76616c696400000000000000006044820152606401610340565b6001600160a01b0381166105225760405162461bcd60e51b815260206004820152601860248201527f416363657373436f6e74726f6c6c65642f307841646d696e00000000000000006044820152606401610340565b8061052b6107a7565b80546001600160a01b0319166001600160a01b039290921691909117905550565b61055461078e565b6001600160a01b0316336001600160a01b0316148061058257503360009081526020819052604090205460ff165b61059e5760405162461bcd60e51b815260040161034090610c05565b6001600160a01b03166000908152602081905260409020805460ff19166001179055565b6105ca61078e565b6001600160a01b0316336001600160a01b031614806105f857503360009081526020819052604090205460ff165b6106145760405162461bcd60e51b815260040161034090610c05565b6001600160a01b03166000908152602081905260409020805460ff19169055565b3360009081526020819052604081205460ff166106645760405162461bcd60e51b815260040161034090610c05565b61030b8234610858565b3360009081526020819052604090205460ff1661069d5760405162461bcd60e51b815260040161034090610c05565b60005b828110156107885760008484838181106106bc576106bc610c32565b90506020020160208101906106d19190610ae1565b6040516370a0823160e01b81523360048201526001600160a01b0391909116906370a0823190602401602060405180830381865afa158015610717573d6000803e3d6000fd5b505050506040513d601f19601f8201168201806040525081019061073b9190610bec565b905080156107755761077585858481811061075857610758610c32565b905060200201602081019061076d9190610ae1565b8433846107d9565b508061078081610c48565b9150506106a0565b50505050565b60006107986107a7565b546001600160a01b0316919050565b7f7d382ebca3e46505071795e192d28166a3d4bd0685585591bc6c5b8df6769fd290565b6000610355858585856108f6565b6107e5848385846108f6565b6107885760405162461bcd60e51b815260206004820152601e60248201527f53696d706c65526f757465722f707573682f7472616e736665724661696c00006044820152606401610340565b600061083f868686866108f6565b1561084b57508161084f565b5060005b95945050505050565b6000826001600160a01b03168260405160006040518083038185875af1925050503d80600081146108a5576040519150601f19603f3d011682016040523d82523d6000602084013e6108aa565b606091505b5050809150508061030b5760405162461bcd60e51b81526020600482015260166024820152751b59dd93dc99195c8bdb5bcbdc99599d5b9911985a5b60521b6044820152606401610340565b60008115806109165750826001600160a01b0316846001600160a01b0316145b1561092357506001610358565b604080516001600160a01b0386811660248301528581166044830152606480830186905283518084039091018152608490920183526020820180516001600160e01b03166323b872dd60e01b17905291516000928392908916916109879190610c6f565b6000604051808303816000865af19150503d80600081146109c4576040519150601f19603f3d011682016040523d82523d6000602084013e6109c9565b606091505b50915091508180156109f35750805115806109f35750808060200190518101906109f39190610caa565b979650505050505050565b6001600160a01b0381168114610a1357600080fd5b50565b60008060408385031215610a2957600080fd5b8235610a34816109fe565b91506020830135610a44816109fe565b809150509250929050565b60008060008060808587031215610a6557600080fd5b8435610a70816109fe565b93506020850135610a80816109fe565b92506040850135610a90816109fe565b9396929550929360600135925050565b600080600060608486031215610ab557600080fd5b8335610ac0816109fe565b92506020840135610ad0816109fe565b929592945050506040919091013590565b600060208284031215610af357600080fd5b8135610afe816109fe565b9392505050565b8015158114610a1357600080fd5b60008060008060808587031215610b2957600080fd5b8435610b34816109fe565b93506020850135610b44816109fe565b9250604085013591506060850135610b5b81610b05565b939692955090935050565b600080600060408486031215610b7b57600080fd5b833567ffffffffffffffff80821115610b9357600080fd5b818601915086601f830112610ba757600080fd5b813581811115610bb657600080fd5b8760208260051b8501011115610bcb57600080fd5b60209283019550935050840135610be1816109fe565b809150509250925092565b600060208284031215610bfe57600080fd5b5051919050565b602080825260139082015272149bdd5d195c8bdd5b985d5d1a1bdc9a5e9959606a1b604082015260600190565b634e487b7160e01b600052603260045260246000fd5b600060018201610c6857634e487b7160e01b600052601160045260246000fd5b5060010190565b6000825160005b81811015610c905760208186018101518583015201610c76565b81811115610c9f576000828501525b509190910192915050565b600060208284031215610cbc57600080fd5b8151610afe81610b0556fea264697066735822122032abe7da40276151732235ff38bf2bb6331c01855dd914247ffec73ec2807d6264736f6c634300080e0033",
    "linkReferences": {}
  },
  "methodIdentifiers": {
    "MGV()": "99fa5e2d",
    "admin()": "f851a440",
    "approveMangrove(address,uint256)": "aefe8403",
    "approveRouter(address)": "f259cd27",
    "expiring(address,address,uint256)": "4e7effa8",
    "getMissingProvision(address,address,uint256,uint256,uint256)": "e4c34f84",
    "has_router()": "84b627f9",
    "makerExecute((address,address,uint256,uint256,uint256,uint256,uint256,uint256,uint256))": "6c49c32c",
    "makerPosthook((address,address,uint256,uint256,uint256,uint256,uint256,uint256,uint256),(bytes32,bytes32))": "3d3d130d",
    "newOffer((address,address,uint256,uint256,uint256,uint256,uint256,uint256))": "5486c95f",
    "offerOwners(address,address,uint256[])": "dec8c86b",
    "ofr_gasreq()": "d1baa1ef",
    "ownerOf(address,address,uint256)": "f92495e5",
    "retractOffer(address,address,uint256,bool)": "ad97db1b",
    "router()": "f887ea40",
    "setAdmin(address)": "704b6c02",
    "set_gasreq(uint256)": "fc488a38",
    "set_router(address)": "db11851e",
    "take((address,address,bool,bool,uint256,uint256,uint256,uint256,bool,uint256,uint256,uint256))": "6a1c7d05",
    "tokenBalance(address)": "eedc966a",
    "updateOffer((address,address,uint256,uint256,uint256,uint256,uint256,uint256))": "10aded60",
    "withdrawFromMangrove(uint256,address)": "7144df24",
    "withdrawToken(address,address,uint256)": "01e33667"
  },
  "id": 11
}